{
  "_format": "hh-sol-artifact-1",
  "contractName": "MerkleDrop",
  "sourceName": "contracts/migration/MerkleDrop.sol",
  "abi": [
    {
      "anonymous": false,
      "inputs": [
        {
          "indexed": false,
          "internalType": "address",
          "name": "claimant",
          "type": "address"
        },
        {
          "indexed": false,
          "internalType": "uint256",
          "name": "week",
          "type": "uint256"
        },
        {
          "indexed": false,
          "internalType": "uint256",
          "name": "balance",
          "type": "uint256"
        }
      ],
      "name": "Claimed",
      "type": "event"
    },
    {
      "anonymous": false,
      "inputs": [
        {
          "indexed": true,
          "internalType": "address",
          "name": "_address",
          "type": "address"
        }
      ],
      "name": "RemovedFunder",
      "type": "event"
    },
    {
      "anonymous": false,
      "inputs": [
        {
          "indexed": false,
          "internalType": "uint256",
          "name": "tranche",
          "type": "uint256"
        },
        {
          "indexed": false,
          "internalType": "bytes32",
          "name": "merkleRoot",
          "type": "bytes32"
        },
        {
          "indexed": false,
          "internalType": "uint256",
          "name": "totalAmount",
          "type": "uint256"
        }
      ],
      "name": "TrancheAdded",
      "type": "event"
    },
    {
      "anonymous": false,
      "inputs": [
        {
          "indexed": false,
          "internalType": "uint256",
          "name": "tranche",
          "type": "uint256"
        }
      ],
      "name": "TrancheExpired",
      "type": "event"
    },
    {
      "anonymous": false,
      "inputs": [
        {
          "indexed": true,
          "internalType": "address",
          "name": "_address",
          "type": "address"
        }
      ],
      "name": "Whitelisted",
      "type": "event"
    },
    {
      "constant": true,
      "inputs": [
        {
          "internalType": "bytes32",
          "name": "c__0x89b12937",
          "type": "bytes32"
        }
      ],
      "name": "c_0x89b12937",
      "outputs": [],
      "payable": false,
      "stateMutability": "pure",
      "type": "function"
    },
    {
      "constant": false,
      "inputs": [
        {
          "internalType": "address",
          "name": "_claimer",
          "type": "address"
        },
        {
          "internalType": "uint256",
          "name": "_tranche",
          "type": "uint256"
        },
        {
          "internalType": "uint256",
          "name": "_balance",
          "type": "uint256"
        },
        {
          "internalType": "bytes32[]",
          "name": "_merkleProof",
          "type": "bytes32[]"
        }
      ],
      "name": "claimTranche",
      "outputs": [],
      "payable": false,
      "stateMutability": "nonpayable",
      "type": "function"
    },
    {
      "constant": true,
      "inputs": [
        {
          "internalType": "uint256",
          "name": "",
          "type": "uint256"
        },
        {
          "internalType": "address",
          "name": "",
          "type": "address"
        }
      ],
      "name": "claimed",
      "outputs": [
        {
          "internalType": "bool",
          "name": "",
          "type": "bool"
        }
      ],
      "payable": false,
      "stateMutability": "view",
      "type": "function"
    },
    {
      "constant": false,
      "inputs": [
        {
          "internalType": "uint256",
          "name": "_trancheId",
          "type": "uint256"
        }
      ],
      "name": "expireTranche",
      "outputs": [],
      "payable": false,
      "stateMutability": "nonpayable",
      "type": "function"
    },
    {
      "constant": false,
      "inputs": [
        {
          "internalType": "address",
          "name": "_nexus",
          "type": "address"
        },
        {
          "internalType": "address[]",
          "name": "_funders",
          "type": "address[]"
        },
        {
          "internalType": "contract IERC20",
          "name": "_token",
          "type": "address"
        },
        {
          "internalType": "uint256",
          "name": "_thresholdBlock",
          "type": "uint256"
        }
      ],
      "name": "initialize",
      "outputs": [],
      "payable": false,
      "stateMutability": "nonpayable",
      "type": "function"
    },
    {
      "constant": true,
      "inputs": [
        {
          "internalType": "uint256",
          "name": "",
          "type": "uint256"
        }
      ],
      "name": "merkleRoots",
      "outputs": [
        {
          "internalType": "bytes32",
          "name": "",
          "type": "bytes32"
        }
      ],
      "payable": false,
      "stateMutability": "view",
      "type": "function"
    },
    {
      "constant": true,
      "inputs": [],
      "name": "nexus",
      "outputs": [
        {
          "internalType": "contract INexus",
          "name": "",
          "type": "address"
        }
      ],
      "payable": false,
      "stateMutability": "view",
      "type": "function"
    },
    {
      "constant": false,
      "inputs": [
        {
          "internalType": "bytes32",
          "name": "_merkleRoot",
          "type": "bytes32"
        },
        {
          "internalType": "uint256",
          "name": "_totalAllocation",
          "type": "uint256"
        }
      ],
      "name": "seedNewAllocations",
      "outputs": [
        {
          "internalType": "uint256",
          "name": "trancheId",
          "type": "uint256"
        }
      ],
      "payable": false,
      "stateMutability": "nonpayable",
      "type": "function"
    },
    {
      "constant": true,
      "inputs": [],
      "name": "thresholdBlock",
      "outputs": [
        {
          "internalType": "uint256",
          "name": "",
          "type": "uint256"
        }
      ],
      "payable": false,
      "stateMutability": "view",
      "type": "function"
    },
    {
      "constant": true,
      "inputs": [],
      "name": "token",
      "outputs": [
        {
          "internalType": "contract IERC20",
          "name": "",
          "type": "address"
        }
      ],
      "payable": false,
      "stateMutability": "view",
      "type": "function"
    },
    {
      "constant": true,
      "inputs": [
        {
          "internalType": "address",
          "name": "_claimer",
          "type": "address"
        },
        {
          "internalType": "uint256",
          "name": "_tranche",
          "type": "uint256"
        },
        {
          "internalType": "uint256",
          "name": "_balance",
          "type": "uint256"
        },
        {
          "internalType": "bytes32[]",
          "name": "_merkleProof",
          "type": "bytes32[]"
        }
      ],
      "name": "verifyClaim",
      "outputs": [
        {
          "internalType": "bool",
          "name": "valid",
          "type": "bool"
        }
      ],
      "payable": false,
      "stateMutability": "view",
      "type": "function"
    },
    {
      "constant": true,
      "inputs": [
        {
          "internalType": "address",
          "name": "",
          "type": "address"
        }
      ],
      "name": "whitelist",
      "outputs": [
        {
          "internalType": "bool",
          "name": "",
          "type": "bool"
        }
      ],
      "payable": false,
      "stateMutability": "view",
      "type": "function"
    }
  ],
  "bytecode": "0x608060405234801561001057600080fd5b50612e4c806100206000396000f3fe608060405234801561001057600080fd5b50600436106100b45760003560e01c80639b19251a116100715780639b19251a1461019f578063a3f5c1d2146101cf578063cd54e72c146101ed578063d5efd20a14610209578063eb0d07f514610225578063fc0c546a14610255576100b4565b80630af49690146100b9578063120aa877146100d557806329eb15bd146101055780634ab541131461012357806365ef53b11461013f57806371c5ecb11461016f575b600080fd5b6100d360048036036100ce9190810190611e6a565b610273565b005b6100ef60048036036100ea919081019061201c565b610528565b6040516100fc9190612917565b60405180910390f35b61010d610557565b60405161011a9190612b63565b60405180910390f35b61013d60048036036101389190810190611f8e565b61055d565b005b61015960048036036101549190810190611fb7565b610560565b6040516101669190612b63565b60405180910390f35b61018960048036036101849190810190611ff3565b6108fd565b6040516101969190612932565b60405180910390f35b6101b960048036036101b49190810190611e41565b610915565b6040516101c69190612917565b60405180910390f35b6101d7610935565b6040516101e49190612968565b60405180910390f35b61020760048036036102029190810190611eea565b61095b565b005b610223600480360361021e9190810190611ff3565b610b48565b005b61023f600480360361023a9190810190611eea565b610d05565b60405161024c9190612917565b60405180910390f35b61025d610da1565b60405161026a919061294d565b60405180910390f35b600060019054906101000a900460ff16806102925750610291610dc7565b5b806102a957506000809054906101000a900460ff16155b6102e8576040517f08c379a00000000000000000000000000000000000000000000000000000000081526004016102df90612a63565b60405180910390fd5b60008060019054906101000a900460ff161590508015610338576001600060016101000a81548160ff02191690831515021790555060016000806101000a81548160ff0219169083151502179055505b6103647f4d1f1914b463a1df1f22b59173999d66e00f3eb3d93c96078461089741fe4d5e60001b61055d565b6103907fc8680aa51866dd28c964d9ff1c468f13f265fe9194778743696982959f15427d60001b61055d565b6103bc7f70fe7550a8292996773c6a8eff9ec604d6b1d620f9156d62dd56d6d03f4c32e760001b61055d565b61040786868680806020026020016040519081016040528093929190818152602001838360200280828437600081840152601f19601f82011690508083019250505050505050610dde565b6104337f385bf05ed975ad04a29cc2eb3247c8ac8616e8d86c9ba33b9b0d08fadf60af8460001b61055d565b61045f7ffbc3bd7c8006d11293559a2fc66269990912023c448c136e614153fc2c32d6ef60001b61055d565b82603d60006101000a81548173ffffffffffffffffffffffffffffffffffffffff021916908373ffffffffffffffffffffffffffffffffffffffff1602179055506104cc7fe42a82d9fa7823147604ad67f7b08ada48e84b9eeb027d33184483de97e82e3160001b61055d565b6104f87fd02459ca4862f780af681f03433968b6771628f812870e5417f5b05bc9db0d5860001b61055d565b8160418190555080156105205760008060016101000a81548160ff0219169083151502179055505b505050505050565b603f6020528160005260406000206020528060005260406000206000915091509054906101000a900460ff1681565b60415481565b50565b6000603c60003373ffffffffffffffffffffffffffffffffffffffff1673ffffffffffffffffffffffffffffffffffffffff16815260200190815260200160002060009054906101000a900460ff166105ee576040517f08c379a00000000000000000000000000000000000000000000000000000000081526004016105e590612a43565b60405180910390fd5b61061a7f315242968ded7f9b8330ecdf39cd461ae225b1dd1c38fc2536d74c369dfd74d060001b61055d565b6106467f0fd95cd135356267e96e3c8c576f3833111cfec8aa740b2821393e1f3fc5fdd260001b61055d565b6106727f749a4b491e3ec8fc2cb8dd3e93f98bafd712a0af5865715bc89e1d2684dc7ac960001b61055d565b603d60009054906101000a900473ffffffffffffffffffffffffffffffffffffffff1673ffffffffffffffffffffffffffffffffffffffff166323b872dd3330856040518463ffffffff1660e01b81526004016106d193929190612880565b602060405180830381600087803b1580156106eb57600080fd5b505af11580156106ff573d6000803e3d6000fd5b505050506040513d601f19601f820116820180604052506107239190810190611f65565b506107507f7e59eca5c1b43081618504b2eae7dafcd7d96ee5322bebae630f76584f41bfab60001b61055d565b61077c7f3a93024ce5728ee64cadde0938c9c042deebc612ef167257dc7f368a7854187660001b61055d565b60405490506107ad7fa7f574c7b0914df10a5fe3a8284183fbd5431065e496a438c360f4e1c25dd17960001b61055d565b6107d97f5decc1ab22bd380340728f8694ad62b00ea8aa9406a7010794e0154833402efb60001b61055d565b82603e60008381526020019081526020016000208190555061081c7e2acd07252eb07396b2c478dff5a0ed494bdc18c8cd07e17a4f33ff2f19a0d460001b61055d565b6108487f49390cd3cc5042d04bf5d0ae87a01a4e0f362ff57220568b760ba522ce54d2cd60001b61055d565b61085e6001604054610e6890919063ffffffff16565b6040819055506108907f76b45c8ca2920b270a814fcfce414073daf1e556c52f0982e5a73937dc6289dd60001b61055d565b6108bc7f0827c235be2940a85524432af8eca279d66ad8263399e2c6fc891f394eabc7e760001b61055d565b7f5c8770684b8f82e9ade880fb05ccfb53c969170cd40e9746a3703f241c9023ec8184846040516108ef93929190612b7e565b60405180910390a192915050565b603e6020528060005260406000206000915090505481565b603c6020528060005260406000206000915054906101000a900460ff1681565b603b60009054906101000a900473ffffffffffffffffffffffffffffffffffffffff1681565b6109877fab16fffa5ec9834f3683233e5b122597e09c374015ade8003f6d0b2137d2574f60001b61055d565b6109b37fe6f1cb7b569c87117b0299a8fe4e1e368fe7384c6414dec90881263fd3e4d35c60001b61055d565b6109df7f5c2cac338cdb0eb6fe73854bd6fc2dd3dbc38c1eabf140f89c507b6767a9165860001b61055d565b610a0b7fda5fa761bfae6f8742d60af8e9b1d1dc279e1413ff2b020f274efb0f752c5e6e60001b61055d565b604154431015610a50576040517f08c379a0000000000000000000000000000000000000000000000000000000008152600401610a4790612a83565b60405180910390fd5b610a7c7f1d5c3d47b8ae3505f0f227b989d61ff28caf561f1fc4c2ce06d8fed7f4653f5760001b61055d565b610aa87f9d9a31a039450327c9b952ed312d5e49918b35bee5146ba139c271223d5b241b60001b61055d565b610ad47f0d64cece30771137043dff4facb9da2c842515947d40a55ace7780556f51c0aa60001b61055d565b610ae084848484610ebd565b610b0c7f3fe40e91dd1537b2180646a9002b731fb7328d51052f25b36d10ad63c3eced9c60001b61055d565b610b387f15ddc9631384152dcac66dc1aad0b42156d6fd34f298dfa1b15b36e6256848c360001b61055d565b610b428483611380565b50505050565b603c60003373ffffffffffffffffffffffffffffffffffffffff1673ffffffffffffffffffffffffffffffffffffffff16815260200190815260200160002060009054906101000a900460ff16610bd4576040517f08c379a0000000000000000000000000000000000000000000000000000000008152600401610bcb90612a43565b60405180910390fd5b610c007fcb2246b71cf42dc859cc1208bdfed13bdac5645a6a1868b2352e969e0e5954b060001b61055d565b610c2c7fa53851f3919261f5e7987d27048a0ee0d1163285162c94949ff0287bea421baa60001b61055d565b610c587f8df13cb44a889c5a1dc943ed7607111bcec10b61211a75565f77a1367d58020160001b61055d565b6000801b603e600083815260200190815260200160002081905550610c9f7fb25fee3dd43eb7ae13392e429abc836bbd3796a3e6fb1e374aa6f110c7f8f23560001b61055d565b610ccb7fca730240a2790b197cd1fab4ff25650191fe7c057e38afbb626e0367d57666de60001b61055d565b7fcc071cbd9ae50a4c78d1153b76bd2d46ba8d4c7662842718ec3de1d67a144daf81604051610cfa9190612b63565b60405180910390a150565b6000610d337f4120afbd551f72c4162881e2279d37710e95051aed61563a07c660d68e2af54b60001b61055d565b610d5f7fa115cc73960e281c4e22fd8c5ca0eee26d4967ad430b0fe23d3ebfc2bb09858d60001b61055d565b610d8b7f1e7d333bb04df98d810b7344e90d1cc157a3449c8458f2f06f9b4f7afe918f8860001b61055d565b610d97858585856115a6565b9050949350505050565b603d60009054906101000a900473ffffffffffffffffffffffffffffffffffffffff1681565b6000803090506000813b9050600081149250505090565b610de7826116da565b6000815111610e2b576040517f08c379a0000000000000000000000000000000000000000000000000000000008152600401610e2290612a23565b60405180910390fd5b60008090505b8151811015610e6357610e56828281518110610e4957fe5b6020026020010151611796565b8080600101915050610e31565b505050565b600080828401905083811015610eb3576040517f08c379a0000000000000000000000000000000000000000000000000000000008152600401610eaa906129e3565b60405180910390fd5b8091505092915050565b610ee97f9fb33dd966c858b2f8f89eef0965af4038b7d5c69ccc47c4e8d3f2f882d6250e60001b61055d565b610f157f753a86b1bd11a4e2902a48da439a4d219e83fdb0601350f629a63c98c06d31dc60001b61055d565b610f417fa495c0ba562e81d488eb842edd4dd1baa0b8aa4f1e22ec13e7b7e1c095bb8ebf60001b61055d565b610f6d7f0141b3d031771b9927f876b72fb03c2ef9a4142dd93c99ff7ae967748323cea060001b61055d565b6040548310610fb1576040517f08c379a0000000000000000000000000000000000000000000000000000000008152600401610fa8906129a3565b60405180910390fd5b610fdd7f3745f1c45124cd6da85bbfdb606a6d2186bdeb773f837022957930dad86e9dd360001b61055d565b6110097f47c9efe5e4b2618e76780f5d68a2ee31fb2740fb360aff79b99b9df3d14478ea60001b61055d565b6110357f7b48c738497fc9946365eefe78b7cb4fa050cb385284e5c48368e5ef339ed4bf60001b61055d565b6110617fc2a8d258cac4050648894ade99f1e59483c2e966e67b61bbb2e42730741f521f60001b61055d565b603f600084815260200190815260200160002060008573ffffffffffffffffffffffffffffffffffffffff1673ffffffffffffffffffffffffffffffffffffffff16815260200190815260200160002060009054906101000a900460ff16156110ff576040517f08c379a00000000000000000000000000000000000000000000000000000000081526004016110f690612ae3565b60405180910390fd5b61112b7f4a80e0e573e988668e4579c43a5ed8ff1625b218ed20d04b1c73bb0cd1115d4760001b61055d565b6111577f2318a8e8af4cb85595d813d2ca6331656de9e3c3441ee3a9f6875178edeff55660001b61055d565b6111837f52c5613c253fbd45b484e65555006c9e8f2e6d6d98cd20c24093851e14c85bbf60001b61055d565b6111af7fe0538246dfc17e22342c85d56e378bdaedaeb83405500730e3dbf88b2b381dd560001b61055d565b6111bb848484846115a6565b6111fa576040517f08c379a00000000000000000000000000000000000000000000000000000000081526004016111f1906129c3565b60405180910390fd5b6112267f5ca746d6737080dfb4631e5c81fd0303b52fdc64dbc5425fcf0ddc2c0d82b5bb60001b61055d565b6112527fcbc59d33e8575ee8bd663b5379cea23a3b9518207936e6208613edbcb0d1932060001b61055d565b61127e7fb566c23468da0e715603425d86e31913b4f49c7e7f0dd8dea2b8b1a808275d3b60001b61055d565b6001603f600085815260200190815260200160002060008673ffffffffffffffffffffffffffffffffffffffff1673ffffffffffffffffffffffffffffffffffffffff16815260200190815260200160002060006101000a81548160ff0219169083151502179055506113137fbbca39356ea3cf0ca4c94f93a02a0fca1f1ee247a5ceca7cb670802f1135e52660001b61055d565b61133f7f322b55665e4a5d47939f04c0658ea8615af17f2a4f65dba4bae2e96a9cb4733860001b61055d565b7f987d620f307ff6b94d58743cb7a7509f24071586a77759b77c2d4e29f75a2f9a848484604051611372939291906128e0565b60405180910390a150505050565b6113ac7f8c0a6a75c86b86a8d09a89b12d473938e9b3b704cd7a1c87ccda9a0a0375a12060001b61055d565b6113d87f2d2ddbf4742ba7bea9c529e00f1037a9d2f0b6ba21950c451125356eddbaf17f60001b61055d565b6114047f0e95d2831f4d25c583f25ab788852ef1fc10d8c71e493664a46133b7658c37bf60001b61055d565b60008111156114e3576114397f35bcfaa19a2519ad036a401d54324b30ed6375d5707c0ee0cc2d5774059b5ce560001b61055d565b6114657f42b1660e00749b5834da2fe4fa559826b8b1076658c763ff8ee76a771d3d192060001b61055d565b6114917f3091dc5ae9aaf00db2627771f622f5ac8f597d0e0efb8d5e2445aff777d4b95760001b61055d565b6114de8282603d60009054906101000a900473ffffffffffffffffffffffffffffffffffffffff1673ffffffffffffffffffffffffffffffffffffffff166119319092919063ffffffff16565b6115a2565b61150f7fd143cd9c10493117d1928be7091a988b8f285d0359cf3cc3177f3c9808af83ea60001b61055d565b61153b7f546386ea249e93e6caa7d947c4efbd68ec80805f8fa178e7d9a673ed09aa36fa60001b61055d565b6115677f356f5da3d4a4ce695d5f6681309176d5e522ceb4444bd4501b1012883e0867d560001b61055d565b6040517f08c379a000000000000000000000000000000000000000000000000000000000815260040161159990612ac3565b60405180910390fd5b5050565b60006115d47f067491226c0dd091faffe2d2a855ebd357ac33613baa94b34587a98d47577acf60001b61055d565b6116007f2539e0dfa0aa61aa3831219e55d54c9ea304f5ddc42975238409372c610ffe5060001b61055d565b61162c7f21b0f5010d767a2e586c2975b144b997de2f1cbc79f35199e9545cdbeaba543460001b61055d565b60008584604051602001611641929190612769565b6040516020818303038152906040528051906020012090506116857fd28be919cb7f66ac4be0461205ba7f594920370f4edcef86cb63951c18fb122960001b61055d565b6116b17f221168b819ce3d8adf323916dd392a0b79c274caab6d9d81b08449699c20a50560001b61055d565b6116cf83603e600088815260200190815260200160002054836119d0565b915050949350505050565b600073ffffffffffffffffffffffffffffffffffffffff168173ffffffffffffffffffffffffffffffffffffffff16141561174a576040517f08c379a000000000000000000000000000000000000000000000000000000000815260040161174190612983565b60405180910390fd5b80603b60006101000a81548173ffffffffffffffffffffffffffffffffffffffff021916908373ffffffffffffffffffffffffffffffffffffffff160217905550611793611a7c565b50565b600073ffffffffffffffffffffffffffffffffffffffff168173ffffffffffffffffffffffffffffffffffffffff161415611806576040517f08c379a00000000000000000000000000000000000000000000000000000000081526004016117fd90612b03565b60405180910390fd5b603c60008273ffffffffffffffffffffffffffffffffffffffff1673ffffffffffffffffffffffffffffffffffffffff16815260200190815260200160002060009054906101000a900460ff1615611893576040517f08c379a000000000000000000000000000000000000000000000000000000000815260040161188a90612aa3565b60405180910390fd5b6001603c60008373ffffffffffffffffffffffffffffffffffffffff1673ffffffffffffffffffffffffffffffffffffffff16815260200190815260200160002060006101000a81548160ff0219169083151502179055508073ffffffffffffffffffffffffffffffffffffffff167faab7954e9d246b167ef88aeddad35209ca2489d95a8aeb59e288d9b19fae5a5460405160405180910390a250565b6119cb838473ffffffffffffffffffffffffffffffffffffffff1663a9059cbb905060e01b84846040516024016119699291906128b7565b604051602081830303815290604052907bffffffffffffffffffffffffffffffffffffffffffffffffffffffff19166020820180517bffffffffffffffffffffffffffffffffffffffffffffffffffffffff8381831617835250505050611b4e565b505050565b60008082905060008090505b8551811015611a6e5760008682815181106119f357fe5b60200260200101519050808311611a34578281604051602001611a17929190612795565b604051602081830303815290604052805190602001209250611a60565b8083604051602001611a47929190612795565b6040516020818303038152906040528051906020012092505b5080806001019150506119dc565b508381149150509392505050565b604051611a8890612841565b6040518091039020603381905550604051611aa2906127ed565b6040518091039020603481905550604051611abc90612856565b6040518091039020603581905550604051611ad69061282c565b6040518091039020603681905550604051611af090612817565b6040518091039020603781905550604051611b0a90612802565b6040518091039020603881905550604051611b249061286b565b6040518091039020603981905550604051611b3e906127d8565b6040518091039020603a81905550565b611b6d8273ffffffffffffffffffffffffffffffffffffffff16611cc0565b611bac576040517f08c379a0000000000000000000000000000000000000000000000000000000008152600401611ba390612b43565b60405180910390fd5b600060608373ffffffffffffffffffffffffffffffffffffffff1683604051611bd591906127c1565b6000604051808303816000865af19150503d8060008114611c12576040519150601f19603f3d011682016040523d82523d6000602084013e611c17565b606091505b509150915081611c5c576040517f08c379a0000000000000000000000000000000000000000000000000000000008152600401611c5390612a03565b60405180910390fd5b600081511115611cba5780806020019051611c7a9190810190611f65565b611cb9576040517f08c379a0000000000000000000000000000000000000000000000000000000008152600401611cb090612b23565b60405180910390fd5b5b50505050565b60008060007fc5d2460186f7233c927e7db2dcc703c0e500b653ca82273b7bfad8045d85a47060001b9050833f9150808214158015611d0257506000801b8214155b92505050919050565b600081359050611d1a81612d96565b92915050565b60008083601f840112611d3257600080fd5b8235905067ffffffffffffffff811115611d4b57600080fd5b602083019150836020820283011115611d6357600080fd5b9250929050565b600082601f830112611d7b57600080fd5b8135611d8e611d8982612be2565b612bb5565b91508181835260208401935060208101905083856020840282011115611db357600080fd5b60005b83811015611de35781611dc98882611e02565b845260208401935060208301925050600181019050611db6565b5050505092915050565b600081519050611dfc81612dad565b92915050565b600081359050611e1181612dc4565b92915050565b600081359050611e2681612ddb565b92915050565b600081359050611e3b81612df2565b92915050565b600060208284031215611e5357600080fd5b6000611e6184828501611d0b565b91505092915050565b600080600080600060808688031215611e8257600080fd5b6000611e9088828901611d0b565b955050602086013567ffffffffffffffff811115611ead57600080fd5b611eb988828901611d20565b94509450506040611ecc88828901611e17565b9250506060611edd88828901611e2c565b9150509295509295909350565b60008060008060808587031215611f0057600080fd5b6000611f0e87828801611d0b565b9450506020611f1f87828801611e2c565b9350506040611f3087828801611e2c565b925050606085013567ffffffffffffffff811115611f4d57600080fd5b611f5987828801611d6a565b91505092959194509250565b600060208284031215611f7757600080fd5b6000611f8584828501611ded565b91505092915050565b600060208284031215611fa057600080fd5b6000611fae84828501611e02565b91505092915050565b60008060408385031215611fca57600080fd5b6000611fd885828601611e02565b9250506020611fe985828601611e2c565b9150509250929050565b60006020828403121561200557600080fd5b600061201384828501611e2c565b91505092915050565b6000806040838503121561202f57600080fd5b600061203d85828601611e2c565b925050602061204e85828601611d0b565b9150509250929050565b61206181612ca0565b82525050565b61207081612c3c565b82525050565b61208761208282612c3c565b612d51565b82525050565b61209681612c4e565b82525050565b6120a581612c5a565b82525050565b6120bc6120b782612c5a565b612d63565b82525050565b60006120cd82612c0a565b6120d78185612c15565b93506120e7818560208601612d1e565b80840191505092915050565b6120fc81612cb2565b82525050565b61210b81612cd6565b82525050565b600061211e601583612c20565b91507f4e657875732061646472657373206973207a65726f00000000000000000000006000830152602082019050919050565b600061215e600e83612c31565b91507f536176696e67734d616e616765720000000000000000000000000000000000006000830152600e82019050919050565b600061219e601c83612c20565b91507f5765656b2063616e6e6f7420626520696e2074686520667574757265000000006000830152602082019050919050565b60006121de600783612c31565b91507f5374616b696e67000000000000000000000000000000000000000000000000006000830152600782019050919050565b600061221e601683612c20565b91507f496e636f7272656374206d65726b6c652070726f6f66000000000000000000006000830152602082019050919050565b600061225e601b83612c20565b91507f536166654d6174683a206164646974696f6e206f766572666c6f7700000000006000830152602082019050919050565b600061229e601083612c31565b91507f5265636f6c6c61746572616c69736572000000000000000000000000000000006000830152601082019050919050565b60006122de602083612c20565b91507f5361666545524332303a206c6f772d6c6576656c2063616c6c206661696c65646000830152602082019050919050565b600061231e600783612c31565b91507f4d616e61676572000000000000000000000000000000000000000000000000006000830152600782019050919050565b600061235e601583612c20565b91507f456d7074792077686974656c69737420617272617900000000000000000000006000830152602082019050919050565b600061239e601983612c20565b91507f4e6f7420612077686974656c69737465642061646472657373000000000000006000830152602082019050919050565b60006123de600983612c31565b91507f4f7261636c6548756200000000000000000000000000000000000000000000006000830152600982019050919050565b600061241e600a83612c31565b91507f476f7665726e616e6365000000000000000000000000000000000000000000006000830152600a82019050919050565b600061245e600a83612c31565b91507f50726f787941646d696e000000000000000000000000000000000000000000006000830152600a82019050919050565b600061249e602e83612c20565b91507f436f6e747261637420696e7374616e63652068617320616c726561647920626560008301527f656e20696e697469616c697a65640000000000000000000000000000000000006020830152604082019050919050565b6000612504601d83612c20565b91507f5265776172647320617265206e6f742079657420636c61696d61626c650000006000830152602082019050919050565b6000612544601383612c20565b91507f416c72656164792077686974656c6973746564000000000000000000000000006000830152602082019050919050565b6000612584603d83612c20565b91507f4e6f2062616c616e636520776f756c64206265207472616e736665727265642060008301527f2d206e6f7420676f696e6720746f20776173746520796f7572206761730000006020830152604082019050919050565b60006125ea601683612c20565b91507f4c502068617320616c726561647920636c61696d6564000000000000000000006000830152602082019050919050565b600061262a600f83612c20565b91507f41646472657373206973207a65726f00000000000000000000000000000000006000830152602082019050919050565b600061266a602a83612c20565b91507f5361666545524332303a204552433230206f7065726174696f6e20646964206e60008301527f6f742073756363656564000000000000000000000000000000000000000000006020830152604082019050919050565b60006126d0600983612c31565b91507f4d657461546f6b656e00000000000000000000000000000000000000000000006000830152600982019050919050565b6000612710601f83612c20565b91507f5361666545524332303a2063616c6c20746f206e6f6e2d636f6e7472616374006000830152602082019050919050565b61274c81612c96565b82525050565b61276361275e82612c96565b612d7f565b82525050565b60006127758285612076565b6014820191506127858284612752565b6020820191508190509392505050565b60006127a182856120ab565b6020820191506127b182846120ab565b6020820191508190509392505050565b60006127cd82846120c2565b915081905092915050565b60006127e382612151565b9150819050919050565b60006127f8826121d1565b9150819050919050565b600061280d82612291565b9150819050919050565b600061282282612311565b9150819050919050565b6000612837826123d1565b9150819050919050565b600061284c82612411565b9150819050919050565b600061286182612451565b9150819050919050565b6000612876826126c3565b9150819050919050565b60006060820190506128956000830186612058565b6128a26020830185612067565b6128af6040830184612743565b949350505050565b60006040820190506128cc6000830185612067565b6128d96020830184612743565b9392505050565b60006060820190506128f56000830186612067565b6129026020830185612743565b61290f6040830184612743565b949350505050565b600060208201905061292c600083018461208d565b92915050565b6000602082019050612947600083018461209c565b92915050565b600060208201905061296260008301846120f3565b92915050565b600060208201905061297d6000830184612102565b92915050565b6000602082019050818103600083015261299c81612111565b9050919050565b600060208201905081810360008301526129bc81612191565b9050919050565b600060208201905081810360008301526129dc81612211565b9050919050565b600060208201905081810360008301526129fc81612251565b9050919050565b60006020820190508181036000830152612a1c816122d1565b9050919050565b60006020820190508181036000830152612a3c81612351565b9050919050565b60006020820190508181036000830152612a5c81612391565b9050919050565b60006020820190508181036000830152612a7c81612491565b9050919050565b60006020820190508181036000830152612a9c816124f7565b9050919050565b60006020820190508181036000830152612abc81612537565b9050919050565b60006020820190508181036000830152612adc81612577565b9050919050565b60006020820190508181036000830152612afc816125dd565b9050919050565b60006020820190508181036000830152612b1c8161261d565b9050919050565b60006020820190508181036000830152612b3c8161265d565b9050919050565b60006020820190508181036000830152612b5c81612703565b9050919050565b6000602082019050612b786000830184612743565b92915050565b6000606082019050612b936000830186612743565b612ba0602083018561209c565b612bad6040830184612743565b949350505050565b6000604051905081810181811067ffffffffffffffff82111715612bd857600080fd5b8060405250919050565b600067ffffffffffffffff821115612bf957600080fd5b602082029050602081019050919050565b600081519050919050565b600081905092915050565b600082825260208201905092915050565b600081905092915050565b6000612c4782612c76565b9050919050565b60008115159050919050565b6000819050919050565b6000612c6f82612c3c565b9050919050565b600073ffffffffffffffffffffffffffffffffffffffff82169050919050565b6000819050919050565b6000612cab82612cfa565b9050919050565b6000612cbd82612cc4565b9050919050565b6000612ccf82612c76565b9050919050565b6000612ce182612ce8565b9050919050565b6000612cf382612c76565b9050919050565b6000612d0582612d0c565b9050919050565b6000612d1782612c76565b9050919050565b60005b83811015612d3c578082015181840152602081019050612d21565b83811115612d4b576000848401525b50505050565b6000612d5c82612d6d565b9050919050565b6000819050919050565b6000612d7882612d89565b9050919050565b6000819050919050565b60008160601b9050919050565b612d9f81612c3c565b8114612daa57600080fd5b50565b612db681612c4e565b8114612dc157600080fd5b50565b612dcd81612c5a565b8114612dd857600080fd5b50565b612de481612c64565b8114612def57600080fd5b50565b612dfb81612c96565b8114612e0657600080fd5b5056fea365627a7a7231582071c3b6891b4f7225a43df3cb39f3f023e5caa412c478804066b7e6cdcd86e5856c6578706572696d656e74616cf564736f6c63430005100040",
  "linkReferences": {},
  "deployedLinkReferences": {}
}