{
  "_format": "hh-sol-artifact-1",
  "contractName": "DebugTransactionGuard",
  "sourceName": "contracts/gnosis/examples/guards/DebugTransactionGuard.sol",
  "abi": [
    {
      "anonymous": false,
      "inputs": [
        {
          "indexed": true,
          "internalType": "address",
          "name": "safe",
          "type": "address"
        },
        {
          "indexed": true,
          "internalType": "bytes32",
          "name": "txHash",
          "type": "bytes32"
        },
        {
          "indexed": true,
          "internalType": "uint256",
          "name": "nonce",
          "type": "uint256"
        },
        {
          "indexed": false,
          "internalType": "bool",
          "name": "success",
          "type": "bool"
        }
      ],
      "name": "GasUsage",
      "type": "event"
    },
    {
      "anonymous": false,
      "inputs": [
        {
          "indexed": true,
          "internalType": "address",
          "name": "safe",
          "type": "address"
        },
        {
          "indexed": true,
          "internalType": "bytes32",
          "name": "txHash",
          "type": "bytes32"
        },
        {
          "indexed": false,
          "internalType": "address",
          "name": "to",
          "type": "address"
        },
        {
          "indexed": false,
          "internalType": "uint256",
          "name": "value",
          "type": "uint256"
        },
        {
          "indexed": false,
          "internalType": "bytes",
          "name": "data",
          "type": "bytes"
        },
        {
          "indexed": false,
          "internalType": "enum Enum.Operation",
          "name": "operation",
          "type": "uint8"
        },
        {
          "indexed": false,
          "internalType": "uint256",
          "name": "safeTxGas",
          "type": "uint256"
        },
        {
          "indexed": false,
          "internalType": "bool",
          "name": "usesRefund",
          "type": "bool"
        },
        {
          "indexed": false,
          "internalType": "uint256",
          "name": "nonce",
          "type": "uint256"
        }
      ],
      "name": "TransactionDetails",
      "type": "event"
    },
    {
      "stateMutability": "nonpayable",
      "type": "fallback"
    },
    {
      "inputs": [
        {
          "internalType": "bytes32",
          "name": "txHash",
          "type": "bytes32"
        },
        {
          "internalType": "bool",
          "name": "success",
          "type": "bool"
        }
      ],
      "name": "checkAfterExecution",
      "outputs": [],
      "stateMutability": "nonpayable",
      "type": "function"
    },
    {
      "inputs": [
        {
          "internalType": "address",
          "name": "to",
          "type": "address"
        },
        {
          "internalType": "uint256",
          "name": "value",
          "type": "uint256"
        },
        {
          "internalType": "bytes",
          "name": "data",
          "type": "bytes"
        },
        {
          "internalType": "enum Enum.Operation",
          "name": "operation",
          "type": "uint8"
        },
        {
          "internalType": "uint256",
          "name": "safeTxGas",
          "type": "uint256"
        },
        {
          "internalType": "uint256",
          "name": "baseGas",
          "type": "uint256"
        },
        {
          "internalType": "uint256",
          "name": "gasPrice",
          "type": "uint256"
        },
        {
          "internalType": "address",
          "name": "gasToken",
          "type": "address"
        },
        {
          "internalType": "address payable",
          "name": "refundReceiver",
          "type": "address"
        },
        {
          "internalType": "bytes",
          "name": "",
          "type": "bytes"
        },
        {
          "internalType": "address",
          "name": "",
          "type": "address"
        }
      ],
      "name": "checkTransaction",
      "outputs": [],
      "stateMutability": "nonpayable",
      "type": "function"
    },
    {
      "inputs": [
        {
          "internalType": "bytes4",
          "name": "interfaceId",
          "type": "bytes4"
        }
      ],
      "name": "supportsInterface",
      "outputs": [
        {
          "internalType": "bool",
          "name": "",
          "type": "bool"
        }
      ],
      "stateMutability": "view",
      "type": "function"
    },
    {
      "inputs": [
        {
          "internalType": "bytes32",
          "name": "",
          "type": "bytes32"
        }
      ],
      "name": "txNonces",
      "outputs": [
        {
          "internalType": "uint256",
          "name": "",
          "type": "uint256"
        }
      ],
      "stateMutability": "view",
      "type": "function"
    }
  ],
  "bytecode": "0x608060405234801561001057600080fd5b50610d4e806100206000396000f3fe608060405234801561001057600080fd5b50600436106100505760003560e01c806301ffc9a71461005357806375f0bb5214610083578063932713681461009f578063ddbdba63146100bb57610051565b5b005b61006d60048036038101906100689190610726565b6100eb565b60405161007a9190610938565b60405180910390f35b61009d60048036038101906100989190610578565b6101bd565b005b6100b960048036038101906100b491906106ea565b610373565b005b6100d560048036038101906100d09190610698565b61043b565b6040516100e29190610973565b60405180910390f35b60007fe6d7a83a000000000000000000000000000000000000000000000000000000007bffffffffffffffffffffffffffffffffffffffffffffffffffffffff1916827bffffffffffffffffffffffffffffffffffffffffffffffffffffffff191614806101b657507f01ffc9a7000000000000000000000000000000000000000000000000000000007bffffffffffffffffffffffffffffffffffffffffffffffffffffffff1916827bffffffffffffffffffffffffffffffffffffffffffffffffffffffff1916145b9050919050565b600080600033905060018173ffffffffffffffffffffffffffffffffffffffff1663affed0e06040518163ffffffff1660e01b815260040160206040518083038186803b15801561020d57600080fd5b505afa158015610221573d6000803e3d6000fd5b505050506040513d601f19601f82011682018060405250810190610245919061074f565b61024f9190610a11565b92508073ffffffffffffffffffffffffffffffffffffffff1663d8d11f788f8f8f8f8f8f8f8f8f8d6040518b63ffffffff1660e01b815260040161029c9a99989796959493929190610895565b60206040518083038186803b1580156102b457600080fd5b505afa1580156102c8573d6000803e3d6000fd5b505050506040513d601f19601f820116820180604052508101906102ec91906106c1565b915050803373ffffffffffffffffffffffffffffffffffffffff167f1b68334da83afaffd8348d6c85c5146d8e7de31a6c034d2d522be12d615c4f7b8f8f8f8f8f60008f118a604051610345979695949392919061081f565b60405180910390a3816000808381526020019081526020016000208190555050505050505050505050505050565b600080600084815260200190815260200160002054905060008114156103ce576040517f08c379a00000000000000000000000000000000000000000000000000000000081526004016103c590610953565b60405180910390fd5b60008060008581526020019081526020016000208190555080833373ffffffffffffffffffffffffffffffffffffffff167f0dcc0fb56a30b6fe6b188f45b47369bc7f3c928a9748e245a79fc3f54ddd05688560405161042e9190610938565b60405180910390a4505050565b60006020528060005260406000206000915090505481565b6000610466610461846109b3565b61098e565b90508281526020810184848401111561047e57600080fd5b610489848285610b30565b509392505050565b6000813590506104a081610c7e565b92915050565b6000813590506104b581610c95565b92915050565b6000813590506104ca81610cac565b92915050565b6000813590506104df81610cc3565b92915050565b6000815190506104f481610cc3565b92915050565b60008135905061050981610cda565b92915050565b600082601f83011261052057600080fd5b8135610530848260208601610453565b91505092915050565b60008135905061054881610cf1565b92915050565b60008135905061055d81610d01565b92915050565b60008151905061057281610d01565b92915050565b60008060008060008060008060008060006101608c8e03121561059a57600080fd5b60006105a88e828f01610491565b9b505060206105b98e828f0161054e565b9a505060408c013567ffffffffffffffff8111156105d657600080fd5b6105e28e828f0161050f565b99505060606105f38e828f01610539565b98505060806106048e828f0161054e565b97505060a06106158e828f0161054e565b96505060c06106268e828f0161054e565b95505060e06106378e828f01610491565b9450506101006106498e828f016104a6565b9350506101208c013567ffffffffffffffff81111561066757600080fd5b6106738e828f0161050f565b9250506101406106858e828f01610491565b9150509295989b509295989b9093969950565b6000602082840312156106aa57600080fd5b60006106b8848285016104d0565b91505092915050565b6000602082840312156106d357600080fd5b60006106e1848285016104e5565b91505092915050565b600080604083850312156106fd57600080fd5b600061070b858286016104d0565b925050602061071c858286016104bb565b9150509250929050565b60006020828403121561073857600080fd5b6000610746848285016104fa565b91505092915050565b60006020828403121561076157600080fd5b600061076f84828501610563565b91505092915050565b61078181610ae8565b82525050565b61079081610a45565b82525050565b61079f81610a69565b82525050565b60006107b0826109e4565b6107ba81856109ef565b93506107ca818560208601610b3f565b6107d381610c30565b840191505092915050565b6107e781610afa565b82525050565b60006107fa601383610a00565b915061080582610c41565b602082019050919050565b61081981610ade565b82525050565b600060e082019050610834600083018a610787565b6108416020830189610810565b818103604083015261085381886107a5565b905061086260608301876107de565b61086f6080830186610810565b61087c60a0830185610796565b61088960c0830184610810565b98975050505050505050565b6000610140820190506108ab600083018d610787565b6108b8602083018c610810565b81810360408301526108ca818b6107a5565b90506108d9606083018a6107de565b6108e66080830189610810565b6108f360a0830188610810565b61090060c0830187610810565b61090d60e0830186610787565b61091b610100830185610778565b610929610120830184610810565b9b9a5050505050505050505050565b600060208201905061094d6000830184610796565b92915050565b6000602082019050818103600083015261096c816107ed565b9050919050565b60006020820190506109886000830184610810565b92915050565b60006109986109a9565b90506109a48282610b72565b919050565b6000604051905090565b600067ffffffffffffffff8211156109ce576109cd610c01565b5b6109d782610c30565b9050602081019050919050565b600081519050919050565b600082825260208201905092915050565b600082825260208201905092915050565b6000610a1c82610ade565b9150610a2783610ade565b925082821015610a3a57610a39610ba3565b5b828203905092915050565b6000610a5082610abe565b9050919050565b6000610a6282610abe565b9050919050565b60008115159050919050565b6000819050919050565b60007fffffffff0000000000000000000000000000000000000000000000000000000082169050919050565b6000819050610ab982610c6a565b919050565b600073ffffffffffffffffffffffffffffffffffffffff82169050919050565b6000819050919050565b6000610af382610b0c565b9050919050565b6000610b0582610aab565b9050919050565b6000610b1782610b1e565b9050919050565b6000610b2982610abe565b9050919050565b82818337600083830152505050565b60005b83811015610b5d578082015181840152602081019050610b42565b83811115610b6c576000848401525b50505050565b610b7b82610c30565b810181811067ffffffffffffffff82111715610b9a57610b99610c01565b5b80604052505050565b7f4e487b7100000000000000000000000000000000000000000000000000000000600052601160045260246000fd5b7f4e487b7100000000000000000000000000000000000000000000000000000000600052602160045260246000fd5b7f4e487b7100000000000000000000000000000000000000000000000000000000600052604160045260246000fd5b6000601f19601f8301169050919050565b7f436f756c64206e6f7420676574206e6f6e636500000000000000000000000000600082015250565b60028110610c7b57610c7a610bd2565b5b50565b610c8781610a45565b8114610c9257600080fd5b50565b610c9e81610a57565b8114610ca957600080fd5b50565b610cb581610a69565b8114610cc057600080fd5b50565b610ccc81610a75565b8114610cd757600080fd5b50565b610ce381610a7f565b8114610cee57600080fd5b50565b60028110610cfe57600080fd5b50565b610d0a81610ade565b8114610d1557600080fd5b5056fea26469706673582212207be64c4380fa961ee681a17570cd371a8c56739f391a0f4dbe1a75e144abff3364736f6c63430008040033",
  "linkReferences": {},
  "deployedLinkReferences": {}
}