{
  "contracts/seed/Seed.sol": {
    "Seed": {
      "abi": [
        {
          "anonymous": false,
          "inputs": [
            {
              "indexed": true,
              "internalType": "address",
              "name": "recipient",
              "type": "address"
            },
            {
              "indexed": false,
              "internalType": "uint256",
              "name": "amountReclaimed",
              "type": "uint256"
            }
          ],
          "name": "FundingReclaimed",
          "type": "event"
        },
        {
          "anonymous": false,
          "inputs": [
            {
              "indexed": true,
              "internalType": "bytes",
              "name": "metadata",
              "type": "bytes"
            }
          ],
          "name": "MetadataUpdated",
          "type": "event"
        },
        {
          "anonymous": false,
          "inputs": [
            {
              "indexed": true,
              "internalType": "address",
              "name": "recipient",
              "type": "address"
            },
            {
              "indexed": false,
              "internalType": "uint256",
              "name": "amountPurchased",
              "type": "uint256"
            }
          ],
          "name": "SeedsPurchased",
          "type": "event"
        },
        {
          "anonymous": false,
          "inputs": [
            {
              "indexed": true,
              "internalType": "address",
              "name": "recipient",
              "type": "address"
            },
            {
              "indexed": false,
              "internalType": "uint256",
              "name": "amount",
              "type": "uint256"
            },
            {
              "indexed": true,
              "internalType": "address",
              "name": "beneficiary",
              "type": "address"
            },
            {
              "indexed": false,
              "internalType": "uint256",
              "name": "feeAmount",
              "type": "uint256"
            }
          ],
          "name": "TokensClaimed",
          "type": "event"
        },
        {
          "inputs": [],
          "name": "admin",
          "outputs": [
            {
              "internalType": "address",
              "name": "",
              "type": "address"
            }
          ],
          "stateMutability": "view",
          "type": "function"
        },
        {
          "inputs": [],
          "name": "beneficiary",
          "outputs": [
            {
              "internalType": "address",
              "name": "",
              "type": "address"
            }
          ],
          "stateMutability": "view",
          "type": "function"
        },
        {
          "inputs": [
            {
              "internalType": "uint256",
              "name": "_fundingAmount",
              "type": "uint256"
            }
          ],
          "name": "buy",
          "outputs": [
            {
              "internalType": "uint256",
              "name": "",
              "type": "uint256"
            },
            {
              "internalType": "uint256",
              "name": "",
              "type": "uint256"
            }
          ],
          "stateMutability": "nonpayable",
          "type": "function"
        },
        {
          "inputs": [
            {
              "internalType": "address",
              "name": "_funder",
              "type": "address"
            }
          ],
          "name": "calculateClaim",
          "outputs": [
            {
              "internalType": "uint256",
              "name": "",
              "type": "uint256"
            }
          ],
          "stateMutability": "view",
          "type": "function"
        },
        {
          "inputs": [
            {
              "internalType": "address",
              "name": "_buyer",
              "type": "address"
            }
          ],
          "name": "checkWhitelisted",
          "outputs": [
            {
              "internalType": "bool",
              "name": "",
              "type": "bool"
            }
          ],
          "stateMutability": "view",
          "type": "function"
        },
        {
          "inputs": [
            {
              "internalType": "address",
              "name": "_funder",
              "type": "address"
            },
            {
              "internalType": "uint256",
              "name": "_claimAmount",
              "type": "uint256"
            }
          ],
          "name": "claim",
          "outputs": [
            {
              "internalType": "uint256",
              "name": "",
              "type": "uint256"
            }
          ],
          "stateMutability": "nonpayable",
          "type": "function"
        },
        {
          "inputs": [],
          "name": "close",
          "outputs": [],
          "stateMutability": "nonpayable",
          "type": "function"
        },
        {
          "inputs": [],
          "name": "closed",
          "outputs": [
            {
              "internalType": "bool",
              "name": "",
              "type": "bool"
            }
          ],
          "stateMutability": "view",
          "type": "function"
        },
        {
          "inputs": [],
          "name": "endTime",
          "outputs": [
            {
              "internalType": "uint256",
              "name": "",
              "type": "uint256"
            }
          ],
          "stateMutability": "view",
          "type": "function"
        },
        {
          "inputs": [],
          "name": "fee",
          "outputs": [
            {
              "internalType": "uint8",
              "name": "",
              "type": "uint8"
            }
          ],
          "stateMutability": "view",
          "type": "function"
        },
        {
          "inputs": [],
          "name": "feeAmountRequired",
          "outputs": [
            {
              "internalType": "uint256",
              "name": "",
              "type": "uint256"
            }
          ],
          "stateMutability": "view",
          "type": "function"
        },
        {
          "inputs": [],
          "name": "feeClaimed",
          "outputs": [
            {
              "internalType": "uint256",
              "name": "",
              "type": "uint256"
            }
          ],
          "stateMutability": "view",
          "type": "function"
        },
        {
          "inputs": [],
          "name": "feeRemainder",
          "outputs": [
            {
              "internalType": "uint256",
              "name": "",
              "type": "uint256"
            }
          ],
          "stateMutability": "view",
          "type": "function"
        },
        {
          "inputs": [
            {
              "internalType": "address",
              "name": "",
              "type": "address"
            }
          ],
          "name": "funders",
          "outputs": [
            {
              "internalType": "uint256",
              "name": "seedAmount",
              "type": "uint256"
            },
            {
              "internalType": "uint256",
              "name": "totalClaimed",
              "type": "uint256"
            },
            {
              "internalType": "uint256",
              "name": "fundingAmount",
              "type": "uint256"
            },
            {
              "internalType": "uint256",
              "name": "fee",
              "type": "uint256"
            },
            {
              "internalType": "uint256",
              "name": "feeClaimed",
              "type": "uint256"
            }
          ],
          "stateMutability": "view",
          "type": "function"
        },
        {
          "inputs": [],
          "name": "fundingCollected",
          "outputs": [
            {
              "internalType": "uint256",
              "name": "",
              "type": "uint256"
            }
          ],
          "stateMutability": "view",
          "type": "function"
        },
        {
          "inputs": [],
          "name": "fundingToken",
          "outputs": [
            {
              "internalType": "contract IERC20",
              "name": "",
              "type": "address"
            }
          ],
          "stateMutability": "view",
          "type": "function"
        },
        {
          "inputs": [],
          "name": "fundingWithdrawn",
          "outputs": [
            {
              "internalType": "uint256",
              "name": "",
              "type": "uint256"
            }
          ],
          "stateMutability": "view",
          "type": "function"
        },
        {
          "inputs": [],
          "name": "hardCap",
          "outputs": [
            {
              "internalType": "uint256",
              "name": "",
              "type": "uint256"
            }
          ],
          "stateMutability": "view",
          "type": "function"
        },
        {
          "inputs": [
            {
              "internalType": "address",
              "name": "_beneficiary",
              "type": "address"
            },
            {
              "internalType": "address",
              "name": "_admin",
              "type": "address"
            },
            {
              "internalType": "address[]",
              "name": "_tokens",
              "type": "address[]"
            },
            {
              "internalType": "uint256[]",
              "name": "_softHardThresholds",
              "type": "uint256[]"
            },
            {
              "internalType": "uint256",
              "name": "_price",
              "type": "uint256"
            },
            {
              "internalType": "uint256",
              "name": "_startTime",
              "type": "uint256"
            },
            {
              "internalType": "uint256",
              "name": "_endTime",
              "type": "uint256"
            },
            {
              "internalType": "uint32",
              "name": "_vestingDuration",
              "type": "uint32"
            },
            {
              "internalType": "uint32",
              "name": "_vestingCliff",
              "type": "uint32"
            },
            {
              "internalType": "bool",
              "name": "_permissionedSeed",
              "type": "bool"
            },
            {
              "internalType": "uint8",
              "name": "_fee",
              "type": "uint8"
            }
          ],
          "name": "initialize",
          "outputs": [],
          "stateMutability": "nonpayable",
          "type": "function"
        },
        {
          "inputs": [],
          "name": "initialized",
          "outputs": [
            {
              "internalType": "bool",
              "name": "",
              "type": "bool"
            }
          ],
          "stateMutability": "view",
          "type": "function"
        },
        {
          "inputs": [],
          "name": "isFunded",
          "outputs": [
            {
              "internalType": "bool",
              "name": "",
              "type": "bool"
            }
          ],
          "stateMutability": "view",
          "type": "function"
        },
        {
          "inputs": [],
          "name": "maximumReached",
          "outputs": [
            {
              "internalType": "bool",
              "name": "",
              "type": "bool"
            }
          ],
          "stateMutability": "view",
          "type": "function"
        },
        {
          "inputs": [],
          "name": "metadata",
          "outputs": [
            {
              "internalType": "bytes",
              "name": "",
              "type": "bytes"
            }
          ],
          "stateMutability": "view",
          "type": "function"
        },
        {
          "inputs": [],
          "name": "minimumReached",
          "outputs": [
            {
              "internalType": "bool",
              "name": "",
              "type": "bool"
            }
          ],
          "stateMutability": "view",
          "type": "function"
        },
        {
          "inputs": [],
          "name": "pause",
          "outputs": [],
          "stateMutability": "nonpayable",
          "type": "function"
        },
        {
          "inputs": [],
          "name": "paused",
          "outputs": [
            {
              "internalType": "bool",
              "name": "",
              "type": "bool"
            }
          ],
          "stateMutability": "view",
          "type": "function"
        },
        {
          "inputs": [],
          "name": "permissionedSeed",
          "outputs": [
            {
              "internalType": "bool",
              "name": "",
              "type": "bool"
            }
          ],
          "stateMutability": "view",
          "type": "function"
        },
        {
          "inputs": [],
          "name": "price",
          "outputs": [
            {
              "internalType": "uint256",
              "name": "",
              "type": "uint256"
            }
          ],
          "stateMutability": "view",
          "type": "function"
        },
        {
          "inputs": [],
          "name": "retrieveFundingTokens",
          "outputs": [
            {
              "internalType": "uint256",
              "name": "",
              "type": "uint256"
            }
          ],
          "stateMutability": "nonpayable",
          "type": "function"
        },
        {
          "inputs": [],
          "name": "seedAmountRequired",
          "outputs": [
            {
              "internalType": "uint256",
              "name": "",
              "type": "uint256"
            }
          ],
          "stateMutability": "view",
          "type": "function"
        },
        {
          "inputs": [],
          "name": "seedClaimed",
          "outputs": [
            {
              "internalType": "uint256",
              "name": "",
              "type": "uint256"
            }
          ],
          "stateMutability": "view",
          "type": "function"
        },
        {
          "inputs": [],
          "name": "seedRemainder",
          "outputs": [
            {
              "internalType": "uint256",
              "name": "",
              "type": "uint256"
            }
          ],
          "stateMutability": "view",
          "type": "function"
        },
        {
          "inputs": [],
          "name": "seedToken",
          "outputs": [
            {
              "internalType": "contract IERC20",
              "name": "",
              "type": "address"
            }
          ],
          "stateMutability": "view",
          "type": "function"
        },
        {
          "inputs": [],
          "name": "softCap",
          "outputs": [
            {
              "internalType": "uint256",
              "name": "",
              "type": "uint256"
            }
          ],
          "stateMutability": "view",
          "type": "function"
        },
        {
          "inputs": [],
          "name": "startTime",
          "outputs": [
            {
              "internalType": "uint256",
              "name": "",
              "type": "uint256"
            }
          ],
          "stateMutability": "view",
          "type": "function"
        },
        {
          "inputs": [],
          "name": "totalFunderCount",
          "outputs": [
            {
              "internalType": "uint256",
              "name": "",
              "type": "uint256"
            }
          ],
          "stateMutability": "view",
          "type": "function"
        },
        {
          "inputs": [],
          "name": "unpause",
          "outputs": [],
          "stateMutability": "nonpayable",
          "type": "function"
        },
        {
          "inputs": [
            {
              "internalType": "address",
              "name": "buyer",
              "type": "address"
            }
          ],
          "name": "unwhitelist",
          "outputs": [],
          "stateMutability": "nonpayable",
          "type": "function"
        },
        {
          "inputs": [
            {
              "internalType": "bytes",
              "name": "_metadata",
              "type": "bytes"
            }
          ],
          "name": "updateMetadata",
          "outputs": [],
          "stateMutability": "nonpayable",
          "type": "function"
        },
        {
          "inputs": [],
          "name": "vestingCliff",
          "outputs": [
            {
              "internalType": "uint32",
              "name": "",
              "type": "uint32"
            }
          ],
          "stateMutability": "view",
          "type": "function"
        },
        {
          "inputs": [],
          "name": "vestingDuration",
          "outputs": [
            {
              "internalType": "uint32",
              "name": "",
              "type": "uint32"
            }
          ],
          "stateMutability": "view",
          "type": "function"
        },
        {
          "inputs": [],
          "name": "vestingStartTime",
          "outputs": [
            {
              "internalType": "uint256",
              "name": "",
              "type": "uint256"
            }
          ],
          "stateMutability": "view",
          "type": "function"
        },
        {
          "inputs": [
            {
              "internalType": "address",
              "name": "_buyer",
              "type": "address"
            }
          ],
          "name": "whitelist",
          "outputs": [],
          "stateMutability": "nonpayable",
          "type": "function"
        },
        {
          "inputs": [
            {
              "internalType": "address[]",
              "name": "_buyers",
              "type": "address[]"
            }
          ],
          "name": "whitelistBatch",
          "outputs": [],
          "stateMutability": "nonpayable",
          "type": "function"
        },
        {
          "inputs": [
            {
              "internalType": "address",
              "name": "",
              "type": "address"
            }
          ],
          "name": "whitelisted",
          "outputs": [
            {
              "internalType": "bool",
              "name": "",
              "type": "bool"
            }
          ],
          "stateMutability": "view",
          "type": "function"
        },
        {
          "inputs": [],
          "name": "withdraw",
          "outputs": [],
          "stateMutability": "nonpayable",
          "type": "function"
        }
      ],
      "devdoc": {
        "details": "Smart contract for seed phases of liquid launch.",
        "kind": "dev",
        "methods": {
          "buy(uint256)": {
            "details": "Buy seed tokens.",
            "params": {
              "_fundingAmount": "The amount of funding tokens to contribute."
            }
          },
          "calculateClaim(address)": {
            "details": "Calculates the maximum claim",
            "params": {
              "_funder": "Address of funder to find the maximum claim"
            }
          },
          "checkWhitelisted(address)": {
            "details": "check whitelist status of a buyer",
            "params": {
              "_buyer": "address of buyer to check status"
            }
          },
          "claim(address,uint256)": {
            "details": "Claim vested seed tokens.",
            "params": {
              "_claimAmount": "The amount of seed token a users wants to claim.",
              "_funder": "Address of funder to calculate seconds and amount claimable"
            }
          },
          "close()": {
            "details": "Close distribution."
          },
          "initialize(address,address,address[],uint256[],uint256,uint256,uint256,uint32,uint32,bool,uint8)": {
            "details": "Initialize Seed.",
            "params": {
              "_admin": "The address of the admin of this contract. Funds contract and has permissions to whitelist users, pause and close contract.",
              "_beneficiary": "The address that recieves fees.",
              "_endTime": "Distribution end time in unix timecode.",
              "_fee": "Success fee expressed as a % (e.g. 2 = 2% fee)",
              "_permissionedSeed": "Set to true if only whitelisted adresses are allowed to participate.",
              "_price": "The price in wei of fundingTokens when exchanged for seedTokens.",
              "_softHardThresholds": "Array containing two params: - the minimum funding token collection threshold in wei denomination. - the highest possible funding token amount to be raised in wei denomination.",
              "_startTime": "Distribution start time in unix timecode.",
              "_tokens": "Array containing two params: - The address of the seed token being distributed.                                 - The address of the funding token being exchanged for seed token.",
              "_vestingCliff": "Cliff duration in seconds.",
              "_vestingDuration": "Vesting period duration in seconds."
            }
          },
          "pause()": {
            "details": "Pause distribution."
          },
          "retrieveFundingTokens()": {
            "details": "Returns funding tokens to user."
          },
          "unpause()": {
            "details": "Unpause distribution."
          },
          "unwhitelist(address)": {
            "details": "Remove address from whitelist.",
            "params": {
              "buyer": "Address which needs to be unwhitelisted"
            }
          },
          "updateMetadata(bytes)": {
            "details": "Updates metadata.",
            "params": {
              "_metadata": "Seed contract metadata, that is IPFS Hash"
            }
          },
          "whitelist(address)": {
            "details": "Add address to whitelist.",
            "params": {
              "_buyer": "Address which needs to be whitelisted"
            }
          },
          "whitelistBatch(address[])": {
            "details": "Add multiple addresses to whitelist.",
            "params": {
              "_buyers": "Array of addresses to whitelist addresses in batch"
            }
          },
          "withdraw()": {
            "details": "Withdraw funds from the contract"
          }
        },
        "title": "PrimeDAO Seed contract",
        "version": 1
      },
      "evm": {
        "bytecode": {
          "linkReferences": {},
          "object": "608060405234801561001057600080fd5b50612a98806100206000396000f3fe608060405234801561001057600080fd5b506004361061028a5760003560e01c806383d59e001161015c578063d8039364116100ce578063ea34554011610087578063ea345540146105bb578063eaa53523146105ce578063f3640e74146105e1578063f851a440146105f8578063fb86a4041461060b578063fc582d411461061457600080fd5b8063d803936414610519578063d936547e1461052c578063d96a094a1461054f578063ddca3f4314610577578063e565eb4c1461059d578063e6e36ebb146105b257600080fd5b80639b19251a116101205780639b19251a146104cf578063a035b1fe146104e2578063a8660a78146104eb578063aad3ec96146104f4578063b774682f14610507578063bc0f5f841461051057600080fd5b806383d59e001461049a5780638456cb59146104a35780638a2448aa146104ab578063906a26e0146104b35780639a590427146104bc57600080fd5b80633ccfd60b116102005780635c975abb116101b95780635c975abb146104475780635e9777e81461045957806371f4b8e81461046257806378065f271461046b57806378e979251461047e5780637c6543031461048757600080fd5b80633ccfd60b1461040a5780633dba9e41146104145780633f4ba83a1461042157806343d726d61461042957806347d02f1b14610431578063597e1fb51461043a57600080fd5b80631cfe562e116102525780631cfe562e1461037257806320d8dad01461037b578063311f8483146103a75780633197cbb6146103d957806338af3eed146103e2578063392f37e9146103f557600080fd5b8063031b36771461028f5780630826d2c7146102f9578063117a36d1146103105780631514617e14610334578063158ef93e1461035e575b600080fd5b6102cc61029d3660046124e5565b601660205260009081526040902080546001820154600283015460038401546004909401549293919290919085565b604080519586526020860194909452928401919091526060830152608082015260a0015b60405180910390f35b610302600f5481565b6040519081526020016102f0565b600c5461032490600160281b900460ff1681565b60405190151581526020016102f0565b60095461034990610100900463ffffffff1681565b60405163ffffffff90911681526020016102f0565b600c54610324906301000000900460ff1681565b61030260135481565b6103246103893660046124e5565b6001600160a01b031660009081526015602052604090205460ff1690565b6009546103c190600160481b90046001600160a01b031681565b6040516001600160a01b0390911681526020016102f0565b61030260085481565b6000546103c1906001600160a01b031681565b6103fd610627565b6040516102f0919061273f565b6104126106b5565b005b6009546103249060ff1681565b6104126107db565b610412610890565b61030260105481565b600c546103249060ff1681565b600c5461032490610100900460ff1681565b610302600e5481565b61030260125481565b600a546103c1906001600160a01b031681565b61030260075481565b600c546103249062010000900460ff1681565b61030260145481565b610412610ac0565b610302610b46565b61030260025481565b6104126104ca3660046124e5565b610e8b565b6104126104dd3660046124e5565b610f48565b61030260065481565b610302600d5481565b6103026105023660046125ee565b611008565b61030260115481565b61030260045481565b610412610527366004612506565b611495565b61032461053a3660046124e5565b60156020526000908152604090205460ff1681565b61056261055d3660046126f3565b61196c565b604080519283526020830191909152016102f0565b600a5461058b90600160a01b900460ff1681565b60405160ff90911681526020016102f0565b600c5461032490640100000000900460ff1681565b61030260055481565b6103026105c93660046124e5565b611f3b565b6104126105dc366004612617565b61204a565b60095461034990600160281b900463ffffffff1681565b6001546103c1906001600160a01b031681565b61030260035481565b610412610622366004612666565b61215c565b600b8054610634906129cf565b80601f0160208091040260200160405190810160405280929190818152602001828054610660906129cf565b80156106ad5780601f10610682576101008083540402835291602001916106ad565b820191906000526020600020905b81548152906001019060200180831161069057829003601f168201915b505050505081565b6001546001600160a01b031633146106e85760405162461bcd60e51b81526004016106df90612772565b60405180910390fd5b600c54610100900460ff16156107105760405162461bcd60e51b81526004016106df9061282a565b600c54640100000000900460ff1661073a5760405162461bcd60e51b81526004016106df90612898565b600060145460135461074c9190612988565b601354601455600a5460405163a9059cbb60e01b8152336004820152602481018390529192506001600160a01b03169063a9059cbb90604401602060405180830381600087803b15801561079f57600080fd5b505af11580156107b3573d6000803e3d6000fd5b505050506040513d601f19601f820116820180604052508101906107d7919061264a565b5050565b6001546001600160a01b031633146108055760405162461bcd60e51b81526004016106df90612772565b600c5460ff1615156001141561082d5760405162461bcd60e51b81526004016106df906127a9565b600c5460ff6101009091041615156001146108835760405162461bcd60e51b815260206004820152601660248201527514d959590e881cda1bdd5b19081899481c185d5cd95960521b60448201526064016106df565b600c805461ff0019169055565b6001546001600160a01b031633146108ba5760405162461bcd60e51b81526004016106df90612772565b600c5460ff16156108dd5760405162461bcd60e51b81526004016106df906127a9565b600c54610100900460ff16156109055760405162461bcd60e51b81526004016106df9061282a565b600c54640100000000900460ff16156109e6576000601154600f5461092a9190612931565b60095460015460405163a9059cbb60e01b81526001600160a01b03918216600482015260248101849052929350600160481b909104169063a9059cbb90604401602060405180830381600087803b15801561098457600080fd5b505af1158015610998573d6000803e3d6000fd5b505050506040513d601f19601f820116820180604052508101906109bc919061264a565b6109d85760405162461bcd60e51b81526004016106df906127e0565b50600c805461ff0019169055565b6009546001546005546004546001600160a01b03600160481b90940484169363a9059cbb931691610a1691612931565b6040516001600160e01b031960e085901b1681526001600160a01b0390921660048301526024820152604401602060405180830381600087803b158015610a5c57600080fd5b505af1158015610a70573d6000803e3d6000fd5b505050506040513d601f19601f82011682018060405250810190610a94919061264a565b610ab05760405162461bcd60e51b81526004016106df906127e0565b600c805461ffff19166001179055565b6001546001600160a01b03163314610aea5760405162461bcd60e51b81526004016106df90612772565b600c5460ff1615610b0d5760405162461bcd60e51b81526004016106df906127a9565b600c54610100900460ff1615610b355760405162461bcd60e51b81526004016106df9061282a565b600c805461ff001916610100179055565b600c54600090610100900460ff1615610b715760405162461bcd60e51b81526004016106df9061282a565b426007541115610bce5760405162461bcd60e51b815260206004820152602260248201527f536565643a20646973747269627574696f6e20686176656e2774207374617274604482015261195960f21b60648201526084016106df565b600c54640100000000900460ff1615610c295760405162461bcd60e51b815260206004820152601960248201527f536565643a206d696e696d756d20616c7265616479206d65740000000000000060448201526064016106df565b33600090815260166020526040902060020154610c885760405162461bcd60e51b815260206004820152601960248201527f536565643a207a65726f2066756e64696e6720616d6f756e740000000000000060448201526064016106df565b336000908152601660209081526040808320815160a08101835281548082526001830154948201949094526002820154928101839052600382015460608201526004909101546080820152600f805491949293929091610ce9908490612931565b9091555050606082015160118054600090610d05908490612931565b90915550506000808352606083018181526040808501838152338452601660209081529184208651815591860151600183015551600282015590516003820155608084015160049091015560138054839290610d62908490612988565b9091555050600a5460405163a9059cbb60e01b8152336004820152602481018390526001600160a01b039091169063a9059cbb90604401602060405180830381600087803b158015610db357600080fd5b505af1158015610dc7573d6000803e3d6000fd5b505050506040513d601f19601f82011682018060405250810190610deb919061264a565b610e505760405162461bcd60e51b815260206004820152603060248201527f536565643a2063616e6e6f742072657475726e2066756e64696e6720746f6b6560448201526f3739903a379036b9b39739b2b73232b960811b60648201526084016106df565b60405181815233907f1a689b1a62e3bb77f9c98d8759c04f341a67deb5cc63cf53be8324b6910649509060200160405180910390a291505090565b6001546001600160a01b03163314610eb55760405162461bcd60e51b81526004016106df90612772565b600c5460ff1615610ed85760405162461bcd60e51b81526004016106df906127a9565b600c54610100900460ff1615610f005760405162461bcd60e51b81526004016106df9061282a565b60095460ff161515600114610f275760405162461bcd60e51b81526004016106df90612861565b6001600160a01b03166000908152601560205260409020805460ff19169055565b6001546001600160a01b03163314610f725760405162461bcd60e51b81526004016106df90612772565b600c5460ff1615610f955760405162461bcd60e51b81526004016106df906127a9565b600c54610100900460ff1615610fbd5760405162461bcd60e51b81526004016106df9061282a565b60095460ff161515600114610fe45760405162461bcd60e51b81526004016106df90612861565b6001600160a01b03166000908152601560205260409020805460ff19166001179055565b600c54600090640100000000900460ff166110355760405162461bcd60e51b81526004016106df90612898565b4260085411158061104f5750600c54600160281b900460ff165b6110af5760405162461bcd60e51b815260206004820152602b60248201527f536565643a2074686520646973747269627574696f6e20686173206e6f74207960448201526a195d08199a5b9a5cda195960aa1b60648201526084016106df565b60006110ba84611f3b565b90506000811161110c5760405162461bcd60e51b815260206004820152601b60248201527f536565643a20616d6f756e7420636c61696d61626c652069732030000000000060448201526064016106df565b828110156111735760405162461bcd60e51b815260206004820152602e60248201527f536565643a20726571756573742069732067726561746572207468616e20636c60448201526d185a5b58589b1948185b5bdd5b9d60921b60648201526084016106df565b600a5460009060649061119090600160a01b900460ff1686612969565b61119a9190612949565b6001600160a01b038616600090815260166020908152604091829020825160a0810184528154815260018201549281018381526002830154948201949094526003820154606082015260049091015460808201529293508691906111ff908390612931565b905250608081018051839190611216908390612931565b9052506001600160a01b038616600090815260166020908152604080832084518155918401516001830155830151600282015560608301516003820155608083015160049091015560108054879290611270908490612931565b9250508190555081601260008282546112899190612931565b909155505060095460005460405163a9059cbb60e01b81526001600160a01b03918216600482015260248101859052600160481b909204169063a9059cbb90604401602060405180830381600087803b1580156112e557600080fd5b505af11580156112f9573d6000803e3d6000fd5b505050506040513d601f19601f8201168201806040525081019061131d919061264a565b6113755760405162461bcd60e51b8152602060048201526024808201527f536565643a2063616e6e6f74207472616e7366657220746f2062656e656669636044820152636961727960e01b60648201526084016106df565b60095460405163a9059cbb60e01b81526001600160a01b03888116600483015260248201889052600160481b9092049091169063a9059cbb90604401602060405180830381600087803b1580156113cb57600080fd5b505af11580156113df573d6000803e3d6000fd5b505050506040513d601f19601f82011682018060405250810190611403919061264a565b6114415760405162461bcd60e51b815260206004820152600f60248201526e536565643a206e6f20746f6b656e7360881b60448201526064016106df565b60005460408051878152602081018590526001600160a01b03928316928916917f9bd10be98695714f5cb43cefb59ba6417808b354710acafafe05e81b26492231910160405180910390a350949350505050565b600c546301000000900460ff16156114fa5760405162461bcd60e51b815260206004820152602260248201527f536565643a20636f6e747261637420616c726561647920696e697469616c697a604482015261195960f21b60648201526084016106df565b600c805463ff0000001916630100000017905588518990600190811061153057634e487b7160e01b600052603260045260246000fd5b60200260200101516001600160a01b03168960008151811061156257634e487b7160e01b600052603260045260246000fd5b60200260200101516001600160a01b031614156115d75760405162461bcd60e51b815260206004820152602d60248201527f53656564466163746f72793a2073656564546f6b656e2063616e6e6f7420626560448201526c10333ab73234b733aa37b5b2b760991b60648201526084016106df565b876000815181106115f857634e487b7160e01b600052603260045260246000fd5b60200260200101518860018151811061162157634e487b7160e01b600052603260045260246000fd5b602002602001015110156116905760405162461bcd60e51b815260206004820152603060248201527f53656564466163746f72793a20686172644361702063616e6e6f74206265206c60448201526f0657373207468616e20736f66744361760841b60648201526084016106df565b8263ffffffff168463ffffffff1610156117125760405162461bcd60e51b815260206004820152603d60248201527f53656564466163746f72793a2076657374696e674475726174696f6e2063616e60448201527f6e6f74206265206c657373207468616e2076657374696e67436c69666600000060648201526084016106df565b8585116117875760405162461bcd60e51b815260206004820152603b60248201527f53656564466163746f72793a20656e6454696d652063616e6e6f74206265206c60448201527f657373207468616e20657175616c20746f20737461727454696d65000000000060648201526084016106df565b600080546001600160a01b03808e166001600160a01b031992831617835560018054918e169190921617905588518991906117d257634e487b7160e01b600052603260045260246000fd5b60200260200101516002819055508760018151811061180157634e487b7160e01b600052603260045260246000fd5b6020908102919091010151600355600687905560078690556008859055600d8590556009805468ffffffffffffffff00191661010063ffffffff8781169190910268ffffffff0000000000191691909117600160281b918616919091021760ff19168315151790558851899060009061188a57634e487b7160e01b600052603260045260246000fd5b60200260200101516009806101000a8154816001600160a01b0302191690836001600160a01b03160217905550886001815181106118d857634e487b7160e01b600052603260045260246000fd5b6020908102919091010151600a80546001600160a01b039092166001600160a81b031990921691909117600160a01b60ff841602179055600354879061192790670de0b6b3a764000090612969565b6119319190612949565b60048190556064906119479060ff841690612969565b6119519190612949565b6005819055600454600f556011555050505050505050505050565b600c54600090819060ff16156119945760405162461bcd60e51b81526004016106df906127a9565b600c54610100900460ff16156119bc5760405162461bcd60e51b81526004016106df9061282a565b600c54600160281b900460ff1615611a165760405162461bcd60e51b815260206004820152601d60248201527f536565643a206d6178696d756d2066756e64696e67207265616368656400000060448201526064016106df565b60095460ff161580611a3757503360009081526015602052604090205460ff165b611a835760405162461bcd60e51b815260206004820152601a60248201527f536565643a2073656e64657220686173206e6f2072696768747300000000000060448201526064016106df565b4260085410158015611a9757504260075411155b611af95760405162461bcd60e51b815260206004820152602d60248201527f536565643a206f6e6c7920616c6c6f77656420647572696e672064697374726960448201526c189d5d1a5bdb881c195c9a5bd9609a1b60648201526084016106df565b600c5462010000900460ff16611c0657600554600454611b199190612931565b6009546040516370a0823160e01b8152306004820152600160481b9091046001600160a01b0316906370a082319060240160206040518083038186803b158015611b6257600080fd5b505afa158015611b76573d6000803e3d6000fd5b505050506040513d601f19601f82011682018060405250810190611b9a919061270b565b1015611bf45760405162461bcd60e51b815260206004820152602360248201527f536565643a2073756666696369656e74207365656473206e6f742070726f766960448201526219195960ea1b60648201526084016106df565b600c805462ff00001916620100001790555b600654600090611c1e670de0b6b3a764000086612969565b611c289190612949565b601354600a5491925090600090606490611c4c90600160a01b900460ff1685612969565b611c569190612949565b600354909150611c668784612931565b1115611cc75760405162461bcd60e51b815260206004820152602a60248201527f536565643a20616d6f756e74206578636565647320636f6e747261637420736160448201526906c6520686172644361760b41b60648201526084016106df565b82600f541015611d2b5760405162461bcd60e51b815260206004820152602960248201527f536565643a207365656420646973747269627574696f6e20776f756c6420626560448201526808195e18d95959195960ba1b60648201526084016106df565b611d358683612931565b60138190555082600f6000828254611d4d9190612988565b925050819055508060116000828254611d669190612988565b9091555050600a546040516323b872dd60e01b8152336004820152306024820152604481018890526001600160a01b03909116906323b872dd90606401602060405180830381600087803b158015611dbd57600080fd5b505af1158015611dd1573d6000803e3d6000fd5b505050506040513d601f19601f82011682018060405250810190611df5919061264a565b611e335760405162461bcd60e51b815260206004820152600f60248201526e536565643a206e6f20746f6b656e7360881b60448201526064016106df565b60025460135410611e5457600c805464ff0000000019166401000000001790555b60035460135410611e7f57600c805465ff00000000001916600160281b179055611e7b4290565b600d555b33600081815260166020526040902054611efa9190611e9f908690612931565b33600090815260166020526040902060020154611ebd908a90612931565b3360009081526016602052604090206001810154600390910154611ee2908790612931565b33600090815260166020526040902060040154612256565b60405183815233907fcf5ef2b227e797b567f0df4c49cc8b6207cfb60054eb899e5608de08e5dcb1ef9060200160405180910390a291935090915050915091565b6001600160a01b0381166000908152601660209081526040808320815160a0810183528154815260018201549381019390935260028101549183019190915260038101546060830152600401546080820152600d54421015611fa05750600092915050565b6000600d54611fac4290565b611fb69190612988565b600954909150600160281b900463ffffffff16811015611fda575060009392505050565b600954610100900463ffffffff1681106120075760208201518251611fff9190612988565b949350505050565b6009548251600091610100900463ffffffff16906120259084612969565b61202f9190612949565b90508260200151816120419190612988565b95945050505050565b6001546001600160a01b031633146120745760405162461bcd60e51b81526004016106df90612772565b600c5460ff16156120975760405162461bcd60e51b81526004016106df906127a9565b600c54610100900460ff16156120bf5760405162461bcd60e51b81526004016106df9061282a565b60095460ff1615156001146120e65760405162461bcd60e51b81526004016106df90612861565b60005b81518110156107d75760016015600084848151811061211857634e487b7160e01b600052603260045260246000fd5b6020908102919091018101516001600160a01b03168252810191909152604001600020805460ff19169115159190911790558061215481612a0a565b9150506120e9565b600c546301000000900460ff161515600114158061218457506001546001600160a01b031633145b6122015760405162461bcd60e51b815260206004820152604260248201527f536565643a20636f6e74726163742073686f756c64206e6f7420626520696e6960448201527f7469616c697a6564206f722063616c6c65722073686f756c642062652061646d60648201526134b760f11b608482015260a4016106df565b805161221490600b90602084019061232d565b50806040516122239190612723565b604051908190038120907f09f579b21815d3f81581d32e97736ccba1cc89d1918e48da28e6e206acd9686490600090a250565b600954610100900463ffffffff168510156122b35760405162461bcd60e51b815260206004820152601f60248201527f536565643a20616d6f756e745665737465645065725365636f6e64203e20300060448201526064016106df565b6040805160a081018252868152602080820186815282840188815260608401878152608085018781526001600160a01b038d166000908152601690955295842094518555915160018501555160028401555160038301559151600490910155600e80549161232083612a0a565b9190505550505050505050565b828054612339906129cf565b90600052602060002090601f01602090048101928261235b57600085556123a1565b82601f1061237457805160ff19168380011785556123a1565b828001600101855582156123a1579182015b828111156123a1578251825591602001919060010190612386565b506123ad9291506123b1565b5090565b5b808211156123ad57600081556001016123b2565b80356001600160a01b03811681146123dd57600080fd5b919050565b600082601f8301126123f2578081fd5b813560206124076124028361290d565b6128dc565b80838252828201915082860187848660051b8901011115612426578586fd5b855b8581101561244b57612439826123c6565b84529284019290840190600101612428565b5090979650505050505050565b600082601f830112612468578081fd5b813560206124786124028361290d565b80838252828201915082860187848660051b8901011115612497578586fd5b855b8581101561244b57813584529284019290840190600101612499565b80356123dd81612a51565b803563ffffffff811681146123dd57600080fd5b803560ff811681146123dd57600080fd5b6000602082840312156124f6578081fd5b6124ff826123c6565b9392505050565b60008060008060008060008060008060006101608c8e031215612527578687fd5b6125308c6123c6565b9a5061253e60208d016123c6565b995067ffffffffffffffff8060408e01351115612559578788fd5b6125698e60408f01358f016123e2565b99508060608e0135111561257b578788fd5b5061258c8d60608e01358e01612458565b975060808c0135965060a08c0135955060c08c013594506125af60e08d016124c0565b93506125be6101008d016124c0565b92506125cd6101208d016124b5565b91506125dc6101408d016124d4565b90509295989b509295989b9093969950565b60008060408385031215612600578182fd5b612609836123c6565b946020939093013593505050565b600060208284031215612628578081fd5b813567ffffffffffffffff81111561263e578182fd5b611fff848285016123e2565b60006020828403121561265b578081fd5b81516124ff81612a51565b60006020808385031215612678578182fd5b823567ffffffffffffffff8082111561268f578384fd5b818501915085601f8301126126a2578384fd5b8135818111156126b4576126b4612a3b565b6126c6601f8201601f191685016128dc565b915080825286848285010111156126db578485fd5b80848401858401378101909201929092529392505050565b600060208284031215612704578081fd5b5035919050565b60006020828403121561271c578081fd5b5051919050565b6000825161273581846020870161299f565b9190910192915050565b602081526000825180602084015261275e81604085016020870161299f565b601f01601f19169190910160400192915050565b6020808252601c908201527f536565643a2063616c6c65722073686f756c642062652061646d696e00000000604082015260600190565b6020808252601a908201527f536565643a2073686f756c64206e6f7420626520636c6f736564000000000000604082015260600190565b6020808252602a908201527f536565643a2073686f756c64207472616e73666572207365656420746f6b656e60408201526939903a379030b236b4b760b11b606082015260800190565b6020808252601a908201527f536565643a2073686f756c64206e6f7420626520706175736564000000000000604082015260600190565b6020808252601f908201527f536565643a206d6f64756c65206973206e6f742077686974656c697374656400604082015260600190565b60208082526024908201527f536565643a206d696e696d756d2066756e64696e6720616d6f756e74206e6f74604082015263081b595d60e21b606082015260800190565b604051601f8201601f1916810167ffffffffffffffff8111828210171561290557612905612a3b565b604052919050565b600067ffffffffffffffff82111561292757612927612a3b565b5060051b60200190565b6000821982111561294457612944612a25565b500190565b60008261296457634e487b7160e01b81526012600452602481fd5b500490565b600081600019048311821515161561298357612983612a25565b500290565b60008282101561299a5761299a612a25565b500390565b60005b838110156129ba5781810151838201526020016129a2565b838111156129c9576000848401525b50505050565b600181811c908216806129e357607f821691505b60208210811415612a0457634e487b7160e01b600052602260045260246000fd5b50919050565b6000600019821415612a1e57612a1e612a25565b5060010190565b634e487b7160e01b600052601160045260246000fd5b634e487b7160e01b600052604160045260246000fd5b8015158114612a5f57600080fd5b5056fea26469706673582212201c8a1b8103d068fdee8abb5a994a62c1e31dddd9f82854db7af6a1cd4415a7ae64736f6c63430008040033",
          "opcodes": "PUSH1 0x80 PUSH1 0x40 MSTORE CALLVALUE DUP1 ISZERO PUSH2 0x10 JUMPI PUSH1 0x0 DUP1 REVERT JUMPDEST POP PUSH2 0x2A98 DUP1 PUSH2 0x20 PUSH1 0x0 CODECOPY PUSH1 0x0 RETURN INVALID PUSH1 0x80 PUSH1 0x40 MSTORE CALLVALUE DUP1 ISZERO PUSH2 0x10 JUMPI PUSH1 0x0 DUP1 REVERT JUMPDEST POP PUSH1 0x4 CALLDATASIZE LT PUSH2 0x28A JUMPI PUSH1 0x0 CALLDATALOAD PUSH1 0xE0 SHR DUP1 PUSH4 0x83D59E00 GT PUSH2 0x15C JUMPI DUP1 PUSH4 0xD8039364 GT PUSH2 0xCE JUMPI DUP1 PUSH4 0xEA345540 GT PUSH2 0x87 JUMPI DUP1 PUSH4 0xEA345540 EQ PUSH2 0x5BB JUMPI DUP1 PUSH4 0xEAA53523 EQ PUSH2 0x5CE JUMPI DUP1 PUSH4 0xF3640E74 EQ PUSH2 0x5E1 JUMPI DUP1 PUSH4 0xF851A440 EQ PUSH2 0x5F8 JUMPI DUP1 PUSH4 0xFB86A404 EQ PUSH2 0x60B JUMPI DUP1 PUSH4 0xFC582D41 EQ PUSH2 0x614 JUMPI PUSH1 0x0 DUP1 REVERT JUMPDEST DUP1 PUSH4 0xD8039364 EQ PUSH2 0x519 JUMPI DUP1 PUSH4 0xD936547E EQ PUSH2 0x52C JUMPI DUP1 PUSH4 0xD96A094A EQ PUSH2 0x54F JUMPI DUP1 PUSH4 0xDDCA3F43 EQ PUSH2 0x577 JUMPI DUP1 PUSH4 0xE565EB4C EQ PUSH2 0x59D JUMPI DUP1 PUSH4 0xE6E36EBB EQ PUSH2 0x5B2 JUMPI PUSH1 0x0 DUP1 REVERT JUMPDEST DUP1 PUSH4 0x9B19251A GT PUSH2 0x120 JUMPI DUP1 PUSH4 0x9B19251A EQ PUSH2 0x4CF JUMPI DUP1 PUSH4 0xA035B1FE EQ PUSH2 0x4E2 JUMPI DUP1 PUSH4 0xA8660A78 EQ PUSH2 0x4EB JUMPI DUP1 PUSH4 0xAAD3EC96 EQ PUSH2 0x4F4 JUMPI DUP1 PUSH4 0xB774682F EQ PUSH2 0x507 JUMPI DUP1 PUSH4 0xBC0F5F84 EQ PUSH2 0x510 JUMPI PUSH1 0x0 DUP1 REVERT JUMPDEST DUP1 PUSH4 0x83D59E00 EQ PUSH2 0x49A JUMPI DUP1 PUSH4 0x8456CB59 EQ PUSH2 0x4A3 JUMPI DUP1 PUSH4 0x8A2448AA EQ PUSH2 0x4AB JUMPI DUP1 PUSH4 0x906A26E0 EQ PUSH2 0x4B3 JUMPI DUP1 PUSH4 0x9A590427 EQ PUSH2 0x4BC JUMPI PUSH1 0x0 DUP1 REVERT JUMPDEST DUP1 PUSH4 0x3CCFD60B GT PUSH2 0x200 JUMPI DUP1 PUSH4 0x5C975ABB GT PUSH2 0x1B9 JUMPI DUP1 PUSH4 0x5C975ABB EQ PUSH2 0x447 JUMPI DUP1 PUSH4 0x5E9777E8 EQ PUSH2 0x459 JUMPI DUP1 PUSH4 0x71F4B8E8 EQ PUSH2 0x462 JUMPI DUP1 PUSH4 0x78065F27 EQ PUSH2 0x46B JUMPI DUP1 PUSH4 0x78E97925 EQ PUSH2 0x47E JUMPI DUP1 PUSH4 0x7C654303 EQ PUSH2 0x487 JUMPI PUSH1 0x0 DUP1 REVERT JUMPDEST DUP1 PUSH4 0x3CCFD60B EQ PUSH2 0x40A JUMPI DUP1 PUSH4 0x3DBA9E41 EQ PUSH2 0x414 JUMPI DUP1 PUSH4 0x3F4BA83A EQ PUSH2 0x421 JUMPI DUP1 PUSH4 0x43D726D6 EQ PUSH2 0x429 JUMPI DUP1 PUSH4 0x47D02F1B EQ PUSH2 0x431 JUMPI DUP1 PUSH4 0x597E1FB5 EQ PUSH2 0x43A JUMPI PUSH1 0x0 DUP1 REVERT JUMPDEST DUP1 PUSH4 0x1CFE562E GT PUSH2 0x252 JUMPI DUP1 PUSH4 0x1CFE562E EQ PUSH2 0x372 JUMPI DUP1 PUSH4 0x20D8DAD0 EQ PUSH2 0x37B JUMPI DUP1 PUSH4 0x311F8483 EQ PUSH2 0x3A7 JUMPI DUP1 PUSH4 0x3197CBB6 EQ PUSH2 0x3D9 JUMPI DUP1 PUSH4 0x38AF3EED EQ PUSH2 0x3E2 JUMPI DUP1 PUSH4 0x392F37E9 EQ PUSH2 0x3F5 JUMPI PUSH1 0x0 DUP1 REVERT JUMPDEST DUP1 PUSH4 0x31B3677 EQ PUSH2 0x28F JUMPI DUP1 PUSH4 0x826D2C7 EQ PUSH2 0x2F9 JUMPI DUP1 PUSH4 0x117A36D1 EQ PUSH2 0x310 JUMPI DUP1 PUSH4 0x1514617E EQ PUSH2 0x334 JUMPI DUP1 PUSH4 0x158EF93E EQ PUSH2 0x35E JUMPI JUMPDEST PUSH1 0x0 DUP1 REVERT JUMPDEST PUSH2 0x2CC PUSH2 0x29D CALLDATASIZE PUSH1 0x4 PUSH2 0x24E5 JUMP JUMPDEST PUSH1 0x16 PUSH1 0x20 MSTORE PUSH1 0x0 SWAP1 DUP2 MSTORE PUSH1 0x40 SWAP1 KECCAK256 DUP1 SLOAD PUSH1 0x1 DUP3 ADD SLOAD PUSH1 0x2 DUP4 ADD SLOAD PUSH1 0x3 DUP5 ADD SLOAD PUSH1 0x4 SWAP1 SWAP5 ADD SLOAD SWAP3 SWAP4 SWAP2 SWAP3 SWAP1 SWAP2 SWAP1 DUP6 JUMP JUMPDEST PUSH1 0x40 DUP1 MLOAD SWAP6 DUP7 MSTORE PUSH1 0x20 DUP7 ADD SWAP5 SWAP1 SWAP5 MSTORE SWAP3 DUP5 ADD SWAP2 SWAP1 SWAP2 MSTORE PUSH1 0x60 DUP4 ADD MSTORE PUSH1 0x80 DUP3 ADD MSTORE PUSH1 0xA0 ADD JUMPDEST PUSH1 0x40 MLOAD DUP1 SWAP2 SUB SWAP1 RETURN JUMPDEST PUSH2 0x302 PUSH1 0xF SLOAD DUP2 JUMP JUMPDEST PUSH1 0x40 MLOAD SWAP1 DUP2 MSTORE PUSH1 0x20 ADD PUSH2 0x2F0 JUMP JUMPDEST PUSH1 0xC SLOAD PUSH2 0x324 SWAP1 PUSH1 0x1 PUSH1 0x28 SHL SWAP1 DIV PUSH1 0xFF AND DUP2 JUMP JUMPDEST PUSH1 0x40 MLOAD SWAP1 ISZERO ISZERO DUP2 MSTORE PUSH1 0x20 ADD PUSH2 0x2F0 JUMP JUMPDEST PUSH1 0x9 SLOAD PUSH2 0x349 SWAP1 PUSH2 0x100 SWAP1 DIV PUSH4 0xFFFFFFFF AND DUP2 JUMP JUMPDEST PUSH1 0x40 MLOAD PUSH4 0xFFFFFFFF SWAP1 SWAP2 AND DUP2 MSTORE PUSH1 0x20 ADD PUSH2 0x2F0 JUMP JUMPDEST PUSH1 0xC SLOAD PUSH2 0x324 SWAP1 PUSH4 0x1000000 SWAP1 DIV PUSH1 0xFF AND DUP2 JUMP JUMPDEST PUSH2 0x302 PUSH1 0x13 SLOAD DUP2 JUMP JUMPDEST PUSH2 0x324 PUSH2 0x389 CALLDATASIZE PUSH1 0x4 PUSH2 0x24E5 JUMP JUMPDEST PUSH1 0x1 PUSH1 0x1 PUSH1 0xA0 SHL SUB AND PUSH1 0x0 SWAP1 DUP2 MSTORE PUSH1 0x15 PUSH1 0x20 MSTORE PUSH1 0x40 SWAP1 KECCAK256 SLOAD PUSH1 0xFF AND SWAP1 JUMP JUMPDEST PUSH1 0x9 SLOAD PUSH2 0x3C1 SWAP1 PUSH1 0x1 PUSH1 0x48 SHL SWAP1 DIV PUSH1 0x1 PUSH1 0x1 PUSH1 0xA0 SHL SUB AND DUP2 JUMP JUMPDEST PUSH1 0x40 MLOAD PUSH1 0x1 PUSH1 0x1 PUSH1 0xA0 SHL SUB SWAP1 SWAP2 AND DUP2 MSTORE PUSH1 0x20 ADD PUSH2 0x2F0 JUMP JUMPDEST PUSH2 0x302 PUSH1 0x8 SLOAD DUP2 JUMP JUMPDEST PUSH1 0x0 SLOAD PUSH2 0x3C1 SWAP1 PUSH1 0x1 PUSH1 0x1 PUSH1 0xA0 SHL SUB AND DUP2 JUMP JUMPDEST PUSH2 0x3FD PUSH2 0x627 JUMP JUMPDEST PUSH1 0x40 MLOAD PUSH2 0x2F0 SWAP2 SWAP1 PUSH2 0x273F JUMP JUMPDEST PUSH2 0x412 PUSH2 0x6B5 JUMP JUMPDEST STOP JUMPDEST PUSH1 0x9 SLOAD PUSH2 0x324 SWAP1 PUSH1 0xFF AND DUP2 JUMP JUMPDEST PUSH2 0x412 PUSH2 0x7DB JUMP JUMPDEST PUSH2 0x412 PUSH2 0x890 JUMP JUMPDEST PUSH2 0x302 PUSH1 0x10 SLOAD DUP2 JUMP JUMPDEST PUSH1 0xC SLOAD PUSH2 0x324 SWAP1 PUSH1 0xFF AND DUP2 JUMP JUMPDEST PUSH1 0xC SLOAD PUSH2 0x324 SWAP1 PUSH2 0x100 SWAP1 DIV PUSH1 0xFF AND DUP2 JUMP JUMPDEST PUSH2 0x302 PUSH1 0xE SLOAD DUP2 JUMP JUMPDEST PUSH2 0x302 PUSH1 0x12 SLOAD DUP2 JUMP JUMPDEST PUSH1 0xA SLOAD PUSH2 0x3C1 SWAP1 PUSH1 0x1 PUSH1 0x1 PUSH1 0xA0 SHL SUB AND DUP2 JUMP JUMPDEST PUSH2 0x302 PUSH1 0x7 SLOAD DUP2 JUMP JUMPDEST PUSH1 0xC SLOAD PUSH2 0x324 SWAP1 PUSH3 0x10000 SWAP1 DIV PUSH1 0xFF AND DUP2 JUMP JUMPDEST PUSH2 0x302 PUSH1 0x14 SLOAD DUP2 JUMP JUMPDEST PUSH2 0x412 PUSH2 0xAC0 JUMP JUMPDEST PUSH2 0x302 PUSH2 0xB46 JUMP JUMPDEST PUSH2 0x302 PUSH1 0x2 SLOAD DUP2 JUMP JUMPDEST PUSH2 0x412 PUSH2 0x4CA CALLDATASIZE PUSH1 0x4 PUSH2 0x24E5 JUMP JUMPDEST PUSH2 0xE8B JUMP JUMPDEST PUSH2 0x412 PUSH2 0x4DD CALLDATASIZE PUSH1 0x4 PUSH2 0x24E5 JUMP JUMPDEST PUSH2 0xF48 JUMP JUMPDEST PUSH2 0x302 PUSH1 0x6 SLOAD DUP2 JUMP JUMPDEST PUSH2 0x302 PUSH1 0xD SLOAD DUP2 JUMP JUMPDEST PUSH2 0x302 PUSH2 0x502 CALLDATASIZE PUSH1 0x4 PUSH2 0x25EE JUMP JUMPDEST PUSH2 0x1008 JUMP JUMPDEST PUSH2 0x302 PUSH1 0x11 SLOAD DUP2 JUMP JUMPDEST PUSH2 0x302 PUSH1 0x4 SLOAD DUP2 JUMP JUMPDEST PUSH2 0x412 PUSH2 0x527 CALLDATASIZE PUSH1 0x4 PUSH2 0x2506 JUMP JUMPDEST PUSH2 0x1495 JUMP JUMPDEST PUSH2 0x324 PUSH2 0x53A CALLDATASIZE PUSH1 0x4 PUSH2 0x24E5 JUMP JUMPDEST PUSH1 0x15 PUSH1 0x20 MSTORE PUSH1 0x0 SWAP1 DUP2 MSTORE PUSH1 0x40 SWAP1 KECCAK256 SLOAD PUSH1 0xFF AND DUP2 JUMP JUMPDEST PUSH2 0x562 PUSH2 0x55D CALLDATASIZE PUSH1 0x4 PUSH2 0x26F3 JUMP JUMPDEST PUSH2 0x196C JUMP JUMPDEST PUSH1 0x40 DUP1 MLOAD SWAP3 DUP4 MSTORE PUSH1 0x20 DUP4 ADD SWAP2 SWAP1 SWAP2 MSTORE ADD PUSH2 0x2F0 JUMP JUMPDEST PUSH1 0xA SLOAD PUSH2 0x58B SWAP1 PUSH1 0x1 PUSH1 0xA0 SHL SWAP1 DIV PUSH1 0xFF AND DUP2 JUMP JUMPDEST PUSH1 0x40 MLOAD PUSH1 0xFF SWAP1 SWAP2 AND DUP2 MSTORE PUSH1 0x20 ADD PUSH2 0x2F0 JUMP JUMPDEST PUSH1 0xC SLOAD PUSH2 0x324 SWAP1 PUSH5 0x100000000 SWAP1 DIV PUSH1 0xFF AND DUP2 JUMP JUMPDEST PUSH2 0x302 PUSH1 0x5 SLOAD DUP2 JUMP JUMPDEST PUSH2 0x302 PUSH2 0x5C9 CALLDATASIZE PUSH1 0x4 PUSH2 0x24E5 JUMP JUMPDEST PUSH2 0x1F3B JUMP JUMPDEST PUSH2 0x412 PUSH2 0x5DC CALLDATASIZE PUSH1 0x4 PUSH2 0x2617 JUMP JUMPDEST PUSH2 0x204A JUMP JUMPDEST PUSH1 0x9 SLOAD PUSH2 0x349 SWAP1 PUSH1 0x1 PUSH1 0x28 SHL SWAP1 DIV PUSH4 0xFFFFFFFF AND DUP2 JUMP JUMPDEST PUSH1 0x1 SLOAD PUSH2 0x3C1 SWAP1 PUSH1 0x1 PUSH1 0x1 PUSH1 0xA0 SHL SUB AND DUP2 JUMP JUMPDEST PUSH2 0x302 PUSH1 0x3 SLOAD DUP2 JUMP JUMPDEST PUSH2 0x412 PUSH2 0x622 CALLDATASIZE PUSH1 0x4 PUSH2 0x2666 JUMP JUMPDEST PUSH2 0x215C JUMP JUMPDEST PUSH1 0xB DUP1 SLOAD PUSH2 0x634 SWAP1 PUSH2 0x29CF JUMP JUMPDEST DUP1 PUSH1 0x1F ADD PUSH1 0x20 DUP1 SWAP2 DIV MUL PUSH1 0x20 ADD PUSH1 0x40 MLOAD SWAP1 DUP2 ADD PUSH1 0x40 MSTORE DUP1 SWAP3 SWAP2 SWAP1 DUP2 DUP2 MSTORE PUSH1 0x20 ADD DUP3 DUP1 SLOAD PUSH2 0x660 SWAP1 PUSH2 0x29CF JUMP JUMPDEST DUP1 ISZERO PUSH2 0x6AD JUMPI DUP1 PUSH1 0x1F LT PUSH2 0x682 JUMPI PUSH2 0x100 DUP1 DUP4 SLOAD DIV MUL DUP4 MSTORE SWAP2 PUSH1 0x20 ADD SWAP2 PUSH2 0x6AD JUMP JUMPDEST DUP3 ADD SWAP2 SWAP1 PUSH1 0x0 MSTORE PUSH1 0x20 PUSH1 0x0 KECCAK256 SWAP1 JUMPDEST DUP2 SLOAD DUP2 MSTORE SWAP1 PUSH1 0x1 ADD SWAP1 PUSH1 0x20 ADD DUP1 DUP4 GT PUSH2 0x690 JUMPI DUP3 SWAP1 SUB PUSH1 0x1F AND DUP3 ADD SWAP2 JUMPDEST POP POP POP POP POP DUP2 JUMP JUMPDEST PUSH1 0x1 SLOAD PUSH1 0x1 PUSH1 0x1 PUSH1 0xA0 SHL SUB AND CALLER EQ PUSH2 0x6E8 JUMPI PUSH1 0x40 MLOAD PUSH3 0x461BCD PUSH1 0xE5 SHL DUP2 MSTORE PUSH1 0x4 ADD PUSH2 0x6DF SWAP1 PUSH2 0x2772 JUMP JUMPDEST PUSH1 0x40 MLOAD DUP1 SWAP2 SUB SWAP1 REVERT JUMPDEST PUSH1 0xC SLOAD PUSH2 0x100 SWAP1 DIV PUSH1 0xFF AND ISZERO PUSH2 0x710 JUMPI PUSH1 0x40 MLOAD PUSH3 0x461BCD PUSH1 0xE5 SHL DUP2 MSTORE PUSH1 0x4 ADD PUSH2 0x6DF SWAP1 PUSH2 0x282A JUMP JUMPDEST PUSH1 0xC SLOAD PUSH5 0x100000000 SWAP1 DIV PUSH1 0xFF AND PUSH2 0x73A JUMPI PUSH1 0x40 MLOAD PUSH3 0x461BCD PUSH1 0xE5 SHL DUP2 MSTORE PUSH1 0x4 ADD PUSH2 0x6DF SWAP1 PUSH2 0x2898 JUMP JUMPDEST PUSH1 0x0 PUSH1 0x14 SLOAD PUSH1 0x13 SLOAD PUSH2 0x74C SWAP2 SWAP1 PUSH2 0x2988 JUMP JUMPDEST PUSH1 0x13 SLOAD PUSH1 0x14 SSTORE PUSH1 0xA SLOAD PUSH1 0x40 MLOAD PUSH4 0xA9059CBB PUSH1 0xE0 SHL DUP2 MSTORE CALLER PUSH1 0x4 DUP3 ADD MSTORE PUSH1 0x24 DUP2 ADD DUP4 SWAP1 MSTORE SWAP2 SWAP3 POP PUSH1 0x1 PUSH1 0x1 PUSH1 0xA0 SHL SUB AND SWAP1 PUSH4 0xA9059CBB SWAP1 PUSH1 0x44 ADD PUSH1 0x20 PUSH1 0x40 MLOAD DUP1 DUP4 SUB DUP2 PUSH1 0x0 DUP8 DUP1 EXTCODESIZE ISZERO DUP1 ISZERO PUSH2 0x79F JUMPI PUSH1 0x0 DUP1 REVERT JUMPDEST POP GAS CALL ISZERO DUP1 ISZERO PUSH2 0x7B3 JUMPI RETURNDATASIZE PUSH1 0x0 DUP1 RETURNDATACOPY RETURNDATASIZE PUSH1 0x0 REVERT JUMPDEST POP POP POP POP PUSH1 0x40 MLOAD RETURNDATASIZE PUSH1 0x1F NOT PUSH1 0x1F DUP3 ADD AND DUP3 ADD DUP1 PUSH1 0x40 MSTORE POP DUP2 ADD SWAP1 PUSH2 0x7D7 SWAP2 SWAP1 PUSH2 0x264A JUMP JUMPDEST POP POP JUMP JUMPDEST PUSH1 0x1 SLOAD PUSH1 0x1 PUSH1 0x1 PUSH1 0xA0 SHL SUB AND CALLER EQ PUSH2 0x805 JUMPI PUSH1 0x40 MLOAD PUSH3 0x461BCD PUSH1 0xE5 SHL DUP2 MSTORE PUSH1 0x4 ADD PUSH2 0x6DF SWAP1 PUSH2 0x2772 JUMP JUMPDEST PUSH1 0xC SLOAD PUSH1 0xFF AND ISZERO ISZERO PUSH1 0x1 EQ ISZERO PUSH2 0x82D JUMPI PUSH1 0x40 MLOAD PUSH3 0x461BCD PUSH1 0xE5 SHL DUP2 MSTORE PUSH1 0x4 ADD PUSH2 0x6DF SWAP1 PUSH2 0x27A9 JUMP JUMPDEST PUSH1 0xC SLOAD PUSH1 0xFF PUSH2 0x100 SWAP1 SWAP2 DIV AND ISZERO ISZERO PUSH1 0x1 EQ PUSH2 0x883 JUMPI PUSH1 0x40 MLOAD PUSH3 0x461BCD PUSH1 0xE5 SHL DUP2 MSTORE PUSH1 0x20 PUSH1 0x4 DUP3 ADD MSTORE PUSH1 0x16 PUSH1 0x24 DUP3 ADD MSTORE PUSH22 0x14D959590E881CDA1BDD5B19081899481C185D5CD959 PUSH1 0x52 SHL PUSH1 0x44 DUP3 ADD MSTORE PUSH1 0x64 ADD PUSH2 0x6DF JUMP JUMPDEST PUSH1 0xC DUP1 SLOAD PUSH2 0xFF00 NOT AND SWAP1 SSTORE JUMP JUMPDEST PUSH1 0x1 SLOAD PUSH1 0x1 PUSH1 0x1 PUSH1 0xA0 SHL SUB AND CALLER EQ PUSH2 0x8BA JUMPI PUSH1 0x40 MLOAD PUSH3 0x461BCD PUSH1 0xE5 SHL DUP2 MSTORE PUSH1 0x4 ADD PUSH2 0x6DF SWAP1 PUSH2 0x2772 JUMP JUMPDEST PUSH1 0xC SLOAD PUSH1 0xFF AND ISZERO PUSH2 0x8DD JUMPI PUSH1 0x40 MLOAD PUSH3 0x461BCD PUSH1 0xE5 SHL DUP2 MSTORE PUSH1 0x4 ADD PUSH2 0x6DF SWAP1 PUSH2 0x27A9 JUMP JUMPDEST PUSH1 0xC SLOAD PUSH2 0x100 SWAP1 DIV PUSH1 0xFF AND ISZERO PUSH2 0x905 JUMPI PUSH1 0x40 MLOAD PUSH3 0x461BCD PUSH1 0xE5 SHL DUP2 MSTORE PUSH1 0x4 ADD PUSH2 0x6DF SWAP1 PUSH2 0x282A JUMP JUMPDEST PUSH1 0xC SLOAD PUSH5 0x100000000 SWAP1 DIV PUSH1 0xFF AND ISZERO PUSH2 0x9E6 JUMPI PUSH1 0x0 PUSH1 0x11 SLOAD PUSH1 0xF SLOAD PUSH2 0x92A SWAP2 SWAP1 PUSH2 0x2931 JUMP JUMPDEST PUSH1 0x9 SLOAD PUSH1 0x1 SLOAD PUSH1 0x40 MLOAD PUSH4 0xA9059CBB PUSH1 0xE0 SHL DUP2 MSTORE PUSH1 0x1 PUSH1 0x1 PUSH1 0xA0 SHL SUB SWAP2 DUP3 AND PUSH1 0x4 DUP3 ADD MSTORE PUSH1 0x24 DUP2 ADD DUP5 SWAP1 MSTORE SWAP3 SWAP4 POP PUSH1 0x1 PUSH1 0x48 SHL SWAP1 SWAP2 DIV AND SWAP1 PUSH4 0xA9059CBB SWAP1 PUSH1 0x44 ADD PUSH1 0x20 PUSH1 0x40 MLOAD DUP1 DUP4 SUB DUP2 PUSH1 0x0 DUP8 DUP1 EXTCODESIZE ISZERO DUP1 ISZERO PUSH2 0x984 JUMPI PUSH1 0x0 DUP1 REVERT JUMPDEST POP GAS CALL ISZERO DUP1 ISZERO PUSH2 0x998 JUMPI RETURNDATASIZE PUSH1 0x0 DUP1 RETURNDATACOPY RETURNDATASIZE PUSH1 0x0 REVERT JUMPDEST POP POP POP POP PUSH1 0x40 MLOAD RETURNDATASIZE PUSH1 0x1F NOT PUSH1 0x1F DUP3 ADD AND DUP3 ADD DUP1 PUSH1 0x40 MSTORE POP DUP2 ADD SWAP1 PUSH2 0x9BC SWAP2 SWAP1 PUSH2 0x264A JUMP JUMPDEST PUSH2 0x9D8 JUMPI PUSH1 0x40 MLOAD PUSH3 0x461BCD PUSH1 0xE5 SHL DUP2 MSTORE PUSH1 0x4 ADD PUSH2 0x6DF SWAP1 PUSH2 0x27E0 JUMP JUMPDEST POP PUSH1 0xC DUP1 SLOAD PUSH2 0xFF00 NOT AND SWAP1 SSTORE JUMP JUMPDEST PUSH1 0x9 SLOAD PUSH1 0x1 SLOAD PUSH1 0x5 SLOAD PUSH1 0x4 SLOAD PUSH1 0x1 PUSH1 0x1 PUSH1 0xA0 SHL SUB PUSH1 0x1 PUSH1 0x48 SHL SWAP1 SWAP5 DIV DUP5 AND SWAP4 PUSH4 0xA9059CBB SWAP4 AND SWAP2 PUSH2 0xA16 SWAP2 PUSH2 0x2931 JUMP JUMPDEST PUSH1 0x40 MLOAD PUSH1 0x1 PUSH1 0x1 PUSH1 0xE0 SHL SUB NOT PUSH1 0xE0 DUP6 SWAP1 SHL AND DUP2 MSTORE PUSH1 0x1 PUSH1 0x1 PUSH1 0xA0 SHL SUB SWAP1 SWAP3 AND PUSH1 0x4 DUP4 ADD MSTORE PUSH1 0x24 DUP3 ADD MSTORE PUSH1 0x44 ADD PUSH1 0x20 PUSH1 0x40 MLOAD DUP1 DUP4 SUB DUP2 PUSH1 0x0 DUP8 DUP1 EXTCODESIZE ISZERO DUP1 ISZERO PUSH2 0xA5C JUMPI PUSH1 0x0 DUP1 REVERT JUMPDEST POP GAS CALL ISZERO DUP1 ISZERO PUSH2 0xA70 JUMPI RETURNDATASIZE PUSH1 0x0 DUP1 RETURNDATACOPY RETURNDATASIZE PUSH1 0x0 REVERT JUMPDEST POP POP POP POP PUSH1 0x40 MLOAD RETURNDATASIZE PUSH1 0x1F NOT PUSH1 0x1F DUP3 ADD AND DUP3 ADD DUP1 PUSH1 0x40 MSTORE POP DUP2 ADD SWAP1 PUSH2 0xA94 SWAP2 SWAP1 PUSH2 0x264A JUMP JUMPDEST PUSH2 0xAB0 JUMPI PUSH1 0x40 MLOAD PUSH3 0x461BCD PUSH1 0xE5 SHL DUP2 MSTORE PUSH1 0x4 ADD PUSH2 0x6DF SWAP1 PUSH2 0x27E0 JUMP JUMPDEST PUSH1 0xC DUP1 SLOAD PUSH2 0xFFFF NOT AND PUSH1 0x1 OR SWAP1 SSTORE JUMP JUMPDEST PUSH1 0x1 SLOAD PUSH1 0x1 PUSH1 0x1 PUSH1 0xA0 SHL SUB AND CALLER EQ PUSH2 0xAEA JUMPI PUSH1 0x40 MLOAD PUSH3 0x461BCD PUSH1 0xE5 SHL DUP2 MSTORE PUSH1 0x4 ADD PUSH2 0x6DF SWAP1 PUSH2 0x2772 JUMP JUMPDEST PUSH1 0xC SLOAD PUSH1 0xFF AND ISZERO PUSH2 0xB0D JUMPI PUSH1 0x40 MLOAD PUSH3 0x461BCD PUSH1 0xE5 SHL DUP2 MSTORE PUSH1 0x4 ADD PUSH2 0x6DF SWAP1 PUSH2 0x27A9 JUMP JUMPDEST PUSH1 0xC SLOAD PUSH2 0x100 SWAP1 DIV PUSH1 0xFF AND ISZERO PUSH2 0xB35 JUMPI PUSH1 0x40 MLOAD PUSH3 0x461BCD PUSH1 0xE5 SHL DUP2 MSTORE PUSH1 0x4 ADD PUSH2 0x6DF SWAP1 PUSH2 0x282A JUMP JUMPDEST PUSH1 0xC DUP1 SLOAD PUSH2 0xFF00 NOT AND PUSH2 0x100 OR SWAP1 SSTORE JUMP JUMPDEST PUSH1 0xC SLOAD PUSH1 0x0 SWAP1 PUSH2 0x100 SWAP1 DIV PUSH1 0xFF AND ISZERO PUSH2 0xB71 JUMPI PUSH1 0x40 MLOAD PUSH3 0x461BCD PUSH1 0xE5 SHL DUP2 MSTORE PUSH1 0x4 ADD PUSH2 0x6DF SWAP1 PUSH2 0x282A JUMP JUMPDEST TIMESTAMP PUSH1 0x7 SLOAD GT ISZERO PUSH2 0xBCE JUMPI PUSH1 0x40 MLOAD PUSH3 0x461BCD PUSH1 0xE5 SHL DUP2 MSTORE PUSH1 0x20 PUSH1 0x4 DUP3 ADD MSTORE PUSH1 0x22 PUSH1 0x24 DUP3 ADD MSTORE PUSH32 0x536565643A20646973747269627574696F6E20686176656E2774207374617274 PUSH1 0x44 DUP3 ADD MSTORE PUSH2 0x1959 PUSH1 0xF2 SHL PUSH1 0x64 DUP3 ADD MSTORE PUSH1 0x84 ADD PUSH2 0x6DF JUMP JUMPDEST PUSH1 0xC SLOAD PUSH5 0x100000000 SWAP1 DIV PUSH1 0xFF AND ISZERO PUSH2 0xC29 JUMPI PUSH1 0x40 MLOAD PUSH3 0x461BCD PUSH1 0xE5 SHL DUP2 MSTORE PUSH1 0x20 PUSH1 0x4 DUP3 ADD MSTORE PUSH1 0x19 PUSH1 0x24 DUP3 ADD MSTORE PUSH32 0x536565643A206D696E696D756D20616C7265616479206D657400000000000000 PUSH1 0x44 DUP3 ADD MSTORE PUSH1 0x64 ADD PUSH2 0x6DF JUMP JUMPDEST CALLER PUSH1 0x0 SWAP1 DUP2 MSTORE PUSH1 0x16 PUSH1 0x20 MSTORE PUSH1 0x40 SWAP1 KECCAK256 PUSH1 0x2 ADD SLOAD PUSH2 0xC88 JUMPI PUSH1 0x40 MLOAD PUSH3 0x461BCD PUSH1 0xE5 SHL DUP2 MSTORE PUSH1 0x20 PUSH1 0x4 DUP3 ADD MSTORE PUSH1 0x19 PUSH1 0x24 DUP3 ADD MSTORE PUSH32 0x536565643A207A65726F2066756E64696E6720616D6F756E7400000000000000 PUSH1 0x44 DUP3 ADD MSTORE PUSH1 0x64 ADD PUSH2 0x6DF JUMP JUMPDEST CALLER PUSH1 0x0 SWAP1 DUP2 MSTORE PUSH1 0x16 PUSH1 0x20 SWAP1 DUP2 MSTORE PUSH1 0x40 DUP1 DUP4 KECCAK256 DUP2 MLOAD PUSH1 0xA0 DUP2 ADD DUP4 MSTORE DUP2 SLOAD DUP1 DUP3 MSTORE PUSH1 0x1 DUP4 ADD SLOAD SWAP5 DUP3 ADD SWAP5 SWAP1 SWAP5 MSTORE PUSH1 0x2 DUP3 ADD SLOAD SWAP3 DUP2 ADD DUP4 SWAP1 MSTORE PUSH1 0x3 DUP3 ADD SLOAD PUSH1 0x60 DUP3 ADD MSTORE PUSH1 0x4 SWAP1 SWAP2 ADD SLOAD PUSH1 0x80 DUP3 ADD MSTORE PUSH1 0xF DUP1 SLOAD SWAP2 SWAP5 SWAP3 SWAP4 SWAP3 SWAP1 SWAP2 PUSH2 0xCE9 SWAP1 DUP5 SWAP1 PUSH2 0x2931 JUMP JUMPDEST SWAP1 SWAP2 SSTORE POP POP PUSH1 0x60 DUP3 ADD MLOAD PUSH1 0x11 DUP1 SLOAD PUSH1 0x0 SWAP1 PUSH2 0xD05 SWAP1 DUP5 SWAP1 PUSH2 0x2931 JUMP JUMPDEST SWAP1 SWAP2 SSTORE POP POP PUSH1 0x0 DUP1 DUP4 MSTORE PUSH1 0x60 DUP4 ADD DUP2 DUP2 MSTORE PUSH1 0x40 DUP1 DUP6 ADD DUP4 DUP2 MSTORE CALLER DUP5 MSTORE PUSH1 0x16 PUSH1 0x20 SWAP1 DUP2 MSTORE SWAP2 DUP5 KECCAK256 DUP7 MLOAD DUP2 SSTORE SWAP2 DUP7 ADD MLOAD PUSH1 0x1 DUP4 ADD SSTORE MLOAD PUSH1 0x2 DUP3 ADD SSTORE SWAP1 MLOAD PUSH1 0x3 DUP3 ADD SSTORE PUSH1 0x80 DUP5 ADD MLOAD PUSH1 0x4 SWAP1 SWAP2 ADD SSTORE PUSH1 0x13 DUP1 SLOAD DUP4 SWAP3 SWAP1 PUSH2 0xD62 SWAP1 DUP5 SWAP1 PUSH2 0x2988 JUMP JUMPDEST SWAP1 SWAP2 SSTORE POP POP PUSH1 0xA SLOAD PUSH1 0x40 MLOAD PUSH4 0xA9059CBB PUSH1 0xE0 SHL DUP2 MSTORE CALLER PUSH1 0x4 DUP3 ADD MSTORE PUSH1 0x24 DUP2 ADD DUP4 SWAP1 MSTORE PUSH1 0x1 PUSH1 0x1 PUSH1 0xA0 SHL SUB SWAP1 SWAP2 AND SWAP1 PUSH4 0xA9059CBB SWAP1 PUSH1 0x44 ADD PUSH1 0x20 PUSH1 0x40 MLOAD DUP1 DUP4 SUB DUP2 PUSH1 0x0 DUP8 DUP1 EXTCODESIZE ISZERO DUP1 ISZERO PUSH2 0xDB3 JUMPI PUSH1 0x0 DUP1 REVERT JUMPDEST POP GAS CALL ISZERO DUP1 ISZERO PUSH2 0xDC7 JUMPI RETURNDATASIZE PUSH1 0x0 DUP1 RETURNDATACOPY RETURNDATASIZE PUSH1 0x0 REVERT JUMPDEST POP POP POP POP PUSH1 0x40 MLOAD RETURNDATASIZE PUSH1 0x1F NOT PUSH1 0x1F DUP3 ADD AND DUP3 ADD DUP1 PUSH1 0x40 MSTORE POP DUP2 ADD SWAP1 PUSH2 0xDEB SWAP2 SWAP1 PUSH2 0x264A JUMP JUMPDEST PUSH2 0xE50 JUMPI PUSH1 0x40 MLOAD PUSH3 0x461BCD PUSH1 0xE5 SHL DUP2 MSTORE PUSH1 0x20 PUSH1 0x4 DUP3 ADD MSTORE PUSH1 0x30 PUSH1 0x24 DUP3 ADD MSTORE PUSH32 0x536565643A2063616E6E6F742072657475726E2066756E64696E6720746F6B65 PUSH1 0x44 DUP3 ADD MSTORE PUSH16 0x3739903A379036B9B39739B2B73232B9 PUSH1 0x81 SHL PUSH1 0x64 DUP3 ADD MSTORE PUSH1 0x84 ADD PUSH2 0x6DF JUMP JUMPDEST PUSH1 0x40 MLOAD DUP2 DUP2 MSTORE CALLER SWAP1 PUSH32 0x1A689B1A62E3BB77F9C98D8759C04F341A67DEB5CC63CF53BE8324B691064950 SWAP1 PUSH1 0x20 ADD PUSH1 0x40 MLOAD DUP1 SWAP2 SUB SWAP1 LOG2 SWAP2 POP POP SWAP1 JUMP JUMPDEST PUSH1 0x1 SLOAD PUSH1 0x1 PUSH1 0x1 PUSH1 0xA0 SHL SUB AND CALLER EQ PUSH2 0xEB5 JUMPI PUSH1 0x40 MLOAD PUSH3 0x461BCD PUSH1 0xE5 SHL DUP2 MSTORE PUSH1 0x4 ADD PUSH2 0x6DF SWAP1 PUSH2 0x2772 JUMP JUMPDEST PUSH1 0xC SLOAD PUSH1 0xFF AND ISZERO PUSH2 0xED8 JUMPI PUSH1 0x40 MLOAD PUSH3 0x461BCD PUSH1 0xE5 SHL DUP2 MSTORE PUSH1 0x4 ADD PUSH2 0x6DF SWAP1 PUSH2 0x27A9 JUMP JUMPDEST PUSH1 0xC SLOAD PUSH2 0x100 SWAP1 DIV PUSH1 0xFF AND ISZERO PUSH2 0xF00 JUMPI PUSH1 0x40 MLOAD PUSH3 0x461BCD PUSH1 0xE5 SHL DUP2 MSTORE PUSH1 0x4 ADD PUSH2 0x6DF SWAP1 PUSH2 0x282A JUMP JUMPDEST PUSH1 0x9 SLOAD PUSH1 0xFF AND ISZERO ISZERO PUSH1 0x1 EQ PUSH2 0xF27 JUMPI PUSH1 0x40 MLOAD PUSH3 0x461BCD PUSH1 0xE5 SHL DUP2 MSTORE PUSH1 0x4 ADD PUSH2 0x6DF SWAP1 PUSH2 0x2861 JUMP JUMPDEST PUSH1 0x1 PUSH1 0x1 PUSH1 0xA0 SHL SUB AND PUSH1 0x0 SWAP1 DUP2 MSTORE PUSH1 0x15 PUSH1 0x20 MSTORE PUSH1 0x40 SWAP1 KECCAK256 DUP1 SLOAD PUSH1 0xFF NOT AND SWAP1 SSTORE JUMP JUMPDEST PUSH1 0x1 SLOAD PUSH1 0x1 PUSH1 0x1 PUSH1 0xA0 SHL SUB AND CALLER EQ PUSH2 0xF72 JUMPI PUSH1 0x40 MLOAD PUSH3 0x461BCD PUSH1 0xE5 SHL DUP2 MSTORE PUSH1 0x4 ADD PUSH2 0x6DF SWAP1 PUSH2 0x2772 JUMP JUMPDEST PUSH1 0xC SLOAD PUSH1 0xFF AND ISZERO PUSH2 0xF95 JUMPI PUSH1 0x40 MLOAD PUSH3 0x461BCD PUSH1 0xE5 SHL DUP2 MSTORE PUSH1 0x4 ADD PUSH2 0x6DF SWAP1 PUSH2 0x27A9 JUMP JUMPDEST PUSH1 0xC SLOAD PUSH2 0x100 SWAP1 DIV PUSH1 0xFF AND ISZERO PUSH2 0xFBD JUMPI PUSH1 0x40 MLOAD PUSH3 0x461BCD PUSH1 0xE5 SHL DUP2 MSTORE PUSH1 0x4 ADD PUSH2 0x6DF SWAP1 PUSH2 0x282A JUMP JUMPDEST PUSH1 0x9 SLOAD PUSH1 0xFF AND ISZERO ISZERO PUSH1 0x1 EQ PUSH2 0xFE4 JUMPI PUSH1 0x40 MLOAD PUSH3 0x461BCD PUSH1 0xE5 SHL DUP2 MSTORE PUSH1 0x4 ADD PUSH2 0x6DF SWAP1 PUSH2 0x2861 JUMP JUMPDEST PUSH1 0x1 PUSH1 0x1 PUSH1 0xA0 SHL SUB AND PUSH1 0x0 SWAP1 DUP2 MSTORE PUSH1 0x15 PUSH1 0x20 MSTORE PUSH1 0x40 SWAP1 KECCAK256 DUP1 SLOAD PUSH1 0xFF NOT AND PUSH1 0x1 OR SWAP1 SSTORE JUMP JUMPDEST PUSH1 0xC SLOAD PUSH1 0x0 SWAP1 PUSH5 0x100000000 SWAP1 DIV PUSH1 0xFF AND PUSH2 0x1035 JUMPI PUSH1 0x40 MLOAD PUSH3 0x461BCD PUSH1 0xE5 SHL DUP2 MSTORE PUSH1 0x4 ADD PUSH2 0x6DF SWAP1 PUSH2 0x2898 JUMP JUMPDEST TIMESTAMP PUSH1 0x8 SLOAD GT ISZERO DUP1 PUSH2 0x104F JUMPI POP PUSH1 0xC SLOAD PUSH1 0x1 PUSH1 0x28 SHL SWAP1 DIV PUSH1 0xFF AND JUMPDEST PUSH2 0x10AF JUMPI PUSH1 0x40 MLOAD PUSH3 0x461BCD PUSH1 0xE5 SHL DUP2 MSTORE PUSH1 0x20 PUSH1 0x4 DUP3 ADD MSTORE PUSH1 0x2B PUSH1 0x24 DUP3 ADD MSTORE PUSH32 0x536565643A2074686520646973747269627574696F6E20686173206E6F742079 PUSH1 0x44 DUP3 ADD MSTORE PUSH11 0x195D08199A5B9A5CDA1959 PUSH1 0xAA SHL PUSH1 0x64 DUP3 ADD MSTORE PUSH1 0x84 ADD PUSH2 0x6DF JUMP JUMPDEST PUSH1 0x0 PUSH2 0x10BA DUP5 PUSH2 0x1F3B JUMP JUMPDEST SWAP1 POP PUSH1 0x0 DUP2 GT PUSH2 0x110C JUMPI PUSH1 0x40 MLOAD PUSH3 0x461BCD PUSH1 0xE5 SHL DUP2 MSTORE PUSH1 0x20 PUSH1 0x4 DUP3 ADD MSTORE PUSH1 0x1B PUSH1 0x24 DUP3 ADD MSTORE PUSH32 0x536565643A20616D6F756E7420636C61696D61626C6520697320300000000000 PUSH1 0x44 DUP3 ADD MSTORE PUSH1 0x64 ADD PUSH2 0x6DF JUMP JUMPDEST DUP3 DUP2 LT ISZERO PUSH2 0x1173 JUMPI PUSH1 0x40 MLOAD PUSH3 0x461BCD PUSH1 0xE5 SHL DUP2 MSTORE PUSH1 0x20 PUSH1 0x4 DUP3 ADD MSTORE PUSH1 0x2E PUSH1 0x24 DUP3 ADD MSTORE PUSH32 0x536565643A20726571756573742069732067726561746572207468616E20636C PUSH1 0x44 DUP3 ADD MSTORE PUSH14 0x185A5B58589B1948185B5BDD5B9D PUSH1 0x92 SHL PUSH1 0x64 DUP3 ADD MSTORE PUSH1 0x84 ADD PUSH2 0x6DF JUMP JUMPDEST PUSH1 0xA SLOAD PUSH1 0x0 SWAP1 PUSH1 0x64 SWAP1 PUSH2 0x1190 SWAP1 PUSH1 0x1 PUSH1 0xA0 SHL SWAP1 DIV PUSH1 0xFF AND DUP7 PUSH2 0x2969 JUMP JUMPDEST PUSH2 0x119A SWAP2 SWAP1 PUSH2 0x2949 JUMP JUMPDEST PUSH1 0x1 PUSH1 0x1 PUSH1 0xA0 SHL SUB DUP7 AND PUSH1 0x0 SWAP1 DUP2 MSTORE PUSH1 0x16 PUSH1 0x20 SWAP1 DUP2 MSTORE PUSH1 0x40 SWAP2 DUP3 SWAP1 KECCAK256 DUP3 MLOAD PUSH1 0xA0 DUP2 ADD DUP5 MSTORE DUP2 SLOAD DUP2 MSTORE PUSH1 0x1 DUP3 ADD SLOAD SWAP3 DUP2 ADD DUP4 DUP2 MSTORE PUSH1 0x2 DUP4 ADD SLOAD SWAP5 DUP3 ADD SWAP5 SWAP1 SWAP5 MSTORE PUSH1 0x3 DUP3 ADD SLOAD PUSH1 0x60 DUP3 ADD MSTORE PUSH1 0x4 SWAP1 SWAP2 ADD SLOAD PUSH1 0x80 DUP3 ADD MSTORE SWAP3 SWAP4 POP DUP7 SWAP2 SWAP1 PUSH2 0x11FF SWAP1 DUP4 SWAP1 PUSH2 0x2931 JUMP JUMPDEST SWAP1 MSTORE POP PUSH1 0x80 DUP2 ADD DUP1 MLOAD DUP4 SWAP2 SWAP1 PUSH2 0x1216 SWAP1 DUP4 SWAP1 PUSH2 0x2931 JUMP JUMPDEST SWAP1 MSTORE POP PUSH1 0x1 PUSH1 0x1 PUSH1 0xA0 SHL SUB DUP7 AND PUSH1 0x0 SWAP1 DUP2 MSTORE PUSH1 0x16 PUSH1 0x20 SWAP1 DUP2 MSTORE PUSH1 0x40 DUP1 DUP4 KECCAK256 DUP5 MLOAD DUP2 SSTORE SWAP2 DUP5 ADD MLOAD PUSH1 0x1 DUP4 ADD SSTORE DUP4 ADD MLOAD PUSH1 0x2 DUP3 ADD SSTORE PUSH1 0x60 DUP4 ADD MLOAD PUSH1 0x3 DUP3 ADD SSTORE PUSH1 0x80 DUP4 ADD MLOAD PUSH1 0x4 SWAP1 SWAP2 ADD SSTORE PUSH1 0x10 DUP1 SLOAD DUP8 SWAP3 SWAP1 PUSH2 0x1270 SWAP1 DUP5 SWAP1 PUSH2 0x2931 JUMP JUMPDEST SWAP3 POP POP DUP2 SWAP1 SSTORE POP DUP2 PUSH1 0x12 PUSH1 0x0 DUP3 DUP3 SLOAD PUSH2 0x1289 SWAP2 SWAP1 PUSH2 0x2931 JUMP JUMPDEST SWAP1 SWAP2 SSTORE POP POP PUSH1 0x9 SLOAD PUSH1 0x0 SLOAD PUSH1 0x40 MLOAD PUSH4 0xA9059CBB PUSH1 0xE0 SHL DUP2 MSTORE PUSH1 0x1 PUSH1 0x1 PUSH1 0xA0 SHL SUB SWAP2 DUP3 AND PUSH1 0x4 DUP3 ADD MSTORE PUSH1 0x24 DUP2 ADD DUP6 SWAP1 MSTORE PUSH1 0x1 PUSH1 0x48 SHL SWAP1 SWAP3 DIV AND SWAP1 PUSH4 0xA9059CBB SWAP1 PUSH1 0x44 ADD PUSH1 0x20 PUSH1 0x40 MLOAD DUP1 DUP4 SUB DUP2 PUSH1 0x0 DUP8 DUP1 EXTCODESIZE ISZERO DUP1 ISZERO PUSH2 0x12E5 JUMPI PUSH1 0x0 DUP1 REVERT JUMPDEST POP GAS CALL ISZERO DUP1 ISZERO PUSH2 0x12F9 JUMPI RETURNDATASIZE PUSH1 0x0 DUP1 RETURNDATACOPY RETURNDATASIZE PUSH1 0x0 REVERT JUMPDEST POP POP POP POP PUSH1 0x40 MLOAD RETURNDATASIZE PUSH1 0x1F NOT PUSH1 0x1F DUP3 ADD AND DUP3 ADD DUP1 PUSH1 0x40 MSTORE POP DUP2 ADD SWAP1 PUSH2 0x131D SWAP2 SWAP1 PUSH2 0x264A JUMP JUMPDEST PUSH2 0x1375 JUMPI PUSH1 0x40 MLOAD PUSH3 0x461BCD PUSH1 0xE5 SHL DUP2 MSTORE PUSH1 0x20 PUSH1 0x4 DUP3 ADD MSTORE PUSH1 0x24 DUP1 DUP3 ADD MSTORE PUSH32 0x536565643A2063616E6E6F74207472616E7366657220746F2062656E65666963 PUSH1 0x44 DUP3 ADD MSTORE PUSH4 0x69617279 PUSH1 0xE0 SHL PUSH1 0x64 DUP3 ADD MSTORE PUSH1 0x84 ADD PUSH2 0x6DF JUMP JUMPDEST PUSH1 0x9 SLOAD PUSH1 0x40 MLOAD PUSH4 0xA9059CBB PUSH1 0xE0 SHL DUP2 MSTORE PUSH1 0x1 PUSH1 0x1 PUSH1 0xA0 SHL SUB DUP9 DUP2 AND PUSH1 0x4 DUP4 ADD MSTORE PUSH1 0x24 DUP3 ADD DUP9 SWAP1 MSTORE PUSH1 0x1 PUSH1 0x48 SHL SWAP1 SWAP3 DIV SWAP1 SWAP2 AND SWAP1 PUSH4 0xA9059CBB SWAP1 PUSH1 0x44 ADD PUSH1 0x20 PUSH1 0x40 MLOAD DUP1 DUP4 SUB DUP2 PUSH1 0x0 DUP8 DUP1 EXTCODESIZE ISZERO DUP1 ISZERO PUSH2 0x13CB JUMPI PUSH1 0x0 DUP1 REVERT JUMPDEST POP GAS CALL ISZERO DUP1 ISZERO PUSH2 0x13DF JUMPI RETURNDATASIZE PUSH1 0x0 DUP1 RETURNDATACOPY RETURNDATASIZE PUSH1 0x0 REVERT JUMPDEST POP POP POP POP PUSH1 0x40 MLOAD RETURNDATASIZE PUSH1 0x1F NOT PUSH1 0x1F DUP3 ADD AND DUP3 ADD DUP1 PUSH1 0x40 MSTORE POP DUP2 ADD SWAP1 PUSH2 0x1403 SWAP2 SWAP1 PUSH2 0x264A JUMP JUMPDEST PUSH2 0x1441 JUMPI PUSH1 0x40 MLOAD PUSH3 0x461BCD PUSH1 0xE5 SHL DUP2 MSTORE PUSH1 0x20 PUSH1 0x4 DUP3 ADD MSTORE PUSH1 0xF PUSH1 0x24 DUP3 ADD MSTORE PUSH15 0x536565643A206E6F20746F6B656E73 PUSH1 0x88 SHL PUSH1 0x44 DUP3 ADD MSTORE PUSH1 0x64 ADD PUSH2 0x6DF JUMP JUMPDEST PUSH1 0x0 SLOAD PUSH1 0x40 DUP1 MLOAD DUP8 DUP2 MSTORE PUSH1 0x20 DUP2 ADD DUP6 SWAP1 MSTORE PUSH1 0x1 PUSH1 0x1 PUSH1 0xA0 SHL SUB SWAP3 DUP4 AND SWAP3 DUP10 AND SWAP2 PUSH32 0x9BD10BE98695714F5CB43CEFB59BA6417808B354710ACAFAFE05E81B26492231 SWAP2 ADD PUSH1 0x40 MLOAD DUP1 SWAP2 SUB SWAP1 LOG3 POP SWAP5 SWAP4 POP POP POP POP JUMP JUMPDEST PUSH1 0xC SLOAD PUSH4 0x1000000 SWAP1 DIV PUSH1 0xFF AND ISZERO PUSH2 0x14FA JUMPI PUSH1 0x40 MLOAD PUSH3 0x461BCD PUSH1 0xE5 SHL DUP2 MSTORE PUSH1 0x20 PUSH1 0x4 DUP3 ADD MSTORE PUSH1 0x22 PUSH1 0x24 DUP3 ADD MSTORE PUSH32 0x536565643A20636F6E747261637420616C726561647920696E697469616C697A PUSH1 0x44 DUP3 ADD MSTORE PUSH2 0x1959 PUSH1 0xF2 SHL PUSH1 0x64 DUP3 ADD MSTORE PUSH1 0x84 ADD PUSH2 0x6DF JUMP JUMPDEST PUSH1 0xC DUP1 SLOAD PUSH4 0xFF000000 NOT AND PUSH4 0x1000000 OR SWAP1 SSTORE DUP9 MLOAD DUP10 SWAP1 PUSH1 0x1 SWAP1 DUP2 LT PUSH2 0x1530 JUMPI PUSH4 0x4E487B71 PUSH1 0xE0 SHL PUSH1 0x0 MSTORE PUSH1 0x32 PUSH1 0x4 MSTORE PUSH1 0x24 PUSH1 0x0 REVERT JUMPDEST PUSH1 0x20 MUL PUSH1 0x20 ADD ADD MLOAD PUSH1 0x1 PUSH1 0x1 PUSH1 0xA0 SHL SUB AND DUP10 PUSH1 0x0 DUP2 MLOAD DUP2 LT PUSH2 0x1562 JUMPI PUSH4 0x4E487B71 PUSH1 0xE0 SHL PUSH1 0x0 MSTORE PUSH1 0x32 PUSH1 0x4 MSTORE PUSH1 0x24 PUSH1 0x0 REVERT JUMPDEST PUSH1 0x20 MUL PUSH1 0x20 ADD ADD MLOAD PUSH1 0x1 PUSH1 0x1 PUSH1 0xA0 SHL SUB AND EQ ISZERO PUSH2 0x15D7 JUMPI PUSH1 0x40 MLOAD PUSH3 0x461BCD PUSH1 0xE5 SHL DUP2 MSTORE PUSH1 0x20 PUSH1 0x4 DUP3 ADD MSTORE PUSH1 0x2D PUSH1 0x24 DUP3 ADD MSTORE PUSH32 0x53656564466163746F72793A2073656564546F6B656E2063616E6E6F74206265 PUSH1 0x44 DUP3 ADD MSTORE PUSH13 0x10333AB73234B733AA37B5B2B7 PUSH1 0x99 SHL PUSH1 0x64 DUP3 ADD MSTORE PUSH1 0x84 ADD PUSH2 0x6DF JUMP JUMPDEST DUP8 PUSH1 0x0 DUP2 MLOAD DUP2 LT PUSH2 0x15F8 JUMPI PUSH4 0x4E487B71 PUSH1 0xE0 SHL PUSH1 0x0 MSTORE PUSH1 0x32 PUSH1 0x4 MSTORE PUSH1 0x24 PUSH1 0x0 REVERT JUMPDEST PUSH1 0x20 MUL PUSH1 0x20 ADD ADD MLOAD DUP9 PUSH1 0x1 DUP2 MLOAD DUP2 LT PUSH2 0x1621 JUMPI PUSH4 0x4E487B71 PUSH1 0xE0 SHL PUSH1 0x0 MSTORE PUSH1 0x32 PUSH1 0x4 MSTORE PUSH1 0x24 PUSH1 0x0 REVERT JUMPDEST PUSH1 0x20 MUL PUSH1 0x20 ADD ADD MLOAD LT ISZERO PUSH2 0x1690 JUMPI PUSH1 0x40 MLOAD PUSH3 0x461BCD PUSH1 0xE5 SHL DUP2 MSTORE PUSH1 0x20 PUSH1 0x4 DUP3 ADD MSTORE PUSH1 0x30 PUSH1 0x24 DUP3 ADD MSTORE PUSH32 0x53656564466163746F72793A20686172644361702063616E6E6F74206265206C PUSH1 0x44 DUP3 ADD MSTORE PUSH16 0x657373207468616E20736F667443617 PUSH1 0x84 SHL PUSH1 0x64 DUP3 ADD MSTORE PUSH1 0x84 ADD PUSH2 0x6DF JUMP JUMPDEST DUP3 PUSH4 0xFFFFFFFF AND DUP5 PUSH4 0xFFFFFFFF AND LT ISZERO PUSH2 0x1712 JUMPI PUSH1 0x40 MLOAD PUSH3 0x461BCD PUSH1 0xE5 SHL DUP2 MSTORE PUSH1 0x20 PUSH1 0x4 DUP3 ADD MSTORE PUSH1 0x3D PUSH1 0x24 DUP3 ADD MSTORE PUSH32 0x53656564466163746F72793A2076657374696E674475726174696F6E2063616E PUSH1 0x44 DUP3 ADD MSTORE PUSH32 0x6E6F74206265206C657373207468616E2076657374696E67436C696666000000 PUSH1 0x64 DUP3 ADD MSTORE PUSH1 0x84 ADD PUSH2 0x6DF JUMP JUMPDEST DUP6 DUP6 GT PUSH2 0x1787 JUMPI PUSH1 0x40 MLOAD PUSH3 0x461BCD PUSH1 0xE5 SHL DUP2 MSTORE PUSH1 0x20 PUSH1 0x4 DUP3 ADD MSTORE PUSH1 0x3B PUSH1 0x24 DUP3 ADD MSTORE PUSH32 0x53656564466163746F72793A20656E6454696D652063616E6E6F74206265206C PUSH1 0x44 DUP3 ADD MSTORE PUSH32 0x657373207468616E20657175616C20746F20737461727454696D650000000000 PUSH1 0x64 DUP3 ADD MSTORE PUSH1 0x84 ADD PUSH2 0x6DF JUMP JUMPDEST PUSH1 0x0 DUP1 SLOAD PUSH1 0x1 PUSH1 0x1 PUSH1 0xA0 SHL SUB DUP1 DUP15 AND PUSH1 0x1 PUSH1 0x1 PUSH1 0xA0 SHL SUB NOT SWAP3 DUP4 AND OR DUP4 SSTORE PUSH1 0x1 DUP1 SLOAD SWAP2 DUP15 AND SWAP2 SWAP1 SWAP3 AND OR SWAP1 SSTORE DUP9 MLOAD DUP10 SWAP2 SWAP1 PUSH2 0x17D2 JUMPI PUSH4 0x4E487B71 PUSH1 0xE0 SHL PUSH1 0x0 MSTORE PUSH1 0x32 PUSH1 0x4 MSTORE PUSH1 0x24 PUSH1 0x0 REVERT JUMPDEST PUSH1 0x20 MUL PUSH1 0x20 ADD ADD MLOAD PUSH1 0x2 DUP2 SWAP1 SSTORE POP DUP8 PUSH1 0x1 DUP2 MLOAD DUP2 LT PUSH2 0x1801 JUMPI PUSH4 0x4E487B71 PUSH1 0xE0 SHL PUSH1 0x0 MSTORE PUSH1 0x32 PUSH1 0x4 MSTORE PUSH1 0x24 PUSH1 0x0 REVERT JUMPDEST PUSH1 0x20 SWAP1 DUP2 MUL SWAP2 SWAP1 SWAP2 ADD ADD MLOAD PUSH1 0x3 SSTORE PUSH1 0x6 DUP8 SWAP1 SSTORE PUSH1 0x7 DUP7 SWAP1 SSTORE PUSH1 0x8 DUP6 SWAP1 SSTORE PUSH1 0xD DUP6 SWAP1 SSTORE PUSH1 0x9 DUP1 SLOAD PUSH9 0xFFFFFFFFFFFFFFFF00 NOT AND PUSH2 0x100 PUSH4 0xFFFFFFFF DUP8 DUP2 AND SWAP2 SWAP1 SWAP2 MUL PUSH9 0xFFFFFFFF0000000000 NOT AND SWAP2 SWAP1 SWAP2 OR PUSH1 0x1 PUSH1 0x28 SHL SWAP2 DUP7 AND SWAP2 SWAP1 SWAP2 MUL OR PUSH1 0xFF NOT AND DUP4 ISZERO ISZERO OR SWAP1 SSTORE DUP9 MLOAD DUP10 SWAP1 PUSH1 0x0 SWAP1 PUSH2 0x188A JUMPI PUSH4 0x4E487B71 PUSH1 0xE0 SHL PUSH1 0x0 MSTORE PUSH1 0x32 PUSH1 0x4 MSTORE PUSH1 0x24 PUSH1 0x0 REVERT JUMPDEST PUSH1 0x20 MUL PUSH1 0x20 ADD ADD MLOAD PUSH1 0x9 DUP1 PUSH2 0x100 EXP DUP2 SLOAD DUP2 PUSH1 0x1 PUSH1 0x1 PUSH1 0xA0 SHL SUB MUL NOT AND SWAP1 DUP4 PUSH1 0x1 PUSH1 0x1 PUSH1 0xA0 SHL SUB AND MUL OR SWAP1 SSTORE POP DUP9 PUSH1 0x1 DUP2 MLOAD DUP2 LT PUSH2 0x18D8 JUMPI PUSH4 0x4E487B71 PUSH1 0xE0 SHL PUSH1 0x0 MSTORE PUSH1 0x32 PUSH1 0x4 MSTORE PUSH1 0x24 PUSH1 0x0 REVERT JUMPDEST PUSH1 0x20 SWAP1 DUP2 MUL SWAP2 SWAP1 SWAP2 ADD ADD MLOAD PUSH1 0xA DUP1 SLOAD PUSH1 0x1 PUSH1 0x1 PUSH1 0xA0 SHL SUB SWAP1 SWAP3 AND PUSH1 0x1 PUSH1 0x1 PUSH1 0xA8 SHL SUB NOT SWAP1 SWAP3 AND SWAP2 SWAP1 SWAP2 OR PUSH1 0x1 PUSH1 0xA0 SHL PUSH1 0xFF DUP5 AND MUL OR SWAP1 SSTORE PUSH1 0x3 SLOAD DUP8 SWAP1 PUSH2 0x1927 SWAP1 PUSH8 0xDE0B6B3A7640000 SWAP1 PUSH2 0x2969 JUMP JUMPDEST PUSH2 0x1931 SWAP2 SWAP1 PUSH2 0x2949 JUMP JUMPDEST PUSH1 0x4 DUP2 SWAP1 SSTORE PUSH1 0x64 SWAP1 PUSH2 0x1947 SWAP1 PUSH1 0xFF DUP5 AND SWAP1 PUSH2 0x2969 JUMP JUMPDEST PUSH2 0x1951 SWAP2 SWAP1 PUSH2 0x2949 JUMP JUMPDEST PUSH1 0x5 DUP2 SWAP1 SSTORE PUSH1 0x4 SLOAD PUSH1 0xF SSTORE PUSH1 0x11 SSTORE POP POP POP POP POP POP POP POP POP POP POP JUMP JUMPDEST PUSH1 0xC SLOAD PUSH1 0x0 SWAP1 DUP2 SWAP1 PUSH1 0xFF AND ISZERO PUSH2 0x1994 JUMPI PUSH1 0x40 MLOAD PUSH3 0x461BCD PUSH1 0xE5 SHL DUP2 MSTORE PUSH1 0x4 ADD PUSH2 0x6DF SWAP1 PUSH2 0x27A9 JUMP JUMPDEST PUSH1 0xC SLOAD PUSH2 0x100 SWAP1 DIV PUSH1 0xFF AND ISZERO PUSH2 0x19BC JUMPI PUSH1 0x40 MLOAD PUSH3 0x461BCD PUSH1 0xE5 SHL DUP2 MSTORE PUSH1 0x4 ADD PUSH2 0x6DF SWAP1 PUSH2 0x282A JUMP JUMPDEST PUSH1 0xC SLOAD PUSH1 0x1 PUSH1 0x28 SHL SWAP1 DIV PUSH1 0xFF AND ISZERO PUSH2 0x1A16 JUMPI PUSH1 0x40 MLOAD PUSH3 0x461BCD PUSH1 0xE5 SHL DUP2 MSTORE PUSH1 0x20 PUSH1 0x4 DUP3 ADD MSTORE PUSH1 0x1D PUSH1 0x24 DUP3 ADD MSTORE PUSH32 0x536565643A206D6178696D756D2066756E64696E672072656163686564000000 PUSH1 0x44 DUP3 ADD MSTORE PUSH1 0x64 ADD PUSH2 0x6DF JUMP JUMPDEST PUSH1 0x9 SLOAD PUSH1 0xFF AND ISZERO DUP1 PUSH2 0x1A37 JUMPI POP CALLER PUSH1 0x0 SWAP1 DUP2 MSTORE PUSH1 0x15 PUSH1 0x20 MSTORE PUSH1 0x40 SWAP1 KECCAK256 SLOAD PUSH1 0xFF AND JUMPDEST PUSH2 0x1A83 JUMPI PUSH1 0x40 MLOAD PUSH3 0x461BCD PUSH1 0xE5 SHL DUP2 MSTORE PUSH1 0x20 PUSH1 0x4 DUP3 ADD MSTORE PUSH1 0x1A PUSH1 0x24 DUP3 ADD MSTORE PUSH32 0x536565643A2073656E64657220686173206E6F20726967687473000000000000 PUSH1 0x44 DUP3 ADD MSTORE PUSH1 0x64 ADD PUSH2 0x6DF JUMP JUMPDEST TIMESTAMP PUSH1 0x8 SLOAD LT ISZERO DUP1 ISZERO PUSH2 0x1A97 JUMPI POP TIMESTAMP PUSH1 0x7 SLOAD GT ISZERO JUMPDEST PUSH2 0x1AF9 JUMPI PUSH1 0x40 MLOAD PUSH3 0x461BCD PUSH1 0xE5 SHL DUP2 MSTORE PUSH1 0x20 PUSH1 0x4 DUP3 ADD MSTORE PUSH1 0x2D PUSH1 0x24 DUP3 ADD MSTORE PUSH32 0x536565643A206F6E6C7920616C6C6F77656420647572696E6720646973747269 PUSH1 0x44 DUP3 ADD MSTORE PUSH13 0x189D5D1A5BDB881C195C9A5BD9 PUSH1 0x9A SHL PUSH1 0x64 DUP3 ADD MSTORE PUSH1 0x84 ADD PUSH2 0x6DF JUMP JUMPDEST PUSH1 0xC SLOAD PUSH3 0x10000 SWAP1 DIV PUSH1 0xFF AND PUSH2 0x1C06 JUMPI PUSH1 0x5 SLOAD PUSH1 0x4 SLOAD PUSH2 0x1B19 SWAP2 SWAP1 PUSH2 0x2931 JUMP JUMPDEST PUSH1 0x9 SLOAD PUSH1 0x40 MLOAD PUSH4 0x70A08231 PUSH1 0xE0 SHL DUP2 MSTORE ADDRESS PUSH1 0x4 DUP3 ADD MSTORE PUSH1 0x1 PUSH1 0x48 SHL SWAP1 SWAP2 DIV PUSH1 0x1 PUSH1 0x1 PUSH1 0xA0 SHL SUB AND SWAP1 PUSH4 0x70A08231 SWAP1 PUSH1 0x24 ADD PUSH1 0x20 PUSH1 0x40 MLOAD DUP1 DUP4 SUB DUP2 DUP7 DUP1 EXTCODESIZE ISZERO DUP1 ISZERO PUSH2 0x1B62 JUMPI PUSH1 0x0 DUP1 REVERT JUMPDEST POP GAS STATICCALL ISZERO DUP1 ISZERO PUSH2 0x1B76 JUMPI RETURNDATASIZE PUSH1 0x0 DUP1 RETURNDATACOPY RETURNDATASIZE PUSH1 0x0 REVERT JUMPDEST POP POP POP POP PUSH1 0x40 MLOAD RETURNDATASIZE PUSH1 0x1F NOT PUSH1 0x1F DUP3 ADD AND DUP3 ADD DUP1 PUSH1 0x40 MSTORE POP DUP2 ADD SWAP1 PUSH2 0x1B9A SWAP2 SWAP1 PUSH2 0x270B JUMP JUMPDEST LT ISZERO PUSH2 0x1BF4 JUMPI PUSH1 0x40 MLOAD PUSH3 0x461BCD PUSH1 0xE5 SHL DUP2 MSTORE PUSH1 0x20 PUSH1 0x4 DUP3 ADD MSTORE PUSH1 0x23 PUSH1 0x24 DUP3 ADD MSTORE PUSH32 0x536565643A2073756666696369656E74207365656473206E6F742070726F7669 PUSH1 0x44 DUP3 ADD MSTORE PUSH3 0x191959 PUSH1 0xEA SHL PUSH1 0x64 DUP3 ADD MSTORE PUSH1 0x84 ADD PUSH2 0x6DF JUMP JUMPDEST PUSH1 0xC DUP1 SLOAD PUSH3 0xFF0000 NOT AND PUSH3 0x10000 OR SWAP1 SSTORE JUMPDEST PUSH1 0x6 SLOAD PUSH1 0x0 SWAP1 PUSH2 0x1C1E PUSH8 0xDE0B6B3A7640000 DUP7 PUSH2 0x2969 JUMP JUMPDEST PUSH2 0x1C28 SWAP2 SWAP1 PUSH2 0x2949 JUMP JUMPDEST PUSH1 0x13 SLOAD PUSH1 0xA SLOAD SWAP2 SWAP3 POP SWAP1 PUSH1 0x0 SWAP1 PUSH1 0x64 SWAP1 PUSH2 0x1C4C SWAP1 PUSH1 0x1 PUSH1 0xA0 SHL SWAP1 DIV PUSH1 0xFF AND DUP6 PUSH2 0x2969 JUMP JUMPDEST PUSH2 0x1C56 SWAP2 SWAP1 PUSH2 0x2949 JUMP JUMPDEST PUSH1 0x3 SLOAD SWAP1 SWAP2 POP PUSH2 0x1C66 DUP8 DUP5 PUSH2 0x2931 JUMP JUMPDEST GT ISZERO PUSH2 0x1CC7 JUMPI PUSH1 0x40 MLOAD PUSH3 0x461BCD PUSH1 0xE5 SHL DUP2 MSTORE PUSH1 0x20 PUSH1 0x4 DUP3 ADD MSTORE PUSH1 0x2A PUSH1 0x24 DUP3 ADD MSTORE PUSH32 0x536565643A20616D6F756E74206578636565647320636F6E7472616374207361 PUSH1 0x44 DUP3 ADD MSTORE PUSH10 0x6C65206861726443617 PUSH1 0xB4 SHL PUSH1 0x64 DUP3 ADD MSTORE PUSH1 0x84 ADD PUSH2 0x6DF JUMP JUMPDEST DUP3 PUSH1 0xF SLOAD LT ISZERO PUSH2 0x1D2B JUMPI PUSH1 0x40 MLOAD PUSH3 0x461BCD PUSH1 0xE5 SHL DUP2 MSTORE PUSH1 0x20 PUSH1 0x4 DUP3 ADD MSTORE PUSH1 0x29 PUSH1 0x24 DUP3 ADD MSTORE PUSH32 0x536565643A207365656420646973747269627574696F6E20776F756C64206265 PUSH1 0x44 DUP3 ADD MSTORE PUSH9 0x8195E18D959591959 PUSH1 0xBA SHL PUSH1 0x64 DUP3 ADD MSTORE PUSH1 0x84 ADD PUSH2 0x6DF JUMP JUMPDEST PUSH2 0x1D35 DUP7 DUP4 PUSH2 0x2931 JUMP JUMPDEST PUSH1 0x13 DUP2 SWAP1 SSTORE POP DUP3 PUSH1 0xF PUSH1 0x0 DUP3 DUP3 SLOAD PUSH2 0x1D4D SWAP2 SWAP1 PUSH2 0x2988 JUMP JUMPDEST SWAP3 POP POP DUP2 SWAP1 SSTORE POP DUP1 PUSH1 0x11 PUSH1 0x0 DUP3 DUP3 SLOAD PUSH2 0x1D66 SWAP2 SWAP1 PUSH2 0x2988 JUMP JUMPDEST SWAP1 SWAP2 SSTORE POP POP PUSH1 0xA SLOAD PUSH1 0x40 MLOAD PUSH4 0x23B872DD PUSH1 0xE0 SHL DUP2 MSTORE CALLER PUSH1 0x4 DUP3 ADD MSTORE ADDRESS PUSH1 0x24 DUP3 ADD MSTORE PUSH1 0x44 DUP2 ADD DUP9 SWAP1 MSTORE PUSH1 0x1 PUSH1 0x1 PUSH1 0xA0 SHL SUB SWAP1 SWAP2 AND SWAP1 PUSH4 0x23B872DD SWAP1 PUSH1 0x64 ADD PUSH1 0x20 PUSH1 0x40 MLOAD DUP1 DUP4 SUB DUP2 PUSH1 0x0 DUP8 DUP1 EXTCODESIZE ISZERO DUP1 ISZERO PUSH2 0x1DBD JUMPI PUSH1 0x0 DUP1 REVERT JUMPDEST POP GAS CALL ISZERO DUP1 ISZERO PUSH2 0x1DD1 JUMPI RETURNDATASIZE PUSH1 0x0 DUP1 RETURNDATACOPY RETURNDATASIZE PUSH1 0x0 REVERT JUMPDEST POP POP POP POP PUSH1 0x40 MLOAD RETURNDATASIZE PUSH1 0x1F NOT PUSH1 0x1F DUP3 ADD AND DUP3 ADD DUP1 PUSH1 0x40 MSTORE POP DUP2 ADD SWAP1 PUSH2 0x1DF5 SWAP2 SWAP1 PUSH2 0x264A JUMP JUMPDEST PUSH2 0x1E33 JUMPI PUSH1 0x40 MLOAD PUSH3 0x461BCD PUSH1 0xE5 SHL DUP2 MSTORE PUSH1 0x20 PUSH1 0x4 DUP3 ADD MSTORE PUSH1 0xF PUSH1 0x24 DUP3 ADD MSTORE PUSH15 0x536565643A206E6F20746F6B656E73 PUSH1 0x88 SHL PUSH1 0x44 DUP3 ADD MSTORE PUSH1 0x64 ADD PUSH2 0x6DF JUMP JUMPDEST PUSH1 0x2 SLOAD PUSH1 0x13 SLOAD LT PUSH2 0x1E54 JUMPI PUSH1 0xC DUP1 SLOAD PUSH5 0xFF00000000 NOT AND PUSH5 0x100000000 OR SWAP1 SSTORE JUMPDEST PUSH1 0x3 SLOAD PUSH1 0x13 SLOAD LT PUSH2 0x1E7F JUMPI PUSH1 0xC DUP1 SLOAD PUSH6 0xFF0000000000 NOT AND PUSH1 0x1 PUSH1 0x28 SHL OR SWAP1 SSTORE PUSH2 0x1E7B TIMESTAMP SWAP1 JUMP JUMPDEST PUSH1 0xD SSTORE JUMPDEST CALLER PUSH1 0x0 DUP2 DUP2 MSTORE PUSH1 0x16 PUSH1 0x20 MSTORE PUSH1 0x40 SWAP1 KECCAK256 SLOAD PUSH2 0x1EFA SWAP2 SWAP1 PUSH2 0x1E9F SWAP1 DUP7 SWAP1 PUSH2 0x2931 JUMP JUMPDEST CALLER PUSH1 0x0 SWAP1 DUP2 MSTORE PUSH1 0x16 PUSH1 0x20 MSTORE PUSH1 0x40 SWAP1 KECCAK256 PUSH1 0x2 ADD SLOAD PUSH2 0x1EBD SWAP1 DUP11 SWAP1 PUSH2 0x2931 JUMP JUMPDEST CALLER PUSH1 0x0 SWAP1 DUP2 MSTORE PUSH1 0x16 PUSH1 0x20 MSTORE PUSH1 0x40 SWAP1 KECCAK256 PUSH1 0x1 DUP2 ADD SLOAD PUSH1 0x3 SWAP1 SWAP2 ADD SLOAD PUSH2 0x1EE2 SWAP1 DUP8 SWAP1 PUSH2 0x2931 JUMP JUMPDEST CALLER PUSH1 0x0 SWAP1 DUP2 MSTORE PUSH1 0x16 PUSH1 0x20 MSTORE PUSH1 0x40 SWAP1 KECCAK256 PUSH1 0x4 ADD SLOAD PUSH2 0x2256 JUMP JUMPDEST PUSH1 0x40 MLOAD DUP4 DUP2 MSTORE CALLER SWAP1 PUSH32 0xCF5EF2B227E797B567F0DF4C49CC8B6207CFB60054EB899E5608DE08E5DCB1EF SWAP1 PUSH1 0x20 ADD PUSH1 0x40 MLOAD DUP1 SWAP2 SUB SWAP1 LOG2 SWAP2 SWAP4 POP SWAP1 SWAP2 POP POP SWAP2 POP SWAP2 JUMP JUMPDEST PUSH1 0x1 PUSH1 0x1 PUSH1 0xA0 SHL SUB DUP2 AND PUSH1 0x0 SWAP1 DUP2 MSTORE PUSH1 0x16 PUSH1 0x20 SWAP1 DUP2 MSTORE PUSH1 0x40 DUP1 DUP4 KECCAK256 DUP2 MLOAD PUSH1 0xA0 DUP2 ADD DUP4 MSTORE DUP2 SLOAD DUP2 MSTORE PUSH1 0x1 DUP3 ADD SLOAD SWAP4 DUP2 ADD SWAP4 SWAP1 SWAP4 MSTORE PUSH1 0x2 DUP2 ADD SLOAD SWAP2 DUP4 ADD SWAP2 SWAP1 SWAP2 MSTORE PUSH1 0x3 DUP2 ADD SLOAD PUSH1 0x60 DUP4 ADD MSTORE PUSH1 0x4 ADD SLOAD PUSH1 0x80 DUP3 ADD MSTORE PUSH1 0xD SLOAD TIMESTAMP LT ISZERO PUSH2 0x1FA0 JUMPI POP PUSH1 0x0 SWAP3 SWAP2 POP POP JUMP JUMPDEST PUSH1 0x0 PUSH1 0xD SLOAD PUSH2 0x1FAC TIMESTAMP SWAP1 JUMP JUMPDEST PUSH2 0x1FB6 SWAP2 SWAP1 PUSH2 0x2988 JUMP JUMPDEST PUSH1 0x9 SLOAD SWAP1 SWAP2 POP PUSH1 0x1 PUSH1 0x28 SHL SWAP1 DIV PUSH4 0xFFFFFFFF AND DUP2 LT ISZERO PUSH2 0x1FDA JUMPI POP PUSH1 0x0 SWAP4 SWAP3 POP POP POP JUMP JUMPDEST PUSH1 0x9 SLOAD PUSH2 0x100 SWAP1 DIV PUSH4 0xFFFFFFFF AND DUP2 LT PUSH2 0x2007 JUMPI PUSH1 0x20 DUP3 ADD MLOAD DUP3 MLOAD PUSH2 0x1FFF SWAP2 SWAP1 PUSH2 0x2988 JUMP JUMPDEST SWAP5 SWAP4 POP POP POP POP JUMP JUMPDEST PUSH1 0x9 SLOAD DUP3 MLOAD PUSH1 0x0 SWAP2 PUSH2 0x100 SWAP1 DIV PUSH4 0xFFFFFFFF AND SWAP1 PUSH2 0x2025 SWAP1 DUP5 PUSH2 0x2969 JUMP JUMPDEST PUSH2 0x202F SWAP2 SWAP1 PUSH2 0x2949 JUMP JUMPDEST SWAP1 POP DUP3 PUSH1 0x20 ADD MLOAD DUP2 PUSH2 0x2041 SWAP2 SWAP1 PUSH2 0x2988 JUMP JUMPDEST SWAP6 SWAP5 POP POP POP POP POP JUMP JUMPDEST PUSH1 0x1 SLOAD PUSH1 0x1 PUSH1 0x1 PUSH1 0xA0 SHL SUB AND CALLER EQ PUSH2 0x2074 JUMPI PUSH1 0x40 MLOAD PUSH3 0x461BCD PUSH1 0xE5 SHL DUP2 MSTORE PUSH1 0x4 ADD PUSH2 0x6DF SWAP1 PUSH2 0x2772 JUMP JUMPDEST PUSH1 0xC SLOAD PUSH1 0xFF AND ISZERO PUSH2 0x2097 JUMPI PUSH1 0x40 MLOAD PUSH3 0x461BCD PUSH1 0xE5 SHL DUP2 MSTORE PUSH1 0x4 ADD PUSH2 0x6DF SWAP1 PUSH2 0x27A9 JUMP JUMPDEST PUSH1 0xC SLOAD PUSH2 0x100 SWAP1 DIV PUSH1 0xFF AND ISZERO PUSH2 0x20BF JUMPI PUSH1 0x40 MLOAD PUSH3 0x461BCD PUSH1 0xE5 SHL DUP2 MSTORE PUSH1 0x4 ADD PUSH2 0x6DF SWAP1 PUSH2 0x282A JUMP JUMPDEST PUSH1 0x9 SLOAD PUSH1 0xFF AND ISZERO ISZERO PUSH1 0x1 EQ PUSH2 0x20E6 JUMPI PUSH1 0x40 MLOAD PUSH3 0x461BCD PUSH1 0xE5 SHL DUP2 MSTORE PUSH1 0x4 ADD PUSH2 0x6DF SWAP1 PUSH2 0x2861 JUMP JUMPDEST PUSH1 0x0 JUMPDEST DUP2 MLOAD DUP2 LT ISZERO PUSH2 0x7D7 JUMPI PUSH1 0x1 PUSH1 0x15 PUSH1 0x0 DUP5 DUP5 DUP2 MLOAD DUP2 LT PUSH2 0x2118 JUMPI PUSH4 0x4E487B71 PUSH1 0xE0 SHL PUSH1 0x0 MSTORE PUSH1 0x32 PUSH1 0x4 MSTORE PUSH1 0x24 PUSH1 0x0 REVERT JUMPDEST PUSH1 0x20 SWAP1 DUP2 MUL SWAP2 SWAP1 SWAP2 ADD DUP2 ADD MLOAD PUSH1 0x1 PUSH1 0x1 PUSH1 0xA0 SHL SUB AND DUP3 MSTORE DUP2 ADD SWAP2 SWAP1 SWAP2 MSTORE PUSH1 0x40 ADD PUSH1 0x0 KECCAK256 DUP1 SLOAD PUSH1 0xFF NOT AND SWAP2 ISZERO ISZERO SWAP2 SWAP1 SWAP2 OR SWAP1 SSTORE DUP1 PUSH2 0x2154 DUP2 PUSH2 0x2A0A JUMP JUMPDEST SWAP2 POP POP PUSH2 0x20E9 JUMP JUMPDEST PUSH1 0xC SLOAD PUSH4 0x1000000 SWAP1 DIV PUSH1 0xFF AND ISZERO ISZERO PUSH1 0x1 EQ ISZERO DUP1 PUSH2 0x2184 JUMPI POP PUSH1 0x1 SLOAD PUSH1 0x1 PUSH1 0x1 PUSH1 0xA0 SHL SUB AND CALLER EQ JUMPDEST PUSH2 0x2201 JUMPI PUSH1 0x40 MLOAD PUSH3 0x461BCD PUSH1 0xE5 SHL DUP2 MSTORE PUSH1 0x20 PUSH1 0x4 DUP3 ADD MSTORE PUSH1 0x42 PUSH1 0x24 DUP3 ADD MSTORE PUSH32 0x536565643A20636F6E74726163742073686F756C64206E6F7420626520696E69 PUSH1 0x44 DUP3 ADD MSTORE PUSH32 0x7469616C697A6564206F722063616C6C65722073686F756C642062652061646D PUSH1 0x64 DUP3 ADD MSTORE PUSH2 0x34B7 PUSH1 0xF1 SHL PUSH1 0x84 DUP3 ADD MSTORE PUSH1 0xA4 ADD PUSH2 0x6DF JUMP JUMPDEST DUP1 MLOAD PUSH2 0x2214 SWAP1 PUSH1 0xB SWAP1 PUSH1 0x20 DUP5 ADD SWAP1 PUSH2 0x232D JUMP JUMPDEST POP DUP1 PUSH1 0x40 MLOAD PUSH2 0x2223 SWAP2 SWAP1 PUSH2 0x2723 JUMP JUMPDEST PUSH1 0x40 MLOAD SWAP1 DUP2 SWAP1 SUB DUP2 KECCAK256 SWAP1 PUSH32 0x9F579B21815D3F81581D32E97736CCBA1CC89D1918E48DA28E6E206ACD96864 SWAP1 PUSH1 0x0 SWAP1 LOG2 POP JUMP JUMPDEST PUSH1 0x9 SLOAD PUSH2 0x100 SWAP1 DIV PUSH4 0xFFFFFFFF AND DUP6 LT ISZERO PUSH2 0x22B3 JUMPI PUSH1 0x40 MLOAD PUSH3 0x461BCD PUSH1 0xE5 SHL DUP2 MSTORE PUSH1 0x20 PUSH1 0x4 DUP3 ADD MSTORE PUSH1 0x1F PUSH1 0x24 DUP3 ADD MSTORE PUSH32 0x536565643A20616D6F756E745665737465645065725365636F6E64203E203000 PUSH1 0x44 DUP3 ADD MSTORE PUSH1 0x64 ADD PUSH2 0x6DF JUMP JUMPDEST PUSH1 0x40 DUP1 MLOAD PUSH1 0xA0 DUP2 ADD DUP3 MSTORE DUP7 DUP2 MSTORE PUSH1 0x20 DUP1 DUP3 ADD DUP7 DUP2 MSTORE DUP3 DUP5 ADD DUP9 DUP2 MSTORE PUSH1 0x60 DUP5 ADD DUP8 DUP2 MSTORE PUSH1 0x80 DUP6 ADD DUP8 DUP2 MSTORE PUSH1 0x1 PUSH1 0x1 PUSH1 0xA0 SHL SUB DUP14 AND PUSH1 0x0 SWAP1 DUP2 MSTORE PUSH1 0x16 SWAP1 SWAP6 MSTORE SWAP6 DUP5 KECCAK256 SWAP5 MLOAD DUP6 SSTORE SWAP2 MLOAD PUSH1 0x1 DUP6 ADD SSTORE MLOAD PUSH1 0x2 DUP5 ADD SSTORE MLOAD PUSH1 0x3 DUP4 ADD SSTORE SWAP2 MLOAD PUSH1 0x4 SWAP1 SWAP2 ADD SSTORE PUSH1 0xE DUP1 SLOAD SWAP2 PUSH2 0x2320 DUP4 PUSH2 0x2A0A JUMP JUMPDEST SWAP2 SWAP1 POP SSTORE POP POP POP POP POP POP POP JUMP JUMPDEST DUP3 DUP1 SLOAD PUSH2 0x2339 SWAP1 PUSH2 0x29CF JUMP JUMPDEST SWAP1 PUSH1 0x0 MSTORE PUSH1 0x20 PUSH1 0x0 KECCAK256 SWAP1 PUSH1 0x1F ADD PUSH1 0x20 SWAP1 DIV DUP2 ADD SWAP3 DUP3 PUSH2 0x235B JUMPI PUSH1 0x0 DUP6 SSTORE PUSH2 0x23A1 JUMP JUMPDEST DUP3 PUSH1 0x1F LT PUSH2 0x2374 JUMPI DUP1 MLOAD PUSH1 0xFF NOT AND DUP4 DUP1 ADD OR DUP6 SSTORE PUSH2 0x23A1 JUMP JUMPDEST DUP3 DUP1 ADD PUSH1 0x1 ADD DUP6 SSTORE DUP3 ISZERO PUSH2 0x23A1 JUMPI SWAP2 DUP3 ADD JUMPDEST DUP3 DUP2 GT ISZERO PUSH2 0x23A1 JUMPI DUP3 MLOAD DUP3 SSTORE SWAP2 PUSH1 0x20 ADD SWAP2 SWAP1 PUSH1 0x1 ADD SWAP1 PUSH2 0x2386 JUMP JUMPDEST POP PUSH2 0x23AD SWAP3 SWAP2 POP PUSH2 0x23B1 JUMP JUMPDEST POP SWAP1 JUMP JUMPDEST JUMPDEST DUP1 DUP3 GT ISZERO PUSH2 0x23AD JUMPI PUSH1 0x0 DUP2 SSTORE PUSH1 0x1 ADD PUSH2 0x23B2 JUMP JUMPDEST DUP1 CALLDATALOAD PUSH1 0x1 PUSH1 0x1 PUSH1 0xA0 SHL SUB DUP2 AND DUP2 EQ PUSH2 0x23DD JUMPI PUSH1 0x0 DUP1 REVERT JUMPDEST SWAP2 SWAP1 POP JUMP JUMPDEST PUSH1 0x0 DUP3 PUSH1 0x1F DUP4 ADD SLT PUSH2 0x23F2 JUMPI DUP1 DUP2 REVERT JUMPDEST DUP2 CALLDATALOAD PUSH1 0x20 PUSH2 0x2407 PUSH2 0x2402 DUP4 PUSH2 0x290D JUMP JUMPDEST PUSH2 0x28DC JUMP JUMPDEST DUP1 DUP4 DUP3 MSTORE DUP3 DUP3 ADD SWAP2 POP DUP3 DUP7 ADD DUP8 DUP5 DUP7 PUSH1 0x5 SHL DUP10 ADD ADD GT ISZERO PUSH2 0x2426 JUMPI DUP6 DUP7 REVERT JUMPDEST DUP6 JUMPDEST DUP6 DUP2 LT ISZERO PUSH2 0x244B JUMPI PUSH2 0x2439 DUP3 PUSH2 0x23C6 JUMP JUMPDEST DUP5 MSTORE SWAP3 DUP5 ADD SWAP3 SWAP1 DUP5 ADD SWAP1 PUSH1 0x1 ADD PUSH2 0x2428 JUMP JUMPDEST POP SWAP1 SWAP8 SWAP7 POP POP POP POP POP POP POP JUMP JUMPDEST PUSH1 0x0 DUP3 PUSH1 0x1F DUP4 ADD SLT PUSH2 0x2468 JUMPI DUP1 DUP2 REVERT JUMPDEST DUP2 CALLDATALOAD PUSH1 0x20 PUSH2 0x2478 PUSH2 0x2402 DUP4 PUSH2 0x290D JUMP JUMPDEST DUP1 DUP4 DUP3 MSTORE DUP3 DUP3 ADD SWAP2 POP DUP3 DUP7 ADD DUP8 DUP5 DUP7 PUSH1 0x5 SHL DUP10 ADD ADD GT ISZERO PUSH2 0x2497 JUMPI DUP6 DUP7 REVERT JUMPDEST DUP6 JUMPDEST DUP6 DUP2 LT ISZERO PUSH2 0x244B JUMPI DUP2 CALLDATALOAD DUP5 MSTORE SWAP3 DUP5 ADD SWAP3 SWAP1 DUP5 ADD SWAP1 PUSH1 0x1 ADD PUSH2 0x2499 JUMP JUMPDEST DUP1 CALLDATALOAD PUSH2 0x23DD DUP2 PUSH2 0x2A51 JUMP JUMPDEST DUP1 CALLDATALOAD PUSH4 0xFFFFFFFF DUP2 AND DUP2 EQ PUSH2 0x23DD JUMPI PUSH1 0x0 DUP1 REVERT JUMPDEST DUP1 CALLDATALOAD PUSH1 0xFF DUP2 AND DUP2 EQ PUSH2 0x23DD JUMPI PUSH1 0x0 DUP1 REVERT JUMPDEST PUSH1 0x0 PUSH1 0x20 DUP3 DUP5 SUB SLT ISZERO PUSH2 0x24F6 JUMPI DUP1 DUP2 REVERT JUMPDEST PUSH2 0x24FF DUP3 PUSH2 0x23C6 JUMP JUMPDEST SWAP4 SWAP3 POP POP POP JUMP JUMPDEST PUSH1 0x0 DUP1 PUSH1 0x0 DUP1 PUSH1 0x0 DUP1 PUSH1 0x0 DUP1 PUSH1 0x0 DUP1 PUSH1 0x0 PUSH2 0x160 DUP13 DUP15 SUB SLT ISZERO PUSH2 0x2527 JUMPI DUP7 DUP8 REVERT JUMPDEST PUSH2 0x2530 DUP13 PUSH2 0x23C6 JUMP JUMPDEST SWAP11 POP PUSH2 0x253E PUSH1 0x20 DUP14 ADD PUSH2 0x23C6 JUMP JUMPDEST SWAP10 POP PUSH8 0xFFFFFFFFFFFFFFFF DUP1 PUSH1 0x40 DUP15 ADD CALLDATALOAD GT ISZERO PUSH2 0x2559 JUMPI DUP8 DUP9 REVERT JUMPDEST PUSH2 0x2569 DUP15 PUSH1 0x40 DUP16 ADD CALLDATALOAD DUP16 ADD PUSH2 0x23E2 JUMP JUMPDEST SWAP10 POP DUP1 PUSH1 0x60 DUP15 ADD CALLDATALOAD GT ISZERO PUSH2 0x257B JUMPI DUP8 DUP9 REVERT JUMPDEST POP PUSH2 0x258C DUP14 PUSH1 0x60 DUP15 ADD CALLDATALOAD DUP15 ADD PUSH2 0x2458 JUMP JUMPDEST SWAP8 POP PUSH1 0x80 DUP13 ADD CALLDATALOAD SWAP7 POP PUSH1 0xA0 DUP13 ADD CALLDATALOAD SWAP6 POP PUSH1 0xC0 DUP13 ADD CALLDATALOAD SWAP5 POP PUSH2 0x25AF PUSH1 0xE0 DUP14 ADD PUSH2 0x24C0 JUMP JUMPDEST SWAP4 POP PUSH2 0x25BE PUSH2 0x100 DUP14 ADD PUSH2 0x24C0 JUMP JUMPDEST SWAP3 POP PUSH2 0x25CD PUSH2 0x120 DUP14 ADD PUSH2 0x24B5 JUMP JUMPDEST SWAP2 POP PUSH2 0x25DC PUSH2 0x140 DUP14 ADD PUSH2 0x24D4 JUMP JUMPDEST SWAP1 POP SWAP3 SWAP6 SWAP9 SWAP12 POP SWAP3 SWAP6 SWAP9 SWAP12 SWAP1 SWAP4 SWAP7 SWAP10 POP JUMP JUMPDEST PUSH1 0x0 DUP1 PUSH1 0x40 DUP4 DUP6 SUB SLT ISZERO PUSH2 0x2600 JUMPI DUP2 DUP3 REVERT JUMPDEST PUSH2 0x2609 DUP4 PUSH2 0x23C6 JUMP JUMPDEST SWAP5 PUSH1 0x20 SWAP4 SWAP1 SWAP4 ADD CALLDATALOAD SWAP4 POP POP POP JUMP JUMPDEST PUSH1 0x0 PUSH1 0x20 DUP3 DUP5 SUB SLT ISZERO PUSH2 0x2628 JUMPI DUP1 DUP2 REVERT JUMPDEST DUP2 CALLDATALOAD PUSH8 0xFFFFFFFFFFFFFFFF DUP2 GT ISZERO PUSH2 0x263E JUMPI DUP2 DUP3 REVERT JUMPDEST PUSH2 0x1FFF DUP5 DUP3 DUP6 ADD PUSH2 0x23E2 JUMP JUMPDEST PUSH1 0x0 PUSH1 0x20 DUP3 DUP5 SUB SLT ISZERO PUSH2 0x265B JUMPI DUP1 DUP2 REVERT JUMPDEST DUP2 MLOAD PUSH2 0x24FF DUP2 PUSH2 0x2A51 JUMP JUMPDEST PUSH1 0x0 PUSH1 0x20 DUP1 DUP4 DUP6 SUB SLT ISZERO PUSH2 0x2678 JUMPI DUP2 DUP3 REVERT JUMPDEST DUP3 CALLDATALOAD PUSH8 0xFFFFFFFFFFFFFFFF DUP1 DUP3 GT ISZERO PUSH2 0x268F JUMPI DUP4 DUP5 REVERT JUMPDEST DUP2 DUP6 ADD SWAP2 POP DUP6 PUSH1 0x1F DUP4 ADD SLT PUSH2 0x26A2 JUMPI DUP4 DUP5 REVERT JUMPDEST DUP2 CALLDATALOAD DUP2 DUP2 GT ISZERO PUSH2 0x26B4 JUMPI PUSH2 0x26B4 PUSH2 0x2A3B JUMP JUMPDEST PUSH2 0x26C6 PUSH1 0x1F DUP3 ADD PUSH1 0x1F NOT AND DUP6 ADD PUSH2 0x28DC JUMP JUMPDEST SWAP2 POP DUP1 DUP3 MSTORE DUP7 DUP5 DUP3 DUP6 ADD ADD GT ISZERO PUSH2 0x26DB JUMPI DUP5 DUP6 REVERT JUMPDEST DUP1 DUP5 DUP5 ADD DUP6 DUP5 ADD CALLDATACOPY DUP2 ADD SWAP1 SWAP3 ADD SWAP3 SWAP1 SWAP3 MSTORE SWAP4 SWAP3 POP POP POP JUMP JUMPDEST PUSH1 0x0 PUSH1 0x20 DUP3 DUP5 SUB SLT ISZERO PUSH2 0x2704 JUMPI DUP1 DUP2 REVERT JUMPDEST POP CALLDATALOAD SWAP2 SWAP1 POP JUMP JUMPDEST PUSH1 0x0 PUSH1 0x20 DUP3 DUP5 SUB SLT ISZERO PUSH2 0x271C JUMPI DUP1 DUP2 REVERT JUMPDEST POP MLOAD SWAP2 SWAP1 POP JUMP JUMPDEST PUSH1 0x0 DUP3 MLOAD PUSH2 0x2735 DUP2 DUP5 PUSH1 0x20 DUP8 ADD PUSH2 0x299F JUMP JUMPDEST SWAP2 SWAP1 SWAP2 ADD SWAP3 SWAP2 POP POP JUMP JUMPDEST PUSH1 0x20 DUP2 MSTORE PUSH1 0x0 DUP3 MLOAD DUP1 PUSH1 0x20 DUP5 ADD MSTORE PUSH2 0x275E DUP2 PUSH1 0x40 DUP6 ADD PUSH1 0x20 DUP8 ADD PUSH2 0x299F JUMP JUMPDEST PUSH1 0x1F ADD PUSH1 0x1F NOT AND SWAP2 SWAP1 SWAP2 ADD PUSH1 0x40 ADD SWAP3 SWAP2 POP POP JUMP JUMPDEST PUSH1 0x20 DUP1 DUP3 MSTORE PUSH1 0x1C SWAP1 DUP3 ADD MSTORE PUSH32 0x536565643A2063616C6C65722073686F756C642062652061646D696E00000000 PUSH1 0x40 DUP3 ADD MSTORE PUSH1 0x60 ADD SWAP1 JUMP JUMPDEST PUSH1 0x20 DUP1 DUP3 MSTORE PUSH1 0x1A SWAP1 DUP3 ADD MSTORE PUSH32 0x536565643A2073686F756C64206E6F7420626520636C6F736564000000000000 PUSH1 0x40 DUP3 ADD MSTORE PUSH1 0x60 ADD SWAP1 JUMP JUMPDEST PUSH1 0x20 DUP1 DUP3 MSTORE PUSH1 0x2A SWAP1 DUP3 ADD MSTORE PUSH32 0x536565643A2073686F756C64207472616E73666572207365656420746F6B656E PUSH1 0x40 DUP3 ADD MSTORE PUSH10 0x39903A379030B236B4B7 PUSH1 0xB1 SHL PUSH1 0x60 DUP3 ADD MSTORE PUSH1 0x80 ADD SWAP1 JUMP JUMPDEST PUSH1 0x20 DUP1 DUP3 MSTORE PUSH1 0x1A SWAP1 DUP3 ADD MSTORE PUSH32 0x536565643A2073686F756C64206E6F7420626520706175736564000000000000 PUSH1 0x40 DUP3 ADD MSTORE PUSH1 0x60 ADD SWAP1 JUMP JUMPDEST PUSH1 0x20 DUP1 DUP3 MSTORE PUSH1 0x1F SWAP1 DUP3 ADD MSTORE PUSH32 0x536565643A206D6F64756C65206973206E6F742077686974656C697374656400 PUSH1 0x40 DUP3 ADD MSTORE PUSH1 0x60 ADD SWAP1 JUMP JUMPDEST PUSH1 0x20 DUP1 DUP3 MSTORE PUSH1 0x24 SWAP1 DUP3 ADD MSTORE PUSH32 0x536565643A206D696E696D756D2066756E64696E6720616D6F756E74206E6F74 PUSH1 0x40 DUP3 ADD MSTORE PUSH4 0x81B595D PUSH1 0xE2 SHL PUSH1 0x60 DUP3 ADD MSTORE PUSH1 0x80 ADD SWAP1 JUMP JUMPDEST PUSH1 0x40 MLOAD PUSH1 0x1F DUP3 ADD PUSH1 0x1F NOT AND DUP2 ADD PUSH8 0xFFFFFFFFFFFFFFFF DUP2 GT DUP3 DUP3 LT OR ISZERO PUSH2 0x2905 JUMPI PUSH2 0x2905 PUSH2 0x2A3B JUMP JUMPDEST PUSH1 0x40 MSTORE SWAP2 SWAP1 POP JUMP JUMPDEST PUSH1 0x0 PUSH8 0xFFFFFFFFFFFFFFFF DUP3 GT ISZERO PUSH2 0x2927 JUMPI PUSH2 0x2927 PUSH2 0x2A3B JUMP JUMPDEST POP PUSH1 0x5 SHL PUSH1 0x20 ADD SWAP1 JUMP JUMPDEST PUSH1 0x0 DUP3 NOT DUP3 GT ISZERO PUSH2 0x2944 JUMPI PUSH2 0x2944 PUSH2 0x2A25 JUMP JUMPDEST POP ADD SWAP1 JUMP JUMPDEST PUSH1 0x0 DUP3 PUSH2 0x2964 JUMPI PUSH4 0x4E487B71 PUSH1 0xE0 SHL DUP2 MSTORE PUSH1 0x12 PUSH1 0x4 MSTORE PUSH1 0x24 DUP2 REVERT JUMPDEST POP DIV SWAP1 JUMP JUMPDEST PUSH1 0x0 DUP2 PUSH1 0x0 NOT DIV DUP4 GT DUP3 ISZERO ISZERO AND ISZERO PUSH2 0x2983 JUMPI PUSH2 0x2983 PUSH2 0x2A25 JUMP JUMPDEST POP MUL SWAP1 JUMP JUMPDEST PUSH1 0x0 DUP3 DUP3 LT ISZERO PUSH2 0x299A JUMPI PUSH2 0x299A PUSH2 0x2A25 JUMP JUMPDEST POP SUB SWAP1 JUMP JUMPDEST PUSH1 0x0 JUMPDEST DUP4 DUP2 LT ISZERO PUSH2 0x29BA JUMPI DUP2 DUP2 ADD MLOAD DUP4 DUP3 ADD MSTORE PUSH1 0x20 ADD PUSH2 0x29A2 JUMP JUMPDEST DUP4 DUP2 GT ISZERO PUSH2 0x29C9 JUMPI PUSH1 0x0 DUP5 DUP5 ADD MSTORE JUMPDEST POP POP POP POP JUMP JUMPDEST PUSH1 0x1 DUP2 DUP2 SHR SWAP1 DUP3 AND DUP1 PUSH2 0x29E3 JUMPI PUSH1 0x7F DUP3 AND SWAP2 POP JUMPDEST PUSH1 0x20 DUP3 LT DUP2 EQ ISZERO PUSH2 0x2A04 JUMPI PUSH4 0x4E487B71 PUSH1 0xE0 SHL PUSH1 0x0 MSTORE PUSH1 0x22 PUSH1 0x4 MSTORE PUSH1 0x24 PUSH1 0x0 REVERT JUMPDEST POP SWAP2 SWAP1 POP JUMP JUMPDEST PUSH1 0x0 PUSH1 0x0 NOT DUP3 EQ ISZERO PUSH2 0x2A1E JUMPI PUSH2 0x2A1E PUSH2 0x2A25 JUMP JUMPDEST POP PUSH1 0x1 ADD SWAP1 JUMP JUMPDEST PUSH4 0x4E487B71 PUSH1 0xE0 SHL PUSH1 0x0 MSTORE PUSH1 0x11 PUSH1 0x4 MSTORE PUSH1 0x24 PUSH1 0x0 REVERT JUMPDEST PUSH4 0x4E487B71 PUSH1 0xE0 SHL PUSH1 0x0 MSTORE PUSH1 0x41 PUSH1 0x4 MSTORE PUSH1 0x24 PUSH1 0x0 REVERT JUMPDEST DUP1 ISZERO ISZERO DUP2 EQ PUSH2 0x2A5F JUMPI PUSH1 0x0 DUP1 REVERT JUMPDEST POP JUMP INVALID LOG2 PUSH5 0x6970667358 0x22 SLT KECCAK256 SHR DUP11 SHL DUP2 SUB 0xD0 PUSH9 0xFDEE8ABB5A994A62C1 0xE3 SAR 0xDD 0xD9 0xF8 0x28 SLOAD 0xDB PUSH27 0xF6A1CD4415A7AE64736F6C63430008040033000000000000000000 "
        },
        "gasEstimates": {
          "creation": {
            "codeDepositCost": "2180800",
            "executionCost": "2324",
            "totalCost": "2183124"
          },
          "external": {
            "admin()": "1147",
            "beneficiary()": "1171",
            "buy(uint256)": "infinite",
            "calculateClaim(address)": "infinite",
            "checkWhitelisted(address)": "1317",
            "claim(address,uint256)": "infinite",
            "close()": "infinite",
            "closed()": "1166",
            "endTime()": "1107",
            "fee()": "1141",
            "feeAmountRequired()": "1150",
            "feeClaimed()": "1084",
            "feeRemainder()": "1128",
            "funders(address)": "4599",
            "fundingCollected()": "1041",
            "fundingToken()": "1148",
            "fundingWithdrawn()": "1041",
            "hardCap()": "1127",
            "initialize(address,address,address[],uint256[],uint256,uint256,uint256,uint32,uint32,bool,uint8)": "infinite",
            "initialized()": "1156",
            "isFunded()": "1176",
            "maximumReached()": "1118",
            "metadata()": "infinite",
            "minimumReached()": "1154",
            "pause()": "23539",
            "paused()": "1066",
            "permissionedSeed()": "1078",
            "price()": "1062",
            "retrieveFundingTokens()": "infinite",
            "seedAmountRequired()": "1150",
            "seedClaimed()": "1129",
            "seedRemainder()": "1064",
            "seedToken()": "1144",
            "softCap()": "1107",
            "startTime()": "1128",
            "totalFunderCount()": "1062",
            "unpause()": "23579",
            "unwhitelist(address)": "24676",
            "updateMetadata(bytes)": "infinite",
            "vestingCliff()": "1118",
            "vestingDuration()": "1137",
            "vestingStartTime()": "1084",
            "whitelist(address)": "24593",
            "whitelistBatch(address[])": "infinite",
            "whitelisted(address)": "1298",
            "withdraw()": "infinite"
          },
          "internal": {
            "_addFunder(address,uint256,uint256,uint256,uint256,uint256)": "infinite",
            "_currentTime()": "infinite"
          }
        },
        "methodIdentifiers": {
          "admin()": "f851a440",
          "beneficiary()": "38af3eed",
          "buy(uint256)": "d96a094a",
          "calculateClaim(address)": "ea345540",
          "checkWhitelisted(address)": "20d8dad0",
          "claim(address,uint256)": "aad3ec96",
          "close()": "43d726d6",
          "closed()": "597e1fb5",
          "endTime()": "3197cbb6",
          "fee()": "ddca3f43",
          "feeAmountRequired()": "e6e36ebb",
          "feeClaimed()": "71f4b8e8",
          "feeRemainder()": "b774682f",
          "funders(address)": "031b3677",
          "fundingCollected()": "1cfe562e",
          "fundingToken()": "78065f27",
          "fundingWithdrawn()": "83d59e00",
          "hardCap()": "fb86a404",
          "initialize(address,address,address[],uint256[],uint256,uint256,uint256,uint32,uint32,bool,uint8)": "d8039364",
          "initialized()": "158ef93e",
          "isFunded()": "7c654303",
          "maximumReached()": "117a36d1",
          "metadata()": "392f37e9",
          "minimumReached()": "e565eb4c",
          "pause()": "8456cb59",
          "paused()": "5c975abb",
          "permissionedSeed()": "3dba9e41",
          "price()": "a035b1fe",
          "retrieveFundingTokens()": "8a2448aa",
          "seedAmountRequired()": "bc0f5f84",
          "seedClaimed()": "47d02f1b",
          "seedRemainder()": "0826d2c7",
          "seedToken()": "311f8483",
          "softCap()": "906a26e0",
          "startTime()": "78e97925",
          "totalFunderCount()": "5e9777e8",
          "unpause()": "3f4ba83a",
          "unwhitelist(address)": "9a590427",
          "updateMetadata(bytes)": "fc582d41",
          "vestingCliff()": "f3640e74",
          "vestingDuration()": "1514617e",
          "vestingStartTime()": "a8660a78",
          "whitelist(address)": "9b19251a",
          "whitelistBatch(address[])": "eaa53523",
          "whitelisted(address)": "d936547e",
          "withdraw()": "3ccfd60b"
        }
      },
      "storageLayout": {
        "storage": [
          {
            "astId": 5,
            "contract": "contracts/seed/Seed.sol:Seed",
            "label": "beneficiary",
            "offset": 0,
            "slot": "0",
            "type": "t_address"
          },
          {
            "astId": 7,
            "contract": "contracts/seed/Seed.sol:Seed",
            "label": "admin",
            "offset": 0,
            "slot": "1",
            "type": "t_address"
          },
          {
            "astId": 9,
            "contract": "contracts/seed/Seed.sol:Seed",
            "label": "softCap",
            "offset": 0,
            "slot": "2",
            "type": "t_uint256"
          },
          {
            "astId": 11,
            "contract": "contracts/seed/Seed.sol:Seed",
            "label": "hardCap",
            "offset": 0,
            "slot": "3",
            "type": "t_uint256"
          },
          {
            "astId": 13,
            "contract": "contracts/seed/Seed.sol:Seed",
            "label": "seedAmountRequired",
            "offset": 0,
            "slot": "4",
            "type": "t_uint256"
          },
          {
            "astId": 15,
            "contract": "contracts/seed/Seed.sol:Seed",
            "label": "feeAmountRequired",
            "offset": 0,
            "slot": "5",
            "type": "t_uint256"
          },
          {
            "astId": 17,
            "contract": "contracts/seed/Seed.sol:Seed",
            "label": "price",
            "offset": 0,
            "slot": "6",
            "type": "t_uint256"
          },
          {
            "astId": 19,
            "contract": "contracts/seed/Seed.sol:Seed",
            "label": "startTime",
            "offset": 0,
            "slot": "7",
            "type": "t_uint256"
          },
          {
            "astId": 21,
            "contract": "contracts/seed/Seed.sol:Seed",
            "label": "endTime",
            "offset": 0,
            "slot": "8",
            "type": "t_uint256"
          },
          {
            "astId": 23,
            "contract": "contracts/seed/Seed.sol:Seed",
            "label": "permissionedSeed",
            "offset": 0,
            "slot": "9",
            "type": "t_bool"
          },
          {
            "astId": 25,
            "contract": "contracts/seed/Seed.sol:Seed",
            "label": "vestingDuration",
            "offset": 1,
            "slot": "9",
            "type": "t_uint32"
          },
          {
            "astId": 27,
            "contract": "contracts/seed/Seed.sol:Seed",
            "label": "vestingCliff",
            "offset": 5,
            "slot": "9",
            "type": "t_uint32"
          },
          {
            "astId": 30,
            "contract": "contracts/seed/Seed.sol:Seed",
            "label": "seedToken",
            "offset": 9,
            "slot": "9",
            "type": "t_contract(IERC20)1519"
          },
          {
            "astId": 33,
            "contract": "contracts/seed/Seed.sol:Seed",
            "label": "fundingToken",
            "offset": 0,
            "slot": "10",
            "type": "t_contract(IERC20)1519"
          },
          {
            "astId": 35,
            "contract": "contracts/seed/Seed.sol:Seed",
            "label": "fee",
            "offset": 20,
            "slot": "10",
            "type": "t_uint8"
          },
          {
            "astId": 37,
            "contract": "contracts/seed/Seed.sol:Seed",
            "label": "metadata",
            "offset": 0,
            "slot": "11",
            "type": "t_bytes_storage"
          },
          {
            "astId": 44,
            "contract": "contracts/seed/Seed.sol:Seed",
            "label": "closed",
            "offset": 0,
            "slot": "12",
            "type": "t_bool"
          },
          {
            "astId": 46,
            "contract": "contracts/seed/Seed.sol:Seed",
            "label": "paused",
            "offset": 1,
            "slot": "12",
            "type": "t_bool"
          },
          {
            "astId": 48,
            "contract": "contracts/seed/Seed.sol:Seed",
            "label": "isFunded",
            "offset": 2,
            "slot": "12",
            "type": "t_bool"
          },
          {
            "astId": 50,
            "contract": "contracts/seed/Seed.sol:Seed",
            "label": "initialized",
            "offset": 3,
            "slot": "12",
            "type": "t_bool"
          },
          {
            "astId": 52,
            "contract": "contracts/seed/Seed.sol:Seed",
            "label": "minimumReached",
            "offset": 4,
            "slot": "12",
            "type": "t_bool"
          },
          {
            "astId": 54,
            "contract": "contracts/seed/Seed.sol:Seed",
            "label": "maximumReached",
            "offset": 5,
            "slot": "12",
            "type": "t_bool"
          },
          {
            "astId": 56,
            "contract": "contracts/seed/Seed.sol:Seed",
            "label": "vestingStartTime",
            "offset": 0,
            "slot": "13",
            "type": "t_uint256"
          },
          {
            "astId": 58,
            "contract": "contracts/seed/Seed.sol:Seed",
            "label": "totalFunderCount",
            "offset": 0,
            "slot": "14",
            "type": "t_uint256"
          },
          {
            "astId": 60,
            "contract": "contracts/seed/Seed.sol:Seed",
            "label": "seedRemainder",
            "offset": 0,
            "slot": "15",
            "type": "t_uint256"
          },
          {
            "astId": 62,
            "contract": "contracts/seed/Seed.sol:Seed",
            "label": "seedClaimed",
            "offset": 0,
            "slot": "16",
            "type": "t_uint256"
          },
          {
            "astId": 64,
            "contract": "contracts/seed/Seed.sol:Seed",
            "label": "feeRemainder",
            "offset": 0,
            "slot": "17",
            "type": "t_uint256"
          },
          {
            "astId": 66,
            "contract": "contracts/seed/Seed.sol:Seed",
            "label": "feeClaimed",
            "offset": 0,
            "slot": "18",
            "type": "t_uint256"
          },
          {
            "astId": 68,
            "contract": "contracts/seed/Seed.sol:Seed",
            "label": "fundingCollected",
            "offset": 0,
            "slot": "19",
            "type": "t_uint256"
          },
          {
            "astId": 70,
            "contract": "contracts/seed/Seed.sol:Seed",
            "label": "fundingWithdrawn",
            "offset": 0,
            "slot": "20",
            "type": "t_uint256"
          },
          {
            "astId": 74,
            "contract": "contracts/seed/Seed.sol:Seed",
            "label": "whitelisted",
            "offset": 0,
            "slot": "21",
            "type": "t_mapping(t_address,t_bool)"
          },
          {
            "astId": 79,
            "contract": "contracts/seed/Seed.sol:Seed",
            "label": "funders",
            "offset": 0,
            "slot": "22",
            "type": "t_mapping(t_address,t_struct(FunderPortfolio)116_storage)"
          }
        ],
        "types": {
          "t_address": {
            "encoding": "inplace",
            "label": "address",
            "numberOfBytes": "20"
          },
          "t_bool": {
            "encoding": "inplace",
            "label": "bool",
            "numberOfBytes": "1"
          },
          "t_bytes_storage": {
            "encoding": "bytes",
            "label": "bytes",
            "numberOfBytes": "32"
          },
          "t_contract(IERC20)1519": {
            "encoding": "inplace",
            "label": "contract IERC20",
            "numberOfBytes": "20"
          },
          "t_mapping(t_address,t_bool)": {
            "encoding": "mapping",
            "key": "t_address",
            "label": "mapping(address => bool)",
            "numberOfBytes": "32",
            "value": "t_bool"
          },
          "t_mapping(t_address,t_struct(FunderPortfolio)116_storage)": {
            "encoding": "mapping",
            "key": "t_address",
            "label": "mapping(address => struct Seed.FunderPortfolio)",
            "numberOfBytes": "32",
            "value": "t_struct(FunderPortfolio)116_storage"
          },
          "t_struct(FunderPortfolio)116_storage": {
            "encoding": "inplace",
            "label": "struct Seed.FunderPortfolio",
            "members": [
              {
                "astId": 107,
                "contract": "contracts/seed/Seed.sol:Seed",
                "label": "seedAmount",
                "offset": 0,
                "slot": "0",
                "type": "t_uint256"
              },
              {
                "astId": 109,
                "contract": "contracts/seed/Seed.sol:Seed",
                "label": "totalClaimed",
                "offset": 0,
                "slot": "1",
                "type": "t_uint256"
              },
              {
                "astId": 111,
                "contract": "contracts/seed/Seed.sol:Seed",
                "label": "fundingAmount",
                "offset": 0,
                "slot": "2",
                "type": "t_uint256"
              },
              {
                "astId": 113,
                "contract": "contracts/seed/Seed.sol:Seed",
                "label": "fee",
                "offset": 0,
                "slot": "3",
                "type": "t_uint256"
              },
              {
                "astId": 115,
                "contract": "contracts/seed/Seed.sol:Seed",
                "label": "feeClaimed",
                "offset": 0,
                "slot": "4",
                "type": "t_uint256"
              }
            ],
            "numberOfBytes": "160"
          },
          "t_uint256": {
            "encoding": "inplace",
            "label": "uint256",
            "numberOfBytes": "32"
          },
          "t_uint32": {
            "encoding": "inplace",
            "label": "uint32",
            "numberOfBytes": "4"
          },
          "t_uint8": {
            "encoding": "inplace",
            "label": "uint8",
            "numberOfBytes": "1"
          }
        }
      },
      "userdoc": {
        "kind": "user",
        "methods": {},
        "version": 1
      }
    }
  }
}