{
  "@mstable/protocol/contracts/shared/InitializableModule.sol": {
    "InitializableModule": {
      "abi": [
        {
          "constant": true,
          "inputs": [],
          "name": "nexus",
          "outputs": [
            {
              "internalType": "contract INexus",
              "name": "",
              "type": "address"
            }
          ],
          "payable": false,
          "stateMutability": "view",
          "type": "function"
        }
      ],
      "devdoc": {
        "author": "Stability Labs Pty. Ltd.",
        "details": "Subscribes to module updates from a given publisher and reads from its registry.         Contract is used for upgradable proxy contracts.",
        "methods": {},
        "title": "InitializableModule"
      },
      "evm": {
        "bytecode": {
          "linkReferences": {},
          "object": "608060405234801561001057600080fd5b5060d08061001f6000396000f3fe6080604052348015600f57600080fd5b506004361060285760003560e01c8063a3f5c1d214602d575b600080fd5b60336075565b604051808273ffffffffffffffffffffffffffffffffffffffff1673ffffffffffffffffffffffffffffffffffffffff16815260200191505060405180910390f35b600860009054906101000a900473ffffffffffffffffffffffffffffffffffffffff168156fea265627a7a723158200602e8de7e9fca288c4a9a971530911a6f7297e693a7c584b83b5e8880fcc95f64736f6c63430005100032",
          "opcodes": "PUSH1 0x80 PUSH1 0x40 MSTORE CALLVALUE DUP1 ISZERO PUSH2 0x10 JUMPI PUSH1 0x0 DUP1 REVERT JUMPDEST POP PUSH1 0xD0 DUP1 PUSH2 0x1F PUSH1 0x0 CODECOPY PUSH1 0x0 RETURN INVALID PUSH1 0x80 PUSH1 0x40 MSTORE CALLVALUE DUP1 ISZERO PUSH1 0xF JUMPI PUSH1 0x0 DUP1 REVERT JUMPDEST POP PUSH1 0x4 CALLDATASIZE LT PUSH1 0x28 JUMPI PUSH1 0x0 CALLDATALOAD PUSH1 0xE0 SHR DUP1 PUSH4 0xA3F5C1D2 EQ PUSH1 0x2D JUMPI JUMPDEST PUSH1 0x0 DUP1 REVERT JUMPDEST PUSH1 0x33 PUSH1 0x75 JUMP JUMPDEST PUSH1 0x40 MLOAD DUP1 DUP3 PUSH20 0xFFFFFFFFFFFFFFFFFFFFFFFFFFFFFFFFFFFFFFFF AND PUSH20 0xFFFFFFFFFFFFFFFFFFFFFFFFFFFFFFFFFFFFFFFF AND DUP2 MSTORE PUSH1 0x20 ADD SWAP2 POP POP PUSH1 0x40 MLOAD DUP1 SWAP2 SUB SWAP1 RETURN JUMPDEST PUSH1 0x8 PUSH1 0x0 SWAP1 SLOAD SWAP1 PUSH2 0x100 EXP SWAP1 DIV PUSH20 0xFFFFFFFFFFFFFFFFFFFFFFFFFFFFFFFFFFFFFFFF AND DUP2 JUMP INVALID LOG2 PUSH6 0x627A7A723158 KECCAK256 MOD MUL 0xE8 0xDE PUSH31 0x9FCA288C4A9A971530911A6F7297E693A7C584B83B5E8880FCC95F64736F6C PUSH4 0x43000510 STOP ORIGIN "
        },
        "gasEstimates": {
          "creation": {
            "codeDepositCost": "41600",
            "executionCost": "93",
            "totalCost": "41693"
          },
          "external": {
            "nexus()": "1031"
          },
          "internal": {
            "_governance()": "infinite",
            "_governor()": "infinite",
            "_initialize(address)": "infinite",
            "_manager()": "infinite",
            "_metaToken()": "infinite",
            "_oracleHub()": "infinite",
            "_proxyAdmin()": "infinite",
            "_recollateraliser()": "infinite",
            "_savingsManager()": "infinite",
            "_staking()": "infinite"
          }
        },
        "methodIdentifiers": {
          "nexus()": "a3f5c1d2"
        }
      },
      "storageLayout": {
        "storage": [
          {
            "astId": 351,
            "contract": "@mstable/protocol/contracts/shared/InitializableModule.sol:InitializableModule",
            "label": "KEY_GOVERNANCE",
            "offset": 0,
            "slot": "0",
            "type": "t_bytes32"
          },
          {
            "astId": 353,
            "contract": "@mstable/protocol/contracts/shared/InitializableModule.sol:InitializableModule",
            "label": "KEY_STAKING",
            "offset": 0,
            "slot": "1",
            "type": "t_bytes32"
          },
          {
            "astId": 355,
            "contract": "@mstable/protocol/contracts/shared/InitializableModule.sol:InitializableModule",
            "label": "KEY_PROXY_ADMIN",
            "offset": 0,
            "slot": "2",
            "type": "t_bytes32"
          },
          {
            "astId": 357,
            "contract": "@mstable/protocol/contracts/shared/InitializableModule.sol:InitializableModule",
            "label": "KEY_ORACLE_HUB",
            "offset": 0,
            "slot": "3",
            "type": "t_bytes32"
          },
          {
            "astId": 359,
            "contract": "@mstable/protocol/contracts/shared/InitializableModule.sol:InitializableModule",
            "label": "KEY_MANAGER",
            "offset": 0,
            "slot": "4",
            "type": "t_bytes32"
          },
          {
            "astId": 361,
            "contract": "@mstable/protocol/contracts/shared/InitializableModule.sol:InitializableModule",
            "label": "KEY_RECOLLATERALISER",
            "offset": 0,
            "slot": "5",
            "type": "t_bytes32"
          },
          {
            "astId": 363,
            "contract": "@mstable/protocol/contracts/shared/InitializableModule.sol:InitializableModule",
            "label": "KEY_META_TOKEN",
            "offset": 0,
            "slot": "6",
            "type": "t_bytes32"
          },
          {
            "astId": 365,
            "contract": "@mstable/protocol/contracts/shared/InitializableModule.sol:InitializableModule",
            "label": "KEY_SAVINGS_MANAGER",
            "offset": 0,
            "slot": "7",
            "type": "t_bytes32"
          },
          {
            "astId": 164,
            "contract": "@mstable/protocol/contracts/shared/InitializableModule.sol:InitializableModule",
            "label": "nexus",
            "offset": 0,
            "slot": "8",
            "type": "t_contract(INexus)154"
          }
        ],
        "types": {
          "t_bytes32": {
            "encoding": "inplace",
            "label": "bytes32",
            "numberOfBytes": "32"
          },
          "t_contract(INexus)154": {
            "encoding": "inplace",
            "label": "contract INexus",
            "numberOfBytes": "20"
          }
        }
      },
      "userdoc": {
        "methods": {}
      }
    }
  }
}