{
  "contracts/prime_token_v2/MerkleDrop.sol": {
    "MerkleDrop": {
      "abi": [
        {
          "anonymous": false,
          "inputs": [
            {
              "indexed": false,
              "internalType": "address",
              "name": "claimant",
              "type": "address"
            },
            {
              "indexed": false,
              "internalType": "uint256",
              "name": "week",
              "type": "uint256"
            },
            {
              "indexed": false,
              "internalType": "uint256",
              "name": "balance",
              "type": "uint256"
            }
          ],
          "name": "Claimed",
          "type": "event"
        },
        {
          "anonymous": false,
          "inputs": [
            {
              "indexed": true,
              "internalType": "address",
              "name": "_address",
              "type": "address"
            }
          ],
          "name": "RemovedFunder",
          "type": "event"
        },
        {
          "anonymous": false,
          "inputs": [
            {
              "indexed": false,
              "internalType": "uint256",
              "name": "tranche",
              "type": "uint256"
            },
            {
              "indexed": false,
              "internalType": "bytes32",
              "name": "merkleRoot",
              "type": "bytes32"
            },
            {
              "indexed": false,
              "internalType": "uint256",
              "name": "totalAmount",
              "type": "uint256"
            }
          ],
          "name": "TrancheAdded",
          "type": "event"
        },
        {
          "anonymous": false,
          "inputs": [
            {
              "indexed": false,
              "internalType": "uint256",
              "name": "tranche",
              "type": "uint256"
            }
          ],
          "name": "TrancheExpired",
          "type": "event"
        },
        {
          "anonymous": false,
          "inputs": [
            {
              "indexed": true,
              "internalType": "address",
              "name": "_address",
              "type": "address"
            }
          ],
          "name": "Whitelisted",
          "type": "event"
        },
        {
          "constant": true,
          "inputs": [
            {
              "internalType": "bytes32",
              "name": "c__0x1fcf5ce6",
              "type": "bytes32"
            }
          ],
          "name": "c_0x1fcf5ce6",
          "outputs": [],
          "payable": false,
          "stateMutability": "pure",
          "type": "function"
        },
        {
          "constant": false,
          "inputs": [
            {
              "internalType": "address",
              "name": "_liquidityProvider",
              "type": "address"
            },
            {
              "internalType": "uint256",
              "name": "_tranche",
              "type": "uint256"
            },
            {
              "internalType": "uint256",
              "name": "_balance",
              "type": "uint256"
            },
            {
              "internalType": "bytes32[]",
              "name": "_merkleProof",
              "type": "bytes32[]"
            }
          ],
          "name": "claimTranche",
          "outputs": [],
          "payable": false,
          "stateMutability": "nonpayable",
          "type": "function"
        },
        {
          "constant": true,
          "inputs": [
            {
              "internalType": "uint256",
              "name": "",
              "type": "uint256"
            },
            {
              "internalType": "address",
              "name": "",
              "type": "address"
            }
          ],
          "name": "claimed",
          "outputs": [
            {
              "internalType": "bool",
              "name": "",
              "type": "bool"
            }
          ],
          "payable": false,
          "stateMutability": "view",
          "type": "function"
        },
        {
          "constant": false,
          "inputs": [
            {
              "internalType": "uint256",
              "name": "_trancheId",
              "type": "uint256"
            }
          ],
          "name": "expireTranche",
          "outputs": [],
          "payable": false,
          "stateMutability": "nonpayable",
          "type": "function"
        },
        {
          "constant": false,
          "inputs": [
            {
              "internalType": "address",
              "name": "_nexus",
              "type": "address"
            },
            {
              "internalType": "address[]",
              "name": "_funders",
              "type": "address[]"
            },
            {
              "internalType": "contract IERC20",
              "name": "_token",
              "type": "address"
            },
            {
              "internalType": "uint256",
              "name": "_thresholdBlock",
              "type": "uint256"
            }
          ],
          "name": "initialize",
          "outputs": [],
          "payable": false,
          "stateMutability": "nonpayable",
          "type": "function"
        },
        {
          "constant": true,
          "inputs": [
            {
              "internalType": "uint256",
              "name": "",
              "type": "uint256"
            }
          ],
          "name": "merkleRoots",
          "outputs": [
            {
              "internalType": "bytes32",
              "name": "",
              "type": "bytes32"
            }
          ],
          "payable": false,
          "stateMutability": "view",
          "type": "function"
        },
        {
          "constant": true,
          "inputs": [],
          "name": "nexus",
          "outputs": [
            {
              "internalType": "contract INexus",
              "name": "",
              "type": "address"
            }
          ],
          "payable": false,
          "stateMutability": "view",
          "type": "function"
        },
        {
          "constant": false,
          "inputs": [
            {
              "internalType": "bytes32",
              "name": "_merkleRoot",
              "type": "bytes32"
            },
            {
              "internalType": "uint256",
              "name": "_totalAllocation",
              "type": "uint256"
            }
          ],
          "name": "seedNewAllocations",
          "outputs": [
            {
              "internalType": "uint256",
              "name": "trancheId",
              "type": "uint256"
            }
          ],
          "payable": false,
          "stateMutability": "nonpayable",
          "type": "function"
        },
        {
          "constant": true,
          "inputs": [],
          "name": "thresholdBlock",
          "outputs": [
            {
              "internalType": "uint256",
              "name": "",
              "type": "uint256"
            }
          ],
          "payable": false,
          "stateMutability": "view",
          "type": "function"
        },
        {
          "constant": true,
          "inputs": [],
          "name": "token",
          "outputs": [
            {
              "internalType": "contract IERC20",
              "name": "",
              "type": "address"
            }
          ],
          "payable": false,
          "stateMutability": "view",
          "type": "function"
        },
        {
          "constant": true,
          "inputs": [
            {
              "internalType": "address",
              "name": "_liquidityProvider",
              "type": "address"
            },
            {
              "internalType": "uint256",
              "name": "_tranche",
              "type": "uint256"
            },
            {
              "internalType": "uint256",
              "name": "_balance",
              "type": "uint256"
            },
            {
              "internalType": "bytes32[]",
              "name": "_merkleProof",
              "type": "bytes32[]"
            }
          ],
          "name": "verifyClaim",
          "outputs": [
            {
              "internalType": "bool",
              "name": "valid",
              "type": "bool"
            }
          ],
          "payable": false,
          "stateMutability": "view",
          "type": "function"
        },
        {
          "constant": true,
          "inputs": [
            {
              "internalType": "address",
              "name": "",
              "type": "address"
            }
          ],
          "name": "whitelist",
          "outputs": [
            {
              "internalType": "bool",
              "name": "",
              "type": "bool"
            }
          ],
          "payable": false,
          "stateMutability": "view",
          "type": "function"
        }
      ],
      "devdoc": {
        "methods": {}
      },
      "evm": {
        "bytecode": {
          "linkReferences": {},
          "object": "608060405234801561001057600080fd5b50612e4d806100206000396000f3fe608060405234801561001057600080fd5b50600436106100b45760003560e01c80639b19251a116100715780639b19251a1461019f578063a3f5c1d2146101cf578063cd54e72c146101ed578063d5efd20a14610209578063eb0d07f514610225578063fc0c546a14610255576100b4565b80630af49690146100b9578063120aa877146100d557806329eb15bd1461010557806336f7e1191461012357806365ef53b11461013f57806371c5ecb11461016f575b600080fd5b6100d360048036036100ce9190810190611e6b565b610273565b005b6100ef60048036036100ea919081019061201d565b610528565b6040516100fc9190612918565b60405180910390f35b61010d610557565b60405161011a9190612b64565b60405180910390f35b61013d60048036036101389190810190611f8f565b61055d565b005b61015960048036036101549190810190611fb8565b610560565b6040516101669190612b64565b60405180910390f35b61018960048036036101849190810190611ff4565b6108fe565b6040516101969190612933565b60405180910390f35b6101b960048036036101b49190810190611e42565b610916565b6040516101c69190612918565b60405180910390f35b6101d7610936565b6040516101e49190612969565b60405180910390f35b61020760048036036102029190810190611eeb565b61095c565b005b610223600480360361021e9190810190611ff4565b610b49565b005b61023f600480360361023a9190810190611eeb565b610d06565b60405161024c9190612918565b60405180910390f35b61025d610da2565b60405161026a919061294e565b60405180910390f35b600060019054906101000a900460ff16806102925750610291610dc8565b5b806102a957506000809054906101000a900460ff16155b6102e8576040517f08c379a00000000000000000000000000000000000000000000000000000000081526004016102df90612a64565b60405180910390fd5b60008060019054906101000a900460ff161590508015610338576001600060016101000a81548160ff02191690831515021790555060016000806101000a81548160ff0219169083151502179055505b6103647f594f2eedfbb5c30f76619dbd01aba53a32526f16f436536953134a8a619d423160001b61055d565b6103907fa196ddc1b05d79e1acc99dd229f2e0041512efd827215792771a1d8ebd5eaf4160001b61055d565b6103bc7ffc115dd6dfe4e13b6fd43ea93817dd99ea83df832d69a13f2d92747ef1147a1060001b61055d565b61040786868680806020026020016040519081016040528093929190818152602001838360200280828437600081840152601f19601f82011690508083019250505050505050610ddf565b6104337f35cfdb1db8256f1f729649b89869276b0841e1fe83dd9229cf923e99add5226c60001b61055d565b61045f7fc4c0f0390e80909b75d7347da0f22868683d43f806ca4c0da3e438ba22060d1560001b61055d565b82603d60006101000a81548173ffffffffffffffffffffffffffffffffffffffff021916908373ffffffffffffffffffffffffffffffffffffffff1602179055506104cc7f91989611141ed79d460fd61739eeafa35196509e66d561c5a914cfc092a731d060001b61055d565b6104f87fe6914fcd3dd4d76c61825510d02c2ecba2d333af8df17e4df876e4bb091365ed60001b61055d565b8160418190555080156105205760008060016101000a81548160ff0219169083151502179055505b505050505050565b603f6020528160005260406000206020528060005260406000206000915091509054906101000a900460ff1681565b60415481565b50565b6000603c60003373ffffffffffffffffffffffffffffffffffffffff1673ffffffffffffffffffffffffffffffffffffffff16815260200190815260200160002060009054906101000a900460ff166105ee576040517f08c379a00000000000000000000000000000000000000000000000000000000081526004016105e590612a44565b60405180910390fd5b61061a7fafc6e4547caf5762d0e25915a9024c91ae3af746f2478c532f8150baf3a7981b60001b61055d565b6106467f32a3ad2dce22fd28b31f4e775eaa768ea68e66451d004cb1109c21068d7e2d7760001b61055d565b6106727f17b2ddcc837a33e2a38e78dfa68cbed17961fbd82207b93f3b87a9c118260d6d60001b61055d565b603d60009054906101000a900473ffffffffffffffffffffffffffffffffffffffff1673ffffffffffffffffffffffffffffffffffffffff166323b872dd3330856040518463ffffffff1660e01b81526004016106d193929190612881565b602060405180830381600087803b1580156106eb57600080fd5b505af11580156106ff573d6000803e3d6000fd5b505050506040513d601f19601f820116820180604052506107239190810190611f66565b506107507feb0b1014fd1bd65956ca291026e83ff6b0519c90f084e7535e134812e510a17b60001b61055d565b61077c7fc6b7538076c9c0b2e0d35578160c75678ce4d7fb8c6ad19dfa619d9260b9193660001b61055d565b60405490506107ad7f22a869104654bfc959ab147ca4f5f2cb35e9649e1c54721ce77d76e6780f75ac60001b61055d565b6107d97f8f208c90170af62a84ef93d8a9e2b5a35d208e6d860c47bf7048c7924f62f90960001b61055d565b82603e60008381526020019081526020016000208190555061081d7f46f8227b7ba018605620710725ceb90fc0571007ce565e853d6038b1a7b4e6f860001b61055d565b6108497fd983e66c6bafce1dcaae3c030f3a42cdd7abce22aea9215570699a7dac39d6a260001b61055d565b61085f6001604054610e6990919063ffffffff16565b6040819055506108917f15045b0f31092ce56988e13e95e9603271fdf3c3f5c668486398cc1197250f7a60001b61055d565b6108bd7fa1b6abcb8c4416fae351eb0d498bd341539860a9f3a94e02d72a79220ef2969660001b61055d565b7f5c8770684b8f82e9ade880fb05ccfb53c969170cd40e9746a3703f241c9023ec8184846040516108f093929190612b7f565b60405180910390a192915050565b603e6020528060005260406000206000915090505481565b603c6020528060005260406000206000915054906101000a900460ff1681565b603b60009054906101000a900473ffffffffffffffffffffffffffffffffffffffff1681565b6109887fa6e2bbe1dbdf9e15006294b295ac3ccd7f5dd5712afb0944de0c6286ba83256c60001b61055d565b6109b47f111c8c4a2b078f564fd847e1ee22a4f13870a7facdc50df310cacf24344a443060001b61055d565b6109e07f7f5d42b4bf0e07432461a1ca80975309f26c7d45c4b4b65ee1c1259d5c06eb9c60001b61055d565b610a0c7f9333839ae905c5d43dbe3be67a941145ca9b22e68b4e4f0db9d0d55197dee72360001b61055d565b604154431015610a51576040517f08c379a0000000000000000000000000000000000000000000000000000000008152600401610a4890612a84565b60405180910390fd5b610a7d7fedb8ef83182d47be3ea22907619624a7c8fda038f17d623a4a7641b0403760da60001b61055d565b610aa97fe9cfffa14304668b4ea956ee6c0a5da5969e376244c15ff0298b3d56e5c2927860001b61055d565b610ad57f5f11bbc68eec5e48241ef10d016b1880bb75017ff2032323c93fbfb9687dd26a60001b61055d565b610ae184848484610ebe565b610b0d7f51816eb278e30b2b021cfaa04ff5162215a7a177e59be3a0ec25b6f37b2257f260001b61055d565b610b397f085ee5ca844f6620c6b42e4066c5cf00470a7ebc4d289fb48343bff4c49eb7e860001b61055d565b610b438483611381565b50505050565b603c60003373ffffffffffffffffffffffffffffffffffffffff1673ffffffffffffffffffffffffffffffffffffffff16815260200190815260200160002060009054906101000a900460ff16610bd5576040517f08c379a0000000000000000000000000000000000000000000000000000000008152600401610bcc90612a44565b60405180910390fd5b610c017f2b2cc492780f67e81b99da2790835cff4c966a76e230b8bfe4b38771e030992160001b61055d565b610c2d7f3b01e5308f0efd34ab6f2c12ac781453bd4aaa4e770c49c3af9d61ab8999ac0160001b61055d565b610c597f149bb2930ddb8bbf32a40f34b5ac60a54fa5c403f47afeb161325f53ba5efdb760001b61055d565b6000801b603e600083815260200190815260200160002081905550610ca07f94a5a21dac1b300158fd9cb471761d92f30eee68b7c48bb6d3049a067185f57760001b61055d565b610ccc7f653fb204e53b634cab113ec67c40c7df6d499ec3ef98cbfd0da2b2e58fdd729960001b61055d565b7fcc071cbd9ae50a4c78d1153b76bd2d46ba8d4c7662842718ec3de1d67a144daf81604051610cfb9190612b64565b60405180910390a150565b6000610d347f9c8233c067002be1c070079f4700a35ddce7e6f69b4801118e9b9d68c68f3ecd60001b61055d565b610d607f1d1183438f58451be1fcaac2be0ef4af2cbe38cf5a088d86572c10ebbc574b6a60001b61055d565b610d8c7f92d3b53ab6b58ee105377c3d6eb337cb0f1703bdab77830220a7b79dff9cf38260001b61055d565b610d98858585856115a7565b9050949350505050565b603d60009054906101000a900473ffffffffffffffffffffffffffffffffffffffff1681565b6000803090506000813b9050600081149250505090565b610de8826116db565b6000815111610e2c576040517f08c379a0000000000000000000000000000000000000000000000000000000008152600401610e2390612a24565b60405180910390fd5b60008090505b8151811015610e6457610e57828281518110610e4a57fe5b6020026020010151611797565b8080600101915050610e32565b505050565b600080828401905083811015610eb4576040517f08c379a0000000000000000000000000000000000000000000000000000000008152600401610eab906129e4565b60405180910390fd5b8091505092915050565b610eea7f62dd8e58d7681b11f417951021756a3ecf06a56a2ddcfccbfaaafdd2c4cdedce60001b61055d565b610f167f1f477940cda36e2cea1ce5c146d34a3dd3c856f8259232e15a1617c825730c0060001b61055d565b610f427f5d297ec13232ddb9f79e84e34760ac2db030e72c96591df61b2467769147f8ee60001b61055d565b610f6e7f4e1fd4fdfdf261abc0c2c53995b5ea325ecbf7dc02cdf0230634219735063b6460001b61055d565b6040548310610fb2576040517f08c379a0000000000000000000000000000000000000000000000000000000008152600401610fa9906129a4565b60405180910390fd5b610fde7f41b7bad126935cf0e49d4c8cfda5410d5043c3b32aaeb7033ea28a0fa417885360001b61055d565b61100a7fd6ff52460b507f4c03005125c2f080e414447e97c3c500ea493c66fcc1b1221360001b61055d565b6110367f7d58167b0eba7850161c67e7a0fef05497bb8cfcd1fa4a0c79c23d41289cb5a760001b61055d565b6110627f64b8f65c70add4a3e0254f4204073c27c6e5102306aae9edb4e83cff57c2e58d60001b61055d565b603f600084815260200190815260200160002060008573ffffffffffffffffffffffffffffffffffffffff1673ffffffffffffffffffffffffffffffffffffffff16815260200190815260200160002060009054906101000a900460ff1615611100576040517f08c379a00000000000000000000000000000000000000000000000000000000081526004016110f790612ae4565b60405180910390fd5b61112c7f748729caa29f4074382072bc8cbea0f22f65f9b791c4eb2b45cb1a3c7e82006560001b61055d565b6111587ffa8e0b3cf76ef5f20d8cf3b5c06c934ed841c90c1a79124d5f6e68a7cdf877fc60001b61055d565b6111847f73389aa21edbfc19c4414d6a54245028d57d5948494a93178e6da52c92f1eecf60001b61055d565b6111b07fdf34d0d104a159d0f6b4b0922cfa57a8a31ee552aa5c7b88e19a0214922d301d60001b61055d565b6111bc848484846115a7565b6111fb576040517f08c379a00000000000000000000000000000000000000000000000000000000081526004016111f2906129c4565b60405180910390fd5b6112277f6db0371c8cf4830cbd86cf130e03c0ad5e8249a515a99cab3c34ab95672aa59c60001b61055d565b6112537f31cf5432e8d13ee3064537ef7e000cc71e4b7f15820317b76a9f8a35cc7760f960001b61055d565b61127f7fcfa92c7e207945f49f0f3a9e9e91322a8d545a32d380ef3d9cbf8fe7ec87035c60001b61055d565b6001603f600085815260200190815260200160002060008673ffffffffffffffffffffffffffffffffffffffff1673ffffffffffffffffffffffffffffffffffffffff16815260200190815260200160002060006101000a81548160ff0219169083151502179055506113147fd5b24045503a2971fe34c78072d8311c9b666410a3a71d8c82b041d56845a56a60001b61055d565b6113407f6ff9f3f4cbeadf55a5ce49e723d78418da28273254abf427be3b87087353c36d60001b61055d565b7f987d620f307ff6b94d58743cb7a7509f24071586a77759b77c2d4e29f75a2f9a848484604051611373939291906128e1565b60405180910390a150505050565b6113ad7fa885c98c8733dedd8c1f63b566975d4316c5687efd8722ee541c9df2354d288560001b61055d565b6113d97f588d0ba20736467caa6923ebbc4d495cbbb0bffe093af1aa2adadfa3b6ed05d660001b61055d565b6114057fe58b5694db209a5fbf88ed77ca30ae6d35c7e59ff72a5e9b0ff36c8de94793de60001b61055d565b60008111156114e45761143a7f88b91490e5eecc663cbaa5a7b27d174fa6afbfdee7f2884498fed46be56f001c60001b61055d565b6114667fe6a589c9b7f4b7c489608febdaa24405d4a6767a207c3efc7fe2b81b73ba8e1c60001b61055d565b6114927ff9e20def4c5f4cf51511bc6cc4aec609c2290c380fd61b56168ac8b96cde8af260001b61055d565b6114df8282603d60009054906101000a900473ffffffffffffffffffffffffffffffffffffffff1673ffffffffffffffffffffffffffffffffffffffff166119329092919063ffffffff16565b6115a3565b6115107f694a8b39363e7ed3cf640665f720063f82fcaa5e6ba8897b2e69f654afbe7b2760001b61055d565b61153c7f6544268598bcdaac261a0dff82182fbc05d37291ac33598d817254bb051349b560001b61055d565b6115687f045724b4920ef09abb5d120504631e9d00ce5612e02206b4aecd80fcffef2cff60001b61055d565b6040517f08c379a000000000000000000000000000000000000000000000000000000000815260040161159a90612ac4565b60405180910390fd5b5050565b60006115d57fdfe2d3e934becb95184792626a7ee97d97de324580f907e9a3c97ac321a891c460001b61055d565b6116017fb048ab653fb0066bab3f20eec6c4033c39d59d67861689b3235acc75f3887e3760001b61055d565b61162d7fc60d7a529f90012b4a3ecd2adff6d4e95559216b7c3c9c2efbab35e24ffa3da460001b61055d565b6000858460405160200161164292919061276a565b6040516020818303038152906040528051906020012090506116867f5e37aa4868f1102faf8c20c13fd9e9e3405d1b16df1024f981a1113cbe55611060001b61055d565b6116b27ff2a3b28c0d38b98bcdecab870e8c16ccfee94d2b93df5038c499ef6e699642e460001b61055d565b6116d083603e600088815260200190815260200160002054836119d1565b915050949350505050565b600073ffffffffffffffffffffffffffffffffffffffff168173ffffffffffffffffffffffffffffffffffffffff16141561174b576040517f08c379a000000000000000000000000000000000000000000000000000000000815260040161174290612984565b60405180910390fd5b80603b60006101000a81548173ffffffffffffffffffffffffffffffffffffffff021916908373ffffffffffffffffffffffffffffffffffffffff160217905550611794611a7d565b50565b600073ffffffffffffffffffffffffffffffffffffffff168173ffffffffffffffffffffffffffffffffffffffff161415611807576040517f08c379a00000000000000000000000000000000000000000000000000000000081526004016117fe90612b04565b60405180910390fd5b603c60008273ffffffffffffffffffffffffffffffffffffffff1673ffffffffffffffffffffffffffffffffffffffff16815260200190815260200160002060009054906101000a900460ff1615611894576040517f08c379a000000000000000000000000000000000000000000000000000000000815260040161188b90612aa4565b60405180910390fd5b6001603c60008373ffffffffffffffffffffffffffffffffffffffff1673ffffffffffffffffffffffffffffffffffffffff16815260200190815260200160002060006101000a81548160ff0219169083151502179055508073ffffffffffffffffffffffffffffffffffffffff167faab7954e9d246b167ef88aeddad35209ca2489d95a8aeb59e288d9b19fae5a5460405160405180910390a250565b6119cc838473ffffffffffffffffffffffffffffffffffffffff1663a9059cbb905060e01b848460405160240161196a9291906128b8565b604051602081830303815290604052907bffffffffffffffffffffffffffffffffffffffffffffffffffffffff19166020820180517bffffffffffffffffffffffffffffffffffffffffffffffffffffffff8381831617835250505050611b4f565b505050565b60008082905060008090505b8551811015611a6f5760008682815181106119f457fe5b60200260200101519050808311611a35578281604051602001611a18929190612796565b604051602081830303815290604052805190602001209250611a61565b8083604051602001611a48929190612796565b6040516020818303038152906040528051906020012092505b5080806001019150506119dd565b508381149150509392505050565b604051611a8990612842565b6040518091039020603381905550604051611aa3906127ee565b6040518091039020603481905550604051611abd90612857565b6040518091039020603581905550604051611ad79061282d565b6040518091039020603681905550604051611af190612818565b6040518091039020603781905550604051611b0b90612803565b6040518091039020603881905550604051611b259061286c565b6040518091039020603981905550604051611b3f906127d9565b6040518091039020603a81905550565b611b6e8273ffffffffffffffffffffffffffffffffffffffff16611cc1565b611bad576040517f08c379a0000000000000000000000000000000000000000000000000000000008152600401611ba490612b44565b60405180910390fd5b600060608373ffffffffffffffffffffffffffffffffffffffff1683604051611bd691906127c2565b6000604051808303816000865af19150503d8060008114611c13576040519150601f19603f3d011682016040523d82523d6000602084013e611c18565b606091505b509150915081611c5d576040517f08c379a0000000000000000000000000000000000000000000000000000000008152600401611c5490612a04565b60405180910390fd5b600081511115611cbb5780806020019051611c7b9190810190611f66565b611cba576040517f08c379a0000000000000000000000000000000000000000000000000000000008152600401611cb190612b24565b60405180910390fd5b5b50505050565b60008060007fc5d2460186f7233c927e7db2dcc703c0e500b653ca82273b7bfad8045d85a47060001b9050833f9150808214158015611d0357506000801b8214155b92505050919050565b600081359050611d1b81612d97565b92915050565b60008083601f840112611d3357600080fd5b8235905067ffffffffffffffff811115611d4c57600080fd5b602083019150836020820283011115611d6457600080fd5b9250929050565b600082601f830112611d7c57600080fd5b8135611d8f611d8a82612be3565b612bb6565b91508181835260208401935060208101905083856020840282011115611db457600080fd5b60005b83811015611de45781611dca8882611e03565b845260208401935060208301925050600181019050611db7565b5050505092915050565b600081519050611dfd81612dae565b92915050565b600081359050611e1281612dc5565b92915050565b600081359050611e2781612ddc565b92915050565b600081359050611e3c81612df3565b92915050565b600060208284031215611e5457600080fd5b6000611e6284828501611d0c565b91505092915050565b600080600080600060808688031215611e8357600080fd5b6000611e9188828901611d0c565b955050602086013567ffffffffffffffff811115611eae57600080fd5b611eba88828901611d21565b94509450506040611ecd88828901611e18565b9250506060611ede88828901611e2d565b9150509295509295909350565b60008060008060808587031215611f0157600080fd5b6000611f0f87828801611d0c565b9450506020611f2087828801611e2d565b9350506040611f3187828801611e2d565b925050606085013567ffffffffffffffff811115611f4e57600080fd5b611f5a87828801611d6b565b91505092959194509250565b600060208284031215611f7857600080fd5b6000611f8684828501611dee565b91505092915050565b600060208284031215611fa157600080fd5b6000611faf84828501611e03565b91505092915050565b60008060408385031215611fcb57600080fd5b6000611fd985828601611e03565b9250506020611fea85828601611e2d565b9150509250929050565b60006020828403121561200657600080fd5b600061201484828501611e2d565b91505092915050565b6000806040838503121561203057600080fd5b600061203e85828601611e2d565b925050602061204f85828601611d0c565b9150509250929050565b61206281612ca1565b82525050565b61207181612c3d565b82525050565b61208861208382612c3d565b612d52565b82525050565b61209781612c4f565b82525050565b6120a681612c5b565b82525050565b6120bd6120b882612c5b565b612d64565b82525050565b60006120ce82612c0b565b6120d88185612c16565b93506120e8818560208601612d1f565b80840191505092915050565b6120fd81612cb3565b82525050565b61210c81612cd7565b82525050565b600061211f601583612c21565b91507f4e657875732061646472657373206973207a65726f00000000000000000000006000830152602082019050919050565b600061215f600e83612c32565b91507f536176696e67734d616e616765720000000000000000000000000000000000006000830152600e82019050919050565b600061219f601c83612c21565b91507f5765656b2063616e6e6f7420626520696e2074686520667574757265000000006000830152602082019050919050565b60006121df600783612c32565b91507f5374616b696e67000000000000000000000000000000000000000000000000006000830152600782019050919050565b600061221f601683612c21565b91507f496e636f7272656374206d65726b6c652070726f6f66000000000000000000006000830152602082019050919050565b600061225f601b83612c21565b91507f536166654d6174683a206164646974696f6e206f766572666c6f7700000000006000830152602082019050919050565b600061229f601083612c32565b91507f5265636f6c6c61746572616c69736572000000000000000000000000000000006000830152601082019050919050565b60006122df602083612c21565b91507f5361666545524332303a206c6f772d6c6576656c2063616c6c206661696c65646000830152602082019050919050565b600061231f600783612c32565b91507f4d616e61676572000000000000000000000000000000000000000000000000006000830152600782019050919050565b600061235f601583612c21565b91507f456d7074792077686974656c69737420617272617900000000000000000000006000830152602082019050919050565b600061239f601983612c21565b91507f4e6f7420612077686974656c69737465642061646472657373000000000000006000830152602082019050919050565b60006123df600983612c32565b91507f4f7261636c6548756200000000000000000000000000000000000000000000006000830152600982019050919050565b600061241f600a83612c32565b91507f476f7665726e616e6365000000000000000000000000000000000000000000006000830152600a82019050919050565b600061245f600a83612c32565b91507f50726f787941646d696e000000000000000000000000000000000000000000006000830152600a82019050919050565b600061249f602e83612c21565b91507f436f6e747261637420696e7374616e63652068617320616c726561647920626560008301527f656e20696e697469616c697a65640000000000000000000000000000000000006020830152604082019050919050565b6000612505601d83612c21565b91507f5265776172647320617265206e6f742079657420636c61696d61626c650000006000830152602082019050919050565b6000612545601383612c21565b91507f416c72656164792077686974656c6973746564000000000000000000000000006000830152602082019050919050565b6000612585603d83612c21565b91507f4e6f2062616c616e636520776f756c64206265207472616e736665727265642060008301527f2d206e6f7420676f696e6720746f20776173746520796f7572206761730000006020830152604082019050919050565b60006125eb601683612c21565b91507f4c502068617320616c726561647920636c61696d6564000000000000000000006000830152602082019050919050565b600061262b600f83612c21565b91507f41646472657373206973207a65726f00000000000000000000000000000000006000830152602082019050919050565b600061266b602a83612c21565b91507f5361666545524332303a204552433230206f7065726174696f6e20646964206e60008301527f6f742073756363656564000000000000000000000000000000000000000000006020830152604082019050919050565b60006126d1600983612c32565b91507f4d657461546f6b656e00000000000000000000000000000000000000000000006000830152600982019050919050565b6000612711601f83612c21565b91507f5361666545524332303a2063616c6c20746f206e6f6e2d636f6e7472616374006000830152602082019050919050565b61274d81612c97565b82525050565b61276461275f82612c97565b612d80565b82525050565b60006127768285612077565b6014820191506127868284612753565b6020820191508190509392505050565b60006127a282856120ac565b6020820191506127b282846120ac565b6020820191508190509392505050565b60006127ce82846120c3565b915081905092915050565b60006127e482612152565b9150819050919050565b60006127f9826121d2565b9150819050919050565b600061280e82612292565b9150819050919050565b600061282382612312565b9150819050919050565b6000612838826123d2565b9150819050919050565b600061284d82612412565b9150819050919050565b600061286282612452565b9150819050919050565b6000612877826126c4565b9150819050919050565b60006060820190506128966000830186612059565b6128a36020830185612068565b6128b06040830184612744565b949350505050565b60006040820190506128cd6000830185612068565b6128da6020830184612744565b9392505050565b60006060820190506128f66000830186612068565b6129036020830185612744565b6129106040830184612744565b949350505050565b600060208201905061292d600083018461208e565b92915050565b6000602082019050612948600083018461209d565b92915050565b600060208201905061296360008301846120f4565b92915050565b600060208201905061297e6000830184612103565b92915050565b6000602082019050818103600083015261299d81612112565b9050919050565b600060208201905081810360008301526129bd81612192565b9050919050565b600060208201905081810360008301526129dd81612212565b9050919050565b600060208201905081810360008301526129fd81612252565b9050919050565b60006020820190508181036000830152612a1d816122d2565b9050919050565b60006020820190508181036000830152612a3d81612352565b9050919050565b60006020820190508181036000830152612a5d81612392565b9050919050565b60006020820190508181036000830152612a7d81612492565b9050919050565b60006020820190508181036000830152612a9d816124f8565b9050919050565b60006020820190508181036000830152612abd81612538565b9050919050565b60006020820190508181036000830152612add81612578565b9050919050565b60006020820190508181036000830152612afd816125de565b9050919050565b60006020820190508181036000830152612b1d8161261e565b9050919050565b60006020820190508181036000830152612b3d8161265e565b9050919050565b60006020820190508181036000830152612b5d81612704565b9050919050565b6000602082019050612b796000830184612744565b92915050565b6000606082019050612b946000830186612744565b612ba1602083018561209d565b612bae6040830184612744565b949350505050565b6000604051905081810181811067ffffffffffffffff82111715612bd957600080fd5b8060405250919050565b600067ffffffffffffffff821115612bfa57600080fd5b602082029050602081019050919050565b600081519050919050565b600081905092915050565b600082825260208201905092915050565b600081905092915050565b6000612c4882612c77565b9050919050565b60008115159050919050565b6000819050919050565b6000612c7082612c3d565b9050919050565b600073ffffffffffffffffffffffffffffffffffffffff82169050919050565b6000819050919050565b6000612cac82612cfb565b9050919050565b6000612cbe82612cc5565b9050919050565b6000612cd082612c77565b9050919050565b6000612ce282612ce9565b9050919050565b6000612cf482612c77565b9050919050565b6000612d0682612d0d565b9050919050565b6000612d1882612c77565b9050919050565b60005b83811015612d3d578082015181840152602081019050612d22565b83811115612d4c576000848401525b50505050565b6000612d5d82612d6e565b9050919050565b6000819050919050565b6000612d7982612d8a565b9050919050565b6000819050919050565b60008160601b9050919050565b612da081612c3d565b8114612dab57600080fd5b50565b612db781612c4f565b8114612dc257600080fd5b50565b612dce81612c5b565b8114612dd957600080fd5b50565b612de581612c65565b8114612df057600080fd5b50565b612dfc81612c97565b8114612e0757600080fd5b5056fea365627a7a72315820f4881578ba6367f8f59b6155417a34f0f649f52b73a70ba6acbb73e96568a8b46c6578706572696d656e74616cf564736f6c63430005100040",
          "opcodes": "PUSH1 0x80 PUSH1 0x40 MSTORE CALLVALUE DUP1 ISZERO PUSH2 0x10 JUMPI PUSH1 0x0 DUP1 REVERT JUMPDEST POP PUSH2 0x2E4D DUP1 PUSH2 0x20 PUSH1 0x0 CODECOPY PUSH1 0x0 RETURN INVALID PUSH1 0x80 PUSH1 0x40 MSTORE CALLVALUE DUP1 ISZERO PUSH2 0x10 JUMPI PUSH1 0x0 DUP1 REVERT JUMPDEST POP PUSH1 0x4 CALLDATASIZE LT PUSH2 0xB4 JUMPI PUSH1 0x0 CALLDATALOAD PUSH1 0xE0 SHR DUP1 PUSH4 0x9B19251A GT PUSH2 0x71 JUMPI DUP1 PUSH4 0x9B19251A EQ PUSH2 0x19F JUMPI DUP1 PUSH4 0xA3F5C1D2 EQ PUSH2 0x1CF JUMPI DUP1 PUSH4 0xCD54E72C EQ PUSH2 0x1ED JUMPI DUP1 PUSH4 0xD5EFD20A EQ PUSH2 0x209 JUMPI DUP1 PUSH4 0xEB0D07F5 EQ PUSH2 0x225 JUMPI DUP1 PUSH4 0xFC0C546A EQ PUSH2 0x255 JUMPI PUSH2 0xB4 JUMP JUMPDEST DUP1 PUSH4 0xAF49690 EQ PUSH2 0xB9 JUMPI DUP1 PUSH4 0x120AA877 EQ PUSH2 0xD5 JUMPI DUP1 PUSH4 0x29EB15BD EQ PUSH2 0x105 JUMPI DUP1 PUSH4 0x36F7E119 EQ PUSH2 0x123 JUMPI DUP1 PUSH4 0x65EF53B1 EQ PUSH2 0x13F JUMPI DUP1 PUSH4 0x71C5ECB1 EQ PUSH2 0x16F JUMPI JUMPDEST PUSH1 0x0 DUP1 REVERT JUMPDEST PUSH2 0xD3 PUSH1 0x4 DUP1 CALLDATASIZE SUB PUSH2 0xCE SWAP2 SWAP1 DUP2 ADD SWAP1 PUSH2 0x1E6B JUMP JUMPDEST PUSH2 0x273 JUMP JUMPDEST STOP JUMPDEST PUSH2 0xEF PUSH1 0x4 DUP1 CALLDATASIZE SUB PUSH2 0xEA SWAP2 SWAP1 DUP2 ADD SWAP1 PUSH2 0x201D JUMP JUMPDEST PUSH2 0x528 JUMP JUMPDEST PUSH1 0x40 MLOAD PUSH2 0xFC SWAP2 SWAP1 PUSH2 0x2918 JUMP JUMPDEST PUSH1 0x40 MLOAD DUP1 SWAP2 SUB SWAP1 RETURN JUMPDEST PUSH2 0x10D PUSH2 0x557 JUMP JUMPDEST PUSH1 0x40 MLOAD PUSH2 0x11A SWAP2 SWAP1 PUSH2 0x2B64 JUMP JUMPDEST PUSH1 0x40 MLOAD DUP1 SWAP2 SUB SWAP1 RETURN JUMPDEST PUSH2 0x13D PUSH1 0x4 DUP1 CALLDATASIZE SUB PUSH2 0x138 SWAP2 SWAP1 DUP2 ADD SWAP1 PUSH2 0x1F8F JUMP JUMPDEST PUSH2 0x55D JUMP JUMPDEST STOP JUMPDEST PUSH2 0x159 PUSH1 0x4 DUP1 CALLDATASIZE SUB PUSH2 0x154 SWAP2 SWAP1 DUP2 ADD SWAP1 PUSH2 0x1FB8 JUMP JUMPDEST PUSH2 0x560 JUMP JUMPDEST PUSH1 0x40 MLOAD PUSH2 0x166 SWAP2 SWAP1 PUSH2 0x2B64 JUMP JUMPDEST PUSH1 0x40 MLOAD DUP1 SWAP2 SUB SWAP1 RETURN JUMPDEST PUSH2 0x189 PUSH1 0x4 DUP1 CALLDATASIZE SUB PUSH2 0x184 SWAP2 SWAP1 DUP2 ADD SWAP1 PUSH2 0x1FF4 JUMP JUMPDEST PUSH2 0x8FE JUMP JUMPDEST PUSH1 0x40 MLOAD PUSH2 0x196 SWAP2 SWAP1 PUSH2 0x2933 JUMP JUMPDEST PUSH1 0x40 MLOAD DUP1 SWAP2 SUB SWAP1 RETURN JUMPDEST PUSH2 0x1B9 PUSH1 0x4 DUP1 CALLDATASIZE SUB PUSH2 0x1B4 SWAP2 SWAP1 DUP2 ADD SWAP1 PUSH2 0x1E42 JUMP JUMPDEST PUSH2 0x916 JUMP JUMPDEST PUSH1 0x40 MLOAD PUSH2 0x1C6 SWAP2 SWAP1 PUSH2 0x2918 JUMP JUMPDEST PUSH1 0x40 MLOAD DUP1 SWAP2 SUB SWAP1 RETURN JUMPDEST PUSH2 0x1D7 PUSH2 0x936 JUMP JUMPDEST PUSH1 0x40 MLOAD PUSH2 0x1E4 SWAP2 SWAP1 PUSH2 0x2969 JUMP JUMPDEST PUSH1 0x40 MLOAD DUP1 SWAP2 SUB SWAP1 RETURN JUMPDEST PUSH2 0x207 PUSH1 0x4 DUP1 CALLDATASIZE SUB PUSH2 0x202 SWAP2 SWAP1 DUP2 ADD SWAP1 PUSH2 0x1EEB JUMP JUMPDEST PUSH2 0x95C JUMP JUMPDEST STOP JUMPDEST PUSH2 0x223 PUSH1 0x4 DUP1 CALLDATASIZE SUB PUSH2 0x21E SWAP2 SWAP1 DUP2 ADD SWAP1 PUSH2 0x1FF4 JUMP JUMPDEST PUSH2 0xB49 JUMP JUMPDEST STOP JUMPDEST PUSH2 0x23F PUSH1 0x4 DUP1 CALLDATASIZE SUB PUSH2 0x23A SWAP2 SWAP1 DUP2 ADD SWAP1 PUSH2 0x1EEB JUMP JUMPDEST PUSH2 0xD06 JUMP JUMPDEST PUSH1 0x40 MLOAD PUSH2 0x24C SWAP2 SWAP1 PUSH2 0x2918 JUMP JUMPDEST PUSH1 0x40 MLOAD DUP1 SWAP2 SUB SWAP1 RETURN JUMPDEST PUSH2 0x25D PUSH2 0xDA2 JUMP JUMPDEST PUSH1 0x40 MLOAD PUSH2 0x26A SWAP2 SWAP1 PUSH2 0x294E JUMP JUMPDEST PUSH1 0x40 MLOAD DUP1 SWAP2 SUB SWAP1 RETURN JUMPDEST PUSH1 0x0 PUSH1 0x1 SWAP1 SLOAD SWAP1 PUSH2 0x100 EXP SWAP1 DIV PUSH1 0xFF AND DUP1 PUSH2 0x292 JUMPI POP PUSH2 0x291 PUSH2 0xDC8 JUMP JUMPDEST JUMPDEST DUP1 PUSH2 0x2A9 JUMPI POP PUSH1 0x0 DUP1 SWAP1 SLOAD SWAP1 PUSH2 0x100 EXP SWAP1 DIV PUSH1 0xFF AND ISZERO JUMPDEST PUSH2 0x2E8 JUMPI PUSH1 0x40 MLOAD PUSH32 0x8C379A000000000000000000000000000000000000000000000000000000000 DUP2 MSTORE PUSH1 0x4 ADD PUSH2 0x2DF SWAP1 PUSH2 0x2A64 JUMP JUMPDEST PUSH1 0x40 MLOAD DUP1 SWAP2 SUB SWAP1 REVERT JUMPDEST PUSH1 0x0 DUP1 PUSH1 0x1 SWAP1 SLOAD SWAP1 PUSH2 0x100 EXP SWAP1 DIV PUSH1 0xFF AND ISZERO SWAP1 POP DUP1 ISZERO PUSH2 0x338 JUMPI PUSH1 0x1 PUSH1 0x0 PUSH1 0x1 PUSH2 0x100 EXP DUP2 SLOAD DUP2 PUSH1 0xFF MUL NOT AND SWAP1 DUP4 ISZERO ISZERO MUL OR SWAP1 SSTORE POP PUSH1 0x1 PUSH1 0x0 DUP1 PUSH2 0x100 EXP DUP2 SLOAD DUP2 PUSH1 0xFF MUL NOT AND SWAP1 DUP4 ISZERO ISZERO MUL OR SWAP1 SSTORE POP JUMPDEST PUSH2 0x364 PUSH32 0x594F2EEDFBB5C30F76619DBD01ABA53A32526F16F436536953134A8A619D4231 PUSH1 0x0 SHL PUSH2 0x55D JUMP JUMPDEST PUSH2 0x390 PUSH32 0xA196DDC1B05D79E1ACC99DD229F2E0041512EFD827215792771A1D8EBD5EAF41 PUSH1 0x0 SHL PUSH2 0x55D JUMP JUMPDEST PUSH2 0x3BC PUSH32 0xFC115DD6DFE4E13B6FD43EA93817DD99EA83DF832D69A13F2D92747EF1147A10 PUSH1 0x0 SHL PUSH2 0x55D JUMP JUMPDEST PUSH2 0x407 DUP7 DUP7 DUP7 DUP1 DUP1 PUSH1 0x20 MUL PUSH1 0x20 ADD PUSH1 0x40 MLOAD SWAP1 DUP2 ADD PUSH1 0x40 MSTORE DUP1 SWAP4 SWAP3 SWAP2 SWAP1 DUP2 DUP2 MSTORE PUSH1 0x20 ADD DUP4 DUP4 PUSH1 0x20 MUL DUP1 DUP3 DUP5 CALLDATACOPY PUSH1 0x0 DUP2 DUP5 ADD MSTORE PUSH1 0x1F NOT PUSH1 0x1F DUP3 ADD AND SWAP1 POP DUP1 DUP4 ADD SWAP3 POP POP POP POP POP POP POP PUSH2 0xDDF JUMP JUMPDEST PUSH2 0x433 PUSH32 0x35CFDB1DB8256F1F729649B89869276B0841E1FE83DD9229CF923E99ADD5226C PUSH1 0x0 SHL PUSH2 0x55D JUMP JUMPDEST PUSH2 0x45F PUSH32 0xC4C0F0390E80909B75D7347DA0F22868683D43F806CA4C0DA3E438BA22060D15 PUSH1 0x0 SHL PUSH2 0x55D JUMP JUMPDEST DUP3 PUSH1 0x3D PUSH1 0x0 PUSH2 0x100 EXP DUP2 SLOAD DUP2 PUSH20 0xFFFFFFFFFFFFFFFFFFFFFFFFFFFFFFFFFFFFFFFF MUL NOT AND SWAP1 DUP4 PUSH20 0xFFFFFFFFFFFFFFFFFFFFFFFFFFFFFFFFFFFFFFFF AND MUL OR SWAP1 SSTORE POP PUSH2 0x4CC PUSH32 0x91989611141ED79D460FD61739EEAFA35196509E66D561C5A914CFC092A731D0 PUSH1 0x0 SHL PUSH2 0x55D JUMP JUMPDEST PUSH2 0x4F8 PUSH32 0xE6914FCD3DD4D76C61825510D02C2ECBA2D333AF8DF17E4DF876E4BB091365ED PUSH1 0x0 SHL PUSH2 0x55D JUMP JUMPDEST DUP2 PUSH1 0x41 DUP2 SWAP1 SSTORE POP DUP1 ISZERO PUSH2 0x520 JUMPI PUSH1 0x0 DUP1 PUSH1 0x1 PUSH2 0x100 EXP DUP2 SLOAD DUP2 PUSH1 0xFF MUL NOT AND SWAP1 DUP4 ISZERO ISZERO MUL OR SWAP1 SSTORE POP JUMPDEST POP POP POP POP POP POP JUMP JUMPDEST PUSH1 0x3F PUSH1 0x20 MSTORE DUP2 PUSH1 0x0 MSTORE PUSH1 0x40 PUSH1 0x0 KECCAK256 PUSH1 0x20 MSTORE DUP1 PUSH1 0x0 MSTORE PUSH1 0x40 PUSH1 0x0 KECCAK256 PUSH1 0x0 SWAP2 POP SWAP2 POP SWAP1 SLOAD SWAP1 PUSH2 0x100 EXP SWAP1 DIV PUSH1 0xFF AND DUP2 JUMP JUMPDEST PUSH1 0x41 SLOAD DUP2 JUMP JUMPDEST POP JUMP JUMPDEST PUSH1 0x0 PUSH1 0x3C PUSH1 0x0 CALLER PUSH20 0xFFFFFFFFFFFFFFFFFFFFFFFFFFFFFFFFFFFFFFFF AND PUSH20 0xFFFFFFFFFFFFFFFFFFFFFFFFFFFFFFFFFFFFFFFF AND DUP2 MSTORE PUSH1 0x20 ADD SWAP1 DUP2 MSTORE PUSH1 0x20 ADD PUSH1 0x0 KECCAK256 PUSH1 0x0 SWAP1 SLOAD SWAP1 PUSH2 0x100 EXP SWAP1 DIV PUSH1 0xFF AND PUSH2 0x5EE JUMPI PUSH1 0x40 MLOAD PUSH32 0x8C379A000000000000000000000000000000000000000000000000000000000 DUP2 MSTORE PUSH1 0x4 ADD PUSH2 0x5E5 SWAP1 PUSH2 0x2A44 JUMP JUMPDEST PUSH1 0x40 MLOAD DUP1 SWAP2 SUB SWAP1 REVERT JUMPDEST PUSH2 0x61A PUSH32 0xAFC6E4547CAF5762D0E25915A9024C91AE3AF746F2478C532F8150BAF3A7981B PUSH1 0x0 SHL PUSH2 0x55D JUMP JUMPDEST PUSH2 0x646 PUSH32 0x32A3AD2DCE22FD28B31F4E775EAA768EA68E66451D004CB1109C21068D7E2D77 PUSH1 0x0 SHL PUSH2 0x55D JUMP JUMPDEST PUSH2 0x672 PUSH32 0x17B2DDCC837A33E2A38E78DFA68CBED17961FBD82207B93F3B87A9C118260D6D PUSH1 0x0 SHL PUSH2 0x55D JUMP JUMPDEST PUSH1 0x3D PUSH1 0x0 SWAP1 SLOAD SWAP1 PUSH2 0x100 EXP SWAP1 DIV PUSH20 0xFFFFFFFFFFFFFFFFFFFFFFFFFFFFFFFFFFFFFFFF AND PUSH20 0xFFFFFFFFFFFFFFFFFFFFFFFFFFFFFFFFFFFFFFFF AND PUSH4 0x23B872DD CALLER ADDRESS DUP6 PUSH1 0x40 MLOAD DUP5 PUSH4 0xFFFFFFFF AND PUSH1 0xE0 SHL DUP2 MSTORE PUSH1 0x4 ADD PUSH2 0x6D1 SWAP4 SWAP3 SWAP2 SWAP1 PUSH2 0x2881 JUMP JUMPDEST PUSH1 0x20 PUSH1 0x40 MLOAD DUP1 DUP4 SUB DUP2 PUSH1 0x0 DUP8 DUP1 EXTCODESIZE ISZERO DUP1 ISZERO PUSH2 0x6EB JUMPI PUSH1 0x0 DUP1 REVERT JUMPDEST POP GAS CALL ISZERO DUP1 ISZERO PUSH2 0x6FF JUMPI RETURNDATASIZE PUSH1 0x0 DUP1 RETURNDATACOPY RETURNDATASIZE PUSH1 0x0 REVERT JUMPDEST POP POP POP POP PUSH1 0x40 MLOAD RETURNDATASIZE PUSH1 0x1F NOT PUSH1 0x1F DUP3 ADD AND DUP3 ADD DUP1 PUSH1 0x40 MSTORE POP PUSH2 0x723 SWAP2 SWAP1 DUP2 ADD SWAP1 PUSH2 0x1F66 JUMP JUMPDEST POP PUSH2 0x750 PUSH32 0xEB0B1014FD1BD65956CA291026E83FF6B0519C90F084E7535E134812E510A17B PUSH1 0x0 SHL PUSH2 0x55D JUMP JUMPDEST PUSH2 0x77C PUSH32 0xC6B7538076C9C0B2E0D35578160C75678CE4D7FB8C6AD19DFA619D9260B91936 PUSH1 0x0 SHL PUSH2 0x55D JUMP JUMPDEST PUSH1 0x40 SLOAD SWAP1 POP PUSH2 0x7AD PUSH32 0x22A869104654BFC959AB147CA4F5F2CB35E9649E1C54721CE77D76E6780F75AC PUSH1 0x0 SHL PUSH2 0x55D JUMP JUMPDEST PUSH2 0x7D9 PUSH32 0x8F208C90170AF62A84EF93D8A9E2B5A35D208E6D860C47BF7048C7924F62F909 PUSH1 0x0 SHL PUSH2 0x55D JUMP JUMPDEST DUP3 PUSH1 0x3E PUSH1 0x0 DUP4 DUP2 MSTORE PUSH1 0x20 ADD SWAP1 DUP2 MSTORE PUSH1 0x20 ADD PUSH1 0x0 KECCAK256 DUP2 SWAP1 SSTORE POP PUSH2 0x81D PUSH32 0x46F8227B7BA018605620710725CEB90FC0571007CE565E853D6038B1A7B4E6F8 PUSH1 0x0 SHL PUSH2 0x55D JUMP JUMPDEST PUSH2 0x849 PUSH32 0xD983E66C6BAFCE1DCAAE3C030F3A42CDD7ABCE22AEA9215570699A7DAC39D6A2 PUSH1 0x0 SHL PUSH2 0x55D JUMP JUMPDEST PUSH2 0x85F PUSH1 0x1 PUSH1 0x40 SLOAD PUSH2 0xE69 SWAP1 SWAP2 SWAP1 PUSH4 0xFFFFFFFF AND JUMP JUMPDEST PUSH1 0x40 DUP2 SWAP1 SSTORE POP PUSH2 0x891 PUSH32 0x15045B0F31092CE56988E13E95E9603271FDF3C3F5C668486398CC1197250F7A PUSH1 0x0 SHL PUSH2 0x55D JUMP JUMPDEST PUSH2 0x8BD PUSH32 0xA1B6ABCB8C4416FAE351EB0D498BD341539860A9F3A94E02D72A79220EF29696 PUSH1 0x0 SHL PUSH2 0x55D JUMP JUMPDEST PUSH32 0x5C8770684B8F82E9ADE880FB05CCFB53C969170CD40E9746A3703F241C9023EC DUP2 DUP5 DUP5 PUSH1 0x40 MLOAD PUSH2 0x8F0 SWAP4 SWAP3 SWAP2 SWAP1 PUSH2 0x2B7F JUMP JUMPDEST PUSH1 0x40 MLOAD DUP1 SWAP2 SUB SWAP1 LOG1 SWAP3 SWAP2 POP POP JUMP JUMPDEST PUSH1 0x3E PUSH1 0x20 MSTORE DUP1 PUSH1 0x0 MSTORE PUSH1 0x40 PUSH1 0x0 KECCAK256 PUSH1 0x0 SWAP2 POP SWAP1 POP SLOAD DUP2 JUMP JUMPDEST PUSH1 0x3C PUSH1 0x20 MSTORE DUP1 PUSH1 0x0 MSTORE PUSH1 0x40 PUSH1 0x0 KECCAK256 PUSH1 0x0 SWAP2 POP SLOAD SWAP1 PUSH2 0x100 EXP SWAP1 DIV PUSH1 0xFF AND DUP2 JUMP JUMPDEST PUSH1 0x3B PUSH1 0x0 SWAP1 SLOAD SWAP1 PUSH2 0x100 EXP SWAP1 DIV PUSH20 0xFFFFFFFFFFFFFFFFFFFFFFFFFFFFFFFFFFFFFFFF AND DUP2 JUMP JUMPDEST PUSH2 0x988 PUSH32 0xA6E2BBE1DBDF9E15006294B295AC3CCD7F5DD5712AFB0944DE0C6286BA83256C PUSH1 0x0 SHL PUSH2 0x55D JUMP JUMPDEST PUSH2 0x9B4 PUSH32 0x111C8C4A2B078F564FD847E1EE22A4F13870A7FACDC50DF310CACF24344A4430 PUSH1 0x0 SHL PUSH2 0x55D JUMP JUMPDEST PUSH2 0x9E0 PUSH32 0x7F5D42B4BF0E07432461A1CA80975309F26C7D45C4B4B65EE1C1259D5C06EB9C PUSH1 0x0 SHL PUSH2 0x55D JUMP JUMPDEST PUSH2 0xA0C PUSH32 0x9333839AE905C5D43DBE3BE67A941145CA9B22E68B4E4F0DB9D0D55197DEE723 PUSH1 0x0 SHL PUSH2 0x55D JUMP JUMPDEST PUSH1 0x41 SLOAD NUMBER LT ISZERO PUSH2 0xA51 JUMPI PUSH1 0x40 MLOAD PUSH32 0x8C379A000000000000000000000000000000000000000000000000000000000 DUP2 MSTORE PUSH1 0x4 ADD PUSH2 0xA48 SWAP1 PUSH2 0x2A84 JUMP JUMPDEST PUSH1 0x40 MLOAD DUP1 SWAP2 SUB SWAP1 REVERT JUMPDEST PUSH2 0xA7D PUSH32 0xEDB8EF83182D47BE3EA22907619624A7C8FDA038F17D623A4A7641B0403760DA PUSH1 0x0 SHL PUSH2 0x55D JUMP JUMPDEST PUSH2 0xAA9 PUSH32 0xE9CFFFA14304668B4EA956EE6C0A5DA5969E376244C15FF0298B3D56E5C29278 PUSH1 0x0 SHL PUSH2 0x55D JUMP JUMPDEST PUSH2 0xAD5 PUSH32 0x5F11BBC68EEC5E48241EF10D016B1880BB75017FF2032323C93FBFB9687DD26A PUSH1 0x0 SHL PUSH2 0x55D JUMP JUMPDEST PUSH2 0xAE1 DUP5 DUP5 DUP5 DUP5 PUSH2 0xEBE JUMP JUMPDEST PUSH2 0xB0D PUSH32 0x51816EB278E30B2B021CFAA04FF5162215A7A177E59BE3A0EC25B6F37B2257F2 PUSH1 0x0 SHL PUSH2 0x55D JUMP JUMPDEST PUSH2 0xB39 PUSH32 0x85EE5CA844F6620C6B42E4066C5CF00470A7EBC4D289FB48343BFF4C49EB7E8 PUSH1 0x0 SHL PUSH2 0x55D JUMP JUMPDEST PUSH2 0xB43 DUP5 DUP4 PUSH2 0x1381 JUMP JUMPDEST POP POP POP POP JUMP JUMPDEST PUSH1 0x3C PUSH1 0x0 CALLER PUSH20 0xFFFFFFFFFFFFFFFFFFFFFFFFFFFFFFFFFFFFFFFF AND PUSH20 0xFFFFFFFFFFFFFFFFFFFFFFFFFFFFFFFFFFFFFFFF AND DUP2 MSTORE PUSH1 0x20 ADD SWAP1 DUP2 MSTORE PUSH1 0x20 ADD PUSH1 0x0 KECCAK256 PUSH1 0x0 SWAP1 SLOAD SWAP1 PUSH2 0x100 EXP SWAP1 DIV PUSH1 0xFF AND PUSH2 0xBD5 JUMPI PUSH1 0x40 MLOAD PUSH32 0x8C379A000000000000000000000000000000000000000000000000000000000 DUP2 MSTORE PUSH1 0x4 ADD PUSH2 0xBCC SWAP1 PUSH2 0x2A44 JUMP JUMPDEST PUSH1 0x40 MLOAD DUP1 SWAP2 SUB SWAP1 REVERT JUMPDEST PUSH2 0xC01 PUSH32 0x2B2CC492780F67E81B99DA2790835CFF4C966A76E230B8BFE4B38771E0309921 PUSH1 0x0 SHL PUSH2 0x55D JUMP JUMPDEST PUSH2 0xC2D PUSH32 0x3B01E5308F0EFD34AB6F2C12AC781453BD4AAA4E770C49C3AF9D61AB8999AC01 PUSH1 0x0 SHL PUSH2 0x55D JUMP JUMPDEST PUSH2 0xC59 PUSH32 0x149BB2930DDB8BBF32A40F34B5AC60A54FA5C403F47AFEB161325F53BA5EFDB7 PUSH1 0x0 SHL PUSH2 0x55D JUMP JUMPDEST PUSH1 0x0 DUP1 SHL PUSH1 0x3E PUSH1 0x0 DUP4 DUP2 MSTORE PUSH1 0x20 ADD SWAP1 DUP2 MSTORE PUSH1 0x20 ADD PUSH1 0x0 KECCAK256 DUP2 SWAP1 SSTORE POP PUSH2 0xCA0 PUSH32 0x94A5A21DAC1B300158FD9CB471761D92F30EEE68B7C48BB6D3049A067185F577 PUSH1 0x0 SHL PUSH2 0x55D JUMP JUMPDEST PUSH2 0xCCC PUSH32 0x653FB204E53B634CAB113EC67C40C7DF6D499EC3EF98CBFD0DA2B2E58FDD7299 PUSH1 0x0 SHL PUSH2 0x55D JUMP JUMPDEST PUSH32 0xCC071CBD9AE50A4C78D1153B76BD2D46BA8D4C7662842718EC3DE1D67A144DAF DUP2 PUSH1 0x40 MLOAD PUSH2 0xCFB SWAP2 SWAP1 PUSH2 0x2B64 JUMP JUMPDEST PUSH1 0x40 MLOAD DUP1 SWAP2 SUB SWAP1 LOG1 POP JUMP JUMPDEST PUSH1 0x0 PUSH2 0xD34 PUSH32 0x9C8233C067002BE1C070079F4700A35DDCE7E6F69B4801118E9B9D68C68F3ECD PUSH1 0x0 SHL PUSH2 0x55D JUMP JUMPDEST PUSH2 0xD60 PUSH32 0x1D1183438F58451BE1FCAAC2BE0EF4AF2CBE38CF5A088D86572C10EBBC574B6A PUSH1 0x0 SHL PUSH2 0x55D JUMP JUMPDEST PUSH2 0xD8C PUSH32 0x92D3B53AB6B58EE105377C3D6EB337CB0F1703BDAB77830220A7B79DFF9CF382 PUSH1 0x0 SHL PUSH2 0x55D JUMP JUMPDEST PUSH2 0xD98 DUP6 DUP6 DUP6 DUP6 PUSH2 0x15A7 JUMP JUMPDEST SWAP1 POP SWAP5 SWAP4 POP POP POP POP JUMP JUMPDEST PUSH1 0x3D PUSH1 0x0 SWAP1 SLOAD SWAP1 PUSH2 0x100 EXP SWAP1 DIV PUSH20 0xFFFFFFFFFFFFFFFFFFFFFFFFFFFFFFFFFFFFFFFF AND DUP2 JUMP JUMPDEST PUSH1 0x0 DUP1 ADDRESS SWAP1 POP PUSH1 0x0 DUP2 EXTCODESIZE SWAP1 POP PUSH1 0x0 DUP2 EQ SWAP3 POP POP POP SWAP1 JUMP JUMPDEST PUSH2 0xDE8 DUP3 PUSH2 0x16DB JUMP JUMPDEST PUSH1 0x0 DUP2 MLOAD GT PUSH2 0xE2C JUMPI PUSH1 0x40 MLOAD PUSH32 0x8C379A000000000000000000000000000000000000000000000000000000000 DUP2 MSTORE PUSH1 0x4 ADD PUSH2 0xE23 SWAP1 PUSH2 0x2A24 JUMP JUMPDEST PUSH1 0x40 MLOAD DUP1 SWAP2 SUB SWAP1 REVERT JUMPDEST PUSH1 0x0 DUP1 SWAP1 POP JUMPDEST DUP2 MLOAD DUP2 LT ISZERO PUSH2 0xE64 JUMPI PUSH2 0xE57 DUP3 DUP3 DUP2 MLOAD DUP2 LT PUSH2 0xE4A JUMPI INVALID JUMPDEST PUSH1 0x20 MUL PUSH1 0x20 ADD ADD MLOAD PUSH2 0x1797 JUMP JUMPDEST DUP1 DUP1 PUSH1 0x1 ADD SWAP2 POP POP PUSH2 0xE32 JUMP JUMPDEST POP POP POP JUMP JUMPDEST PUSH1 0x0 DUP1 DUP3 DUP5 ADD SWAP1 POP DUP4 DUP2 LT ISZERO PUSH2 0xEB4 JUMPI PUSH1 0x40 MLOAD PUSH32 0x8C379A000000000000000000000000000000000000000000000000000000000 DUP2 MSTORE PUSH1 0x4 ADD PUSH2 0xEAB SWAP1 PUSH2 0x29E4 JUMP JUMPDEST PUSH1 0x40 MLOAD DUP1 SWAP2 SUB SWAP1 REVERT JUMPDEST DUP1 SWAP2 POP POP SWAP3 SWAP2 POP POP JUMP JUMPDEST PUSH2 0xEEA PUSH32 0x62DD8E58D7681B11F417951021756A3ECF06A56A2DDCFCCBFAAAFDD2C4CDEDCE PUSH1 0x0 SHL PUSH2 0x55D JUMP JUMPDEST PUSH2 0xF16 PUSH32 0x1F477940CDA36E2CEA1CE5C146D34A3DD3C856F8259232E15A1617C825730C00 PUSH1 0x0 SHL PUSH2 0x55D JUMP JUMPDEST PUSH2 0xF42 PUSH32 0x5D297EC13232DDB9F79E84E34760AC2DB030E72C96591DF61B2467769147F8EE PUSH1 0x0 SHL PUSH2 0x55D JUMP JUMPDEST PUSH2 0xF6E PUSH32 0x4E1FD4FDFDF261ABC0C2C53995B5EA325ECBF7DC02CDF0230634219735063B64 PUSH1 0x0 SHL PUSH2 0x55D JUMP JUMPDEST PUSH1 0x40 SLOAD DUP4 LT PUSH2 0xFB2 JUMPI PUSH1 0x40 MLOAD PUSH32 0x8C379A000000000000000000000000000000000000000000000000000000000 DUP2 MSTORE PUSH1 0x4 ADD PUSH2 0xFA9 SWAP1 PUSH2 0x29A4 JUMP JUMPDEST PUSH1 0x40 MLOAD DUP1 SWAP2 SUB SWAP1 REVERT JUMPDEST PUSH2 0xFDE PUSH32 0x41B7BAD126935CF0E49D4C8CFDA5410D5043C3B32AAEB7033EA28A0FA4178853 PUSH1 0x0 SHL PUSH2 0x55D JUMP JUMPDEST PUSH2 0x100A PUSH32 0xD6FF52460B507F4C03005125C2F080E414447E97C3C500EA493C66FCC1B12213 PUSH1 0x0 SHL PUSH2 0x55D JUMP JUMPDEST PUSH2 0x1036 PUSH32 0x7D58167B0EBA7850161C67E7A0FEF05497BB8CFCD1FA4A0C79C23D41289CB5A7 PUSH1 0x0 SHL PUSH2 0x55D JUMP JUMPDEST PUSH2 0x1062 PUSH32 0x64B8F65C70ADD4A3E0254F4204073C27C6E5102306AAE9EDB4E83CFF57C2E58D PUSH1 0x0 SHL PUSH2 0x55D JUMP JUMPDEST PUSH1 0x3F PUSH1 0x0 DUP5 DUP2 MSTORE PUSH1 0x20 ADD SWAP1 DUP2 MSTORE PUSH1 0x20 ADD PUSH1 0x0 KECCAK256 PUSH1 0x0 DUP6 PUSH20 0xFFFFFFFFFFFFFFFFFFFFFFFFFFFFFFFFFFFFFFFF AND PUSH20 0xFFFFFFFFFFFFFFFFFFFFFFFFFFFFFFFFFFFFFFFF AND DUP2 MSTORE PUSH1 0x20 ADD SWAP1 DUP2 MSTORE PUSH1 0x20 ADD PUSH1 0x0 KECCAK256 PUSH1 0x0 SWAP1 SLOAD SWAP1 PUSH2 0x100 EXP SWAP1 DIV PUSH1 0xFF AND ISZERO PUSH2 0x1100 JUMPI PUSH1 0x40 MLOAD PUSH32 0x8C379A000000000000000000000000000000000000000000000000000000000 DUP2 MSTORE PUSH1 0x4 ADD PUSH2 0x10F7 SWAP1 PUSH2 0x2AE4 JUMP JUMPDEST PUSH1 0x40 MLOAD DUP1 SWAP2 SUB SWAP1 REVERT JUMPDEST PUSH2 0x112C PUSH32 0x748729CAA29F4074382072BC8CBEA0F22F65F9B791C4EB2B45CB1A3C7E820065 PUSH1 0x0 SHL PUSH2 0x55D JUMP JUMPDEST PUSH2 0x1158 PUSH32 0xFA8E0B3CF76EF5F20D8CF3B5C06C934ED841C90C1A79124D5F6E68A7CDF877FC PUSH1 0x0 SHL PUSH2 0x55D JUMP JUMPDEST PUSH2 0x1184 PUSH32 0x73389AA21EDBFC19C4414D6A54245028D57D5948494A93178E6DA52C92F1EECF PUSH1 0x0 SHL PUSH2 0x55D JUMP JUMPDEST PUSH2 0x11B0 PUSH32 0xDF34D0D104A159D0F6B4B0922CFA57A8A31EE552AA5C7B88E19A0214922D301D PUSH1 0x0 SHL PUSH2 0x55D JUMP JUMPDEST PUSH2 0x11BC DUP5 DUP5 DUP5 DUP5 PUSH2 0x15A7 JUMP JUMPDEST PUSH2 0x11FB JUMPI PUSH1 0x40 MLOAD PUSH32 0x8C379A000000000000000000000000000000000000000000000000000000000 DUP2 MSTORE PUSH1 0x4 ADD PUSH2 0x11F2 SWAP1 PUSH2 0x29C4 JUMP JUMPDEST PUSH1 0x40 MLOAD DUP1 SWAP2 SUB SWAP1 REVERT JUMPDEST PUSH2 0x1227 PUSH32 0x6DB0371C8CF4830CBD86CF130E03C0AD5E8249A515A99CAB3C34AB95672AA59C PUSH1 0x0 SHL PUSH2 0x55D JUMP JUMPDEST PUSH2 0x1253 PUSH32 0x31CF5432E8D13EE3064537EF7E000CC71E4B7F15820317B76A9F8A35CC7760F9 PUSH1 0x0 SHL PUSH2 0x55D JUMP JUMPDEST PUSH2 0x127F PUSH32 0xCFA92C7E207945F49F0F3A9E9E91322A8D545A32D380EF3D9CBF8FE7EC87035C PUSH1 0x0 SHL PUSH2 0x55D JUMP JUMPDEST PUSH1 0x1 PUSH1 0x3F PUSH1 0x0 DUP6 DUP2 MSTORE PUSH1 0x20 ADD SWAP1 DUP2 MSTORE PUSH1 0x20 ADD PUSH1 0x0 KECCAK256 PUSH1 0x0 DUP7 PUSH20 0xFFFFFFFFFFFFFFFFFFFFFFFFFFFFFFFFFFFFFFFF AND PUSH20 0xFFFFFFFFFFFFFFFFFFFFFFFFFFFFFFFFFFFFFFFF AND DUP2 MSTORE PUSH1 0x20 ADD SWAP1 DUP2 MSTORE PUSH1 0x20 ADD PUSH1 0x0 KECCAK256 PUSH1 0x0 PUSH2 0x100 EXP DUP2 SLOAD DUP2 PUSH1 0xFF MUL NOT AND SWAP1 DUP4 ISZERO ISZERO MUL OR SWAP1 SSTORE POP PUSH2 0x1314 PUSH32 0xD5B24045503A2971FE34C78072D8311C9B666410A3A71D8C82B041D56845A56A PUSH1 0x0 SHL PUSH2 0x55D JUMP JUMPDEST PUSH2 0x1340 PUSH32 0x6FF9F3F4CBEADF55A5CE49E723D78418DA28273254ABF427BE3B87087353C36D PUSH1 0x0 SHL PUSH2 0x55D JUMP JUMPDEST PUSH32 0x987D620F307FF6B94D58743CB7A7509F24071586A77759B77C2D4E29F75A2F9A DUP5 DUP5 DUP5 PUSH1 0x40 MLOAD PUSH2 0x1373 SWAP4 SWAP3 SWAP2 SWAP1 PUSH2 0x28E1 JUMP JUMPDEST PUSH1 0x40 MLOAD DUP1 SWAP2 SUB SWAP1 LOG1 POP POP POP POP JUMP JUMPDEST PUSH2 0x13AD PUSH32 0xA885C98C8733DEDD8C1F63B566975D4316C5687EFD8722EE541C9DF2354D2885 PUSH1 0x0 SHL PUSH2 0x55D JUMP JUMPDEST PUSH2 0x13D9 PUSH32 0x588D0BA20736467CAA6923EBBC4D495CBBB0BFFE093AF1AA2ADADFA3B6ED05D6 PUSH1 0x0 SHL PUSH2 0x55D JUMP JUMPDEST PUSH2 0x1405 PUSH32 0xE58B5694DB209A5FBF88ED77CA30AE6D35C7E59FF72A5E9B0FF36C8DE94793DE PUSH1 0x0 SHL PUSH2 0x55D JUMP JUMPDEST PUSH1 0x0 DUP2 GT ISZERO PUSH2 0x14E4 JUMPI PUSH2 0x143A PUSH32 0x88B91490E5EECC663CBAA5A7B27D174FA6AFBFDEE7F2884498FED46BE56F001C PUSH1 0x0 SHL PUSH2 0x55D JUMP JUMPDEST PUSH2 0x1466 PUSH32 0xE6A589C9B7F4B7C489608FEBDAA24405D4A6767A207C3EFC7FE2B81B73BA8E1C PUSH1 0x0 SHL PUSH2 0x55D JUMP JUMPDEST PUSH2 0x1492 PUSH32 0xF9E20DEF4C5F4CF51511BC6CC4AEC609C2290C380FD61B56168AC8B96CDE8AF2 PUSH1 0x0 SHL PUSH2 0x55D JUMP JUMPDEST PUSH2 0x14DF DUP3 DUP3 PUSH1 0x3D PUSH1 0x0 SWAP1 SLOAD SWAP1 PUSH2 0x100 EXP SWAP1 DIV PUSH20 0xFFFFFFFFFFFFFFFFFFFFFFFFFFFFFFFFFFFFFFFF AND PUSH20 0xFFFFFFFFFFFFFFFFFFFFFFFFFFFFFFFFFFFFFFFF AND PUSH2 0x1932 SWAP1 SWAP3 SWAP2 SWAP1 PUSH4 0xFFFFFFFF AND JUMP JUMPDEST PUSH2 0x15A3 JUMP JUMPDEST PUSH2 0x1510 PUSH32 0x694A8B39363E7ED3CF640665F720063F82FCAA5E6BA8897B2E69F654AFBE7B27 PUSH1 0x0 SHL PUSH2 0x55D JUMP JUMPDEST PUSH2 0x153C PUSH32 0x6544268598BCDAAC261A0DFF82182FBC05D37291AC33598D817254BB051349B5 PUSH1 0x0 SHL PUSH2 0x55D JUMP JUMPDEST PUSH2 0x1568 PUSH32 0x45724B4920EF09ABB5D120504631E9D00CE5612E02206B4AECD80FCFFEF2CFF PUSH1 0x0 SHL PUSH2 0x55D JUMP JUMPDEST PUSH1 0x40 MLOAD PUSH32 0x8C379A000000000000000000000000000000000000000000000000000000000 DUP2 MSTORE PUSH1 0x4 ADD PUSH2 0x159A SWAP1 PUSH2 0x2AC4 JUMP JUMPDEST PUSH1 0x40 MLOAD DUP1 SWAP2 SUB SWAP1 REVERT JUMPDEST POP POP JUMP JUMPDEST PUSH1 0x0 PUSH2 0x15D5 PUSH32 0xDFE2D3E934BECB95184792626A7EE97D97DE324580F907E9A3C97AC321A891C4 PUSH1 0x0 SHL PUSH2 0x55D JUMP JUMPDEST PUSH2 0x1601 PUSH32 0xB048AB653FB0066BAB3F20EEC6C4033C39D59D67861689B3235ACC75F3887E37 PUSH1 0x0 SHL PUSH2 0x55D JUMP JUMPDEST PUSH2 0x162D PUSH32 0xC60D7A529F90012B4A3ECD2ADFF6D4E95559216B7C3C9C2EFBAB35E24FFA3DA4 PUSH1 0x0 SHL PUSH2 0x55D JUMP JUMPDEST PUSH1 0x0 DUP6 DUP5 PUSH1 0x40 MLOAD PUSH1 0x20 ADD PUSH2 0x1642 SWAP3 SWAP2 SWAP1 PUSH2 0x276A JUMP JUMPDEST PUSH1 0x40 MLOAD PUSH1 0x20 DUP2 DUP4 SUB SUB DUP2 MSTORE SWAP1 PUSH1 0x40 MSTORE DUP1 MLOAD SWAP1 PUSH1 0x20 ADD KECCAK256 SWAP1 POP PUSH2 0x1686 PUSH32 0x5E37AA4868F1102FAF8C20C13FD9E9E3405D1B16DF1024F981A1113CBE556110 PUSH1 0x0 SHL PUSH2 0x55D JUMP JUMPDEST PUSH2 0x16B2 PUSH32 0xF2A3B28C0D38B98BCDECAB870E8C16CCFEE94D2B93DF5038C499EF6E699642E4 PUSH1 0x0 SHL PUSH2 0x55D JUMP JUMPDEST PUSH2 0x16D0 DUP4 PUSH1 0x3E PUSH1 0x0 DUP9 DUP2 MSTORE PUSH1 0x20 ADD SWAP1 DUP2 MSTORE PUSH1 0x20 ADD PUSH1 0x0 KECCAK256 SLOAD DUP4 PUSH2 0x19D1 JUMP JUMPDEST SWAP2 POP POP SWAP5 SWAP4 POP POP POP POP JUMP JUMPDEST PUSH1 0x0 PUSH20 0xFFFFFFFFFFFFFFFFFFFFFFFFFFFFFFFFFFFFFFFF AND DUP2 PUSH20 0xFFFFFFFFFFFFFFFFFFFFFFFFFFFFFFFFFFFFFFFF AND EQ ISZERO PUSH2 0x174B JUMPI PUSH1 0x40 MLOAD PUSH32 0x8C379A000000000000000000000000000000000000000000000000000000000 DUP2 MSTORE PUSH1 0x4 ADD PUSH2 0x1742 SWAP1 PUSH2 0x2984 JUMP JUMPDEST PUSH1 0x40 MLOAD DUP1 SWAP2 SUB SWAP1 REVERT JUMPDEST DUP1 PUSH1 0x3B PUSH1 0x0 PUSH2 0x100 EXP DUP2 SLOAD DUP2 PUSH20 0xFFFFFFFFFFFFFFFFFFFFFFFFFFFFFFFFFFFFFFFF MUL NOT AND SWAP1 DUP4 PUSH20 0xFFFFFFFFFFFFFFFFFFFFFFFFFFFFFFFFFFFFFFFF AND MUL OR SWAP1 SSTORE POP PUSH2 0x1794 PUSH2 0x1A7D JUMP JUMPDEST POP JUMP JUMPDEST PUSH1 0x0 PUSH20 0xFFFFFFFFFFFFFFFFFFFFFFFFFFFFFFFFFFFFFFFF AND DUP2 PUSH20 0xFFFFFFFFFFFFFFFFFFFFFFFFFFFFFFFFFFFFFFFF AND EQ ISZERO PUSH2 0x1807 JUMPI PUSH1 0x40 MLOAD PUSH32 0x8C379A000000000000000000000000000000000000000000000000000000000 DUP2 MSTORE PUSH1 0x4 ADD PUSH2 0x17FE SWAP1 PUSH2 0x2B04 JUMP JUMPDEST PUSH1 0x40 MLOAD DUP1 SWAP2 SUB SWAP1 REVERT JUMPDEST PUSH1 0x3C PUSH1 0x0 DUP3 PUSH20 0xFFFFFFFFFFFFFFFFFFFFFFFFFFFFFFFFFFFFFFFF AND PUSH20 0xFFFFFFFFFFFFFFFFFFFFFFFFFFFFFFFFFFFFFFFF AND DUP2 MSTORE PUSH1 0x20 ADD SWAP1 DUP2 MSTORE PUSH1 0x20 ADD PUSH1 0x0 KECCAK256 PUSH1 0x0 SWAP1 SLOAD SWAP1 PUSH2 0x100 EXP SWAP1 DIV PUSH1 0xFF AND ISZERO PUSH2 0x1894 JUMPI PUSH1 0x40 MLOAD PUSH32 0x8C379A000000000000000000000000000000000000000000000000000000000 DUP2 MSTORE PUSH1 0x4 ADD PUSH2 0x188B SWAP1 PUSH2 0x2AA4 JUMP JUMPDEST PUSH1 0x40 MLOAD DUP1 SWAP2 SUB SWAP1 REVERT JUMPDEST PUSH1 0x1 PUSH1 0x3C PUSH1 0x0 DUP4 PUSH20 0xFFFFFFFFFFFFFFFFFFFFFFFFFFFFFFFFFFFFFFFF AND PUSH20 0xFFFFFFFFFFFFFFFFFFFFFFFFFFFFFFFFFFFFFFFF AND DUP2 MSTORE PUSH1 0x20 ADD SWAP1 DUP2 MSTORE PUSH1 0x20 ADD PUSH1 0x0 KECCAK256 PUSH1 0x0 PUSH2 0x100 EXP DUP2 SLOAD DUP2 PUSH1 0xFF MUL NOT AND SWAP1 DUP4 ISZERO ISZERO MUL OR SWAP1 SSTORE POP DUP1 PUSH20 0xFFFFFFFFFFFFFFFFFFFFFFFFFFFFFFFFFFFFFFFF AND PUSH32 0xAAB7954E9D246B167EF88AEDDAD35209CA2489D95A8AEB59E288D9B19FAE5A54 PUSH1 0x40 MLOAD PUSH1 0x40 MLOAD DUP1 SWAP2 SUB SWAP1 LOG2 POP JUMP JUMPDEST PUSH2 0x19CC DUP4 DUP5 PUSH20 0xFFFFFFFFFFFFFFFFFFFFFFFFFFFFFFFFFFFFFFFF AND PUSH4 0xA9059CBB SWAP1 POP PUSH1 0xE0 SHL DUP5 DUP5 PUSH1 0x40 MLOAD PUSH1 0x24 ADD PUSH2 0x196A SWAP3 SWAP2 SWAP1 PUSH2 0x28B8 JUMP JUMPDEST PUSH1 0x40 MLOAD PUSH1 0x20 DUP2 DUP4 SUB SUB DUP2 MSTORE SWAP1 PUSH1 0x40 MSTORE SWAP1 PUSH28 0xFFFFFFFFFFFFFFFFFFFFFFFFFFFFFFFFFFFFFFFFFFFFFFFFFFFFFFFF NOT AND PUSH1 0x20 DUP3 ADD DUP1 MLOAD PUSH28 0xFFFFFFFFFFFFFFFFFFFFFFFFFFFFFFFFFFFFFFFFFFFFFFFFFFFFFFFF DUP4 DUP2 DUP4 AND OR DUP4 MSTORE POP POP POP POP PUSH2 0x1B4F JUMP JUMPDEST POP POP POP JUMP JUMPDEST PUSH1 0x0 DUP1 DUP3 SWAP1 POP PUSH1 0x0 DUP1 SWAP1 POP JUMPDEST DUP6 MLOAD DUP2 LT ISZERO PUSH2 0x1A6F JUMPI PUSH1 0x0 DUP7 DUP3 DUP2 MLOAD DUP2 LT PUSH2 0x19F4 JUMPI INVALID JUMPDEST PUSH1 0x20 MUL PUSH1 0x20 ADD ADD MLOAD SWAP1 POP DUP1 DUP4 GT PUSH2 0x1A35 JUMPI DUP3 DUP2 PUSH1 0x40 MLOAD PUSH1 0x20 ADD PUSH2 0x1A18 SWAP3 SWAP2 SWAP1 PUSH2 0x2796 JUMP JUMPDEST PUSH1 0x40 MLOAD PUSH1 0x20 DUP2 DUP4 SUB SUB DUP2 MSTORE SWAP1 PUSH1 0x40 MSTORE DUP1 MLOAD SWAP1 PUSH1 0x20 ADD KECCAK256 SWAP3 POP PUSH2 0x1A61 JUMP JUMPDEST DUP1 DUP4 PUSH1 0x40 MLOAD PUSH1 0x20 ADD PUSH2 0x1A48 SWAP3 SWAP2 SWAP1 PUSH2 0x2796 JUMP JUMPDEST PUSH1 0x40 MLOAD PUSH1 0x20 DUP2 DUP4 SUB SUB DUP2 MSTORE SWAP1 PUSH1 0x40 MSTORE DUP1 MLOAD SWAP1 PUSH1 0x20 ADD KECCAK256 SWAP3 POP JUMPDEST POP DUP1 DUP1 PUSH1 0x1 ADD SWAP2 POP POP PUSH2 0x19DD JUMP JUMPDEST POP DUP4 DUP2 EQ SWAP2 POP POP SWAP4 SWAP3 POP POP POP JUMP JUMPDEST PUSH1 0x40 MLOAD PUSH2 0x1A89 SWAP1 PUSH2 0x2842 JUMP JUMPDEST PUSH1 0x40 MLOAD DUP1 SWAP2 SUB SWAP1 KECCAK256 PUSH1 0x33 DUP2 SWAP1 SSTORE POP PUSH1 0x40 MLOAD PUSH2 0x1AA3 SWAP1 PUSH2 0x27EE JUMP JUMPDEST PUSH1 0x40 MLOAD DUP1 SWAP2 SUB SWAP1 KECCAK256 PUSH1 0x34 DUP2 SWAP1 SSTORE POP PUSH1 0x40 MLOAD PUSH2 0x1ABD SWAP1 PUSH2 0x2857 JUMP JUMPDEST PUSH1 0x40 MLOAD DUP1 SWAP2 SUB SWAP1 KECCAK256 PUSH1 0x35 DUP2 SWAP1 SSTORE POP PUSH1 0x40 MLOAD PUSH2 0x1AD7 SWAP1 PUSH2 0x282D JUMP JUMPDEST PUSH1 0x40 MLOAD DUP1 SWAP2 SUB SWAP1 KECCAK256 PUSH1 0x36 DUP2 SWAP1 SSTORE POP PUSH1 0x40 MLOAD PUSH2 0x1AF1 SWAP1 PUSH2 0x2818 JUMP JUMPDEST PUSH1 0x40 MLOAD DUP1 SWAP2 SUB SWAP1 KECCAK256 PUSH1 0x37 DUP2 SWAP1 SSTORE POP PUSH1 0x40 MLOAD PUSH2 0x1B0B SWAP1 PUSH2 0x2803 JUMP JUMPDEST PUSH1 0x40 MLOAD DUP1 SWAP2 SUB SWAP1 KECCAK256 PUSH1 0x38 DUP2 SWAP1 SSTORE POP PUSH1 0x40 MLOAD PUSH2 0x1B25 SWAP1 PUSH2 0x286C JUMP JUMPDEST PUSH1 0x40 MLOAD DUP1 SWAP2 SUB SWAP1 KECCAK256 PUSH1 0x39 DUP2 SWAP1 SSTORE POP PUSH1 0x40 MLOAD PUSH2 0x1B3F SWAP1 PUSH2 0x27D9 JUMP JUMPDEST PUSH1 0x40 MLOAD DUP1 SWAP2 SUB SWAP1 KECCAK256 PUSH1 0x3A DUP2 SWAP1 SSTORE POP JUMP JUMPDEST PUSH2 0x1B6E DUP3 PUSH20 0xFFFFFFFFFFFFFFFFFFFFFFFFFFFFFFFFFFFFFFFF AND PUSH2 0x1CC1 JUMP JUMPDEST PUSH2 0x1BAD JUMPI PUSH1 0x40 MLOAD PUSH32 0x8C379A000000000000000000000000000000000000000000000000000000000 DUP2 MSTORE PUSH1 0x4 ADD PUSH2 0x1BA4 SWAP1 PUSH2 0x2B44 JUMP JUMPDEST PUSH1 0x40 MLOAD DUP1 SWAP2 SUB SWAP1 REVERT JUMPDEST PUSH1 0x0 PUSH1 0x60 DUP4 PUSH20 0xFFFFFFFFFFFFFFFFFFFFFFFFFFFFFFFFFFFFFFFF AND DUP4 PUSH1 0x40 MLOAD PUSH2 0x1BD6 SWAP2 SWAP1 PUSH2 0x27C2 JUMP JUMPDEST PUSH1 0x0 PUSH1 0x40 MLOAD DUP1 DUP4 SUB DUP2 PUSH1 0x0 DUP7 GAS CALL SWAP2 POP POP RETURNDATASIZE DUP1 PUSH1 0x0 DUP2 EQ PUSH2 0x1C13 JUMPI PUSH1 0x40 MLOAD SWAP2 POP PUSH1 0x1F NOT PUSH1 0x3F RETURNDATASIZE ADD AND DUP3 ADD PUSH1 0x40 MSTORE RETURNDATASIZE DUP3 MSTORE RETURNDATASIZE PUSH1 0x0 PUSH1 0x20 DUP5 ADD RETURNDATACOPY PUSH2 0x1C18 JUMP JUMPDEST PUSH1 0x60 SWAP2 POP JUMPDEST POP SWAP2 POP SWAP2 POP DUP2 PUSH2 0x1C5D JUMPI PUSH1 0x40 MLOAD PUSH32 0x8C379A000000000000000000000000000000000000000000000000000000000 DUP2 MSTORE PUSH1 0x4 ADD PUSH2 0x1C54 SWAP1 PUSH2 0x2A04 JUMP JUMPDEST PUSH1 0x40 MLOAD DUP1 SWAP2 SUB SWAP1 REVERT JUMPDEST PUSH1 0x0 DUP2 MLOAD GT ISZERO PUSH2 0x1CBB JUMPI DUP1 DUP1 PUSH1 0x20 ADD SWAP1 MLOAD PUSH2 0x1C7B SWAP2 SWAP1 DUP2 ADD SWAP1 PUSH2 0x1F66 JUMP JUMPDEST PUSH2 0x1CBA JUMPI PUSH1 0x40 MLOAD PUSH32 0x8C379A000000000000000000000000000000000000000000000000000000000 DUP2 MSTORE PUSH1 0x4 ADD PUSH2 0x1CB1 SWAP1 PUSH2 0x2B24 JUMP JUMPDEST PUSH1 0x40 MLOAD DUP1 SWAP2 SUB SWAP1 REVERT JUMPDEST JUMPDEST POP POP POP POP JUMP JUMPDEST PUSH1 0x0 DUP1 PUSH1 0x0 PUSH32 0xC5D2460186F7233C927E7DB2DCC703C0E500B653CA82273B7BFAD8045D85A470 PUSH1 0x0 SHL SWAP1 POP DUP4 EXTCODEHASH SWAP2 POP DUP1 DUP3 EQ ISZERO DUP1 ISZERO PUSH2 0x1D03 JUMPI POP PUSH1 0x0 DUP1 SHL DUP3 EQ ISZERO JUMPDEST SWAP3 POP POP POP SWAP2 SWAP1 POP JUMP JUMPDEST PUSH1 0x0 DUP2 CALLDATALOAD SWAP1 POP PUSH2 0x1D1B DUP2 PUSH2 0x2D97 JUMP JUMPDEST SWAP3 SWAP2 POP POP JUMP JUMPDEST PUSH1 0x0 DUP1 DUP4 PUSH1 0x1F DUP5 ADD SLT PUSH2 0x1D33 JUMPI PUSH1 0x0 DUP1 REVERT JUMPDEST DUP3 CALLDATALOAD SWAP1 POP PUSH8 0xFFFFFFFFFFFFFFFF DUP2 GT ISZERO PUSH2 0x1D4C JUMPI PUSH1 0x0 DUP1 REVERT JUMPDEST PUSH1 0x20 DUP4 ADD SWAP2 POP DUP4 PUSH1 0x20 DUP3 MUL DUP4 ADD GT ISZERO PUSH2 0x1D64 JUMPI PUSH1 0x0 DUP1 REVERT JUMPDEST SWAP3 POP SWAP3 SWAP1 POP JUMP JUMPDEST PUSH1 0x0 DUP3 PUSH1 0x1F DUP4 ADD SLT PUSH2 0x1D7C JUMPI PUSH1 0x0 DUP1 REVERT JUMPDEST DUP2 CALLDATALOAD PUSH2 0x1D8F PUSH2 0x1D8A DUP3 PUSH2 0x2BE3 JUMP JUMPDEST PUSH2 0x2BB6 JUMP JUMPDEST SWAP2 POP DUP2 DUP2 DUP4 MSTORE PUSH1 0x20 DUP5 ADD SWAP4 POP PUSH1 0x20 DUP2 ADD SWAP1 POP DUP4 DUP6 PUSH1 0x20 DUP5 MUL DUP3 ADD GT ISZERO PUSH2 0x1DB4 JUMPI PUSH1 0x0 DUP1 REVERT JUMPDEST PUSH1 0x0 JUMPDEST DUP4 DUP2 LT ISZERO PUSH2 0x1DE4 JUMPI DUP2 PUSH2 0x1DCA DUP9 DUP3 PUSH2 0x1E03 JUMP JUMPDEST DUP5 MSTORE PUSH1 0x20 DUP5 ADD SWAP4 POP PUSH1 0x20 DUP4 ADD SWAP3 POP POP PUSH1 0x1 DUP2 ADD SWAP1 POP PUSH2 0x1DB7 JUMP JUMPDEST POP POP POP POP SWAP3 SWAP2 POP POP JUMP JUMPDEST PUSH1 0x0 DUP2 MLOAD SWAP1 POP PUSH2 0x1DFD DUP2 PUSH2 0x2DAE JUMP JUMPDEST SWAP3 SWAP2 POP POP JUMP JUMPDEST PUSH1 0x0 DUP2 CALLDATALOAD SWAP1 POP PUSH2 0x1E12 DUP2 PUSH2 0x2DC5 JUMP JUMPDEST SWAP3 SWAP2 POP POP JUMP JUMPDEST PUSH1 0x0 DUP2 CALLDATALOAD SWAP1 POP PUSH2 0x1E27 DUP2 PUSH2 0x2DDC JUMP JUMPDEST SWAP3 SWAP2 POP POP JUMP JUMPDEST PUSH1 0x0 DUP2 CALLDATALOAD SWAP1 POP PUSH2 0x1E3C DUP2 PUSH2 0x2DF3 JUMP JUMPDEST SWAP3 SWAP2 POP POP JUMP JUMPDEST PUSH1 0x0 PUSH1 0x20 DUP3 DUP5 SUB SLT ISZERO PUSH2 0x1E54 JUMPI PUSH1 0x0 DUP1 REVERT JUMPDEST PUSH1 0x0 PUSH2 0x1E62 DUP5 DUP3 DUP6 ADD PUSH2 0x1D0C JUMP JUMPDEST SWAP2 POP POP SWAP3 SWAP2 POP POP JUMP JUMPDEST PUSH1 0x0 DUP1 PUSH1 0x0 DUP1 PUSH1 0x0 PUSH1 0x80 DUP7 DUP9 SUB SLT ISZERO PUSH2 0x1E83 JUMPI PUSH1 0x0 DUP1 REVERT JUMPDEST PUSH1 0x0 PUSH2 0x1E91 DUP9 DUP3 DUP10 ADD PUSH2 0x1D0C JUMP JUMPDEST SWAP6 POP POP PUSH1 0x20 DUP7 ADD CALLDATALOAD PUSH8 0xFFFFFFFFFFFFFFFF DUP2 GT ISZERO PUSH2 0x1EAE JUMPI PUSH1 0x0 DUP1 REVERT JUMPDEST PUSH2 0x1EBA DUP9 DUP3 DUP10 ADD PUSH2 0x1D21 JUMP JUMPDEST SWAP5 POP SWAP5 POP POP PUSH1 0x40 PUSH2 0x1ECD DUP9 DUP3 DUP10 ADD PUSH2 0x1E18 JUMP JUMPDEST SWAP3 POP POP PUSH1 0x60 PUSH2 0x1EDE DUP9 DUP3 DUP10 ADD PUSH2 0x1E2D JUMP JUMPDEST SWAP2 POP POP SWAP3 SWAP6 POP SWAP3 SWAP6 SWAP1 SWAP4 POP JUMP JUMPDEST PUSH1 0x0 DUP1 PUSH1 0x0 DUP1 PUSH1 0x80 DUP6 DUP8 SUB SLT ISZERO PUSH2 0x1F01 JUMPI PUSH1 0x0 DUP1 REVERT JUMPDEST PUSH1 0x0 PUSH2 0x1F0F DUP8 DUP3 DUP9 ADD PUSH2 0x1D0C JUMP JUMPDEST SWAP5 POP POP PUSH1 0x20 PUSH2 0x1F20 DUP8 DUP3 DUP9 ADD PUSH2 0x1E2D JUMP JUMPDEST SWAP4 POP POP PUSH1 0x40 PUSH2 0x1F31 DUP8 DUP3 DUP9 ADD PUSH2 0x1E2D JUMP JUMPDEST SWAP3 POP POP PUSH1 0x60 DUP6 ADD CALLDATALOAD PUSH8 0xFFFFFFFFFFFFFFFF DUP2 GT ISZERO PUSH2 0x1F4E JUMPI PUSH1 0x0 DUP1 REVERT JUMPDEST PUSH2 0x1F5A DUP8 DUP3 DUP9 ADD PUSH2 0x1D6B JUMP JUMPDEST SWAP2 POP POP SWAP3 SWAP6 SWAP2 SWAP5 POP SWAP3 POP JUMP JUMPDEST PUSH1 0x0 PUSH1 0x20 DUP3 DUP5 SUB SLT ISZERO PUSH2 0x1F78 JUMPI PUSH1 0x0 DUP1 REVERT JUMPDEST PUSH1 0x0 PUSH2 0x1F86 DUP5 DUP3 DUP6 ADD PUSH2 0x1DEE JUMP JUMPDEST SWAP2 POP POP SWAP3 SWAP2 POP POP JUMP JUMPDEST PUSH1 0x0 PUSH1 0x20 DUP3 DUP5 SUB SLT ISZERO PUSH2 0x1FA1 JUMPI PUSH1 0x0 DUP1 REVERT JUMPDEST PUSH1 0x0 PUSH2 0x1FAF DUP5 DUP3 DUP6 ADD PUSH2 0x1E03 JUMP JUMPDEST SWAP2 POP POP SWAP3 SWAP2 POP POP JUMP JUMPDEST PUSH1 0x0 DUP1 PUSH1 0x40 DUP4 DUP6 SUB SLT ISZERO PUSH2 0x1FCB JUMPI PUSH1 0x0 DUP1 REVERT JUMPDEST PUSH1 0x0 PUSH2 0x1FD9 DUP6 DUP3 DUP7 ADD PUSH2 0x1E03 JUMP JUMPDEST SWAP3 POP POP PUSH1 0x20 PUSH2 0x1FEA DUP6 DUP3 DUP7 ADD PUSH2 0x1E2D JUMP JUMPDEST SWAP2 POP POP SWAP3 POP SWAP3 SWAP1 POP JUMP JUMPDEST PUSH1 0x0 PUSH1 0x20 DUP3 DUP5 SUB SLT ISZERO PUSH2 0x2006 JUMPI PUSH1 0x0 DUP1 REVERT JUMPDEST PUSH1 0x0 PUSH2 0x2014 DUP5 DUP3 DUP6 ADD PUSH2 0x1E2D JUMP JUMPDEST SWAP2 POP POP SWAP3 SWAP2 POP POP JUMP JUMPDEST PUSH1 0x0 DUP1 PUSH1 0x40 DUP4 DUP6 SUB SLT ISZERO PUSH2 0x2030 JUMPI PUSH1 0x0 DUP1 REVERT JUMPDEST PUSH1 0x0 PUSH2 0x203E DUP6 DUP3 DUP7 ADD PUSH2 0x1E2D JUMP JUMPDEST SWAP3 POP POP PUSH1 0x20 PUSH2 0x204F DUP6 DUP3 DUP7 ADD PUSH2 0x1D0C JUMP JUMPDEST SWAP2 POP POP SWAP3 POP SWAP3 SWAP1 POP JUMP JUMPDEST PUSH2 0x2062 DUP2 PUSH2 0x2CA1 JUMP JUMPDEST DUP3 MSTORE POP POP JUMP JUMPDEST PUSH2 0x2071 DUP2 PUSH2 0x2C3D JUMP JUMPDEST DUP3 MSTORE POP POP JUMP JUMPDEST PUSH2 0x2088 PUSH2 0x2083 DUP3 PUSH2 0x2C3D JUMP JUMPDEST PUSH2 0x2D52 JUMP JUMPDEST DUP3 MSTORE POP POP JUMP JUMPDEST PUSH2 0x2097 DUP2 PUSH2 0x2C4F JUMP JUMPDEST DUP3 MSTORE POP POP JUMP JUMPDEST PUSH2 0x20A6 DUP2 PUSH2 0x2C5B JUMP JUMPDEST DUP3 MSTORE POP POP JUMP JUMPDEST PUSH2 0x20BD PUSH2 0x20B8 DUP3 PUSH2 0x2C5B JUMP JUMPDEST PUSH2 0x2D64 JUMP JUMPDEST DUP3 MSTORE POP POP JUMP JUMPDEST PUSH1 0x0 PUSH2 0x20CE DUP3 PUSH2 0x2C0B JUMP JUMPDEST PUSH2 0x20D8 DUP2 DUP6 PUSH2 0x2C16 JUMP JUMPDEST SWAP4 POP PUSH2 0x20E8 DUP2 DUP6 PUSH1 0x20 DUP7 ADD PUSH2 0x2D1F JUMP JUMPDEST DUP1 DUP5 ADD SWAP2 POP POP SWAP3 SWAP2 POP POP JUMP JUMPDEST PUSH2 0x20FD DUP2 PUSH2 0x2CB3 JUMP JUMPDEST DUP3 MSTORE POP POP JUMP JUMPDEST PUSH2 0x210C DUP2 PUSH2 0x2CD7 JUMP JUMPDEST DUP3 MSTORE POP POP JUMP JUMPDEST PUSH1 0x0 PUSH2 0x211F PUSH1 0x15 DUP4 PUSH2 0x2C21 JUMP JUMPDEST SWAP2 POP PUSH32 0x4E657875732061646472657373206973207A65726F0000000000000000000000 PUSH1 0x0 DUP4 ADD MSTORE PUSH1 0x20 DUP3 ADD SWAP1 POP SWAP2 SWAP1 POP JUMP JUMPDEST PUSH1 0x0 PUSH2 0x215F PUSH1 0xE DUP4 PUSH2 0x2C32 JUMP JUMPDEST SWAP2 POP PUSH32 0x536176696E67734D616E61676572000000000000000000000000000000000000 PUSH1 0x0 DUP4 ADD MSTORE PUSH1 0xE DUP3 ADD SWAP1 POP SWAP2 SWAP1 POP JUMP JUMPDEST PUSH1 0x0 PUSH2 0x219F PUSH1 0x1C DUP4 PUSH2 0x2C21 JUMP JUMPDEST SWAP2 POP PUSH32 0x5765656B2063616E6E6F7420626520696E207468652066757475726500000000 PUSH1 0x0 DUP4 ADD MSTORE PUSH1 0x20 DUP3 ADD SWAP1 POP SWAP2 SWAP1 POP JUMP JUMPDEST PUSH1 0x0 PUSH2 0x21DF PUSH1 0x7 DUP4 PUSH2 0x2C32 JUMP JUMPDEST SWAP2 POP PUSH32 0x5374616B696E6700000000000000000000000000000000000000000000000000 PUSH1 0x0 DUP4 ADD MSTORE PUSH1 0x7 DUP3 ADD SWAP1 POP SWAP2 SWAP1 POP JUMP JUMPDEST PUSH1 0x0 PUSH2 0x221F PUSH1 0x16 DUP4 PUSH2 0x2C21 JUMP JUMPDEST SWAP2 POP PUSH32 0x496E636F7272656374206D65726B6C652070726F6F6600000000000000000000 PUSH1 0x0 DUP4 ADD MSTORE PUSH1 0x20 DUP3 ADD SWAP1 POP SWAP2 SWAP1 POP JUMP JUMPDEST PUSH1 0x0 PUSH2 0x225F PUSH1 0x1B DUP4 PUSH2 0x2C21 JUMP JUMPDEST SWAP2 POP PUSH32 0x536166654D6174683A206164646974696F6E206F766572666C6F770000000000 PUSH1 0x0 DUP4 ADD MSTORE PUSH1 0x20 DUP3 ADD SWAP1 POP SWAP2 SWAP1 POP JUMP JUMPDEST PUSH1 0x0 PUSH2 0x229F PUSH1 0x10 DUP4 PUSH2 0x2C32 JUMP JUMPDEST SWAP2 POP PUSH32 0x5265636F6C6C61746572616C6973657200000000000000000000000000000000 PUSH1 0x0 DUP4 ADD MSTORE PUSH1 0x10 DUP3 ADD SWAP1 POP SWAP2 SWAP1 POP JUMP JUMPDEST PUSH1 0x0 PUSH2 0x22DF PUSH1 0x20 DUP4 PUSH2 0x2C21 JUMP JUMPDEST SWAP2 POP PUSH32 0x5361666545524332303A206C6F772D6C6576656C2063616C6C206661696C6564 PUSH1 0x0 DUP4 ADD MSTORE PUSH1 0x20 DUP3 ADD SWAP1 POP SWAP2 SWAP1 POP JUMP JUMPDEST PUSH1 0x0 PUSH2 0x231F PUSH1 0x7 DUP4 PUSH2 0x2C32 JUMP JUMPDEST SWAP2 POP PUSH32 0x4D616E6167657200000000000000000000000000000000000000000000000000 PUSH1 0x0 DUP4 ADD MSTORE PUSH1 0x7 DUP3 ADD SWAP1 POP SWAP2 SWAP1 POP JUMP JUMPDEST PUSH1 0x0 PUSH2 0x235F PUSH1 0x15 DUP4 PUSH2 0x2C21 JUMP JUMPDEST SWAP2 POP PUSH32 0x456D7074792077686974656C6973742061727261790000000000000000000000 PUSH1 0x0 DUP4 ADD MSTORE PUSH1 0x20 DUP3 ADD SWAP1 POP SWAP2 SWAP1 POP JUMP JUMPDEST PUSH1 0x0 PUSH2 0x239F PUSH1 0x19 DUP4 PUSH2 0x2C21 JUMP JUMPDEST SWAP2 POP PUSH32 0x4E6F7420612077686974656C6973746564206164647265737300000000000000 PUSH1 0x0 DUP4 ADD MSTORE PUSH1 0x20 DUP3 ADD SWAP1 POP SWAP2 SWAP1 POP JUMP JUMPDEST PUSH1 0x0 PUSH2 0x23DF PUSH1 0x9 DUP4 PUSH2 0x2C32 JUMP JUMPDEST SWAP2 POP PUSH32 0x4F7261636C654875620000000000000000000000000000000000000000000000 PUSH1 0x0 DUP4 ADD MSTORE PUSH1 0x9 DUP3 ADD SWAP1 POP SWAP2 SWAP1 POP JUMP JUMPDEST PUSH1 0x0 PUSH2 0x241F PUSH1 0xA DUP4 PUSH2 0x2C32 JUMP JUMPDEST SWAP2 POP PUSH32 0x476F7665726E616E636500000000000000000000000000000000000000000000 PUSH1 0x0 DUP4 ADD MSTORE PUSH1 0xA DUP3 ADD SWAP1 POP SWAP2 SWAP1 POP JUMP JUMPDEST PUSH1 0x0 PUSH2 0x245F PUSH1 0xA DUP4 PUSH2 0x2C32 JUMP JUMPDEST SWAP2 POP PUSH32 0x50726F787941646D696E00000000000000000000000000000000000000000000 PUSH1 0x0 DUP4 ADD MSTORE PUSH1 0xA DUP3 ADD SWAP1 POP SWAP2 SWAP1 POP JUMP JUMPDEST PUSH1 0x0 PUSH2 0x249F PUSH1 0x2E DUP4 PUSH2 0x2C21 JUMP JUMPDEST SWAP2 POP PUSH32 0x436F6E747261637420696E7374616E63652068617320616C7265616479206265 PUSH1 0x0 DUP4 ADD MSTORE PUSH32 0x656E20696E697469616C697A6564000000000000000000000000000000000000 PUSH1 0x20 DUP4 ADD MSTORE PUSH1 0x40 DUP3 ADD SWAP1 POP SWAP2 SWAP1 POP JUMP JUMPDEST PUSH1 0x0 PUSH2 0x2505 PUSH1 0x1D DUP4 PUSH2 0x2C21 JUMP JUMPDEST SWAP2 POP PUSH32 0x5265776172647320617265206E6F742079657420636C61696D61626C65000000 PUSH1 0x0 DUP4 ADD MSTORE PUSH1 0x20 DUP3 ADD SWAP1 POP SWAP2 SWAP1 POP JUMP JUMPDEST PUSH1 0x0 PUSH2 0x2545 PUSH1 0x13 DUP4 PUSH2 0x2C21 JUMP JUMPDEST SWAP2 POP PUSH32 0x416C72656164792077686974656C697374656400000000000000000000000000 PUSH1 0x0 DUP4 ADD MSTORE PUSH1 0x20 DUP3 ADD SWAP1 POP SWAP2 SWAP1 POP JUMP JUMPDEST PUSH1 0x0 PUSH2 0x2585 PUSH1 0x3D DUP4 PUSH2 0x2C21 JUMP JUMPDEST SWAP2 POP PUSH32 0x4E6F2062616C616E636520776F756C64206265207472616E7366657272656420 PUSH1 0x0 DUP4 ADD MSTORE PUSH32 0x2D206E6F7420676F696E6720746F20776173746520796F757220676173000000 PUSH1 0x20 DUP4 ADD MSTORE PUSH1 0x40 DUP3 ADD SWAP1 POP SWAP2 SWAP1 POP JUMP JUMPDEST PUSH1 0x0 PUSH2 0x25EB PUSH1 0x16 DUP4 PUSH2 0x2C21 JUMP JUMPDEST SWAP2 POP PUSH32 0x4C502068617320616C726561647920636C61696D656400000000000000000000 PUSH1 0x0 DUP4 ADD MSTORE PUSH1 0x20 DUP3 ADD SWAP1 POP SWAP2 SWAP1 POP JUMP JUMPDEST PUSH1 0x0 PUSH2 0x262B PUSH1 0xF DUP4 PUSH2 0x2C21 JUMP JUMPDEST SWAP2 POP PUSH32 0x41646472657373206973207A65726F0000000000000000000000000000000000 PUSH1 0x0 DUP4 ADD MSTORE PUSH1 0x20 DUP3 ADD SWAP1 POP SWAP2 SWAP1 POP JUMP JUMPDEST PUSH1 0x0 PUSH2 0x266B PUSH1 0x2A DUP4 PUSH2 0x2C21 JUMP JUMPDEST SWAP2 POP PUSH32 0x5361666545524332303A204552433230206F7065726174696F6E20646964206E PUSH1 0x0 DUP4 ADD MSTORE PUSH32 0x6F74207375636365656400000000000000000000000000000000000000000000 PUSH1 0x20 DUP4 ADD MSTORE PUSH1 0x40 DUP3 ADD SWAP1 POP SWAP2 SWAP1 POP JUMP JUMPDEST PUSH1 0x0 PUSH2 0x26D1 PUSH1 0x9 DUP4 PUSH2 0x2C32 JUMP JUMPDEST SWAP2 POP PUSH32 0x4D657461546F6B656E0000000000000000000000000000000000000000000000 PUSH1 0x0 DUP4 ADD MSTORE PUSH1 0x9 DUP3 ADD SWAP1 POP SWAP2 SWAP1 POP JUMP JUMPDEST PUSH1 0x0 PUSH2 0x2711 PUSH1 0x1F DUP4 PUSH2 0x2C21 JUMP JUMPDEST SWAP2 POP PUSH32 0x5361666545524332303A2063616C6C20746F206E6F6E2D636F6E747261637400 PUSH1 0x0 DUP4 ADD MSTORE PUSH1 0x20 DUP3 ADD SWAP1 POP SWAP2 SWAP1 POP JUMP JUMPDEST PUSH2 0x274D DUP2 PUSH2 0x2C97 JUMP JUMPDEST DUP3 MSTORE POP POP JUMP JUMPDEST PUSH2 0x2764 PUSH2 0x275F DUP3 PUSH2 0x2C97 JUMP JUMPDEST PUSH2 0x2D80 JUMP JUMPDEST DUP3 MSTORE POP POP JUMP JUMPDEST PUSH1 0x0 PUSH2 0x2776 DUP3 DUP6 PUSH2 0x2077 JUMP JUMPDEST PUSH1 0x14 DUP3 ADD SWAP2 POP PUSH2 0x2786 DUP3 DUP5 PUSH2 0x2753 JUMP JUMPDEST PUSH1 0x20 DUP3 ADD SWAP2 POP DUP2 SWAP1 POP SWAP4 SWAP3 POP POP POP JUMP JUMPDEST PUSH1 0x0 PUSH2 0x27A2 DUP3 DUP6 PUSH2 0x20AC JUMP JUMPDEST PUSH1 0x20 DUP3 ADD SWAP2 POP PUSH2 0x27B2 DUP3 DUP5 PUSH2 0x20AC JUMP JUMPDEST PUSH1 0x20 DUP3 ADD SWAP2 POP DUP2 SWAP1 POP SWAP4 SWAP3 POP POP POP JUMP JUMPDEST PUSH1 0x0 PUSH2 0x27CE DUP3 DUP5 PUSH2 0x20C3 JUMP JUMPDEST SWAP2 POP DUP2 SWAP1 POP SWAP3 SWAP2 POP POP JUMP JUMPDEST PUSH1 0x0 PUSH2 0x27E4 DUP3 PUSH2 0x2152 JUMP JUMPDEST SWAP2 POP DUP2 SWAP1 POP SWAP2 SWAP1 POP JUMP JUMPDEST PUSH1 0x0 PUSH2 0x27F9 DUP3 PUSH2 0x21D2 JUMP JUMPDEST SWAP2 POP DUP2 SWAP1 POP SWAP2 SWAP1 POP JUMP JUMPDEST PUSH1 0x0 PUSH2 0x280E DUP3 PUSH2 0x2292 JUMP JUMPDEST SWAP2 POP DUP2 SWAP1 POP SWAP2 SWAP1 POP JUMP JUMPDEST PUSH1 0x0 PUSH2 0x2823 DUP3 PUSH2 0x2312 JUMP JUMPDEST SWAP2 POP DUP2 SWAP1 POP SWAP2 SWAP1 POP JUMP JUMPDEST PUSH1 0x0 PUSH2 0x2838 DUP3 PUSH2 0x23D2 JUMP JUMPDEST SWAP2 POP DUP2 SWAP1 POP SWAP2 SWAP1 POP JUMP JUMPDEST PUSH1 0x0 PUSH2 0x284D DUP3 PUSH2 0x2412 JUMP JUMPDEST SWAP2 POP DUP2 SWAP1 POP SWAP2 SWAP1 POP JUMP JUMPDEST PUSH1 0x0 PUSH2 0x2862 DUP3 PUSH2 0x2452 JUMP JUMPDEST SWAP2 POP DUP2 SWAP1 POP SWAP2 SWAP1 POP JUMP JUMPDEST PUSH1 0x0 PUSH2 0x2877 DUP3 PUSH2 0x26C4 JUMP JUMPDEST SWAP2 POP DUP2 SWAP1 POP SWAP2 SWAP1 POP JUMP JUMPDEST PUSH1 0x0 PUSH1 0x60 DUP3 ADD SWAP1 POP PUSH2 0x2896 PUSH1 0x0 DUP4 ADD DUP7 PUSH2 0x2059 JUMP JUMPDEST PUSH2 0x28A3 PUSH1 0x20 DUP4 ADD DUP6 PUSH2 0x2068 JUMP JUMPDEST PUSH2 0x28B0 PUSH1 0x40 DUP4 ADD DUP5 PUSH2 0x2744 JUMP JUMPDEST SWAP5 SWAP4 POP POP POP POP JUMP JUMPDEST PUSH1 0x0 PUSH1 0x40 DUP3 ADD SWAP1 POP PUSH2 0x28CD PUSH1 0x0 DUP4 ADD DUP6 PUSH2 0x2068 JUMP JUMPDEST PUSH2 0x28DA PUSH1 0x20 DUP4 ADD DUP5 PUSH2 0x2744 JUMP JUMPDEST SWAP4 SWAP3 POP POP POP JUMP JUMPDEST PUSH1 0x0 PUSH1 0x60 DUP3 ADD SWAP1 POP PUSH2 0x28F6 PUSH1 0x0 DUP4 ADD DUP7 PUSH2 0x2068 JUMP JUMPDEST PUSH2 0x2903 PUSH1 0x20 DUP4 ADD DUP6 PUSH2 0x2744 JUMP JUMPDEST PUSH2 0x2910 PUSH1 0x40 DUP4 ADD DUP5 PUSH2 0x2744 JUMP JUMPDEST SWAP5 SWAP4 POP POP POP POP JUMP JUMPDEST PUSH1 0x0 PUSH1 0x20 DUP3 ADD SWAP1 POP PUSH2 0x292D PUSH1 0x0 DUP4 ADD DUP5 PUSH2 0x208E JUMP JUMPDEST SWAP3 SWAP2 POP POP JUMP JUMPDEST PUSH1 0x0 PUSH1 0x20 DUP3 ADD SWAP1 POP PUSH2 0x2948 PUSH1 0x0 DUP4 ADD DUP5 PUSH2 0x209D JUMP JUMPDEST SWAP3 SWAP2 POP POP JUMP JUMPDEST PUSH1 0x0 PUSH1 0x20 DUP3 ADD SWAP1 POP PUSH2 0x2963 PUSH1 0x0 DUP4 ADD DUP5 PUSH2 0x20F4 JUMP JUMPDEST SWAP3 SWAP2 POP POP JUMP JUMPDEST PUSH1 0x0 PUSH1 0x20 DUP3 ADD SWAP1 POP PUSH2 0x297E PUSH1 0x0 DUP4 ADD DUP5 PUSH2 0x2103 JUMP JUMPDEST SWAP3 SWAP2 POP POP JUMP JUMPDEST PUSH1 0x0 PUSH1 0x20 DUP3 ADD SWAP1 POP DUP2 DUP2 SUB PUSH1 0x0 DUP4 ADD MSTORE PUSH2 0x299D DUP2 PUSH2 0x2112 JUMP JUMPDEST SWAP1 POP SWAP2 SWAP1 POP JUMP JUMPDEST PUSH1 0x0 PUSH1 0x20 DUP3 ADD SWAP1 POP DUP2 DUP2 SUB PUSH1 0x0 DUP4 ADD MSTORE PUSH2 0x29BD DUP2 PUSH2 0x2192 JUMP JUMPDEST SWAP1 POP SWAP2 SWAP1 POP JUMP JUMPDEST PUSH1 0x0 PUSH1 0x20 DUP3 ADD SWAP1 POP DUP2 DUP2 SUB PUSH1 0x0 DUP4 ADD MSTORE PUSH2 0x29DD DUP2 PUSH2 0x2212 JUMP JUMPDEST SWAP1 POP SWAP2 SWAP1 POP JUMP JUMPDEST PUSH1 0x0 PUSH1 0x20 DUP3 ADD SWAP1 POP DUP2 DUP2 SUB PUSH1 0x0 DUP4 ADD MSTORE PUSH2 0x29FD DUP2 PUSH2 0x2252 JUMP JUMPDEST SWAP1 POP SWAP2 SWAP1 POP JUMP JUMPDEST PUSH1 0x0 PUSH1 0x20 DUP3 ADD SWAP1 POP DUP2 DUP2 SUB PUSH1 0x0 DUP4 ADD MSTORE PUSH2 0x2A1D DUP2 PUSH2 0x22D2 JUMP JUMPDEST SWAP1 POP SWAP2 SWAP1 POP JUMP JUMPDEST PUSH1 0x0 PUSH1 0x20 DUP3 ADD SWAP1 POP DUP2 DUP2 SUB PUSH1 0x0 DUP4 ADD MSTORE PUSH2 0x2A3D DUP2 PUSH2 0x2352 JUMP JUMPDEST SWAP1 POP SWAP2 SWAP1 POP JUMP JUMPDEST PUSH1 0x0 PUSH1 0x20 DUP3 ADD SWAP1 POP DUP2 DUP2 SUB PUSH1 0x0 DUP4 ADD MSTORE PUSH2 0x2A5D DUP2 PUSH2 0x2392 JUMP JUMPDEST SWAP1 POP SWAP2 SWAP1 POP JUMP JUMPDEST PUSH1 0x0 PUSH1 0x20 DUP3 ADD SWAP1 POP DUP2 DUP2 SUB PUSH1 0x0 DUP4 ADD MSTORE PUSH2 0x2A7D DUP2 PUSH2 0x2492 JUMP JUMPDEST SWAP1 POP SWAP2 SWAP1 POP JUMP JUMPDEST PUSH1 0x0 PUSH1 0x20 DUP3 ADD SWAP1 POP DUP2 DUP2 SUB PUSH1 0x0 DUP4 ADD MSTORE PUSH2 0x2A9D DUP2 PUSH2 0x24F8 JUMP JUMPDEST SWAP1 POP SWAP2 SWAP1 POP JUMP JUMPDEST PUSH1 0x0 PUSH1 0x20 DUP3 ADD SWAP1 POP DUP2 DUP2 SUB PUSH1 0x0 DUP4 ADD MSTORE PUSH2 0x2ABD DUP2 PUSH2 0x2538 JUMP JUMPDEST SWAP1 POP SWAP2 SWAP1 POP JUMP JUMPDEST PUSH1 0x0 PUSH1 0x20 DUP3 ADD SWAP1 POP DUP2 DUP2 SUB PUSH1 0x0 DUP4 ADD MSTORE PUSH2 0x2ADD DUP2 PUSH2 0x2578 JUMP JUMPDEST SWAP1 POP SWAP2 SWAP1 POP JUMP JUMPDEST PUSH1 0x0 PUSH1 0x20 DUP3 ADD SWAP1 POP DUP2 DUP2 SUB PUSH1 0x0 DUP4 ADD MSTORE PUSH2 0x2AFD DUP2 PUSH2 0x25DE JUMP JUMPDEST SWAP1 POP SWAP2 SWAP1 POP JUMP JUMPDEST PUSH1 0x0 PUSH1 0x20 DUP3 ADD SWAP1 POP DUP2 DUP2 SUB PUSH1 0x0 DUP4 ADD MSTORE PUSH2 0x2B1D DUP2 PUSH2 0x261E JUMP JUMPDEST SWAP1 POP SWAP2 SWAP1 POP JUMP JUMPDEST PUSH1 0x0 PUSH1 0x20 DUP3 ADD SWAP1 POP DUP2 DUP2 SUB PUSH1 0x0 DUP4 ADD MSTORE PUSH2 0x2B3D DUP2 PUSH2 0x265E JUMP JUMPDEST SWAP1 POP SWAP2 SWAP1 POP JUMP JUMPDEST PUSH1 0x0 PUSH1 0x20 DUP3 ADD SWAP1 POP DUP2 DUP2 SUB PUSH1 0x0 DUP4 ADD MSTORE PUSH2 0x2B5D DUP2 PUSH2 0x2704 JUMP JUMPDEST SWAP1 POP SWAP2 SWAP1 POP JUMP JUMPDEST PUSH1 0x0 PUSH1 0x20 DUP3 ADD SWAP1 POP PUSH2 0x2B79 PUSH1 0x0 DUP4 ADD DUP5 PUSH2 0x2744 JUMP JUMPDEST SWAP3 SWAP2 POP POP JUMP JUMPDEST PUSH1 0x0 PUSH1 0x60 DUP3 ADD SWAP1 POP PUSH2 0x2B94 PUSH1 0x0 DUP4 ADD DUP7 PUSH2 0x2744 JUMP JUMPDEST PUSH2 0x2BA1 PUSH1 0x20 DUP4 ADD DUP6 PUSH2 0x209D JUMP JUMPDEST PUSH2 0x2BAE PUSH1 0x40 DUP4 ADD DUP5 PUSH2 0x2744 JUMP JUMPDEST SWAP5 SWAP4 POP POP POP POP JUMP JUMPDEST PUSH1 0x0 PUSH1 0x40 MLOAD SWAP1 POP DUP2 DUP2 ADD DUP2 DUP2 LT PUSH8 0xFFFFFFFFFFFFFFFF DUP3 GT OR ISZERO PUSH2 0x2BD9 JUMPI PUSH1 0x0 DUP1 REVERT JUMPDEST DUP1 PUSH1 0x40 MSTORE POP SWAP2 SWAP1 POP JUMP JUMPDEST PUSH1 0x0 PUSH8 0xFFFFFFFFFFFFFFFF DUP3 GT ISZERO PUSH2 0x2BFA JUMPI PUSH1 0x0 DUP1 REVERT JUMPDEST PUSH1 0x20 DUP3 MUL SWAP1 POP PUSH1 0x20 DUP2 ADD SWAP1 POP SWAP2 SWAP1 POP JUMP JUMPDEST PUSH1 0x0 DUP2 MLOAD SWAP1 POP SWAP2 SWAP1 POP JUMP JUMPDEST PUSH1 0x0 DUP2 SWAP1 POP SWAP3 SWAP2 POP POP JUMP JUMPDEST PUSH1 0x0 DUP3 DUP3 MSTORE PUSH1 0x20 DUP3 ADD SWAP1 POP SWAP3 SWAP2 POP POP JUMP JUMPDEST PUSH1 0x0 DUP2 SWAP1 POP SWAP3 SWAP2 POP POP JUMP JUMPDEST PUSH1 0x0 PUSH2 0x2C48 DUP3 PUSH2 0x2C77 JUMP JUMPDEST SWAP1 POP SWAP2 SWAP1 POP JUMP JUMPDEST PUSH1 0x0 DUP2 ISZERO ISZERO SWAP1 POP SWAP2 SWAP1 POP JUMP JUMPDEST PUSH1 0x0 DUP2 SWAP1 POP SWAP2 SWAP1 POP JUMP JUMPDEST PUSH1 0x0 PUSH2 0x2C70 DUP3 PUSH2 0x2C3D JUMP JUMPDEST SWAP1 POP SWAP2 SWAP1 POP JUMP JUMPDEST PUSH1 0x0 PUSH20 0xFFFFFFFFFFFFFFFFFFFFFFFFFFFFFFFFFFFFFFFF DUP3 AND SWAP1 POP SWAP2 SWAP1 POP JUMP JUMPDEST PUSH1 0x0 DUP2 SWAP1 POP SWAP2 SWAP1 POP JUMP JUMPDEST PUSH1 0x0 PUSH2 0x2CAC DUP3 PUSH2 0x2CFB JUMP JUMPDEST SWAP1 POP SWAP2 SWAP1 POP JUMP JUMPDEST PUSH1 0x0 PUSH2 0x2CBE DUP3 PUSH2 0x2CC5 JUMP JUMPDEST SWAP1 POP SWAP2 SWAP1 POP JUMP JUMPDEST PUSH1 0x0 PUSH2 0x2CD0 DUP3 PUSH2 0x2C77 JUMP JUMPDEST SWAP1 POP SWAP2 SWAP1 POP JUMP JUMPDEST PUSH1 0x0 PUSH2 0x2CE2 DUP3 PUSH2 0x2CE9 JUMP JUMPDEST SWAP1 POP SWAP2 SWAP1 POP JUMP JUMPDEST PUSH1 0x0 PUSH2 0x2CF4 DUP3 PUSH2 0x2C77 JUMP JUMPDEST SWAP1 POP SWAP2 SWAP1 POP JUMP JUMPDEST PUSH1 0x0 PUSH2 0x2D06 DUP3 PUSH2 0x2D0D JUMP JUMPDEST SWAP1 POP SWAP2 SWAP1 POP JUMP JUMPDEST PUSH1 0x0 PUSH2 0x2D18 DUP3 PUSH2 0x2C77 JUMP JUMPDEST SWAP1 POP SWAP2 SWAP1 POP JUMP JUMPDEST PUSH1 0x0 JUMPDEST DUP4 DUP2 LT ISZERO PUSH2 0x2D3D JUMPI DUP1 DUP3 ADD MLOAD DUP2 DUP5 ADD MSTORE PUSH1 0x20 DUP2 ADD SWAP1 POP PUSH2 0x2D22 JUMP JUMPDEST DUP4 DUP2 GT ISZERO PUSH2 0x2D4C JUMPI PUSH1 0x0 DUP5 DUP5 ADD MSTORE JUMPDEST POP POP POP POP JUMP JUMPDEST PUSH1 0x0 PUSH2 0x2D5D DUP3 PUSH2 0x2D6E JUMP JUMPDEST SWAP1 POP SWAP2 SWAP1 POP JUMP JUMPDEST PUSH1 0x0 DUP2 SWAP1 POP SWAP2 SWAP1 POP JUMP JUMPDEST PUSH1 0x0 PUSH2 0x2D79 DUP3 PUSH2 0x2D8A JUMP JUMPDEST SWAP1 POP SWAP2 SWAP1 POP JUMP JUMPDEST PUSH1 0x0 DUP2 SWAP1 POP SWAP2 SWAP1 POP JUMP JUMPDEST PUSH1 0x0 DUP2 PUSH1 0x60 SHL SWAP1 POP SWAP2 SWAP1 POP JUMP JUMPDEST PUSH2 0x2DA0 DUP2 PUSH2 0x2C3D JUMP JUMPDEST DUP2 EQ PUSH2 0x2DAB JUMPI PUSH1 0x0 DUP1 REVERT JUMPDEST POP JUMP JUMPDEST PUSH2 0x2DB7 DUP2 PUSH2 0x2C4F JUMP JUMPDEST DUP2 EQ PUSH2 0x2DC2 JUMPI PUSH1 0x0 DUP1 REVERT JUMPDEST POP JUMP JUMPDEST PUSH2 0x2DCE DUP2 PUSH2 0x2C5B JUMP JUMPDEST DUP2 EQ PUSH2 0x2DD9 JUMPI PUSH1 0x0 DUP1 REVERT JUMPDEST POP JUMP JUMPDEST PUSH2 0x2DE5 DUP2 PUSH2 0x2C65 JUMP JUMPDEST DUP2 EQ PUSH2 0x2DF0 JUMPI PUSH1 0x0 DUP1 REVERT JUMPDEST POP JUMP JUMPDEST PUSH2 0x2DFC DUP2 PUSH2 0x2C97 JUMP JUMPDEST DUP2 EQ PUSH2 0x2E07 JUMPI PUSH1 0x0 DUP1 REVERT JUMPDEST POP JUMP INVALID LOG3 PUSH6 0x627A7A723158 KECCAK256 DELEGATECALL DUP9 ISZERO PUSH25 0xBA6367F8F59B6155417A34F0F649F52B73A70BA6ACBB73E965 PUSH9 0xA8B46C657870657269 PUSH14 0x656E74616CF564736F6C63430005 LT STOP BLOCKHASH "
        },
        "gasEstimates": {
          "creation": {
            "codeDepositCost": "2370600",
            "executionCost": "2545",
            "totalCost": "2373145"
          },
          "external": {
            "c_0x1fcf5ce6(bytes32)": "473",
            "claimTranche(address,uint256,uint256,bytes32[])": "infinite",
            "claimed(uint256,address)": "1810",
            "expireTranche(uint256)": "infinite",
            "initialize(address,address[],address,uint256)": "infinite",
            "merkleRoots(uint256)": "1576",
            "nexus()": "1279",
            "seedNewAllocations(bytes32,uint256)": "infinite",
            "thresholdBlock()": "1174",
            "token()": "1367",
            "verifyClaim(address,uint256,uint256,bytes32[])": "infinite",
            "whitelist(address)": "1545"
          },
          "internal": {
            "_claimTranche(address,uint256,uint256,bytes32[] memory)": "infinite",
            "_disburse(address,uint256)": "infinite",
            "_verifyClaim(address,uint256,uint256,bytes32[] memory)": "infinite"
          }
        },
        "methodIdentifiers": {
          "c_0x1fcf5ce6(bytes32)": "36f7e119",
          "claimTranche(address,uint256,uint256,bytes32[])": "cd54e72c",
          "claimed(uint256,address)": "120aa877",
          "expireTranche(uint256)": "d5efd20a",
          "initialize(address,address[],address,uint256)": "0af49690",
          "merkleRoots(uint256)": "71c5ecb1",
          "nexus()": "a3f5c1d2",
          "seedNewAllocations(bytes32,uint256)": "65ef53b1",
          "thresholdBlock()": "29eb15bd",
          "token()": "fc0c546a",
          "verifyClaim(address,uint256,uint256,bytes32[])": "eb0d07f5",
          "whitelist(address)": "9b19251a"
        }
      },
      "storageLayout": {
        "storage": [
          {
            "astId": 422,
            "contract": "contracts/prime_token_v2/MerkleDrop.sol:MerkleDrop",
            "label": "initialized",
            "offset": 0,
            "slot": "0",
            "type": "t_bool"
          },
          {
            "astId": 424,
            "contract": "contracts/prime_token_v2/MerkleDrop.sol:MerkleDrop",
            "label": "initializing",
            "offset": 1,
            "slot": "0",
            "type": "t_bool"
          },
          {
            "astId": 486,
            "contract": "contracts/prime_token_v2/MerkleDrop.sol:MerkleDrop",
            "label": "______gap",
            "offset": 0,
            "slot": "1",
            "type": "t_array(t_uint256)50_storage"
          },
          {
            "astId": 351,
            "contract": "contracts/prime_token_v2/MerkleDrop.sol:MerkleDrop",
            "label": "KEY_GOVERNANCE",
            "offset": 0,
            "slot": "51",
            "type": "t_bytes32"
          },
          {
            "astId": 353,
            "contract": "contracts/prime_token_v2/MerkleDrop.sol:MerkleDrop",
            "label": "KEY_STAKING",
            "offset": 0,
            "slot": "52",
            "type": "t_bytes32"
          },
          {
            "astId": 355,
            "contract": "contracts/prime_token_v2/MerkleDrop.sol:MerkleDrop",
            "label": "KEY_PROXY_ADMIN",
            "offset": 0,
            "slot": "53",
            "type": "t_bytes32"
          },
          {
            "astId": 357,
            "contract": "contracts/prime_token_v2/MerkleDrop.sol:MerkleDrop",
            "label": "KEY_ORACLE_HUB",
            "offset": 0,
            "slot": "54",
            "type": "t_bytes32"
          },
          {
            "astId": 359,
            "contract": "contracts/prime_token_v2/MerkleDrop.sol:MerkleDrop",
            "label": "KEY_MANAGER",
            "offset": 0,
            "slot": "55",
            "type": "t_bytes32"
          },
          {
            "astId": 361,
            "contract": "contracts/prime_token_v2/MerkleDrop.sol:MerkleDrop",
            "label": "KEY_RECOLLATERALISER",
            "offset": 0,
            "slot": "56",
            "type": "t_bytes32"
          },
          {
            "astId": 363,
            "contract": "contracts/prime_token_v2/MerkleDrop.sol:MerkleDrop",
            "label": "KEY_META_TOKEN",
            "offset": 0,
            "slot": "57",
            "type": "t_bytes32"
          },
          {
            "astId": 365,
            "contract": "contracts/prime_token_v2/MerkleDrop.sol:MerkleDrop",
            "label": "KEY_SAVINGS_MANAGER",
            "offset": 0,
            "slot": "58",
            "type": "t_bytes32"
          },
          {
            "astId": 164,
            "contract": "contracts/prime_token_v2/MerkleDrop.sol:MerkleDrop",
            "label": "nexus",
            "offset": 0,
            "slot": "59",
            "type": "t_contract(INexus)154"
          },
          {
            "astId": 13,
            "contract": "contracts/prime_token_v2/MerkleDrop.sol:MerkleDrop",
            "label": "whitelist",
            "offset": 0,
            "slot": "60",
            "type": "t_mapping(t_address,t_bool)"
          },
          {
            "astId": 544,
            "contract": "contracts/prime_token_v2/MerkleDrop.sol:MerkleDrop",
            "label": "token",
            "offset": 0,
            "slot": "61",
            "type": "t_contract(IERC20)1412"
          },
          {
            "astId": 548,
            "contract": "contracts/prime_token_v2/MerkleDrop.sol:MerkleDrop",
            "label": "merkleRoots",
            "offset": 0,
            "slot": "62",
            "type": "t_mapping(t_uint256,t_bytes32)"
          },
          {
            "astId": 554,
            "contract": "contracts/prime_token_v2/MerkleDrop.sol:MerkleDrop",
            "label": "claimed",
            "offset": 0,
            "slot": "63",
            "type": "t_mapping(t_uint256,t_mapping(t_address,t_bool))"
          },
          {
            "astId": 556,
            "contract": "contracts/prime_token_v2/MerkleDrop.sol:MerkleDrop",
            "label": "tranches",
            "offset": 0,
            "slot": "64",
            "type": "t_uint256"
          },
          {
            "astId": 558,
            "contract": "contracts/prime_token_v2/MerkleDrop.sol:MerkleDrop",
            "label": "thresholdBlock",
            "offset": 0,
            "slot": "65",
            "type": "t_uint256"
          }
        ],
        "types": {
          "t_address": {
            "encoding": "inplace",
            "label": "address",
            "numberOfBytes": "20"
          },
          "t_array(t_uint256)50_storage": {
            "base": "t_uint256",
            "encoding": "inplace",
            "label": "uint256[50]",
            "numberOfBytes": "1600"
          },
          "t_bool": {
            "encoding": "inplace",
            "label": "bool",
            "numberOfBytes": "1"
          },
          "t_bytes32": {
            "encoding": "inplace",
            "label": "bytes32",
            "numberOfBytes": "32"
          },
          "t_contract(IERC20)1412": {
            "encoding": "inplace",
            "label": "contract IERC20",
            "numberOfBytes": "20"
          },
          "t_contract(INexus)154": {
            "encoding": "inplace",
            "label": "contract INexus",
            "numberOfBytes": "20"
          },
          "t_mapping(t_address,t_bool)": {
            "encoding": "mapping",
            "key": "t_address",
            "label": "mapping(address => bool)",
            "numberOfBytes": "32",
            "value": "t_bool"
          },
          "t_mapping(t_uint256,t_bytes32)": {
            "encoding": "mapping",
            "key": "t_uint256",
            "label": "mapping(uint256 => bytes32)",
            "numberOfBytes": "32",
            "value": "t_bytes32"
          },
          "t_mapping(t_uint256,t_mapping(t_address,t_bool))": {
            "encoding": "mapping",
            "key": "t_uint256",
            "label": "mapping(uint256 => mapping(address => bool))",
            "numberOfBytes": "32",
            "value": "t_mapping(t_address,t_bool)"
          },
          "t_uint256": {
            "encoding": "inplace",
            "label": "uint256",
            "numberOfBytes": "32"
          }
        }
      },
      "userdoc": {
        "methods": {
          "claimTranche(address,uint256,uint256,bytes32[])": {
            "notice": "************************************* CLAIMING***************************************"
          },
          "seedNewAllocations(bytes32,uint256)": {
            "notice": "************************************* ADMIN***************************************"
          }
        }
      }
    }
  }
}