{
  "contracts/seed/SeedFactory.sol": {
    "SeedFactory": {
      "abi": [
        {
          "anonymous": false,
          "inputs": [
            {
              "indexed": true,
              "internalType": "address",
              "name": "previousOwner",
              "type": "address"
            },
            {
              "indexed": true,
              "internalType": "address",
              "name": "newOwner",
              "type": "address"
            }
          ],
          "name": "OwnershipTransferred",
          "type": "event"
        },
        {
          "anonymous": false,
          "inputs": [
            {
              "indexed": true,
              "internalType": "address",
              "name": "newSeed",
              "type": "address"
            },
            {
              "indexed": true,
              "internalType": "address",
              "name": "beneficiary",
              "type": "address"
            }
          ],
          "name": "SeedCreated",
          "type": "event"
        },
        {
          "inputs": [
            {
              "internalType": "address",
              "name": "_beneficiary",
              "type": "address"
            },
            {
              "internalType": "address",
              "name": "_admin",
              "type": "address"
            },
            {
              "internalType": "address[]",
              "name": "_tokens",
              "type": "address[]"
            },
            {
              "internalType": "uint256[]",
              "name": "_softHardThresholds",
              "type": "uint256[]"
            },
            {
              "internalType": "uint256",
              "name": "_price",
              "type": "uint256"
            },
            {
              "internalType": "uint256",
              "name": "_startTime",
              "type": "uint256"
            },
            {
              "internalType": "uint256",
              "name": "_endTime",
              "type": "uint256"
            },
            {
              "internalType": "uint32[]",
              "name": "_vestingDurationAndCliff",
              "type": "uint32[]"
            },
            {
              "internalType": "bool",
              "name": "_permissionedSeed",
              "type": "bool"
            },
            {
              "internalType": "uint256",
              "name": "_fee",
              "type": "uint256"
            },
            {
              "internalType": "bytes",
              "name": "_metadata",
              "type": "bytes"
            }
          ],
          "name": "deploySeed",
          "outputs": [
            {
              "internalType": "address",
              "name": "",
              "type": "address"
            }
          ],
          "stateMutability": "nonpayable",
          "type": "function"
        },
        {
          "inputs": [],
          "name": "masterCopy",
          "outputs": [
            {
              "internalType": "contract Seed",
              "name": "",
              "type": "address"
            }
          ],
          "stateMutability": "view",
          "type": "function"
        },
        {
          "inputs": [],
          "name": "owner",
          "outputs": [
            {
              "internalType": "address",
              "name": "",
              "type": "address"
            }
          ],
          "stateMutability": "view",
          "type": "function"
        },
        {
          "inputs": [],
          "name": "renounceOwnership",
          "outputs": [],
          "stateMutability": "nonpayable",
          "type": "function"
        },
        {
          "inputs": [
            {
              "internalType": "contract Seed",
              "name": "_masterCopy",
              "type": "address"
            }
          ],
          "name": "setMasterCopy",
          "outputs": [],
          "stateMutability": "nonpayable",
          "type": "function"
        },
        {
          "inputs": [
            {
              "internalType": "address",
              "name": "newOwner",
              "type": "address"
            }
          ],
          "name": "transferOwnership",
          "outputs": [],
          "stateMutability": "nonpayable",
          "type": "function"
        }
      ],
      "devdoc": {
        "details": "Enable PrimeDAO governance to create new Seed contracts.",
        "kind": "dev",
        "methods": {
          "deploySeed(address,address,address[],uint256[],uint256,uint256,uint256,uint32[],bool,uint256,bytes)": {
            "details": "Deploys Seed contract.",
            "params": {
              "_admin": "The address of the admin of this contract. Funds contract and has permissions to whitelist users, pause and close contract.",
              "_beneficiary": "The address that recieves fees.",
              "_endTime": "Distribution end time in unix timecode.",
              "_fee": "Success fee expressed in Wei as a % (e.g. 2 = 2% fee)",
              "_metadata": "Seed contract metadata, that is IPFS URI",
              "_permissionedSeed": "Set to true if only whitelisted adresses are allowed to participate.",
              "_price": "price of a SeedToken, expressed in fundingTokens, with precision of 10**18",
              "_softHardThresholds": "Array containing two params: - the minimum funding token collection threshold in wei denomination. - the highest possible funding token amount to be raised in wei denomination.",
              "_startTime": "Distribution start time in unix timecode.",
              "_tokens": "Array containing two params: - The address of the seed token being distributed.                                         - The address of the funding token being exchanged for seed token.",
              "_vestingDurationAndCliff": "Array containing two params: - Vesting period duration in days. - Cliff duration in days."
            }
          },
          "owner()": {
            "details": "Returns the address of the current owner."
          },
          "renounceOwnership()": {
            "details": "Leaves the contract without owner. It will not be possible to call `onlyOwner` functions anymore. Can only be called by the current owner. NOTE: Renouncing ownership will leave the contract without an owner, thereby removing any functionality that is only available to the owner."
          },
          "setMasterCopy(address)": {
            "details": "Set Seed contract which works as a base for clones.",
            "params": {
              "_masterCopy": "The address of the new Seed basis."
            }
          },
          "transferOwnership(address)": {
            "details": "Transfers ownership of the contract to a new account (`newOwner`). Can only be called by the current owner."
          }
        },
        "title": "PrimeDAO Seed Factory",
        "version": 1
      },
      "evm": {
        "bytecode": {
          "linkReferences": {},
          "object": "608060405234801561001057600080fd5b5061002d61002261003260201b60201c565b61003a60201b60201c565b6100fe565b600033905090565b60008060009054906101000a900473ffffffffffffffffffffffffffffffffffffffff169050816000806101000a81548173ffffffffffffffffffffffffffffffffffffffff021916908373ffffffffffffffffffffffffffffffffffffffff1602179055508173ffffffffffffffffffffffffffffffffffffffff168173ffffffffffffffffffffffffffffffffffffffff167f8be0079c531659141344cd1fd0a4f28419497f9722a3daafe3b4186f6b6457e060405160405180910390a35050565b6115c98061010d6000396000f3fe608060405234801561001057600080fd5b50600436106100625760003560e01c8063715018a6146100675780638da5cb5b14610071578063a619486e1461008f578063cf497e6c146100ad578063da235e6e146100c9578063f2fde38b146100f9575b600080fd5b61006f610115565b005b61007961019d565b6040516100869190610f08565b60405180910390f35b6100976101c6565b6040516100a49190610ffe565b60405180910390f35b6100c760048036038101906100c29190610c9e565b6101ec565b005b6100e360048036038101906100de9190610b3a565b61031c565b6040516100f09190610f08565b60405180910390f35b610113600480360381019061010e9190610b0d565b61062c565b005b61011d610724565b73ffffffffffffffffffffffffffffffffffffffff1661013b61019d565b73ffffffffffffffffffffffffffffffffffffffff1614610191576040517f08c379a000000000000000000000000000000000000000000000000000000000815260040161018890611059565b60405180910390fd5b61019b600061072c565b565b60008060009054906101000a900473ffffffffffffffffffffffffffffffffffffffff16905090565b600160009054906101000a900473ffffffffffffffffffffffffffffffffffffffff1681565b6101f4610724565b73ffffffffffffffffffffffffffffffffffffffff1661021261019d565b73ffffffffffffffffffffffffffffffffffffffff1614610268576040517f08c379a000000000000000000000000000000000000000000000000000000000815260040161025f90611059565b60405180910390fd5b600073ffffffffffffffffffffffffffffffffffffffff168173ffffffffffffffffffffffffffffffffffffffff1614156102d8576040517f08c379a00000000000000000000000000000000000000000000000000000000081526004016102cf90611079565b60405180910390fd5b80600160006101000a81548173ffffffffffffffffffffffffffffffffffffffff021916908373ffffffffffffffffffffffffffffffffffffffff16021790555050565b6000610326610724565b73ffffffffffffffffffffffffffffffffffffffff1661034461019d565b73ffffffffffffffffffffffffffffffffffffffff161461039a576040517f08c379a000000000000000000000000000000000000000000000000000000000815260040161039190611059565b60405180910390fd5b600073ffffffffffffffffffffffffffffffffffffffff16600160009054906101000a900473ffffffffffffffffffffffffffffffffffffffff1673ffffffffffffffffffffffffffffffffffffffff16141561042c576040517f08c379a000000000000000000000000000000000000000000000000000000000815260040161042390611019565b60405180910390fd5b6002855114610470576040517f08c379a000000000000000000000000000000000000000000000000000000000815260040161046790611099565b60405180910390fd5b600061049d600160009054906101000a900473ffffffffffffffffffffffffffffffffffffffff166107f0565b90508073ffffffffffffffffffffffffffffffffffffffff1663fc582d41846040518263ffffffff1660e01b81526004016104d89190610fdc565b600060405180830381600087803b1580156104f257600080fd5b505af1158015610506573d6000803e3d6000fd5b505050508073ffffffffffffffffffffffffffffffffffffffff166344f9abb88e8e8e8e8e8e8e8e60008151811061054157610540611333565b5b60200260200101518f60018151811061055d5761055c611333565b5b60200260200101518f8f6040518c63ffffffff1660e01b815260040161058d9b9a99989796959493929190610f23565b600060405180830381600087803b1580156105a757600080fd5b505af11580156105bb573d6000803e3d6000fd5b505050503373ffffffffffffffffffffffffffffffffffffffff168173ffffffffffffffffffffffffffffffffffffffff167f23fea745ec0ebbc17cc138cc8d1baca7bde3ce83b1fd6d5e1de583961586363960405160405180910390a3809150509b9a5050505050505050505050565b610634610724565b73ffffffffffffffffffffffffffffffffffffffff1661065261019d565b73ffffffffffffffffffffffffffffffffffffffff16146106a8576040517f08c379a000000000000000000000000000000000000000000000000000000000815260040161069f90611059565b60405180910390fd5b600073ffffffffffffffffffffffffffffffffffffffff168173ffffffffffffffffffffffffffffffffffffffff161415610718576040517f08c379a000000000000000000000000000000000000000000000000000000000815260040161070f90611039565b60405180910390fd5b6107218161072c565b50565b600033905090565b60008060009054906101000a900473ffffffffffffffffffffffffffffffffffffffff169050816000806101000a81548173ffffffffffffffffffffffffffffffffffffffff021916908373ffffffffffffffffffffffffffffffffffffffff1602179055508173ffffffffffffffffffffffffffffffffffffffff168173ffffffffffffffffffffffffffffffffffffffff167f8be0079c531659141344cd1fd0a4f28419497f9722a3daafe3b4186f6b6457e060405160405180910390a35050565b6000808260601b90506040517f3d602d80600a3d3981f3363d3d373d3d3d363d7300000000000000000000000081528160148201527f5af43d82803e903d91602b57fd5bf3000000000000000000000000000000000060288201526037816000f092505050919050565b600061086d610868846110de565b6110b9565b905080838252602082019050828560208602820111156108905761088f611396565b5b60005b858110156108c057816108a688826109ec565b845260208401935060208301925050600181019050610893565b5050509392505050565b60006108dd6108d88461110a565b6110b9565b90508083825260208201905082856020860282011115610900576108ff611396565b5b60005b8581101561093057816109168882610ae3565b845260208401935060208301925050600181019050610903565b5050509392505050565b600061094d61094884611136565b6110b9565b905080838252602082019050828560208602820111156109705761096f611396565b5b60005b858110156109a057816109868882610af8565b845260208401935060208301925050600181019050610973565b5050509392505050565b60006109bd6109b884611162565b6110b9565b9050828152602081018484840111156109d9576109d861139b565b5b6109e48482856112c0565b509392505050565b6000813590506109fb81611520565b92915050565b600082601f830112610a1657610a15611391565b5b8135610a2684826020860161085a565b91505092915050565b600082601f830112610a4457610a43611391565b5b8135610a548482602086016108ca565b91505092915050565b600082601f830112610a7257610a71611391565b5b8135610a8284826020860161093a565b91505092915050565b600081359050610a9a81611537565b92915050565b600082601f830112610ab557610ab4611391565b5b8135610ac58482602086016109aa565b91505092915050565b600081359050610add8161154e565b92915050565b600081359050610af281611565565b92915050565b600081359050610b078161157c565b92915050565b600060208284031215610b2357610b226113a5565b5b6000610b31848285016109ec565b91505092915050565b60008060008060008060008060008060006101608c8e031215610b6057610b5f6113a5565b5b6000610b6e8e828f016109ec565b9b50506020610b7f8e828f016109ec565b9a505060408c013567ffffffffffffffff811115610ba057610b9f6113a0565b5b610bac8e828f01610a01565b99505060608c013567ffffffffffffffff811115610bcd57610bcc6113a0565b5b610bd98e828f01610a2f565b9850506080610bea8e828f01610ae3565b97505060a0610bfb8e828f01610ae3565b96505060c0610c0c8e828f01610ae3565b95505060e08c013567ffffffffffffffff811115610c2d57610c2c6113a0565b5b610c398e828f01610a5d565b945050610100610c4b8e828f01610a8b565b935050610120610c5d8e828f01610ae3565b9250506101408c013567ffffffffffffffff811115610c7f57610c7e6113a0565b5b610c8b8e828f01610aa0565b9150509295989b509295989b9093969950565b600060208284031215610cb457610cb36113a5565b5b6000610cc284828501610ace565b91505092915050565b6000610cd78383610cfb565b60208301905092915050565b6000610cef8383610edb565b60208301905092915050565b610d0481611232565b82525050565b610d1381611232565b82525050565b6000610d24826111b3565b610d2e81856111ee565b9350610d3983611193565b8060005b83811015610d6a578151610d518882610ccb565b9750610d5c836111d4565b925050600181019050610d3d565b5085935050505092915050565b6000610d82826111be565b610d8c81856111ff565b9350610d97836111a3565b8060005b83811015610dc8578151610daf8882610ce3565b9750610dba836111e1565b925050600181019050610d9b565b5085935050505092915050565b610dde81611244565b82525050565b6000610def826111c9565b610df98185611210565b9350610e098185602086016112cf565b610e12816113aa565b840191505092915050565b610e268161129c565b82525050565b6000610e39602e83611221565b9150610e44826113bb565b604082019050919050565b6000610e5c602683611221565b9150610e678261140a565b604082019050919050565b6000610e7f602083611221565b9150610e8a82611459565b602082019050919050565b6000610ea2603283611221565b9150610ead82611482565b604082019050919050565b6000610ec5603c83611221565b9150610ed0826114d1565b604082019050919050565b610ee481611282565b82525050565b610ef381611282565b82525050565b610f028161128c565b82525050565b6000602082019050610f1d6000830184610d0a565b92915050565b600061016082019050610f39600083018e610d0a565b610f46602083018d610d0a565b8181036040830152610f58818c610d19565b90508181036060830152610f6c818b610d77565b9050610f7b608083018a610eea565b610f8860a0830189610eea565b610f9560c0830188610eea565b610fa260e0830187610ef9565b610fb0610100830186610ef9565b610fbe610120830185610dd5565b610fcc610140830184610eea565b9c9b505050505050505050505050565b60006020820190508181036000830152610ff68184610de4565b905092915050565b60006020820190506110136000830184610e1d565b92915050565b6000602082019050818103600083015261103281610e2c565b9050919050565b6000602082019050818103600083015261105281610e4f565b9050919050565b6000602082019050818103600083015261107281610e72565b9050919050565b6000602082019050818103600083015261109281610e95565b9050919050565b600060208201905081810360008301526110b281610eb8565b9050919050565b60006110c36110d4565b90506110cf8282611302565b919050565b6000604051905090565b600067ffffffffffffffff8211156110f9576110f8611362565b5b602082029050602081019050919050565b600067ffffffffffffffff82111561112557611124611362565b5b602082029050602081019050919050565b600067ffffffffffffffff82111561115157611150611362565b5b602082029050602081019050919050565b600067ffffffffffffffff82111561117d5761117c611362565b5b611186826113aa565b9050602081019050919050565b6000819050602082019050919050565b6000819050602082019050919050565b600081519050919050565b600081519050919050565b600081519050919050565b6000602082019050919050565b6000602082019050919050565b600082825260208201905092915050565b600082825260208201905092915050565b600082825260208201905092915050565b600082825260208201905092915050565b600061123d82611262565b9050919050565b60008115159050919050565b600061125b82611232565b9050919050565b600073ffffffffffffffffffffffffffffffffffffffff82169050919050565b6000819050919050565b600063ffffffff82169050919050565b60006112a7826112ae565b9050919050565b60006112b982611262565b9050919050565b82818337600083830152505050565b60005b838110156112ed5780820151818401526020810190506112d2565b838111156112fc576000848401525b50505050565b61130b826113aa565b810181811067ffffffffffffffff8211171561132a57611329611362565b5b80604052505050565b7f4e487b7100000000000000000000000000000000000000000000000000000000600052603260045260246000fd5b7f4e487b7100000000000000000000000000000000000000000000000000000000600052604160045260246000fd5b600080fd5b600080fd5b600080fd5b600080fd5b600080fd5b6000601f19601f8301169050919050565b7f53656564466163746f72793a206d6173746572636f70792063616e6e6f74206260008201527f65207a65726f2061646472657373000000000000000000000000000000000000602082015250565b7f4f776e61626c653a206e6577206f776e657220697320746865207a65726f206160008201527f6464726573730000000000000000000000000000000000000000000000000000602082015250565b7f4f776e61626c653a2063616c6c6572206973206e6f7420746865206f776e6572600082015250565b7f53656564466163746f72793a206e6577206d6173746572636f70792063616e6e60008201527f6f74206265207a65726f20616464726573730000000000000000000000000000602082015250565b7f53656564466163746f72793a204861736e27742070726f766964656420626f7460008201527f682076657374696e67206475726174696f6e20616e6420636c69666600000000602082015250565b61152981611232565b811461153457600080fd5b50565b61154081611244565b811461154b57600080fd5b50565b61155781611250565b811461156257600080fd5b50565b61156e81611282565b811461157957600080fd5b50565b6115858161128c565b811461159057600080fd5b5056fea264697066735822122084997358f67973d67bfbe5231c7a6a06aefb5c9b4cf90c0296e722712db0821664736f6c63430008060033",
          "opcodes": "PUSH1 0x80 PUSH1 0x40 MSTORE CALLVALUE DUP1 ISZERO PUSH2 0x10 JUMPI PUSH1 0x0 DUP1 REVERT JUMPDEST POP PUSH2 0x2D PUSH2 0x22 PUSH2 0x32 PUSH1 0x20 SHL PUSH1 0x20 SHR JUMP JUMPDEST PUSH2 0x3A PUSH1 0x20 SHL PUSH1 0x20 SHR JUMP JUMPDEST PUSH2 0xFE JUMP JUMPDEST PUSH1 0x0 CALLER SWAP1 POP SWAP1 JUMP JUMPDEST PUSH1 0x0 DUP1 PUSH1 0x0 SWAP1 SLOAD SWAP1 PUSH2 0x100 EXP SWAP1 DIV PUSH20 0xFFFFFFFFFFFFFFFFFFFFFFFFFFFFFFFFFFFFFFFF AND SWAP1 POP DUP2 PUSH1 0x0 DUP1 PUSH2 0x100 EXP DUP2 SLOAD DUP2 PUSH20 0xFFFFFFFFFFFFFFFFFFFFFFFFFFFFFFFFFFFFFFFF MUL NOT AND SWAP1 DUP4 PUSH20 0xFFFFFFFFFFFFFFFFFFFFFFFFFFFFFFFFFFFFFFFF AND MUL OR SWAP1 SSTORE POP DUP2 PUSH20 0xFFFFFFFFFFFFFFFFFFFFFFFFFFFFFFFFFFFFFFFF AND DUP2 PUSH20 0xFFFFFFFFFFFFFFFFFFFFFFFFFFFFFFFFFFFFFFFF AND PUSH32 0x8BE0079C531659141344CD1FD0A4F28419497F9722A3DAAFE3B4186F6B6457E0 PUSH1 0x40 MLOAD PUSH1 0x40 MLOAD DUP1 SWAP2 SUB SWAP1 LOG3 POP POP JUMP JUMPDEST PUSH2 0x15C9 DUP1 PUSH2 0x10D PUSH1 0x0 CODECOPY PUSH1 0x0 RETURN INVALID PUSH1 0x80 PUSH1 0x40 MSTORE CALLVALUE DUP1 ISZERO PUSH2 0x10 JUMPI PUSH1 0x0 DUP1 REVERT JUMPDEST POP PUSH1 0x4 CALLDATASIZE LT PUSH2 0x62 JUMPI PUSH1 0x0 CALLDATALOAD PUSH1 0xE0 SHR DUP1 PUSH4 0x715018A6 EQ PUSH2 0x67 JUMPI DUP1 PUSH4 0x8DA5CB5B EQ PUSH2 0x71 JUMPI DUP1 PUSH4 0xA619486E EQ PUSH2 0x8F JUMPI DUP1 PUSH4 0xCF497E6C EQ PUSH2 0xAD JUMPI DUP1 PUSH4 0xDA235E6E EQ PUSH2 0xC9 JUMPI DUP1 PUSH4 0xF2FDE38B EQ PUSH2 0xF9 JUMPI JUMPDEST PUSH1 0x0 DUP1 REVERT JUMPDEST PUSH2 0x6F PUSH2 0x115 JUMP JUMPDEST STOP JUMPDEST PUSH2 0x79 PUSH2 0x19D JUMP JUMPDEST PUSH1 0x40 MLOAD PUSH2 0x86 SWAP2 SWAP1 PUSH2 0xF08 JUMP JUMPDEST PUSH1 0x40 MLOAD DUP1 SWAP2 SUB SWAP1 RETURN JUMPDEST PUSH2 0x97 PUSH2 0x1C6 JUMP JUMPDEST PUSH1 0x40 MLOAD PUSH2 0xA4 SWAP2 SWAP1 PUSH2 0xFFE JUMP JUMPDEST PUSH1 0x40 MLOAD DUP1 SWAP2 SUB SWAP1 RETURN JUMPDEST PUSH2 0xC7 PUSH1 0x4 DUP1 CALLDATASIZE SUB DUP2 ADD SWAP1 PUSH2 0xC2 SWAP2 SWAP1 PUSH2 0xC9E JUMP JUMPDEST PUSH2 0x1EC JUMP JUMPDEST STOP JUMPDEST PUSH2 0xE3 PUSH1 0x4 DUP1 CALLDATASIZE SUB DUP2 ADD SWAP1 PUSH2 0xDE SWAP2 SWAP1 PUSH2 0xB3A JUMP JUMPDEST PUSH2 0x31C JUMP JUMPDEST PUSH1 0x40 MLOAD PUSH2 0xF0 SWAP2 SWAP1 PUSH2 0xF08 JUMP JUMPDEST PUSH1 0x40 MLOAD DUP1 SWAP2 SUB SWAP1 RETURN JUMPDEST PUSH2 0x113 PUSH1 0x4 DUP1 CALLDATASIZE SUB DUP2 ADD SWAP1 PUSH2 0x10E SWAP2 SWAP1 PUSH2 0xB0D JUMP JUMPDEST PUSH2 0x62C JUMP JUMPDEST STOP JUMPDEST PUSH2 0x11D PUSH2 0x724 JUMP JUMPDEST PUSH20 0xFFFFFFFFFFFFFFFFFFFFFFFFFFFFFFFFFFFFFFFF AND PUSH2 0x13B PUSH2 0x19D JUMP JUMPDEST PUSH20 0xFFFFFFFFFFFFFFFFFFFFFFFFFFFFFFFFFFFFFFFF AND EQ PUSH2 0x191 JUMPI PUSH1 0x40 MLOAD PUSH32 0x8C379A000000000000000000000000000000000000000000000000000000000 DUP2 MSTORE PUSH1 0x4 ADD PUSH2 0x188 SWAP1 PUSH2 0x1059 JUMP JUMPDEST PUSH1 0x40 MLOAD DUP1 SWAP2 SUB SWAP1 REVERT JUMPDEST PUSH2 0x19B PUSH1 0x0 PUSH2 0x72C JUMP JUMPDEST JUMP JUMPDEST PUSH1 0x0 DUP1 PUSH1 0x0 SWAP1 SLOAD SWAP1 PUSH2 0x100 EXP SWAP1 DIV PUSH20 0xFFFFFFFFFFFFFFFFFFFFFFFFFFFFFFFFFFFFFFFF AND SWAP1 POP SWAP1 JUMP JUMPDEST PUSH1 0x1 PUSH1 0x0 SWAP1 SLOAD SWAP1 PUSH2 0x100 EXP SWAP1 DIV PUSH20 0xFFFFFFFFFFFFFFFFFFFFFFFFFFFFFFFFFFFFFFFF AND DUP2 JUMP JUMPDEST PUSH2 0x1F4 PUSH2 0x724 JUMP JUMPDEST PUSH20 0xFFFFFFFFFFFFFFFFFFFFFFFFFFFFFFFFFFFFFFFF AND PUSH2 0x212 PUSH2 0x19D JUMP JUMPDEST PUSH20 0xFFFFFFFFFFFFFFFFFFFFFFFFFFFFFFFFFFFFFFFF AND EQ PUSH2 0x268 JUMPI PUSH1 0x40 MLOAD PUSH32 0x8C379A000000000000000000000000000000000000000000000000000000000 DUP2 MSTORE PUSH1 0x4 ADD PUSH2 0x25F SWAP1 PUSH2 0x1059 JUMP JUMPDEST PUSH1 0x40 MLOAD DUP1 SWAP2 SUB SWAP1 REVERT JUMPDEST PUSH1 0x0 PUSH20 0xFFFFFFFFFFFFFFFFFFFFFFFFFFFFFFFFFFFFFFFF AND DUP2 PUSH20 0xFFFFFFFFFFFFFFFFFFFFFFFFFFFFFFFFFFFFFFFF AND EQ ISZERO PUSH2 0x2D8 JUMPI PUSH1 0x40 MLOAD PUSH32 0x8C379A000000000000000000000000000000000000000000000000000000000 DUP2 MSTORE PUSH1 0x4 ADD PUSH2 0x2CF SWAP1 PUSH2 0x1079 JUMP JUMPDEST PUSH1 0x40 MLOAD DUP1 SWAP2 SUB SWAP1 REVERT JUMPDEST DUP1 PUSH1 0x1 PUSH1 0x0 PUSH2 0x100 EXP DUP2 SLOAD DUP2 PUSH20 0xFFFFFFFFFFFFFFFFFFFFFFFFFFFFFFFFFFFFFFFF MUL NOT AND SWAP1 DUP4 PUSH20 0xFFFFFFFFFFFFFFFFFFFFFFFFFFFFFFFFFFFFFFFF AND MUL OR SWAP1 SSTORE POP POP JUMP JUMPDEST PUSH1 0x0 PUSH2 0x326 PUSH2 0x724 JUMP JUMPDEST PUSH20 0xFFFFFFFFFFFFFFFFFFFFFFFFFFFFFFFFFFFFFFFF AND PUSH2 0x344 PUSH2 0x19D JUMP JUMPDEST PUSH20 0xFFFFFFFFFFFFFFFFFFFFFFFFFFFFFFFFFFFFFFFF AND EQ PUSH2 0x39A JUMPI PUSH1 0x40 MLOAD PUSH32 0x8C379A000000000000000000000000000000000000000000000000000000000 DUP2 MSTORE PUSH1 0x4 ADD PUSH2 0x391 SWAP1 PUSH2 0x1059 JUMP JUMPDEST PUSH1 0x40 MLOAD DUP1 SWAP2 SUB SWAP1 REVERT JUMPDEST PUSH1 0x0 PUSH20 0xFFFFFFFFFFFFFFFFFFFFFFFFFFFFFFFFFFFFFFFF AND PUSH1 0x1 PUSH1 0x0 SWAP1 SLOAD SWAP1 PUSH2 0x100 EXP SWAP1 DIV PUSH20 0xFFFFFFFFFFFFFFFFFFFFFFFFFFFFFFFFFFFFFFFF AND PUSH20 0xFFFFFFFFFFFFFFFFFFFFFFFFFFFFFFFFFFFFFFFF AND EQ ISZERO PUSH2 0x42C JUMPI PUSH1 0x40 MLOAD PUSH32 0x8C379A000000000000000000000000000000000000000000000000000000000 DUP2 MSTORE PUSH1 0x4 ADD PUSH2 0x423 SWAP1 PUSH2 0x1019 JUMP JUMPDEST PUSH1 0x40 MLOAD DUP1 SWAP2 SUB SWAP1 REVERT JUMPDEST PUSH1 0x2 DUP6 MLOAD EQ PUSH2 0x470 JUMPI PUSH1 0x40 MLOAD PUSH32 0x8C379A000000000000000000000000000000000000000000000000000000000 DUP2 MSTORE PUSH1 0x4 ADD PUSH2 0x467 SWAP1 PUSH2 0x1099 JUMP JUMPDEST PUSH1 0x40 MLOAD DUP1 SWAP2 SUB SWAP1 REVERT JUMPDEST PUSH1 0x0 PUSH2 0x49D PUSH1 0x1 PUSH1 0x0 SWAP1 SLOAD SWAP1 PUSH2 0x100 EXP SWAP1 DIV PUSH20 0xFFFFFFFFFFFFFFFFFFFFFFFFFFFFFFFFFFFFFFFF AND PUSH2 0x7F0 JUMP JUMPDEST SWAP1 POP DUP1 PUSH20 0xFFFFFFFFFFFFFFFFFFFFFFFFFFFFFFFFFFFFFFFF AND PUSH4 0xFC582D41 DUP5 PUSH1 0x40 MLOAD DUP3 PUSH4 0xFFFFFFFF AND PUSH1 0xE0 SHL DUP2 MSTORE PUSH1 0x4 ADD PUSH2 0x4D8 SWAP2 SWAP1 PUSH2 0xFDC JUMP JUMPDEST PUSH1 0x0 PUSH1 0x40 MLOAD DUP1 DUP4 SUB DUP2 PUSH1 0x0 DUP8 DUP1 EXTCODESIZE ISZERO DUP1 ISZERO PUSH2 0x4F2 JUMPI PUSH1 0x0 DUP1 REVERT JUMPDEST POP GAS CALL ISZERO DUP1 ISZERO PUSH2 0x506 JUMPI RETURNDATASIZE PUSH1 0x0 DUP1 RETURNDATACOPY RETURNDATASIZE PUSH1 0x0 REVERT JUMPDEST POP POP POP POP DUP1 PUSH20 0xFFFFFFFFFFFFFFFFFFFFFFFFFFFFFFFFFFFFFFFF AND PUSH4 0x44F9ABB8 DUP15 DUP15 DUP15 DUP15 DUP15 DUP15 DUP15 DUP15 PUSH1 0x0 DUP2 MLOAD DUP2 LT PUSH2 0x541 JUMPI PUSH2 0x540 PUSH2 0x1333 JUMP JUMPDEST JUMPDEST PUSH1 0x20 MUL PUSH1 0x20 ADD ADD MLOAD DUP16 PUSH1 0x1 DUP2 MLOAD DUP2 LT PUSH2 0x55D JUMPI PUSH2 0x55C PUSH2 0x1333 JUMP JUMPDEST JUMPDEST PUSH1 0x20 MUL PUSH1 0x20 ADD ADD MLOAD DUP16 DUP16 PUSH1 0x40 MLOAD DUP13 PUSH4 0xFFFFFFFF AND PUSH1 0xE0 SHL DUP2 MSTORE PUSH1 0x4 ADD PUSH2 0x58D SWAP12 SWAP11 SWAP10 SWAP9 SWAP8 SWAP7 SWAP6 SWAP5 SWAP4 SWAP3 SWAP2 SWAP1 PUSH2 0xF23 JUMP JUMPDEST PUSH1 0x0 PUSH1 0x40 MLOAD DUP1 DUP4 SUB DUP2 PUSH1 0x0 DUP8 DUP1 EXTCODESIZE ISZERO DUP1 ISZERO PUSH2 0x5A7 JUMPI PUSH1 0x0 DUP1 REVERT JUMPDEST POP GAS CALL ISZERO DUP1 ISZERO PUSH2 0x5BB JUMPI RETURNDATASIZE PUSH1 0x0 DUP1 RETURNDATACOPY RETURNDATASIZE PUSH1 0x0 REVERT JUMPDEST POP POP POP POP CALLER PUSH20 0xFFFFFFFFFFFFFFFFFFFFFFFFFFFFFFFFFFFFFFFF AND DUP2 PUSH20 0xFFFFFFFFFFFFFFFFFFFFFFFFFFFFFFFFFFFFFFFF AND PUSH32 0x23FEA745EC0EBBC17CC138CC8D1BACA7BDE3CE83B1FD6D5E1DE5839615863639 PUSH1 0x40 MLOAD PUSH1 0x40 MLOAD DUP1 SWAP2 SUB SWAP1 LOG3 DUP1 SWAP2 POP POP SWAP12 SWAP11 POP POP POP POP POP POP POP POP POP POP POP JUMP JUMPDEST PUSH2 0x634 PUSH2 0x724 JUMP JUMPDEST PUSH20 0xFFFFFFFFFFFFFFFFFFFFFFFFFFFFFFFFFFFFFFFF AND PUSH2 0x652 PUSH2 0x19D JUMP JUMPDEST PUSH20 0xFFFFFFFFFFFFFFFFFFFFFFFFFFFFFFFFFFFFFFFF AND EQ PUSH2 0x6A8 JUMPI PUSH1 0x40 MLOAD PUSH32 0x8C379A000000000000000000000000000000000000000000000000000000000 DUP2 MSTORE PUSH1 0x4 ADD PUSH2 0x69F SWAP1 PUSH2 0x1059 JUMP JUMPDEST PUSH1 0x40 MLOAD DUP1 SWAP2 SUB SWAP1 REVERT JUMPDEST PUSH1 0x0 PUSH20 0xFFFFFFFFFFFFFFFFFFFFFFFFFFFFFFFFFFFFFFFF AND DUP2 PUSH20 0xFFFFFFFFFFFFFFFFFFFFFFFFFFFFFFFFFFFFFFFF AND EQ ISZERO PUSH2 0x718 JUMPI PUSH1 0x40 MLOAD PUSH32 0x8C379A000000000000000000000000000000000000000000000000000000000 DUP2 MSTORE PUSH1 0x4 ADD PUSH2 0x70F SWAP1 PUSH2 0x1039 JUMP JUMPDEST PUSH1 0x40 MLOAD DUP1 SWAP2 SUB SWAP1 REVERT JUMPDEST PUSH2 0x721 DUP2 PUSH2 0x72C JUMP JUMPDEST POP JUMP JUMPDEST PUSH1 0x0 CALLER SWAP1 POP SWAP1 JUMP JUMPDEST PUSH1 0x0 DUP1 PUSH1 0x0 SWAP1 SLOAD SWAP1 PUSH2 0x100 EXP SWAP1 DIV PUSH20 0xFFFFFFFFFFFFFFFFFFFFFFFFFFFFFFFFFFFFFFFF AND SWAP1 POP DUP2 PUSH1 0x0 DUP1 PUSH2 0x100 EXP DUP2 SLOAD DUP2 PUSH20 0xFFFFFFFFFFFFFFFFFFFFFFFFFFFFFFFFFFFFFFFF MUL NOT AND SWAP1 DUP4 PUSH20 0xFFFFFFFFFFFFFFFFFFFFFFFFFFFFFFFFFFFFFFFF AND MUL OR SWAP1 SSTORE POP DUP2 PUSH20 0xFFFFFFFFFFFFFFFFFFFFFFFFFFFFFFFFFFFFFFFF AND DUP2 PUSH20 0xFFFFFFFFFFFFFFFFFFFFFFFFFFFFFFFFFFFFFFFF AND PUSH32 0x8BE0079C531659141344CD1FD0A4F28419497F9722A3DAAFE3B4186F6B6457E0 PUSH1 0x40 MLOAD PUSH1 0x40 MLOAD DUP1 SWAP2 SUB SWAP1 LOG3 POP POP JUMP JUMPDEST PUSH1 0x0 DUP1 DUP3 PUSH1 0x60 SHL SWAP1 POP PUSH1 0x40 MLOAD PUSH32 0x3D602D80600A3D3981F3363D3D373D3D3D363D73000000000000000000000000 DUP2 MSTORE DUP2 PUSH1 0x14 DUP3 ADD MSTORE PUSH32 0x5AF43D82803E903D91602B57FD5BF30000000000000000000000000000000000 PUSH1 0x28 DUP3 ADD MSTORE PUSH1 0x37 DUP2 PUSH1 0x0 CREATE SWAP3 POP POP POP SWAP2 SWAP1 POP JUMP JUMPDEST PUSH1 0x0 PUSH2 0x86D PUSH2 0x868 DUP5 PUSH2 0x10DE JUMP JUMPDEST PUSH2 0x10B9 JUMP JUMPDEST SWAP1 POP DUP1 DUP4 DUP3 MSTORE PUSH1 0x20 DUP3 ADD SWAP1 POP DUP3 DUP6 PUSH1 0x20 DUP7 MUL DUP3 ADD GT ISZERO PUSH2 0x890 JUMPI PUSH2 0x88F PUSH2 0x1396 JUMP JUMPDEST JUMPDEST PUSH1 0x0 JUMPDEST DUP6 DUP2 LT ISZERO PUSH2 0x8C0 JUMPI DUP2 PUSH2 0x8A6 DUP9 DUP3 PUSH2 0x9EC JUMP JUMPDEST DUP5 MSTORE PUSH1 0x20 DUP5 ADD SWAP4 POP PUSH1 0x20 DUP4 ADD SWAP3 POP POP PUSH1 0x1 DUP2 ADD SWAP1 POP PUSH2 0x893 JUMP JUMPDEST POP POP POP SWAP4 SWAP3 POP POP POP JUMP JUMPDEST PUSH1 0x0 PUSH2 0x8DD PUSH2 0x8D8 DUP5 PUSH2 0x110A JUMP JUMPDEST PUSH2 0x10B9 JUMP JUMPDEST SWAP1 POP DUP1 DUP4 DUP3 MSTORE PUSH1 0x20 DUP3 ADD SWAP1 POP DUP3 DUP6 PUSH1 0x20 DUP7 MUL DUP3 ADD GT ISZERO PUSH2 0x900 JUMPI PUSH2 0x8FF PUSH2 0x1396 JUMP JUMPDEST JUMPDEST PUSH1 0x0 JUMPDEST DUP6 DUP2 LT ISZERO PUSH2 0x930 JUMPI DUP2 PUSH2 0x916 DUP9 DUP3 PUSH2 0xAE3 JUMP JUMPDEST DUP5 MSTORE PUSH1 0x20 DUP5 ADD SWAP4 POP PUSH1 0x20 DUP4 ADD SWAP3 POP POP PUSH1 0x1 DUP2 ADD SWAP1 POP PUSH2 0x903 JUMP JUMPDEST POP POP POP SWAP4 SWAP3 POP POP POP JUMP JUMPDEST PUSH1 0x0 PUSH2 0x94D PUSH2 0x948 DUP5 PUSH2 0x1136 JUMP JUMPDEST PUSH2 0x10B9 JUMP JUMPDEST SWAP1 POP DUP1 DUP4 DUP3 MSTORE PUSH1 0x20 DUP3 ADD SWAP1 POP DUP3 DUP6 PUSH1 0x20 DUP7 MUL DUP3 ADD GT ISZERO PUSH2 0x970 JUMPI PUSH2 0x96F PUSH2 0x1396 JUMP JUMPDEST JUMPDEST PUSH1 0x0 JUMPDEST DUP6 DUP2 LT ISZERO PUSH2 0x9A0 JUMPI DUP2 PUSH2 0x986 DUP9 DUP3 PUSH2 0xAF8 JUMP JUMPDEST DUP5 MSTORE PUSH1 0x20 DUP5 ADD SWAP4 POP PUSH1 0x20 DUP4 ADD SWAP3 POP POP PUSH1 0x1 DUP2 ADD SWAP1 POP PUSH2 0x973 JUMP JUMPDEST POP POP POP SWAP4 SWAP3 POP POP POP JUMP JUMPDEST PUSH1 0x0 PUSH2 0x9BD PUSH2 0x9B8 DUP5 PUSH2 0x1162 JUMP JUMPDEST PUSH2 0x10B9 JUMP JUMPDEST SWAP1 POP DUP3 DUP2 MSTORE PUSH1 0x20 DUP2 ADD DUP5 DUP5 DUP5 ADD GT ISZERO PUSH2 0x9D9 JUMPI PUSH2 0x9D8 PUSH2 0x139B JUMP JUMPDEST JUMPDEST PUSH2 0x9E4 DUP5 DUP3 DUP6 PUSH2 0x12C0 JUMP JUMPDEST POP SWAP4 SWAP3 POP POP POP JUMP JUMPDEST PUSH1 0x0 DUP2 CALLDATALOAD SWAP1 POP PUSH2 0x9FB DUP2 PUSH2 0x1520 JUMP JUMPDEST SWAP3 SWAP2 POP POP JUMP JUMPDEST PUSH1 0x0 DUP3 PUSH1 0x1F DUP4 ADD SLT PUSH2 0xA16 JUMPI PUSH2 0xA15 PUSH2 0x1391 JUMP JUMPDEST JUMPDEST DUP2 CALLDATALOAD PUSH2 0xA26 DUP5 DUP3 PUSH1 0x20 DUP7 ADD PUSH2 0x85A JUMP JUMPDEST SWAP2 POP POP SWAP3 SWAP2 POP POP JUMP JUMPDEST PUSH1 0x0 DUP3 PUSH1 0x1F DUP4 ADD SLT PUSH2 0xA44 JUMPI PUSH2 0xA43 PUSH2 0x1391 JUMP JUMPDEST JUMPDEST DUP2 CALLDATALOAD PUSH2 0xA54 DUP5 DUP3 PUSH1 0x20 DUP7 ADD PUSH2 0x8CA JUMP JUMPDEST SWAP2 POP POP SWAP3 SWAP2 POP POP JUMP JUMPDEST PUSH1 0x0 DUP3 PUSH1 0x1F DUP4 ADD SLT PUSH2 0xA72 JUMPI PUSH2 0xA71 PUSH2 0x1391 JUMP JUMPDEST JUMPDEST DUP2 CALLDATALOAD PUSH2 0xA82 DUP5 DUP3 PUSH1 0x20 DUP7 ADD PUSH2 0x93A JUMP JUMPDEST SWAP2 POP POP SWAP3 SWAP2 POP POP JUMP JUMPDEST PUSH1 0x0 DUP2 CALLDATALOAD SWAP1 POP PUSH2 0xA9A DUP2 PUSH2 0x1537 JUMP JUMPDEST SWAP3 SWAP2 POP POP JUMP JUMPDEST PUSH1 0x0 DUP3 PUSH1 0x1F DUP4 ADD SLT PUSH2 0xAB5 JUMPI PUSH2 0xAB4 PUSH2 0x1391 JUMP JUMPDEST JUMPDEST DUP2 CALLDATALOAD PUSH2 0xAC5 DUP5 DUP3 PUSH1 0x20 DUP7 ADD PUSH2 0x9AA JUMP JUMPDEST SWAP2 POP POP SWAP3 SWAP2 POP POP JUMP JUMPDEST PUSH1 0x0 DUP2 CALLDATALOAD SWAP1 POP PUSH2 0xADD DUP2 PUSH2 0x154E JUMP JUMPDEST SWAP3 SWAP2 POP POP JUMP JUMPDEST PUSH1 0x0 DUP2 CALLDATALOAD SWAP1 POP PUSH2 0xAF2 DUP2 PUSH2 0x1565 JUMP JUMPDEST SWAP3 SWAP2 POP POP JUMP JUMPDEST PUSH1 0x0 DUP2 CALLDATALOAD SWAP1 POP PUSH2 0xB07 DUP2 PUSH2 0x157C JUMP JUMPDEST SWAP3 SWAP2 POP POP JUMP JUMPDEST PUSH1 0x0 PUSH1 0x20 DUP3 DUP5 SUB SLT ISZERO PUSH2 0xB23 JUMPI PUSH2 0xB22 PUSH2 0x13A5 JUMP JUMPDEST JUMPDEST PUSH1 0x0 PUSH2 0xB31 DUP5 DUP3 DUP6 ADD PUSH2 0x9EC JUMP JUMPDEST SWAP2 POP POP SWAP3 SWAP2 POP POP JUMP JUMPDEST PUSH1 0x0 DUP1 PUSH1 0x0 DUP1 PUSH1 0x0 DUP1 PUSH1 0x0 DUP1 PUSH1 0x0 DUP1 PUSH1 0x0 PUSH2 0x160 DUP13 DUP15 SUB SLT ISZERO PUSH2 0xB60 JUMPI PUSH2 0xB5F PUSH2 0x13A5 JUMP JUMPDEST JUMPDEST PUSH1 0x0 PUSH2 0xB6E DUP15 DUP3 DUP16 ADD PUSH2 0x9EC JUMP JUMPDEST SWAP12 POP POP PUSH1 0x20 PUSH2 0xB7F DUP15 DUP3 DUP16 ADD PUSH2 0x9EC JUMP JUMPDEST SWAP11 POP POP PUSH1 0x40 DUP13 ADD CALLDATALOAD PUSH8 0xFFFFFFFFFFFFFFFF DUP2 GT ISZERO PUSH2 0xBA0 JUMPI PUSH2 0xB9F PUSH2 0x13A0 JUMP JUMPDEST JUMPDEST PUSH2 0xBAC DUP15 DUP3 DUP16 ADD PUSH2 0xA01 JUMP JUMPDEST SWAP10 POP POP PUSH1 0x60 DUP13 ADD CALLDATALOAD PUSH8 0xFFFFFFFFFFFFFFFF DUP2 GT ISZERO PUSH2 0xBCD JUMPI PUSH2 0xBCC PUSH2 0x13A0 JUMP JUMPDEST JUMPDEST PUSH2 0xBD9 DUP15 DUP3 DUP16 ADD PUSH2 0xA2F JUMP JUMPDEST SWAP9 POP POP PUSH1 0x80 PUSH2 0xBEA DUP15 DUP3 DUP16 ADD PUSH2 0xAE3 JUMP JUMPDEST SWAP8 POP POP PUSH1 0xA0 PUSH2 0xBFB DUP15 DUP3 DUP16 ADD PUSH2 0xAE3 JUMP JUMPDEST SWAP7 POP POP PUSH1 0xC0 PUSH2 0xC0C DUP15 DUP3 DUP16 ADD PUSH2 0xAE3 JUMP JUMPDEST SWAP6 POP POP PUSH1 0xE0 DUP13 ADD CALLDATALOAD PUSH8 0xFFFFFFFFFFFFFFFF DUP2 GT ISZERO PUSH2 0xC2D JUMPI PUSH2 0xC2C PUSH2 0x13A0 JUMP JUMPDEST JUMPDEST PUSH2 0xC39 DUP15 DUP3 DUP16 ADD PUSH2 0xA5D JUMP JUMPDEST SWAP5 POP POP PUSH2 0x100 PUSH2 0xC4B DUP15 DUP3 DUP16 ADD PUSH2 0xA8B JUMP JUMPDEST SWAP4 POP POP PUSH2 0x120 PUSH2 0xC5D DUP15 DUP3 DUP16 ADD PUSH2 0xAE3 JUMP JUMPDEST SWAP3 POP POP PUSH2 0x140 DUP13 ADD CALLDATALOAD PUSH8 0xFFFFFFFFFFFFFFFF DUP2 GT ISZERO PUSH2 0xC7F JUMPI PUSH2 0xC7E PUSH2 0x13A0 JUMP JUMPDEST JUMPDEST PUSH2 0xC8B DUP15 DUP3 DUP16 ADD PUSH2 0xAA0 JUMP JUMPDEST SWAP2 POP POP SWAP3 SWAP6 SWAP9 SWAP12 POP SWAP3 SWAP6 SWAP9 SWAP12 SWAP1 SWAP4 SWAP7 SWAP10 POP JUMP JUMPDEST PUSH1 0x0 PUSH1 0x20 DUP3 DUP5 SUB SLT ISZERO PUSH2 0xCB4 JUMPI PUSH2 0xCB3 PUSH2 0x13A5 JUMP JUMPDEST JUMPDEST PUSH1 0x0 PUSH2 0xCC2 DUP5 DUP3 DUP6 ADD PUSH2 0xACE JUMP JUMPDEST SWAP2 POP POP SWAP3 SWAP2 POP POP JUMP JUMPDEST PUSH1 0x0 PUSH2 0xCD7 DUP4 DUP4 PUSH2 0xCFB JUMP JUMPDEST PUSH1 0x20 DUP4 ADD SWAP1 POP SWAP3 SWAP2 POP POP JUMP JUMPDEST PUSH1 0x0 PUSH2 0xCEF DUP4 DUP4 PUSH2 0xEDB JUMP JUMPDEST PUSH1 0x20 DUP4 ADD SWAP1 POP SWAP3 SWAP2 POP POP JUMP JUMPDEST PUSH2 0xD04 DUP2 PUSH2 0x1232 JUMP JUMPDEST DUP3 MSTORE POP POP JUMP JUMPDEST PUSH2 0xD13 DUP2 PUSH2 0x1232 JUMP JUMPDEST DUP3 MSTORE POP POP JUMP JUMPDEST PUSH1 0x0 PUSH2 0xD24 DUP3 PUSH2 0x11B3 JUMP JUMPDEST PUSH2 0xD2E DUP2 DUP6 PUSH2 0x11EE JUMP JUMPDEST SWAP4 POP PUSH2 0xD39 DUP4 PUSH2 0x1193 JUMP JUMPDEST DUP1 PUSH1 0x0 JUMPDEST DUP4 DUP2 LT ISZERO PUSH2 0xD6A JUMPI DUP2 MLOAD PUSH2 0xD51 DUP9 DUP3 PUSH2 0xCCB JUMP JUMPDEST SWAP8 POP PUSH2 0xD5C DUP4 PUSH2 0x11D4 JUMP JUMPDEST SWAP3 POP POP PUSH1 0x1 DUP2 ADD SWAP1 POP PUSH2 0xD3D JUMP JUMPDEST POP DUP6 SWAP4 POP POP POP POP SWAP3 SWAP2 POP POP JUMP JUMPDEST PUSH1 0x0 PUSH2 0xD82 DUP3 PUSH2 0x11BE JUMP JUMPDEST PUSH2 0xD8C DUP2 DUP6 PUSH2 0x11FF JUMP JUMPDEST SWAP4 POP PUSH2 0xD97 DUP4 PUSH2 0x11A3 JUMP JUMPDEST DUP1 PUSH1 0x0 JUMPDEST DUP4 DUP2 LT ISZERO PUSH2 0xDC8 JUMPI DUP2 MLOAD PUSH2 0xDAF DUP9 DUP3 PUSH2 0xCE3 JUMP JUMPDEST SWAP8 POP PUSH2 0xDBA DUP4 PUSH2 0x11E1 JUMP JUMPDEST SWAP3 POP POP PUSH1 0x1 DUP2 ADD SWAP1 POP PUSH2 0xD9B JUMP JUMPDEST POP DUP6 SWAP4 POP POP POP POP SWAP3 SWAP2 POP POP JUMP JUMPDEST PUSH2 0xDDE DUP2 PUSH2 0x1244 JUMP JUMPDEST DUP3 MSTORE POP POP JUMP JUMPDEST PUSH1 0x0 PUSH2 0xDEF DUP3 PUSH2 0x11C9 JUMP JUMPDEST PUSH2 0xDF9 DUP2 DUP6 PUSH2 0x1210 JUMP JUMPDEST SWAP4 POP PUSH2 0xE09 DUP2 DUP6 PUSH1 0x20 DUP7 ADD PUSH2 0x12CF JUMP JUMPDEST PUSH2 0xE12 DUP2 PUSH2 0x13AA JUMP JUMPDEST DUP5 ADD SWAP2 POP POP SWAP3 SWAP2 POP POP JUMP JUMPDEST PUSH2 0xE26 DUP2 PUSH2 0x129C JUMP JUMPDEST DUP3 MSTORE POP POP JUMP JUMPDEST PUSH1 0x0 PUSH2 0xE39 PUSH1 0x2E DUP4 PUSH2 0x1221 JUMP JUMPDEST SWAP2 POP PUSH2 0xE44 DUP3 PUSH2 0x13BB JUMP JUMPDEST PUSH1 0x40 DUP3 ADD SWAP1 POP SWAP2 SWAP1 POP JUMP JUMPDEST PUSH1 0x0 PUSH2 0xE5C PUSH1 0x26 DUP4 PUSH2 0x1221 JUMP JUMPDEST SWAP2 POP PUSH2 0xE67 DUP3 PUSH2 0x140A JUMP JUMPDEST PUSH1 0x40 DUP3 ADD SWAP1 POP SWAP2 SWAP1 POP JUMP JUMPDEST PUSH1 0x0 PUSH2 0xE7F PUSH1 0x20 DUP4 PUSH2 0x1221 JUMP JUMPDEST SWAP2 POP PUSH2 0xE8A DUP3 PUSH2 0x1459 JUMP JUMPDEST PUSH1 0x20 DUP3 ADD SWAP1 POP SWAP2 SWAP1 POP JUMP JUMPDEST PUSH1 0x0 PUSH2 0xEA2 PUSH1 0x32 DUP4 PUSH2 0x1221 JUMP JUMPDEST SWAP2 POP PUSH2 0xEAD DUP3 PUSH2 0x1482 JUMP JUMPDEST PUSH1 0x40 DUP3 ADD SWAP1 POP SWAP2 SWAP1 POP JUMP JUMPDEST PUSH1 0x0 PUSH2 0xEC5 PUSH1 0x3C DUP4 PUSH2 0x1221 JUMP JUMPDEST SWAP2 POP PUSH2 0xED0 DUP3 PUSH2 0x14D1 JUMP JUMPDEST PUSH1 0x40 DUP3 ADD SWAP1 POP SWAP2 SWAP1 POP JUMP JUMPDEST PUSH2 0xEE4 DUP2 PUSH2 0x1282 JUMP JUMPDEST DUP3 MSTORE POP POP JUMP JUMPDEST PUSH2 0xEF3 DUP2 PUSH2 0x1282 JUMP JUMPDEST DUP3 MSTORE POP POP JUMP JUMPDEST PUSH2 0xF02 DUP2 PUSH2 0x128C JUMP JUMPDEST DUP3 MSTORE POP POP JUMP JUMPDEST PUSH1 0x0 PUSH1 0x20 DUP3 ADD SWAP1 POP PUSH2 0xF1D PUSH1 0x0 DUP4 ADD DUP5 PUSH2 0xD0A JUMP JUMPDEST SWAP3 SWAP2 POP POP JUMP JUMPDEST PUSH1 0x0 PUSH2 0x160 DUP3 ADD SWAP1 POP PUSH2 0xF39 PUSH1 0x0 DUP4 ADD DUP15 PUSH2 0xD0A JUMP JUMPDEST PUSH2 0xF46 PUSH1 0x20 DUP4 ADD DUP14 PUSH2 0xD0A JUMP JUMPDEST DUP2 DUP2 SUB PUSH1 0x40 DUP4 ADD MSTORE PUSH2 0xF58 DUP2 DUP13 PUSH2 0xD19 JUMP JUMPDEST SWAP1 POP DUP2 DUP2 SUB PUSH1 0x60 DUP4 ADD MSTORE PUSH2 0xF6C DUP2 DUP12 PUSH2 0xD77 JUMP JUMPDEST SWAP1 POP PUSH2 0xF7B PUSH1 0x80 DUP4 ADD DUP11 PUSH2 0xEEA JUMP JUMPDEST PUSH2 0xF88 PUSH1 0xA0 DUP4 ADD DUP10 PUSH2 0xEEA JUMP JUMPDEST PUSH2 0xF95 PUSH1 0xC0 DUP4 ADD DUP9 PUSH2 0xEEA JUMP JUMPDEST PUSH2 0xFA2 PUSH1 0xE0 DUP4 ADD DUP8 PUSH2 0xEF9 JUMP JUMPDEST PUSH2 0xFB0 PUSH2 0x100 DUP4 ADD DUP7 PUSH2 0xEF9 JUMP JUMPDEST PUSH2 0xFBE PUSH2 0x120 DUP4 ADD DUP6 PUSH2 0xDD5 JUMP JUMPDEST PUSH2 0xFCC PUSH2 0x140 DUP4 ADD DUP5 PUSH2 0xEEA JUMP JUMPDEST SWAP13 SWAP12 POP POP POP POP POP POP POP POP POP POP POP POP JUMP JUMPDEST PUSH1 0x0 PUSH1 0x20 DUP3 ADD SWAP1 POP DUP2 DUP2 SUB PUSH1 0x0 DUP4 ADD MSTORE PUSH2 0xFF6 DUP2 DUP5 PUSH2 0xDE4 JUMP JUMPDEST SWAP1 POP SWAP3 SWAP2 POP POP JUMP JUMPDEST PUSH1 0x0 PUSH1 0x20 DUP3 ADD SWAP1 POP PUSH2 0x1013 PUSH1 0x0 DUP4 ADD DUP5 PUSH2 0xE1D JUMP JUMPDEST SWAP3 SWAP2 POP POP JUMP JUMPDEST PUSH1 0x0 PUSH1 0x20 DUP3 ADD SWAP1 POP DUP2 DUP2 SUB PUSH1 0x0 DUP4 ADD MSTORE PUSH2 0x1032 DUP2 PUSH2 0xE2C JUMP JUMPDEST SWAP1 POP SWAP2 SWAP1 POP JUMP JUMPDEST PUSH1 0x0 PUSH1 0x20 DUP3 ADD SWAP1 POP DUP2 DUP2 SUB PUSH1 0x0 DUP4 ADD MSTORE PUSH2 0x1052 DUP2 PUSH2 0xE4F JUMP JUMPDEST SWAP1 POP SWAP2 SWAP1 POP JUMP JUMPDEST PUSH1 0x0 PUSH1 0x20 DUP3 ADD SWAP1 POP DUP2 DUP2 SUB PUSH1 0x0 DUP4 ADD MSTORE PUSH2 0x1072 DUP2 PUSH2 0xE72 JUMP JUMPDEST SWAP1 POP SWAP2 SWAP1 POP JUMP JUMPDEST PUSH1 0x0 PUSH1 0x20 DUP3 ADD SWAP1 POP DUP2 DUP2 SUB PUSH1 0x0 DUP4 ADD MSTORE PUSH2 0x1092 DUP2 PUSH2 0xE95 JUMP JUMPDEST SWAP1 POP SWAP2 SWAP1 POP JUMP JUMPDEST PUSH1 0x0 PUSH1 0x20 DUP3 ADD SWAP1 POP DUP2 DUP2 SUB PUSH1 0x0 DUP4 ADD MSTORE PUSH2 0x10B2 DUP2 PUSH2 0xEB8 JUMP JUMPDEST SWAP1 POP SWAP2 SWAP1 POP JUMP JUMPDEST PUSH1 0x0 PUSH2 0x10C3 PUSH2 0x10D4 JUMP JUMPDEST SWAP1 POP PUSH2 0x10CF DUP3 DUP3 PUSH2 0x1302 JUMP JUMPDEST SWAP2 SWAP1 POP JUMP JUMPDEST PUSH1 0x0 PUSH1 0x40 MLOAD SWAP1 POP SWAP1 JUMP JUMPDEST PUSH1 0x0 PUSH8 0xFFFFFFFFFFFFFFFF DUP3 GT ISZERO PUSH2 0x10F9 JUMPI PUSH2 0x10F8 PUSH2 0x1362 JUMP JUMPDEST JUMPDEST PUSH1 0x20 DUP3 MUL SWAP1 POP PUSH1 0x20 DUP2 ADD SWAP1 POP SWAP2 SWAP1 POP JUMP JUMPDEST PUSH1 0x0 PUSH8 0xFFFFFFFFFFFFFFFF DUP3 GT ISZERO PUSH2 0x1125 JUMPI PUSH2 0x1124 PUSH2 0x1362 JUMP JUMPDEST JUMPDEST PUSH1 0x20 DUP3 MUL SWAP1 POP PUSH1 0x20 DUP2 ADD SWAP1 POP SWAP2 SWAP1 POP JUMP JUMPDEST PUSH1 0x0 PUSH8 0xFFFFFFFFFFFFFFFF DUP3 GT ISZERO PUSH2 0x1151 JUMPI PUSH2 0x1150 PUSH2 0x1362 JUMP JUMPDEST JUMPDEST PUSH1 0x20 DUP3 MUL SWAP1 POP PUSH1 0x20 DUP2 ADD SWAP1 POP SWAP2 SWAP1 POP JUMP JUMPDEST PUSH1 0x0 PUSH8 0xFFFFFFFFFFFFFFFF DUP3 GT ISZERO PUSH2 0x117D JUMPI PUSH2 0x117C PUSH2 0x1362 JUMP JUMPDEST JUMPDEST PUSH2 0x1186 DUP3 PUSH2 0x13AA JUMP JUMPDEST SWAP1 POP PUSH1 0x20 DUP2 ADD SWAP1 POP SWAP2 SWAP1 POP JUMP JUMPDEST PUSH1 0x0 DUP2 SWAP1 POP PUSH1 0x20 DUP3 ADD SWAP1 POP SWAP2 SWAP1 POP JUMP JUMPDEST PUSH1 0x0 DUP2 SWAP1 POP PUSH1 0x20 DUP3 ADD SWAP1 POP SWAP2 SWAP1 POP JUMP JUMPDEST PUSH1 0x0 DUP2 MLOAD SWAP1 POP SWAP2 SWAP1 POP JUMP JUMPDEST PUSH1 0x0 DUP2 MLOAD SWAP1 POP SWAP2 SWAP1 POP JUMP JUMPDEST PUSH1 0x0 DUP2 MLOAD SWAP1 POP SWAP2 SWAP1 POP JUMP JUMPDEST PUSH1 0x0 PUSH1 0x20 DUP3 ADD SWAP1 POP SWAP2 SWAP1 POP JUMP JUMPDEST PUSH1 0x0 PUSH1 0x20 DUP3 ADD SWAP1 POP SWAP2 SWAP1 POP JUMP JUMPDEST PUSH1 0x0 DUP3 DUP3 MSTORE PUSH1 0x20 DUP3 ADD SWAP1 POP SWAP3 SWAP2 POP POP JUMP JUMPDEST PUSH1 0x0 DUP3 DUP3 MSTORE PUSH1 0x20 DUP3 ADD SWAP1 POP SWAP3 SWAP2 POP POP JUMP JUMPDEST PUSH1 0x0 DUP3 DUP3 MSTORE PUSH1 0x20 DUP3 ADD SWAP1 POP SWAP3 SWAP2 POP POP JUMP JUMPDEST PUSH1 0x0 DUP3 DUP3 MSTORE PUSH1 0x20 DUP3 ADD SWAP1 POP SWAP3 SWAP2 POP POP JUMP JUMPDEST PUSH1 0x0 PUSH2 0x123D DUP3 PUSH2 0x1262 JUMP JUMPDEST SWAP1 POP SWAP2 SWAP1 POP JUMP JUMPDEST PUSH1 0x0 DUP2 ISZERO ISZERO SWAP1 POP SWAP2 SWAP1 POP JUMP JUMPDEST PUSH1 0x0 PUSH2 0x125B DUP3 PUSH2 0x1232 JUMP JUMPDEST SWAP1 POP SWAP2 SWAP1 POP JUMP JUMPDEST PUSH1 0x0 PUSH20 0xFFFFFFFFFFFFFFFFFFFFFFFFFFFFFFFFFFFFFFFF DUP3 AND SWAP1 POP SWAP2 SWAP1 POP JUMP JUMPDEST PUSH1 0x0 DUP2 SWAP1 POP SWAP2 SWAP1 POP JUMP JUMPDEST PUSH1 0x0 PUSH4 0xFFFFFFFF DUP3 AND SWAP1 POP SWAP2 SWAP1 POP JUMP JUMPDEST PUSH1 0x0 PUSH2 0x12A7 DUP3 PUSH2 0x12AE JUMP JUMPDEST SWAP1 POP SWAP2 SWAP1 POP JUMP JUMPDEST PUSH1 0x0 PUSH2 0x12B9 DUP3 PUSH2 0x1262 JUMP JUMPDEST SWAP1 POP SWAP2 SWAP1 POP JUMP JUMPDEST DUP3 DUP2 DUP4 CALLDATACOPY PUSH1 0x0 DUP4 DUP4 ADD MSTORE POP POP POP JUMP JUMPDEST PUSH1 0x0 JUMPDEST DUP4 DUP2 LT ISZERO PUSH2 0x12ED JUMPI DUP1 DUP3 ADD MLOAD DUP2 DUP5 ADD MSTORE PUSH1 0x20 DUP2 ADD SWAP1 POP PUSH2 0x12D2 JUMP JUMPDEST DUP4 DUP2 GT ISZERO PUSH2 0x12FC JUMPI PUSH1 0x0 DUP5 DUP5 ADD MSTORE JUMPDEST POP POP POP POP JUMP JUMPDEST PUSH2 0x130B DUP3 PUSH2 0x13AA JUMP JUMPDEST DUP2 ADD DUP2 DUP2 LT PUSH8 0xFFFFFFFFFFFFFFFF DUP3 GT OR ISZERO PUSH2 0x132A JUMPI PUSH2 0x1329 PUSH2 0x1362 JUMP JUMPDEST JUMPDEST DUP1 PUSH1 0x40 MSTORE POP POP POP JUMP JUMPDEST PUSH32 0x4E487B7100000000000000000000000000000000000000000000000000000000 PUSH1 0x0 MSTORE PUSH1 0x32 PUSH1 0x4 MSTORE PUSH1 0x24 PUSH1 0x0 REVERT JUMPDEST PUSH32 0x4E487B7100000000000000000000000000000000000000000000000000000000 PUSH1 0x0 MSTORE PUSH1 0x41 PUSH1 0x4 MSTORE PUSH1 0x24 PUSH1 0x0 REVERT JUMPDEST PUSH1 0x0 DUP1 REVERT JUMPDEST PUSH1 0x0 DUP1 REVERT JUMPDEST PUSH1 0x0 DUP1 REVERT JUMPDEST PUSH1 0x0 DUP1 REVERT JUMPDEST PUSH1 0x0 DUP1 REVERT JUMPDEST PUSH1 0x0 PUSH1 0x1F NOT PUSH1 0x1F DUP4 ADD AND SWAP1 POP SWAP2 SWAP1 POP JUMP JUMPDEST PUSH32 0x53656564466163746F72793A206D6173746572636F70792063616E6E6F742062 PUSH1 0x0 DUP3 ADD MSTORE PUSH32 0x65207A65726F2061646472657373000000000000000000000000000000000000 PUSH1 0x20 DUP3 ADD MSTORE POP JUMP JUMPDEST PUSH32 0x4F776E61626C653A206E6577206F776E657220697320746865207A65726F2061 PUSH1 0x0 DUP3 ADD MSTORE PUSH32 0x6464726573730000000000000000000000000000000000000000000000000000 PUSH1 0x20 DUP3 ADD MSTORE POP JUMP JUMPDEST PUSH32 0x4F776E61626C653A2063616C6C6572206973206E6F7420746865206F776E6572 PUSH1 0x0 DUP3 ADD MSTORE POP JUMP JUMPDEST PUSH32 0x53656564466163746F72793A206E6577206D6173746572636F70792063616E6E PUSH1 0x0 DUP3 ADD MSTORE PUSH32 0x6F74206265207A65726F20616464726573730000000000000000000000000000 PUSH1 0x20 DUP3 ADD MSTORE POP JUMP JUMPDEST PUSH32 0x53656564466163746F72793A204861736E27742070726F766964656420626F74 PUSH1 0x0 DUP3 ADD MSTORE PUSH32 0x682076657374696E67206475726174696F6E20616E6420636C69666600000000 PUSH1 0x20 DUP3 ADD MSTORE POP JUMP JUMPDEST PUSH2 0x1529 DUP2 PUSH2 0x1232 JUMP JUMPDEST DUP2 EQ PUSH2 0x1534 JUMPI PUSH1 0x0 DUP1 REVERT JUMPDEST POP JUMP JUMPDEST PUSH2 0x1540 DUP2 PUSH2 0x1244 JUMP JUMPDEST DUP2 EQ PUSH2 0x154B JUMPI PUSH1 0x0 DUP1 REVERT JUMPDEST POP JUMP JUMPDEST PUSH2 0x1557 DUP2 PUSH2 0x1250 JUMP JUMPDEST DUP2 EQ PUSH2 0x1562 JUMPI PUSH1 0x0 DUP1 REVERT JUMPDEST POP JUMP JUMPDEST PUSH2 0x156E DUP2 PUSH2 0x1282 JUMP JUMPDEST DUP2 EQ PUSH2 0x1579 JUMPI PUSH1 0x0 DUP1 REVERT JUMPDEST POP JUMP JUMPDEST PUSH2 0x1585 DUP2 PUSH2 0x128C JUMP JUMPDEST DUP2 EQ PUSH2 0x1590 JUMPI PUSH1 0x0 DUP1 REVERT JUMPDEST POP JUMP INVALID LOG2 PUSH5 0x6970667358 0x22 SLT KECCAK256 DUP5 SWAP10 PUSH20 0x58F67973D67BFBE5231C7A6A06AEFB5C9B4CF90C MUL SWAP7 0xE7 0x22 PUSH18 0x2DB0821664736F6C63430008060033000000 "
        },
        "gasEstimates": {
          "creation": {
            "codeDepositCost": "1115400",
            "executionCost": "infinite",
            "totalCost": "infinite"
          },
          "external": {
            "deploySeed(address,address,address[],uint256[],uint256,uint256,uint256,uint32[],bool,uint256,bytes)": "infinite",
            "masterCopy()": "2579",
            "owner()": "2522",
            "renounceOwnership()": "30352",
            "setMasterCopy(address)": "27087",
            "transferOwnership(address)": "30811"
          }
        },
        "methodIdentifiers": {
          "deploySeed(address,address,address[],uint256[],uint256,uint256,uint256,uint32[],bool,uint256,bytes)": "da235e6e",
          "masterCopy()": "a619486e",
          "owner()": "8da5cb5b",
          "renounceOwnership()": "715018a6",
          "setMasterCopy(address)": "cf497e6c",
          "transferOwnership(address)": "f2fde38b"
        }
      },
      "storageLayout": {
        "storage": [
          {
            "astId": 1358,
            "contract": "contracts/seed/SeedFactory.sol:SeedFactory",
            "label": "_owner",
            "offset": 0,
            "slot": "0",
            "type": "t_address"
          },
          {
            "astId": 1193,
            "contract": "contracts/seed/SeedFactory.sol:SeedFactory",
            "label": "masterCopy",
            "offset": 0,
            "slot": "1",
            "type": "t_contract(Seed)1179"
          }
        ],
        "types": {
          "t_address": {
            "encoding": "inplace",
            "label": "address",
            "numberOfBytes": "20"
          },
          "t_contract(Seed)1179": {
            "encoding": "inplace",
            "label": "contract Seed",
            "numberOfBytes": "20"
          }
        }
      },
      "userdoc": {
        "kind": "user",
        "methods": {},
        "version": 1
      }
    }
  }
}