{
  "contracts/seed/Seed.sol": {
    "Seed": {
      "abi": [
        {
          "anonymous": false,
          "inputs": [
            {
              "indexed": true,
              "internalType": "address",
              "name": "recipient",
              "type": "address"
            },
            {
              "indexed": false,
              "internalType": "uint256",
              "name": "amountReclaimed",
              "type": "uint256"
            }
          ],
          "name": "FundingReclaimed",
          "type": "event"
        },
        {
          "anonymous": false,
          "inputs": [
            {
              "indexed": true,
              "internalType": "bytes",
              "name": "metadata",
              "type": "bytes"
            }
          ],
          "name": "MetadataUpdated",
          "type": "event"
        },
        {
          "anonymous": false,
          "inputs": [
            {
              "indexed": true,
              "internalType": "address",
              "name": "recipient",
              "type": "address"
            },
            {
              "indexed": false,
              "internalType": "uint256",
              "name": "amountPurchased",
              "type": "uint256"
            }
          ],
          "name": "SeedsPurchased",
          "type": "event"
        },
        {
          "anonymous": false,
          "inputs": [
            {
              "indexed": true,
              "internalType": "address",
              "name": "recipient",
              "type": "address"
            },
            {
              "indexed": false,
              "internalType": "uint256",
              "name": "amount",
              "type": "uint256"
            },
            {
              "indexed": true,
              "internalType": "address",
              "name": "beneficiary",
              "type": "address"
            },
            {
              "indexed": false,
              "internalType": "uint256",
              "name": "feeAmount",
              "type": "uint256"
            }
          ],
          "name": "TokensClaimed",
          "type": "event"
        },
        {
          "inputs": [],
          "name": "admin",
          "outputs": [
            {
              "internalType": "address",
              "name": "",
              "type": "address"
            }
          ],
          "stateMutability": "view",
          "type": "function"
        },
        {
          "inputs": [],
          "name": "beneficiary",
          "outputs": [
            {
              "internalType": "address",
              "name": "",
              "type": "address"
            }
          ],
          "stateMutability": "view",
          "type": "function"
        },
        {
          "inputs": [
            {
              "internalType": "uint256",
              "name": "_fundingAmount",
              "type": "uint256"
            }
          ],
          "name": "buy",
          "outputs": [
            {
              "internalType": "uint256",
              "name": "",
              "type": "uint256"
            },
            {
              "internalType": "uint256",
              "name": "",
              "type": "uint256"
            }
          ],
          "stateMutability": "nonpayable",
          "type": "function"
        },
        {
          "inputs": [
            {
              "internalType": "address",
              "name": "_funder",
              "type": "address"
            }
          ],
          "name": "calculateClaim",
          "outputs": [
            {
              "internalType": "uint256",
              "name": "",
              "type": "uint256"
            }
          ],
          "stateMutability": "view",
          "type": "function"
        },
        {
          "inputs": [
            {
              "internalType": "address",
              "name": "_funder",
              "type": "address"
            },
            {
              "internalType": "uint256",
              "name": "_claimAmount",
              "type": "uint256"
            }
          ],
          "name": "claim",
          "outputs": [
            {
              "internalType": "uint256",
              "name": "",
              "type": "uint256"
            }
          ],
          "stateMutability": "nonpayable",
          "type": "function"
        },
        {
          "inputs": [],
          "name": "close",
          "outputs": [],
          "stateMutability": "nonpayable",
          "type": "function"
        },
        {
          "inputs": [],
          "name": "closed",
          "outputs": [
            {
              "internalType": "bool",
              "name": "",
              "type": "bool"
            }
          ],
          "stateMutability": "view",
          "type": "function"
        },
        {
          "inputs": [],
          "name": "endTime",
          "outputs": [
            {
              "internalType": "uint256",
              "name": "",
              "type": "uint256"
            }
          ],
          "stateMutability": "view",
          "type": "function"
        },
        {
          "inputs": [],
          "name": "fee",
          "outputs": [
            {
              "internalType": "uint256",
              "name": "",
              "type": "uint256"
            }
          ],
          "stateMutability": "view",
          "type": "function"
        },
        {
          "inputs": [],
          "name": "feeAmountRequired",
          "outputs": [
            {
              "internalType": "uint256",
              "name": "",
              "type": "uint256"
            }
          ],
          "stateMutability": "view",
          "type": "function"
        },
        {
          "inputs": [],
          "name": "feeClaimed",
          "outputs": [
            {
              "internalType": "uint256",
              "name": "",
              "type": "uint256"
            }
          ],
          "stateMutability": "view",
          "type": "function"
        },
        {
          "inputs": [
            {
              "internalType": "address",
              "name": "_funder",
              "type": "address"
            }
          ],
          "name": "feeClaimedForFunder",
          "outputs": [
            {
              "internalType": "uint256",
              "name": "",
              "type": "uint256"
            }
          ],
          "stateMutability": "view",
          "type": "function"
        },
        {
          "inputs": [
            {
              "internalType": "address",
              "name": "_funder",
              "type": "address"
            }
          ],
          "name": "feeForFunder",
          "outputs": [
            {
              "internalType": "uint256",
              "name": "",
              "type": "uint256"
            }
          ],
          "stateMutability": "view",
          "type": "function"
        },
        {
          "inputs": [],
          "name": "feeRemainder",
          "outputs": [
            {
              "internalType": "uint256",
              "name": "",
              "type": "uint256"
            }
          ],
          "stateMutability": "view",
          "type": "function"
        },
        {
          "inputs": [
            {
              "internalType": "address",
              "name": "",
              "type": "address"
            }
          ],
          "name": "funders",
          "outputs": [
            {
              "internalType": "uint256",
              "name": "totalClaimed",
              "type": "uint256"
            },
            {
              "internalType": "uint256",
              "name": "fundingAmount",
              "type": "uint256"
            }
          ],
          "stateMutability": "view",
          "type": "function"
        },
        {
          "inputs": [],
          "name": "fundingCollected",
          "outputs": [
            {
              "internalType": "uint256",
              "name": "",
              "type": "uint256"
            }
          ],
          "stateMutability": "view",
          "type": "function"
        },
        {
          "inputs": [],
          "name": "fundingToken",
          "outputs": [
            {
              "internalType": "contract IERC20",
              "name": "",
              "type": "address"
            }
          ],
          "stateMutability": "view",
          "type": "function"
        },
        {
          "inputs": [],
          "name": "fundingWithdrawn",
          "outputs": [
            {
              "internalType": "uint256",
              "name": "",
              "type": "uint256"
            }
          ],
          "stateMutability": "view",
          "type": "function"
        },
        {
          "inputs": [],
          "name": "hardCap",
          "outputs": [
            {
              "internalType": "uint256",
              "name": "",
              "type": "uint256"
            }
          ],
          "stateMutability": "view",
          "type": "function"
        },
        {
          "inputs": [
            {
              "internalType": "address",
              "name": "_beneficiary",
              "type": "address"
            },
            {
              "internalType": "address",
              "name": "_admin",
              "type": "address"
            },
            {
              "internalType": "address[]",
              "name": "_tokens",
              "type": "address[]"
            },
            {
              "internalType": "uint256[]",
              "name": "_softHardThresholds",
              "type": "uint256[]"
            },
            {
              "internalType": "uint256",
              "name": "_price",
              "type": "uint256"
            },
            {
              "internalType": "uint256",
              "name": "_startTime",
              "type": "uint256"
            },
            {
              "internalType": "uint256",
              "name": "_endTime",
              "type": "uint256"
            },
            {
              "internalType": "uint32",
              "name": "_vestingDuration",
              "type": "uint32"
            },
            {
              "internalType": "uint32",
              "name": "_vestingCliff",
              "type": "uint32"
            },
            {
              "internalType": "bool",
              "name": "_permissionedSeed",
              "type": "bool"
            },
            {
              "internalType": "uint256",
              "name": "_fee",
              "type": "uint256"
            }
          ],
          "name": "initialize",
          "outputs": [],
          "stateMutability": "nonpayable",
          "type": "function"
        },
        {
          "inputs": [],
          "name": "initialized",
          "outputs": [
            {
              "internalType": "bool",
              "name": "",
              "type": "bool"
            }
          ],
          "stateMutability": "view",
          "type": "function"
        },
        {
          "inputs": [],
          "name": "isFunded",
          "outputs": [
            {
              "internalType": "bool",
              "name": "",
              "type": "bool"
            }
          ],
          "stateMutability": "view",
          "type": "function"
        },
        {
          "inputs": [],
          "name": "maximumReached",
          "outputs": [
            {
              "internalType": "bool",
              "name": "",
              "type": "bool"
            }
          ],
          "stateMutability": "view",
          "type": "function"
        },
        {
          "inputs": [],
          "name": "metadata",
          "outputs": [
            {
              "internalType": "bytes",
              "name": "",
              "type": "bytes"
            }
          ],
          "stateMutability": "view",
          "type": "function"
        },
        {
          "inputs": [],
          "name": "minimumReached",
          "outputs": [
            {
              "internalType": "bool",
              "name": "",
              "type": "bool"
            }
          ],
          "stateMutability": "view",
          "type": "function"
        },
        {
          "inputs": [],
          "name": "pause",
          "outputs": [],
          "stateMutability": "nonpayable",
          "type": "function"
        },
        {
          "inputs": [],
          "name": "paused",
          "outputs": [
            {
              "internalType": "bool",
              "name": "",
              "type": "bool"
            }
          ],
          "stateMutability": "view",
          "type": "function"
        },
        {
          "inputs": [],
          "name": "permissionedSeed",
          "outputs": [
            {
              "internalType": "bool",
              "name": "",
              "type": "bool"
            }
          ],
          "stateMutability": "view",
          "type": "function"
        },
        {
          "inputs": [],
          "name": "price",
          "outputs": [
            {
              "internalType": "uint256",
              "name": "",
              "type": "uint256"
            }
          ],
          "stateMutability": "view",
          "type": "function"
        },
        {
          "inputs": [
            {
              "internalType": "address",
              "name": "_refundReceiver",
              "type": "address"
            }
          ],
          "name": "refundSeedTokens",
          "outputs": [],
          "stateMutability": "nonpayable",
          "type": "function"
        },
        {
          "inputs": [],
          "name": "retrieveFundingTokens",
          "outputs": [
            {
              "internalType": "uint256",
              "name": "",
              "type": "uint256"
            }
          ],
          "stateMutability": "nonpayable",
          "type": "function"
        },
        {
          "inputs": [
            {
              "internalType": "address",
              "name": "_funder",
              "type": "address"
            }
          ],
          "name": "seedAmountForFunder",
          "outputs": [
            {
              "internalType": "uint256",
              "name": "",
              "type": "uint256"
            }
          ],
          "stateMutability": "view",
          "type": "function"
        },
        {
          "inputs": [],
          "name": "seedAmountRequired",
          "outputs": [
            {
              "internalType": "uint256",
              "name": "",
              "type": "uint256"
            }
          ],
          "stateMutability": "view",
          "type": "function"
        },
        {
          "inputs": [],
          "name": "seedClaimed",
          "outputs": [
            {
              "internalType": "uint256",
              "name": "",
              "type": "uint256"
            }
          ],
          "stateMutability": "view",
          "type": "function"
        },
        {
          "inputs": [],
          "name": "seedRemainder",
          "outputs": [
            {
              "internalType": "uint256",
              "name": "",
              "type": "uint256"
            }
          ],
          "stateMutability": "view",
          "type": "function"
        },
        {
          "inputs": [],
          "name": "seedToken",
          "outputs": [
            {
              "internalType": "contract IERC20",
              "name": "",
              "type": "address"
            }
          ],
          "stateMutability": "view",
          "type": "function"
        },
        {
          "inputs": [],
          "name": "softCap",
          "outputs": [
            {
              "internalType": "uint256",
              "name": "",
              "type": "uint256"
            }
          ],
          "stateMutability": "view",
          "type": "function"
        },
        {
          "inputs": [],
          "name": "startTime",
          "outputs": [
            {
              "internalType": "uint256",
              "name": "",
              "type": "uint256"
            }
          ],
          "stateMutability": "view",
          "type": "function"
        },
        {
          "inputs": [],
          "name": "totalFunderCount",
          "outputs": [
            {
              "internalType": "uint256",
              "name": "",
              "type": "uint256"
            }
          ],
          "stateMutability": "view",
          "type": "function"
        },
        {
          "inputs": [],
          "name": "unpause",
          "outputs": [],
          "stateMutability": "nonpayable",
          "type": "function"
        },
        {
          "inputs": [
            {
              "internalType": "address",
              "name": "buyer",
              "type": "address"
            }
          ],
          "name": "unwhitelist",
          "outputs": [],
          "stateMutability": "nonpayable",
          "type": "function"
        },
        {
          "inputs": [
            {
              "internalType": "bytes",
              "name": "_metadata",
              "type": "bytes"
            }
          ],
          "name": "updateMetadata",
          "outputs": [],
          "stateMutability": "nonpayable",
          "type": "function"
        },
        {
          "inputs": [],
          "name": "vestingCliff",
          "outputs": [
            {
              "internalType": "uint32",
              "name": "",
              "type": "uint32"
            }
          ],
          "stateMutability": "view",
          "type": "function"
        },
        {
          "inputs": [],
          "name": "vestingDuration",
          "outputs": [
            {
              "internalType": "uint32",
              "name": "",
              "type": "uint32"
            }
          ],
          "stateMutability": "view",
          "type": "function"
        },
        {
          "inputs": [],
          "name": "vestingStartTime",
          "outputs": [
            {
              "internalType": "uint256",
              "name": "",
              "type": "uint256"
            }
          ],
          "stateMutability": "view",
          "type": "function"
        },
        {
          "inputs": [
            {
              "internalType": "address",
              "name": "_buyer",
              "type": "address"
            }
          ],
          "name": "whitelist",
          "outputs": [],
          "stateMutability": "nonpayable",
          "type": "function"
        },
        {
          "inputs": [
            {
              "internalType": "address[]",
              "name": "_buyers",
              "type": "address[]"
            }
          ],
          "name": "whitelistBatch",
          "outputs": [],
          "stateMutability": "nonpayable",
          "type": "function"
        },
        {
          "inputs": [
            {
              "internalType": "address",
              "name": "",
              "type": "address"
            }
          ],
          "name": "whitelisted",
          "outputs": [
            {
              "internalType": "bool",
              "name": "",
              "type": "bool"
            }
          ],
          "stateMutability": "view",
          "type": "function"
        },
        {
          "inputs": [],
          "name": "withdraw",
          "outputs": [],
          "stateMutability": "nonpayable",
          "type": "function"
        }
      ],
      "devdoc": {
        "details": "Smart contract for seed phases of liquid launch.",
        "kind": "dev",
        "methods": {
          "buy(uint256)": {
            "details": "Buy seed tokens.",
            "params": {
              "_fundingAmount": "The amount of funding tokens to contribute."
            }
          },
          "calculateClaim(address)": {
            "details": "Calculates the maximum claim",
            "params": {
              "_funder": "Address of funder to find the maximum claim"
            }
          },
          "claim(address,uint256)": {
            "details": "Claim vested seed tokens.",
            "params": {
              "_claimAmount": "The amount of seed token a users wants to claim.",
              "_funder": "Address of funder to calculate seconds and amount claimable"
            }
          },
          "close()": {
            "details": "Close distribution."
          },
          "feeClaimed()": {
            "details": "Amount of seed tokens claimed as fee"
          },
          "feeClaimedForFunder(address)": {
            "details": "get fee claimed for funder",
            "params": {
              "_funder": "address of funder to check fee claimed"
            }
          },
          "feeForFunder(address)": {
            "details": "get fee for funder",
            "params": {
              "_funder": "address of funder to check fee"
            }
          },
          "initialize(address,address,address[],uint256[],uint256,uint256,uint256,uint32,uint32,bool,uint256)": {
            "details": "Initialize Seed.",
            "params": {
              "_admin": "The address of the admin of this contract. Funds contract and has permissions to whitelist users, pause and close contract.",
              "_beneficiary": "The address that recieves fees.",
              "_endTime": "Distribution end time in unix timecode.",
              "_fee": "Success fee expressed as a % (e.g. 2*(10**18) = 2% fee)",
              "_permissionedSeed": "Set to true if only whitelisted adresses are allowed to participate.",
              "_price": "price of a SeedToken, expressed in fundingTokens, with precision of 10**18",
              "_softHardThresholds": "Array containing two params: - the minimum funding token collection threshold in wei denomination. - the highest possible funding token amount to be raised in wei denomination.",
              "_startTime": "Distribution start time in unix timecode.",
              "_tokens": "Array containing two params: - The address of the seed token being distributed.                                 - The address of the funding token being exchanged for seed token.",
              "_vestingCliff": "Cliff duration in seconds.",
              "_vestingDuration": "Vesting period duration in seconds."
            }
          },
          "pause()": {
            "details": "Pause distribution."
          },
          "refundSeedTokens(address)": {
            "details": "refund remaining seed tokens back to project.",
            "params": {
              "_refundReceiver": "refund receiver address"
            }
          },
          "retrieveFundingTokens()": {
            "details": "Returns funding tokens to user."
          },
          "seedAmountForFunder(address)": {
            "details": "get seed amount for funder",
            "params": {
              "_funder": "address of funder to seed amount"
            }
          },
          "unpause()": {
            "details": "Unpause distribution."
          },
          "unwhitelist(address)": {
            "details": "Remove address from whitelist.",
            "params": {
              "buyer": "Address which needs to be unwhitelisted"
            }
          },
          "updateMetadata(bytes)": {
            "details": "Updates metadata.",
            "params": {
              "_metadata": "Seed contract metadata, that is IPFS Hash"
            }
          },
          "whitelist(address)": {
            "details": "Add address to whitelist.",
            "params": {
              "_buyer": "Address which needs to be whitelisted"
            }
          },
          "whitelistBatch(address[])": {
            "details": "Add multiple addresses to whitelist.",
            "params": {
              "_buyers": "Array of addresses to whitelist addresses in batch"
            }
          },
          "withdraw()": {
            "details": "Withdraw funds from the contract"
          }
        },
        "title": "PrimeDAO Seed contract",
        "version": 1
      },
      "evm": {
        "bytecode": {
          "linkReferences": {},
          "object": "608060405234801561001057600080fd5b50614e69806100206000396000f3fe608060405234801561001057600080fd5b50600436106102bb5760003560e01c80637c65430311610182578063bc0f5f84116100e9578063e6e36ebb116100a2578063f3640e741161007c578063f3640e741461083e578063f851a4401461085c578063fb86a4041461087a578063fc582d4114610898576102bb565b8063e6e36ebb146107d4578063ea345540146107f2578063eaa5352314610822576102bb565b8063bc0f5f84146106e9578063d936547e14610707578063d96a094a14610737578063dc4b9e3814610768578063ddca3f4314610798578063e565eb4c146107b6576102bb565b80639b19251a1161013b5780639b19251a14610627578063a035b1fe14610643578063a8660a7814610661578063aad3ec961461067f578063af20bab8146106af578063b774682f146106cb576102bb565b80637c6543031461058957806383d59e00146105a75780638456cb59146105c55780638a2448aa146105cf578063906a26e0146105ed5780639a5904271461060b576102bb565b80633f4ba83a116102265780635c975abb116101df5780635c975abb146104c35780635d85ac0d146104e15780635e9777e81461051157806371f4b8e81461052f57806378065f271461054d57806378e979251461056b576102bb565b80633f4ba83a14610427578063430e99a41461043157806343d726d61461046157806344f9abb81461046b57806347d02f1b14610487578063597e1fb5146104a5576102bb565b8063311f848311610278578063311f8483146103875780633197cbb6146103a557806338af3eed146103c3578063392f37e9146103e15780633ccfd60b146103ff5780633dba9e4114610409576102bb565b8063031b3677146102c05780630826d2c7146102f1578063117a36d11461030f5780631514617e1461032d578063158ef93e1461034b5780631cfe562e14610369575b600080fd5b6102da60048036038101906102d5919061347b565b6108b4565b6040516102e8929190614104565b60405180910390f35b6102f96108d8565b60405161030691906140e9565b60405180910390f35b6103176108de565b6040516103249190613cb1565b60405180910390f35b6103356108f1565b604051610342919061412d565b60405180910390f35b610353610907565b6040516103609190613cb1565b60405180910390f35b61037161091a565b60405161037e91906140e9565b60405180910390f35b61038f610920565b60405161039c9190613cee565b60405180910390f35b6103ad610944565b6040516103ba91906140e9565b60405180910390f35b6103cb61094a565b6040516103d89190613c36565b60405180910390f35b6103e961096e565b6040516103f69190613ccc565b60405180910390f35b6104076109fc565b005b610411610bab565b60405161041e9190613cb1565b60405180910390f35b61042f610bbe565b005b61044b6004803603810190610446919061347b565b610d18565b60405161045891906140e9565b60405180910390f35b610469610d90565b005b610485600480360381019061048091906134a8565b610f48565b005b61048f6113d8565b60405161049c91906140e9565b60405180910390f35b6104ad6113de565b6040516104ba9190613cb1565b60405180910390f35b6104cb6113f1565b6040516104d89190613cb1565b60405180910390f35b6104fb60048036038101906104f6919061347b565b611404565b60405161050891906140e9565b60405180910390f35b610519611442565b60405161052691906140e9565b60405180910390f35b610537611448565b60405161054491906140e9565b60405180910390f35b61055561147e565b6040516105629190613cee565b60405180910390f35b6105736114a4565b60405161058091906140e9565b60405180910390f35b6105916114aa565b60405161059e9190613cb1565b60405180910390f35b6105af6114bd565b6040516105bc91906140e9565b60405180910390f35b6105cd6114c3565b005b6105d7611610565b6040516105e491906140e9565b60405180910390f35b6105f5611971565b60405161060291906140e9565b60405180910390f35b6106256004803603810190610620919061347b565b611977565b005b610641600480360381019061063c919061347b565b611b08565b005b61064b611c99565b60405161065891906140e9565b60405180910390f35b610669611c9f565b60405161067691906140e9565b60405180910390f35b610699600480360381019061069491906135d4565b611ca5565b6040516106a691906140e9565b60405180910390f35b6106c960048036038101906106c4919061347b565b6120da565b005b6106d3612542565b6040516106e091906140e9565b60405180910390f35b6106f1612548565b6040516106fe91906140e9565b60405180910390f35b610721600480360381019061071c919061347b565b61254e565b60405161072e9190613cb1565b60405180910390f35b610751600480360381019061074c91906136d3565b61256e565b60405161075f929190614104565b60405180910390f35b610782600480360381019061077d919061347b565b612c0c565b60405161078f91906140e9565b60405180910390f35b6107a0612c78565b6040516107ad91906140e9565b60405180910390f35b6107be612c7e565b6040516107cb9190613cb1565b60405180910390f35b6107dc612c91565b6040516107e991906140e9565b60405180910390f35b61080c6004803603810190610807919061347b565b612c97565b60405161081991906140e9565b60405180910390f35b61083c60048036038101906108379190613614565b612dc2565b005b610846612f8d565b604051610853919061412d565b60405180910390f35b610864612fa3565b6040516108719190613c36565b60405180910390f35b610882612fc9565b60405161088f91906140e9565b60405180910390f35b6108b260048036038101906108ad919061368a565b612fcf565b005b60166020528060005260406000206000915090508060000154908060010154905082565b60105481565b600d60059054906101000a900460ff1681565b600960019054906101000a900463ffffffff1681565b600d60039054906101000a900460ff1681565b60135481565b60098054906101000a900473ffffffffffffffffffffffffffffffffffffffff1681565b60085481565b60008054906101000a900473ffffffffffffffffffffffffffffffffffffffff1681565b600c805461097b90614401565b80601f01602080910402602001604051908101604052809291908181526020018280546109a790614401565b80156109f45780601f106109c9576101008083540402835291602001916109f4565b820191906000526020600020905b8154815290600101906020018083116109d757829003601f168201915b505050505081565b600160009054906101000a900473ffffffffffffffffffffffffffffffffffffffff1673ffffffffffffffffffffffffffffffffffffffff163373ffffffffffffffffffffffffffffffffffffffff1614610a8c576040517f08c379a0000000000000000000000000000000000000000000000000000000008152600401610a8390613f29565b60405180910390fd5b600d60049054906101000a900460ff16610adb576040517f08c379a0000000000000000000000000000000000000000000000000000000008152600401610ad290614089565b60405180910390fd5b6000601454601354610aed919061430f565b9050601354601481905550600a60009054906101000a900473ffffffffffffffffffffffffffffffffffffffff1673ffffffffffffffffffffffffffffffffffffffff1663a9059cbb33836040518363ffffffff1660e01b8152600401610b55929190613c88565b602060405180830381600087803b158015610b6f57600080fd5b505af1158015610b83573d6000803e3d6000fd5b505050506040513d601f19601f82011682018060405250810190610ba7919061365d565b5050565b600960009054906101000a900460ff1681565b600160009054906101000a900473ffffffffffffffffffffffffffffffffffffffff1673ffffffffffffffffffffffffffffffffffffffff163373ffffffffffffffffffffffffffffffffffffffff1614610c4e576040517f08c379a0000000000000000000000000000000000000000000000000000000008152600401610c4590613f29565b60405180910390fd5b60011515600d60009054906101000a900460ff1615151415610ca5576040517f08c379a0000000000000000000000000000000000000000000000000000000008152600401610c9c90613f49565b60405180910390fd5b60011515600d60019054906101000a900460ff16151514610cfb576040517f08c379a0000000000000000000000000000000000000000000000000000000008152600401610cf290613ee9565b60405180910390fd5b6000600d60016101000a81548160ff021916908315150217905550565b6000670de0b6b3a76400006064610d2f91906142b5565b600b54601660008573ffffffffffffffffffffffffffffffffffffffff1673ffffffffffffffffffffffffffffffffffffffff16815260200190815260200160002060000154610d7f91906142b5565b610d899190614284565b9050919050565b600160009054906101000a900473ffffffffffffffffffffffffffffffffffffffff1673ffffffffffffffffffffffffffffffffffffffff163373ffffffffffffffffffffffffffffffffffffffff1614610e20576040517f08c379a0000000000000000000000000000000000000000000000000000000008152600401610e1790613f29565b60405180910390fd5b600d60009054906101000a900460ff1615610e70576040517f08c379a0000000000000000000000000000000000000000000000000000000008152600401610e6790613f49565b60405180910390fd5b600d60019054906101000a900460ff1615610ec0576040517f08c379a0000000000000000000000000000000000000000000000000000000008152600401610eb790613fa9565b60405180910390fd5b600d60049054906101000a900460ff1615610f10576040517f08c379a0000000000000000000000000000000000000000000000000000000008152600401610f0790613fe9565b60405180910390fd5b6001600d60006101000a81548160ff0219169083151502179055506000600d60016101000a81548160ff021916908315150217905550565b600d60039054906101000a900460ff1615610f98576040517f08c379a0000000000000000000000000000000000000000000000000000000008152600401610f8f90613f89565b60405180910390fd5b6001600d60036101000a81548160ff02191690831515021790555088600181518110610fc757610fc661453a565b5b602002602001015173ffffffffffffffffffffffffffffffffffffffff1689600081518110610ff957610ff861453a565b5b602002602001015173ffffffffffffffffffffffffffffffffffffffff161415611058576040517f08c379a000000000000000000000000000000000000000000000000000000000815260040161104f90613de9565b60405180910390fd5b8760008151811061106c5761106b61453a565b5b6020026020010151886001815181106110885761108761453a565b5b602002602001015110156110d1576040517f08c379a00000000000000000000000000000000000000000000000000000000081526004016110c890613d69565b60405180910390fd5b8263ffffffff168463ffffffff161015611120576040517f08c379a000000000000000000000000000000000000000000000000000000000815260040161111790613ea9565b60405180910390fd5b858511611162576040517f08c379a000000000000000000000000000000000000000000000000000000000815260040161115990613e29565b60405180910390fd5b8a6000806101000a81548173ffffffffffffffffffffffffffffffffffffffff021916908373ffffffffffffffffffffffffffffffffffffffff16021790555089600160006101000a81548173ffffffffffffffffffffffffffffffffffffffff021916908373ffffffffffffffffffffffffffffffffffffffff160217905550876000815181106111f7576111f661453a565b5b6020026020010151600281905550876001815181106112195761121861453a565b5b6020026020010151600381905550866006819055508560078190555084600881905550600854600e8190555083600960016101000a81548163ffffffff021916908363ffffffff16021790555082600960056101000a81548163ffffffff021916908363ffffffff16021790555081600960006101000a81548160ff021916908315150217905550886000815181106112b5576112b461453a565b5b60200260200101516009806101000a81548173ffffffffffffffffffffffffffffffffffffffff021916908373ffffffffffffffffffffffffffffffffffffffff160217905550886001815181106113105761130f61453a565b5b6020026020010151600a60006101000a81548173ffffffffffffffffffffffffffffffffffffffff021916908373ffffffffffffffffffffffffffffffffffffffff16021790555080600b8190555086670de0b6b3a764000060035461137691906142b5565b6113809190614284565b600481905550670de0b6b3a7640000606461139b91906142b5565b816004546113a991906142b5565b6113b39190614284565b6005819055506004546010819055506005546012819055505050505050505050505050565b60115481565b600d60009054906101000a900460ff1681565b600d60019054906101000a900460ff1681565b6000670de0b6b3a7640000606461141b91906142b5565b600b5461142784612c0c565b61143191906142b5565b61143b9190614284565b9050919050565b600f5481565b6000670de0b6b3a7640000606461145f91906142b5565b600b5460115461146f91906142b5565b6114799190614284565b905090565b600a60009054906101000a900473ffffffffffffffffffffffffffffffffffffffff1681565b60075481565b600d60029054906101000a900460ff1681565b60145481565b600160009054906101000a900473ffffffffffffffffffffffffffffffffffffffff1673ffffffffffffffffffffffffffffffffffffffff163373ffffffffffffffffffffffffffffffffffffffff1614611553576040517f08c379a000000000000000000000000000000000000000000000000000000000815260040161154a90613f29565b60405180910390fd5b600d60009054906101000a900460ff16156115a3576040517f08c379a000000000000000000000000000000000000000000000000000000000815260040161159a90613f49565b60405180910390fd5b600d60019054906101000a900460ff16156115f3576040517f08c379a00000000000000000000000000000000000000000000000000000000081526004016115ea90613fa9565b60405180910390fd5b6001600d60016101000a81548160ff021916908315150217905550565b6000600d60019054906101000a900460ff1615611662576040517f08c379a000000000000000000000000000000000000000000000000000000000815260040161165990613fa9565b60405180910390fd5b4260075411156116a7576040517f08c379a000000000000000000000000000000000000000000000000000000000815260040161169e90614009565b60405180910390fd5b600d60049054906101000a900460ff16156116f7576040517f08c379a00000000000000000000000000000000000000000000000000000000081526004016116ee90614049565b60405180910390fd5b6000601660003373ffffffffffffffffffffffffffffffffffffffff1673ffffffffffffffffffffffffffffffffffffffff168152602001908152602001600020600101541161177c576040517f08c379a0000000000000000000000000000000000000000000000000000000008152600401611773906140c9565b60405180910390fd5b6000601660003373ffffffffffffffffffffffffffffffffffffffff1673ffffffffffffffffffffffffffffffffffffffff16815260200190815260200160002090506000816001015490506117d133612c0c565b601060008282546117e2919061422e565b925050819055506117f233611404565b60126000828254611803919061422e565b92505081905550600082600101819055508060136000828254611826919061430f565b92505081905550600a60009054906101000a900473ffffffffffffffffffffffffffffffffffffffff1673ffffffffffffffffffffffffffffffffffffffff1663a9059cbb33836040518363ffffffff1660e01b815260040161188a929190613c88565b602060405180830381600087803b1580156118a457600080fd5b505af11580156118b8573d6000803e3d6000fd5b505050506040513d601f19601f820116820180604052508101906118dc919061365d565b61191b576040517f08c379a000000000000000000000000000000000000000000000000000000000815260040161191290613e69565b60405180910390fd5b3373ffffffffffffffffffffffffffffffffffffffff167f1a689b1a62e3bb77f9c98d8759c04f341a67deb5cc63cf53be8324b6910649508260405161196191906140e9565b60405180910390a2809250505090565b60025481565b600160009054906101000a900473ffffffffffffffffffffffffffffffffffffffff1673ffffffffffffffffffffffffffffffffffffffff163373ffffffffffffffffffffffffffffffffffffffff1614611a07576040517f08c379a00000000000000000000000000000000000000000000000000000000081526004016119fe90613f29565b60405180910390fd5b600d60009054906101000a900460ff1615611a57576040517f08c379a0000000000000000000000000000000000000000000000000000000008152600401611a4e90613f49565b60405180910390fd5b60011515600960009054906101000a900460ff16151514611aad576040517f08c379a0000000000000000000000000000000000000000000000000000000008152600401611aa490614069565b60405180910390fd5b6000601560008373ffffffffffffffffffffffffffffffffffffffff1673ffffffffffffffffffffffffffffffffffffffff16815260200190815260200160002060006101000a81548160ff02191690831515021790555050565b600160009054906101000a900473ffffffffffffffffffffffffffffffffffffffff1673ffffffffffffffffffffffffffffffffffffffff163373ffffffffffffffffffffffffffffffffffffffff1614611b98576040517f08c379a0000000000000000000000000000000000000000000000000000000008152600401611b8f90613f29565b60405180910390fd5b600d60009054906101000a900460ff1615611be8576040517f08c379a0000000000000000000000000000000000000000000000000000000008152600401611bdf90613f49565b60405180910390fd5b60011515600960009054906101000a900460ff16151514611c3e576040517f08c379a0000000000000000000000000000000000000000000000000000000008152600401611c3590614069565b60405180910390fd5b6001601560008373ffffffffffffffffffffffffffffffffffffffff1673ffffffffffffffffffffffffffffffffffffffff16815260200190815260200160002060006101000a81548160ff02191690831515021790555050565b60065481565b600e5481565b6000600d60049054906101000a900460ff16611cf6576040517f08c379a0000000000000000000000000000000000000000000000000000000008152600401611ced90614089565b60405180910390fd5b426008541080611d125750600d60059054906101000a900460ff165b611d51576040517f08c379a0000000000000000000000000000000000000000000000000000000008152600401611d4890613dc9565b60405180910390fd5b6000611d5c84612c97565b905060008111611da1576040517f08c379a0000000000000000000000000000000000000000000000000000000008152600401611d98906140a9565b60405180910390fd5b82811015611de4576040517f08c379a0000000000000000000000000000000000000000000000000000000008152600401611ddb90613d49565b60405180910390fd5b6000670de0b6b3a76400006064611dfb91906142b5565b600b5485611e0991906142b5565b611e139190614284565b905083601660008773ffffffffffffffffffffffffffffffffffffffff1673ffffffffffffffffffffffffffffffffffffffff1681526020019081526020016000206000016000828254611e67919061422e565b925050819055508360116000828254611e80919061422e565b9250508190555060098054906101000a900473ffffffffffffffffffffffffffffffffffffffff1673ffffffffffffffffffffffffffffffffffffffff1663a9059cbb60008054906101000a900473ffffffffffffffffffffffffffffffffffffffff16836040518363ffffffff1660e01b8152600401611f02929190613c88565b602060405180830381600087803b158015611f1c57600080fd5b505af1158015611f30573d6000803e3d6000fd5b505050506040513d601f19601f82011682018060405250810190611f54919061365d565b8015612009575060098054906101000a900473ffffffffffffffffffffffffffffffffffffffff1673ffffffffffffffffffffffffffffffffffffffff1663a9059cbb86866040518363ffffffff1660e01b8152600401611fb6929190613c88565b602060405180830381600087803b158015611fd057600080fd5b505af1158015611fe4573d6000803e3d6000fd5b505050506040513d601f19601f82011682018060405250810190612008919061365d565b5b612048576040517f08c379a000000000000000000000000000000000000000000000000000000000815260040161203f90613ec9565b60405180910390fd5b60008054906101000a900473ffffffffffffffffffffffffffffffffffffffff1673ffffffffffffffffffffffffffffffffffffffff168573ffffffffffffffffffffffffffffffffffffffff167f9bd10be98695714f5cb43cefb59ba6417808b354710acafafe05e81b2649223186846040516120c7929190614104565b60405180910390a3809250505092915050565b600160009054906101000a900473ffffffffffffffffffffffffffffffffffffffff1673ffffffffffffffffffffffffffffffffffffffff163373ffffffffffffffffffffffffffffffffffffffff161461216a576040517f08c379a000000000000000000000000000000000000000000000000000000000815260040161216190613f29565b60405180910390fd5b600060085442119050600d60009054906101000a900460ff168061218b5750805b6121ca576040517f08c379a00000000000000000000000000000000000000000000000000000000081526004016121c190613e09565b60405180910390fd5b80156123a95760006012546010546121e2919061422e565b6005546004546121f2919061422e565b6121fc919061430f565b905060008160098054906101000a900473ffffffffffffffffffffffffffffffffffffffff1673ffffffffffffffffffffffffffffffffffffffff166370a08231306040518263ffffffff1660e01b815260040161225a9190613c36565b60206040518083038186803b15801561227257600080fd5b505afa158015612286573d6000803e3d6000fd5b505050506040513d601f19601f820116820180604052508101906122aa9190613700565b6122b4919061430f565b905060098054906101000a900473ffffffffffffffffffffffffffffffffffffffff1673ffffffffffffffffffffffffffffffffffffffff1663a9059cbb85836040518363ffffffff1660e01b8152600401612311929190613c88565b602060405180830381600087803b15801561232b57600080fd5b505af115801561233f573d6000803e3d6000fd5b505050506040513d601f19601f82011682018060405250810190612363919061365d565b6123a2576040517f08c379a000000000000000000000000000000000000000000000000000000000815260040161239990613d09565b60405180910390fd5b505061253e565b60098054906101000a900473ffffffffffffffffffffffffffffffffffffffff1673ffffffffffffffffffffffffffffffffffffffff1663a9059cbb8360098054906101000a900473ffffffffffffffffffffffffffffffffffffffff1673ffffffffffffffffffffffffffffffffffffffff166370a08231306040518263ffffffff1660e01b815260040161243f9190613c36565b60206040518083038186803b15801561245757600080fd5b505afa15801561246b573d6000803e3d6000fd5b505050506040513d601f19601f8201168201806040525081019061248f9190613700565b6040518363ffffffff1660e01b81526004016124ac929190613c88565b602060405180830381600087803b1580156124c657600080fd5b505af11580156124da573d6000803e3d6000fd5b505050506040513d601f19601f820116820180604052508101906124fe919061365d565b61253d576040517f08c379a000000000000000000000000000000000000000000000000000000000815260040161253490613d09565b60405180910390fd5b5b5050565b60125481565b60045481565b60156020528060005260406000206000915054906101000a900460ff1681565b600080600d60009054906101000a900460ff16156125c1576040517f08c379a00000000000000000000000000000000000000000000000000000000081526004016125b890613f49565b60405180910390fd5b600d60019054906101000a900460ff1615612611576040517f08c379a000000000000000000000000000000000000000000000000000000000815260040161260890613fa9565b60405180910390fd5b600d60059054906101000a900460ff1615612661576040517f08c379a000000000000000000000000000000000000000000000000000000000815260040161265890613d29565b60405180910390fd5b600960009054906101000a900460ff1615806126c65750601560003373ffffffffffffffffffffffffffffffffffffffff1673ffffffffffffffffffffffffffffffffffffffff16815260200190815260200160002060009054906101000a900460ff165b612705576040517f08c379a00000000000000000000000000000000000000000000000000000000081526004016126fc90613e89565b60405180910390fd5b426008541015801561271957504260075411155b612758576040517f08c379a000000000000000000000000000000000000000000000000000000000815260040161274f90613f69565b60405180910390fd5b600d60029054906101000a900460ff166128825760055460045461277c919061422e565b60098054906101000a900473ffffffffffffffffffffffffffffffffffffffff1673ffffffffffffffffffffffffffffffffffffffff166370a08231306040518263ffffffff1660e01b81526004016127d59190613c36565b60206040518083038186803b1580156127ed57600080fd5b505afa158015612801573d6000803e3d6000fd5b505050506040513d601f19601f820116820180604052508101906128259190613700565b1015612866576040517f08c379a000000000000000000000000000000000000000000000000000000000815260040161285d90614029565b60405180910390fd5b6001600d60026101000a81548160ff0219169083151502179055505b6000600654670de0b6b3a76400008561289b91906142b5565b6128a59190614284565b90506000670de0b6b3a764000060646128be91906142b5565b600b54836128cc91906142b5565b6128d69190614284565b9050600960019054906101000a900463ffffffff1663ffffffff16821015612933576040517f08c379a000000000000000000000000000000000000000000000000000000000815260040161292a90613e49565b60405180910390fd5b60035485601354612944919061422e565b1115612985576040517f08c379a000000000000000000000000000000000000000000000000000000000815260040161297c90613d89565b60405180910390fd5b8160105410156129ca576040517f08c379a00000000000000000000000000000000000000000000000000000000081526004016129c190613f09565b60405180910390fd5b84601360008282546129dc919061422e565b9250508190555081601060008282546129f5919061430f565b925050819055508060126000828254612a0e919061430f565b9250508190555060025460135410612a3c576001600d60046101000a81548160ff0219169083151502179055505b60035460135410612a6a576001600d60056101000a81548160ff02191690831515021790555042600e819055505b612ac13386601660003373ffffffffffffffffffffffffffffffffffffffff1673ffffffffffffffffffffffffffffffffffffffff16815260200190815260200160002060010154612abc919061422e565b6130da565b600a60009054906101000a900473ffffffffffffffffffffffffffffffffffffffff1673ffffffffffffffffffffffffffffffffffffffff166323b872dd3330886040518463ffffffff1660e01b8152600401612b2093929190613c51565b602060405180830381600087803b158015612b3a57600080fd5b505af1158015612b4e573d6000803e3d6000fd5b505050506040513d601f19601f82011682018060405250810190612b72919061365d565b612bb1576040517f08c379a0000000000000000000000000000000000000000000000000000000008152600401612ba890613fc9565b60405180910390fd5b3373ffffffffffffffffffffffffffffffffffffffff167fcf5ef2b227e797b567f0df4c49cc8b6207cfb60054eb899e5608de08e5dcb1ef83604051612bf791906140e9565b60405180910390a28181935093505050915091565b6000600654670de0b6b3a7640000601660008573ffffffffffffffffffffffffffffffffffffffff1673ffffffffffffffffffffffffffffffffffffffff16815260200190815260200160002060010154612c6791906142b5565b612c719190614284565b9050919050565b600b5481565b600d60049054906101000a900460ff1681565b60055481565b600080601660008473ffffffffffffffffffffffffffffffffffffffff1673ffffffffffffffffffffffffffffffffffffffff1681526020019081526020016000209050600e54421015612cef576000915050612dbd565b6000600e5442612cff919061430f565b9050600960059054906101000a900463ffffffff1663ffffffff16811015612d2c57600092505050612dbd565b600960019054906101000a900463ffffffff1663ffffffff168110612d6c578160000154612d5985612c0c565b612d63919061430f565b92505050612dbd565b6000600960019054906101000a900463ffffffff1663ffffffff16612d9086612c0c565b83612d9b91906142b5565b612da59190614284565b9050826000015481612db7919061430f565b93505050505b919050565b600160009054906101000a900473ffffffffffffffffffffffffffffffffffffffff1673ffffffffffffffffffffffffffffffffffffffff163373ffffffffffffffffffffffffffffffffffffffff1614612e52576040517f08c379a0000000000000000000000000000000000000000000000000000000008152600401612e4990613f29565b60405180910390fd5b600d60009054906101000a900460ff1615612ea2576040517f08c379a0000000000000000000000000000000000000000000000000000000008152600401612e9990613f49565b60405180910390fd5b60011515600960009054906101000a900460ff16151514612ef8576040517f08c379a0000000000000000000000000000000000000000000000000000000008152600401612eef90614069565b60405180910390fd5b60005b8151811015612f8957600160156000848481518110612f1d57612f1c61453a565b5b602002602001015173ffffffffffffffffffffffffffffffffffffffff1673ffffffffffffffffffffffffffffffffffffffff16815260200190815260200160002060006101000a81548160ff0219169083151502179055508080612f8190614464565b915050612efb565b5050565b600960059054906101000a900463ffffffff1681565b600160009054906101000a900473ffffffffffffffffffffffffffffffffffffffff1681565b60035481565b60011515600d60039054906101000a900460ff16151514158061303f5750600160009054906101000a900473ffffffffffffffffffffffffffffffffffffffff1673ffffffffffffffffffffffffffffffffffffffff163373ffffffffffffffffffffffffffffffffffffffff16145b61307e576040517f08c379a000000000000000000000000000000000000000000000000000000000815260040161307590613da9565b60405180910390fd5b80600c90805190602001906130949291906131ae565b50806040516130a39190613c1f565b60405180910390207f09f579b21815d3f81581d32e97736ccba1cc89d1918e48da28e6e206acd9686460405160405180910390a250565b6000601660008473ffffffffffffffffffffffffffffffffffffffff1673ffffffffffffffffffffffffffffffffffffffff16815260200190815260200160002060010154141561313e57600f600081548092919061313890614464565b91905055505b60405180604001604052806000815260200182815250601660008473ffffffffffffffffffffffffffffffffffffffff1673ffffffffffffffffffffffffffffffffffffffff16815260200190815260200160002060008201518160000155602082015181600101559050505050565b8280546131ba90614401565b90600052602060002090601f0160209004810192826131dc5760008555613223565b82601f106131f557805160ff1916838001178555613223565b82800160010185558215613223579182015b82811115613222578251825591602001919060010190613207565b5b5090506132309190613234565b5090565b5b8082111561324d576000816000905550600101613235565b5090565b600061326461325f8461416d565b614148565b905080838252602082019050828560208602820111156132875761328661459d565b5b60005b858110156132b7578161329d8882613373565b84526020840193506020830192505060018101905061328a565b5050509392505050565b60006132d46132cf84614199565b614148565b905080838252602082019050828560208602820111156132f7576132f661459d565b5b60005b85811015613327578161330d888261343c565b8452602084019350602083019250506001810190506132fa565b5050509392505050565b600061334461333f846141c5565b614148565b9050828152602081018484840111156133605761335f6145a2565b5b61336b8482856143bf565b509392505050565b60008135905061338281614dd7565b92915050565b600082601f83011261339d5761339c614598565b5b81356133ad848260208601613251565b91505092915050565b600082601f8301126133cb576133ca614598565b5b81356133db8482602086016132c1565b91505092915050565b6000813590506133f381614dee565b92915050565b60008151905061340881614dee565b92915050565b600082601f83011261342357613422614598565b5b8135613433848260208601613331565b91505092915050565b60008135905061344b81614e05565b92915050565b60008151905061346081614e05565b92915050565b60008135905061347581614e1c565b92915050565b600060208284031215613491576134906145ac565b5b600061349f84828501613373565b91505092915050565b60008060008060008060008060008060006101608c8e0312156134ce576134cd6145ac565b5b60006134dc8e828f01613373565b9b505060206134ed8e828f01613373565b9a505060408c013567ffffffffffffffff81111561350e5761350d6145a7565b5b61351a8e828f01613388565b99505060608c013567ffffffffffffffff81111561353b5761353a6145a7565b5b6135478e828f016133b6565b98505060806135588e828f0161343c565b97505060a06135698e828f0161343c565b96505060c061357a8e828f0161343c565b95505060e061358b8e828f01613466565b94505061010061359d8e828f01613466565b9350506101206135af8e828f016133e4565b9250506101406135c18e828f0161343c565b9150509295989b509295989b9093969950565b600080604083850312156135eb576135ea6145ac565b5b60006135f985828601613373565b925050602061360a8582860161343c565b9150509250929050565b60006020828403121561362a576136296145ac565b5b600082013567ffffffffffffffff811115613648576136476145a7565b5b61365484828501613388565b91505092915050565b600060208284031215613673576136726145ac565b5b6000613681848285016133f9565b91505092915050565b6000602082840312156136a05761369f6145ac565b5b600082013567ffffffffffffffff8111156136be576136bd6145a7565b5b6136ca8482850161340e565b91505092915050565b6000602082840312156136e9576136e86145ac565b5b60006136f78482850161343c565b91505092915050565b600060208284031215613716576137156145ac565b5b600061372484828501613451565b91505092915050565b61373681614343565b82525050565b61374581614355565b82525050565b6000613756826141f6565b6137608185614201565b93506137708185602086016143ce565b613779816145b1565b840191505092915050565b600061378f826141f6565b6137998185614212565b93506137a98185602086016143ce565b80840191505092915050565b6137be8161439b565b82525050565b60006137d160348361421d565b91506137dc826145c2565b604082019050919050565b60006137f4601d8361421d565b91506137ff82614611565b602082019050919050565b6000613817602e8361421d565b91506138228261463a565b604082019050919050565b600061383a60308361421d565b915061384582614689565b604082019050919050565b600061385d602a8361421d565b9150613868826146d8565b604082019050919050565b600061388060428361421d565b915061388b82614727565b606082019050919050565b60006138a3602b8361421d565b91506138ae8261479c565b604082019050919050565b60006138c6602d8361421d565b91506138d1826147eb565b604082019050919050565b60006138e9605e8361421d565b91506138f48261483a565b606082019050919050565b600061390c603b8361421d565b9150613917826148af565b604082019050919050565b600061392f601f8361421d565b915061393a826148fe565b602082019050919050565b600061395260308361421d565b915061395d82614927565b604082019050919050565b6000613975601a8361421d565b915061398082614976565b602082019050919050565b6000613998603d8361421d565b91506139a38261499f565b604082019050919050565b60006139bb60208361421d565b91506139c6826149ee565b602082019050919050565b60006139de60168361421d565b91506139e982614a17565b602082019050919050565b6000613a0160298361421d565b9150613a0c82614a40565b604082019050919050565b6000613a24601c8361421d565b9150613a2f82614a8f565b602082019050919050565b6000613a47601a8361421d565b9150613a5282614ab8565b602082019050919050565b6000613a6a602d8361421d565b9150613a7582614ae1565b604082019050919050565b6000613a8d60228361421d565b9150613a9882614b30565b604082019050919050565b6000613ab0601a8361421d565b9150613abb82614b7f565b602082019050919050565b6000613ad360278361421d565b9150613ade82614ba8565b604082019050919050565b6000613af660328361421d565b9150613b0182614bf7565b604082019050919050565b6000613b1960228361421d565b9150613b2482614c46565b604082019050919050565b6000613b3c60238361421d565b9150613b4782614c95565b604082019050919050565b6000613b5f60198361421d565b9150613b6a82614ce4565b602082019050919050565b6000613b82601d8361421d565b9150613b8d82614d0d565b602082019050919050565b6000613ba560248361421d565b9150613bb082614d36565b604082019050919050565b6000613bc8601b8361421d565b9150613bd382614d85565b602082019050919050565b6000613beb60198361421d565b9150613bf682614dae565b602082019050919050565b613c0a81614381565b82525050565b613c198161438b565b82525050565b6000613c2b8284613784565b915081905092915050565b6000602082019050613c4b600083018461372d565b92915050565b6000606082019050613c66600083018661372d565b613c73602083018561372d565b613c806040830184613c01565b949350505050565b6000604082019050613c9d600083018561372d565b613caa6020830184613c01565b9392505050565b6000602082019050613cc6600083018461373c565b92915050565b60006020820190508181036000830152613ce6818461374b565b905092915050565b6000602082019050613d0360008301846137b5565b92915050565b60006020820190508181036000830152613d22816137c4565b9050919050565b60006020820190508181036000830152613d42816137e7565b9050919050565b60006020820190508181036000830152613d628161380a565b9050919050565b60006020820190508181036000830152613d828161382d565b9050919050565b60006020820190508181036000830152613da281613850565b9050919050565b60006020820190508181036000830152613dc281613873565b9050919050565b60006020820190508181036000830152613de281613896565b9050919050565b60006020820190508181036000830152613e02816138b9565b9050919050565b60006020820190508181036000830152613e22816138dc565b9050919050565b60006020820190508181036000830152613e42816138ff565b9050919050565b60006020820190508181036000830152613e6281613922565b9050919050565b60006020820190508181036000830152613e8281613945565b9050919050565b60006020820190508181036000830152613ea281613968565b9050919050565b60006020820190508181036000830152613ec28161398b565b9050919050565b60006020820190508181036000830152613ee2816139ae565b9050919050565b60006020820190508181036000830152613f02816139d1565b9050919050565b60006020820190508181036000830152613f22816139f4565b9050919050565b60006020820190508181036000830152613f4281613a17565b9050919050565b60006020820190508181036000830152613f6281613a3a565b9050919050565b60006020820190508181036000830152613f8281613a5d565b9050919050565b60006020820190508181036000830152613fa281613a80565b9050919050565b60006020820190508181036000830152613fc281613aa3565b9050919050565b60006020820190508181036000830152613fe281613ac6565b9050919050565b6000602082019050818103600083015261400281613ae9565b9050919050565b6000602082019050818103600083015261402281613b0c565b9050919050565b6000602082019050818103600083015261404281613b2f565b9050919050565b6000602082019050818103600083015261406281613b52565b9050919050565b6000602082019050818103600083015261408281613b75565b9050919050565b600060208201905081810360008301526140a281613b98565b9050919050565b600060208201905081810360008301526140c281613bbb565b9050919050565b600060208201905081810360008301526140e281613bde565b9050919050565b60006020820190506140fe6000830184613c01565b92915050565b60006040820190506141196000830185613c01565b6141266020830184613c01565b9392505050565b60006020820190506141426000830184613c10565b92915050565b6000614152614163565b905061415e8282614433565b919050565b6000604051905090565b600067ffffffffffffffff82111561418857614187614569565b5b602082029050602081019050919050565b600067ffffffffffffffff8211156141b4576141b3614569565b5b602082029050602081019050919050565b600067ffffffffffffffff8211156141e0576141df614569565b5b6141e9826145b1565b9050602081019050919050565b600081519050919050565b600082825260208201905092915050565b600081905092915050565b600082825260208201905092915050565b600061423982614381565b915061424483614381565b9250827fffffffffffffffffffffffffffffffffffffffffffffffffffffffffffffffff03821115614279576142786144ad565b5b828201905092915050565b600061428f82614381565b915061429a83614381565b9250826142aa576142a96144dc565b5b828204905092915050565b60006142c082614381565b91506142cb83614381565b9250817fffffffffffffffffffffffffffffffffffffffffffffffffffffffffffffffff0483118215151615614304576143036144ad565b5b828202905092915050565b600061431a82614381565b915061432583614381565b925082821015614338576143376144ad565b5b828203905092915050565b600061434e82614361565b9050919050565b60008115159050919050565b600073ffffffffffffffffffffffffffffffffffffffff82169050919050565b6000819050919050565b600063ffffffff82169050919050565b60006143a6826143ad565b9050919050565b60006143b882614361565b9050919050565b82818337600083830152505050565b60005b838110156143ec5780820151818401526020810190506143d1565b838111156143fb576000848401525b50505050565b6000600282049050600182168061441957607f821691505b6020821081141561442d5761442c61450b565b5b50919050565b61443c826145b1565b810181811067ffffffffffffffff8211171561445b5761445a614569565b5b80604052505050565b600061446f82614381565b91507fffffffffffffffffffffffffffffffffffffffffffffffffffffffffffffffff8214156144a2576144a16144ad565b5b600182019050919050565b7f4e487b7100000000000000000000000000000000000000000000000000000000600052601160045260246000fd5b7f4e487b7100000000000000000000000000000000000000000000000000000000600052601260045260246000fd5b7f4e487b7100000000000000000000000000000000000000000000000000000000600052602260045260246000fd5b7f4e487b7100000000000000000000000000000000000000000000000000000000600052603260045260246000fd5b7f4e487b7100000000000000000000000000000000000000000000000000000000600052604160045260246000fd5b600080fd5b600080fd5b600080fd5b600080fd5b600080fd5b6000601f19601f8301169050919050565b7f536565643a2073686f756c64207472616e73666572207365656420746f6b656e60008201527f7320746f20726566756e64207265636569766572000000000000000000000000602082015250565b7f536565643a206d6178696d756d2066756e64696e672072656163686564000000600082015250565b7f536565643a20726571756573742069732067726561746572207468616e20636c60008201527f61696d61626c6520616d6f756e74000000000000000000000000000000000000602082015250565b7f53656564466163746f72793a20686172644361702063616e6e6f74206265206c60008201527f657373207468616e20736f667443617000000000000000000000000000000000602082015250565b7f536565643a20616d6f756e74206578636565647320636f6e747261637420736160008201527f6c65206861726443617000000000000000000000000000000000000000000000602082015250565b7f536565643a20636f6e74726163742073686f756c64206e6f7420626520696e6960008201527f7469616c697a6564206f722063616c6c65722073686f756c642062652061646d60208201527f696e000000000000000000000000000000000000000000000000000000000000604082015250565b7f536565643a2074686520646973747269627574696f6e20686173206e6f74207960008201527f65742066696e6973686564000000000000000000000000000000000000000000602082015250565b7f53656564466163746f72793a2073656564546f6b656e2063616e6e6f7420626560008201527f2066756e64696e67546f6b656e00000000000000000000000000000000000000602082015250565b7f536565643a20726566756e64207365656420746f6b656e73206f6e6c7920776860008201527f656e207365656420646973747269627574696f6e20697320636c6f736564206f60208201527f7220616674657220646973747269627574696f6e20656e642074696d652e0000604082015250565b7f53656564466163746f72793a20656e6454696d652063616e6e6f74206265206c60008201527f657373207468616e20657175616c20746f20737461727454696d650000000000602082015250565b7f536565643a20616d6f756e745665737465645065725365636f6e64203e203000600082015250565b7f536565643a2063616e6e6f742072657475726e2066756e64696e6720746f6b6560008201527f6e7320746f206d73672e73656e64657200000000000000000000000000000000602082015250565b7f536565643a2073656e64657220686173206e6f20726967687473000000000000600082015250565b7f53656564466163746f72793a2076657374696e674475726174696f6e2063616e60008201527f6e6f74206265206c657373207468616e2076657374696e67436c696666000000602082015250565b7f536565643a207365656420746f6b656e207472616e73666572206661696c6564600082015250565b7f536565643a2073686f756c642062652070617573656400000000000000000000600082015250565b7f536565643a207365656420646973747269627574696f6e20776f756c6420626560008201527f2065786365656465640000000000000000000000000000000000000000000000602082015250565b7f536565643a2063616c6c65722073686f756c642062652061646d696e00000000600082015250565b7f536565643a2073686f756c64206e6f7420626520636c6f736564000000000000600082015250565b7f536565643a206f6e6c7920616c6c6f77656420647572696e672064697374726960008201527f627574696f6e20706572696f6400000000000000000000000000000000000000602082015250565b7f536565643a20636f6e747261637420616c726561647920696e697469616c697a60008201527f6564000000000000000000000000000000000000000000000000000000000000602082015250565b7f536565643a2073686f756c64206e6f7420626520706175736564000000000000600082015250565b7f536565643a2066756e64696e6720746f6b656e207472616e7366657246726f6d60008201527f206661696c656400000000000000000000000000000000000000000000000000602082015250565b7f536565643a2063616e6e6f7420636c6f7365206166746572206d696e696d756d60008201527f2074617267657420697320726561636865640000000000000000000000000000602082015250565b7f536565643a20646973747269627574696f6e20686176656e277420737461727460008201527f6564000000000000000000000000000000000000000000000000000000000000602082015250565b7f536565643a2073756666696369656e74207365656473206e6f742070726f766960008201527f6465640000000000000000000000000000000000000000000000000000000000602082015250565b7f536565643a206d696e696d756d20616c7265616479206d657400000000000000600082015250565b7f536565643a2073656564206973206e6f742077686974656c6973746564000000600082015250565b7f536565643a206d696e696d756d2066756e64696e6720616d6f756e74206e6f7460008201527f206d657400000000000000000000000000000000000000000000000000000000602082015250565b7f536565643a20616d6f756e7420636c61696d61626c6520697320300000000000600082015250565b7f536565643a207a65726f2066756e64696e6720616d6f756e7400000000000000600082015250565b614de081614343565b8114614deb57600080fd5b50565b614df781614355565b8114614e0257600080fd5b50565b614e0e81614381565b8114614e1957600080fd5b50565b614e258161438b565b8114614e3057600080fd5b5056fea2646970667358221220f3eba3974f546a6438b682b37de201ce433f212eb0f02336aace9b1487a15e8064736f6c63430008060033",
          "opcodes": "PUSH1 0x80 PUSH1 0x40 MSTORE CALLVALUE DUP1 ISZERO PUSH2 0x10 JUMPI PUSH1 0x0 DUP1 REVERT JUMPDEST POP PUSH2 0x4E69 DUP1 PUSH2 0x20 PUSH1 0x0 CODECOPY PUSH1 0x0 RETURN INVALID PUSH1 0x80 PUSH1 0x40 MSTORE CALLVALUE DUP1 ISZERO PUSH2 0x10 JUMPI PUSH1 0x0 DUP1 REVERT JUMPDEST POP PUSH1 0x4 CALLDATASIZE LT PUSH2 0x2BB JUMPI PUSH1 0x0 CALLDATALOAD PUSH1 0xE0 SHR DUP1 PUSH4 0x7C654303 GT PUSH2 0x182 JUMPI DUP1 PUSH4 0xBC0F5F84 GT PUSH2 0xE9 JUMPI DUP1 PUSH4 0xE6E36EBB GT PUSH2 0xA2 JUMPI DUP1 PUSH4 0xF3640E74 GT PUSH2 0x7C JUMPI DUP1 PUSH4 0xF3640E74 EQ PUSH2 0x83E JUMPI DUP1 PUSH4 0xF851A440 EQ PUSH2 0x85C JUMPI DUP1 PUSH4 0xFB86A404 EQ PUSH2 0x87A JUMPI DUP1 PUSH4 0xFC582D41 EQ PUSH2 0x898 JUMPI PUSH2 0x2BB JUMP JUMPDEST DUP1 PUSH4 0xE6E36EBB EQ PUSH2 0x7D4 JUMPI DUP1 PUSH4 0xEA345540 EQ PUSH2 0x7F2 JUMPI DUP1 PUSH4 0xEAA53523 EQ PUSH2 0x822 JUMPI PUSH2 0x2BB JUMP JUMPDEST DUP1 PUSH4 0xBC0F5F84 EQ PUSH2 0x6E9 JUMPI DUP1 PUSH4 0xD936547E EQ PUSH2 0x707 JUMPI DUP1 PUSH4 0xD96A094A EQ PUSH2 0x737 JUMPI DUP1 PUSH4 0xDC4B9E38 EQ PUSH2 0x768 JUMPI DUP1 PUSH4 0xDDCA3F43 EQ PUSH2 0x798 JUMPI DUP1 PUSH4 0xE565EB4C EQ PUSH2 0x7B6 JUMPI PUSH2 0x2BB JUMP JUMPDEST DUP1 PUSH4 0x9B19251A GT PUSH2 0x13B JUMPI DUP1 PUSH4 0x9B19251A EQ PUSH2 0x627 JUMPI DUP1 PUSH4 0xA035B1FE EQ PUSH2 0x643 JUMPI DUP1 PUSH4 0xA8660A78 EQ PUSH2 0x661 JUMPI DUP1 PUSH4 0xAAD3EC96 EQ PUSH2 0x67F JUMPI DUP1 PUSH4 0xAF20BAB8 EQ PUSH2 0x6AF JUMPI DUP1 PUSH4 0xB774682F EQ PUSH2 0x6CB JUMPI PUSH2 0x2BB JUMP JUMPDEST DUP1 PUSH4 0x7C654303 EQ PUSH2 0x589 JUMPI DUP1 PUSH4 0x83D59E00 EQ PUSH2 0x5A7 JUMPI DUP1 PUSH4 0x8456CB59 EQ PUSH2 0x5C5 JUMPI DUP1 PUSH4 0x8A2448AA EQ PUSH2 0x5CF JUMPI DUP1 PUSH4 0x906A26E0 EQ PUSH2 0x5ED JUMPI DUP1 PUSH4 0x9A590427 EQ PUSH2 0x60B JUMPI PUSH2 0x2BB JUMP JUMPDEST DUP1 PUSH4 0x3F4BA83A GT PUSH2 0x226 JUMPI DUP1 PUSH4 0x5C975ABB GT PUSH2 0x1DF JUMPI DUP1 PUSH4 0x5C975ABB EQ PUSH2 0x4C3 JUMPI DUP1 PUSH4 0x5D85AC0D EQ PUSH2 0x4E1 JUMPI DUP1 PUSH4 0x5E9777E8 EQ PUSH2 0x511 JUMPI DUP1 PUSH4 0x71F4B8E8 EQ PUSH2 0x52F JUMPI DUP1 PUSH4 0x78065F27 EQ PUSH2 0x54D JUMPI DUP1 PUSH4 0x78E97925 EQ PUSH2 0x56B JUMPI PUSH2 0x2BB JUMP JUMPDEST DUP1 PUSH4 0x3F4BA83A EQ PUSH2 0x427 JUMPI DUP1 PUSH4 0x430E99A4 EQ PUSH2 0x431 JUMPI DUP1 PUSH4 0x43D726D6 EQ PUSH2 0x461 JUMPI DUP1 PUSH4 0x44F9ABB8 EQ PUSH2 0x46B JUMPI DUP1 PUSH4 0x47D02F1B EQ PUSH2 0x487 JUMPI DUP1 PUSH4 0x597E1FB5 EQ PUSH2 0x4A5 JUMPI PUSH2 0x2BB JUMP JUMPDEST DUP1 PUSH4 0x311F8483 GT PUSH2 0x278 JUMPI DUP1 PUSH4 0x311F8483 EQ PUSH2 0x387 JUMPI DUP1 PUSH4 0x3197CBB6 EQ PUSH2 0x3A5 JUMPI DUP1 PUSH4 0x38AF3EED EQ PUSH2 0x3C3 JUMPI DUP1 PUSH4 0x392F37E9 EQ PUSH2 0x3E1 JUMPI DUP1 PUSH4 0x3CCFD60B EQ PUSH2 0x3FF JUMPI DUP1 PUSH4 0x3DBA9E41 EQ PUSH2 0x409 JUMPI PUSH2 0x2BB JUMP JUMPDEST DUP1 PUSH4 0x31B3677 EQ PUSH2 0x2C0 JUMPI DUP1 PUSH4 0x826D2C7 EQ PUSH2 0x2F1 JUMPI DUP1 PUSH4 0x117A36D1 EQ PUSH2 0x30F JUMPI DUP1 PUSH4 0x1514617E EQ PUSH2 0x32D JUMPI DUP1 PUSH4 0x158EF93E EQ PUSH2 0x34B JUMPI DUP1 PUSH4 0x1CFE562E EQ PUSH2 0x369 JUMPI JUMPDEST PUSH1 0x0 DUP1 REVERT JUMPDEST PUSH2 0x2DA PUSH1 0x4 DUP1 CALLDATASIZE SUB DUP2 ADD SWAP1 PUSH2 0x2D5 SWAP2 SWAP1 PUSH2 0x347B JUMP JUMPDEST PUSH2 0x8B4 JUMP JUMPDEST PUSH1 0x40 MLOAD PUSH2 0x2E8 SWAP3 SWAP2 SWAP1 PUSH2 0x4104 JUMP JUMPDEST PUSH1 0x40 MLOAD DUP1 SWAP2 SUB SWAP1 RETURN JUMPDEST PUSH2 0x2F9 PUSH2 0x8D8 JUMP JUMPDEST PUSH1 0x40 MLOAD PUSH2 0x306 SWAP2 SWAP1 PUSH2 0x40E9 JUMP JUMPDEST PUSH1 0x40 MLOAD DUP1 SWAP2 SUB SWAP1 RETURN JUMPDEST PUSH2 0x317 PUSH2 0x8DE JUMP JUMPDEST PUSH1 0x40 MLOAD PUSH2 0x324 SWAP2 SWAP1 PUSH2 0x3CB1 JUMP JUMPDEST PUSH1 0x40 MLOAD DUP1 SWAP2 SUB SWAP1 RETURN JUMPDEST PUSH2 0x335 PUSH2 0x8F1 JUMP JUMPDEST PUSH1 0x40 MLOAD PUSH2 0x342 SWAP2 SWAP1 PUSH2 0x412D JUMP JUMPDEST PUSH1 0x40 MLOAD DUP1 SWAP2 SUB SWAP1 RETURN JUMPDEST PUSH2 0x353 PUSH2 0x907 JUMP JUMPDEST PUSH1 0x40 MLOAD PUSH2 0x360 SWAP2 SWAP1 PUSH2 0x3CB1 JUMP JUMPDEST PUSH1 0x40 MLOAD DUP1 SWAP2 SUB SWAP1 RETURN JUMPDEST PUSH2 0x371 PUSH2 0x91A JUMP JUMPDEST PUSH1 0x40 MLOAD PUSH2 0x37E SWAP2 SWAP1 PUSH2 0x40E9 JUMP JUMPDEST PUSH1 0x40 MLOAD DUP1 SWAP2 SUB SWAP1 RETURN JUMPDEST PUSH2 0x38F PUSH2 0x920 JUMP JUMPDEST PUSH1 0x40 MLOAD PUSH2 0x39C SWAP2 SWAP1 PUSH2 0x3CEE JUMP JUMPDEST PUSH1 0x40 MLOAD DUP1 SWAP2 SUB SWAP1 RETURN JUMPDEST PUSH2 0x3AD PUSH2 0x944 JUMP JUMPDEST PUSH1 0x40 MLOAD PUSH2 0x3BA SWAP2 SWAP1 PUSH2 0x40E9 JUMP JUMPDEST PUSH1 0x40 MLOAD DUP1 SWAP2 SUB SWAP1 RETURN JUMPDEST PUSH2 0x3CB PUSH2 0x94A JUMP JUMPDEST PUSH1 0x40 MLOAD PUSH2 0x3D8 SWAP2 SWAP1 PUSH2 0x3C36 JUMP JUMPDEST PUSH1 0x40 MLOAD DUP1 SWAP2 SUB SWAP1 RETURN JUMPDEST PUSH2 0x3E9 PUSH2 0x96E JUMP JUMPDEST PUSH1 0x40 MLOAD PUSH2 0x3F6 SWAP2 SWAP1 PUSH2 0x3CCC JUMP JUMPDEST PUSH1 0x40 MLOAD DUP1 SWAP2 SUB SWAP1 RETURN JUMPDEST PUSH2 0x407 PUSH2 0x9FC JUMP JUMPDEST STOP JUMPDEST PUSH2 0x411 PUSH2 0xBAB JUMP JUMPDEST PUSH1 0x40 MLOAD PUSH2 0x41E SWAP2 SWAP1 PUSH2 0x3CB1 JUMP JUMPDEST PUSH1 0x40 MLOAD DUP1 SWAP2 SUB SWAP1 RETURN JUMPDEST PUSH2 0x42F PUSH2 0xBBE JUMP JUMPDEST STOP JUMPDEST PUSH2 0x44B PUSH1 0x4 DUP1 CALLDATASIZE SUB DUP2 ADD SWAP1 PUSH2 0x446 SWAP2 SWAP1 PUSH2 0x347B JUMP JUMPDEST PUSH2 0xD18 JUMP JUMPDEST PUSH1 0x40 MLOAD PUSH2 0x458 SWAP2 SWAP1 PUSH2 0x40E9 JUMP JUMPDEST PUSH1 0x40 MLOAD DUP1 SWAP2 SUB SWAP1 RETURN JUMPDEST PUSH2 0x469 PUSH2 0xD90 JUMP JUMPDEST STOP JUMPDEST PUSH2 0x485 PUSH1 0x4 DUP1 CALLDATASIZE SUB DUP2 ADD SWAP1 PUSH2 0x480 SWAP2 SWAP1 PUSH2 0x34A8 JUMP JUMPDEST PUSH2 0xF48 JUMP JUMPDEST STOP JUMPDEST PUSH2 0x48F PUSH2 0x13D8 JUMP JUMPDEST PUSH1 0x40 MLOAD PUSH2 0x49C SWAP2 SWAP1 PUSH2 0x40E9 JUMP JUMPDEST PUSH1 0x40 MLOAD DUP1 SWAP2 SUB SWAP1 RETURN JUMPDEST PUSH2 0x4AD PUSH2 0x13DE JUMP JUMPDEST PUSH1 0x40 MLOAD PUSH2 0x4BA SWAP2 SWAP1 PUSH2 0x3CB1 JUMP JUMPDEST PUSH1 0x40 MLOAD DUP1 SWAP2 SUB SWAP1 RETURN JUMPDEST PUSH2 0x4CB PUSH2 0x13F1 JUMP JUMPDEST PUSH1 0x40 MLOAD PUSH2 0x4D8 SWAP2 SWAP1 PUSH2 0x3CB1 JUMP JUMPDEST PUSH1 0x40 MLOAD DUP1 SWAP2 SUB SWAP1 RETURN JUMPDEST PUSH2 0x4FB PUSH1 0x4 DUP1 CALLDATASIZE SUB DUP2 ADD SWAP1 PUSH2 0x4F6 SWAP2 SWAP1 PUSH2 0x347B JUMP JUMPDEST PUSH2 0x1404 JUMP JUMPDEST PUSH1 0x40 MLOAD PUSH2 0x508 SWAP2 SWAP1 PUSH2 0x40E9 JUMP JUMPDEST PUSH1 0x40 MLOAD DUP1 SWAP2 SUB SWAP1 RETURN JUMPDEST PUSH2 0x519 PUSH2 0x1442 JUMP JUMPDEST PUSH1 0x40 MLOAD PUSH2 0x526 SWAP2 SWAP1 PUSH2 0x40E9 JUMP JUMPDEST PUSH1 0x40 MLOAD DUP1 SWAP2 SUB SWAP1 RETURN JUMPDEST PUSH2 0x537 PUSH2 0x1448 JUMP JUMPDEST PUSH1 0x40 MLOAD PUSH2 0x544 SWAP2 SWAP1 PUSH2 0x40E9 JUMP JUMPDEST PUSH1 0x40 MLOAD DUP1 SWAP2 SUB SWAP1 RETURN JUMPDEST PUSH2 0x555 PUSH2 0x147E JUMP JUMPDEST PUSH1 0x40 MLOAD PUSH2 0x562 SWAP2 SWAP1 PUSH2 0x3CEE JUMP JUMPDEST PUSH1 0x40 MLOAD DUP1 SWAP2 SUB SWAP1 RETURN JUMPDEST PUSH2 0x573 PUSH2 0x14A4 JUMP JUMPDEST PUSH1 0x40 MLOAD PUSH2 0x580 SWAP2 SWAP1 PUSH2 0x40E9 JUMP JUMPDEST PUSH1 0x40 MLOAD DUP1 SWAP2 SUB SWAP1 RETURN JUMPDEST PUSH2 0x591 PUSH2 0x14AA JUMP JUMPDEST PUSH1 0x40 MLOAD PUSH2 0x59E SWAP2 SWAP1 PUSH2 0x3CB1 JUMP JUMPDEST PUSH1 0x40 MLOAD DUP1 SWAP2 SUB SWAP1 RETURN JUMPDEST PUSH2 0x5AF PUSH2 0x14BD JUMP JUMPDEST PUSH1 0x40 MLOAD PUSH2 0x5BC SWAP2 SWAP1 PUSH2 0x40E9 JUMP JUMPDEST PUSH1 0x40 MLOAD DUP1 SWAP2 SUB SWAP1 RETURN JUMPDEST PUSH2 0x5CD PUSH2 0x14C3 JUMP JUMPDEST STOP JUMPDEST PUSH2 0x5D7 PUSH2 0x1610 JUMP JUMPDEST PUSH1 0x40 MLOAD PUSH2 0x5E4 SWAP2 SWAP1 PUSH2 0x40E9 JUMP JUMPDEST PUSH1 0x40 MLOAD DUP1 SWAP2 SUB SWAP1 RETURN JUMPDEST PUSH2 0x5F5 PUSH2 0x1971 JUMP JUMPDEST PUSH1 0x40 MLOAD PUSH2 0x602 SWAP2 SWAP1 PUSH2 0x40E9 JUMP JUMPDEST PUSH1 0x40 MLOAD DUP1 SWAP2 SUB SWAP1 RETURN JUMPDEST PUSH2 0x625 PUSH1 0x4 DUP1 CALLDATASIZE SUB DUP2 ADD SWAP1 PUSH2 0x620 SWAP2 SWAP1 PUSH2 0x347B JUMP JUMPDEST PUSH2 0x1977 JUMP JUMPDEST STOP JUMPDEST PUSH2 0x641 PUSH1 0x4 DUP1 CALLDATASIZE SUB DUP2 ADD SWAP1 PUSH2 0x63C SWAP2 SWAP1 PUSH2 0x347B JUMP JUMPDEST PUSH2 0x1B08 JUMP JUMPDEST STOP JUMPDEST PUSH2 0x64B PUSH2 0x1C99 JUMP JUMPDEST PUSH1 0x40 MLOAD PUSH2 0x658 SWAP2 SWAP1 PUSH2 0x40E9 JUMP JUMPDEST PUSH1 0x40 MLOAD DUP1 SWAP2 SUB SWAP1 RETURN JUMPDEST PUSH2 0x669 PUSH2 0x1C9F JUMP JUMPDEST PUSH1 0x40 MLOAD PUSH2 0x676 SWAP2 SWAP1 PUSH2 0x40E9 JUMP JUMPDEST PUSH1 0x40 MLOAD DUP1 SWAP2 SUB SWAP1 RETURN JUMPDEST PUSH2 0x699 PUSH1 0x4 DUP1 CALLDATASIZE SUB DUP2 ADD SWAP1 PUSH2 0x694 SWAP2 SWAP1 PUSH2 0x35D4 JUMP JUMPDEST PUSH2 0x1CA5 JUMP JUMPDEST PUSH1 0x40 MLOAD PUSH2 0x6A6 SWAP2 SWAP1 PUSH2 0x40E9 JUMP JUMPDEST PUSH1 0x40 MLOAD DUP1 SWAP2 SUB SWAP1 RETURN JUMPDEST PUSH2 0x6C9 PUSH1 0x4 DUP1 CALLDATASIZE SUB DUP2 ADD SWAP1 PUSH2 0x6C4 SWAP2 SWAP1 PUSH2 0x347B JUMP JUMPDEST PUSH2 0x20DA JUMP JUMPDEST STOP JUMPDEST PUSH2 0x6D3 PUSH2 0x2542 JUMP JUMPDEST PUSH1 0x40 MLOAD PUSH2 0x6E0 SWAP2 SWAP1 PUSH2 0x40E9 JUMP JUMPDEST PUSH1 0x40 MLOAD DUP1 SWAP2 SUB SWAP1 RETURN JUMPDEST PUSH2 0x6F1 PUSH2 0x2548 JUMP JUMPDEST PUSH1 0x40 MLOAD PUSH2 0x6FE SWAP2 SWAP1 PUSH2 0x40E9 JUMP JUMPDEST PUSH1 0x40 MLOAD DUP1 SWAP2 SUB SWAP1 RETURN JUMPDEST PUSH2 0x721 PUSH1 0x4 DUP1 CALLDATASIZE SUB DUP2 ADD SWAP1 PUSH2 0x71C SWAP2 SWAP1 PUSH2 0x347B JUMP JUMPDEST PUSH2 0x254E JUMP JUMPDEST PUSH1 0x40 MLOAD PUSH2 0x72E SWAP2 SWAP1 PUSH2 0x3CB1 JUMP JUMPDEST PUSH1 0x40 MLOAD DUP1 SWAP2 SUB SWAP1 RETURN JUMPDEST PUSH2 0x751 PUSH1 0x4 DUP1 CALLDATASIZE SUB DUP2 ADD SWAP1 PUSH2 0x74C SWAP2 SWAP1 PUSH2 0x36D3 JUMP JUMPDEST PUSH2 0x256E JUMP JUMPDEST PUSH1 0x40 MLOAD PUSH2 0x75F SWAP3 SWAP2 SWAP1 PUSH2 0x4104 JUMP JUMPDEST PUSH1 0x40 MLOAD DUP1 SWAP2 SUB SWAP1 RETURN JUMPDEST PUSH2 0x782 PUSH1 0x4 DUP1 CALLDATASIZE SUB DUP2 ADD SWAP1 PUSH2 0x77D SWAP2 SWAP1 PUSH2 0x347B JUMP JUMPDEST PUSH2 0x2C0C JUMP JUMPDEST PUSH1 0x40 MLOAD PUSH2 0x78F SWAP2 SWAP1 PUSH2 0x40E9 JUMP JUMPDEST PUSH1 0x40 MLOAD DUP1 SWAP2 SUB SWAP1 RETURN JUMPDEST PUSH2 0x7A0 PUSH2 0x2C78 JUMP JUMPDEST PUSH1 0x40 MLOAD PUSH2 0x7AD SWAP2 SWAP1 PUSH2 0x40E9 JUMP JUMPDEST PUSH1 0x40 MLOAD DUP1 SWAP2 SUB SWAP1 RETURN JUMPDEST PUSH2 0x7BE PUSH2 0x2C7E JUMP JUMPDEST PUSH1 0x40 MLOAD PUSH2 0x7CB SWAP2 SWAP1 PUSH2 0x3CB1 JUMP JUMPDEST PUSH1 0x40 MLOAD DUP1 SWAP2 SUB SWAP1 RETURN JUMPDEST PUSH2 0x7DC PUSH2 0x2C91 JUMP JUMPDEST PUSH1 0x40 MLOAD PUSH2 0x7E9 SWAP2 SWAP1 PUSH2 0x40E9 JUMP JUMPDEST PUSH1 0x40 MLOAD DUP1 SWAP2 SUB SWAP1 RETURN JUMPDEST PUSH2 0x80C PUSH1 0x4 DUP1 CALLDATASIZE SUB DUP2 ADD SWAP1 PUSH2 0x807 SWAP2 SWAP1 PUSH2 0x347B JUMP JUMPDEST PUSH2 0x2C97 JUMP JUMPDEST PUSH1 0x40 MLOAD PUSH2 0x819 SWAP2 SWAP1 PUSH2 0x40E9 JUMP JUMPDEST PUSH1 0x40 MLOAD DUP1 SWAP2 SUB SWAP1 RETURN JUMPDEST PUSH2 0x83C PUSH1 0x4 DUP1 CALLDATASIZE SUB DUP2 ADD SWAP1 PUSH2 0x837 SWAP2 SWAP1 PUSH2 0x3614 JUMP JUMPDEST PUSH2 0x2DC2 JUMP JUMPDEST STOP JUMPDEST PUSH2 0x846 PUSH2 0x2F8D JUMP JUMPDEST PUSH1 0x40 MLOAD PUSH2 0x853 SWAP2 SWAP1 PUSH2 0x412D JUMP JUMPDEST PUSH1 0x40 MLOAD DUP1 SWAP2 SUB SWAP1 RETURN JUMPDEST PUSH2 0x864 PUSH2 0x2FA3 JUMP JUMPDEST PUSH1 0x40 MLOAD PUSH2 0x871 SWAP2 SWAP1 PUSH2 0x3C36 JUMP JUMPDEST PUSH1 0x40 MLOAD DUP1 SWAP2 SUB SWAP1 RETURN JUMPDEST PUSH2 0x882 PUSH2 0x2FC9 JUMP JUMPDEST PUSH1 0x40 MLOAD PUSH2 0x88F SWAP2 SWAP1 PUSH2 0x40E9 JUMP JUMPDEST PUSH1 0x40 MLOAD DUP1 SWAP2 SUB SWAP1 RETURN JUMPDEST PUSH2 0x8B2 PUSH1 0x4 DUP1 CALLDATASIZE SUB DUP2 ADD SWAP1 PUSH2 0x8AD SWAP2 SWAP1 PUSH2 0x368A JUMP JUMPDEST PUSH2 0x2FCF JUMP JUMPDEST STOP JUMPDEST PUSH1 0x16 PUSH1 0x20 MSTORE DUP1 PUSH1 0x0 MSTORE PUSH1 0x40 PUSH1 0x0 KECCAK256 PUSH1 0x0 SWAP2 POP SWAP1 POP DUP1 PUSH1 0x0 ADD SLOAD SWAP1 DUP1 PUSH1 0x1 ADD SLOAD SWAP1 POP DUP3 JUMP JUMPDEST PUSH1 0x10 SLOAD DUP2 JUMP JUMPDEST PUSH1 0xD PUSH1 0x5 SWAP1 SLOAD SWAP1 PUSH2 0x100 EXP SWAP1 DIV PUSH1 0xFF AND DUP2 JUMP JUMPDEST PUSH1 0x9 PUSH1 0x1 SWAP1 SLOAD SWAP1 PUSH2 0x100 EXP SWAP1 DIV PUSH4 0xFFFFFFFF AND DUP2 JUMP JUMPDEST PUSH1 0xD PUSH1 0x3 SWAP1 SLOAD SWAP1 PUSH2 0x100 EXP SWAP1 DIV PUSH1 0xFF AND DUP2 JUMP JUMPDEST PUSH1 0x13 SLOAD DUP2 JUMP JUMPDEST PUSH1 0x9 DUP1 SLOAD SWAP1 PUSH2 0x100 EXP SWAP1 DIV PUSH20 0xFFFFFFFFFFFFFFFFFFFFFFFFFFFFFFFFFFFFFFFF AND DUP2 JUMP JUMPDEST PUSH1 0x8 SLOAD DUP2 JUMP JUMPDEST PUSH1 0x0 DUP1 SLOAD SWAP1 PUSH2 0x100 EXP SWAP1 DIV PUSH20 0xFFFFFFFFFFFFFFFFFFFFFFFFFFFFFFFFFFFFFFFF AND DUP2 JUMP JUMPDEST PUSH1 0xC DUP1 SLOAD PUSH2 0x97B SWAP1 PUSH2 0x4401 JUMP JUMPDEST DUP1 PUSH1 0x1F ADD PUSH1 0x20 DUP1 SWAP2 DIV MUL PUSH1 0x20 ADD PUSH1 0x40 MLOAD SWAP1 DUP2 ADD PUSH1 0x40 MSTORE DUP1 SWAP3 SWAP2 SWAP1 DUP2 DUP2 MSTORE PUSH1 0x20 ADD DUP3 DUP1 SLOAD PUSH2 0x9A7 SWAP1 PUSH2 0x4401 JUMP JUMPDEST DUP1 ISZERO PUSH2 0x9F4 JUMPI DUP1 PUSH1 0x1F LT PUSH2 0x9C9 JUMPI PUSH2 0x100 DUP1 DUP4 SLOAD DIV MUL DUP4 MSTORE SWAP2 PUSH1 0x20 ADD SWAP2 PUSH2 0x9F4 JUMP JUMPDEST DUP3 ADD SWAP2 SWAP1 PUSH1 0x0 MSTORE PUSH1 0x20 PUSH1 0x0 KECCAK256 SWAP1 JUMPDEST DUP2 SLOAD DUP2 MSTORE SWAP1 PUSH1 0x1 ADD SWAP1 PUSH1 0x20 ADD DUP1 DUP4 GT PUSH2 0x9D7 JUMPI DUP3 SWAP1 SUB PUSH1 0x1F AND DUP3 ADD SWAP2 JUMPDEST POP POP POP POP POP DUP2 JUMP JUMPDEST PUSH1 0x1 PUSH1 0x0 SWAP1 SLOAD SWAP1 PUSH2 0x100 EXP SWAP1 DIV PUSH20 0xFFFFFFFFFFFFFFFFFFFFFFFFFFFFFFFFFFFFFFFF AND PUSH20 0xFFFFFFFFFFFFFFFFFFFFFFFFFFFFFFFFFFFFFFFF AND CALLER PUSH20 0xFFFFFFFFFFFFFFFFFFFFFFFFFFFFFFFFFFFFFFFF AND EQ PUSH2 0xA8C JUMPI PUSH1 0x40 MLOAD PUSH32 0x8C379A000000000000000000000000000000000000000000000000000000000 DUP2 MSTORE PUSH1 0x4 ADD PUSH2 0xA83 SWAP1 PUSH2 0x3F29 JUMP JUMPDEST PUSH1 0x40 MLOAD DUP1 SWAP2 SUB SWAP1 REVERT JUMPDEST PUSH1 0xD PUSH1 0x4 SWAP1 SLOAD SWAP1 PUSH2 0x100 EXP SWAP1 DIV PUSH1 0xFF AND PUSH2 0xADB JUMPI PUSH1 0x40 MLOAD PUSH32 0x8C379A000000000000000000000000000000000000000000000000000000000 DUP2 MSTORE PUSH1 0x4 ADD PUSH2 0xAD2 SWAP1 PUSH2 0x4089 JUMP JUMPDEST PUSH1 0x40 MLOAD DUP1 SWAP2 SUB SWAP1 REVERT JUMPDEST PUSH1 0x0 PUSH1 0x14 SLOAD PUSH1 0x13 SLOAD PUSH2 0xAED SWAP2 SWAP1 PUSH2 0x430F JUMP JUMPDEST SWAP1 POP PUSH1 0x13 SLOAD PUSH1 0x14 DUP2 SWAP1 SSTORE POP PUSH1 0xA PUSH1 0x0 SWAP1 SLOAD SWAP1 PUSH2 0x100 EXP SWAP1 DIV PUSH20 0xFFFFFFFFFFFFFFFFFFFFFFFFFFFFFFFFFFFFFFFF AND PUSH20 0xFFFFFFFFFFFFFFFFFFFFFFFFFFFFFFFFFFFFFFFF AND PUSH4 0xA9059CBB CALLER DUP4 PUSH1 0x40 MLOAD DUP4 PUSH4 0xFFFFFFFF AND PUSH1 0xE0 SHL DUP2 MSTORE PUSH1 0x4 ADD PUSH2 0xB55 SWAP3 SWAP2 SWAP1 PUSH2 0x3C88 JUMP JUMPDEST PUSH1 0x20 PUSH1 0x40 MLOAD DUP1 DUP4 SUB DUP2 PUSH1 0x0 DUP8 DUP1 EXTCODESIZE ISZERO DUP1 ISZERO PUSH2 0xB6F JUMPI PUSH1 0x0 DUP1 REVERT JUMPDEST POP GAS CALL ISZERO DUP1 ISZERO PUSH2 0xB83 JUMPI RETURNDATASIZE PUSH1 0x0 DUP1 RETURNDATACOPY RETURNDATASIZE PUSH1 0x0 REVERT JUMPDEST POP POP POP POP PUSH1 0x40 MLOAD RETURNDATASIZE PUSH1 0x1F NOT PUSH1 0x1F DUP3 ADD AND DUP3 ADD DUP1 PUSH1 0x40 MSTORE POP DUP2 ADD SWAP1 PUSH2 0xBA7 SWAP2 SWAP1 PUSH2 0x365D JUMP JUMPDEST POP POP JUMP JUMPDEST PUSH1 0x9 PUSH1 0x0 SWAP1 SLOAD SWAP1 PUSH2 0x100 EXP SWAP1 DIV PUSH1 0xFF AND DUP2 JUMP JUMPDEST PUSH1 0x1 PUSH1 0x0 SWAP1 SLOAD SWAP1 PUSH2 0x100 EXP SWAP1 DIV PUSH20 0xFFFFFFFFFFFFFFFFFFFFFFFFFFFFFFFFFFFFFFFF AND PUSH20 0xFFFFFFFFFFFFFFFFFFFFFFFFFFFFFFFFFFFFFFFF AND CALLER PUSH20 0xFFFFFFFFFFFFFFFFFFFFFFFFFFFFFFFFFFFFFFFF AND EQ PUSH2 0xC4E JUMPI PUSH1 0x40 MLOAD PUSH32 0x8C379A000000000000000000000000000000000000000000000000000000000 DUP2 MSTORE PUSH1 0x4 ADD PUSH2 0xC45 SWAP1 PUSH2 0x3F29 JUMP JUMPDEST PUSH1 0x40 MLOAD DUP1 SWAP2 SUB SWAP1 REVERT JUMPDEST PUSH1 0x1 ISZERO ISZERO PUSH1 0xD PUSH1 0x0 SWAP1 SLOAD SWAP1 PUSH2 0x100 EXP SWAP1 DIV PUSH1 0xFF AND ISZERO ISZERO EQ ISZERO PUSH2 0xCA5 JUMPI PUSH1 0x40 MLOAD PUSH32 0x8C379A000000000000000000000000000000000000000000000000000000000 DUP2 MSTORE PUSH1 0x4 ADD PUSH2 0xC9C SWAP1 PUSH2 0x3F49 JUMP JUMPDEST PUSH1 0x40 MLOAD DUP1 SWAP2 SUB SWAP1 REVERT JUMPDEST PUSH1 0x1 ISZERO ISZERO PUSH1 0xD PUSH1 0x1 SWAP1 SLOAD SWAP1 PUSH2 0x100 EXP SWAP1 DIV PUSH1 0xFF AND ISZERO ISZERO EQ PUSH2 0xCFB JUMPI PUSH1 0x40 MLOAD PUSH32 0x8C379A000000000000000000000000000000000000000000000000000000000 DUP2 MSTORE PUSH1 0x4 ADD PUSH2 0xCF2 SWAP1 PUSH2 0x3EE9 JUMP JUMPDEST PUSH1 0x40 MLOAD DUP1 SWAP2 SUB SWAP1 REVERT JUMPDEST PUSH1 0x0 PUSH1 0xD PUSH1 0x1 PUSH2 0x100 EXP DUP2 SLOAD DUP2 PUSH1 0xFF MUL NOT AND SWAP1 DUP4 ISZERO ISZERO MUL OR SWAP1 SSTORE POP JUMP JUMPDEST PUSH1 0x0 PUSH8 0xDE0B6B3A7640000 PUSH1 0x64 PUSH2 0xD2F SWAP2 SWAP1 PUSH2 0x42B5 JUMP JUMPDEST PUSH1 0xB SLOAD PUSH1 0x16 PUSH1 0x0 DUP6 PUSH20 0xFFFFFFFFFFFFFFFFFFFFFFFFFFFFFFFFFFFFFFFF AND PUSH20 0xFFFFFFFFFFFFFFFFFFFFFFFFFFFFFFFFFFFFFFFF AND DUP2 MSTORE PUSH1 0x20 ADD SWAP1 DUP2 MSTORE PUSH1 0x20 ADD PUSH1 0x0 KECCAK256 PUSH1 0x0 ADD SLOAD PUSH2 0xD7F SWAP2 SWAP1 PUSH2 0x42B5 JUMP JUMPDEST PUSH2 0xD89 SWAP2 SWAP1 PUSH2 0x4284 JUMP JUMPDEST SWAP1 POP SWAP2 SWAP1 POP JUMP JUMPDEST PUSH1 0x1 PUSH1 0x0 SWAP1 SLOAD SWAP1 PUSH2 0x100 EXP SWAP1 DIV PUSH20 0xFFFFFFFFFFFFFFFFFFFFFFFFFFFFFFFFFFFFFFFF AND PUSH20 0xFFFFFFFFFFFFFFFFFFFFFFFFFFFFFFFFFFFFFFFF AND CALLER PUSH20 0xFFFFFFFFFFFFFFFFFFFFFFFFFFFFFFFFFFFFFFFF AND EQ PUSH2 0xE20 JUMPI PUSH1 0x40 MLOAD PUSH32 0x8C379A000000000000000000000000000000000000000000000000000000000 DUP2 MSTORE PUSH1 0x4 ADD PUSH2 0xE17 SWAP1 PUSH2 0x3F29 JUMP JUMPDEST PUSH1 0x40 MLOAD DUP1 SWAP2 SUB SWAP1 REVERT JUMPDEST PUSH1 0xD PUSH1 0x0 SWAP1 SLOAD SWAP1 PUSH2 0x100 EXP SWAP1 DIV PUSH1 0xFF AND ISZERO PUSH2 0xE70 JUMPI PUSH1 0x40 MLOAD PUSH32 0x8C379A000000000000000000000000000000000000000000000000000000000 DUP2 MSTORE PUSH1 0x4 ADD PUSH2 0xE67 SWAP1 PUSH2 0x3F49 JUMP JUMPDEST PUSH1 0x40 MLOAD DUP1 SWAP2 SUB SWAP1 REVERT JUMPDEST PUSH1 0xD PUSH1 0x1 SWAP1 SLOAD SWAP1 PUSH2 0x100 EXP SWAP1 DIV PUSH1 0xFF AND ISZERO PUSH2 0xEC0 JUMPI PUSH1 0x40 MLOAD PUSH32 0x8C379A000000000000000000000000000000000000000000000000000000000 DUP2 MSTORE PUSH1 0x4 ADD PUSH2 0xEB7 SWAP1 PUSH2 0x3FA9 JUMP JUMPDEST PUSH1 0x40 MLOAD DUP1 SWAP2 SUB SWAP1 REVERT JUMPDEST PUSH1 0xD PUSH1 0x4 SWAP1 SLOAD SWAP1 PUSH2 0x100 EXP SWAP1 DIV PUSH1 0xFF AND ISZERO PUSH2 0xF10 JUMPI PUSH1 0x40 MLOAD PUSH32 0x8C379A000000000000000000000000000000000000000000000000000000000 DUP2 MSTORE PUSH1 0x4 ADD PUSH2 0xF07 SWAP1 PUSH2 0x3FE9 JUMP JUMPDEST PUSH1 0x40 MLOAD DUP1 SWAP2 SUB SWAP1 REVERT JUMPDEST PUSH1 0x1 PUSH1 0xD PUSH1 0x0 PUSH2 0x100 EXP DUP2 SLOAD DUP2 PUSH1 0xFF MUL NOT AND SWAP1 DUP4 ISZERO ISZERO MUL OR SWAP1 SSTORE POP PUSH1 0x0 PUSH1 0xD PUSH1 0x1 PUSH2 0x100 EXP DUP2 SLOAD DUP2 PUSH1 0xFF MUL NOT AND SWAP1 DUP4 ISZERO ISZERO MUL OR SWAP1 SSTORE POP JUMP JUMPDEST PUSH1 0xD PUSH1 0x3 SWAP1 SLOAD SWAP1 PUSH2 0x100 EXP SWAP1 DIV PUSH1 0xFF AND ISZERO PUSH2 0xF98 JUMPI PUSH1 0x40 MLOAD PUSH32 0x8C379A000000000000000000000000000000000000000000000000000000000 DUP2 MSTORE PUSH1 0x4 ADD PUSH2 0xF8F SWAP1 PUSH2 0x3F89 JUMP JUMPDEST PUSH1 0x40 MLOAD DUP1 SWAP2 SUB SWAP1 REVERT JUMPDEST PUSH1 0x1 PUSH1 0xD PUSH1 0x3 PUSH2 0x100 EXP DUP2 SLOAD DUP2 PUSH1 0xFF MUL NOT AND SWAP1 DUP4 ISZERO ISZERO MUL OR SWAP1 SSTORE POP DUP9 PUSH1 0x1 DUP2 MLOAD DUP2 LT PUSH2 0xFC7 JUMPI PUSH2 0xFC6 PUSH2 0x453A JUMP JUMPDEST JUMPDEST PUSH1 0x20 MUL PUSH1 0x20 ADD ADD MLOAD PUSH20 0xFFFFFFFFFFFFFFFFFFFFFFFFFFFFFFFFFFFFFFFF AND DUP10 PUSH1 0x0 DUP2 MLOAD DUP2 LT PUSH2 0xFF9 JUMPI PUSH2 0xFF8 PUSH2 0x453A JUMP JUMPDEST JUMPDEST PUSH1 0x20 MUL PUSH1 0x20 ADD ADD MLOAD PUSH20 0xFFFFFFFFFFFFFFFFFFFFFFFFFFFFFFFFFFFFFFFF AND EQ ISZERO PUSH2 0x1058 JUMPI PUSH1 0x40 MLOAD PUSH32 0x8C379A000000000000000000000000000000000000000000000000000000000 DUP2 MSTORE PUSH1 0x4 ADD PUSH2 0x104F SWAP1 PUSH2 0x3DE9 JUMP JUMPDEST PUSH1 0x40 MLOAD DUP1 SWAP2 SUB SWAP1 REVERT JUMPDEST DUP8 PUSH1 0x0 DUP2 MLOAD DUP2 LT PUSH2 0x106C JUMPI PUSH2 0x106B PUSH2 0x453A JUMP JUMPDEST JUMPDEST PUSH1 0x20 MUL PUSH1 0x20 ADD ADD MLOAD DUP9 PUSH1 0x1 DUP2 MLOAD DUP2 LT PUSH2 0x1088 JUMPI PUSH2 0x1087 PUSH2 0x453A JUMP JUMPDEST JUMPDEST PUSH1 0x20 MUL PUSH1 0x20 ADD ADD MLOAD LT ISZERO PUSH2 0x10D1 JUMPI PUSH1 0x40 MLOAD PUSH32 0x8C379A000000000000000000000000000000000000000000000000000000000 DUP2 MSTORE PUSH1 0x4 ADD PUSH2 0x10C8 SWAP1 PUSH2 0x3D69 JUMP JUMPDEST PUSH1 0x40 MLOAD DUP1 SWAP2 SUB SWAP1 REVERT JUMPDEST DUP3 PUSH4 0xFFFFFFFF AND DUP5 PUSH4 0xFFFFFFFF AND LT ISZERO PUSH2 0x1120 JUMPI PUSH1 0x40 MLOAD PUSH32 0x8C379A000000000000000000000000000000000000000000000000000000000 DUP2 MSTORE PUSH1 0x4 ADD PUSH2 0x1117 SWAP1 PUSH2 0x3EA9 JUMP JUMPDEST PUSH1 0x40 MLOAD DUP1 SWAP2 SUB SWAP1 REVERT JUMPDEST DUP6 DUP6 GT PUSH2 0x1162 JUMPI PUSH1 0x40 MLOAD PUSH32 0x8C379A000000000000000000000000000000000000000000000000000000000 DUP2 MSTORE PUSH1 0x4 ADD PUSH2 0x1159 SWAP1 PUSH2 0x3E29 JUMP JUMPDEST PUSH1 0x40 MLOAD DUP1 SWAP2 SUB SWAP1 REVERT JUMPDEST DUP11 PUSH1 0x0 DUP1 PUSH2 0x100 EXP DUP2 SLOAD DUP2 PUSH20 0xFFFFFFFFFFFFFFFFFFFFFFFFFFFFFFFFFFFFFFFF MUL NOT AND SWAP1 DUP4 PUSH20 0xFFFFFFFFFFFFFFFFFFFFFFFFFFFFFFFFFFFFFFFF AND MUL OR SWAP1 SSTORE POP DUP10 PUSH1 0x1 PUSH1 0x0 PUSH2 0x100 EXP DUP2 SLOAD DUP2 PUSH20 0xFFFFFFFFFFFFFFFFFFFFFFFFFFFFFFFFFFFFFFFF MUL NOT AND SWAP1 DUP4 PUSH20 0xFFFFFFFFFFFFFFFFFFFFFFFFFFFFFFFFFFFFFFFF AND MUL OR SWAP1 SSTORE POP DUP8 PUSH1 0x0 DUP2 MLOAD DUP2 LT PUSH2 0x11F7 JUMPI PUSH2 0x11F6 PUSH2 0x453A JUMP JUMPDEST JUMPDEST PUSH1 0x20 MUL PUSH1 0x20 ADD ADD MLOAD PUSH1 0x2 DUP2 SWAP1 SSTORE POP DUP8 PUSH1 0x1 DUP2 MLOAD DUP2 LT PUSH2 0x1219 JUMPI PUSH2 0x1218 PUSH2 0x453A JUMP JUMPDEST JUMPDEST PUSH1 0x20 MUL PUSH1 0x20 ADD ADD MLOAD PUSH1 0x3 DUP2 SWAP1 SSTORE POP DUP7 PUSH1 0x6 DUP2 SWAP1 SSTORE POP DUP6 PUSH1 0x7 DUP2 SWAP1 SSTORE POP DUP5 PUSH1 0x8 DUP2 SWAP1 SSTORE POP PUSH1 0x8 SLOAD PUSH1 0xE DUP2 SWAP1 SSTORE POP DUP4 PUSH1 0x9 PUSH1 0x1 PUSH2 0x100 EXP DUP2 SLOAD DUP2 PUSH4 0xFFFFFFFF MUL NOT AND SWAP1 DUP4 PUSH4 0xFFFFFFFF AND MUL OR SWAP1 SSTORE POP DUP3 PUSH1 0x9 PUSH1 0x5 PUSH2 0x100 EXP DUP2 SLOAD DUP2 PUSH4 0xFFFFFFFF MUL NOT AND SWAP1 DUP4 PUSH4 0xFFFFFFFF AND MUL OR SWAP1 SSTORE POP DUP2 PUSH1 0x9 PUSH1 0x0 PUSH2 0x100 EXP DUP2 SLOAD DUP2 PUSH1 0xFF MUL NOT AND SWAP1 DUP4 ISZERO ISZERO MUL OR SWAP1 SSTORE POP DUP9 PUSH1 0x0 DUP2 MLOAD DUP2 LT PUSH2 0x12B5 JUMPI PUSH2 0x12B4 PUSH2 0x453A JUMP JUMPDEST JUMPDEST PUSH1 0x20 MUL PUSH1 0x20 ADD ADD MLOAD PUSH1 0x9 DUP1 PUSH2 0x100 EXP DUP2 SLOAD DUP2 PUSH20 0xFFFFFFFFFFFFFFFFFFFFFFFFFFFFFFFFFFFFFFFF MUL NOT AND SWAP1 DUP4 PUSH20 0xFFFFFFFFFFFFFFFFFFFFFFFFFFFFFFFFFFFFFFFF AND MUL OR SWAP1 SSTORE POP DUP9 PUSH1 0x1 DUP2 MLOAD DUP2 LT PUSH2 0x1310 JUMPI PUSH2 0x130F PUSH2 0x453A JUMP JUMPDEST JUMPDEST PUSH1 0x20 MUL PUSH1 0x20 ADD ADD MLOAD PUSH1 0xA PUSH1 0x0 PUSH2 0x100 EXP DUP2 SLOAD DUP2 PUSH20 0xFFFFFFFFFFFFFFFFFFFFFFFFFFFFFFFFFFFFFFFF MUL NOT AND SWAP1 DUP4 PUSH20 0xFFFFFFFFFFFFFFFFFFFFFFFFFFFFFFFFFFFFFFFF AND MUL OR SWAP1 SSTORE POP DUP1 PUSH1 0xB DUP2 SWAP1 SSTORE POP DUP7 PUSH8 0xDE0B6B3A7640000 PUSH1 0x3 SLOAD PUSH2 0x1376 SWAP2 SWAP1 PUSH2 0x42B5 JUMP JUMPDEST PUSH2 0x1380 SWAP2 SWAP1 PUSH2 0x4284 JUMP JUMPDEST PUSH1 0x4 DUP2 SWAP1 SSTORE POP PUSH8 0xDE0B6B3A7640000 PUSH1 0x64 PUSH2 0x139B SWAP2 SWAP1 PUSH2 0x42B5 JUMP JUMPDEST DUP2 PUSH1 0x4 SLOAD PUSH2 0x13A9 SWAP2 SWAP1 PUSH2 0x42B5 JUMP JUMPDEST PUSH2 0x13B3 SWAP2 SWAP1 PUSH2 0x4284 JUMP JUMPDEST PUSH1 0x5 DUP2 SWAP1 SSTORE POP PUSH1 0x4 SLOAD PUSH1 0x10 DUP2 SWAP1 SSTORE POP PUSH1 0x5 SLOAD PUSH1 0x12 DUP2 SWAP1 SSTORE POP POP POP POP POP POP POP POP POP POP POP POP JUMP JUMPDEST PUSH1 0x11 SLOAD DUP2 JUMP JUMPDEST PUSH1 0xD PUSH1 0x0 SWAP1 SLOAD SWAP1 PUSH2 0x100 EXP SWAP1 DIV PUSH1 0xFF AND DUP2 JUMP JUMPDEST PUSH1 0xD PUSH1 0x1 SWAP1 SLOAD SWAP1 PUSH2 0x100 EXP SWAP1 DIV PUSH1 0xFF AND DUP2 JUMP JUMPDEST PUSH1 0x0 PUSH8 0xDE0B6B3A7640000 PUSH1 0x64 PUSH2 0x141B SWAP2 SWAP1 PUSH2 0x42B5 JUMP JUMPDEST PUSH1 0xB SLOAD PUSH2 0x1427 DUP5 PUSH2 0x2C0C JUMP JUMPDEST PUSH2 0x1431 SWAP2 SWAP1 PUSH2 0x42B5 JUMP JUMPDEST PUSH2 0x143B SWAP2 SWAP1 PUSH2 0x4284 JUMP JUMPDEST SWAP1 POP SWAP2 SWAP1 POP JUMP JUMPDEST PUSH1 0xF SLOAD DUP2 JUMP JUMPDEST PUSH1 0x0 PUSH8 0xDE0B6B3A7640000 PUSH1 0x64 PUSH2 0x145F SWAP2 SWAP1 PUSH2 0x42B5 JUMP JUMPDEST PUSH1 0xB SLOAD PUSH1 0x11 SLOAD PUSH2 0x146F SWAP2 SWAP1 PUSH2 0x42B5 JUMP JUMPDEST PUSH2 0x1479 SWAP2 SWAP1 PUSH2 0x4284 JUMP JUMPDEST SWAP1 POP SWAP1 JUMP JUMPDEST PUSH1 0xA PUSH1 0x0 SWAP1 SLOAD SWAP1 PUSH2 0x100 EXP SWAP1 DIV PUSH20 0xFFFFFFFFFFFFFFFFFFFFFFFFFFFFFFFFFFFFFFFF AND DUP2 JUMP JUMPDEST PUSH1 0x7 SLOAD DUP2 JUMP JUMPDEST PUSH1 0xD PUSH1 0x2 SWAP1 SLOAD SWAP1 PUSH2 0x100 EXP SWAP1 DIV PUSH1 0xFF AND DUP2 JUMP JUMPDEST PUSH1 0x14 SLOAD DUP2 JUMP JUMPDEST PUSH1 0x1 PUSH1 0x0 SWAP1 SLOAD SWAP1 PUSH2 0x100 EXP SWAP1 DIV PUSH20 0xFFFFFFFFFFFFFFFFFFFFFFFFFFFFFFFFFFFFFFFF AND PUSH20 0xFFFFFFFFFFFFFFFFFFFFFFFFFFFFFFFFFFFFFFFF AND CALLER PUSH20 0xFFFFFFFFFFFFFFFFFFFFFFFFFFFFFFFFFFFFFFFF AND EQ PUSH2 0x1553 JUMPI PUSH1 0x40 MLOAD PUSH32 0x8C379A000000000000000000000000000000000000000000000000000000000 DUP2 MSTORE PUSH1 0x4 ADD PUSH2 0x154A SWAP1 PUSH2 0x3F29 JUMP JUMPDEST PUSH1 0x40 MLOAD DUP1 SWAP2 SUB SWAP1 REVERT JUMPDEST PUSH1 0xD PUSH1 0x0 SWAP1 SLOAD SWAP1 PUSH2 0x100 EXP SWAP1 DIV PUSH1 0xFF AND ISZERO PUSH2 0x15A3 JUMPI PUSH1 0x40 MLOAD PUSH32 0x8C379A000000000000000000000000000000000000000000000000000000000 DUP2 MSTORE PUSH1 0x4 ADD PUSH2 0x159A SWAP1 PUSH2 0x3F49 JUMP JUMPDEST PUSH1 0x40 MLOAD DUP1 SWAP2 SUB SWAP1 REVERT JUMPDEST PUSH1 0xD PUSH1 0x1 SWAP1 SLOAD SWAP1 PUSH2 0x100 EXP SWAP1 DIV PUSH1 0xFF AND ISZERO PUSH2 0x15F3 JUMPI PUSH1 0x40 MLOAD PUSH32 0x8C379A000000000000000000000000000000000000000000000000000000000 DUP2 MSTORE PUSH1 0x4 ADD PUSH2 0x15EA SWAP1 PUSH2 0x3FA9 JUMP JUMPDEST PUSH1 0x40 MLOAD DUP1 SWAP2 SUB SWAP1 REVERT JUMPDEST PUSH1 0x1 PUSH1 0xD PUSH1 0x1 PUSH2 0x100 EXP DUP2 SLOAD DUP2 PUSH1 0xFF MUL NOT AND SWAP1 DUP4 ISZERO ISZERO MUL OR SWAP1 SSTORE POP JUMP JUMPDEST PUSH1 0x0 PUSH1 0xD PUSH1 0x1 SWAP1 SLOAD SWAP1 PUSH2 0x100 EXP SWAP1 DIV PUSH1 0xFF AND ISZERO PUSH2 0x1662 JUMPI PUSH1 0x40 MLOAD PUSH32 0x8C379A000000000000000000000000000000000000000000000000000000000 DUP2 MSTORE PUSH1 0x4 ADD PUSH2 0x1659 SWAP1 PUSH2 0x3FA9 JUMP JUMPDEST PUSH1 0x40 MLOAD DUP1 SWAP2 SUB SWAP1 REVERT JUMPDEST TIMESTAMP PUSH1 0x7 SLOAD GT ISZERO PUSH2 0x16A7 JUMPI PUSH1 0x40 MLOAD PUSH32 0x8C379A000000000000000000000000000000000000000000000000000000000 DUP2 MSTORE PUSH1 0x4 ADD PUSH2 0x169E SWAP1 PUSH2 0x4009 JUMP JUMPDEST PUSH1 0x40 MLOAD DUP1 SWAP2 SUB SWAP1 REVERT JUMPDEST PUSH1 0xD PUSH1 0x4 SWAP1 SLOAD SWAP1 PUSH2 0x100 EXP SWAP1 DIV PUSH1 0xFF AND ISZERO PUSH2 0x16F7 JUMPI PUSH1 0x40 MLOAD PUSH32 0x8C379A000000000000000000000000000000000000000000000000000000000 DUP2 MSTORE PUSH1 0x4 ADD PUSH2 0x16EE SWAP1 PUSH2 0x4049 JUMP JUMPDEST PUSH1 0x40 MLOAD DUP1 SWAP2 SUB SWAP1 REVERT JUMPDEST PUSH1 0x0 PUSH1 0x16 PUSH1 0x0 CALLER PUSH20 0xFFFFFFFFFFFFFFFFFFFFFFFFFFFFFFFFFFFFFFFF AND PUSH20 0xFFFFFFFFFFFFFFFFFFFFFFFFFFFFFFFFFFFFFFFF AND DUP2 MSTORE PUSH1 0x20 ADD SWAP1 DUP2 MSTORE PUSH1 0x20 ADD PUSH1 0x0 KECCAK256 PUSH1 0x1 ADD SLOAD GT PUSH2 0x177C JUMPI PUSH1 0x40 MLOAD PUSH32 0x8C379A000000000000000000000000000000000000000000000000000000000 DUP2 MSTORE PUSH1 0x4 ADD PUSH2 0x1773 SWAP1 PUSH2 0x40C9 JUMP JUMPDEST PUSH1 0x40 MLOAD DUP1 SWAP2 SUB SWAP1 REVERT JUMPDEST PUSH1 0x0 PUSH1 0x16 PUSH1 0x0 CALLER PUSH20 0xFFFFFFFFFFFFFFFFFFFFFFFFFFFFFFFFFFFFFFFF AND PUSH20 0xFFFFFFFFFFFFFFFFFFFFFFFFFFFFFFFFFFFFFFFF AND DUP2 MSTORE PUSH1 0x20 ADD SWAP1 DUP2 MSTORE PUSH1 0x20 ADD PUSH1 0x0 KECCAK256 SWAP1 POP PUSH1 0x0 DUP2 PUSH1 0x1 ADD SLOAD SWAP1 POP PUSH2 0x17D1 CALLER PUSH2 0x2C0C JUMP JUMPDEST PUSH1 0x10 PUSH1 0x0 DUP3 DUP3 SLOAD PUSH2 0x17E2 SWAP2 SWAP1 PUSH2 0x422E JUMP JUMPDEST SWAP3 POP POP DUP2 SWAP1 SSTORE POP PUSH2 0x17F2 CALLER PUSH2 0x1404 JUMP JUMPDEST PUSH1 0x12 PUSH1 0x0 DUP3 DUP3 SLOAD PUSH2 0x1803 SWAP2 SWAP1 PUSH2 0x422E JUMP JUMPDEST SWAP3 POP POP DUP2 SWAP1 SSTORE POP PUSH1 0x0 DUP3 PUSH1 0x1 ADD DUP2 SWAP1 SSTORE POP DUP1 PUSH1 0x13 PUSH1 0x0 DUP3 DUP3 SLOAD PUSH2 0x1826 SWAP2 SWAP1 PUSH2 0x430F JUMP JUMPDEST SWAP3 POP POP DUP2 SWAP1 SSTORE POP PUSH1 0xA PUSH1 0x0 SWAP1 SLOAD SWAP1 PUSH2 0x100 EXP SWAP1 DIV PUSH20 0xFFFFFFFFFFFFFFFFFFFFFFFFFFFFFFFFFFFFFFFF AND PUSH20 0xFFFFFFFFFFFFFFFFFFFFFFFFFFFFFFFFFFFFFFFF AND PUSH4 0xA9059CBB CALLER DUP4 PUSH1 0x40 MLOAD DUP4 PUSH4 0xFFFFFFFF AND PUSH1 0xE0 SHL DUP2 MSTORE PUSH1 0x4 ADD PUSH2 0x188A SWAP3 SWAP2 SWAP1 PUSH2 0x3C88 JUMP JUMPDEST PUSH1 0x20 PUSH1 0x40 MLOAD DUP1 DUP4 SUB DUP2 PUSH1 0x0 DUP8 DUP1 EXTCODESIZE ISZERO DUP1 ISZERO PUSH2 0x18A4 JUMPI PUSH1 0x0 DUP1 REVERT JUMPDEST POP GAS CALL ISZERO DUP1 ISZERO PUSH2 0x18B8 JUMPI RETURNDATASIZE PUSH1 0x0 DUP1 RETURNDATACOPY RETURNDATASIZE PUSH1 0x0 REVERT JUMPDEST POP POP POP POP PUSH1 0x40 MLOAD RETURNDATASIZE PUSH1 0x1F NOT PUSH1 0x1F DUP3 ADD AND DUP3 ADD DUP1 PUSH1 0x40 MSTORE POP DUP2 ADD SWAP1 PUSH2 0x18DC SWAP2 SWAP1 PUSH2 0x365D JUMP JUMPDEST PUSH2 0x191B JUMPI PUSH1 0x40 MLOAD PUSH32 0x8C379A000000000000000000000000000000000000000000000000000000000 DUP2 MSTORE PUSH1 0x4 ADD PUSH2 0x1912 SWAP1 PUSH2 0x3E69 JUMP JUMPDEST PUSH1 0x40 MLOAD DUP1 SWAP2 SUB SWAP1 REVERT JUMPDEST CALLER PUSH20 0xFFFFFFFFFFFFFFFFFFFFFFFFFFFFFFFFFFFFFFFF AND PUSH32 0x1A689B1A62E3BB77F9C98D8759C04F341A67DEB5CC63CF53BE8324B691064950 DUP3 PUSH1 0x40 MLOAD PUSH2 0x1961 SWAP2 SWAP1 PUSH2 0x40E9 JUMP JUMPDEST PUSH1 0x40 MLOAD DUP1 SWAP2 SUB SWAP1 LOG2 DUP1 SWAP3 POP POP POP SWAP1 JUMP JUMPDEST PUSH1 0x2 SLOAD DUP2 JUMP JUMPDEST PUSH1 0x1 PUSH1 0x0 SWAP1 SLOAD SWAP1 PUSH2 0x100 EXP SWAP1 DIV PUSH20 0xFFFFFFFFFFFFFFFFFFFFFFFFFFFFFFFFFFFFFFFF AND PUSH20 0xFFFFFFFFFFFFFFFFFFFFFFFFFFFFFFFFFFFFFFFF AND CALLER PUSH20 0xFFFFFFFFFFFFFFFFFFFFFFFFFFFFFFFFFFFFFFFF AND EQ PUSH2 0x1A07 JUMPI PUSH1 0x40 MLOAD PUSH32 0x8C379A000000000000000000000000000000000000000000000000000000000 DUP2 MSTORE PUSH1 0x4 ADD PUSH2 0x19FE SWAP1 PUSH2 0x3F29 JUMP JUMPDEST PUSH1 0x40 MLOAD DUP1 SWAP2 SUB SWAP1 REVERT JUMPDEST PUSH1 0xD PUSH1 0x0 SWAP1 SLOAD SWAP1 PUSH2 0x100 EXP SWAP1 DIV PUSH1 0xFF AND ISZERO PUSH2 0x1A57 JUMPI PUSH1 0x40 MLOAD PUSH32 0x8C379A000000000000000000000000000000000000000000000000000000000 DUP2 MSTORE PUSH1 0x4 ADD PUSH2 0x1A4E SWAP1 PUSH2 0x3F49 JUMP JUMPDEST PUSH1 0x40 MLOAD DUP1 SWAP2 SUB SWAP1 REVERT JUMPDEST PUSH1 0x1 ISZERO ISZERO PUSH1 0x9 PUSH1 0x0 SWAP1 SLOAD SWAP1 PUSH2 0x100 EXP SWAP1 DIV PUSH1 0xFF AND ISZERO ISZERO EQ PUSH2 0x1AAD JUMPI PUSH1 0x40 MLOAD PUSH32 0x8C379A000000000000000000000000000000000000000000000000000000000 DUP2 MSTORE PUSH1 0x4 ADD PUSH2 0x1AA4 SWAP1 PUSH2 0x4069 JUMP JUMPDEST PUSH1 0x40 MLOAD DUP1 SWAP2 SUB SWAP1 REVERT JUMPDEST PUSH1 0x0 PUSH1 0x15 PUSH1 0x0 DUP4 PUSH20 0xFFFFFFFFFFFFFFFFFFFFFFFFFFFFFFFFFFFFFFFF AND PUSH20 0xFFFFFFFFFFFFFFFFFFFFFFFFFFFFFFFFFFFFFFFF AND DUP2 MSTORE PUSH1 0x20 ADD SWAP1 DUP2 MSTORE PUSH1 0x20 ADD PUSH1 0x0 KECCAK256 PUSH1 0x0 PUSH2 0x100 EXP DUP2 SLOAD DUP2 PUSH1 0xFF MUL NOT AND SWAP1 DUP4 ISZERO ISZERO MUL OR SWAP1 SSTORE POP POP JUMP JUMPDEST PUSH1 0x1 PUSH1 0x0 SWAP1 SLOAD SWAP1 PUSH2 0x100 EXP SWAP1 DIV PUSH20 0xFFFFFFFFFFFFFFFFFFFFFFFFFFFFFFFFFFFFFFFF AND PUSH20 0xFFFFFFFFFFFFFFFFFFFFFFFFFFFFFFFFFFFFFFFF AND CALLER PUSH20 0xFFFFFFFFFFFFFFFFFFFFFFFFFFFFFFFFFFFFFFFF AND EQ PUSH2 0x1B98 JUMPI PUSH1 0x40 MLOAD PUSH32 0x8C379A000000000000000000000000000000000000000000000000000000000 DUP2 MSTORE PUSH1 0x4 ADD PUSH2 0x1B8F SWAP1 PUSH2 0x3F29 JUMP JUMPDEST PUSH1 0x40 MLOAD DUP1 SWAP2 SUB SWAP1 REVERT JUMPDEST PUSH1 0xD PUSH1 0x0 SWAP1 SLOAD SWAP1 PUSH2 0x100 EXP SWAP1 DIV PUSH1 0xFF AND ISZERO PUSH2 0x1BE8 JUMPI PUSH1 0x40 MLOAD PUSH32 0x8C379A000000000000000000000000000000000000000000000000000000000 DUP2 MSTORE PUSH1 0x4 ADD PUSH2 0x1BDF SWAP1 PUSH2 0x3F49 JUMP JUMPDEST PUSH1 0x40 MLOAD DUP1 SWAP2 SUB SWAP1 REVERT JUMPDEST PUSH1 0x1 ISZERO ISZERO PUSH1 0x9 PUSH1 0x0 SWAP1 SLOAD SWAP1 PUSH2 0x100 EXP SWAP1 DIV PUSH1 0xFF AND ISZERO ISZERO EQ PUSH2 0x1C3E JUMPI PUSH1 0x40 MLOAD PUSH32 0x8C379A000000000000000000000000000000000000000000000000000000000 DUP2 MSTORE PUSH1 0x4 ADD PUSH2 0x1C35 SWAP1 PUSH2 0x4069 JUMP JUMPDEST PUSH1 0x40 MLOAD DUP1 SWAP2 SUB SWAP1 REVERT JUMPDEST PUSH1 0x1 PUSH1 0x15 PUSH1 0x0 DUP4 PUSH20 0xFFFFFFFFFFFFFFFFFFFFFFFFFFFFFFFFFFFFFFFF AND PUSH20 0xFFFFFFFFFFFFFFFFFFFFFFFFFFFFFFFFFFFFFFFF AND DUP2 MSTORE PUSH1 0x20 ADD SWAP1 DUP2 MSTORE PUSH1 0x20 ADD PUSH1 0x0 KECCAK256 PUSH1 0x0 PUSH2 0x100 EXP DUP2 SLOAD DUP2 PUSH1 0xFF MUL NOT AND SWAP1 DUP4 ISZERO ISZERO MUL OR SWAP1 SSTORE POP POP JUMP JUMPDEST PUSH1 0x6 SLOAD DUP2 JUMP JUMPDEST PUSH1 0xE SLOAD DUP2 JUMP JUMPDEST PUSH1 0x0 PUSH1 0xD PUSH1 0x4 SWAP1 SLOAD SWAP1 PUSH2 0x100 EXP SWAP1 DIV PUSH1 0xFF AND PUSH2 0x1CF6 JUMPI PUSH1 0x40 MLOAD PUSH32 0x8C379A000000000000000000000000000000000000000000000000000000000 DUP2 MSTORE PUSH1 0x4 ADD PUSH2 0x1CED SWAP1 PUSH2 0x4089 JUMP JUMPDEST PUSH1 0x40 MLOAD DUP1 SWAP2 SUB SWAP1 REVERT JUMPDEST TIMESTAMP PUSH1 0x8 SLOAD LT DUP1 PUSH2 0x1D12 JUMPI POP PUSH1 0xD PUSH1 0x5 SWAP1 SLOAD SWAP1 PUSH2 0x100 EXP SWAP1 DIV PUSH1 0xFF AND JUMPDEST PUSH2 0x1D51 JUMPI PUSH1 0x40 MLOAD PUSH32 0x8C379A000000000000000000000000000000000000000000000000000000000 DUP2 MSTORE PUSH1 0x4 ADD PUSH2 0x1D48 SWAP1 PUSH2 0x3DC9 JUMP JUMPDEST PUSH1 0x40 MLOAD DUP1 SWAP2 SUB SWAP1 REVERT JUMPDEST PUSH1 0x0 PUSH2 0x1D5C DUP5 PUSH2 0x2C97 JUMP JUMPDEST SWAP1 POP PUSH1 0x0 DUP2 GT PUSH2 0x1DA1 JUMPI PUSH1 0x40 MLOAD PUSH32 0x8C379A000000000000000000000000000000000000000000000000000000000 DUP2 MSTORE PUSH1 0x4 ADD PUSH2 0x1D98 SWAP1 PUSH2 0x40A9 JUMP JUMPDEST PUSH1 0x40 MLOAD DUP1 SWAP2 SUB SWAP1 REVERT JUMPDEST DUP3 DUP2 LT ISZERO PUSH2 0x1DE4 JUMPI PUSH1 0x40 MLOAD PUSH32 0x8C379A000000000000000000000000000000000000000000000000000000000 DUP2 MSTORE PUSH1 0x4 ADD PUSH2 0x1DDB SWAP1 PUSH2 0x3D49 JUMP JUMPDEST PUSH1 0x40 MLOAD DUP1 SWAP2 SUB SWAP1 REVERT JUMPDEST PUSH1 0x0 PUSH8 0xDE0B6B3A7640000 PUSH1 0x64 PUSH2 0x1DFB SWAP2 SWAP1 PUSH2 0x42B5 JUMP JUMPDEST PUSH1 0xB SLOAD DUP6 PUSH2 0x1E09 SWAP2 SWAP1 PUSH2 0x42B5 JUMP JUMPDEST PUSH2 0x1E13 SWAP2 SWAP1 PUSH2 0x4284 JUMP JUMPDEST SWAP1 POP DUP4 PUSH1 0x16 PUSH1 0x0 DUP8 PUSH20 0xFFFFFFFFFFFFFFFFFFFFFFFFFFFFFFFFFFFFFFFF AND PUSH20 0xFFFFFFFFFFFFFFFFFFFFFFFFFFFFFFFFFFFFFFFF AND DUP2 MSTORE PUSH1 0x20 ADD SWAP1 DUP2 MSTORE PUSH1 0x20 ADD PUSH1 0x0 KECCAK256 PUSH1 0x0 ADD PUSH1 0x0 DUP3 DUP3 SLOAD PUSH2 0x1E67 SWAP2 SWAP1 PUSH2 0x422E JUMP JUMPDEST SWAP3 POP POP DUP2 SWAP1 SSTORE POP DUP4 PUSH1 0x11 PUSH1 0x0 DUP3 DUP3 SLOAD PUSH2 0x1E80 SWAP2 SWAP1 PUSH2 0x422E JUMP JUMPDEST SWAP3 POP POP DUP2 SWAP1 SSTORE POP PUSH1 0x9 DUP1 SLOAD SWAP1 PUSH2 0x100 EXP SWAP1 DIV PUSH20 0xFFFFFFFFFFFFFFFFFFFFFFFFFFFFFFFFFFFFFFFF AND PUSH20 0xFFFFFFFFFFFFFFFFFFFFFFFFFFFFFFFFFFFFFFFF AND PUSH4 0xA9059CBB PUSH1 0x0 DUP1 SLOAD SWAP1 PUSH2 0x100 EXP SWAP1 DIV PUSH20 0xFFFFFFFFFFFFFFFFFFFFFFFFFFFFFFFFFFFFFFFF AND DUP4 PUSH1 0x40 MLOAD DUP4 PUSH4 0xFFFFFFFF AND PUSH1 0xE0 SHL DUP2 MSTORE PUSH1 0x4 ADD PUSH2 0x1F02 SWAP3 SWAP2 SWAP1 PUSH2 0x3C88 JUMP JUMPDEST PUSH1 0x20 PUSH1 0x40 MLOAD DUP1 DUP4 SUB DUP2 PUSH1 0x0 DUP8 DUP1 EXTCODESIZE ISZERO DUP1 ISZERO PUSH2 0x1F1C JUMPI PUSH1 0x0 DUP1 REVERT JUMPDEST POP GAS CALL ISZERO DUP1 ISZERO PUSH2 0x1F30 JUMPI RETURNDATASIZE PUSH1 0x0 DUP1 RETURNDATACOPY RETURNDATASIZE PUSH1 0x0 REVERT JUMPDEST POP POP POP POP PUSH1 0x40 MLOAD RETURNDATASIZE PUSH1 0x1F NOT PUSH1 0x1F DUP3 ADD AND DUP3 ADD DUP1 PUSH1 0x40 MSTORE POP DUP2 ADD SWAP1 PUSH2 0x1F54 SWAP2 SWAP1 PUSH2 0x365D JUMP JUMPDEST DUP1 ISZERO PUSH2 0x2009 JUMPI POP PUSH1 0x9 DUP1 SLOAD SWAP1 PUSH2 0x100 EXP SWAP1 DIV PUSH20 0xFFFFFFFFFFFFFFFFFFFFFFFFFFFFFFFFFFFFFFFF AND PUSH20 0xFFFFFFFFFFFFFFFFFFFFFFFFFFFFFFFFFFFFFFFF AND PUSH4 0xA9059CBB DUP7 DUP7 PUSH1 0x40 MLOAD DUP4 PUSH4 0xFFFFFFFF AND PUSH1 0xE0 SHL DUP2 MSTORE PUSH1 0x4 ADD PUSH2 0x1FB6 SWAP3 SWAP2 SWAP1 PUSH2 0x3C88 JUMP JUMPDEST PUSH1 0x20 PUSH1 0x40 MLOAD DUP1 DUP4 SUB DUP2 PUSH1 0x0 DUP8 DUP1 EXTCODESIZE ISZERO DUP1 ISZERO PUSH2 0x1FD0 JUMPI PUSH1 0x0 DUP1 REVERT JUMPDEST POP GAS CALL ISZERO DUP1 ISZERO PUSH2 0x1FE4 JUMPI RETURNDATASIZE PUSH1 0x0 DUP1 RETURNDATACOPY RETURNDATASIZE PUSH1 0x0 REVERT JUMPDEST POP POP POP POP PUSH1 0x40 MLOAD RETURNDATASIZE PUSH1 0x1F NOT PUSH1 0x1F DUP3 ADD AND DUP3 ADD DUP1 PUSH1 0x40 MSTORE POP DUP2 ADD SWAP1 PUSH2 0x2008 SWAP2 SWAP1 PUSH2 0x365D JUMP JUMPDEST JUMPDEST PUSH2 0x2048 JUMPI PUSH1 0x40 MLOAD PUSH32 0x8C379A000000000000000000000000000000000000000000000000000000000 DUP2 MSTORE PUSH1 0x4 ADD PUSH2 0x203F SWAP1 PUSH2 0x3EC9 JUMP JUMPDEST PUSH1 0x40 MLOAD DUP1 SWAP2 SUB SWAP1 REVERT JUMPDEST PUSH1 0x0 DUP1 SLOAD SWAP1 PUSH2 0x100 EXP SWAP1 DIV PUSH20 0xFFFFFFFFFFFFFFFFFFFFFFFFFFFFFFFFFFFFFFFF AND PUSH20 0xFFFFFFFFFFFFFFFFFFFFFFFFFFFFFFFFFFFFFFFF AND DUP6 PUSH20 0xFFFFFFFFFFFFFFFFFFFFFFFFFFFFFFFFFFFFFFFF AND PUSH32 0x9BD10BE98695714F5CB43CEFB59BA6417808B354710ACAFAFE05E81B26492231 DUP7 DUP5 PUSH1 0x40 MLOAD PUSH2 0x20C7 SWAP3 SWAP2 SWAP1 PUSH2 0x4104 JUMP JUMPDEST PUSH1 0x40 MLOAD DUP1 SWAP2 SUB SWAP1 LOG3 DUP1 SWAP3 POP POP POP SWAP3 SWAP2 POP POP JUMP JUMPDEST PUSH1 0x1 PUSH1 0x0 SWAP1 SLOAD SWAP1 PUSH2 0x100 EXP SWAP1 DIV PUSH20 0xFFFFFFFFFFFFFFFFFFFFFFFFFFFFFFFFFFFFFFFF AND PUSH20 0xFFFFFFFFFFFFFFFFFFFFFFFFFFFFFFFFFFFFFFFF AND CALLER PUSH20 0xFFFFFFFFFFFFFFFFFFFFFFFFFFFFFFFFFFFFFFFF AND EQ PUSH2 0x216A JUMPI PUSH1 0x40 MLOAD PUSH32 0x8C379A000000000000000000000000000000000000000000000000000000000 DUP2 MSTORE PUSH1 0x4 ADD PUSH2 0x2161 SWAP1 PUSH2 0x3F29 JUMP JUMPDEST PUSH1 0x40 MLOAD DUP1 SWAP2 SUB SWAP1 REVERT JUMPDEST PUSH1 0x0 PUSH1 0x8 SLOAD TIMESTAMP GT SWAP1 POP PUSH1 0xD PUSH1 0x0 SWAP1 SLOAD SWAP1 PUSH2 0x100 EXP SWAP1 DIV PUSH1 0xFF AND DUP1 PUSH2 0x218B JUMPI POP DUP1 JUMPDEST PUSH2 0x21CA JUMPI PUSH1 0x40 MLOAD PUSH32 0x8C379A000000000000000000000000000000000000000000000000000000000 DUP2 MSTORE PUSH1 0x4 ADD PUSH2 0x21C1 SWAP1 PUSH2 0x3E09 JUMP JUMPDEST PUSH1 0x40 MLOAD DUP1 SWAP2 SUB SWAP1 REVERT JUMPDEST DUP1 ISZERO PUSH2 0x23A9 JUMPI PUSH1 0x0 PUSH1 0x12 SLOAD PUSH1 0x10 SLOAD PUSH2 0x21E2 SWAP2 SWAP1 PUSH2 0x422E JUMP JUMPDEST PUSH1 0x5 SLOAD PUSH1 0x4 SLOAD PUSH2 0x21F2 SWAP2 SWAP1 PUSH2 0x422E JUMP JUMPDEST PUSH2 0x21FC SWAP2 SWAP1 PUSH2 0x430F JUMP JUMPDEST SWAP1 POP PUSH1 0x0 DUP2 PUSH1 0x9 DUP1 SLOAD SWAP1 PUSH2 0x100 EXP SWAP1 DIV PUSH20 0xFFFFFFFFFFFFFFFFFFFFFFFFFFFFFFFFFFFFFFFF AND PUSH20 0xFFFFFFFFFFFFFFFFFFFFFFFFFFFFFFFFFFFFFFFF AND PUSH4 0x70A08231 ADDRESS PUSH1 0x40 MLOAD DUP3 PUSH4 0xFFFFFFFF AND PUSH1 0xE0 SHL DUP2 MSTORE PUSH1 0x4 ADD PUSH2 0x225A SWAP2 SWAP1 PUSH2 0x3C36 JUMP JUMPDEST PUSH1 0x20 PUSH1 0x40 MLOAD DUP1 DUP4 SUB DUP2 DUP7 DUP1 EXTCODESIZE ISZERO DUP1 ISZERO PUSH2 0x2272 JUMPI PUSH1 0x0 DUP1 REVERT JUMPDEST POP GAS STATICCALL ISZERO DUP1 ISZERO PUSH2 0x2286 JUMPI RETURNDATASIZE PUSH1 0x0 DUP1 RETURNDATACOPY RETURNDATASIZE PUSH1 0x0 REVERT JUMPDEST POP POP POP POP PUSH1 0x40 MLOAD RETURNDATASIZE PUSH1 0x1F NOT PUSH1 0x1F DUP3 ADD AND DUP3 ADD DUP1 PUSH1 0x40 MSTORE POP DUP2 ADD SWAP1 PUSH2 0x22AA SWAP2 SWAP1 PUSH2 0x3700 JUMP JUMPDEST PUSH2 0x22B4 SWAP2 SWAP1 PUSH2 0x430F JUMP JUMPDEST SWAP1 POP PUSH1 0x9 DUP1 SLOAD SWAP1 PUSH2 0x100 EXP SWAP1 DIV PUSH20 0xFFFFFFFFFFFFFFFFFFFFFFFFFFFFFFFFFFFFFFFF AND PUSH20 0xFFFFFFFFFFFFFFFFFFFFFFFFFFFFFFFFFFFFFFFF AND PUSH4 0xA9059CBB DUP6 DUP4 PUSH1 0x40 MLOAD DUP4 PUSH4 0xFFFFFFFF AND PUSH1 0xE0 SHL DUP2 MSTORE PUSH1 0x4 ADD PUSH2 0x2311 SWAP3 SWAP2 SWAP1 PUSH2 0x3C88 JUMP JUMPDEST PUSH1 0x20 PUSH1 0x40 MLOAD DUP1 DUP4 SUB DUP2 PUSH1 0x0 DUP8 DUP1 EXTCODESIZE ISZERO DUP1 ISZERO PUSH2 0x232B JUMPI PUSH1 0x0 DUP1 REVERT JUMPDEST POP GAS CALL ISZERO DUP1 ISZERO PUSH2 0x233F JUMPI RETURNDATASIZE PUSH1 0x0 DUP1 RETURNDATACOPY RETURNDATASIZE PUSH1 0x0 REVERT JUMPDEST POP POP POP POP PUSH1 0x40 MLOAD RETURNDATASIZE PUSH1 0x1F NOT PUSH1 0x1F DUP3 ADD AND DUP3 ADD DUP1 PUSH1 0x40 MSTORE POP DUP2 ADD SWAP1 PUSH2 0x2363 SWAP2 SWAP1 PUSH2 0x365D JUMP JUMPDEST PUSH2 0x23A2 JUMPI PUSH1 0x40 MLOAD PUSH32 0x8C379A000000000000000000000000000000000000000000000000000000000 DUP2 MSTORE PUSH1 0x4 ADD PUSH2 0x2399 SWAP1 PUSH2 0x3D09 JUMP JUMPDEST PUSH1 0x40 MLOAD DUP1 SWAP2 SUB SWAP1 REVERT JUMPDEST POP POP PUSH2 0x253E JUMP JUMPDEST PUSH1 0x9 DUP1 SLOAD SWAP1 PUSH2 0x100 EXP SWAP1 DIV PUSH20 0xFFFFFFFFFFFFFFFFFFFFFFFFFFFFFFFFFFFFFFFF AND PUSH20 0xFFFFFFFFFFFFFFFFFFFFFFFFFFFFFFFFFFFFFFFF AND PUSH4 0xA9059CBB DUP4 PUSH1 0x9 DUP1 SLOAD SWAP1 PUSH2 0x100 EXP SWAP1 DIV PUSH20 0xFFFFFFFFFFFFFFFFFFFFFFFFFFFFFFFFFFFFFFFF AND PUSH20 0xFFFFFFFFFFFFFFFFFFFFFFFFFFFFFFFFFFFFFFFF AND PUSH4 0x70A08231 ADDRESS PUSH1 0x40 MLOAD DUP3 PUSH4 0xFFFFFFFF AND PUSH1 0xE0 SHL DUP2 MSTORE PUSH1 0x4 ADD PUSH2 0x243F SWAP2 SWAP1 PUSH2 0x3C36 JUMP JUMPDEST PUSH1 0x20 PUSH1 0x40 MLOAD DUP1 DUP4 SUB DUP2 DUP7 DUP1 EXTCODESIZE ISZERO DUP1 ISZERO PUSH2 0x2457 JUMPI PUSH1 0x0 DUP1 REVERT JUMPDEST POP GAS STATICCALL ISZERO DUP1 ISZERO PUSH2 0x246B JUMPI RETURNDATASIZE PUSH1 0x0 DUP1 RETURNDATACOPY RETURNDATASIZE PUSH1 0x0 REVERT JUMPDEST POP POP POP POP PUSH1 0x40 MLOAD RETURNDATASIZE PUSH1 0x1F NOT PUSH1 0x1F DUP3 ADD AND DUP3 ADD DUP1 PUSH1 0x40 MSTORE POP DUP2 ADD SWAP1 PUSH2 0x248F SWAP2 SWAP1 PUSH2 0x3700 JUMP JUMPDEST PUSH1 0x40 MLOAD DUP4 PUSH4 0xFFFFFFFF AND PUSH1 0xE0 SHL DUP2 MSTORE PUSH1 0x4 ADD PUSH2 0x24AC SWAP3 SWAP2 SWAP1 PUSH2 0x3C88 JUMP JUMPDEST PUSH1 0x20 PUSH1 0x40 MLOAD DUP1 DUP4 SUB DUP2 PUSH1 0x0 DUP8 DUP1 EXTCODESIZE ISZERO DUP1 ISZERO PUSH2 0x24C6 JUMPI PUSH1 0x0 DUP1 REVERT JUMPDEST POP GAS CALL ISZERO DUP1 ISZERO PUSH2 0x24DA JUMPI RETURNDATASIZE PUSH1 0x0 DUP1 RETURNDATACOPY RETURNDATASIZE PUSH1 0x0 REVERT JUMPDEST POP POP POP POP PUSH1 0x40 MLOAD RETURNDATASIZE PUSH1 0x1F NOT PUSH1 0x1F DUP3 ADD AND DUP3 ADD DUP1 PUSH1 0x40 MSTORE POP DUP2 ADD SWAP1 PUSH2 0x24FE SWAP2 SWAP1 PUSH2 0x365D JUMP JUMPDEST PUSH2 0x253D JUMPI PUSH1 0x40 MLOAD PUSH32 0x8C379A000000000000000000000000000000000000000000000000000000000 DUP2 MSTORE PUSH1 0x4 ADD PUSH2 0x2534 SWAP1 PUSH2 0x3D09 JUMP JUMPDEST PUSH1 0x40 MLOAD DUP1 SWAP2 SUB SWAP1 REVERT JUMPDEST JUMPDEST POP POP JUMP JUMPDEST PUSH1 0x12 SLOAD DUP2 JUMP JUMPDEST PUSH1 0x4 SLOAD DUP2 JUMP JUMPDEST PUSH1 0x15 PUSH1 0x20 MSTORE DUP1 PUSH1 0x0 MSTORE PUSH1 0x40 PUSH1 0x0 KECCAK256 PUSH1 0x0 SWAP2 POP SLOAD SWAP1 PUSH2 0x100 EXP SWAP1 DIV PUSH1 0xFF AND DUP2 JUMP JUMPDEST PUSH1 0x0 DUP1 PUSH1 0xD PUSH1 0x0 SWAP1 SLOAD SWAP1 PUSH2 0x100 EXP SWAP1 DIV PUSH1 0xFF AND ISZERO PUSH2 0x25C1 JUMPI PUSH1 0x40 MLOAD PUSH32 0x8C379A000000000000000000000000000000000000000000000000000000000 DUP2 MSTORE PUSH1 0x4 ADD PUSH2 0x25B8 SWAP1 PUSH2 0x3F49 JUMP JUMPDEST PUSH1 0x40 MLOAD DUP1 SWAP2 SUB SWAP1 REVERT JUMPDEST PUSH1 0xD PUSH1 0x1 SWAP1 SLOAD SWAP1 PUSH2 0x100 EXP SWAP1 DIV PUSH1 0xFF AND ISZERO PUSH2 0x2611 JUMPI PUSH1 0x40 MLOAD PUSH32 0x8C379A000000000000000000000000000000000000000000000000000000000 DUP2 MSTORE PUSH1 0x4 ADD PUSH2 0x2608 SWAP1 PUSH2 0x3FA9 JUMP JUMPDEST PUSH1 0x40 MLOAD DUP1 SWAP2 SUB SWAP1 REVERT JUMPDEST PUSH1 0xD PUSH1 0x5 SWAP1 SLOAD SWAP1 PUSH2 0x100 EXP SWAP1 DIV PUSH1 0xFF AND ISZERO PUSH2 0x2661 JUMPI PUSH1 0x40 MLOAD PUSH32 0x8C379A000000000000000000000000000000000000000000000000000000000 DUP2 MSTORE PUSH1 0x4 ADD PUSH2 0x2658 SWAP1 PUSH2 0x3D29 JUMP JUMPDEST PUSH1 0x40 MLOAD DUP1 SWAP2 SUB SWAP1 REVERT JUMPDEST PUSH1 0x9 PUSH1 0x0 SWAP1 SLOAD SWAP1 PUSH2 0x100 EXP SWAP1 DIV PUSH1 0xFF AND ISZERO DUP1 PUSH2 0x26C6 JUMPI POP PUSH1 0x15 PUSH1 0x0 CALLER PUSH20 0xFFFFFFFFFFFFFFFFFFFFFFFFFFFFFFFFFFFFFFFF AND PUSH20 0xFFFFFFFFFFFFFFFFFFFFFFFFFFFFFFFFFFFFFFFF AND DUP2 MSTORE PUSH1 0x20 ADD SWAP1 DUP2 MSTORE PUSH1 0x20 ADD PUSH1 0x0 KECCAK256 PUSH1 0x0 SWAP1 SLOAD SWAP1 PUSH2 0x100 EXP SWAP1 DIV PUSH1 0xFF AND JUMPDEST PUSH2 0x2705 JUMPI PUSH1 0x40 MLOAD PUSH32 0x8C379A000000000000000000000000000000000000000000000000000000000 DUP2 MSTORE PUSH1 0x4 ADD PUSH2 0x26FC SWAP1 PUSH2 0x3E89 JUMP JUMPDEST PUSH1 0x40 MLOAD DUP1 SWAP2 SUB SWAP1 REVERT JUMPDEST TIMESTAMP PUSH1 0x8 SLOAD LT ISZERO DUP1 ISZERO PUSH2 0x2719 JUMPI POP TIMESTAMP PUSH1 0x7 SLOAD GT ISZERO JUMPDEST PUSH2 0x2758 JUMPI PUSH1 0x40 MLOAD PUSH32 0x8C379A000000000000000000000000000000000000000000000000000000000 DUP2 MSTORE PUSH1 0x4 ADD PUSH2 0x274F SWAP1 PUSH2 0x3F69 JUMP JUMPDEST PUSH1 0x40 MLOAD DUP1 SWAP2 SUB SWAP1 REVERT JUMPDEST PUSH1 0xD PUSH1 0x2 SWAP1 SLOAD SWAP1 PUSH2 0x100 EXP SWAP1 DIV PUSH1 0xFF AND PUSH2 0x2882 JUMPI PUSH1 0x5 SLOAD PUSH1 0x4 SLOAD PUSH2 0x277C SWAP2 SWAP1 PUSH2 0x422E JUMP JUMPDEST PUSH1 0x9 DUP1 SLOAD SWAP1 PUSH2 0x100 EXP SWAP1 DIV PUSH20 0xFFFFFFFFFFFFFFFFFFFFFFFFFFFFFFFFFFFFFFFF AND PUSH20 0xFFFFFFFFFFFFFFFFFFFFFFFFFFFFFFFFFFFFFFFF AND PUSH4 0x70A08231 ADDRESS PUSH1 0x40 MLOAD DUP3 PUSH4 0xFFFFFFFF AND PUSH1 0xE0 SHL DUP2 MSTORE PUSH1 0x4 ADD PUSH2 0x27D5 SWAP2 SWAP1 PUSH2 0x3C36 JUMP JUMPDEST PUSH1 0x20 PUSH1 0x40 MLOAD DUP1 DUP4 SUB DUP2 DUP7 DUP1 EXTCODESIZE ISZERO DUP1 ISZERO PUSH2 0x27ED JUMPI PUSH1 0x0 DUP1 REVERT JUMPDEST POP GAS STATICCALL ISZERO DUP1 ISZERO PUSH2 0x2801 JUMPI RETURNDATASIZE PUSH1 0x0 DUP1 RETURNDATACOPY RETURNDATASIZE PUSH1 0x0 REVERT JUMPDEST POP POP POP POP PUSH1 0x40 MLOAD RETURNDATASIZE PUSH1 0x1F NOT PUSH1 0x1F DUP3 ADD AND DUP3 ADD DUP1 PUSH1 0x40 MSTORE POP DUP2 ADD SWAP1 PUSH2 0x2825 SWAP2 SWAP1 PUSH2 0x3700 JUMP JUMPDEST LT ISZERO PUSH2 0x2866 JUMPI PUSH1 0x40 MLOAD PUSH32 0x8C379A000000000000000000000000000000000000000000000000000000000 DUP2 MSTORE PUSH1 0x4 ADD PUSH2 0x285D SWAP1 PUSH2 0x4029 JUMP JUMPDEST PUSH1 0x40 MLOAD DUP1 SWAP2 SUB SWAP1 REVERT JUMPDEST PUSH1 0x1 PUSH1 0xD PUSH1 0x2 PUSH2 0x100 EXP DUP2 SLOAD DUP2 PUSH1 0xFF MUL NOT AND SWAP1 DUP4 ISZERO ISZERO MUL OR SWAP1 SSTORE POP JUMPDEST PUSH1 0x0 PUSH1 0x6 SLOAD PUSH8 0xDE0B6B3A7640000 DUP6 PUSH2 0x289B SWAP2 SWAP1 PUSH2 0x42B5 JUMP JUMPDEST PUSH2 0x28A5 SWAP2 SWAP1 PUSH2 0x4284 JUMP JUMPDEST SWAP1 POP PUSH1 0x0 PUSH8 0xDE0B6B3A7640000 PUSH1 0x64 PUSH2 0x28BE SWAP2 SWAP1 PUSH2 0x42B5 JUMP JUMPDEST PUSH1 0xB SLOAD DUP4 PUSH2 0x28CC SWAP2 SWAP1 PUSH2 0x42B5 JUMP JUMPDEST PUSH2 0x28D6 SWAP2 SWAP1 PUSH2 0x4284 JUMP JUMPDEST SWAP1 POP PUSH1 0x9 PUSH1 0x1 SWAP1 SLOAD SWAP1 PUSH2 0x100 EXP SWAP1 DIV PUSH4 0xFFFFFFFF AND PUSH4 0xFFFFFFFF AND DUP3 LT ISZERO PUSH2 0x2933 JUMPI PUSH1 0x40 MLOAD PUSH32 0x8C379A000000000000000000000000000000000000000000000000000000000 DUP2 MSTORE PUSH1 0x4 ADD PUSH2 0x292A SWAP1 PUSH2 0x3E49 JUMP JUMPDEST PUSH1 0x40 MLOAD DUP1 SWAP2 SUB SWAP1 REVERT JUMPDEST PUSH1 0x3 SLOAD DUP6 PUSH1 0x13 SLOAD PUSH2 0x2944 SWAP2 SWAP1 PUSH2 0x422E JUMP JUMPDEST GT ISZERO PUSH2 0x2985 JUMPI PUSH1 0x40 MLOAD PUSH32 0x8C379A000000000000000000000000000000000000000000000000000000000 DUP2 MSTORE PUSH1 0x4 ADD PUSH2 0x297C SWAP1 PUSH2 0x3D89 JUMP JUMPDEST PUSH1 0x40 MLOAD DUP1 SWAP2 SUB SWAP1 REVERT JUMPDEST DUP2 PUSH1 0x10 SLOAD LT ISZERO PUSH2 0x29CA JUMPI PUSH1 0x40 MLOAD PUSH32 0x8C379A000000000000000000000000000000000000000000000000000000000 DUP2 MSTORE PUSH1 0x4 ADD PUSH2 0x29C1 SWAP1 PUSH2 0x3F09 JUMP JUMPDEST PUSH1 0x40 MLOAD DUP1 SWAP2 SUB SWAP1 REVERT JUMPDEST DUP5 PUSH1 0x13 PUSH1 0x0 DUP3 DUP3 SLOAD PUSH2 0x29DC SWAP2 SWAP1 PUSH2 0x422E JUMP JUMPDEST SWAP3 POP POP DUP2 SWAP1 SSTORE POP DUP2 PUSH1 0x10 PUSH1 0x0 DUP3 DUP3 SLOAD PUSH2 0x29F5 SWAP2 SWAP1 PUSH2 0x430F JUMP JUMPDEST SWAP3 POP POP DUP2 SWAP1 SSTORE POP DUP1 PUSH1 0x12 PUSH1 0x0 DUP3 DUP3 SLOAD PUSH2 0x2A0E SWAP2 SWAP1 PUSH2 0x430F JUMP JUMPDEST SWAP3 POP POP DUP2 SWAP1 SSTORE POP PUSH1 0x2 SLOAD PUSH1 0x13 SLOAD LT PUSH2 0x2A3C JUMPI PUSH1 0x1 PUSH1 0xD PUSH1 0x4 PUSH2 0x100 EXP DUP2 SLOAD DUP2 PUSH1 0xFF MUL NOT AND SWAP1 DUP4 ISZERO ISZERO MUL OR SWAP1 SSTORE POP JUMPDEST PUSH1 0x3 SLOAD PUSH1 0x13 SLOAD LT PUSH2 0x2A6A JUMPI PUSH1 0x1 PUSH1 0xD PUSH1 0x5 PUSH2 0x100 EXP DUP2 SLOAD DUP2 PUSH1 0xFF MUL NOT AND SWAP1 DUP4 ISZERO ISZERO MUL OR SWAP1 SSTORE POP TIMESTAMP PUSH1 0xE DUP2 SWAP1 SSTORE POP JUMPDEST PUSH2 0x2AC1 CALLER DUP7 PUSH1 0x16 PUSH1 0x0 CALLER PUSH20 0xFFFFFFFFFFFFFFFFFFFFFFFFFFFFFFFFFFFFFFFF AND PUSH20 0xFFFFFFFFFFFFFFFFFFFFFFFFFFFFFFFFFFFFFFFF AND DUP2 MSTORE PUSH1 0x20 ADD SWAP1 DUP2 MSTORE PUSH1 0x20 ADD PUSH1 0x0 KECCAK256 PUSH1 0x1 ADD SLOAD PUSH2 0x2ABC SWAP2 SWAP1 PUSH2 0x422E JUMP JUMPDEST PUSH2 0x30DA JUMP JUMPDEST PUSH1 0xA PUSH1 0x0 SWAP1 SLOAD SWAP1 PUSH2 0x100 EXP SWAP1 DIV PUSH20 0xFFFFFFFFFFFFFFFFFFFFFFFFFFFFFFFFFFFFFFFF AND PUSH20 0xFFFFFFFFFFFFFFFFFFFFFFFFFFFFFFFFFFFFFFFF AND PUSH4 0x23B872DD CALLER ADDRESS DUP9 PUSH1 0x40 MLOAD DUP5 PUSH4 0xFFFFFFFF AND PUSH1 0xE0 SHL DUP2 MSTORE PUSH1 0x4 ADD PUSH2 0x2B20 SWAP4 SWAP3 SWAP2 SWAP1 PUSH2 0x3C51 JUMP JUMPDEST PUSH1 0x20 PUSH1 0x40 MLOAD DUP1 DUP4 SUB DUP2 PUSH1 0x0 DUP8 DUP1 EXTCODESIZE ISZERO DUP1 ISZERO PUSH2 0x2B3A JUMPI PUSH1 0x0 DUP1 REVERT JUMPDEST POP GAS CALL ISZERO DUP1 ISZERO PUSH2 0x2B4E JUMPI RETURNDATASIZE PUSH1 0x0 DUP1 RETURNDATACOPY RETURNDATASIZE PUSH1 0x0 REVERT JUMPDEST POP POP POP POP PUSH1 0x40 MLOAD RETURNDATASIZE PUSH1 0x1F NOT PUSH1 0x1F DUP3 ADD AND DUP3 ADD DUP1 PUSH1 0x40 MSTORE POP DUP2 ADD SWAP1 PUSH2 0x2B72 SWAP2 SWAP1 PUSH2 0x365D JUMP JUMPDEST PUSH2 0x2BB1 JUMPI PUSH1 0x40 MLOAD PUSH32 0x8C379A000000000000000000000000000000000000000000000000000000000 DUP2 MSTORE PUSH1 0x4 ADD PUSH2 0x2BA8 SWAP1 PUSH2 0x3FC9 JUMP JUMPDEST PUSH1 0x40 MLOAD DUP1 SWAP2 SUB SWAP1 REVERT JUMPDEST CALLER PUSH20 0xFFFFFFFFFFFFFFFFFFFFFFFFFFFFFFFFFFFFFFFF AND PUSH32 0xCF5EF2B227E797B567F0DF4C49CC8B6207CFB60054EB899E5608DE08E5DCB1EF DUP4 PUSH1 0x40 MLOAD PUSH2 0x2BF7 SWAP2 SWAP1 PUSH2 0x40E9 JUMP JUMPDEST PUSH1 0x40 MLOAD DUP1 SWAP2 SUB SWAP1 LOG2 DUP2 DUP2 SWAP4 POP SWAP4 POP POP POP SWAP2 POP SWAP2 JUMP JUMPDEST PUSH1 0x0 PUSH1 0x6 SLOAD PUSH8 0xDE0B6B3A7640000 PUSH1 0x16 PUSH1 0x0 DUP6 PUSH20 0xFFFFFFFFFFFFFFFFFFFFFFFFFFFFFFFFFFFFFFFF AND PUSH20 0xFFFFFFFFFFFFFFFFFFFFFFFFFFFFFFFFFFFFFFFF AND DUP2 MSTORE PUSH1 0x20 ADD SWAP1 DUP2 MSTORE PUSH1 0x20 ADD PUSH1 0x0 KECCAK256 PUSH1 0x1 ADD SLOAD PUSH2 0x2C67 SWAP2 SWAP1 PUSH2 0x42B5 JUMP JUMPDEST PUSH2 0x2C71 SWAP2 SWAP1 PUSH2 0x4284 JUMP JUMPDEST SWAP1 POP SWAP2 SWAP1 POP JUMP JUMPDEST PUSH1 0xB SLOAD DUP2 JUMP JUMPDEST PUSH1 0xD PUSH1 0x4 SWAP1 SLOAD SWAP1 PUSH2 0x100 EXP SWAP1 DIV PUSH1 0xFF AND DUP2 JUMP JUMPDEST PUSH1 0x5 SLOAD DUP2 JUMP JUMPDEST PUSH1 0x0 DUP1 PUSH1 0x16 PUSH1 0x0 DUP5 PUSH20 0xFFFFFFFFFFFFFFFFFFFFFFFFFFFFFFFFFFFFFFFF AND PUSH20 0xFFFFFFFFFFFFFFFFFFFFFFFFFFFFFFFFFFFFFFFF AND DUP2 MSTORE PUSH1 0x20 ADD SWAP1 DUP2 MSTORE PUSH1 0x20 ADD PUSH1 0x0 KECCAK256 SWAP1 POP PUSH1 0xE SLOAD TIMESTAMP LT ISZERO PUSH2 0x2CEF JUMPI PUSH1 0x0 SWAP2 POP POP PUSH2 0x2DBD JUMP JUMPDEST PUSH1 0x0 PUSH1 0xE SLOAD TIMESTAMP PUSH2 0x2CFF SWAP2 SWAP1 PUSH2 0x430F JUMP JUMPDEST SWAP1 POP PUSH1 0x9 PUSH1 0x5 SWAP1 SLOAD SWAP1 PUSH2 0x100 EXP SWAP1 DIV PUSH4 0xFFFFFFFF AND PUSH4 0xFFFFFFFF AND DUP2 LT ISZERO PUSH2 0x2D2C JUMPI PUSH1 0x0 SWAP3 POP POP POP PUSH2 0x2DBD JUMP JUMPDEST PUSH1 0x9 PUSH1 0x1 SWAP1 SLOAD SWAP1 PUSH2 0x100 EXP SWAP1 DIV PUSH4 0xFFFFFFFF AND PUSH4 0xFFFFFFFF AND DUP2 LT PUSH2 0x2D6C JUMPI DUP2 PUSH1 0x0 ADD SLOAD PUSH2 0x2D59 DUP6 PUSH2 0x2C0C JUMP JUMPDEST PUSH2 0x2D63 SWAP2 SWAP1 PUSH2 0x430F JUMP JUMPDEST SWAP3 POP POP POP PUSH2 0x2DBD JUMP JUMPDEST PUSH1 0x0 PUSH1 0x9 PUSH1 0x1 SWAP1 SLOAD SWAP1 PUSH2 0x100 EXP SWAP1 DIV PUSH4 0xFFFFFFFF AND PUSH4 0xFFFFFFFF AND PUSH2 0x2D90 DUP7 PUSH2 0x2C0C JUMP JUMPDEST DUP4 PUSH2 0x2D9B SWAP2 SWAP1 PUSH2 0x42B5 JUMP JUMPDEST PUSH2 0x2DA5 SWAP2 SWAP1 PUSH2 0x4284 JUMP JUMPDEST SWAP1 POP DUP3 PUSH1 0x0 ADD SLOAD DUP2 PUSH2 0x2DB7 SWAP2 SWAP1 PUSH2 0x430F JUMP JUMPDEST SWAP4 POP POP POP POP JUMPDEST SWAP2 SWAP1 POP JUMP JUMPDEST PUSH1 0x1 PUSH1 0x0 SWAP1 SLOAD SWAP1 PUSH2 0x100 EXP SWAP1 DIV PUSH20 0xFFFFFFFFFFFFFFFFFFFFFFFFFFFFFFFFFFFFFFFF AND PUSH20 0xFFFFFFFFFFFFFFFFFFFFFFFFFFFFFFFFFFFFFFFF AND CALLER PUSH20 0xFFFFFFFFFFFFFFFFFFFFFFFFFFFFFFFFFFFFFFFF AND EQ PUSH2 0x2E52 JUMPI PUSH1 0x40 MLOAD PUSH32 0x8C379A000000000000000000000000000000000000000000000000000000000 DUP2 MSTORE PUSH1 0x4 ADD PUSH2 0x2E49 SWAP1 PUSH2 0x3F29 JUMP JUMPDEST PUSH1 0x40 MLOAD DUP1 SWAP2 SUB SWAP1 REVERT JUMPDEST PUSH1 0xD PUSH1 0x0 SWAP1 SLOAD SWAP1 PUSH2 0x100 EXP SWAP1 DIV PUSH1 0xFF AND ISZERO PUSH2 0x2EA2 JUMPI PUSH1 0x40 MLOAD PUSH32 0x8C379A000000000000000000000000000000000000000000000000000000000 DUP2 MSTORE PUSH1 0x4 ADD PUSH2 0x2E99 SWAP1 PUSH2 0x3F49 JUMP JUMPDEST PUSH1 0x40 MLOAD DUP1 SWAP2 SUB SWAP1 REVERT JUMPDEST PUSH1 0x1 ISZERO ISZERO PUSH1 0x9 PUSH1 0x0 SWAP1 SLOAD SWAP1 PUSH2 0x100 EXP SWAP1 DIV PUSH1 0xFF AND ISZERO ISZERO EQ PUSH2 0x2EF8 JUMPI PUSH1 0x40 MLOAD PUSH32 0x8C379A000000000000000000000000000000000000000000000000000000000 DUP2 MSTORE PUSH1 0x4 ADD PUSH2 0x2EEF SWAP1 PUSH2 0x4069 JUMP JUMPDEST PUSH1 0x40 MLOAD DUP1 SWAP2 SUB SWAP1 REVERT JUMPDEST PUSH1 0x0 JUMPDEST DUP2 MLOAD DUP2 LT ISZERO PUSH2 0x2F89 JUMPI PUSH1 0x1 PUSH1 0x15 PUSH1 0x0 DUP5 DUP5 DUP2 MLOAD DUP2 LT PUSH2 0x2F1D JUMPI PUSH2 0x2F1C PUSH2 0x453A JUMP JUMPDEST JUMPDEST PUSH1 0x20 MUL PUSH1 0x20 ADD ADD MLOAD PUSH20 0xFFFFFFFFFFFFFFFFFFFFFFFFFFFFFFFFFFFFFFFF AND PUSH20 0xFFFFFFFFFFFFFFFFFFFFFFFFFFFFFFFFFFFFFFFF AND DUP2 MSTORE PUSH1 0x20 ADD SWAP1 DUP2 MSTORE PUSH1 0x20 ADD PUSH1 0x0 KECCAK256 PUSH1 0x0 PUSH2 0x100 EXP DUP2 SLOAD DUP2 PUSH1 0xFF MUL NOT AND SWAP1 DUP4 ISZERO ISZERO MUL OR SWAP1 SSTORE POP DUP1 DUP1 PUSH2 0x2F81 SWAP1 PUSH2 0x4464 JUMP JUMPDEST SWAP2 POP POP PUSH2 0x2EFB JUMP JUMPDEST POP POP JUMP JUMPDEST PUSH1 0x9 PUSH1 0x5 SWAP1 SLOAD SWAP1 PUSH2 0x100 EXP SWAP1 DIV PUSH4 0xFFFFFFFF AND DUP2 JUMP JUMPDEST PUSH1 0x1 PUSH1 0x0 SWAP1 SLOAD SWAP1 PUSH2 0x100 EXP SWAP1 DIV PUSH20 0xFFFFFFFFFFFFFFFFFFFFFFFFFFFFFFFFFFFFFFFF AND DUP2 JUMP JUMPDEST PUSH1 0x3 SLOAD DUP2 JUMP JUMPDEST PUSH1 0x1 ISZERO ISZERO PUSH1 0xD PUSH1 0x3 SWAP1 SLOAD SWAP1 PUSH2 0x100 EXP SWAP1 DIV PUSH1 0xFF AND ISZERO ISZERO EQ ISZERO DUP1 PUSH2 0x303F JUMPI POP PUSH1 0x1 PUSH1 0x0 SWAP1 SLOAD SWAP1 PUSH2 0x100 EXP SWAP1 DIV PUSH20 0xFFFFFFFFFFFFFFFFFFFFFFFFFFFFFFFFFFFFFFFF AND PUSH20 0xFFFFFFFFFFFFFFFFFFFFFFFFFFFFFFFFFFFFFFFF AND CALLER PUSH20 0xFFFFFFFFFFFFFFFFFFFFFFFFFFFFFFFFFFFFFFFF AND EQ JUMPDEST PUSH2 0x307E JUMPI PUSH1 0x40 MLOAD PUSH32 0x8C379A000000000000000000000000000000000000000000000000000000000 DUP2 MSTORE PUSH1 0x4 ADD PUSH2 0x3075 SWAP1 PUSH2 0x3DA9 JUMP JUMPDEST PUSH1 0x40 MLOAD DUP1 SWAP2 SUB SWAP1 REVERT JUMPDEST DUP1 PUSH1 0xC SWAP1 DUP1 MLOAD SWAP1 PUSH1 0x20 ADD SWAP1 PUSH2 0x3094 SWAP3 SWAP2 SWAP1 PUSH2 0x31AE JUMP JUMPDEST POP DUP1 PUSH1 0x40 MLOAD PUSH2 0x30A3 SWAP2 SWAP1 PUSH2 0x3C1F JUMP JUMPDEST PUSH1 0x40 MLOAD DUP1 SWAP2 SUB SWAP1 KECCAK256 PUSH32 0x9F579B21815D3F81581D32E97736CCBA1CC89D1918E48DA28E6E206ACD96864 PUSH1 0x40 MLOAD PUSH1 0x40 MLOAD DUP1 SWAP2 SUB SWAP1 LOG2 POP JUMP JUMPDEST PUSH1 0x0 PUSH1 0x16 PUSH1 0x0 DUP5 PUSH20 0xFFFFFFFFFFFFFFFFFFFFFFFFFFFFFFFFFFFFFFFF AND PUSH20 0xFFFFFFFFFFFFFFFFFFFFFFFFFFFFFFFFFFFFFFFF AND DUP2 MSTORE PUSH1 0x20 ADD SWAP1 DUP2 MSTORE PUSH1 0x20 ADD PUSH1 0x0 KECCAK256 PUSH1 0x1 ADD SLOAD EQ ISZERO PUSH2 0x313E JUMPI PUSH1 0xF PUSH1 0x0 DUP2 SLOAD DUP1 SWAP3 SWAP2 SWAP1 PUSH2 0x3138 SWAP1 PUSH2 0x4464 JUMP JUMPDEST SWAP2 SWAP1 POP SSTORE POP JUMPDEST PUSH1 0x40 MLOAD DUP1 PUSH1 0x40 ADD PUSH1 0x40 MSTORE DUP1 PUSH1 0x0 DUP2 MSTORE PUSH1 0x20 ADD DUP3 DUP2 MSTORE POP PUSH1 0x16 PUSH1 0x0 DUP5 PUSH20 0xFFFFFFFFFFFFFFFFFFFFFFFFFFFFFFFFFFFFFFFF AND PUSH20 0xFFFFFFFFFFFFFFFFFFFFFFFFFFFFFFFFFFFFFFFF AND DUP2 MSTORE PUSH1 0x20 ADD SWAP1 DUP2 MSTORE PUSH1 0x20 ADD PUSH1 0x0 KECCAK256 PUSH1 0x0 DUP3 ADD MLOAD DUP2 PUSH1 0x0 ADD SSTORE PUSH1 0x20 DUP3 ADD MLOAD DUP2 PUSH1 0x1 ADD SSTORE SWAP1 POP POP POP POP JUMP JUMPDEST DUP3 DUP1 SLOAD PUSH2 0x31BA SWAP1 PUSH2 0x4401 JUMP JUMPDEST SWAP1 PUSH1 0x0 MSTORE PUSH1 0x20 PUSH1 0x0 KECCAK256 SWAP1 PUSH1 0x1F ADD PUSH1 0x20 SWAP1 DIV DUP2 ADD SWAP3 DUP3 PUSH2 0x31DC JUMPI PUSH1 0x0 DUP6 SSTORE PUSH2 0x3223 JUMP JUMPDEST DUP3 PUSH1 0x1F LT PUSH2 0x31F5 JUMPI DUP1 MLOAD PUSH1 0xFF NOT AND DUP4 DUP1 ADD OR DUP6 SSTORE PUSH2 0x3223 JUMP JUMPDEST DUP3 DUP1 ADD PUSH1 0x1 ADD DUP6 SSTORE DUP3 ISZERO PUSH2 0x3223 JUMPI SWAP2 DUP3 ADD JUMPDEST DUP3 DUP2 GT ISZERO PUSH2 0x3222 JUMPI DUP3 MLOAD DUP3 SSTORE SWAP2 PUSH1 0x20 ADD SWAP2 SWAP1 PUSH1 0x1 ADD SWAP1 PUSH2 0x3207 JUMP JUMPDEST JUMPDEST POP SWAP1 POP PUSH2 0x3230 SWAP2 SWAP1 PUSH2 0x3234 JUMP JUMPDEST POP SWAP1 JUMP JUMPDEST JUMPDEST DUP1 DUP3 GT ISZERO PUSH2 0x324D JUMPI PUSH1 0x0 DUP2 PUSH1 0x0 SWAP1 SSTORE POP PUSH1 0x1 ADD PUSH2 0x3235 JUMP JUMPDEST POP SWAP1 JUMP JUMPDEST PUSH1 0x0 PUSH2 0x3264 PUSH2 0x325F DUP5 PUSH2 0x416D JUMP JUMPDEST PUSH2 0x4148 JUMP JUMPDEST SWAP1 POP DUP1 DUP4 DUP3 MSTORE PUSH1 0x20 DUP3 ADD SWAP1 POP DUP3 DUP6 PUSH1 0x20 DUP7 MUL DUP3 ADD GT ISZERO PUSH2 0x3287 JUMPI PUSH2 0x3286 PUSH2 0x459D JUMP JUMPDEST JUMPDEST PUSH1 0x0 JUMPDEST DUP6 DUP2 LT ISZERO PUSH2 0x32B7 JUMPI DUP2 PUSH2 0x329D DUP9 DUP3 PUSH2 0x3373 JUMP JUMPDEST DUP5 MSTORE PUSH1 0x20 DUP5 ADD SWAP4 POP PUSH1 0x20 DUP4 ADD SWAP3 POP POP PUSH1 0x1 DUP2 ADD SWAP1 POP PUSH2 0x328A JUMP JUMPDEST POP POP POP SWAP4 SWAP3 POP POP POP JUMP JUMPDEST PUSH1 0x0 PUSH2 0x32D4 PUSH2 0x32CF DUP5 PUSH2 0x4199 JUMP JUMPDEST PUSH2 0x4148 JUMP JUMPDEST SWAP1 POP DUP1 DUP4 DUP3 MSTORE PUSH1 0x20 DUP3 ADD SWAP1 POP DUP3 DUP6 PUSH1 0x20 DUP7 MUL DUP3 ADD GT ISZERO PUSH2 0x32F7 JUMPI PUSH2 0x32F6 PUSH2 0x459D JUMP JUMPDEST JUMPDEST PUSH1 0x0 JUMPDEST DUP6 DUP2 LT ISZERO PUSH2 0x3327 JUMPI DUP2 PUSH2 0x330D DUP9 DUP3 PUSH2 0x343C JUMP JUMPDEST DUP5 MSTORE PUSH1 0x20 DUP5 ADD SWAP4 POP PUSH1 0x20 DUP4 ADD SWAP3 POP POP PUSH1 0x1 DUP2 ADD SWAP1 POP PUSH2 0x32FA JUMP JUMPDEST POP POP POP SWAP4 SWAP3 POP POP POP JUMP JUMPDEST PUSH1 0x0 PUSH2 0x3344 PUSH2 0x333F DUP5 PUSH2 0x41C5 JUMP JUMPDEST PUSH2 0x4148 JUMP JUMPDEST SWAP1 POP DUP3 DUP2 MSTORE PUSH1 0x20 DUP2 ADD DUP5 DUP5 DUP5 ADD GT ISZERO PUSH2 0x3360 JUMPI PUSH2 0x335F PUSH2 0x45A2 JUMP JUMPDEST JUMPDEST PUSH2 0x336B DUP5 DUP3 DUP6 PUSH2 0x43BF JUMP JUMPDEST POP SWAP4 SWAP3 POP POP POP JUMP JUMPDEST PUSH1 0x0 DUP2 CALLDATALOAD SWAP1 POP PUSH2 0x3382 DUP2 PUSH2 0x4DD7 JUMP JUMPDEST SWAP3 SWAP2 POP POP JUMP JUMPDEST PUSH1 0x0 DUP3 PUSH1 0x1F DUP4 ADD SLT PUSH2 0x339D JUMPI PUSH2 0x339C PUSH2 0x4598 JUMP JUMPDEST JUMPDEST DUP2 CALLDATALOAD PUSH2 0x33AD DUP5 DUP3 PUSH1 0x20 DUP7 ADD PUSH2 0x3251 JUMP JUMPDEST SWAP2 POP POP SWAP3 SWAP2 POP POP JUMP JUMPDEST PUSH1 0x0 DUP3 PUSH1 0x1F DUP4 ADD SLT PUSH2 0x33CB JUMPI PUSH2 0x33CA PUSH2 0x4598 JUMP JUMPDEST JUMPDEST DUP2 CALLDATALOAD PUSH2 0x33DB DUP5 DUP3 PUSH1 0x20 DUP7 ADD PUSH2 0x32C1 JUMP JUMPDEST SWAP2 POP POP SWAP3 SWAP2 POP POP JUMP JUMPDEST PUSH1 0x0 DUP2 CALLDATALOAD SWAP1 POP PUSH2 0x33F3 DUP2 PUSH2 0x4DEE JUMP JUMPDEST SWAP3 SWAP2 POP POP JUMP JUMPDEST PUSH1 0x0 DUP2 MLOAD SWAP1 POP PUSH2 0x3408 DUP2 PUSH2 0x4DEE JUMP JUMPDEST SWAP3 SWAP2 POP POP JUMP JUMPDEST PUSH1 0x0 DUP3 PUSH1 0x1F DUP4 ADD SLT PUSH2 0x3423 JUMPI PUSH2 0x3422 PUSH2 0x4598 JUMP JUMPDEST JUMPDEST DUP2 CALLDATALOAD PUSH2 0x3433 DUP5 DUP3 PUSH1 0x20 DUP7 ADD PUSH2 0x3331 JUMP JUMPDEST SWAP2 POP POP SWAP3 SWAP2 POP POP JUMP JUMPDEST PUSH1 0x0 DUP2 CALLDATALOAD SWAP1 POP PUSH2 0x344B DUP2 PUSH2 0x4E05 JUMP JUMPDEST SWAP3 SWAP2 POP POP JUMP JUMPDEST PUSH1 0x0 DUP2 MLOAD SWAP1 POP PUSH2 0x3460 DUP2 PUSH2 0x4E05 JUMP JUMPDEST SWAP3 SWAP2 POP POP JUMP JUMPDEST PUSH1 0x0 DUP2 CALLDATALOAD SWAP1 POP PUSH2 0x3475 DUP2 PUSH2 0x4E1C JUMP JUMPDEST SWAP3 SWAP2 POP POP JUMP JUMPDEST PUSH1 0x0 PUSH1 0x20 DUP3 DUP5 SUB SLT ISZERO PUSH2 0x3491 JUMPI PUSH2 0x3490 PUSH2 0x45AC JUMP JUMPDEST JUMPDEST PUSH1 0x0 PUSH2 0x349F DUP5 DUP3 DUP6 ADD PUSH2 0x3373 JUMP JUMPDEST SWAP2 POP POP SWAP3 SWAP2 POP POP JUMP JUMPDEST PUSH1 0x0 DUP1 PUSH1 0x0 DUP1 PUSH1 0x0 DUP1 PUSH1 0x0 DUP1 PUSH1 0x0 DUP1 PUSH1 0x0 PUSH2 0x160 DUP13 DUP15 SUB SLT ISZERO PUSH2 0x34CE JUMPI PUSH2 0x34CD PUSH2 0x45AC JUMP JUMPDEST JUMPDEST PUSH1 0x0 PUSH2 0x34DC DUP15 DUP3 DUP16 ADD PUSH2 0x3373 JUMP JUMPDEST SWAP12 POP POP PUSH1 0x20 PUSH2 0x34ED DUP15 DUP3 DUP16 ADD PUSH2 0x3373 JUMP JUMPDEST SWAP11 POP POP PUSH1 0x40 DUP13 ADD CALLDATALOAD PUSH8 0xFFFFFFFFFFFFFFFF DUP2 GT ISZERO PUSH2 0x350E JUMPI PUSH2 0x350D PUSH2 0x45A7 JUMP JUMPDEST JUMPDEST PUSH2 0x351A DUP15 DUP3 DUP16 ADD PUSH2 0x3388 JUMP JUMPDEST SWAP10 POP POP PUSH1 0x60 DUP13 ADD CALLDATALOAD PUSH8 0xFFFFFFFFFFFFFFFF DUP2 GT ISZERO PUSH2 0x353B JUMPI PUSH2 0x353A PUSH2 0x45A7 JUMP JUMPDEST JUMPDEST PUSH2 0x3547 DUP15 DUP3 DUP16 ADD PUSH2 0x33B6 JUMP JUMPDEST SWAP9 POP POP PUSH1 0x80 PUSH2 0x3558 DUP15 DUP3 DUP16 ADD PUSH2 0x343C JUMP JUMPDEST SWAP8 POP POP PUSH1 0xA0 PUSH2 0x3569 DUP15 DUP3 DUP16 ADD PUSH2 0x343C JUMP JUMPDEST SWAP7 POP POP PUSH1 0xC0 PUSH2 0x357A DUP15 DUP3 DUP16 ADD PUSH2 0x343C JUMP JUMPDEST SWAP6 POP POP PUSH1 0xE0 PUSH2 0x358B DUP15 DUP3 DUP16 ADD PUSH2 0x3466 JUMP JUMPDEST SWAP5 POP POP PUSH2 0x100 PUSH2 0x359D DUP15 DUP3 DUP16 ADD PUSH2 0x3466 JUMP JUMPDEST SWAP4 POP POP PUSH2 0x120 PUSH2 0x35AF DUP15 DUP3 DUP16 ADD PUSH2 0x33E4 JUMP JUMPDEST SWAP3 POP POP PUSH2 0x140 PUSH2 0x35C1 DUP15 DUP3 DUP16 ADD PUSH2 0x343C JUMP JUMPDEST SWAP2 POP POP SWAP3 SWAP6 SWAP9 SWAP12 POP SWAP3 SWAP6 SWAP9 SWAP12 SWAP1 SWAP4 SWAP7 SWAP10 POP JUMP JUMPDEST PUSH1 0x0 DUP1 PUSH1 0x40 DUP4 DUP6 SUB SLT ISZERO PUSH2 0x35EB JUMPI PUSH2 0x35EA PUSH2 0x45AC JUMP JUMPDEST JUMPDEST PUSH1 0x0 PUSH2 0x35F9 DUP6 DUP3 DUP7 ADD PUSH2 0x3373 JUMP JUMPDEST SWAP3 POP POP PUSH1 0x20 PUSH2 0x360A DUP6 DUP3 DUP7 ADD PUSH2 0x343C JUMP JUMPDEST SWAP2 POP POP SWAP3 POP SWAP3 SWAP1 POP JUMP JUMPDEST PUSH1 0x0 PUSH1 0x20 DUP3 DUP5 SUB SLT ISZERO PUSH2 0x362A JUMPI PUSH2 0x3629 PUSH2 0x45AC JUMP JUMPDEST JUMPDEST PUSH1 0x0 DUP3 ADD CALLDATALOAD PUSH8 0xFFFFFFFFFFFFFFFF DUP2 GT ISZERO PUSH2 0x3648 JUMPI PUSH2 0x3647 PUSH2 0x45A7 JUMP JUMPDEST JUMPDEST PUSH2 0x3654 DUP5 DUP3 DUP6 ADD PUSH2 0x3388 JUMP JUMPDEST SWAP2 POP POP SWAP3 SWAP2 POP POP JUMP JUMPDEST PUSH1 0x0 PUSH1 0x20 DUP3 DUP5 SUB SLT ISZERO PUSH2 0x3673 JUMPI PUSH2 0x3672 PUSH2 0x45AC JUMP JUMPDEST JUMPDEST PUSH1 0x0 PUSH2 0x3681 DUP5 DUP3 DUP6 ADD PUSH2 0x33F9 JUMP JUMPDEST SWAP2 POP POP SWAP3 SWAP2 POP POP JUMP JUMPDEST PUSH1 0x0 PUSH1 0x20 DUP3 DUP5 SUB SLT ISZERO PUSH2 0x36A0 JUMPI PUSH2 0x369F PUSH2 0x45AC JUMP JUMPDEST JUMPDEST PUSH1 0x0 DUP3 ADD CALLDATALOAD PUSH8 0xFFFFFFFFFFFFFFFF DUP2 GT ISZERO PUSH2 0x36BE JUMPI PUSH2 0x36BD PUSH2 0x45A7 JUMP JUMPDEST JUMPDEST PUSH2 0x36CA DUP5 DUP3 DUP6 ADD PUSH2 0x340E JUMP JUMPDEST SWAP2 POP POP SWAP3 SWAP2 POP POP JUMP JUMPDEST PUSH1 0x0 PUSH1 0x20 DUP3 DUP5 SUB SLT ISZERO PUSH2 0x36E9 JUMPI PUSH2 0x36E8 PUSH2 0x45AC JUMP JUMPDEST JUMPDEST PUSH1 0x0 PUSH2 0x36F7 DUP5 DUP3 DUP6 ADD PUSH2 0x343C JUMP JUMPDEST SWAP2 POP POP SWAP3 SWAP2 POP POP JUMP JUMPDEST PUSH1 0x0 PUSH1 0x20 DUP3 DUP5 SUB SLT ISZERO PUSH2 0x3716 JUMPI PUSH2 0x3715 PUSH2 0x45AC JUMP JUMPDEST JUMPDEST PUSH1 0x0 PUSH2 0x3724 DUP5 DUP3 DUP6 ADD PUSH2 0x3451 JUMP JUMPDEST SWAP2 POP POP SWAP3 SWAP2 POP POP JUMP JUMPDEST PUSH2 0x3736 DUP2 PUSH2 0x4343 JUMP JUMPDEST DUP3 MSTORE POP POP JUMP JUMPDEST PUSH2 0x3745 DUP2 PUSH2 0x4355 JUMP JUMPDEST DUP3 MSTORE POP POP JUMP JUMPDEST PUSH1 0x0 PUSH2 0x3756 DUP3 PUSH2 0x41F6 JUMP JUMPDEST PUSH2 0x3760 DUP2 DUP6 PUSH2 0x4201 JUMP JUMPDEST SWAP4 POP PUSH2 0x3770 DUP2 DUP6 PUSH1 0x20 DUP7 ADD PUSH2 0x43CE JUMP JUMPDEST PUSH2 0x3779 DUP2 PUSH2 0x45B1 JUMP JUMPDEST DUP5 ADD SWAP2 POP POP SWAP3 SWAP2 POP POP JUMP JUMPDEST PUSH1 0x0 PUSH2 0x378F DUP3 PUSH2 0x41F6 JUMP JUMPDEST PUSH2 0x3799 DUP2 DUP6 PUSH2 0x4212 JUMP JUMPDEST SWAP4 POP PUSH2 0x37A9 DUP2 DUP6 PUSH1 0x20 DUP7 ADD PUSH2 0x43CE JUMP JUMPDEST DUP1 DUP5 ADD SWAP2 POP POP SWAP3 SWAP2 POP POP JUMP JUMPDEST PUSH2 0x37BE DUP2 PUSH2 0x439B JUMP JUMPDEST DUP3 MSTORE POP POP JUMP JUMPDEST PUSH1 0x0 PUSH2 0x37D1 PUSH1 0x34 DUP4 PUSH2 0x421D JUMP JUMPDEST SWAP2 POP PUSH2 0x37DC DUP3 PUSH2 0x45C2 JUMP JUMPDEST PUSH1 0x40 DUP3 ADD SWAP1 POP SWAP2 SWAP1 POP JUMP JUMPDEST PUSH1 0x0 PUSH2 0x37F4 PUSH1 0x1D DUP4 PUSH2 0x421D JUMP JUMPDEST SWAP2 POP PUSH2 0x37FF DUP3 PUSH2 0x4611 JUMP JUMPDEST PUSH1 0x20 DUP3 ADD SWAP1 POP SWAP2 SWAP1 POP JUMP JUMPDEST PUSH1 0x0 PUSH2 0x3817 PUSH1 0x2E DUP4 PUSH2 0x421D JUMP JUMPDEST SWAP2 POP PUSH2 0x3822 DUP3 PUSH2 0x463A JUMP JUMPDEST PUSH1 0x40 DUP3 ADD SWAP1 POP SWAP2 SWAP1 POP JUMP JUMPDEST PUSH1 0x0 PUSH2 0x383A PUSH1 0x30 DUP4 PUSH2 0x421D JUMP JUMPDEST SWAP2 POP PUSH2 0x3845 DUP3 PUSH2 0x4689 JUMP JUMPDEST PUSH1 0x40 DUP3 ADD SWAP1 POP SWAP2 SWAP1 POP JUMP JUMPDEST PUSH1 0x0 PUSH2 0x385D PUSH1 0x2A DUP4 PUSH2 0x421D JUMP JUMPDEST SWAP2 POP PUSH2 0x3868 DUP3 PUSH2 0x46D8 JUMP JUMPDEST PUSH1 0x40 DUP3 ADD SWAP1 POP SWAP2 SWAP1 POP JUMP JUMPDEST PUSH1 0x0 PUSH2 0x3880 PUSH1 0x42 DUP4 PUSH2 0x421D JUMP JUMPDEST SWAP2 POP PUSH2 0x388B DUP3 PUSH2 0x4727 JUMP JUMPDEST PUSH1 0x60 DUP3 ADD SWAP1 POP SWAP2 SWAP1 POP JUMP JUMPDEST PUSH1 0x0 PUSH2 0x38A3 PUSH1 0x2B DUP4 PUSH2 0x421D JUMP JUMPDEST SWAP2 POP PUSH2 0x38AE DUP3 PUSH2 0x479C JUMP JUMPDEST PUSH1 0x40 DUP3 ADD SWAP1 POP SWAP2 SWAP1 POP JUMP JUMPDEST PUSH1 0x0 PUSH2 0x38C6 PUSH1 0x2D DUP4 PUSH2 0x421D JUMP JUMPDEST SWAP2 POP PUSH2 0x38D1 DUP3 PUSH2 0x47EB JUMP JUMPDEST PUSH1 0x40 DUP3 ADD SWAP1 POP SWAP2 SWAP1 POP JUMP JUMPDEST PUSH1 0x0 PUSH2 0x38E9 PUSH1 0x5E DUP4 PUSH2 0x421D JUMP JUMPDEST SWAP2 POP PUSH2 0x38F4 DUP3 PUSH2 0x483A JUMP JUMPDEST PUSH1 0x60 DUP3 ADD SWAP1 POP SWAP2 SWAP1 POP JUMP JUMPDEST PUSH1 0x0 PUSH2 0x390C PUSH1 0x3B DUP4 PUSH2 0x421D JUMP JUMPDEST SWAP2 POP PUSH2 0x3917 DUP3 PUSH2 0x48AF JUMP JUMPDEST PUSH1 0x40 DUP3 ADD SWAP1 POP SWAP2 SWAP1 POP JUMP JUMPDEST PUSH1 0x0 PUSH2 0x392F PUSH1 0x1F DUP4 PUSH2 0x421D JUMP JUMPDEST SWAP2 POP PUSH2 0x393A DUP3 PUSH2 0x48FE JUMP JUMPDEST PUSH1 0x20 DUP3 ADD SWAP1 POP SWAP2 SWAP1 POP JUMP JUMPDEST PUSH1 0x0 PUSH2 0x3952 PUSH1 0x30 DUP4 PUSH2 0x421D JUMP JUMPDEST SWAP2 POP PUSH2 0x395D DUP3 PUSH2 0x4927 JUMP JUMPDEST PUSH1 0x40 DUP3 ADD SWAP1 POP SWAP2 SWAP1 POP JUMP JUMPDEST PUSH1 0x0 PUSH2 0x3975 PUSH1 0x1A DUP4 PUSH2 0x421D JUMP JUMPDEST SWAP2 POP PUSH2 0x3980 DUP3 PUSH2 0x4976 JUMP JUMPDEST PUSH1 0x20 DUP3 ADD SWAP1 POP SWAP2 SWAP1 POP JUMP JUMPDEST PUSH1 0x0 PUSH2 0x3998 PUSH1 0x3D DUP4 PUSH2 0x421D JUMP JUMPDEST SWAP2 POP PUSH2 0x39A3 DUP3 PUSH2 0x499F JUMP JUMPDEST PUSH1 0x40 DUP3 ADD SWAP1 POP SWAP2 SWAP1 POP JUMP JUMPDEST PUSH1 0x0 PUSH2 0x39BB PUSH1 0x20 DUP4 PUSH2 0x421D JUMP JUMPDEST SWAP2 POP PUSH2 0x39C6 DUP3 PUSH2 0x49EE JUMP JUMPDEST PUSH1 0x20 DUP3 ADD SWAP1 POP SWAP2 SWAP1 POP JUMP JUMPDEST PUSH1 0x0 PUSH2 0x39DE PUSH1 0x16 DUP4 PUSH2 0x421D JUMP JUMPDEST SWAP2 POP PUSH2 0x39E9 DUP3 PUSH2 0x4A17 JUMP JUMPDEST PUSH1 0x20 DUP3 ADD SWAP1 POP SWAP2 SWAP1 POP JUMP JUMPDEST PUSH1 0x0 PUSH2 0x3A01 PUSH1 0x29 DUP4 PUSH2 0x421D JUMP JUMPDEST SWAP2 POP PUSH2 0x3A0C DUP3 PUSH2 0x4A40 JUMP JUMPDEST PUSH1 0x40 DUP3 ADD SWAP1 POP SWAP2 SWAP1 POP JUMP JUMPDEST PUSH1 0x0 PUSH2 0x3A24 PUSH1 0x1C DUP4 PUSH2 0x421D JUMP JUMPDEST SWAP2 POP PUSH2 0x3A2F DUP3 PUSH2 0x4A8F JUMP JUMPDEST PUSH1 0x20 DUP3 ADD SWAP1 POP SWAP2 SWAP1 POP JUMP JUMPDEST PUSH1 0x0 PUSH2 0x3A47 PUSH1 0x1A DUP4 PUSH2 0x421D JUMP JUMPDEST SWAP2 POP PUSH2 0x3A52 DUP3 PUSH2 0x4AB8 JUMP JUMPDEST PUSH1 0x20 DUP3 ADD SWAP1 POP SWAP2 SWAP1 POP JUMP JUMPDEST PUSH1 0x0 PUSH2 0x3A6A PUSH1 0x2D DUP4 PUSH2 0x421D JUMP JUMPDEST SWAP2 POP PUSH2 0x3A75 DUP3 PUSH2 0x4AE1 JUMP JUMPDEST PUSH1 0x40 DUP3 ADD SWAP1 POP SWAP2 SWAP1 POP JUMP JUMPDEST PUSH1 0x0 PUSH2 0x3A8D PUSH1 0x22 DUP4 PUSH2 0x421D JUMP JUMPDEST SWAP2 POP PUSH2 0x3A98 DUP3 PUSH2 0x4B30 JUMP JUMPDEST PUSH1 0x40 DUP3 ADD SWAP1 POP SWAP2 SWAP1 POP JUMP JUMPDEST PUSH1 0x0 PUSH2 0x3AB0 PUSH1 0x1A DUP4 PUSH2 0x421D JUMP JUMPDEST SWAP2 POP PUSH2 0x3ABB DUP3 PUSH2 0x4B7F JUMP JUMPDEST PUSH1 0x20 DUP3 ADD SWAP1 POP SWAP2 SWAP1 POP JUMP JUMPDEST PUSH1 0x0 PUSH2 0x3AD3 PUSH1 0x27 DUP4 PUSH2 0x421D JUMP JUMPDEST SWAP2 POP PUSH2 0x3ADE DUP3 PUSH2 0x4BA8 JUMP JUMPDEST PUSH1 0x40 DUP3 ADD SWAP1 POP SWAP2 SWAP1 POP JUMP JUMPDEST PUSH1 0x0 PUSH2 0x3AF6 PUSH1 0x32 DUP4 PUSH2 0x421D JUMP JUMPDEST SWAP2 POP PUSH2 0x3B01 DUP3 PUSH2 0x4BF7 JUMP JUMPDEST PUSH1 0x40 DUP3 ADD SWAP1 POP SWAP2 SWAP1 POP JUMP JUMPDEST PUSH1 0x0 PUSH2 0x3B19 PUSH1 0x22 DUP4 PUSH2 0x421D JUMP JUMPDEST SWAP2 POP PUSH2 0x3B24 DUP3 PUSH2 0x4C46 JUMP JUMPDEST PUSH1 0x40 DUP3 ADD SWAP1 POP SWAP2 SWAP1 POP JUMP JUMPDEST PUSH1 0x0 PUSH2 0x3B3C PUSH1 0x23 DUP4 PUSH2 0x421D JUMP JUMPDEST SWAP2 POP PUSH2 0x3B47 DUP3 PUSH2 0x4C95 JUMP JUMPDEST PUSH1 0x40 DUP3 ADD SWAP1 POP SWAP2 SWAP1 POP JUMP JUMPDEST PUSH1 0x0 PUSH2 0x3B5F PUSH1 0x19 DUP4 PUSH2 0x421D JUMP JUMPDEST SWAP2 POP PUSH2 0x3B6A DUP3 PUSH2 0x4CE4 JUMP JUMPDEST PUSH1 0x20 DUP3 ADD SWAP1 POP SWAP2 SWAP1 POP JUMP JUMPDEST PUSH1 0x0 PUSH2 0x3B82 PUSH1 0x1D DUP4 PUSH2 0x421D JUMP JUMPDEST SWAP2 POP PUSH2 0x3B8D DUP3 PUSH2 0x4D0D JUMP JUMPDEST PUSH1 0x20 DUP3 ADD SWAP1 POP SWAP2 SWAP1 POP JUMP JUMPDEST PUSH1 0x0 PUSH2 0x3BA5 PUSH1 0x24 DUP4 PUSH2 0x421D JUMP JUMPDEST SWAP2 POP PUSH2 0x3BB0 DUP3 PUSH2 0x4D36 JUMP JUMPDEST PUSH1 0x40 DUP3 ADD SWAP1 POP SWAP2 SWAP1 POP JUMP JUMPDEST PUSH1 0x0 PUSH2 0x3BC8 PUSH1 0x1B DUP4 PUSH2 0x421D JUMP JUMPDEST SWAP2 POP PUSH2 0x3BD3 DUP3 PUSH2 0x4D85 JUMP JUMPDEST PUSH1 0x20 DUP3 ADD SWAP1 POP SWAP2 SWAP1 POP JUMP JUMPDEST PUSH1 0x0 PUSH2 0x3BEB PUSH1 0x19 DUP4 PUSH2 0x421D JUMP JUMPDEST SWAP2 POP PUSH2 0x3BF6 DUP3 PUSH2 0x4DAE JUMP JUMPDEST PUSH1 0x20 DUP3 ADD SWAP1 POP SWAP2 SWAP1 POP JUMP JUMPDEST PUSH2 0x3C0A DUP2 PUSH2 0x4381 JUMP JUMPDEST DUP3 MSTORE POP POP JUMP JUMPDEST PUSH2 0x3C19 DUP2 PUSH2 0x438B JUMP JUMPDEST DUP3 MSTORE POP POP JUMP JUMPDEST PUSH1 0x0 PUSH2 0x3C2B DUP3 DUP5 PUSH2 0x3784 JUMP JUMPDEST SWAP2 POP DUP2 SWAP1 POP SWAP3 SWAP2 POP POP JUMP JUMPDEST PUSH1 0x0 PUSH1 0x20 DUP3 ADD SWAP1 POP PUSH2 0x3C4B PUSH1 0x0 DUP4 ADD DUP5 PUSH2 0x372D JUMP JUMPDEST SWAP3 SWAP2 POP POP JUMP JUMPDEST PUSH1 0x0 PUSH1 0x60 DUP3 ADD SWAP1 POP PUSH2 0x3C66 PUSH1 0x0 DUP4 ADD DUP7 PUSH2 0x372D JUMP JUMPDEST PUSH2 0x3C73 PUSH1 0x20 DUP4 ADD DUP6 PUSH2 0x372D JUMP JUMPDEST PUSH2 0x3C80 PUSH1 0x40 DUP4 ADD DUP5 PUSH2 0x3C01 JUMP JUMPDEST SWAP5 SWAP4 POP POP POP POP JUMP JUMPDEST PUSH1 0x0 PUSH1 0x40 DUP3 ADD SWAP1 POP PUSH2 0x3C9D PUSH1 0x0 DUP4 ADD DUP6 PUSH2 0x372D JUMP JUMPDEST PUSH2 0x3CAA PUSH1 0x20 DUP4 ADD DUP5 PUSH2 0x3C01 JUMP JUMPDEST SWAP4 SWAP3 POP POP POP JUMP JUMPDEST PUSH1 0x0 PUSH1 0x20 DUP3 ADD SWAP1 POP PUSH2 0x3CC6 PUSH1 0x0 DUP4 ADD DUP5 PUSH2 0x373C JUMP JUMPDEST SWAP3 SWAP2 POP POP JUMP JUMPDEST PUSH1 0x0 PUSH1 0x20 DUP3 ADD SWAP1 POP DUP2 DUP2 SUB PUSH1 0x0 DUP4 ADD MSTORE PUSH2 0x3CE6 DUP2 DUP5 PUSH2 0x374B JUMP JUMPDEST SWAP1 POP SWAP3 SWAP2 POP POP JUMP JUMPDEST PUSH1 0x0 PUSH1 0x20 DUP3 ADD SWAP1 POP PUSH2 0x3D03 PUSH1 0x0 DUP4 ADD DUP5 PUSH2 0x37B5 JUMP JUMPDEST SWAP3 SWAP2 POP POP JUMP JUMPDEST PUSH1 0x0 PUSH1 0x20 DUP3 ADD SWAP1 POP DUP2 DUP2 SUB PUSH1 0x0 DUP4 ADD MSTORE PUSH2 0x3D22 DUP2 PUSH2 0x37C4 JUMP JUMPDEST SWAP1 POP SWAP2 SWAP1 POP JUMP JUMPDEST PUSH1 0x0 PUSH1 0x20 DUP3 ADD SWAP1 POP DUP2 DUP2 SUB PUSH1 0x0 DUP4 ADD MSTORE PUSH2 0x3D42 DUP2 PUSH2 0x37E7 JUMP JUMPDEST SWAP1 POP SWAP2 SWAP1 POP JUMP JUMPDEST PUSH1 0x0 PUSH1 0x20 DUP3 ADD SWAP1 POP DUP2 DUP2 SUB PUSH1 0x0 DUP4 ADD MSTORE PUSH2 0x3D62 DUP2 PUSH2 0x380A JUMP JUMPDEST SWAP1 POP SWAP2 SWAP1 POP JUMP JUMPDEST PUSH1 0x0 PUSH1 0x20 DUP3 ADD SWAP1 POP DUP2 DUP2 SUB PUSH1 0x0 DUP4 ADD MSTORE PUSH2 0x3D82 DUP2 PUSH2 0x382D JUMP JUMPDEST SWAP1 POP SWAP2 SWAP1 POP JUMP JUMPDEST PUSH1 0x0 PUSH1 0x20 DUP3 ADD SWAP1 POP DUP2 DUP2 SUB PUSH1 0x0 DUP4 ADD MSTORE PUSH2 0x3DA2 DUP2 PUSH2 0x3850 JUMP JUMPDEST SWAP1 POP SWAP2 SWAP1 POP JUMP JUMPDEST PUSH1 0x0 PUSH1 0x20 DUP3 ADD SWAP1 POP DUP2 DUP2 SUB PUSH1 0x0 DUP4 ADD MSTORE PUSH2 0x3DC2 DUP2 PUSH2 0x3873 JUMP JUMPDEST SWAP1 POP SWAP2 SWAP1 POP JUMP JUMPDEST PUSH1 0x0 PUSH1 0x20 DUP3 ADD SWAP1 POP DUP2 DUP2 SUB PUSH1 0x0 DUP4 ADD MSTORE PUSH2 0x3DE2 DUP2 PUSH2 0x3896 JUMP JUMPDEST SWAP1 POP SWAP2 SWAP1 POP JUMP JUMPDEST PUSH1 0x0 PUSH1 0x20 DUP3 ADD SWAP1 POP DUP2 DUP2 SUB PUSH1 0x0 DUP4 ADD MSTORE PUSH2 0x3E02 DUP2 PUSH2 0x38B9 JUMP JUMPDEST SWAP1 POP SWAP2 SWAP1 POP JUMP JUMPDEST PUSH1 0x0 PUSH1 0x20 DUP3 ADD SWAP1 POP DUP2 DUP2 SUB PUSH1 0x0 DUP4 ADD MSTORE PUSH2 0x3E22 DUP2 PUSH2 0x38DC JUMP JUMPDEST SWAP1 POP SWAP2 SWAP1 POP JUMP JUMPDEST PUSH1 0x0 PUSH1 0x20 DUP3 ADD SWAP1 POP DUP2 DUP2 SUB PUSH1 0x0 DUP4 ADD MSTORE PUSH2 0x3E42 DUP2 PUSH2 0x38FF JUMP JUMPDEST SWAP1 POP SWAP2 SWAP1 POP JUMP JUMPDEST PUSH1 0x0 PUSH1 0x20 DUP3 ADD SWAP1 POP DUP2 DUP2 SUB PUSH1 0x0 DUP4 ADD MSTORE PUSH2 0x3E62 DUP2 PUSH2 0x3922 JUMP JUMPDEST SWAP1 POP SWAP2 SWAP1 POP JUMP JUMPDEST PUSH1 0x0 PUSH1 0x20 DUP3 ADD SWAP1 POP DUP2 DUP2 SUB PUSH1 0x0 DUP4 ADD MSTORE PUSH2 0x3E82 DUP2 PUSH2 0x3945 JUMP JUMPDEST SWAP1 POP SWAP2 SWAP1 POP JUMP JUMPDEST PUSH1 0x0 PUSH1 0x20 DUP3 ADD SWAP1 POP DUP2 DUP2 SUB PUSH1 0x0 DUP4 ADD MSTORE PUSH2 0x3EA2 DUP2 PUSH2 0x3968 JUMP JUMPDEST SWAP1 POP SWAP2 SWAP1 POP JUMP JUMPDEST PUSH1 0x0 PUSH1 0x20 DUP3 ADD SWAP1 POP DUP2 DUP2 SUB PUSH1 0x0 DUP4 ADD MSTORE PUSH2 0x3EC2 DUP2 PUSH2 0x398B JUMP JUMPDEST SWAP1 POP SWAP2 SWAP1 POP JUMP JUMPDEST PUSH1 0x0 PUSH1 0x20 DUP3 ADD SWAP1 POP DUP2 DUP2 SUB PUSH1 0x0 DUP4 ADD MSTORE PUSH2 0x3EE2 DUP2 PUSH2 0x39AE JUMP JUMPDEST SWAP1 POP SWAP2 SWAP1 POP JUMP JUMPDEST PUSH1 0x0 PUSH1 0x20 DUP3 ADD SWAP1 POP DUP2 DUP2 SUB PUSH1 0x0 DUP4 ADD MSTORE PUSH2 0x3F02 DUP2 PUSH2 0x39D1 JUMP JUMPDEST SWAP1 POP SWAP2 SWAP1 POP JUMP JUMPDEST PUSH1 0x0 PUSH1 0x20 DUP3 ADD SWAP1 POP DUP2 DUP2 SUB PUSH1 0x0 DUP4 ADD MSTORE PUSH2 0x3F22 DUP2 PUSH2 0x39F4 JUMP JUMPDEST SWAP1 POP SWAP2 SWAP1 POP JUMP JUMPDEST PUSH1 0x0 PUSH1 0x20 DUP3 ADD SWAP1 POP DUP2 DUP2 SUB PUSH1 0x0 DUP4 ADD MSTORE PUSH2 0x3F42 DUP2 PUSH2 0x3A17 JUMP JUMPDEST SWAP1 POP SWAP2 SWAP1 POP JUMP JUMPDEST PUSH1 0x0 PUSH1 0x20 DUP3 ADD SWAP1 POP DUP2 DUP2 SUB PUSH1 0x0 DUP4 ADD MSTORE PUSH2 0x3F62 DUP2 PUSH2 0x3A3A JUMP JUMPDEST SWAP1 POP SWAP2 SWAP1 POP JUMP JUMPDEST PUSH1 0x0 PUSH1 0x20 DUP3 ADD SWAP1 POP DUP2 DUP2 SUB PUSH1 0x0 DUP4 ADD MSTORE PUSH2 0x3F82 DUP2 PUSH2 0x3A5D JUMP JUMPDEST SWAP1 POP SWAP2 SWAP1 POP JUMP JUMPDEST PUSH1 0x0 PUSH1 0x20 DUP3 ADD SWAP1 POP DUP2 DUP2 SUB PUSH1 0x0 DUP4 ADD MSTORE PUSH2 0x3FA2 DUP2 PUSH2 0x3A80 JUMP JUMPDEST SWAP1 POP SWAP2 SWAP1 POP JUMP JUMPDEST PUSH1 0x0 PUSH1 0x20 DUP3 ADD SWAP1 POP DUP2 DUP2 SUB PUSH1 0x0 DUP4 ADD MSTORE PUSH2 0x3FC2 DUP2 PUSH2 0x3AA3 JUMP JUMPDEST SWAP1 POP SWAP2 SWAP1 POP JUMP JUMPDEST PUSH1 0x0 PUSH1 0x20 DUP3 ADD SWAP1 POP DUP2 DUP2 SUB PUSH1 0x0 DUP4 ADD MSTORE PUSH2 0x3FE2 DUP2 PUSH2 0x3AC6 JUMP JUMPDEST SWAP1 POP SWAP2 SWAP1 POP JUMP JUMPDEST PUSH1 0x0 PUSH1 0x20 DUP3 ADD SWAP1 POP DUP2 DUP2 SUB PUSH1 0x0 DUP4 ADD MSTORE PUSH2 0x4002 DUP2 PUSH2 0x3AE9 JUMP JUMPDEST SWAP1 POP SWAP2 SWAP1 POP JUMP JUMPDEST PUSH1 0x0 PUSH1 0x20 DUP3 ADD SWAP1 POP DUP2 DUP2 SUB PUSH1 0x0 DUP4 ADD MSTORE PUSH2 0x4022 DUP2 PUSH2 0x3B0C JUMP JUMPDEST SWAP1 POP SWAP2 SWAP1 POP JUMP JUMPDEST PUSH1 0x0 PUSH1 0x20 DUP3 ADD SWAP1 POP DUP2 DUP2 SUB PUSH1 0x0 DUP4 ADD MSTORE PUSH2 0x4042 DUP2 PUSH2 0x3B2F JUMP JUMPDEST SWAP1 POP SWAP2 SWAP1 POP JUMP JUMPDEST PUSH1 0x0 PUSH1 0x20 DUP3 ADD SWAP1 POP DUP2 DUP2 SUB PUSH1 0x0 DUP4 ADD MSTORE PUSH2 0x4062 DUP2 PUSH2 0x3B52 JUMP JUMPDEST SWAP1 POP SWAP2 SWAP1 POP JUMP JUMPDEST PUSH1 0x0 PUSH1 0x20 DUP3 ADD SWAP1 POP DUP2 DUP2 SUB PUSH1 0x0 DUP4 ADD MSTORE PUSH2 0x4082 DUP2 PUSH2 0x3B75 JUMP JUMPDEST SWAP1 POP SWAP2 SWAP1 POP JUMP JUMPDEST PUSH1 0x0 PUSH1 0x20 DUP3 ADD SWAP1 POP DUP2 DUP2 SUB PUSH1 0x0 DUP4 ADD MSTORE PUSH2 0x40A2 DUP2 PUSH2 0x3B98 JUMP JUMPDEST SWAP1 POP SWAP2 SWAP1 POP JUMP JUMPDEST PUSH1 0x0 PUSH1 0x20 DUP3 ADD SWAP1 POP DUP2 DUP2 SUB PUSH1 0x0 DUP4 ADD MSTORE PUSH2 0x40C2 DUP2 PUSH2 0x3BBB JUMP JUMPDEST SWAP1 POP SWAP2 SWAP1 POP JUMP JUMPDEST PUSH1 0x0 PUSH1 0x20 DUP3 ADD SWAP1 POP DUP2 DUP2 SUB PUSH1 0x0 DUP4 ADD MSTORE PUSH2 0x40E2 DUP2 PUSH2 0x3BDE JUMP JUMPDEST SWAP1 POP SWAP2 SWAP1 POP JUMP JUMPDEST PUSH1 0x0 PUSH1 0x20 DUP3 ADD SWAP1 POP PUSH2 0x40FE PUSH1 0x0 DUP4 ADD DUP5 PUSH2 0x3C01 JUMP JUMPDEST SWAP3 SWAP2 POP POP JUMP JUMPDEST PUSH1 0x0 PUSH1 0x40 DUP3 ADD SWAP1 POP PUSH2 0x4119 PUSH1 0x0 DUP4 ADD DUP6 PUSH2 0x3C01 JUMP JUMPDEST PUSH2 0x4126 PUSH1 0x20 DUP4 ADD DUP5 PUSH2 0x3C01 JUMP JUMPDEST SWAP4 SWAP3 POP POP POP JUMP JUMPDEST PUSH1 0x0 PUSH1 0x20 DUP3 ADD SWAP1 POP PUSH2 0x4142 PUSH1 0x0 DUP4 ADD DUP5 PUSH2 0x3C10 JUMP JUMPDEST SWAP3 SWAP2 POP POP JUMP JUMPDEST PUSH1 0x0 PUSH2 0x4152 PUSH2 0x4163 JUMP JUMPDEST SWAP1 POP PUSH2 0x415E DUP3 DUP3 PUSH2 0x4433 JUMP JUMPDEST SWAP2 SWAP1 POP JUMP JUMPDEST PUSH1 0x0 PUSH1 0x40 MLOAD SWAP1 POP SWAP1 JUMP JUMPDEST PUSH1 0x0 PUSH8 0xFFFFFFFFFFFFFFFF DUP3 GT ISZERO PUSH2 0x4188 JUMPI PUSH2 0x4187 PUSH2 0x4569 JUMP JUMPDEST JUMPDEST PUSH1 0x20 DUP3 MUL SWAP1 POP PUSH1 0x20 DUP2 ADD SWAP1 POP SWAP2 SWAP1 POP JUMP JUMPDEST PUSH1 0x0 PUSH8 0xFFFFFFFFFFFFFFFF DUP3 GT ISZERO PUSH2 0x41B4 JUMPI PUSH2 0x41B3 PUSH2 0x4569 JUMP JUMPDEST JUMPDEST PUSH1 0x20 DUP3 MUL SWAP1 POP PUSH1 0x20 DUP2 ADD SWAP1 POP SWAP2 SWAP1 POP JUMP JUMPDEST PUSH1 0x0 PUSH8 0xFFFFFFFFFFFFFFFF DUP3 GT ISZERO PUSH2 0x41E0 JUMPI PUSH2 0x41DF PUSH2 0x4569 JUMP JUMPDEST JUMPDEST PUSH2 0x41E9 DUP3 PUSH2 0x45B1 JUMP JUMPDEST SWAP1 POP PUSH1 0x20 DUP2 ADD SWAP1 POP SWAP2 SWAP1 POP JUMP JUMPDEST PUSH1 0x0 DUP2 MLOAD SWAP1 POP SWAP2 SWAP1 POP JUMP JUMPDEST PUSH1 0x0 DUP3 DUP3 MSTORE PUSH1 0x20 DUP3 ADD SWAP1 POP SWAP3 SWAP2 POP POP JUMP JUMPDEST PUSH1 0x0 DUP2 SWAP1 POP SWAP3 SWAP2 POP POP JUMP JUMPDEST PUSH1 0x0 DUP3 DUP3 MSTORE PUSH1 0x20 DUP3 ADD SWAP1 POP SWAP3 SWAP2 POP POP JUMP JUMPDEST PUSH1 0x0 PUSH2 0x4239 DUP3 PUSH2 0x4381 JUMP JUMPDEST SWAP2 POP PUSH2 0x4244 DUP4 PUSH2 0x4381 JUMP JUMPDEST SWAP3 POP DUP3 PUSH32 0xFFFFFFFFFFFFFFFFFFFFFFFFFFFFFFFFFFFFFFFFFFFFFFFFFFFFFFFFFFFFFFFF SUB DUP3 GT ISZERO PUSH2 0x4279 JUMPI PUSH2 0x4278 PUSH2 0x44AD JUMP JUMPDEST JUMPDEST DUP3 DUP3 ADD SWAP1 POP SWAP3 SWAP2 POP POP JUMP JUMPDEST PUSH1 0x0 PUSH2 0x428F DUP3 PUSH2 0x4381 JUMP JUMPDEST SWAP2 POP PUSH2 0x429A DUP4 PUSH2 0x4381 JUMP JUMPDEST SWAP3 POP DUP3 PUSH2 0x42AA JUMPI PUSH2 0x42A9 PUSH2 0x44DC JUMP JUMPDEST JUMPDEST DUP3 DUP3 DIV SWAP1 POP SWAP3 SWAP2 POP POP JUMP JUMPDEST PUSH1 0x0 PUSH2 0x42C0 DUP3 PUSH2 0x4381 JUMP JUMPDEST SWAP2 POP PUSH2 0x42CB DUP4 PUSH2 0x4381 JUMP JUMPDEST SWAP3 POP DUP2 PUSH32 0xFFFFFFFFFFFFFFFFFFFFFFFFFFFFFFFFFFFFFFFFFFFFFFFFFFFFFFFFFFFFFFFF DIV DUP4 GT DUP3 ISZERO ISZERO AND ISZERO PUSH2 0x4304 JUMPI PUSH2 0x4303 PUSH2 0x44AD JUMP JUMPDEST JUMPDEST DUP3 DUP3 MUL SWAP1 POP SWAP3 SWAP2 POP POP JUMP JUMPDEST PUSH1 0x0 PUSH2 0x431A DUP3 PUSH2 0x4381 JUMP JUMPDEST SWAP2 POP PUSH2 0x4325 DUP4 PUSH2 0x4381 JUMP JUMPDEST SWAP3 POP DUP3 DUP3 LT ISZERO PUSH2 0x4338 JUMPI PUSH2 0x4337 PUSH2 0x44AD JUMP JUMPDEST JUMPDEST DUP3 DUP3 SUB SWAP1 POP SWAP3 SWAP2 POP POP JUMP JUMPDEST PUSH1 0x0 PUSH2 0x434E DUP3 PUSH2 0x4361 JUMP JUMPDEST SWAP1 POP SWAP2 SWAP1 POP JUMP JUMPDEST PUSH1 0x0 DUP2 ISZERO ISZERO SWAP1 POP SWAP2 SWAP1 POP JUMP JUMPDEST PUSH1 0x0 PUSH20 0xFFFFFFFFFFFFFFFFFFFFFFFFFFFFFFFFFFFFFFFF DUP3 AND SWAP1 POP SWAP2 SWAP1 POP JUMP JUMPDEST PUSH1 0x0 DUP2 SWAP1 POP SWAP2 SWAP1 POP JUMP JUMPDEST PUSH1 0x0 PUSH4 0xFFFFFFFF DUP3 AND SWAP1 POP SWAP2 SWAP1 POP JUMP JUMPDEST PUSH1 0x0 PUSH2 0x43A6 DUP3 PUSH2 0x43AD JUMP JUMPDEST SWAP1 POP SWAP2 SWAP1 POP JUMP JUMPDEST PUSH1 0x0 PUSH2 0x43B8 DUP3 PUSH2 0x4361 JUMP JUMPDEST SWAP1 POP SWAP2 SWAP1 POP JUMP JUMPDEST DUP3 DUP2 DUP4 CALLDATACOPY PUSH1 0x0 DUP4 DUP4 ADD MSTORE POP POP POP JUMP JUMPDEST PUSH1 0x0 JUMPDEST DUP4 DUP2 LT ISZERO PUSH2 0x43EC JUMPI DUP1 DUP3 ADD MLOAD DUP2 DUP5 ADD MSTORE PUSH1 0x20 DUP2 ADD SWAP1 POP PUSH2 0x43D1 JUMP JUMPDEST DUP4 DUP2 GT ISZERO PUSH2 0x43FB JUMPI PUSH1 0x0 DUP5 DUP5 ADD MSTORE JUMPDEST POP POP POP POP JUMP JUMPDEST PUSH1 0x0 PUSH1 0x2 DUP3 DIV SWAP1 POP PUSH1 0x1 DUP3 AND DUP1 PUSH2 0x4419 JUMPI PUSH1 0x7F DUP3 AND SWAP2 POP JUMPDEST PUSH1 0x20 DUP3 LT DUP2 EQ ISZERO PUSH2 0x442D JUMPI PUSH2 0x442C PUSH2 0x450B JUMP JUMPDEST JUMPDEST POP SWAP2 SWAP1 POP JUMP JUMPDEST PUSH2 0x443C DUP3 PUSH2 0x45B1 JUMP JUMPDEST DUP2 ADD DUP2 DUP2 LT PUSH8 0xFFFFFFFFFFFFFFFF DUP3 GT OR ISZERO PUSH2 0x445B JUMPI PUSH2 0x445A PUSH2 0x4569 JUMP JUMPDEST JUMPDEST DUP1 PUSH1 0x40 MSTORE POP POP POP JUMP JUMPDEST PUSH1 0x0 PUSH2 0x446F DUP3 PUSH2 0x4381 JUMP JUMPDEST SWAP2 POP PUSH32 0xFFFFFFFFFFFFFFFFFFFFFFFFFFFFFFFFFFFFFFFFFFFFFFFFFFFFFFFFFFFFFFFF DUP3 EQ ISZERO PUSH2 0x44A2 JUMPI PUSH2 0x44A1 PUSH2 0x44AD JUMP JUMPDEST JUMPDEST PUSH1 0x1 DUP3 ADD SWAP1 POP SWAP2 SWAP1 POP JUMP JUMPDEST PUSH32 0x4E487B7100000000000000000000000000000000000000000000000000000000 PUSH1 0x0 MSTORE PUSH1 0x11 PUSH1 0x4 MSTORE PUSH1 0x24 PUSH1 0x0 REVERT JUMPDEST PUSH32 0x4E487B7100000000000000000000000000000000000000000000000000000000 PUSH1 0x0 MSTORE PUSH1 0x12 PUSH1 0x4 MSTORE PUSH1 0x24 PUSH1 0x0 REVERT JUMPDEST PUSH32 0x4E487B7100000000000000000000000000000000000000000000000000000000 PUSH1 0x0 MSTORE PUSH1 0x22 PUSH1 0x4 MSTORE PUSH1 0x24 PUSH1 0x0 REVERT JUMPDEST PUSH32 0x4E487B7100000000000000000000000000000000000000000000000000000000 PUSH1 0x0 MSTORE PUSH1 0x32 PUSH1 0x4 MSTORE PUSH1 0x24 PUSH1 0x0 REVERT JUMPDEST PUSH32 0x4E487B7100000000000000000000000000000000000000000000000000000000 PUSH1 0x0 MSTORE PUSH1 0x41 PUSH1 0x4 MSTORE PUSH1 0x24 PUSH1 0x0 REVERT JUMPDEST PUSH1 0x0 DUP1 REVERT JUMPDEST PUSH1 0x0 DUP1 REVERT JUMPDEST PUSH1 0x0 DUP1 REVERT JUMPDEST PUSH1 0x0 DUP1 REVERT JUMPDEST PUSH1 0x0 DUP1 REVERT JUMPDEST PUSH1 0x0 PUSH1 0x1F NOT PUSH1 0x1F DUP4 ADD AND SWAP1 POP SWAP2 SWAP1 POP JUMP JUMPDEST PUSH32 0x536565643A2073686F756C64207472616E73666572207365656420746F6B656E PUSH1 0x0 DUP3 ADD MSTORE PUSH32 0x7320746F20726566756E64207265636569766572000000000000000000000000 PUSH1 0x20 DUP3 ADD MSTORE POP JUMP JUMPDEST PUSH32 0x536565643A206D6178696D756D2066756E64696E672072656163686564000000 PUSH1 0x0 DUP3 ADD MSTORE POP JUMP JUMPDEST PUSH32 0x536565643A20726571756573742069732067726561746572207468616E20636C PUSH1 0x0 DUP3 ADD MSTORE PUSH32 0x61696D61626C6520616D6F756E74000000000000000000000000000000000000 PUSH1 0x20 DUP3 ADD MSTORE POP JUMP JUMPDEST PUSH32 0x53656564466163746F72793A20686172644361702063616E6E6F74206265206C PUSH1 0x0 DUP3 ADD MSTORE PUSH32 0x657373207468616E20736F667443617000000000000000000000000000000000 PUSH1 0x20 DUP3 ADD MSTORE POP JUMP JUMPDEST PUSH32 0x536565643A20616D6F756E74206578636565647320636F6E7472616374207361 PUSH1 0x0 DUP3 ADD MSTORE PUSH32 0x6C65206861726443617000000000000000000000000000000000000000000000 PUSH1 0x20 DUP3 ADD MSTORE POP JUMP JUMPDEST PUSH32 0x536565643A20636F6E74726163742073686F756C64206E6F7420626520696E69 PUSH1 0x0 DUP3 ADD MSTORE PUSH32 0x7469616C697A6564206F722063616C6C65722073686F756C642062652061646D PUSH1 0x20 DUP3 ADD MSTORE PUSH32 0x696E000000000000000000000000000000000000000000000000000000000000 PUSH1 0x40 DUP3 ADD MSTORE POP JUMP JUMPDEST PUSH32 0x536565643A2074686520646973747269627574696F6E20686173206E6F742079 PUSH1 0x0 DUP3 ADD MSTORE PUSH32 0x65742066696E6973686564000000000000000000000000000000000000000000 PUSH1 0x20 DUP3 ADD MSTORE POP JUMP JUMPDEST PUSH32 0x53656564466163746F72793A2073656564546F6B656E2063616E6E6F74206265 PUSH1 0x0 DUP3 ADD MSTORE PUSH32 0x2066756E64696E67546F6B656E00000000000000000000000000000000000000 PUSH1 0x20 DUP3 ADD MSTORE POP JUMP JUMPDEST PUSH32 0x536565643A20726566756E64207365656420746F6B656E73206F6E6C79207768 PUSH1 0x0 DUP3 ADD MSTORE PUSH32 0x656E207365656420646973747269627574696F6E20697320636C6F736564206F PUSH1 0x20 DUP3 ADD MSTORE PUSH32 0x7220616674657220646973747269627574696F6E20656E642074696D652E0000 PUSH1 0x40 DUP3 ADD MSTORE POP JUMP JUMPDEST PUSH32 0x53656564466163746F72793A20656E6454696D652063616E6E6F74206265206C PUSH1 0x0 DUP3 ADD MSTORE PUSH32 0x657373207468616E20657175616C20746F20737461727454696D650000000000 PUSH1 0x20 DUP3 ADD MSTORE POP JUMP JUMPDEST PUSH32 0x536565643A20616D6F756E745665737465645065725365636F6E64203E203000 PUSH1 0x0 DUP3 ADD MSTORE POP JUMP JUMPDEST PUSH32 0x536565643A2063616E6E6F742072657475726E2066756E64696E6720746F6B65 PUSH1 0x0 DUP3 ADD MSTORE PUSH32 0x6E7320746F206D73672E73656E64657200000000000000000000000000000000 PUSH1 0x20 DUP3 ADD MSTORE POP JUMP JUMPDEST PUSH32 0x536565643A2073656E64657220686173206E6F20726967687473000000000000 PUSH1 0x0 DUP3 ADD MSTORE POP JUMP JUMPDEST PUSH32 0x53656564466163746F72793A2076657374696E674475726174696F6E2063616E PUSH1 0x0 DUP3 ADD MSTORE PUSH32 0x6E6F74206265206C657373207468616E2076657374696E67436C696666000000 PUSH1 0x20 DUP3 ADD MSTORE POP JUMP JUMPDEST PUSH32 0x536565643A207365656420746F6B656E207472616E73666572206661696C6564 PUSH1 0x0 DUP3 ADD MSTORE POP JUMP JUMPDEST PUSH32 0x536565643A2073686F756C642062652070617573656400000000000000000000 PUSH1 0x0 DUP3 ADD MSTORE POP JUMP JUMPDEST PUSH32 0x536565643A207365656420646973747269627574696F6E20776F756C64206265 PUSH1 0x0 DUP3 ADD MSTORE PUSH32 0x2065786365656465640000000000000000000000000000000000000000000000 PUSH1 0x20 DUP3 ADD MSTORE POP JUMP JUMPDEST PUSH32 0x536565643A2063616C6C65722073686F756C642062652061646D696E00000000 PUSH1 0x0 DUP3 ADD MSTORE POP JUMP JUMPDEST PUSH32 0x536565643A2073686F756C64206E6F7420626520636C6F736564000000000000 PUSH1 0x0 DUP3 ADD MSTORE POP JUMP JUMPDEST PUSH32 0x536565643A206F6E6C7920616C6C6F77656420647572696E6720646973747269 PUSH1 0x0 DUP3 ADD MSTORE PUSH32 0x627574696F6E20706572696F6400000000000000000000000000000000000000 PUSH1 0x20 DUP3 ADD MSTORE POP JUMP JUMPDEST PUSH32 0x536565643A20636F6E747261637420616C726561647920696E697469616C697A PUSH1 0x0 DUP3 ADD MSTORE PUSH32 0x6564000000000000000000000000000000000000000000000000000000000000 PUSH1 0x20 DUP3 ADD MSTORE POP JUMP JUMPDEST PUSH32 0x536565643A2073686F756C64206E6F7420626520706175736564000000000000 PUSH1 0x0 DUP3 ADD MSTORE POP JUMP JUMPDEST PUSH32 0x536565643A2066756E64696E6720746F6B656E207472616E7366657246726F6D PUSH1 0x0 DUP3 ADD MSTORE PUSH32 0x206661696C656400000000000000000000000000000000000000000000000000 PUSH1 0x20 DUP3 ADD MSTORE POP JUMP JUMPDEST PUSH32 0x536565643A2063616E6E6F7420636C6F7365206166746572206D696E696D756D PUSH1 0x0 DUP3 ADD MSTORE PUSH32 0x2074617267657420697320726561636865640000000000000000000000000000 PUSH1 0x20 DUP3 ADD MSTORE POP JUMP JUMPDEST PUSH32 0x536565643A20646973747269627574696F6E20686176656E2774207374617274 PUSH1 0x0 DUP3 ADD MSTORE PUSH32 0x6564000000000000000000000000000000000000000000000000000000000000 PUSH1 0x20 DUP3 ADD MSTORE POP JUMP JUMPDEST PUSH32 0x536565643A2073756666696369656E74207365656473206E6F742070726F7669 PUSH1 0x0 DUP3 ADD MSTORE PUSH32 0x6465640000000000000000000000000000000000000000000000000000000000 PUSH1 0x20 DUP3 ADD MSTORE POP JUMP JUMPDEST PUSH32 0x536565643A206D696E696D756D20616C7265616479206D657400000000000000 PUSH1 0x0 DUP3 ADD MSTORE POP JUMP JUMPDEST PUSH32 0x536565643A2073656564206973206E6F742077686974656C6973746564000000 PUSH1 0x0 DUP3 ADD MSTORE POP JUMP JUMPDEST PUSH32 0x536565643A206D696E696D756D2066756E64696E6720616D6F756E74206E6F74 PUSH1 0x0 DUP3 ADD MSTORE PUSH32 0x206D657400000000000000000000000000000000000000000000000000000000 PUSH1 0x20 DUP3 ADD MSTORE POP JUMP JUMPDEST PUSH32 0x536565643A20616D6F756E7420636C61696D61626C6520697320300000000000 PUSH1 0x0 DUP3 ADD MSTORE POP JUMP JUMPDEST PUSH32 0x536565643A207A65726F2066756E64696E6720616D6F756E7400000000000000 PUSH1 0x0 DUP3 ADD MSTORE POP JUMP JUMPDEST PUSH2 0x4DE0 DUP2 PUSH2 0x4343 JUMP JUMPDEST DUP2 EQ PUSH2 0x4DEB JUMPI PUSH1 0x0 DUP1 REVERT JUMPDEST POP JUMP JUMPDEST PUSH2 0x4DF7 DUP2 PUSH2 0x4355 JUMP JUMPDEST DUP2 EQ PUSH2 0x4E02 JUMPI PUSH1 0x0 DUP1 REVERT JUMPDEST POP JUMP JUMPDEST PUSH2 0x4E0E DUP2 PUSH2 0x4381 JUMP JUMPDEST DUP2 EQ PUSH2 0x4E19 JUMPI PUSH1 0x0 DUP1 REVERT JUMPDEST POP JUMP JUMPDEST PUSH2 0x4E25 DUP2 PUSH2 0x438B JUMP JUMPDEST DUP2 EQ PUSH2 0x4E30 JUMPI PUSH1 0x0 DUP1 REVERT JUMPDEST POP JUMP INVALID LOG2 PUSH5 0x6970667358 0x22 SLT KECCAK256 RETURN 0xEB LOG3 SWAP8 0x4F SLOAD PUSH11 0x6438B682B37DE201CE433F 0x21 0x2E 0xB0 CREATE 0x23 CALLDATASIZE 0xAA 0xCE SWAP12 EQ DUP8 LOG1 0x5E DUP1 PUSH5 0x736F6C6343 STOP ADDMOD MOD STOP CALLER "
        },
        "gasEstimates": {
          "creation": {
            "codeDepositCost": "4014600",
            "executionCost": "4589",
            "totalCost": "4019189"
          },
          "external": {
            "admin()": "2602",
            "beneficiary()": "2601",
            "buy(uint256)": "infinite",
            "calculateClaim(address)": "infinite",
            "claim(address,uint256)": "infinite",
            "close()": "57556",
            "closed()": "2627",
            "endTime()": "2497",
            "fee()": "2562",
            "feeAmountRequired()": "2496",
            "feeClaimed()": "infinite",
            "feeClaimedForFunder(address)": "infinite",
            "feeForFunder(address)": "infinite",
            "feeRemainder()": "2584",
            "funders(address)": "infinite",
            "fundingCollected()": "2586",
            "fundingToken()": "2690",
            "fundingWithdrawn()": "2497",
            "hardCap()": "2539",
            "initialize(address,address,address[],uint256[],uint256,uint256,uint256,uint32,uint32,bool,uint256)": "infinite",
            "initialized()": "2656",
            "isFunded()": "2567",
            "maximumReached()": "2612",
            "metadata()": "infinite",
            "minimumReached()": "2676",
            "pause()": "31083",
            "paused()": "2566",
            "permissionedSeed()": "2627",
            "price()": "2496",
            "refundSeedTokens(address)": "infinite",
            "retrieveFundingTokens()": "infinite",
            "seedAmountForFunder(address)": "infinite",
            "seedAmountRequired()": "2474",
            "seedClaimed()": "2563",
            "seedRemainder()": "2498",
            "seedToken()": "2650",
            "softCap()": "2563",
            "startTime()": "2584",
            "totalFunderCount()": "2518",
            "unpause()": "31072",
            "unwhitelist(address)": "31465",
            "updateMetadata(bytes)": "infinite",
            "vestingCliff()": "2587",
            "vestingDuration()": "2634",
            "vestingStartTime()": "2518",
            "whitelist(address)": "31354",
            "whitelistBatch(address[])": "infinite",
            "whitelisted(address)": "2912",
            "withdraw()": "infinite"
          },
          "internal": {
            "_addFunder(address,uint256)": "infinite"
          }
        },
        "methodIdentifiers": {
          "admin()": "f851a440",
          "beneficiary()": "38af3eed",
          "buy(uint256)": "d96a094a",
          "calculateClaim(address)": "ea345540",
          "claim(address,uint256)": "aad3ec96",
          "close()": "43d726d6",
          "closed()": "597e1fb5",
          "endTime()": "3197cbb6",
          "fee()": "ddca3f43",
          "feeAmountRequired()": "e6e36ebb",
          "feeClaimed()": "71f4b8e8",
          "feeClaimedForFunder(address)": "430e99a4",
          "feeForFunder(address)": "5d85ac0d",
          "feeRemainder()": "b774682f",
          "funders(address)": "031b3677",
          "fundingCollected()": "1cfe562e",
          "fundingToken()": "78065f27",
          "fundingWithdrawn()": "83d59e00",
          "hardCap()": "fb86a404",
          "initialize(address,address,address[],uint256[],uint256,uint256,uint256,uint32,uint32,bool,uint256)": "44f9abb8",
          "initialized()": "158ef93e",
          "isFunded()": "7c654303",
          "maximumReached()": "117a36d1",
          "metadata()": "392f37e9",
          "minimumReached()": "e565eb4c",
          "pause()": "8456cb59",
          "paused()": "5c975abb",
          "permissionedSeed()": "3dba9e41",
          "price()": "a035b1fe",
          "refundSeedTokens(address)": "af20bab8",
          "retrieveFundingTokens()": "8a2448aa",
          "seedAmountForFunder(address)": "dc4b9e38",
          "seedAmountRequired()": "bc0f5f84",
          "seedClaimed()": "47d02f1b",
          "seedRemainder()": "0826d2c7",
          "seedToken()": "311f8483",
          "softCap()": "906a26e0",
          "startTime()": "78e97925",
          "totalFunderCount()": "5e9777e8",
          "unpause()": "3f4ba83a",
          "unwhitelist(address)": "9a590427",
          "updateMetadata(bytes)": "fc582d41",
          "vestingCliff()": "f3640e74",
          "vestingDuration()": "1514617e",
          "vestingStartTime()": "a8660a78",
          "whitelist(address)": "9b19251a",
          "whitelistBatch(address[])": "eaa53523",
          "whitelisted(address)": "d936547e",
          "withdraw()": "3ccfd60b"
        }
      },
      "storageLayout": {
        "storage": [
          {
            "astId": 5,
            "contract": "contracts/seed/Seed.sol:Seed",
            "label": "beneficiary",
            "offset": 0,
            "slot": "0",
            "type": "t_address"
          },
          {
            "astId": 7,
            "contract": "contracts/seed/Seed.sol:Seed",
            "label": "admin",
            "offset": 0,
            "slot": "1",
            "type": "t_address"
          },
          {
            "astId": 9,
            "contract": "contracts/seed/Seed.sol:Seed",
            "label": "softCap",
            "offset": 0,
            "slot": "2",
            "type": "t_uint256"
          },
          {
            "astId": 11,
            "contract": "contracts/seed/Seed.sol:Seed",
            "label": "hardCap",
            "offset": 0,
            "slot": "3",
            "type": "t_uint256"
          },
          {
            "astId": 13,
            "contract": "contracts/seed/Seed.sol:Seed",
            "label": "seedAmountRequired",
            "offset": 0,
            "slot": "4",
            "type": "t_uint256"
          },
          {
            "astId": 15,
            "contract": "contracts/seed/Seed.sol:Seed",
            "label": "feeAmountRequired",
            "offset": 0,
            "slot": "5",
            "type": "t_uint256"
          },
          {
            "astId": 17,
            "contract": "contracts/seed/Seed.sol:Seed",
            "label": "price",
            "offset": 0,
            "slot": "6",
            "type": "t_uint256"
          },
          {
            "astId": 19,
            "contract": "contracts/seed/Seed.sol:Seed",
            "label": "startTime",
            "offset": 0,
            "slot": "7",
            "type": "t_uint256"
          },
          {
            "astId": 21,
            "contract": "contracts/seed/Seed.sol:Seed",
            "label": "endTime",
            "offset": 0,
            "slot": "8",
            "type": "t_uint256"
          },
          {
            "astId": 23,
            "contract": "contracts/seed/Seed.sol:Seed",
            "label": "permissionedSeed",
            "offset": 0,
            "slot": "9",
            "type": "t_bool"
          },
          {
            "astId": 25,
            "contract": "contracts/seed/Seed.sol:Seed",
            "label": "vestingDuration",
            "offset": 1,
            "slot": "9",
            "type": "t_uint32"
          },
          {
            "astId": 27,
            "contract": "contracts/seed/Seed.sol:Seed",
            "label": "vestingCliff",
            "offset": 5,
            "slot": "9",
            "type": "t_uint32"
          },
          {
            "astId": 30,
            "contract": "contracts/seed/Seed.sol:Seed",
            "label": "seedToken",
            "offset": 9,
            "slot": "9",
            "type": "t_contract(IERC20)1532"
          },
          {
            "astId": 33,
            "contract": "contracts/seed/Seed.sol:Seed",
            "label": "fundingToken",
            "offset": 0,
            "slot": "10",
            "type": "t_contract(IERC20)1532"
          },
          {
            "astId": 35,
            "contract": "contracts/seed/Seed.sol:Seed",
            "label": "fee",
            "offset": 0,
            "slot": "11",
            "type": "t_uint256"
          },
          {
            "astId": 37,
            "contract": "contracts/seed/Seed.sol:Seed",
            "label": "metadata",
            "offset": 0,
            "slot": "12",
            "type": "t_bytes_storage"
          },
          {
            "astId": 44,
            "contract": "contracts/seed/Seed.sol:Seed",
            "label": "closed",
            "offset": 0,
            "slot": "13",
            "type": "t_bool"
          },
          {
            "astId": 46,
            "contract": "contracts/seed/Seed.sol:Seed",
            "label": "paused",
            "offset": 1,
            "slot": "13",
            "type": "t_bool"
          },
          {
            "astId": 48,
            "contract": "contracts/seed/Seed.sol:Seed",
            "label": "isFunded",
            "offset": 2,
            "slot": "13",
            "type": "t_bool"
          },
          {
            "astId": 50,
            "contract": "contracts/seed/Seed.sol:Seed",
            "label": "initialized",
            "offset": 3,
            "slot": "13",
            "type": "t_bool"
          },
          {
            "astId": 52,
            "contract": "contracts/seed/Seed.sol:Seed",
            "label": "minimumReached",
            "offset": 4,
            "slot": "13",
            "type": "t_bool"
          },
          {
            "astId": 54,
            "contract": "contracts/seed/Seed.sol:Seed",
            "label": "maximumReached",
            "offset": 5,
            "slot": "13",
            "type": "t_bool"
          },
          {
            "astId": 56,
            "contract": "contracts/seed/Seed.sol:Seed",
            "label": "vestingStartTime",
            "offset": 0,
            "slot": "14",
            "type": "t_uint256"
          },
          {
            "astId": 58,
            "contract": "contracts/seed/Seed.sol:Seed",
            "label": "totalFunderCount",
            "offset": 0,
            "slot": "15",
            "type": "t_uint256"
          },
          {
            "astId": 60,
            "contract": "contracts/seed/Seed.sol:Seed",
            "label": "seedRemainder",
            "offset": 0,
            "slot": "16",
            "type": "t_uint256"
          },
          {
            "astId": 62,
            "contract": "contracts/seed/Seed.sol:Seed",
            "label": "seedClaimed",
            "offset": 0,
            "slot": "17",
            "type": "t_uint256"
          },
          {
            "astId": 64,
            "contract": "contracts/seed/Seed.sol:Seed",
            "label": "feeRemainder",
            "offset": 0,
            "slot": "18",
            "type": "t_uint256"
          },
          {
            "astId": 66,
            "contract": "contracts/seed/Seed.sol:Seed",
            "label": "fundingCollected",
            "offset": 0,
            "slot": "19",
            "type": "t_uint256"
          },
          {
            "astId": 68,
            "contract": "contracts/seed/Seed.sol:Seed",
            "label": "fundingWithdrawn",
            "offset": 0,
            "slot": "20",
            "type": "t_uint256"
          },
          {
            "astId": 72,
            "contract": "contracts/seed/Seed.sol:Seed",
            "label": "whitelisted",
            "offset": 0,
            "slot": "21",
            "type": "t_mapping(t_address,t_bool)"
          },
          {
            "astId": 77,
            "contract": "contracts/seed/Seed.sol:Seed",
            "label": "funders",
            "offset": 0,
            "slot": "22",
            "type": "t_mapping(t_address,t_struct(FunderPortfolio)108_storage)"
          }
        ],
        "types": {
          "t_address": {
            "encoding": "inplace",
            "label": "address",
            "numberOfBytes": "20"
          },
          "t_bool": {
            "encoding": "inplace",
            "label": "bool",
            "numberOfBytes": "1"
          },
          "t_bytes_storage": {
            "encoding": "bytes",
            "label": "bytes",
            "numberOfBytes": "32"
          },
          "t_contract(IERC20)1532": {
            "encoding": "inplace",
            "label": "contract IERC20",
            "numberOfBytes": "20"
          },
          "t_mapping(t_address,t_bool)": {
            "encoding": "mapping",
            "key": "t_address",
            "label": "mapping(address => bool)",
            "numberOfBytes": "32",
            "value": "t_bool"
          },
          "t_mapping(t_address,t_struct(FunderPortfolio)108_storage)": {
            "encoding": "mapping",
            "key": "t_address",
            "label": "mapping(address => struct Seed.FunderPortfolio)",
            "numberOfBytes": "32",
            "value": "t_struct(FunderPortfolio)108_storage"
          },
          "t_struct(FunderPortfolio)108_storage": {
            "encoding": "inplace",
            "label": "struct Seed.FunderPortfolio",
            "members": [
              {
                "astId": 105,
                "contract": "contracts/seed/Seed.sol:Seed",
                "label": "totalClaimed",
                "offset": 0,
                "slot": "0",
                "type": "t_uint256"
              },
              {
                "astId": 107,
                "contract": "contracts/seed/Seed.sol:Seed",
                "label": "fundingAmount",
                "offset": 0,
                "slot": "1",
                "type": "t_uint256"
              }
            ],
            "numberOfBytes": "64"
          },
          "t_uint256": {
            "encoding": "inplace",
            "label": "uint256",
            "numberOfBytes": "32"
          },
          "t_uint32": {
            "encoding": "inplace",
            "label": "uint32",
            "numberOfBytes": "4"
          }
        }
      },
      "userdoc": {
        "kind": "user",
        "methods": {},
        "version": 1
      }
    }
  }
}