{
  "_format": "hh-sol-artifact-1",
  "contractName": "Enum",
  "sourceName": "contracts/utils/interface/Safe.sol",
  "abi": [
    {
      "inputs": [
        {
          "internalType": "bytes32",
          "name": "c__0x558c51d6",
          "type": "bytes32"
        }
      ],
      "name": "c_0x558c51d6",
      "outputs": [],
      "stateMutability": "pure",
      "type": "function"
    }
  ],
  "bytecode": "0x608060405234801561001057600080fd5b5060dc8061001f6000396000f3fe6080604052348015600f57600080fd5b506004361060285760003560e01c80632eeec10514602d575b600080fd5b60436004803603810190603f9190605b565b6045565b005b50565b6000813590506055816092565b92915050565b600060208284031215606e57606d608d565b5b6000607a848285016048565b91505092915050565b6000819050919050565b600080fd5b6099816083565b811460a357600080fd5b5056fea2646970667358221220c8136731e9115cd3e8d1846e969fb3375af703b302da496945f5b5e5f486a87764736f6c63430008060033",
  "linkReferences": {},
  "deployedLinkReferences": {}
}