{
  "_format": "hh-sol-artifact-1",
  "contractName": "StorageAccessible",
  "sourceName": "contracts/gnosis/common/StorageAccessible.sol",
  "abi": [
    {
      "inputs": [
        {
          "internalType": "uint256",
          "name": "offset",
          "type": "uint256"
        },
        {
          "internalType": "uint256",
          "name": "length",
          "type": "uint256"
        }
      ],
      "name": "getStorageAt",
      "outputs": [
        {
          "internalType": "bytes",
          "name": "",
          "type": "bytes"
        }
      ],
      "stateMutability": "view",
      "type": "function"
    },
    {
      "inputs": [
        {
          "internalType": "address",
          "name": "targetContract",
          "type": "address"
        },
        {
          "internalType": "bytes",
          "name": "calldataPayload",
          "type": "bytes"
        }
      ],
      "name": "simulateAndRevert",
      "outputs": [],
      "stateMutability": "nonpayable",
      "type": "function"
    }
  ],
  "bytecode": "0x608060405234801561001057600080fd5b5061057b806100206000396000f3fe608060405234801561001057600080fd5b50600436106100365760003560e01c80635624b25b1461003b578063b4faba091461006b575b600080fd5b6100556004803603810190610050919061024d565b610087565b60405161006291906102c2565b60405180910390f35b610085600480360381019061008091906101f9565b610145565b005b606060006020836100989190610356565b67ffffffffffffffff8111156100d7577f4e487b7100000000000000000000000000000000000000000000000000000000600052604160045260246000fd5b6040519080825280601f01601f1916602001820160405280156101095781602001600182028036833780820191505090505b50905060005b8381101561013a578085015480602083026020850101525080806101329061045f565b91505061010f565b508091505092915050565b600080825160208401855af4806000523d6020523d600060403e60403d016000fd5b600061017a61017584610309565b6102e4565b90508281526020810184848401111561019257600080fd5b61019d8482856103ec565b509392505050565b6000813590506101b481610517565b92915050565b600082601f8301126101cb57600080fd5b81356101db848260208601610167565b91505092915050565b6000813590506101f38161052e565b92915050565b6000806040838503121561020c57600080fd5b600061021a858286016101a5565b925050602083013567ffffffffffffffff81111561023757600080fd5b610243858286016101ba565b9150509250929050565b6000806040838503121561026057600080fd5b600061026e858286016101e4565b925050602061027f858286016101e4565b9150509250929050565b60006102948261033a565b61029e8185610345565b93506102ae8185602086016103fb565b6102b781610506565b840191505092915050565b600060208201905081810360008301526102dc8184610289565b905092915050565b60006102ee6102ff565b90506102fa828261042e565b919050565b6000604051905090565b600067ffffffffffffffff821115610324576103236104d7565b5b61032d82610506565b9050602081019050919050565b600081519050919050565b600082825260208201905092915050565b6000610361826103e2565b915061036c836103e2565b9250817fffffffffffffffffffffffffffffffffffffffffffffffffffffffffffffffff04831182151516156103a5576103a46104a8565b5b828202905092915050565b60006103bb826103c2565b9050919050565b600073ffffffffffffffffffffffffffffffffffffffff82169050919050565b6000819050919050565b82818337600083830152505050565b60005b838110156104195780820151818401526020810190506103fe565b83811115610428576000848401525b50505050565b61043782610506565b810181811067ffffffffffffffff82111715610456576104556104d7565b5b80604052505050565b600061046a826103e2565b91507fffffffffffffffffffffffffffffffffffffffffffffffffffffffffffffffff82141561049d5761049c6104a8565b5b600182019050919050565b7f4e487b7100000000000000000000000000000000000000000000000000000000600052601160045260246000fd5b7f4e487b7100000000000000000000000000000000000000000000000000000000600052604160045260246000fd5b6000601f19601f8301169050919050565b610520816103b0565b811461052b57600080fd5b50565b610537816103e2565b811461054257600080fd5b5056fea2646970667358221220c019ef0afd182cf0d0b7e672285ef9516e0d0c089bd5c9831ede11d52870e52164736f6c63430008040033",
  "linkReferences": {},
  "deployedLinkReferences": {}
}