{
  "_format": "hh-sol-artifact-1",
  "contractName": "DelegateCallTransactionGuard",
  "sourceName": "contracts/gnosis/examples/guards/DelegateCallTransactionGuard.sol",
  "abi": [
    {
      "inputs": [
        {
          "internalType": "address",
          "name": "target",
          "type": "address"
        }
      ],
      "stateMutability": "nonpayable",
      "type": "constructor"
    },
    {
      "stateMutability": "nonpayable",
      "type": "fallback"
    },
    {
      "inputs": [],
      "name": "allowedTarget",
      "outputs": [
        {
          "internalType": "address",
          "name": "",
          "type": "address"
        }
      ],
      "stateMutability": "view",
      "type": "function"
    },
    {
      "inputs": [
        {
          "internalType": "bytes32",
          "name": "",
          "type": "bytes32"
        },
        {
          "internalType": "bool",
          "name": "",
          "type": "bool"
        }
      ],
      "name": "checkAfterExecution",
      "outputs": [],
      "stateMutability": "view",
      "type": "function"
    },
    {
      "inputs": [
        {
          "internalType": "address",
          "name": "to",
          "type": "address"
        },
        {
          "internalType": "uint256",
          "name": "",
          "type": "uint256"
        },
        {
          "internalType": "bytes",
          "name": "",
          "type": "bytes"
        },
        {
          "internalType": "enum Enum.Operation",
          "name": "operation",
          "type": "uint8"
        },
        {
          "internalType": "uint256",
          "name": "",
          "type": "uint256"
        },
        {
          "internalType": "uint256",
          "name": "",
          "type": "uint256"
        },
        {
          "internalType": "uint256",
          "name": "",
          "type": "uint256"
        },
        {
          "internalType": "address",
          "name": "",
          "type": "address"
        },
        {
          "internalType": "address payable",
          "name": "",
          "type": "address"
        },
        {
          "internalType": "bytes",
          "name": "",
          "type": "bytes"
        },
        {
          "internalType": "address",
          "name": "",
          "type": "address"
        }
      ],
      "name": "checkTransaction",
      "outputs": [],
      "stateMutability": "view",
      "type": "function"
    },
    {
      "inputs": [
        {
          "internalType": "bytes4",
          "name": "interfaceId",
          "type": "bytes4"
        }
      ],
      "name": "supportsInterface",
      "outputs": [
        {
          "internalType": "bool",
          "name": "",
          "type": "bool"
        }
      ],
      "stateMutability": "view",
      "type": "function"
    }
  ],
  "bytecode": "0x60a060405234801561001057600080fd5b5060405161098b38038061098b83398181016040528101906100329190610084565b8073ffffffffffffffffffffffffffffffffffffffff1660808173ffffffffffffffffffffffffffffffffffffffff1660601b81525050506100f6565b60008151905061007e816100df565b92915050565b60006020828403121561009657600080fd5b60006100a48482850161006f565b91505092915050565b60006100b8826100bf565b9050919050565b600073ffffffffffffffffffffffffffffffffffffffff82169050919050565b6100e8816100ad565b81146100f357600080fd5b50565b60805160601c61087061011b600039600081816101ad015261024b01526108706000f3fe608060405234801561001057600080fd5b50600436106100505760003560e01c806301ffc9a71461005357806373a8c6821461008357806375f0bb52146100a157806393271368146100bd57610051565b5b005b61006d60048036038101906100689190610540565b6100d9565b60405161007a91906105c5565b60405180910390f35b61008b6101ab565b60405161009891906105aa565b60405180910390f35b6100bb60048036038101906100b691906103e4565b6101cf565b005b6100d760048036038101906100d29190610504565b6102e5565b005b60007fe6d7a83a000000000000000000000000000000000000000000000000000000007bffffffffffffffffffffffffffffffffffffffffffffffffffffffff1916827bffffffffffffffffffffffffffffffffffffffffffffffffffffffff191614806101a457507f01ffc9a7000000000000000000000000000000000000000000000000000000007bffffffffffffffffffffffffffffffffffffffffffffffffffffffff1916827bffffffffffffffffffffffffffffffffffffffffffffffffffffffff1916145b9050919050565b7f000000000000000000000000000000000000000000000000000000000000000081565b600180811115610208577f4e487b7100000000000000000000000000000000000000000000000000000000600052602160045260246000fd5b886001811115610241577f4e487b7100000000000000000000000000000000000000000000000000000000600052602160045260246000fd5b14158061029957507f000000000000000000000000000000000000000000000000000000000000000073ffffffffffffffffffffffffffffffffffffffff168b73ffffffffffffffffffffffffffffffffffffffff16145b6102d8576040517f08c379a00000000000000000000000000000000000000000000000000000000081526004016102cf906105e0565b60405180910390fd5b5050505050505050505050565b5050565b60006102fc6102f784610625565b610600565b90508281526020810184848401111561031457600080fd5b61031f8482856106f7565b509392505050565b600081359050610336816107a0565b92915050565b60008135905061034b816107b7565b92915050565b600081359050610360816107ce565b92915050565b600081359050610375816107e5565b92915050565b60008135905061038a816107fc565b92915050565b600082601f8301126103a157600080fd5b81356103b18482602086016102e9565b91505092915050565b6000813590506103c981610813565b92915050565b6000813590506103de81610823565b92915050565b60008060008060008060008060008060006101608c8e03121561040657600080fd5b60006104148e828f01610327565b9b505060206104258e828f016103cf565b9a505060408c013567ffffffffffffffff81111561044257600080fd5b61044e8e828f01610390565b995050606061045f8e828f016103ba565b98505060806104708e828f016103cf565b97505060a06104818e828f016103cf565b96505060c06104928e828f016103cf565b95505060e06104a38e828f01610327565b9450506101006104b58e828f0161033c565b9350506101208c013567ffffffffffffffff8111156104d357600080fd5b6104df8e828f01610390565b9250506101406104f18e828f01610327565b9150509295989b509295989b9093969950565b6000806040838503121561051757600080fd5b600061052585828601610366565b925050602061053685828601610351565b9150509250929050565b60006020828403121561055257600080fd5b60006105608482850161037b565b91505092915050565b61057281610667565b82525050565b6105818161068b565b82525050565b6000610594601783610656565b915061059f82610777565b602082019050919050565b60006020820190506105bf6000830184610569565b92915050565b60006020820190506105da6000830184610578565b92915050565b600060208201905081810360008301526105f981610587565b9050919050565b600061060a61061b565b90506106168282610706565b919050565b6000604051905090565b600067ffffffffffffffff8211156106405761063f610737565b5b61064982610766565b9050602081019050919050565b600082825260208201905092915050565b6000610672826106cd565b9050919050565b6000610684826106cd565b9050919050565b60008115159050919050565b6000819050919050565b60007fffffffff0000000000000000000000000000000000000000000000000000000082169050919050565b600073ffffffffffffffffffffffffffffffffffffffff82169050919050565b6000819050919050565b82818337600083830152505050565b61070f82610766565b810181811067ffffffffffffffff8211171561072e5761072d610737565b5b80604052505050565b7f4e487b7100000000000000000000000000000000000000000000000000000000600052604160045260246000fd5b6000601f19601f8301169050919050565b7f546869732063616c6c2069732072657374726963746564000000000000000000600082015250565b6107a981610667565b81146107b457600080fd5b50565b6107c081610679565b81146107cb57600080fd5b50565b6107d78161068b565b81146107e257600080fd5b50565b6107ee81610697565b81146107f957600080fd5b50565b610805816106a1565b811461081057600080fd5b50565b6002811061082057600080fd5b50565b61082c816106ed565b811461083757600080fd5b5056fea264697066735822122069ea2c2a9ad7b961f334374aeb93c5e7b18c4cee1c372fce349caff96bac402a64736f6c63430008040033",
  "linkReferences": {},
  "deployedLinkReferences": {}
}