{
  "_format": "hh-sol-artifact-1",
  "contractName": "PrimeToken",
  "sourceName": "contracts/test/PrimeToken.sol",
  "abi": [
    {
      "inputs": [
        {
          "internalType": "uint256",
          "name": "initialSupply",
          "type": "uint256"
        },
        {
          "internalType": "uint256",
          "name": "cap",
          "type": "uint256"
        },
        {
          "internalType": "address",
          "name": "genesisMultisig",
          "type": "address"
        }
      ],
      "stateMutability": "nonpayable",
      "type": "constructor"
    },
    {
      "anonymous": false,
      "inputs": [
        {
          "indexed": true,
          "internalType": "address",
          "name": "owner",
          "type": "address"
        },
        {
          "indexed": true,
          "internalType": "address",
          "name": "spender",
          "type": "address"
        },
        {
          "indexed": false,
          "internalType": "uint256",
          "name": "value",
          "type": "uint256"
        }
      ],
      "name": "Approval",
      "type": "event"
    },
    {
      "anonymous": false,
      "inputs": [
        {
          "indexed": true,
          "internalType": "address",
          "name": "from",
          "type": "address"
        },
        {
          "indexed": true,
          "internalType": "address",
          "name": "to",
          "type": "address"
        },
        {
          "indexed": false,
          "internalType": "uint256",
          "name": "value",
          "type": "uint256"
        }
      ],
      "name": "Transfer",
      "type": "event"
    },
    {
      "inputs": [
        {
          "internalType": "address",
          "name": "owner",
          "type": "address"
        },
        {
          "internalType": "address",
          "name": "spender",
          "type": "address"
        }
      ],
      "name": "allowance",
      "outputs": [
        {
          "internalType": "uint256",
          "name": "",
          "type": "uint256"
        }
      ],
      "stateMutability": "view",
      "type": "function"
    },
    {
      "inputs": [
        {
          "internalType": "address",
          "name": "spender",
          "type": "address"
        },
        {
          "internalType": "uint256",
          "name": "amount",
          "type": "uint256"
        }
      ],
      "name": "approve",
      "outputs": [
        {
          "internalType": "bool",
          "name": "",
          "type": "bool"
        }
      ],
      "stateMutability": "nonpayable",
      "type": "function"
    },
    {
      "inputs": [
        {
          "internalType": "address",
          "name": "account",
          "type": "address"
        }
      ],
      "name": "balanceOf",
      "outputs": [
        {
          "internalType": "uint256",
          "name": "",
          "type": "uint256"
        }
      ],
      "stateMutability": "view",
      "type": "function"
    },
    {
      "inputs": [
        {
          "internalType": "bytes32",
          "name": "c__0xf377de82",
          "type": "bytes32"
        }
      ],
      "name": "c_0xf377de82",
      "outputs": [],
      "stateMutability": "pure",
      "type": "function"
    },
    {
      "inputs": [],
      "name": "cap",
      "outputs": [
        {
          "internalType": "uint256",
          "name": "",
          "type": "uint256"
        }
      ],
      "stateMutability": "view",
      "type": "function"
    },
    {
      "inputs": [],
      "name": "decimals",
      "outputs": [
        {
          "internalType": "uint8",
          "name": "",
          "type": "uint8"
        }
      ],
      "stateMutability": "view",
      "type": "function"
    },
    {
      "inputs": [
        {
          "internalType": "address",
          "name": "spender",
          "type": "address"
        },
        {
          "internalType": "uint256",
          "name": "subtractedValue",
          "type": "uint256"
        }
      ],
      "name": "decreaseAllowance",
      "outputs": [
        {
          "internalType": "bool",
          "name": "",
          "type": "bool"
        }
      ],
      "stateMutability": "nonpayable",
      "type": "function"
    },
    {
      "inputs": [
        {
          "internalType": "address",
          "name": "spender",
          "type": "address"
        },
        {
          "internalType": "uint256",
          "name": "addedValue",
          "type": "uint256"
        }
      ],
      "name": "increaseAllowance",
      "outputs": [
        {
          "internalType": "bool",
          "name": "",
          "type": "bool"
        }
      ],
      "stateMutability": "nonpayable",
      "type": "function"
    },
    {
      "inputs": [],
      "name": "name",
      "outputs": [
        {
          "internalType": "string",
          "name": "",
          "type": "string"
        }
      ],
      "stateMutability": "view",
      "type": "function"
    },
    {
      "inputs": [],
      "name": "symbol",
      "outputs": [
        {
          "internalType": "string",
          "name": "",
          "type": "string"
        }
      ],
      "stateMutability": "view",
      "type": "function"
    },
    {
      "inputs": [],
      "name": "totalSupply",
      "outputs": [
        {
          "internalType": "uint256",
          "name": "",
          "type": "uint256"
        }
      ],
      "stateMutability": "view",
      "type": "function"
    },
    {
      "inputs": [
        {
          "internalType": "address",
          "name": "recipient",
          "type": "address"
        },
        {
          "internalType": "uint256",
          "name": "amount",
          "type": "uint256"
        }
      ],
      "name": "transfer",
      "outputs": [
        {
          "internalType": "bool",
          "name": "",
          "type": "bool"
        }
      ],
      "stateMutability": "nonpayable",
      "type": "function"
    },
    {
      "inputs": [
        {
          "internalType": "address",
          "name": "sender",
          "type": "address"
        },
        {
          "internalType": "address",
          "name": "recipient",
          "type": "address"
        },
        {
          "internalType": "uint256",
          "name": "amount",
          "type": "uint256"
        }
      ],
      "name": "transferFrom",
      "outputs": [
        {
          "internalType": "bool",
          "name": "",
          "type": "bool"
        }
      ],
      "stateMutability": "nonpayable",
      "type": "function"
    }
  ],
  "bytecode": "0x60a06040523480156200001157600080fd5b5060405162001e6838038062001e68833981810160405281019062000037919062000525565b816040518060400160405280600e81526020017f5072696d6544414f20546f6b656e0000000000000000000000000000000000008152506040518060400160405280600581526020017f5052494d450000000000000000000000000000000000000000000000000000008152508160039080519060200190620000bc92919062000447565b508060049080519060200190620000d592919062000447565b505050600081116200011e576040517f08c379a00000000000000000000000000000000000000000000000000000000081526004016200011590620005da565b60405180910390fd5b8060808181525050506200015b7f3e3cf6f0a6c33225fc594401999878515629390b4d23484a2c48b7ee981964be60001b620002c160201b60201c565b6200018f7fb05824e3cd72f543156571b5b88e7230998e520cdc4db0474f6efa74f92a44eb60001b620002c160201b60201c565b620001c37f53060329df0425afacb1b4d92ef9f0b4a392bc212784aeeeb0b619ed01b0094760001b620002c160201b60201c565b620001f77fbaed0f8625c82507e9b4ff9b71f1481b760acfbedea3457188d85ede896251c060001b620002c160201b60201c565b818311156200020557600080fd5b620002397fd333d63c2d2f51f51d84224ba3f47b76d9b89a54331a030a5311617840c2d93360001b620002c160201b60201c565b6200026d7fb32ccb5eba12bc0f5745a6a0ad7020729301ec972e15b460b6b153154674a9f460001b620002c160201b60201c565b620002a17f84e7779a7018a5672abd7808111d9519baca74289d59bb7bd990e9f1ae13689260001b620002c160201b60201c565b620002b88184620002c460201b620007d21760201c565b50505062000801565b50565b600073ffffffffffffffffffffffffffffffffffffffff168273ffffffffffffffffffffffffffffffffffffffff16141562000337576040517f08c379a00000000000000000000000000000000000000000000000000000000081526004016200032e90620005fc565b60405180910390fd5b6200034b600083836200043d60201b60201c565b80600260008282546200035f91906200064c565b92505081905550806000808473ffffffffffffffffffffffffffffffffffffffff1673ffffffffffffffffffffffffffffffffffffffff1681526020019081526020016000206000828254620003b691906200064c565b925050819055508173ffffffffffffffffffffffffffffffffffffffff16600073ffffffffffffffffffffffffffffffffffffffff167fddf252ad1be2c89b69c2b068fc378daa952ba7f163c4a11628f55a4df523b3ef836040516200041d91906200061e565b60405180910390a362000439600083836200044260201b60201c565b5050565b505050565b505050565b8280546200045590620006e7565b90600052602060002090601f016020900481019282620004795760008555620004c5565b82601f106200049457805160ff1916838001178555620004c5565b82800160010185558215620004c5579182015b82811115620004c4578251825591602001919060010190620004a7565b5b509050620004d49190620004d8565b5090565b5b80821115620004f3576000816000905550600101620004d9565b5090565b6000815190506200050881620007cd565b92915050565b6000815190506200051f81620007e7565b92915050565b6000806000606084860312156200053b57600080fd5b60006200054b868287016200050e565b93505060206200055e868287016200050e565b92505060406200057186828701620004f7565b9150509250925092565b60006200058a6015836200063b565b915062000597826200077b565b602082019050919050565b6000620005b1601f836200063b565b9150620005be82620007a4565b602082019050919050565b620005d481620006dd565b82525050565b60006020820190508181036000830152620005f5816200057b565b9050919050565b600060208201905081810360008301526200061781620005a2565b9050919050565b6000602082019050620006356000830184620005c9565b92915050565b600082825260208201905092915050565b60006200065982620006dd565b91506200066683620006dd565b9250827fffffffffffffffffffffffffffffffffffffffffffffffffffffffffffffffff038211156200069e576200069d6200071d565b5b828201905092915050565b6000620006b682620006bd565b9050919050565b600073ffffffffffffffffffffffffffffffffffffffff82169050919050565b6000819050919050565b600060028204905060018216806200070057607f821691505b602082108114156200071757620007166200074c565b5b50919050565b7f4e487b7100000000000000000000000000000000000000000000000000000000600052601160045260246000fd5b7f4e487b7100000000000000000000000000000000000000000000000000000000600052602260045260246000fd5b7f45524332304361707065643a2063617020697320300000000000000000000000600082015250565b7f45524332303a206d696e7420746f20746865207a65726f206164647265737300600082015250565b620007d881620006a9565b8114620007e457600080fd5b50565b620007f281620006dd565b8114620007fe57600080fd5b50565b60805161164b6200081d6000396000610495015261164b6000f3fe608060405234801561001057600080fd5b50600436106100cf5760003560e01c8063395093511161008c57806395d89b411161006657806395d89b4114610228578063a457c2d714610246578063a9059cbb14610276578063dd62ed3e146102a6576100cf565b806339509351146101ac57806370a08231146101dc5780638f45e85e1461020c576100cf565b806306fdde03146100d4578063095ea7b3146100f257806318160ddd1461012257806323b872dd14610140578063313ce56714610170578063355274ea1461018e575b600080fd5b6100dc6102d6565b6040516100e99190611081565b60405180910390f35b61010c60048036038101906101079190610e83565b610368565b6040516101199190611066565b60405180910390f35b61012a610386565b60405161013791906111a3565b60405180910390f35b61015a60048036038101906101559190610e34565b610390565b6040516101679190611066565b60405180910390f35b610178610488565b60405161018591906111be565b60405180910390f35b610196610491565b6040516101a391906111a3565b60405180910390f35b6101c660048036038101906101c19190610e83565b6104b9565b6040516101d39190611066565b60405180910390f35b6101f660048036038101906101f19190610dcf565b610565565b60405161020391906111a3565b60405180910390f35b61022660048036038101906102219190610ebf565b6105ad565b005b6102306105b0565b60405161023d9190611081565b60405180910390f35b610260600480360381019061025b9190610e83565b610642565b60405161026d9190611066565b60405180910390f35b610290600480360381019061028b9190610e83565b61072d565b60405161029d9190611066565b60405180910390f35b6102c060048036038101906102bb9190610df8565b61074b565b6040516102cd91906111a3565b60405180910390f35b6060600380546102e5906112dd565b80601f0160208091040260200160405190810160405280929190818152602001828054610311906112dd565b801561035e5780601f106103335761010080835404028352916020019161035e565b820191906000526020600020905b81548152906001019060200180831161034157829003601f168201915b5050505050905090565b600061037c610375610932565b848461093a565b6001905092915050565b6000600254905090565b600061039d848484610b05565b6000600160008673ffffffffffffffffffffffffffffffffffffffff1673ffffffffffffffffffffffffffffffffffffffff16815260200190815260200160002060006103e8610932565b73ffffffffffffffffffffffffffffffffffffffff1673ffffffffffffffffffffffffffffffffffffffff16815260200190815260200160002054905082811015610468576040517f08c379a000000000000000000000000000000000000000000000000000000000815260040161045f90611103565b60405180910390fd5b61047c85610474610932565b85840361093a565b60019150509392505050565b60006012905090565b60007f0000000000000000000000000000000000000000000000000000000000000000905090565b600061055b6104c6610932565b8484600160006104d4610932565b73ffffffffffffffffffffffffffffffffffffffff1673ffffffffffffffffffffffffffffffffffffffff16815260200190815260200160002060008873ffffffffffffffffffffffffffffffffffffffff1673ffffffffffffffffffffffffffffffffffffffff1681526020019081526020016000205461055691906111f5565b61093a565b6001905092915050565b60008060008373ffffffffffffffffffffffffffffffffffffffff1673ffffffffffffffffffffffffffffffffffffffff168152602001908152602001600020549050919050565b50565b6060600480546105bf906112dd565b80601f01602080910402602001604051908101604052809291908181526020018280546105eb906112dd565b80156106385780601f1061060d57610100808354040283529160200191610638565b820191906000526020600020905b81548152906001019060200180831161061b57829003601f168201915b5050505050905090565b60008060016000610651610932565b73ffffffffffffffffffffffffffffffffffffffff1673ffffffffffffffffffffffffffffffffffffffff16815260200190815260200160002060008573ffffffffffffffffffffffffffffffffffffffff1673ffffffffffffffffffffffffffffffffffffffff1681526020019081526020016000205490508281101561070e576040517f08c379a000000000000000000000000000000000000000000000000000000000815260040161070590611163565b60405180910390fd5b610722610719610932565b8585840361093a565b600191505092915050565b600061074161073a610932565b8484610b05565b6001905092915050565b6000600160008473ffffffffffffffffffffffffffffffffffffffff1673ffffffffffffffffffffffffffffffffffffffff16815260200190815260200160002060008373ffffffffffffffffffffffffffffffffffffffff1673ffffffffffffffffffffffffffffffffffffffff16815260200190815260200160002054905092915050565b600073ffffffffffffffffffffffffffffffffffffffff168273ffffffffffffffffffffffffffffffffffffffff161415610842576040517f08c379a000000000000000000000000000000000000000000000000000000000815260040161083990611183565b60405180910390fd5b61084e60008383610d86565b806002600082825461086091906111f5565b92505081905550806000808473ffffffffffffffffffffffffffffffffffffffff1673ffffffffffffffffffffffffffffffffffffffff16815260200190815260200160002060008282546108b591906111f5565b925050819055508173ffffffffffffffffffffffffffffffffffffffff16600073ffffffffffffffffffffffffffffffffffffffff167fddf252ad1be2c89b69c2b068fc378daa952ba7f163c4a11628f55a4df523b3ef8360405161091a91906111a3565b60405180910390a361092e60008383610d8b565b5050565b600033905090565b600073ffffffffffffffffffffffffffffffffffffffff168373ffffffffffffffffffffffffffffffffffffffff1614156109aa576040517f08c379a00000000000000000000000000000000000000000000000000000000081526004016109a190611143565b60405180910390fd5b600073ffffffffffffffffffffffffffffffffffffffff168273ffffffffffffffffffffffffffffffffffffffff161415610a1a576040517f08c379a0000000000000000000000000000000000000000000000000000000008152600401610a11906110c3565b60405180910390fd5b80600160008573ffffffffffffffffffffffffffffffffffffffff1673ffffffffffffffffffffffffffffffffffffffff16815260200190815260200160002060008473ffffffffffffffffffffffffffffffffffffffff1673ffffffffffffffffffffffffffffffffffffffff168152602001908152602001600020819055508173ffffffffffffffffffffffffffffffffffffffff168373ffffffffffffffffffffffffffffffffffffffff167f8c5be1e5ebec7d5bd14f71427d1e84f3dd0314c0f7b2291e5b200ac8c7c3b92583604051610af891906111a3565b60405180910390a3505050565b600073ffffffffffffffffffffffffffffffffffffffff168373ffffffffffffffffffffffffffffffffffffffff161415610b75576040517f08c379a0000000000000000000000000000000000000000000000000000000008152600401610b6c90611123565b60405180910390fd5b600073ffffffffffffffffffffffffffffffffffffffff168273ffffffffffffffffffffffffffffffffffffffff161415610be5576040517f08c379a0000000000000000000000000000000000000000000000000000000008152600401610bdc906110a3565b60405180910390fd5b610bf0838383610d86565b60008060008573ffffffffffffffffffffffffffffffffffffffff1673ffffffffffffffffffffffffffffffffffffffff16815260200190815260200160002054905081811015610c76576040517f08c379a0000000000000000000000000000000000000000000000000000000008152600401610c6d906110e3565b60405180910390fd5b8181036000808673ffffffffffffffffffffffffffffffffffffffff1673ffffffffffffffffffffffffffffffffffffffff16815260200190815260200160002081905550816000808573ffffffffffffffffffffffffffffffffffffffff1673ffffffffffffffffffffffffffffffffffffffff1681526020019081526020016000206000828254610d0991906111f5565b925050819055508273ffffffffffffffffffffffffffffffffffffffff168473ffffffffffffffffffffffffffffffffffffffff167fddf252ad1be2c89b69c2b068fc378daa952ba7f163c4a11628f55a4df523b3ef84604051610d6d91906111a3565b60405180910390a3610d80848484610d8b565b50505050565b505050565b505050565b600081359050610d9f816115d0565b92915050565b600081359050610db4816115e7565b92915050565b600081359050610dc9816115fe565b92915050565b600060208284031215610de157600080fd5b6000610def84828501610d90565b91505092915050565b60008060408385031215610e0b57600080fd5b6000610e1985828601610d90565b9250506020610e2a85828601610d90565b9150509250929050565b600080600060608486031215610e4957600080fd5b6000610e5786828701610d90565b9350506020610e6886828701610d90565b9250506040610e7986828701610dba565b9150509250925092565b60008060408385031215610e9657600080fd5b6000610ea485828601610d90565b9250506020610eb585828601610dba565b9150509250929050565b600060208284031215610ed157600080fd5b6000610edf84828501610da5565b91505092915050565b610ef18161125d565b82525050565b6000610f02826111d9565b610f0c81856111e4565b9350610f1c8185602086016112aa565b610f258161136d565b840191505092915050565b6000610f3d6023836111e4565b9150610f488261137e565b604082019050919050565b6000610f606022836111e4565b9150610f6b826113cd565b604082019050919050565b6000610f836026836111e4565b9150610f8e8261141c565b604082019050919050565b6000610fa66028836111e4565b9150610fb18261146b565b604082019050919050565b6000610fc96025836111e4565b9150610fd4826114ba565b604082019050919050565b6000610fec6024836111e4565b9150610ff782611509565b604082019050919050565b600061100f6025836111e4565b915061101a82611558565b604082019050919050565b6000611032601f836111e4565b915061103d826115a7565b602082019050919050565b61105181611293565b82525050565b6110608161129d565b82525050565b600060208201905061107b6000830184610ee8565b92915050565b6000602082019050818103600083015261109b8184610ef7565b905092915050565b600060208201905081810360008301526110bc81610f30565b9050919050565b600060208201905081810360008301526110dc81610f53565b9050919050565b600060208201905081810360008301526110fc81610f76565b9050919050565b6000602082019050818103600083015261111c81610f99565b9050919050565b6000602082019050818103600083015261113c81610fbc565b9050919050565b6000602082019050818103600083015261115c81610fdf565b9050919050565b6000602082019050818103600083015261117c81611002565b9050919050565b6000602082019050818103600083015261119c81611025565b9050919050565b60006020820190506111b86000830184611048565b92915050565b60006020820190506111d36000830184611057565b92915050565b600081519050919050565b600082825260208201905092915050565b600061120082611293565b915061120b83611293565b9250827fffffffffffffffffffffffffffffffffffffffffffffffffffffffffffffffff038211156112405761123f61130f565b5b828201905092915050565b600061125682611273565b9050919050565b60008115159050919050565b6000819050919050565b600073ffffffffffffffffffffffffffffffffffffffff82169050919050565b6000819050919050565b600060ff82169050919050565b60005b838110156112c85780820151818401526020810190506112ad565b838111156112d7576000848401525b50505050565b600060028204905060018216806112f557607f821691505b602082108114156113095761130861133e565b5b50919050565b7f4e487b7100000000000000000000000000000000000000000000000000000000600052601160045260246000fd5b7f4e487b7100000000000000000000000000000000000000000000000000000000600052602260045260246000fd5b6000601f19601f8301169050919050565b7f45524332303a207472616e7366657220746f20746865207a65726f206164647260008201527f6573730000000000000000000000000000000000000000000000000000000000602082015250565b7f45524332303a20617070726f766520746f20746865207a65726f20616464726560008201527f7373000000000000000000000000000000000000000000000000000000000000602082015250565b7f45524332303a207472616e7366657220616d6f756e742065786365656473206260008201527f616c616e63650000000000000000000000000000000000000000000000000000602082015250565b7f45524332303a207472616e7366657220616d6f756e742065786365656473206160008201527f6c6c6f77616e6365000000000000000000000000000000000000000000000000602082015250565b7f45524332303a207472616e736665722066726f6d20746865207a65726f20616460008201527f6472657373000000000000000000000000000000000000000000000000000000602082015250565b7f45524332303a20617070726f76652066726f6d20746865207a65726f2061646460008201527f7265737300000000000000000000000000000000000000000000000000000000602082015250565b7f45524332303a2064656372656173656420616c6c6f77616e63652062656c6f7760008201527f207a65726f000000000000000000000000000000000000000000000000000000602082015250565b7f45524332303a206d696e7420746f20746865207a65726f206164647265737300600082015250565b6115d98161124b565b81146115e457600080fd5b50565b6115f081611269565b81146115fb57600080fd5b50565b61160781611293565b811461161257600080fd5b5056fea2646970667358221220603706ed69a9d82355d83c8e985a81c4599b38b4cccca05bf04bc41f527c31ec64736f6c63430008040033",
  "linkReferences": {},
  "deployedLinkReferences": {}
}