{
  "_format": "hh-sol-artifact-1",
  "contractName": "CustomERC20Mock",
  "sourceName": "contracts/test/CustomERC20Mock.sol",
  "abi": [
    {
      "inputs": [
        {
          "internalType": "string",
          "name": "_name",
          "type": "string"
        },
        {
          "internalType": "string",
          "name": "_symbol",
          "type": "string"
        }
      ],
      "stateMutability": "nonpayable",
      "type": "constructor"
    },
    {
      "anonymous": false,
      "inputs": [
        {
          "indexed": true,
          "internalType": "address",
          "name": "owner",
          "type": "address"
        },
        {
          "indexed": true,
          "internalType": "address",
          "name": "spender",
          "type": "address"
        },
        {
          "indexed": false,
          "internalType": "uint256",
          "name": "value",
          "type": "uint256"
        }
      ],
      "name": "Approval",
      "type": "event"
    },
    {
      "anonymous": false,
      "inputs": [
        {
          "indexed": true,
          "internalType": "address",
          "name": "from",
          "type": "address"
        },
        {
          "indexed": true,
          "internalType": "address",
          "name": "to",
          "type": "address"
        },
        {
          "indexed": false,
          "internalType": "uint256",
          "name": "value",
          "type": "uint256"
        }
      ],
      "name": "Transfer",
      "type": "event"
    },
    {
      "inputs": [
        {
          "internalType": "address",
          "name": "owner",
          "type": "address"
        },
        {
          "internalType": "address",
          "name": "spender",
          "type": "address"
        }
      ],
      "name": "allowance",
      "outputs": [
        {
          "internalType": "uint256",
          "name": "",
          "type": "uint256"
        }
      ],
      "stateMutability": "view",
      "type": "function"
    },
    {
      "inputs": [
        {
          "internalType": "address",
          "name": "spender",
          "type": "address"
        },
        {
          "internalType": "uint256",
          "name": "amount",
          "type": "uint256"
        }
      ],
      "name": "approve",
      "outputs": [
        {
          "internalType": "bool",
          "name": "",
          "type": "bool"
        }
      ],
      "stateMutability": "nonpayable",
      "type": "function"
    },
    {
      "inputs": [
        {
          "internalType": "address",
          "name": "account",
          "type": "address"
        }
      ],
      "name": "balanceOf",
      "outputs": [
        {
          "internalType": "uint256",
          "name": "",
          "type": "uint256"
        }
      ],
      "stateMutability": "view",
      "type": "function"
    },
    {
      "inputs": [
        {
          "internalType": "address",
          "name": "account",
          "type": "address"
        }
      ],
      "name": "burn",
      "outputs": [],
      "stateMutability": "nonpayable",
      "type": "function"
    },
    {
      "inputs": [
        {
          "internalType": "bytes32",
          "name": "c__0x8d53a083",
          "type": "bytes32"
        }
      ],
      "name": "c_0x8d53a083",
      "outputs": [],
      "stateMutability": "pure",
      "type": "function"
    },
    {
      "inputs": [],
      "name": "decimals",
      "outputs": [
        {
          "internalType": "uint8",
          "name": "",
          "type": "uint8"
        }
      ],
      "stateMutability": "view",
      "type": "function"
    },
    {
      "inputs": [
        {
          "internalType": "address",
          "name": "spender",
          "type": "address"
        },
        {
          "internalType": "uint256",
          "name": "subtractedValue",
          "type": "uint256"
        }
      ],
      "name": "decreaseAllowance",
      "outputs": [
        {
          "internalType": "bool",
          "name": "",
          "type": "bool"
        }
      ],
      "stateMutability": "nonpayable",
      "type": "function"
    },
    {
      "inputs": [
        {
          "internalType": "address",
          "name": "spender",
          "type": "address"
        },
        {
          "internalType": "uint256",
          "name": "addedValue",
          "type": "uint256"
        }
      ],
      "name": "increaseAllowance",
      "outputs": [
        {
          "internalType": "bool",
          "name": "",
          "type": "bool"
        }
      ],
      "stateMutability": "nonpayable",
      "type": "function"
    },
    {
      "inputs": [],
      "name": "name",
      "outputs": [
        {
          "internalType": "string",
          "name": "",
          "type": "string"
        }
      ],
      "stateMutability": "view",
      "type": "function"
    },
    {
      "inputs": [],
      "name": "symbol",
      "outputs": [
        {
          "internalType": "string",
          "name": "",
          "type": "string"
        }
      ],
      "stateMutability": "view",
      "type": "function"
    },
    {
      "inputs": [],
      "name": "totalSupply",
      "outputs": [
        {
          "internalType": "uint256",
          "name": "",
          "type": "uint256"
        }
      ],
      "stateMutability": "view",
      "type": "function"
    },
    {
      "inputs": [
        {
          "internalType": "address",
          "name": "recipient",
          "type": "address"
        },
        {
          "internalType": "uint256",
          "name": "amount",
          "type": "uint256"
        }
      ],
      "name": "transfer",
      "outputs": [
        {
          "internalType": "bool",
          "name": "",
          "type": "bool"
        }
      ],
      "stateMutability": "nonpayable",
      "type": "function"
    },
    {
      "inputs": [
        {
          "internalType": "address",
          "name": "sender",
          "type": "address"
        },
        {
          "internalType": "address",
          "name": "recipient",
          "type": "address"
        },
        {
          "internalType": "uint256",
          "name": "amount",
          "type": "uint256"
        }
      ],
      "name": "transferFrom",
      "outputs": [
        {
          "internalType": "bool",
          "name": "",
          "type": "bool"
        }
      ],
      "stateMutability": "nonpayable",
      "type": "function"
    }
  ],
  "bytecode": "0x60806040523480156200001157600080fd5b506040516200213c3803806200213c8339818101604052810190620000379190620002a4565b818181600390805190602001906200005192919062000176565b5080600490805190602001906200006a92919062000176565b505050620000a17f8ca5f8382195dda6bb4ff29f7d950beadcdbc2e52450b375d64b6c1de33c931260001b6200017360201b60201c565b620000d57fc5e753c48b64bdfa526096ea493f8cc7ba28fd19a3c79fae0f7992dd5eb17c5160001b6200017360201b60201c565b620001097f723a74543c63a0d0b71ca17c2916ec977d270a5d4d8a9c122c5b3fb20173f3d360001b6200017360201b60201c565b69043c33c1937564800000600560003373ffffffffffffffffffffffffffffffffffffffff1673ffffffffffffffffffffffffffffffffffffffff168152602001908152602001600020600082825462000164919062000388565b92505081905550505062000543565b50565b828054620001849062000425565b90600052602060002090601f016020900481019282620001a85760008555620001f4565b82601f10620001c357805160ff1916838001178555620001f4565b82800160010185558215620001f4579182015b82811115620001f3578251825591602001919060010190620001d6565b5b50905062000203919062000207565b5090565b5b808211156200022257600081600090555060010162000208565b5090565b60006200023d620002378462000352565b62000329565b9050828152602081018484840111156200025c576200025b62000523565b5b62000269848285620003ef565b509392505050565b600082601f8301126200028957620002886200051e565b5b81516200029b84826020860162000226565b91505092915050565b60008060408385031215620002be57620002bd6200052d565b5b600083015167ffffffffffffffff811115620002df57620002de62000528565b5b620002ed8582860162000271565b925050602083015167ffffffffffffffff81111562000311576200031062000528565b5b6200031f8582860162000271565b9150509250929050565b60006200033562000348565b90506200034382826200045b565b919050565b6000604051905090565b600067ffffffffffffffff82111562000370576200036f620004ef565b5b6200037b8262000532565b9050602081019050919050565b60006200039582620003e5565b9150620003a283620003e5565b9250827fffffffffffffffffffffffffffffffffffffffffffffffffffffffffffffffff03821115620003da57620003d962000491565b5b828201905092915050565b6000819050919050565b60005b838110156200040f578082015181840152602081019050620003f2565b838111156200041f576000848401525b50505050565b600060028204905060018216806200043e57607f821691505b60208210811415620004555762000454620004c0565b5b50919050565b620004668262000532565b810181811067ffffffffffffffff82111715620004885762000487620004ef565b5b80604052505050565b7f4e487b7100000000000000000000000000000000000000000000000000000000600052601160045260246000fd5b7f4e487b7100000000000000000000000000000000000000000000000000000000600052602260045260246000fd5b7f4e487b7100000000000000000000000000000000000000000000000000000000600052604160045260246000fd5b600080fd5b600080fd5b600080fd5b600080fd5b6000601f19601f8301169050919050565b611be980620005536000396000f3fe608060405234801561001057600080fd5b50600436106100cf5760003560e01c806370a082311161008c578063a457c2d711610066578063a457c2d714610228578063a9059cbb14610258578063cc3b0b3414610288578063dd62ed3e146102a4576100cf565b806370a08231146101be57806389afcb44146101ee57806395d89b411461020a576100cf565b806306fdde03146100d4578063095ea7b3146100f257806318160ddd1461012257806323b872dd14610140578063313ce56714610170578063395093511461018e575b600080fd5b6100dc6102d4565b6040516100e9919061181f565b60405180910390f35b61010c600480360381019061010791906116c8565b610366565b6040516101199190611804565b60405180910390f35b61012a610460565b60405161013791906118a1565b60405180910390f35b61015a60048036038101906101559190611675565b61046a565b6040516101679190611804565b60405180910390f35b61017861082f565b60405161018591906118bc565b60405180910390f35b6101a860048036038101906101a391906116c8565b610838565b6040516101b59190611804565b60405180910390f35b6101d860048036038101906101d39190611608565b6108e4565b6040516101e591906118a1565b60405180910390f35b61020860048036038101906102039190611608565b6109b1565b005b610212610a7d565b60405161021f919061181f565b60405180910390f35b610242600480360381019061023d91906116c8565b610b0f565b60405161024f9190611804565b60405180910390f35b610272600480360381019061026d91906116c8565b610bfa565b60405161027f9190611804565b60405180910390f35b6102a2600480360381019061029d9190611708565b610cf8565b005b6102be60048036038101906102b99190611635565b610cfb565b6040516102cb91906118a1565b60405180910390f35b6060600380546102e3906119db565b80601f016020809104026020016040519081016040528092919081815260200182805461030f906119db565b801561035c5780601f106103315761010080835404028352916020019161035c565b820191906000526020600020905b81548152906001019060200180831161033f57829003601f168201915b5050505050905090565b60006103947f7ac71eea0e860e272ee00587796ec82900ad1c46ca36e3a49f7f0446c624005f60001b610cf8565b6103c07f83e8d981e43019827d23d91067ead5febf1eb4252b2db641a58553de7fe26da960001b610cf8565b6103ec7f977fe3f723930ba1a2560a37a9e0158469a128756a5344886ed623cece05b2b560001b610cf8565b6103fe6103f7610d82565b8484610d8a565b61042a7f7efe2440d0c0675cf74b0a45d8f4d6f6f95e88e4c878ec84635489ebda88ee9360001b610cf8565b6104567f7c7f401590d97d25f68e81732bdee47d7ae399f310b6a6ba7b4f5ec7055ae13360001b610cf8565b6001905092915050565b6000600254905090565b60006104987fa992e867ccf8f61f899b27a0ef1927fe2682370b8aa3490644210e26ecc8d30760001b610cf8565b6104c47f748c0a0ce18f9b8848bcc0fbbddce8fa25c46ad2449157f8365bd903cbcf338760001b610cf8565b6104f07fc5943c2107310851000a1e5e18f781709d3fd4da1a8d81454d67e561f55140bc60001b610cf8565b6000600660008673ffffffffffffffffffffffffffffffffffffffff1673ffffffffffffffffffffffffffffffffffffffff168152602001908152602001600020600061053b610d82565b73ffffffffffffffffffffffffffffffffffffffff1673ffffffffffffffffffffffffffffffffffffffff1681526020019081526020016000205490506105a47f6bf02eb94b7bd26eb6eccbb4cac7e7ce447b0af16cf035e5b19b39c00d84498060001b610cf8565b6105d07faba131fb66d9f2e52135e4b3494ad280529fbe2a92a3d4beac73917f8aba708160001b610cf8565b8281101561063a576106047f7468f10466176d0c359d691c4eae14cc46ea4a2f3f19eeed2041191f2a3f78af60001b610cf8565b6106307f88316650752657ef28173e24754dc156067eb55258b6b461861aa6ea7c3cfaf860001b610cf8565b6000915050610828565b6106667feef74259fd7571a889c2a66810537b97aba17e67dc664f7591ffb95d1d29134860001b610cf8565b6106927fcb80c95b1c2cf43422247ad99c9348da2a7cac6978c1c99955ea7fede534d8c960001b610cf8565b6106be7fb344fd9b2d959558da11a6c3ff7edba2417126832497f9f2331d07ef4fa63efb60001b610cf8565b60006106cb868686611191565b90506106f97fa3416596eaa721b2c6c8294becec211d854e2bcd87bcfccfee19f536fbf05eb560001b610cf8565b6107257f0216c45114fca9b21e4105fe8f6bc634373841e0af201457536108982e6fcd2d60001b610cf8565b801561079c576107577f6afdc99bc4a9a85607eb4b17c583fed75c80962dbf048fe41f3f9969422c724260001b610cf8565b6107837f0b84daf37259356d3e9eb1761df11c50467d5b11a17f547438868b7eb1d7caba60001b610cf8565b6107978661078f610d82565b868503610d8a565b6107c9565b6107c87f142c67d1787616febd125f36ed2098449c20355b7a670bc651925bfa645a4a6f60001b610cf8565b5b6107f57f27d34f7a87dd06576ac220b221b4d9ea7fe6f2eb698dcd85a732ae6d02afb68260001b610cf8565b6108217f7d3f92bd109c8531b2f2753d299dd407855a9405cdd0d7499cbd11492ae388b760001b610cf8565b6001925050505b9392505050565b60006012905090565b60006108da610845610d82565b848460016000610853610d82565b73ffffffffffffffffffffffffffffffffffffffff1673ffffffffffffffffffffffffffffffffffffffff16815260200190815260200160002060008873ffffffffffffffffffffffffffffffffffffffff1673ffffffffffffffffffffffffffffffffffffffff168152602001908152602001600020546108d591906118f3565b610d8a565b6001905092915050565b60006109127f08d0c6b594bf90602164ca14d07f5a3e4d127734fcd5fbc600f7905c29115dd060001b610cf8565b61093e7ff15d68234b437203172b11581d0971a4f546eae071ce2f5a67bc5d65e155769760001b610cf8565b61096a7ffa6186f524bbc14d6804197e016b34f4552b9eb56621400e07f849e0e5b811ac60001b610cf8565b600560008373ffffffffffffffffffffffffffffffffffffffff1673ffffffffffffffffffffffffffffffffffffffff168152602001908152602001600020549050919050565b6109dd7fd49cf7ddb4c65eeb781fbed953680f23d8040d7b34d63d3b8eb1a4b5f325832b60001b610cf8565b610a097fc1c9aafae4cafed07a52efb3b1cf99fc4a479cdcd720b7a4f2fdd12e623f813760001b610cf8565b610a357fc6d1506c29437a114c69f52d11dfe777e53a867ae71b556d43f1f520ea6f616360001b610cf8565b6000600560008373ffffffffffffffffffffffffffffffffffffffff1673ffffffffffffffffffffffffffffffffffffffff1681526020019081526020016000208190555050565b606060048054610a8c906119db565b80601f0160208091040260200160405190810160405280929190818152602001828054610ab8906119db565b8015610b055780601f10610ada57610100808354040283529160200191610b05565b820191906000526020600020905b815481529060010190602001808311610ae857829003601f168201915b5050505050905090565b60008060016000610b1e610d82565b73ffffffffffffffffffffffffffffffffffffffff1673ffffffffffffffffffffffffffffffffffffffff16815260200190815260200160002060008573ffffffffffffffffffffffffffffffffffffffff1673ffffffffffffffffffffffffffffffffffffffff16815260200190815260200160002054905082811015610bdb576040517f08c379a0000000000000000000000000000000000000000000000000000000008152600401610bd290611881565b60405180910390fd5b610bef610be6610d82565b85858403610d8a565b600191505092915050565b6000610c287f5119152365525e52f7172b437027568636ef2b2e0662585892a74ade47b3028360001b610cf8565b610c547f963fb5af12d9989888432a01c3b157f406bfbf3b9cb4865767d33b9f5a65b8e460001b610cf8565b610c807ff41f2a1749ea84d4c03e3e720588f9f5ec7b8fd0cf235700dbfebaaa7d4fa92760001b610cf8565b6000610c94610c8d610d82565b8585611191565b9050610cc27ff25319b271fedc1117ac08d6360a62f566a034e22ac43a96a3af29ff87e6917260001b610cf8565b610cee7f3755cccfc3a139a57001154250ce8e8f9b3fa49b4e08b364690fa1ff13f3051960001b610cf8565b8091505092915050565b50565b6000600160008473ffffffffffffffffffffffffffffffffffffffff1673ffffffffffffffffffffffffffffffffffffffff16815260200190815260200160002060008373ffffffffffffffffffffffffffffffffffffffff1673ffffffffffffffffffffffffffffffffffffffff16815260200190815260200160002054905092915050565b600033905090565b610db67f477e85f63aa821004ee1d8340ad18750c5ea93d1b03a82d3a6465626671d712160001b610cf8565b610de27fa24834bbab6659c24040fae1c2f53811200c55e38cd1feb0bf77791ecb79432060001b610cf8565b610e0e7f15a4ed1b6a52ffa90dcf712652c4045238b46d7cf16899b4ca41779109e1cf8460001b610cf8565b610e3a7f119135279291dca468ec89c8af3c2ad76b4f2692a4968fc1f507efc049f4ddf460001b610cf8565b600073ffffffffffffffffffffffffffffffffffffffff168373ffffffffffffffffffffffffffffffffffffffff161415610eaa576040517f08c379a0000000000000000000000000000000000000000000000000000000008152600401610ea190611861565b60405180910390fd5b610ed67fe7d542161851ea4575a5e2e3d9496afd391ab1b2897b34b9fb56f02ad3bdb5e460001b610cf8565b610f027faf2e582fc182dee9665a518fbb5778ba8ad11ff83f44956375f7ec2e20e4c0eb60001b610cf8565b610f2e7f032a89c0c38dd9ee682733701e37d85b0ebceb2f3f35556829eecf66b50adb2b60001b610cf8565b610f5a7f4ae88293f4cbcddfb8b8722fe5ab0c4edcd67239b091442d0b34f231604d843860001b610cf8565b600073ffffffffffffffffffffffffffffffffffffffff168273ffffffffffffffffffffffffffffffffffffffff161415610fca576040517f08c379a0000000000000000000000000000000000000000000000000000000008152600401610fc190611841565b60405180910390fd5b610ff67fc1246d3a230e8480d9303599c0302f56e8028af8506a928e40004f6d1291917460001b610cf8565b6110227f9232cf3d1b8190d83837808ef9f7be3597a374c33305e36ad68a6e35aeb5015860001b610cf8565b61104e7fdcc36f14cf5fc906d761538b2879993b12a94691b1d1283a66843a6313b7c16b60001b610cf8565b80600660008573ffffffffffffffffffffffffffffffffffffffff1673ffffffffffffffffffffffffffffffffffffffff16815260200190815260200160002060008473ffffffffffffffffffffffffffffffffffffffff1673ffffffffffffffffffffffffffffffffffffffff168152602001908152602001600020819055506110fb7fdb6f3c0674c37eb339415f50910b54eff4721e17f80c41b4647fbd03433d300760001b610cf8565b6111277f8fc6f12adcdecb8872ceb0f452ff74a6681640eb2e87048d4e64a1c101882cd660001b610cf8565b8173ffffffffffffffffffffffffffffffffffffffff168373ffffffffffffffffffffffffffffffffffffffff167f8c5be1e5ebec7d5bd14f71427d1e84f3dd0314c0f7b2291e5b200ac8c7c3b9258360405161118491906118a1565b60405180910390a3505050565b60006111bf7fc8e705bfd27df8485611835063842063f57d344b0d02a1310e19d9a32474ce3f60001b610cf8565b6111eb7ff435c32fe2036386746775fef031eff4f91ba305ab2e8641023c4243d36cad0b60001b610cf8565b6112177f17a9594b9ed86f7869326f2349073a1991ad721552ffe905a69ee572efe8c74360001b610cf8565b6000600560008673ffffffffffffffffffffffffffffffffffffffff1673ffffffffffffffffffffffffffffffffffffffff1681526020019081526020016000205490506112877fec9b7a8a7f8d336bcb65aa18ad5392bf5c376febc0ea06b54aac6e6f45c0059860001b610cf8565b6112b37f55a35622b08d19f9e0e36b95507b3f50084c9f986e7a78f9c7c48590d20892ad60001b610cf8565b600073ffffffffffffffffffffffffffffffffffffffff168573ffffffffffffffffffffffffffffffffffffffff16148061131a5750600073ffffffffffffffffffffffffffffffffffffffff168473ffffffffffffffffffffffffffffffffffffffff16145b8061132457508281105b156113b7576113557f318ea46afc7bd31803c9b14c5d24e68d094e4a7a7bddc23143ca258d1f1ae7cd60001b610cf8565b6113817f1f812a22d9d03ea9b9433e1b3d6daad905a79e058305056464ee88c3f48d73e560001b610cf8565b6113ad7f017b9c3698419773ab0294b269e808c4f8e1b337ebb940c3aa55386b18160e0c60001b610cf8565b60009150506115c2565b6113e37f4242640f8c084ea90ac47aa4f4dbae2ae60ab820582958f21a7a237bce7f4f5360001b610cf8565b61140f7fea472cb5601e0cce42c3f3ed29b418c395d7d769841cde856c520bbeb57cef6e60001b610cf8565b828103600560008773ffffffffffffffffffffffffffffffffffffffff1673ffffffffffffffffffffffffffffffffffffffff168152602001908152602001600020819055506114817f6590b7061d208690798b221c56fbe6e1151fe7fff93c832403536e356072f61460001b610cf8565b6114ad7fd735b269947fd76f8019c5b8becd21c98466040a045448011837aef7bae3a89160001b610cf8565b82600560008673ffffffffffffffffffffffffffffffffffffffff1673ffffffffffffffffffffffffffffffffffffffff16815260200190815260200160002060008282546114fc91906118f3565b9250508190555061152f7f39145f953efbef7c45c431c5fc211d1a23e145a27f7989f1aa4d9cace75bc33f60001b610cf8565b61155b7fc6a1da7fb8ba2208c20ef834aa4860b29a1b84bab12f3a9dc9f2471a39a088c660001b610cf8565b8373ffffffffffffffffffffffffffffffffffffffff168573ffffffffffffffffffffffffffffffffffffffff167fddf252ad1be2c89b69c2b068fc378daa952ba7f163c4a11628f55a4df523b3ef856040516115b891906118a1565b60405180910390a3505b9392505050565b6000813590506115d881611b6e565b92915050565b6000813590506115ed81611b85565b92915050565b60008135905061160281611b9c565b92915050565b60006020828403121561161e5761161d611a6b565b5b600061162c848285016115c9565b91505092915050565b6000806040838503121561164c5761164b611a6b565b5b600061165a858286016115c9565b925050602061166b858286016115c9565b9150509250929050565b60008060006060848603121561168e5761168d611a6b565b5b600061169c868287016115c9565b93505060206116ad868287016115c9565b92505060406116be868287016115f3565b9150509250925092565b600080604083850312156116df576116de611a6b565b5b60006116ed858286016115c9565b92505060206116fe858286016115f3565b9150509250929050565b60006020828403121561171e5761171d611a6b565b5b600061172c848285016115de565b91505092915050565b61173e8161195b565b82525050565b600061174f826118d7565b61175981856118e2565b93506117698185602086016119a8565b61177281611a70565b840191505092915050565b600061178a6022836118e2565b915061179582611a81565b604082019050919050565b60006117ad6024836118e2565b91506117b882611ad0565b604082019050919050565b60006117d06025836118e2565b91506117db82611b1f565b604082019050919050565b6117ef81611991565b82525050565b6117fe8161199b565b82525050565b60006020820190506118196000830184611735565b92915050565b600060208201905081810360008301526118398184611744565b905092915050565b6000602082019050818103600083015261185a8161177d565b9050919050565b6000602082019050818103600083015261187a816117a0565b9050919050565b6000602082019050818103600083015261189a816117c3565b9050919050565b60006020820190506118b660008301846117e6565b92915050565b60006020820190506118d160008301846117f5565b92915050565b600081519050919050565b600082825260208201905092915050565b60006118fe82611991565b915061190983611991565b9250827fffffffffffffffffffffffffffffffffffffffffffffffffffffffffffffffff0382111561193e5761193d611a0d565b5b828201905092915050565b600061195482611971565b9050919050565b60008115159050919050565b6000819050919050565b600073ffffffffffffffffffffffffffffffffffffffff82169050919050565b6000819050919050565b600060ff82169050919050565b60005b838110156119c65780820151818401526020810190506119ab565b838111156119d5576000848401525b50505050565b600060028204905060018216806119f357607f821691505b60208210811415611a0757611a06611a3c565b5b50919050565b7f4e487b7100000000000000000000000000000000000000000000000000000000600052601160045260246000fd5b7f4e487b7100000000000000000000000000000000000000000000000000000000600052602260045260246000fd5b600080fd5b6000601f19601f8301169050919050565b7f45524332303a20617070726f766520746f20746865207a65726f20616464726560008201527f7373000000000000000000000000000000000000000000000000000000000000602082015250565b7f45524332303a20617070726f76652066726f6d20746865207a65726f2061646460008201527f7265737300000000000000000000000000000000000000000000000000000000602082015250565b7f45524332303a2064656372656173656420616c6c6f77616e63652062656c6f7760008201527f207a65726f000000000000000000000000000000000000000000000000000000602082015250565b611b7781611949565b8114611b8257600080fd5b50565b611b8e81611967565b8114611b9957600080fd5b50565b611ba581611991565b8114611bb057600080fd5b5056fea2646970667358221220ff4cc75692bb5b45d0663356f75c54f318b750fc76f5bc6dc70696940ed8670064736f6c63430008060033",
  "linkReferences": {},
  "deployedLinkReferences": {}
}