{
  "_format": "hh-sol-artifact-1",
  "contractName": "CustomERC20Mock",
  "sourceName": "contracts/test/CustomERC20Mock.sol",
  "abi": [
    {
      "inputs": [
        {
          "internalType": "string",
          "name": "_name",
          "type": "string"
        },
        {
          "internalType": "string",
          "name": "_symbol",
          "type": "string"
        }
      ],
      "stateMutability": "nonpayable",
      "type": "constructor"
    },
    {
      "anonymous": false,
      "inputs": [
        {
          "indexed": true,
          "internalType": "address",
          "name": "owner",
          "type": "address"
        },
        {
          "indexed": true,
          "internalType": "address",
          "name": "spender",
          "type": "address"
        },
        {
          "indexed": false,
          "internalType": "uint256",
          "name": "value",
          "type": "uint256"
        }
      ],
      "name": "Approval",
      "type": "event"
    },
    {
      "anonymous": false,
      "inputs": [
        {
          "indexed": true,
          "internalType": "address",
          "name": "from",
          "type": "address"
        },
        {
          "indexed": true,
          "internalType": "address",
          "name": "to",
          "type": "address"
        },
        {
          "indexed": false,
          "internalType": "uint256",
          "name": "value",
          "type": "uint256"
        }
      ],
      "name": "Transfer",
      "type": "event"
    },
    {
      "inputs": [
        {
          "internalType": "address",
          "name": "owner",
          "type": "address"
        },
        {
          "internalType": "address",
          "name": "spender",
          "type": "address"
        }
      ],
      "name": "allowance",
      "outputs": [
        {
          "internalType": "uint256",
          "name": "",
          "type": "uint256"
        }
      ],
      "stateMutability": "view",
      "type": "function"
    },
    {
      "inputs": [
        {
          "internalType": "address",
          "name": "spender",
          "type": "address"
        },
        {
          "internalType": "uint256",
          "name": "amount",
          "type": "uint256"
        }
      ],
      "name": "approve",
      "outputs": [
        {
          "internalType": "bool",
          "name": "",
          "type": "bool"
        }
      ],
      "stateMutability": "nonpayable",
      "type": "function"
    },
    {
      "inputs": [
        {
          "internalType": "address",
          "name": "account",
          "type": "address"
        }
      ],
      "name": "balanceOf",
      "outputs": [
        {
          "internalType": "uint256",
          "name": "",
          "type": "uint256"
        }
      ],
      "stateMutability": "view",
      "type": "function"
    },
    {
      "inputs": [
        {
          "internalType": "address",
          "name": "account",
          "type": "address"
        }
      ],
      "name": "burn",
      "outputs": [],
      "stateMutability": "nonpayable",
      "type": "function"
    },
    {
      "inputs": [
        {
          "internalType": "bytes32",
          "name": "c__0x8d53a083",
          "type": "bytes32"
        }
      ],
      "name": "c_0x8d53a083",
      "outputs": [],
      "stateMutability": "pure",
      "type": "function"
    },
    {
      "inputs": [],
      "name": "decimals",
      "outputs": [
        {
          "internalType": "uint8",
          "name": "",
          "type": "uint8"
        }
      ],
      "stateMutability": "view",
      "type": "function"
    },
    {
      "inputs": [
        {
          "internalType": "address",
          "name": "spender",
          "type": "address"
        },
        {
          "internalType": "uint256",
          "name": "subtractedValue",
          "type": "uint256"
        }
      ],
      "name": "decreaseAllowance",
      "outputs": [
        {
          "internalType": "bool",
          "name": "",
          "type": "bool"
        }
      ],
      "stateMutability": "nonpayable",
      "type": "function"
    },
    {
      "inputs": [
        {
          "internalType": "address",
          "name": "spender",
          "type": "address"
        },
        {
          "internalType": "uint256",
          "name": "addedValue",
          "type": "uint256"
        }
      ],
      "name": "increaseAllowance",
      "outputs": [
        {
          "internalType": "bool",
          "name": "",
          "type": "bool"
        }
      ],
      "stateMutability": "nonpayable",
      "type": "function"
    },
    {
      "inputs": [],
      "name": "name",
      "outputs": [
        {
          "internalType": "string",
          "name": "",
          "type": "string"
        }
      ],
      "stateMutability": "view",
      "type": "function"
    },
    {
      "inputs": [],
      "name": "symbol",
      "outputs": [
        {
          "internalType": "string",
          "name": "",
          "type": "string"
        }
      ],
      "stateMutability": "view",
      "type": "function"
    },
    {
      "inputs": [],
      "name": "totalSupply",
      "outputs": [
        {
          "internalType": "uint256",
          "name": "",
          "type": "uint256"
        }
      ],
      "stateMutability": "view",
      "type": "function"
    },
    {
      "inputs": [
        {
          "internalType": "address",
          "name": "recipient",
          "type": "address"
        },
        {
          "internalType": "uint256",
          "name": "amount",
          "type": "uint256"
        }
      ],
      "name": "transfer",
      "outputs": [
        {
          "internalType": "bool",
          "name": "",
          "type": "bool"
        }
      ],
      "stateMutability": "nonpayable",
      "type": "function"
    },
    {
      "inputs": [
        {
          "internalType": "address",
          "name": "sender",
          "type": "address"
        },
        {
          "internalType": "address",
          "name": "recipient",
          "type": "address"
        },
        {
          "internalType": "uint256",
          "name": "amount",
          "type": "uint256"
        }
      ],
      "name": "transferFrom",
      "outputs": [
        {
          "internalType": "bool",
          "name": "",
          "type": "bool"
        }
      ],
      "stateMutability": "nonpayable",
      "type": "function"
    }
  ],
  "bytecode": "0x60806040523480156200001157600080fd5b506040516200213b3803806200213b8339818101604052810190620000379190620002a4565b818181600390805190602001906200005192919062000176565b5080600490805190602001906200006a92919062000176565b505050620000a17ff9c291ae21fafdc8a9c2deea699384ca8e9d2934581154d0bb6e361c796d5a5360001b6200017360201b60201c565b620000d57f94042959b54862aa9598628c3b7876a781e61a39edbce6e964a1304c459083a160001b6200017360201b60201c565b620001097f3d3a6b11d2d63801e8ace154eb43a63c6403dda72071a7a8d8fa750425b6656a60001b6200017360201b60201c565b69043c33c1937564800000600560003373ffffffffffffffffffffffffffffffffffffffff1673ffffffffffffffffffffffffffffffffffffffff168152602001908152602001600020600082825462000164919062000388565b92505081905550505062000543565b50565b828054620001849062000425565b90600052602060002090601f016020900481019282620001a85760008555620001f4565b82601f10620001c357805160ff1916838001178555620001f4565b82800160010185558215620001f4579182015b82811115620001f3578251825591602001919060010190620001d6565b5b50905062000203919062000207565b5090565b5b808211156200022257600081600090555060010162000208565b5090565b60006200023d620002378462000352565b62000329565b9050828152602081018484840111156200025c576200025b62000523565b5b62000269848285620003ef565b509392505050565b600082601f8301126200028957620002886200051e565b5b81516200029b84826020860162000226565b91505092915050565b60008060408385031215620002be57620002bd6200052d565b5b600083015167ffffffffffffffff811115620002df57620002de62000528565b5b620002ed8582860162000271565b925050602083015167ffffffffffffffff81111562000311576200031062000528565b5b6200031f8582860162000271565b9150509250929050565b60006200033562000348565b90506200034382826200045b565b919050565b6000604051905090565b600067ffffffffffffffff82111562000370576200036f620004ef565b5b6200037b8262000532565b9050602081019050919050565b60006200039582620003e5565b9150620003a283620003e5565b9250827fffffffffffffffffffffffffffffffffffffffffffffffffffffffffffffffff03821115620003da57620003d962000491565b5b828201905092915050565b6000819050919050565b60005b838110156200040f578082015181840152602081019050620003f2565b838111156200041f576000848401525b50505050565b600060028204905060018216806200043e57607f821691505b60208210811415620004555762000454620004c0565b5b50919050565b620004668262000532565b810181811067ffffffffffffffff82111715620004885762000487620004ef565b5b80604052505050565b7f4e487b7100000000000000000000000000000000000000000000000000000000600052601160045260246000fd5b7f4e487b7100000000000000000000000000000000000000000000000000000000600052602260045260246000fd5b7f4e487b7100000000000000000000000000000000000000000000000000000000600052604160045260246000fd5b600080fd5b600080fd5b600080fd5b600080fd5b6000601f19601f8301169050919050565b611be880620005536000396000f3fe608060405234801561001057600080fd5b50600436106100cf5760003560e01c806370a082311161008c578063a457c2d711610066578063a457c2d714610228578063a9059cbb14610258578063cc3b0b3414610288578063dd62ed3e146102a4576100cf565b806370a08231146101be57806389afcb44146101ee57806395d89b411461020a576100cf565b806306fdde03146100d4578063095ea7b3146100f257806318160ddd1461012257806323b872dd14610140578063313ce56714610170578063395093511461018e575b600080fd5b6100dc6102d4565b6040516100e9919061181e565b60405180910390f35b61010c600480360381019061010791906116c7565b610366565b6040516101199190611803565b60405180910390f35b61012a610460565b60405161013791906118a0565b60405180910390f35b61015a60048036038101906101559190611674565b61046a565b6040516101679190611803565b60405180910390f35b61017861082f565b60405161018591906118bb565b60405180910390f35b6101a860048036038101906101a391906116c7565b610838565b6040516101b59190611803565b60405180910390f35b6101d860048036038101906101d39190611607565b6108e4565b6040516101e591906118a0565b60405180910390f35b61020860048036038101906102039190611607565b6109b0565b005b610212610a7c565b60405161021f919061181e565b60405180910390f35b610242600480360381019061023d91906116c7565b610b0e565b60405161024f9190611803565b60405180910390f35b610272600480360381019061026d91906116c7565b610bf9565b60405161027f9190611803565b60405180910390f35b6102a2600480360381019061029d9190611707565b610cf7565b005b6102be60048036038101906102b99190611634565b610cfa565b6040516102cb91906118a0565b60405180910390f35b6060600380546102e3906119da565b80601f016020809104026020016040519081016040528092919081815260200182805461030f906119da565b801561035c5780601f106103315761010080835404028352916020019161035c565b820191906000526020600020905b81548152906001019060200180831161033f57829003601f168201915b5050505050905090565b60006103947f76ce9e6048d3f0caf01d672b11406882ee34019aa42400fe74426a236908f37460001b610cf7565b6103c07f5187410ec60d26f2e852e8dd630c58e75a9f98cdfb8de2e506abdbcb6a17d29560001b610cf7565b6103ec7fa1ba6cc6f28575a30930615ed44af79cf0be8cdf58e572fff57f6c7c6941c5bb60001b610cf7565b6103fe6103f7610d81565b8484610d89565b61042a7f4402ddd96ff7c9198b70b02be5700f33b97547ba0b38943f22c2344949a0343860001b610cf7565b6104567f28f70b633ac1e19b0bfdd400fe63b0e0723b6df2c6bedef60b1744f80fcb157260001b610cf7565b6001905092915050565b6000600254905090565b60006104987f26273817d6bf228ddc6a5a7e0fef14999df1ed8560ef968cd39f65bd496f2e1b60001b610cf7565b6104c47f45b6c2291b431fbf8882343c93b6f611ffb4eb9c866e6509bbdd503bbbef5d6d60001b610cf7565b6104f07fcdcfe8952a834a3cc710340adf24ff4bc864880a8e3253b70552ec2a44fded8160001b610cf7565b6000600660008673ffffffffffffffffffffffffffffffffffffffff1673ffffffffffffffffffffffffffffffffffffffff168152602001908152602001600020600061053b610d81565b73ffffffffffffffffffffffffffffffffffffffff1673ffffffffffffffffffffffffffffffffffffffff1681526020019081526020016000205490506105a47fd4cc5c2fa677d5d645ed1c8a040023f4511e033fc2265c904e3946d3d637d04a60001b610cf7565b6105d07f8447b1ebbfc3c0c22ea11d24e866890efe17ffd799ecc519d5a2f239aec4387260001b610cf7565b8281101561063a576106047f9e7ad898fed94b2cd969b76c9f5da349108a04fbab9a94e33d38ac3a7ba879ad60001b610cf7565b6106307fe2a3d58072f2dd941429d2456bbeb9a3647c822308ed05883d681f83147e9c0a60001b610cf7565b6000915050610828565b6106667f19569414f0831e1cd5e09a11b2c26b6e8e12e5d2f28e3d54f5078c1de1361c8560001b610cf7565b6106927f9dafbcf3439c31a58b8ad8514770ffaf5aa76507cb112b07707b987157d027aa60001b610cf7565b6106be7fafca6f4acdf25ab270bcd05bc1a1d43aaa3fdff670d0a551c5016c07c4c8804160001b610cf7565b60006106cb868686611190565b90506106f97f7d97f6a624038fb8c3fbe614b367699723ea84932f344782ae4bf47045888cfd60001b610cf7565b6107257fa79c2918c9efd012488356467cf410d706299ada69327482a1e9801f761da07260001b610cf7565b801561079c576107577f6ec696b9abbea8af6aefef07d341df75bac3e148d5f0a0b35f6a972cae60401360001b610cf7565b6107837fd74bb42298f02c2a3e8cf0ab93d1d2f9fb1ce34fd94d57118f7cd347113967d960001b610cf7565b6107978661078f610d81565b868503610d89565b6107c9565b6107c87f0aa16289fecc6ccb56302008077946045072eb806ab703ee24e180ad1776bd7260001b610cf7565b5b6107f57f8f610a847a449acea1b59f8fbd7b432aef9634291a377a50a855a246741ca86360001b610cf7565b6108217fcc0c32f9dd31335160f9c0208a081ef90d7318e9e479e132b2f593620e550d6460001b610cf7565b6001925050505b9392505050565b60006012905090565b60006108da610845610d81565b848460016000610853610d81565b73ffffffffffffffffffffffffffffffffffffffff1673ffffffffffffffffffffffffffffffffffffffff16815260200190815260200160002060008873ffffffffffffffffffffffffffffffffffffffff1673ffffffffffffffffffffffffffffffffffffffff168152602001908152602001600020546108d591906118f2565b610d89565b6001905092915050565b60006109117ee81e946720880e07cc3d90b36ce6fa24e0a08aaa7268b139e3789241d8abf660001b610cf7565b61093d7f8ca5f8382195dda6bb4ff29f7d950beadcdbc2e52450b375d64b6c1de33c931260001b610cf7565b6109697fc5e753c48b64bdfa526096ea493f8cc7ba28fd19a3c79fae0f7992dd5eb17c5160001b610cf7565b600560008373ffffffffffffffffffffffffffffffffffffffff1673ffffffffffffffffffffffffffffffffffffffff168152602001908152602001600020549050919050565b6109dc7f723a74543c63a0d0b71ca17c2916ec977d270a5d4d8a9c122c5b3fb20173f3d360001b610cf7565b610a087f5119152365525e52f7172b437027568636ef2b2e0662585892a74ade47b3028360001b610cf7565b610a347f963fb5af12d9989888432a01c3b157f406bfbf3b9cb4865767d33b9f5a65b8e460001b610cf7565b6000600560008373ffffffffffffffffffffffffffffffffffffffff1673ffffffffffffffffffffffffffffffffffffffff1681526020019081526020016000208190555050565b606060048054610a8b906119da565b80601f0160208091040260200160405190810160405280929190818152602001828054610ab7906119da565b8015610b045780601f10610ad957610100808354040283529160200191610b04565b820191906000526020600020905b815481529060010190602001808311610ae757829003601f168201915b5050505050905090565b60008060016000610b1d610d81565b73ffffffffffffffffffffffffffffffffffffffff1673ffffffffffffffffffffffffffffffffffffffff16815260200190815260200160002060008573ffffffffffffffffffffffffffffffffffffffff1673ffffffffffffffffffffffffffffffffffffffff16815260200190815260200160002054905082811015610bda576040517f08c379a0000000000000000000000000000000000000000000000000000000008152600401610bd190611880565b60405180910390fd5b610bee610be5610d81565b85858403610d89565b600191505092915050565b6000610c277f9fed9b1ab9280f4702522174dae88581f92c1aa9726746e59b119af56900576560001b610cf7565b610c537ff15aec83f140bba1a0195249d52d4834464d3bacdce157fd1ac6326f057ff4f660001b610cf7565b610c7f7f7c1942b93d836b806df0223b3f84cb77ef0628db7620db69ecdf66b8f9eb533960001b610cf7565b6000610c93610c8c610d81565b8585611190565b9050610cc17f4dc47d9e810eaf693eb3ecbb8c990d8217b74b57cdc2ca844a018f194b40bd3060001b610cf7565b610ced7f06c2ccd6b594787d269226ce9b3ad457f865c83a779461cd2eb27c90a9c5765860001b610cf7565b8091505092915050565b50565b6000600160008473ffffffffffffffffffffffffffffffffffffffff1673ffffffffffffffffffffffffffffffffffffffff16815260200190815260200160002060008373ffffffffffffffffffffffffffffffffffffffff1673ffffffffffffffffffffffffffffffffffffffff16815260200190815260200160002054905092915050565b600033905090565b610db57f0216c45114fca9b21e4105fe8f6bc634373841e0af201457536108982e6fcd2d60001b610cf7565b610de17f6afdc99bc4a9a85607eb4b17c583fed75c80962dbf048fe41f3f9969422c724260001b610cf7565b610e0d7f0b84daf37259356d3e9eb1761df11c50467d5b11a17f547438868b7eb1d7caba60001b610cf7565b610e397f142c67d1787616febd125f36ed2098449c20355b7a670bc651925bfa645a4a6f60001b610cf7565b600073ffffffffffffffffffffffffffffffffffffffff168373ffffffffffffffffffffffffffffffffffffffff161415610ea9576040517f08c379a0000000000000000000000000000000000000000000000000000000008152600401610ea090611860565b60405180910390fd5b610ed57f27d34f7a87dd06576ac220b221b4d9ea7fe6f2eb698dcd85a732ae6d02afb68260001b610cf7565b610f017f7d3f92bd109c8531b2f2753d299dd407855a9405cdd0d7499cbd11492ae388b760001b610cf7565b610f2d7f7ac71eea0e860e272ee00587796ec82900ad1c46ca36e3a49f7f0446c624005f60001b610cf7565b610f597f83e8d981e43019827d23d91067ead5febf1eb4252b2db641a58553de7fe26da960001b610cf7565b600073ffffffffffffffffffffffffffffffffffffffff168273ffffffffffffffffffffffffffffffffffffffff161415610fc9576040517f08c379a0000000000000000000000000000000000000000000000000000000008152600401610fc090611840565b60405180910390fd5b610ff57f977fe3f723930ba1a2560a37a9e0158469a128756a5344886ed623cece05b2b560001b610cf7565b6110217f7efe2440d0c0675cf74b0a45d8f4d6f6f95e88e4c878ec84635489ebda88ee9360001b610cf7565b61104d7f7c7f401590d97d25f68e81732bdee47d7ae399f310b6a6ba7b4f5ec7055ae13360001b610cf7565b80600660008573ffffffffffffffffffffffffffffffffffffffff1673ffffffffffffffffffffffffffffffffffffffff16815260200190815260200160002060008473ffffffffffffffffffffffffffffffffffffffff1673ffffffffffffffffffffffffffffffffffffffff168152602001908152602001600020819055506110fa7f08d0c6b594bf90602164ca14d07f5a3e4d127734fcd5fbc600f7905c29115dd060001b610cf7565b6111267ff15d68234b437203172b11581d0971a4f546eae071ce2f5a67bc5d65e155769760001b610cf7565b8173ffffffffffffffffffffffffffffffffffffffff168373ffffffffffffffffffffffffffffffffffffffff167f8c5be1e5ebec7d5bd14f71427d1e84f3dd0314c0f7b2291e5b200ac8c7c3b9258360405161118391906118a0565b60405180910390a3505050565b60006111be7ff41f2a1749ea84d4c03e3e720588f9f5ec7b8fd0cf235700dbfebaaa7d4fa92760001b610cf7565b6111ea7ff25319b271fedc1117ac08d6360a62f566a034e22ac43a96a3af29ff87e6917260001b610cf7565b6112167f3755cccfc3a139a57001154250ce8e8f9b3fa49b4e08b364690fa1ff13f3051960001b610cf7565b6000600560008673ffffffffffffffffffffffffffffffffffffffff1673ffffffffffffffffffffffffffffffffffffffff1681526020019081526020016000205490506112867fa992e867ccf8f61f899b27a0ef1927fe2682370b8aa3490644210e26ecc8d30760001b610cf7565b6112b27f748c0a0ce18f9b8848bcc0fbbddce8fa25c46ad2449157f8365bd903cbcf338760001b610cf7565b600073ffffffffffffffffffffffffffffffffffffffff168573ffffffffffffffffffffffffffffffffffffffff1614806113195750600073ffffffffffffffffffffffffffffffffffffffff168473ffffffffffffffffffffffffffffffffffffffff16145b8061132357508281105b156113b6576113547fc5943c2107310851000a1e5e18f781709d3fd4da1a8d81454d67e561f55140bc60001b610cf7565b6113807f6bf02eb94b7bd26eb6eccbb4cac7e7ce447b0af16cf035e5b19b39c00d84498060001b610cf7565b6113ac7faba131fb66d9f2e52135e4b3494ad280529fbe2a92a3d4beac73917f8aba708160001b610cf7565b60009150506115c1565b6113e27f7468f10466176d0c359d691c4eae14cc46ea4a2f3f19eeed2041191f2a3f78af60001b610cf7565b61140e7f88316650752657ef28173e24754dc156067eb55258b6b461861aa6ea7c3cfaf860001b610cf7565b828103600560008773ffffffffffffffffffffffffffffffffffffffff1673ffffffffffffffffffffffffffffffffffffffff168152602001908152602001600020819055506114807feef74259fd7571a889c2a66810537b97aba17e67dc664f7591ffb95d1d29134860001b610cf7565b6114ac7fcb80c95b1c2cf43422247ad99c9348da2a7cac6978c1c99955ea7fede534d8c960001b610cf7565b82600560008673ffffffffffffffffffffffffffffffffffffffff1673ffffffffffffffffffffffffffffffffffffffff16815260200190815260200160002060008282546114fb91906118f2565b9250508190555061152e7fb344fd9b2d959558da11a6c3ff7edba2417126832497f9f2331d07ef4fa63efb60001b610cf7565b61155a7fa3416596eaa721b2c6c8294becec211d854e2bcd87bcfccfee19f536fbf05eb560001b610cf7565b8373ffffffffffffffffffffffffffffffffffffffff168573ffffffffffffffffffffffffffffffffffffffff167fddf252ad1be2c89b69c2b068fc378daa952ba7f163c4a11628f55a4df523b3ef856040516115b791906118a0565b60405180910390a3505b9392505050565b6000813590506115d781611b6d565b92915050565b6000813590506115ec81611b84565b92915050565b60008135905061160181611b9b565b92915050565b60006020828403121561161d5761161c611a6a565b5b600061162b848285016115c8565b91505092915050565b6000806040838503121561164b5761164a611a6a565b5b6000611659858286016115c8565b925050602061166a858286016115c8565b9150509250929050565b60008060006060848603121561168d5761168c611a6a565b5b600061169b868287016115c8565b93505060206116ac868287016115c8565b92505060406116bd868287016115f2565b9150509250925092565b600080604083850312156116de576116dd611a6a565b5b60006116ec858286016115c8565b92505060206116fd858286016115f2565b9150509250929050565b60006020828403121561171d5761171c611a6a565b5b600061172b848285016115dd565b91505092915050565b61173d8161195a565b82525050565b600061174e826118d6565b61175881856118e1565b93506117688185602086016119a7565b61177181611a6f565b840191505092915050565b60006117896022836118e1565b915061179482611a80565b604082019050919050565b60006117ac6024836118e1565b91506117b782611acf565b604082019050919050565b60006117cf6025836118e1565b91506117da82611b1e565b604082019050919050565b6117ee81611990565b82525050565b6117fd8161199a565b82525050565b60006020820190506118186000830184611734565b92915050565b600060208201905081810360008301526118388184611743565b905092915050565b600060208201905081810360008301526118598161177c565b9050919050565b600060208201905081810360008301526118798161179f565b9050919050565b60006020820190508181036000830152611899816117c2565b9050919050565b60006020820190506118b560008301846117e5565b92915050565b60006020820190506118d060008301846117f4565b92915050565b600081519050919050565b600082825260208201905092915050565b60006118fd82611990565b915061190883611990565b9250827fffffffffffffffffffffffffffffffffffffffffffffffffffffffffffffffff0382111561193d5761193c611a0c565b5b828201905092915050565b600061195382611970565b9050919050565b60008115159050919050565b6000819050919050565b600073ffffffffffffffffffffffffffffffffffffffff82169050919050565b6000819050919050565b600060ff82169050919050565b60005b838110156119c55780820151818401526020810190506119aa565b838111156119d4576000848401525b50505050565b600060028204905060018216806119f257607f821691505b60208210811415611a0657611a05611a3b565b5b50919050565b7f4e487b7100000000000000000000000000000000000000000000000000000000600052601160045260246000fd5b7f4e487b7100000000000000000000000000000000000000000000000000000000600052602260045260246000fd5b600080fd5b6000601f19601f8301169050919050565b7f45524332303a20617070726f766520746f20746865207a65726f20616464726560008201527f7373000000000000000000000000000000000000000000000000000000000000602082015250565b7f45524332303a20617070726f76652066726f6d20746865207a65726f2061646460008201527f7265737300000000000000000000000000000000000000000000000000000000602082015250565b7f45524332303a2064656372656173656420616c6c6f77616e63652062656c6f7760008201527f207a65726f000000000000000000000000000000000000000000000000000000602082015250565b611b7681611948565b8114611b8157600080fd5b50565b611b8d81611966565b8114611b9857600080fd5b50565b611ba481611990565b8114611baf57600080fd5b5056fea26469706673582212205235de962072317a53881c5cb6a143f47baa479e6361fca3d4f242b314de2dc464736f6c63430008060033",
  "linkReferences": {},
  "deployedLinkReferences": {}
}