{
  "_format": "hh-sol-artifact-1",
  "contractName": "CustomERC20Mock",
  "sourceName": "contracts/test/CustomERC20Mock.sol",
  "abi": [
    {
      "inputs": [
        {
          "internalType": "string",
          "name": "_name",
          "type": "string"
        },
        {
          "internalType": "string",
          "name": "_symbol",
          "type": "string"
        }
      ],
      "stateMutability": "nonpayable",
      "type": "constructor"
    },
    {
      "anonymous": false,
      "inputs": [
        {
          "indexed": true,
          "internalType": "address",
          "name": "owner",
          "type": "address"
        },
        {
          "indexed": true,
          "internalType": "address",
          "name": "spender",
          "type": "address"
        },
        {
          "indexed": false,
          "internalType": "uint256",
          "name": "value",
          "type": "uint256"
        }
      ],
      "name": "Approval",
      "type": "event"
    },
    {
      "anonymous": false,
      "inputs": [
        {
          "indexed": true,
          "internalType": "address",
          "name": "from",
          "type": "address"
        },
        {
          "indexed": true,
          "internalType": "address",
          "name": "to",
          "type": "address"
        },
        {
          "indexed": false,
          "internalType": "uint256",
          "name": "value",
          "type": "uint256"
        }
      ],
      "name": "Transfer",
      "type": "event"
    },
    {
      "inputs": [
        {
          "internalType": "address",
          "name": "owner",
          "type": "address"
        },
        {
          "internalType": "address",
          "name": "spender",
          "type": "address"
        }
      ],
      "name": "allowance",
      "outputs": [
        {
          "internalType": "uint256",
          "name": "",
          "type": "uint256"
        }
      ],
      "stateMutability": "view",
      "type": "function"
    },
    {
      "inputs": [
        {
          "internalType": "address",
          "name": "spender",
          "type": "address"
        },
        {
          "internalType": "uint256",
          "name": "amount",
          "type": "uint256"
        }
      ],
      "name": "approve",
      "outputs": [
        {
          "internalType": "bool",
          "name": "",
          "type": "bool"
        }
      ],
      "stateMutability": "nonpayable",
      "type": "function"
    },
    {
      "inputs": [
        {
          "internalType": "address",
          "name": "account",
          "type": "address"
        }
      ],
      "name": "balanceOf",
      "outputs": [
        {
          "internalType": "uint256",
          "name": "",
          "type": "uint256"
        }
      ],
      "stateMutability": "view",
      "type": "function"
    },
    {
      "inputs": [
        {
          "internalType": "address",
          "name": "account",
          "type": "address"
        }
      ],
      "name": "burn",
      "outputs": [],
      "stateMutability": "nonpayable",
      "type": "function"
    },
    {
      "inputs": [],
      "name": "decimals",
      "outputs": [
        {
          "internalType": "uint8",
          "name": "",
          "type": "uint8"
        }
      ],
      "stateMutability": "view",
      "type": "function"
    },
    {
      "inputs": [
        {
          "internalType": "address",
          "name": "spender",
          "type": "address"
        },
        {
          "internalType": "uint256",
          "name": "subtractedValue",
          "type": "uint256"
        }
      ],
      "name": "decreaseAllowance",
      "outputs": [
        {
          "internalType": "bool",
          "name": "",
          "type": "bool"
        }
      ],
      "stateMutability": "nonpayable",
      "type": "function"
    },
    {
      "inputs": [
        {
          "internalType": "address",
          "name": "spender",
          "type": "address"
        },
        {
          "internalType": "uint256",
          "name": "addedValue",
          "type": "uint256"
        }
      ],
      "name": "increaseAllowance",
      "outputs": [
        {
          "internalType": "bool",
          "name": "",
          "type": "bool"
        }
      ],
      "stateMutability": "nonpayable",
      "type": "function"
    },
    {
      "inputs": [],
      "name": "name",
      "outputs": [
        {
          "internalType": "string",
          "name": "",
          "type": "string"
        }
      ],
      "stateMutability": "view",
      "type": "function"
    },
    {
      "inputs": [],
      "name": "symbol",
      "outputs": [
        {
          "internalType": "string",
          "name": "",
          "type": "string"
        }
      ],
      "stateMutability": "view",
      "type": "function"
    },
    {
      "inputs": [],
      "name": "totalSupply",
      "outputs": [
        {
          "internalType": "uint256",
          "name": "",
          "type": "uint256"
        }
      ],
      "stateMutability": "view",
      "type": "function"
    },
    {
      "inputs": [
        {
          "internalType": "address",
          "name": "recipient",
          "type": "address"
        },
        {
          "internalType": "uint256",
          "name": "amount",
          "type": "uint256"
        }
      ],
      "name": "transfer",
      "outputs": [
        {
          "internalType": "bool",
          "name": "",
          "type": "bool"
        }
      ],
      "stateMutability": "nonpayable",
      "type": "function"
    },
    {
      "inputs": [
        {
          "internalType": "address",
          "name": "sender",
          "type": "address"
        },
        {
          "internalType": "address",
          "name": "recipient",
          "type": "address"
        },
        {
          "internalType": "uint256",
          "name": "amount",
          "type": "uint256"
        }
      ],
      "name": "transferFrom",
      "outputs": [
        {
          "internalType": "bool",
          "name": "",
          "type": "bool"
        }
      ],
      "stateMutability": "nonpayable",
      "type": "function"
    }
  ],
  "bytecode": "0x60806040523480156200001157600080fd5b5060405162000ab438038062000ab48339810160408190526200003491620001fe565b8151829082906200004d906003906020850190620000a1565b50805162000063906004906020840190620000a1565b5050336000908152600560205260408120805469043c33c193756480000093509091906200009390849062000268565b90915550620002e292505050565b828054620000af906200028f565b90600052602060002090601f016020900481019282620000d357600085556200011e565b82601f10620000ee57805160ff19168380011785556200011e565b828001600101855582156200011e579182015b828111156200011e57825182559160200191906001019062000101565b506200012c92915062000130565b5090565b5b808211156200012c576000815560010162000131565b600082601f8301126200015957600080fd5b81516001600160401b0380821115620001765762000176620002cc565b604051601f8301601f19908116603f01168101908282118183101715620001a157620001a1620002cc565b81604052838152602092508683858801011115620001be57600080fd5b600091505b83821015620001e25785820183015181830184015290820190620001c3565b83821115620001f45760008385830101525b9695505050505050565b600080604083850312156200021257600080fd5b82516001600160401b03808211156200022a57600080fd5b620002388683870162000147565b935060208501519150808211156200024f57600080fd5b506200025e8582860162000147565b9150509250929050565b600082198211156200028a57634e487b7160e01b600052601160045260246000fd5b500190565b600181811c90821680620002a457607f821691505b60208210811415620002c657634e487b7160e01b600052602260045260246000fd5b50919050565b634e487b7160e01b600052604160045260246000fd5b6107c280620002f26000396000f3fe608060405234801561001057600080fd5b50600436106100b45760003560e01c806370a082311161007157806370a082311461014157806389afcb441461016a57806395d89b4114610194578063a457c2d71461019c578063a9059cbb146101af578063dd62ed3e146101c257600080fd5b806306fdde03146100b9578063095ea7b3146100d757806318160ddd146100fa57806323b872dd1461010c578063313ce5671461011f578063395093511461012e575b600080fd5b6100c16101fb565b6040516100ce91906106d6565b60405180910390f35b6100ea6100e53660046106ac565b61028d565b60405190151581526020016100ce565b6002545b6040519081526020016100ce565b6100ea61011a366004610670565b6102a3565b604051601281526020016100ce565b6100ea61013c3660046106ac565b610309565b6100fe61014f366004610622565b6001600160a01b031660009081526005602052604090205490565b610192610178366004610622565b6001600160a01b0316600090815260056020526040812055565b005b6100c1610345565b6100ea6101aa3660046106ac565b610354565b6100ea6101bd3660046106ac565b6103f2565b6100fe6101d036600461063d565b6001600160a01b03918216600090815260016020908152604080832093909416825291909152205490565b60606003805461020a90610751565b80601f016020809104026020016040519081016040528092919081815260200182805461023690610751565b80156102835780601f1061025857610100808354040283529160200191610283565b820191906000526020600020905b81548152906001019060200180831161026657829003601f168201915b5050505050905090565b600061029a338484610408565b50600192915050565b6001600160a01b0383166000908152600660209081526040808320338452909152812054828110156102d9576000915050610302565b60006102e686868661052c565b905080156102fb576102fb8633868503610408565b6001925050505b9392505050565b3360008181526001602090815260408083206001600160a01b0387168452909152812054909161029a91859061034090869061072b565b610408565b60606004805461020a90610751565b3360009081526001602090815260408083206001600160a01b0386168452909152812054828110156103db5760405162461bcd60e51b815260206004820152602560248201527f45524332303a2064656372656173656420616c6c6f77616e63652062656c6f77604482015264207a65726f60d81b60648201526084015b60405180910390fd5b6103e83385858403610408565b5060019392505050565b60008061040033858561052c565b949350505050565b6001600160a01b03831661046a5760405162461bcd60e51b8152602060048201526024808201527f45524332303a20617070726f76652066726f6d20746865207a65726f206164646044820152637265737360e01b60648201526084016103d2565b6001600160a01b0382166104cb5760405162461bcd60e51b815260206004820152602260248201527f45524332303a20617070726f766520746f20746865207a65726f206164647265604482015261737360f01b60648201526084016103d2565b6001600160a01b0383811660008181526006602090815260408083209487168084529482529182902085905590518481527f8c5be1e5ebec7d5bd14f71427d1e84f3dd0314c0f7b2291e5b200ac8c7c3b925910160405180910390a3505050565b6001600160a01b0383166000818152600560205260408120549091158061055a57506001600160a01b038416155b8061056457508281105b15610573576000915050610302565b6001600160a01b038086166000908152600560205260408082208685039055918616815290812080548592906105aa90849061072b565b92505081905550836001600160a01b0316856001600160a01b03167fddf252ad1be2c89b69c2b068fc378daa952ba7f163c4a11628f55a4df523b3ef856040516105f691815260200190565b60405180910390a3509392505050565b80356001600160a01b038116811461061d57600080fd5b919050565b60006020828403121561063457600080fd5b61030282610606565b6000806040838503121561065057600080fd5b61065983610606565b915061066760208401610606565b90509250929050565b60008060006060848603121561068557600080fd5b61068e84610606565b925061069c60208501610606565b9150604084013590509250925092565b600080604083850312156106bf57600080fd5b6106c883610606565b946020939093013593505050565b600060208083528351808285015260005b81811015610703578581018301518582016040015282016106e7565b81811115610715576000604083870101525b50601f01601f1916929092016040019392505050565b6000821982111561074c57634e487b7160e01b600052601160045260246000fd5b500190565b600181811c9082168061076557607f821691505b6020821081141561078657634e487b7160e01b600052602260045260246000fd5b5091905056fea264697066735822122074c00eb66381d1856bc4668dce632cc29de25ff4c6e6b1b7326f0ef6c783792064736f6c63430008060033",
  "linkReferences": {},
  "deployedLinkReferences": {}
}