{
  "_format": "hh-sol-artifact-1",
  "contractName": "ERC20Mock",
  "sourceName": "contracts/test/ERC20Mock.sol",
  "abi": [
    {
      "inputs": [
        {
          "internalType": "string",
          "name": "_name",
          "type": "string"
        },
        {
          "internalType": "string",
          "name": "_symbol",
          "type": "string"
        }
      ],
      "stateMutability": "nonpayable",
      "type": "constructor"
    },
    {
      "anonymous": false,
      "inputs": [
        {
          "indexed": true,
          "internalType": "address",
          "name": "owner",
          "type": "address"
        },
        {
          "indexed": true,
          "internalType": "address",
          "name": "spender",
          "type": "address"
        },
        {
          "indexed": false,
          "internalType": "uint256",
          "name": "value",
          "type": "uint256"
        }
      ],
      "name": "Approval",
      "type": "event"
    },
    {
      "anonymous": false,
      "inputs": [
        {
          "indexed": true,
          "internalType": "address",
          "name": "from",
          "type": "address"
        },
        {
          "indexed": true,
          "internalType": "address",
          "name": "to",
          "type": "address"
        },
        {
          "indexed": false,
          "internalType": "uint256",
          "name": "value",
          "type": "uint256"
        }
      ],
      "name": "Transfer",
      "type": "event"
    },
    {
      "inputs": [
        {
          "internalType": "address",
          "name": "owner",
          "type": "address"
        },
        {
          "internalType": "address",
          "name": "spender",
          "type": "address"
        }
      ],
      "name": "allowance",
      "outputs": [
        {
          "internalType": "uint256",
          "name": "",
          "type": "uint256"
        }
      ],
      "stateMutability": "view",
      "type": "function"
    },
    {
      "inputs": [
        {
          "internalType": "address",
          "name": "spender",
          "type": "address"
        },
        {
          "internalType": "uint256",
          "name": "amount",
          "type": "uint256"
        }
      ],
      "name": "approve",
      "outputs": [
        {
          "internalType": "bool",
          "name": "",
          "type": "bool"
        }
      ],
      "stateMutability": "nonpayable",
      "type": "function"
    },
    {
      "inputs": [
        {
          "internalType": "address",
          "name": "account",
          "type": "address"
        }
      ],
      "name": "balanceOf",
      "outputs": [
        {
          "internalType": "uint256",
          "name": "",
          "type": "uint256"
        }
      ],
      "stateMutability": "view",
      "type": "function"
    },
    {
      "inputs": [],
      "name": "decimals",
      "outputs": [
        {
          "internalType": "uint8",
          "name": "",
          "type": "uint8"
        }
      ],
      "stateMutability": "view",
      "type": "function"
    },
    {
      "inputs": [
        {
          "internalType": "address",
          "name": "spender",
          "type": "address"
        },
        {
          "internalType": "uint256",
          "name": "subtractedValue",
          "type": "uint256"
        }
      ],
      "name": "decreaseAllowance",
      "outputs": [
        {
          "internalType": "bool",
          "name": "",
          "type": "bool"
        }
      ],
      "stateMutability": "nonpayable",
      "type": "function"
    },
    {
      "inputs": [
        {
          "internalType": "address",
          "name": "spender",
          "type": "address"
        },
        {
          "internalType": "uint256",
          "name": "addedValue",
          "type": "uint256"
        }
      ],
      "name": "increaseAllowance",
      "outputs": [
        {
          "internalType": "bool",
          "name": "",
          "type": "bool"
        }
      ],
      "stateMutability": "nonpayable",
      "type": "function"
    },
    {
      "inputs": [],
      "name": "initialSupply",
      "outputs": [
        {
          "internalType": "uint256",
          "name": "",
          "type": "uint256"
        }
      ],
      "stateMutability": "view",
      "type": "function"
    },
    {
      "inputs": [],
      "name": "name",
      "outputs": [
        {
          "internalType": "string",
          "name": "",
          "type": "string"
        }
      ],
      "stateMutability": "view",
      "type": "function"
    },
    {
      "inputs": [],
      "name": "symbol",
      "outputs": [
        {
          "internalType": "string",
          "name": "",
          "type": "string"
        }
      ],
      "stateMutability": "view",
      "type": "function"
    },
    {
      "inputs": [],
      "name": "totalSupply",
      "outputs": [
        {
          "internalType": "uint256",
          "name": "",
          "type": "uint256"
        }
      ],
      "stateMutability": "view",
      "type": "function"
    },
    {
      "inputs": [
        {
          "internalType": "address",
          "name": "recipient",
          "type": "address"
        },
        {
          "internalType": "uint256",
          "name": "amount",
          "type": "uint256"
        }
      ],
      "name": "transfer",
      "outputs": [
        {
          "internalType": "bool",
          "name": "",
          "type": "bool"
        }
      ],
      "stateMutability": "nonpayable",
      "type": "function"
    },
    {
      "inputs": [
        {
          "internalType": "address",
          "name": "sender",
          "type": "address"
        },
        {
          "internalType": "address",
          "name": "recipient",
          "type": "address"
        },
        {
          "internalType": "uint256",
          "name": "amount",
          "type": "uint256"
        }
      ],
      "name": "transferFrom",
      "outputs": [
        {
          "internalType": "bool",
          "name": "",
          "type": "bool"
        }
      ],
      "stateMutability": "nonpayable",
      "type": "function"
    }
  ],
  "bytecode": "0x60806040523480156200001157600080fd5b5060405162000ca538038062000ca58339810160408190526200003491620002d0565b8151829082906200004d90600390602085019062000173565b5080516200006390600490602084019062000173565b50505062000083336aa56fa5b99019a5c80000006200008b60201b60201c565b5050620003b4565b6001600160a01b038216620000e65760405162461bcd60e51b815260206004820152601f60248201527f45524332303a206d696e7420746f20746865207a65726f206164647265737300604482015260640160405180910390fd5b8060026000828254620000fa91906200033a565b90915550506001600160a01b03821660009081526020819052604081208054839290620001299084906200033a565b90915550506040518181526001600160a01b038316906000907fddf252ad1be2c89b69c2b068fc378daa952ba7f163c4a11628f55a4df523b3ef9060200160405180910390a35050565b828054620001819062000361565b90600052602060002090601f016020900481019282620001a55760008555620001f0565b82601f10620001c057805160ff1916838001178555620001f0565b82800160010185558215620001f0579182015b82811115620001f0578251825591602001919060010190620001d3565b50620001fe92915062000202565b5090565b5b80821115620001fe576000815560010162000203565b600082601f8301126200022b57600080fd5b81516001600160401b03808211156200024857620002486200039e565b604051601f8301601f19908116603f011681019082821181831017156200027357620002736200039e565b816040528381526020925086838588010111156200029057600080fd5b600091505b83821015620002b4578582018301518183018401529082019062000295565b83821115620002c65760008385830101525b9695505050505050565b60008060408385031215620002e457600080fd5b82516001600160401b0380821115620002fc57600080fd5b6200030a8683870162000219565b935060208501519150808211156200032157600080fd5b50620003308582860162000219565b9150509250929050565b600082198211156200035c57634e487b7160e01b600052601160045260246000fd5b500190565b600181811c908216806200037657607f821691505b602082108114156200039857634e487b7160e01b600052602260045260246000fd5b50919050565b634e487b7160e01b600052604160045260246000fd5b6108e180620003c46000396000f3fe608060405234801561001057600080fd5b50600436106100b45760003560e01c80633950935111610071578063395093511461014057806370a082311461015357806395d89b411461017c578063a457c2d714610184578063a9059cbb14610197578063dd62ed3e146101aa57600080fd5b806306fdde03146100b9578063095ea7b3146100d757806318160ddd146100fa57806323b872dd1461010c578063313ce5671461011f578063378dc3dc1461012e575b600080fd5b6100c16101e3565b6040516100ce91906107f5565b60405180910390f35b6100ea6100e53660046107cb565b610275565b60405190151581526020016100ce565b6002545b6040519081526020016100ce565b6100ea61011a36600461078f565b61028b565b604051601281526020016100ce565b6100fe6aa56fa5b99019a5c800000081565b6100ea61014e3660046107cb565b61033a565b6100fe61016136600461073a565b6001600160a01b031660009081526020819052604090205490565b6100c1610376565b6100ea6101923660046107cb565b610385565b6100ea6101a53660046107cb565b61041e565b6100fe6101b836600461075c565b6001600160a01b03918216600090815260016020908152604080832093909416825291909152205490565b6060600380546101f290610870565b80601f016020809104026020016040519081016040528092919081815260200182805461021e90610870565b801561026b5780601f106102405761010080835404028352916020019161026b565b820191906000526020600020905b81548152906001019060200180831161024e57829003601f168201915b5050505050905090565b600061028233848461042b565b50600192915050565b600061029884848461054f565b6001600160a01b0384166000908152600160209081526040808320338452909152902054828110156103225760405162461bcd60e51b815260206004820152602860248201527f45524332303a207472616e7366657220616d6f756e74206578636565647320616044820152676c6c6f77616e636560c01b60648201526084015b60405180910390fd5b61032f853385840361042b565b506001949350505050565b3360008181526001602090815260408083206001600160a01b0387168452909152812054909161028291859061037190869061084a565b61042b565b6060600480546101f290610870565b3360009081526001602090815260408083206001600160a01b0386168452909152812054828110156104075760405162461bcd60e51b815260206004820152602560248201527f45524332303a2064656372656173656420616c6c6f77616e63652062656c6f77604482015264207a65726f60d81b6064820152608401610319565b610414338585840361042b565b5060019392505050565b600061028233848461054f565b6001600160a01b03831661048d5760405162461bcd60e51b8152602060048201526024808201527f45524332303a20617070726f76652066726f6d20746865207a65726f206164646044820152637265737360e01b6064820152608401610319565b6001600160a01b0382166104ee5760405162461bcd60e51b815260206004820152602260248201527f45524332303a20617070726f766520746f20746865207a65726f206164647265604482015261737360f01b6064820152608401610319565b6001600160a01b0383811660008181526001602090815260408083209487168084529482529182902085905590518481527f8c5be1e5ebec7d5bd14f71427d1e84f3dd0314c0f7b2291e5b200ac8c7c3b925910160405180910390a3505050565b6001600160a01b0383166105b35760405162461bcd60e51b815260206004820152602560248201527f45524332303a207472616e736665722066726f6d20746865207a65726f206164604482015264647265737360d81b6064820152608401610319565b6001600160a01b0382166106155760405162461bcd60e51b815260206004820152602360248201527f45524332303a207472616e7366657220746f20746865207a65726f206164647260448201526265737360e81b6064820152608401610319565b6001600160a01b0383166000908152602081905260409020548181101561068d5760405162461bcd60e51b815260206004820152602660248201527f45524332303a207472616e7366657220616d6f756e7420657863656564732062604482015265616c616e636560d01b6064820152608401610319565b6001600160a01b038085166000908152602081905260408082208585039055918516815290812080548492906106c490849061084a565b92505081905550826001600160a01b0316846001600160a01b03167fddf252ad1be2c89b69c2b068fc378daa952ba7f163c4a11628f55a4df523b3ef8460405161071091815260200190565b60405180910390a350505050565b80356001600160a01b038116811461073557600080fd5b919050565b60006020828403121561074c57600080fd5b6107558261071e565b9392505050565b6000806040838503121561076f57600080fd5b6107788361071e565b91506107866020840161071e565b90509250929050565b6000806000606084860312156107a457600080fd5b6107ad8461071e565b92506107bb6020850161071e565b9150604084013590509250925092565b600080604083850312156107de57600080fd5b6107e78361071e565b946020939093013593505050565b600060208083528351808285015260005b8181101561082257858101830151858201604001528201610806565b81811115610834576000604083870101525b50601f01601f1916929092016040019392505050565b6000821982111561086b57634e487b7160e01b600052601160045260246000fd5b500190565b600181811c9082168061088457607f821691505b602082108114156108a557634e487b7160e01b600052602260045260246000fd5b5091905056fea2646970667358221220325411d18bd70eafc85c68f4b78e8353bf8d29ccff1b83da7cb99e557ef17cb064736f6c63430008060033",
  "linkReferences": {},
  "deployedLinkReferences": {}
}