{
  "_format": "hh-sol-artifact-1",
  "contractName": "ERC20Mock",
  "sourceName": "contracts/test/ERC20Mock.sol",
  "abi": [
    {
      "inputs": [
        {
          "internalType": "string",
          "name": "_name",
          "type": "string"
        },
        {
          "internalType": "string",
          "name": "_symbol",
          "type": "string"
        }
      ],
      "stateMutability": "nonpayable",
      "type": "constructor"
    },
    {
      "anonymous": false,
      "inputs": [
        {
          "indexed": true,
          "internalType": "address",
          "name": "owner",
          "type": "address"
        },
        {
          "indexed": true,
          "internalType": "address",
          "name": "spender",
          "type": "address"
        },
        {
          "indexed": false,
          "internalType": "uint256",
          "name": "value",
          "type": "uint256"
        }
      ],
      "name": "Approval",
      "type": "event"
    },
    {
      "anonymous": false,
      "inputs": [
        {
          "indexed": true,
          "internalType": "address",
          "name": "from",
          "type": "address"
        },
        {
          "indexed": true,
          "internalType": "address",
          "name": "to",
          "type": "address"
        },
        {
          "indexed": false,
          "internalType": "uint256",
          "name": "value",
          "type": "uint256"
        }
      ],
      "name": "Transfer",
      "type": "event"
    },
    {
      "inputs": [
        {
          "internalType": "address",
          "name": "owner",
          "type": "address"
        },
        {
          "internalType": "address",
          "name": "spender",
          "type": "address"
        }
      ],
      "name": "allowance",
      "outputs": [
        {
          "internalType": "uint256",
          "name": "",
          "type": "uint256"
        }
      ],
      "stateMutability": "view",
      "type": "function"
    },
    {
      "inputs": [
        {
          "internalType": "address",
          "name": "spender",
          "type": "address"
        },
        {
          "internalType": "uint256",
          "name": "amount",
          "type": "uint256"
        }
      ],
      "name": "approve",
      "outputs": [
        {
          "internalType": "bool",
          "name": "",
          "type": "bool"
        }
      ],
      "stateMutability": "nonpayable",
      "type": "function"
    },
    {
      "inputs": [
        {
          "internalType": "address",
          "name": "account",
          "type": "address"
        }
      ],
      "name": "balanceOf",
      "outputs": [
        {
          "internalType": "uint256",
          "name": "",
          "type": "uint256"
        }
      ],
      "stateMutability": "view",
      "type": "function"
    },
    {
      "inputs": [],
      "name": "decimals",
      "outputs": [
        {
          "internalType": "uint8",
          "name": "",
          "type": "uint8"
        }
      ],
      "stateMutability": "view",
      "type": "function"
    },
    {
      "inputs": [
        {
          "internalType": "address",
          "name": "spender",
          "type": "address"
        },
        {
          "internalType": "uint256",
          "name": "subtractedValue",
          "type": "uint256"
        }
      ],
      "name": "decreaseAllowance",
      "outputs": [
        {
          "internalType": "bool",
          "name": "",
          "type": "bool"
        }
      ],
      "stateMutability": "nonpayable",
      "type": "function"
    },
    {
      "inputs": [
        {
          "internalType": "address",
          "name": "spender",
          "type": "address"
        },
        {
          "internalType": "uint256",
          "name": "addedValue",
          "type": "uint256"
        }
      ],
      "name": "increaseAllowance",
      "outputs": [
        {
          "internalType": "bool",
          "name": "",
          "type": "bool"
        }
      ],
      "stateMutability": "nonpayable",
      "type": "function"
    },
    {
      "inputs": [],
      "name": "initialSupply",
      "outputs": [
        {
          "internalType": "uint256",
          "name": "",
          "type": "uint256"
        }
      ],
      "stateMutability": "view",
      "type": "function"
    },
    {
      "inputs": [],
      "name": "name",
      "outputs": [
        {
          "internalType": "string",
          "name": "",
          "type": "string"
        }
      ],
      "stateMutability": "view",
      "type": "function"
    },
    {
      "inputs": [],
      "name": "symbol",
      "outputs": [
        {
          "internalType": "string",
          "name": "",
          "type": "string"
        }
      ],
      "stateMutability": "view",
      "type": "function"
    },
    {
      "inputs": [],
      "name": "totalSupply",
      "outputs": [
        {
          "internalType": "uint256",
          "name": "",
          "type": "uint256"
        }
      ],
      "stateMutability": "view",
      "type": "function"
    },
    {
      "inputs": [
        {
          "internalType": "address",
          "name": "recipient",
          "type": "address"
        },
        {
          "internalType": "uint256",
          "name": "amount",
          "type": "uint256"
        }
      ],
      "name": "transfer",
      "outputs": [
        {
          "internalType": "bool",
          "name": "",
          "type": "bool"
        }
      ],
      "stateMutability": "nonpayable",
      "type": "function"
    },
    {
      "inputs": [
        {
          "internalType": "address",
          "name": "sender",
          "type": "address"
        },
        {
          "internalType": "address",
          "name": "recipient",
          "type": "address"
        },
        {
          "internalType": "uint256",
          "name": "amount",
          "type": "uint256"
        }
      ],
      "name": "transferFrom",
      "outputs": [
        {
          "internalType": "bool",
          "name": "",
          "type": "bool"
        }
      ],
      "stateMutability": "nonpayable",
      "type": "function"
    }
  ],
  "bytecode": "0x60806040523480156200001157600080fd5b5060405162000ca338038062000ca38339810160408190526200003491620002cf565b8151829082906200004d90600390602085019062000172565b5080516200006390600490602084019062000172565b505050620000823369043c33c19375648000006200008a60201b60201c565b5050620003b3565b6001600160a01b038216620000e55760405162461bcd60e51b815260206004820152601f60248201527f45524332303a206d696e7420746f20746865207a65726f206164647265737300604482015260640160405180910390fd5b8060026000828254620000f9919062000339565b90915550506001600160a01b038216600090815260208190526040812080548392906200012890849062000339565b90915550506040518181526001600160a01b038316906000907fddf252ad1be2c89b69c2b068fc378daa952ba7f163c4a11628f55a4df523b3ef9060200160405180910390a35050565b828054620001809062000360565b90600052602060002090601f016020900481019282620001a45760008555620001ef565b82601f10620001bf57805160ff1916838001178555620001ef565b82800160010185558215620001ef579182015b82811115620001ef578251825591602001919060010190620001d2565b50620001fd92915062000201565b5090565b5b80821115620001fd576000815560010162000202565b600082601f8301126200022a57600080fd5b81516001600160401b03808211156200024757620002476200039d565b604051601f8301601f19908116603f011681019082821181831017156200027257620002726200039d565b816040528381526020925086838588010111156200028f57600080fd5b600091505b83821015620002b3578582018301518183018401529082019062000294565b83821115620002c55760008385830101525b9695505050505050565b60008060408385031215620002e357600080fd5b82516001600160401b0380821115620002fb57600080fd5b620003098683870162000218565b935060208501519150808211156200032057600080fd5b506200032f8582860162000218565b9150509250929050565b600082198211156200035b57634e487b7160e01b600052601160045260246000fd5b500190565b600181811c908216806200037557607f821691505b602082108114156200039757634e487b7160e01b600052602260045260246000fd5b50919050565b634e487b7160e01b600052604160045260246000fd5b6108e080620003c36000396000f3fe608060405234801561001057600080fd5b50600436106100b45760003560e01c80633950935111610071578063395093511461013f57806370a082311461015257806395d89b411461017b578063a457c2d714610183578063a9059cbb14610196578063dd62ed3e146101a957600080fd5b806306fdde03146100b9578063095ea7b3146100d757806318160ddd146100fa57806323b872dd1461010c578063313ce5671461011f578063378dc3dc1461012e575b600080fd5b6100c16101e2565b6040516100ce91906107f4565b60405180910390f35b6100ea6100e53660046107ca565b610274565b60405190151581526020016100ce565b6002545b6040519081526020016100ce565b6100ea61011a36600461078e565b61028a565b604051601281526020016100ce565b6100fe69043c33c193756480000081565b6100ea61014d3660046107ca565b610339565b6100fe610160366004610739565b6001600160a01b031660009081526020819052604090205490565b6100c1610375565b6100ea6101913660046107ca565b610384565b6100ea6101a43660046107ca565b61041d565b6100fe6101b736600461075b565b6001600160a01b03918216600090815260016020908152604080832093909416825291909152205490565b6060600380546101f19061086f565b80601f016020809104026020016040519081016040528092919081815260200182805461021d9061086f565b801561026a5780601f1061023f5761010080835404028352916020019161026a565b820191906000526020600020905b81548152906001019060200180831161024d57829003601f168201915b5050505050905090565b600061028133848461042a565b50600192915050565b600061029784848461054e565b6001600160a01b0384166000908152600160209081526040808320338452909152902054828110156103215760405162461bcd60e51b815260206004820152602860248201527f45524332303a207472616e7366657220616d6f756e74206578636565647320616044820152676c6c6f77616e636560c01b60648201526084015b60405180910390fd5b61032e853385840361042a565b506001949350505050565b3360008181526001602090815260408083206001600160a01b03871684529091528120549091610281918590610370908690610849565b61042a565b6060600480546101f19061086f565b3360009081526001602090815260408083206001600160a01b0386168452909152812054828110156104065760405162461bcd60e51b815260206004820152602560248201527f45524332303a2064656372656173656420616c6c6f77616e63652062656c6f77604482015264207a65726f60d81b6064820152608401610318565b610413338585840361042a565b5060019392505050565b600061028133848461054e565b6001600160a01b03831661048c5760405162461bcd60e51b8152602060048201526024808201527f45524332303a20617070726f76652066726f6d20746865207a65726f206164646044820152637265737360e01b6064820152608401610318565b6001600160a01b0382166104ed5760405162461bcd60e51b815260206004820152602260248201527f45524332303a20617070726f766520746f20746865207a65726f206164647265604482015261737360f01b6064820152608401610318565b6001600160a01b0383811660008181526001602090815260408083209487168084529482529182902085905590518481527f8c5be1e5ebec7d5bd14f71427d1e84f3dd0314c0f7b2291e5b200ac8c7c3b925910160405180910390a3505050565b6001600160a01b0383166105b25760405162461bcd60e51b815260206004820152602560248201527f45524332303a207472616e736665722066726f6d20746865207a65726f206164604482015264647265737360d81b6064820152608401610318565b6001600160a01b0382166106145760405162461bcd60e51b815260206004820152602360248201527f45524332303a207472616e7366657220746f20746865207a65726f206164647260448201526265737360e81b6064820152608401610318565b6001600160a01b0383166000908152602081905260409020548181101561068c5760405162461bcd60e51b815260206004820152602660248201527f45524332303a207472616e7366657220616d6f756e7420657863656564732062604482015265616c616e636560d01b6064820152608401610318565b6001600160a01b038085166000908152602081905260408082208585039055918516815290812080548492906106c3908490610849565b92505081905550826001600160a01b0316846001600160a01b03167fddf252ad1be2c89b69c2b068fc378daa952ba7f163c4a11628f55a4df523b3ef8460405161070f91815260200190565b60405180910390a350505050565b80356001600160a01b038116811461073457600080fd5b919050565b60006020828403121561074b57600080fd5b6107548261071d565b9392505050565b6000806040838503121561076e57600080fd5b6107778361071d565b91506107856020840161071d565b90509250929050565b6000806000606084860312156107a357600080fd5b6107ac8461071d565b92506107ba6020850161071d565b9150604084013590509250925092565b600080604083850312156107dd57600080fd5b6107e68361071d565b946020939093013593505050565b600060208083528351808285015260005b8181101561082157858101830151858201604001528201610805565b81811115610833576000604083870101525b50601f01601f1916929092016040019392505050565b6000821982111561086a57634e487b7160e01b600052601160045260246000fd5b500190565b600181811c9082168061088357607f821691505b602082108114156108a457634e487b7160e01b600052602260045260246000fd5b5091905056fea26469706673582212207ef14395be804a195a89d9c9864dba8d0908e4efb19bb19ecc04264bd416e0fb64736f6c63430008060033",
  "linkReferences": {},
  "deployedLinkReferences": {}
}