{
  "_format": "hh-sol-artifact-1",
  "contractName": "ERC20Mock",
  "sourceName": "contracts/test/ERC20Mock.sol",
  "abi": [
    {
      "inputs": [
        {
          "internalType": "string",
          "name": "_name",
          "type": "string"
        },
        {
          "internalType": "string",
          "name": "_symbol",
          "type": "string"
        }
      ],
      "stateMutability": "nonpayable",
      "type": "constructor"
    },
    {
      "anonymous": false,
      "inputs": [
        {
          "indexed": true,
          "internalType": "address",
          "name": "owner",
          "type": "address"
        },
        {
          "indexed": true,
          "internalType": "address",
          "name": "spender",
          "type": "address"
        },
        {
          "indexed": false,
          "internalType": "uint256",
          "name": "value",
          "type": "uint256"
        }
      ],
      "name": "Approval",
      "type": "event"
    },
    {
      "anonymous": false,
      "inputs": [
        {
          "indexed": true,
          "internalType": "address",
          "name": "from",
          "type": "address"
        },
        {
          "indexed": true,
          "internalType": "address",
          "name": "to",
          "type": "address"
        },
        {
          "indexed": false,
          "internalType": "uint256",
          "name": "value",
          "type": "uint256"
        }
      ],
      "name": "Transfer",
      "type": "event"
    },
    {
      "inputs": [
        {
          "internalType": "address",
          "name": "owner",
          "type": "address"
        },
        {
          "internalType": "address",
          "name": "spender",
          "type": "address"
        }
      ],
      "name": "allowance",
      "outputs": [
        {
          "internalType": "uint256",
          "name": "",
          "type": "uint256"
        }
      ],
      "stateMutability": "view",
      "type": "function"
    },
    {
      "inputs": [
        {
          "internalType": "address",
          "name": "spender",
          "type": "address"
        },
        {
          "internalType": "uint256",
          "name": "amount",
          "type": "uint256"
        }
      ],
      "name": "approve",
      "outputs": [
        {
          "internalType": "bool",
          "name": "",
          "type": "bool"
        }
      ],
      "stateMutability": "nonpayable",
      "type": "function"
    },
    {
      "inputs": [
        {
          "internalType": "address",
          "name": "account",
          "type": "address"
        }
      ],
      "name": "balanceOf",
      "outputs": [
        {
          "internalType": "uint256",
          "name": "",
          "type": "uint256"
        }
      ],
      "stateMutability": "view",
      "type": "function"
    },
    {
      "inputs": [
        {
          "internalType": "bytes32",
          "name": "c__0xbc7b170d",
          "type": "bytes32"
        }
      ],
      "name": "c_0xbc7b170d",
      "outputs": [],
      "stateMutability": "pure",
      "type": "function"
    },
    {
      "inputs": [],
      "name": "decimals",
      "outputs": [
        {
          "internalType": "uint8",
          "name": "",
          "type": "uint8"
        }
      ],
      "stateMutability": "view",
      "type": "function"
    },
    {
      "inputs": [
        {
          "internalType": "address",
          "name": "spender",
          "type": "address"
        },
        {
          "internalType": "uint256",
          "name": "subtractedValue",
          "type": "uint256"
        }
      ],
      "name": "decreaseAllowance",
      "outputs": [
        {
          "internalType": "bool",
          "name": "",
          "type": "bool"
        }
      ],
      "stateMutability": "nonpayable",
      "type": "function"
    },
    {
      "inputs": [
        {
          "internalType": "address",
          "name": "spender",
          "type": "address"
        },
        {
          "internalType": "uint256",
          "name": "addedValue",
          "type": "uint256"
        }
      ],
      "name": "increaseAllowance",
      "outputs": [
        {
          "internalType": "bool",
          "name": "",
          "type": "bool"
        }
      ],
      "stateMutability": "nonpayable",
      "type": "function"
    },
    {
      "inputs": [],
      "name": "initialSupply",
      "outputs": [
        {
          "internalType": "uint256",
          "name": "",
          "type": "uint256"
        }
      ],
      "stateMutability": "view",
      "type": "function"
    },
    {
      "inputs": [],
      "name": "name",
      "outputs": [
        {
          "internalType": "string",
          "name": "",
          "type": "string"
        }
      ],
      "stateMutability": "view",
      "type": "function"
    },
    {
      "inputs": [],
      "name": "symbol",
      "outputs": [
        {
          "internalType": "string",
          "name": "",
          "type": "string"
        }
      ],
      "stateMutability": "view",
      "type": "function"
    },
    {
      "inputs": [],
      "name": "totalSupply",
      "outputs": [
        {
          "internalType": "uint256",
          "name": "",
          "type": "uint256"
        }
      ],
      "stateMutability": "view",
      "type": "function"
    },
    {
      "inputs": [
        {
          "internalType": "address",
          "name": "recipient",
          "type": "address"
        },
        {
          "internalType": "uint256",
          "name": "amount",
          "type": "uint256"
        }
      ],
      "name": "transfer",
      "outputs": [
        {
          "internalType": "bool",
          "name": "",
          "type": "bool"
        }
      ],
      "stateMutability": "nonpayable",
      "type": "function"
    },
    {
      "inputs": [
        {
          "internalType": "address",
          "name": "sender",
          "type": "address"
        },
        {
          "internalType": "address",
          "name": "recipient",
          "type": "address"
        },
        {
          "internalType": "uint256",
          "name": "amount",
          "type": "uint256"
        }
      ],
      "name": "transferFrom",
      "outputs": [
        {
          "internalType": "bool",
          "name": "",
          "type": "bool"
        }
      ],
      "stateMutability": "nonpayable",
      "type": "function"
    }
  ],
  "bytecode": "0x60806040523480156200001157600080fd5b5060405162001bbf38038062001bbf8339818101604052810190620000379190620003e1565b8181816003908051906020019062000051929190620002b3565b5080600490805190602001906200006a929190620002b3565b505050620000a17f182062117fa0afff024318559074710577835b1d9cc1c3678538d6b5a7d634c760001b6200012d60201b60201c565b620000d57fe1ab9d5f3b2b61cee2391896949e8767f4a804b0a0d9446b015054f04aad9a5260001b6200012d60201b60201c565b620001097ff3126ff4dfde8e0f8acd860c068817b387bf676d8b6a1f20faffb27701a08e2960001b6200012d60201b60201c565b620001253369043c33c19375648000006200013060201b60201c565b505062000731565b50565b600073ffffffffffffffffffffffffffffffffffffffff168273ffffffffffffffffffffffffffffffffffffffff161415620001a3576040517f08c379a00000000000000000000000000000000000000000000000000000000081526004016200019a906200049e565b60405180910390fd5b620001b760008383620002a960201b60201c565b8060026000828254620001cb91906200054d565b92505081905550806000808473ffffffffffffffffffffffffffffffffffffffff1673ffffffffffffffffffffffffffffffffffffffff16815260200190815260200160002060008282546200022291906200054d565b925050819055508173ffffffffffffffffffffffffffffffffffffffff16600073ffffffffffffffffffffffffffffffffffffffff167fddf252ad1be2c89b69c2b068fc378daa952ba7f163c4a11628f55a4df523b3ef83604051620002899190620004c0565b60405180910390a3620002a560008383620002ae60201b60201c565b5050565b505050565b505050565b828054620002c190620005ea565b90600052602060002090601f016020900481019282620002e5576000855562000331565b82601f106200030057805160ff191683800117855562000331565b8280016001018555821562000331579182015b828111156200033057825182559160200191906001019062000313565b5b50905062000340919062000344565b5090565b5b808211156200035f57600081600090555060010162000345565b5090565b60006200037a620003748462000506565b620004dd565b905082815260208101848484011115620003995762000398620006e8565b5b620003a6848285620005b4565b509392505050565b600082601f830112620003c657620003c5620006e3565b5b8151620003d884826020860162000363565b91505092915050565b60008060408385031215620003fb57620003fa620006f2565b5b600083015167ffffffffffffffff8111156200041c576200041b620006ed565b5b6200042a85828601620003ae565b925050602083015167ffffffffffffffff8111156200044e576200044d620006ed565b5b6200045c85828601620003ae565b9150509250929050565b600062000475601f836200053c565b9150620004828262000708565b602082019050919050565b6200049881620005aa565b82525050565b60006020820190508181036000830152620004b98162000466565b9050919050565b6000602082019050620004d760008301846200048d565b92915050565b6000620004e9620004fc565b9050620004f7828262000620565b919050565b6000604051905090565b600067ffffffffffffffff821115620005245762000523620006b4565b5b6200052f82620006f7565b9050602081019050919050565b600082825260208201905092915050565b60006200055a82620005aa565b91506200056783620005aa565b9250827fffffffffffffffffffffffffffffffffffffffffffffffffffffffffffffffff038211156200059f576200059e62000656565b5b828201905092915050565b6000819050919050565b60005b83811015620005d4578082015181840152602081019050620005b7565b83811115620005e4576000848401525b50505050565b600060028204905060018216806200060357607f821691505b602082108114156200061a576200061962000685565b5b50919050565b6200062b82620006f7565b810181811067ffffffffffffffff821117156200064d576200064c620006b4565b5b80604052505050565b7f4e487b7100000000000000000000000000000000000000000000000000000000600052601160045260246000fd5b7f4e487b7100000000000000000000000000000000000000000000000000000000600052602260045260246000fd5b7f4e487b7100000000000000000000000000000000000000000000000000000000600052604160045260246000fd5b600080fd5b600080fd5b600080fd5b600080fd5b6000601f19601f8301169050919050565b7f45524332303a206d696e7420746f20746865207a65726f206164647265737300600082015250565b61147e80620007416000396000f3fe608060405234801561001057600080fd5b50600436106100cf5760003560e01c8063395093511161008c57806395d89b411161006657806395d89b4114610228578063a457c2d714610246578063a9059cbb14610276578063dd62ed3e146102a6576100cf565b806339509351146101ac57806370a08231146101dc5780638d18b5251461020c576100cf565b806306fdde03146100d4578063095ea7b3146100f257806318160ddd1461012257806323b872dd14610140578063313ce56714610170578063378dc3dc1461018e575b600080fd5b6100dc6102d6565b6040516100e99190610ef8565b60405180910390f35b61010c60048036038101906101079190610d15565b610368565b6040516101199190610edd565b60405180910390f35b61012a610386565b6040516101379190610ffa565b60405180910390f35b61015a60048036038101906101559190610cc2565b610390565b6040516101679190610edd565b60405180910390f35b610178610488565b6040516101859190611015565b60405180910390f35b610196610491565b6040516101a39190610ffa565b60405180910390f35b6101c660048036038101906101c19190610d15565b61049f565b6040516101d39190610edd565b60405180910390f35b6101f660048036038101906101f19190610c55565b61054b565b6040516102039190610ffa565b60405180910390f35b61022660048036038101906102219190610d55565b610593565b005b610230610596565b60405161023d9190610ef8565b60405180910390f35b610260600480360381019061025b9190610d15565b610628565b60405161026d9190610edd565b60405180910390f35b610290600480360381019061028b9190610d15565b610713565b60405161029d9190610edd565b60405180910390f35b6102c060048036038101906102bb9190610c82565b610731565b6040516102cd9190610ffa565b60405180910390f35b6060600380546102e590611134565b80601f016020809104026020016040519081016040528092919081815260200182805461031190611134565b801561035e5780601f106103335761010080835404028352916020019161035e565b820191906000526020600020905b81548152906001019060200180831161034157829003601f168201915b5050505050905090565b600061037c6103756107b8565b84846107c0565b6001905092915050565b6000600254905090565b600061039d84848461098b565b6000600160008673ffffffffffffffffffffffffffffffffffffffff1673ffffffffffffffffffffffffffffffffffffffff16815260200190815260200160002060006103e86107b8565b73ffffffffffffffffffffffffffffffffffffffff1673ffffffffffffffffffffffffffffffffffffffff16815260200190815260200160002054905082811015610468576040517f08c379a000000000000000000000000000000000000000000000000000000000815260040161045f90610f7a565b60405180910390fd5b61047c856104746107b8565b8584036107c0565b60019150509392505050565b60006012905090565b69043c33c193756480000081565b60006105416104ac6107b8565b8484600160006104ba6107b8565b73ffffffffffffffffffffffffffffffffffffffff1673ffffffffffffffffffffffffffffffffffffffff16815260200190815260200160002060008873ffffffffffffffffffffffffffffffffffffffff1673ffffffffffffffffffffffffffffffffffffffff1681526020019081526020016000205461053c919061104c565b6107c0565b6001905092915050565b60008060008373ffffffffffffffffffffffffffffffffffffffff1673ffffffffffffffffffffffffffffffffffffffff168152602001908152602001600020549050919050565b50565b6060600480546105a590611134565b80601f01602080910402602001604051908101604052809291908181526020018280546105d190611134565b801561061e5780601f106105f35761010080835404028352916020019161061e565b820191906000526020600020905b81548152906001019060200180831161060157829003601f168201915b5050505050905090565b600080600160006106376107b8565b73ffffffffffffffffffffffffffffffffffffffff1673ffffffffffffffffffffffffffffffffffffffff16815260200190815260200160002060008573ffffffffffffffffffffffffffffffffffffffff1673ffffffffffffffffffffffffffffffffffffffff168152602001908152602001600020549050828110156106f4576040517f08c379a00000000000000000000000000000000000000000000000000000000081526004016106eb90610fda565b60405180910390fd5b6107086106ff6107b8565b858584036107c0565b600191505092915050565b60006107276107206107b8565b848461098b565b6001905092915050565b6000600160008473ffffffffffffffffffffffffffffffffffffffff1673ffffffffffffffffffffffffffffffffffffffff16815260200190815260200160002060008373ffffffffffffffffffffffffffffffffffffffff1673ffffffffffffffffffffffffffffffffffffffff16815260200190815260200160002054905092915050565b600033905090565b600073ffffffffffffffffffffffffffffffffffffffff168373ffffffffffffffffffffffffffffffffffffffff161415610830576040517f08c379a000000000000000000000000000000000000000000000000000000000815260040161082790610fba565b60405180910390fd5b600073ffffffffffffffffffffffffffffffffffffffff168273ffffffffffffffffffffffffffffffffffffffff1614156108a0576040517f08c379a000000000000000000000000000000000000000000000000000000000815260040161089790610f3a565b60405180910390fd5b80600160008573ffffffffffffffffffffffffffffffffffffffff1673ffffffffffffffffffffffffffffffffffffffff16815260200190815260200160002060008473ffffffffffffffffffffffffffffffffffffffff1673ffffffffffffffffffffffffffffffffffffffff168152602001908152602001600020819055508173ffffffffffffffffffffffffffffffffffffffff168373ffffffffffffffffffffffffffffffffffffffff167f8c5be1e5ebec7d5bd14f71427d1e84f3dd0314c0f7b2291e5b200ac8c7c3b9258360405161097e9190610ffa565b60405180910390a3505050565b600073ffffffffffffffffffffffffffffffffffffffff168373ffffffffffffffffffffffffffffffffffffffff1614156109fb576040517f08c379a00000000000000000000000000000000000000000000000000000000081526004016109f290610f9a565b60405180910390fd5b600073ffffffffffffffffffffffffffffffffffffffff168273ffffffffffffffffffffffffffffffffffffffff161415610a6b576040517f08c379a0000000000000000000000000000000000000000000000000000000008152600401610a6290610f1a565b60405180910390fd5b610a76838383610c0c565b60008060008573ffffffffffffffffffffffffffffffffffffffff1673ffffffffffffffffffffffffffffffffffffffff16815260200190815260200160002054905081811015610afc576040517f08c379a0000000000000000000000000000000000000000000000000000000008152600401610af390610f5a565b60405180910390fd5b8181036000808673ffffffffffffffffffffffffffffffffffffffff1673ffffffffffffffffffffffffffffffffffffffff16815260200190815260200160002081905550816000808573ffffffffffffffffffffffffffffffffffffffff1673ffffffffffffffffffffffffffffffffffffffff1681526020019081526020016000206000828254610b8f919061104c565b925050819055508273ffffffffffffffffffffffffffffffffffffffff168473ffffffffffffffffffffffffffffffffffffffff167fddf252ad1be2c89b69c2b068fc378daa952ba7f163c4a11628f55a4df523b3ef84604051610bf39190610ffa565b60405180910390a3610c06848484610c11565b50505050565b505050565b505050565b600081359050610c2581611403565b92915050565b600081359050610c3a8161141a565b92915050565b600081359050610c4f81611431565b92915050565b600060208284031215610c6b57610c6a6111c4565b5b6000610c7984828501610c16565b91505092915050565b60008060408385031215610c9957610c986111c4565b5b6000610ca785828601610c16565b9250506020610cb885828601610c16565b9150509250929050565b600080600060608486031215610cdb57610cda6111c4565b5b6000610ce986828701610c16565b9350506020610cfa86828701610c16565b9250506040610d0b86828701610c40565b9150509250925092565b60008060408385031215610d2c57610d2b6111c4565b5b6000610d3a85828601610c16565b9250506020610d4b85828601610c40565b9150509250929050565b600060208284031215610d6b57610d6a6111c4565b5b6000610d7984828501610c2b565b91505092915050565b610d8b816110b4565b82525050565b6000610d9c82611030565b610da6818561103b565b9350610db6818560208601611101565b610dbf816111c9565b840191505092915050565b6000610dd760238361103b565b9150610de2826111da565b604082019050919050565b6000610dfa60228361103b565b9150610e0582611229565b604082019050919050565b6000610e1d60268361103b565b9150610e2882611278565b604082019050919050565b6000610e4060288361103b565b9150610e4b826112c7565b604082019050919050565b6000610e6360258361103b565b9150610e6e82611316565b604082019050919050565b6000610e8660248361103b565b9150610e9182611365565b604082019050919050565b6000610ea960258361103b565b9150610eb4826113b4565b604082019050919050565b610ec8816110ea565b82525050565b610ed7816110f4565b82525050565b6000602082019050610ef26000830184610d82565b92915050565b60006020820190508181036000830152610f128184610d91565b905092915050565b60006020820190508181036000830152610f3381610dca565b9050919050565b60006020820190508181036000830152610f5381610ded565b9050919050565b60006020820190508181036000830152610f7381610e10565b9050919050565b60006020820190508181036000830152610f9381610e33565b9050919050565b60006020820190508181036000830152610fb381610e56565b9050919050565b60006020820190508181036000830152610fd381610e79565b9050919050565b60006020820190508181036000830152610ff381610e9c565b9050919050565b600060208201905061100f6000830184610ebf565b92915050565b600060208201905061102a6000830184610ece565b92915050565b600081519050919050565b600082825260208201905092915050565b6000611057826110ea565b9150611062836110ea565b9250827fffffffffffffffffffffffffffffffffffffffffffffffffffffffffffffffff0382111561109757611096611166565b5b828201905092915050565b60006110ad826110ca565b9050919050565b60008115159050919050565b6000819050919050565b600073ffffffffffffffffffffffffffffffffffffffff82169050919050565b6000819050919050565b600060ff82169050919050565b60005b8381101561111f578082015181840152602081019050611104565b8381111561112e576000848401525b50505050565b6000600282049050600182168061114c57607f821691505b602082108114156111605761115f611195565b5b50919050565b7f4e487b7100000000000000000000000000000000000000000000000000000000600052601160045260246000fd5b7f4e487b7100000000000000000000000000000000000000000000000000000000600052602260045260246000fd5b600080fd5b6000601f19601f8301169050919050565b7f45524332303a207472616e7366657220746f20746865207a65726f206164647260008201527f6573730000000000000000000000000000000000000000000000000000000000602082015250565b7f45524332303a20617070726f766520746f20746865207a65726f20616464726560008201527f7373000000000000000000000000000000000000000000000000000000000000602082015250565b7f45524332303a207472616e7366657220616d6f756e742065786365656473206260008201527f616c616e63650000000000000000000000000000000000000000000000000000602082015250565b7f45524332303a207472616e7366657220616d6f756e742065786365656473206160008201527f6c6c6f77616e6365000000000000000000000000000000000000000000000000602082015250565b7f45524332303a207472616e736665722066726f6d20746865207a65726f20616460008201527f6472657373000000000000000000000000000000000000000000000000000000602082015250565b7f45524332303a20617070726f76652066726f6d20746865207a65726f2061646460008201527f7265737300000000000000000000000000000000000000000000000000000000602082015250565b7f45524332303a2064656372656173656420616c6c6f77616e63652062656c6f7760008201527f207a65726f000000000000000000000000000000000000000000000000000000602082015250565b61140c816110a2565b811461141757600080fd5b50565b611423816110c0565b811461142e57600080fd5b50565b61143a816110ea565b811461144557600080fd5b5056fea26469706673582212202f0df37885c5a31796ebeb563e24acf5b70e4d34b31aaa19ae3391763bf6d47864736f6c63430008060033",
  "linkReferences": {},
  "deployedLinkReferences": {}
}