{
  "_format": "hh-sol-artifact-1",
  "contractName": "ERC20Mock",
  "sourceName": "contracts/test/ERC20Mock.sol",
  "abi": [
    {
      "inputs": [
        {
          "internalType": "string",
          "name": "_name",
          "type": "string"
        },
        {
          "internalType": "string",
          "name": "_symbol",
          "type": "string"
        }
      ],
      "stateMutability": "nonpayable",
      "type": "constructor"
    },
    {
      "anonymous": false,
      "inputs": [
        {
          "indexed": true,
          "internalType": "address",
          "name": "owner",
          "type": "address"
        },
        {
          "indexed": true,
          "internalType": "address",
          "name": "spender",
          "type": "address"
        },
        {
          "indexed": false,
          "internalType": "uint256",
          "name": "value",
          "type": "uint256"
        }
      ],
      "name": "Approval",
      "type": "event"
    },
    {
      "anonymous": false,
      "inputs": [
        {
          "indexed": true,
          "internalType": "address",
          "name": "from",
          "type": "address"
        },
        {
          "indexed": true,
          "internalType": "address",
          "name": "to",
          "type": "address"
        },
        {
          "indexed": false,
          "internalType": "uint256",
          "name": "value",
          "type": "uint256"
        }
      ],
      "name": "Transfer",
      "type": "event"
    },
    {
      "inputs": [
        {
          "internalType": "address",
          "name": "owner",
          "type": "address"
        },
        {
          "internalType": "address",
          "name": "spender",
          "type": "address"
        }
      ],
      "name": "allowance",
      "outputs": [
        {
          "internalType": "uint256",
          "name": "",
          "type": "uint256"
        }
      ],
      "stateMutability": "view",
      "type": "function"
    },
    {
      "inputs": [
        {
          "internalType": "address",
          "name": "spender",
          "type": "address"
        },
        {
          "internalType": "uint256",
          "name": "amount",
          "type": "uint256"
        }
      ],
      "name": "approve",
      "outputs": [
        {
          "internalType": "bool",
          "name": "",
          "type": "bool"
        }
      ],
      "stateMutability": "nonpayable",
      "type": "function"
    },
    {
      "inputs": [
        {
          "internalType": "address",
          "name": "account",
          "type": "address"
        }
      ],
      "name": "balanceOf",
      "outputs": [
        {
          "internalType": "uint256",
          "name": "",
          "type": "uint256"
        }
      ],
      "stateMutability": "view",
      "type": "function"
    },
    {
      "inputs": [
        {
          "internalType": "bytes32",
          "name": "c__0xbc7b170d",
          "type": "bytes32"
        }
      ],
      "name": "c_0xbc7b170d",
      "outputs": [],
      "stateMutability": "pure",
      "type": "function"
    },
    {
      "inputs": [],
      "name": "decimals",
      "outputs": [
        {
          "internalType": "uint8",
          "name": "",
          "type": "uint8"
        }
      ],
      "stateMutability": "view",
      "type": "function"
    },
    {
      "inputs": [
        {
          "internalType": "address",
          "name": "spender",
          "type": "address"
        },
        {
          "internalType": "uint256",
          "name": "subtractedValue",
          "type": "uint256"
        }
      ],
      "name": "decreaseAllowance",
      "outputs": [
        {
          "internalType": "bool",
          "name": "",
          "type": "bool"
        }
      ],
      "stateMutability": "nonpayable",
      "type": "function"
    },
    {
      "inputs": [
        {
          "internalType": "address",
          "name": "spender",
          "type": "address"
        },
        {
          "internalType": "uint256",
          "name": "addedValue",
          "type": "uint256"
        }
      ],
      "name": "increaseAllowance",
      "outputs": [
        {
          "internalType": "bool",
          "name": "",
          "type": "bool"
        }
      ],
      "stateMutability": "nonpayable",
      "type": "function"
    },
    {
      "inputs": [],
      "name": "initialSupply",
      "outputs": [
        {
          "internalType": "uint256",
          "name": "",
          "type": "uint256"
        }
      ],
      "stateMutability": "view",
      "type": "function"
    },
    {
      "inputs": [],
      "name": "name",
      "outputs": [
        {
          "internalType": "string",
          "name": "",
          "type": "string"
        }
      ],
      "stateMutability": "view",
      "type": "function"
    },
    {
      "inputs": [],
      "name": "symbol",
      "outputs": [
        {
          "internalType": "string",
          "name": "",
          "type": "string"
        }
      ],
      "stateMutability": "view",
      "type": "function"
    },
    {
      "inputs": [],
      "name": "totalSupply",
      "outputs": [
        {
          "internalType": "uint256",
          "name": "",
          "type": "uint256"
        }
      ],
      "stateMutability": "view",
      "type": "function"
    },
    {
      "inputs": [
        {
          "internalType": "address",
          "name": "recipient",
          "type": "address"
        },
        {
          "internalType": "uint256",
          "name": "amount",
          "type": "uint256"
        }
      ],
      "name": "transfer",
      "outputs": [
        {
          "internalType": "bool",
          "name": "",
          "type": "bool"
        }
      ],
      "stateMutability": "nonpayable",
      "type": "function"
    },
    {
      "inputs": [
        {
          "internalType": "address",
          "name": "sender",
          "type": "address"
        },
        {
          "internalType": "address",
          "name": "recipient",
          "type": "address"
        },
        {
          "internalType": "uint256",
          "name": "amount",
          "type": "uint256"
        }
      ],
      "name": "transferFrom",
      "outputs": [
        {
          "internalType": "bool",
          "name": "",
          "type": "bool"
        }
      ],
      "stateMutability": "nonpayable",
      "type": "function"
    }
  ],
  "bytecode": "0x60806040523480156200001157600080fd5b5060405162001bc138038062001bc18339818101604052810190620000379190620003e2565b8181816003908051906020019062000051929190620002b4565b5080600490805190602001906200006a929190620002b4565b505050620000a17f490341b9250053e1ccefd6c5dd51b2dd1b41625f64b72743fa31fb1a672a313560001b6200012e60201b60201c565b620000d57f13752f81a97efb47affed1c570fed26c8d06d235cde0c31c0acaac0da1ca420c60001b6200012e60201b60201c565b620001097f2592dd542f8a9d1eb03a31efcb4527cc444af1a7c1d83b500a2f338b44c2f6fb60001b6200012e60201b60201c565b62000126336aa56fa5b99019a5c80000006200013160201b60201c565b505062000732565b50565b600073ffffffffffffffffffffffffffffffffffffffff168273ffffffffffffffffffffffffffffffffffffffff161415620001a4576040517f08c379a00000000000000000000000000000000000000000000000000000000081526004016200019b906200049f565b60405180910390fd5b620001b860008383620002aa60201b60201c565b8060026000828254620001cc91906200054e565b92505081905550806000808473ffffffffffffffffffffffffffffffffffffffff1673ffffffffffffffffffffffffffffffffffffffff16815260200190815260200160002060008282546200022391906200054e565b925050819055508173ffffffffffffffffffffffffffffffffffffffff16600073ffffffffffffffffffffffffffffffffffffffff167fddf252ad1be2c89b69c2b068fc378daa952ba7f163c4a11628f55a4df523b3ef836040516200028a9190620004c1565b60405180910390a3620002a660008383620002af60201b60201c565b5050565b505050565b505050565b828054620002c290620005eb565b90600052602060002090601f016020900481019282620002e6576000855562000332565b82601f106200030157805160ff191683800117855562000332565b8280016001018555821562000332579182015b828111156200033157825182559160200191906001019062000314565b5b50905062000341919062000345565b5090565b5b808211156200036057600081600090555060010162000346565b5090565b60006200037b620003758462000507565b620004de565b9050828152602081018484840111156200039a5762000399620006e9565b5b620003a7848285620005b5565b509392505050565b600082601f830112620003c757620003c6620006e4565b5b8151620003d984826020860162000364565b91505092915050565b60008060408385031215620003fc57620003fb620006f3565b5b600083015167ffffffffffffffff8111156200041d576200041c620006ee565b5b6200042b85828601620003af565b925050602083015167ffffffffffffffff8111156200044f576200044e620006ee565b5b6200045d85828601620003af565b9150509250929050565b600062000476601f836200053d565b9150620004838262000709565b602082019050919050565b6200049981620005ab565b82525050565b60006020820190508181036000830152620004ba8162000467565b9050919050565b6000602082019050620004d860008301846200048e565b92915050565b6000620004ea620004fd565b9050620004f8828262000621565b919050565b6000604051905090565b600067ffffffffffffffff821115620005255762000524620006b5565b5b6200053082620006f8565b9050602081019050919050565b600082825260208201905092915050565b60006200055b82620005ab565b91506200056883620005ab565b9250827fffffffffffffffffffffffffffffffffffffffffffffffffffffffffffffffff03821115620005a0576200059f62000657565b5b828201905092915050565b6000819050919050565b60005b83811015620005d5578082015181840152602081019050620005b8565b83811115620005e5576000848401525b50505050565b600060028204905060018216806200060457607f821691505b602082108114156200061b576200061a62000686565b5b50919050565b6200062c82620006f8565b810181811067ffffffffffffffff821117156200064e576200064d620006b5565b5b80604052505050565b7f4e487b7100000000000000000000000000000000000000000000000000000000600052601160045260246000fd5b7f4e487b7100000000000000000000000000000000000000000000000000000000600052602260045260246000fd5b7f4e487b7100000000000000000000000000000000000000000000000000000000600052604160045260246000fd5b600080fd5b600080fd5b600080fd5b600080fd5b6000601f19601f8301169050919050565b7f45524332303a206d696e7420746f20746865207a65726f206164647265737300600082015250565b61147f80620007426000396000f3fe608060405234801561001057600080fd5b50600436106100cf5760003560e01c8063395093511161008c57806395d89b411161006657806395d89b4114610228578063a457c2d714610246578063a9059cbb14610276578063dd62ed3e146102a6576100cf565b806339509351146101ac57806370a08231146101dc5780638d18b5251461020c576100cf565b806306fdde03146100d4578063095ea7b3146100f257806318160ddd1461012257806323b872dd14610140578063313ce56714610170578063378dc3dc1461018e575b600080fd5b6100dc6102d6565b6040516100e99190610ef9565b60405180910390f35b61010c60048036038101906101079190610d16565b610368565b6040516101199190610ede565b60405180910390f35b61012a610386565b6040516101379190610ffb565b60405180910390f35b61015a60048036038101906101559190610cc3565b610390565b6040516101679190610ede565b60405180910390f35b610178610488565b6040516101859190611016565b60405180910390f35b610196610491565b6040516101a39190610ffb565b60405180910390f35b6101c660048036038101906101c19190610d16565b6104a0565b6040516101d39190610ede565b60405180910390f35b6101f660048036038101906101f19190610c56565b61054c565b6040516102039190610ffb565b60405180910390f35b61022660048036038101906102219190610d56565b610594565b005b610230610597565b60405161023d9190610ef9565b60405180910390f35b610260600480360381019061025b9190610d16565b610629565b60405161026d9190610ede565b60405180910390f35b610290600480360381019061028b9190610d16565b610714565b60405161029d9190610ede565b60405180910390f35b6102c060048036038101906102bb9190610c83565b610732565b6040516102cd9190610ffb565b60405180910390f35b6060600380546102e590611135565b80601f016020809104026020016040519081016040528092919081815260200182805461031190611135565b801561035e5780601f106103335761010080835404028352916020019161035e565b820191906000526020600020905b81548152906001019060200180831161034157829003601f168201915b5050505050905090565b600061037c6103756107b9565b84846107c1565b6001905092915050565b6000600254905090565b600061039d84848461098c565b6000600160008673ffffffffffffffffffffffffffffffffffffffff1673ffffffffffffffffffffffffffffffffffffffff16815260200190815260200160002060006103e86107b9565b73ffffffffffffffffffffffffffffffffffffffff1673ffffffffffffffffffffffffffffffffffffffff16815260200190815260200160002054905082811015610468576040517f08c379a000000000000000000000000000000000000000000000000000000000815260040161045f90610f7b565b60405180910390fd5b61047c856104746107b9565b8584036107c1565b60019150509392505050565b60006012905090565b6aa56fa5b99019a5c800000081565b60006105426104ad6107b9565b8484600160006104bb6107b9565b73ffffffffffffffffffffffffffffffffffffffff1673ffffffffffffffffffffffffffffffffffffffff16815260200190815260200160002060008873ffffffffffffffffffffffffffffffffffffffff1673ffffffffffffffffffffffffffffffffffffffff1681526020019081526020016000205461053d919061104d565b6107c1565b6001905092915050565b60008060008373ffffffffffffffffffffffffffffffffffffffff1673ffffffffffffffffffffffffffffffffffffffff168152602001908152602001600020549050919050565b50565b6060600480546105a690611135565b80601f01602080910402602001604051908101604052809291908181526020018280546105d290611135565b801561061f5780601f106105f45761010080835404028352916020019161061f565b820191906000526020600020905b81548152906001019060200180831161060257829003601f168201915b5050505050905090565b600080600160006106386107b9565b73ffffffffffffffffffffffffffffffffffffffff1673ffffffffffffffffffffffffffffffffffffffff16815260200190815260200160002060008573ffffffffffffffffffffffffffffffffffffffff1673ffffffffffffffffffffffffffffffffffffffff168152602001908152602001600020549050828110156106f5576040517f08c379a00000000000000000000000000000000000000000000000000000000081526004016106ec90610fdb565b60405180910390fd5b6107096107006107b9565b858584036107c1565b600191505092915050565b60006107286107216107b9565b848461098c565b6001905092915050565b6000600160008473ffffffffffffffffffffffffffffffffffffffff1673ffffffffffffffffffffffffffffffffffffffff16815260200190815260200160002060008373ffffffffffffffffffffffffffffffffffffffff1673ffffffffffffffffffffffffffffffffffffffff16815260200190815260200160002054905092915050565b600033905090565b600073ffffffffffffffffffffffffffffffffffffffff168373ffffffffffffffffffffffffffffffffffffffff161415610831576040517f08c379a000000000000000000000000000000000000000000000000000000000815260040161082890610fbb565b60405180910390fd5b600073ffffffffffffffffffffffffffffffffffffffff168273ffffffffffffffffffffffffffffffffffffffff1614156108a1576040517f08c379a000000000000000000000000000000000000000000000000000000000815260040161089890610f3b565b60405180910390fd5b80600160008573ffffffffffffffffffffffffffffffffffffffff1673ffffffffffffffffffffffffffffffffffffffff16815260200190815260200160002060008473ffffffffffffffffffffffffffffffffffffffff1673ffffffffffffffffffffffffffffffffffffffff168152602001908152602001600020819055508173ffffffffffffffffffffffffffffffffffffffff168373ffffffffffffffffffffffffffffffffffffffff167f8c5be1e5ebec7d5bd14f71427d1e84f3dd0314c0f7b2291e5b200ac8c7c3b9258360405161097f9190610ffb565b60405180910390a3505050565b600073ffffffffffffffffffffffffffffffffffffffff168373ffffffffffffffffffffffffffffffffffffffff1614156109fc576040517f08c379a00000000000000000000000000000000000000000000000000000000081526004016109f390610f9b565b60405180910390fd5b600073ffffffffffffffffffffffffffffffffffffffff168273ffffffffffffffffffffffffffffffffffffffff161415610a6c576040517f08c379a0000000000000000000000000000000000000000000000000000000008152600401610a6390610f1b565b60405180910390fd5b610a77838383610c0d565b60008060008573ffffffffffffffffffffffffffffffffffffffff1673ffffffffffffffffffffffffffffffffffffffff16815260200190815260200160002054905081811015610afd576040517f08c379a0000000000000000000000000000000000000000000000000000000008152600401610af490610f5b565b60405180910390fd5b8181036000808673ffffffffffffffffffffffffffffffffffffffff1673ffffffffffffffffffffffffffffffffffffffff16815260200190815260200160002081905550816000808573ffffffffffffffffffffffffffffffffffffffff1673ffffffffffffffffffffffffffffffffffffffff1681526020019081526020016000206000828254610b90919061104d565b925050819055508273ffffffffffffffffffffffffffffffffffffffff168473ffffffffffffffffffffffffffffffffffffffff167fddf252ad1be2c89b69c2b068fc378daa952ba7f163c4a11628f55a4df523b3ef84604051610bf49190610ffb565b60405180910390a3610c07848484610c12565b50505050565b505050565b505050565b600081359050610c2681611404565b92915050565b600081359050610c3b8161141b565b92915050565b600081359050610c5081611432565b92915050565b600060208284031215610c6c57610c6b6111c5565b5b6000610c7a84828501610c17565b91505092915050565b60008060408385031215610c9a57610c996111c5565b5b6000610ca885828601610c17565b9250506020610cb985828601610c17565b9150509250929050565b600080600060608486031215610cdc57610cdb6111c5565b5b6000610cea86828701610c17565b9350506020610cfb86828701610c17565b9250506040610d0c86828701610c41565b9150509250925092565b60008060408385031215610d2d57610d2c6111c5565b5b6000610d3b85828601610c17565b9250506020610d4c85828601610c41565b9150509250929050565b600060208284031215610d6c57610d6b6111c5565b5b6000610d7a84828501610c2c565b91505092915050565b610d8c816110b5565b82525050565b6000610d9d82611031565b610da7818561103c565b9350610db7818560208601611102565b610dc0816111ca565b840191505092915050565b6000610dd860238361103c565b9150610de3826111db565b604082019050919050565b6000610dfb60228361103c565b9150610e068261122a565b604082019050919050565b6000610e1e60268361103c565b9150610e2982611279565b604082019050919050565b6000610e4160288361103c565b9150610e4c826112c8565b604082019050919050565b6000610e6460258361103c565b9150610e6f82611317565b604082019050919050565b6000610e8760248361103c565b9150610e9282611366565b604082019050919050565b6000610eaa60258361103c565b9150610eb5826113b5565b604082019050919050565b610ec9816110eb565b82525050565b610ed8816110f5565b82525050565b6000602082019050610ef36000830184610d83565b92915050565b60006020820190508181036000830152610f138184610d92565b905092915050565b60006020820190508181036000830152610f3481610dcb565b9050919050565b60006020820190508181036000830152610f5481610dee565b9050919050565b60006020820190508181036000830152610f7481610e11565b9050919050565b60006020820190508181036000830152610f9481610e34565b9050919050565b60006020820190508181036000830152610fb481610e57565b9050919050565b60006020820190508181036000830152610fd481610e7a565b9050919050565b60006020820190508181036000830152610ff481610e9d565b9050919050565b60006020820190506110106000830184610ec0565b92915050565b600060208201905061102b6000830184610ecf565b92915050565b600081519050919050565b600082825260208201905092915050565b6000611058826110eb565b9150611063836110eb565b9250827fffffffffffffffffffffffffffffffffffffffffffffffffffffffffffffffff0382111561109857611097611167565b5b828201905092915050565b60006110ae826110cb565b9050919050565b60008115159050919050565b6000819050919050565b600073ffffffffffffffffffffffffffffffffffffffff82169050919050565b6000819050919050565b600060ff82169050919050565b60005b83811015611120578082015181840152602081019050611105565b8381111561112f576000848401525b50505050565b6000600282049050600182168061114d57607f821691505b6020821081141561116157611160611196565b5b50919050565b7f4e487b7100000000000000000000000000000000000000000000000000000000600052601160045260246000fd5b7f4e487b7100000000000000000000000000000000000000000000000000000000600052602260045260246000fd5b600080fd5b6000601f19601f8301169050919050565b7f45524332303a207472616e7366657220746f20746865207a65726f206164647260008201527f6573730000000000000000000000000000000000000000000000000000000000602082015250565b7f45524332303a20617070726f766520746f20746865207a65726f20616464726560008201527f7373000000000000000000000000000000000000000000000000000000000000602082015250565b7f45524332303a207472616e7366657220616d6f756e742065786365656473206260008201527f616c616e63650000000000000000000000000000000000000000000000000000602082015250565b7f45524332303a207472616e7366657220616d6f756e742065786365656473206160008201527f6c6c6f77616e6365000000000000000000000000000000000000000000000000602082015250565b7f45524332303a207472616e736665722066726f6d20746865207a65726f20616460008201527f6472657373000000000000000000000000000000000000000000000000000000602082015250565b7f45524332303a20617070726f76652066726f6d20746865207a65726f2061646460008201527f7265737300000000000000000000000000000000000000000000000000000000602082015250565b7f45524332303a2064656372656173656420616c6c6f77616e63652062656c6f7760008201527f207a65726f000000000000000000000000000000000000000000000000000000602082015250565b61140d816110a3565b811461141857600080fd5b50565b611424816110c1565b811461142f57600080fd5b50565b61143b816110eb565b811461144657600080fd5b5056fea2646970667358221220c60330f02d05258af78062cb576281b233c8bb0c30cca6b52024f425c4f20b0064736f6c63430008060033",
  "linkReferences": {},
  "deployedLinkReferences": {}
}