{
  "_format": "hh-sol-artifact-1",
  "contractName": "SimulateTxAccessor",
  "sourceName": "contracts/gnosis/accessors/SimulateTxAccessor.sol",
  "abi": [
    {
      "inputs": [],
      "stateMutability": "nonpayable",
      "type": "constructor"
    },
    {
      "inputs": [
        {
          "internalType": "address",
          "name": "to",
          "type": "address"
        },
        {
          "internalType": "uint256",
          "name": "value",
          "type": "uint256"
        },
        {
          "internalType": "bytes",
          "name": "data",
          "type": "bytes"
        },
        {
          "internalType": "enum Enum.Operation",
          "name": "operation",
          "type": "uint8"
        }
      ],
      "name": "simulate",
      "outputs": [
        {
          "internalType": "uint256",
          "name": "estimate",
          "type": "uint256"
        },
        {
          "internalType": "bool",
          "name": "success",
          "type": "bool"
        },
        {
          "internalType": "bytes",
          "name": "returnData",
          "type": "bytes"
        }
      ],
      "stateMutability": "nonpayable",
      "type": "function"
    }
  ],
  "bytecode": "0x60a060405234801561001057600080fd5b503073ffffffffffffffffffffffffffffffffffffffff1660808173ffffffffffffffffffffffffffffffffffffffff1660601b8152505060805160601c6105e96100656000396000606901526105e96000f3fe608060405234801561001057600080fd5b506004361061002b5760003560e01c80631c5fb21114610030575b600080fd5b61004a600480360381019061004591906102b2565b610062565b604051610059939291906103cc565b60405180910390f35b60008060607f000000000000000000000000000000000000000000000000000000000000000073ffffffffffffffffffffffffffffffffffffffff163073ffffffffffffffffffffffffffffffffffffffff1614156100f6576040517f08c379a00000000000000000000000000000000000000000000000000000000081526004016100ed906103ac565b60405180910390fd5b60005a905061014c898989898080601f016020809104026020016040519081016040528093929190818152602001838380828437600081840152601f19601f82011690508083019250505050505050885a610183565b92505a8161015a9190610437565b935060405160203d0181016040523d81523d6000602083013e8092505050955095509592505050565b60006001808111156101be577f4e487b7100000000000000000000000000000000000000000000000000000000600052602160045260246000fd5b8360018111156101f7577f4e487b7100000000000000000000000000000000000000000000000000000000600052602160045260246000fd5b1415610210576000808551602087018986f49050610220565b600080855160208701888a87f190505b95945050505050565b60008135905061023881610575565b92915050565b60008083601f84011261025057600080fd5b8235905067ffffffffffffffff81111561026957600080fd5b60208301915083600182028301111561028157600080fd5b9250929050565b6000813590506102978161058c565b92915050565b6000813590506102ac8161059c565b92915050565b6000806000806000608086880312156102ca57600080fd5b60006102d888828901610229565b95505060206102e98882890161029d565b945050604086013567ffffffffffffffff81111561030657600080fd5b6103128882890161023e565b9350935050606061032588828901610288565b9150509295509295909350565b61033b8161047d565b82525050565b600061034c8261040a565b6103568185610415565b93506103668185602086016104b3565b61036f81610515565b840191505092915050565b6000610387603983610426565b915061039282610526565b604082019050919050565b6103a6816104a9565b82525050565b600060208201905081810360008301526103c58161037a565b9050919050565b60006060820190506103e1600083018661039d565b6103ee6020830185610332565b81810360408301526104008184610341565b9050949350505050565b600081519050919050565b600082825260208201905092915050565b600082825260208201905092915050565b6000610442826104a9565b915061044d836104a9565b9250828210156104605761045f6104e6565b5b828203905092915050565b600061047682610489565b9050919050565b60008115159050919050565b600073ffffffffffffffffffffffffffffffffffffffff82169050919050565b6000819050919050565b60005b838110156104d15780820151818401526020810190506104b6565b838111156104e0576000848401525b50505050565b7f4e487b7100000000000000000000000000000000000000000000000000000000600052601160045260246000fd5b6000601f19601f8301169050919050565b7f53696d756c61746554784163636573736f722073686f756c64206f6e6c79206260008201527f652063616c6c6564207669612064656c656761746563616c6c00000000000000602082015250565b61057e8161046b565b811461058957600080fd5b50565b6002811061059957600080fd5b50565b6105a5816104a9565b81146105b057600080fd5b5056fea26469706673582212200846a9821a145662c82f1874ce69cfefa04862a832bf564845529378dd42b62664736f6c63430008040033",
  "linkReferences": {},
  "deployedLinkReferences": {}
}