{
  "_format": "hh-sol-artifact-1",
  "contractName": "StorageAccessible",
  "sourceName": "@gnosis.pm/safe-contracts/contracts/common/StorageAccessible.sol",
  "abi": [
    {
      "inputs": [
        {
          "internalType": "uint256",
          "name": "offset",
          "type": "uint256"
        },
        {
          "internalType": "uint256",
          "name": "length",
          "type": "uint256"
        }
      ],
      "name": "getStorageAt",
      "outputs": [
        {
          "internalType": "bytes",
          "name": "",
          "type": "bytes"
        }
      ],
      "stateMutability": "view",
      "type": "function"
    },
    {
      "inputs": [
        {
          "internalType": "address",
          "name": "targetContract",
          "type": "address"
        },
        {
          "internalType": "bytes",
          "name": "calldataPayload",
          "type": "bytes"
        }
      ],
      "name": "simulateAndRevert",
      "outputs": [],
      "stateMutability": "nonpayable",
      "type": "function"
    }
  ],
  "bytecode": "0x608060405234801561001057600080fd5b50610305806100206000396000f3fe608060405234801561001057600080fd5b50600436106100365760003560e01c80635624b25b1461003b578063b4faba0914610064575b600080fd5b61004e6100493660046101f2565b610079565b60405161005b9190610214565b60405180910390f35b610077610072366004610122565b6100ff565b005b60606000610088836020610269565b67ffffffffffffffff8111156100a0576100a06102b9565b6040519080825280601f01601f1916602001820160405280156100ca576020820181803683370190505b50905060005b838110156100f75784810154602080830284010152806100ef81610288565b9150506100d0565b509392505050565b600080825160208401855af480600052503d6020523d600060403e60403d016000fd5b6000806040838503121561013557600080fd5b82356001600160a01b038116811461014c57600080fd5b9150602083013567ffffffffffffffff8082111561016957600080fd5b818501915085601f83011261017d57600080fd5b81358181111561018f5761018f6102b9565b604051601f8201601f19908116603f011681019083821181831017156101b7576101b76102b9565b816040528281528860208487010111156101d057600080fd5b8260208601602083013760006020848301015280955050505050509250929050565b6000806040838503121561020557600080fd5b50508035926020909101359150565b600060208083528351808285015260005b8181101561024157858101830151858201604001528201610225565b81811115610253576000604083870101525b50601f01601f1916929092016040019392505050565b6000816000190483118215151615610283576102836102a3565b500290565b600060001982141561029c5761029c6102a3565b5060010190565b634e487b7160e01b600052601160045260246000fd5b634e487b7160e01b600052604160045260246000fdfea26469706673582212201924497202edbe79746f874bb75a7ecfc6a78da26acf9e45770aaebc959a18a664736f6c63430008060033",
  "linkReferences": {},
  "deployedLinkReferences": {}
}