{
  "_format": "hh-sol-artifact-1",
  "contractName": "Seed",
  "sourceName": "contracts/seed/Seed.sol",
  "abi": [
    {
      "anonymous": false,
      "inputs": [
        {
          "indexed": true,
          "internalType": "address",
          "name": "recipient",
          "type": "address"
        },
        {
          "indexed": false,
          "internalType": "uint256",
          "name": "amountReclaimed",
          "type": "uint256"
        }
      ],
      "name": "FundingReclaimed",
      "type": "event"
    },
    {
      "anonymous": false,
      "inputs": [
        {
          "indexed": true,
          "internalType": "bytes",
          "name": "metadata",
          "type": "bytes"
        }
      ],
      "name": "MetadataUpdated",
      "type": "event"
    },
    {
      "anonymous": false,
      "inputs": [
        {
          "indexed": true,
          "internalType": "address",
          "name": "recipient",
          "type": "address"
        },
        {
          "indexed": false,
          "internalType": "uint256",
          "name": "amountPurchased",
          "type": "uint256"
        }
      ],
      "name": "SeedsPurchased",
      "type": "event"
    },
    {
      "anonymous": false,
      "inputs": [
        {
          "indexed": true,
          "internalType": "address",
          "name": "recipient",
          "type": "address"
        },
        {
          "indexed": false,
          "internalType": "uint256",
          "name": "amount",
          "type": "uint256"
        },
        {
          "indexed": true,
          "internalType": "address",
          "name": "beneficiary",
          "type": "address"
        },
        {
          "indexed": false,
          "internalType": "uint256",
          "name": "feeAmount",
          "type": "uint256"
        }
      ],
      "name": "TokensClaimed",
      "type": "event"
    },
    {
      "inputs": [],
      "name": "admin",
      "outputs": [
        {
          "internalType": "address",
          "name": "",
          "type": "address"
        }
      ],
      "stateMutability": "view",
      "type": "function"
    },
    {
      "inputs": [],
      "name": "beneficiary",
      "outputs": [
        {
          "internalType": "address",
          "name": "",
          "type": "address"
        }
      ],
      "stateMutability": "view",
      "type": "function"
    },
    {
      "inputs": [
        {
          "internalType": "uint256",
          "name": "_fundingAmount",
          "type": "uint256"
        }
      ],
      "name": "buy",
      "outputs": [
        {
          "internalType": "uint256",
          "name": "",
          "type": "uint256"
        },
        {
          "internalType": "uint256",
          "name": "",
          "type": "uint256"
        }
      ],
      "stateMutability": "nonpayable",
      "type": "function"
    },
    {
      "inputs": [
        {
          "internalType": "bytes32",
          "name": "c__0x0602450c",
          "type": "bytes32"
        }
      ],
      "name": "c_0x0602450c",
      "outputs": [],
      "stateMutability": "pure",
      "type": "function"
    },
    {
      "inputs": [
        {
          "internalType": "address",
          "name": "_funder",
          "type": "address"
        }
      ],
      "name": "calculateClaim",
      "outputs": [
        {
          "internalType": "uint256",
          "name": "",
          "type": "uint256"
        }
      ],
      "stateMutability": "view",
      "type": "function"
    },
    {
      "inputs": [
        {
          "internalType": "address",
          "name": "_funder",
          "type": "address"
        },
        {
          "internalType": "uint256",
          "name": "_claimAmount",
          "type": "uint256"
        }
      ],
      "name": "claim",
      "outputs": [
        {
          "internalType": "uint256",
          "name": "",
          "type": "uint256"
        }
      ],
      "stateMutability": "nonpayable",
      "type": "function"
    },
    {
      "inputs": [],
      "name": "close",
      "outputs": [],
      "stateMutability": "nonpayable",
      "type": "function"
    },
    {
      "inputs": [],
      "name": "closed",
      "outputs": [
        {
          "internalType": "bool",
          "name": "",
          "type": "bool"
        }
      ],
      "stateMutability": "view",
      "type": "function"
    },
    {
      "inputs": [],
      "name": "endTime",
      "outputs": [
        {
          "internalType": "uint256",
          "name": "",
          "type": "uint256"
        }
      ],
      "stateMutability": "view",
      "type": "function"
    },
    {
      "inputs": [],
      "name": "fee",
      "outputs": [
        {
          "internalType": "uint256",
          "name": "",
          "type": "uint256"
        }
      ],
      "stateMutability": "view",
      "type": "function"
    },
    {
      "inputs": [],
      "name": "feeAmountRequired",
      "outputs": [
        {
          "internalType": "uint256",
          "name": "",
          "type": "uint256"
        }
      ],
      "stateMutability": "view",
      "type": "function"
    },
    {
      "inputs": [],
      "name": "feeClaimed",
      "outputs": [
        {
          "internalType": "uint256",
          "name": "",
          "type": "uint256"
        }
      ],
      "stateMutability": "view",
      "type": "function"
    },
    {
      "inputs": [
        {
          "internalType": "address",
          "name": "_funder",
          "type": "address"
        }
      ],
      "name": "feeClaimedForFunder",
      "outputs": [
        {
          "internalType": "uint256",
          "name": "",
          "type": "uint256"
        }
      ],
      "stateMutability": "view",
      "type": "function"
    },
    {
      "inputs": [
        {
          "internalType": "address",
          "name": "_funder",
          "type": "address"
        }
      ],
      "name": "feeForFunder",
      "outputs": [
        {
          "internalType": "uint256",
          "name": "",
          "type": "uint256"
        }
      ],
      "stateMutability": "view",
      "type": "function"
    },
    {
      "inputs": [],
      "name": "feeRemainder",
      "outputs": [
        {
          "internalType": "uint256",
          "name": "",
          "type": "uint256"
        }
      ],
      "stateMutability": "view",
      "type": "function"
    },
    {
      "inputs": [
        {
          "internalType": "address",
          "name": "",
          "type": "address"
        }
      ],
      "name": "funders",
      "outputs": [
        {
          "internalType": "uint256",
          "name": "totalClaimed",
          "type": "uint256"
        },
        {
          "internalType": "uint256",
          "name": "fundingAmount",
          "type": "uint256"
        }
      ],
      "stateMutability": "view",
      "type": "function"
    },
    {
      "inputs": [],
      "name": "fundingCollected",
      "outputs": [
        {
          "internalType": "uint256",
          "name": "",
          "type": "uint256"
        }
      ],
      "stateMutability": "view",
      "type": "function"
    },
    {
      "inputs": [],
      "name": "fundingToken",
      "outputs": [
        {
          "internalType": "contract IERC20",
          "name": "",
          "type": "address"
        }
      ],
      "stateMutability": "view",
      "type": "function"
    },
    {
      "inputs": [],
      "name": "fundingWithdrawn",
      "outputs": [
        {
          "internalType": "uint256",
          "name": "",
          "type": "uint256"
        }
      ],
      "stateMutability": "view",
      "type": "function"
    },
    {
      "inputs": [],
      "name": "hardCap",
      "outputs": [
        {
          "internalType": "uint256",
          "name": "",
          "type": "uint256"
        }
      ],
      "stateMutability": "view",
      "type": "function"
    },
    {
      "inputs": [
        {
          "internalType": "address",
          "name": "_beneficiary",
          "type": "address"
        },
        {
          "internalType": "address",
          "name": "_admin",
          "type": "address"
        },
        {
          "internalType": "address[]",
          "name": "_tokens",
          "type": "address[]"
        },
        {
          "internalType": "uint256[]",
          "name": "_softHardThresholds",
          "type": "uint256[]"
        },
        {
          "internalType": "uint256",
          "name": "_price",
          "type": "uint256"
        },
        {
          "internalType": "uint256",
          "name": "_startTime",
          "type": "uint256"
        },
        {
          "internalType": "uint256",
          "name": "_endTime",
          "type": "uint256"
        },
        {
          "internalType": "uint32",
          "name": "_vestingDuration",
          "type": "uint32"
        },
        {
          "internalType": "uint32",
          "name": "_vestingCliff",
          "type": "uint32"
        },
        {
          "internalType": "bool",
          "name": "_permissionedSeed",
          "type": "bool"
        },
        {
          "internalType": "uint256",
          "name": "_fee",
          "type": "uint256"
        }
      ],
      "name": "initialize",
      "outputs": [],
      "stateMutability": "nonpayable",
      "type": "function"
    },
    {
      "inputs": [],
      "name": "initialized",
      "outputs": [
        {
          "internalType": "bool",
          "name": "",
          "type": "bool"
        }
      ],
      "stateMutability": "view",
      "type": "function"
    },
    {
      "inputs": [],
      "name": "isFunded",
      "outputs": [
        {
          "internalType": "bool",
          "name": "",
          "type": "bool"
        }
      ],
      "stateMutability": "view",
      "type": "function"
    },
    {
      "inputs": [],
      "name": "maximumReached",
      "outputs": [
        {
          "internalType": "bool",
          "name": "",
          "type": "bool"
        }
      ],
      "stateMutability": "view",
      "type": "function"
    },
    {
      "inputs": [],
      "name": "metadata",
      "outputs": [
        {
          "internalType": "bytes",
          "name": "",
          "type": "bytes"
        }
      ],
      "stateMutability": "view",
      "type": "function"
    },
    {
      "inputs": [],
      "name": "minimumReached",
      "outputs": [
        {
          "internalType": "bool",
          "name": "",
          "type": "bool"
        }
      ],
      "stateMutability": "view",
      "type": "function"
    },
    {
      "inputs": [],
      "name": "pause",
      "outputs": [],
      "stateMutability": "nonpayable",
      "type": "function"
    },
    {
      "inputs": [],
      "name": "paused",
      "outputs": [
        {
          "internalType": "bool",
          "name": "",
          "type": "bool"
        }
      ],
      "stateMutability": "view",
      "type": "function"
    },
    {
      "inputs": [],
      "name": "permissionedSeed",
      "outputs": [
        {
          "internalType": "bool",
          "name": "",
          "type": "bool"
        }
      ],
      "stateMutability": "view",
      "type": "function"
    },
    {
      "inputs": [],
      "name": "price",
      "outputs": [
        {
          "internalType": "uint256",
          "name": "",
          "type": "uint256"
        }
      ],
      "stateMutability": "view",
      "type": "function"
    },
    {
      "inputs": [],
      "name": "retrieveFundingTokens",
      "outputs": [
        {
          "internalType": "uint256",
          "name": "",
          "type": "uint256"
        }
      ],
      "stateMutability": "nonpayable",
      "type": "function"
    },
    {
      "inputs": [
        {
          "internalType": "address",
          "name": "_refundReceiver",
          "type": "address"
        }
      ],
      "name": "retrieveSeedTokens",
      "outputs": [],
      "stateMutability": "nonpayable",
      "type": "function"
    },
    {
      "inputs": [
        {
          "internalType": "address",
          "name": "_funder",
          "type": "address"
        }
      ],
      "name": "seedAmountForFunder",
      "outputs": [
        {
          "internalType": "uint256",
          "name": "",
          "type": "uint256"
        }
      ],
      "stateMutability": "view",
      "type": "function"
    },
    {
      "inputs": [],
      "name": "seedAmountRequired",
      "outputs": [
        {
          "internalType": "uint256",
          "name": "",
          "type": "uint256"
        }
      ],
      "stateMutability": "view",
      "type": "function"
    },
    {
      "inputs": [],
      "name": "seedClaimed",
      "outputs": [
        {
          "internalType": "uint256",
          "name": "",
          "type": "uint256"
        }
      ],
      "stateMutability": "view",
      "type": "function"
    },
    {
      "inputs": [],
      "name": "seedRemainder",
      "outputs": [
        {
          "internalType": "uint256",
          "name": "",
          "type": "uint256"
        }
      ],
      "stateMutability": "view",
      "type": "function"
    },
    {
      "inputs": [],
      "name": "seedToken",
      "outputs": [
        {
          "internalType": "contract IERC20",
          "name": "",
          "type": "address"
        }
      ],
      "stateMutability": "view",
      "type": "function"
    },
    {
      "inputs": [],
      "name": "softCap",
      "outputs": [
        {
          "internalType": "uint256",
          "name": "",
          "type": "uint256"
        }
      ],
      "stateMutability": "view",
      "type": "function"
    },
    {
      "inputs": [],
      "name": "startTime",
      "outputs": [
        {
          "internalType": "uint256",
          "name": "",
          "type": "uint256"
        }
      ],
      "stateMutability": "view",
      "type": "function"
    },
    {
      "inputs": [],
      "name": "totalFunderCount",
      "outputs": [
        {
          "internalType": "uint256",
          "name": "",
          "type": "uint256"
        }
      ],
      "stateMutability": "view",
      "type": "function"
    },
    {
      "inputs": [],
      "name": "unpause",
      "outputs": [],
      "stateMutability": "nonpayable",
      "type": "function"
    },
    {
      "inputs": [
        {
          "internalType": "address",
          "name": "buyer",
          "type": "address"
        }
      ],
      "name": "unwhitelist",
      "outputs": [],
      "stateMutability": "nonpayable",
      "type": "function"
    },
    {
      "inputs": [
        {
          "internalType": "bytes",
          "name": "_metadata",
          "type": "bytes"
        }
      ],
      "name": "updateMetadata",
      "outputs": [],
      "stateMutability": "nonpayable",
      "type": "function"
    },
    {
      "inputs": [],
      "name": "vestingCliff",
      "outputs": [
        {
          "internalType": "uint32",
          "name": "",
          "type": "uint32"
        }
      ],
      "stateMutability": "view",
      "type": "function"
    },
    {
      "inputs": [],
      "name": "vestingDuration",
      "outputs": [
        {
          "internalType": "uint32",
          "name": "",
          "type": "uint32"
        }
      ],
      "stateMutability": "view",
      "type": "function"
    },
    {
      "inputs": [],
      "name": "vestingStartTime",
      "outputs": [
        {
          "internalType": "uint256",
          "name": "",
          "type": "uint256"
        }
      ],
      "stateMutability": "view",
      "type": "function"
    },
    {
      "inputs": [
        {
          "internalType": "address",
          "name": "_buyer",
          "type": "address"
        }
      ],
      "name": "whitelist",
      "outputs": [],
      "stateMutability": "nonpayable",
      "type": "function"
    },
    {
      "inputs": [
        {
          "internalType": "address[]",
          "name": "_buyers",
          "type": "address[]"
        }
      ],
      "name": "whitelistBatch",
      "outputs": [],
      "stateMutability": "nonpayable",
      "type": "function"
    },
    {
      "inputs": [
        {
          "internalType": "address",
          "name": "",
          "type": "address"
        }
      ],
      "name": "whitelisted",
      "outputs": [
        {
          "internalType": "bool",
          "name": "",
          "type": "bool"
        }
      ],
      "stateMutability": "view",
      "type": "function"
    },
    {
      "inputs": [],
      "name": "withdraw",
      "outputs": [],
      "stateMutability": "nonpayable",
      "type": "function"
    }
  ],
  "bytecode": "0x60806040523480156200001157600080fd5b506192a080620000226000396000f3fe608060405234801561001057600080fd5b50600436106102d65760003560e01c80637c65430311610182578063d936547e116100e9578063ea345540116100a2578063f851a4401161007c578063f851a44014610877578063f860a08214610895578063fb86a404146108b1578063fc582d41146108cf576102d6565b8063ea3455401461080d578063eaa535231461083d578063f3640e7414610859576102d6565b8063d936547e14610722578063d96a094a14610752578063dc4b9e3814610783578063ddca3f43146107b3578063e565eb4c146107d1578063e6e36ebb146107ef576102d6565b80639b19251a1161013b5780639b19251a1461065e578063a035b1fe1461067a578063a8660a7814610698578063aad3ec96146106b6578063b774682f146106e6578063bc0f5f8414610704576102d6565b80637c654303146105c057806383d59e00146105de5780638456cb59146105fc5780638a2448aa14610606578063906a26e0146106245780639a59042714610642576102d6565b80633dba9e4111610241578063597e1fb5116101fa5780635e9777e8116101d45780635e9777e81461054857806371f4b8e81461056657806378065f271461058457806378e97925146105a2576102d6565b8063597e1fb5146104dc5780635c975abb146104fa5780635d85ac0d14610518576102d6565b80633dba9e41146104405780633f4ba83a1461045e578063430e99a41461046857806343d726d61461049857806344f9abb8146104a257806347d02f1b146104be576102d6565b80631cfe562e116102935780631cfe562e146103a0578063311f8483146103be5780633197cbb6146103dc57806338af3eed146103fa578063392f37e9146104185780633ccfd60b14610436576102d6565b8063031b3677146102db57806303aabe311461030c5780630826d2c714610328578063117a36d1146103465780631514617e14610364578063158ef93e14610382575b600080fd5b6102f560048036038101906102f09190617880565b6108eb565b6040516103039291906184f3565b60405180910390f35b61032660048036038101906103219190617880565b61090f565b005b61033061123b565b60405161033d91906184d8565b60405180910390f35b61034e611241565b60405161035b91906180c0565b60405180910390f35b61036c611254565b604051610379919061851c565b60405180910390f35b61038a61126a565b60405161039791906180c0565b60405180910390f35b6103a861127d565b6040516103b591906184d8565b60405180910390f35b6103c6611283565b6040516103d391906180fd565b60405180910390f35b6103e46112a7565b6040516103f191906184d8565b60405180910390f35b6104026112ad565b60405161040f9190618045565b60405180910390f35b6104206112d1565b60405161042d91906180db565b60405180910390f35b61043e61135f565b005b61044861181f565b60405161045591906180c0565b60405180910390f35b610466611832565b005b610482600480360381019061047d9190617880565b611c78565b60405161048f91906184d8565b60405180910390f35b6104a0611d68565b005b6104bc60048036038101906104b791906178ad565b612114565b005b6104c6612fbe565b6040516104d391906184d8565b60405180910390f35b6104e4612fc4565b6040516104f191906180c0565b60405180910390f35b610502612fd7565b60405161050f91906180c0565b60405180910390f35b610532600480360381019061052d9190617880565b612fea565b60405161053f91906184d8565b60405180910390f35b6105506130a0565b60405161055d91906184d8565b60405180910390f35b61056e6130a6565b60405161057b91906184d8565b60405180910390f35b61058c613154565b60405161059991906180fd565b60405180910390f35b6105aa61317a565b6040516105b791906184d8565b60405180910390f35b6105c8613180565b6040516105d591906180c0565b60405180910390f35b6105e6613193565b6040516105f391906184d8565b60405180910390f35b610604613199565b005b61060e61362a565b60405161061b91906184d8565b60405180910390f35b61062c613ee8565b60405161063991906184d8565b60405180910390f35b61065c60048036038101906106579190617880565b613eee565b005b61067860048036038101906106739190617880565b61436b565b005b6106826147e8565b60405161068f91906184d8565b60405180910390f35b6106a06147ee565b6040516106ad91906184d8565b60405180910390f35b6106d060048036038101906106cb91906179d9565b6147f4565b6040516106dd91906184d8565b60405180910390f35b6106ee615221565b6040516106fb91906184d8565b60405180910390f35b61070c615227565b60405161071991906184d8565b60405180910390f35b61073c60048036038101906107379190617880565b61522d565b60405161074991906180c0565b60405180910390f35b61076c60048036038101906107679190617b05565b61524d565b60405161077a9291906184f3565b60405180910390f35b61079d60048036038101906107989190617880565b6166d4565b6040516107aa91906184d8565b60405180910390f35b6107bb6167c4565b6040516107c891906184d8565b60405180910390f35b6107d96167ca565b6040516107e691906180c0565b60405180910390f35b6107f76167dd565b60405161080491906184d8565b60405180910390f35b61082760048036038101906108229190617880565b6167e3565b60405161083491906184d8565b60405180910390f35b61085760048036038101906108529190617a19565b616db3565b005b6108616172c2565b60405161086e919061851c565b60405180910390f35b61087f6172d8565b60405161088c9190618045565b60405180910390f35b6108af60048036038101906108aa9190617a8f565b6172fe565b005b6108b9617301565b6040516108c691906184d8565b60405180910390f35b6108e960048036038101906108e49190617abc565b617307565b005b60166020528060005260406000206000915090508060000154908060010154905082565b61093b7f23759a95ca00864dcbe31194b6280411bf0e20505bc7e2887898e9f23d4ba8ef60001b6172fe565b6109677ff58b21d6158031398ace4eaf68f84142c8c1a0a08292ea24e6df972b347cd3d960001b6172fe565b6109937f62cff95067b744d69330cd1355379e15bf91671997dab5b7bc9a47d6c8dc989e60001b6172fe565b6109bf7fb6dddfcbfaa1edcf5e056f86b5dff4fe6a8e39f8383b671233ef62e0a23490a160001b6172fe565b600160009054906101000a900473ffffffffffffffffffffffffffffffffffffffff1673ffffffffffffffffffffffffffffffffffffffff163373ffffffffffffffffffffffffffffffffffffffff1614610a4f576040517f08c379a0000000000000000000000000000000000000000000000000000000008152600401610a4690618338565b60405180910390fd5b610a7b7ffae4ba70c67dd75c8eb0f780ca0d079c526285ba212f7bf13481cf309498067260001b6172fe565b610aa77f6b36d1b4f5114c5fb2c767e24ff0c90c61c52e3d36f5d2d07d8a020d6e48e50060001b6172fe565b610ad37fdf499628b6a9a62d398e0d020d0f72796e70fe4495a88a1cf11758697ae5b41060001b6172fe565b610aff7fa836ec00c4142bab610d54555af4ca544846fcc61560458aee1260e791c1acf160001b6172fe565b610b2b7fbfb4f02c857dfef46ea934cc59ad45341af945d1b9e37497dc38e3b893686bd460001b6172fe565b610b577f939cbe998d710e12f29465e286b5b97a12854e239ddb03478bd97694fbfc042160001b6172fe565b600d60009054906101000a900460ff1680610b7e5750600d60059054906101000a900460ff165b80610b8b57506008544210155b610bca576040517f08c379a0000000000000000000000000000000000000000000000000000000008152600401610bc190618278565b60405180910390fd5b610bf67fb4e363187e6f9faee00e37377e8f6c3954b2f52bbbb1a07b932a3a7df8a04bbd60001b6172fe565b610c227f5b1faf1b7f45723201096eb5d1abc9466b095e51a7543314309e10af2027643060001b6172fe565b610c4e7feb7bb8cbe7badb41e6b3d03881c6bf4abe26075754b37ceddb39b82b21da87da60001b6172fe565b600d60049054906101000a900460ff16610ed757610c8e7f9665d6bf0808109a611af6253e25277021854cf01595771e888f6d4c9bceca2060001b6172fe565b610cba7f7700c95e6dc01ec63b4a67edc3512d90fbc9d6020233f53aaadbf7e9cda3264d60001b6172fe565b610ce67fb13dbfcb8ce8c25d87d45bda28228ded9e3bba2fee14b977ba890cb325549a5c60001b6172fe565b610d127f46b6e7a56ec53c5b078434f22ea302d5498e59bffcc30694b81d4d8a0815dbc660001b6172fe565b60098054906101000a900473ffffffffffffffffffffffffffffffffffffffff1673ffffffffffffffffffffffffffffffffffffffff1663a9059cbb8260098054906101000a900473ffffffffffffffffffffffffffffffffffffffff1673ffffffffffffffffffffffffffffffffffffffff166370a08231306040518263ffffffff1660e01b8152600401610da89190618045565b60206040518083038186803b158015610dc057600080fd5b505afa158015610dd4573d6000803e3d6000fd5b505050506040513d601f19601f82011682018060405250810190610df89190617b32565b6040518363ffffffff1660e01b8152600401610e15929190618097565b602060405180830381600087803b158015610e2f57600080fd5b505af1158015610e43573d6000803e3d6000fd5b505050506040513d601f19601f82011682018060405250810190610e679190617a62565b610ea6576040517f08c379a0000000000000000000000000000000000000000000000000000000008152600401610e9d90618118565b60405180910390fd5b610ed27fdccdfc2edf7533d336664f640e348e52cd1ed4fcf0e32bb201f1da3ee1708e7b60001b6172fe565b611238565b610f037f6fd65260167b861631b224149ee9e99e08ffdeb4bb44cb009849380c8122350260001b6172fe565b610f2f7f04e5a191eb271ad87300556ce2e06170246bb24f6b877b239677316a0ebb15a160001b6172fe565b610f5b7fc365034b240aed15868ff4dc1606137995dccd0742d89353c9a68066a9d74db660001b6172fe565b6000601254601054610f6d919061861d565b600554600454610f7d919061861d565b610f8791906186fe565b9050610fb57f28d0b84f1b85d357cd35771264a8a0504a54f345532278c51bf4cd87fe115dbb60001b6172fe565b610fe17f4df3dc21145fbed67d048666c63903dab4da59077f4b70f53fdd893c15edf78560001b6172fe565b60008160098054906101000a900473ffffffffffffffffffffffffffffffffffffffff1673ffffffffffffffffffffffffffffffffffffffff166370a08231306040518263ffffffff1660e01b815260040161103d9190618045565b60206040518083038186803b15801561105557600080fd5b505afa158015611069573d6000803e3d6000fd5b505050506040513d601f19601f8201168201806040525081019061108d9190617b32565b61109791906186fe565b90506110c57fce57f146c411003f981d0f4643d11db03567270089678dd3cf42c5d4274dd4f360001b6172fe565b6110f17f6e0451a79c3f07bd8acc03e9dcbb767ddd756b2c3d87dbeca46d26598e5bcbd160001b6172fe565b61111d7ff0ca57ab9ddb13fb665611f5ed74ad98fe3687b83ed530bbfd469f8c9230772060001b6172fe565b60098054906101000a900473ffffffffffffffffffffffffffffffffffffffff1673ffffffffffffffffffffffffffffffffffffffff1663a9059cbb84836040518363ffffffff1660e01b8152600401611178929190618097565b602060405180830381600087803b15801561119257600080fd5b505af11580156111a6573d6000803e3d6000fd5b505050506040513d601f19601f820116820180604052508101906111ca9190617a62565b611209576040517f08c379a000000000000000000000000000000000000000000000000000000000815260040161120090618118565b60405180910390fd5b6112357f77fad7ab7acaf38a4fa12c88ed95b9281e94a52cfe530ef5c160e694bd5f054860001b6172fe565b50505b50565b60105481565b600d60059054906101000a900460ff1681565b600960019054906101000a900463ffffffff1681565b600d60039054906101000a900460ff1681565b60135481565b60098054906101000a900473ffffffffffffffffffffffffffffffffffffffff1681565b60085481565b60008054906101000a900473ffffffffffffffffffffffffffffffffffffffff1681565b600c80546112de90618824565b80601f016020809104026020016040519081016040528092919081815260200182805461130a90618824565b80156113575780601f1061132c57610100808354040283529160200191611357565b820191906000526020600020905b81548152906001019060200180831161133a57829003601f168201915b505050505081565b61138b7f23759a95ca00864dcbe31194b6280411bf0e20505bc7e2887898e9f23d4ba8ef60001b6172fe565b6113b77ff58b21d6158031398ace4eaf68f84142c8c1a0a08292ea24e6df972b347cd3d960001b6172fe565b6113e37f62cff95067b744d69330cd1355379e15bf91671997dab5b7bc9a47d6c8dc989e60001b6172fe565b61140f7fb6dddfcbfaa1edcf5e056f86b5dff4fe6a8e39f8383b671233ef62e0a23490a160001b6172fe565b600160009054906101000a900473ffffffffffffffffffffffffffffffffffffffff1673ffffffffffffffffffffffffffffffffffffffff163373ffffffffffffffffffffffffffffffffffffffff161461149f576040517f08c379a000000000000000000000000000000000000000000000000000000000815260040161149690618338565b60405180910390fd5b6114cb7ffae4ba70c67dd75c8eb0f780ca0d079c526285ba212f7bf13481cf309498067260001b6172fe565b6114f77f6b36d1b4f5114c5fb2c767e24ff0c90c61c52e3d36f5d2d07d8a020d6e48e50060001b6172fe565b6115237f6419e5018a3119fdb63d7df06ddeaa9750fcf509cc71b282fee15f84cad109c060001b6172fe565b61154f7f3b40b052ef97be4b283e268aeb69e16e84c76553f78575cc39fa7676c51566c560001b6172fe565b61157b7fb213ce55aefbe08784da8cbf5741b3d210f8d578a951b4728e8f9d5dd92614a660001b6172fe565b6115a77f510d827c0ad96b93e6173239a6516e6bb08aef18a339f27e6858315089bbd13c60001b6172fe565b600d60059054906101000a900460ff16806115dc5750600d60049054906101000a900460ff1680156115db57506008544210155b5b61161b576040517f08c379a000000000000000000000000000000000000000000000000000000000815260040161161290618398565b60405180910390fd5b6116477fdfadfe3b613cd71624570a6bc6e269a86968420b097348156806837f9bc1e13960001b6172fe565b6116737f79356048df89b7136433139e95d13f1c150ef1d76eb0186e7dfbc2b42dbec75160001b6172fe565b61169f7f55f3cb204d91c696b1ee67d898b83bef76e2d752994f1aebda0b34d79c8f080760001b6172fe565b60006014546013546116b191906186fe565b90506116df7fb02b606c24bdd910fe8f8cae62ca90562ee993e5cdb92ec19bea08d5dc07d95060001b6172fe565b61170b7f493c107cc5e9371b37c498fbe2ecb254fca835f02d741b7af53bfecb6986e5d460001b6172fe565b6013546014819055506117407f08fa2e8574490811bafcaccf421787d042d3e4c0e4bc94cf5e2d0c4bf65f806c60001b6172fe565b61176c7f071e767c859a30f22e875ab5949536c43f215197c0332e0d0b341f0a2719107060001b6172fe565b600a60009054906101000a900473ffffffffffffffffffffffffffffffffffffffff1673ffffffffffffffffffffffffffffffffffffffff1663a9059cbb33836040518363ffffffff1660e01b81526004016117c9929190618097565b602060405180830381600087803b1580156117e357600080fd5b505af11580156117f7573d6000803e3d6000fd5b505050506040513d601f19601f8201168201806040525081019061181b9190617a62565b5050565b600960009054906101000a900460ff1681565b61185e7f23759a95ca00864dcbe31194b6280411bf0e20505bc7e2887898e9f23d4ba8ef60001b6172fe565b61188a7ff58b21d6158031398ace4eaf68f84142c8c1a0a08292ea24e6df972b347cd3d960001b6172fe565b6118b67f62cff95067b744d69330cd1355379e15bf91671997dab5b7bc9a47d6c8dc989e60001b6172fe565b6118e27fb6dddfcbfaa1edcf5e056f86b5dff4fe6a8e39f8383b671233ef62e0a23490a160001b6172fe565b600160009054906101000a900473ffffffffffffffffffffffffffffffffffffffff1673ffffffffffffffffffffffffffffffffffffffff163373ffffffffffffffffffffffffffffffffffffffff1614611972576040517f08c379a000000000000000000000000000000000000000000000000000000000815260040161196990618338565b60405180910390fd5b61199e7ffae4ba70c67dd75c8eb0f780ca0d079c526285ba212f7bf13481cf309498067260001b6172fe565b6119ca7f6b36d1b4f5114c5fb2c767e24ff0c90c61c52e3d36f5d2d07d8a020d6e48e50060001b6172fe565b6119f67f3855236c804b58a28981bc6c45170d372b81c1a308569a29bab2339bbe533b6e60001b6172fe565b611a227f8393a6c7bf26d18ae33e6e7370ee864c57111861df897a13ccf59e591850a2e960001b6172fe565b611a4e7f3925080fe63d635c3a09139dcaf2b051323fec3c5273606c6aec7f17dda9618f60001b6172fe565b611a7a7fb209fa02f8fa2c9509c3746860671db77563756cd4dc95f7bcf6909060b556d260001b6172fe565b60011515600d60009054906101000a900460ff1615151415611ad1576040517f08c379a0000000000000000000000000000000000000000000000000000000008152600401611ac890618358565b60405180910390fd5b611afd7f34cd8b5c7526f3c96dc6bdb2de6d510cebf40b198ef51ab77ef41c2d587e7c6260001b6172fe565b611b297fb09339c14867f77bd0ce9771ab0f1a6c1f2d9b51bc321d59f606b5b7d7a7a05860001b6172fe565b611b557f135f943a0f4c14269cfb25ac9a579a71afa327a3b2ccd8e133303d97596abb2160001b6172fe565b611b817fb9a15da454f1a903f52d47fa4d764588a1d781178c28c32f2ce50cb028de023460001b6172fe565b60011515600d60019054906101000a900460ff16151514611bd7576040517f08c379a0000000000000000000000000000000000000000000000000000000008152600401611bce90618318565b60405180910390fd5b611c037f166b6bc20730c60c196ea9f2e333ca22349ec30927f907c7987d6f34108899f860001b6172fe565b611c2f7f3b02147827752de572162a89f6d7469c43e65a83e39e4d953e09b291dc7132ee60001b6172fe565b611c5b7f73f008c50190ea508666901979cc0af7bc23948e163e50e4ebe4ba5bcc28fc7b60001b6172fe565b6000600d60016101000a81548160ff021916908315150217905550565b6000611ca67f73ffe1225ce6766fef57eee6222819219fdd277074fa481adce7addeae61f45760001b6172fe565b611cd27f8b5501cfb2ba864b2f513fd7d9487b8ae01fd451a84e370ffcbf7747244a47c160001b6172fe565b611cfe7fc950d181e9e02e5af4f419483321295abd420983a0ae7ad86470562e376f9a7760001b6172fe565b670de0b6b3a7640000600b54601660008573ffffffffffffffffffffffffffffffffffffffff1673ffffffffffffffffffffffffffffffffffffffff16815260200190815260200160002060000154611d5791906186a4565b611d619190618673565b9050919050565b611d947f23759a95ca00864dcbe31194b6280411bf0e20505bc7e2887898e9f23d4ba8ef60001b6172fe565b611dc07ff58b21d6158031398ace4eaf68f84142c8c1a0a08292ea24e6df972b347cd3d960001b6172fe565b611dec7f62cff95067b744d69330cd1355379e15bf91671997dab5b7bc9a47d6c8dc989e60001b6172fe565b611e187fb6dddfcbfaa1edcf5e056f86b5dff4fe6a8e39f8383b671233ef62e0a23490a160001b6172fe565b600160009054906101000a900473ffffffffffffffffffffffffffffffffffffffff1673ffffffffffffffffffffffffffffffffffffffff163373ffffffffffffffffffffffffffffffffffffffff1614611ea8576040517f08c379a0000000000000000000000000000000000000000000000000000000008152600401611e9f90618338565b60405180910390fd5b611ed47ffae4ba70c67dd75c8eb0f780ca0d079c526285ba212f7bf13481cf309498067260001b6172fe565b611f007f6b36d1b4f5114c5fb2c767e24ff0c90c61c52e3d36f5d2d07d8a020d6e48e50060001b6172fe565b611f2c7fa76d9c26f290fe275c8e72717e5ec393fdff25ebde7d585b86c0b46feeedec6060001b6172fe565b611f587fc92a5fa34648b51e2f36ec7609dbdfedb51a3959d4ecc96b0ff812ad99bad8cc60001b6172fe565b611f847f56fda83274a41a990cea194384ee4a461793b032f9d404e457685fdafd9b072a60001b6172fe565b611fb07f8f39c817791934e4c1b8683f2e3b2beb09d28f576b350917b498ff71d73201b460001b6172fe565b600d60009054906101000a900460ff1615612000576040517f08c379a0000000000000000000000000000000000000000000000000000000008152600401611ff790618358565b60405180910390fd5b61202c7f1f13c7b8d1ab053a0e595ef3a361ae371465e0b6164e01420388ed887583ddba60001b6172fe565b6120587f9a6bf3ab9da853633026412aad3589aff739696d21f5c317fdfb88697003d07060001b6172fe565b6120847fb11622cd29fc1daefed0264f03b10a841948d830c86ab6b1baf6696694c2174460001b6172fe565b6001600d60006101000a81548160ff0219169083151502179055506120cb7fec9cc1317b493ad117e38a6caec237468efd8c30509c6fdfa6d5533bb4f90c4560001b6172fe565b6120f77f796c26d7a4b41b5b4043a2621d24efb650120c52220137fbed00c142a39e31b560001b6172fe565b6000600d60016101000a81548160ff021916908315150217905550565b6121407f75c92d7f1ead0437438c5f2533ec971a4e24fa596de5087387fd9aee9d9746c860001b6172fe565b61216c7fe4a7783fd83175dda590a789d5627ffae1ce98b27672941ecaa6ba7cf4ba719a60001b6172fe565b6121987f7f466c2cde0e90162beccabce1b51107e318285a833284247a1d87cd94aa47a060001b6172fe565b6121c47fed61a754aece4576e047b01abf35024134b88e3439ddb4c1d7fdb3788cb1e4dd60001b6172fe565b600d60039054906101000a900460ff1615612214576040517f08c379a000000000000000000000000000000000000000000000000000000000815260040161220b906183b8565b60405180910390fd5b6122407ff8a8503a05700b5b770e878588aed571ad7d342a7c079b764d5b450c93bca9ad60001b6172fe565b61226c7f4ee26072a87cdfcc660d1a318ccef85cfadebb92d2c2083253573f1eb099fae860001b6172fe565b6122987f276938a83c0f744aafef6fbcea9e761e7a2287e2f230a97b37482bd3f2820c2760001b6172fe565b6001600d60036101000a81548160ff0219169083151502179055506122df7f53f2c6a19e1486c9ad06fa4ed04df907d9e5725565a81d602c54d29ecb84d1ca60001b6172fe565b61230b7fe3acddeeba0a89fb471c001583745f08b1478d1567b35c3c0f38310554d64cd760001b6172fe565b6123377f722e90b3ffe4a6f5951ba7ae3821159a505c447cfb3fd69e68dd4bc9a7fd7a2e60001b6172fe565b8860018151811061234b5761234a61895d565b5b602002602001015173ffffffffffffffffffffffffffffffffffffffff168960008151811061237d5761237c61895d565b5b602002602001015173ffffffffffffffffffffffffffffffffffffffff1614156123dc576040517f08c379a00000000000000000000000000000000000000000000000000000000081526004016123d390618218565b60405180910390fd5b6124087f305857aede67e8f2bc012bf07a70fc74bbcc76b222b1b75c276244fdecea8bc160001b6172fe565b6124347f06dbd318fdebafe04a822f01550bc79fe0e30cc98be5e23ed5b1b9fee6e0e71760001b6172fe565b6124607f6df109fc17980d5ceee0bf26fa5f31ebb0c0193969000f70452a56025373e05e60001b6172fe565b61248c7f64bf4a2787084b31a3d2cc74596fdaba9019b1c45a9f6c486f80874d530e784e60001b6172fe565b876000815181106124a05761249f61895d565b5b6020026020010151886001815181106124bc576124bb61895d565b5b60200260200101511015612505576040517f08c379a00000000000000000000000000000000000000000000000000000000081526004016124fc90618178565b60405180910390fd5b6125317f58e90756affba804bcbfb4e492e2dbde6dcf818515c906c721f429c4d7242cf160001b6172fe565b61255d7f28b6adeded7eb33883b1189e43a947399be950c43abcb2fb04b8520b600efe0660001b6172fe565b6125897f2f9f4c00bac59392c1e761abc8102cb8d2c1f2abd60997ad36b80284ae9eec0e60001b6172fe565b6125b57fb31b3e13c4e58bc4806496fa96cd4639a8c153393deac0d27803b28ccff4762760001b6172fe565b8263ffffffff168463ffffffff161015612604576040517f08c379a00000000000000000000000000000000000000000000000000000000081526004016125fb906182d8565b60405180910390fd5b6126307fb7a207ead0a7163222c672d4809be9c8eaca5b4a5f7f0985dfb4e66eb038605360001b6172fe565b61265c7ffb83b183aa3ec0aa3fe5dd0e8541f382b7d3efd280c28bd3dc7de1e5ba91d8c460001b6172fe565b6126887f4c4273b54554b4bc35801eae570eb6c9fd8dc8ad4e69c1678cbfd369e43529c060001b6172fe565b6126b47f025f3027305bd253dcfa68f6859f7e8d761906808c7e08878b4af2cdf106199460001b6172fe565b8585116126f6576040517f08c379a00000000000000000000000000000000000000000000000000000000081526004016126ed90618238565b60405180910390fd5b6127227f6de4b7c5968f6b8e3e6f0da02bdfdcd864d82e0d224dee50e8d161996b706e4b60001b6172fe565b61274e7f5d6cc0a61b8ab82ffd9513ed61458e04e0732c17a6c54f09fd0e8f92a88d12db60001b6172fe565b61277a7fc33d6a5158509eb19e2f2ac1515b25d67ebe3d25f72977fc9e48ae05fe06137360001b6172fe565b8a6000806101000a81548173ffffffffffffffffffffffffffffffffffffffff021916908373ffffffffffffffffffffffffffffffffffffffff1602179055506127e67f95bcecfd75b7af8627d369d6da18e42fca0f41a662026dcd0df0fb4ceb8688e160001b6172fe565b6128127f9e4ed74392218e007bd959f0bbc837fd166a122719f7ef947930de993e2faecc60001b6172fe565b89600160006101000a81548173ffffffffffffffffffffffffffffffffffffffff021916908373ffffffffffffffffffffffffffffffffffffffff16021790555061287f7f9b7eefea810a38fd7342e23eb9530c4099b9be383f91877aae7ae667a38e3b9060001b6172fe565b6128ab7f0964f8042dd8cdf2d62bb60a5f31b9d2a27db546fd52de2dc08678c6ed5dfac360001b6172fe565b876000815181106128bf576128be61895d565b5b60200260200101516002819055506128f97fdee492a3fe54f654b30958ffd678647d3212c4b7d0bf220c7a46427767e03c6960001b6172fe565b6129257fd6d0dce7470f697e653a0e8cad8c8063d7ebf0ca1a069f24723ef9a4cb38e50560001b6172fe565b876001815181106129395761293861895d565b5b60200260200101516003819055506129737f57b62d9a8b0f98db5bbff0bd69023debb286992c45a5adc438b765ed2a4a9b7960001b6172fe565b61299f7f2ffaca0607e2ccb96268a0e521f0ae783a2e00bc1c58a6a8aee889cda898ad7760001b6172fe565b866006819055506129d27f8758882f6b85ec6f044d22a82a0f328889edca08f6d51dcb494d19c909e1445060001b6172fe565b6129fe7fc5d356e673f4905272c86830463da8cd5dc5730ebf6c22d2fb4f24f691a56d4b60001b6172fe565b85600781905550612a317f089bc7f608397465b66b83c66e63cda3d659ab20477602848e764d8fc206e65e60001b6172fe565b612a5d7f9567505b64d5a37f8d4ab83d55018ab77e81a67f845cdd0e950c5ef6f4cca05660001b6172fe565b84600881905550612a907f5e987baadd5a3a7d72c19b84715571925cf51f9f98cd91352e498f286dfab6d760001b6172fe565b612abc7f9b030a547d73eb3063a2bc9d54561b15a1453abffa6e3e40953f3a23257026d660001b6172fe565b600854600e81905550612af17f91942182b9512c3a66cc84b17f997b144516d367d96ca4109364137a75b621e360001b6172fe565b612b1d7f6b89c5b711d847f9d7df304e82ce24697047c16314c721c6d0c52da20617212060001b6172fe565b83600960016101000a81548163ffffffff021916908363ffffffff160217905550612b6a7f0eb98e7d07dde73048c0cb2c831071e5dec7e228a571cbf341be4a16d3de2f7760001b6172fe565b612b967f3c770613b8c1c3b5dfc42c082a8feac657c0035170032f71bc3a20a41221928060001b6172fe565b82600960056101000a81548163ffffffff021916908363ffffffff160217905550612be37f916fdb54a04ff5791ec02bed73405320d3a78706f3ab36dc162e024ee712d1c160001b6172fe565b612c0f7f1a7042e7c24f29f7406787eec4c72d79998beff2e6509efefb351d5ab8c5c6e860001b6172fe565b81600960006101000a81548160ff021916908315150217905550612c557f4478c79f1cab44bc6899f1bbb627e511db30473309d43a6897f1c67b300ce1a860001b6172fe565b612c817ffb6c6489f3176b1448ba788284c5cb3e56ca0c901f67d05cb43e1d2bacd5759060001b6172fe565b88600081518110612c9557612c9461895d565b5b60200260200101516009806101000a81548173ffffffffffffffffffffffffffffffffffffffff021916908373ffffffffffffffffffffffffffffffffffffffff160217905550612d087f55c5043507f3747e07d2681684bcd13f6ae61acf6a5266e8540425149d62cb9860001b6172fe565b612d347f8cca8d6decc4bc520b5ca8b82b7560460a1724c7fcab240d386c713b2646ff3f60001b6172fe565b88600181518110612d4857612d4761895d565b5b6020026020010151600a60006101000a81548173ffffffffffffffffffffffffffffffffffffffff021916908373ffffffffffffffffffffffffffffffffffffffff160217905550612dbc7f3a2aa8a31467a871240ec990bf8dcd6da8c3834acc48306642f1cf6ad1db1cb460001b6172fe565b612de87f250a7e86eb4a0a755ae7595e532bb70b7ca8b20b993667ce29aac73df7d39e3e60001b6172fe565b80600b81905550612e1b7f4046748d1120344e9b4467b9ea6e164fd4d83015116df47aa2cd397182446de560001b6172fe565b612e477f02d94e6f8faa04ffd6c1b1f13eba29924cbb026ef70e5d8c434475f8329508e760001b6172fe565b86670de0b6b3a7640000600354612e5e91906186a4565b612e689190618673565b600481905550612e9a7f0602fea019c0fe3deb85ea52d8a910e2f6917f8546213d21d96918e0c79094af60001b6172fe565b612ec67fe36ee9bbd689e5da9f06b3dca754fd5763a8e57bd19e008bf9a5ae09d90f43ce60001b6172fe565b670de0b6b3a7640000600b54600454612edf91906186a4565b612ee99190618673565b600581905550612f1b7f5f2f3118ca605c68dfdad4f7ab1efaaa702cd3ea17979ebc67c5fcbc2560540960001b6172fe565b612f477f07932529d5fef0f006e49a1eb5ac2bb8df8af6bce4b826ddeb1130a0d910653b60001b6172fe565b600454601081905550612f7c7f289590afc80fe752338563babbbe7798f7d4ae232bff1f7f1dcaaada33db014d60001b6172fe565b612fa87f814cb1b4c89cc1616364711a86003e2396eb14d8413e438a1c4a292b9e79912460001b6172fe565b6005546012819055505050505050505050505050565b60115481565b600d60009054906101000a900460ff1681565b600d60019054906101000a900460ff1681565b60006130187fb6e0af262eb690f67bbfa9abf30ed4b88329114187bcf8e10b797054680fcf7660001b6172fe565b6130447fa1184306c45699bf292ec15628184f1570a428f0574e59dbfab9033e8dd0027560001b6172fe565b6130707f5266d8043e2febed3730f4bc35f8cf590aff63aff9e91f24a90c59a89a22b85660001b6172fe565b670de0b6b3a7640000600b54613085846166d4565b61308f91906186a4565b6130999190618673565b9050919050565b600f5481565b60006130d47f2370e1e068fadad01ee0b9af2719aed177b38a958574b95ae15f8f8c6d5a39b760001b6172fe565b6131007f78f3dc7db35c3e86c67d714584dde787da6cabd1afc30a66e5f27ebff2dab69960001b6172fe565b61312c7fcc4932d09701056f0efb6fc9ebbb9f4a4d3afad11eed40a162201fe370e4f7fc60001b6172fe565b670de0b6b3a7640000600b5460115461314591906186a4565b61314f9190618673565b905090565b600a60009054906101000a900473ffffffffffffffffffffffffffffffffffffffff1681565b60075481565b600d60029054906101000a900460ff1681565b60145481565b6131c57f23759a95ca00864dcbe31194b6280411bf0e20505bc7e2887898e9f23d4ba8ef60001b6172fe565b6131f17ff58b21d6158031398ace4eaf68f84142c8c1a0a08292ea24e6df972b347cd3d960001b6172fe565b61321d7f62cff95067b744d69330cd1355379e15bf91671997dab5b7bc9a47d6c8dc989e60001b6172fe565b6132497fb6dddfcbfaa1edcf5e056f86b5dff4fe6a8e39f8383b671233ef62e0a23490a160001b6172fe565b600160009054906101000a900473ffffffffffffffffffffffffffffffffffffffff1673ffffffffffffffffffffffffffffffffffffffff163373ffffffffffffffffffffffffffffffffffffffff16146132d9576040517f08c379a00000000000000000000000000000000000000000000000000000000081526004016132d090618338565b60405180910390fd5b6133057ffae4ba70c67dd75c8eb0f780ca0d079c526285ba212f7bf13481cf309498067260001b6172fe565b6133317f6b36d1b4f5114c5fb2c767e24ff0c90c61c52e3d36f5d2d07d8a020d6e48e50060001b6172fe565b61335d7fadcd200b5b294bbe19ce939f91c143a43de0b28b0c13f1f28a010bb0b8ccfbbe60001b6172fe565b6133897fa06058456dfb1f7889777219e4122ba8e4a21632b5e3a189474a7b9b649c646b60001b6172fe565b6133b57f95b119c9da3c99bccd8b9747a2d70247e23c9486d84bdf988b7a77762a9a23ee60001b6172fe565b6133e17fcacef9ae692f65ef80c1ae42a9e37682237e47f39386930a1cdff3785794575560001b6172fe565b600d60009054906101000a900460ff1615613431576040517f08c379a000000000000000000000000000000000000000000000000000000000815260040161342890618358565b60405180910390fd5b61345d7f879f2ca5987d936ce1ef3a9775d2b7c29b0622c2c18fdac2005527bc8ec61c5a60001b6172fe565b6134897f9e22bbda331c4d1dcb06fd7395695d7351a0f27e7fca16e04ce7aa23e33f012860001b6172fe565b6134b57fb77c7b3e0ffde071485ec1b992803fb56436ffd1469d649dcacd44ca7671982860001b6172fe565b6134e17f7efda4911ec8287fa3999bfc19e6d041a19a57361a6d76d479362c36059e401760001b6172fe565b600d60019054906101000a900460ff1615613531576040517f08c379a0000000000000000000000000000000000000000000000000000000008152600401613528906183d8565b60405180910390fd5b61355d7fd358c9b4e5ab420be15fc8edf0dc8605f513d3569548836d9f2eddf902d5ed6360001b6172fe565b6135897f351487cb7c83b9948a3737b55463facf81ee9289ff79a84385a43ba35665aa5560001b6172fe565b6135b57f4c6d8ce852b0dc7e2a0fe8aaf25e21a91213b6101f7f1843eaa345edf8f8481360001b6172fe565b6135e17ffb84fb0e8da01faed4aaf969828a7405b1814f6e484fa24e70ac16eae4c6d1d060001b6172fe565b61360d7fc0a569cfa6716c35dce7c7875214d6f0be16cf136297e10e0f8400e222500b1760001b6172fe565b6001600d60016101000a81548160ff021916908315150217905550565b60006136587f1f18958b8f3a771c3e5234c6b31d25135b9ac656d16b25b7184dc46f8130ee2160001b6172fe565b6136847f37b7d5c606f8f29189ecef9a200d0e7f9b512782b8d150a432d1f510624eb9d760001b6172fe565b6136b07fbc66132def1e0a52b017542413c7a5e93994aa574a28e8985ac1452b94a0a64360001b6172fe565b6136db7e52b7670608c15431a632b873e40742a9eb48deb0274e6e5dc4f8226bcad81e60001b6172fe565b426007541115613720576040517f08c379a000000000000000000000000000000000000000000000000000000000815260040161371790618418565b60405180910390fd5b61374c7f589eadca2b98460153910f73d62c61176c511fadbf4e13d7c42af049819756c660001b6172fe565b6137787f383107609853e3bc1b9147988f210241e4be775e3454e6c2d6c7920faf47711960001b6172fe565b6137a47f9d4c07ca06dbc56617e1594b0879bbe02a337cfa2fbf54c08d093180aeda982860001b6172fe565b6137d07f79e932a5b2288adde5cd0ccda8810327542cb6a4b1ee8a239737b9c1f747108360001b6172fe565b600d60049054906101000a900460ff1615613820576040517f08c379a0000000000000000000000000000000000000000000000000000000008152600401613817906181d8565b60405180910390fd5b61384c7f737646d11dbf8b2e52585701f5f5eb8cff3e23a48211b3a0301ebd127c85d97e60001b6172fe565b6138787f8de8eda8832779466754002f6f0081ac0226e8053a5e4939f010994b9195bcb160001b6172fe565b6138a47fe37bfc4da27d08a86b8858219a45098e309dd32d7b691ac5e36b329e9daf6b8260001b6172fe565b6000601660003373ffffffffffffffffffffffffffffffffffffffff1673ffffffffffffffffffffffffffffffffffffffff16815260200190815260200160002090506139137f72b65fa4ce94abd3728b6be7bb93e64caff257418efdcbebb3fe851383dc39ee60001b6172fe565b61393f7f2dc4c68f7820c2b08118b2f58dbeb97a760d049fc4ccaef6034a238438138d2660001b6172fe565b6000816001015490506139747f2df62e9e0b3966912ee71275a1d4e8e16bb95aabd96524a3f873678771d7546560001b6172fe565b6139a07fc3a45b04d2292c96af7333f7708223fab841c04a1fdf3f6dedce3c03b4f0159160001b6172fe565b6139cc7fed20b9da110cff66e171ce690a5e5400b9ae0ce88fe79ad540156f60ea48643c60001b6172fe565b60008111613a0f576040517f08c379a0000000000000000000000000000000000000000000000000000000008152600401613a06906184b8565b60405180910390fd5b613a3b7f489888ce80a9ff98eee6e5d80906e08e70c5e5e0bb4faf5c18f0ef8812871c3260001b6172fe565b613a677f25cf0fd47149d14d6f35f0ba6d924d13cd61a7c0303f9598bf3c18a9d78443c960001b6172fe565b613a937f28bb4b2486a05225e726695ca58d1fb2206a78a1b713237351fa4c1451424afa60001b6172fe565b613a9c336166d4565b60106000828254613aad919061861d565b92505081905550613ae07f9c13a46ee22805ddd5c0bd0b319e37338b09b58e7f445fd6ce6419558c4c576a60001b6172fe565b613b0c7fac2664e5c9543ba2a83901b6d2ef52b836e1a9246a67eb5e0ce8a06681dc7f8060001b6172fe565b613b1533612fea565b60126000828254613b26919061861d565b92505081905550613b597f50c0851abbf9f10977134d4f61d744b63374252ad83e80ad0b4e1cc3b861f8ea60001b6172fe565b600f6000815480929190613b6c906187fa565b9190505550613b9d7f3552c8fb9df555f1f5d0c932994d169752012dd60334b9cea2017e3924cba65060001b6172fe565b613bc97f3e6b2c21c3f7178f2161a461aece4ad27d6f58da1f88d9081ed0ea21d134511860001b6172fe565b60008260010181905550613bff7fd77499741c37eb60990cb440819778bfe90e0855b56e667562c718c5f699870160001b6172fe565b613c2b7fa301fd73a86a2046027e5146e856674735508b1d4b0f155b71d618cdf2fdd1e060001b6172fe565b8060136000828254613c3d91906186fe565b92505081905550613c707f0bf301e4e64233f6f3f6a5ada4c0e972e1ebd4a34809a442fbec5a8c56d8f69860001b6172fe565b613c9c7fce004173c6358425c4ef8325945cd5d45e3a06e0eafa8fdb75b85e17819c470960001b6172fe565b613cc87f7bbe3a29b0ffc587c7ba83363cfe8ae8af58fa1e6ff8b211d01b02d20adfc85c60001b6172fe565b600a60009054906101000a900473ffffffffffffffffffffffffffffffffffffffff1673ffffffffffffffffffffffffffffffffffffffff1663a9059cbb33836040518363ffffffff1660e01b8152600401613d25929190618097565b602060405180830381600087803b158015613d3f57600080fd5b505af1158015613d53573d6000803e3d6000fd5b505050506040513d601f19601f82011682018060405250810190613d779190617a62565b613db6576040517f08c379a0000000000000000000000000000000000000000000000000000000008152600401613dad90618298565b60405180910390fd5b613de27fe3d8c55196f2ee50e0d2bea87b70f97a636ffa3552a1864d44405bd9b6d4da6f60001b6172fe565b613e0e7f5e4c43de6af618ec38f404ba3fd831b9daced9b0f9dadbe55e27ec86ff69def060001b6172fe565b613e3a7f628c48bc0982e1e93bf052b1e6e0c9f07be40afa228c64b3ecd3464210f8565260001b6172fe565b3373ffffffffffffffffffffffffffffffffffffffff167f1a689b1a62e3bb77f9c98d8759c04f341a67deb5cc63cf53be8324b69106495082604051613e8091906184d8565b60405180910390a2613eb47fe25eb971453556e984226e3ef8f4b77c0161405df9209c2809d3971d790adc1a60001b6172fe565b613ee07fad6d484c9f34c8ad32e6aaa66e96eed7ce2c907b43bc4fb9c02d2a73978dee6960001b6172fe565b809250505090565b60025481565b613f1a7f23759a95ca00864dcbe31194b6280411bf0e20505bc7e2887898e9f23d4ba8ef60001b6172fe565b613f467ff58b21d6158031398ace4eaf68f84142c8c1a0a08292ea24e6df972b347cd3d960001b6172fe565b613f727f62cff95067b744d69330cd1355379e15bf91671997dab5b7bc9a47d6c8dc989e60001b6172fe565b613f9e7fb6dddfcbfaa1edcf5e056f86b5dff4fe6a8e39f8383b671233ef62e0a23490a160001b6172fe565b600160009054906101000a900473ffffffffffffffffffffffffffffffffffffffff1673ffffffffffffffffffffffffffffffffffffffff163373ffffffffffffffffffffffffffffffffffffffff161461402e576040517f08c379a000000000000000000000000000000000000000000000000000000000815260040161402590618338565b60405180910390fd5b61405a7ffae4ba70c67dd75c8eb0f780ca0d079c526285ba212f7bf13481cf309498067260001b6172fe565b6140867f6b36d1b4f5114c5fb2c767e24ff0c90c61c52e3d36f5d2d07d8a020d6e48e50060001b6172fe565b6140b27f6991dc5463df0bbe0b7c16c21fae746d7c5450be036c1ab667b481054e93e67f60001b6172fe565b6140de7fee905e828a22bd3679e8c29a2ccf7388dbe4f5f4b3708eff8257fc9df7d9fd3360001b6172fe565b61410a7f69298a68b38168a23eb6f7849a4830c1ece32764a0973839d2d8a7fa10f5d1a360001b6172fe565b6141367f1af9d126752ad040a8041b7d2c9f6d211a3c198bc2cfee3c98d7a550de22274460001b6172fe565b600d60009054906101000a900460ff1615614186576040517f08c379a000000000000000000000000000000000000000000000000000000000815260040161417d90618358565b60405180910390fd5b6141b27f5c543d2b18ca9410e341e5fac3e72e49a48c7bd71b1915c7109b2e1280d448a060001b6172fe565b6141de7f04ce2756ef148d083c26732946547339aaab6aea34c67b6f4baf4422756ff31760001b6172fe565b61420a7fdf5b557f26da1d9ea63842e86f987f20c8cdeb1018ab697c713b6770b64d53d060001b6172fe565b6142367fe0aa21d945ebe0d311c5ce299bf3c7da996de1aceb20aa55d1d5f86d0034860b60001b6172fe565b60011515600960009054906101000a900460ff1615151461428c576040517f08c379a000000000000000000000000000000000000000000000000000000000815260040161428390618458565b60405180910390fd5b6142b87f0b04a812aee85c5ab2a0b5fbe9a0f46f18a5515f8fce838767560e0f03e0c6ba60001b6172fe565b6142e47fd9d78842c947546e34b5689c6ff1782f3c6b87c611c27fc93236f13300f0f7c960001b6172fe565b6143107f6bb5bbd32e92dafe979d585d748ab43eca3e1d07cf02108a400cb8b276ac263660001b6172fe565b6000601560008373ffffffffffffffffffffffffffffffffffffffff1673ffffffffffffffffffffffffffffffffffffffff16815260200190815260200160002060006101000a81548160ff02191690831515021790555050565b6143977f23759a95ca00864dcbe31194b6280411bf0e20505bc7e2887898e9f23d4ba8ef60001b6172fe565b6143c37ff58b21d6158031398ace4eaf68f84142c8c1a0a08292ea24e6df972b347cd3d960001b6172fe565b6143ef7f62cff95067b744d69330cd1355379e15bf91671997dab5b7bc9a47d6c8dc989e60001b6172fe565b61441b7fb6dddfcbfaa1edcf5e056f86b5dff4fe6a8e39f8383b671233ef62e0a23490a160001b6172fe565b600160009054906101000a900473ffffffffffffffffffffffffffffffffffffffff1673ffffffffffffffffffffffffffffffffffffffff163373ffffffffffffffffffffffffffffffffffffffff16146144ab576040517f08c379a00000000000000000000000000000000000000000000000000000000081526004016144a290618338565b60405180910390fd5b6144d77ffae4ba70c67dd75c8eb0f780ca0d079c526285ba212f7bf13481cf309498067260001b6172fe565b6145037f6b36d1b4f5114c5fb2c767e24ff0c90c61c52e3d36f5d2d07d8a020d6e48e50060001b6172fe565b61452f7f1b5971b2c302457f41f787a7fbc24a9b3dd465d176e8920923e2e5bf0e0af7d460001b6172fe565b61455b7fbee089c8a3961405fc709c91d7cf390e58f627b213a5127918c4163afc1c5f5360001b6172fe565b6145877f24261a485732abc7f41e4a4831c0cc7a781ae1493fc638809d3c96aba8c8c2a560001b6172fe565b6145b37f6aaff9935dcc76d65f300f0387917a1a8106f277ad36fd9d9228392ce72b05ef60001b6172fe565b600d60009054906101000a900460ff1615614603576040517f08c379a00000000000000000000000000000000000000000000000000000000081526004016145fa90618358565b60405180910390fd5b61462f7fa0f9292d4357d0644b610278c546c4e7c445b8c29f560590ff48fa8f1dcb342060001b6172fe565b61465b7f9e82b2c315823acd483e9e6281ed3486a176c49a47d06fec85f15722180d7d9a60001b6172fe565b6146877ff22b4421e4ff13c14f0ad483a3da450528b102e436a8d6f4df0c361f7c5dc88b60001b6172fe565b6146b37f103d47f74c4e7909441faee24c95b32a5214e5f6381950a7701e865a8093cf0760001b6172fe565b60011515600960009054906101000a900460ff16151514614709576040517f08c379a000000000000000000000000000000000000000000000000000000000815260040161470090618458565b60405180910390fd5b6147357f24fcfc13b7d062dc4969e4423583be5d2b123bd3e86033f116984a08c2efa98e60001b6172fe565b6147617fcb436a7149836165df7c5b14e783359d0615d8155596b39f84cbd03a9a9ea7d160001b6172fe565b61478d7f53707b318195c8b6bc07190704a30c0ffbfbd067cae795aafdb0fd4d7fc92a1d60001b6172fe565b6001601560008373ffffffffffffffffffffffffffffffffffffffff1673ffffffffffffffffffffffffffffffffffffffff16815260200190815260200160002060006101000a81548160ff02191690831515021790555050565b60065481565b600e5481565b60006148227f488982e03894e4504cd83d2158104df33ecbe2d26ee317962a70df3d4238d82d60001b6172fe565b61484e7f6dfcd283e0765ea093aa8cf19be4cbd2f05ba45827104238ad12d49ef9bb7d1c60001b6172fe565b61487a7febceb5a461fe6304db4c7e4ac7d9ef2e249afc854223fac08665d978fc690eff60001b6172fe565b6148a67ff115941e11f94e4ec07ef052b75fe5318586409b9e7d544c385129dd45422b2d60001b6172fe565b600d60049054906101000a900460ff166148f5576040517f08c379a00000000000000000000000000000000000000000000000000000000081526004016148ec90618478565b60405180910390fd5b6149217f44018bb02de1b2cbc21e4666238be5c55fe07ad93fa18d52cf3b52d932fcefa460001b6172fe565b61494d7febcc25d07686fd326949ab6a777076fedda13296f7448d846083d023bf9b7d5060001b6172fe565b6149797f02828046fb7d9cc1b2ca751c54a550bd07637f76a7e084f8e73b567ddb6d3dea60001b6172fe565b6149a57f2cbca0a9319d4cab8fb2d186107dfc7ac5993d283cae699809d800f314da469460001b6172fe565b4260085410806149c15750600d60059054906101000a900460ff165b614a00576040517f08c379a00000000000000000000000000000000000000000000000000000000081526004016149f7906181f8565b60405180910390fd5b614a2c7f801ff5645694e666ba1484ffedf40fc0a136b19ca272b7063ca9116ce927e94360001b6172fe565b614a587f5e66750b8989144567583cfde38f106de59b85e8df7ae11151bfaf6dfef3702a60001b6172fe565b614a847fe127733dff6162b04d2976eaad9097d1c3273cfe37c9d7f56e93bd3f0231387460001b6172fe565b6000614ab27f186700b312580e81df225bfd1bf425ae63b7b557285c5053385e4aa1b078d00860001b6172fe565b614ade7fa71c06472dec359d0ce469f17216371f5ea9b80ef23147ba05593f5adb19431c60001b6172fe565b614ae7846167e3565b9050614b157f503784f7c6ba413b948907fdebdc8e5851ed9d959fed346812e6f1a93fa65bb560001b6172fe565b614b417f72e5a43f4988cebbd09ac846b9eb2158c155a03ecf07da7ab10b89648dca764460001b6172fe565b614b6d7faefb70a5eccc779b5e143f916ea4d658a4f1298545a20f00f67bec3342cd76ea60001b6172fe565b60008111614bb0576040517f08c379a0000000000000000000000000000000000000000000000000000000008152600401614ba790618498565b60405180910390fd5b614bdc7f40f0f6c2ea42ff10c9f96a74e6afeb23f3a2d39c6134e43b39b01635399b6afc60001b6172fe565b614c087f3f82b0f62afe92113d9c220b4eb46e8bf1da621b8a94e8d037d8c58c63fd650860001b6172fe565b614c347fe6924beaca9e2cfd810c0580a7bb63194976b8875e8c32e5a30f765d005cd21d60001b6172fe565b614c607f32777321ea148c4f7e9bf00cfe4a184a3b0de92184884f844a21ab9d6b1e640460001b6172fe565b82811015614ca3576040517f08c379a0000000000000000000000000000000000000000000000000000000008152600401614c9a90618158565b60405180910390fd5b614ccf7f2c05c6893a8b05e2df7b2e8253cae62a2097c6e4607165045da8aedceb55f52460001b6172fe565b614cfb7fab062d67ee62e74117cc6e25d9ec187a214ebfab7204f184816a9688cf43764b60001b6172fe565b614d277f201a83eddfd6f12b02e9024f27ccae17969e33dbb39ab81d335bde9b1b11964f60001b6172fe565b6000670de0b6b3a7640000600b5485614d4091906186a4565b614d4a9190618673565b9050614d787f0b8582c47992c2bb928158113b9fbc61ccdc88fa6ef12d5e5027ade3182ad04060001b6172fe565b614da47fc461be120e66433583f7b1b9ddfefa65d3d911492a2ffb9ad4235817d2fb35ca60001b6172fe565b83601660008773ffffffffffffffffffffffffffffffffffffffff1673ffffffffffffffffffffffffffffffffffffffff1681526020019081526020016000206000016000828254614df6919061861d565b92505081905550614e297f632ed2daeb1481d181617471ebed8ff9d300f1148ca05d2299b3757ce84d4c9a60001b6172fe565b614e557fa3ac1aa4831ee0dc1ebdb44f5c759b9b1ce6be5dd84d25b84e079fd5f57a05aa60001b6172fe565b8360116000828254614e67919061861d565b92505081905550614e9a7fd1e968ed0c68f84811bacf6965d2e8281b6a47174702e41a4357fde47ca4f27c60001b6172fe565b614ec67f891bf4baf1ae0139adacac5567c65d7cb445776f16d27af4813a0075b917a41160001b6172fe565b614ef27f976352168b58b57b5cc36d5167c105e03f0e9cee989a66cf5a284e69c5b41d0560001b6172fe565b60098054906101000a900473ffffffffffffffffffffffffffffffffffffffff1673ffffffffffffffffffffffffffffffffffffffff1663a9059cbb60008054906101000a900473ffffffffffffffffffffffffffffffffffffffff16836040518363ffffffff1660e01b8152600401614f6d929190618097565b602060405180830381600087803b158015614f8757600080fd5b505af1158015614f9b573d6000803e3d6000fd5b505050506040513d601f19601f82011682018060405250810190614fbf9190617a62565b8015615074575060098054906101000a900473ffffffffffffffffffffffffffffffffffffffff1673ffffffffffffffffffffffffffffffffffffffff1663a9059cbb86866040518363ffffffff1660e01b8152600401615021929190618097565b602060405180830381600087803b15801561503b57600080fd5b505af115801561504f573d6000803e3d6000fd5b505050506040513d601f19601f820116820180604052508101906150739190617a62565b5b6150b3576040517f08c379a00000000000000000000000000000000000000000000000000000000081526004016150aa906182f8565b60405180910390fd5b6150df7f4842894ffe3ccd8ca8645d1e8f02af0685b9e658975f56ab30953c9258dbcd0b60001b6172fe565b61510b7f111db02e1cde8e9e8d2b88e74ec26f8002d0b468d6dee749b10506311b22f36e60001b6172fe565b6151377f4f2e16a936f9444fba42e01b010593b82749708bf1b9b2bf9d68caaec5cb9a4e60001b6172fe565b60008054906101000a900473ffffffffffffffffffffffffffffffffffffffff1673ffffffffffffffffffffffffffffffffffffffff168573ffffffffffffffffffffffffffffffffffffffff167f9bd10be98695714f5cb43cefb59ba6417808b354710acafafe05e81b2649223186846040516151b69291906184f3565b60405180910390a36151ea7f40adc1e57cf69b0e76d9c1f022d80783e4041b00504a6e2269e41ccff55a7eb260001b6172fe565b6152167f17d1060215da20bd1688835a189ea4dbe221c9a088136d19a2d6460fe284fa5360001b6172fe565b809250505092915050565b60125481565b60045481565b60156020528060005260406000206000915054906101000a900460ff1681565b60008061527c7fadcd200b5b294bbe19ce939f91c143a43de0b28b0c13f1f28a010bb0b8ccfbbe60001b6172fe565b6152a87fa06058456dfb1f7889777219e4122ba8e4a21632b5e3a189474a7b9b649c646b60001b6172fe565b6152d47f95b119c9da3c99bccd8b9747a2d70247e23c9486d84bdf988b7a77762a9a23ee60001b6172fe565b6153007fcacef9ae692f65ef80c1ae42a9e37682237e47f39386930a1cdff3785794575560001b6172fe565b600d60009054906101000a900460ff1615615350576040517f08c379a000000000000000000000000000000000000000000000000000000000815260040161534790618358565b60405180910390fd5b61537c7f879f2ca5987d936ce1ef3a9775d2b7c29b0622c2c18fdac2005527bc8ec61c5a60001b6172fe565b6153a87f9e22bbda331c4d1dcb06fd7395695d7351a0f27e7fca16e04ce7aa23e33f012860001b6172fe565b6153d47fb77c7b3e0ffde071485ec1b992803fb56436ffd1469d649dcacd44ca7671982860001b6172fe565b6154007f7efda4911ec8287fa3999bfc19e6d041a19a57361a6d76d479362c36059e401760001b6172fe565b600d60019054906101000a900460ff1615615450576040517f08c379a0000000000000000000000000000000000000000000000000000000008152600401615447906183d8565b60405180910390fd5b61547c7fd358c9b4e5ab420be15fc8edf0dc8605f513d3569548836d9f2eddf902d5ed6360001b6172fe565b6154a87f351487cb7c83b9948a3737b55463facf81ee9289ff79a84385a43ba35665aa5560001b6172fe565b6154d47f210dd8fd2a08ee36f0081fcf694cd10bf9577c0d0f6bb19f8f08cb38ee44949e60001b6172fe565b6155007fd0972dbf318a67aba92d1da2029422ba9684b7ba1f2216b13b3f4a8154f1d41260001b6172fe565b61552c7f3105402ba9f3762c5b09471d9999c085734a5d6649397de4f8c245e570102f4860001b6172fe565b6155587f7483972e89f5090658a8103fcad463a027b6e124844f456c553e168077c4e9da60001b6172fe565b600d60059054906101000a900460ff16156155a8576040517f08c379a000000000000000000000000000000000000000000000000000000000815260040161559f90618138565b60405180910390fd5b6155d47fc8e8750f67df95462b04749df657c7a699da79727c28728da489784d3598cfce60001b6172fe565b6156007fef0af30d7a89ecb7ba853b166864dfd8374eaac5ab37c4ba652404532515759960001b6172fe565b61562c7f4327d41db31649082e383ba76103dd6854006f2a714055893ac7e46de730a63760001b6172fe565b6156587fca211f2f95fba179c3e7cabfb290e8af024f027356a7df83991c4f7cd224e3a060001b6172fe565b600960009054906101000a900460ff1615806156bd5750601560003373ffffffffffffffffffffffffffffffffffffffff1673ffffffffffffffffffffffffffffffffffffffff16815260200190815260200160002060009054906101000a900460ff165b6156fc576040517f08c379a00000000000000000000000000000000000000000000000000000000081526004016156f3906182b8565b60405180910390fd5b6157287fa815e4fca3fcbff0bdcb3134c9489deb251cf2ea094f10ebd40a0aa201d3f57860001b6172fe565b6157547f12e0621b2f2bfb7d7f0f4e8c99b75454f46597e2ab54f319c22882abd871167f60001b6172fe565b6157807f356d3ba690b94d88b6375767c6f8ffd978525b1e9fb1dbb765df336b0385692960001b6172fe565b6157ac7fba8817552e5e92ddd3d5cf2f99acf9983c48aedca4b7105fa5ac5bacdf88609860001b6172fe565b42600854101580156157c057504260075411155b6157ff576040517f08c379a00000000000000000000000000000000000000000000000000000000081526004016157f690618378565b60405180910390fd5b61582b7fa7eab36d130e5f91e5730f5945277400bf88024a8afe8cce441b89098b38249060001b6172fe565b6158577fa87a6d7794fb061d36c11e3ae5509e8e336b6e0188b50b698dd03459faf338fd60001b6172fe565b6158837f6a868ea86d13948208d89a2cc62b562e0bc5fdfb84858038e9098606410fdc3460001b6172fe565b600d60029054906101000a900460ff16615ae5576158c37f1aa962ffd3f896332803ee20e1e0f207ce1a4c918687abdbc5455590db8b14c460001b6172fe565b6158ef7f0b4ef86d0b36a7aa31865d39879dcbdc83f140e7d934fd2d4ecfbfc10b08dd1d60001b6172fe565b61591b7fae0b7181a1ac4d7eb1702407fb9cbf8c6dcc9028e1718c067568dba3b144b87160001b6172fe565b6159477f40800eca550faf1a87f287f6bd89a1299b5cbfdcc1cc2a2afb887c62f733bd9c60001b6172fe565b600554600454615957919061861d565b60098054906101000a900473ffffffffffffffffffffffffffffffffffffffff1673ffffffffffffffffffffffffffffffffffffffff166370a08231306040518263ffffffff1660e01b81526004016159b09190618045565b60206040518083038186803b1580156159c857600080fd5b505afa1580156159dc573d6000803e3d6000fd5b505050506040513d601f19601f82011682018060405250810190615a009190617b32565b1015615a41576040517f08c379a0000000000000000000000000000000000000000000000000000000008152600401615a3890618438565b60405180910390fd5b615a6d7f5434bbc016c767b2c467222e070992ac154e0c2642f52818bc5f6017f4ec604960001b6172fe565b615a997fd701244248e6c978627c20939f2b3f3eb2ee65657f2ad5700a735fc72a34971360001b6172fe565b615ac57fb8ec3febbcd15dc78ceae64b415cba722f98cb0f09e89487dddb0b24ea09c0b860001b6172fe565b6001600d60026101000a81548160ff021916908315150217905550615b12565b615b117fd9f7fbafa0f1d0f2a64f4b948744cc651bd637c86d18ff7fca3e626b40aa703760001b6172fe565b5b615b3e7f1925446093c4b7eb47a99a0e01d685218fe391ef4a4b7ec44bdcb20a5c3a39b960001b6172fe565b615b6a7f87791698816ca7ba38f1127ad1fb5962ec26311ef66bcd9931949bfe304e709460001b6172fe565b6000600654670de0b6b3a764000085615b8391906186a4565b615b8d9190618673565b9050615bbb7fccd8284f50e673f7dd5d5ee30d5912ea5d38b1fc61143b45460ac4449fb032d660001b6172fe565b615be77fe53c823c9b6cfb43ac8d6e3cd4bfa58b7a6227b9de2af4aaba4747ec33e8994060001b6172fe565b6000670de0b6b3a7640000600b5483615c0091906186a4565b615c0a9190618673565b9050615c387f7785b1b9f144fcc84284c5a57d709d23d7eac80dbe751787711a4dfe8d84497a60001b6172fe565b615c647f4e7a6d7544d2801a8589af4929f1275ed401ecce80fa936f0fbea1f1107f618560001b6172fe565b615c907f7bcaa07f4fbe3d36438af3cc84f4a9746ce24fce29855449f86f6179fd78f23660001b6172fe565b600960019054906101000a900463ffffffff1663ffffffff16821015615ceb576040517f08c379a0000000000000000000000000000000000000000000000000000000008152600401615ce290618258565b60405180910390fd5b615d177f97506e001f5abb6e8bb2d16397170865493a4d68eb4b69457cb26b5587c5ca0a60001b6172fe565b615d437ff7c1e8cfca58aa5eb8df059dce657f4b46dc84dc746339950cb32d5e52540e0060001b6172fe565b615d6f7ff5b64f584f44b525c60ed46e4be95930aeacd8d1a4d8f78a314a242ad860f8ed60001b6172fe565b615d9b7f3103387422d765c0e34856aec86591ad8df41f04726cfce7567c868e7e69da6960001b6172fe565b60035485601354615dac919061861d565b1115615ded576040517f08c379a0000000000000000000000000000000000000000000000000000000008152600401615de490618198565b60405180910390fd5b615e197f1fd31287ad8b2410ae4736678c8815b0d7a0521955f0ed0b3ef1dfd5d7f99c2c60001b6172fe565b615e457f5bace59ed90b0f2a8fd638d9286f3629037c644cbef4977f622aeabbe28faa8d60001b6172fe565b615e717f0f8e21b1d61cece7e4a2dbce1cb4527fd5eb0cb69f359a783e02dc676ac29a3760001b6172fe565b8460136000828254615e83919061861d565b92505081905550615eb67f869afba111e7b82e957be15861cdf923e1e18287c8f6e9b7fba21a16df862f4360001b6172fe565b615ee27f688b8f4677a9e5707d7ccf9c4974492b896189908fd924a45c5e5b0bf2c58b1260001b6172fe565b8160106000828254615ef491906186fe565b92505081905550615f277f884cc93461f666abd25408a58418990db534bc00b8b6ad2cd4dc43ad446a657a60001b6172fe565b615f537fa89553b38eafffdc6e7f3245c9e9c067ce2cf05870f75903b58f56de230ba9a660001b6172fe565b8060126000828254615f6591906186fe565b92505081905550615f987f2e367aff11ef48c99baab7a9b8705e3685861e2848c124d770b02d072362904c60001b6172fe565b615fc47f5402dc031f77cd9e0812312e31d09ad761280e5dd8c01377839922407168f6bb60001b6172fe565b6002546013541061607357615ffb7f44ca6bea6a25fbf03c34c41dc7ec73322d21fbeaa2c1e1613043fe04040ef00c60001b6172fe565b6160277f7ed7e720f106e5067261d7ff81a95ea3c0ad99fc84fd6366cf2fadc964e3c12760001b6172fe565b6160537fd88e1e14b51578d0f7cf30bf23fc4f9ef93117a58102db89820a02c5a8369c9260001b6172fe565b6001600d60046101000a81548160ff0219169083151502179055506160a0565b61609f7fc37f366513f27eaf5ed331536cba76d551e2bac03961a124d68b77cddac9f91d60001b6172fe565b5b6160cc7f07a0e6b724ac8bd19380e9f8ed7ddd9a71a8806fec60cdc83ca85f3b5569f6f760001b6172fe565b6160f87f8b23be52e862a1239f1a6a136f0fa7a562a301c727250df28b74c04fbed642da60001b6172fe565b600354601354106162065761612f7f9a64a94dd183a02135177517ae8d29bb4a612a6e0faf70f331c62b6ed862334360001b6172fe565b61615b7ff7707bf5c1d812f4413c6d0fc5810a4d01053e4140d8bbb8a67246ff82f4019f60001b6172fe565b6161877f5bb6bb26b1f3239b62e59780eddc6a1afda881e0211545c66bec18dfd24857d860001b6172fe565b6001600d60056101000a81548160ff0219169083151502179055506161ce7f0fae4c7467e77dab754d6a519f8f91c69253ca6619111b218dac5eb7a38eb44a60001b6172fe565b6161fa7fa8a4a9727af220a796998aa9916d8d846308713e264aa19cda349004c4b8184560001b6172fe565b42600e81905550616233565b6162327f5e020fbb51be644b72586faf1c5d40b72ef5c0c72f58fc9615315a0383dd9eff60001b6172fe565b5b61625f7f1c6de5db7cdf310bb56b7308958062f7283086ea06e75461aadc47b79678244e60001b6172fe565b61628b7fa800ac20e885f37f5660ee21dfb0ad4edcffb7c894be97929edf4cccacd6750360001b6172fe565b6000601660003373ffffffffffffffffffffffffffffffffffffffff1673ffffffffffffffffffffffffffffffffffffffff16815260200190815260200160002060010154141561634b576163027f5b2e8351b28bf044a4789943021e84ff6f5b88cc2321a808035f5fd644936b4a60001b6172fe565b61632e7fa2ad5759389a0cc4c604e53daa9376ec29ac111f2e430cc0ece2a44cb603110760001b6172fe565b600f600081548092919061634190618887565b9190505550616378565b6163777f6ac0f7896d8fd66ffea708149192a38747215800467d7d1223bb3d0a78770eca60001b6172fe565b5b6163a47f13dfed05980a429723fe5d934fd74e48a02281117ef7703f20c768caddbc397460001b6172fe565b6163d07f55c31e4be563d7d4ee7f6e3abf8a181702a76c2059e5f1ac6a5e7ddb677f56cb60001b6172fe565b84601660003373ffffffffffffffffffffffffffffffffffffffff1673ffffffffffffffffffffffffffffffffffffffff1681526020019081526020016000206001016000828254616422919061861d565b925050819055506164557fb6b1fff5e1f76913aeed04382982a204c5da7753c3b53153a3801ac20902344660001b6172fe565b6164817fb606fa86f919315ce97fa3b79c1e1e6e13f108355e42a6b5147ff9817f3d81a860001b6172fe565b6164ad7f4275d2ddd37f077dd1333361d43eba631078b22914ad92da11bde1d4b4ff14ec60001b6172fe565b600a60009054906101000a900473ffffffffffffffffffffffffffffffffffffffff1673ffffffffffffffffffffffffffffffffffffffff166323b872dd3330886040518463ffffffff1660e01b815260040161650c93929190618060565b602060405180830381600087803b15801561652657600080fd5b505af115801561653a573d6000803e3d6000fd5b505050506040513d601f19601f8201168201806040525081019061655e9190617a62565b61659d576040517f08c379a0000000000000000000000000000000000000000000000000000000008152600401616594906183f8565b60405180910390fd5b6165c97f283d127b3d1c60974c16da07a58f26bc9ec759ab41dbdde0cd54fbc9710c4c2160001b6172fe565b6165f57f4231fa21ce4685b9f405e4370f459f1b5dddc4e82e556204bec0e632dcbcd33b60001b6172fe565b6166217f55f60aea14794c9b780f4ed9e41e6084f143238d9e5b0431b9dd0899c3b6d69560001b6172fe565b3373ffffffffffffffffffffffffffffffffffffffff167fcf5ef2b227e797b567f0df4c49cc8b6207cfb60054eb899e5608de08e5dcb1ef8360405161666791906184d8565b60405180910390a261669b7f2ce53dbc21d9ae6f37c8b0c9e99d1f75b4b3847cc2b47c9450802efbaa9feeb360001b6172fe565b6166c77feb1965d419a36fcba7e0e424efa450a2b5bcb441497429a496ad82033844576d60001b6172fe565b8181935093505050915091565b60006167027f8510926acb7cb5ed9a751d905aae1ba75857e8ad4945715d2c815b32dcc0439360001b6172fe565b61672e7fd9dd92a9a12b2a78359844666207892ac48d92ca7df4358e4b7fa072715973f560001b6172fe565b61675a7f78a19c0a2173721c2d3e0370ef597beba62973f432f04be55c17a856432fbc9160001b6172fe565b600654670de0b6b3a7640000601660008573ffffffffffffffffffffffffffffffffffffffff1673ffffffffffffffffffffffffffffffffffffffff168152602001908152602001600020600101546167b391906186a4565b6167bd9190618673565b9050919050565b600b5481565b600d60049054906101000a900460ff1681565b60055481565b60006168117f4c1d5a450f81acabe11c77a017b856cb841b0f2ba30a712a81aeec4f9e33231e60001b6172fe565b61683d7f022ddc75f61a49f8abd409f1358ad3c69781dc2df79bfd4d67ea7353b6b6bace60001b6172fe565b6168697f4c0fb4eeab6520b30497aac7021f2d6efa05c3251230a6884182914ac461c2d060001b6172fe565b6000601660008473ffffffffffffffffffffffffffffffffffffffff1673ffffffffffffffffffffffffffffffffffffffff16815260200190815260200160002090506168d87f21d7172b1e16a23fc7b543949cbc1060dd6f6ad6effe9f055ebfdd429362602260001b6172fe565b6169047fa741ad30dfd218f614e2469fa6f2522bf3b5cc0fab56d013de1157f757d0f20b60001b6172fe565b600e5442101561699c5761693a7f71d6dffa9d7358cf10115554fbf300d22c08ecb1a3bdc2eb322132230048388e60001b6172fe565b6169667fc642483cedc56416b86a32e36a2d3818b1b31cba04c2976f3969f9b6ea954d1960001b6172fe565b6169927f652bc72022983f8fcfb815ef8c0d5b71c8a8a89b2e6483938748d366c31d124a60001b6172fe565b6000915050616dae565b6169c87f028e0d129bdcb8fa25b5ef02c772f28a268650ae1ef81fa8e52030d1b75b3dda60001b6172fe565b6169f47faee52fc548021dffde70305d2ce7a701e6d1e973b4e8b0431b658143e87c2e2c60001b6172fe565b616a207f4c6a4e6f9939a7b9b4a0ae5d23c77c2b1007380c6af737a5701313948a5dfa9760001b6172fe565b6000600e5442616a3091906186fe565b9050616a5e7f2c4c3b87ba51769b65fdd66fb8bd59efa78d2f1729536b1dc08c3aed17f9f80760001b6172fe565b616a8a7fc07f783d43470c52017b64cd5f16771ca397b00fde7641900e29d4bc4d1aa89460001b6172fe565b600960059054906101000a900463ffffffff1663ffffffff16811015616b3957616ad67f3ef86dc5d3514183416ef0bb2b769d81f4749ebefef56ba257485abac6eaeae660001b6172fe565b616b027f61d0227fb574988db287c2ebe7ec3967fa4715fdb3215d00cddeace57535c06d60001b6172fe565b616b2e7f976b6342c757c25ca4a42ee4ec6a66f77e2b84ac25e1eff484cccdf1815f6cae60001b6172fe565b600092505050616dae565b616b657f69eb3700c6feb434cc2373ee3dfafb7cc9c541bd014a90def22d7443b0ac59cf60001b6172fe565b616b917f98dc27feb11be18f62d93006829362882881971a50365f2d147796ae56db61f360001b6172fe565b616bbd7f87a0bf971b5d14e7ea4ee14135c76b230585eceff9f90b734292943c2eb308a460001b6172fe565b600960019054906101000a900463ffffffff1663ffffffff168110616c8157616c087f92fabe17f3b3095bb33e03a8aca9098a897d7621abf85db0e764fcd3e93bdadf60001b6172fe565b616c347f5e6a759cb929425adc4c9741583fd39f067597021d55435f80eb15105dce2e5b60001b6172fe565b616c607f45276a11fa15228f3a7985e10b8e620568aff548574bff202124fbb9b74f74f960001b6172fe565b8160000154616c6e856166d4565b616c7891906186fe565b92505050616dae565b616cad7f5cf3fe4b542bfa5f6c9ef3002fa3fa9279a25767b237db69931332ffc180497660001b6172fe565b616cd97f0a7fcdeb2261750a5fc99d8d66c31c650a4b389cdc70128cc62a8cb5e96d863660001b6172fe565b616d057fb148465a8609cbe9a883ca012503d814b60eca63c24536431d36c500fef8647e60001b6172fe565b6000600960019054906101000a900463ffffffff1663ffffffff16616d29866166d4565b83616d3491906186a4565b616d3e9190618673565b9050616d6c7fd71e6156153d07eaeffd0741daa51f03e52b9db677596e1f03f0a48798bcfea460001b6172fe565b616d987fa3f2e2426b6db0b6e6b535aae153c82ae25686983110112bb2f336d5726f200b60001b6172fe565b826000015481616da891906186fe565b93505050505b919050565b616ddf7f23759a95ca00864dcbe31194b6280411bf0e20505bc7e2887898e9f23d4ba8ef60001b6172fe565b616e0b7ff58b21d6158031398ace4eaf68f84142c8c1a0a08292ea24e6df972b347cd3d960001b6172fe565b616e377f62cff95067b744d69330cd1355379e15bf91671997dab5b7bc9a47d6c8dc989e60001b6172fe565b616e637fb6dddfcbfaa1edcf5e056f86b5dff4fe6a8e39f8383b671233ef62e0a23490a160001b6172fe565b600160009054906101000a900473ffffffffffffffffffffffffffffffffffffffff1673ffffffffffffffffffffffffffffffffffffffff163373ffffffffffffffffffffffffffffffffffffffff1614616ef3576040517f08c379a0000000000000000000000000000000000000000000000000000000008152600401616eea90618338565b60405180910390fd5b616f1f7ffae4ba70c67dd75c8eb0f780ca0d079c526285ba212f7bf13481cf309498067260001b6172fe565b616f4b7f6b36d1b4f5114c5fb2c767e24ff0c90c61c52e3d36f5d2d07d8a020d6e48e50060001b6172fe565b616f777f5f95a45847f8da1d29165797cf74d37e1e47b15dcc1e51590de932c046069eba60001b6172fe565b616fa37f4e3133c86092974df798c351dd49e3f63733d04820ee5fa38b32ef232235fde860001b6172fe565b616fcf7f0f83ae3ce8598834ead4d747285c928e87f0300c4e294d8c26ccdc7900d606c160001b6172fe565b616ffb7f62264a5d2427c61b1a14529fd6a5e6bb4da7b711fed996905154f92f92f0b91860001b6172fe565b600d60009054906101000a900460ff161561704b576040517f08c379a000000000000000000000000000000000000000000000000000000000815260040161704290618358565b60405180910390fd5b6170777fed33311d7b7c56aadecfbc86c81c3b8307dff86eaefe77877633525e78000b2160001b6172fe565b6170a37f1ffec971e823c45ab56af0baa00afc3cf446355df2bb5ffd7e737bfa8957e3e460001b6172fe565b6170cf7f4718b82aad17f7b381b1215ef35afcbf3ce84c254f091be40cb1afc47b73ec7660001b6172fe565b6170fb7f5164262214be6917929d0ccb84b20e547763cc0534665a37308000e8b0a1255360001b6172fe565b60011515600960009054906101000a900460ff16151514617151576040517f08c379a000000000000000000000000000000000000000000000000000000000815260040161714890618458565b60405180910390fd5b61717d7fe0f3337d4a7a2b4c0321e98dacd9fdf5be32896177b9625078be359fc3e8f4ab60001b6172fe565b6171a97fec626163bffe14b63ea9b667a1b38dce27ce8df30cd657029d02b839036ea3b360001b6172fe565b6171d57f1c52662a401747a6d4e50b0e0d029ae870bff54ff3ec0e253605f47e43bebc5560001b6172fe565b60005b81518110156172be5761720d7fb40391a6ff48346616ba8d729449618cbc0df9a6ead9ddfd1a90f1a9c3f11b3560001b6172fe565b6172397f8a01ef2d5db15ebea86bcc6593d6beca6d57313d41723ff1666ef160f6ef5df960001b6172fe565b6001601560008484815181106172525761725161895d565b5b602002602001015173ffffffffffffffffffffffffffffffffffffffff1673ffffffffffffffffffffffffffffffffffffffff16815260200190815260200160002060006101000a81548160ff02191690831515021790555080806172b690618887565b9150506171d8565b5050565b600960059054906101000a900463ffffffff1681565b600160009054906101000a900473ffffffffffffffffffffffffffffffffffffffff1681565b50565b60035481565b6173337f639fcedadb591f7ef297131da4538b37606888fc1f36b3334a1b24a8a24ce2bc60001b6172fe565b61735f7f45edd89219ff6f2b7e2f7959f2cbcec92efd01a967aecf669978ad51000fd98660001b6172fe565b61738b7f1908eb845d29ba76719affcae7c205d4f828ceb9f13b7941a23c2eae592981b460001b6172fe565b6173b77f91921a56ffddedd1db66f7809349cc2e1049d44de2e4a4b72ed276ee32dd9b7e60001b6172fe565b60011515600d60039054906101000a900460ff1615151415806174275750600160009054906101000a900473ffffffffffffffffffffffffffffffffffffffff1673ffffffffffffffffffffffffffffffffffffffff163373ffffffffffffffffffffffffffffffffffffffff16145b617466576040517f08c379a000000000000000000000000000000000000000000000000000000000815260040161745d906181b8565b60405180910390fd5b6174927f47ccc48ec54266d9fcf20570309d205df17d5ab13981739c1e1abb3a23baa4a360001b6172fe565b6174be7f11ce8657f404b3255d4ad5f69c1ab47a8f7fc78f59fc1d3cc81318773cc5504d60001b6172fe565b6174ea7fe63e5c25a3b5b6db96c3ab14f905da9ff7d5b0f150f38da207e27cc55ea84c4560001b6172fe565b80600c908051906020019061750092919061759e565b5061752d7f9b3cbc42300ceaf90ee1e8c3b8bc78c0eb13eee05ecf2966d903200145fbeffe60001b6172fe565b6175597f4f26fef1d164125f55b8c28bfff1df602e246d8278be4433e912064139fe76fb60001b6172fe565b80604051617567919061802e565b60405180910390207f09f579b21815d3f81581d32e97736ccba1cc89d1918e48da28e6e206acd9686460405160405180910390a250565b8280546175aa90618824565b90600052602060002090601f0160209004810192826175cc5760008555617613565b82601f106175e557805160ff1916838001178555617613565b82800160010185558215617613579182015b828111156176125782518255916020019190600101906175f7565b5b5090506176209190617624565b5090565b5b8082111561763d576000816000905550600101617625565b5090565b600061765461764f8461855c565b618537565b90508083825260208201905082856020860282011115617677576176766189c0565b5b60005b858110156176a7578161768d8882617763565b84526020840193506020830192505060018101905061767a565b5050509392505050565b60006176c46176bf84618588565b618537565b905080838252602082019050828560208602820111156176e7576176e66189c0565b5b60005b8581101561771757816176fd8882617841565b8452602084019350602083019250506001810190506176ea565b5050509392505050565b600061773461772f846185b4565b618537565b9050828152602081018484840111156177505761774f6189c5565b5b61775b8482856187b8565b509392505050565b600081359050617772816191f7565b92915050565b600082601f83011261778d5761778c6189bb565b5b813561779d848260208601617641565b91505092915050565b600082601f8301126177bb576177ba6189bb565b5b81356177cb8482602086016176b1565b91505092915050565b6000813590506177e38161920e565b92915050565b6000815190506177f88161920e565b92915050565b60008135905061780d81619225565b92915050565b600082601f830112617828576178276189bb565b5b8135617838848260208601617721565b91505092915050565b6000813590506178508161923c565b92915050565b6000815190506178658161923c565b92915050565b60008135905061787a81619253565b92915050565b600060208284031215617896576178956189cf565b5b60006178a484828501617763565b91505092915050565b60008060008060008060008060008060006101608c8e0312156178d3576178d26189cf565b5b60006178e18e828f01617763565b9b505060206178f28e828f01617763565b9a505060408c013567ffffffffffffffff811115617913576179126189ca565b5b61791f8e828f01617778565b99505060608c013567ffffffffffffffff8111156179405761793f6189ca565b5b61794c8e828f016177a6565b985050608061795d8e828f01617841565b97505060a061796e8e828f01617841565b96505060c061797f8e828f01617841565b95505060e06179908e828f0161786b565b9450506101006179a28e828f0161786b565b9350506101206179b48e828f016177d4565b9250506101406179c68e828f01617841565b9150509295989b509295989b9093969950565b600080604083850312156179f0576179ef6189cf565b5b60006179fe85828601617763565b9250506020617a0f85828601617841565b9150509250929050565b600060208284031215617a2f57617a2e6189cf565b5b600082013567ffffffffffffffff811115617a4d57617a4c6189ca565b5b617a5984828501617778565b91505092915050565b600060208284031215617a7857617a776189cf565b5b6000617a86848285016177e9565b91505092915050565b600060208284031215617aa557617aa46189cf565b5b6000617ab3848285016177fe565b91505092915050565b600060208284031215617ad257617ad16189cf565b5b600082013567ffffffffffffffff811115617af057617aef6189ca565b5b617afc84828501617813565b91505092915050565b600060208284031215617b1b57617b1a6189cf565b5b6000617b2984828501617841565b91505092915050565b600060208284031215617b4857617b476189cf565b5b6000617b5684828501617856565b91505092915050565b617b6881618732565b82525050565b617b7781618744565b82525050565b6000617b88826185e5565b617b9281856185f0565b9350617ba28185602086016187c7565b617bab816189d4565b840191505092915050565b6000617bc1826185e5565b617bcb8185618601565b9350617bdb8185602086016187c7565b80840191505092915050565b617bf081618794565b82525050565b6000617c0360348361860c565b9150617c0e826189e5565b604082019050919050565b6000617c26601d8361860c565b9150617c3182618a34565b602082019050919050565b6000617c49602e8361860c565b9150617c5482618a5d565b604082019050919050565b6000617c6c60308361860c565b9150617c7782618aac565b604082019050919050565b6000617c8f602a8361860c565b9150617c9a82618afb565b604082019050919050565b6000617cb260428361860c565b9150617cbd82618b4a565b606082019050919050565b6000617cd560208361860c565b9150617ce082618bbf565b602082019050919050565b6000617cf8602b8361860c565b9150617d0382618be8565b604082019050919050565b6000617d1b602d8361860c565b9150617d2682618c37565b604082019050919050565b6000617d3e603b8361860c565b9150617d4982618c86565b604082019050919050565b6000617d61601f8361860c565b9150617d6c82618cd5565b602082019050919050565b6000617d8460628361860c565b9150617d8f82618cfe565b608082019050919050565b6000617da760308361860c565b9150617db282618d99565b604082019050919050565b6000617dca601a8361860c565b9150617dd582618de8565b602082019050919050565b6000617ded603d8361860c565b9150617df882618e11565b604082019050919050565b6000617e1060208361860c565b9150617e1b82618e60565b602082019050919050565b6000617e3360168361860c565b9150617e3e82618e89565b602082019050919050565b6000617e56601c8361860c565b9150617e6182618eb2565b602082019050919050565b6000617e79601a8361860c565b9150617e8482618edb565b602082019050919050565b6000617e9c602d8361860c565b9150617ea782618f04565b604082019050919050565b6000617ebf60518361860c565b9150617eca82618f53565b606082019050919050565b6000617ee260228361860c565b9150617eed82618fc8565b604082019050919050565b6000617f05601a8361860c565b9150617f1082619017565b602082019050919050565b6000617f2860278361860c565b9150617f3382619040565b604082019050919050565b6000617f4b60228361860c565b9150617f568261908f565b604082019050919050565b6000617f6e60238361860c565b9150617f79826190de565b604082019050919050565b6000617f91601d8361860c565b9150617f9c8261912d565b602082019050919050565b6000617fb460248361860c565b9150617fbf82619156565b604082019050919050565b6000617fd7601b8361860c565b9150617fe2826191a5565b602082019050919050565b6000617ffa60198361860c565b9150618005826191ce565b602082019050919050565b6180198161877a565b82525050565b61802881618784565b82525050565b600061803a8284617bb6565b915081905092915050565b600060208201905061805a6000830184617b5f565b92915050565b60006060820190506180756000830186617b5f565b6180826020830185617b5f565b61808f6040830184618010565b949350505050565b60006040820190506180ac6000830185617b5f565b6180b96020830184618010565b9392505050565b60006020820190506180d56000830184617b6e565b92915050565b600060208201905081810360008301526180f58184617b7d565b905092915050565b60006020820190506181126000830184617be7565b92915050565b6000602082019050818103600083015261813181617bf6565b9050919050565b6000602082019050818103600083015261815181617c19565b9050919050565b6000602082019050818103600083015261817181617c3c565b9050919050565b6000602082019050818103600083015261819181617c5f565b9050919050565b600060208201905081810360008301526181b181617c82565b9050919050565b600060208201905081810360008301526181d181617ca5565b9050919050565b600060208201905081810360008301526181f181617cc8565b9050919050565b6000602082019050818103600083015261821181617ceb565b9050919050565b6000602082019050818103600083015261823181617d0e565b9050919050565b6000602082019050818103600083015261825181617d31565b9050919050565b6000602082019050818103600083015261827181617d54565b9050919050565b6000602082019050818103600083015261829181617d77565b9050919050565b600060208201905081810360008301526182b181617d9a565b9050919050565b600060208201905081810360008301526182d181617dbd565b9050919050565b600060208201905081810360008301526182f181617de0565b9050919050565b6000602082019050818103600083015261831181617e03565b9050919050565b6000602082019050818103600083015261833181617e26565b9050919050565b6000602082019050818103600083015261835181617e49565b9050919050565b6000602082019050818103600083015261837181617e6c565b9050919050565b6000602082019050818103600083015261839181617e8f565b9050919050565b600060208201905081810360008301526183b181617eb2565b9050919050565b600060208201905081810360008301526183d181617ed5565b9050919050565b600060208201905081810360008301526183f181617ef8565b9050919050565b6000602082019050818103600083015261841181617f1b565b9050919050565b6000602082019050818103600083015261843181617f3e565b9050919050565b6000602082019050818103600083015261845181617f61565b9050919050565b6000602082019050818103600083015261847181617f84565b9050919050565b6000602082019050818103600083015261849181617fa7565b9050919050565b600060208201905081810360008301526184b181617fca565b9050919050565b600060208201905081810360008301526184d181617fed565b9050919050565b60006020820190506184ed6000830184618010565b92915050565b60006040820190506185086000830185618010565b6185156020830184618010565b9392505050565b6000602082019050618531600083018461801f565b92915050565b6000618541618552565b905061854d8282618856565b919050565b6000604051905090565b600067ffffffffffffffff8211156185775761857661898c565b5b602082029050602081019050919050565b600067ffffffffffffffff8211156185a3576185a261898c565b5b602082029050602081019050919050565b600067ffffffffffffffff8211156185cf576185ce61898c565b5b6185d8826189d4565b9050602081019050919050565b600081519050919050565b600082825260208201905092915050565b600081905092915050565b600082825260208201905092915050565b60006186288261877a565b91506186338361877a565b9250827fffffffffffffffffffffffffffffffffffffffffffffffffffffffffffffffff03821115618668576186676188d0565b5b828201905092915050565b600061867e8261877a565b91506186898361877a565b925082618699576186986188ff565b5b828204905092915050565b60006186af8261877a565b91506186ba8361877a565b9250817fffffffffffffffffffffffffffffffffffffffffffffffffffffffffffffffff04831182151516156186f3576186f26188d0565b5b828202905092915050565b60006187098261877a565b91506187148361877a565b925082821015618727576187266188d0565b5b828203905092915050565b600061873d8261875a565b9050919050565b60008115159050919050565b6000819050919050565b600073ffffffffffffffffffffffffffffffffffffffff82169050919050565b6000819050919050565b600063ffffffff82169050919050565b600061879f826187a6565b9050919050565b60006187b18261875a565b9050919050565b82818337600083830152505050565b60005b838110156187e55780820151818401526020810190506187ca565b838111156187f4576000848401525b50505050565b60006188058261877a565b91506000821415618819576188186188d0565b5b600182039050919050565b6000600282049050600182168061883c57607f821691505b602082108114156188505761884f61892e565b5b50919050565b61885f826189d4565b810181811067ffffffffffffffff8211171561887e5761887d61898c565b5b80604052505050565b60006188928261877a565b91507fffffffffffffffffffffffffffffffffffffffffffffffffffffffffffffffff8214156188c5576188c46188d0565b5b600182019050919050565b7f4e487b7100000000000000000000000000000000000000000000000000000000600052601160045260246000fd5b7f4e487b7100000000000000000000000000000000000000000000000000000000600052601260045260246000fd5b7f4e487b7100000000000000000000000000000000000000000000000000000000600052602260045260246000fd5b7f4e487b7100000000000000000000000000000000000000000000000000000000600052603260045260246000fd5b7f4e487b7100000000000000000000000000000000000000000000000000000000600052604160045260246000fd5b600080fd5b600080fd5b600080fd5b600080fd5b600080fd5b6000601f19601f8301169050919050565b7f536565643a2073686f756c64207472616e73666572207365656420746f6b656e60008201527f7320746f20726566756e64207265636569766572000000000000000000000000602082015250565b7f536565643a206d6178696d756d2066756e64696e672072656163686564000000600082015250565b7f536565643a20726571756573742069732067726561746572207468616e20636c60008201527f61696d61626c6520616d6f756e74000000000000000000000000000000000000602082015250565b7f53656564466163746f72793a20686172644361702063616e6e6f74206265206c60008201527f657373207468616e20736f667443617000000000000000000000000000000000602082015250565b7f536565643a20616d6f756e74206578636565647320636f6e747261637420736160008201527f6c65206861726443617000000000000000000000000000000000000000000000602082015250565b7f536565643a20636f6e74726163742073686f756c64206e6f7420626520696e6960008201527f7469616c697a6564206f722063616c6c65722073686f756c642062652061646d60208201527f696e000000000000000000000000000000000000000000000000000000000000604082015250565b7f536565643a206d696e696d756d2066756e64696e6720616d6f756e74206d6574600082015250565b7f536565643a2074686520646973747269627574696f6e20686173206e6f74207960008201527f65742066696e6973686564000000000000000000000000000000000000000000602082015250565b7f53656564466163746f72793a2073656564546f6b656e2063616e6e6f7420626560008201527f2066756e64696e67546f6b656e00000000000000000000000000000000000000602082015250565b7f53656564466163746f72793a20656e6454696d652063616e6e6f74206265206c60008201527f657373207468616e20657175616c20746f20737461727454696d650000000000602082015250565b7f536565643a20616d6f756e745665737465645065725365636f6e64203e203000600082015250565b7f536565643a20546865206162696c69747920746f20627579207365656420746f60008201527f6b656e73206d757374206861766520656e646564206265666f72652072656d6160208201527f696e696e67207365656420746f6b656e732063616e206265207769746864726160408201527f776e000000000000000000000000000000000000000000000000000000000000606082015250565b7f536565643a2063616e6e6f742072657475726e2066756e64696e6720746f6b6560008201527f6e7320746f206d73672e73656e64657200000000000000000000000000000000602082015250565b7f536565643a2073656e64657220686173206e6f20726967687473000000000000600082015250565b7f53656564466163746f72793a2076657374696e674475726174696f6e2063616e60008201527f6e6f74206265206c657373207468616e2076657374696e67436c696666000000602082015250565b7f536565643a207365656420746f6b656e207472616e73666572206661696c6564600082015250565b7f536565643a2073686f756c642062652070617573656400000000000000000000600082015250565b7f536565643a2063616c6c65722073686f756c642062652061646d696e00000000600082015250565b7f536565643a2073686f756c64206e6f7420626520636c6f736564000000000000600082015250565b7f536565643a206f6e6c7920616c6c6f77656420647572696e672064697374726960008201527f627574696f6e20706572696f6400000000000000000000000000000000000000602082015250565b7f536565643a2063616e6e6f74207769746864726177207768696c652066756e6460008201527f696e6720746f6b656e732063616e207374696c6c20626520776974686472617760208201527f6e20627920636f6e7472696275746f7273000000000000000000000000000000604082015250565b7f536565643a20636f6e747261637420616c726561647920696e697469616c697a60008201527f6564000000000000000000000000000000000000000000000000000000000000602082015250565b7f536565643a2073686f756c64206e6f7420626520706175736564000000000000600082015250565b7f536565643a2066756e64696e6720746f6b656e207472616e7366657246726f6d60008201527f206661696c656400000000000000000000000000000000000000000000000000602082015250565b7f536565643a20646973747269627574696f6e20686176656e277420737461727460008201527f6564000000000000000000000000000000000000000000000000000000000000602082015250565b7f536565643a2073756666696369656e74207365656473206e6f742070726f766960008201527f6465640000000000000000000000000000000000000000000000000000000000602082015250565b7f536565643a2073656564206973206e6f742077686974656c6973746564000000600082015250565b7f536565643a206d696e696d756d2066756e64696e6720616d6f756e74206e6f7460008201527f206d657400000000000000000000000000000000000000000000000000000000602082015250565b7f536565643a20616d6f756e7420636c61696d61626c6520697320300000000000600082015250565b7f536565643a207a65726f2066756e64696e6720616d6f756e7400000000000000600082015250565b61920081618732565b811461920b57600080fd5b50565b61921781618744565b811461922257600080fd5b50565b61922e81618750565b811461923957600080fd5b50565b6192458161877a565b811461925057600080fd5b50565b61925c81618784565b811461926757600080fd5b5056fea2646970667358221220e87d9d50198b9bccb7dbc61f7038278bb9f158f84ead369834a8067cc91d159764736f6c63430008060033",
  "linkReferences": {},
  "deployedLinkReferences": {}
}