{
  "_format": "hh-sol-artifact-1",
  "contractName": "ERC1155Token",
  "sourceName": "contracts/gnosis/test/ERC1155Token.sol",
  "abi": [
    {
      "inputs": [
        {
          "internalType": "address",
          "name": "owner",
          "type": "address"
        },
        {
          "internalType": "uint256",
          "name": "id",
          "type": "uint256"
        }
      ],
      "name": "balanceOf",
      "outputs": [
        {
          "internalType": "uint256",
          "name": "",
          "type": "uint256"
        }
      ],
      "stateMutability": "view",
      "type": "function"
    },
    {
      "inputs": [
        {
          "internalType": "address",
          "name": "to",
          "type": "address"
        },
        {
          "internalType": "uint256",
          "name": "id",
          "type": "uint256"
        },
        {
          "internalType": "uint256",
          "name": "value",
          "type": "uint256"
        },
        {
          "internalType": "bytes",
          "name": "data",
          "type": "bytes"
        }
      ],
      "name": "mint",
      "outputs": [],
      "stateMutability": "nonpayable",
      "type": "function"
    },
    {
      "inputs": [
        {
          "internalType": "address",
          "name": "from",
          "type": "address"
        },
        {
          "internalType": "address",
          "name": "to",
          "type": "address"
        },
        {
          "internalType": "uint256",
          "name": "id",
          "type": "uint256"
        },
        {
          "internalType": "uint256",
          "name": "value",
          "type": "uint256"
        },
        {
          "internalType": "bytes",
          "name": "data",
          "type": "bytes"
        }
      ],
      "name": "safeTransferFrom",
      "outputs": [],
      "stateMutability": "nonpayable",
      "type": "function"
    }
  ],
  "bytecode": "0x608060405234801561001057600080fd5b50610f10806100206000396000f3fe608060405234801561001057600080fd5b50600436106100405760003560e01c8062fdd58e14610045578063731133e914610075578063f242432a14610091575b600080fd5b61005f600480360381019061005a9190610878565b6100ad565b60405161006c9190610b5d565b60405180910390f35b61008f600480360381019061008a91906108b4565b610176565b005b6100ab60048036038101906100a691906107e6565b6102ee565b005b60008073ffffffffffffffffffffffffffffffffffffffff168373ffffffffffffffffffffffffffffffffffffffff16141561011e576040517f08c379a000000000000000000000000000000000000000000000000000000000815260040161011590610abd565b60405180910390fd5b60008083815260200190815260200160002060008473ffffffffffffffffffffffffffffffffffffffff1673ffffffffffffffffffffffffffffffffffffffff16815260200190815260200160002054905092915050565b600073ffffffffffffffffffffffffffffffffffffffff168573ffffffffffffffffffffffffffffffffffffffff1614156101e6576040517f08c379a00000000000000000000000000000000000000000000000000000000081526004016101dd90610b1d565b60405180910390fd5b60008085815260200190815260200160002060008673ffffffffffffffffffffffffffffffffffffffff1673ffffffffffffffffffffffffffffffffffffffff16815260200190815260200160002054836102419190610ba5565b60008086815260200190815260200160002060008773ffffffffffffffffffffffffffffffffffffffff1673ffffffffffffffffffffffffffffffffffffffff168152602001908152602001600020819055506102e733600087878787878080601f016020809104026020016040519081016040528093929190818152602001838380828437600081840152601f19601f8201169050808301925050505050505061061a565b5050505050565b600073ffffffffffffffffffffffffffffffffffffffff168573ffffffffffffffffffffffffffffffffffffffff16141561035e576040517f08c379a000000000000000000000000000000000000000000000000000000000815260040161035590610add565b60405180910390fd5b3373ffffffffffffffffffffffffffffffffffffffff168673ffffffffffffffffffffffffffffffffffffffff161480610425575060011515600160008873ffffffffffffffffffffffffffffffffffffffff1673ffffffffffffffffffffffffffffffffffffffff16815260200190815260200160002060003373ffffffffffffffffffffffffffffffffffffffff1673ffffffffffffffffffffffffffffffffffffffff16815260200190815260200160002060009054906101000a900460ff161515145b610464576040517f08c379a000000000000000000000000000000000000000000000000000000000815260040161045b90610afd565b60405180910390fd5b8260008086815260200190815260200160002060008873ffffffffffffffffffffffffffffffffffffffff1673ffffffffffffffffffffffffffffffffffffffff168152602001908152602001600020546104bf9190610bfb565b60008086815260200190815260200160002060008873ffffffffffffffffffffffffffffffffffffffff1673ffffffffffffffffffffffffffffffffffffffff1681526020019081526020016000208190555060008085815260200190815260200160002060008673ffffffffffffffffffffffffffffffffffffffff1673ffffffffffffffffffffffffffffffffffffffff168152602001908152602001600020548361056d9190610ba5565b60008086815260200190815260200160002060008773ffffffffffffffffffffffffffffffffffffffff1673ffffffffffffffffffffffffffffffffffffffff16815260200190815260200160002081905550610612338787878787878080601f016020809104026020016040519081016040528093929190818152602001838380828437600081840152601f19601f8201169050808301925050505050505061061a565b505050505050565b6106238461074a565b156107425763f23a6e6160e01b7bffffffffffffffffffffffffffffffffffffffffffffffffffffffff19168473ffffffffffffffffffffffffffffffffffffffff1663f23a6e6188888787876040518663ffffffff1660e01b8152600401610690959493929190610a63565b602060405180830381600087803b1580156106aa57600080fd5b505af11580156106be573d6000803e3d6000fd5b505050506040513d601f19601f820116820180604052508101906106e29190610934565b7bffffffffffffffffffffffffffffffffffffffffffffffffffffffff191614610741576040517f08c379a000000000000000000000000000000000000000000000000000000000815260040161073890610b3d565b60405180910390fd5b5b505050505050565b600080823b905060008111915050919050565b60008135905061076c81610e95565b92915050565b60008151905061078181610eac565b92915050565b60008083601f84011261079957600080fd5b8235905067ffffffffffffffff8111156107b257600080fd5b6020830191508360018202830111156107ca57600080fd5b9250929050565b6000813590506107e081610ec3565b92915050565b60008060008060008060a087890312156107ff57600080fd5b600061080d89828a0161075d565b965050602061081e89828a0161075d565b955050604061082f89828a016107d1565b945050606061084089828a016107d1565b935050608087013567ffffffffffffffff81111561085d57600080fd5b61086989828a01610787565b92509250509295509295509295565b6000806040838503121561088b57600080fd5b60006108998582860161075d565b92505060206108aa858286016107d1565b9150509250929050565b6000806000806000608086880312156108cc57600080fd5b60006108da8882890161075d565b95505060206108eb888289016107d1565b94505060406108fc888289016107d1565b935050606086013567ffffffffffffffff81111561091957600080fd5b61092588828901610787565b92509250509295509295909350565b60006020828403121561094657600080fd5b600061095484828501610772565b91505092915050565b61096681610c2f565b82525050565b600061097782610b78565b6109818185610b83565b9350610991818560208601610c97565b61099a81610cf9565b840191505092915050565b60006109b2602b83610b94565b91506109bd82610d0a565b604082019050919050565b60006109d5602883610b94565b91506109e082610d59565b604082019050919050565b60006109f8603883610b94565b9150610a0382610da8565b604082019050919050565b6000610a1b602183610b94565b9150610a2682610df7565b604082019050919050565b6000610a3e603183610b94565b9150610a4982610e46565b604082019050919050565b610a5d81610c8d565b82525050565b600060a082019050610a78600083018861095d565b610a85602083018761095d565b610a926040830186610a54565b610a9f6060830185610a54565b8181036080830152610ab1818461096c565b90509695505050505050565b60006020820190508181036000830152610ad6816109a5565b9050919050565b60006020820190508181036000830152610af6816109c8565b9050919050565b60006020820190508181036000830152610b16816109eb565b9050919050565b60006020820190508181036000830152610b3681610a0e565b9050919050565b60006020820190508181036000830152610b5681610a31565b9050919050565b6000602082019050610b726000830184610a54565b92915050565b600081519050919050565b600082825260208201905092915050565b600082825260208201905092915050565b6000610bb082610c8d565b9150610bbb83610c8d565b9250827fffffffffffffffffffffffffffffffffffffffffffffffffffffffffffffffff03821115610bf057610bef610cca565b5b828201905092915050565b6000610c0682610c8d565b9150610c1183610c8d565b925082821015610c2457610c23610cca565b5b828203905092915050565b6000610c3a82610c6d565b9050919050565b60007fffffffff0000000000000000000000000000000000000000000000000000000082169050919050565b600073ffffffffffffffffffffffffffffffffffffffff82169050919050565b6000819050919050565b60005b83811015610cb5578082015181840152602081019050610c9a565b83811115610cc4576000848401525b50505050565b7f4e487b7100000000000000000000000000000000000000000000000000000000600052601160045260246000fd5b6000601f19601f8301169050919050565b7f455243313135353a2062616c616e636520717565727920666f7220746865207a60008201527f65726f2061646472657373000000000000000000000000000000000000000000602082015250565b7f455243313135353a207461726765742061646472657373206d7573742062652060008201527f6e6f6e2d7a65726f000000000000000000000000000000000000000000000000602082015250565b7f455243313135353a206e656564206f70657261746f7220617070726f76616c2060008201527f666f7220337264207061727479207472616e73666572732e0000000000000000602082015250565b7f455243313135353a206d696e7420746f20746865207a65726f2061646472657360008201527f7300000000000000000000000000000000000000000000000000000000000000602082015250565b7f455243313135353a20676f7420756e6b6e6f776e2076616c75652066726f6d2060008201527f6f6e455243313135355265636569766564000000000000000000000000000000602082015250565b610e9e81610c2f565b8114610ea957600080fd5b50565b610eb581610c41565b8114610ec057600080fd5b50565b610ecc81610c8d565b8114610ed757600080fd5b5056fea264697066735822122067f5c81bff7f9f6f4bbd3a0a07bb93930265805a14d49a90479b5c9e21be993064736f6c63430008040033",
  "linkReferences": {},
  "deployedLinkReferences": {}
}