{
  "address": "0xA86E2634D2C3932e1548E1d2ba727c769cdB4BA4",
  "abi": [
    {
      "anonymous": false,
      "inputs": [
        {
          "indexed": true,
          "internalType": "address",
          "name": "previousOwner",
          "type": "address"
        },
        {
          "indexed": true,
          "internalType": "address",
          "name": "newOwner",
          "type": "address"
        }
      ],
      "name": "OwnershipTransferred",
      "type": "event"
    },
    {
      "anonymous": false,
      "inputs": [
        {
          "indexed": true,
          "internalType": "address",
          "name": "newSeed",
          "type": "address"
        },
        {
          "indexed": true,
          "internalType": "address",
          "name": "beneficiary",
          "type": "address"
        }
      ],
      "name": "SeedCreated",
      "type": "event"
    },
    {
      "inputs": [
        {
          "internalType": "address",
          "name": "_beneficiary",
          "type": "address"
        },
        {
          "internalType": "address",
          "name": "_admin",
          "type": "address"
        },
        {
          "internalType": "address[]",
          "name": "_tokens",
          "type": "address[]"
        },
        {
          "internalType": "uint256[]",
          "name": "_softHardThresholds",
          "type": "uint256[]"
        },
        {
          "internalType": "uint256",
          "name": "_price",
          "type": "uint256"
        },
        {
          "internalType": "uint256",
          "name": "_startTime",
          "type": "uint256"
        },
        {
          "internalType": "uint256",
          "name": "_endTime",
          "type": "uint256"
        },
        {
          "internalType": "uint32[]",
          "name": "_vestingDurationAndCliff",
          "type": "uint32[]"
        },
        {
          "internalType": "bool",
          "name": "_permissionedSeed",
          "type": "bool"
        },
        {
          "internalType": "uint8",
          "name": "_fee",
          "type": "uint8"
        },
        {
          "internalType": "bytes",
          "name": "_metadata",
          "type": "bytes"
        }
      ],
      "name": "deploySeed",
      "outputs": [
        {
          "internalType": "address",
          "name": "",
          "type": "address"
        }
      ],
      "stateMutability": "nonpayable",
      "type": "function"
    },
    {
      "inputs": [],
      "name": "masterCopy",
      "outputs": [
        {
          "internalType": "contract Seed",
          "name": "",
          "type": "address"
        }
      ],
      "stateMutability": "view",
      "type": "function"
    },
    {
      "inputs": [],
      "name": "owner",
      "outputs": [
        {
          "internalType": "address",
          "name": "",
          "type": "address"
        }
      ],
      "stateMutability": "view",
      "type": "function"
    },
    {
      "inputs": [],
      "name": "renounceOwnership",
      "outputs": [],
      "stateMutability": "nonpayable",
      "type": "function"
    },
    {
      "inputs": [
        {
          "internalType": "contract Seed",
          "name": "_masterCopy",
          "type": "address"
        }
      ],
      "name": "setMasterCopy",
      "outputs": [],
      "stateMutability": "nonpayable",
      "type": "function"
    },
    {
      "inputs": [
        {
          "internalType": "address",
          "name": "newOwner",
          "type": "address"
        }
      ],
      "name": "transferOwnership",
      "outputs": [],
      "stateMutability": "nonpayable",
      "type": "function"
    }
  ],
  "transactionHash": "0x13d5601771e6378dc8506465105efc10a42b68130f8ef97bd61c0014711dec1d",
  "args": [],
  "solcInputHash": "43a917893e49ec304360da382db54194",
  "bytecode": "0x608060405234801561001057600080fd5b50600080546001600160a01b031916339081178255604051909182917f8be0079c531659141344cd1fd0a4f28419497f9722a3daafe3b4186f6b6457e0908290a350610b43806100616000396000f3fe608060405234801561001057600080fd5b50600436106100625760003560e01c80634a7eb3c214610067578063715018a6146100965780638da5cb5b146100a0578063a619486e146100b1578063cf497e6c146100c4578063f2fde38b146100d7575b600080fd5b61007a6100753660046107f4565b6100ea565b6040516001600160a01b03909116815260200160405180910390f35b61009e610385565b005b6000546001600160a01b031661007a565b60015461007a906001600160a01b031681565b61009e6100d23660046107d1565b6103f9565b61009e6100e53660046107d1565b6104b6565b600080546001600160a01b0316331461011e5760405162461bcd60e51b815260040161011590610a55565b60405180910390fd5b6001546001600160a01b031661018d5760405162461bcd60e51b815260206004820152602e60248201527f53656564466163746f72793a206d6173746572636f70792063616e6e6f74206260448201526d65207a65726f206164647265737360901b6064820152608401610115565b84516002146102045760405162461bcd60e51b815260206004820152603c60248201527f53656564466163746f72793a204861736e27742070726f766964656420626f7460448201527f682076657374696e67206475726174696f6e20616e6420636c696666000000006064820152608401610115565b60015460009061021c906001600160a01b03166105a0565b60405163fc582d4160e01b81529091506001600160a01b0382169063fc582d419061024b908690600401610a02565b600060405180830381600087803b15801561026557600080fd5b505af1158015610279573d6000803e3d6000fd5b50505050806001600160a01b031663d80393648e8e8e8e8e8e8e8e6000815181106102b457634e487b7160e01b600052603260045260246000fd5b60200260200101518f6001815181106102dd57634e487b7160e01b600052603260045260246000fd5b60200260200101518f8f6040518c63ffffffff1660e01b815260040161030d9b9a9998979695949392919061093f565b600060405180830381600087803b15801561032757600080fd5b505af115801561033b573d6000803e3d6000fd5b50506040513392506001600160a01b03841691507f23fea745ec0ebbc17cc138cc8d1baca7bde3ce83b1fd6d5e1de583961586363990600090a39c9b505050505050505050505050565b6000546001600160a01b031633146103af5760405162461bcd60e51b815260040161011590610a55565b600080546040516001600160a01b03909116907f8be0079c531659141344cd1fd0a4f28419497f9722a3daafe3b4186f6b6457e0908390a3600080546001600160a01b0319169055565b6000546001600160a01b031633146104235760405162461bcd60e51b815260040161011590610a55565b6001600160a01b0381166104945760405162461bcd60e51b815260206004820152603260248201527f53656564466163746f72793a206e6577206d6173746572636f70792063616e6e6044820152716f74206265207a65726f206164647265737360701b6064820152608401610115565b600180546001600160a01b0319166001600160a01b0392909216919091179055565b6000546001600160a01b031633146104e05760405162461bcd60e51b815260040161011590610a55565b6001600160a01b0381166105455760405162461bcd60e51b815260206004820152602660248201527f4f776e61626c653a206e6577206f776e657220697320746865207a65726f206160448201526564647265737360d01b6064820152608401610115565b600080546040516001600160a01b03808516939216917f8be0079c531659141344cd1fd0a4f28419497f9722a3daafe3b4186f6b6457e091a3600080546001600160a01b0319166001600160a01b0392909216919091179055565b6000808260601b9050604051733d602d80600a3d3981f3363d3d373d3d3d363d7360601b81528160148201526e5af43d82803e903d91602b57fd5bf360881b60288201526037816000f0949350505050565b80356105fd81610af5565b919050565b600082601f830112610612578081fd5b8135602061062761062283610abb565b610a8a565b80838252828201915082860187848660051b8901011115610646578586fd5b855b8581101561066d57813561065b81610af5565b84529284019290840190600101610648565b5090979650505050505050565b600082601f83011261068a578081fd5b8135602061069a61062283610abb565b80838252828201915082860187848660051b89010111156106b9578586fd5b855b8581101561066d578135845292840192908401906001016106bb565b600082601f8301126106e7578081fd5b813560206106f761062283610abb565b80838252828201915082860187848660051b8901011115610716578586fd5b855b8581101561066d57813563ffffffff81168114610733578788fd5b84529284019290840190600101610718565b803580151581146105fd57600080fd5b600082601f830112610765578081fd5b813567ffffffffffffffff81111561077f5761077f610adf565b610792601f8201601f1916602001610a8a565b8181528460208386010111156107a6578283fd5b816020850160208301379081016020019190915292915050565b803560ff811681146105fd57600080fd5b6000602082840312156107e2578081fd5b81356107ed81610af5565b9392505050565b60008060008060008060008060008060006101608c8e031215610815578687fd5b61081e8c6105f2565b9a5061082c60208d016105f2565b995067ffffffffffffffff8060408e01351115610847578788fd5b6108578e60408f01358f01610602565b99508060608e01351115610869578788fd5b6108798e60608f01358f0161067a565b985060808d0135975060a08d0135965060c08d013595508060e08e013511156108a0578485fd5b6108b08e60e08f01358f016106d7565b94506108bf6101008e01610745565b93506108ce6101208e016107c0565b9250806101408e013511156108e1578182fd5b506108f38d6101408e01358e01610755565b90509295989b509295989b9093969950565b6000815180845260208085019450808401835b8381101561093457815187529582019590820190600101610918565b509495945050505050565b6000610160820160018060a01b03808f168452808e1660208501526101606040850152818d518084526101808601915060208f019350845b818110156109975784518416835260209485019490920191600101610977565b505084810360608601526109ab818e610905565b93505050508860808301528760a08301528660c08301526109d460e083018763ffffffff169052565b63ffffffff9490941661010082015291151561012083015260ff166101409091015298975050505050505050565b6000602080835283518082850152825b81811015610a2e57858101830151858201604001528201610a12565b81811115610a3f5783604083870101525b50601f01601f1916929092016040019392505050565b6020808252818101527f4f776e61626c653a2063616c6c6572206973206e6f7420746865206f776e6572604082015260600190565b604051601f8201601f1916810167ffffffffffffffff81118282101715610ab357610ab3610adf565b604052919050565b600067ffffffffffffffff821115610ad557610ad5610adf565b5060051b60200190565b634e487b7160e01b600052604160045260246000fd5b6001600160a01b0381168114610b0a57600080fd5b5056fea26469706673582212208aced936f7e9f427f85114d6fec500b5d121f80c4c01ce51f898d1b7df766f9a64736f6c63430008040033",
  "devdoc": {
    "details": "Enable PrimeDAO governance to create new Seed contracts.",
    "kind": "dev",
    "methods": {
      "deploySeed(address,address,address[],uint256[],uint256,uint256,uint256,uint32[],bool,uint8,bytes)": {
        "details": "Deploys Seed contract.",
        "params": {
          "_admin": "The address of the admin of this contract. Funds contract and has permissions to whitelist users, pause and close contract.",
          "_beneficiary": "The address that recieves fees.",
          "_endTime": "Distribution end time in unix timecode.",
          "_fee": "Success fee expressed in Wei as a % (e.g. 2 = 2% fee)",
          "_metadata": "Seed contract metadata, that is IPFS URI",
          "_permissionedSeed": "Set to true if only whitelisted adresses are allowed to participate.",
          "_price": "1 Funding Token = _price amount of Seed Token.",
          "_softHardThresholds": "Array containing two params: - the minimum funding token collection threshold in wei denomination. - the highest possible funding token amount to be raised in wei denomination.",
          "_startTime": "Distribution start time in unix timecode.",
          "_tokens": "Array containing two params: - The address of the seed token being distributed.                                         - The address of the funding token being exchanged for seed token.",
          "_vestingDurationAndCliff": "Array containing two params: - Vesting period duration in days. - Cliff duration in days."
        }
      },
      "owner()": {
        "details": "Returns the address of the current owner."
      },
      "renounceOwnership()": {
        "details": "Leaves the contract without owner. It will not be possible to call `onlyOwner` functions anymore. Can only be called by the current owner. NOTE: Renouncing ownership will leave the contract without an owner, thereby removing any functionality that is only available to the owner."
      },
      "setMasterCopy(address)": {
        "details": "Set Seed contract which works as a base for clones.",
        "params": {
          "_masterCopy": "The address of the new Seed basis."
        }
      },
      "transferOwnership(address)": {
        "details": "Transfers ownership of the contract to a new account (`newOwner`). Can only be called by the current owner."
      }
    },
    "title": "PrimeDAO Seed Factory",
    "version": 1
  },
  "userdoc": {
    "kind": "user",
    "methods": {},
    "version": 1
  },
  "storageLayout": {
    "storage": [
      {
        "astId": 1339,
        "contract": "contracts/seed/SeedFactory.sol:SeedFactory",
        "label": "_owner",
        "offset": 0,
        "slot": "0",
        "type": "t_address"
      },
      {
        "astId": 1156,
        "contract": "contracts/seed/SeedFactory.sol:SeedFactory",
        "label": "masterCopy",
        "offset": 0,
        "slot": "1",
        "type": "t_contract(Seed)1142"
      }
    ],
    "types": {
      "t_address": {
        "encoding": "inplace",
        "label": "address",
        "numberOfBytes": "20"
      },
      "t_contract(Seed)1142": {
        "encoding": "inplace",
        "label": "contract Seed",
        "numberOfBytes": "20"
      }
    }
  }
}