{
  "_format": "hh-sol-artifact-1",
  "contractName": "CreateCall",
  "sourceName": "contracts/gnosis/libraries/CreateCall.sol",
  "abi": [
    {
      "anonymous": false,
      "inputs": [
        {
          "indexed": false,
          "internalType": "address",
          "name": "newContract",
          "type": "address"
        }
      ],
      "name": "ContractCreation",
      "type": "event"
    },
    {
      "inputs": [
        {
          "internalType": "uint256",
          "name": "value",
          "type": "uint256"
        },
        {
          "internalType": "bytes",
          "name": "deploymentData",
          "type": "bytes"
        }
      ],
      "name": "performCreate",
      "outputs": [
        {
          "internalType": "address",
          "name": "newContract",
          "type": "address"
        }
      ],
      "stateMutability": "nonpayable",
      "type": "function"
    },
    {
      "inputs": [
        {
          "internalType": "uint256",
          "name": "value",
          "type": "uint256"
        },
        {
          "internalType": "bytes",
          "name": "deploymentData",
          "type": "bytes"
        },
        {
          "internalType": "bytes32",
          "name": "salt",
          "type": "bytes32"
        }
      ],
      "name": "performCreate2",
      "outputs": [
        {
          "internalType": "address",
          "name": "newContract",
          "type": "address"
        }
      ],
      "stateMutability": "nonpayable",
      "type": "function"
    }
  ],
  "bytecode": "0x608060405234801561001057600080fd5b50610583806100206000396000f3fe608060405234801561001057600080fd5b50600436106100365760003560e01c80634847be6f1461003b5780634c8c9ea11461006b575b600080fd5b610055600480360381019061005091906102f5565b61009b565b604051610062919061038e565b60405180910390f35b610085600480360381019061008091906102a1565b610156565b604051610092919061038e565b60405180910390f35b60008183518460200186f59050600073ffffffffffffffffffffffffffffffffffffffff168173ffffffffffffffffffffffffffffffffffffffff161415610118576040517f08c379a000000000000000000000000000000000000000000000000000000000815260040161010f906103a9565b60405180910390fd5b7f4db17dd5e4732fb6da34a148104a592783ca119a1e7bb8829eba6cbadef0b51181604051610147919061038e565b60405180910390a19392505050565b600081516020830184f09050600073ffffffffffffffffffffffffffffffffffffffff168173ffffffffffffffffffffffffffffffffffffffff1614156101d2576040517f08c379a00000000000000000000000000000000000000000000000000000000081526004016101c9906103a9565b60405180910390fd5b7f4db17dd5e4732fb6da34a148104a592783ca119a1e7bb8829eba6cbadef0b51181604051610201919061038e565b60405180910390a192915050565b600061022261021d846103ee565b6103c9565b90508281526020810184848401111561023a57600080fd5b610245848285610476565b509392505050565b60008135905061025c8161051f565b92915050565b600082601f83011261027357600080fd5b813561028384826020860161020f565b91505092915050565b60008135905061029b81610536565b92915050565b600080604083850312156102b457600080fd5b60006102c28582860161028c565b925050602083013567ffffffffffffffff8111156102df57600080fd5b6102eb85828601610262565b9150509250929050565b60008060006060848603121561030a57600080fd5b60006103188682870161028c565b935050602084013567ffffffffffffffff81111561033557600080fd5b61034186828701610262565b92505060406103528682870161024d565b9150509250925092565b61036581610430565b82525050565b600061037860198361041f565b9150610383826104f6565b602082019050919050565b60006020820190506103a3600083018461035c565b92915050565b600060208201905081810360008301526103c28161036b565b9050919050565b60006103d36103e4565b90506103df8282610485565b919050565b6000604051905090565b600067ffffffffffffffff821115610409576104086104b6565b5b610412826104e5565b9050602081019050919050565b600082825260208201905092915050565b600061043b8261044c565b9050919050565b6000819050919050565b600073ffffffffffffffffffffffffffffffffffffffff82169050919050565b6000819050919050565b82818337600083830152505050565b61048e826104e5565b810181811067ffffffffffffffff821117156104ad576104ac6104b6565b5b80604052505050565b7f4e487b7100000000000000000000000000000000000000000000000000000000600052604160045260246000fd5b6000601f19601f8301169050919050565b7f436f756c64206e6f74206465706c6f7920636f6e747261637400000000000000600082015250565b61052881610442565b811461053357600080fd5b50565b61053f8161046c565b811461054a57600080fd5b5056fea2646970667358221220e260dff9d44ee70166c42121558f8ad354be3c3b55c7e5ea8b91613d4db3c8f764736f6c63430008040033",
  "linkReferences": {},
  "deployedLinkReferences": {}
}