{
  "_format": "hh-sol-artifact-1",
  "contractName": "ModuleManager",
  "sourceName": "@gnosis.pm/safe-contracts/contracts/base/ModuleManager.sol",
  "abi": [
    {
      "anonymous": false,
      "inputs": [
        {
          "indexed": false,
          "internalType": "address",
          "name": "module",
          "type": "address"
        }
      ],
      "name": "DisabledModule",
      "type": "event"
    },
    {
      "anonymous": false,
      "inputs": [
        {
          "indexed": false,
          "internalType": "address",
          "name": "module",
          "type": "address"
        }
      ],
      "name": "EnabledModule",
      "type": "event"
    },
    {
      "anonymous": false,
      "inputs": [
        {
          "indexed": true,
          "internalType": "address",
          "name": "module",
          "type": "address"
        }
      ],
      "name": "ExecutionFromModuleFailure",
      "type": "event"
    },
    {
      "anonymous": false,
      "inputs": [
        {
          "indexed": true,
          "internalType": "address",
          "name": "module",
          "type": "address"
        }
      ],
      "name": "ExecutionFromModuleSuccess",
      "type": "event"
    },
    {
      "inputs": [
        {
          "internalType": "address",
          "name": "prevModule",
          "type": "address"
        },
        {
          "internalType": "address",
          "name": "module",
          "type": "address"
        }
      ],
      "name": "disableModule",
      "outputs": [],
      "stateMutability": "nonpayable",
      "type": "function"
    },
    {
      "inputs": [
        {
          "internalType": "address",
          "name": "module",
          "type": "address"
        }
      ],
      "name": "enableModule",
      "outputs": [],
      "stateMutability": "nonpayable",
      "type": "function"
    },
    {
      "inputs": [
        {
          "internalType": "address",
          "name": "to",
          "type": "address"
        },
        {
          "internalType": "uint256",
          "name": "value",
          "type": "uint256"
        },
        {
          "internalType": "bytes",
          "name": "data",
          "type": "bytes"
        },
        {
          "internalType": "enum Enum.Operation",
          "name": "operation",
          "type": "uint8"
        }
      ],
      "name": "execTransactionFromModule",
      "outputs": [
        {
          "internalType": "bool",
          "name": "success",
          "type": "bool"
        }
      ],
      "stateMutability": "nonpayable",
      "type": "function"
    },
    {
      "inputs": [
        {
          "internalType": "address",
          "name": "to",
          "type": "address"
        },
        {
          "internalType": "uint256",
          "name": "value",
          "type": "uint256"
        },
        {
          "internalType": "bytes",
          "name": "data",
          "type": "bytes"
        },
        {
          "internalType": "enum Enum.Operation",
          "name": "operation",
          "type": "uint8"
        }
      ],
      "name": "execTransactionFromModuleReturnData",
      "outputs": [
        {
          "internalType": "bool",
          "name": "success",
          "type": "bool"
        },
        {
          "internalType": "bytes",
          "name": "returnData",
          "type": "bytes"
        }
      ],
      "stateMutability": "nonpayable",
      "type": "function"
    },
    {
      "inputs": [
        {
          "internalType": "address",
          "name": "start",
          "type": "address"
        },
        {
          "internalType": "uint256",
          "name": "pageSize",
          "type": "uint256"
        }
      ],
      "name": "getModulesPaginated",
      "outputs": [
        {
          "internalType": "address[]",
          "name": "array",
          "type": "address[]"
        },
        {
          "internalType": "address",
          "name": "next",
          "type": "address"
        }
      ],
      "stateMutability": "view",
      "type": "function"
    },
    {
      "inputs": [
        {
          "internalType": "address",
          "name": "module",
          "type": "address"
        }
      ],
      "name": "isModuleEnabled",
      "outputs": [
        {
          "internalType": "bool",
          "name": "",
          "type": "bool"
        }
      ],
      "stateMutability": "view",
      "type": "function"
    }
  ],
  "bytecode": "0x608060405234801561001057600080fd5b50610913806100206000396000f3fe608060405234801561001057600080fd5b50600436106100625760003560e01c80632d9ad53d14610067578063468721a71461008f5780635229073f146100a2578063610b5925146100c3578063cc2f8452146100d8578063e009cfde146100f9575b600080fd5b61007a610075366004610694565b61010c565b60405190151581526020015b60405180910390f35b61007a61009d366004610710565b610147565b6100b56100b0366004610710565b610223565b604051610086929190610843565b6100d66100d1366004610694565b610259565b005b6100eb6100e63660046106e7565b610399565b6040516100869291906107e6565b6100d66101073660046106b5565b6104ae565b600060016001600160a01b0383161480159061014157506001600160a01b038281166000908152602081905260409020541615155b92915050565b6000336001148015906101715750336000908152602081905260409020546001600160a01b031615155b6101aa5760405162461bcd60e51b815260206004820152600560248201526411d4cc4c0d60da1b60448201526064015b60405180910390fd5b6101b7858585855a6105da565b905080156101ef5760405133907f6895c13664aa4f67288b25d7a21d7aaa34916e355fb9b6fae0a139a9085becb890600090a261021b565b60405133907facd2c8702804128fdb0db2bb49f6d127dd0181c13fd45dbfe16de0930e2bd37590600090a25b949350505050565b6000606061023386868686610147565b915060405160203d0181016040523d81523d6000602083013e8091505094509492505050565b610261610630565b6001600160a01b0381161580159061028357506001600160a01b038116600114155b6102b75760405162461bcd60e51b8152602060048201526005602482015264475331303160d81b60448201526064016101a1565b6001600160a01b0381811660009081526020819052604090205416156103075760405162461bcd60e51b815260206004820152600560248201526423a998981960d91b60448201526064016101a1565b600060208181527fada5013122d395ba3c54772283fb069b10426056ef8ca54750cb9bb552a59e7d80546001600160a01b0385811680865260408087208054939094166001600160a01b03199384161790935560019095528254168417909155519182527fecdf3a3effea5783a3c4c2140e677577666428d44ed9d474a0b3a4c9943f8440910160405180910390a150565b606060008267ffffffffffffffff8111156103c457634e487b7160e01b600052604160045260246000fd5b6040519080825280602002602001820160405280156103ed578160200160208202803683370190505b506001600160a01b0380861660009081526020819052604081205492945091165b6001600160a01b0381161580159061043057506001600160a01b038116600114155b801561043b57508482105b156104a0578084838151811061046157634e487b7160e01b600052603260045260246000fd5b6001600160a01b039283166020918202929092018101919091529181166000908152918290526040909120541681610498816108a0565b92505061040e565b908352919491935090915050565b6104b6610630565b6001600160a01b038116158015906104d857506001600160a01b038116600114155b61050c5760405162461bcd60e51b8152602060048201526005602482015264475331303160d81b60448201526064016101a1565b6001600160a01b038281166000908152602081905260409020548116908216146105605760405162461bcd60e51b8152602060048201526005602482015264475331303360d81b60448201526064016101a1565b6001600160a01b03818116600081815260208181526040808320805488871685528285208054919097166001600160a01b03199182161790965592849052825490941690915591519081527faab4fa2b463f581b2b32cb3b7e3b704b9ce37cc209b5fb4d77e593ace4054276910160405180910390a15050565b600060018360018111156105fe57634e487b7160e01b600052602160045260246000fd5b1415610617576000808551602087018986f49050610627565b600080855160208701888a87f190505b95945050505050565b3330146106675760405162461bcd60e51b8152602060048201526005602482015264475330333160d81b60448201526064016101a1565b565b80356001600160a01b038116811461068057600080fd5b919050565b80356002811061068057600080fd5b6000602082840312156106a5578081fd5b6106ae82610669565b9392505050565b600080604083850312156106c7578081fd5b6106d083610669565b91506106de60208401610669565b90509250929050565b600080604083850312156106f9578182fd5b61070283610669565b946020939093013593505050565b60008060008060808587031215610725578182fd5b61072e85610669565b935060208501359250604085013567ffffffffffffffff80821115610751578384fd5b818701915087601f830112610764578384fd5b813581811115610776576107766108c7565b604051601f8201601f19908116603f0116810190838211818310171561079e5761079e6108c7565b816040528281528a60208487010111156107b6578687fd5b826020860160208301379182016020019590955293506107db91505060608601610685565b905092959194509250565b604080825283519082018190526000906020906060840190828701845b828110156108285781516001600160a01b031684529284019290840190600101610803565b5050506001600160a01b039490941692019190915250919050565b8215158152600060206040818401528351806040850152825b818110156108785785810183015185820160600152820161085c565b818111156108895783606083870101525b50601f01601f191692909201606001949350505050565b60006000198214156108c057634e487b7160e01b81526011600452602481fd5b5060010190565b634e487b7160e01b600052604160045260246000fdfea2646970667358221220015309b2b8354cd1adc71ebd3c991505edeb16218020e9c3f19babe24173766764736f6c63430008040033",
  "linkReferences": {},
  "deployedLinkReferences": {}
}