{
  "contracts/migration/MerkleDrop.sol": {
    "MerkleDrop": {
      "abi": [
        {
          "anonymous": false,
          "inputs": [
            {
              "indexed": false,
              "internalType": "address",
              "name": "claimant",
              "type": "address"
            },
            {
              "indexed": false,
              "internalType": "uint256",
              "name": "week",
              "type": "uint256"
            },
            {
              "indexed": false,
              "internalType": "uint256",
              "name": "balance",
              "type": "uint256"
            }
          ],
          "name": "Claimed",
          "type": "event"
        },
        {
          "anonymous": false,
          "inputs": [
            {
              "indexed": true,
              "internalType": "address",
              "name": "_address",
              "type": "address"
            }
          ],
          "name": "RemovedFunder",
          "type": "event"
        },
        {
          "anonymous": false,
          "inputs": [
            {
              "indexed": false,
              "internalType": "uint256",
              "name": "tranche",
              "type": "uint256"
            },
            {
              "indexed": false,
              "internalType": "bytes32",
              "name": "merkleRoot",
              "type": "bytes32"
            },
            {
              "indexed": false,
              "internalType": "uint256",
              "name": "totalAmount",
              "type": "uint256"
            }
          ],
          "name": "TrancheAdded",
          "type": "event"
        },
        {
          "anonymous": false,
          "inputs": [
            {
              "indexed": false,
              "internalType": "uint256",
              "name": "tranche",
              "type": "uint256"
            }
          ],
          "name": "TrancheExpired",
          "type": "event"
        },
        {
          "anonymous": false,
          "inputs": [
            {
              "indexed": true,
              "internalType": "address",
              "name": "_address",
              "type": "address"
            }
          ],
          "name": "Whitelisted",
          "type": "event"
        },
        {
          "constant": true,
          "inputs": [
            {
              "internalType": "bytes32",
              "name": "c__0x89b12937",
              "type": "bytes32"
            }
          ],
          "name": "c_0x89b12937",
          "outputs": [],
          "payable": false,
          "stateMutability": "pure",
          "type": "function"
        },
        {
          "constant": false,
          "inputs": [
            {
              "internalType": "address",
              "name": "_claimer",
              "type": "address"
            },
            {
              "internalType": "uint256",
              "name": "_tranche",
              "type": "uint256"
            },
            {
              "internalType": "uint256",
              "name": "_balance",
              "type": "uint256"
            },
            {
              "internalType": "bytes32[]",
              "name": "_merkleProof",
              "type": "bytes32[]"
            }
          ],
          "name": "claimTranche",
          "outputs": [],
          "payable": false,
          "stateMutability": "nonpayable",
          "type": "function"
        },
        {
          "constant": true,
          "inputs": [
            {
              "internalType": "uint256",
              "name": "",
              "type": "uint256"
            },
            {
              "internalType": "address",
              "name": "",
              "type": "address"
            }
          ],
          "name": "claimed",
          "outputs": [
            {
              "internalType": "bool",
              "name": "",
              "type": "bool"
            }
          ],
          "payable": false,
          "stateMutability": "view",
          "type": "function"
        },
        {
          "constant": false,
          "inputs": [
            {
              "internalType": "uint256",
              "name": "_trancheId",
              "type": "uint256"
            }
          ],
          "name": "expireTranche",
          "outputs": [],
          "payable": false,
          "stateMutability": "nonpayable",
          "type": "function"
        },
        {
          "constant": false,
          "inputs": [
            {
              "internalType": "address",
              "name": "_nexus",
              "type": "address"
            },
            {
              "internalType": "address[]",
              "name": "_funders",
              "type": "address[]"
            },
            {
              "internalType": "contract IERC20",
              "name": "_token",
              "type": "address"
            },
            {
              "internalType": "uint256",
              "name": "_thresholdBlock",
              "type": "uint256"
            }
          ],
          "name": "initialize",
          "outputs": [],
          "payable": false,
          "stateMutability": "nonpayable",
          "type": "function"
        },
        {
          "constant": true,
          "inputs": [
            {
              "internalType": "uint256",
              "name": "",
              "type": "uint256"
            }
          ],
          "name": "merkleRoots",
          "outputs": [
            {
              "internalType": "bytes32",
              "name": "",
              "type": "bytes32"
            }
          ],
          "payable": false,
          "stateMutability": "view",
          "type": "function"
        },
        {
          "constant": true,
          "inputs": [],
          "name": "nexus",
          "outputs": [
            {
              "internalType": "contract INexus",
              "name": "",
              "type": "address"
            }
          ],
          "payable": false,
          "stateMutability": "view",
          "type": "function"
        },
        {
          "constant": false,
          "inputs": [
            {
              "internalType": "bytes32",
              "name": "_merkleRoot",
              "type": "bytes32"
            },
            {
              "internalType": "uint256",
              "name": "_totalAllocation",
              "type": "uint256"
            }
          ],
          "name": "seedNewAllocations",
          "outputs": [
            {
              "internalType": "uint256",
              "name": "trancheId",
              "type": "uint256"
            }
          ],
          "payable": false,
          "stateMutability": "nonpayable",
          "type": "function"
        },
        {
          "constant": true,
          "inputs": [],
          "name": "thresholdBlock",
          "outputs": [
            {
              "internalType": "uint256",
              "name": "",
              "type": "uint256"
            }
          ],
          "payable": false,
          "stateMutability": "view",
          "type": "function"
        },
        {
          "constant": true,
          "inputs": [],
          "name": "token",
          "outputs": [
            {
              "internalType": "contract IERC20",
              "name": "",
              "type": "address"
            }
          ],
          "payable": false,
          "stateMutability": "view",
          "type": "function"
        },
        {
          "constant": true,
          "inputs": [
            {
              "internalType": "address",
              "name": "_claimer",
              "type": "address"
            },
            {
              "internalType": "uint256",
              "name": "_tranche",
              "type": "uint256"
            },
            {
              "internalType": "uint256",
              "name": "_balance",
              "type": "uint256"
            },
            {
              "internalType": "bytes32[]",
              "name": "_merkleProof",
              "type": "bytes32[]"
            }
          ],
          "name": "verifyClaim",
          "outputs": [
            {
              "internalType": "bool",
              "name": "valid",
              "type": "bool"
            }
          ],
          "payable": false,
          "stateMutability": "view",
          "type": "function"
        },
        {
          "constant": true,
          "inputs": [
            {
              "internalType": "address",
              "name": "",
              "type": "address"
            }
          ],
          "name": "whitelist",
          "outputs": [
            {
              "internalType": "bool",
              "name": "",
              "type": "bool"
            }
          ],
          "payable": false,
          "stateMutability": "view",
          "type": "function"
        }
      ],
      "devdoc": {
        "methods": {}
      },
      "evm": {
        "bytecode": {
          "linkReferences": {},
          "object": "608060405234801561001057600080fd5b50612e4c806100206000396000f3fe608060405234801561001057600080fd5b50600436106100b45760003560e01c80639b19251a116100715780639b19251a1461019f578063a3f5c1d2146101cf578063cd54e72c146101ed578063d5efd20a14610209578063eb0d07f514610225578063fc0c546a14610255576100b4565b80630af49690146100b9578063120aa877146100d557806329eb15bd146101055780634ab541131461012357806365ef53b11461013f57806371c5ecb11461016f575b600080fd5b6100d360048036036100ce9190810190611e6a565b610273565b005b6100ef60048036036100ea919081019061201c565b610528565b6040516100fc9190612917565b60405180910390f35b61010d610557565b60405161011a9190612b63565b60405180910390f35b61013d60048036036101389190810190611f8e565b61055d565b005b61015960048036036101549190810190611fb7565b610560565b6040516101669190612b63565b60405180910390f35b61018960048036036101849190810190611ff3565b6108fd565b6040516101969190612932565b60405180910390f35b6101b960048036036101b49190810190611e41565b610915565b6040516101c69190612917565b60405180910390f35b6101d7610935565b6040516101e49190612968565b60405180910390f35b61020760048036036102029190810190611eea565b61095b565b005b610223600480360361021e9190810190611ff3565b610b48565b005b61023f600480360361023a9190810190611eea565b610d05565b60405161024c9190612917565b60405180910390f35b61025d610da1565b60405161026a919061294d565b60405180910390f35b600060019054906101000a900460ff16806102925750610291610dc7565b5b806102a957506000809054906101000a900460ff16155b6102e8576040517f08c379a00000000000000000000000000000000000000000000000000000000081526004016102df90612a63565b60405180910390fd5b60008060019054906101000a900460ff161590508015610338576001600060016101000a81548160ff02191690831515021790555060016000806101000a81548160ff0219169083151502179055505b6103647f4d1f1914b463a1df1f22b59173999d66e00f3eb3d93c96078461089741fe4d5e60001b61055d565b6103907fc8680aa51866dd28c964d9ff1c468f13f265fe9194778743696982959f15427d60001b61055d565b6103bc7f70fe7550a8292996773c6a8eff9ec604d6b1d620f9156d62dd56d6d03f4c32e760001b61055d565b61040786868680806020026020016040519081016040528093929190818152602001838360200280828437600081840152601f19601f82011690508083019250505050505050610dde565b6104337f385bf05ed975ad04a29cc2eb3247c8ac8616e8d86c9ba33b9b0d08fadf60af8460001b61055d565b61045f7ffbc3bd7c8006d11293559a2fc66269990912023c448c136e614153fc2c32d6ef60001b61055d565b82603d60006101000a81548173ffffffffffffffffffffffffffffffffffffffff021916908373ffffffffffffffffffffffffffffffffffffffff1602179055506104cc7fe42a82d9fa7823147604ad67f7b08ada48e84b9eeb027d33184483de97e82e3160001b61055d565b6104f87fd02459ca4862f780af681f03433968b6771628f812870e5417f5b05bc9db0d5860001b61055d565b8160418190555080156105205760008060016101000a81548160ff0219169083151502179055505b505050505050565b603f6020528160005260406000206020528060005260406000206000915091509054906101000a900460ff1681565b60415481565b50565b6000603c60003373ffffffffffffffffffffffffffffffffffffffff1673ffffffffffffffffffffffffffffffffffffffff16815260200190815260200160002060009054906101000a900460ff166105ee576040517f08c379a00000000000000000000000000000000000000000000000000000000081526004016105e590612a43565b60405180910390fd5b61061a7f315242968ded7f9b8330ecdf39cd461ae225b1dd1c38fc2536d74c369dfd74d060001b61055d565b6106467f0fd95cd135356267e96e3c8c576f3833111cfec8aa740b2821393e1f3fc5fdd260001b61055d565b6106727f749a4b491e3ec8fc2cb8dd3e93f98bafd712a0af5865715bc89e1d2684dc7ac960001b61055d565b603d60009054906101000a900473ffffffffffffffffffffffffffffffffffffffff1673ffffffffffffffffffffffffffffffffffffffff166323b872dd3330856040518463ffffffff1660e01b81526004016106d193929190612880565b602060405180830381600087803b1580156106eb57600080fd5b505af11580156106ff573d6000803e3d6000fd5b505050506040513d601f19601f820116820180604052506107239190810190611f65565b506107507f7e59eca5c1b43081618504b2eae7dafcd7d96ee5322bebae630f76584f41bfab60001b61055d565b61077c7f3a93024ce5728ee64cadde0938c9c042deebc612ef167257dc7f368a7854187660001b61055d565b60405490506107ad7fa7f574c7b0914df10a5fe3a8284183fbd5431065e496a438c360f4e1c25dd17960001b61055d565b6107d97f5decc1ab22bd380340728f8694ad62b00ea8aa9406a7010794e0154833402efb60001b61055d565b82603e60008381526020019081526020016000208190555061081c7e2acd07252eb07396b2c478dff5a0ed494bdc18c8cd07e17a4f33ff2f19a0d460001b61055d565b6108487f49390cd3cc5042d04bf5d0ae87a01a4e0f362ff57220568b760ba522ce54d2cd60001b61055d565b61085e6001604054610e6890919063ffffffff16565b6040819055506108907f76b45c8ca2920b270a814fcfce414073daf1e556c52f0982e5a73937dc6289dd60001b61055d565b6108bc7f0827c235be2940a85524432af8eca279d66ad8263399e2c6fc891f394eabc7e760001b61055d565b7f5c8770684b8f82e9ade880fb05ccfb53c969170cd40e9746a3703f241c9023ec8184846040516108ef93929190612b7e565b60405180910390a192915050565b603e6020528060005260406000206000915090505481565b603c6020528060005260406000206000915054906101000a900460ff1681565b603b60009054906101000a900473ffffffffffffffffffffffffffffffffffffffff1681565b6109877fab16fffa5ec9834f3683233e5b122597e09c374015ade8003f6d0b2137d2574f60001b61055d565b6109b37fe6f1cb7b569c87117b0299a8fe4e1e368fe7384c6414dec90881263fd3e4d35c60001b61055d565b6109df7f5c2cac338cdb0eb6fe73854bd6fc2dd3dbc38c1eabf140f89c507b6767a9165860001b61055d565b610a0b7fda5fa761bfae6f8742d60af8e9b1d1dc279e1413ff2b020f274efb0f752c5e6e60001b61055d565b604154431015610a50576040517f08c379a0000000000000000000000000000000000000000000000000000000008152600401610a4790612a83565b60405180910390fd5b610a7c7f1d5c3d47b8ae3505f0f227b989d61ff28caf561f1fc4c2ce06d8fed7f4653f5760001b61055d565b610aa87f9d9a31a039450327c9b952ed312d5e49918b35bee5146ba139c271223d5b241b60001b61055d565b610ad47f0d64cece30771137043dff4facb9da2c842515947d40a55ace7780556f51c0aa60001b61055d565b610ae084848484610ebd565b610b0c7f3fe40e91dd1537b2180646a9002b731fb7328d51052f25b36d10ad63c3eced9c60001b61055d565b610b387f15ddc9631384152dcac66dc1aad0b42156d6fd34f298dfa1b15b36e6256848c360001b61055d565b610b428483611380565b50505050565b603c60003373ffffffffffffffffffffffffffffffffffffffff1673ffffffffffffffffffffffffffffffffffffffff16815260200190815260200160002060009054906101000a900460ff16610bd4576040517f08c379a0000000000000000000000000000000000000000000000000000000008152600401610bcb90612a43565b60405180910390fd5b610c007fcb2246b71cf42dc859cc1208bdfed13bdac5645a6a1868b2352e969e0e5954b060001b61055d565b610c2c7fa53851f3919261f5e7987d27048a0ee0d1163285162c94949ff0287bea421baa60001b61055d565b610c587f8df13cb44a889c5a1dc943ed7607111bcec10b61211a75565f77a1367d58020160001b61055d565b6000801b603e600083815260200190815260200160002081905550610c9f7fb25fee3dd43eb7ae13392e429abc836bbd3796a3e6fb1e374aa6f110c7f8f23560001b61055d565b610ccb7fca730240a2790b197cd1fab4ff25650191fe7c057e38afbb626e0367d57666de60001b61055d565b7fcc071cbd9ae50a4c78d1153b76bd2d46ba8d4c7662842718ec3de1d67a144daf81604051610cfa9190612b63565b60405180910390a150565b6000610d337f4120afbd551f72c4162881e2279d37710e95051aed61563a07c660d68e2af54b60001b61055d565b610d5f7fa115cc73960e281c4e22fd8c5ca0eee26d4967ad430b0fe23d3ebfc2bb09858d60001b61055d565b610d8b7f1e7d333bb04df98d810b7344e90d1cc157a3449c8458f2f06f9b4f7afe918f8860001b61055d565b610d97858585856115a6565b9050949350505050565b603d60009054906101000a900473ffffffffffffffffffffffffffffffffffffffff1681565b6000803090506000813b9050600081149250505090565b610de7826116da565b6000815111610e2b576040517f08c379a0000000000000000000000000000000000000000000000000000000008152600401610e2290612a23565b60405180910390fd5b60008090505b8151811015610e6357610e56828281518110610e4957fe5b6020026020010151611796565b8080600101915050610e31565b505050565b600080828401905083811015610eb3576040517f08c379a0000000000000000000000000000000000000000000000000000000008152600401610eaa906129e3565b60405180910390fd5b8091505092915050565b610ee97f9fb33dd966c858b2f8f89eef0965af4038b7d5c69ccc47c4e8d3f2f882d6250e60001b61055d565b610f157f753a86b1bd11a4e2902a48da439a4d219e83fdb0601350f629a63c98c06d31dc60001b61055d565b610f417fa495c0ba562e81d488eb842edd4dd1baa0b8aa4f1e22ec13e7b7e1c095bb8ebf60001b61055d565b610f6d7f0141b3d031771b9927f876b72fb03c2ef9a4142dd93c99ff7ae967748323cea060001b61055d565b6040548310610fb1576040517f08c379a0000000000000000000000000000000000000000000000000000000008152600401610fa8906129a3565b60405180910390fd5b610fdd7f3745f1c45124cd6da85bbfdb606a6d2186bdeb773f837022957930dad86e9dd360001b61055d565b6110097f47c9efe5e4b2618e76780f5d68a2ee31fb2740fb360aff79b99b9df3d14478ea60001b61055d565b6110357f7b48c738497fc9946365eefe78b7cb4fa050cb385284e5c48368e5ef339ed4bf60001b61055d565b6110617fc2a8d258cac4050648894ade99f1e59483c2e966e67b61bbb2e42730741f521f60001b61055d565b603f600084815260200190815260200160002060008573ffffffffffffffffffffffffffffffffffffffff1673ffffffffffffffffffffffffffffffffffffffff16815260200190815260200160002060009054906101000a900460ff16156110ff576040517f08c379a00000000000000000000000000000000000000000000000000000000081526004016110f690612ae3565b60405180910390fd5b61112b7f4a80e0e573e988668e4579c43a5ed8ff1625b218ed20d04b1c73bb0cd1115d4760001b61055d565b6111577f2318a8e8af4cb85595d813d2ca6331656de9e3c3441ee3a9f6875178edeff55660001b61055d565b6111837f52c5613c253fbd45b484e65555006c9e8f2e6d6d98cd20c24093851e14c85bbf60001b61055d565b6111af7fe0538246dfc17e22342c85d56e378bdaedaeb83405500730e3dbf88b2b381dd560001b61055d565b6111bb848484846115a6565b6111fa576040517f08c379a00000000000000000000000000000000000000000000000000000000081526004016111f1906129c3565b60405180910390fd5b6112267f5ca746d6737080dfb4631e5c81fd0303b52fdc64dbc5425fcf0ddc2c0d82b5bb60001b61055d565b6112527fcbc59d33e8575ee8bd663b5379cea23a3b9518207936e6208613edbcb0d1932060001b61055d565b61127e7fb566c23468da0e715603425d86e31913b4f49c7e7f0dd8dea2b8b1a808275d3b60001b61055d565b6001603f600085815260200190815260200160002060008673ffffffffffffffffffffffffffffffffffffffff1673ffffffffffffffffffffffffffffffffffffffff16815260200190815260200160002060006101000a81548160ff0219169083151502179055506113137fbbca39356ea3cf0ca4c94f93a02a0fca1f1ee247a5ceca7cb670802f1135e52660001b61055d565b61133f7f322b55665e4a5d47939f04c0658ea8615af17f2a4f65dba4bae2e96a9cb4733860001b61055d565b7f987d620f307ff6b94d58743cb7a7509f24071586a77759b77c2d4e29f75a2f9a848484604051611372939291906128e0565b60405180910390a150505050565b6113ac7f8c0a6a75c86b86a8d09a89b12d473938e9b3b704cd7a1c87ccda9a0a0375a12060001b61055d565b6113d87f2d2ddbf4742ba7bea9c529e00f1037a9d2f0b6ba21950c451125356eddbaf17f60001b61055d565b6114047f0e95d2831f4d25c583f25ab788852ef1fc10d8c71e493664a46133b7658c37bf60001b61055d565b60008111156114e3576114397f35bcfaa19a2519ad036a401d54324b30ed6375d5707c0ee0cc2d5774059b5ce560001b61055d565b6114657f42b1660e00749b5834da2fe4fa559826b8b1076658c763ff8ee76a771d3d192060001b61055d565b6114917f3091dc5ae9aaf00db2627771f622f5ac8f597d0e0efb8d5e2445aff777d4b95760001b61055d565b6114de8282603d60009054906101000a900473ffffffffffffffffffffffffffffffffffffffff1673ffffffffffffffffffffffffffffffffffffffff166119319092919063ffffffff16565b6115a2565b61150f7fd143cd9c10493117d1928be7091a988b8f285d0359cf3cc3177f3c9808af83ea60001b61055d565b61153b7f546386ea249e93e6caa7d947c4efbd68ec80805f8fa178e7d9a673ed09aa36fa60001b61055d565b6115677f356f5da3d4a4ce695d5f6681309176d5e522ceb4444bd4501b1012883e0867d560001b61055d565b6040517f08c379a000000000000000000000000000000000000000000000000000000000815260040161159990612ac3565b60405180910390fd5b5050565b60006115d47f067491226c0dd091faffe2d2a855ebd357ac33613baa94b34587a98d47577acf60001b61055d565b6116007f2539e0dfa0aa61aa3831219e55d54c9ea304f5ddc42975238409372c610ffe5060001b61055d565b61162c7f21b0f5010d767a2e586c2975b144b997de2f1cbc79f35199e9545cdbeaba543460001b61055d565b60008584604051602001611641929190612769565b6040516020818303038152906040528051906020012090506116857fd28be919cb7f66ac4be0461205ba7f594920370f4edcef86cb63951c18fb122960001b61055d565b6116b17f221168b819ce3d8adf323916dd392a0b79c274caab6d9d81b08449699c20a50560001b61055d565b6116cf83603e600088815260200190815260200160002054836119d0565b915050949350505050565b600073ffffffffffffffffffffffffffffffffffffffff168173ffffffffffffffffffffffffffffffffffffffff16141561174a576040517f08c379a000000000000000000000000000000000000000000000000000000000815260040161174190612983565b60405180910390fd5b80603b60006101000a81548173ffffffffffffffffffffffffffffffffffffffff021916908373ffffffffffffffffffffffffffffffffffffffff160217905550611793611a7c565b50565b600073ffffffffffffffffffffffffffffffffffffffff168173ffffffffffffffffffffffffffffffffffffffff161415611806576040517f08c379a00000000000000000000000000000000000000000000000000000000081526004016117fd90612b03565b60405180910390fd5b603c60008273ffffffffffffffffffffffffffffffffffffffff1673ffffffffffffffffffffffffffffffffffffffff16815260200190815260200160002060009054906101000a900460ff1615611893576040517f08c379a000000000000000000000000000000000000000000000000000000000815260040161188a90612aa3565b60405180910390fd5b6001603c60008373ffffffffffffffffffffffffffffffffffffffff1673ffffffffffffffffffffffffffffffffffffffff16815260200190815260200160002060006101000a81548160ff0219169083151502179055508073ffffffffffffffffffffffffffffffffffffffff167faab7954e9d246b167ef88aeddad35209ca2489d95a8aeb59e288d9b19fae5a5460405160405180910390a250565b6119cb838473ffffffffffffffffffffffffffffffffffffffff1663a9059cbb905060e01b84846040516024016119699291906128b7565b604051602081830303815290604052907bffffffffffffffffffffffffffffffffffffffffffffffffffffffff19166020820180517bffffffffffffffffffffffffffffffffffffffffffffffffffffffff8381831617835250505050611b4e565b505050565b60008082905060008090505b8551811015611a6e5760008682815181106119f357fe5b60200260200101519050808311611a34578281604051602001611a17929190612795565b604051602081830303815290604052805190602001209250611a60565b8083604051602001611a47929190612795565b6040516020818303038152906040528051906020012092505b5080806001019150506119dc565b508381149150509392505050565b604051611a8890612841565b6040518091039020603381905550604051611aa2906127ed565b6040518091039020603481905550604051611abc90612856565b6040518091039020603581905550604051611ad69061282c565b6040518091039020603681905550604051611af090612817565b6040518091039020603781905550604051611b0a90612802565b6040518091039020603881905550604051611b249061286b565b6040518091039020603981905550604051611b3e906127d8565b6040518091039020603a81905550565b611b6d8273ffffffffffffffffffffffffffffffffffffffff16611cc0565b611bac576040517f08c379a0000000000000000000000000000000000000000000000000000000008152600401611ba390612b43565b60405180910390fd5b600060608373ffffffffffffffffffffffffffffffffffffffff1683604051611bd591906127c1565b6000604051808303816000865af19150503d8060008114611c12576040519150601f19603f3d011682016040523d82523d6000602084013e611c17565b606091505b509150915081611c5c576040517f08c379a0000000000000000000000000000000000000000000000000000000008152600401611c5390612a03565b60405180910390fd5b600081511115611cba5780806020019051611c7a9190810190611f65565b611cb9576040517f08c379a0000000000000000000000000000000000000000000000000000000008152600401611cb090612b23565b60405180910390fd5b5b50505050565b60008060007fc5d2460186f7233c927e7db2dcc703c0e500b653ca82273b7bfad8045d85a47060001b9050833f9150808214158015611d0257506000801b8214155b92505050919050565b600081359050611d1a81612d96565b92915050565b60008083601f840112611d3257600080fd5b8235905067ffffffffffffffff811115611d4b57600080fd5b602083019150836020820283011115611d6357600080fd5b9250929050565b600082601f830112611d7b57600080fd5b8135611d8e611d8982612be2565b612bb5565b91508181835260208401935060208101905083856020840282011115611db357600080fd5b60005b83811015611de35781611dc98882611e02565b845260208401935060208301925050600181019050611db6565b5050505092915050565b600081519050611dfc81612dad565b92915050565b600081359050611e1181612dc4565b92915050565b600081359050611e2681612ddb565b92915050565b600081359050611e3b81612df2565b92915050565b600060208284031215611e5357600080fd5b6000611e6184828501611d0b565b91505092915050565b600080600080600060808688031215611e8257600080fd5b6000611e9088828901611d0b565b955050602086013567ffffffffffffffff811115611ead57600080fd5b611eb988828901611d20565b94509450506040611ecc88828901611e17565b9250506060611edd88828901611e2c565b9150509295509295909350565b60008060008060808587031215611f0057600080fd5b6000611f0e87828801611d0b565b9450506020611f1f87828801611e2c565b9350506040611f3087828801611e2c565b925050606085013567ffffffffffffffff811115611f4d57600080fd5b611f5987828801611d6a565b91505092959194509250565b600060208284031215611f7757600080fd5b6000611f8584828501611ded565b91505092915050565b600060208284031215611fa057600080fd5b6000611fae84828501611e02565b91505092915050565b60008060408385031215611fca57600080fd5b6000611fd885828601611e02565b9250506020611fe985828601611e2c565b9150509250929050565b60006020828403121561200557600080fd5b600061201384828501611e2c565b91505092915050565b6000806040838503121561202f57600080fd5b600061203d85828601611e2c565b925050602061204e85828601611d0b565b9150509250929050565b61206181612ca0565b82525050565b61207081612c3c565b82525050565b61208761208282612c3c565b612d51565b82525050565b61209681612c4e565b82525050565b6120a581612c5a565b82525050565b6120bc6120b782612c5a565b612d63565b82525050565b60006120cd82612c0a565b6120d78185612c15565b93506120e7818560208601612d1e565b80840191505092915050565b6120fc81612cb2565b82525050565b61210b81612cd6565b82525050565b600061211e601583612c20565b91507f4e657875732061646472657373206973207a65726f00000000000000000000006000830152602082019050919050565b600061215e600e83612c31565b91507f536176696e67734d616e616765720000000000000000000000000000000000006000830152600e82019050919050565b600061219e601c83612c20565b91507f5765656b2063616e6e6f7420626520696e2074686520667574757265000000006000830152602082019050919050565b60006121de600783612c31565b91507f5374616b696e67000000000000000000000000000000000000000000000000006000830152600782019050919050565b600061221e601683612c20565b91507f496e636f7272656374206d65726b6c652070726f6f66000000000000000000006000830152602082019050919050565b600061225e601b83612c20565b91507f536166654d6174683a206164646974696f6e206f766572666c6f7700000000006000830152602082019050919050565b600061229e601083612c31565b91507f5265636f6c6c61746572616c69736572000000000000000000000000000000006000830152601082019050919050565b60006122de602083612c20565b91507f5361666545524332303a206c6f772d6c6576656c2063616c6c206661696c65646000830152602082019050919050565b600061231e600783612c31565b91507f4d616e61676572000000000000000000000000000000000000000000000000006000830152600782019050919050565b600061235e601583612c20565b91507f456d7074792077686974656c69737420617272617900000000000000000000006000830152602082019050919050565b600061239e601983612c20565b91507f4e6f7420612077686974656c69737465642061646472657373000000000000006000830152602082019050919050565b60006123de600983612c31565b91507f4f7261636c6548756200000000000000000000000000000000000000000000006000830152600982019050919050565b600061241e600a83612c31565b91507f476f7665726e616e6365000000000000000000000000000000000000000000006000830152600a82019050919050565b600061245e600a83612c31565b91507f50726f787941646d696e000000000000000000000000000000000000000000006000830152600a82019050919050565b600061249e602e83612c20565b91507f436f6e747261637420696e7374616e63652068617320616c726561647920626560008301527f656e20696e697469616c697a65640000000000000000000000000000000000006020830152604082019050919050565b6000612504601d83612c20565b91507f5265776172647320617265206e6f742079657420636c61696d61626c650000006000830152602082019050919050565b6000612544601383612c20565b91507f416c72656164792077686974656c6973746564000000000000000000000000006000830152602082019050919050565b6000612584603d83612c20565b91507f4e6f2062616c616e636520776f756c64206265207472616e736665727265642060008301527f2d206e6f7420676f696e6720746f20776173746520796f7572206761730000006020830152604082019050919050565b60006125ea601683612c20565b91507f4c502068617320616c726561647920636c61696d6564000000000000000000006000830152602082019050919050565b600061262a600f83612c20565b91507f41646472657373206973207a65726f00000000000000000000000000000000006000830152602082019050919050565b600061266a602a83612c20565b91507f5361666545524332303a204552433230206f7065726174696f6e20646964206e60008301527f6f742073756363656564000000000000000000000000000000000000000000006020830152604082019050919050565b60006126d0600983612c31565b91507f4d657461546f6b656e00000000000000000000000000000000000000000000006000830152600982019050919050565b6000612710601f83612c20565b91507f5361666545524332303a2063616c6c20746f206e6f6e2d636f6e7472616374006000830152602082019050919050565b61274c81612c96565b82525050565b61276361275e82612c96565b612d7f565b82525050565b60006127758285612076565b6014820191506127858284612752565b6020820191508190509392505050565b60006127a182856120ab565b6020820191506127b182846120ab565b6020820191508190509392505050565b60006127cd82846120c2565b915081905092915050565b60006127e382612151565b9150819050919050565b60006127f8826121d1565b9150819050919050565b600061280d82612291565b9150819050919050565b600061282282612311565b9150819050919050565b6000612837826123d1565b9150819050919050565b600061284c82612411565b9150819050919050565b600061286182612451565b9150819050919050565b6000612876826126c3565b9150819050919050565b60006060820190506128956000830186612058565b6128a26020830185612067565b6128af6040830184612743565b949350505050565b60006040820190506128cc6000830185612067565b6128d96020830184612743565b9392505050565b60006060820190506128f56000830186612067565b6129026020830185612743565b61290f6040830184612743565b949350505050565b600060208201905061292c600083018461208d565b92915050565b6000602082019050612947600083018461209c565b92915050565b600060208201905061296260008301846120f3565b92915050565b600060208201905061297d6000830184612102565b92915050565b6000602082019050818103600083015261299c81612111565b9050919050565b600060208201905081810360008301526129bc81612191565b9050919050565b600060208201905081810360008301526129dc81612211565b9050919050565b600060208201905081810360008301526129fc81612251565b9050919050565b60006020820190508181036000830152612a1c816122d1565b9050919050565b60006020820190508181036000830152612a3c81612351565b9050919050565b60006020820190508181036000830152612a5c81612391565b9050919050565b60006020820190508181036000830152612a7c81612491565b9050919050565b60006020820190508181036000830152612a9c816124f7565b9050919050565b60006020820190508181036000830152612abc81612537565b9050919050565b60006020820190508181036000830152612adc81612577565b9050919050565b60006020820190508181036000830152612afc816125dd565b9050919050565b60006020820190508181036000830152612b1c8161261d565b9050919050565b60006020820190508181036000830152612b3c8161265d565b9050919050565b60006020820190508181036000830152612b5c81612703565b9050919050565b6000602082019050612b786000830184612743565b92915050565b6000606082019050612b936000830186612743565b612ba0602083018561209c565b612bad6040830184612743565b949350505050565b6000604051905081810181811067ffffffffffffffff82111715612bd857600080fd5b8060405250919050565b600067ffffffffffffffff821115612bf957600080fd5b602082029050602081019050919050565b600081519050919050565b600081905092915050565b600082825260208201905092915050565b600081905092915050565b6000612c4782612c76565b9050919050565b60008115159050919050565b6000819050919050565b6000612c6f82612c3c565b9050919050565b600073ffffffffffffffffffffffffffffffffffffffff82169050919050565b6000819050919050565b6000612cab82612cfa565b9050919050565b6000612cbd82612cc4565b9050919050565b6000612ccf82612c76565b9050919050565b6000612ce182612ce8565b9050919050565b6000612cf382612c76565b9050919050565b6000612d0582612d0c565b9050919050565b6000612d1782612c76565b9050919050565b60005b83811015612d3c578082015181840152602081019050612d21565b83811115612d4b576000848401525b50505050565b6000612d5c82612d6d565b9050919050565b6000819050919050565b6000612d7882612d89565b9050919050565b6000819050919050565b60008160601b9050919050565b612d9f81612c3c565b8114612daa57600080fd5b50565b612db681612c4e565b8114612dc157600080fd5b50565b612dcd81612c5a565b8114612dd857600080fd5b50565b612de481612c64565b8114612def57600080fd5b50565b612dfb81612c96565b8114612e0657600080fd5b5056fea365627a7a7231582071c3b6891b4f7225a43df3cb39f3f023e5caa412c478804066b7e6cdcd86e5856c6578706572696d656e74616cf564736f6c63430005100040",
          "opcodes": "PUSH1 0x80 PUSH1 0x40 MSTORE CALLVALUE DUP1 ISZERO PUSH2 0x10 JUMPI PUSH1 0x0 DUP1 REVERT JUMPDEST POP PUSH2 0x2E4C DUP1 PUSH2 0x20 PUSH1 0x0 CODECOPY PUSH1 0x0 RETURN INVALID PUSH1 0x80 PUSH1 0x40 MSTORE CALLVALUE DUP1 ISZERO PUSH2 0x10 JUMPI PUSH1 0x0 DUP1 REVERT JUMPDEST POP PUSH1 0x4 CALLDATASIZE LT PUSH2 0xB4 JUMPI PUSH1 0x0 CALLDATALOAD PUSH1 0xE0 SHR DUP1 PUSH4 0x9B19251A GT PUSH2 0x71 JUMPI DUP1 PUSH4 0x9B19251A EQ PUSH2 0x19F JUMPI DUP1 PUSH4 0xA3F5C1D2 EQ PUSH2 0x1CF JUMPI DUP1 PUSH4 0xCD54E72C EQ PUSH2 0x1ED JUMPI DUP1 PUSH4 0xD5EFD20A EQ PUSH2 0x209 JUMPI DUP1 PUSH4 0xEB0D07F5 EQ PUSH2 0x225 JUMPI DUP1 PUSH4 0xFC0C546A EQ PUSH2 0x255 JUMPI PUSH2 0xB4 JUMP JUMPDEST DUP1 PUSH4 0xAF49690 EQ PUSH2 0xB9 JUMPI DUP1 PUSH4 0x120AA877 EQ PUSH2 0xD5 JUMPI DUP1 PUSH4 0x29EB15BD EQ PUSH2 0x105 JUMPI DUP1 PUSH4 0x4AB54113 EQ PUSH2 0x123 JUMPI DUP1 PUSH4 0x65EF53B1 EQ PUSH2 0x13F JUMPI DUP1 PUSH4 0x71C5ECB1 EQ PUSH2 0x16F JUMPI JUMPDEST PUSH1 0x0 DUP1 REVERT JUMPDEST PUSH2 0xD3 PUSH1 0x4 DUP1 CALLDATASIZE SUB PUSH2 0xCE SWAP2 SWAP1 DUP2 ADD SWAP1 PUSH2 0x1E6A JUMP JUMPDEST PUSH2 0x273 JUMP JUMPDEST STOP JUMPDEST PUSH2 0xEF PUSH1 0x4 DUP1 CALLDATASIZE SUB PUSH2 0xEA SWAP2 SWAP1 DUP2 ADD SWAP1 PUSH2 0x201C JUMP JUMPDEST PUSH2 0x528 JUMP JUMPDEST PUSH1 0x40 MLOAD PUSH2 0xFC SWAP2 SWAP1 PUSH2 0x2917 JUMP JUMPDEST PUSH1 0x40 MLOAD DUP1 SWAP2 SUB SWAP1 RETURN JUMPDEST PUSH2 0x10D PUSH2 0x557 JUMP JUMPDEST PUSH1 0x40 MLOAD PUSH2 0x11A SWAP2 SWAP1 PUSH2 0x2B63 JUMP JUMPDEST PUSH1 0x40 MLOAD DUP1 SWAP2 SUB SWAP1 RETURN JUMPDEST PUSH2 0x13D PUSH1 0x4 DUP1 CALLDATASIZE SUB PUSH2 0x138 SWAP2 SWAP1 DUP2 ADD SWAP1 PUSH2 0x1F8E JUMP JUMPDEST PUSH2 0x55D JUMP JUMPDEST STOP JUMPDEST PUSH2 0x159 PUSH1 0x4 DUP1 CALLDATASIZE SUB PUSH2 0x154 SWAP2 SWAP1 DUP2 ADD SWAP1 PUSH2 0x1FB7 JUMP JUMPDEST PUSH2 0x560 JUMP JUMPDEST PUSH1 0x40 MLOAD PUSH2 0x166 SWAP2 SWAP1 PUSH2 0x2B63 JUMP JUMPDEST PUSH1 0x40 MLOAD DUP1 SWAP2 SUB SWAP1 RETURN JUMPDEST PUSH2 0x189 PUSH1 0x4 DUP1 CALLDATASIZE SUB PUSH2 0x184 SWAP2 SWAP1 DUP2 ADD SWAP1 PUSH2 0x1FF3 JUMP JUMPDEST PUSH2 0x8FD JUMP JUMPDEST PUSH1 0x40 MLOAD PUSH2 0x196 SWAP2 SWAP1 PUSH2 0x2932 JUMP JUMPDEST PUSH1 0x40 MLOAD DUP1 SWAP2 SUB SWAP1 RETURN JUMPDEST PUSH2 0x1B9 PUSH1 0x4 DUP1 CALLDATASIZE SUB PUSH2 0x1B4 SWAP2 SWAP1 DUP2 ADD SWAP1 PUSH2 0x1E41 JUMP JUMPDEST PUSH2 0x915 JUMP JUMPDEST PUSH1 0x40 MLOAD PUSH2 0x1C6 SWAP2 SWAP1 PUSH2 0x2917 JUMP JUMPDEST PUSH1 0x40 MLOAD DUP1 SWAP2 SUB SWAP1 RETURN JUMPDEST PUSH2 0x1D7 PUSH2 0x935 JUMP JUMPDEST PUSH1 0x40 MLOAD PUSH2 0x1E4 SWAP2 SWAP1 PUSH2 0x2968 JUMP JUMPDEST PUSH1 0x40 MLOAD DUP1 SWAP2 SUB SWAP1 RETURN JUMPDEST PUSH2 0x207 PUSH1 0x4 DUP1 CALLDATASIZE SUB PUSH2 0x202 SWAP2 SWAP1 DUP2 ADD SWAP1 PUSH2 0x1EEA JUMP JUMPDEST PUSH2 0x95B JUMP JUMPDEST STOP JUMPDEST PUSH2 0x223 PUSH1 0x4 DUP1 CALLDATASIZE SUB PUSH2 0x21E SWAP2 SWAP1 DUP2 ADD SWAP1 PUSH2 0x1FF3 JUMP JUMPDEST PUSH2 0xB48 JUMP JUMPDEST STOP JUMPDEST PUSH2 0x23F PUSH1 0x4 DUP1 CALLDATASIZE SUB PUSH2 0x23A SWAP2 SWAP1 DUP2 ADD SWAP1 PUSH2 0x1EEA JUMP JUMPDEST PUSH2 0xD05 JUMP JUMPDEST PUSH1 0x40 MLOAD PUSH2 0x24C SWAP2 SWAP1 PUSH2 0x2917 JUMP JUMPDEST PUSH1 0x40 MLOAD DUP1 SWAP2 SUB SWAP1 RETURN JUMPDEST PUSH2 0x25D PUSH2 0xDA1 JUMP JUMPDEST PUSH1 0x40 MLOAD PUSH2 0x26A SWAP2 SWAP1 PUSH2 0x294D JUMP JUMPDEST PUSH1 0x40 MLOAD DUP1 SWAP2 SUB SWAP1 RETURN JUMPDEST PUSH1 0x0 PUSH1 0x1 SWAP1 SLOAD SWAP1 PUSH2 0x100 EXP SWAP1 DIV PUSH1 0xFF AND DUP1 PUSH2 0x292 JUMPI POP PUSH2 0x291 PUSH2 0xDC7 JUMP JUMPDEST JUMPDEST DUP1 PUSH2 0x2A9 JUMPI POP PUSH1 0x0 DUP1 SWAP1 SLOAD SWAP1 PUSH2 0x100 EXP SWAP1 DIV PUSH1 0xFF AND ISZERO JUMPDEST PUSH2 0x2E8 JUMPI PUSH1 0x40 MLOAD PUSH32 0x8C379A000000000000000000000000000000000000000000000000000000000 DUP2 MSTORE PUSH1 0x4 ADD PUSH2 0x2DF SWAP1 PUSH2 0x2A63 JUMP JUMPDEST PUSH1 0x40 MLOAD DUP1 SWAP2 SUB SWAP1 REVERT JUMPDEST PUSH1 0x0 DUP1 PUSH1 0x1 SWAP1 SLOAD SWAP1 PUSH2 0x100 EXP SWAP1 DIV PUSH1 0xFF AND ISZERO SWAP1 POP DUP1 ISZERO PUSH2 0x338 JUMPI PUSH1 0x1 PUSH1 0x0 PUSH1 0x1 PUSH2 0x100 EXP DUP2 SLOAD DUP2 PUSH1 0xFF MUL NOT AND SWAP1 DUP4 ISZERO ISZERO MUL OR SWAP1 SSTORE POP PUSH1 0x1 PUSH1 0x0 DUP1 PUSH2 0x100 EXP DUP2 SLOAD DUP2 PUSH1 0xFF MUL NOT AND SWAP1 DUP4 ISZERO ISZERO MUL OR SWAP1 SSTORE POP JUMPDEST PUSH2 0x364 PUSH32 0x4D1F1914B463A1DF1F22B59173999D66E00F3EB3D93C96078461089741FE4D5E PUSH1 0x0 SHL PUSH2 0x55D JUMP JUMPDEST PUSH2 0x390 PUSH32 0xC8680AA51866DD28C964D9FF1C468F13F265FE9194778743696982959F15427D PUSH1 0x0 SHL PUSH2 0x55D JUMP JUMPDEST PUSH2 0x3BC PUSH32 0x70FE7550A8292996773C6A8EFF9EC604D6B1D620F9156D62DD56D6D03F4C32E7 PUSH1 0x0 SHL PUSH2 0x55D JUMP JUMPDEST PUSH2 0x407 DUP7 DUP7 DUP7 DUP1 DUP1 PUSH1 0x20 MUL PUSH1 0x20 ADD PUSH1 0x40 MLOAD SWAP1 DUP2 ADD PUSH1 0x40 MSTORE DUP1 SWAP4 SWAP3 SWAP2 SWAP1 DUP2 DUP2 MSTORE PUSH1 0x20 ADD DUP4 DUP4 PUSH1 0x20 MUL DUP1 DUP3 DUP5 CALLDATACOPY PUSH1 0x0 DUP2 DUP5 ADD MSTORE PUSH1 0x1F NOT PUSH1 0x1F DUP3 ADD AND SWAP1 POP DUP1 DUP4 ADD SWAP3 POP POP POP POP POP POP POP PUSH2 0xDDE JUMP JUMPDEST PUSH2 0x433 PUSH32 0x385BF05ED975AD04A29CC2EB3247C8AC8616E8D86C9BA33B9B0D08FADF60AF84 PUSH1 0x0 SHL PUSH2 0x55D JUMP JUMPDEST PUSH2 0x45F PUSH32 0xFBC3BD7C8006D11293559A2FC66269990912023C448C136E614153FC2C32D6EF PUSH1 0x0 SHL PUSH2 0x55D JUMP JUMPDEST DUP3 PUSH1 0x3D PUSH1 0x0 PUSH2 0x100 EXP DUP2 SLOAD DUP2 PUSH20 0xFFFFFFFFFFFFFFFFFFFFFFFFFFFFFFFFFFFFFFFF MUL NOT AND SWAP1 DUP4 PUSH20 0xFFFFFFFFFFFFFFFFFFFFFFFFFFFFFFFFFFFFFFFF AND MUL OR SWAP1 SSTORE POP PUSH2 0x4CC PUSH32 0xE42A82D9FA7823147604AD67F7B08ADA48E84B9EEB027D33184483DE97E82E31 PUSH1 0x0 SHL PUSH2 0x55D JUMP JUMPDEST PUSH2 0x4F8 PUSH32 0xD02459CA4862F780AF681F03433968B6771628F812870E5417F5B05BC9DB0D58 PUSH1 0x0 SHL PUSH2 0x55D JUMP JUMPDEST DUP2 PUSH1 0x41 DUP2 SWAP1 SSTORE POP DUP1 ISZERO PUSH2 0x520 JUMPI PUSH1 0x0 DUP1 PUSH1 0x1 PUSH2 0x100 EXP DUP2 SLOAD DUP2 PUSH1 0xFF MUL NOT AND SWAP1 DUP4 ISZERO ISZERO MUL OR SWAP1 SSTORE POP JUMPDEST POP POP POP POP POP POP JUMP JUMPDEST PUSH1 0x3F PUSH1 0x20 MSTORE DUP2 PUSH1 0x0 MSTORE PUSH1 0x40 PUSH1 0x0 KECCAK256 PUSH1 0x20 MSTORE DUP1 PUSH1 0x0 MSTORE PUSH1 0x40 PUSH1 0x0 KECCAK256 PUSH1 0x0 SWAP2 POP SWAP2 POP SWAP1 SLOAD SWAP1 PUSH2 0x100 EXP SWAP1 DIV PUSH1 0xFF AND DUP2 JUMP JUMPDEST PUSH1 0x41 SLOAD DUP2 JUMP JUMPDEST POP JUMP JUMPDEST PUSH1 0x0 PUSH1 0x3C PUSH1 0x0 CALLER PUSH20 0xFFFFFFFFFFFFFFFFFFFFFFFFFFFFFFFFFFFFFFFF AND PUSH20 0xFFFFFFFFFFFFFFFFFFFFFFFFFFFFFFFFFFFFFFFF AND DUP2 MSTORE PUSH1 0x20 ADD SWAP1 DUP2 MSTORE PUSH1 0x20 ADD PUSH1 0x0 KECCAK256 PUSH1 0x0 SWAP1 SLOAD SWAP1 PUSH2 0x100 EXP SWAP1 DIV PUSH1 0xFF AND PUSH2 0x5EE JUMPI PUSH1 0x40 MLOAD PUSH32 0x8C379A000000000000000000000000000000000000000000000000000000000 DUP2 MSTORE PUSH1 0x4 ADD PUSH2 0x5E5 SWAP1 PUSH2 0x2A43 JUMP JUMPDEST PUSH1 0x40 MLOAD DUP1 SWAP2 SUB SWAP1 REVERT JUMPDEST PUSH2 0x61A PUSH32 0x315242968DED7F9B8330ECDF39CD461AE225B1DD1C38FC2536D74C369DFD74D0 PUSH1 0x0 SHL PUSH2 0x55D JUMP JUMPDEST PUSH2 0x646 PUSH32 0xFD95CD135356267E96E3C8C576F3833111CFEC8AA740B2821393E1F3FC5FDD2 PUSH1 0x0 SHL PUSH2 0x55D JUMP JUMPDEST PUSH2 0x672 PUSH32 0x749A4B491E3EC8FC2CB8DD3E93F98BAFD712A0AF5865715BC89E1D2684DC7AC9 PUSH1 0x0 SHL PUSH2 0x55D JUMP JUMPDEST PUSH1 0x3D PUSH1 0x0 SWAP1 SLOAD SWAP1 PUSH2 0x100 EXP SWAP1 DIV PUSH20 0xFFFFFFFFFFFFFFFFFFFFFFFFFFFFFFFFFFFFFFFF AND PUSH20 0xFFFFFFFFFFFFFFFFFFFFFFFFFFFFFFFFFFFFFFFF AND PUSH4 0x23B872DD CALLER ADDRESS DUP6 PUSH1 0x40 MLOAD DUP5 PUSH4 0xFFFFFFFF AND PUSH1 0xE0 SHL DUP2 MSTORE PUSH1 0x4 ADD PUSH2 0x6D1 SWAP4 SWAP3 SWAP2 SWAP1 PUSH2 0x2880 JUMP JUMPDEST PUSH1 0x20 PUSH1 0x40 MLOAD DUP1 DUP4 SUB DUP2 PUSH1 0x0 DUP8 DUP1 EXTCODESIZE ISZERO DUP1 ISZERO PUSH2 0x6EB JUMPI PUSH1 0x0 DUP1 REVERT JUMPDEST POP GAS CALL ISZERO DUP1 ISZERO PUSH2 0x6FF JUMPI RETURNDATASIZE PUSH1 0x0 DUP1 RETURNDATACOPY RETURNDATASIZE PUSH1 0x0 REVERT JUMPDEST POP POP POP POP PUSH1 0x40 MLOAD RETURNDATASIZE PUSH1 0x1F NOT PUSH1 0x1F DUP3 ADD AND DUP3 ADD DUP1 PUSH1 0x40 MSTORE POP PUSH2 0x723 SWAP2 SWAP1 DUP2 ADD SWAP1 PUSH2 0x1F65 JUMP JUMPDEST POP PUSH2 0x750 PUSH32 0x7E59ECA5C1B43081618504B2EAE7DAFCD7D96EE5322BEBAE630F76584F41BFAB PUSH1 0x0 SHL PUSH2 0x55D JUMP JUMPDEST PUSH2 0x77C PUSH32 0x3A93024CE5728EE64CADDE0938C9C042DEEBC612EF167257DC7F368A78541876 PUSH1 0x0 SHL PUSH2 0x55D JUMP JUMPDEST PUSH1 0x40 SLOAD SWAP1 POP PUSH2 0x7AD PUSH32 0xA7F574C7B0914DF10A5FE3A8284183FBD5431065E496A438C360F4E1C25DD179 PUSH1 0x0 SHL PUSH2 0x55D JUMP JUMPDEST PUSH2 0x7D9 PUSH32 0x5DECC1AB22BD380340728F8694AD62B00EA8AA9406A7010794E0154833402EFB PUSH1 0x0 SHL PUSH2 0x55D JUMP JUMPDEST DUP3 PUSH1 0x3E PUSH1 0x0 DUP4 DUP2 MSTORE PUSH1 0x20 ADD SWAP1 DUP2 MSTORE PUSH1 0x20 ADD PUSH1 0x0 KECCAK256 DUP2 SWAP1 SSTORE POP PUSH2 0x81C PUSH31 0x2ACD07252EB07396B2C478DFF5A0ED494BDC18C8CD07E17A4F33FF2F19A0D4 PUSH1 0x0 SHL PUSH2 0x55D JUMP JUMPDEST PUSH2 0x848 PUSH32 0x49390CD3CC5042D04BF5D0AE87A01A4E0F362FF57220568B760BA522CE54D2CD PUSH1 0x0 SHL PUSH2 0x55D JUMP JUMPDEST PUSH2 0x85E PUSH1 0x1 PUSH1 0x40 SLOAD PUSH2 0xE68 SWAP1 SWAP2 SWAP1 PUSH4 0xFFFFFFFF AND JUMP JUMPDEST PUSH1 0x40 DUP2 SWAP1 SSTORE POP PUSH2 0x890 PUSH32 0x76B45C8CA2920B270A814FCFCE414073DAF1E556C52F0982E5A73937DC6289DD PUSH1 0x0 SHL PUSH2 0x55D JUMP JUMPDEST PUSH2 0x8BC PUSH32 0x827C235BE2940A85524432AF8ECA279D66AD8263399E2C6FC891F394EABC7E7 PUSH1 0x0 SHL PUSH2 0x55D JUMP JUMPDEST PUSH32 0x5C8770684B8F82E9ADE880FB05CCFB53C969170CD40E9746A3703F241C9023EC DUP2 DUP5 DUP5 PUSH1 0x40 MLOAD PUSH2 0x8EF SWAP4 SWAP3 SWAP2 SWAP1 PUSH2 0x2B7E JUMP JUMPDEST PUSH1 0x40 MLOAD DUP1 SWAP2 SUB SWAP1 LOG1 SWAP3 SWAP2 POP POP JUMP JUMPDEST PUSH1 0x3E PUSH1 0x20 MSTORE DUP1 PUSH1 0x0 MSTORE PUSH1 0x40 PUSH1 0x0 KECCAK256 PUSH1 0x0 SWAP2 POP SWAP1 POP SLOAD DUP2 JUMP JUMPDEST PUSH1 0x3C PUSH1 0x20 MSTORE DUP1 PUSH1 0x0 MSTORE PUSH1 0x40 PUSH1 0x0 KECCAK256 PUSH1 0x0 SWAP2 POP SLOAD SWAP1 PUSH2 0x100 EXP SWAP1 DIV PUSH1 0xFF AND DUP2 JUMP JUMPDEST PUSH1 0x3B PUSH1 0x0 SWAP1 SLOAD SWAP1 PUSH2 0x100 EXP SWAP1 DIV PUSH20 0xFFFFFFFFFFFFFFFFFFFFFFFFFFFFFFFFFFFFFFFF AND DUP2 JUMP JUMPDEST PUSH2 0x987 PUSH32 0xAB16FFFA5EC9834F3683233E5B122597E09C374015ADE8003F6D0B2137D2574F PUSH1 0x0 SHL PUSH2 0x55D JUMP JUMPDEST PUSH2 0x9B3 PUSH32 0xE6F1CB7B569C87117B0299A8FE4E1E368FE7384C6414DEC90881263FD3E4D35C PUSH1 0x0 SHL PUSH2 0x55D JUMP JUMPDEST PUSH2 0x9DF PUSH32 0x5C2CAC338CDB0EB6FE73854BD6FC2DD3DBC38C1EABF140F89C507B6767A91658 PUSH1 0x0 SHL PUSH2 0x55D JUMP JUMPDEST PUSH2 0xA0B PUSH32 0xDA5FA761BFAE6F8742D60AF8E9B1D1DC279E1413FF2B020F274EFB0F752C5E6E PUSH1 0x0 SHL PUSH2 0x55D JUMP JUMPDEST PUSH1 0x41 SLOAD NUMBER LT ISZERO PUSH2 0xA50 JUMPI PUSH1 0x40 MLOAD PUSH32 0x8C379A000000000000000000000000000000000000000000000000000000000 DUP2 MSTORE PUSH1 0x4 ADD PUSH2 0xA47 SWAP1 PUSH2 0x2A83 JUMP JUMPDEST PUSH1 0x40 MLOAD DUP1 SWAP2 SUB SWAP1 REVERT JUMPDEST PUSH2 0xA7C PUSH32 0x1D5C3D47B8AE3505F0F227B989D61FF28CAF561F1FC4C2CE06D8FED7F4653F57 PUSH1 0x0 SHL PUSH2 0x55D JUMP JUMPDEST PUSH2 0xAA8 PUSH32 0x9D9A31A039450327C9B952ED312D5E49918B35BEE5146BA139C271223D5B241B PUSH1 0x0 SHL PUSH2 0x55D JUMP JUMPDEST PUSH2 0xAD4 PUSH32 0xD64CECE30771137043DFF4FACB9DA2C842515947D40A55ACE7780556F51C0AA PUSH1 0x0 SHL PUSH2 0x55D JUMP JUMPDEST PUSH2 0xAE0 DUP5 DUP5 DUP5 DUP5 PUSH2 0xEBD JUMP JUMPDEST PUSH2 0xB0C PUSH32 0x3FE40E91DD1537B2180646A9002B731FB7328D51052F25B36D10AD63C3ECED9C PUSH1 0x0 SHL PUSH2 0x55D JUMP JUMPDEST PUSH2 0xB38 PUSH32 0x15DDC9631384152DCAC66DC1AAD0B42156D6FD34F298DFA1B15B36E6256848C3 PUSH1 0x0 SHL PUSH2 0x55D JUMP JUMPDEST PUSH2 0xB42 DUP5 DUP4 PUSH2 0x1380 JUMP JUMPDEST POP POP POP POP JUMP JUMPDEST PUSH1 0x3C PUSH1 0x0 CALLER PUSH20 0xFFFFFFFFFFFFFFFFFFFFFFFFFFFFFFFFFFFFFFFF AND PUSH20 0xFFFFFFFFFFFFFFFFFFFFFFFFFFFFFFFFFFFFFFFF AND DUP2 MSTORE PUSH1 0x20 ADD SWAP1 DUP2 MSTORE PUSH1 0x20 ADD PUSH1 0x0 KECCAK256 PUSH1 0x0 SWAP1 SLOAD SWAP1 PUSH2 0x100 EXP SWAP1 DIV PUSH1 0xFF AND PUSH2 0xBD4 JUMPI PUSH1 0x40 MLOAD PUSH32 0x8C379A000000000000000000000000000000000000000000000000000000000 DUP2 MSTORE PUSH1 0x4 ADD PUSH2 0xBCB SWAP1 PUSH2 0x2A43 JUMP JUMPDEST PUSH1 0x40 MLOAD DUP1 SWAP2 SUB SWAP1 REVERT JUMPDEST PUSH2 0xC00 PUSH32 0xCB2246B71CF42DC859CC1208BDFED13BDAC5645A6A1868B2352E969E0E5954B0 PUSH1 0x0 SHL PUSH2 0x55D JUMP JUMPDEST PUSH2 0xC2C PUSH32 0xA53851F3919261F5E7987D27048A0EE0D1163285162C94949FF0287BEA421BAA PUSH1 0x0 SHL PUSH2 0x55D JUMP JUMPDEST PUSH2 0xC58 PUSH32 0x8DF13CB44A889C5A1DC943ED7607111BCEC10B61211A75565F77A1367D580201 PUSH1 0x0 SHL PUSH2 0x55D JUMP JUMPDEST PUSH1 0x0 DUP1 SHL PUSH1 0x3E PUSH1 0x0 DUP4 DUP2 MSTORE PUSH1 0x20 ADD SWAP1 DUP2 MSTORE PUSH1 0x20 ADD PUSH1 0x0 KECCAK256 DUP2 SWAP1 SSTORE POP PUSH2 0xC9F PUSH32 0xB25FEE3DD43EB7AE13392E429ABC836BBD3796A3E6FB1E374AA6F110C7F8F235 PUSH1 0x0 SHL PUSH2 0x55D JUMP JUMPDEST PUSH2 0xCCB PUSH32 0xCA730240A2790B197CD1FAB4FF25650191FE7C057E38AFBB626E0367D57666DE PUSH1 0x0 SHL PUSH2 0x55D JUMP JUMPDEST PUSH32 0xCC071CBD9AE50A4C78D1153B76BD2D46BA8D4C7662842718EC3DE1D67A144DAF DUP2 PUSH1 0x40 MLOAD PUSH2 0xCFA SWAP2 SWAP1 PUSH2 0x2B63 JUMP JUMPDEST PUSH1 0x40 MLOAD DUP1 SWAP2 SUB SWAP1 LOG1 POP JUMP JUMPDEST PUSH1 0x0 PUSH2 0xD33 PUSH32 0x4120AFBD551F72C4162881E2279D37710E95051AED61563A07C660D68E2AF54B PUSH1 0x0 SHL PUSH2 0x55D JUMP JUMPDEST PUSH2 0xD5F PUSH32 0xA115CC73960E281C4E22FD8C5CA0EEE26D4967AD430B0FE23D3EBFC2BB09858D PUSH1 0x0 SHL PUSH2 0x55D JUMP JUMPDEST PUSH2 0xD8B PUSH32 0x1E7D333BB04DF98D810B7344E90D1CC157A3449C8458F2F06F9B4F7AFE918F88 PUSH1 0x0 SHL PUSH2 0x55D JUMP JUMPDEST PUSH2 0xD97 DUP6 DUP6 DUP6 DUP6 PUSH2 0x15A6 JUMP JUMPDEST SWAP1 POP SWAP5 SWAP4 POP POP POP POP JUMP JUMPDEST PUSH1 0x3D PUSH1 0x0 SWAP1 SLOAD SWAP1 PUSH2 0x100 EXP SWAP1 DIV PUSH20 0xFFFFFFFFFFFFFFFFFFFFFFFFFFFFFFFFFFFFFFFF AND DUP2 JUMP JUMPDEST PUSH1 0x0 DUP1 ADDRESS SWAP1 POP PUSH1 0x0 DUP2 EXTCODESIZE SWAP1 POP PUSH1 0x0 DUP2 EQ SWAP3 POP POP POP SWAP1 JUMP JUMPDEST PUSH2 0xDE7 DUP3 PUSH2 0x16DA JUMP JUMPDEST PUSH1 0x0 DUP2 MLOAD GT PUSH2 0xE2B JUMPI PUSH1 0x40 MLOAD PUSH32 0x8C379A000000000000000000000000000000000000000000000000000000000 DUP2 MSTORE PUSH1 0x4 ADD PUSH2 0xE22 SWAP1 PUSH2 0x2A23 JUMP JUMPDEST PUSH1 0x40 MLOAD DUP1 SWAP2 SUB SWAP1 REVERT JUMPDEST PUSH1 0x0 DUP1 SWAP1 POP JUMPDEST DUP2 MLOAD DUP2 LT ISZERO PUSH2 0xE63 JUMPI PUSH2 0xE56 DUP3 DUP3 DUP2 MLOAD DUP2 LT PUSH2 0xE49 JUMPI INVALID JUMPDEST PUSH1 0x20 MUL PUSH1 0x20 ADD ADD MLOAD PUSH2 0x1796 JUMP JUMPDEST DUP1 DUP1 PUSH1 0x1 ADD SWAP2 POP POP PUSH2 0xE31 JUMP JUMPDEST POP POP POP JUMP JUMPDEST PUSH1 0x0 DUP1 DUP3 DUP5 ADD SWAP1 POP DUP4 DUP2 LT ISZERO PUSH2 0xEB3 JUMPI PUSH1 0x40 MLOAD PUSH32 0x8C379A000000000000000000000000000000000000000000000000000000000 DUP2 MSTORE PUSH1 0x4 ADD PUSH2 0xEAA SWAP1 PUSH2 0x29E3 JUMP JUMPDEST PUSH1 0x40 MLOAD DUP1 SWAP2 SUB SWAP1 REVERT JUMPDEST DUP1 SWAP2 POP POP SWAP3 SWAP2 POP POP JUMP JUMPDEST PUSH2 0xEE9 PUSH32 0x9FB33DD966C858B2F8F89EEF0965AF4038B7D5C69CCC47C4E8D3F2F882D6250E PUSH1 0x0 SHL PUSH2 0x55D JUMP JUMPDEST PUSH2 0xF15 PUSH32 0x753A86B1BD11A4E2902A48DA439A4D219E83FDB0601350F629A63C98C06D31DC PUSH1 0x0 SHL PUSH2 0x55D JUMP JUMPDEST PUSH2 0xF41 PUSH32 0xA495C0BA562E81D488EB842EDD4DD1BAA0B8AA4F1E22EC13E7B7E1C095BB8EBF PUSH1 0x0 SHL PUSH2 0x55D JUMP JUMPDEST PUSH2 0xF6D PUSH32 0x141B3D031771B9927F876B72FB03C2EF9A4142DD93C99FF7AE967748323CEA0 PUSH1 0x0 SHL PUSH2 0x55D JUMP JUMPDEST PUSH1 0x40 SLOAD DUP4 LT PUSH2 0xFB1 JUMPI PUSH1 0x40 MLOAD PUSH32 0x8C379A000000000000000000000000000000000000000000000000000000000 DUP2 MSTORE PUSH1 0x4 ADD PUSH2 0xFA8 SWAP1 PUSH2 0x29A3 JUMP JUMPDEST PUSH1 0x40 MLOAD DUP1 SWAP2 SUB SWAP1 REVERT JUMPDEST PUSH2 0xFDD PUSH32 0x3745F1C45124CD6DA85BBFDB606A6D2186BDEB773F837022957930DAD86E9DD3 PUSH1 0x0 SHL PUSH2 0x55D JUMP JUMPDEST PUSH2 0x1009 PUSH32 0x47C9EFE5E4B2618E76780F5D68A2EE31FB2740FB360AFF79B99B9DF3D14478EA PUSH1 0x0 SHL PUSH2 0x55D JUMP JUMPDEST PUSH2 0x1035 PUSH32 0x7B48C738497FC9946365EEFE78B7CB4FA050CB385284E5C48368E5EF339ED4BF PUSH1 0x0 SHL PUSH2 0x55D JUMP JUMPDEST PUSH2 0x1061 PUSH32 0xC2A8D258CAC4050648894ADE99F1E59483C2E966E67B61BBB2E42730741F521F PUSH1 0x0 SHL PUSH2 0x55D JUMP JUMPDEST PUSH1 0x3F PUSH1 0x0 DUP5 DUP2 MSTORE PUSH1 0x20 ADD SWAP1 DUP2 MSTORE PUSH1 0x20 ADD PUSH1 0x0 KECCAK256 PUSH1 0x0 DUP6 PUSH20 0xFFFFFFFFFFFFFFFFFFFFFFFFFFFFFFFFFFFFFFFF AND PUSH20 0xFFFFFFFFFFFFFFFFFFFFFFFFFFFFFFFFFFFFFFFF AND DUP2 MSTORE PUSH1 0x20 ADD SWAP1 DUP2 MSTORE PUSH1 0x20 ADD PUSH1 0x0 KECCAK256 PUSH1 0x0 SWAP1 SLOAD SWAP1 PUSH2 0x100 EXP SWAP1 DIV PUSH1 0xFF AND ISZERO PUSH2 0x10FF JUMPI PUSH1 0x40 MLOAD PUSH32 0x8C379A000000000000000000000000000000000000000000000000000000000 DUP2 MSTORE PUSH1 0x4 ADD PUSH2 0x10F6 SWAP1 PUSH2 0x2AE3 JUMP JUMPDEST PUSH1 0x40 MLOAD DUP1 SWAP2 SUB SWAP1 REVERT JUMPDEST PUSH2 0x112B PUSH32 0x4A80E0E573E988668E4579C43A5ED8FF1625B218ED20D04B1C73BB0CD1115D47 PUSH1 0x0 SHL PUSH2 0x55D JUMP JUMPDEST PUSH2 0x1157 PUSH32 0x2318A8E8AF4CB85595D813D2CA6331656DE9E3C3441EE3A9F6875178EDEFF556 PUSH1 0x0 SHL PUSH2 0x55D JUMP JUMPDEST PUSH2 0x1183 PUSH32 0x52C5613C253FBD45B484E65555006C9E8F2E6D6D98CD20C24093851E14C85BBF PUSH1 0x0 SHL PUSH2 0x55D JUMP JUMPDEST PUSH2 0x11AF PUSH32 0xE0538246DFC17E22342C85D56E378BDAEDAEB83405500730E3DBF88B2B381DD5 PUSH1 0x0 SHL PUSH2 0x55D JUMP JUMPDEST PUSH2 0x11BB DUP5 DUP5 DUP5 DUP5 PUSH2 0x15A6 JUMP JUMPDEST PUSH2 0x11FA JUMPI PUSH1 0x40 MLOAD PUSH32 0x8C379A000000000000000000000000000000000000000000000000000000000 DUP2 MSTORE PUSH1 0x4 ADD PUSH2 0x11F1 SWAP1 PUSH2 0x29C3 JUMP JUMPDEST PUSH1 0x40 MLOAD DUP1 SWAP2 SUB SWAP1 REVERT JUMPDEST PUSH2 0x1226 PUSH32 0x5CA746D6737080DFB4631E5C81FD0303B52FDC64DBC5425FCF0DDC2C0D82B5BB PUSH1 0x0 SHL PUSH2 0x55D JUMP JUMPDEST PUSH2 0x1252 PUSH32 0xCBC59D33E8575EE8BD663B5379CEA23A3B9518207936E6208613EDBCB0D19320 PUSH1 0x0 SHL PUSH2 0x55D JUMP JUMPDEST PUSH2 0x127E PUSH32 0xB566C23468DA0E715603425D86E31913B4F49C7E7F0DD8DEA2B8B1A808275D3B PUSH1 0x0 SHL PUSH2 0x55D JUMP JUMPDEST PUSH1 0x1 PUSH1 0x3F PUSH1 0x0 DUP6 DUP2 MSTORE PUSH1 0x20 ADD SWAP1 DUP2 MSTORE PUSH1 0x20 ADD PUSH1 0x0 KECCAK256 PUSH1 0x0 DUP7 PUSH20 0xFFFFFFFFFFFFFFFFFFFFFFFFFFFFFFFFFFFFFFFF AND PUSH20 0xFFFFFFFFFFFFFFFFFFFFFFFFFFFFFFFFFFFFFFFF AND DUP2 MSTORE PUSH1 0x20 ADD SWAP1 DUP2 MSTORE PUSH1 0x20 ADD PUSH1 0x0 KECCAK256 PUSH1 0x0 PUSH2 0x100 EXP DUP2 SLOAD DUP2 PUSH1 0xFF MUL NOT AND SWAP1 DUP4 ISZERO ISZERO MUL OR SWAP1 SSTORE POP PUSH2 0x1313 PUSH32 0xBBCA39356EA3CF0CA4C94F93A02A0FCA1F1EE247A5CECA7CB670802F1135E526 PUSH1 0x0 SHL PUSH2 0x55D JUMP JUMPDEST PUSH2 0x133F PUSH32 0x322B55665E4A5D47939F04C0658EA8615AF17F2A4F65DBA4BAE2E96A9CB47338 PUSH1 0x0 SHL PUSH2 0x55D JUMP JUMPDEST PUSH32 0x987D620F307FF6B94D58743CB7A7509F24071586A77759B77C2D4E29F75A2F9A DUP5 DUP5 DUP5 PUSH1 0x40 MLOAD PUSH2 0x1372 SWAP4 SWAP3 SWAP2 SWAP1 PUSH2 0x28E0 JUMP JUMPDEST PUSH1 0x40 MLOAD DUP1 SWAP2 SUB SWAP1 LOG1 POP POP POP POP JUMP JUMPDEST PUSH2 0x13AC PUSH32 0x8C0A6A75C86B86A8D09A89B12D473938E9B3B704CD7A1C87CCDA9A0A0375A120 PUSH1 0x0 SHL PUSH2 0x55D JUMP JUMPDEST PUSH2 0x13D8 PUSH32 0x2D2DDBF4742BA7BEA9C529E00F1037A9D2F0B6BA21950C451125356EDDBAF17F PUSH1 0x0 SHL PUSH2 0x55D JUMP JUMPDEST PUSH2 0x1404 PUSH32 0xE95D2831F4D25C583F25AB788852EF1FC10D8C71E493664A46133B7658C37BF PUSH1 0x0 SHL PUSH2 0x55D JUMP JUMPDEST PUSH1 0x0 DUP2 GT ISZERO PUSH2 0x14E3 JUMPI PUSH2 0x1439 PUSH32 0x35BCFAA19A2519AD036A401D54324B30ED6375D5707C0EE0CC2D5774059B5CE5 PUSH1 0x0 SHL PUSH2 0x55D JUMP JUMPDEST PUSH2 0x1465 PUSH32 0x42B1660E00749B5834DA2FE4FA559826B8B1076658C763FF8EE76A771D3D1920 PUSH1 0x0 SHL PUSH2 0x55D JUMP JUMPDEST PUSH2 0x1491 PUSH32 0x3091DC5AE9AAF00DB2627771F622F5AC8F597D0E0EFB8D5E2445AFF777D4B957 PUSH1 0x0 SHL PUSH2 0x55D JUMP JUMPDEST PUSH2 0x14DE DUP3 DUP3 PUSH1 0x3D PUSH1 0x0 SWAP1 SLOAD SWAP1 PUSH2 0x100 EXP SWAP1 DIV PUSH20 0xFFFFFFFFFFFFFFFFFFFFFFFFFFFFFFFFFFFFFFFF AND PUSH20 0xFFFFFFFFFFFFFFFFFFFFFFFFFFFFFFFFFFFFFFFF AND PUSH2 0x1931 SWAP1 SWAP3 SWAP2 SWAP1 PUSH4 0xFFFFFFFF AND JUMP JUMPDEST PUSH2 0x15A2 JUMP JUMPDEST PUSH2 0x150F PUSH32 0xD143CD9C10493117D1928BE7091A988B8F285D0359CF3CC3177F3C9808AF83EA PUSH1 0x0 SHL PUSH2 0x55D JUMP JUMPDEST PUSH2 0x153B PUSH32 0x546386EA249E93E6CAA7D947C4EFBD68EC80805F8FA178E7D9A673ED09AA36FA PUSH1 0x0 SHL PUSH2 0x55D JUMP JUMPDEST PUSH2 0x1567 PUSH32 0x356F5DA3D4A4CE695D5F6681309176D5E522CEB4444BD4501B1012883E0867D5 PUSH1 0x0 SHL PUSH2 0x55D JUMP JUMPDEST PUSH1 0x40 MLOAD PUSH32 0x8C379A000000000000000000000000000000000000000000000000000000000 DUP2 MSTORE PUSH1 0x4 ADD PUSH2 0x1599 SWAP1 PUSH2 0x2AC3 JUMP JUMPDEST PUSH1 0x40 MLOAD DUP1 SWAP2 SUB SWAP1 REVERT JUMPDEST POP POP JUMP JUMPDEST PUSH1 0x0 PUSH2 0x15D4 PUSH32 0x67491226C0DD091FAFFE2D2A855EBD357AC33613BAA94B34587A98D47577ACF PUSH1 0x0 SHL PUSH2 0x55D JUMP JUMPDEST PUSH2 0x1600 PUSH32 0x2539E0DFA0AA61AA3831219E55D54C9EA304F5DDC42975238409372C610FFE50 PUSH1 0x0 SHL PUSH2 0x55D JUMP JUMPDEST PUSH2 0x162C PUSH32 0x21B0F5010D767A2E586C2975B144B997DE2F1CBC79F35199E9545CDBEABA5434 PUSH1 0x0 SHL PUSH2 0x55D JUMP JUMPDEST PUSH1 0x0 DUP6 DUP5 PUSH1 0x40 MLOAD PUSH1 0x20 ADD PUSH2 0x1641 SWAP3 SWAP2 SWAP1 PUSH2 0x2769 JUMP JUMPDEST PUSH1 0x40 MLOAD PUSH1 0x20 DUP2 DUP4 SUB SUB DUP2 MSTORE SWAP1 PUSH1 0x40 MSTORE DUP1 MLOAD SWAP1 PUSH1 0x20 ADD KECCAK256 SWAP1 POP PUSH2 0x1685 PUSH32 0xD28BE919CB7F66AC4BE0461205BA7F594920370F4EDCEF86CB63951C18FB1229 PUSH1 0x0 SHL PUSH2 0x55D JUMP JUMPDEST PUSH2 0x16B1 PUSH32 0x221168B819CE3D8ADF323916DD392A0B79C274CAAB6D9D81B08449699C20A505 PUSH1 0x0 SHL PUSH2 0x55D JUMP JUMPDEST PUSH2 0x16CF DUP4 PUSH1 0x3E PUSH1 0x0 DUP9 DUP2 MSTORE PUSH1 0x20 ADD SWAP1 DUP2 MSTORE PUSH1 0x20 ADD PUSH1 0x0 KECCAK256 SLOAD DUP4 PUSH2 0x19D0 JUMP JUMPDEST SWAP2 POP POP SWAP5 SWAP4 POP POP POP POP JUMP JUMPDEST PUSH1 0x0 PUSH20 0xFFFFFFFFFFFFFFFFFFFFFFFFFFFFFFFFFFFFFFFF AND DUP2 PUSH20 0xFFFFFFFFFFFFFFFFFFFFFFFFFFFFFFFFFFFFFFFF AND EQ ISZERO PUSH2 0x174A JUMPI PUSH1 0x40 MLOAD PUSH32 0x8C379A000000000000000000000000000000000000000000000000000000000 DUP2 MSTORE PUSH1 0x4 ADD PUSH2 0x1741 SWAP1 PUSH2 0x2983 JUMP JUMPDEST PUSH1 0x40 MLOAD DUP1 SWAP2 SUB SWAP1 REVERT JUMPDEST DUP1 PUSH1 0x3B PUSH1 0x0 PUSH2 0x100 EXP DUP2 SLOAD DUP2 PUSH20 0xFFFFFFFFFFFFFFFFFFFFFFFFFFFFFFFFFFFFFFFF MUL NOT AND SWAP1 DUP4 PUSH20 0xFFFFFFFFFFFFFFFFFFFFFFFFFFFFFFFFFFFFFFFF AND MUL OR SWAP1 SSTORE POP PUSH2 0x1793 PUSH2 0x1A7C JUMP JUMPDEST POP JUMP JUMPDEST PUSH1 0x0 PUSH20 0xFFFFFFFFFFFFFFFFFFFFFFFFFFFFFFFFFFFFFFFF AND DUP2 PUSH20 0xFFFFFFFFFFFFFFFFFFFFFFFFFFFFFFFFFFFFFFFF AND EQ ISZERO PUSH2 0x1806 JUMPI PUSH1 0x40 MLOAD PUSH32 0x8C379A000000000000000000000000000000000000000000000000000000000 DUP2 MSTORE PUSH1 0x4 ADD PUSH2 0x17FD SWAP1 PUSH2 0x2B03 JUMP JUMPDEST PUSH1 0x40 MLOAD DUP1 SWAP2 SUB SWAP1 REVERT JUMPDEST PUSH1 0x3C PUSH1 0x0 DUP3 PUSH20 0xFFFFFFFFFFFFFFFFFFFFFFFFFFFFFFFFFFFFFFFF AND PUSH20 0xFFFFFFFFFFFFFFFFFFFFFFFFFFFFFFFFFFFFFFFF AND DUP2 MSTORE PUSH1 0x20 ADD SWAP1 DUP2 MSTORE PUSH1 0x20 ADD PUSH1 0x0 KECCAK256 PUSH1 0x0 SWAP1 SLOAD SWAP1 PUSH2 0x100 EXP SWAP1 DIV PUSH1 0xFF AND ISZERO PUSH2 0x1893 JUMPI PUSH1 0x40 MLOAD PUSH32 0x8C379A000000000000000000000000000000000000000000000000000000000 DUP2 MSTORE PUSH1 0x4 ADD PUSH2 0x188A SWAP1 PUSH2 0x2AA3 JUMP JUMPDEST PUSH1 0x40 MLOAD DUP1 SWAP2 SUB SWAP1 REVERT JUMPDEST PUSH1 0x1 PUSH1 0x3C PUSH1 0x0 DUP4 PUSH20 0xFFFFFFFFFFFFFFFFFFFFFFFFFFFFFFFFFFFFFFFF AND PUSH20 0xFFFFFFFFFFFFFFFFFFFFFFFFFFFFFFFFFFFFFFFF AND DUP2 MSTORE PUSH1 0x20 ADD SWAP1 DUP2 MSTORE PUSH1 0x20 ADD PUSH1 0x0 KECCAK256 PUSH1 0x0 PUSH2 0x100 EXP DUP2 SLOAD DUP2 PUSH1 0xFF MUL NOT AND SWAP1 DUP4 ISZERO ISZERO MUL OR SWAP1 SSTORE POP DUP1 PUSH20 0xFFFFFFFFFFFFFFFFFFFFFFFFFFFFFFFFFFFFFFFF AND PUSH32 0xAAB7954E9D246B167EF88AEDDAD35209CA2489D95A8AEB59E288D9B19FAE5A54 PUSH1 0x40 MLOAD PUSH1 0x40 MLOAD DUP1 SWAP2 SUB SWAP1 LOG2 POP JUMP JUMPDEST PUSH2 0x19CB DUP4 DUP5 PUSH20 0xFFFFFFFFFFFFFFFFFFFFFFFFFFFFFFFFFFFFFFFF AND PUSH4 0xA9059CBB SWAP1 POP PUSH1 0xE0 SHL DUP5 DUP5 PUSH1 0x40 MLOAD PUSH1 0x24 ADD PUSH2 0x1969 SWAP3 SWAP2 SWAP1 PUSH2 0x28B7 JUMP JUMPDEST PUSH1 0x40 MLOAD PUSH1 0x20 DUP2 DUP4 SUB SUB DUP2 MSTORE SWAP1 PUSH1 0x40 MSTORE SWAP1 PUSH28 0xFFFFFFFFFFFFFFFFFFFFFFFFFFFFFFFFFFFFFFFFFFFFFFFFFFFFFFFF NOT AND PUSH1 0x20 DUP3 ADD DUP1 MLOAD PUSH28 0xFFFFFFFFFFFFFFFFFFFFFFFFFFFFFFFFFFFFFFFFFFFFFFFFFFFFFFFF DUP4 DUP2 DUP4 AND OR DUP4 MSTORE POP POP POP POP PUSH2 0x1B4E JUMP JUMPDEST POP POP POP JUMP JUMPDEST PUSH1 0x0 DUP1 DUP3 SWAP1 POP PUSH1 0x0 DUP1 SWAP1 POP JUMPDEST DUP6 MLOAD DUP2 LT ISZERO PUSH2 0x1A6E JUMPI PUSH1 0x0 DUP7 DUP3 DUP2 MLOAD DUP2 LT PUSH2 0x19F3 JUMPI INVALID JUMPDEST PUSH1 0x20 MUL PUSH1 0x20 ADD ADD MLOAD SWAP1 POP DUP1 DUP4 GT PUSH2 0x1A34 JUMPI DUP3 DUP2 PUSH1 0x40 MLOAD PUSH1 0x20 ADD PUSH2 0x1A17 SWAP3 SWAP2 SWAP1 PUSH2 0x2795 JUMP JUMPDEST PUSH1 0x40 MLOAD PUSH1 0x20 DUP2 DUP4 SUB SUB DUP2 MSTORE SWAP1 PUSH1 0x40 MSTORE DUP1 MLOAD SWAP1 PUSH1 0x20 ADD KECCAK256 SWAP3 POP PUSH2 0x1A60 JUMP JUMPDEST DUP1 DUP4 PUSH1 0x40 MLOAD PUSH1 0x20 ADD PUSH2 0x1A47 SWAP3 SWAP2 SWAP1 PUSH2 0x2795 JUMP JUMPDEST PUSH1 0x40 MLOAD PUSH1 0x20 DUP2 DUP4 SUB SUB DUP2 MSTORE SWAP1 PUSH1 0x40 MSTORE DUP1 MLOAD SWAP1 PUSH1 0x20 ADD KECCAK256 SWAP3 POP JUMPDEST POP DUP1 DUP1 PUSH1 0x1 ADD SWAP2 POP POP PUSH2 0x19DC JUMP JUMPDEST POP DUP4 DUP2 EQ SWAP2 POP POP SWAP4 SWAP3 POP POP POP JUMP JUMPDEST PUSH1 0x40 MLOAD PUSH2 0x1A88 SWAP1 PUSH2 0x2841 JUMP JUMPDEST PUSH1 0x40 MLOAD DUP1 SWAP2 SUB SWAP1 KECCAK256 PUSH1 0x33 DUP2 SWAP1 SSTORE POP PUSH1 0x40 MLOAD PUSH2 0x1AA2 SWAP1 PUSH2 0x27ED JUMP JUMPDEST PUSH1 0x40 MLOAD DUP1 SWAP2 SUB SWAP1 KECCAK256 PUSH1 0x34 DUP2 SWAP1 SSTORE POP PUSH1 0x40 MLOAD PUSH2 0x1ABC SWAP1 PUSH2 0x2856 JUMP JUMPDEST PUSH1 0x40 MLOAD DUP1 SWAP2 SUB SWAP1 KECCAK256 PUSH1 0x35 DUP2 SWAP1 SSTORE POP PUSH1 0x40 MLOAD PUSH2 0x1AD6 SWAP1 PUSH2 0x282C JUMP JUMPDEST PUSH1 0x40 MLOAD DUP1 SWAP2 SUB SWAP1 KECCAK256 PUSH1 0x36 DUP2 SWAP1 SSTORE POP PUSH1 0x40 MLOAD PUSH2 0x1AF0 SWAP1 PUSH2 0x2817 JUMP JUMPDEST PUSH1 0x40 MLOAD DUP1 SWAP2 SUB SWAP1 KECCAK256 PUSH1 0x37 DUP2 SWAP1 SSTORE POP PUSH1 0x40 MLOAD PUSH2 0x1B0A SWAP1 PUSH2 0x2802 JUMP JUMPDEST PUSH1 0x40 MLOAD DUP1 SWAP2 SUB SWAP1 KECCAK256 PUSH1 0x38 DUP2 SWAP1 SSTORE POP PUSH1 0x40 MLOAD PUSH2 0x1B24 SWAP1 PUSH2 0x286B JUMP JUMPDEST PUSH1 0x40 MLOAD DUP1 SWAP2 SUB SWAP1 KECCAK256 PUSH1 0x39 DUP2 SWAP1 SSTORE POP PUSH1 0x40 MLOAD PUSH2 0x1B3E SWAP1 PUSH2 0x27D8 JUMP JUMPDEST PUSH1 0x40 MLOAD DUP1 SWAP2 SUB SWAP1 KECCAK256 PUSH1 0x3A DUP2 SWAP1 SSTORE POP JUMP JUMPDEST PUSH2 0x1B6D DUP3 PUSH20 0xFFFFFFFFFFFFFFFFFFFFFFFFFFFFFFFFFFFFFFFF AND PUSH2 0x1CC0 JUMP JUMPDEST PUSH2 0x1BAC JUMPI PUSH1 0x40 MLOAD PUSH32 0x8C379A000000000000000000000000000000000000000000000000000000000 DUP2 MSTORE PUSH1 0x4 ADD PUSH2 0x1BA3 SWAP1 PUSH2 0x2B43 JUMP JUMPDEST PUSH1 0x40 MLOAD DUP1 SWAP2 SUB SWAP1 REVERT JUMPDEST PUSH1 0x0 PUSH1 0x60 DUP4 PUSH20 0xFFFFFFFFFFFFFFFFFFFFFFFFFFFFFFFFFFFFFFFF AND DUP4 PUSH1 0x40 MLOAD PUSH2 0x1BD5 SWAP2 SWAP1 PUSH2 0x27C1 JUMP JUMPDEST PUSH1 0x0 PUSH1 0x40 MLOAD DUP1 DUP4 SUB DUP2 PUSH1 0x0 DUP7 GAS CALL SWAP2 POP POP RETURNDATASIZE DUP1 PUSH1 0x0 DUP2 EQ PUSH2 0x1C12 JUMPI PUSH1 0x40 MLOAD SWAP2 POP PUSH1 0x1F NOT PUSH1 0x3F RETURNDATASIZE ADD AND DUP3 ADD PUSH1 0x40 MSTORE RETURNDATASIZE DUP3 MSTORE RETURNDATASIZE PUSH1 0x0 PUSH1 0x20 DUP5 ADD RETURNDATACOPY PUSH2 0x1C17 JUMP JUMPDEST PUSH1 0x60 SWAP2 POP JUMPDEST POP SWAP2 POP SWAP2 POP DUP2 PUSH2 0x1C5C JUMPI PUSH1 0x40 MLOAD PUSH32 0x8C379A000000000000000000000000000000000000000000000000000000000 DUP2 MSTORE PUSH1 0x4 ADD PUSH2 0x1C53 SWAP1 PUSH2 0x2A03 JUMP JUMPDEST PUSH1 0x40 MLOAD DUP1 SWAP2 SUB SWAP1 REVERT JUMPDEST PUSH1 0x0 DUP2 MLOAD GT ISZERO PUSH2 0x1CBA JUMPI DUP1 DUP1 PUSH1 0x20 ADD SWAP1 MLOAD PUSH2 0x1C7A SWAP2 SWAP1 DUP2 ADD SWAP1 PUSH2 0x1F65 JUMP JUMPDEST PUSH2 0x1CB9 JUMPI PUSH1 0x40 MLOAD PUSH32 0x8C379A000000000000000000000000000000000000000000000000000000000 DUP2 MSTORE PUSH1 0x4 ADD PUSH2 0x1CB0 SWAP1 PUSH2 0x2B23 JUMP JUMPDEST PUSH1 0x40 MLOAD DUP1 SWAP2 SUB SWAP1 REVERT JUMPDEST JUMPDEST POP POP POP POP JUMP JUMPDEST PUSH1 0x0 DUP1 PUSH1 0x0 PUSH32 0xC5D2460186F7233C927E7DB2DCC703C0E500B653CA82273B7BFAD8045D85A470 PUSH1 0x0 SHL SWAP1 POP DUP4 EXTCODEHASH SWAP2 POP DUP1 DUP3 EQ ISZERO DUP1 ISZERO PUSH2 0x1D02 JUMPI POP PUSH1 0x0 DUP1 SHL DUP3 EQ ISZERO JUMPDEST SWAP3 POP POP POP SWAP2 SWAP1 POP JUMP JUMPDEST PUSH1 0x0 DUP2 CALLDATALOAD SWAP1 POP PUSH2 0x1D1A DUP2 PUSH2 0x2D96 JUMP JUMPDEST SWAP3 SWAP2 POP POP JUMP JUMPDEST PUSH1 0x0 DUP1 DUP4 PUSH1 0x1F DUP5 ADD SLT PUSH2 0x1D32 JUMPI PUSH1 0x0 DUP1 REVERT JUMPDEST DUP3 CALLDATALOAD SWAP1 POP PUSH8 0xFFFFFFFFFFFFFFFF DUP2 GT ISZERO PUSH2 0x1D4B JUMPI PUSH1 0x0 DUP1 REVERT JUMPDEST PUSH1 0x20 DUP4 ADD SWAP2 POP DUP4 PUSH1 0x20 DUP3 MUL DUP4 ADD GT ISZERO PUSH2 0x1D63 JUMPI PUSH1 0x0 DUP1 REVERT JUMPDEST SWAP3 POP SWAP3 SWAP1 POP JUMP JUMPDEST PUSH1 0x0 DUP3 PUSH1 0x1F DUP4 ADD SLT PUSH2 0x1D7B JUMPI PUSH1 0x0 DUP1 REVERT JUMPDEST DUP2 CALLDATALOAD PUSH2 0x1D8E PUSH2 0x1D89 DUP3 PUSH2 0x2BE2 JUMP JUMPDEST PUSH2 0x2BB5 JUMP JUMPDEST SWAP2 POP DUP2 DUP2 DUP4 MSTORE PUSH1 0x20 DUP5 ADD SWAP4 POP PUSH1 0x20 DUP2 ADD SWAP1 POP DUP4 DUP6 PUSH1 0x20 DUP5 MUL DUP3 ADD GT ISZERO PUSH2 0x1DB3 JUMPI PUSH1 0x0 DUP1 REVERT JUMPDEST PUSH1 0x0 JUMPDEST DUP4 DUP2 LT ISZERO PUSH2 0x1DE3 JUMPI DUP2 PUSH2 0x1DC9 DUP9 DUP3 PUSH2 0x1E02 JUMP JUMPDEST DUP5 MSTORE PUSH1 0x20 DUP5 ADD SWAP4 POP PUSH1 0x20 DUP4 ADD SWAP3 POP POP PUSH1 0x1 DUP2 ADD SWAP1 POP PUSH2 0x1DB6 JUMP JUMPDEST POP POP POP POP SWAP3 SWAP2 POP POP JUMP JUMPDEST PUSH1 0x0 DUP2 MLOAD SWAP1 POP PUSH2 0x1DFC DUP2 PUSH2 0x2DAD JUMP JUMPDEST SWAP3 SWAP2 POP POP JUMP JUMPDEST PUSH1 0x0 DUP2 CALLDATALOAD SWAP1 POP PUSH2 0x1E11 DUP2 PUSH2 0x2DC4 JUMP JUMPDEST SWAP3 SWAP2 POP POP JUMP JUMPDEST PUSH1 0x0 DUP2 CALLDATALOAD SWAP1 POP PUSH2 0x1E26 DUP2 PUSH2 0x2DDB JUMP JUMPDEST SWAP3 SWAP2 POP POP JUMP JUMPDEST PUSH1 0x0 DUP2 CALLDATALOAD SWAP1 POP PUSH2 0x1E3B DUP2 PUSH2 0x2DF2 JUMP JUMPDEST SWAP3 SWAP2 POP POP JUMP JUMPDEST PUSH1 0x0 PUSH1 0x20 DUP3 DUP5 SUB SLT ISZERO PUSH2 0x1E53 JUMPI PUSH1 0x0 DUP1 REVERT JUMPDEST PUSH1 0x0 PUSH2 0x1E61 DUP5 DUP3 DUP6 ADD PUSH2 0x1D0B JUMP JUMPDEST SWAP2 POP POP SWAP3 SWAP2 POP POP JUMP JUMPDEST PUSH1 0x0 DUP1 PUSH1 0x0 DUP1 PUSH1 0x0 PUSH1 0x80 DUP7 DUP9 SUB SLT ISZERO PUSH2 0x1E82 JUMPI PUSH1 0x0 DUP1 REVERT JUMPDEST PUSH1 0x0 PUSH2 0x1E90 DUP9 DUP3 DUP10 ADD PUSH2 0x1D0B JUMP JUMPDEST SWAP6 POP POP PUSH1 0x20 DUP7 ADD CALLDATALOAD PUSH8 0xFFFFFFFFFFFFFFFF DUP2 GT ISZERO PUSH2 0x1EAD JUMPI PUSH1 0x0 DUP1 REVERT JUMPDEST PUSH2 0x1EB9 DUP9 DUP3 DUP10 ADD PUSH2 0x1D20 JUMP JUMPDEST SWAP5 POP SWAP5 POP POP PUSH1 0x40 PUSH2 0x1ECC DUP9 DUP3 DUP10 ADD PUSH2 0x1E17 JUMP JUMPDEST SWAP3 POP POP PUSH1 0x60 PUSH2 0x1EDD DUP9 DUP3 DUP10 ADD PUSH2 0x1E2C JUMP JUMPDEST SWAP2 POP POP SWAP3 SWAP6 POP SWAP3 SWAP6 SWAP1 SWAP4 POP JUMP JUMPDEST PUSH1 0x0 DUP1 PUSH1 0x0 DUP1 PUSH1 0x80 DUP6 DUP8 SUB SLT ISZERO PUSH2 0x1F00 JUMPI PUSH1 0x0 DUP1 REVERT JUMPDEST PUSH1 0x0 PUSH2 0x1F0E DUP8 DUP3 DUP9 ADD PUSH2 0x1D0B JUMP JUMPDEST SWAP5 POP POP PUSH1 0x20 PUSH2 0x1F1F DUP8 DUP3 DUP9 ADD PUSH2 0x1E2C JUMP JUMPDEST SWAP4 POP POP PUSH1 0x40 PUSH2 0x1F30 DUP8 DUP3 DUP9 ADD PUSH2 0x1E2C JUMP JUMPDEST SWAP3 POP POP PUSH1 0x60 DUP6 ADD CALLDATALOAD PUSH8 0xFFFFFFFFFFFFFFFF DUP2 GT ISZERO PUSH2 0x1F4D JUMPI PUSH1 0x0 DUP1 REVERT JUMPDEST PUSH2 0x1F59 DUP8 DUP3 DUP9 ADD PUSH2 0x1D6A JUMP JUMPDEST SWAP2 POP POP SWAP3 SWAP6 SWAP2 SWAP5 POP SWAP3 POP JUMP JUMPDEST PUSH1 0x0 PUSH1 0x20 DUP3 DUP5 SUB SLT ISZERO PUSH2 0x1F77 JUMPI PUSH1 0x0 DUP1 REVERT JUMPDEST PUSH1 0x0 PUSH2 0x1F85 DUP5 DUP3 DUP6 ADD PUSH2 0x1DED JUMP JUMPDEST SWAP2 POP POP SWAP3 SWAP2 POP POP JUMP JUMPDEST PUSH1 0x0 PUSH1 0x20 DUP3 DUP5 SUB SLT ISZERO PUSH2 0x1FA0 JUMPI PUSH1 0x0 DUP1 REVERT JUMPDEST PUSH1 0x0 PUSH2 0x1FAE DUP5 DUP3 DUP6 ADD PUSH2 0x1E02 JUMP JUMPDEST SWAP2 POP POP SWAP3 SWAP2 POP POP JUMP JUMPDEST PUSH1 0x0 DUP1 PUSH1 0x40 DUP4 DUP6 SUB SLT ISZERO PUSH2 0x1FCA JUMPI PUSH1 0x0 DUP1 REVERT JUMPDEST PUSH1 0x0 PUSH2 0x1FD8 DUP6 DUP3 DUP7 ADD PUSH2 0x1E02 JUMP JUMPDEST SWAP3 POP POP PUSH1 0x20 PUSH2 0x1FE9 DUP6 DUP3 DUP7 ADD PUSH2 0x1E2C JUMP JUMPDEST SWAP2 POP POP SWAP3 POP SWAP3 SWAP1 POP JUMP JUMPDEST PUSH1 0x0 PUSH1 0x20 DUP3 DUP5 SUB SLT ISZERO PUSH2 0x2005 JUMPI PUSH1 0x0 DUP1 REVERT JUMPDEST PUSH1 0x0 PUSH2 0x2013 DUP5 DUP3 DUP6 ADD PUSH2 0x1E2C JUMP JUMPDEST SWAP2 POP POP SWAP3 SWAP2 POP POP JUMP JUMPDEST PUSH1 0x0 DUP1 PUSH1 0x40 DUP4 DUP6 SUB SLT ISZERO PUSH2 0x202F JUMPI PUSH1 0x0 DUP1 REVERT JUMPDEST PUSH1 0x0 PUSH2 0x203D DUP6 DUP3 DUP7 ADD PUSH2 0x1E2C JUMP JUMPDEST SWAP3 POP POP PUSH1 0x20 PUSH2 0x204E DUP6 DUP3 DUP7 ADD PUSH2 0x1D0B JUMP JUMPDEST SWAP2 POP POP SWAP3 POP SWAP3 SWAP1 POP JUMP JUMPDEST PUSH2 0x2061 DUP2 PUSH2 0x2CA0 JUMP JUMPDEST DUP3 MSTORE POP POP JUMP JUMPDEST PUSH2 0x2070 DUP2 PUSH2 0x2C3C JUMP JUMPDEST DUP3 MSTORE POP POP JUMP JUMPDEST PUSH2 0x2087 PUSH2 0x2082 DUP3 PUSH2 0x2C3C JUMP JUMPDEST PUSH2 0x2D51 JUMP JUMPDEST DUP3 MSTORE POP POP JUMP JUMPDEST PUSH2 0x2096 DUP2 PUSH2 0x2C4E JUMP JUMPDEST DUP3 MSTORE POP POP JUMP JUMPDEST PUSH2 0x20A5 DUP2 PUSH2 0x2C5A JUMP JUMPDEST DUP3 MSTORE POP POP JUMP JUMPDEST PUSH2 0x20BC PUSH2 0x20B7 DUP3 PUSH2 0x2C5A JUMP JUMPDEST PUSH2 0x2D63 JUMP JUMPDEST DUP3 MSTORE POP POP JUMP JUMPDEST PUSH1 0x0 PUSH2 0x20CD DUP3 PUSH2 0x2C0A JUMP JUMPDEST PUSH2 0x20D7 DUP2 DUP6 PUSH2 0x2C15 JUMP JUMPDEST SWAP4 POP PUSH2 0x20E7 DUP2 DUP6 PUSH1 0x20 DUP7 ADD PUSH2 0x2D1E JUMP JUMPDEST DUP1 DUP5 ADD SWAP2 POP POP SWAP3 SWAP2 POP POP JUMP JUMPDEST PUSH2 0x20FC DUP2 PUSH2 0x2CB2 JUMP JUMPDEST DUP3 MSTORE POP POP JUMP JUMPDEST PUSH2 0x210B DUP2 PUSH2 0x2CD6 JUMP JUMPDEST DUP3 MSTORE POP POP JUMP JUMPDEST PUSH1 0x0 PUSH2 0x211E PUSH1 0x15 DUP4 PUSH2 0x2C20 JUMP JUMPDEST SWAP2 POP PUSH32 0x4E657875732061646472657373206973207A65726F0000000000000000000000 PUSH1 0x0 DUP4 ADD MSTORE PUSH1 0x20 DUP3 ADD SWAP1 POP SWAP2 SWAP1 POP JUMP JUMPDEST PUSH1 0x0 PUSH2 0x215E PUSH1 0xE DUP4 PUSH2 0x2C31 JUMP JUMPDEST SWAP2 POP PUSH32 0x536176696E67734D616E61676572000000000000000000000000000000000000 PUSH1 0x0 DUP4 ADD MSTORE PUSH1 0xE DUP3 ADD SWAP1 POP SWAP2 SWAP1 POP JUMP JUMPDEST PUSH1 0x0 PUSH2 0x219E PUSH1 0x1C DUP4 PUSH2 0x2C20 JUMP JUMPDEST SWAP2 POP PUSH32 0x5765656B2063616E6E6F7420626520696E207468652066757475726500000000 PUSH1 0x0 DUP4 ADD MSTORE PUSH1 0x20 DUP3 ADD SWAP1 POP SWAP2 SWAP1 POP JUMP JUMPDEST PUSH1 0x0 PUSH2 0x21DE PUSH1 0x7 DUP4 PUSH2 0x2C31 JUMP JUMPDEST SWAP2 POP PUSH32 0x5374616B696E6700000000000000000000000000000000000000000000000000 PUSH1 0x0 DUP4 ADD MSTORE PUSH1 0x7 DUP3 ADD SWAP1 POP SWAP2 SWAP1 POP JUMP JUMPDEST PUSH1 0x0 PUSH2 0x221E PUSH1 0x16 DUP4 PUSH2 0x2C20 JUMP JUMPDEST SWAP2 POP PUSH32 0x496E636F7272656374206D65726B6C652070726F6F6600000000000000000000 PUSH1 0x0 DUP4 ADD MSTORE PUSH1 0x20 DUP3 ADD SWAP1 POP SWAP2 SWAP1 POP JUMP JUMPDEST PUSH1 0x0 PUSH2 0x225E PUSH1 0x1B DUP4 PUSH2 0x2C20 JUMP JUMPDEST SWAP2 POP PUSH32 0x536166654D6174683A206164646974696F6E206F766572666C6F770000000000 PUSH1 0x0 DUP4 ADD MSTORE PUSH1 0x20 DUP3 ADD SWAP1 POP SWAP2 SWAP1 POP JUMP JUMPDEST PUSH1 0x0 PUSH2 0x229E PUSH1 0x10 DUP4 PUSH2 0x2C31 JUMP JUMPDEST SWAP2 POP PUSH32 0x5265636F6C6C61746572616C6973657200000000000000000000000000000000 PUSH1 0x0 DUP4 ADD MSTORE PUSH1 0x10 DUP3 ADD SWAP1 POP SWAP2 SWAP1 POP JUMP JUMPDEST PUSH1 0x0 PUSH2 0x22DE PUSH1 0x20 DUP4 PUSH2 0x2C20 JUMP JUMPDEST SWAP2 POP PUSH32 0x5361666545524332303A206C6F772D6C6576656C2063616C6C206661696C6564 PUSH1 0x0 DUP4 ADD MSTORE PUSH1 0x20 DUP3 ADD SWAP1 POP SWAP2 SWAP1 POP JUMP JUMPDEST PUSH1 0x0 PUSH2 0x231E PUSH1 0x7 DUP4 PUSH2 0x2C31 JUMP JUMPDEST SWAP2 POP PUSH32 0x4D616E6167657200000000000000000000000000000000000000000000000000 PUSH1 0x0 DUP4 ADD MSTORE PUSH1 0x7 DUP3 ADD SWAP1 POP SWAP2 SWAP1 POP JUMP JUMPDEST PUSH1 0x0 PUSH2 0x235E PUSH1 0x15 DUP4 PUSH2 0x2C20 JUMP JUMPDEST SWAP2 POP PUSH32 0x456D7074792077686974656C6973742061727261790000000000000000000000 PUSH1 0x0 DUP4 ADD MSTORE PUSH1 0x20 DUP3 ADD SWAP1 POP SWAP2 SWAP1 POP JUMP JUMPDEST PUSH1 0x0 PUSH2 0x239E PUSH1 0x19 DUP4 PUSH2 0x2C20 JUMP JUMPDEST SWAP2 POP PUSH32 0x4E6F7420612077686974656C6973746564206164647265737300000000000000 PUSH1 0x0 DUP4 ADD MSTORE PUSH1 0x20 DUP3 ADD SWAP1 POP SWAP2 SWAP1 POP JUMP JUMPDEST PUSH1 0x0 PUSH2 0x23DE PUSH1 0x9 DUP4 PUSH2 0x2C31 JUMP JUMPDEST SWAP2 POP PUSH32 0x4F7261636C654875620000000000000000000000000000000000000000000000 PUSH1 0x0 DUP4 ADD MSTORE PUSH1 0x9 DUP3 ADD SWAP1 POP SWAP2 SWAP1 POP JUMP JUMPDEST PUSH1 0x0 PUSH2 0x241E PUSH1 0xA DUP4 PUSH2 0x2C31 JUMP JUMPDEST SWAP2 POP PUSH32 0x476F7665726E616E636500000000000000000000000000000000000000000000 PUSH1 0x0 DUP4 ADD MSTORE PUSH1 0xA DUP3 ADD SWAP1 POP SWAP2 SWAP1 POP JUMP JUMPDEST PUSH1 0x0 PUSH2 0x245E PUSH1 0xA DUP4 PUSH2 0x2C31 JUMP JUMPDEST SWAP2 POP PUSH32 0x50726F787941646D696E00000000000000000000000000000000000000000000 PUSH1 0x0 DUP4 ADD MSTORE PUSH1 0xA DUP3 ADD SWAP1 POP SWAP2 SWAP1 POP JUMP JUMPDEST PUSH1 0x0 PUSH2 0x249E PUSH1 0x2E DUP4 PUSH2 0x2C20 JUMP JUMPDEST SWAP2 POP PUSH32 0x436F6E747261637420696E7374616E63652068617320616C7265616479206265 PUSH1 0x0 DUP4 ADD MSTORE PUSH32 0x656E20696E697469616C697A6564000000000000000000000000000000000000 PUSH1 0x20 DUP4 ADD MSTORE PUSH1 0x40 DUP3 ADD SWAP1 POP SWAP2 SWAP1 POP JUMP JUMPDEST PUSH1 0x0 PUSH2 0x2504 PUSH1 0x1D DUP4 PUSH2 0x2C20 JUMP JUMPDEST SWAP2 POP PUSH32 0x5265776172647320617265206E6F742079657420636C61696D61626C65000000 PUSH1 0x0 DUP4 ADD MSTORE PUSH1 0x20 DUP3 ADD SWAP1 POP SWAP2 SWAP1 POP JUMP JUMPDEST PUSH1 0x0 PUSH2 0x2544 PUSH1 0x13 DUP4 PUSH2 0x2C20 JUMP JUMPDEST SWAP2 POP PUSH32 0x416C72656164792077686974656C697374656400000000000000000000000000 PUSH1 0x0 DUP4 ADD MSTORE PUSH1 0x20 DUP3 ADD SWAP1 POP SWAP2 SWAP1 POP JUMP JUMPDEST PUSH1 0x0 PUSH2 0x2584 PUSH1 0x3D DUP4 PUSH2 0x2C20 JUMP JUMPDEST SWAP2 POP PUSH32 0x4E6F2062616C616E636520776F756C64206265207472616E7366657272656420 PUSH1 0x0 DUP4 ADD MSTORE PUSH32 0x2D206E6F7420676F696E6720746F20776173746520796F757220676173000000 PUSH1 0x20 DUP4 ADD MSTORE PUSH1 0x40 DUP3 ADD SWAP1 POP SWAP2 SWAP1 POP JUMP JUMPDEST PUSH1 0x0 PUSH2 0x25EA PUSH1 0x16 DUP4 PUSH2 0x2C20 JUMP JUMPDEST SWAP2 POP PUSH32 0x4C502068617320616C726561647920636C61696D656400000000000000000000 PUSH1 0x0 DUP4 ADD MSTORE PUSH1 0x20 DUP3 ADD SWAP1 POP SWAP2 SWAP1 POP JUMP JUMPDEST PUSH1 0x0 PUSH2 0x262A PUSH1 0xF DUP4 PUSH2 0x2C20 JUMP JUMPDEST SWAP2 POP PUSH32 0x41646472657373206973207A65726F0000000000000000000000000000000000 PUSH1 0x0 DUP4 ADD MSTORE PUSH1 0x20 DUP3 ADD SWAP1 POP SWAP2 SWAP1 POP JUMP JUMPDEST PUSH1 0x0 PUSH2 0x266A PUSH1 0x2A DUP4 PUSH2 0x2C20 JUMP JUMPDEST SWAP2 POP PUSH32 0x5361666545524332303A204552433230206F7065726174696F6E20646964206E PUSH1 0x0 DUP4 ADD MSTORE PUSH32 0x6F74207375636365656400000000000000000000000000000000000000000000 PUSH1 0x20 DUP4 ADD MSTORE PUSH1 0x40 DUP3 ADD SWAP1 POP SWAP2 SWAP1 POP JUMP JUMPDEST PUSH1 0x0 PUSH2 0x26D0 PUSH1 0x9 DUP4 PUSH2 0x2C31 JUMP JUMPDEST SWAP2 POP PUSH32 0x4D657461546F6B656E0000000000000000000000000000000000000000000000 PUSH1 0x0 DUP4 ADD MSTORE PUSH1 0x9 DUP3 ADD SWAP1 POP SWAP2 SWAP1 POP JUMP JUMPDEST PUSH1 0x0 PUSH2 0x2710 PUSH1 0x1F DUP4 PUSH2 0x2C20 JUMP JUMPDEST SWAP2 POP PUSH32 0x5361666545524332303A2063616C6C20746F206E6F6E2D636F6E747261637400 PUSH1 0x0 DUP4 ADD MSTORE PUSH1 0x20 DUP3 ADD SWAP1 POP SWAP2 SWAP1 POP JUMP JUMPDEST PUSH2 0x274C DUP2 PUSH2 0x2C96 JUMP JUMPDEST DUP3 MSTORE POP POP JUMP JUMPDEST PUSH2 0x2763 PUSH2 0x275E DUP3 PUSH2 0x2C96 JUMP JUMPDEST PUSH2 0x2D7F JUMP JUMPDEST DUP3 MSTORE POP POP JUMP JUMPDEST PUSH1 0x0 PUSH2 0x2775 DUP3 DUP6 PUSH2 0x2076 JUMP JUMPDEST PUSH1 0x14 DUP3 ADD SWAP2 POP PUSH2 0x2785 DUP3 DUP5 PUSH2 0x2752 JUMP JUMPDEST PUSH1 0x20 DUP3 ADD SWAP2 POP DUP2 SWAP1 POP SWAP4 SWAP3 POP POP POP JUMP JUMPDEST PUSH1 0x0 PUSH2 0x27A1 DUP3 DUP6 PUSH2 0x20AB JUMP JUMPDEST PUSH1 0x20 DUP3 ADD SWAP2 POP PUSH2 0x27B1 DUP3 DUP5 PUSH2 0x20AB JUMP JUMPDEST PUSH1 0x20 DUP3 ADD SWAP2 POP DUP2 SWAP1 POP SWAP4 SWAP3 POP POP POP JUMP JUMPDEST PUSH1 0x0 PUSH2 0x27CD DUP3 DUP5 PUSH2 0x20C2 JUMP JUMPDEST SWAP2 POP DUP2 SWAP1 POP SWAP3 SWAP2 POP POP JUMP JUMPDEST PUSH1 0x0 PUSH2 0x27E3 DUP3 PUSH2 0x2151 JUMP JUMPDEST SWAP2 POP DUP2 SWAP1 POP SWAP2 SWAP1 POP JUMP JUMPDEST PUSH1 0x0 PUSH2 0x27F8 DUP3 PUSH2 0x21D1 JUMP JUMPDEST SWAP2 POP DUP2 SWAP1 POP SWAP2 SWAP1 POP JUMP JUMPDEST PUSH1 0x0 PUSH2 0x280D DUP3 PUSH2 0x2291 JUMP JUMPDEST SWAP2 POP DUP2 SWAP1 POP SWAP2 SWAP1 POP JUMP JUMPDEST PUSH1 0x0 PUSH2 0x2822 DUP3 PUSH2 0x2311 JUMP JUMPDEST SWAP2 POP DUP2 SWAP1 POP SWAP2 SWAP1 POP JUMP JUMPDEST PUSH1 0x0 PUSH2 0x2837 DUP3 PUSH2 0x23D1 JUMP JUMPDEST SWAP2 POP DUP2 SWAP1 POP SWAP2 SWAP1 POP JUMP JUMPDEST PUSH1 0x0 PUSH2 0x284C DUP3 PUSH2 0x2411 JUMP JUMPDEST SWAP2 POP DUP2 SWAP1 POP SWAP2 SWAP1 POP JUMP JUMPDEST PUSH1 0x0 PUSH2 0x2861 DUP3 PUSH2 0x2451 JUMP JUMPDEST SWAP2 POP DUP2 SWAP1 POP SWAP2 SWAP1 POP JUMP JUMPDEST PUSH1 0x0 PUSH2 0x2876 DUP3 PUSH2 0x26C3 JUMP JUMPDEST SWAP2 POP DUP2 SWAP1 POP SWAP2 SWAP1 POP JUMP JUMPDEST PUSH1 0x0 PUSH1 0x60 DUP3 ADD SWAP1 POP PUSH2 0x2895 PUSH1 0x0 DUP4 ADD DUP7 PUSH2 0x2058 JUMP JUMPDEST PUSH2 0x28A2 PUSH1 0x20 DUP4 ADD DUP6 PUSH2 0x2067 JUMP JUMPDEST PUSH2 0x28AF PUSH1 0x40 DUP4 ADD DUP5 PUSH2 0x2743 JUMP JUMPDEST SWAP5 SWAP4 POP POP POP POP JUMP JUMPDEST PUSH1 0x0 PUSH1 0x40 DUP3 ADD SWAP1 POP PUSH2 0x28CC PUSH1 0x0 DUP4 ADD DUP6 PUSH2 0x2067 JUMP JUMPDEST PUSH2 0x28D9 PUSH1 0x20 DUP4 ADD DUP5 PUSH2 0x2743 JUMP JUMPDEST SWAP4 SWAP3 POP POP POP JUMP JUMPDEST PUSH1 0x0 PUSH1 0x60 DUP3 ADD SWAP1 POP PUSH2 0x28F5 PUSH1 0x0 DUP4 ADD DUP7 PUSH2 0x2067 JUMP JUMPDEST PUSH2 0x2902 PUSH1 0x20 DUP4 ADD DUP6 PUSH2 0x2743 JUMP JUMPDEST PUSH2 0x290F PUSH1 0x40 DUP4 ADD DUP5 PUSH2 0x2743 JUMP JUMPDEST SWAP5 SWAP4 POP POP POP POP JUMP JUMPDEST PUSH1 0x0 PUSH1 0x20 DUP3 ADD SWAP1 POP PUSH2 0x292C PUSH1 0x0 DUP4 ADD DUP5 PUSH2 0x208D JUMP JUMPDEST SWAP3 SWAP2 POP POP JUMP JUMPDEST PUSH1 0x0 PUSH1 0x20 DUP3 ADD SWAP1 POP PUSH2 0x2947 PUSH1 0x0 DUP4 ADD DUP5 PUSH2 0x209C JUMP JUMPDEST SWAP3 SWAP2 POP POP JUMP JUMPDEST PUSH1 0x0 PUSH1 0x20 DUP3 ADD SWAP1 POP PUSH2 0x2962 PUSH1 0x0 DUP4 ADD DUP5 PUSH2 0x20F3 JUMP JUMPDEST SWAP3 SWAP2 POP POP JUMP JUMPDEST PUSH1 0x0 PUSH1 0x20 DUP3 ADD SWAP1 POP PUSH2 0x297D PUSH1 0x0 DUP4 ADD DUP5 PUSH2 0x2102 JUMP JUMPDEST SWAP3 SWAP2 POP POP JUMP JUMPDEST PUSH1 0x0 PUSH1 0x20 DUP3 ADD SWAP1 POP DUP2 DUP2 SUB PUSH1 0x0 DUP4 ADD MSTORE PUSH2 0x299C DUP2 PUSH2 0x2111 JUMP JUMPDEST SWAP1 POP SWAP2 SWAP1 POP JUMP JUMPDEST PUSH1 0x0 PUSH1 0x20 DUP3 ADD SWAP1 POP DUP2 DUP2 SUB PUSH1 0x0 DUP4 ADD MSTORE PUSH2 0x29BC DUP2 PUSH2 0x2191 JUMP JUMPDEST SWAP1 POP SWAP2 SWAP1 POP JUMP JUMPDEST PUSH1 0x0 PUSH1 0x20 DUP3 ADD SWAP1 POP DUP2 DUP2 SUB PUSH1 0x0 DUP4 ADD MSTORE PUSH2 0x29DC DUP2 PUSH2 0x2211 JUMP JUMPDEST SWAP1 POP SWAP2 SWAP1 POP JUMP JUMPDEST PUSH1 0x0 PUSH1 0x20 DUP3 ADD SWAP1 POP DUP2 DUP2 SUB PUSH1 0x0 DUP4 ADD MSTORE PUSH2 0x29FC DUP2 PUSH2 0x2251 JUMP JUMPDEST SWAP1 POP SWAP2 SWAP1 POP JUMP JUMPDEST PUSH1 0x0 PUSH1 0x20 DUP3 ADD SWAP1 POP DUP2 DUP2 SUB PUSH1 0x0 DUP4 ADD MSTORE PUSH2 0x2A1C DUP2 PUSH2 0x22D1 JUMP JUMPDEST SWAP1 POP SWAP2 SWAP1 POP JUMP JUMPDEST PUSH1 0x0 PUSH1 0x20 DUP3 ADD SWAP1 POP DUP2 DUP2 SUB PUSH1 0x0 DUP4 ADD MSTORE PUSH2 0x2A3C DUP2 PUSH2 0x2351 JUMP JUMPDEST SWAP1 POP SWAP2 SWAP1 POP JUMP JUMPDEST PUSH1 0x0 PUSH1 0x20 DUP3 ADD SWAP1 POP DUP2 DUP2 SUB PUSH1 0x0 DUP4 ADD MSTORE PUSH2 0x2A5C DUP2 PUSH2 0x2391 JUMP JUMPDEST SWAP1 POP SWAP2 SWAP1 POP JUMP JUMPDEST PUSH1 0x0 PUSH1 0x20 DUP3 ADD SWAP1 POP DUP2 DUP2 SUB PUSH1 0x0 DUP4 ADD MSTORE PUSH2 0x2A7C DUP2 PUSH2 0x2491 JUMP JUMPDEST SWAP1 POP SWAP2 SWAP1 POP JUMP JUMPDEST PUSH1 0x0 PUSH1 0x20 DUP3 ADD SWAP1 POP DUP2 DUP2 SUB PUSH1 0x0 DUP4 ADD MSTORE PUSH2 0x2A9C DUP2 PUSH2 0x24F7 JUMP JUMPDEST SWAP1 POP SWAP2 SWAP1 POP JUMP JUMPDEST PUSH1 0x0 PUSH1 0x20 DUP3 ADD SWAP1 POP DUP2 DUP2 SUB PUSH1 0x0 DUP4 ADD MSTORE PUSH2 0x2ABC DUP2 PUSH2 0x2537 JUMP JUMPDEST SWAP1 POP SWAP2 SWAP1 POP JUMP JUMPDEST PUSH1 0x0 PUSH1 0x20 DUP3 ADD SWAP1 POP DUP2 DUP2 SUB PUSH1 0x0 DUP4 ADD MSTORE PUSH2 0x2ADC DUP2 PUSH2 0x2577 JUMP JUMPDEST SWAP1 POP SWAP2 SWAP1 POP JUMP JUMPDEST PUSH1 0x0 PUSH1 0x20 DUP3 ADD SWAP1 POP DUP2 DUP2 SUB PUSH1 0x0 DUP4 ADD MSTORE PUSH2 0x2AFC DUP2 PUSH2 0x25DD JUMP JUMPDEST SWAP1 POP SWAP2 SWAP1 POP JUMP JUMPDEST PUSH1 0x0 PUSH1 0x20 DUP3 ADD SWAP1 POP DUP2 DUP2 SUB PUSH1 0x0 DUP4 ADD MSTORE PUSH2 0x2B1C DUP2 PUSH2 0x261D JUMP JUMPDEST SWAP1 POP SWAP2 SWAP1 POP JUMP JUMPDEST PUSH1 0x0 PUSH1 0x20 DUP3 ADD SWAP1 POP DUP2 DUP2 SUB PUSH1 0x0 DUP4 ADD MSTORE PUSH2 0x2B3C DUP2 PUSH2 0x265D JUMP JUMPDEST SWAP1 POP SWAP2 SWAP1 POP JUMP JUMPDEST PUSH1 0x0 PUSH1 0x20 DUP3 ADD SWAP1 POP DUP2 DUP2 SUB PUSH1 0x0 DUP4 ADD MSTORE PUSH2 0x2B5C DUP2 PUSH2 0x2703 JUMP JUMPDEST SWAP1 POP SWAP2 SWAP1 POP JUMP JUMPDEST PUSH1 0x0 PUSH1 0x20 DUP3 ADD SWAP1 POP PUSH2 0x2B78 PUSH1 0x0 DUP4 ADD DUP5 PUSH2 0x2743 JUMP JUMPDEST SWAP3 SWAP2 POP POP JUMP JUMPDEST PUSH1 0x0 PUSH1 0x60 DUP3 ADD SWAP1 POP PUSH2 0x2B93 PUSH1 0x0 DUP4 ADD DUP7 PUSH2 0x2743 JUMP JUMPDEST PUSH2 0x2BA0 PUSH1 0x20 DUP4 ADD DUP6 PUSH2 0x209C JUMP JUMPDEST PUSH2 0x2BAD PUSH1 0x40 DUP4 ADD DUP5 PUSH2 0x2743 JUMP JUMPDEST SWAP5 SWAP4 POP POP POP POP JUMP JUMPDEST PUSH1 0x0 PUSH1 0x40 MLOAD SWAP1 POP DUP2 DUP2 ADD DUP2 DUP2 LT PUSH8 0xFFFFFFFFFFFFFFFF DUP3 GT OR ISZERO PUSH2 0x2BD8 JUMPI PUSH1 0x0 DUP1 REVERT JUMPDEST DUP1 PUSH1 0x40 MSTORE POP SWAP2 SWAP1 POP JUMP JUMPDEST PUSH1 0x0 PUSH8 0xFFFFFFFFFFFFFFFF DUP3 GT ISZERO PUSH2 0x2BF9 JUMPI PUSH1 0x0 DUP1 REVERT JUMPDEST PUSH1 0x20 DUP3 MUL SWAP1 POP PUSH1 0x20 DUP2 ADD SWAP1 POP SWAP2 SWAP1 POP JUMP JUMPDEST PUSH1 0x0 DUP2 MLOAD SWAP1 POP SWAP2 SWAP1 POP JUMP JUMPDEST PUSH1 0x0 DUP2 SWAP1 POP SWAP3 SWAP2 POP POP JUMP JUMPDEST PUSH1 0x0 DUP3 DUP3 MSTORE PUSH1 0x20 DUP3 ADD SWAP1 POP SWAP3 SWAP2 POP POP JUMP JUMPDEST PUSH1 0x0 DUP2 SWAP1 POP SWAP3 SWAP2 POP POP JUMP JUMPDEST PUSH1 0x0 PUSH2 0x2C47 DUP3 PUSH2 0x2C76 JUMP JUMPDEST SWAP1 POP SWAP2 SWAP1 POP JUMP JUMPDEST PUSH1 0x0 DUP2 ISZERO ISZERO SWAP1 POP SWAP2 SWAP1 POP JUMP JUMPDEST PUSH1 0x0 DUP2 SWAP1 POP SWAP2 SWAP1 POP JUMP JUMPDEST PUSH1 0x0 PUSH2 0x2C6F DUP3 PUSH2 0x2C3C JUMP JUMPDEST SWAP1 POP SWAP2 SWAP1 POP JUMP JUMPDEST PUSH1 0x0 PUSH20 0xFFFFFFFFFFFFFFFFFFFFFFFFFFFFFFFFFFFFFFFF DUP3 AND SWAP1 POP SWAP2 SWAP1 POP JUMP JUMPDEST PUSH1 0x0 DUP2 SWAP1 POP SWAP2 SWAP1 POP JUMP JUMPDEST PUSH1 0x0 PUSH2 0x2CAB DUP3 PUSH2 0x2CFA JUMP JUMPDEST SWAP1 POP SWAP2 SWAP1 POP JUMP JUMPDEST PUSH1 0x0 PUSH2 0x2CBD DUP3 PUSH2 0x2CC4 JUMP JUMPDEST SWAP1 POP SWAP2 SWAP1 POP JUMP JUMPDEST PUSH1 0x0 PUSH2 0x2CCF DUP3 PUSH2 0x2C76 JUMP JUMPDEST SWAP1 POP SWAP2 SWAP1 POP JUMP JUMPDEST PUSH1 0x0 PUSH2 0x2CE1 DUP3 PUSH2 0x2CE8 JUMP JUMPDEST SWAP1 POP SWAP2 SWAP1 POP JUMP JUMPDEST PUSH1 0x0 PUSH2 0x2CF3 DUP3 PUSH2 0x2C76 JUMP JUMPDEST SWAP1 POP SWAP2 SWAP1 POP JUMP JUMPDEST PUSH1 0x0 PUSH2 0x2D05 DUP3 PUSH2 0x2D0C JUMP JUMPDEST SWAP1 POP SWAP2 SWAP1 POP JUMP JUMPDEST PUSH1 0x0 PUSH2 0x2D17 DUP3 PUSH2 0x2C76 JUMP JUMPDEST SWAP1 POP SWAP2 SWAP1 POP JUMP JUMPDEST PUSH1 0x0 JUMPDEST DUP4 DUP2 LT ISZERO PUSH2 0x2D3C JUMPI DUP1 DUP3 ADD MLOAD DUP2 DUP5 ADD MSTORE PUSH1 0x20 DUP2 ADD SWAP1 POP PUSH2 0x2D21 JUMP JUMPDEST DUP4 DUP2 GT ISZERO PUSH2 0x2D4B JUMPI PUSH1 0x0 DUP5 DUP5 ADD MSTORE JUMPDEST POP POP POP POP JUMP JUMPDEST PUSH1 0x0 PUSH2 0x2D5C DUP3 PUSH2 0x2D6D JUMP JUMPDEST SWAP1 POP SWAP2 SWAP1 POP JUMP JUMPDEST PUSH1 0x0 DUP2 SWAP1 POP SWAP2 SWAP1 POP JUMP JUMPDEST PUSH1 0x0 PUSH2 0x2D78 DUP3 PUSH2 0x2D89 JUMP JUMPDEST SWAP1 POP SWAP2 SWAP1 POP JUMP JUMPDEST PUSH1 0x0 DUP2 SWAP1 POP SWAP2 SWAP1 POP JUMP JUMPDEST PUSH1 0x0 DUP2 PUSH1 0x60 SHL SWAP1 POP SWAP2 SWAP1 POP JUMP JUMPDEST PUSH2 0x2D9F DUP2 PUSH2 0x2C3C JUMP JUMPDEST DUP2 EQ PUSH2 0x2DAA JUMPI PUSH1 0x0 DUP1 REVERT JUMPDEST POP JUMP JUMPDEST PUSH2 0x2DB6 DUP2 PUSH2 0x2C4E JUMP JUMPDEST DUP2 EQ PUSH2 0x2DC1 JUMPI PUSH1 0x0 DUP1 REVERT JUMPDEST POP JUMP JUMPDEST PUSH2 0x2DCD DUP2 PUSH2 0x2C5A JUMP JUMPDEST DUP2 EQ PUSH2 0x2DD8 JUMPI PUSH1 0x0 DUP1 REVERT JUMPDEST POP JUMP JUMPDEST PUSH2 0x2DE4 DUP2 PUSH2 0x2C64 JUMP JUMPDEST DUP2 EQ PUSH2 0x2DEF JUMPI PUSH1 0x0 DUP1 REVERT JUMPDEST POP JUMP JUMPDEST PUSH2 0x2DFB DUP2 PUSH2 0x2C96 JUMP JUMPDEST DUP2 EQ PUSH2 0x2E06 JUMPI PUSH1 0x0 DUP1 REVERT JUMPDEST POP JUMP INVALID LOG3 PUSH6 0x627A7A723158 KECCAK256 PUSH18 0xC3B6891B4F7225A43DF3CB39F3F023E5CAA4 SLT 0xC4 PUSH25 0x804066B7E6CDCD86E5856C6578706572696D656E74616CF564 PUSH20 0x6F6C634300051000400000000000000000000000 "
        },
        "gasEstimates": {
          "creation": {
            "codeDepositCost": "2370400",
            "executionCost": "2545",
            "totalCost": "2372945"
          },
          "external": {
            "c_0x89b12937(bytes32)": "473",
            "claimTranche(address,uint256,uint256,bytes32[])": "infinite",
            "claimed(uint256,address)": "1810",
            "expireTranche(uint256)": "infinite",
            "initialize(address,address[],address,uint256)": "infinite",
            "merkleRoots(uint256)": "1576",
            "nexus()": "1279",
            "seedNewAllocations(bytes32,uint256)": "infinite",
            "thresholdBlock()": "1174",
            "token()": "1367",
            "verifyClaim(address,uint256,uint256,bytes32[])": "infinite",
            "whitelist(address)": "1545"
          },
          "internal": {
            "_claimTranche(address,uint256,uint256,bytes32[] memory)": "infinite",
            "_disburse(address,uint256)": "infinite",
            "_verifyClaim(address,uint256,uint256,bytes32[] memory)": "infinite"
          }
        },
        "methodIdentifiers": {
          "c_0x89b12937(bytes32)": "4ab54113",
          "claimTranche(address,uint256,uint256,bytes32[])": "cd54e72c",
          "claimed(uint256,address)": "120aa877",
          "expireTranche(uint256)": "d5efd20a",
          "initialize(address,address[],address,uint256)": "0af49690",
          "merkleRoots(uint256)": "71c5ecb1",
          "nexus()": "a3f5c1d2",
          "seedNewAllocations(bytes32,uint256)": "65ef53b1",
          "thresholdBlock()": "29eb15bd",
          "token()": "fc0c546a",
          "verifyClaim(address,uint256,uint256,bytes32[])": "eb0d07f5",
          "whitelist(address)": "9b19251a"
        }
      },
      "storageLayout": {
        "storage": [
          {
            "astId": 422,
            "contract": "contracts/migration/MerkleDrop.sol:MerkleDrop",
            "label": "initialized",
            "offset": 0,
            "slot": "0",
            "type": "t_bool"
          },
          {
            "astId": 424,
            "contract": "contracts/migration/MerkleDrop.sol:MerkleDrop",
            "label": "initializing",
            "offset": 1,
            "slot": "0",
            "type": "t_bool"
          },
          {
            "astId": 486,
            "contract": "contracts/migration/MerkleDrop.sol:MerkleDrop",
            "label": "______gap",
            "offset": 0,
            "slot": "1",
            "type": "t_array(t_uint256)50_storage"
          },
          {
            "astId": 351,
            "contract": "contracts/migration/MerkleDrop.sol:MerkleDrop",
            "label": "KEY_GOVERNANCE",
            "offset": 0,
            "slot": "51",
            "type": "t_bytes32"
          },
          {
            "astId": 353,
            "contract": "contracts/migration/MerkleDrop.sol:MerkleDrop",
            "label": "KEY_STAKING",
            "offset": 0,
            "slot": "52",
            "type": "t_bytes32"
          },
          {
            "astId": 355,
            "contract": "contracts/migration/MerkleDrop.sol:MerkleDrop",
            "label": "KEY_PROXY_ADMIN",
            "offset": 0,
            "slot": "53",
            "type": "t_bytes32"
          },
          {
            "astId": 357,
            "contract": "contracts/migration/MerkleDrop.sol:MerkleDrop",
            "label": "KEY_ORACLE_HUB",
            "offset": 0,
            "slot": "54",
            "type": "t_bytes32"
          },
          {
            "astId": 359,
            "contract": "contracts/migration/MerkleDrop.sol:MerkleDrop",
            "label": "KEY_MANAGER",
            "offset": 0,
            "slot": "55",
            "type": "t_bytes32"
          },
          {
            "astId": 361,
            "contract": "contracts/migration/MerkleDrop.sol:MerkleDrop",
            "label": "KEY_RECOLLATERALISER",
            "offset": 0,
            "slot": "56",
            "type": "t_bytes32"
          },
          {
            "astId": 363,
            "contract": "contracts/migration/MerkleDrop.sol:MerkleDrop",
            "label": "KEY_META_TOKEN",
            "offset": 0,
            "slot": "57",
            "type": "t_bytes32"
          },
          {
            "astId": 365,
            "contract": "contracts/migration/MerkleDrop.sol:MerkleDrop",
            "label": "KEY_SAVINGS_MANAGER",
            "offset": 0,
            "slot": "58",
            "type": "t_bytes32"
          },
          {
            "astId": 164,
            "contract": "contracts/migration/MerkleDrop.sol:MerkleDrop",
            "label": "nexus",
            "offset": 0,
            "slot": "59",
            "type": "t_contract(INexus)154"
          },
          {
            "astId": 13,
            "contract": "contracts/migration/MerkleDrop.sol:MerkleDrop",
            "label": "whitelist",
            "offset": 0,
            "slot": "60",
            "type": "t_mapping(t_address,t_bool)"
          },
          {
            "astId": 544,
            "contract": "contracts/migration/MerkleDrop.sol:MerkleDrop",
            "label": "token",
            "offset": 0,
            "slot": "61",
            "type": "t_contract(IERC20)1412"
          },
          {
            "astId": 548,
            "contract": "contracts/migration/MerkleDrop.sol:MerkleDrop",
            "label": "merkleRoots",
            "offset": 0,
            "slot": "62",
            "type": "t_mapping(t_uint256,t_bytes32)"
          },
          {
            "astId": 554,
            "contract": "contracts/migration/MerkleDrop.sol:MerkleDrop",
            "label": "claimed",
            "offset": 0,
            "slot": "63",
            "type": "t_mapping(t_uint256,t_mapping(t_address,t_bool))"
          },
          {
            "astId": 556,
            "contract": "contracts/migration/MerkleDrop.sol:MerkleDrop",
            "label": "tranches",
            "offset": 0,
            "slot": "64",
            "type": "t_uint256"
          },
          {
            "astId": 558,
            "contract": "contracts/migration/MerkleDrop.sol:MerkleDrop",
            "label": "thresholdBlock",
            "offset": 0,
            "slot": "65",
            "type": "t_uint256"
          }
        ],
        "types": {
          "t_address": {
            "encoding": "inplace",
            "label": "address",
            "numberOfBytes": "20"
          },
          "t_array(t_uint256)50_storage": {
            "base": "t_uint256",
            "encoding": "inplace",
            "label": "uint256[50]",
            "numberOfBytes": "1600"
          },
          "t_bool": {
            "encoding": "inplace",
            "label": "bool",
            "numberOfBytes": "1"
          },
          "t_bytes32": {
            "encoding": "inplace",
            "label": "bytes32",
            "numberOfBytes": "32"
          },
          "t_contract(IERC20)1412": {
            "encoding": "inplace",
            "label": "contract IERC20",
            "numberOfBytes": "20"
          },
          "t_contract(INexus)154": {
            "encoding": "inplace",
            "label": "contract INexus",
            "numberOfBytes": "20"
          },
          "t_mapping(t_address,t_bool)": {
            "encoding": "mapping",
            "key": "t_address",
            "label": "mapping(address => bool)",
            "numberOfBytes": "32",
            "value": "t_bool"
          },
          "t_mapping(t_uint256,t_bytes32)": {
            "encoding": "mapping",
            "key": "t_uint256",
            "label": "mapping(uint256 => bytes32)",
            "numberOfBytes": "32",
            "value": "t_bytes32"
          },
          "t_mapping(t_uint256,t_mapping(t_address,t_bool))": {
            "encoding": "mapping",
            "key": "t_uint256",
            "label": "mapping(uint256 => mapping(address => bool))",
            "numberOfBytes": "32",
            "value": "t_mapping(t_address,t_bool)"
          },
          "t_uint256": {
            "encoding": "inplace",
            "label": "uint256",
            "numberOfBytes": "32"
          }
        }
      },
      "userdoc": {
        "methods": {
          "claimTranche(address,uint256,uint256,bytes32[])": {
            "notice": "************************************* CLAIMING***************************************"
          },
          "seedNewAllocations(bytes32,uint256)": {
            "notice": "************************************* ADMIN***************************************"
          }
        }
      }
    }
  }
}