{
  "_format": "hh-sol-artifact-1",
  "contractName": "SignMessageLib",
  "sourceName": "contracts/gnosis/examples/libraries/SignMessage.sol",
  "abi": [
    {
      "anonymous": false,
      "inputs": [
        {
          "indexed": true,
          "internalType": "bytes32",
          "name": "msgHash",
          "type": "bytes32"
        }
      ],
      "name": "SignMsg",
      "type": "event"
    },
    {
      "inputs": [
        {
          "internalType": "bytes",
          "name": "message",
          "type": "bytes"
        }
      ],
      "name": "getMessageHash",
      "outputs": [
        {
          "internalType": "bytes32",
          "name": "",
          "type": "bytes32"
        }
      ],
      "stateMutability": "view",
      "type": "function"
    },
    {
      "inputs": [
        {
          "internalType": "bytes",
          "name": "_data",
          "type": "bytes"
        }
      ],
      "name": "signMessage",
      "outputs": [],
      "stateMutability": "nonpayable",
      "type": "function"
    }
  ],
  "bytecode": "0x608060405234801561001057600080fd5b506105e7806100206000396000f3fe608060405234801561001057600080fd5b50600436106100365760003560e01c80630a1028c41461003b57806385a5affe1461006b575b600080fd5b6100556004803603810190610050919061036a565b610087565b6040516100629190610436565b60405180910390f35b61008560048036038101906100809190610325565b610199565b005b6000807f60b3cbf8b4a223d68d641b3b6ddf9a298e7f33710cf3d3a9d1146b5a6150fbca60001b83805190602001206040516020016100c7929190610451565b604051602081830303815290604052805190602001209050601960f81b600160f81b3073ffffffffffffffffffffffffffffffffffffffff1663f698da256040518163ffffffff1660e01b815260040160206040518083038186803b15801561012f57600080fd5b505afa158015610143573d6000803e3d6000fd5b505050506040513d601f19601f8201168201806040525081019061016791906102fc565b8360405160200161017b94939291906103e8565b60405160208183030381529060405280519060200120915050919050565b60006101e883838080601f016020809104026020016040519081016040528093929190818152602001838380828437600081840152601f19601f82011690508083019250505050505050610087565b905060016007600083815260200190815260200160002081905550807fe7f4675038f4f6034dfcbbb24c4dc08e4ebf10eb9d257d3d02c0f38d122ac6e460405160405180910390a2505050565b60006102486102438461049f565b61047a565b90508281526020810184848401111561026057600080fd5b61026b848285610506565b509392505050565b6000815190506102828161059a565b92915050565b60008083601f84011261029a57600080fd5b8235905067ffffffffffffffff8111156102b357600080fd5b6020830191508360018202830111156102cb57600080fd5b9250929050565b600082601f8301126102e357600080fd5b81356102f3848260208601610235565b91505092915050565b60006020828403121561030e57600080fd5b600061031c84828501610273565b91505092915050565b6000806020838503121561033857600080fd5b600083013567ffffffffffffffff81111561035257600080fd5b61035e85828601610288565b92509250509250929050565b60006020828403121561037c57600080fd5b600082013567ffffffffffffffff81111561039657600080fd5b6103a2848285016102d2565b91505092915050565b6103bc6103b7826104d0565b610546565b82525050565b6103cb816104fc565b82525050565b6103e26103dd826104fc565b610550565b82525050565b60006103f482876103ab565b60018201915061040482866103ab565b60018201915061041482856103d1565b60208201915061042482846103d1565b60208201915081905095945050505050565b600060208201905061044b60008301846103c2565b92915050565b600060408201905061046660008301856103c2565b61047360208301846103c2565b9392505050565b6000610484610495565b90506104908282610515565b919050565b6000604051905090565b600067ffffffffffffffff8211156104ba576104b961055a565b5b6104c382610589565b9050602081019050919050565b60007fff0000000000000000000000000000000000000000000000000000000000000082169050919050565b6000819050919050565b82818337600083830152505050565b61051e82610589565b810181811067ffffffffffffffff8211171561053d5761053c61055a565b5b80604052505050565b6000819050919050565b6000819050919050565b7f4e487b7100000000000000000000000000000000000000000000000000000000600052604160045260246000fd5b6000601f19601f8301169050919050565b6105a3816104fc565b81146105ae57600080fd5b5056fea2646970667358221220d7442cd17dbc1f69ebfb5499c26dab78f99a2ec7c28d3b771fb0e1ffdade990064736f6c63430008040033",
  "linkReferences": {},
  "deployedLinkReferences": {}
}