{
  "_format": "hh-sol-artifact-1",
  "contractName": "SeedFactory",
  "sourceName": "contracts/seed/SeedFactory.sol",
  "abi": [
    {
      "anonymous": false,
      "inputs": [
        {
          "indexed": true,
          "internalType": "address",
          "name": "previousOwner",
          "type": "address"
        },
        {
          "indexed": true,
          "internalType": "address",
          "name": "newOwner",
          "type": "address"
        }
      ],
      "name": "OwnershipTransferred",
      "type": "event"
    },
    {
      "anonymous": false,
      "inputs": [
        {
          "indexed": true,
          "internalType": "address",
          "name": "newSeed",
          "type": "address"
        },
        {
          "indexed": true,
          "internalType": "address",
          "name": "beneficiary",
          "type": "address"
        }
      ],
      "name": "SeedCreated",
      "type": "event"
    },
    {
      "inputs": [
        {
          "internalType": "address",
          "name": "_beneficiary",
          "type": "address"
        },
        {
          "internalType": "address",
          "name": "_admin",
          "type": "address"
        },
        {
          "internalType": "address[]",
          "name": "_tokens",
          "type": "address[]"
        },
        {
          "internalType": "uint256[]",
          "name": "_softHardThresholds",
          "type": "uint256[]"
        },
        {
          "internalType": "uint256",
          "name": "_price",
          "type": "uint256"
        },
        {
          "internalType": "uint256",
          "name": "_startTime",
          "type": "uint256"
        },
        {
          "internalType": "uint256",
          "name": "_endTime",
          "type": "uint256"
        },
        {
          "internalType": "uint32[]",
          "name": "_vestingDurationAndCliff",
          "type": "uint32[]"
        },
        {
          "internalType": "bool",
          "name": "_permissionedSeed",
          "type": "bool"
        },
        {
          "internalType": "uint8",
          "name": "_fee",
          "type": "uint8"
        },
        {
          "internalType": "bytes",
          "name": "_metadata",
          "type": "bytes"
        }
      ],
      "name": "deploySeed",
      "outputs": [
        {
          "internalType": "address",
          "name": "",
          "type": "address"
        }
      ],
      "stateMutability": "nonpayable",
      "type": "function"
    },
    {
      "inputs": [],
      "name": "masterCopy",
      "outputs": [
        {
          "internalType": "contract Seed",
          "name": "",
          "type": "address"
        }
      ],
      "stateMutability": "view",
      "type": "function"
    },
    {
      "inputs": [],
      "name": "owner",
      "outputs": [
        {
          "internalType": "address",
          "name": "",
          "type": "address"
        }
      ],
      "stateMutability": "view",
      "type": "function"
    },
    {
      "inputs": [],
      "name": "renounceOwnership",
      "outputs": [],
      "stateMutability": "nonpayable",
      "type": "function"
    },
    {
      "inputs": [
        {
          "internalType": "contract Seed",
          "name": "_masterCopy",
          "type": "address"
        }
      ],
      "name": "setMasterCopy",
      "outputs": [],
      "stateMutability": "nonpayable",
      "type": "function"
    },
    {
      "inputs": [
        {
          "internalType": "address",
          "name": "newOwner",
          "type": "address"
        }
      ],
      "name": "transferOwnership",
      "outputs": [],
      "stateMutability": "nonpayable",
      "type": "function"
    }
  ],
  "bytecode": "0x608060405234801561001057600080fd5b5061001a3361001f565b61006f565b600080546001600160a01b038381166001600160a01b0319831681178455604051919092169283917f8be0079c531659141344cd1fd0a4f28419497f9722a3daafe3b4186f6b6457e09190a35050565b610b038061007e6000396000f3fe608060405234801561001057600080fd5b50600436106100625760003560e01c80634a7eb3c214610067578063715018a6146100965780638da5cb5b146100a0578063a619486e146100b1578063cf497e6c146100c4578063f2fde38b146100d7575b600080fd5b61007a6100753660046107b7565b6100ea565b6040516001600160a01b03909116815260200160405180910390f35b61009e610385565b005b6000546001600160a01b031661007a565b60015461007a906001600160a01b031681565b61009e6100d2366004610794565b6103bb565b61009e6100e5366004610794565b610478565b600080546001600160a01b0316331461011e5760405162461bcd60e51b815260040161011590610a18565b60405180910390fd5b6001546001600160a01b031661018d5760405162461bcd60e51b815260206004820152602e60248201527f53656564466163746f72793a206d6173746572636f70792063616e6e6f74206260448201526d65207a65726f206164647265737360901b6064820152608401610115565b84516002146102045760405162461bcd60e51b815260206004820152603c60248201527f53656564466163746f72793a204861736e27742070726f766964656420626f7460448201527f682076657374696e67206475726174696f6e20616e6420636c696666000000006064820152608401610115565b60015460009061021c906001600160a01b0316610513565b60405163fc582d4160e01b81529091506001600160a01b0382169063fc582d419061024b9086906004016109c5565b600060405180830381600087803b15801561026557600080fd5b505af1158015610279573d6000803e3d6000fd5b50505050806001600160a01b031663d80393648e8e8e8e8e8e8e8e6000815181106102b457634e487b7160e01b600052603260045260246000fd5b60200260200101518f6001815181106102dd57634e487b7160e01b600052603260045260246000fd5b60200260200101518f8f6040518c63ffffffff1660e01b815260040161030d9b9a99989796959493929190610902565b600060405180830381600087803b15801561032757600080fd5b505af115801561033b573d6000803e3d6000fd5b50506040513392506001600160a01b03841691507f23fea745ec0ebbc17cc138cc8d1baca7bde3ce83b1fd6d5e1de583961586363990600090a39c9b505050505050505050505050565b6000546001600160a01b031633146103af5760405162461bcd60e51b815260040161011590610a18565b6103b96000610565565b565b6000546001600160a01b031633146103e55760405162461bcd60e51b815260040161011590610a18565b6001600160a01b0381166104565760405162461bcd60e51b815260206004820152603260248201527f53656564466163746f72793a206e6577206d6173746572636f70792063616e6e6044820152716f74206265207a65726f206164647265737360701b6064820152608401610115565b600180546001600160a01b0319166001600160a01b0392909216919091179055565b6000546001600160a01b031633146104a25760405162461bcd60e51b815260040161011590610a18565b6001600160a01b0381166105075760405162461bcd60e51b815260206004820152602660248201527f4f776e61626c653a206e6577206f776e657220697320746865207a65726f206160448201526564647265737360d01b6064820152608401610115565b61051081610565565b50565b6000808260601b9050604051733d602d80600a3d3981f3363d3d373d3d3d363d7360601b81528160148201526e5af43d82803e903d91602b57fd5bf360881b60288201526037816000f0949350505050565b600080546001600160a01b038381166001600160a01b0319831681178455604051919092169283917f8be0079c531659141344cd1fd0a4f28419497f9722a3daafe3b4186f6b6457e09190a35050565b80356105c081610ab8565b919050565b600082601f8301126105d5578081fd5b813560206105ea6105e583610a7e565b610a4d565b80838252828201915082860187848660051b8901011115610609578586fd5b855b8581101561063057813561061e81610ab8565b8452928401929084019060010161060b565b5090979650505050505050565b600082601f83011261064d578081fd5b8135602061065d6105e583610a7e565b80838252828201915082860187848660051b890101111561067c578586fd5b855b858110156106305781358452928401929084019060010161067e565b600082601f8301126106aa578081fd5b813560206106ba6105e583610a7e565b80838252828201915082860187848660051b89010111156106d9578586fd5b855b8581101561063057813563ffffffff811681146106f6578788fd5b845292840192908401906001016106db565b803580151581146105c057600080fd5b600082601f830112610728578081fd5b813567ffffffffffffffff81111561074257610742610aa2565b610755601f8201601f1916602001610a4d565b818152846020838601011115610769578283fd5b816020850160208301379081016020019190915292915050565b803560ff811681146105c057600080fd5b6000602082840312156107a5578081fd5b81356107b081610ab8565b9392505050565b60008060008060008060008060008060006101608c8e0312156107d8578687fd5b6107e18c6105b5565b9a506107ef60208d016105b5565b995067ffffffffffffffff8060408e0135111561080a578788fd5b61081a8e60408f01358f016105c5565b99508060608e0135111561082c578788fd5b61083c8e60608f01358f0161063d565b985060808d0135975060a08d0135965060c08d013595508060e08e01351115610863578485fd5b6108738e60e08f01358f0161069a565b94506108826101008e01610708565b93506108916101208e01610783565b9250806101408e013511156108a4578182fd5b506108b68d6101408e01358e01610718565b90509295989b509295989b9093969950565b6000815180845260208085019450808401835b838110156108f7578151875295820195908201906001016108db565b509495945050505050565b6000610160820160018060a01b03808f168452808e1660208501526101606040850152818d518084526101808601915060208f019350845b8181101561095a578451841683526020948501949092019160010161093a565b5050848103606086015261096e818e6108c8565b93505050508860808301528760a08301528660c083015261099760e083018763ffffffff169052565b63ffffffff9490941661010082015291151561012083015260ff166101409091015298975050505050505050565b6000602080835283518082850152825b818110156109f1578581018301518582016040015282016109d5565b81811115610a025783604083870101525b50601f01601f1916929092016040019392505050565b6020808252818101527f4f776e61626c653a2063616c6c6572206973206e6f7420746865206f776e6572604082015260600190565b604051601f8201601f1916810167ffffffffffffffff81118282101715610a7657610a76610aa2565b604052919050565b600067ffffffffffffffff821115610a9857610a98610aa2565b5060051b60200190565b634e487b7160e01b600052604160045260246000fd5b6001600160a01b038116811461051057600080fdfea2646970667358221220236b5c573d2c955d24dd24c39d76c9bcdc7f69d75f371e9798f33cc57eef106564736f6c63430008040033",
  "linkReferences": {},
  "deployedLinkReferences": {}
}