{
  "_format": "hh-sol-artifact-1",
  "contractName": "SeedFactory",
  "sourceName": "contracts/seed/SeedFactory.sol",
  "abi": [
    {
      "anonymous": false,
      "inputs": [
        {
          "indexed": true,
          "internalType": "address",
          "name": "previousOwner",
          "type": "address"
        },
        {
          "indexed": true,
          "internalType": "address",
          "name": "newOwner",
          "type": "address"
        }
      ],
      "name": "OwnershipTransferred",
      "type": "event"
    },
    {
      "anonymous": false,
      "inputs": [
        {
          "indexed": true,
          "internalType": "address",
          "name": "newSeed",
          "type": "address"
        },
        {
          "indexed": true,
          "internalType": "address",
          "name": "beneficiary",
          "type": "address"
        }
      ],
      "name": "SeedCreated",
      "type": "event"
    },
    {
      "inputs": [
        {
          "internalType": "contract Seed",
          "name": "_masterCopy",
          "type": "address"
        }
      ],
      "name": "changeMasterCopy",
      "outputs": [],
      "stateMutability": "nonpayable",
      "type": "function"
    },
    {
      "inputs": [
        {
          "internalType": "address",
          "name": "_beneficiary",
          "type": "address"
        },
        {
          "internalType": "address",
          "name": "_admin",
          "type": "address"
        },
        {
          "internalType": "address[]",
          "name": "_tokens",
          "type": "address[]"
        },
        {
          "internalType": "uint256[]",
          "name": "_softHardThresholds",
          "type": "uint256[]"
        },
        {
          "internalType": "uint256[]",
          "name": "_endStartTime",
          "type": "uint256[]"
        },
        {
          "internalType": "uint256",
          "name": "_price",
          "type": "uint256"
        },
        {
          "internalType": "uint32",
          "name": "_vestingDuration",
          "type": "uint32"
        },
        {
          "internalType": "uint32",
          "name": "_vestingCliff",
          "type": "uint32"
        },
        {
          "internalType": "bool",
          "name": "_permissionedSeed",
          "type": "bool"
        },
        {
          "internalType": "uint8",
          "name": "_fee",
          "type": "uint8"
        },
        {
          "internalType": "bytes32",
          "name": "_metadata",
          "type": "bytes32"
        }
      ],
      "name": "deploySeed",
      "outputs": [
        {
          "internalType": "address",
          "name": "",
          "type": "address"
        }
      ],
      "stateMutability": "nonpayable",
      "type": "function"
    },
    {
      "inputs": [
        {
          "internalType": "contract Seed",
          "name": "_masterCopy",
          "type": "address"
        }
      ],
      "name": "initializeMasterCopy",
      "outputs": [],
      "stateMutability": "nonpayable",
      "type": "function"
    },
    {
      "inputs": [],
      "name": "initialized",
      "outputs": [
        {
          "internalType": "bool",
          "name": "",
          "type": "bool"
        }
      ],
      "stateMutability": "view",
      "type": "function"
    },
    {
      "inputs": [],
      "name": "masterCopy",
      "outputs": [
        {
          "internalType": "contract Seed",
          "name": "",
          "type": "address"
        }
      ],
      "stateMutability": "view",
      "type": "function"
    },
    {
      "inputs": [],
      "name": "owner",
      "outputs": [
        {
          "internalType": "address",
          "name": "",
          "type": "address"
        }
      ],
      "stateMutability": "view",
      "type": "function"
    },
    {
      "inputs": [],
      "name": "renounceOwnership",
      "outputs": [],
      "stateMutability": "nonpayable",
      "type": "function"
    },
    {
      "inputs": [],
      "name": "safe",
      "outputs": [
        {
          "internalType": "contract ISafe",
          "name": "",
          "type": "address"
        }
      ],
      "stateMutability": "view",
      "type": "function"
    },
    {
      "inputs": [
        {
          "internalType": "address",
          "name": "newOwner",
          "type": "address"
        }
      ],
      "name": "transferOwnership",
      "outputs": [],
      "stateMutability": "nonpayable",
      "type": "function"
    }
  ],
  "bytecode": "0x608060405234801561001057600080fd5b5060006100216100c460201b60201c565b9050806000806101000a81548173ffffffffffffffffffffffffffffffffffffffff021916908373ffffffffffffffffffffffffffffffffffffffff1602179055508073ffffffffffffffffffffffffffffffffffffffff16600073ffffffffffffffffffffffffffffffffffffffff167f8be0079c531659141344cd1fd0a4f28419497f9722a3daafe3b4186f6b6457e060405160405180910390a3506100cc565b600033905090565b611608806100db6000396000f3fe608060405234801561001057600080fd5b50600436106100935760003560e01c80637de7edef116100665780637de7edef146100fa578063815c5d4a146101165780638da5cb5b14610146578063a619486e14610164578063f2fde38b1461018257610093565b8063158ef93e14610098578063186f0354146100b65780633f7a7fb6146100d4578063715018a6146100f0575b600080fd5b6100a061019e565b6040516100ad9190611086565b60405180910390f35b6100be6101b1565b6040516100cb91906110bc565b60405180910390f35b6100ee60048036038101906100e99190610d60565b6101d7565b005b6100f8610371565b005b610114600480360381019061010f9190610d60565b6104ab565b005b610130600480360381019061012b9190610c28565b610585565b60405161013d9190610fba565b60405180910390f35b61014e6107d6565b60405161015b9190610fba565b60405180910390f35b61016c6107ff565b60405161017991906110d7565b60405180910390f35b61019c60048036038101906101979190610bff565b610825565b005b600160149054906101000a900460ff1681565b600260009054906101000a900473ffffffffffffffffffffffffffffffffffffffff1681565b600160149054906101000a900460ff1615610227576040517f08c379a000000000000000000000000000000000000000000000000000000000815260040161021e90611172565b60405180910390fd5b60018060146101000a81548160ff0219169083151502179055506102496109ce565b73ffffffffffffffffffffffffffffffffffffffff166102676107d6565b73ffffffffffffffffffffffffffffffffffffffff16146102bd576040517f08c379a00000000000000000000000000000000000000000000000000000000081526004016102b490611132565b60405180910390fd5b600073ffffffffffffffffffffffffffffffffffffffff168173ffffffffffffffffffffffffffffffffffffffff16141561032d576040517f08c379a000000000000000000000000000000000000000000000000000000000815260040161032490611152565b60405180910390fd5b80600160006101000a81548173ffffffffffffffffffffffffffffffffffffffff021916908373ffffffffffffffffffffffffffffffffffffffff16021790555050565b6103796109ce565b73ffffffffffffffffffffffffffffffffffffffff166103976107d6565b73ffffffffffffffffffffffffffffffffffffffff16146103ed576040517f08c379a00000000000000000000000000000000000000000000000000000000081526004016103e490611132565b60405180910390fd5b600073ffffffffffffffffffffffffffffffffffffffff1660008054906101000a900473ffffffffffffffffffffffffffffffffffffffff1673ffffffffffffffffffffffffffffffffffffffff167f8be0079c531659141344cd1fd0a4f28419497f9722a3daafe3b4186f6b6457e060405160405180910390a360008060006101000a81548173ffffffffffffffffffffffffffffffffffffffff021916908373ffffffffffffffffffffffffffffffffffffffff160217905550565b6104b36109ce565b73ffffffffffffffffffffffffffffffffffffffff166104d16107d6565b73ffffffffffffffffffffffffffffffffffffffff1614610527576040517f08c379a000000000000000000000000000000000000000000000000000000000815260040161051e90611132565b60405180910390fd5b80600160006101000a81548173ffffffffffffffffffffffffffffffffffffffff021916908373ffffffffffffffffffffffffffffffffffffffff16021790555060018060146101000a81548160ff02191690831515021790555050565b600061058f6109ce565b73ffffffffffffffffffffffffffffffffffffffff166105ad6107d6565b73ffffffffffffffffffffffffffffffffffffffff1614610603576040517f08c379a00000000000000000000000000000000000000000000000000000000081526004016105fa90611132565b60405180910390fd5b600160149054906101000a900460ff16610652576040517f08c379a0000000000000000000000000000000000000000000000000000000008152600401610649906110f2565b60405180910390fd5b600061067f600160009054906101000a900473ffffffffffffffffffffffffffffffffffffffff166109d6565b90508073ffffffffffffffffffffffffffffffffffffffff16634f2d7778846040518263ffffffff1660e01b81526004016106ba91906110a1565b600060405180830381600087803b1580156106d457600080fd5b505af11580156106e8573d6000803e3d6000fd5b505050508073ffffffffffffffffffffffffffffffffffffffff1663ed4587ce8e8e8e8e8e8e8e8e8e8e6040518b63ffffffff1660e01b81526004016107379a99989796959493929190610fd5565b600060405180830381600087803b15801561075157600080fd5b505af1158015610765573d6000803e3d6000fd5b505050503373ffffffffffffffffffffffffffffffffffffffff168173ffffffffffffffffffffffffffffffffffffffff167f23fea745ec0ebbc17cc138cc8d1baca7bde3ce83b1fd6d5e1de583961586363960405160405180910390a3809150509b9a5050505050505050505050565b60008060009054906101000a900473ffffffffffffffffffffffffffffffffffffffff16905090565b600160009054906101000a900473ffffffffffffffffffffffffffffffffffffffff1681565b61082d6109ce565b73ffffffffffffffffffffffffffffffffffffffff1661084b6107d6565b73ffffffffffffffffffffffffffffffffffffffff16146108a1576040517f08c379a000000000000000000000000000000000000000000000000000000000815260040161089890611132565b60405180910390fd5b600073ffffffffffffffffffffffffffffffffffffffff168173ffffffffffffffffffffffffffffffffffffffff161415610911576040517f08c379a000000000000000000000000000000000000000000000000000000000815260040161090890611112565b60405180910390fd5b8073ffffffffffffffffffffffffffffffffffffffff1660008054906101000a900473ffffffffffffffffffffffffffffffffffffffff1673ffffffffffffffffffffffffffffffffffffffff167f8be0079c531659141344cd1fd0a4f28419497f9722a3daafe3b4186f6b6457e060405160405180910390a3806000806101000a81548173ffffffffffffffffffffffffffffffffffffffff021916908373ffffffffffffffffffffffffffffffffffffffff16021790555050565b600033905090565b6000808260601b90506040517f3d602d80600a3d3981f3363d3d373d3d3d363d7300000000000000000000000081528160148201527f5af43d82803e903d91602b57fd5bf3000000000000000000000000000000000060288201526037816000f092505050919050565b6000610a53610a4e846111b7565b611192565b90508083825260208201905082856020860282011115610a7257600080fd5b60005b85811015610aa25781610a888882610b18565b845260208401935060208301925050600181019050610a75565b5050509392505050565b6000610abf610aba846111e3565b611192565b90508083825260208201905082856020860282011115610ade57600080fd5b60005b85811015610b0e5781610af48882610bc0565b845260208401935060208301925050600181019050610ae1565b5050509392505050565b600081359050610b2781611531565b92915050565b600082601f830112610b3e57600080fd5b8135610b4e848260208601610a40565b91505092915050565b600082601f830112610b6857600080fd5b8135610b78848260208601610aac565b91505092915050565b600081359050610b9081611548565b92915050565b600081359050610ba58161155f565b92915050565b600081359050610bba81611576565b92915050565b600081359050610bcf8161158d565b92915050565b600081359050610be4816115a4565b92915050565b600081359050610bf9816115bb565b92915050565b600060208284031215610c1157600080fd5b6000610c1f84828501610b18565b91505092915050565b60008060008060008060008060008060006101608c8e031215610c4a57600080fd5b6000610c588e828f01610b18565b9b50506020610c698e828f01610b18565b9a505060408c013567ffffffffffffffff811115610c8657600080fd5b610c928e828f01610b2d565b99505060608c013567ffffffffffffffff811115610caf57600080fd5b610cbb8e828f01610b57565b98505060808c013567ffffffffffffffff811115610cd857600080fd5b610ce48e828f01610b57565b97505060a0610cf58e828f01610bc0565b96505060c0610d068e828f01610bd5565b95505060e0610d178e828f01610bd5565b945050610100610d298e828f01610b81565b935050610120610d3b8e828f01610bea565b925050610140610d4d8e828f01610b96565b9150509295989b509295989b9093969950565b600060208284031215610d7257600080fd5b6000610d8084828501610bab565b91505092915050565b6000610d958383610db9565b60208301905092915050565b6000610dad8383610f7e565b60208301905092915050565b610dc281611292565b82525050565b610dd181611292565b82525050565b6000610de28261122f565b610dec818561125f565b9350610df78361120f565b8060005b83811015610e28578151610e0f8882610d89565b9750610e1a83611245565b925050600181019050610dfb565b5085935050505092915050565b6000610e408261123a565b610e4a8185611270565b9350610e558361121f565b8060005b83811015610e86578151610e6d8882610da1565b9750610e7883611252565b925050600181019050610e59565b5085935050505092915050565b610e9c816112a4565b82525050565b610eab816112b0565b82525050565b610eba81611313565b82525050565b610ec981611337565b82525050565b6000610edc602583611281565b9150610ee7826113cc565b604082019050919050565b6000610eff602683611281565b9150610f0a8261141b565b604082019050919050565b6000610f22602083611281565b9150610f2d8261146a565b602082019050919050565b6000610f45602683611281565b9150610f5082611493565b604082019050919050565b6000610f68602983611281565b9150610f73826114e2565b604082019050919050565b610f87816112ec565b82525050565b610f96816112ec565b82525050565b610fa5816112f6565b82525050565b610fb481611306565b82525050565b6000602082019050610fcf6000830184610dc8565b92915050565b600061014082019050610feb600083018d610dc8565b610ff8602083018c610dc8565b818103604083015261100a818b610dd7565b9050818103606083015261101e818a610e35565b905081810360808301526110328189610e35565b905061104160a0830188610f8d565b61104e60c0830187610f9c565b61105b60e0830186610f9c565b611069610100830185610e93565b611077610120830184610fab565b9b9a5050505050505050505050565b600060208201905061109b6000830184610e93565b92915050565b60006020820190506110b66000830184610ea2565b92915050565b60006020820190506110d16000830184610eb1565b92915050565b60006020820190506110ec6000830184610ec0565b92915050565b6000602082019050818103600083015261110b81610ecf565b9050919050565b6000602082019050818103600083015261112b81610ef2565b9050919050565b6000602082019050818103600083015261114b81610f15565b9050919050565b6000602082019050818103600083015261116b81610f38565b9050919050565b6000602082019050818103600083015261118b81610f5b565b9050919050565b600061119c6111ad565b90506111a8828261135b565b919050565b6000604051905090565b600067ffffffffffffffff8211156111d2576111d161138c565b5b602082029050602081019050919050565b600067ffffffffffffffff8211156111fe576111fd61138c565b5b602082029050602081019050919050565b6000819050602082019050919050565b6000819050602082019050919050565b600081519050919050565b600081519050919050565b6000602082019050919050565b6000602082019050919050565b600082825260208201905092915050565b600082825260208201905092915050565b600082825260208201905092915050565b600061129d826112cc565b9050919050565b60008115159050919050565b6000819050919050565b60006112c582611292565b9050919050565b600073ffffffffffffffffffffffffffffffffffffffff82169050919050565b6000819050919050565b600063ffffffff82169050919050565b600060ff82169050919050565b600061131e82611325565b9050919050565b6000611330826112cc565b9050919050565b600061134282611349565b9050919050565b6000611354826112cc565b9050919050565b611364826113bb565b810181811067ffffffffffffffff821117156113835761138261138c565b5b80604052505050565b7f4e487b7100000000000000000000000000000000000000000000000000000000600052604160045260246000fd5b6000601f19601f8301169050919050565b7f53656564466163746f72793a20636f6e7472616374206e6f7420696e6974696160008201527f6c697a6564000000000000000000000000000000000000000000000000000000602082015250565b7f4f776e61626c653a206e6577206f776e657220697320746865207a65726f206160008201527f6464726573730000000000000000000000000000000000000000000000000000602082015250565b7f4f776e61626c653a2063616c6c6572206973206e6f7420746865206f776e6572600082015250565b7f53656564466163746f72793a206d6173746572436f70792063616e6e6f74206260008201527f65206e756c6c0000000000000000000000000000000000000000000000000000602082015250565b7f53656564466163746f72793a20636f6e747261637420616c726561647920696e60008201527f697469616c697a65640000000000000000000000000000000000000000000000602082015250565b61153a81611292565b811461154557600080fd5b50565b611551816112a4565b811461155c57600080fd5b50565b611568816112b0565b811461157357600080fd5b50565b61157f816112ba565b811461158a57600080fd5b50565b611596816112ec565b81146115a157600080fd5b50565b6115ad816112f6565b81146115b857600080fd5b50565b6115c481611306565b81146115cf57600080fd5b5056fea2646970667358221220923773b658a38b9c6175b2fefd24400d2b775bb1ad3aa58f43b35ab19cd77ea464736f6c63430008040033",
  "linkReferences": {},
  "deployedLinkReferences": {}
}