{
  "_format": "hh-sol-artifact-1",
  "contractName": "SeedFactory",
  "sourceName": "contracts/seed/SeedFactory.sol",
  "abi": [
    {
      "anonymous": false,
      "inputs": [
        {
          "indexed": true,
          "internalType": "address",
          "name": "previousOwner",
          "type": "address"
        },
        {
          "indexed": true,
          "internalType": "address",
          "name": "newOwner",
          "type": "address"
        }
      ],
      "name": "OwnershipTransferred",
      "type": "event"
    },
    {
      "anonymous": false,
      "inputs": [
        {
          "indexed": true,
          "internalType": "address",
          "name": "newSeed",
          "type": "address"
        },
        {
          "indexed": true,
          "internalType": "address",
          "name": "beneficiary",
          "type": "address"
        }
      ],
      "name": "SeedCreated",
      "type": "event"
    },
    {
      "inputs": [
        {
          "internalType": "bytes32",
          "name": "c__0xc9f04f20",
          "type": "bytes32"
        }
      ],
      "name": "c_0xc9f04f20",
      "outputs": [],
      "stateMutability": "pure",
      "type": "function"
    },
    {
      "inputs": [
        {
          "internalType": "bytes32",
          "name": "c__0xfa613eb8",
          "type": "bytes32"
        }
      ],
      "name": "c_0xfa613eb8",
      "outputs": [],
      "stateMutability": "pure",
      "type": "function"
    },
    {
      "inputs": [
        {
          "internalType": "address",
          "name": "_beneficiary",
          "type": "address"
        },
        {
          "internalType": "address",
          "name": "_admin",
          "type": "address"
        },
        {
          "internalType": "address[]",
          "name": "_tokens",
          "type": "address[]"
        },
        {
          "internalType": "uint256[]",
          "name": "_softHardThresholds",
          "type": "uint256[]"
        },
        {
          "internalType": "uint256",
          "name": "_price",
          "type": "uint256"
        },
        {
          "internalType": "uint256",
          "name": "_startTime",
          "type": "uint256"
        },
        {
          "internalType": "uint256",
          "name": "_endTime",
          "type": "uint256"
        },
        {
          "internalType": "uint32[]",
          "name": "_vestingDurationAndCliff",
          "type": "uint32[]"
        },
        {
          "internalType": "bool",
          "name": "_permissionedSeed",
          "type": "bool"
        },
        {
          "internalType": "uint8",
          "name": "_fee",
          "type": "uint8"
        },
        {
          "internalType": "bytes",
          "name": "_metadata",
          "type": "bytes"
        }
      ],
      "name": "deploySeed",
      "outputs": [
        {
          "internalType": "address",
          "name": "",
          "type": "address"
        }
      ],
      "stateMutability": "nonpayable",
      "type": "function"
    },
    {
      "inputs": [],
      "name": "masterCopy",
      "outputs": [
        {
          "internalType": "contract Seed",
          "name": "",
          "type": "address"
        }
      ],
      "stateMutability": "view",
      "type": "function"
    },
    {
      "inputs": [],
      "name": "owner",
      "outputs": [
        {
          "internalType": "address",
          "name": "",
          "type": "address"
        }
      ],
      "stateMutability": "view",
      "type": "function"
    },
    {
      "inputs": [],
      "name": "renounceOwnership",
      "outputs": [],
      "stateMutability": "nonpayable",
      "type": "function"
    },
    {
      "inputs": [
        {
          "internalType": "contract Seed",
          "name": "_masterCopy",
          "type": "address"
        }
      ],
      "name": "setMasterCopy",
      "outputs": [],
      "stateMutability": "nonpayable",
      "type": "function"
    },
    {
      "inputs": [
        {
          "internalType": "address",
          "name": "newOwner",
          "type": "address"
        }
      ],
      "name": "transferOwnership",
      "outputs": [],
      "stateMutability": "nonpayable",
      "type": "function"
    }
  ],
  "bytecode": "0x608060405234801561001057600080fd5b5060006100216100c460201b60201c565b9050806000806101000a81548173ffffffffffffffffffffffffffffffffffffffff021916908373ffffffffffffffffffffffffffffffffffffffff1602179055508073ffffffffffffffffffffffffffffffffffffffff16600073ffffffffffffffffffffffffffffffffffffffff167f8be0079c531659141344cd1fd0a4f28419497f9722a3daafe3b4186f6b6457e060405160405180910390a3506100cc565b600033905090565b611c90806100db6000396000f3fe608060405234801561001057600080fd5b50600436106100885760003560e01c80638da5cb5b1161005b5780638da5cb5b146100ff578063a619486e1461011d578063cf497e6c1461013b578063f2fde38b1461015757610088565b8063342cb01a1461008d5780634a7eb3c2146100a95780635740ec0e146100d9578063715018a6146100f5575b600080fd5b6100a760048036038101906100a29190611334565b610173565b005b6100c360048036038101906100be91906111e4565b610176565b6040516100d091906115d2565b60405180910390f35b6100f360048036038101906100ee9190611334565b610842565b005b6100fd610845565b005b61010761097f565b60405161011491906115d2565b60405180910390f35b6101256109a8565b60405161013291906116c8565b60405180910390f35b6101556004803603810190610150919061135d565b6109ce565b005b610171600480360381019061016c91906111bb565b610c32565b005b50565b6000610180610ddb565b73ffffffffffffffffffffffffffffffffffffffff1661019e61097f565b73ffffffffffffffffffffffffffffffffffffffff16146101f4576040517f08c379a00000000000000000000000000000000000000000000000000000000081526004016101eb90611723565b60405180910390fd5b6102207f2170c8321d077b06a022648a36b130640223e4a83bfd254045c3179b78ac529d60001b610842565b61024c7f5d1ed496cce0d6b799f7de6f35a891803bcc52f5a21dbfda8fc5f5b5e822ff1660001b610842565b6102787f62a56974b31a99838e3190cbd9b287e84a22f52d060aef99030756160fd42fcb60001b610842565b6102a47f1b59029f822ae5c7c90e76c96a1b2e012ffb208e85e1d3745f282fb6aa5db28160001b610842565b6102d07f419868784f7393a238df6b7eea9ea42d01598ceb7d4ff23964bf11fadadfe91b60001b610842565b600073ffffffffffffffffffffffffffffffffffffffff16600160009054906101000a900473ffffffffffffffffffffffffffffffffffffffff1673ffffffffffffffffffffffffffffffffffffffff161415610362576040517f08c379a0000000000000000000000000000000000000000000000000000000008152600401610359906116e3565b60405180910390fd5b61038e7f37144fffc5c38e3caa750112e6f998b1cf8f9da7a81e038aa0ea988d239443ca60001b610842565b6103ba7f20b3f9e95187a6fa106fa192d0d9d8e080ce87639a4286c1430e2448ba1913f460001b610842565b6103e67f6fb62ef265e55af024b5b26a6bbe11d869481281bbc4ed0e7b3a076b4326a4a960001b610842565b6104127f3c8b123e0a872c88a18100c53720d11821686505d9883abab463e52657e2930f60001b610842565b6002855114610456576040517f08c379a000000000000000000000000000000000000000000000000000000000815260040161044d90611763565b60405180910390fd5b6104827f75f5ff84884c497d1018745f1a405c46d09b3fb5c4efbca7aa073a3f8061911b60001b610842565b6104ae7f184e2f11f1748d1c80dfd71c4a73721886a0acff1e93e7efdb6292a955a0e03360001b610842565b6104da7f285ebe5c7347b2229a95bd3fb166b6789c674c81b714705cac434620f285cdbe60001b610842565b6000610507600160009054906101000a900473ffffffffffffffffffffffffffffffffffffffff16610de3565b90506105357f39d8b47e74a53ae86dcb715f679f42f3b8c55a3ed1e5e4f9d0949e8820865cc760001b610842565b6105617f141cf5b80cc3fc08b3f48fc139c490056b9e39841b1149de4302f7307db6706c60001b610842565b8073ffffffffffffffffffffffffffffffffffffffff1663fc582d41846040518263ffffffff1660e01b815260040161059a91906116a6565b600060405180830381600087803b1580156105b457600080fd5b505af11580156105c8573d6000803e3d6000fd5b505050506105f87f779b2c251525a0b9eab964728fbb14d65e40ee66fbe3a585b36e52909124ec0160001b610842565b6106247f67cdd3463381b7c64a6d2ab8d2ca7a2c2e1fe2169ed14a3872cc908b1304b12b60001b610842565b8073ffffffffffffffffffffffffffffffffffffffff1663d80393648e8e8e8e8e8e8e8e600081518110610681577f4e487b7100000000000000000000000000000000000000000000000000000000600052603260045260246000fd5b60200260200101518f6001815181106106c3577f4e487b7100000000000000000000000000000000000000000000000000000000600052603260045260246000fd5b60200260200101518f8f6040518c63ffffffff1660e01b81526004016106f39b9a999897969594939291906115ed565b600060405180830381600087803b15801561070d57600080fd5b505af1158015610721573d6000803e3d6000fd5b505050506107517fb9117bedc284883c43e48fb9bd7d34c7138ee3faa763f3e9d775ae1dea34621b60001b610842565b61077d7f2003e48bd8b552a04d20cbed64c683ad4ca8e41734f690c974c2e8510324007660001b610842565b3373ffffffffffffffffffffffffffffffffffffffff168173ffffffffffffffffffffffffffffffffffffffff167f23fea745ec0ebbc17cc138cc8d1baca7bde3ce83b1fd6d5e1de583961586363960405160405180910390a36108037fe770a45bc1aadc5e2bb194c6b51a51c00f2906a85c7f8039df5113990905c3b160001b610842565b61082f7f4f75a3db1f185299da4791a7c4f4b70be95ff4a077e91529e1c8f4f65cb5ddfc60001b610842565b809150509b9a5050505050505050505050565b50565b61084d610ddb565b73ffffffffffffffffffffffffffffffffffffffff1661086b61097f565b73ffffffffffffffffffffffffffffffffffffffff16146108c1576040517f08c379a00000000000000000000000000000000000000000000000000000000081526004016108b890611723565b60405180910390fd5b600073ffffffffffffffffffffffffffffffffffffffff1660008054906101000a900473ffffffffffffffffffffffffffffffffffffffff1673ffffffffffffffffffffffffffffffffffffffff167f8be0079c531659141344cd1fd0a4f28419497f9722a3daafe3b4186f6b6457e060405160405180910390a360008060006101000a81548173ffffffffffffffffffffffffffffffffffffffff021916908373ffffffffffffffffffffffffffffffffffffffff160217905550565b60008060009054906101000a900473ffffffffffffffffffffffffffffffffffffffff16905090565b600160009054906101000a900473ffffffffffffffffffffffffffffffffffffffff1681565b6109d6610ddb565b73ffffffffffffffffffffffffffffffffffffffff166109f461097f565b73ffffffffffffffffffffffffffffffffffffffff1614610a4a576040517f08c379a0000000000000000000000000000000000000000000000000000000008152600401610a4190611723565b60405180910390fd5b610a767f662c45e0a8213bce72910693b5cce013bf0011f8576941daf16b2cbcea5b827060001b610842565b610aa27f8f71bfd5289ddc0ca086ed29cd9fa394af3ef346addfa7fb4d2cf590ca3e497560001b610842565b610ace7f84980b06679d0aa664fdac7737ed8a613aebdf470d1f2f73378d959504d183ae60001b610842565b610afa7ff541be69bcafc3dcea64b3ebd97888b28b096eb1ee8361bd621194b71e44a78260001b610842565b600073ffffffffffffffffffffffffffffffffffffffff168173ffffffffffffffffffffffffffffffffffffffff161415610b6a576040517f08c379a0000000000000000000000000000000000000000000000000000000008152600401610b6190611743565b60405180910390fd5b610b967ffb84ac7415582e650306f201d9076e19d2b79cdefeae1c25b0766cff58f4d0e760001b610842565b610bc27fc0cac2bf862176ef531af0a3cb113ea351b00e0185295f08f7b84c03ac65c87060001b610842565b610bee7f6202ebabe31ae8a1ced662da5020eb6e27edc943f33297a1da6901f1d7e1fff260001b610842565b80600160006101000a81548173ffffffffffffffffffffffffffffffffffffffff021916908373ffffffffffffffffffffffffffffffffffffffff16021790555050565b610c3a610ddb565b73ffffffffffffffffffffffffffffffffffffffff16610c5861097f565b73ffffffffffffffffffffffffffffffffffffffff1614610cae576040517f08c379a0000000000000000000000000000000000000000000000000000000008152600401610ca590611723565b60405180910390fd5b600073ffffffffffffffffffffffffffffffffffffffff168173ffffffffffffffffffffffffffffffffffffffff161415610d1e576040517f08c379a0000000000000000000000000000000000000000000000000000000008152600401610d1590611703565b60405180910390fd5b8073ffffffffffffffffffffffffffffffffffffffff1660008054906101000a900473ffffffffffffffffffffffffffffffffffffffff1673ffffffffffffffffffffffffffffffffffffffff167f8be0079c531659141344cd1fd0a4f28419497f9722a3daafe3b4186f6b6457e060405160405180910390a3806000806101000a81548173ffffffffffffffffffffffffffffffffffffffff021916908373ffffffffffffffffffffffffffffffffffffffff16021790555050565b600033905090565b6000610e117f016f562e01a93b6d4621372f3ef72bdad08b45e782a8026d2f9fb67dc75da58f60001b610173565b610e3d7facf3eccdca73abaa7469ca1772fa4360be018621fe1da75749788e08c20a5f6560001b610173565b610e697f59119a6ee6a5201bf6935edce273a35da9c13370ce2ac938b354d4242e2eb1a860001b610173565b60008260601b9050610e9d7f8ac266fecd674f620b76be2790d7c655803c17c6c77de7d770e754a29dcebb4f60001b610173565b6040517f3d602d80600a3d3981f3363d3d373d3d3d363d7300000000000000000000000081528160148201527f5af43d82803e903d91602b57fd5bf3000000000000000000000000000000000060288201526037816000f092505050919050565b6000610f11610f0c846117a8565b611783565b90508083825260208201905082856020860282011115610f3057600080fd5b60005b85811015610f605781610f468882611080565b845260208401935060208301925050600181019050610f33565b5050509392505050565b6000610f7d610f78846117d4565b611783565b90508083825260208201905082856020860282011115610f9c57600080fd5b60005b85811015610fcc5781610fb2888261117c565b845260208401935060208301925050600181019050610f9f565b5050509392505050565b6000610fe9610fe484611800565b611783565b9050808382526020820190508285602086028201111561100857600080fd5b60005b85811015611038578161101e8882611191565b84526020840193506020830192505060018101905061100b565b5050509392505050565b60006110556110508461182c565b611783565b90508281526020810184848401111561106d57600080fd5b6110788482856119a1565b509392505050565b60008135905061108f81611bb9565b92915050565b600082601f8301126110a657600080fd5b81356110b6848260208601610efe565b91505092915050565b600082601f8301126110d057600080fd5b81356110e0848260208601610f6a565b91505092915050565b600082601f8301126110fa57600080fd5b813561110a848260208601610fd6565b91505092915050565b60008135905061112281611bd0565b92915050565b60008135905061113781611be7565b92915050565b600082601f83011261114e57600080fd5b813561115e848260208601611042565b91505092915050565b60008135905061117681611bfe565b92915050565b60008135905061118b81611c15565b92915050565b6000813590506111a081611c2c565b92915050565b6000813590506111b581611c43565b92915050565b6000602082840312156111cd57600080fd5b60006111db84828501611080565b91505092915050565b60008060008060008060008060008060006101608c8e03121561120657600080fd5b60006112148e828f01611080565b9b505060206112258e828f01611080565b9a505060408c013567ffffffffffffffff81111561124257600080fd5b61124e8e828f01611095565b99505060608c013567ffffffffffffffff81111561126b57600080fd5b6112778e828f016110bf565b98505060806112888e828f0161117c565b97505060a06112998e828f0161117c565b96505060c06112aa8e828f0161117c565b95505060e08c013567ffffffffffffffff8111156112c757600080fd5b6112d38e828f016110e9565b9450506101006112e58e828f01611113565b9350506101206112f78e828f016111a6565b9250506101408c013567ffffffffffffffff81111561131557600080fd5b6113218e828f0161113d565b9150509295989b509295989b9093969950565b60006020828403121561134657600080fd5b600061135484828501611128565b91505092915050565b60006020828403121561136f57600080fd5b600061137d84828501611167565b91505092915050565b600061139283836113b6565b60208301905092915050565b60006113aa8383611596565b60208301905092915050565b6113bf816118fc565b82525050565b6113ce816118fc565b82525050565b60006113df8261187d565b6113e981856118b8565b93506113f48361185d565b8060005b8381101561142557815161140c8882611386565b97506114178361189e565b9250506001810190506113f8565b5085935050505092915050565b600061143d82611888565b61144781856118c9565b93506114528361186d565b8060005b8381101561148357815161146a888261139e565b9750611475836118ab565b925050600181019050611456565b5085935050505092915050565b6114998161190e565b82525050565b60006114aa82611893565b6114b481856118da565b93506114c48185602086016119b0565b6114cd81611a43565b840191505092915050565b6114e18161197d565b82525050565b60006114f4602e836118eb565b91506114ff82611a54565b604082019050919050565b60006115176026836118eb565b915061152282611aa3565b604082019050919050565b600061153a6020836118eb565b915061154582611af2565b602082019050919050565b600061155d6032836118eb565b915061156882611b1b565b604082019050919050565b6000611580603c836118eb565b915061158b82611b6a565b604082019050919050565b61159f81611956565b82525050565b6115ae81611956565b82525050565b6115bd81611960565b82525050565b6115cc81611970565b82525050565b60006020820190506115e760008301846113c5565b92915050565b600061016082019050611603600083018e6113c5565b611610602083018d6113c5565b8181036040830152611622818c6113d4565b90508181036060830152611636818b611432565b9050611645608083018a6115a5565b61165260a08301896115a5565b61165f60c08301886115a5565b61166c60e08301876115b4565b61167a6101008301866115b4565b611688610120830185611490565b6116966101408301846115c3565b9c9b505050505050505050505050565b600060208201905081810360008301526116c0818461149f565b905092915050565b60006020820190506116dd60008301846114d8565b92915050565b600060208201905081810360008301526116fc816114e7565b9050919050565b6000602082019050818103600083015261171c8161150a565b9050919050565b6000602082019050818103600083015261173c8161152d565b9050919050565b6000602082019050818103600083015261175c81611550565b9050919050565b6000602082019050818103600083015261177c81611573565b9050919050565b600061178d61179e565b905061179982826119e3565b919050565b6000604051905090565b600067ffffffffffffffff8211156117c3576117c2611a14565b5b602082029050602081019050919050565b600067ffffffffffffffff8211156117ef576117ee611a14565b5b602082029050602081019050919050565b600067ffffffffffffffff82111561181b5761181a611a14565b5b602082029050602081019050919050565b600067ffffffffffffffff82111561184757611846611a14565b5b61185082611a43565b9050602081019050919050565b6000819050602082019050919050565b6000819050602082019050919050565b600081519050919050565b600081519050919050565b600081519050919050565b6000602082019050919050565b6000602082019050919050565b600082825260208201905092915050565b600082825260208201905092915050565b600082825260208201905092915050565b600082825260208201905092915050565b600061190782611936565b9050919050565b60008115159050919050565b6000819050919050565b600061192f826118fc565b9050919050565b600073ffffffffffffffffffffffffffffffffffffffff82169050919050565b6000819050919050565b600063ffffffff82169050919050565b600060ff82169050919050565b60006119888261198f565b9050919050565b600061199a82611936565b9050919050565b82818337600083830152505050565b60005b838110156119ce5780820151818401526020810190506119b3565b838111156119dd576000848401525b50505050565b6119ec82611a43565b810181811067ffffffffffffffff82111715611a0b57611a0a611a14565b5b80604052505050565b7f4e487b7100000000000000000000000000000000000000000000000000000000600052604160045260246000fd5b6000601f19601f8301169050919050565b7f53656564466163746f72793a206d6173746572636f70792063616e6e6f74206260008201527f65207a65726f2061646472657373000000000000000000000000000000000000602082015250565b7f4f776e61626c653a206e6577206f776e657220697320746865207a65726f206160008201527f6464726573730000000000000000000000000000000000000000000000000000602082015250565b7f4f776e61626c653a2063616c6c6572206973206e6f7420746865206f776e6572600082015250565b7f53656564466163746f72793a206e6577206d6173746572636f70792063616e6e60008201527f6f74206265207a65726f20616464726573730000000000000000000000000000602082015250565b7f53656564466163746f72793a204861736e27742070726f766964656420626f7460008201527f682076657374696e67206475726174696f6e20616e6420636c69666600000000602082015250565b611bc2816118fc565b8114611bcd57600080fd5b50565b611bd98161190e565b8114611be457600080fd5b50565b611bf08161191a565b8114611bfb57600080fd5b50565b611c0781611924565b8114611c1257600080fd5b50565b611c1e81611956565b8114611c2957600080fd5b50565b611c3581611960565b8114611c4057600080fd5b50565b611c4c81611970565b8114611c5757600080fd5b5056fea264697066735822122065feadcec4805fec8a00518898824837ec4d2f35296db78f8060ef51230c7ad664736f6c63430008040033",
  "linkReferences": {},
  "deployedLinkReferences": {}
}