{
  "_format": "hh-sol-artifact-1",
  "contractName": "CompatibilityFallbackHandler",
  "sourceName": "contracts/gnosis/handler/CompatibilityFallbackHandler.sol",
  "abi": [
    {
      "inputs": [],
      "name": "NAME",
      "outputs": [
        {
          "internalType": "string",
          "name": "",
          "type": "string"
        }
      ],
      "stateMutability": "view",
      "type": "function"
    },
    {
      "inputs": [],
      "name": "VERSION",
      "outputs": [
        {
          "internalType": "string",
          "name": "",
          "type": "string"
        }
      ],
      "stateMutability": "view",
      "type": "function"
    },
    {
      "inputs": [
        {
          "internalType": "bytes",
          "name": "message",
          "type": "bytes"
        }
      ],
      "name": "getMessageHash",
      "outputs": [
        {
          "internalType": "bytes32",
          "name": "",
          "type": "bytes32"
        }
      ],
      "stateMutability": "view",
      "type": "function"
    },
    {
      "inputs": [
        {
          "internalType": "contract GnosisSafe",
          "name": "safe",
          "type": "address"
        },
        {
          "internalType": "bytes",
          "name": "message",
          "type": "bytes"
        }
      ],
      "name": "getMessageHashForSafe",
      "outputs": [
        {
          "internalType": "bytes32",
          "name": "",
          "type": "bytes32"
        }
      ],
      "stateMutability": "view",
      "type": "function"
    },
    {
      "inputs": [],
      "name": "getModules",
      "outputs": [
        {
          "internalType": "address[]",
          "name": "",
          "type": "address[]"
        }
      ],
      "stateMutability": "view",
      "type": "function"
    },
    {
      "inputs": [
        {
          "internalType": "bytes32",
          "name": "_dataHash",
          "type": "bytes32"
        },
        {
          "internalType": "bytes",
          "name": "_signature",
          "type": "bytes"
        }
      ],
      "name": "isValidSignature",
      "outputs": [
        {
          "internalType": "bytes4",
          "name": "",
          "type": "bytes4"
        }
      ],
      "stateMutability": "view",
      "type": "function"
    },
    {
      "inputs": [
        {
          "internalType": "bytes",
          "name": "_data",
          "type": "bytes"
        },
        {
          "internalType": "bytes",
          "name": "_signature",
          "type": "bytes"
        }
      ],
      "name": "isValidSignature",
      "outputs": [
        {
          "internalType": "bytes4",
          "name": "",
          "type": "bytes4"
        }
      ],
      "stateMutability": "view",
      "type": "function"
    },
    {
      "inputs": [
        {
          "internalType": "address",
          "name": "",
          "type": "address"
        },
        {
          "internalType": "address",
          "name": "",
          "type": "address"
        },
        {
          "internalType": "uint256[]",
          "name": "",
          "type": "uint256[]"
        },
        {
          "internalType": "uint256[]",
          "name": "",
          "type": "uint256[]"
        },
        {
          "internalType": "bytes",
          "name": "",
          "type": "bytes"
        }
      ],
      "name": "onERC1155BatchReceived",
      "outputs": [
        {
          "internalType": "bytes4",
          "name": "",
          "type": "bytes4"
        }
      ],
      "stateMutability": "pure",
      "type": "function"
    },
    {
      "inputs": [
        {
          "internalType": "address",
          "name": "",
          "type": "address"
        },
        {
          "internalType": "address",
          "name": "",
          "type": "address"
        },
        {
          "internalType": "uint256",
          "name": "",
          "type": "uint256"
        },
        {
          "internalType": "uint256",
          "name": "",
          "type": "uint256"
        },
        {
          "internalType": "bytes",
          "name": "",
          "type": "bytes"
        }
      ],
      "name": "onERC1155Received",
      "outputs": [
        {
          "internalType": "bytes4",
          "name": "",
          "type": "bytes4"
        }
      ],
      "stateMutability": "pure",
      "type": "function"
    },
    {
      "inputs": [
        {
          "internalType": "address",
          "name": "",
          "type": "address"
        },
        {
          "internalType": "address",
          "name": "",
          "type": "address"
        },
        {
          "internalType": "uint256",
          "name": "",
          "type": "uint256"
        },
        {
          "internalType": "bytes",
          "name": "",
          "type": "bytes"
        }
      ],
      "name": "onERC721Received",
      "outputs": [
        {
          "internalType": "bytes4",
          "name": "",
          "type": "bytes4"
        }
      ],
      "stateMutability": "pure",
      "type": "function"
    },
    {
      "inputs": [
        {
          "internalType": "address",
          "name": "targetContract",
          "type": "address"
        },
        {
          "internalType": "bytes",
          "name": "calldataPayload",
          "type": "bytes"
        }
      ],
      "name": "simulate",
      "outputs": [
        {
          "internalType": "bytes",
          "name": "response",
          "type": "bytes"
        }
      ],
      "stateMutability": "nonpayable",
      "type": "function"
    },
    {
      "inputs": [
        {
          "internalType": "bytes4",
          "name": "interfaceId",
          "type": "bytes4"
        }
      ],
      "name": "supportsInterface",
      "outputs": [
        {
          "internalType": "bool",
          "name": "",
          "type": "bool"
        }
      ],
      "stateMutability": "view",
      "type": "function"
    },
    {
      "inputs": [
        {
          "internalType": "address",
          "name": "",
          "type": "address"
        },
        {
          "internalType": "address",
          "name": "",
          "type": "address"
        },
        {
          "internalType": "address",
          "name": "",
          "type": "address"
        },
        {
          "internalType": "uint256",
          "name": "",
          "type": "uint256"
        },
        {
          "internalType": "bytes",
          "name": "",
          "type": "bytes"
        },
        {
          "internalType": "bytes",
          "name": "",
          "type": "bytes"
        }
      ],
      "name": "tokensReceived",
      "outputs": [],
      "stateMutability": "pure",
      "type": "function"
    }
  ],
  "bytecode": "0x608060405234801561001057600080fd5b506118ca806100206000396000f3fe608060405234801561001057600080fd5b50600436106100ce5760003560e01c80636ac247841161008c578063bc197c8111610066578063bc197c811461024b578063bd61951d1461027b578063f23a6e61146102ab578063ffa1ad74146102db576100ce565b80636ac24784146101df578063a3f4df7e1461020f578063b2494df31461022d576100ce565b806223de29146100d357806301ffc9a7146100ef5780630a1028c41461011f578063150b7a021461014f5780631626ba7e1461017f57806320c13b0b146101af575b600080fd5b6100ed60048036038101906100e89190610c52565b6102f9565b005b61010960048036038101906101049190611020565b610303565b60405161011691906113fe565b60405180910390f35b610139600480360381019061013491906110e7565b61043d565b6040516101469190611419565b60405180910390f35b61016960048036038101906101649190610de1565b610450565b60405161017691906114a6565b60405180910390f35b61019960048036038101906101949190610fc8565b610465565b6040516101a691906114a6565b60405180910390f35b6101c960048036038101906101c49190611072565b610585565b6040516101d691906114a6565b60405180910390f35b6101f960048036038101906101f49190611128565b610740565b6040516102069190611419565b60405180910390f35b610217610853565b604051610224919061151c565b60405180910390f35b61023561088c565b60405161024291906113dc565b60405180910390f35b61026560048036038101906102609190610d15565b610932565b60405161027291906114a6565b60405180910390f35b61029560048036038101906102909190610ef3565b61094a565b6040516102a291906114c1565b60405180910390f35b6102c560048036038101906102c09190610e61565b6109b4565b6040516102d291906114a6565b60405180910390f35b6102e36109ca565b6040516102f0919061151c565b60405180910390f35b5050505050505050565b60007f4e2312e0000000000000000000000000000000000000000000000000000000007bffffffffffffffffffffffffffffffffffffffffffffffffffffffff1916827bffffffffffffffffffffffffffffffffffffffffffffffffffffffff191614806103ce57507f150b7a02000000000000000000000000000000000000000000000000000000007bffffffffffffffffffffffffffffffffffffffffffffffffffffffff1916827bffffffffffffffffffffffffffffffffffffffffffffffffffffffff1916145b8061043657507f01ffc9a7000000000000000000000000000000000000000000000000000000007bffffffffffffffffffffffffffffffffffffffffffffffffffffffff1916827bffffffffffffffffffffffffffffffffffffffffffffffffffffffff1916145b9050919050565b60006104493383610740565b9050919050565b600063150b7a0260e01b905095945050505050565b60008033905060008173ffffffffffffffffffffffffffffffffffffffff166320c13b0b8760405160200161049a9190611419565b60405160208183030381529060405287876040518463ffffffff1660e01b81526004016104c9939291906114e3565b60206040518083038186803b1580156104e157600080fd5b505afa1580156104f5573d6000803e3d6000fd5b505050506040513d601f19601f820116820180604052508101906105199190611049565b90506320c13b0b60e01b7bffffffffffffffffffffffffffffffffffffffffffffffffffffffff1916817bffffffffffffffffffffffffffffffffffffffffffffffffffffffff19161461057157600060e01b61057a565b631626ba7e60e01b5b925050509392505050565b60008033905060006105db8288888080601f016020809104026020016040519081016040528093929190818152602001838380828437600081840152601f19601f82011690508083019250505050505050610740565b905060008585905014156106ba5760008273ffffffffffffffffffffffffffffffffffffffff16635ae6bd37836040518263ffffffff1660e01b81526004016106249190611419565b60206040518083038186803b15801561063c57600080fd5b505afa158015610650573d6000803e3d6000fd5b505050506040513d601f19601f82011682018060405250810190610674919061117c565b14156106b5576040517f08c379a00000000000000000000000000000000000000000000000000000000081526004016106ac9061153e565b60405180910390fd5b61072c565b8173ffffffffffffffffffffffffffffffffffffffff1663934f3a1182898989896040518663ffffffff1660e01b81526004016106fb95949392919061145d565b60006040518083038186803b15801561071357600080fd5b505afa158015610727573d6000803e3d6000fd5b505050505b6320c13b0b60e01b92505050949350505050565b6000807f60b3cbf8b4a223d68d641b3b6ddf9a298e7f33710cf3d3a9d1146b5a6150fbca60001b8380519060200120604051602001610780929190611434565b604051602081830303815290604052805190602001209050601960f81b600160f81b8573ffffffffffffffffffffffffffffffffffffffff1663f698da256040518163ffffffff1660e01b815260040160206040518083038186803b1580156107e857600080fd5b505afa1580156107fc573d6000803e3d6000fd5b505050506040513d601f19601f820116820180604052508101906108209190610f9f565b836040516020016108349493929190611365565b6040516020818303038152906040528051906020012091505092915050565b6040518060400160405280601881526020017f44656661756c742043616c6c6261636b2048616e646c6572000000000000000081525081565b6060600033905060008173ffffffffffffffffffffffffffffffffffffffff1663cc2f84526001600a6040518363ffffffff1660e01b81526004016108d29291906113b3565b60006040518083038186803b1580156108ea57600080fd5b505afa1580156108fe573d6000803e3d6000fd5b505050506040513d6000823e3d601f19601f820116820180604052508101906109279190610f4b565b509050809250505090565b600063bc197c8160e01b905098975050505050505050565b60606040517fb4faba09000000000000000000000000000000000000000000000000000000008152600436036004808301376020600036836000335af15060203d036040519250808301604052806020843e6000516109ab57825160208401fd5b50509392505050565b600063f23a6e6160e01b90509695505050505050565b6040518060400160405280600581526020017f312e302e3000000000000000000000000000000000000000000000000000000081525081565b6000610a16610a1184611583565b61155e565b90508083825260208201905082856020860282011115610a3557600080fd5b60005b85811015610a655781610a4b8882610ac2565b845260208401935060208301925050600181019050610a38565b5050509392505050565b6000610a82610a7d846115af565b61155e565b905082815260208101848484011115610a9a57600080fd5b610aa5848285611731565b509392505050565b600081359050610abc81611821565b92915050565b600081519050610ad181611821565b92915050565b600082601f830112610ae857600080fd5b8151610af8848260208601610a03565b91505092915050565b60008083601f840112610b1357600080fd5b8235905067ffffffffffffffff811115610b2c57600080fd5b602083019150836020820283011115610b4457600080fd5b9250929050565b600081359050610b5a81611838565b92915050565b600081519050610b6f81611838565b92915050565b600081359050610b848161184f565b92915050565b600081519050610b998161184f565b92915050565b60008083601f840112610bb157600080fd5b8235905067ffffffffffffffff811115610bca57600080fd5b602083019150836001820283011115610be257600080fd5b9250929050565b600082601f830112610bfa57600080fd5b8135610c0a848260208601610a6f565b91505092915050565b600081359050610c2281611866565b92915050565b600081359050610c378161187d565b92915050565b600081519050610c4c8161187d565b92915050565b60008060008060008060008060c0898b031215610c6e57600080fd5b6000610c7c8b828c01610aad565b9850506020610c8d8b828c01610aad565b9750506040610c9e8b828c01610aad565b9650506060610caf8b828c01610c28565b955050608089013567ffffffffffffffff811115610ccc57600080fd5b610cd88b828c01610b9f565b945094505060a089013567ffffffffffffffff811115610cf757600080fd5b610d038b828c01610b9f565b92509250509295985092959890939650565b60008060008060008060008060a0898b031215610d3157600080fd5b6000610d3f8b828c01610aad565b9850506020610d508b828c01610aad565b975050604089013567ffffffffffffffff811115610d6d57600080fd5b610d798b828c01610b01565b9650965050606089013567ffffffffffffffff811115610d9857600080fd5b610da48b828c01610b01565b9450945050608089013567ffffffffffffffff811115610dc357600080fd5b610dcf8b828c01610b9f565b92509250509295985092959890939650565b600080600080600060808688031215610df957600080fd5b6000610e0788828901610aad565b9550506020610e1888828901610aad565b9450506040610e2988828901610c28565b935050606086013567ffffffffffffffff811115610e4657600080fd5b610e5288828901610b9f565b92509250509295509295909350565b60008060008060008060a08789031215610e7a57600080fd5b6000610e8889828a01610aad565b9650506020610e9989828a01610aad565b9550506040610eaa89828a01610c28565b9450506060610ebb89828a01610c28565b935050608087013567ffffffffffffffff811115610ed857600080fd5b610ee489828a01610b9f565b92509250509295509295509295565b600080600060408486031215610f0857600080fd5b6000610f1686828701610aad565b935050602084013567ffffffffffffffff811115610f3357600080fd5b610f3f86828701610b9f565b92509250509250925092565b60008060408385031215610f5e57600080fd5b600083015167ffffffffffffffff811115610f7857600080fd5b610f8485828601610ad7565b9250506020610f9585828601610ac2565b9150509250929050565b600060208284031215610fb157600080fd5b6000610fbf84828501610b60565b91505092915050565b600080600060408486031215610fdd57600080fd5b6000610feb86828701610b4b565b935050602084013567ffffffffffffffff81111561100857600080fd5b61101486828701610b9f565b92509250509250925092565b60006020828403121561103257600080fd5b600061104084828501610b75565b91505092915050565b60006020828403121561105b57600080fd5b600061106984828501610b8a565b91505092915050565b6000806000806040858703121561108857600080fd5b600085013567ffffffffffffffff8111156110a257600080fd5b6110ae87828801610b9f565b9450945050602085013567ffffffffffffffff8111156110cd57600080fd5b6110d987828801610b9f565b925092505092959194509250565b6000602082840312156110f957600080fd5b600082013567ffffffffffffffff81111561111357600080fd5b61111f84828501610be9565b91505092915050565b6000806040838503121561113b57600080fd5b600061114985828601610c13565b925050602083013567ffffffffffffffff81111561116657600080fd5b61117285828601610be9565b9150509250929050565b60006020828403121561118e57600080fd5b600061119c84828501610c3d565b91505092915050565b60006111b183836111bd565b60208301905092915050565b6111c681611651565b82525050565b6111d581611651565b82525050565b60006111e6826115f0565b6111f0818561161e565b93506111fb836115e0565b8060005b8381101561122c57815161121388826111a5565b975061121e83611611565b9250506001810190506111ff565b5085935050505092915050565b61124281611675565b82525050565b61125961125482611681565b6117a4565b82525050565b611268816116ad565b82525050565b61127f61127a826116ad565b6117ae565b82525050565b61128e816116b7565b82525050565b60006112a0838561162f565b93506112ad838584611731565b6112b6836117e7565b840190509392505050565b60006112cc826115fb565b6112d6818561162f565b93506112e6818560208601611740565b6112ef816117e7565b840191505092915050565b6113038161171f565b82525050565b600061131482611606565b61131e8185611640565b935061132e818560208601611740565b611337816117e7565b840191505092915050565b600061134f601183611640565b915061135a826117f8565b602082019050919050565b60006113718287611248565b6001820191506113818286611248565b600182019150611391828561126e565b6020820191506113a1828461126e565b60208201915081905095945050505050565b60006040820190506113c860008301856111cc565b6113d560208301846112fa565b9392505050565b600060208201905081810360008301526113f681846111db565b905092915050565b60006020820190506114136000830184611239565b92915050565b600060208201905061142e600083018461125f565b92915050565b6000604082019050611449600083018561125f565b611456602083018461125f565b9392505050565b6000606082019050611472600083018861125f565b8181036020830152611485818688611294565b9050818103604083015261149a818486611294565b90509695505050505050565b60006020820190506114bb6000830184611285565b92915050565b600060208201905081810360008301526114db81846112c1565b905092915050565b600060408201905081810360008301526114fd81866112c1565b90508181036020830152611512818486611294565b9050949350505050565b600060208201905081810360008301526115368184611309565b905092915050565b6000602082019050818103600083015261155781611342565b9050919050565b6000611568611579565b90506115748282611773565b919050565b6000604051905090565b600067ffffffffffffffff82111561159e5761159d6117b8565b5b602082029050602081019050919050565b600067ffffffffffffffff8211156115ca576115c96117b8565b5b6115d3826117e7565b9050602081019050919050565b6000819050602082019050919050565b600081519050919050565b600081519050919050565b600081519050919050565b6000602082019050919050565b600082825260208201905092915050565b600082825260208201905092915050565b600082825260208201905092915050565b600061165c826116f5565b9050919050565b600061166e826116f5565b9050919050565b60008115159050919050565b60007fff0000000000000000000000000000000000000000000000000000000000000082169050919050565b6000819050919050565b60007fffffffff0000000000000000000000000000000000000000000000000000000082169050919050565b60006116ee82611663565b9050919050565b600073ffffffffffffffffffffffffffffffffffffffff82169050919050565b6000819050919050565b600061172a82611715565b9050919050565b82818337600083830152505050565b60005b8381101561175e578082015181840152602081019050611743565b8381111561176d576000848401525b50505050565b61177c826117e7565b810181811067ffffffffffffffff8211171561179b5761179a6117b8565b5b80604052505050565b6000819050919050565b6000819050919050565b7f4e487b7100000000000000000000000000000000000000000000000000000000600052604160045260246000fd5b6000601f19601f8301169050919050565b7f48617368206e6f7420617070726f766564000000000000000000000000000000600082015250565b61182a81611651565b811461183557600080fd5b50565b611841816116ad565b811461184c57600080fd5b50565b611858816116b7565b811461186357600080fd5b50565b61186f816116e3565b811461187a57600080fd5b50565b61188681611715565b811461189157600080fd5b5056fea26469706673582212201ee6957b48bdc821eafee9414b6a73af1331ebf1eabb1c9e40b831a749752cc564736f6c63430008040033",
  "linkReferences": {},
  "deployedLinkReferences": {}
}