{
  "_format": "hh-sol-artifact-1",
  "contractName": "Signature",
  "sourceName": "contracts/utils/Signature.sol",
  "abi": [
    {
      "anonymous": false,
      "inputs": [
        {
          "indexed": false,
          "internalType": "bytes",
          "name": "signature",
          "type": "bytes"
        },
        {
          "indexed": false,
          "internalType": "bytes",
          "name": "message",
          "type": "bytes"
        }
      ],
      "name": "SignatureCreated",
      "type": "event"
    },
    {
      "inputs": [
        {
          "internalType": "bytes",
          "name": "",
          "type": "bytes"
        }
      ],
      "name": "approvedSignatures",
      "outputs": [
        {
          "internalType": "uint8",
          "name": "",
          "type": "uint8"
        }
      ],
      "stateMutability": "view",
      "type": "function"
    },
    {
      "inputs": [
        {
          "internalType": "bytes",
          "name": "_message",
          "type": "bytes"
        }
      ],
      "name": "generateSignature",
      "outputs": [
        {
          "internalType": "bytes",
          "name": "signature",
          "type": "bytes"
        }
      ],
      "stateMutability": "nonpayable",
      "type": "function"
    },
    {
      "inputs": [
        {
          "internalType": "bytes",
          "name": "_hash",
          "type": "bytes"
        },
        {
          "internalType": "bytes",
          "name": "_signature",
          "type": "bytes"
        }
      ],
      "name": "isValidSignature",
      "outputs": [
        {
          "internalType": "bytes4",
          "name": "",
          "type": "bytes4"
        }
      ],
      "stateMutability": "view",
      "type": "function"
    }
  ],
  "bytecode": "0x608060405234801561001057600080fd5b5061090e806100206000396000f3fe608060405234801561001057600080fd5b50600436106100415760003560e01c806320c13b0b14610046578063b438fbde14610076578063b8a2262e146100a6575b600080fd5b610060600480360381019061005b91906103ba565b6100d6565b60405161006d919061062a565b60405180910390f35b610090600480360381019061008b9190610379565b610148565b60405161009d919061069e565b60405180910390f35b6100c060048036038101906100bb9190610379565b61017e565b6040516100cd9190610645565b60405180910390f35b600060016000836040516100ea9190610593565b908152602001604051809103902060009054906101000a900460ff1660ff16141561011e576320c13b0b60e01b9050610142565b7f307800000000000000000000000000000000000000000000000000000000000090505b92915050565b6000818051602081018201805184825260208301602085012081835280955050505050506000915054906101000a900460ff1681565b60606000806000813060601b60405160200161019b929190610519565b604051602081830303815290604052905060006101b786610265565b905081604160001b85835160001b846040516020016101da9594939291906105aa565b604051602081830303815290604052945060016000826040516101fd9190610593565b908152602001604051809103902060006101000a81548160ff021916908360ff1602179055507fb4eb53c2a9ced017fae5625a5d5039e7267f3377fa01169569f146aa08b6c6e28587604051610254929190610667565b60405180910390a150505050919050565b606060007fa1a7ad659422d5fc08fdc481fd7d8af8daf7993bc4e833452b0268ceaab66e5d83805190602001206040516020016102a3929190610601565b604051602081830303815290604052805190602001209050601960f81b600160f81b7fc5435ecde95aa6b8baa38c5d4f65289fd4a128bc3d41708ea27edc2371779a67836040516020016102fa9493929190610545565b604051602081830303815290604052915050919050565b600061032461031f846106de565b6106b9565b90508281526020810184848401111561033c57600080fd5b6103478482856107fd565b509392505050565b600082601f83011261036057600080fd5b8135610370848260208601610311565b91505092915050565b60006020828403121561038b57600080fd5b600082013567ffffffffffffffff8111156103a557600080fd5b6103b18482850161034f565b91505092915050565b600080604083850312156103cd57600080fd5b600083013567ffffffffffffffff8111156103e757600080fd5b6103f38582860161034f565b925050602083013567ffffffffffffffff81111561041057600080fd5b61041c8582860161034f565b9150509250929050565b61043761043282610762565b61087a565b82525050565b61044e61044982610736565b610870565b82525050565b6104656104608261078e565b610884565b82525050565b610474816107ba565b82525050565b61048b610486826107ba565b61088e565b82525050565b61049a816107c4565b82525050565b60006104ab8261070f565b6104b5818561071a565b93506104c581856020860161080c565b6104ce816108c7565b840191505092915050565b60006104e48261070f565b6104ee818561072b565b93506104fe81856020860161080c565b80840191505092915050565b610513816107f0565b82525050565b60006105258285610426565b600c820191506105358284610454565b6014820191508190509392505050565b6000610551828761043d565b600182019150610561828661043d565b600182019150610571828561047a565b602082019150610581828461047a565b60208201915081905095945050505050565b600061059f82846104d9565b915081905092915050565b60006105b682886104d9565b91506105c2828761047a565b6020820191506105d2828661043d565b6001820191506105e2828561047a565b6020820191506105f282846104d9565b91508190509695505050505050565b6000604082019050610616600083018561046b565b610623602083018461046b565b9392505050565b600060208201905061063f6000830184610491565b92915050565b6000602082019050818103600083015261065f81846104a0565b905092915050565b6000604082019050818103600083015261068181856104a0565b9050818103602083015261069581846104a0565b90509392505050565b60006020820190506106b3600083018461050a565b92915050565b60006106c36106d4565b90506106cf828261083f565b919050565b6000604051905090565b600067ffffffffffffffff8211156106f9576106f8610898565b5b610702826108c7565b9050602081019050919050565b600081519050919050565b600082825260208201905092915050565b600081905092915050565b60007fff0000000000000000000000000000000000000000000000000000000000000082169050919050565b60007fffffffffffffffffffffffff000000000000000000000000000000000000000082169050919050565b60007fffffffffffffffffffffffffffffffffffffffff00000000000000000000000082169050919050565b6000819050919050565b60007fffffffff0000000000000000000000000000000000000000000000000000000082169050919050565b600060ff82169050919050565b82818337600083830152505050565b60005b8381101561082a57808201518184015260208101905061080f565b83811115610839576000848401525b50505050565b610848826108c7565b810181811067ffffffffffffffff8211171561086757610866610898565b5b80604052505050565b6000819050919050565b6000819050919050565b6000819050919050565b6000819050919050565b7f4e487b7100000000000000000000000000000000000000000000000000000000600052604160045260246000fd5b6000601f19601f830116905091905056fea264697066735822122020865128e3b46104e755938d201d3ecbba25afeefff705dbd21c8a30a6fc909264736f6c63430008040033",
  "linkReferences": {},
  "deployedLinkReferences": {}
}