{
  "_format": "hh-sol-artifact-1",
  "contractName": "DefaultCallbackHandler",
  "sourceName": "contracts/gnosis/handler/DefaultCallbackHandler.sol",
  "abi": [
    {
      "inputs": [],
      "name": "NAME",
      "outputs": [
        {
          "internalType": "string",
          "name": "",
          "type": "string"
        }
      ],
      "stateMutability": "view",
      "type": "function"
    },
    {
      "inputs": [],
      "name": "VERSION",
      "outputs": [
        {
          "internalType": "string",
          "name": "",
          "type": "string"
        }
      ],
      "stateMutability": "view",
      "type": "function"
    },
    {
      "inputs": [
        {
          "internalType": "address",
          "name": "",
          "type": "address"
        },
        {
          "internalType": "address",
          "name": "",
          "type": "address"
        },
        {
          "internalType": "uint256[]",
          "name": "",
          "type": "uint256[]"
        },
        {
          "internalType": "uint256[]",
          "name": "",
          "type": "uint256[]"
        },
        {
          "internalType": "bytes",
          "name": "",
          "type": "bytes"
        }
      ],
      "name": "onERC1155BatchReceived",
      "outputs": [
        {
          "internalType": "bytes4",
          "name": "",
          "type": "bytes4"
        }
      ],
      "stateMutability": "pure",
      "type": "function"
    },
    {
      "inputs": [
        {
          "internalType": "address",
          "name": "",
          "type": "address"
        },
        {
          "internalType": "address",
          "name": "",
          "type": "address"
        },
        {
          "internalType": "uint256",
          "name": "",
          "type": "uint256"
        },
        {
          "internalType": "uint256",
          "name": "",
          "type": "uint256"
        },
        {
          "internalType": "bytes",
          "name": "",
          "type": "bytes"
        }
      ],
      "name": "onERC1155Received",
      "outputs": [
        {
          "internalType": "bytes4",
          "name": "",
          "type": "bytes4"
        }
      ],
      "stateMutability": "pure",
      "type": "function"
    },
    {
      "inputs": [
        {
          "internalType": "address",
          "name": "",
          "type": "address"
        },
        {
          "internalType": "address",
          "name": "",
          "type": "address"
        },
        {
          "internalType": "uint256",
          "name": "",
          "type": "uint256"
        },
        {
          "internalType": "bytes",
          "name": "",
          "type": "bytes"
        }
      ],
      "name": "onERC721Received",
      "outputs": [
        {
          "internalType": "bytes4",
          "name": "",
          "type": "bytes4"
        }
      ],
      "stateMutability": "pure",
      "type": "function"
    },
    {
      "inputs": [
        {
          "internalType": "bytes4",
          "name": "interfaceId",
          "type": "bytes4"
        }
      ],
      "name": "supportsInterface",
      "outputs": [
        {
          "internalType": "bool",
          "name": "",
          "type": "bool"
        }
      ],
      "stateMutability": "view",
      "type": "function"
    },
    {
      "inputs": [
        {
          "internalType": "address",
          "name": "",
          "type": "address"
        },
        {
          "internalType": "address",
          "name": "",
          "type": "address"
        },
        {
          "internalType": "address",
          "name": "",
          "type": "address"
        },
        {
          "internalType": "uint256",
          "name": "",
          "type": "uint256"
        },
        {
          "internalType": "bytes",
          "name": "",
          "type": "bytes"
        },
        {
          "internalType": "bytes",
          "name": "",
          "type": "bytes"
        }
      ],
      "name": "tokensReceived",
      "outputs": [],
      "stateMutability": "pure",
      "type": "function"
    }
  ],
  "bytecode": "0x608060405234801561001057600080fd5b5061092d806100206000396000f3fe608060405234801561001057600080fd5b506004361061007c5760003560e01c8063a3f4df7e1161005b578063a3f4df7e146100fd578063bc197c811461011b578063f23a6e611461014b578063ffa1ad741461017b5761007c565b806223de291461008157806301ffc9a71461009d578063150b7a02146100cd575b600080fd5b61009b60048036038101906100969190610465565b610199565b005b6100b760048036038101906100b29190610706565b6101a3565b6040516100c49190610786565b60405180910390f35b6100e760048036038101906100e291906105f4565b6102dd565b6040516100f491906107a1565b60405180910390f35b6101056102f2565b60405161011291906107bc565b60405180910390f35b61013560048036038101906101309190610528565b61032b565b60405161014291906107a1565b60405180910390f35b61016560048036038101906101609190610674565b610343565b60405161017291906107a1565b60405180910390f35b610183610359565b60405161019091906107bc565b60405180910390f35b5050505050505050565b60007f4e2312e0000000000000000000000000000000000000000000000000000000007bffffffffffffffffffffffffffffffffffffffffffffffffffffffff1916827bffffffffffffffffffffffffffffffffffffffffffffffffffffffff1916148061026e57507f150b7a02000000000000000000000000000000000000000000000000000000007bffffffffffffffffffffffffffffffffffffffffffffffffffffffff1916827bffffffffffffffffffffffffffffffffffffffffffffffffffffffff1916145b806102d657507f01ffc9a7000000000000000000000000000000000000000000000000000000007bffffffffffffffffffffffffffffffffffffffffffffffffffffffff1916827bffffffffffffffffffffffffffffffffffffffffffffffffffffffff1916145b9050919050565b600063150b7a0260e01b905095945050505050565b6040518060400160405280601881526020017f44656661756c742043616c6c6261636b2048616e646c6572000000000000000081525081565b600063bc197c8160e01b905098975050505050505050565b600063f23a6e6160e01b90509695505050505050565b6040518060400160405280600581526020017f312e302e3000000000000000000000000000000000000000000000000000000081525081565b6000813590506103a1816108b2565b92915050565b60008083601f8401126103b957600080fd5b8235905067ffffffffffffffff8111156103d257600080fd5b6020830191508360208202830111156103ea57600080fd5b9250929050565b600081359050610400816108c9565b92915050565b60008083601f84011261041857600080fd5b8235905067ffffffffffffffff81111561043157600080fd5b60208301915083600182028301111561044957600080fd5b9250929050565b60008135905061045f816108e0565b92915050565b60008060008060008060008060c0898b03121561048157600080fd5b600061048f8b828c01610392565b98505060206104a08b828c01610392565b97505060406104b18b828c01610392565b96505060606104c28b828c01610450565b955050608089013567ffffffffffffffff8111156104df57600080fd5b6104eb8b828c01610406565b945094505060a089013567ffffffffffffffff81111561050a57600080fd5b6105168b828c01610406565b92509250509295985092959890939650565b60008060008060008060008060a0898b03121561054457600080fd5b60006105528b828c01610392565b98505060206105638b828c01610392565b975050604089013567ffffffffffffffff81111561058057600080fd5b61058c8b828c016103a7565b9650965050606089013567ffffffffffffffff8111156105ab57600080fd5b6105b78b828c016103a7565b9450945050608089013567ffffffffffffffff8111156105d657600080fd5b6105e28b828c01610406565b92509250509295985092959890939650565b60008060008060006080868803121561060c57600080fd5b600061061a88828901610392565b955050602061062b88828901610392565b945050604061063c88828901610450565b935050606086013567ffffffffffffffff81111561065957600080fd5b61066588828901610406565b92509250509295509295909350565b60008060008060008060a0878903121561068d57600080fd5b600061069b89828a01610392565b96505060206106ac89828a01610392565b95505060406106bd89828a01610450565b94505060606106ce89828a01610450565b935050608087013567ffffffffffffffff8111156106eb57600080fd5b6106f789828a01610406565b92509250509295509295509295565b60006020828403121561071857600080fd5b6000610726848285016103f1565b91505092915050565b6107388161080c565b82525050565b61074781610818565b82525050565b6000610758826107de565b61076281856107e9565b935061077281856020860161086e565b61077b816108a1565b840191505092915050565b600060208201905061079b600083018461072f565b92915050565b60006020820190506107b6600083018461073e565b92915050565b600060208201905081810360008301526107d6818461074d565b905092915050565b600081519050919050565b600082825260208201905092915050565b600061080582610844565b9050919050565b60008115159050919050565b60007fffffffff0000000000000000000000000000000000000000000000000000000082169050919050565b600073ffffffffffffffffffffffffffffffffffffffff82169050919050565b6000819050919050565b60005b8381101561088c578082015181840152602081019050610871565b8381111561089b576000848401525b50505050565b6000601f19601f8301169050919050565b6108bb816107fa565b81146108c657600080fd5b50565b6108d281610818565b81146108dd57600080fd5b50565b6108e981610864565b81146108f457600080fd5b5056fea26469706673582212206ed90c503b36e21c84b6efaa5c9a7287bc20893218eaf497560136c914bfeeae64736f6c63430008040033",
  "linkReferences": {},
  "deployedLinkReferences": {}
}