{
  "_format": "hh-sol-artifact-1",
  "contractName": "Signer",
  "sourceName": "contracts/utils/Signer.sol",
  "abi": [
    {
      "inputs": [
        {
          "internalType": "address",
          "name": "_safe",
          "type": "address"
        },
        {
          "internalType": "address",
          "name": "_seedFactory",
          "type": "address"
        }
      ],
      "stateMutability": "nonpayable",
      "type": "constructor"
    },
    {
      "anonymous": false,
      "inputs": [
        {
          "indexed": false,
          "internalType": "bytes",
          "name": "signature",
          "type": "bytes"
        },
        {
          "indexed": false,
          "internalType": "bytes32",
          "name": "hash",
          "type": "bytes32"
        }
      ],
      "name": "SignatureCreated",
      "type": "event"
    },
    {
      "inputs": [
        {
          "internalType": "bytes32",
          "name": "",
          "type": "bytes32"
        }
      ],
      "name": "approvedSignatures",
      "outputs": [
        {
          "internalType": "uint8",
          "name": "",
          "type": "uint8"
        }
      ],
      "stateMutability": "view",
      "type": "function"
    },
    {
      "inputs": [
        {
          "internalType": "address",
          "name": "_to",
          "type": "address"
        },
        {
          "internalType": "uint256",
          "name": "_value",
          "type": "uint256"
        },
        {
          "internalType": "bytes",
          "name": "_data",
          "type": "bytes"
        },
        {
          "internalType": "enum Enum.Operation",
          "name": "_operation",
          "type": "uint8"
        },
        {
          "internalType": "uint256",
          "name": "_safeTxGas",
          "type": "uint256"
        },
        {
          "internalType": "uint256",
          "name": "_baseGas",
          "type": "uint256"
        },
        {
          "internalType": "uint256",
          "name": "_gasPrice",
          "type": "uint256"
        },
        {
          "internalType": "address",
          "name": "_gasToken",
          "type": "address"
        },
        {
          "internalType": "address",
          "name": "_refundReceiver",
          "type": "address"
        },
        {
          "internalType": "uint256",
          "name": "_nonce",
          "type": "uint256"
        }
      ],
      "name": "generateSignature",
      "outputs": [
        {
          "internalType": "bytes",
          "name": "signature",
          "type": "bytes"
        },
        {
          "internalType": "bytes32",
          "name": "hash",
          "type": "bytes32"
        }
      ],
      "stateMutability": "nonpayable",
      "type": "function"
    },
    {
      "inputs": [
        {
          "internalType": "bytes",
          "name": "_hash",
          "type": "bytes"
        },
        {
          "internalType": "bytes",
          "name": "_signature",
          "type": "bytes"
        }
      ],
      "name": "isValidSignature",
      "outputs": [
        {
          "internalType": "bytes4",
          "name": "",
          "type": "bytes4"
        }
      ],
      "stateMutability": "view",
      "type": "function"
    },
    {
      "inputs": [],
      "name": "safe",
      "outputs": [
        {
          "internalType": "address",
          "name": "",
          "type": "address"
        }
      ],
      "stateMutability": "view",
      "type": "function"
    },
    {
      "inputs": [],
      "name": "seedFactory",
      "outputs": [
        {
          "internalType": "address",
          "name": "",
          "type": "address"
        }
      ],
      "stateMutability": "view",
      "type": "function"
    }
  ],
  "bytecode": "0x608060405234801561001057600080fd5b50604051610a03380380610a0383398101604081905261002f91610112565b6001600160a01b0382161580159061004f57506001600160a01b03811615155b6100c55760405162461bcd60e51b815260206004820152603360248201527f5369676e65723a205361666520616e642053656564466163746f72792061646460448201527f726573732063616e6e6f74206265207a65726f00000000000000000000000000606482015260840160405180910390fd5b600180546001600160a01b039384166001600160a01b03199182161790915560028054929093169116179055610144565b80516001600160a01b038116811461010d57600080fd5b919050565b60008060408385031215610124578182fd5b61012d836100f6565b915061013b602084016100f6565b90509250929050565b6108b0806101536000396000f3fe608060405234801561001057600080fd5b50600436106100575760003560e01c80630422a9861461005c578063186f03541461008c57806320c13b0b1461009f57806374fe857a146100cb578063e14ff998146100ec575b600080fd5b60025461006f906001600160a01b031681565b6040516001600160a01b0390911681526020015b60405180910390f35b60015461006f906001600160a01b031681565b6100b26100ad36600461069a565b610121565b6040516001600160e01b03199091168152602001610083565b6100de6100d9366004610587565b610161565b6040516100839291906107f9565b61010f6100fa36600461066a565b60006020819052908152604090205460ff1681565b60405160ff9091168152602001610083565b8051602080830191909120600090815290819052604081205460ff166001141561015357506320c13b0b60e01b61015b565b5061060f60f31b5b92915050565b6002546060906000906001600160a01b038e81169116146101d95760405162461bcd60e51b815260206004820152602760248201527f5369676e65723a2063616e6e6f74207369676e20696e76616c6964207472616e60448201526639b0b1ba34b7b760c91b60648201526084015b60405180910390fd5b604080516020601f8d018190048102820181019092528b815263253f59e160e11b9161022091908e908e90819084018382808284376000920191909152506104ce92505050565b6001600160e01b031916146102895760405162461bcd60e51b815260206004820152602960248201527f5369676e65723a2063616e6e6f74207369676e20696e76616c69642066756e636044820152681d1a5bdb8818d85b1b60ba1b60648201526084016101d0565b600160009054906101000a90046001600160a01b03166001600160a01b031663d8d11f788e8e8e8e8e8e8e8e8e8e8e6040518c63ffffffff1660e01b81526004016102de9b9a99989796959493929190610749565b60206040518083038186803b1580156102f657600080fd5b505afa15801561030a573d6000803e3d6000fd5b505050506040513d601f19601f8201168201806040525081019061032e9190610682565b604080516000602082018190526bffffffffffffffffffffffff193060601b16602c830152929350016040516020818303038152906040529050600061043183604080517fa1a7ad659422d5fc08fdc481fd7d8af8daf7993bc4e833452b0268ceaab66e5d602080830191909152818301939093528151808203830181526060820183528051908401207f7a9f5b2bf4dbb53eb85e012c6094a3d71d76e5bfe821f44ab63ed59311264e35608083015260a0808301919091528251808303909101815260c0820183528051930192909220601960f81b60e0840152602360f81b60e184015260e28084019190915281518084039091018152610102909201905290565b80516040519192506104509184916041916000919086906020016106fb565b60408051601f19818403018152828252835160208581019190912060009081529081905291909120805460ff1916600117905594507f4418bf19096bdd1b926a95d3cba8654e780b1b8b9a68526fb2faa0de58040d85906104b490869086906107f9565b60405180910390a150509b509b9950505050505050505050565b6020015190565b80356001600160a01b03811681146104ec57600080fd5b919050565b600082601f830112610501578081fd5b813567ffffffffffffffff8082111561051c5761051c610864565b604051601f8301601f19908116603f0116810190828211818310171561054457610544610864565b8160405283815286602085880101111561055c578485fd5b8360208701602083013792830160200193909352509392505050565b8035600281106104ec57600080fd5b60008060008060008060008060008060006101408c8e0312156105a8578687fd5b6105b18c6104d5565b9a5060208c0135995060408c013567ffffffffffffffff808211156105d4578889fd5b818e0191508e601f8301126105e7578889fd5b8135818111156105f557898afd5b8f602082850101111561060657898afd5b602083019b50809a5050505061061e60608d01610578565b965060808c0135955060a08c0135945060c08c0135935061064160e08d016104d5565b92506106506101008d016104d5565b91506101208c013590509295989b509295989b9093969950565b60006020828403121561067b578081fd5b5035919050565b600060208284031215610693578081fd5b5051919050565b600080604083850312156106ac578182fd5b823567ffffffffffffffff808211156106c3578384fd5b6106cf868387016104f1565b935060208501359150808211156106e4578283fd5b506106f1858286016104f1565b9150509250929050565b6000865161070d818460208b01610834565b808301905086815260ff60f81b86166020820152846021820152835161073a816041840160208801610834565b01604101979650505050505050565b6001600160a01b038c168152602081018b905261014060408201819052810189905260006101608a8c82850137828b01810191909152601f8a01601f1916820101600289106107a857634e487b7160e01b600052602160045260246000fd5b8860608301528760808301528660a08301528560c08301526107d560e08301866001600160a01b03169052565b6001600160a01b039390931661010082015261012001529998505050505050505050565b6040815260008351806040840152610818816060850160208801610834565b602083019390935250601f91909101601f191601606001919050565b60005b8381101561084f578181015183820152602001610837565b8381111561085e576000848401525b50505050565b634e487b7160e01b600052604160045260246000fdfea2646970667358221220da0c9093e8c789f3a235d857b81ef6fd4810e3707f3206125de0a428ec18aae964736f6c63430008040033",
  "linkReferences": {},
  "deployedLinkReferences": {}
}