{
  "_format": "hh-sol-artifact-1",
  "contractName": "Signer",
  "sourceName": "contracts/utils/Signer.sol",
  "abi": [
    {
      "inputs": [
        {
          "internalType": "address",
          "name": "_safe",
          "type": "address"
        },
        {
          "internalType": "address",
          "name": "_seedFactory",
          "type": "address"
        }
      ],
      "stateMutability": "nonpayable",
      "type": "constructor"
    },
    {
      "anonymous": false,
      "inputs": [
        {
          "indexed": false,
          "internalType": "bytes",
          "name": "signature",
          "type": "bytes"
        },
        {
          "indexed": false,
          "internalType": "bytes32",
          "name": "hash",
          "type": "bytes32"
        }
      ],
      "name": "SignatureCreated",
      "type": "event"
    },
    {
      "inputs": [
        {
          "internalType": "bytes32",
          "name": "",
          "type": "bytes32"
        }
      ],
      "name": "approvedSignatures",
      "outputs": [
        {
          "internalType": "uint8",
          "name": "",
          "type": "uint8"
        }
      ],
      "stateMutability": "view",
      "type": "function"
    },
    {
      "inputs": [
        {
          "internalType": "bytes32",
          "name": "c__0x7fcaf73c",
          "type": "bytes32"
        }
      ],
      "name": "c_0x7fcaf73c",
      "outputs": [],
      "stateMutability": "pure",
      "type": "function"
    },
    {
      "inputs": [
        {
          "internalType": "address",
          "name": "_to",
          "type": "address"
        },
        {
          "internalType": "uint256",
          "name": "_value",
          "type": "uint256"
        },
        {
          "internalType": "bytes",
          "name": "_data",
          "type": "bytes"
        },
        {
          "internalType": "enum Enum.Operation",
          "name": "_operation",
          "type": "uint8"
        },
        {
          "internalType": "uint256",
          "name": "_safeTxGas",
          "type": "uint256"
        },
        {
          "internalType": "uint256",
          "name": "_baseGas",
          "type": "uint256"
        },
        {
          "internalType": "uint256",
          "name": "_gasPrice",
          "type": "uint256"
        },
        {
          "internalType": "address",
          "name": "_gasToken",
          "type": "address"
        },
        {
          "internalType": "address",
          "name": "_refundReceiver",
          "type": "address"
        },
        {
          "internalType": "uint256",
          "name": "_nonce",
          "type": "uint256"
        }
      ],
      "name": "generateSignature",
      "outputs": [
        {
          "internalType": "bytes",
          "name": "signature",
          "type": "bytes"
        },
        {
          "internalType": "bytes32",
          "name": "hash",
          "type": "bytes32"
        }
      ],
      "stateMutability": "nonpayable",
      "type": "function"
    },
    {
      "inputs": [
        {
          "internalType": "bytes",
          "name": "_data",
          "type": "bytes"
        },
        {
          "internalType": "bytes",
          "name": "_signature",
          "type": "bytes"
        }
      ],
      "name": "isValidSignature",
      "outputs": [
        {
          "internalType": "bytes4",
          "name": "",
          "type": "bytes4"
        }
      ],
      "stateMutability": "view",
      "type": "function"
    },
    {
      "inputs": [],
      "name": "safe",
      "outputs": [
        {
          "internalType": "address",
          "name": "",
          "type": "address"
        }
      ],
      "stateMutability": "view",
      "type": "function"
    },
    {
      "inputs": [],
      "name": "seedFactory",
      "outputs": [
        {
          "internalType": "address",
          "name": "",
          "type": "address"
        }
      ],
      "stateMutability": "view",
      "type": "function"
    }
  ],
  "bytecode": "0x60806040523480156200001157600080fd5b5060405162001c4f38038062001c4f83398181016040528101906200003791906200035c565b6200006b7f888379714f9a304d3f9e425c308e3a8a80679213c995a13445715caafbebff0060001b6200034260201b60201c565b6200009f7f326d0b1ec558cbd5886893cbc835fbd7514bd6a8e39cf0664b1f34a25ce8540260001b6200034260201b60201c565b620000d37f374ed2da38de9aee31d4a91255865a44d0fd35c8d4787d8019d076bf1d64396960001b6200034260201b60201c565b620001077f681985a8aaa31faf57a5ac66631713280ee58ba1fbd4133398b558756edf9fdd60001b6200034260201b60201c565b600073ffffffffffffffffffffffffffffffffffffffff168273ffffffffffffffffffffffffffffffffffffffff1614158015620001725750600073ffffffffffffffffffffffffffffffffffffffff168173ffffffffffffffffffffffffffffffffffffffff1614155b620001b4576040517f08c379a0000000000000000000000000000000000000000000000000000000008152600401620001ab90620003ca565b60405180910390fd5b620001e87f0ae9ee3a8ac225734101e9e7cf3d03414d1ae99e8f1c121cf0d721ce06db71d460001b6200034260201b60201c565b6200021c7fa51e0cc6220d8906e6fa4d6a2c35641cbbe49446677fe3d21bba0c337c4a0efd60001b6200034260201b60201c565b620002507ff7a3ce4edc329ba27bba3c54a395cb7d5ea431ed454a4ca5e567ea5c2708d45060001b6200034260201b60201c565b81600160006101000a81548173ffffffffffffffffffffffffffffffffffffffff021916908373ffffffffffffffffffffffffffffffffffffffff160217905550620002c57f4845d951c69be59850e75aae58c0136f1e7e88e7210634c618ca6ad918d7af8160001b6200034260201b60201c565b620002f97f8ecdf37742e1532346fae14f03c211f7ff4ffbfd3d7b36b1e67ec7ba9582572560001b6200034260201b60201c565b80600260006101000a81548173ffffffffffffffffffffffffffffffffffffffff021916908373ffffffffffffffffffffffffffffffffffffffff16021790555050506200049f565b50565b600081519050620003568162000485565b92915050565b6000806040838503121562000376576200037562000431565b5b6000620003868582860162000345565b9250506020620003998582860162000345565b9150509250929050565b6000620003b2603383620003ec565b9150620003bf8262000436565b604082019050919050565b60006020820190508181036000830152620003e581620003a3565b9050919050565b600082825260208201905092915050565b60006200040a8262000411565b9050919050565b600073ffffffffffffffffffffffffffffffffffffffff82169050919050565b600080fd5b7f5369676e65723a205361666520616e642053656564466163746f72792061646460008201527f726573732063616e6e6f74206265207a65726f00000000000000000000000000602082015250565b6200049081620003fd565b81146200049c57600080fd5b50565b6117a080620004af6000396000f3fe608060405234801561001057600080fd5b50600436106100625760003560e01c80630422a98614610067578063186f03541461008557806320c13b0b146100a357806374fe857a146100d35780638406cceb14610104578063e14ff99814610120575b600080fd5b61006f610150565b60405161007c91906111d0565b60405180910390f35b61008d610176565b60405161009a91906111d0565b60405180910390f35b6100bd60048036038101906100b89190610f05565b61019c565b6040516100ca91906112b9565b60405180910390f35b6100ed60048036038101906100e89190610dab565b610395565b6040516100fb9291906112d4565b60405180910390f35b61011e60048036038101906101199190610eab565b610a46565b005b61013a60048036038101906101359190610eab565b610a49565b6040516101479190611344565b60405180910390f35b600260009054906101000a900473ffffffffffffffffffffffffffffffffffffffff1681565b600160009054906101000a900473ffffffffffffffffffffffffffffffffffffffff1681565b60006101ca7f121fb7cb249943d7dba43fbdbfdd73cc61efd75c593b1a005e577f0bef4cb6e560001b610a46565b6101f67f51a5423888d4a74862b5e45a5f58493fcadafa0aefed927532a0a0d2a288029860001b610a46565b6102227ffaf4ae85b2f733f8d70c001d97a9792e2699809ab4342d3043ef7dbfebaf537660001b610a46565b60016000808480519060200120815260200190815260200160002060009054906101000a900460ff1660ff1614156102e7576102807f094a60ee51a25ec6cb4e84d1c74ed6f52a907a13cf67d805b262e75c0f41b5cf60001b610a46565b6102ac7f817347f97daef8bfa712e4a6e3df812ea5baf306a8493d157cfcd583e1fa7a0360001b610a46565b6102d87fa0c0e370a10b03ca991efa8dca6bd84c48bf185a550faa4f7c4465154752a91b60001b610a46565b6320c13b0b60e01b905061038f565b6103137fe81c308b22f63d1db49995483092c510777f41f84ff30bd1dcdff2e3224c9bb160001b610a46565b61033f7fa751aabd12442752fc126e71f6bbd843d721e9e277b19d2a7331974cbb64253360001b610a46565b61036b7f6016ef6e163bbccfbda27682c9e605b754ad5f747e012f2e56b6e7df6696749660001b610a46565b7f307800000000000000000000000000000000000000000000000000000000000090505b92915050565b606060006103c57f2440801f242b70f0636be26a993319034487bd217a71afd14b5af24a8b8a4cf360001b610a46565b6103f17f494af499c032817009d2a616ee7e52547ba2b2c55e7327b0c94dc2da9ce40a6c60001b610a46565b61041d7f32763509ff413f15a23586f3bb524db22f0053a5d64675353447f2eb8d9f62b260001b610a46565b6104497f5f6ec29f1c23247244d5241c4e08929dfa07dad203ccb42d8e71ff05e1731f3060001b610a46565b600260009054906101000a900473ffffffffffffffffffffffffffffffffffffffff1673ffffffffffffffffffffffffffffffffffffffff168d73ffffffffffffffffffffffffffffffffffffffff16146104d9576040517f08c379a00000000000000000000000000000000000000000000000000000000081526004016104d090611304565b60405180910390fd5b6105057f1bebf70378272bd7b5af02158e4a38f6564a017f354ae26f038ea34de35e122b60001b610a46565b6105317f6c642f69d27b01a5dc5a1fa0df2ce18145ef45cfb421bda2d77b1ad4f795589c60001b610a46565b61055d7fcec32e267e6cbc9f1cdcfc9166889d6b3fe09c9d2ddd50343513ff6c53b2704660001b610a46565b6105897f93eb09a0105c1afd10b732bc60d0b96ed776579cb6e0ec0bba6fa2238d1f1e6d60001b610a46565b634a7eb3c260e01b7bffffffffffffffffffffffffffffffffffffffffffffffffffffffff19166105fd8c8c8080601f016020809104026020016040519081016040528093929190818152602001838380828437600081840152601f19601f82011690508083019250505050505050610a69565b7bffffffffffffffffffffffffffffffffffffffffffffffffffffffff19161461065c576040517f08c379a000000000000000000000000000000000000000000000000000000000815260040161065390611324565b60405180910390fd5b6106887f1d445cbab5214de02a06b79af83006400c13ac481b11a0c0404108cd0ab763e260001b610a46565b6106b47f96b059d739791017ef99bf6743cad1f857ed4538a4c780efb4917074ef15949760001b610a46565b6106e07f0b4623783130a294d36fdeee61a2feb27a8e16016b9e9d21477b15445047c3ed60001b610a46565b600160009054906101000a900473ffffffffffffffffffffffffffffffffffffffff1673ffffffffffffffffffffffffffffffffffffffff1663d8d11f788e8e8e8e8e8e8e8e8e8e8e6040518c63ffffffff1660e01b815260040161074f9b9a999897969594939291906111eb565b60206040518083038186803b15801561076757600080fd5b505afa15801561077b573d6000803e3d6000fd5b505050506040513d601f19601f8201168201806040525081019061079f9190610ed8565b90506107cd7fd2c71e5a86cf28a9a8017302f86f7752014914eea521e2161dfc271c9a53123f60001b610a46565b6107f97f966edcf035687db924e187e72063b92ea9a8c5bba5424c69fcbf7352ed9fa66860001b610a46565b60008060a01b3060601b604051602001610814929190611110565b60405160208183030381529060405290506108517f29946d50c936b13cfd3e57ada6fdaedc81004a08503c78b12b2ce24248f60ce860001b610a46565b61087d7fe764772938a03baef3b07fcfa4b7403582e009c2e07e84a8591321e62ae4394e60001b610a46565b600061088883610acf565b90506108b67fbb611ab9f1897af1b6296f871f8bf01e34dc18230ae9cb257c66017a09eb022d60001b610a46565b6108e27f478e87bfb0c960cda1b3fd11a7a9051f8a7c4422383fa8a04c66929ec9c2831060001b610a46565b81604160001b600060f81b835160001b84604051602001610907959493929190611179565b60405160208183030381529060405293506109447f6bb0c6fd057cd46139969cab9f233ab080d3240b0a8781b29139c816348a88fe60001b610a46565b6109707fa4a0ece00f961409fa2e972cee682423d82bb65af002b98c5a11b6bb969a96f160001b610a46565b60016000808380519060200120815260200190815260200160002060006101000a81548160ff021916908360ff1602179055506109cf7f544651e006f95b47b35e35d088b171029cce9a805fc6c71bc3593db53575a17960001b610a46565b6109fb7fb8dfee544b870b352fa0a078dd1dd42b3592862c04f1c19867707d0a8838843a60001b610a46565b7f4418bf19096bdd1b926a95d3cba8654e780b1b8b9a68526fb2faa0de58040d858484604051610a2c9291906112d4565b60405180910390a150509b509b9950505050505050505050565b50565b60006020528060005260406000206000915054906101000a900460ff1681565b6000610a977fe78cc4cd31b0e4d5bc05faccc0784dbf85cece793be6fdfb2065dd675600c07060001b610a46565b610ac37f2e942570c16aede1aea1bb787168bbe92f55a520d7f6706fef70956f72dabf9e60001b610a46565b60208201519050919050565b6060610afd7f87bc4c736d80a35640a39aa7a1993900a4119d042d590b055e1d9083e57eef0e60001b610a46565b610b297f01583adba9251af4c72320abc7d85ec4a71f22a0e3621f04eb1f52a050f420c560001b610a46565b610b557f38a8f975c542602a18d829b459b2506eebadabed7e0e0bb1cb7f2edb7e1a357060001b610a46565b60007fa1a7ad659422d5fc08fdc481fd7d8af8daf7993bc4e833452b0268ceaab66e5d60001b83604051602001610b8d929190611290565b604051602081830303815290604052805190602001209050610bd17f6ab6586fe7188f605b1b17f8cd805f58f0519c4fb475d6431a249374424741ab60001b610a46565b610bfd7ff09451f11e0885855607d478f2f06f068d7e421db173735e347c84cb4047ea4260001b610a46565b601960f81b602360f81b7f7a9f5b2bf4dbb53eb85e012c6094a3d71d76e5bfe821f44ab63ed59311264e3560001b83604051602001610c3d929190611290565b60405160208183030381529060405280519060200120604051602001610c659392919061113c565b604051602081830303815290604052915050919050565b6000610c8f610c8a84611384565b61135f565b905082815260208101848484011115610cab57610caa61161d565b5b610cb6848285611515565b509392505050565b600081359050610ccd81611715565b92915050565b600081359050610ce28161172c565b92915050565b600081519050610cf78161172c565b92915050565b60008083601f840112610d1357610d12611613565b5b8235905067ffffffffffffffff811115610d3057610d2f61160e565b5b602083019150836001820283011115610d4c57610d4b611618565b5b9250929050565b600082601f830112610d6857610d67611613565b5b8135610d78848260208601610c7c565b91505092915050565b600081359050610d9081611743565b92915050565b600081359050610da581611753565b92915050565b60008060008060008060008060008060006101408c8e031215610dd157610dd0611627565b5b6000610ddf8e828f01610cbe565b9b50506020610df08e828f01610d96565b9a505060408c013567ffffffffffffffff811115610e1157610e10611622565b5b610e1d8e828f01610cfd565b99509950506060610e308e828f01610d81565b9750506080610e418e828f01610d96565b96505060a0610e528e828f01610d96565b95505060c0610e638e828f01610d96565b94505060e0610e748e828f01610cbe565b935050610100610e868e828f01610cbe565b925050610120610e988e828f01610d96565b9150509295989b509295989b9093969950565b600060208284031215610ec157610ec0611627565b5b6000610ecf84828501610cd3565b91505092915050565b600060208284031215610eee57610eed611627565b5b6000610efc84828501610ce8565b91505092915050565b60008060408385031215610f1c57610f1b611627565b5b600083013567ffffffffffffffff811115610f3a57610f39611622565b5b610f4685828601610d53565b925050602083013567ffffffffffffffff811115610f6757610f66611622565b5b610f7385828601610d53565b9150509250929050565b610f86816113ed565b82525050565b610f9d610f988261142b565b611592565b82525050565b610fb4610faf826113ff565b611588565b82525050565b610fcb610fc682611457565b61159c565b82525050565b610fda81611483565b82525050565b610ff1610fec82611483565b6115a6565b82525050565b6110008161148d565b82525050565b600061101283856113c0565b935061101f838584611515565b6110288361162c565b840190509392505050565b600061103e826113b5565b61104881856113c0565b9350611058818560208601611524565b6110618161162c565b840191505092915050565b6000611077826113b5565b61108181856113d1565b9350611091818560208601611524565b80840191505092915050565b6110a681611503565b82525050565b60006110b96042836113dc565b91506110c48261163d565b606082019050919050565b60006110dc6029836113dc565b91506110e7826116b2565b604082019050919050565b6110fb816114ec565b82525050565b61110a816114f6565b82525050565b600061111c8285610f8c565b600c8201915061112c8284610fba565b6014820191508190509392505050565b60006111488286610fa3565b6001820191506111588285610fa3565b6001820191506111688284610fe0565b602082019150819050949350505050565b6000611185828861106c565b91506111918287610fe0565b6020820191506111a18286610fa3565b6001820191506111b18285610fe0565b6020820191506111c1828461106c565b91508190509695505050505050565b60006020820190506111e56000830184610f7d565b92915050565b600061014082019050611201600083018e610f7d565b61120e602083018d6110f2565b8181036040830152611221818b8d611006565b9050611230606083018a61109d565b61123d60808301896110f2565b61124a60a08301886110f2565b61125760c08301876110f2565b61126460e0830186610f7d565b611272610100830185610f7d565b6112806101208301846110f2565b9c9b505050505050505050505050565b60006040820190506112a56000830185610fd1565b6112b26020830184610fd1565b9392505050565b60006020820190506112ce6000830184610ff7565b92915050565b600060408201905081810360008301526112ee8185611033565b90506112fd6020830184610fd1565b9392505050565b6000602082019050818103600083015261131d816110ac565b9050919050565b6000602082019050818103600083015261133d816110cf565b9050919050565b60006020820190506113596000830184611101565b92915050565b600061136961137a565b90506113758282611557565b919050565b6000604051905090565b600067ffffffffffffffff82111561139f5761139e6115df565b5b6113a88261162c565b9050602081019050919050565b600081519050919050565b600082825260208201905092915050565b600081905092915050565b600082825260208201905092915050565b60006113f8826114cc565b9050919050565b60007fff0000000000000000000000000000000000000000000000000000000000000082169050919050565b60007fffffffffffffffffffffffff000000000000000000000000000000000000000082169050919050565b60007fffffffffffffffffffffffffffffffffffffffff00000000000000000000000082169050919050565b6000819050919050565b60007fffffffff0000000000000000000000000000000000000000000000000000000082169050919050565b60008190506114c782611701565b919050565b600073ffffffffffffffffffffffffffffffffffffffff82169050919050565b6000819050919050565b600060ff82169050919050565b600061150e826114b9565b9050919050565b82818337600083830152505050565b60005b83811015611542578082015181840152602081019050611527565b83811115611551576000848401525b50505050565b6115608261162c565b810181811067ffffffffffffffff8211171561157f5761157e6115df565b5b80604052505050565b6000819050919050565b6000819050919050565b6000819050919050565b6000819050919050565b7f4e487b7100000000000000000000000000000000000000000000000000000000600052602160045260246000fd5b7f4e487b7100000000000000000000000000000000000000000000000000000000600052604160045260246000fd5b600080fd5b600080fd5b600080fd5b600080fd5b600080fd5b600080fd5b6000601f19601f8301169050919050565b7f5369676e65723a2063616e6e6f74207369676e207472616e73616374696f6e2060008201527f7472616e73616374696f6e20746f20696e76616c69642073656564466163746f60208201527f7279000000000000000000000000000000000000000000000000000000000000604082015250565b7f5369676e65723a2063616e206f6e6c79207369676e2063616c6c7320746f206460008201527f65706c6f79536565640000000000000000000000000000000000000000000000602082015250565b60028110611712576117116115b0565b5b50565b61171e816113ed565b811461172957600080fd5b50565b61173581611483565b811461174057600080fd5b50565b6002811061175057600080fd5b50565b61175c816114ec565b811461176757600080fd5b5056fea2646970667358221220b292fc499cee0970e99df84455fb909b4fe630e3a92a3503f3c739322bad0d0064736f6c63430008060033",
  "linkReferences": {},
  "deployedLinkReferences": {}
}