{
  "_format": "hh-sol-artifact-1",
  "contractName": "Signer",
  "sourceName": "contracts/utils/Signer.sol",
  "abi": [
    {
      "inputs": [
        {
          "internalType": "address",
          "name": "_safe",
          "type": "address"
        },
        {
          "internalType": "address",
          "name": "_seedFactory",
          "type": "address"
        }
      ],
      "stateMutability": "nonpayable",
      "type": "constructor"
    },
    {
      "anonymous": false,
      "inputs": [
        {
          "indexed": false,
          "internalType": "bytes",
          "name": "signature",
          "type": "bytes"
        },
        {
          "indexed": true,
          "internalType": "bytes32",
          "name": "hash",
          "type": "bytes32"
        }
      ],
      "name": "SignatureCreated",
      "type": "event"
    },
    {
      "inputs": [
        {
          "internalType": "bytes32",
          "name": "",
          "type": "bytes32"
        }
      ],
      "name": "approvedSignatures",
      "outputs": [
        {
          "internalType": "uint8",
          "name": "",
          "type": "uint8"
        }
      ],
      "stateMutability": "view",
      "type": "function"
    },
    {
      "inputs": [
        {
          "internalType": "bytes32",
          "name": "c__0x7fcaf73c",
          "type": "bytes32"
        }
      ],
      "name": "c_0x7fcaf73c",
      "outputs": [],
      "stateMutability": "pure",
      "type": "function"
    },
    {
      "inputs": [
        {
          "internalType": "address",
          "name": "_to",
          "type": "address"
        },
        {
          "internalType": "uint256",
          "name": "_value",
          "type": "uint256"
        },
        {
          "internalType": "bytes",
          "name": "_data",
          "type": "bytes"
        },
        {
          "internalType": "enum Enum.Operation",
          "name": "_operation",
          "type": "uint8"
        },
        {
          "internalType": "uint256",
          "name": "_safeTxGas",
          "type": "uint256"
        },
        {
          "internalType": "uint256",
          "name": "_baseGas",
          "type": "uint256"
        },
        {
          "internalType": "uint256",
          "name": "_gasPrice",
          "type": "uint256"
        },
        {
          "internalType": "address",
          "name": "_gasToken",
          "type": "address"
        },
        {
          "internalType": "address",
          "name": "_refundReceiver",
          "type": "address"
        },
        {
          "internalType": "uint256",
          "name": "_nonce",
          "type": "uint256"
        }
      ],
      "name": "generateSignature",
      "outputs": [
        {
          "internalType": "bytes",
          "name": "signature",
          "type": "bytes"
        },
        {
          "internalType": "bytes32",
          "name": "hash",
          "type": "bytes32"
        }
      ],
      "stateMutability": "nonpayable",
      "type": "function"
    },
    {
      "inputs": [
        {
          "internalType": "bytes",
          "name": "_hash",
          "type": "bytes"
        },
        {
          "internalType": "bytes",
          "name": "_signature",
          "type": "bytes"
        }
      ],
      "name": "isValidSignature",
      "outputs": [
        {
          "internalType": "bytes4",
          "name": "",
          "type": "bytes4"
        }
      ],
      "stateMutability": "view",
      "type": "function"
    },
    {
      "inputs": [],
      "name": "safe",
      "outputs": [
        {
          "internalType": "address",
          "name": "",
          "type": "address"
        }
      ],
      "stateMutability": "view",
      "type": "function"
    },
    {
      "inputs": [],
      "name": "seedFactory",
      "outputs": [
        {
          "internalType": "address",
          "name": "",
          "type": "address"
        }
      ],
      "stateMutability": "view",
      "type": "function"
    }
  ],
  "bytecode": "0x60806040523480156200001157600080fd5b5060405162001df838038062001df883398181016040528101906200003791906200035c565b6200006b7f326d0b1ec558cbd5886893cbc835fbd7514bd6a8e39cf0664b1f34a25ce8540260001b6200034260201b60201c565b6200009f7f374ed2da38de9aee31d4a91255865a44d0fd35c8d4787d8019d076bf1d64396960001b6200034260201b60201c565b620000d37f681985a8aaa31faf57a5ac66631713280ee58ba1fbd4133398b558756edf9fdd60001b6200034260201b60201c565b620001077f0ae9ee3a8ac225734101e9e7cf3d03414d1ae99e8f1c121cf0d721ce06db71d460001b6200034260201b60201c565b600073ffffffffffffffffffffffffffffffffffffffff168273ffffffffffffffffffffffffffffffffffffffff1614158015620001725750600073ffffffffffffffffffffffffffffffffffffffff168173ffffffffffffffffffffffffffffffffffffffff1614155b620001b4576040517f08c379a0000000000000000000000000000000000000000000000000000000008152600401620001ab90620003ca565b60405180910390fd5b620001e87fa51e0cc6220d8906e6fa4d6a2c35641cbbe49446677fe3d21bba0c337c4a0efd60001b6200034260201b60201c565b6200021c7ff7a3ce4edc329ba27bba3c54a395cb7d5ea431ed454a4ca5e567ea5c2708d45060001b6200034260201b60201c565b620002507f4845d951c69be59850e75aae58c0136f1e7e88e7210634c618ca6ad918d7af8160001b6200034260201b60201c565b81600160006101000a81548173ffffffffffffffffffffffffffffffffffffffff021916908373ffffffffffffffffffffffffffffffffffffffff160217905550620002c57f8ecdf37742e1532346fae14f03c211f7ff4ffbfd3d7b36b1e67ec7ba9582572560001b6200034260201b60201c565b620002f97f2440801f242b70f0636be26a993319034487bd217a71afd14b5af24a8b8a4cf360001b6200034260201b60201c565b80600260006101000a81548173ffffffffffffffffffffffffffffffffffffffff021916908373ffffffffffffffffffffffffffffffffffffffff16021790555050506200049f565b50565b600081519050620003568162000485565b92915050565b6000806040838503121562000376576200037562000431565b5b6000620003868582860162000345565b9250506020620003998582860162000345565b9150509250929050565b6000620003b2603383620003ec565b9150620003bf8262000436565b604082019050919050565b60006020820190508181036000830152620003e581620003a3565b9050919050565b600082825260208201905092915050565b60006200040a8262000411565b9050919050565b600073ffffffffffffffffffffffffffffffffffffffff82169050919050565b600080fd5b7f5369676e65723a205361666520616e642053656564466163746f72792061646460008201527f726573732063616e6e6f74206265207a65726f00000000000000000000000000602082015250565b6200049081620003fd565b81146200049c57600080fd5b50565b61194980620004af6000396000f3fe608060405234801561001057600080fd5b50600436106100625760003560e01c80630422a98614610067578063186f03541461008557806320c13b0b146100a357806374fe857a146100d35780638406cceb14610104578063e14ff99814610120575b600080fd5b61006f610150565b60405161007c919061130e565b60405180910390f35b61008d610176565b60405161009a919061130e565b60405180910390f35b6100bd60048036038101906100b89190611020565b61019c565b6040516100ca91906113f7565b60405180910390f35b6100ed60048036038101906100e89190610ec6565b610395565b6040516100fb929190611434565b60405180910390f35b61011e60048036038101906101199190610fc6565b610b61565b005b61013a60048036038101906101359190610fc6565b610b64565b60405161014791906114c4565b60405180910390f35b600260009054906101000a900473ffffffffffffffffffffffffffffffffffffffff1681565b600160009054906101000a900473ffffffffffffffffffffffffffffffffffffffff1681565b60006101ca7f494af499c032817009d2a616ee7e52547ba2b2c55e7327b0c94dc2da9ce40a6c60001b610b61565b6101f67f32763509ff413f15a23586f3bb524db22f0053a5d64675353447f2eb8d9f62b260001b610b61565b6102227f5f6ec29f1c23247244d5241c4e08929dfa07dad203ccb42d8e71ff05e1731f3060001b610b61565b60016000808480519060200120815260200190815260200160002060009054906101000a900460ff1660ff1614156102e7576102807f1bebf70378272bd7b5af02158e4a38f6564a017f354ae26f038ea34de35e122b60001b610b61565b6102ac7f6c642f69d27b01a5dc5a1fa0df2ce18145ef45cfb421bda2d77b1ad4f795589c60001b610b61565b6102d87fcec32e267e6cbc9f1cdcfc9166889d6b3fe09c9d2ddd50343513ff6c53b2704660001b610b61565b6320c13b0b60e01b905061038f565b6103137f93eb09a0105c1afd10b732bc60d0b96ed776579cb6e0ec0bba6fa2238d1f1e6d60001b610b61565b61033f7f1d445cbab5214de02a06b79af83006400c13ac481b11a0c0404108cd0ab763e260001b610b61565b61036b7f96b059d739791017ef99bf6743cad1f857ed4538a4c780efb4917074ef15949760001b610b61565b7f307800000000000000000000000000000000000000000000000000000000000090505b92915050565b606060006103c57f0b4623783130a294d36fdeee61a2feb27a8e16016b9e9d21477b15445047c3ed60001b610b61565b6103f17fd2c71e5a86cf28a9a8017302f86f7752014914eea521e2161dfc271c9a53123f60001b610b61565b61041d7f966edcf035687db924e187e72063b92ea9a8c5bba5424c69fcbf7352ed9fa66860001b610b61565b6104497f29946d50c936b13cfd3e57ada6fdaedc81004a08503c78b12b2ce24248f60ce860001b610b61565b600260009054906101000a900473ffffffffffffffffffffffffffffffffffffffff1673ffffffffffffffffffffffffffffffffffffffff168d73ffffffffffffffffffffffffffffffffffffffff16146104d9576040517f08c379a00000000000000000000000000000000000000000000000000000000081526004016104d090611484565b60405180910390fd5b6105057fe764772938a03baef3b07fcfa4b7403582e009c2e07e84a8591321e62ae4394e60001b610b61565b6105317fbb611ab9f1897af1b6296f871f8bf01e34dc18230ae9cb257c66017a09eb022d60001b610b61565b61055d7f478e87bfb0c960cda1b3fd11a7a9051f8a7c4422383fa8a04c66929ec9c2831060001b610b61565b6105897f6bb0c6fd057cd46139969cab9f233ab080d3240b0a8781b29139c816348a88fe60001b610b61565b634a7eb3c260e01b7bffffffffffffffffffffffffffffffffffffffffffffffffffffffff19166105fd8c8c8080601f016020809104026020016040519081016040528093929190818152602001838380828437600081840152601f19601f82011690508083019250505050505050610b84565b7bffffffffffffffffffffffffffffffffffffffffffffffffffffffff19161461065c576040517f08c379a0000000000000000000000000000000000000000000000000000000008152600401610653906114a4565b60405180910390fd5b6106887fa4a0ece00f961409fa2e972cee682423d82bb65af002b98c5a11b6bb969a96f160001b610b61565b6106b47f544651e006f95b47b35e35d088b171029cce9a805fc6c71bc3593db53575a17960001b610b61565b6106e07fb8dfee544b870b352fa0a078dd1dd42b3592862c04f1c19867707d0a8838843a60001b610b61565b600160009054906101000a900473ffffffffffffffffffffffffffffffffffffffff1673ffffffffffffffffffffffffffffffffffffffff1663d8d11f788e8e8e8e8e8e8e8e8e8e8e6040518c63ffffffff1660e01b815260040161074f9b9a99989796959493929190611329565b60206040518083038186803b15801561076757600080fd5b505afa15801561077b573d6000803e3d6000fd5b505050506040513d601f19601f8201168201806040525081019061079f9190610ff3565b90506107cd7f121fb7cb249943d7dba43fbdbfdd73cc61efd75c593b1a005e577f0bef4cb6e560001b610b61565b6107f97f51a5423888d4a74862b5e45a5f58493fcadafa0aefed927532a0a0d2a288029860001b610b61565b60008060a01b3060601b60405160200161081492919061124e565b60405160208183030381529060405290506108517ffaf4ae85b2f733f8d70c001d97a9792e2699809ab4342d3043ef7dbfebaf537660001b610b61565b61087d7f094a60ee51a25ec6cb4e84d1c74ed6f52a907a13cf67d805b262e75c0f41b5cf60001b610b61565b600061088883610bea565b90506108b67f817347f97daef8bfa712e4a6e3df812ea5baf306a8493d157cfcd583e1fa7a0360001b610b61565b6108e27fa0c0e370a10b03ca991efa8dca6bd84c48bf185a550faa4f7c4465154752a91b60001b610b61565b61090e7fe81c308b22f63d1db49995483092c510777f41f84ff30bd1dcdff2e3224c9bb160001b610b61565b60008060008380519060200120815260200190815260200160002060009054906101000a900460ff1660ff161461097a576040517f08c379a000000000000000000000000000000000000000000000000000000000815260040161097190611464565b60405180910390fd5b6109a67fa751aabd12442752fc126e71f6bbd843d721e9e277b19d2a7331974cbb64253360001b610b61565b6109d27f6016ef6e163bbccfbda27682c9e605b754ad5f747e012f2e56b6e7df6696749660001b610b61565b6109fe7fe78cc4cd31b0e4d5bc05faccc0784dbf85cece793be6fdfb2065dd675600c07060001b610b61565b81604160001b600060f81b835160001b84604051602001610a239594939291906112b7565b6040516020818303038152906040529350610a607f2e942570c16aede1aea1bb787168bbe92f55a520d7f6706fef70956f72dabf9e60001b610b61565b610a8c7f87bc4c736d80a35640a39aa7a1993900a4119d042d590b055e1d9083e57eef0e60001b610b61565b60016000808380519060200120815260200190815260200160002060006101000a81548160ff021916908360ff160217905550610aeb7f01583adba9251af4c72320abc7d85ec4a71f22a0e3621f04eb1f52a050f420c560001b610b61565b610b177f38a8f975c542602a18d829b459b2506eebadabed7e0e0bb1cb7f2edb7e1a357060001b610b61565b827f4418bf19096bdd1b926a95d3cba8654e780b1b8b9a68526fb2faa0de58040d8585604051610b479190611412565b60405180910390a250509b509b9950505050505050505050565b50565b60006020528060005260406000206000915054906101000a900460ff1681565b6000610bb27f6ab6586fe7188f605b1b17f8cd805f58f0519c4fb475d6431a249374424741ab60001b610b61565b610bde7ff09451f11e0885855607d478f2f06f068d7e421db173735e347c84cb4047ea4260001b610b61565b60208201519050919050565b6060610c187f0224a94c795ba48a8677afa79eb5a26e8c2e52c463af39313c850b5d384d5c5860001b610b61565b610c447f0608d0f130ed991c64339a3524de32483761a9a29900e973532eb6749911567260001b610b61565b610c707fae241087ff0f1b67cc9e97d8e07bf4497ae19bb14bc1badb48901a685d8bf8d760001b610b61565b60007fa1a7ad659422d5fc08fdc481fd7d8af8daf7993bc4e833452b0268ceaab66e5d60001b83604051602001610ca89291906113ce565b604051602081830303815290604052805190602001209050610cec7fb3114eb341d8661bac6f116eb36621b1bbe73e52ebe98df2a9e2252549b9b9cd60001b610b61565b610d187f9891c937194c80a917c296a80749d856258ddb7930717ccb7d0d0133e7f1777260001b610b61565b601960f81b602360f81b7f7a9f5b2bf4dbb53eb85e012c6094a3d71d76e5bfe821f44ab63ed59311264e3560001b83604051602001610d589291906113ce565b60405160208183030381529060405280519060200120604051602001610d809392919061127a565b604051602081830303815290604052915050919050565b6000610daa610da584611504565b6114df565b905082815260208101848484011115610dc657610dc561179d565b5b610dd1848285611695565b509392505050565b600081359050610de8816118be565b92915050565b600081359050610dfd816118d5565b92915050565b600081519050610e12816118d5565b92915050565b60008083601f840112610e2e57610e2d611793565b5b8235905067ffffffffffffffff811115610e4b57610e4a61178e565b5b602083019150836001820283011115610e6757610e66611798565b5b9250929050565b600082601f830112610e8357610e82611793565b5b8135610e93848260208601610d97565b91505092915050565b600081359050610eab816118ec565b92915050565b600081359050610ec0816118fc565b92915050565b60008060008060008060008060008060006101408c8e031215610eec57610eeb6117a7565b5b6000610efa8e828f01610dd9565b9b50506020610f0b8e828f01610eb1565b9a505060408c013567ffffffffffffffff811115610f2c57610f2b6117a2565b5b610f388e828f01610e18565b99509950506060610f4b8e828f01610e9c565b9750506080610f5c8e828f01610eb1565b96505060a0610f6d8e828f01610eb1565b95505060c0610f7e8e828f01610eb1565b94505060e0610f8f8e828f01610dd9565b935050610100610fa18e828f01610dd9565b925050610120610fb38e828f01610eb1565b9150509295989b509295989b9093969950565b600060208284031215610fdc57610fdb6117a7565b5b6000610fea84828501610dee565b91505092915050565b600060208284031215611009576110086117a7565b5b600061101784828501610e03565b91505092915050565b60008060408385031215611037576110366117a7565b5b600083013567ffffffffffffffff811115611055576110546117a2565b5b61106185828601610e6e565b925050602083013567ffffffffffffffff811115611082576110816117a2565b5b61108e85828601610e6e565b9150509250929050565b6110a18161156d565b82525050565b6110b86110b3826115ab565b611712565b82525050565b6110cf6110ca8261157f565b611708565b82525050565b6110e66110e1826115d7565b61171c565b82525050565b6110f581611603565b82525050565b61110c61110782611603565b611726565b82525050565b61111b8161160d565b82525050565b600061112d8385611540565b935061113a838584611695565b611143836117ac565b840190509392505050565b600061115982611535565b6111638185611540565b93506111738185602086016116a4565b61117c816117ac565b840191505092915050565b600061119282611535565b61119c8185611551565b93506111ac8185602086016116a4565b80840191505092915050565b6111c181611683565b82525050565b60006111d460228361155c565b91506111df826117bd565b604082019050919050565b60006111f760278361155c565b91506112028261180c565b604082019050919050565b600061121a60298361155c565b91506112258261185b565b604082019050919050565b6112398161166c565b82525050565b61124881611676565b82525050565b600061125a82856110a7565b600c8201915061126a82846110d5565b6014820191508190509392505050565b600061128682866110be565b60018201915061129682856110be565b6001820191506112a682846110fb565b602082019150819050949350505050565b60006112c38288611187565b91506112cf82876110fb565b6020820191506112df82866110be565b6001820191506112ef82856110fb565b6020820191506112ff8284611187565b91508190509695505050505050565b60006020820190506113236000830184611098565b92915050565b60006101408201905061133f600083018e611098565b61134c602083018d611230565b818103604083015261135f818b8d611121565b905061136e606083018a6111b8565b61137b6080830189611230565b61138860a0830188611230565b61139560c0830187611230565b6113a260e0830186611098565b6113b0610100830185611098565b6113be610120830184611230565b9c9b505050505050505050505050565b60006040820190506113e360008301856110ec565b6113f060208301846110ec565b9392505050565b600060208201905061140c6000830184611112565b92915050565b6000602082019050818103600083015261142c818461114e565b905092915050565b6000604082019050818103600083015261144e818561114e565b905061145d60208301846110ec565b9392505050565b6000602082019050818103600083015261147d816111c7565b9050919050565b6000602082019050818103600083015261149d816111ea565b9050919050565b600060208201905081810360008301526114bd8161120d565b9050919050565b60006020820190506114d9600083018461123f565b92915050565b60006114e96114fa565b90506114f582826116d7565b919050565b6000604051905090565b600067ffffffffffffffff82111561151f5761151e61175f565b5b611528826117ac565b9050602081019050919050565b600081519050919050565b600082825260208201905092915050565b600081905092915050565b600082825260208201905092915050565b60006115788261164c565b9050919050565b60007fff0000000000000000000000000000000000000000000000000000000000000082169050919050565b60007fffffffffffffffffffffffff000000000000000000000000000000000000000082169050919050565b60007fffffffffffffffffffffffffffffffffffffffff00000000000000000000000082169050919050565b6000819050919050565b60007fffffffff0000000000000000000000000000000000000000000000000000000082169050919050565b6000819050611647826118aa565b919050565b600073ffffffffffffffffffffffffffffffffffffffff82169050919050565b6000819050919050565b600060ff82169050919050565b600061168e82611639565b9050919050565b82818337600083830152505050565b60005b838110156116c25780820151818401526020810190506116a7565b838111156116d1576000848401525b50505050565b6116e0826117ac565b810181811067ffffffffffffffff821117156116ff576116fe61175f565b5b80604052505050565b6000819050919050565b6000819050919050565b6000819050919050565b6000819050919050565b7f4e487b7100000000000000000000000000000000000000000000000000000000600052602160045260246000fd5b7f4e487b7100000000000000000000000000000000000000000000000000000000600052604160045260246000fd5b600080fd5b600080fd5b600080fd5b600080fd5b600080fd5b600080fd5b6000601f19601f8301169050919050565b7f5369676e65723a207472616e73616374696f6e20616c7265616479207369676e60008201527f6564000000000000000000000000000000000000000000000000000000000000602082015250565b7f5369676e65723a2063616e6e6f74207369676e20696e76616c6964207472616e60008201527f73616374696f6e00000000000000000000000000000000000000000000000000602082015250565b7f5369676e65723a2063616e6e6f74207369676e20696e76616c69642066756e6360008201527f74696f6e2063616c6c0000000000000000000000000000000000000000000000602082015250565b600281106118bb576118ba611730565b5b50565b6118c78161156d565b81146118d257600080fd5b50565b6118de81611603565b81146118e957600080fd5b50565b600281106118f957600080fd5b50565b6119058161166c565b811461191057600080fd5b5056fea26469706673582212205aad62326db189273be9ee9573d36d2e72b4d2daa3bf6c0846b33edddfda210064736f6c63430008060033",
  "linkReferences": {},
  "deployedLinkReferences": {}
}