{
  "_format": "hh-sol-artifact-1",
  "contractName": "SeedFactory",
  "sourceName": "contracts/seed/SeedFactory.sol",
  "abi": [
    {
      "anonymous": false,
      "inputs": [
        {
          "indexed": true,
          "internalType": "address",
          "name": "previousOwner",
          "type": "address"
        },
        {
          "indexed": true,
          "internalType": "address",
          "name": "newOwner",
          "type": "address"
        }
      ],
      "name": "OwnershipTransferred",
      "type": "event"
    },
    {
      "anonymous": false,
      "inputs": [
        {
          "indexed": true,
          "internalType": "address",
          "name": "newSeed",
          "type": "address"
        },
        {
          "indexed": true,
          "internalType": "address",
          "name": "admin",
          "type": "address"
        }
      ],
      "name": "SeedCreated",
      "type": "event"
    },
    {
      "inputs": [
        {
          "internalType": "bytes32",
          "name": "c__0x2a1b1d6f",
          "type": "bytes32"
        }
      ],
      "name": "c_0x2a1b1d6f",
      "outputs": [],
      "stateMutability": "pure",
      "type": "function"
    },
    {
      "inputs": [
        {
          "internalType": "bytes32",
          "name": "c__0x8879f33b",
          "type": "bytes32"
        }
      ],
      "name": "c_0x8879f33b",
      "outputs": [],
      "stateMutability": "pure",
      "type": "function"
    },
    {
      "inputs": [
        {
          "internalType": "address",
          "name": "_beneficiary",
          "type": "address"
        },
        {
          "internalType": "address",
          "name": "_admin",
          "type": "address"
        },
        {
          "internalType": "address[]",
          "name": "_tokens",
          "type": "address[]"
        },
        {
          "internalType": "uint256[]",
          "name": "_softHardThresholds",
          "type": "uint256[]"
        },
        {
          "internalType": "uint256",
          "name": "_price",
          "type": "uint256"
        },
        {
          "internalType": "uint256",
          "name": "_startTime",
          "type": "uint256"
        },
        {
          "internalType": "uint256",
          "name": "_endTime",
          "type": "uint256"
        },
        {
          "internalType": "uint32[]",
          "name": "_vestingDurationAndCliff",
          "type": "uint32[]"
        },
        {
          "internalType": "bool",
          "name": "_permissionedSeed",
          "type": "bool"
        },
        {
          "internalType": "uint256",
          "name": "_fee",
          "type": "uint256"
        },
        {
          "internalType": "bytes",
          "name": "_metadata",
          "type": "bytes"
        }
      ],
      "name": "deploySeed",
      "outputs": [
        {
          "internalType": "address",
          "name": "",
          "type": "address"
        }
      ],
      "stateMutability": "nonpayable",
      "type": "function"
    },
    {
      "inputs": [],
      "name": "masterCopy",
      "outputs": [
        {
          "internalType": "contract Seed",
          "name": "",
          "type": "address"
        }
      ],
      "stateMutability": "view",
      "type": "function"
    },
    {
      "inputs": [],
      "name": "owner",
      "outputs": [
        {
          "internalType": "address",
          "name": "",
          "type": "address"
        }
      ],
      "stateMutability": "view",
      "type": "function"
    },
    {
      "inputs": [],
      "name": "renounceOwnership",
      "outputs": [],
      "stateMutability": "nonpayable",
      "type": "function"
    },
    {
      "inputs": [
        {
          "internalType": "contract Seed",
          "name": "_masterCopy",
          "type": "address"
        }
      ],
      "name": "setMasterCopy",
      "outputs": [],
      "stateMutability": "nonpayable",
      "type": "function"
    },
    {
      "inputs": [
        {
          "internalType": "address",
          "name": "newOwner",
          "type": "address"
        }
      ],
      "name": "transferOwnership",
      "outputs": [],
      "stateMutability": "nonpayable",
      "type": "function"
    }
  ],
  "bytecode": "0x608060405234801561001057600080fd5b5061002d61002261003260201b60201c565b61003a60201b60201c565b6100fe565b600033905090565b60008060009054906101000a900473ffffffffffffffffffffffffffffffffffffffff169050816000806101000a81548173ffffffffffffffffffffffffffffffffffffffff021916908373ffffffffffffffffffffffffffffffffffffffff1602179055508173ffffffffffffffffffffffffffffffffffffffff168173ffffffffffffffffffffffffffffffffffffffff167f8be0079c531659141344cd1fd0a4f28419497f9722a3daafe3b4186f6b6457e060405160405180910390a35050565b611be58061010d6000396000f3fe608060405234801561001057600080fd5b50600436106100885760003560e01c8063c721777a1161005b578063c721777a146100ef578063cf497e6c1461010b578063da235e6e14610127578063f2fde38b1461015757610088565b8063715018a61461008d5780637c1288e4146100975780638da5cb5b146100b3578063a619486e146100d1575b600080fd5b610095610173565b005b6100b160048036038101906100ac919061126c565b6101fb565b005b6100bb6101fe565b6040516100c89190611503565b60405180910390f35b6100d9610227565b6040516100e691906115f9565b60405180910390f35b6101096004803603810190610104919061126c565b61024d565b005b61012560048036038101906101209190611299565b610250565b005b610141600480360381019061013c9190611108565b6104b4565b60405161014e9190611503565b60405180910390f35b610171600480360381019061016c91906110db565b610b34565b005b61017b610c2c565b73ffffffffffffffffffffffffffffffffffffffff166101996101fe565b73ffffffffffffffffffffffffffffffffffffffff16146101ef576040517f08c379a00000000000000000000000000000000000000000000000000000000081526004016101e690611654565b60405180910390fd5b6101f96000610c34565b565b50565b60008060009054906101000a900473ffffffffffffffffffffffffffffffffffffffff16905090565b600160009054906101000a900473ffffffffffffffffffffffffffffffffffffffff1681565b50565b610258610c2c565b73ffffffffffffffffffffffffffffffffffffffff166102766101fe565b73ffffffffffffffffffffffffffffffffffffffff16146102cc576040517f08c379a00000000000000000000000000000000000000000000000000000000081526004016102c390611654565b60405180910390fd5b6102f87f6052a967d1c9ba2b27a8c2e0e0ffbd129dd25422ceed326a618cf407595745d160001b6101fb565b6103247f2c1a9ea181b4be16970e00e996b45c4b6f9a6185eb517e7246ab8e929b1b3c8460001b6101fb565b6103507f26721a1b2b80818b57abd8c62396dda2d45b7e6c70da0a7aca776b76f601029a60001b6101fb565b61037c7f3f592251235af965fc0733e4eb6b38ce62a70c9564724be13a6ef0dad14bf79960001b6101fb565b600073ffffffffffffffffffffffffffffffffffffffff168173ffffffffffffffffffffffffffffffffffffffff1614156103ec576040517f08c379a00000000000000000000000000000000000000000000000000000000081526004016103e390611674565b60405180910390fd5b6104187f6a2202302094c7242f78da48f53182bec9b1bbdbc6d6320807a7e2599964f8dc60001b6101fb565b6104447f61deb715728a46779de3e7f0b2a508d2c19063768a68d84238dd5548573e7c8a60001b6101fb565b6104707fc77769a469477152985d5d5005b4f713f2a3cfe47ab7817d2ba5774aaed5405e60001b6101fb565b80600160006101000a81548173ffffffffffffffffffffffffffffffffffffffff021916908373ffffffffffffffffffffffffffffffffffffffff16021790555050565b60006104be610c2c565b73ffffffffffffffffffffffffffffffffffffffff166104dc6101fe565b73ffffffffffffffffffffffffffffffffffffffff1614610532576040517f08c379a000000000000000000000000000000000000000000000000000000000815260040161052990611654565b60405180910390fd5b61055e7fd6757e04575439100c16919ed515b161bafe9efb1a5e027b38a7e24a289df44560001b6101fb565b61058a7f9ef24916c694e32341ccf278135fcf50b4a9e47a5d749f28df41845e0671129e60001b6101fb565b6105b67fcd18bee1e0a883529b6a06794fa90fff82a4a313775e3b85232cfc93ee72e06c60001b6101fb565b6105e27f39b65004cce3b0dfc3f50b0f36295b2455e456fd5941c9318dac052b0beabd1d60001b6101fb565b61060e7f99b83f51be59164213082b4d967b3c24a2cd5f1e7d60f188c94742d30d284f4260001b6101fb565b600073ffffffffffffffffffffffffffffffffffffffff16600160009054906101000a900473ffffffffffffffffffffffffffffffffffffffff1673ffffffffffffffffffffffffffffffffffffffff1614156106a0576040517f08c379a000000000000000000000000000000000000000000000000000000000815260040161069790611614565b60405180910390fd5b6106cc7f69cd78296f8bdb90a7720d183914cae091e628c8a7119a4b857e2dc03828b5ed60001b6101fb565b6106f87f7def7d92e3510222f8882abf957c7d659674297e8d708ffebc0d3621e2738a7760001b6101fb565b6107247fa3314c8de5237ad6660e31e27e89c0156412c5963f798aaa65f3cbc9c5a996e960001b6101fb565b6107507fed3e733fdaf74bc58ccfdd63d4397c04b379223017e9e92ba91d76c3512b22e460001b6101fb565b6002855114610794576040517f08c379a000000000000000000000000000000000000000000000000000000000815260040161078b90611694565b60405180910390fd5b6107c07ff0191529f381e2518da76f0ed2dabd20659c526c5537d2c453fb5278ff61882960001b6101fb565b6107ec7f0964543b3be83490ed31f66ee9ec36ae06657737a81077bc11eeae3073f7cdb260001b6101fb565b6108187f47f76d20a6e0116f821888a3896de0090cf8f7842fab2caa7001aba6ab82cbbf60001b6101fb565b6000610845600160009054906101000a900473ffffffffffffffffffffffffffffffffffffffff16610cf8565b90506108737ffe58e6047cfb88a9080a5a144326cd2fa4fb33add18d1f76ce88fcc05efd571960001b6101fb565b61089f7fd21f5b5e0a14be346428bc730133d5cb52d47ac141f1a2c4ae44f37c4b0d45b560001b6101fb565b8073ffffffffffffffffffffffffffffffffffffffff1663fc582d41846040518263ffffffff1660e01b81526004016108d891906115d7565b600060405180830381600087803b1580156108f257600080fd5b505af1158015610906573d6000803e3d6000fd5b505050506109367fe3c05cd196b21a57e2e4b0b55a85d723ab3b2469db1a1d358bdf92859170850960001b6101fb565b6109627faaffedca9644fe0236e438e6094d60e6fb79538aa25aed21a9b4967f39afa2a160001b6101fb565b8073ffffffffffffffffffffffffffffffffffffffff166344f9abb88e8e8e8e8e8e8e8e60008151811061099957610998611938565b5b60200260200101518f6001815181106109b5576109b4611938565b5b60200260200101518f8f6040518c63ffffffff1660e01b81526004016109e59b9a9998979695949392919061151e565b600060405180830381600087803b1580156109ff57600080fd5b505af1158015610a13573d6000803e3d6000fd5b50505050610a437f17396d6ae549648802cb5d3179767d102b991ab99e3f23b98ed398bd9d059cf360001b6101fb565b610a6f7fd83c1845a5b4fcbca4b79896a4eb32df6cd2ccbd1c4ca2fd1471d11484be6f3360001b6101fb565b8b73ffffffffffffffffffffffffffffffffffffffff168173ffffffffffffffffffffffffffffffffffffffff167f23fea745ec0ebbc17cc138cc8d1baca7bde3ce83b1fd6d5e1de583961586363960405160405180910390a3610af57faf971e633443b1e93196188584f6d4288372df6394e9777d21f3f961fbab43e960001b6101fb565b610b217f3c3f81ef9dfd98754578e48ca3c2c53df3495621343ec3faf93dda543441e66760001b6101fb565b809150509b9a5050505050505050505050565b610b3c610c2c565b73ffffffffffffffffffffffffffffffffffffffff16610b5a6101fe565b73ffffffffffffffffffffffffffffffffffffffff1614610bb0576040517f08c379a0000000000000000000000000000000000000000000000000000000008152600401610ba790611654565b60405180910390fd5b600073ffffffffffffffffffffffffffffffffffffffff168173ffffffffffffffffffffffffffffffffffffffff161415610c20576040517f08c379a0000000000000000000000000000000000000000000000000000000008152600401610c1790611634565b60405180910390fd5b610c2981610c34565b50565b600033905090565b60008060009054906101000a900473ffffffffffffffffffffffffffffffffffffffff169050816000806101000a81548173ffffffffffffffffffffffffffffffffffffffff021916908373ffffffffffffffffffffffffffffffffffffffff1602179055508173ffffffffffffffffffffffffffffffffffffffff168173ffffffffffffffffffffffffffffffffffffffff167f8be0079c531659141344cd1fd0a4f28419497f9722a3daafe3b4186f6b6457e060405160405180910390a35050565b6000610d267fdf3d5ba52839f217180c10c51a6322634997864358b84656003501f40d1be97f60001b61024d565b610d527f106b33e31d814c776320832fa47877dda837617c54dd0d04fa47f4129fb6762460001b61024d565b610d7e7f07d70f81da9823bf1bf3402cc0526e22810f7a2baca5ffa4b7c37529f4b44dc460001b61024d565b60008260601b9050610db27ffbe6a491c7a26b3b8983f763ba6ca309578972b755a3b8685630563fc4e1b2f260001b61024d565b6040517f3d602d80600a3d3981f3363d3d373d3d3d363d7300000000000000000000000081528160148201527f5af43d82803e903d91602b57fd5bf3000000000000000000000000000000000060288201526037816000f092505050919050565b6000610e26610e21846116d9565b6116b4565b90508083825260208201905082856020860282011115610e4957610e4861199b565b5b60005b85811015610e795781610e5f8882610fa5565b845260208401935060208301925050600181019050610e4c565b5050509392505050565b6000610e96610e9184611705565b6116b4565b90508083825260208201905082856020860282011115610eb957610eb861199b565b5b60005b85811015610ee95781610ecf88826110b1565b845260208401935060208301925050600181019050610ebc565b5050509392505050565b6000610f06610f0184611731565b6116b4565b90508083825260208201905082856020860282011115610f2957610f2861199b565b5b60005b85811015610f595781610f3f88826110c6565b845260208401935060208301925050600181019050610f2c565b5050509392505050565b6000610f76610f718461175d565b6116b4565b905082815260208101848484011115610f9257610f916119a0565b5b610f9d8482856118c5565b509392505050565b600081359050610fb481611b25565b92915050565b600082601f830112610fcf57610fce611996565b5b8135610fdf848260208601610e13565b91505092915050565b600082601f830112610ffd57610ffc611996565b5b813561100d848260208601610e83565b91505092915050565b600082601f83011261102b5761102a611996565b5b813561103b848260208601610ef3565b91505092915050565b60008135905061105381611b3c565b92915050565b60008135905061106881611b53565b92915050565b600082601f83011261108357611082611996565b5b8135611093848260208601610f63565b91505092915050565b6000813590506110ab81611b6a565b92915050565b6000813590506110c081611b81565b92915050565b6000813590506110d581611b98565b92915050565b6000602082840312156110f1576110f06119aa565b5b60006110ff84828501610fa5565b91505092915050565b60008060008060008060008060008060006101608c8e03121561112e5761112d6119aa565b5b600061113c8e828f01610fa5565b9b5050602061114d8e828f01610fa5565b9a505060408c013567ffffffffffffffff81111561116e5761116d6119a5565b5b61117a8e828f01610fba565b99505060608c013567ffffffffffffffff81111561119b5761119a6119a5565b5b6111a78e828f01610fe8565b98505060806111b88e828f016110b1565b97505060a06111c98e828f016110b1565b96505060c06111da8e828f016110b1565b95505060e08c013567ffffffffffffffff8111156111fb576111fa6119a5565b5b6112078e828f01611016565b9450506101006112198e828f01611044565b93505061012061122b8e828f016110b1565b9250506101408c013567ffffffffffffffff81111561124d5761124c6119a5565b5b6112598e828f0161106e565b9150509295989b509295989b9093969950565b600060208284031215611282576112816119aa565b5b600061129084828501611059565b91505092915050565b6000602082840312156112af576112ae6119aa565b5b60006112bd8482850161109c565b91505092915050565b60006112d283836112f6565b60208301905092915050565b60006112ea83836114d6565b60208301905092915050565b6112ff8161182d565b82525050565b61130e8161182d565b82525050565b600061131f826117ae565b61132981856117e9565b93506113348361178e565b8060005b8381101561136557815161134c88826112c6565b9750611357836117cf565b925050600181019050611338565b5085935050505092915050565b600061137d826117b9565b61138781856117fa565b93506113928361179e565b8060005b838110156113c35781516113aa88826112de565b97506113b5836117dc565b925050600181019050611396565b5085935050505092915050565b6113d98161183f565b82525050565b60006113ea826117c4565b6113f4818561180b565b93506114048185602086016118d4565b61140d816119af565b840191505092915050565b611421816118a1565b82525050565b6000611434602e8361181c565b915061143f826119c0565b604082019050919050565b600061145760268361181c565b915061146282611a0f565b604082019050919050565b600061147a60208361181c565b915061148582611a5e565b602082019050919050565b600061149d60328361181c565b91506114a882611a87565b604082019050919050565b60006114c0603c8361181c565b91506114cb82611ad6565b604082019050919050565b6114df81611887565b82525050565b6114ee81611887565b82525050565b6114fd81611891565b82525050565b60006020820190506115186000830184611305565b92915050565b600061016082019050611534600083018e611305565b611541602083018d611305565b8181036040830152611553818c611314565b90508181036060830152611567818b611372565b9050611576608083018a6114e5565b61158360a08301896114e5565b61159060c08301886114e5565b61159d60e08301876114f4565b6115ab6101008301866114f4565b6115b96101208301856113d0565b6115c76101408301846114e5565b9c9b505050505050505050505050565b600060208201905081810360008301526115f181846113df565b905092915050565b600060208201905061160e6000830184611418565b92915050565b6000602082019050818103600083015261162d81611427565b9050919050565b6000602082019050818103600083015261164d8161144a565b9050919050565b6000602082019050818103600083015261166d8161146d565b9050919050565b6000602082019050818103600083015261168d81611490565b9050919050565b600060208201905081810360008301526116ad816114b3565b9050919050565b60006116be6116cf565b90506116ca8282611907565b919050565b6000604051905090565b600067ffffffffffffffff8211156116f4576116f3611967565b5b602082029050602081019050919050565b600067ffffffffffffffff8211156117205761171f611967565b5b602082029050602081019050919050565b600067ffffffffffffffff82111561174c5761174b611967565b5b602082029050602081019050919050565b600067ffffffffffffffff82111561177857611777611967565b5b611781826119af565b9050602081019050919050565b6000819050602082019050919050565b6000819050602082019050919050565b600081519050919050565b600081519050919050565b600081519050919050565b6000602082019050919050565b6000602082019050919050565b600082825260208201905092915050565b600082825260208201905092915050565b600082825260208201905092915050565b600082825260208201905092915050565b600061183882611867565b9050919050565b60008115159050919050565b6000819050919050565b60006118608261182d565b9050919050565b600073ffffffffffffffffffffffffffffffffffffffff82169050919050565b6000819050919050565b600063ffffffff82169050919050565b60006118ac826118b3565b9050919050565b60006118be82611867565b9050919050565b82818337600083830152505050565b60005b838110156118f25780820151818401526020810190506118d7565b83811115611901576000848401525b50505050565b611910826119af565b810181811067ffffffffffffffff8211171561192f5761192e611967565b5b80604052505050565b7f4e487b7100000000000000000000000000000000000000000000000000000000600052603260045260246000fd5b7f4e487b7100000000000000000000000000000000000000000000000000000000600052604160045260246000fd5b600080fd5b600080fd5b600080fd5b600080fd5b600080fd5b6000601f19601f8301169050919050565b7f53656564466163746f72793a206d6173746572636f70792063616e6e6f74206260008201527f65207a65726f2061646472657373000000000000000000000000000000000000602082015250565b7f4f776e61626c653a206e6577206f776e657220697320746865207a65726f206160008201527f6464726573730000000000000000000000000000000000000000000000000000602082015250565b7f4f776e61626c653a2063616c6c6572206973206e6f7420746865206f776e6572600082015250565b7f53656564466163746f72793a206e6577206d6173746572636f70792063616e6e60008201527f6f74206265207a65726f20616464726573730000000000000000000000000000602082015250565b7f53656564466163746f72793a204861736e27742070726f766964656420626f7460008201527f682076657374696e67206475726174696f6e20616e6420636c69666600000000602082015250565b611b2e8161182d565b8114611b3957600080fd5b50565b611b458161183f565b8114611b5057600080fd5b50565b611b5c8161184b565b8114611b6757600080fd5b50565b611b7381611855565b8114611b7e57600080fd5b50565b611b8a81611887565b8114611b9557600080fd5b50565b611ba181611891565b8114611bac57600080fd5b5056fea2646970667358221220ea26e9a6286751dfe27c1e63a34102f4a1566abf4679dc762d2124ef0e452f2264736f6c63430008060033",
  "linkReferences": {},
  "deployedLinkReferences": {}
}