{
  "_format": "hh-sol-artifact-1",
  "contractName": "SeedFactory",
  "sourceName": "contracts/seed/SeedFactory.sol",
  "abi": [
    {
      "anonymous": false,
      "inputs": [
        {
          "indexed": true,
          "internalType": "address",
          "name": "previousOwner",
          "type": "address"
        },
        {
          "indexed": true,
          "internalType": "address",
          "name": "newOwner",
          "type": "address"
        }
      ],
      "name": "OwnershipTransferred",
      "type": "event"
    },
    {
      "anonymous": false,
      "inputs": [
        {
          "indexed": true,
          "internalType": "address",
          "name": "newSeed",
          "type": "address"
        },
        {
          "indexed": true,
          "internalType": "address",
          "name": "admin",
          "type": "address"
        }
      ],
      "name": "SeedCreated",
      "type": "event"
    },
    {
      "inputs": [
        {
          "internalType": "address",
          "name": "_beneficiary",
          "type": "address"
        },
        {
          "internalType": "address",
          "name": "_admin",
          "type": "address"
        },
        {
          "internalType": "address[]",
          "name": "_tokens",
          "type": "address[]"
        },
        {
          "internalType": "uint256[]",
          "name": "_softHardThresholds",
          "type": "uint256[]"
        },
        {
          "internalType": "uint256",
          "name": "_price",
          "type": "uint256"
        },
        {
          "internalType": "uint256",
          "name": "_startTime",
          "type": "uint256"
        },
        {
          "internalType": "uint256",
          "name": "_endTime",
          "type": "uint256"
        },
        {
          "internalType": "uint32[]",
          "name": "_vestingDurationAndCliff",
          "type": "uint32[]"
        },
        {
          "internalType": "bool",
          "name": "_permissionedSeed",
          "type": "bool"
        },
        {
          "internalType": "uint256",
          "name": "_fee",
          "type": "uint256"
        },
        {
          "internalType": "bytes",
          "name": "_metadata",
          "type": "bytes"
        }
      ],
      "name": "deploySeed",
      "outputs": [
        {
          "internalType": "address",
          "name": "",
          "type": "address"
        }
      ],
      "stateMutability": "nonpayable",
      "type": "function"
    },
    {
      "inputs": [],
      "name": "masterCopy",
      "outputs": [
        {
          "internalType": "contract Seed",
          "name": "",
          "type": "address"
        }
      ],
      "stateMutability": "view",
      "type": "function"
    },
    {
      "inputs": [],
      "name": "owner",
      "outputs": [
        {
          "internalType": "address",
          "name": "",
          "type": "address"
        }
      ],
      "stateMutability": "view",
      "type": "function"
    },
    {
      "inputs": [],
      "name": "renounceOwnership",
      "outputs": [],
      "stateMutability": "nonpayable",
      "type": "function"
    },
    {
      "inputs": [
        {
          "internalType": "contract Seed",
          "name": "_masterCopy",
          "type": "address"
        }
      ],
      "name": "setMasterCopy",
      "outputs": [],
      "stateMutability": "nonpayable",
      "type": "function"
    },
    {
      "inputs": [
        {
          "internalType": "address",
          "name": "newOwner",
          "type": "address"
        }
      ],
      "name": "transferOwnership",
      "outputs": [],
      "stateMutability": "nonpayable",
      "type": "function"
    }
  ],
  "bytecode": "0x608060405234801561001057600080fd5b5061001a3361001f565b61006f565b600080546001600160a01b038381166001600160a01b0319831681178455604051919092169283917f8be0079c531659141344cd1fd0a4f28419497f9722a3daafe3b4186f6b6457e09190a35050565b610b0f8061007e6000396000f3fe608060405234801561001057600080fd5b50600436106100625760003560e01c8063715018a6146100675780638da5cb5b14610071578063a619486e1461009a578063cf497e6c146100ad578063da235e6e146100c0578063f2fde38b146100d3575b600080fd5b61006f6100e6565b005b6000546001600160a01b03165b6040516001600160a01b03909116815260200160405180910390f35b60015461007e906001600160a01b031681565b61006f6100bb36600461078a565b610125565b61007e6100ce3660046107ae565b6101e2565b61006f6100e136600461078a565b610462565b6000546001600160a01b031633146101195760405162461bcd60e51b815260040161011090610a0e565b60405180910390fd5b61012360006104fd565b565b6000546001600160a01b0316331461014f5760405162461bcd60e51b815260040161011090610a0e565b6001600160a01b0381166101c05760405162461bcd60e51b815260206004820152603260248201527f53656564466163746f72793a206e6577206d6173746572636f70792063616e6e6044820152716f74206265207a65726f206164647265737360701b6064820152608401610110565b600180546001600160a01b0319166001600160a01b0392909216919091179055565b600080546001600160a01b0316331461020d5760405162461bcd60e51b815260040161011090610a0e565b6001546001600160a01b031661027c5760405162461bcd60e51b815260206004820152602e60248201527f53656564466163746f72793a206d6173746572636f70792063616e6e6f74206260448201526d65207a65726f206164647265737360901b6064820152608401610110565b84516002146102f35760405162461bcd60e51b815260206004820152603c60248201527f53656564466163746f72793a204861736e27742070726f766964656420626f7460448201527f682076657374696e67206475726174696f6e20616e6420636c696666000000006064820152608401610110565b60015460009061030b906001600160a01b031661054d565b60405163fc582d4160e01b81529091506001600160a01b0382169063fc582d419061033a9086906004016109b9565b600060405180830381600087803b15801561035457600080fd5b505af1158015610368573d6000803e3d6000fd5b50505050806001600160a01b03166344f9abb88e8e8e8e8e8e8e8e60008151811061039557610395610a98565b60200260200101518f6001815181106103b0576103b0610a98565b60200260200101518f8f6040518c63ffffffff1660e01b81526004016103e09b9a999897969594939291906108f8565b600060405180830381600087803b1580156103fa57600080fd5b505af115801561040e573d6000803e3d6000fd5b505050508b6001600160a01b0316816001600160a01b03167f23fea745ec0ebbc17cc138cc8d1baca7bde3ce83b1fd6d5e1de583961586363960405160405180910390a39c9b505050505050505050505050565b6000546001600160a01b0316331461048c5760405162461bcd60e51b815260040161011090610a0e565b6001600160a01b0381166104f15760405162461bcd60e51b815260206004820152602660248201527f4f776e61626c653a206e6577206f776e657220697320746865207a65726f206160448201526564647265737360d01b6064820152608401610110565b6104fa816104fd565b50565b600080546001600160a01b038381166001600160a01b0319831681178455604051919092169283917f8be0079c531659141344cd1fd0a4f28419497f9722a3daafe3b4186f6b6457e09190a35050565b6000808260601b9050604051733d602d80600a3d3981f3363d3d373d3d3d363d7360601b81528160148201526e5af43d82803e903d91602b57fd5bf360881b60288201526037816000f0949350505050565b80356105aa81610ac4565b919050565b600082601f8301126105c057600080fd5b813560206105d56105d083610a74565b610a43565b80838252828201915082860187848660051b89010111156105f557600080fd5b60005b8581101561061d57813561060b81610ac4565b845292840192908401906001016105f8565b5090979650505050505050565b600082601f83011261063b57600080fd5b8135602061064b6105d083610a74565b80838252828201915082860187848660051b890101111561066b57600080fd5b60005b8581101561061d5781358452928401929084019060010161066e565b600082601f83011261069b57600080fd5b813560206106ab6105d083610a74565b80838252828201915082860187848660051b89010111156106cb57600080fd5b6000805b868110156106fc57823563ffffffff811681146106ea578283fd5b855293850193918501916001016106cf565b509198975050505050505050565b803580151581146105aa57600080fd5b600082601f83011261072b57600080fd5b813567ffffffffffffffff81111561074557610745610aae565b610758601f8201601f1916602001610a43565b81815284602083860101111561076d57600080fd5b816020850160208301376000918101602001919091529392505050565b60006020828403121561079c57600080fd5b81356107a781610ac4565b9392505050565b60008060008060008060008060008060006101608c8e0312156107d057600080fd5b6107d98c61059f565b9a506107e760208d0161059f565b995067ffffffffffffffff8060408e0135111561080357600080fd5b6108138e60408f01358f016105af565b99508060608e0135111561082657600080fd5b6108368e60608f01358f0161062a565b985060808d0135975060a08d0135965060c08d013595508060e08e0135111561085e57600080fd5b61086e8e60e08f01358f0161068a565b945061087d6101008e0161070a565b93506101208d01359250806101408e0135111561089957600080fd5b506108ab8d6101408e01358e0161071a565b90509295989b509295989b9093969950565b600081518084526020808501945080840160005b838110156108ed578151875295820195908201906001016108d1565b509495945050505050565b6000610160820160018060a01b03808f168452808e1660208501526101606040850152818d518084526101808601915060208f01935060005b818110156109515784518416835260209485019490920191600101610931565b50508481036060860152610965818e6108bd565b93505050508860808301528760a08301528660c083015261098e60e083018763ffffffff169052565b63ffffffff949094166101008201529115156101208301526101409091015298975050505050505050565b600060208083528351808285015260005b818110156109e6578581018301518582016040015282016109ca565b818111156109f8576000604083870101525b50601f01601f1916929092016040019392505050565b6020808252818101527f4f776e61626c653a2063616c6c6572206973206e6f7420746865206f776e6572604082015260600190565b604051601f8201601f1916810167ffffffffffffffff81118282101715610a6c57610a6c610aae565b604052919050565b600067ffffffffffffffff821115610a8e57610a8e610aae565b5060051b60200190565b634e487b7160e01b600052603260045260246000fd5b634e487b7160e01b600052604160045260246000fd5b6001600160a01b03811681146104fa57600080fdfea264697066735822122099c42486b092ff30530373260343ab38c3cf1fb11975b33673d8f5cb71eccb8364736f6c63430008060033",
  "linkReferences": {},
  "deployedLinkReferences": {}
}