{
  "_format": "hh-sol-artifact-1",
  "contractName": "PrimeToken",
  "sourceName": "contracts/test/PrimeToken.sol",
  "abi": [
    {
      "inputs": [
        {
          "internalType": "uint256",
          "name": "initialSupply",
          "type": "uint256"
        },
        {
          "internalType": "uint256",
          "name": "cap",
          "type": "uint256"
        },
        {
          "internalType": "address",
          "name": "genesisMultisig",
          "type": "address"
        }
      ],
      "stateMutability": "nonpayable",
      "type": "constructor"
    },
    {
      "anonymous": false,
      "inputs": [
        {
          "indexed": true,
          "internalType": "address",
          "name": "owner",
          "type": "address"
        },
        {
          "indexed": true,
          "internalType": "address",
          "name": "spender",
          "type": "address"
        },
        {
          "indexed": false,
          "internalType": "uint256",
          "name": "value",
          "type": "uint256"
        }
      ],
      "name": "Approval",
      "type": "event"
    },
    {
      "anonymous": false,
      "inputs": [
        {
          "indexed": true,
          "internalType": "address",
          "name": "from",
          "type": "address"
        },
        {
          "indexed": true,
          "internalType": "address",
          "name": "to",
          "type": "address"
        },
        {
          "indexed": false,
          "internalType": "uint256",
          "name": "value",
          "type": "uint256"
        }
      ],
      "name": "Transfer",
      "type": "event"
    },
    {
      "inputs": [
        {
          "internalType": "address",
          "name": "owner",
          "type": "address"
        },
        {
          "internalType": "address",
          "name": "spender",
          "type": "address"
        }
      ],
      "name": "allowance",
      "outputs": [
        {
          "internalType": "uint256",
          "name": "",
          "type": "uint256"
        }
      ],
      "stateMutability": "view",
      "type": "function"
    },
    {
      "inputs": [
        {
          "internalType": "address",
          "name": "spender",
          "type": "address"
        },
        {
          "internalType": "uint256",
          "name": "amount",
          "type": "uint256"
        }
      ],
      "name": "approve",
      "outputs": [
        {
          "internalType": "bool",
          "name": "",
          "type": "bool"
        }
      ],
      "stateMutability": "nonpayable",
      "type": "function"
    },
    {
      "inputs": [
        {
          "internalType": "address",
          "name": "account",
          "type": "address"
        }
      ],
      "name": "balanceOf",
      "outputs": [
        {
          "internalType": "uint256",
          "name": "",
          "type": "uint256"
        }
      ],
      "stateMutability": "view",
      "type": "function"
    },
    {
      "inputs": [
        {
          "internalType": "bytes32",
          "name": "c__0x1be34673",
          "type": "bytes32"
        }
      ],
      "name": "c_0x1be34673",
      "outputs": [],
      "stateMutability": "pure",
      "type": "function"
    },
    {
      "inputs": [],
      "name": "cap",
      "outputs": [
        {
          "internalType": "uint256",
          "name": "",
          "type": "uint256"
        }
      ],
      "stateMutability": "view",
      "type": "function"
    },
    {
      "inputs": [],
      "name": "decimals",
      "outputs": [
        {
          "internalType": "uint8",
          "name": "",
          "type": "uint8"
        }
      ],
      "stateMutability": "view",
      "type": "function"
    },
    {
      "inputs": [
        {
          "internalType": "address",
          "name": "spender",
          "type": "address"
        },
        {
          "internalType": "uint256",
          "name": "subtractedValue",
          "type": "uint256"
        }
      ],
      "name": "decreaseAllowance",
      "outputs": [
        {
          "internalType": "bool",
          "name": "",
          "type": "bool"
        }
      ],
      "stateMutability": "nonpayable",
      "type": "function"
    },
    {
      "inputs": [
        {
          "internalType": "address",
          "name": "spender",
          "type": "address"
        },
        {
          "internalType": "uint256",
          "name": "addedValue",
          "type": "uint256"
        }
      ],
      "name": "increaseAllowance",
      "outputs": [
        {
          "internalType": "bool",
          "name": "",
          "type": "bool"
        }
      ],
      "stateMutability": "nonpayable",
      "type": "function"
    },
    {
      "inputs": [],
      "name": "name",
      "outputs": [
        {
          "internalType": "string",
          "name": "",
          "type": "string"
        }
      ],
      "stateMutability": "view",
      "type": "function"
    },
    {
      "inputs": [],
      "name": "symbol",
      "outputs": [
        {
          "internalType": "string",
          "name": "",
          "type": "string"
        }
      ],
      "stateMutability": "view",
      "type": "function"
    },
    {
      "inputs": [],
      "name": "totalSupply",
      "outputs": [
        {
          "internalType": "uint256",
          "name": "",
          "type": "uint256"
        }
      ],
      "stateMutability": "view",
      "type": "function"
    },
    {
      "inputs": [
        {
          "internalType": "address",
          "name": "recipient",
          "type": "address"
        },
        {
          "internalType": "uint256",
          "name": "amount",
          "type": "uint256"
        }
      ],
      "name": "transfer",
      "outputs": [
        {
          "internalType": "bool",
          "name": "",
          "type": "bool"
        }
      ],
      "stateMutability": "nonpayable",
      "type": "function"
    },
    {
      "inputs": [
        {
          "internalType": "address",
          "name": "sender",
          "type": "address"
        },
        {
          "internalType": "address",
          "name": "recipient",
          "type": "address"
        },
        {
          "internalType": "uint256",
          "name": "amount",
          "type": "uint256"
        }
      ],
      "name": "transferFrom",
      "outputs": [
        {
          "internalType": "bool",
          "name": "",
          "type": "bool"
        }
      ],
      "stateMutability": "nonpayable",
      "type": "function"
    }
  ],
  "bytecode": "0x60a06040523480156200001157600080fd5b5060405162001e8c38038062001e8c833981810160405281019062000037919062000525565b816040518060400160405280600e81526020017f5072696d6544414f20546f6b656e0000000000000000000000000000000000008152506040518060400160405280600581526020017f5052494d450000000000000000000000000000000000000000000000000000008152508160039080519060200190620000bc92919062000447565b508060049080519060200190620000d592919062000447565b505050600081116200011e576040517f08c379a00000000000000000000000000000000000000000000000000000000081526004016200011590620005e0565b60405180910390fd5b8060808181525050506200015b7fc5284038a61fe02d26e5e613020fa76e9f949446bb355df41a93e8734eb2413360001b620002c160201b60201c565b6200018f7fa200e52ca6e90e3e9acc2bc126305c3563db0d09f63aacbeb664caae5842cc1360001b620002c160201b60201c565b620001c37f3f1b9b7ebe947faed02dbea7e60d2f7ccc62f1a45567932944207da6c6617c9e60001b620002c160201b60201c565b620001f77f13bc93a7598c19ef45e2cd07e0f3c6232fd537e318559da20a7023536ae266d860001b620002c160201b60201c565b818311156200020557600080fd5b620002397f79f4a9f4afa5302ba6f0ec6a7b2ff8eeabbadbf266c3015bfdc8c9912b07e27060001b620002c160201b60201c565b6200026d7f883fe4531b7392234c4b334045ab00d5ad858e6fe2c242dde814a2098c0547f760001b620002c160201b60201c565b620002a17fe2bd358fe76299daf935a07b4de6eb39f07f458e4a52d98efb8987fc987ef27e60001b620002c160201b60201c565b620002b88184620002c460201b620007d21760201c565b5050506200080c565b50565b600073ffffffffffffffffffffffffffffffffffffffff168273ffffffffffffffffffffffffffffffffffffffff16141562000337576040517f08c379a00000000000000000000000000000000000000000000000000000000081526004016200032e9062000602565b60405180910390fd5b6200034b600083836200043d60201b60201c565b80600260008282546200035f919062000652565b92505081905550806000808473ffffffffffffffffffffffffffffffffffffffff1673ffffffffffffffffffffffffffffffffffffffff1681526020019081526020016000206000828254620003b6919062000652565b925050819055508173ffffffffffffffffffffffffffffffffffffffff16600073ffffffffffffffffffffffffffffffffffffffff167fddf252ad1be2c89b69c2b068fc378daa952ba7f163c4a11628f55a4df523b3ef836040516200041d919062000624565b60405180910390a362000439600083836200044260201b60201c565b5050565b505050565b505050565b8280546200045590620006ed565b90600052602060002090601f016020900481019282620004795760008555620004c5565b82601f106200049457805160ff1916838001178555620004c5565b82800160010185558215620004c5579182015b82811115620004c4578251825591602001919060010190620004a7565b5b509050620004d49190620004d8565b5090565b5b80821115620004f3576000816000905550600101620004d9565b5090565b6000815190506200050881620007d8565b92915050565b6000815190506200051f81620007f2565b92915050565b60008060006060848603121562000541576200054062000781565b5b600062000551868287016200050e565b935050602062000564868287016200050e565b92505060406200057786828701620004f7565b9150509250925092565b60006200059060158362000641565b91506200059d8262000786565b602082019050919050565b6000620005b7601f8362000641565b9150620005c482620007af565b602082019050919050565b620005da81620006e3565b82525050565b60006020820190508181036000830152620005fb8162000581565b9050919050565b600060208201905081810360008301526200061d81620005a8565b9050919050565b60006020820190506200063b6000830184620005cf565b92915050565b600082825260208201905092915050565b60006200065f82620006e3565b91506200066c83620006e3565b9250827fffffffffffffffffffffffffffffffffffffffffffffffffffffffffffffffff03821115620006a457620006a362000723565b5b828201905092915050565b6000620006bc82620006c3565b9050919050565b600073ffffffffffffffffffffffffffffffffffffffff82169050919050565b6000819050919050565b600060028204905060018216806200070657607f821691505b602082108114156200071d576200071c62000752565b5b50919050565b7f4e487b7100000000000000000000000000000000000000000000000000000000600052601160045260246000fd5b7f4e487b7100000000000000000000000000000000000000000000000000000000600052602260045260246000fd5b600080fd5b7f45524332304361707065643a2063617020697320300000000000000000000000600082015250565b7f45524332303a206d696e7420746f20746865207a65726f206164647265737300600082015250565b620007e381620006af565b8114620007ef57600080fd5b50565b620007fd81620006e3565b81146200080957600080fd5b50565b60805161166462000828600039600061049801526116646000f3fe608060405234801561001057600080fd5b50600436106100cf5760003560e01c8063355274ea1161008c57806395d89b411161006657806395d89b4114610228578063a457c2d714610246578063a9059cbb14610276578063dd62ed3e146102a6576100cf565b8063355274ea146101aa57806339509351146101c857806370a08231146101f8576100cf565b806306fdde03146100d4578063095ea7b3146100f257806318160ddd1461012257806319dc11b91461014057806323b872dd1461015c578063313ce5671461018c575b600080fd5b6100dc6102d6565b6040516100e99190611095565b60405180910390f35b61010c60048036038101906101079190610e8f565b610368565b604051610119919061107a565b60405180910390f35b61012a610386565b60405161013791906111b7565b60405180910390f35b61015a60048036038101906101559190610ecf565b610390565b005b61017660048036038101906101719190610e3c565b610393565b604051610183919061107a565b60405180910390f35b61019461048b565b6040516101a191906111d2565b60405180910390f35b6101b2610494565b6040516101bf91906111b7565b60405180910390f35b6101e260048036038101906101dd9190610e8f565b6104bc565b6040516101ef919061107a565b60405180910390f35b610212600480360381019061020d9190610dcf565b610568565b60405161021f91906111b7565b60405180910390f35b6102306105b0565b60405161023d9190611095565b60405180910390f35b610260600480360381019061025b9190610e8f565b610642565b60405161026d919061107a565b60405180910390f35b610290600480360381019061028b9190610e8f565b61072d565b60405161029d919061107a565b60405180910390f35b6102c060048036038101906102bb9190610dfc565b61074b565b6040516102cd91906111b7565b60405180910390f35b6060600380546102e5906112f1565b80601f0160208091040260200160405190810160405280929190818152602001828054610311906112f1565b801561035e5780601f106103335761010080835404028352916020019161035e565b820191906000526020600020905b81548152906001019060200180831161034157829003601f168201915b5050505050905090565b600061037c610375610932565b848461093a565b6001905092915050565b6000600254905090565b50565b60006103a0848484610b05565b6000600160008673ffffffffffffffffffffffffffffffffffffffff1673ffffffffffffffffffffffffffffffffffffffff16815260200190815260200160002060006103eb610932565b73ffffffffffffffffffffffffffffffffffffffff1673ffffffffffffffffffffffffffffffffffffffff1681526020019081526020016000205490508281101561046b576040517f08c379a000000000000000000000000000000000000000000000000000000000815260040161046290611117565b60405180910390fd5b61047f85610477610932565b85840361093a565b60019150509392505050565b60006012905090565b60007f0000000000000000000000000000000000000000000000000000000000000000905090565b600061055e6104c9610932565b8484600160006104d7610932565b73ffffffffffffffffffffffffffffffffffffffff1673ffffffffffffffffffffffffffffffffffffffff16815260200190815260200160002060008873ffffffffffffffffffffffffffffffffffffffff1673ffffffffffffffffffffffffffffffffffffffff168152602001908152602001600020546105599190611209565b61093a565b6001905092915050565b60008060008373ffffffffffffffffffffffffffffffffffffffff1673ffffffffffffffffffffffffffffffffffffffff168152602001908152602001600020549050919050565b6060600480546105bf906112f1565b80601f01602080910402602001604051908101604052809291908181526020018280546105eb906112f1565b80156106385780601f1061060d57610100808354040283529160200191610638565b820191906000526020600020905b81548152906001019060200180831161061b57829003601f168201915b5050505050905090565b60008060016000610651610932565b73ffffffffffffffffffffffffffffffffffffffff1673ffffffffffffffffffffffffffffffffffffffff16815260200190815260200160002060008573ffffffffffffffffffffffffffffffffffffffff1673ffffffffffffffffffffffffffffffffffffffff1681526020019081526020016000205490508281101561070e576040517f08c379a000000000000000000000000000000000000000000000000000000000815260040161070590611177565b60405180910390fd5b610722610719610932565b8585840361093a565b600191505092915050565b600061074161073a610932565b8484610b05565b6001905092915050565b6000600160008473ffffffffffffffffffffffffffffffffffffffff1673ffffffffffffffffffffffffffffffffffffffff16815260200190815260200160002060008373ffffffffffffffffffffffffffffffffffffffff1673ffffffffffffffffffffffffffffffffffffffff16815260200190815260200160002054905092915050565b600073ffffffffffffffffffffffffffffffffffffffff168273ffffffffffffffffffffffffffffffffffffffff161415610842576040517f08c379a000000000000000000000000000000000000000000000000000000000815260040161083990611197565b60405180910390fd5b61084e60008383610d86565b80600260008282546108609190611209565b92505081905550806000808473ffffffffffffffffffffffffffffffffffffffff1673ffffffffffffffffffffffffffffffffffffffff16815260200190815260200160002060008282546108b59190611209565b925050819055508173ffffffffffffffffffffffffffffffffffffffff16600073ffffffffffffffffffffffffffffffffffffffff167fddf252ad1be2c89b69c2b068fc378daa952ba7f163c4a11628f55a4df523b3ef8360405161091a91906111b7565b60405180910390a361092e60008383610d8b565b5050565b600033905090565b600073ffffffffffffffffffffffffffffffffffffffff168373ffffffffffffffffffffffffffffffffffffffff1614156109aa576040517f08c379a00000000000000000000000000000000000000000000000000000000081526004016109a190611157565b60405180910390fd5b600073ffffffffffffffffffffffffffffffffffffffff168273ffffffffffffffffffffffffffffffffffffffff161415610a1a576040517f08c379a0000000000000000000000000000000000000000000000000000000008152600401610a11906110d7565b60405180910390fd5b80600160008573ffffffffffffffffffffffffffffffffffffffff1673ffffffffffffffffffffffffffffffffffffffff16815260200190815260200160002060008473ffffffffffffffffffffffffffffffffffffffff1673ffffffffffffffffffffffffffffffffffffffff168152602001908152602001600020819055508173ffffffffffffffffffffffffffffffffffffffff168373ffffffffffffffffffffffffffffffffffffffff167f8c5be1e5ebec7d5bd14f71427d1e84f3dd0314c0f7b2291e5b200ac8c7c3b92583604051610af891906111b7565b60405180910390a3505050565b600073ffffffffffffffffffffffffffffffffffffffff168373ffffffffffffffffffffffffffffffffffffffff161415610b75576040517f08c379a0000000000000000000000000000000000000000000000000000000008152600401610b6c90611137565b60405180910390fd5b600073ffffffffffffffffffffffffffffffffffffffff168273ffffffffffffffffffffffffffffffffffffffff161415610be5576040517f08c379a0000000000000000000000000000000000000000000000000000000008152600401610bdc906110b7565b60405180910390fd5b610bf0838383610d86565b60008060008573ffffffffffffffffffffffffffffffffffffffff1673ffffffffffffffffffffffffffffffffffffffff16815260200190815260200160002054905081811015610c76576040517f08c379a0000000000000000000000000000000000000000000000000000000008152600401610c6d906110f7565b60405180910390fd5b8181036000808673ffffffffffffffffffffffffffffffffffffffff1673ffffffffffffffffffffffffffffffffffffffff16815260200190815260200160002081905550816000808573ffffffffffffffffffffffffffffffffffffffff1673ffffffffffffffffffffffffffffffffffffffff1681526020019081526020016000206000828254610d099190611209565b925050819055508273ffffffffffffffffffffffffffffffffffffffff168473ffffffffffffffffffffffffffffffffffffffff167fddf252ad1be2c89b69c2b068fc378daa952ba7f163c4a11628f55a4df523b3ef84604051610d6d91906111b7565b60405180910390a3610d80848484610d8b565b50505050565b505050565b505050565b600081359050610d9f816115e9565b92915050565b600081359050610db481611600565b92915050565b600081359050610dc981611617565b92915050565b600060208284031215610de557610de4611381565b5b6000610df384828501610d90565b91505092915050565b60008060408385031215610e1357610e12611381565b5b6000610e2185828601610d90565b9250506020610e3285828601610d90565b9150509250929050565b600080600060608486031215610e5557610e54611381565b5b6000610e6386828701610d90565b9350506020610e7486828701610d90565b9250506040610e8586828701610dba565b9150509250925092565b60008060408385031215610ea657610ea5611381565b5b6000610eb485828601610d90565b9250506020610ec585828601610dba565b9150509250929050565b600060208284031215610ee557610ee4611381565b5b6000610ef384828501610da5565b91505092915050565b610f0581611271565b82525050565b6000610f16826111ed565b610f2081856111f8565b9350610f308185602086016112be565b610f3981611386565b840191505092915050565b6000610f516023836111f8565b9150610f5c82611397565b604082019050919050565b6000610f746022836111f8565b9150610f7f826113e6565b604082019050919050565b6000610f976026836111f8565b9150610fa282611435565b604082019050919050565b6000610fba6028836111f8565b9150610fc582611484565b604082019050919050565b6000610fdd6025836111f8565b9150610fe8826114d3565b604082019050919050565b60006110006024836111f8565b915061100b82611522565b604082019050919050565b60006110236025836111f8565b915061102e82611571565b604082019050919050565b6000611046601f836111f8565b9150611051826115c0565b602082019050919050565b611065816112a7565b82525050565b611074816112b1565b82525050565b600060208201905061108f6000830184610efc565b92915050565b600060208201905081810360008301526110af8184610f0b565b905092915050565b600060208201905081810360008301526110d081610f44565b9050919050565b600060208201905081810360008301526110f081610f67565b9050919050565b6000602082019050818103600083015261111081610f8a565b9050919050565b6000602082019050818103600083015261113081610fad565b9050919050565b6000602082019050818103600083015261115081610fd0565b9050919050565b6000602082019050818103600083015261117081610ff3565b9050919050565b6000602082019050818103600083015261119081611016565b9050919050565b600060208201905081810360008301526111b081611039565b9050919050565b60006020820190506111cc600083018461105c565b92915050565b60006020820190506111e7600083018461106b565b92915050565b600081519050919050565b600082825260208201905092915050565b6000611214826112a7565b915061121f836112a7565b9250827fffffffffffffffffffffffffffffffffffffffffffffffffffffffffffffffff0382111561125457611253611323565b5b828201905092915050565b600061126a82611287565b9050919050565b60008115159050919050565b6000819050919050565b600073ffffffffffffffffffffffffffffffffffffffff82169050919050565b6000819050919050565b600060ff82169050919050565b60005b838110156112dc5780820151818401526020810190506112c1565b838111156112eb576000848401525b50505050565b6000600282049050600182168061130957607f821691505b6020821081141561131d5761131c611352565b5b50919050565b7f4e487b7100000000000000000000000000000000000000000000000000000000600052601160045260246000fd5b7f4e487b7100000000000000000000000000000000000000000000000000000000600052602260045260246000fd5b600080fd5b6000601f19601f8301169050919050565b7f45524332303a207472616e7366657220746f20746865207a65726f206164647260008201527f6573730000000000000000000000000000000000000000000000000000000000602082015250565b7f45524332303a20617070726f766520746f20746865207a65726f20616464726560008201527f7373000000000000000000000000000000000000000000000000000000000000602082015250565b7f45524332303a207472616e7366657220616d6f756e742065786365656473206260008201527f616c616e63650000000000000000000000000000000000000000000000000000602082015250565b7f45524332303a207472616e7366657220616d6f756e742065786365656473206160008201527f6c6c6f77616e6365000000000000000000000000000000000000000000000000602082015250565b7f45524332303a207472616e736665722066726f6d20746865207a65726f20616460008201527f6472657373000000000000000000000000000000000000000000000000000000602082015250565b7f45524332303a20617070726f76652066726f6d20746865207a65726f2061646460008201527f7265737300000000000000000000000000000000000000000000000000000000602082015250565b7f45524332303a2064656372656173656420616c6c6f77616e63652062656c6f7760008201527f207a65726f000000000000000000000000000000000000000000000000000000602082015250565b7f45524332303a206d696e7420746f20746865207a65726f206164647265737300600082015250565b6115f28161125f565b81146115fd57600080fd5b50565b6116098161127d565b811461161457600080fd5b50565b611620816112a7565b811461162b57600080fd5b5056fea264697066735822122035d14edf166f03fd4fedf05f7a5dfa24ca1a40dd2932bceda52b805d6b8ae25064736f6c63430008060033",
  "linkReferences": {},
  "deployedLinkReferences": {}
}