{
  "_format": "hh-sol-artifact-1",
  "contractName": "ReentrancyTransactionGuard",
  "sourceName": "contracts/gnosis/examples/guards/ReentrancyTransactionGuard.sol",
  "abi": [
    {
      "stateMutability": "nonpayable",
      "type": "fallback"
    },
    {
      "inputs": [
        {
          "internalType": "bytes32",
          "name": "",
          "type": "bytes32"
        },
        {
          "internalType": "bool",
          "name": "",
          "type": "bool"
        }
      ],
      "name": "checkAfterExecution",
      "outputs": [],
      "stateMutability": "nonpayable",
      "type": "function"
    },
    {
      "inputs": [
        {
          "internalType": "address",
          "name": "",
          "type": "address"
        },
        {
          "internalType": "uint256",
          "name": "",
          "type": "uint256"
        },
        {
          "internalType": "bytes",
          "name": "",
          "type": "bytes"
        },
        {
          "internalType": "enum Enum.Operation",
          "name": "",
          "type": "uint8"
        },
        {
          "internalType": "uint256",
          "name": "",
          "type": "uint256"
        },
        {
          "internalType": "uint256",
          "name": "",
          "type": "uint256"
        },
        {
          "internalType": "uint256",
          "name": "",
          "type": "uint256"
        },
        {
          "internalType": "address",
          "name": "",
          "type": "address"
        },
        {
          "internalType": "address payable",
          "name": "",
          "type": "address"
        },
        {
          "internalType": "bytes",
          "name": "",
          "type": "bytes"
        },
        {
          "internalType": "address",
          "name": "",
          "type": "address"
        }
      ],
      "name": "checkTransaction",
      "outputs": [],
      "stateMutability": "nonpayable",
      "type": "function"
    },
    {
      "inputs": [
        {
          "internalType": "bytes4",
          "name": "interfaceId",
          "type": "bytes4"
        }
      ],
      "name": "supportsInterface",
      "outputs": [
        {
          "internalType": "bool",
          "name": "",
          "type": "bool"
        }
      ],
      "stateMutability": "view",
      "type": "function"
    }
  ],
  "bytecode": "0x608060405234801561001057600080fd5b506107bd806100206000396000f3fe608060405234801561001057600080fd5b50600436106100455760003560e01c806301ffc9a71461004857806375f0bb5214610078578063932713681461009457610046565b5b005b610062600480360381019061005d91906104b7565b6100b0565b60405161006f9190610512565b60405180910390f35b610092600480360381019061008d919061035b565b610182565b005b6100ae60048036038101906100a9919061047b565b61020b565b005b60007fe6d7a83a000000000000000000000000000000000000000000000000000000007bffffffffffffffffffffffffffffffffffffffffffffffffffffffff1916827bffffffffffffffffffffffffffffffffffffffffffffffffffffffff1916148061017b57507f01ffc9a7000000000000000000000000000000000000000000000000000000007bffffffffffffffffffffffffffffffffffffffffffffffffffffffff1916827bffffffffffffffffffffffffffffffffffffffffffffffffffffffff1916145b9050919050565b600061018c610233565b90508060000160009054906101000a900460ff16156101e0576040517f08c379a00000000000000000000000000000000000000000000000000000000081526004016101d79061052d565b60405180910390fd5b60018160000160006101000a81548160ff021916908315150217905550505050505050505050505050565b6000610215610233565b60000160006101000a81548160ff0219169083151502179055505050565b6000807f7c1d45961c2d0298f999d2c3d4a7a5e0f688d137f4c32466e3056a97e673b83a90508091505090565b600061027361026e84610572565b61054d565b90508281526020810184848401111561028b57600080fd5b610296848285610644565b509392505050565b6000813590506102ad816106ed565b92915050565b6000813590506102c281610704565b92915050565b6000813590506102d78161071b565b92915050565b6000813590506102ec81610732565b92915050565b60008135905061030181610749565b92915050565b600082601f83011261031857600080fd5b8135610328848260208601610260565b91505092915050565b60008135905061034081610760565b92915050565b60008135905061035581610770565b92915050565b60008060008060008060008060008060006101608c8e03121561037d57600080fd5b600061038b8e828f0161029e565b9b5050602061039c8e828f01610346565b9a505060408c013567ffffffffffffffff8111156103b957600080fd5b6103c58e828f01610307565b99505060606103d68e828f01610331565b98505060806103e78e828f01610346565b97505060a06103f88e828f01610346565b96505060c06104098e828f01610346565b95505060e061041a8e828f0161029e565b94505061010061042c8e828f016102b3565b9350506101208c013567ffffffffffffffff81111561044a57600080fd5b6104568e828f01610307565b9250506101406104688e828f0161029e565b9150509295989b509295989b9093969950565b6000806040838503121561048e57600080fd5b600061049c858286016102dd565b92505060206104ad858286016102c8565b9150509250929050565b6000602082840312156104c957600080fd5b60006104d7848285016102f2565b91505092915050565b6104e9816105d8565b82525050565b60006104fc6013836105a3565b9150610507826106c4565b602082019050919050565b600060208201905061052760008301846104e0565b92915050565b60006020820190508181036000830152610546816104ef565b9050919050565b6000610557610568565b90506105638282610653565b919050565b6000604051905090565b600067ffffffffffffffff82111561058d5761058c610684565b5b610596826106b3565b9050602081019050919050565b600082825260208201905092915050565b60006105bf8261061a565b9050919050565b60006105d18261061a565b9050919050565b60008115159050919050565b6000819050919050565b60007fffffffff0000000000000000000000000000000000000000000000000000000082169050919050565b600073ffffffffffffffffffffffffffffffffffffffff82169050919050565b6000819050919050565b82818337600083830152505050565b61065c826106b3565b810181811067ffffffffffffffff8211171561067b5761067a610684565b5b80604052505050565b7f4e487b7100000000000000000000000000000000000000000000000000000000600052604160045260246000fd5b6000601f19601f8301169050919050565b7f5265656e7472616e637920646574656374656400000000000000000000000000600082015250565b6106f6816105b4565b811461070157600080fd5b50565b61070d816105c6565b811461071857600080fd5b50565b610724816105d8565b811461072f57600080fd5b50565b61073b816105e4565b811461074657600080fd5b50565b610752816105ee565b811461075d57600080fd5b50565b6002811061076d57600080fd5b50565b6107798161063a565b811461078457600080fd5b5056fea2646970667358221220f40fd8eb072177f492a50b8c3eadc524ce2c313f6201d3c7610fb2d0f6cf96a864736f6c63430008040033",
  "linkReferences": {},
  "deployedLinkReferences": {}
}