{
  "_format": "hh-sol-artifact-1",
  "contractName": "GuardManager",
  "sourceName": "contracts/gnosis/base/GuardManager.sol",
  "abi": [
    {
      "anonymous": false,
      "inputs": [
        {
          "indexed": false,
          "internalType": "address",
          "name": "guard",
          "type": "address"
        }
      ],
      "name": "ChangedGuard",
      "type": "event"
    },
    {
      "inputs": [
        {
          "internalType": "address",
          "name": "guard",
          "type": "address"
        }
      ],
      "name": "setGuard",
      "outputs": [],
      "stateMutability": "nonpayable",
      "type": "function"
    }
  ],
  "bytecode": "0x608060405234801561001057600080fd5b506104ce806100206000396000f3fe608060405234801561001057600080fd5b506004361061002b5760003560e01c8063e19a9dd914610030575b600080fd5b61004a60048036038101906100459190610271565b61004c565b005b6100546101d7565b600073ffffffffffffffffffffffffffffffffffffffff168173ffffffffffffffffffffffffffffffffffffffff1614610171578073ffffffffffffffffffffffffffffffffffffffff166301ffc9a77fe6d7a83a000000000000000000000000000000000000000000000000000000006040518263ffffffff1660e01b81526004016100e19190610342565b60206040518083038186803b1580156100f957600080fd5b505afa15801561010d573d6000803e3d6000fd5b505050506040513d601f19601f82011682018060405250810190610131919061029a565b610170576040517f08c379a00000000000000000000000000000000000000000000000000000000081526004016101679061037d565b60405180910390fd5b5b60007f4a204f620c8c5ccdca3fd54d003badd85ba500436a431f0cbda4f558c93c34c860001b90508181557f1151116914515bc0891ff9047a6cb32cf902546f83066499bcf8ba33d2353fa2826040516101cb9190610327565b60405180910390a15050565b3073ffffffffffffffffffffffffffffffffffffffff163373ffffffffffffffffffffffffffffffffffffffff1614610245576040517f08c379a000000000000000000000000000000000000000000000000000000000815260040161023c9061035d565b60405180910390fd5b565b6000813590506102568161046a565b92915050565b60008151905061026b81610481565b92915050565b60006020828403121561028357600080fd5b600061029184828501610247565b91505092915050565b6000602082840312156102ac57600080fd5b60006102ba8482850161025c565b91505092915050565b6102cc816103ae565b82525050565b6102db816103cc565b82525050565b60006102ee60058361039d565b91506102f982610418565b602082019050919050565b600061031160058361039d565b915061031c82610441565b602082019050919050565b600060208201905061033c60008301846102c3565b92915050565b600060208201905061035760008301846102d2565b92915050565b60006020820190508181036000830152610376816102e1565b9050919050565b6000602082019050818103600083015261039681610304565b9050919050565b600082825260208201905092915050565b60006103b9826103f8565b9050919050565b60008115159050919050565b60007fffffffff0000000000000000000000000000000000000000000000000000000082169050919050565b600073ffffffffffffffffffffffffffffffffffffffff82169050919050565b7f4753303331000000000000000000000000000000000000000000000000000000600082015250565b7f4753333030000000000000000000000000000000000000000000000000000000600082015250565b610473816103ae565b811461047e57600080fd5b50565b61048a816103c0565b811461049557600080fd5b5056fea2646970667358221220fd1a2510f122da06866a53488324102ba95f6c7fffc2305adcf0f3f49166934f64736f6c63430008040033",
  "linkReferences": {},
  "deployedLinkReferences": {}
}