{
  "address": "0x8c3703F772315ABBC95B90fb74D99aE07C7Dc543",
  "abi": [
    {
      "anonymous": false,
      "inputs": [
        {
          "indexed": true,
          "internalType": "address",
          "name": "beneficiary",
          "type": "address"
        },
        {
          "indexed": false,
          "internalType": "address",
          "name": "tokenAddress",
          "type": "address"
        },
        {
          "indexed": false,
          "internalType": "uint256",
          "name": "amount",
          "type": "uint256"
        }
      ],
      "name": "FeeTransferred",
      "type": "event"
    },
    {
      "anonymous": false,
      "inputs": [
        {
          "indexed": true,
          "internalType": "address",
          "name": "oldAdmin",
          "type": "address"
        },
        {
          "indexed": true,
          "internalType": "address",
          "name": "newAdmin",
          "type": "address"
        }
      ],
      "name": "LBPManagerAdminChanged",
      "type": "event"
    },
    {
      "anonymous": false,
      "inputs": [
        {
          "indexed": true,
          "internalType": "bytes",
          "name": "metadata",
          "type": "bytes"
        }
      ],
      "name": "MetadataUpdated",
      "type": "event"
    },
    {
      "anonymous": false,
      "inputs": [
        {
          "indexed": true,
          "internalType": "address",
          "name": "LbpAddress",
          "type": "address"
        },
        {
          "indexed": false,
          "internalType": "uint256",
          "name": "amount",
          "type": "uint256"
        }
      ],
      "name": "PoolTokensWithdrawn",
      "type": "event"
    },
    {
      "inputs": [],
      "name": "LBPFactory",
      "outputs": [
        {
          "internalType": "address",
          "name": "",
          "type": "address"
        }
      ],
      "stateMutability": "view",
      "type": "function"
    },
    {
      "inputs": [],
      "name": "admin",
      "outputs": [
        {
          "internalType": "address",
          "name": "",
          "type": "address"
        }
      ],
      "stateMutability": "view",
      "type": "function"
    },
    {
      "inputs": [
        {
          "internalType": "uint256",
          "name": "",
          "type": "uint256"
        }
      ],
      "name": "amounts",
      "outputs": [
        {
          "internalType": "uint256",
          "name": "",
          "type": "uint256"
        }
      ],
      "stateMutability": "view",
      "type": "function"
    },
    {
      "inputs": [],
      "name": "beneficiary",
      "outputs": [
        {
          "internalType": "address",
          "name": "",
          "type": "address"
        }
      ],
      "stateMutability": "view",
      "type": "function"
    },
    {
      "inputs": [
        {
          "internalType": "uint256",
          "name": "",
          "type": "uint256"
        }
      ],
      "name": "endWeights",
      "outputs": [
        {
          "internalType": "uint256",
          "name": "",
          "type": "uint256"
        }
      ],
      "stateMutability": "view",
      "type": "function"
    },
    {
      "inputs": [],
      "name": "feePercentage",
      "outputs": [
        {
          "internalType": "uint256",
          "name": "",
          "type": "uint256"
        }
      ],
      "stateMutability": "view",
      "type": "function"
    },
    {
      "inputs": [
        {
          "internalType": "address",
          "name": "_sender",
          "type": "address"
        }
      ],
      "name": "initializeLBP",
      "outputs": [],
      "stateMutability": "nonpayable",
      "type": "function"
    },
    {
      "inputs": [
        {
          "internalType": "address",
          "name": "_LBPFactory",
          "type": "address"
        },
        {
          "internalType": "address",
          "name": "_beneficiary",
          "type": "address"
        },
        {
          "internalType": "string",
          "name": "_name",
          "type": "string"
        },
        {
          "internalType": "string",
          "name": "_symbol",
          "type": "string"
        },
        {
          "internalType": "contract IERC20[]",
          "name": "_tokenList",
          "type": "address[]"
        },
        {
          "internalType": "uint256[]",
          "name": "_amounts",
          "type": "uint256[]"
        },
        {
          "internalType": "uint256[]",
          "name": "_startWeights",
          "type": "uint256[]"
        },
        {
          "internalType": "uint256[]",
          "name": "_startTimeEndTime",
          "type": "uint256[]"
        },
        {
          "internalType": "uint256[]",
          "name": "_endWeights",
          "type": "uint256[]"
        },
        {
          "internalType": "uint256[]",
          "name": "_fees",
          "type": "uint256[]"
        },
        {
          "internalType": "bytes",
          "name": "_metadata",
          "type": "bytes"
        }
      ],
      "name": "initializeLBPManager",
      "outputs": [],
      "stateMutability": "nonpayable",
      "type": "function"
    },
    {
      "inputs": [],
      "name": "initialized",
      "outputs": [
        {
          "internalType": "bool",
          "name": "",
          "type": "bool"
        }
      ],
      "stateMutability": "view",
      "type": "function"
    },
    {
      "inputs": [],
      "name": "lbp",
      "outputs": [
        {
          "internalType": "contract ILBP",
          "name": "",
          "type": "address"
        }
      ],
      "stateMutability": "view",
      "type": "function"
    },
    {
      "inputs": [],
      "name": "metadata",
      "outputs": [
        {
          "internalType": "bytes",
          "name": "",
          "type": "bytes"
        }
      ],
      "stateMutability": "view",
      "type": "function"
    },
    {
      "inputs": [],
      "name": "name",
      "outputs": [
        {
          "internalType": "string",
          "name": "",
          "type": "string"
        }
      ],
      "stateMutability": "view",
      "type": "function"
    },
    {
      "inputs": [],
      "name": "poolFunded",
      "outputs": [
        {
          "internalType": "bool",
          "name": "",
          "type": "bool"
        }
      ],
      "stateMutability": "view",
      "type": "function"
    },
    {
      "inputs": [],
      "name": "projectTokensRequired",
      "outputs": [
        {
          "internalType": "uint256",
          "name": "projectTokenAmounts",
          "type": "uint256"
        }
      ],
      "stateMutability": "view",
      "type": "function"
    },
    {
      "inputs": [
        {
          "internalType": "address payable",
          "name": "_receiver",
          "type": "address"
        }
      ],
      "name": "removeLiquidity",
      "outputs": [],
      "stateMutability": "nonpayable",
      "type": "function"
    },
    {
      "inputs": [
        {
          "internalType": "bool",
          "name": "_swapEnabled",
          "type": "bool"
        }
      ],
      "name": "setSwapEnabled",
      "outputs": [],
      "stateMutability": "nonpayable",
      "type": "function"
    },
    {
      "inputs": [
        {
          "internalType": "uint256",
          "name": "",
          "type": "uint256"
        }
      ],
      "name": "startTimeEndTime",
      "outputs": [
        {
          "internalType": "uint256",
          "name": "",
          "type": "uint256"
        }
      ],
      "stateMutability": "view",
      "type": "function"
    },
    {
      "inputs": [
        {
          "internalType": "uint256",
          "name": "",
          "type": "uint256"
        }
      ],
      "name": "startWeights",
      "outputs": [
        {
          "internalType": "uint256",
          "name": "",
          "type": "uint256"
        }
      ],
      "stateMutability": "view",
      "type": "function"
    },
    {
      "inputs": [],
      "name": "swapFeePercentage",
      "outputs": [
        {
          "internalType": "uint256",
          "name": "",
          "type": "uint256"
        }
      ],
      "stateMutability": "view",
      "type": "function"
    },
    {
      "inputs": [],
      "name": "symbol",
      "outputs": [
        {
          "internalType": "string",
          "name": "",
          "type": "string"
        }
      ],
      "stateMutability": "view",
      "type": "function"
    },
    {
      "inputs": [
        {
          "internalType": "uint256",
          "name": "",
          "type": "uint256"
        }
      ],
      "name": "tokenList",
      "outputs": [
        {
          "internalType": "contract IERC20",
          "name": "",
          "type": "address"
        }
      ],
      "stateMutability": "view",
      "type": "function"
    },
    {
      "inputs": [
        {
          "internalType": "address",
          "name": "_newAdmin",
          "type": "address"
        }
      ],
      "name": "transferAdminRights",
      "outputs": [],
      "stateMutability": "nonpayable",
      "type": "function"
    },
    {
      "inputs": [
        {
          "internalType": "bytes",
          "name": "_metadata",
          "type": "bytes"
        }
      ],
      "name": "updateMetadata",
      "outputs": [],
      "stateMutability": "nonpayable",
      "type": "function"
    },
    {
      "inputs": [
        {
          "internalType": "address",
          "name": "_receiver",
          "type": "address"
        }
      ],
      "name": "withdrawPoolTokens",
      "outputs": [],
      "stateMutability": "nonpayable",
      "type": "function"
    }
  ],
  "transactionHash": "0x171f3b2be664f9a695191589c522d0becd7dc999a8bca342a1c8ac604c8ac4ad",
  "args": [],
  "solcInputHash": "10db0d663f2f47324a42be3c41379aa7",
  "bytecode": "0x608060405234801561001057600080fd5b5061293d806100206000396000f3fe608060405234801561001057600080fd5b50600436106101585760003560e01c80639ead7222116100c3578063c9d8616f1161007c578063c9d8616f146102c8578063cd2055e5146102db578063d798f86e146102ee578063e01af92c14610301578063f851a44014610314578063fc582d411461032757600080fd5b80639ead722214610269578063a001ecdd1461027c578063a4ac0d4914610285578063a88971fa1461028e578063b5106add146102a2578063bb7bfb0c146102b557600080fd5b8063392f37e911610115578063392f37e91461020b5780633facbb851461021357806345f0a44f146102285780638638fe311461023b5780638bfd52891461024e57806395d89b411461026157600080fd5b806306fdde031461015d578063092f7de71461017b578063158ef93e146101a657806331d8f1be146101ca5780633281f3ec146101e257806338af3eed146101f8575b600080fd5b61016561033a565b6040516101729190612629565b60405180910390f35b600b5461018e906001600160a01b031681565b6040516001600160a01b039091168152602001610172565b600d546101ba90600160b01b900460ff1681565b6040519015158152602001610172565b600d5461018e9061010090046001600160a01b031681565b6101ea6103c8565b604051908152602001610172565b60035461018e906001600160a01b031681565b610165610407565b6102266102213660046120d1565b610414565b005b6101ea610236366004612338565b6107f2565b610226610249366004612112565b610813565b61022661025c3660046120d1565b610db2565b6101656115b9565b61018e610277366004612338565b6115c6565b6101ea60045481565b6101ea60055481565b600d546101ba90600160a81b900460ff1681565b6102266102b03660046120d1565b6115f0565b6101ea6102c3366004612338565b6116cc565b6101ea6102d6366004612338565b6116dc565b6101ea6102e9366004612338565b6116ec565b6102266102fc3660046120d1565b6116fc565b61022661030f3660046122a8565b611cf6565b60025461018e906001600160a01b031681565b6102266103353660046122fb565b611d82565b6001805461034790612844565b80601f016020809104026020016040519081016040528092919081815260200182805461037390612844565b80156103c05780601f10610395576101008083540402835291602001916103c0565b820191906000526020600020905b8154815290600101906020018083116103a357829003601f168201915b505050505081565b60006103d2611e01565b600d5460078054909160ff169081106103ed576103ed6128b5565b906000526020600020015461040291906127bb565b905090565b600c805461034790612844565b6002546001600160a01b031633146104475760405162461bcd60e51b815260040161043e90612707565b60405180910390fd5b6001600160a01b03811661049d5760405162461bcd60e51b815260206004820152601c60248201527f4c42504d616e616765723a207265636569766572206973207a65726f00000000604482015260640161043e565b600b54604080516303df769160e51b815290516000926001600160a01b031691637beed2209160048083019286929190829003018186803b1580156104e157600080fd5b505afa1580156104f5573d6000803e3d6000fd5b505050506040513d6000823e601f3d908101601f1916820160405261051d9190810190612351565b50915050428111156105715760405162461bcd60e51b815260206004820152601f60248201527f4c42504d616e616765723a20656e6474696d65206e6f74207265616368656400604482015260640161043e565b600b546040516370a0823160e01b81523060048201526000916001600160a01b0316906370a082319060240160206040518083038186803b1580156105b557600080fd5b505afa1580156105c9573d6000803e3d6000fd5b505050506040513d601f19601f820116820180604052508101906105ed91906122e2565b1161063a5760405162461bcd60e51b815260206004820181905260248201527f4c42504d616e616765723a206e6f2042505420746f6b656e2062616c616e6365604482015260640161043e565b600b546040516370a0823160e01b81523060048201526001600160a01b03909116907fd0b72dd3c0f971f9cf266fee8e4c7660231316a67c88a587fa8dfa398c9e13749082906370a082319060240160206040518083038186803b1580156106a157600080fd5b505afa1580156106b5573d6000803e3d6000fd5b505050506040513d601f19601f820116820180604052508101906106d991906122e2565b60405190815260200160405180910390a2600b546040516370a0823160e01b81523060048201526001600160a01b039091169063a9059cbb90849083906370a082319060240160206040518083038186803b15801561073757600080fd5b505afa15801561074b573d6000803e3d6000fd5b505050506040513d601f19601f8201168201806040525081019061076f91906122e2565b6040516001600160e01b031960e085901b1681526001600160a01b0390921660048301526024820152604401602060405180830381600087803b1580156107b557600080fd5b505af11580156107c9573d6000803e3d6000fd5b505050506040513d601f19601f820116820180604052508101906107ed91906122c5565b505050565b6007818154811061080257600080fd5b600091825260209091200154905081565b600d54600160b01b900460ff161561086d5760405162461bcd60e51b815260206004820152601f60248201527f4c42504d616e616765723a20616c726561647920696e697469616c697a656400604482015260640161043e565b6001600160a01b038a166108c35760405162461bcd60e51b815260206004820181905260248201527f4c42504d616e616765723a205f62656e6566696369617279206973207a65726f604482015260640161043e565b64e8d4a51000826000815181106108dc576108dc6128b5565b6020026020010151101561093e5760405162461bcd60e51b8152602060048201526024808201527f4c42504d616e616765723a207377617046656550657263656e7461676520746f604482015263206c6f7760e01b606482015260840161043e565b67016345785d8a00008260008151811061095a5761095a6128b5565b602002602001015111156109be5760405162461bcd60e51b815260206004820152602560248201527f4c42504d616e616765723a207377617046656550657263656e7461676520746f604482015264040d0d2ced60db1b606482015260840161043e565b8651600214610a0f5760405162461bcd60e51b815260206004820181905260248201527f4c42504d616e616765723a20746f6b656e4c6973742077726f6e672073697a65604482015260640161043e565b600d805460ff60b01b1916600160b01b179055600280546001600160a01b0319163317905581518290600090610a4757610a476128b5565b602002602001015160058190555081600181518110610a6857610a686128b5565b602090810291909101810151600455600380546001600160a01b0319166001600160a01b038d161790558151610aa491600c9190840190611e4e565b508351610ab890600a906020870190611ed2565b508851610acc9060019060208c0190611e4e565b508751610ae09060009060208b0190611e4e565b50600d8054610100600160a81b0319166101006001600160a01b038e1602179055865187906001908110610b1657610b166128b5565b60200260200101516001600160a01b031687600081518110610b3a57610b3a6128b5565b60200260200101516001600160a01b03161115610d4a57600d805460ff19166001908117909155875160069189918110610b7657610b766128b5565b6020908102919091018101518254600181018455600093845291832090910180546001600160a01b0319166001600160a01b0390921691909117905587516006918991610bc557610bc56128b5565b60209081029190910181015182546001808201855560009485529290932090920180546001600160a01b0319166001600160a01b0390931692909217909155865160079188918110610c1957610c196128b5565b602090810291909101810151825460018101845560009384529183209091015586516007918891610c4c57610c4c6128b5565b60209081029190910181015182546001818101855560009485529290932090920191909155855160089187918110610c8657610c866128b5565b602090810291909101810151825460018101845560009384529183209091015585516008918791610cb957610cb96128b5565b60209081029190910181015182546001818101855560009485529290932090920191909155835160099185918110610cf357610cf36128b5565b602090810291909101810151825460018101845560009384529183209091015583516009918591610d2657610d266128b5565b60209081029190910181015182546001810184556000938452919092200155610da5565b600d805460ff191690558651610d679060069060208a0190611f0c565b508551610d7b906007906020890190611ed2565b508451610d8f906008906020880190611ed2565b508251610da3906009906020860190611ed2565b505b5050505050505050505050565b6002546001600160a01b03163314610ddc5760405162461bcd60e51b815260040161043e90612707565b600d54600160b01b900460ff161515600114610e4c5760405162461bcd60e51b815260206004820152602960248201527f4c42504d616e616765723a204c42504d616e6167657220696e206e6f7420696e6044820152681a5d1a585b1a5e995960ba1b606482015260840161043e565b600d54600160a81b900460ff1615610ea65760405162461bcd60e51b815260206004820152601f60248201527f4c42504d616e616765723a20706f6f6c20616c72656164792066756e64656400604482015260640161043e565b600d8054600160a81b60ff60a81b199091161790819055600554604051632367971960e01b81526101009092046001600160a01b031691632367971991610eff9160019160009160069160089130908690600401612658565b602060405180830381600087803b158015610f1957600080fd5b505af1158015610f2d573d6000803e3d6000fd5b505050506040513d601f19601f82011682018060405250810190610f5191906120f5565b600b80546001600160a01b0319166001600160a01b03929092169182179055600a8054633e5692059190600090610f8a57610f8a6128b5565b9060005260206000200154600a600181548110610fa957610fa96128b5565b906000526020600020015460096040518463ffffffff1660e01b8152600401610fd49392919061273e565b600060405180830381600087803b158015610fee57600080fd5b505af1158015611002573d6000803e3d6000fd5b505050506000600b60009054906101000a90046001600160a01b03166001600160a01b0316638d928af86040518163ffffffff1660e01b815260040160206040518083038186803b15801561105657600080fd5b505afa15801561106a573d6000803e3d6000fd5b505050506040513d601f19601f8201168201806040525081019061108e91906120f5565b90506004546000146111f357600d5460068054909160ff169081106110b5576110b56128b5565b6000918252602090912001546003546001600160a01b03918216916323b872dd918591166110e1611e01565b6040516001600160e01b031960e086901b1681526001600160a01b0393841660048201529290911660248301526044820152606401602060405180830381600087803b15801561113057600080fd5b505af1158015611144573d6000803e3d6000fd5b505050506040513d601f19601f8201168201806040525081019061116891906122c5565b50600354600d54600680546001600160a01b03909316927f1d6298f49fc15449b78df91fcca6812136edc2972366cb70aa0d9145a308cd319260ff169081106111b3576111b36128b5565b6000918252602090912001546001600160a01b03166111d0611e01565b604080516001600160a01b03909316835260208301919091520160405180910390a25b60005b60065460ff821610156113db5760068160ff1681548110611219576112196128b5565b9060005260206000200160009054906101000a90046001600160a01b03166001600160a01b03166323b872dd843060078560ff168154811061125d5761125d6128b5565b6000918252602090912001546040516001600160e01b031960e086901b1681526001600160a01b0393841660048201529290911660248301526044820152606401602060405180830381600087803b1580156112b857600080fd5b505af11580156112cc573d6000803e3d6000fd5b505050506040513d601f19601f820116820180604052508101906112f091906122c5565b5060068160ff1681548110611307576113076128b5565b600091825260209091200154600780546001600160a01b039092169163095ea7b391859160ff861690811061133e5761133e6128b5565b6000918252602090912001546040516001600160e01b031960e085901b1681526001600160a01b0390921660048301526024820152604401602060405180830381600087803b15801561139057600080fd5b505af11580156113a4573d6000803e3d6000fd5b505050506040513d601f19601f820116820180604052508101906113c891906122c5565b50806113d38161287f565b9150506111f6565b50604080516006805460a0602082028401810190945260808301818152600094849391929084018282801561143957602002820191906000526020600020905b81546001600160a01b0316815260019091019060200180831161141b575b50505050508152602001600780548060200260200160405190810160405280929190818152602001828054801561148f57602002820191906000526020600020905b81548152602001906001019080831161147b575b50505050508152602001600060076040516020016114ae92919061263c565b6040516020818303038152906040528152602001600015158152509050816001600160a01b031663b95cac28600b60009054906101000a90046001600160a01b03166001600160a01b03166338fff2d06040518163ffffffff1660e01b815260040160206040518083038186803b15801561152857600080fd5b505afa15801561153c573d6000803e3d6000fd5b505050506040513d601f19601f8201168201806040525081019061156091906122e2565b3030856040518563ffffffff1660e01b815260040161158294939291906125ed565b600060405180830381600087803b15801561159c57600080fd5b505af11580156115b0573d6000803e3d6000fd5b50505050505050565b6000805461034790612844565b600681815481106115d657600080fd5b6000918252602090912001546001600160a01b0316905081565b6002546001600160a01b0316331461161a5760405162461bcd60e51b815260040161043e90612707565b6001600160a01b0381166116705760405162461bcd60e51b815260206004820152601d60248201527f4c42504d616e616765723a206e65772061646d696e206973207a65726f000000604482015260640161043e565b6002546040516001600160a01b038084169216907f39324b4c6f0dfe086be64dee1dd0fff15f9055828415513052c73d8e178c75f590600090a3600280546001600160a01b0319166001600160a01b0392909216919091179055565b6008818154811061080257600080fd5b6009818154811061080257600080fd5b600a818154811061080257600080fd5b6002546001600160a01b031633146117265760405162461bcd60e51b815260040161043e90612707565b6001600160a01b03811661177c5760405162461bcd60e51b815260206004820152601c60248201527f4c42504d616e616765723a207265636569766572206973207a65726f00000000604482015260640161043e565b600b546040516370a0823160e01b81523060048201526000916001600160a01b0316906370a082319060240160206040518083038186803b1580156117c057600080fd5b505afa1580156117d4573d6000803e3d6000fd5b505050506040513d601f19601f820116820180604052508101906117f891906122e2565b116118455760405162461bcd60e51b815260206004820181905260248201527f4c42504d616e616765723a206e6f2042505420746f6b656e2062616c616e6365604482015260640161043e565b600b54604080516303df769160e51b815290516000926001600160a01b031691637beed2209160048083019286929190829003018186803b15801561188957600080fd5b505afa15801561189d573d6000803e3d6000fd5b505050506040513d6000823e601f3d908101601f191682016040526118c59190810190612351565b50915050428111156119195760405162461bcd60e51b815260206004820152601f60248201527f4c42504d616e616765723a20656e6474696d65206e6f74207265616368656400604482015260640161043e565b600b54604080516311b2515f60e31b815290516000926001600160a01b031691638d928af8916004808301926020929190829003018186803b15801561195e57600080fd5b505afa158015611972573d6000803e3d6000fd5b505050506040513d601f19601f8201168201806040525081019061199691906120f5565b90506000604051806080016040528060068054806020026020016040519081016040528092919081815260200182805480156119fb57602002820191906000526020600020905b81546001600160a01b031681526001909101906020018083116119dd575b5050505050815260200160068054905067ffffffffffffffff811115611a2357611a236128cb565b604051908082528060200260200182016040528015611a4c578160200160208202803683370190505b508152600b546040516370a0823160e01b81523060048201526020909201916001916001600160a01b0316906370a082319060240160206040518083038186803b158015611a9957600080fd5b505afa158015611aad573d6000803e3d6000fd5b505050506040513d601f19601f82011682018060405250810190611ad191906122e2565b6040805160ff909316602084015282015260600160408051808303601f190181529181529082526000602090920191909152600b5490516370a0823160e01b81523060048201529192506001600160a01b03169063095ea7b390849083906370a082319060240160206040518083038186803b158015611b5057600080fd5b505afa158015611b64573d6000803e3d6000fd5b505050506040513d601f19601f82011682018060405250810190611b8891906122e2565b6040516001600160e01b031960e085901b1681526001600160a01b0390921660048301526024820152604401602060405180830381600087803b158015611bce57600080fd5b505af1158015611be2573d6000803e3d6000fd5b505050506040513d601f19601f82011682018060405250810190611c0691906122c5565b50816001600160a01b0316638bdb3913600b60009054906101000a90046001600160a01b03166001600160a01b03166338fff2d06040518163ffffffff1660e01b815260040160206040518083038186803b158015611c6457600080fd5b505afa158015611c78573d6000803e3d6000fd5b505050506040513d601f19601f82011682018060405250810190611c9c91906122e2565b3087856040518563ffffffff1660e01b8152600401611cbe94939291906125ed565b600060405180830381600087803b158015611cd857600080fd5b505af1158015611cec573d6000803e3d6000fd5b5050505050505050565b6002546001600160a01b03163314611d205760405162461bcd60e51b815260040161043e90612707565b600b54604051633806be4b60e21b815282151560048201526001600160a01b039091169063e01af92c90602401600060405180830381600087803b158015611d6757600080fd5b505af1158015611d7b573d6000803e3d6000fd5b5050505050565b6002546001600160a01b03163314611dac5760405162461bcd60e51b815260040161043e90612707565b8051611dbf90600c906020840190611e4e565b5080604051611dce91906125d1565b604051908190038120907f09f579b21815d3f81581d32e97736ccba1cc89d1918e48da28e6e206acd9686490600090a250565b600454600d5460078054600093678ac7230489e800009390929160ff909116908110611e2f57611e2f6128b5565b9060005260206000200154611e4491906127f5565b61040291906127d3565b828054611e5a90612844565b90600052602060002090601f016020900481019282611e7c5760008555611ec2565b82601f10611e9557805160ff1916838001178555611ec2565b82800160010185558215611ec2579182015b82811115611ec2578251825591602001919060010190611ea7565b50611ece929150611f61565b5090565b828054828255906000526020600020908101928215611ec25791602002820182811115611ec2578251825591602001919060010190611ea7565b828054828255906000526020600020908101928215611ec2579160200282015b82811115611ec257825182546001600160a01b0319166001600160a01b03909116178255602090920191600190910190611f2c565b5b80821115611ece5760008155600101611f62565b8035611f81816128e1565b919050565b600082601f830112611f9757600080fd5b81356020611fac611fa783612797565b612766565b80838252828201915082860187848660051b8901011115611fcc57600080fd5b60005b85811015611ff4578135611fe2816128e1565b84529284019290840190600101611fcf565b5090979650505050505050565b600082601f83011261201257600080fd5b81356020612022611fa783612797565b80838252828201915082860187848660051b890101111561204257600080fd5b60005b85811015611ff457813584529284019290840190600101612045565b600082601f83011261207257600080fd5b813567ffffffffffffffff81111561208c5761208c6128cb565b61209f601f8201601f1916602001612766565b8181528460208386010111156120b457600080fd5b816020850160208301376000918101602001919091529392505050565b6000602082840312156120e357600080fd5b81356120ee816128e1565b9392505050565b60006020828403121561210757600080fd5b81516120ee816128e1565b60008060008060008060008060008060006101608c8e03121561213457600080fd5b61213d8c611f76565b9a5061214b60208d01611f76565b995067ffffffffffffffff8060408e0135111561216757600080fd5b6121778e60408f01358f01612061565b99508060608e0135111561218a57600080fd5b61219a8e60608f01358f01612061565b98508060808e013511156121ad57600080fd5b6121bd8e60808f01358f01611f86565b97508060a08e013511156121d057600080fd5b6121e08e60a08f01358f01612001565b96508060c08e013511156121f357600080fd5b6122038e60c08f01358f01612001565b95508060e08e0135111561221657600080fd5b6122268e60e08f01358f01612001565b9450806101008e0135111561223a57600080fd5b61224b8e6101008f01358f01612001565b9350806101208e0135111561225f57600080fd5b6122708e6101208f01358f01612001565b9250806101408e0135111561228457600080fd5b506122968d6101408e01358e01612061565b90509295989b509295989b9093969950565b6000602082840312156122ba57600080fd5b81356120ee816128f9565b6000602082840312156122d757600080fd5b81516120ee816128f9565b6000602082840312156122f457600080fd5b5051919050565b60006020828403121561230d57600080fd5b813567ffffffffffffffff81111561232457600080fd5b61233084828501612061565b949350505050565b60006020828403121561234a57600080fd5b5035919050565b60008060006060848603121561236657600080fd5b835192506020808501519250604085015167ffffffffffffffff81111561238c57600080fd5b8501601f8101871361239d57600080fd5b80516123ab611fa782612797565b8082825284820191508484018a868560051b87010111156123cb57600080fd5b600094505b838510156123ee5780518352600194909401939185019185016123d0565b5080955050505050509250925092565b600081518084526020808501945080840160005b8381101561242e57815187529582019590820190600101612412565b509495945050505050565b6000815480845260208085019450836000528060002060005b8381101561242e57815487529582019560019182019101612452565b60008151808452612486816020860160208601612814565b601f01601f19169290920160200192915050565b8054600090600181811c90808316806124b457607f831692505b60208084108214156124d657634e487b7160e01b600052602260045260246000fd5b838852602088018280156124f157600181146125025761252d565b60ff1987168252828201975061252d565b60008981526020902060005b878110156125275781548482015290860190840161250e565b83019850505b5050505050505092915050565b8051608080845281519084018190526000916020919082019060a0860190845b8181101561257f5783516001600160a01b03168352928401929184019160010161255a565b50508285015191508581038387015261259881836123fe565b92505050604083015184820360408601526125b3828261246e565b91505060608301516125c9606086018215159052565b509392505050565b600082516125e3818460208701612814565b9190910192915050565b8481526001600160a01b0384811660208301528316604082015260806060820181905260009061261f9083018461253a565b9695505050505050565b6020815260006120ee602083018461246e565b60ff831681526040602082015260006123306040830184612439565b60e08152600061266b60e083018a61249a565b60208382038185015261267e828b61249a565b8481036040860152895480825260008b81528381209450918301915b818110156126bf5784546001600160a01b03168352600194850194928401920161269a565b505084810360608601526126d3818a612439565b93505050508460808301526126f360a08301856001600160a01b03169052565b82151560c083015298975050505050505050565b6020808252601f908201527f4c42504d616e616765723a2063616c6c6572206973206e6f742061646d696e00604082015260600190565b83815282602082015260606040820152600061275d6060830184612439565b95945050505050565b604051601f8201601f1916810167ffffffffffffffff8111828210171561278f5761278f6128cb565b604052919050565b600067ffffffffffffffff8211156127b1576127b16128cb565b5060051b60200190565b600082198211156127ce576127ce61289f565b500190565b6000826127f057634e487b7160e01b600052601260045260246000fd5b500490565b600081600019048311821515161561280f5761280f61289f565b500290565b60005b8381101561282f578181015183820152602001612817565b8381111561283e576000848401525b50505050565b600181811c9082168061285857607f821691505b6020821081141561287957634e487b7160e01b600052602260045260246000fd5b50919050565b600060ff821660ff8114156128965761289661289f565b60010192915050565b634e487b7160e01b600052601160045260246000fd5b634e487b7160e01b600052603260045260246000fd5b634e487b7160e01b600052604160045260246000fd5b6001600160a01b03811681146128f657600080fd5b50565b80151581146128f657600080fdfea2646970667358221220531ca51f19dcf0cc9f8f035463eea1174bea17a0b9acc7ffa1ff1ed246ead2ca64736f6c63430008060033",
  "devdoc": {
    "details": "Smart contract for managing interactions with a Balancer LBP.",
    "kind": "dev",
    "methods": {
      "initializeLBP(address)": {
        "details": "Subtracts the fee, deploys the LBP and adds liquidity to it.",
        "params": {
          "_sender": "Address of the liquidity provider."
        }
      },
      "initializeLBPManager(address,address,string,string,address[],uint256[],uint256[],uint256[],uint256[],uint256[],bytes)": {
        "details": "Initialize LBPManager.",
        "params": {
          "_LBPFactory": "LBP factory address.",
          "_amounts": "Array containing two parameters in order of: 1. The amounts of project token to be added as liquidity to the LBP. 2. The amounts of funding token to be added as liquidity to the LBP.",
          "_beneficiary": "The address that receives the feePercentage.",
          "_endWeights": "Array containing two parametes in order of: 1. The end weight for the project token in the LBP. 2. The end weight for the funding token in the LBP.",
          "_fees": "Array containing two parameters in order of: 1. Percentage of fee paid for every swap in the LBP. 2. Percentage of fee paid to the _beneficiary for providing the service of the LBP Manager.",
          "_metadata": "IPFS Hash of the LBP creation wizard information.",
          "_name": "Name of the LBP.",
          "_startTimeEndTime": "Array containing two parameters in order of: 1. Start time for the LBP. 2. End time for the LBP.",
          "_startWeights": "Array containing two parametes in order of: 1. The start weight for the project token in the LBP. 2. The start weight for the funding token in the LBP.",
          "_symbol": "Symbol of the LBP.",
          "_tokenList": "Array containing two addresses in order of: 1. The address of the project token being distributed. 2. The address of the funding token being exchanged for the project token."
        }
      },
      "projectTokensRequired()": {
        "details": "Get required amount of project tokens to cover for fees and the actual LBP."
      },
      "removeLiquidity(address)": {
        "details": "Exit pool or remove liquidity from pool.",
        "params": {
          "_receiver": "Address of the liquidity receiver, after exiting the LBP."
        }
      },
      "setSwapEnabled(bool)": {
        "details": "Can pause/unpause trading.",
        "params": {
          "_swapEnabled": "Enables/disables swapping."
        }
      },
      "transferAdminRights(address)": {
        "details": "Transfer admin rights.",
        "params": {
          "_newAdmin": "Address of the new admin."
        }
      },
      "updateMetadata(bytes)": {
        "details": "Updates metadata.",
        "params": {
          "_metadata": "LBP wizard contract metadata, that is an IPFS Hash."
        }
      },
      "withdrawPoolTokens(address)": {
        "details": "Withdraw pool tokens if available.",
        "params": {
          "_receiver": "Address of the BPT tokens receiver."
        }
      }
    },
    "title": "LBPManager contract.",
    "version": 1
  },
  "userdoc": {
    "kind": "user",
    "methods": {},
    "version": 1
  },
  "storageLayout": {
    "storage": [
      {
        "astId": 239,
        "contract": "contracts/lbp/LBPManager.sol:LBPManager",
        "label": "symbol",
        "offset": 0,
        "slot": "0",
        "type": "t_string_storage"
      },
      {
        "astId": 241,
        "contract": "contracts/lbp/LBPManager.sol:LBPManager",
        "label": "name",
        "offset": 0,
        "slot": "1",
        "type": "t_string_storage"
      },
      {
        "astId": 243,
        "contract": "contracts/lbp/LBPManager.sol:LBPManager",
        "label": "admin",
        "offset": 0,
        "slot": "2",
        "type": "t_address"
      },
      {
        "astId": 245,
        "contract": "contracts/lbp/LBPManager.sol:LBPManager",
        "label": "beneficiary",
        "offset": 0,
        "slot": "3",
        "type": "t_address"
      },
      {
        "astId": 247,
        "contract": "contracts/lbp/LBPManager.sol:LBPManager",
        "label": "feePercentage",
        "offset": 0,
        "slot": "4",
        "type": "t_uint256"
      },
      {
        "astId": 249,
        "contract": "contracts/lbp/LBPManager.sol:LBPManager",
        "label": "swapFeePercentage",
        "offset": 0,
        "slot": "5",
        "type": "t_uint256"
      },
      {
        "astId": 253,
        "contract": "contracts/lbp/LBPManager.sol:LBPManager",
        "label": "tokenList",
        "offset": 0,
        "slot": "6",
        "type": "t_array(t_contract(IERC20)11734)dyn_storage"
      },
      {
        "astId": 256,
        "contract": "contracts/lbp/LBPManager.sol:LBPManager",
        "label": "amounts",
        "offset": 0,
        "slot": "7",
        "type": "t_array(t_uint256)dyn_storage"
      },
      {
        "astId": 259,
        "contract": "contracts/lbp/LBPManager.sol:LBPManager",
        "label": "startWeights",
        "offset": 0,
        "slot": "8",
        "type": "t_array(t_uint256)dyn_storage"
      },
      {
        "astId": 262,
        "contract": "contracts/lbp/LBPManager.sol:LBPManager",
        "label": "endWeights",
        "offset": 0,
        "slot": "9",
        "type": "t_array(t_uint256)dyn_storage"
      },
      {
        "astId": 265,
        "contract": "contracts/lbp/LBPManager.sol:LBPManager",
        "label": "startTimeEndTime",
        "offset": 0,
        "slot": "10",
        "type": "t_array(t_uint256)dyn_storage"
      },
      {
        "astId": 268,
        "contract": "contracts/lbp/LBPManager.sol:LBPManager",
        "label": "lbp",
        "offset": 0,
        "slot": "11",
        "type": "t_contract(ILBP)2864"
      },
      {
        "astId": 270,
        "contract": "contracts/lbp/LBPManager.sol:LBPManager",
        "label": "metadata",
        "offset": 0,
        "slot": "12",
        "type": "t_bytes_storage"
      },
      {
        "astId": 272,
        "contract": "contracts/lbp/LBPManager.sol:LBPManager",
        "label": "projectTokenIndex",
        "offset": 0,
        "slot": "13",
        "type": "t_uint8"
      },
      {
        "astId": 274,
        "contract": "contracts/lbp/LBPManager.sol:LBPManager",
        "label": "LBPFactory",
        "offset": 1,
        "slot": "13",
        "type": "t_address"
      },
      {
        "astId": 276,
        "contract": "contracts/lbp/LBPManager.sol:LBPManager",
        "label": "poolFunded",
        "offset": 21,
        "slot": "13",
        "type": "t_bool"
      },
      {
        "astId": 278,
        "contract": "contracts/lbp/LBPManager.sol:LBPManager",
        "label": "initialized",
        "offset": 22,
        "slot": "13",
        "type": "t_bool"
      }
    ],
    "types": {
      "t_address": {
        "encoding": "inplace",
        "label": "address",
        "numberOfBytes": "20"
      },
      "t_array(t_contract(IERC20)11734)dyn_storage": {
        "base": "t_contract(IERC20)11734",
        "encoding": "dynamic_array",
        "label": "contract IERC20[]",
        "numberOfBytes": "32"
      },
      "t_array(t_uint256)dyn_storage": {
        "base": "t_uint256",
        "encoding": "dynamic_array",
        "label": "uint256[]",
        "numberOfBytes": "32"
      },
      "t_bool": {
        "encoding": "inplace",
        "label": "bool",
        "numberOfBytes": "1"
      },
      "t_bytes_storage": {
        "encoding": "bytes",
        "label": "bytes",
        "numberOfBytes": "32"
      },
      "t_contract(IERC20)11734": {
        "encoding": "inplace",
        "label": "contract IERC20",
        "numberOfBytes": "20"
      },
      "t_contract(ILBP)2864": {
        "encoding": "inplace",
        "label": "contract ILBP",
        "numberOfBytes": "20"
      },
      "t_string_storage": {
        "encoding": "bytes",
        "label": "string",
        "numberOfBytes": "32"
      },
      "t_uint256": {
        "encoding": "inplace",
        "label": "uint256",
        "numberOfBytes": "32"
      },
      "t_uint8": {
        "encoding": "inplace",
        "label": "uint8",
        "numberOfBytes": "1"
      }
    }
  }
}