{
  "address": "0xc5b506d51cd186fd11eAE363996D080F3DeDb8B4",
  "abi": [
    {
      "anonymous": false,
      "inputs": [
        {
          "indexed": true,
          "internalType": "address",
          "name": "beneficiary",
          "type": "address"
        },
        {
          "indexed": false,
          "internalType": "address",
          "name": "tokenAddress",
          "type": "address"
        },
        {
          "indexed": false,
          "internalType": "uint256",
          "name": "amount",
          "type": "uint256"
        }
      ],
      "name": "FeeTransferred",
      "type": "event"
    },
    {
      "anonymous": false,
      "inputs": [
        {
          "indexed": true,
          "internalType": "address",
          "name": "oldAdmin",
          "type": "address"
        },
        {
          "indexed": true,
          "internalType": "address",
          "name": "newAdmin",
          "type": "address"
        }
      ],
      "name": "LBPManagerAdminChanged",
      "type": "event"
    },
    {
      "anonymous": false,
      "inputs": [
        {
          "indexed": true,
          "internalType": "bytes",
          "name": "metadata",
          "type": "bytes"
        }
      ],
      "name": "MetadataUpdated",
      "type": "event"
    },
    {
      "anonymous": false,
      "inputs": [
        {
          "indexed": true,
          "internalType": "address",
          "name": "lbpAddress",
          "type": "address"
        },
        {
          "indexed": false,
          "internalType": "uint256",
          "name": "amount",
          "type": "uint256"
        }
      ],
      "name": "PoolTokensWithdrawn",
      "type": "event"
    },
    {
      "inputs": [],
      "name": "admin",
      "outputs": [
        {
          "internalType": "address",
          "name": "",
          "type": "address"
        }
      ],
      "stateMutability": "view",
      "type": "function"
    },
    {
      "inputs": [
        {
          "internalType": "uint256",
          "name": "",
          "type": "uint256"
        }
      ],
      "name": "amounts",
      "outputs": [
        {
          "internalType": "uint256",
          "name": "",
          "type": "uint256"
        }
      ],
      "stateMutability": "view",
      "type": "function"
    },
    {
      "inputs": [],
      "name": "beneficiary",
      "outputs": [
        {
          "internalType": "address",
          "name": "",
          "type": "address"
        }
      ],
      "stateMutability": "view",
      "type": "function"
    },
    {
      "inputs": [
        {
          "internalType": "uint256",
          "name": "",
          "type": "uint256"
        }
      ],
      "name": "endWeights",
      "outputs": [
        {
          "internalType": "uint256",
          "name": "",
          "type": "uint256"
        }
      ],
      "stateMutability": "view",
      "type": "function"
    },
    {
      "inputs": [],
      "name": "feePercentage",
      "outputs": [
        {
          "internalType": "uint256",
          "name": "",
          "type": "uint256"
        }
      ],
      "stateMutability": "view",
      "type": "function"
    },
    {
      "inputs": [],
      "name": "getSwapEnabled",
      "outputs": [
        {
          "internalType": "bool",
          "name": "",
          "type": "bool"
        }
      ],
      "stateMutability": "view",
      "type": "function"
    },
    {
      "inputs": [
        {
          "internalType": "address",
          "name": "_sender",
          "type": "address"
        }
      ],
      "name": "initializeLBP",
      "outputs": [],
      "stateMutability": "nonpayable",
      "type": "function"
    },
    {
      "inputs": [
        {
          "internalType": "address",
          "name": "_lbpFactory",
          "type": "address"
        },
        {
          "internalType": "address",
          "name": "_beneficiary",
          "type": "address"
        },
        {
          "internalType": "string",
          "name": "_name",
          "type": "string"
        },
        {
          "internalType": "string",
          "name": "_symbol",
          "type": "string"
        },
        {
          "internalType": "contract IERC20[]",
          "name": "_tokenList",
          "type": "address[]"
        },
        {
          "internalType": "uint256[]",
          "name": "_amounts",
          "type": "uint256[]"
        },
        {
          "internalType": "uint256[]",
          "name": "_startWeights",
          "type": "uint256[]"
        },
        {
          "internalType": "uint256[]",
          "name": "_startTimeEndTime",
          "type": "uint256[]"
        },
        {
          "internalType": "uint256[]",
          "name": "_endWeights",
          "type": "uint256[]"
        },
        {
          "internalType": "uint256[]",
          "name": "_fees",
          "type": "uint256[]"
        },
        {
          "internalType": "bytes",
          "name": "_metadata",
          "type": "bytes"
        }
      ],
      "name": "initializeLBPManager",
      "outputs": [],
      "stateMutability": "nonpayable",
      "type": "function"
    },
    {
      "inputs": [],
      "name": "initialized",
      "outputs": [
        {
          "internalType": "bool",
          "name": "",
          "type": "bool"
        }
      ],
      "stateMutability": "view",
      "type": "function"
    },
    {
      "inputs": [],
      "name": "lbp",
      "outputs": [
        {
          "internalType": "contract ILBP",
          "name": "",
          "type": "address"
        }
      ],
      "stateMutability": "view",
      "type": "function"
    },
    {
      "inputs": [],
      "name": "lbpFactory",
      "outputs": [
        {
          "internalType": "address",
          "name": "",
          "type": "address"
        }
      ],
      "stateMutability": "view",
      "type": "function"
    },
    {
      "inputs": [],
      "name": "metadata",
      "outputs": [
        {
          "internalType": "bytes",
          "name": "",
          "type": "bytes"
        }
      ],
      "stateMutability": "view",
      "type": "function"
    },
    {
      "inputs": [],
      "name": "name",
      "outputs": [
        {
          "internalType": "string",
          "name": "",
          "type": "string"
        }
      ],
      "stateMutability": "view",
      "type": "function"
    },
    {
      "inputs": [],
      "name": "poolFunded",
      "outputs": [
        {
          "internalType": "bool",
          "name": "",
          "type": "bool"
        }
      ],
      "stateMutability": "view",
      "type": "function"
    },
    {
      "inputs": [],
      "name": "projectTokenIndex",
      "outputs": [
        {
          "internalType": "uint8",
          "name": "",
          "type": "uint8"
        }
      ],
      "stateMutability": "view",
      "type": "function"
    },
    {
      "inputs": [],
      "name": "projectTokensRequired",
      "outputs": [
        {
          "internalType": "uint256",
          "name": "projectTokenAmounts",
          "type": "uint256"
        }
      ],
      "stateMutability": "view",
      "type": "function"
    },
    {
      "inputs": [
        {
          "internalType": "address",
          "name": "_receiver",
          "type": "address"
        }
      ],
      "name": "removeLiquidity",
      "outputs": [],
      "stateMutability": "nonpayable",
      "type": "function"
    },
    {
      "inputs": [
        {
          "internalType": "bool",
          "name": "_swapEnabled",
          "type": "bool"
        }
      ],
      "name": "setSwapEnabled",
      "outputs": [],
      "stateMutability": "nonpayable",
      "type": "function"
    },
    {
      "inputs": [
        {
          "internalType": "uint256",
          "name": "",
          "type": "uint256"
        }
      ],
      "name": "startTimeEndTime",
      "outputs": [
        {
          "internalType": "uint256",
          "name": "",
          "type": "uint256"
        }
      ],
      "stateMutability": "view",
      "type": "function"
    },
    {
      "inputs": [
        {
          "internalType": "uint256",
          "name": "",
          "type": "uint256"
        }
      ],
      "name": "startWeights",
      "outputs": [
        {
          "internalType": "uint256",
          "name": "",
          "type": "uint256"
        }
      ],
      "stateMutability": "view",
      "type": "function"
    },
    {
      "inputs": [],
      "name": "swapFeePercentage",
      "outputs": [
        {
          "internalType": "uint256",
          "name": "",
          "type": "uint256"
        }
      ],
      "stateMutability": "view",
      "type": "function"
    },
    {
      "inputs": [],
      "name": "symbol",
      "outputs": [
        {
          "internalType": "string",
          "name": "",
          "type": "string"
        }
      ],
      "stateMutability": "view",
      "type": "function"
    },
    {
      "inputs": [
        {
          "internalType": "uint256",
          "name": "",
          "type": "uint256"
        }
      ],
      "name": "tokenList",
      "outputs": [
        {
          "internalType": "contract IERC20",
          "name": "",
          "type": "address"
        }
      ],
      "stateMutability": "view",
      "type": "function"
    },
    {
      "inputs": [
        {
          "internalType": "address",
          "name": "_newAdmin",
          "type": "address"
        }
      ],
      "name": "transferAdminRights",
      "outputs": [],
      "stateMutability": "nonpayable",
      "type": "function"
    },
    {
      "inputs": [
        {
          "internalType": "bytes",
          "name": "_metadata",
          "type": "bytes"
        }
      ],
      "name": "updateMetadata",
      "outputs": [],
      "stateMutability": "nonpayable",
      "type": "function"
    },
    {
      "inputs": [
        {
          "internalType": "address",
          "name": "_receiver",
          "type": "address"
        }
      ],
      "name": "withdrawPoolTokens",
      "outputs": [],
      "stateMutability": "nonpayable",
      "type": "function"
    }
  ],
  "transactionHash": "0x307570385eae386955788aa0cefcfe1773289cd771d1d14b27cc040b4cf60371",
  "args": [],
  "solcInputHash": "6b0bed9ca9cf15f3237398852022a82e",
  "bytecode": "0x608060405234801561001057600080fd5b506128d3806100206000396000f3fe608060405234801561001057600080fd5b506004361061018e5760003560e01c8063a001ecdd116100de578063c9d8616f11610097578063d798f86e11610071578063d798f86e1461034b578063e01af92c1461035e578063f851a44014610371578063fc582d411461038457600080fd5b8063c9d8616f14610306578063cb209b6c14610319578063cd2055e51461033857600080fd5b8063a001ecdd146102a2578063a4ac0d49146102ab578063a88971fa146102b4578063b5106add146102c8578063bb7bfb0c146102db578063c18b5151146102ee57600080fd5b80633facbb851161014b5780638638fe31116101255780638638fe31146102615780638bfd52891461027457806395d89b41146102875780639ead72221461028f57600080fd5b80633facbb851461023157806345f0a44f1461024657806347bc4d921461025957600080fd5b806306fdde0314610193578063092f7de7146101b1578063158ef93e146101dc5780633281f3ec1461020057806338af3eed14610216578063392f37e914610229575b600080fd5b61019b610397565b6040516101a8919061201f565b60405180910390f35b600b546101c4906001600160a01b031681565b6040516001600160a01b0390911681526020016101a8565b600d546101f090600160b01b900460ff1681565b60405190151581526020016101a8565b610208610425565b6040519081526020016101a8565b6003546101c4906001600160a01b031681565b61019b610464565b61024461023f366004612061565b610471565b005b61020861025436600461207e565b6107ee565b6101f061080f565b61024461026f366004612241565b61088c565b610244610282366004612061565b610f85565b61019b61176c565b6101c461029d36600461207e565b611779565b61020860045481565b61020860055481565b600d546101f090600160a81b900460ff1681565b6102446102d6366004612061565b6117a3565b6102086102e936600461207e565b61187f565b600d546101c49061010090046001600160a01b031681565b61020861031436600461207e565b61188f565b600d546103269060ff1681565b60405160ff90911681526020016101a8565b61020861034636600461207e565b61189f565b610244610359366004612061565b6118af565b61024461036c3660046123e5565b611d43565b6002546101c4906001600160a01b031681565b610244610392366004612402565b611dcf565b600180546103a49061243f565b80601f01602080910402602001604051908101604052809291908181526020018280546103d09061243f565b801561041d5780601f106103f25761010080835404028352916020019161041d565b820191906000526020600020905b81548152906001019060200180831161040057829003601f168201915b505050505081565b600061042f611e4e565b600d5460078054909160ff1690811061044a5761044a61247a565b906000526020600020015461045f91906124a6565b905090565b600c80546103a49061243f565b6002546001600160a01b031633146104a45760405162461bcd60e51b815260040161049b906124be565b60405180910390fd5b6001600160a01b0381166104fa5760405162461bcd60e51b815260206004820152601c60248201527f4c42504d616e616765723a207265636569766572206973207a65726f00000000604482015260640161049b565b6000600a6001815481106105105761051061247a565b906000526020600020015490508042101561056d5760405162461bcd60e51b815260206004820152601f60248201527f4c42504d616e616765723a20656e6474696d65206e6f74207265616368656400604482015260640161049b565b600b546040516370a0823160e01b81523060048201526000916001600160a01b0316906370a082319060240160206040518083038186803b1580156105b157600080fd5b505afa1580156105c5573d6000803e3d6000fd5b505050506040513d601f19601f820116820180604052508101906105e991906124f5565b116106365760405162461bcd60e51b815260206004820181905260248201527f4c42504d616e616765723a206e6f2042505420746f6b656e2062616c616e6365604482015260640161049b565b600b546040516370a0823160e01b81523060048201526001600160a01b03909116907fd0b72dd3c0f971f9cf266fee8e4c7660231316a67c88a587fa8dfa398c9e13749082906370a082319060240160206040518083038186803b15801561069d57600080fd5b505afa1580156106b1573d6000803e3d6000fd5b505050506040513d601f19601f820116820180604052508101906106d591906124f5565b60405190815260200160405180910390a2600b546040516370a0823160e01b81523060048201526001600160a01b039091169063a9059cbb90849083906370a082319060240160206040518083038186803b15801561073357600080fd5b505afa158015610747573d6000803e3d6000fd5b505050506040513d601f19601f8201168201806040525081019061076b91906124f5565b6040516001600160e01b031960e085901b1681526001600160a01b0390921660048301526024820152604401602060405180830381600087803b1580156107b157600080fd5b505af11580156107c5573d6000803e3d6000fd5b505050506040513d601f19601f820116820180604052508101906107e9919061250e565b505050565b600781815481106107fe57600080fd5b600091825260209091200154905081565b600b54604080516323de26c960e11b815290516000926001600160a01b0316916347bc4d92916004808301926020929190829003018186803b15801561085457600080fd5b505afa158015610868573d6000803e3d6000fd5b505050506040513d601f19601f8201168201806040525081019061045f919061250e565b600d54600160b01b900460ff16156108e65760405162461bcd60e51b815260206004820152601f60248201527f4c42504d616e616765723a20616c726561647920696e697469616c697a656400604482015260640161049b565b6001600160a01b038a1661093c5760405162461bcd60e51b815260206004820181905260248201527f4c42504d616e616765723a205f62656e6566696369617279206973207a65726f604482015260640161049b565b64e8d4a51000826000815181106109555761095561247a565b602002602001015110156109b75760405162461bcd60e51b8152602060048201526024808201527f4c42504d616e616765723a207377617046656550657263656e7461676520746f604482015263206c6f7760e01b606482015260840161049b565b67016345785d8a0000826000815181106109d3576109d361247a565b60200260200101511115610a375760405162461bcd60e51b815260206004820152602560248201527f4c42504d616e616765723a207377617046656550657263656e7461676520746f604482015264040d0d2ced60db1b606482015260840161049b565b86516002148015610a49575085516002145b8015610a56575084516002145b8015610a63575083516002145b8015610a70575082516002145b8015610a7d575081516002145b610ac95760405162461bcd60e51b815260206004820152601d60248201527f4c42504d616e616765723a206172726179732077726f6e672073697a65000000604482015260640161049b565b86600181518110610adc57610adc61247a565b60200260200101516001600160a01b031687600081518110610b0057610b0061247a565b60200260200101516001600160a01b03161415610b5f5760405162461bcd60e51b815260206004820181905260248201527f4c42504d616e616765723a20746f6b656e732063616e27742062652073616d65604482015260640161049b565b83600181518110610b7257610b7261247a565b602002602001015184600081518110610b8d57610b8d61247a565b602002602001015110610be25760405162461bcd60e51b815260206004820152601f60248201527f4c42504d616e616765723a20737461727454696d65203e20656e6454696d6500604482015260640161049b565b600d805460ff60b01b1916600160b01b179055600280546001600160a01b0319163317905581518290600090610c1a57610c1a61247a565b602002602001015160058190555081600181518110610c3b57610c3b61247a565b602090810291909101810151600455600380546001600160a01b0319166001600160a01b038d161790558151610c7791600c9190840190611e9b565b508351610c8b90600a906020870190611f1f565b508851610c9f9060019060208c0190611e9b565b508751610cb39060009060208b0190611e9b565b50600d8054610100600160a81b0319166101006001600160a01b038e1602179055865187906001908110610ce957610ce961247a565b60200260200101516001600160a01b031687600081518110610d0d57610d0d61247a565b60200260200101516001600160a01b03161115610f1d57600d805460ff19166001908117909155875160069189918110610d4957610d4961247a565b6020908102919091018101518254600181018455600093845291832090910180546001600160a01b0319166001600160a01b0390921691909117905587516006918991610d9857610d9861247a565b60209081029190910181015182546001808201855560009485529290932090920180546001600160a01b0319166001600160a01b0390931692909217909155865160079188918110610dec57610dec61247a565b602090810291909101810151825460018101845560009384529183209091015586516007918891610e1f57610e1f61247a565b60209081029190910181015182546001818101855560009485529290932090920191909155855160089187918110610e5957610e5961247a565b602090810291909101810151825460018101845560009384529183209091015585516008918791610e8c57610e8c61247a565b60209081029190910181015182546001818101855560009485529290932090920191909155835160099185918110610ec657610ec661247a565b602090810291909101810151825460018101845560009384529183209091015583516009918591610ef957610ef961247a565b60209081029190910181015182546001810184556000938452919092200155610f78565b600d805460ff191690558651610f3a9060069060208a0190611f59565b508551610f4e906007906020890190611f1f565b508451610f62906008906020880190611f1f565b508251610f76906009906020860190611f1f565b505b5050505050505050505050565b6002546001600160a01b03163314610faf5760405162461bcd60e51b815260040161049b906124be565b600d54600160b01b900460ff16151560011461101c5760405162461bcd60e51b815260206004820152602660248201527f4c42504d616e616765723a204c42504d616e61676572206e6f7420696e697469604482015265185b1a5e995960d21b606482015260840161049b565b600d54600160a81b900460ff16156110765760405162461bcd60e51b815260206004820152601f60248201527f4c42504d616e616765723a20706f6f6c20616c72656164792066756e64656400604482015260640161049b565b600d8054600160a81b60ff60a81b199091161790819055600554604051632367971960e01b81526101009092046001600160a01b0316916323679719916110cf916001916000916006916008913090869060040161260b565b602060405180830381600087803b1580156110e957600080fd5b505af11580156110fd573d6000803e3d6000fd5b505050506040513d601f19601f8201168201806040525081019061112191906126bc565b600b80546001600160a01b0319166001600160a01b03929092169182179055600a8054633e569205919060009061115a5761115a61247a565b9060005260206000200154600a6001815481106111795761117961247a565b906000526020600020015460096040518463ffffffff1660e01b81526004016111a4939291906126d9565b600060405180830381600087803b1580156111be57600080fd5b505af11580156111d2573d6000803e3d6000fd5b505050506000600b60009054906101000a90046001600160a01b03166001600160a01b0316638d928af86040518163ffffffff1660e01b815260040160206040518083038186803b15801561122657600080fd5b505afa15801561123a573d6000803e3d6000fd5b505050506040513d601f19601f8201168201806040525081019061125e91906126bc565b90506004546000146113a6576000611274611e4e565b600d54600680549293509160ff9091169081106112935761129361247a565b6000918252602090912001546003546040516323b872dd60e01b81526001600160a01b0386811660048301529182166024820152604481018490529116906323b872dd90606401602060405180830381600087803b1580156112f457600080fd5b505af1158015611308573d6000803e3d6000fd5b505050506040513d601f19601f8201168201806040525081019061132c919061250e565b50600354600d54600680546001600160a01b03909316927f1d6298f49fc15449b78df91fcca6812136edc2972366cb70aa0d9145a308cd319260ff169081106113775761137761247a565b60009182526020918290200154604080516001600160a01b0390921682529181018590520160405180910390a2505b60005b60065460ff8216101561158e5760068160ff16815481106113cc576113cc61247a565b9060005260206000200160009054906101000a90046001600160a01b03166001600160a01b03166323b872dd843060078560ff16815481106114105761141061247a565b6000918252602090912001546040516001600160e01b031960e086901b1681526001600160a01b0393841660048201529290911660248301526044820152606401602060405180830381600087803b15801561146b57600080fd5b505af115801561147f573d6000803e3d6000fd5b505050506040513d601f19601f820116820180604052508101906114a3919061250e565b5060068160ff16815481106114ba576114ba61247a565b600091825260209091200154600780546001600160a01b039092169163095ea7b391859160ff86169081106114f1576114f161247a565b6000918252602090912001546040516001600160e01b031960e085901b1681526001600160a01b0390921660048301526024820152604401602060405180830381600087803b15801561154357600080fd5b505af1158015611557573d6000803e3d6000fd5b505050506040513d601f19601f8201168201806040525081019061157b919061250e565b508061158681612701565b9150506113a9565b50604080516006805460a060208202840181019094526080830181815260009484939192908401828280156115ec57602002820191906000526020600020905b81546001600160a01b031681526001909101906020018083116115ce575b50505050508152602001600780548060200260200160405190810160405280929190818152602001828054801561164257602002820191906000526020600020905b81548152602001906001019080831161162e575b5050505050815260200160006007604051602001611661929190612721565b6040516020818303038152906040528152602001600015158152509050816001600160a01b031663b95cac28600b60009054906101000a90046001600160a01b03166001600160a01b03166338fff2d06040518163ffffffff1660e01b815260040160206040518083038186803b1580156116db57600080fd5b505afa1580156116ef573d6000803e3d6000fd5b505050506040513d601f19601f8201168201806040525081019061171391906124f5565b3030856040518563ffffffff1660e01b81526004016117359493929190612804565b600060405180830381600087803b15801561174f57600080fd5b505af1158015611763573d6000803e3d6000fd5b50505050505050565b600080546103a49061243f565b6006818154811061178957600080fd5b6000918252602090912001546001600160a01b0316905081565b6002546001600160a01b031633146117cd5760405162461bcd60e51b815260040161049b906124be565b6001600160a01b0381166118235760405162461bcd60e51b815260206004820152601d60248201527f4c42504d616e616765723a206e65772061646d696e206973207a65726f000000604482015260640161049b565b6002546040516001600160a01b038084169216907f39324b4c6f0dfe086be64dee1dd0fff15f9055828415513052c73d8e178c75f590600090a3600280546001600160a01b0319166001600160a01b0392909216919091179055565b600881815481106107fe57600080fd5b600981815481106107fe57600080fd5b600a81815481106107fe57600080fd5b6002546001600160a01b031633146118d95760405162461bcd60e51b815260040161049b906124be565b6001600160a01b03811661192f5760405162461bcd60e51b815260206004820152601c60248201527f4c42504d616e616765723a207265636569766572206973207a65726f00000000604482015260640161049b565b600b546040516370a0823160e01b81523060048201526000916001600160a01b0316906370a082319060240160206040518083038186803b15801561197357600080fd5b505afa158015611987573d6000803e3d6000fd5b505050506040513d601f19601f820116820180604052508101906119ab91906124f5565b116119f85760405162461bcd60e51b815260206004820181905260248201527f4c42504d616e616765723a206e6f2042505420746f6b656e2062616c616e6365604482015260640161049b565b6000600a600181548110611a0e57611a0e61247a565b9060005260206000200154905080421015611a6b5760405162461bcd60e51b815260206004820152601f60248201527f4c42504d616e616765723a20656e6474696d65206e6f74207265616368656400604482015260640161049b565b600b54604080516311b2515f60e31b815290516000926001600160a01b031691638d928af8916004808301926020929190829003018186803b158015611ab057600080fd5b505afa158015611ac4573d6000803e3d6000fd5b505050506040513d601f19601f82011682018060405250810190611ae891906126bc565b9050600060405180608001604052806006805480602002602001604051908101604052809291908181526020018280548015611b4d57602002820191906000526020600020905b81546001600160a01b03168152600190910190602001808311611b2f575b5050505050815260200160068054905067ffffffffffffffff811115611b7557611b75612097565b604051908082528060200260200182016040528015611b9e578160200160208202803683370190505b508152600b546040516370a0823160e01b81523060048201526020909201916001916001600160a01b0316906370a082319060240160206040518083038186803b158015611beb57600080fd5b505afa158015611bff573d6000803e3d6000fd5b505050506040513d601f19601f82011682018060405250810190611c2391906124f5565b6040805160ff90931660208401528201526060016040516020818303038152906040528152602001600015158152509050816001600160a01b0316638bdb3913600b60009054906101000a90046001600160a01b03166001600160a01b03166338fff2d06040518163ffffffff1660e01b815260040160206040518083038186803b158015611cb157600080fd5b505afa158015611cc5573d6000803e3d6000fd5b505050506040513d601f19601f82011682018060405250810190611ce991906124f5565b3087856040518563ffffffff1660e01b8152600401611d0b9493929190612804565b600060405180830381600087803b158015611d2557600080fd5b505af1158015611d39573d6000803e3d6000fd5b5050505050505050565b6002546001600160a01b03163314611d6d5760405162461bcd60e51b815260040161049b906124be565b600b54604051633806be4b60e21b815282151560048201526001600160a01b039091169063e01af92c90602401600060405180830381600087803b158015611db457600080fd5b505af1158015611dc8573d6000803e3d6000fd5b5050505050565b6002546001600160a01b03163314611df95760405162461bcd60e51b815260040161049b906124be565b8051611e0c90600c906020840190611e9b565b5080604051611e1b9190612840565b604051908190038120907f09f579b21815d3f81581d32e97736ccba1cc89d1918e48da28e6e206acd9686490600090a250565b600454600d5460078054600093670de0b6b3a76400009390929160ff909116908110611e7c57611e7c61247a565b9060005260206000200154611e91919061285c565b61045f919061287b565b828054611ea79061243f565b90600052602060002090601f016020900481019282611ec95760008555611f0f565b82601f10611ee257805160ff1916838001178555611f0f565b82800160010185558215611f0f579182015b82811115611f0f578251825591602001919060010190611ef4565b50611f1b929150611fae565b5090565b828054828255906000526020600020908101928215611f0f5791602002820182811115611f0f578251825591602001919060010190611ef4565b828054828255906000526020600020908101928215611f0f579160200282015b82811115611f0f57825182546001600160a01b0319166001600160a01b03909116178255602090920191600190910190611f79565b5b80821115611f1b5760008155600101611faf565b60005b83811015611fde578181015183820152602001611fc6565b83811115611fed576000848401525b50505050565b6000815180845261200b816020860160208601611fc3565b601f01601f19169290920160200192915050565b6020815260006120326020830184611ff3565b9392505050565b6001600160a01b038116811461204e57600080fd5b50565b803561205c81612039565b919050565b60006020828403121561207357600080fd5b813561203281612039565b60006020828403121561209057600080fd5b5035919050565b634e487b7160e01b600052604160045260246000fd5b604051601f8201601f1916810167ffffffffffffffff811182821017156120d6576120d6612097565b604052919050565b600082601f8301126120ef57600080fd5b813567ffffffffffffffff81111561210957612109612097565b61211c601f8201601f19166020016120ad565b81815284602083860101111561213157600080fd5b816020850160208301376000918101602001919091529392505050565b600067ffffffffffffffff82111561216857612168612097565b5060051b60200190565b600082601f83011261218357600080fd5b813560206121986121938361214e565b6120ad565b82815260059290921b840181019181810190868411156121b757600080fd5b8286015b848110156121db5780356121ce81612039565b83529183019183016121bb565b509695505050505050565b600082601f8301126121f757600080fd5b813560206122076121938361214e565b82815260059290921b8401810191818101908684111561222657600080fd5b8286015b848110156121db578035835291830191830161222a565b60008060008060008060008060008060006101608c8e03121561226357600080fd5b61226c8c612051565b9a5061227a60208d01612051565b995067ffffffffffffffff8060408e0135111561229657600080fd5b6122a68e60408f01358f016120de565b99508060608e013511156122b957600080fd5b6122c98e60608f01358f016120de565b98508060808e013511156122dc57600080fd5b6122ec8e60808f01358f01612172565b97508060a08e013511156122ff57600080fd5b61230f8e60a08f01358f016121e6565b96508060c08e0135111561232257600080fd5b6123328e60c08f01358f016121e6565b95508060e08e0135111561234557600080fd5b6123558e60e08f01358f016121e6565b9450806101008e0135111561236957600080fd5b61237a8e6101008f01358f016121e6565b9350806101208e0135111561238e57600080fd5b61239f8e6101208f01358f016121e6565b9250806101408e013511156123b357600080fd5b506123c58d6101408e01358e016120de565b90509295989b509295989b9093969950565b801515811461204e57600080fd5b6000602082840312156123f757600080fd5b8135612032816123d7565b60006020828403121561241457600080fd5b813567ffffffffffffffff81111561242b57600080fd5b612437848285016120de565b949350505050565b600181811c9082168061245357607f821691505b6020821081141561247457634e487b7160e01b600052602260045260246000fd5b50919050565b634e487b7160e01b600052603260045260246000fd5b634e487b7160e01b600052601160045260246000fd5b600082198211156124b9576124b9612490565b500190565b6020808252601f908201527f4c42504d616e616765723a2063616c6c6572206973206e6f742061646d696e00604082015260600190565b60006020828403121561250757600080fd5b5051919050565b60006020828403121561252057600080fd5b8151612032816123d7565b8054600090600181811c908083168061254557607f831692505b602080841082141561256757634e487b7160e01b600052602260045260246000fd5b838852602088018280156125825760018114612593576125be565b60ff198716825282820197506125be565b60008981526020902060005b878110156125b85781548482015290860190840161259f565b83019850505b5050505050505092915050565b6000815480845260208085019450836000528060002060005b83811015612600578154875295820195600191820191016125e4565b509495945050505050565b60e08152600061261e60e083018a61252b565b8281036020840152612630818a61252b565b8381036040850152885480825260008a815260208082209450909201915b818110156126755783546001600160a01b031683526001938401936020909301920161264e565b5050838103606085015261268981896125cb565b925050508460808301526126a860a08301856001600160a01b03169052565b82151560c083015298975050505050505050565b6000602082840312156126ce57600080fd5b815161203281612039565b8381528260208201526060604082015260006126f860608301846125cb565b95945050505050565b600060ff821660ff81141561271857612718612490565b60010192915050565b60ff8316815260406020820152600061243760408301846125cb565b600081518084526020808501945080840160005b8381101561260057815187529582019590820190600101612751565b8051608080845281519084018190526000916020919082019060a0860190845b818110156127b25783516001600160a01b03168352928401929184019160010161278d565b5050828501519150858103838701526127cb818361273d565b92505050604083015184820360408601526127e68282611ff3565b91505060608301516127fc606086018215159052565b509392505050565b8481526001600160a01b038481166020830152831660408201526080606082018190526000906128369083018461276d565b9695505050505050565b60008251612852818460208701611fc3565b9190910192915050565b600081600019048311821515161561287657612876612490565b500290565b60008261289857634e487b7160e01b600052601260045260246000fd5b50049056fea2646970667358221220c4e10b9e00cbf95394d4c4a551af8f2bc9af8827475d080c382fc3ff4782731164736f6c63430008090033",
  "devdoc": {
    "details": "Smart contract for managing interactions with a Balancer LBP.",
    "kind": "dev",
    "methods": {
      "getSwapEnabled()": {
        "details": "Tells whether swaps are enabled or not for the LBP"
      },
      "initializeLBP(address)": {
        "details": "Subtracts the fee, deploys the LBP and adds liquidity to it.",
        "params": {
          "_sender": "Address of the liquidity provider."
        }
      },
      "initializeLBPManager(address,address,string,string,address[],uint256[],uint256[],uint256[],uint256[],uint256[],bytes)": {
        "details": "Initialize LBPManager.",
        "params": {
          "_amounts": "Array containing two parameters in order of: 1. The amounts of project token to be added as liquidity to the LBP. 2. The amounts of funding token to be added as liquidity to the LBP.",
          "_beneficiary": "The address that receives the feePercentage.",
          "_endWeights": "Array containing two parametes in order of: 1. The end weight for the project token in the LBP. 2. The end weight for the funding token in the LBP.",
          "_fees": "Array containing two parameters in order of: 1. Percentage of fee paid for every swap in the LBP. 2. Percentage of fee paid to the _beneficiary for providing the service of the LBP Manager.",
          "_lbpFactory": "LBP factory address.",
          "_metadata": "IPFS Hash of the LBP creation wizard information.",
          "_name": "Name of the LBP.",
          "_startTimeEndTime": "Array containing two parameters in order of: 1. Start time for the LBP. 2. End time for the LBP.",
          "_startWeights": "Array containing two parametes in order of: 1. The start weight for the project token in the LBP. 2. The start weight for the funding token in the LBP.",
          "_symbol": "Symbol of the LBP.",
          "_tokenList": "Array containing two addresses in order of: 1. The address of the project token being distributed. 2. The address of the funding token being exchanged for the project token."
        }
      },
      "projectTokensRequired()": {
        "details": "Get required amount of project tokens to cover for fees and the actual LBP."
      },
      "removeLiquidity(address)": {
        "details": "Exit pool or remove liquidity from pool.",
        "params": {
          "_receiver": "Address of the liquidity receiver, after exiting the LBP."
        }
      },
      "setSwapEnabled(bool)": {
        "details": "Can pause/unpause trading.",
        "params": {
          "_swapEnabled": "Enables/disables swapping."
        }
      },
      "transferAdminRights(address)": {
        "details": "Transfer admin rights.",
        "params": {
          "_newAdmin": "Address of the new admin."
        }
      },
      "updateMetadata(bytes)": {
        "details": "Updates metadata.",
        "params": {
          "_metadata": "LBP wizard contract metadata, that is an IPFS Hash."
        }
      },
      "withdrawPoolTokens(address)": {
        "details": "Withdraw pool tokens if available.",
        "params": {
          "_receiver": "Address of the BPT tokens receiver."
        }
      }
    },
    "title": "LBPManager contract.",
    "version": 1
  },
  "userdoc": {
    "kind": "user",
    "methods": {},
    "version": 1
  },
  "storageLayout": {
    "storage": [
      {
        "astId": 11,
        "contract": "contracts/lbp/LBPManager.sol:LBPManager",
        "label": "symbol",
        "offset": 0,
        "slot": "0",
        "type": "t_string_storage"
      },
      {
        "astId": 13,
        "contract": "contracts/lbp/LBPManager.sol:LBPManager",
        "label": "name",
        "offset": 0,
        "slot": "1",
        "type": "t_string_storage"
      },
      {
        "astId": 15,
        "contract": "contracts/lbp/LBPManager.sol:LBPManager",
        "label": "admin",
        "offset": 0,
        "slot": "2",
        "type": "t_address"
      },
      {
        "astId": 17,
        "contract": "contracts/lbp/LBPManager.sol:LBPManager",
        "label": "beneficiary",
        "offset": 0,
        "slot": "3",
        "type": "t_address"
      },
      {
        "astId": 19,
        "contract": "contracts/lbp/LBPManager.sol:LBPManager",
        "label": "feePercentage",
        "offset": 0,
        "slot": "4",
        "type": "t_uint256"
      },
      {
        "astId": 21,
        "contract": "contracts/lbp/LBPManager.sol:LBPManager",
        "label": "swapFeePercentage",
        "offset": 0,
        "slot": "5",
        "type": "t_uint256"
      },
      {
        "astId": 25,
        "contract": "contracts/lbp/LBPManager.sol:LBPManager",
        "label": "tokenList",
        "offset": 0,
        "slot": "6",
        "type": "t_array(t_contract(IERC20)11226)dyn_storage"
      },
      {
        "astId": 28,
        "contract": "contracts/lbp/LBPManager.sol:LBPManager",
        "label": "amounts",
        "offset": 0,
        "slot": "7",
        "type": "t_array(t_uint256)dyn_storage"
      },
      {
        "astId": 31,
        "contract": "contracts/lbp/LBPManager.sol:LBPManager",
        "label": "startWeights",
        "offset": 0,
        "slot": "8",
        "type": "t_array(t_uint256)dyn_storage"
      },
      {
        "astId": 34,
        "contract": "contracts/lbp/LBPManager.sol:LBPManager",
        "label": "endWeights",
        "offset": 0,
        "slot": "9",
        "type": "t_array(t_uint256)dyn_storage"
      },
      {
        "astId": 37,
        "contract": "contracts/lbp/LBPManager.sol:LBPManager",
        "label": "startTimeEndTime",
        "offset": 0,
        "slot": "10",
        "type": "t_array(t_uint256)dyn_storage"
      },
      {
        "astId": 40,
        "contract": "contracts/lbp/LBPManager.sol:LBPManager",
        "label": "lbp",
        "offset": 0,
        "slot": "11",
        "type": "t_contract(ILBP)2356"
      },
      {
        "astId": 42,
        "contract": "contracts/lbp/LBPManager.sol:LBPManager",
        "label": "metadata",
        "offset": 0,
        "slot": "12",
        "type": "t_bytes_storage"
      },
      {
        "astId": 44,
        "contract": "contracts/lbp/LBPManager.sol:LBPManager",
        "label": "projectTokenIndex",
        "offset": 0,
        "slot": "13",
        "type": "t_uint8"
      },
      {
        "astId": 46,
        "contract": "contracts/lbp/LBPManager.sol:LBPManager",
        "label": "lbpFactory",
        "offset": 1,
        "slot": "13",
        "type": "t_address"
      },
      {
        "astId": 48,
        "contract": "contracts/lbp/LBPManager.sol:LBPManager",
        "label": "poolFunded",
        "offset": 21,
        "slot": "13",
        "type": "t_bool"
      },
      {
        "astId": 50,
        "contract": "contracts/lbp/LBPManager.sol:LBPManager",
        "label": "initialized",
        "offset": 22,
        "slot": "13",
        "type": "t_bool"
      }
    ],
    "types": {
      "t_address": {
        "encoding": "inplace",
        "label": "address",
        "numberOfBytes": "20"
      },
      "t_array(t_contract(IERC20)11226)dyn_storage": {
        "base": "t_contract(IERC20)11226",
        "encoding": "dynamic_array",
        "label": "contract IERC20[]",
        "numberOfBytes": "32"
      },
      "t_array(t_uint256)dyn_storage": {
        "base": "t_uint256",
        "encoding": "dynamic_array",
        "label": "uint256[]",
        "numberOfBytes": "32"
      },
      "t_bool": {
        "encoding": "inplace",
        "label": "bool",
        "numberOfBytes": "1"
      },
      "t_bytes_storage": {
        "encoding": "bytes",
        "label": "bytes",
        "numberOfBytes": "32"
      },
      "t_contract(IERC20)11226": {
        "encoding": "inplace",
        "label": "contract IERC20",
        "numberOfBytes": "20"
      },
      "t_contract(ILBP)2356": {
        "encoding": "inplace",
        "label": "contract ILBP",
        "numberOfBytes": "20"
      },
      "t_string_storage": {
        "encoding": "bytes",
        "label": "string",
        "numberOfBytes": "32"
      },
      "t_uint256": {
        "encoding": "inplace",
        "label": "uint256",
        "numberOfBytes": "32"
      },
      "t_uint8": {
        "encoding": "inplace",
        "label": "uint8",
        "numberOfBytes": "1"
      }
    }
  }
}