{
  "address": "0xF8f6FD2b646269D13D44aA6f580DA616d775b505",
  "abi": [
    {
      "anonymous": false,
      "inputs": [
        {
          "indexed": true,
          "internalType": "address",
          "name": "beneficiary",
          "type": "address"
        },
        {
          "indexed": false,
          "internalType": "address",
          "name": "tokenAddress",
          "type": "address"
        },
        {
          "indexed": false,
          "internalType": "uint256",
          "name": "amount",
          "type": "uint256"
        }
      ],
      "name": "FeeTransferred",
      "type": "event"
    },
    {
      "anonymous": false,
      "inputs": [
        {
          "indexed": true,
          "internalType": "address",
          "name": "oldAdmin",
          "type": "address"
        },
        {
          "indexed": true,
          "internalType": "address",
          "name": "newAdmin",
          "type": "address"
        }
      ],
      "name": "LBPManagerAdminChanged",
      "type": "event"
    },
    {
      "anonymous": false,
      "inputs": [
        {
          "indexed": true,
          "internalType": "bytes",
          "name": "metadata",
          "type": "bytes"
        }
      ],
      "name": "MetadataUpdated",
      "type": "event"
    },
    {
      "anonymous": false,
      "inputs": [
        {
          "indexed": true,
          "internalType": "address",
          "name": "LbpAddress",
          "type": "address"
        },
        {
          "indexed": false,
          "internalType": "uint256",
          "name": "amount",
          "type": "uint256"
        }
      ],
      "name": "PoolTokensWithdrawn",
      "type": "event"
    },
    {
      "inputs": [],
      "name": "LBPFactory",
      "outputs": [
        {
          "internalType": "address",
          "name": "",
          "type": "address"
        }
      ],
      "stateMutability": "view",
      "type": "function"
    },
    {
      "inputs": [],
      "name": "admin",
      "outputs": [
        {
          "internalType": "address",
          "name": "",
          "type": "address"
        }
      ],
      "stateMutability": "view",
      "type": "function"
    },
    {
      "inputs": [
        {
          "internalType": "uint256",
          "name": "",
          "type": "uint256"
        }
      ],
      "name": "amounts",
      "outputs": [
        {
          "internalType": "uint256",
          "name": "",
          "type": "uint256"
        }
      ],
      "stateMutability": "view",
      "type": "function"
    },
    {
      "inputs": [],
      "name": "beneficiary",
      "outputs": [
        {
          "internalType": "address",
          "name": "",
          "type": "address"
        }
      ],
      "stateMutability": "view",
      "type": "function"
    },
    {
      "inputs": [
        {
          "internalType": "uint256",
          "name": "",
          "type": "uint256"
        }
      ],
      "name": "endWeights",
      "outputs": [
        {
          "internalType": "uint256",
          "name": "",
          "type": "uint256"
        }
      ],
      "stateMutability": "view",
      "type": "function"
    },
    {
      "inputs": [],
      "name": "feePercentage",
      "outputs": [
        {
          "internalType": "uint256",
          "name": "",
          "type": "uint256"
        }
      ],
      "stateMutability": "view",
      "type": "function"
    },
    {
      "inputs": [
        {
          "internalType": "address",
          "name": "_sender",
          "type": "address"
        }
      ],
      "name": "initializeLBP",
      "outputs": [],
      "stateMutability": "nonpayable",
      "type": "function"
    },
    {
      "inputs": [
        {
          "internalType": "address",
          "name": "_LBPFactory",
          "type": "address"
        },
        {
          "internalType": "address",
          "name": "_beneficiary",
          "type": "address"
        },
        {
          "internalType": "string",
          "name": "_name",
          "type": "string"
        },
        {
          "internalType": "string",
          "name": "_symbol",
          "type": "string"
        },
        {
          "internalType": "contract IERC20[]",
          "name": "_tokenList",
          "type": "address[]"
        },
        {
          "internalType": "uint256[]",
          "name": "_amounts",
          "type": "uint256[]"
        },
        {
          "internalType": "uint256[]",
          "name": "_startWeights",
          "type": "uint256[]"
        },
        {
          "internalType": "uint256[]",
          "name": "_startTimeEndTime",
          "type": "uint256[]"
        },
        {
          "internalType": "uint256[]",
          "name": "_endWeights",
          "type": "uint256[]"
        },
        {
          "internalType": "uint256[]",
          "name": "_fees",
          "type": "uint256[]"
        },
        {
          "internalType": "bytes",
          "name": "_metadata",
          "type": "bytes"
        }
      ],
      "name": "initializeLBPManager",
      "outputs": [],
      "stateMutability": "nonpayable",
      "type": "function"
    },
    {
      "inputs": [],
      "name": "initialized",
      "outputs": [
        {
          "internalType": "bool",
          "name": "",
          "type": "bool"
        }
      ],
      "stateMutability": "view",
      "type": "function"
    },
    {
      "inputs": [],
      "name": "lbp",
      "outputs": [
        {
          "internalType": "contract ILBP",
          "name": "",
          "type": "address"
        }
      ],
      "stateMutability": "view",
      "type": "function"
    },
    {
      "inputs": [],
      "name": "metadata",
      "outputs": [
        {
          "internalType": "bytes",
          "name": "",
          "type": "bytes"
        }
      ],
      "stateMutability": "view",
      "type": "function"
    },
    {
      "inputs": [],
      "name": "name",
      "outputs": [
        {
          "internalType": "string",
          "name": "",
          "type": "string"
        }
      ],
      "stateMutability": "view",
      "type": "function"
    },
    {
      "inputs": [],
      "name": "poolFunded",
      "outputs": [
        {
          "internalType": "bool",
          "name": "",
          "type": "bool"
        }
      ],
      "stateMutability": "view",
      "type": "function"
    },
    {
      "inputs": [],
      "name": "projectTokensRequired",
      "outputs": [
        {
          "internalType": "uint256",
          "name": "projectTokenAmounts",
          "type": "uint256"
        }
      ],
      "stateMutability": "view",
      "type": "function"
    },
    {
      "inputs": [
        {
          "internalType": "address payable",
          "name": "_receiver",
          "type": "address"
        }
      ],
      "name": "removeLiquidity",
      "outputs": [],
      "stateMutability": "nonpayable",
      "type": "function"
    },
    {
      "inputs": [
        {
          "internalType": "bool",
          "name": "_swapEnabled",
          "type": "bool"
        }
      ],
      "name": "setSwapEnabled",
      "outputs": [],
      "stateMutability": "nonpayable",
      "type": "function"
    },
    {
      "inputs": [
        {
          "internalType": "uint256",
          "name": "",
          "type": "uint256"
        }
      ],
      "name": "startTimeEndTime",
      "outputs": [
        {
          "internalType": "uint256",
          "name": "",
          "type": "uint256"
        }
      ],
      "stateMutability": "view",
      "type": "function"
    },
    {
      "inputs": [
        {
          "internalType": "uint256",
          "name": "",
          "type": "uint256"
        }
      ],
      "name": "startWeights",
      "outputs": [
        {
          "internalType": "uint256",
          "name": "",
          "type": "uint256"
        }
      ],
      "stateMutability": "view",
      "type": "function"
    },
    {
      "inputs": [],
      "name": "swapFeePercentage",
      "outputs": [
        {
          "internalType": "uint256",
          "name": "",
          "type": "uint256"
        }
      ],
      "stateMutability": "view",
      "type": "function"
    },
    {
      "inputs": [],
      "name": "symbol",
      "outputs": [
        {
          "internalType": "string",
          "name": "",
          "type": "string"
        }
      ],
      "stateMutability": "view",
      "type": "function"
    },
    {
      "inputs": [
        {
          "internalType": "uint256",
          "name": "",
          "type": "uint256"
        }
      ],
      "name": "tokenList",
      "outputs": [
        {
          "internalType": "contract IERC20",
          "name": "",
          "type": "address"
        }
      ],
      "stateMutability": "view",
      "type": "function"
    },
    {
      "inputs": [
        {
          "internalType": "address",
          "name": "_newAdmin",
          "type": "address"
        }
      ],
      "name": "transferAdminRights",
      "outputs": [],
      "stateMutability": "nonpayable",
      "type": "function"
    },
    {
      "inputs": [
        {
          "internalType": "bytes",
          "name": "_metadata",
          "type": "bytes"
        }
      ],
      "name": "updateMetadata",
      "outputs": [],
      "stateMutability": "nonpayable",
      "type": "function"
    },
    {
      "inputs": [
        {
          "internalType": "address",
          "name": "_receiver",
          "type": "address"
        }
      ],
      "name": "withdrawPoolTokens",
      "outputs": [],
      "stateMutability": "nonpayable",
      "type": "function"
    }
  ],
  "transactionHash": "0x025243ab0b41a239986fcb703b3c79134c2b7cdee4702a0b555dfc59e2136d1e",
  "args": [],
  "solcInputHash": "596477a2d4c31efad5e0b98f65ce8a4f",
  "bytecode": "0x608060405234801561001057600080fd5b506127f1806100206000396000f3fe608060405234801561001057600080fd5b50600436106101585760003560e01c80639ead7222116100c3578063c9d8616f1161007c578063c9d8616f146102c8578063cd2055e5146102db578063d798f86e146102ee578063e01af92c14610301578063f851a44014610314578063fc582d411461032757600080fd5b80639ead722214610269578063a001ecdd1461027c578063a4ac0d4914610285578063a88971fa1461028e578063b5106add146102a2578063bb7bfb0c146102b557600080fd5b8063392f37e911610115578063392f37e91461020b5780633facbb851461021357806345f0a44f146102285780638638fe311461023b5780638bfd52891461024e57806395d89b411461026157600080fd5b806306fdde031461015d578063092f7de71461017b578063158ef93e146101a657806331d8f1be146101ca5780633281f3ec146101e257806338af3eed146101f8575b600080fd5b61016561033a565b60405161017291906124dd565b60405180910390f35b600b5461018e906001600160a01b031681565b6040516001600160a01b039091168152602001610172565b600d546101ba90600160b01b900460ff1681565b6040519015158152602001610172565b600d5461018e9061010090046001600160a01b031681565b6101ea6103c8565b604051908152602001610172565b60035461018e906001600160a01b031681565b610165610407565b610226610221366004611f85565b610414565b005b6101ea6102363660046121ec565b6107f2565b610226610249366004611fc6565b610813565b61022661025c366004611f85565b610c66565b61016561146d565b61018e6102773660046121ec565b61147a565b6101ea60045481565b6101ea60055481565b600d546101ba90600160a81b900460ff1681565b6102266102b0366004611f85565b6114a4565b6101ea6102c33660046121ec565b611580565b6101ea6102d63660046121ec565b611590565b6101ea6102e93660046121ec565b6115a0565b6102266102fc366004611f85565b6115b0565b61022661030f36600461215c565b611baa565b60025461018e906001600160a01b031681565b6102266103353660046121af565b611c36565b60018054610347906126f8565b80601f0160208091040260200160405190810160405280929190818152602001828054610373906126f8565b80156103c05780601f10610395576101008083540402835291602001916103c0565b820191906000526020600020905b8154815290600101906020018083116103a357829003601f168201915b505050505081565b60006103d2611cb5565b600d5460078054909160ff169081106103ed576103ed612769565b9060005260206000200154610402919061266f565b905090565b600c8054610347906126f8565b6002546001600160a01b031633146104475760405162461bcd60e51b815260040161043e906125bb565b60405180910390fd5b6001600160a01b03811661049d5760405162461bcd60e51b815260206004820152601c60248201527f4c42504d616e616765723a207265636569766572206973207a65726f00000000604482015260640161043e565b600b54604080516303df769160e51b815290516000926001600160a01b031691637beed2209160048083019286929190829003018186803b1580156104e157600080fd5b505afa1580156104f5573d6000803e3d6000fd5b505050506040513d6000823e601f3d908101601f1916820160405261051d9190810190612205565b50915050428111156105715760405162461bcd60e51b815260206004820152601f60248201527f4c42504d616e616765723a20656e6474696d65206e6f74207265616368656400604482015260640161043e565b600b546040516370a0823160e01b81523060048201526000916001600160a01b0316906370a082319060240160206040518083038186803b1580156105b557600080fd5b505afa1580156105c9573d6000803e3d6000fd5b505050506040513d601f19601f820116820180604052508101906105ed9190612196565b1161063a5760405162461bcd60e51b815260206004820181905260248201527f4c42504d616e616765723a206e6f2042505420746f6b656e2062616c616e6365604482015260640161043e565b600b546040516370a0823160e01b81523060048201526001600160a01b03909116907fd0b72dd3c0f971f9cf266fee8e4c7660231316a67c88a587fa8dfa398c9e13749082906370a082319060240160206040518083038186803b1580156106a157600080fd5b505afa1580156106b5573d6000803e3d6000fd5b505050506040513d601f19601f820116820180604052508101906106d99190612196565b60405190815260200160405180910390a2600b546040516370a0823160e01b81523060048201526001600160a01b039091169063a9059cbb90849083906370a082319060240160206040518083038186803b15801561073757600080fd5b505afa15801561074b573d6000803e3d6000fd5b505050506040513d601f19601f8201168201806040525081019061076f9190612196565b6040516001600160e01b031960e085901b1681526001600160a01b0390921660048301526024820152604401602060405180830381600087803b1580156107b557600080fd5b505af11580156107c9573d6000803e3d6000fd5b505050506040513d601f19601f820116820180604052508101906107ed9190612179565b505050565b6007818154811061080257600080fd5b600091825260209091200154905081565b600d54600160b01b900460ff161561086d5760405162461bcd60e51b815260206004820152601f60248201527f4c42504d616e616765723a20616c726561647920696e697469616c697a656400604482015260640161043e565b6001600160a01b038a166108c35760405162461bcd60e51b815260206004820181905260248201527f4c42504d616e616765723a205f62656e6566696369617279206973207a65726f604482015260640161043e565b600d805460ff60b01b1916600160b01b179055600280546001600160a01b03191633179055815182906000906108fb576108fb612769565b60200260200101516005819055508160018151811061091c5761091c612769565b602090810291909101810151600455600380546001600160a01b0319166001600160a01b038d16179055815161095891600c9190840190611d02565b50835161096c90600a906020870190611d86565b5088516109809060019060208c0190611d02565b5087516109949060009060208b0190611d02565b50600d8054610100600160a81b0319166101006001600160a01b038e16021790558651879060019081106109ca576109ca612769565b60200260200101516001600160a01b0316876000815181106109ee576109ee612769565b60200260200101516001600160a01b03161115610bfe57600d805460ff19166001908117909155875160069189918110610a2a57610a2a612769565b6020908102919091018101518254600181018455600093845291832090910180546001600160a01b0319166001600160a01b0390921691909117905587516006918991610a7957610a79612769565b60209081029190910181015182546001808201855560009485529290932090920180546001600160a01b0319166001600160a01b0390931692909217909155865160079188918110610acd57610acd612769565b602090810291909101810151825460018101845560009384529183209091015586516007918891610b0057610b00612769565b60209081029190910181015182546001818101855560009485529290932090920191909155855160089187918110610b3a57610b3a612769565b602090810291909101810151825460018101845560009384529183209091015585516008918791610b6d57610b6d612769565b60209081029190910181015182546001818101855560009485529290932090920191909155835160099185918110610ba757610ba7612769565b602090810291909101810151825460018101845560009384529183209091015583516009918591610bda57610bda612769565b60209081029190910181015182546001810184556000938452919092200155610c59565b600d805460ff191690558651610c1b9060069060208a0190611dc0565b508551610c2f906007906020890190611d86565b508451610c43906008906020880190611d86565b508251610c57906009906020860190611d86565b505b5050505050505050505050565b6002546001600160a01b03163314610c905760405162461bcd60e51b815260040161043e906125bb565b600d54600160b01b900460ff161515600114610d005760405162461bcd60e51b815260206004820152602960248201527f4c42504d616e616765723a204c42504d616e6167657220696e206e6f7420696e6044820152681a5d1a585b1a5e995960ba1b606482015260840161043e565b600d54600160a81b900460ff1615610d5a5760405162461bcd60e51b815260206004820152601f60248201527f4c42504d616e616765723a20706f6f6c20616c72656164792066756e64656400604482015260640161043e565b600d8054600160a81b60ff60a81b199091161790819055600554604051632367971960e01b81526101009092046001600160a01b031691632367971991610db3916001916000916006916008913090869060040161250c565b602060405180830381600087803b158015610dcd57600080fd5b505af1158015610de1573d6000803e3d6000fd5b505050506040513d601f19601f82011682018060405250810190610e059190611fa9565b600b80546001600160a01b0319166001600160a01b03929092169182179055600a8054633e5692059190600090610e3e57610e3e612769565b9060005260206000200154600a600181548110610e5d57610e5d612769565b906000526020600020015460096040518463ffffffff1660e01b8152600401610e88939291906125f2565b600060405180830381600087803b158015610ea257600080fd5b505af1158015610eb6573d6000803e3d6000fd5b505050506000600b60009054906101000a90046001600160a01b03166001600160a01b0316638d928af86040518163ffffffff1660e01b815260040160206040518083038186803b158015610f0a57600080fd5b505afa158015610f1e573d6000803e3d6000fd5b505050506040513d601f19601f82011682018060405250810190610f429190611fa9565b90506004546000146110a757600d5460068054909160ff16908110610f6957610f69612769565b6000918252602090912001546003546001600160a01b03918216916323b872dd91859116610f95611cb5565b6040516001600160e01b031960e086901b1681526001600160a01b0393841660048201529290911660248301526044820152606401602060405180830381600087803b158015610fe457600080fd5b505af1158015610ff8573d6000803e3d6000fd5b505050506040513d601f19601f8201168201806040525081019061101c9190612179565b50600354600d54600680546001600160a01b03909316927f1d6298f49fc15449b78df91fcca6812136edc2972366cb70aa0d9145a308cd319260ff1690811061106757611067612769565b6000918252602090912001546001600160a01b0316611084611cb5565b604080516001600160a01b03909316835260208301919091520160405180910390a25b60005b60065460ff8216101561128f5760068160ff16815481106110cd576110cd612769565b9060005260206000200160009054906101000a90046001600160a01b03166001600160a01b03166323b872dd843060078560ff168154811061111157611111612769565b6000918252602090912001546040516001600160e01b031960e086901b1681526001600160a01b0393841660048201529290911660248301526044820152606401602060405180830381600087803b15801561116c57600080fd5b505af1158015611180573d6000803e3d6000fd5b505050506040513d601f19601f820116820180604052508101906111a49190612179565b5060068160ff16815481106111bb576111bb612769565b600091825260209091200154600780546001600160a01b039092169163095ea7b391859160ff86169081106111f2576111f2612769565b6000918252602090912001546040516001600160e01b031960e085901b1681526001600160a01b0390921660048301526024820152604401602060405180830381600087803b15801561124457600080fd5b505af1158015611258573d6000803e3d6000fd5b505050506040513d601f19601f8201168201806040525081019061127c9190612179565b508061128781612733565b9150506110aa565b50604080516006805460a060208202840181019094526080830181815260009484939192908401828280156112ed57602002820191906000526020600020905b81546001600160a01b031681526001909101906020018083116112cf575b50505050508152602001600780548060200260200160405190810160405280929190818152602001828054801561134357602002820191906000526020600020905b81548152602001906001019080831161132f575b50505050508152602001600060076040516020016113629291906124f0565b6040516020818303038152906040528152602001600015158152509050816001600160a01b031663b95cac28600b60009054906101000a90046001600160a01b03166001600160a01b03166338fff2d06040518163ffffffff1660e01b815260040160206040518083038186803b1580156113dc57600080fd5b505afa1580156113f0573d6000803e3d6000fd5b505050506040513d601f19601f820116820180604052508101906114149190612196565b3030856040518563ffffffff1660e01b815260040161143694939291906124a1565b600060405180830381600087803b15801561145057600080fd5b505af1158015611464573d6000803e3d6000fd5b50505050505050565b60008054610347906126f8565b6006818154811061148a57600080fd5b6000918252602090912001546001600160a01b0316905081565b6002546001600160a01b031633146114ce5760405162461bcd60e51b815260040161043e906125bb565b6001600160a01b0381166115245760405162461bcd60e51b815260206004820152601d60248201527f4c42504d616e616765723a206e65772061646d696e206973207a65726f000000604482015260640161043e565b6002546040516001600160a01b038084169216907f39324b4c6f0dfe086be64dee1dd0fff15f9055828415513052c73d8e178c75f590600090a3600280546001600160a01b0319166001600160a01b0392909216919091179055565b6008818154811061080257600080fd5b6009818154811061080257600080fd5b600a818154811061080257600080fd5b6002546001600160a01b031633146115da5760405162461bcd60e51b815260040161043e906125bb565b6001600160a01b0381166116305760405162461bcd60e51b815260206004820152601c60248201527f4c42504d616e616765723a207265636569766572206973207a65726f00000000604482015260640161043e565b600b546040516370a0823160e01b81523060048201526000916001600160a01b0316906370a082319060240160206040518083038186803b15801561167457600080fd5b505afa158015611688573d6000803e3d6000fd5b505050506040513d601f19601f820116820180604052508101906116ac9190612196565b116116f95760405162461bcd60e51b815260206004820181905260248201527f4c42504d616e616765723a206e6f2042505420746f6b656e2062616c616e6365604482015260640161043e565b600b54604080516303df769160e51b815290516000926001600160a01b031691637beed2209160048083019286929190829003018186803b15801561173d57600080fd5b505afa158015611751573d6000803e3d6000fd5b505050506040513d6000823e601f3d908101601f191682016040526117799190810190612205565b50915050428111156117cd5760405162461bcd60e51b815260206004820152601f60248201527f4c42504d616e616765723a20656e6474696d65206e6f74207265616368656400604482015260640161043e565b600b54604080516311b2515f60e31b815290516000926001600160a01b031691638d928af8916004808301926020929190829003018186803b15801561181257600080fd5b505afa158015611826573d6000803e3d6000fd5b505050506040513d601f19601f8201168201806040525081019061184a9190611fa9565b90506000604051806080016040528060068054806020026020016040519081016040528092919081815260200182805480156118af57602002820191906000526020600020905b81546001600160a01b03168152600190910190602001808311611891575b5050505050815260200160068054905067ffffffffffffffff8111156118d7576118d761277f565b604051908082528060200260200182016040528015611900578160200160208202803683370190505b508152600b546040516370a0823160e01b81523060048201526020909201916001916001600160a01b0316906370a082319060240160206040518083038186803b15801561194d57600080fd5b505afa158015611961573d6000803e3d6000fd5b505050506040513d601f19601f820116820180604052508101906119859190612196565b6040805160ff909316602084015282015260600160408051808303601f190181529181529082526000602090920191909152600b5490516370a0823160e01b81523060048201529192506001600160a01b03169063095ea7b390849083906370a082319060240160206040518083038186803b158015611a0457600080fd5b505afa158015611a18573d6000803e3d6000fd5b505050506040513d601f19601f82011682018060405250810190611a3c9190612196565b6040516001600160e01b031960e085901b1681526001600160a01b0390921660048301526024820152604401602060405180830381600087803b158015611a8257600080fd5b505af1158015611a96573d6000803e3d6000fd5b505050506040513d601f19601f82011682018060405250810190611aba9190612179565b50816001600160a01b0316638bdb3913600b60009054906101000a90046001600160a01b03166001600160a01b03166338fff2d06040518163ffffffff1660e01b815260040160206040518083038186803b158015611b1857600080fd5b505afa158015611b2c573d6000803e3d6000fd5b505050506040513d601f19601f82011682018060405250810190611b509190612196565b3087856040518563ffffffff1660e01b8152600401611b7294939291906124a1565b600060405180830381600087803b158015611b8c57600080fd5b505af1158015611ba0573d6000803e3d6000fd5b5050505050505050565b6002546001600160a01b03163314611bd45760405162461bcd60e51b815260040161043e906125bb565b600b54604051633806be4b60e21b815282151560048201526001600160a01b039091169063e01af92c90602401600060405180830381600087803b158015611c1b57600080fd5b505af1158015611c2f573d6000803e3d6000fd5b5050505050565b6002546001600160a01b03163314611c605760405162461bcd60e51b815260040161043e906125bb565b8051611c7390600c906020840190611d02565b5080604051611c829190612485565b604051908190038120907f09f579b21815d3f81581d32e97736ccba1cc89d1918e48da28e6e206acd9686490600090a250565b600454600d5460078054600093678ac7230489e800009390929160ff909116908110611ce357611ce3612769565b9060005260206000200154611cf891906126a9565b6104029190612687565b828054611d0e906126f8565b90600052602060002090601f016020900481019282611d305760008555611d76565b82601f10611d4957805160ff1916838001178555611d76565b82800160010185558215611d76579182015b82811115611d76578251825591602001919060010190611d5b565b50611d82929150611e15565b5090565b828054828255906000526020600020908101928215611d765791602002820182811115611d76578251825591602001919060010190611d5b565b828054828255906000526020600020908101928215611d76579160200282015b82811115611d7657825182546001600160a01b0319166001600160a01b03909116178255602090920191600190910190611de0565b5b80821115611d825760008155600101611e16565b8035611e3581612795565b919050565b600082601f830112611e4b57600080fd5b81356020611e60611e5b8361264b565b61261a565b80838252828201915082860187848660051b8901011115611e8057600080fd5b60005b85811015611ea8578135611e9681612795565b84529284019290840190600101611e83565b5090979650505050505050565b600082601f830112611ec657600080fd5b81356020611ed6611e5b8361264b565b80838252828201915082860187848660051b8901011115611ef657600080fd5b60005b85811015611ea857813584529284019290840190600101611ef9565b600082601f830112611f2657600080fd5b813567ffffffffffffffff811115611f4057611f4061277f565b611f53601f8201601f191660200161261a565b818152846020838601011115611f6857600080fd5b816020850160208301376000918101602001919091529392505050565b600060208284031215611f9757600080fd5b8135611fa281612795565b9392505050565b600060208284031215611fbb57600080fd5b8151611fa281612795565b60008060008060008060008060008060006101608c8e031215611fe857600080fd5b611ff18c611e2a565b9a50611fff60208d01611e2a565b995067ffffffffffffffff8060408e0135111561201b57600080fd5b61202b8e60408f01358f01611f15565b99508060608e0135111561203e57600080fd5b61204e8e60608f01358f01611f15565b98508060808e0135111561206157600080fd5b6120718e60808f01358f01611e3a565b97508060a08e0135111561208457600080fd5b6120948e60a08f01358f01611eb5565b96508060c08e013511156120a757600080fd5b6120b78e60c08f01358f01611eb5565b95508060e08e013511156120ca57600080fd5b6120da8e60e08f01358f01611eb5565b9450806101008e013511156120ee57600080fd5b6120ff8e6101008f01358f01611eb5565b9350806101208e0135111561211357600080fd5b6121248e6101208f01358f01611eb5565b9250806101408e0135111561213857600080fd5b5061214a8d6101408e01358e01611f15565b90509295989b509295989b9093969950565b60006020828403121561216e57600080fd5b8135611fa2816127ad565b60006020828403121561218b57600080fd5b8151611fa2816127ad565b6000602082840312156121a857600080fd5b5051919050565b6000602082840312156121c157600080fd5b813567ffffffffffffffff8111156121d857600080fd5b6121e484828501611f15565b949350505050565b6000602082840312156121fe57600080fd5b5035919050565b60008060006060848603121561221a57600080fd5b835192506020808501519250604085015167ffffffffffffffff81111561224057600080fd5b8501601f8101871361225157600080fd5b805161225f611e5b8261264b565b8082825284820191508484018a868560051b870101111561227f57600080fd5b600094505b838510156122a2578051835260019490940193918501918501612284565b5080955050505050509250925092565b600081518084526020808501945080840160005b838110156122e2578151875295820195908201906001016122c6565b509495945050505050565b6000815480845260208085019450836000528060002060005b838110156122e257815487529582019560019182019101612306565b6000815180845261233a8160208601602086016126c8565b601f01601f19169290920160200192915050565b8054600090600181811c908083168061236857607f831692505b602080841082141561238a57634e487b7160e01b600052602260045260246000fd5b838852602088018280156123a557600181146123b6576123e1565b60ff198716825282820197506123e1565b60008981526020902060005b878110156123db578154848201529086019084016123c2565b83019850505b5050505050505092915050565b8051608080845281519084018190526000916020919082019060a0860190845b818110156124335783516001600160a01b03168352928401929184019160010161240e565b50508285015191508581038387015261244c81836122b2565b92505050604083015184820360408601526124678282612322565b915050606083015161247d606086018215159052565b509392505050565b600082516124978184602087016126c8565b9190910192915050565b8481526001600160a01b038481166020830152831660408201526080606082018190526000906124d3908301846123ee565b9695505050505050565b602081526000611fa26020830184612322565b60ff831681526040602082015260006121e460408301846122ed565b60e08152600061251f60e083018a61234e565b602083820381850152612532828b61234e565b8481036040860152895480825260008b81528381209450918301915b818110156125735784546001600160a01b03168352600194850194928401920161254e565b50508481036060860152612587818a6122ed565b93505050508460808301526125a760a08301856001600160a01b03169052565b82151560c083015298975050505050505050565b6020808252601f908201527f4c42504d616e616765723a2063616c6c6572206973206e6f742061646d696e00604082015260600190565b83815282602082015260606040820152600061261160608301846122ed565b95945050505050565b604051601f8201601f1916810167ffffffffffffffff811182821017156126435761264361277f565b604052919050565b600067ffffffffffffffff8211156126655761266561277f565b5060051b60200190565b6000821982111561268257612682612753565b500190565b6000826126a457634e487b7160e01b600052601260045260246000fd5b500490565b60008160001904831182151516156126c3576126c3612753565b500290565b60005b838110156126e35781810151838201526020016126cb565b838111156126f2576000848401525b50505050565b600181811c9082168061270c57607f821691505b6020821081141561272d57634e487b7160e01b600052602260045260246000fd5b50919050565b600060ff821660ff81141561274a5761274a612753565b60010192915050565b634e487b7160e01b600052601160045260246000fd5b634e487b7160e01b600052603260045260246000fd5b634e487b7160e01b600052604160045260246000fd5b6001600160a01b03811681146127aa57600080fd5b50565b80151581146127aa57600080fdfea26469706673582212202e7a2c159eab668804fc2913607202dd0bbd86f116a98cde6811f699d25cc3fc64736f6c63430008060033",
  "devdoc": {
    "details": "Smart contract for managing interactions with a Balancer LBP.",
    "kind": "dev",
    "methods": {
      "initializeLBP(address)": {
        "details": "Subtracts the fee and adds liquidity to the LBP.",
        "params": {
          "_sender": "Address of the liquidity provider."
        }
      },
      "initializeLBPManager(address,address,string,string,address[],uint256[],uint256[],uint256[],uint256[],uint256[],bytes)": {
        "details": "Initialize LBPManager.",
        "params": {
          "_LBPFactory": "LBP factory address.",
          "_amounts": "Array containing two parameters in order of: 1. The amounts of project token to be added as liquidity to the LBP. 2. The amounts of funding token to be added as liquidity to the LBP.",
          "_beneficiary": "The address that receives the feePercentage.",
          "_endWeights": "Array containing two parametes in order of: 1. The end weight for the project token in the LBP. 2. The end weight for the funding token in the LBP.",
          "_fees": "Array containing two parameters in order of: 1. Percentage of fee paid for every swap in the LBP. 2. Percentage of fee paid to the _beneficiary for providing the service of the LBP Manager.",
          "_metadata": "IPFS Hash of the LBP creation wizard information.",
          "_name": "Name of the LBP.",
          "_startTimeEndTime": "Array containing two parameters in order of: 1. Start time for the LBP. 2. End time for the LBP.",
          "_startWeights": "Array containing two parametes in order of: 1. The start weight for the project token in the LBP. 2. The start weight for the funding token in the LBP.",
          "_symbol": "Symbol of the LBP.",
          "_tokenList": "Array containing two addresses in order of: 1. The address of the project token being distributed. 2. The address of the funding token being exchanged for the project token."
        }
      },
      "projectTokensRequired()": {
        "details": "Get required amount of project tokens to cover for fees and the actual LBP."
      },
      "removeLiquidity(address)": {
        "details": "Exit pool or remove liquidity from pool.",
        "params": {
          "_receiver": "Address of the liquidity receiver, after exiting the LBP."
        }
      },
      "setSwapEnabled(bool)": {
        "details": "Can pause/unpause trading.",
        "params": {
          "_swapEnabled": "Enables/disables swapping."
        }
      },
      "transferAdminRights(address)": {
        "details": "Transfer admin rights.",
        "params": {
          "_newAdmin": "Address of the new admin."
        }
      },
      "updateMetadata(bytes)": {
        "details": "Updates metadata.",
        "params": {
          "_metadata": "LBP wizard contract metadata, that is an IPFS Hash."
        }
      },
      "withdrawPoolTokens(address)": {
        "details": "Withdraw pool tokens if available.",
        "params": {
          "_receiver": "Address of the BPT tokens receiver."
        }
      }
    },
    "title": "LBPManager contract.",
    "version": 1
  },
  "userdoc": {
    "kind": "user",
    "methods": {},
    "version": 1
  },
  "storageLayout": {
    "storage": [
      {
        "astId": 239,
        "contract": "contracts/lbp/LBPManager.sol:LBPManager",
        "label": "symbol",
        "offset": 0,
        "slot": "0",
        "type": "t_string_storage"
      },
      {
        "astId": 241,
        "contract": "contracts/lbp/LBPManager.sol:LBPManager",
        "label": "name",
        "offset": 0,
        "slot": "1",
        "type": "t_string_storage"
      },
      {
        "astId": 243,
        "contract": "contracts/lbp/LBPManager.sol:LBPManager",
        "label": "admin",
        "offset": 0,
        "slot": "2",
        "type": "t_address"
      },
      {
        "astId": 245,
        "contract": "contracts/lbp/LBPManager.sol:LBPManager",
        "label": "beneficiary",
        "offset": 0,
        "slot": "3",
        "type": "t_address"
      },
      {
        "astId": 247,
        "contract": "contracts/lbp/LBPManager.sol:LBPManager",
        "label": "feePercentage",
        "offset": 0,
        "slot": "4",
        "type": "t_uint256"
      },
      {
        "astId": 249,
        "contract": "contracts/lbp/LBPManager.sol:LBPManager",
        "label": "swapFeePercentage",
        "offset": 0,
        "slot": "5",
        "type": "t_uint256"
      },
      {
        "astId": 253,
        "contract": "contracts/lbp/LBPManager.sol:LBPManager",
        "label": "tokenList",
        "offset": 0,
        "slot": "6",
        "type": "t_array(t_contract(IERC20)11708)dyn_storage"
      },
      {
        "astId": 256,
        "contract": "contracts/lbp/LBPManager.sol:LBPManager",
        "label": "amounts",
        "offset": 0,
        "slot": "7",
        "type": "t_array(t_uint256)dyn_storage"
      },
      {
        "astId": 259,
        "contract": "contracts/lbp/LBPManager.sol:LBPManager",
        "label": "startWeights",
        "offset": 0,
        "slot": "8",
        "type": "t_array(t_uint256)dyn_storage"
      },
      {
        "astId": 262,
        "contract": "contracts/lbp/LBPManager.sol:LBPManager",
        "label": "endWeights",
        "offset": 0,
        "slot": "9",
        "type": "t_array(t_uint256)dyn_storage"
      },
      {
        "astId": 265,
        "contract": "contracts/lbp/LBPManager.sol:LBPManager",
        "label": "startTimeEndTime",
        "offset": 0,
        "slot": "10",
        "type": "t_array(t_uint256)dyn_storage"
      },
      {
        "astId": 268,
        "contract": "contracts/lbp/LBPManager.sol:LBPManager",
        "label": "lbp",
        "offset": 0,
        "slot": "11",
        "type": "t_contract(ILBP)2838"
      },
      {
        "astId": 270,
        "contract": "contracts/lbp/LBPManager.sol:LBPManager",
        "label": "metadata",
        "offset": 0,
        "slot": "12",
        "type": "t_bytes_storage"
      },
      {
        "astId": 272,
        "contract": "contracts/lbp/LBPManager.sol:LBPManager",
        "label": "projectTokenIndex",
        "offset": 0,
        "slot": "13",
        "type": "t_uint8"
      },
      {
        "astId": 274,
        "contract": "contracts/lbp/LBPManager.sol:LBPManager",
        "label": "LBPFactory",
        "offset": 1,
        "slot": "13",
        "type": "t_address"
      },
      {
        "astId": 276,
        "contract": "contracts/lbp/LBPManager.sol:LBPManager",
        "label": "poolFunded",
        "offset": 21,
        "slot": "13",
        "type": "t_bool"
      },
      {
        "astId": 278,
        "contract": "contracts/lbp/LBPManager.sol:LBPManager",
        "label": "initialized",
        "offset": 22,
        "slot": "13",
        "type": "t_bool"
      }
    ],
    "types": {
      "t_address": {
        "encoding": "inplace",
        "label": "address",
        "numberOfBytes": "20"
      },
      "t_array(t_contract(IERC20)11708)dyn_storage": {
        "base": "t_contract(IERC20)11708",
        "encoding": "dynamic_array",
        "label": "contract IERC20[]",
        "numberOfBytes": "32"
      },
      "t_array(t_uint256)dyn_storage": {
        "base": "t_uint256",
        "encoding": "dynamic_array",
        "label": "uint256[]",
        "numberOfBytes": "32"
      },
      "t_bool": {
        "encoding": "inplace",
        "label": "bool",
        "numberOfBytes": "1"
      },
      "t_bytes_storage": {
        "encoding": "bytes",
        "label": "bytes",
        "numberOfBytes": "32"
      },
      "t_contract(IERC20)11708": {
        "encoding": "inplace",
        "label": "contract IERC20",
        "numberOfBytes": "20"
      },
      "t_contract(ILBP)2838": {
        "encoding": "inplace",
        "label": "contract ILBP",
        "numberOfBytes": "20"
      },
      "t_string_storage": {
        "encoding": "bytes",
        "label": "string",
        "numberOfBytes": "32"
      },
      "t_uint256": {
        "encoding": "inplace",
        "label": "uint256",
        "numberOfBytes": "32"
      },
      "t_uint8": {
        "encoding": "inplace",
        "label": "uint8",
        "numberOfBytes": "1"
      }
    }
  }
}