{
  "address": "0x3B65b5c5796678Dd57dbE94a9e0b2f06F45A5CC3",
  "abi": [
    {
      "inputs": [
        {
          "internalType": "address[]",
          "name": "_repRecipients",
          "type": "address[]"
        },
        {
          "internalType": "uint256[]",
          "name": "_repAmounts",
          "type": "uint256[]"
        }
      ],
      "stateMutability": "nonpayable",
      "type": "constructor"
    },
    {
      "anonymous": false,
      "inputs": [
        {
          "indexed": true,
          "internalType": "address",
          "name": "owner",
          "type": "address"
        },
        {
          "indexed": true,
          "internalType": "address",
          "name": "spender",
          "type": "address"
        },
        {
          "indexed": false,
          "internalType": "uint256",
          "name": "value",
          "type": "uint256"
        }
      ],
      "name": "Approval",
      "type": "event"
    },
    {
      "anonymous": false,
      "inputs": [
        {
          "indexed": true,
          "internalType": "address",
          "name": "previousOwner",
          "type": "address"
        },
        {
          "indexed": true,
          "internalType": "address",
          "name": "newOwner",
          "type": "address"
        }
      ],
      "name": "OwnershipTransferred",
      "type": "event"
    },
    {
      "anonymous": false,
      "inputs": [
        {
          "indexed": true,
          "internalType": "address",
          "name": "from",
          "type": "address"
        },
        {
          "indexed": true,
          "internalType": "address",
          "name": "to",
          "type": "address"
        },
        {
          "indexed": false,
          "internalType": "uint256",
          "name": "value",
          "type": "uint256"
        }
      ],
      "name": "Transfer",
      "type": "event"
    },
    {
      "inputs": [
        {
          "internalType": "address",
          "name": "owner",
          "type": "address"
        },
        {
          "internalType": "address",
          "name": "spender",
          "type": "address"
        }
      ],
      "name": "allowance",
      "outputs": [
        {
          "internalType": "uint256",
          "name": "",
          "type": "uint256"
        }
      ],
      "stateMutability": "view",
      "type": "function"
    },
    {
      "inputs": [
        {
          "internalType": "address",
          "name": "spender",
          "type": "address"
        },
        {
          "internalType": "uint256",
          "name": "amount",
          "type": "uint256"
        }
      ],
      "name": "approve",
      "outputs": [
        {
          "internalType": "bool",
          "name": "",
          "type": "bool"
        }
      ],
      "stateMutability": "nonpayable",
      "type": "function"
    },
    {
      "inputs": [
        {
          "internalType": "address",
          "name": "account",
          "type": "address"
        }
      ],
      "name": "balanceOf",
      "outputs": [
        {
          "internalType": "uint256",
          "name": "",
          "type": "uint256"
        }
      ],
      "stateMutability": "view",
      "type": "function"
    },
    {
      "inputs": [
        {
          "internalType": "address[]",
          "name": "_repRecipients",
          "type": "address[]"
        },
        {
          "internalType": "uint256[]",
          "name": "_repAmounts",
          "type": "uint256[]"
        }
      ],
      "name": "batchBurn",
      "outputs": [],
      "stateMutability": "nonpayable",
      "type": "function"
    },
    {
      "inputs": [
        {
          "internalType": "address[]",
          "name": "_repRecipients",
          "type": "address[]"
        },
        {
          "internalType": "uint256[]",
          "name": "_repAmounts",
          "type": "uint256[]"
        }
      ],
      "name": "batchMint",
      "outputs": [],
      "stateMutability": "nonpayable",
      "type": "function"
    },
    {
      "inputs": [
        {
          "internalType": "address",
          "name": "_repRecipient",
          "type": "address"
        },
        {
          "internalType": "uint256",
          "name": "_repAmount",
          "type": "uint256"
        }
      ],
      "name": "burn",
      "outputs": [],
      "stateMutability": "nonpayable",
      "type": "function"
    },
    {
      "inputs": [],
      "name": "decimals",
      "outputs": [
        {
          "internalType": "uint8",
          "name": "",
          "type": "uint8"
        }
      ],
      "stateMutability": "view",
      "type": "function"
    },
    {
      "inputs": [
        {
          "internalType": "address",
          "name": "spender",
          "type": "address"
        },
        {
          "internalType": "uint256",
          "name": "subtractedValue",
          "type": "uint256"
        }
      ],
      "name": "decreaseAllowance",
      "outputs": [
        {
          "internalType": "bool",
          "name": "",
          "type": "bool"
        }
      ],
      "stateMutability": "nonpayable",
      "type": "function"
    },
    {
      "inputs": [
        {
          "internalType": "address",
          "name": "spender",
          "type": "address"
        },
        {
          "internalType": "uint256",
          "name": "addedValue",
          "type": "uint256"
        }
      ],
      "name": "increaseAllowance",
      "outputs": [
        {
          "internalType": "bool",
          "name": "",
          "type": "bool"
        }
      ],
      "stateMutability": "nonpayable",
      "type": "function"
    },
    {
      "inputs": [
        {
          "internalType": "address",
          "name": "_repRecipient",
          "type": "address"
        },
        {
          "internalType": "uint256",
          "name": "_repAmount",
          "type": "uint256"
        }
      ],
      "name": "mint",
      "outputs": [],
      "stateMutability": "nonpayable",
      "type": "function"
    },
    {
      "inputs": [],
      "name": "name",
      "outputs": [
        {
          "internalType": "string",
          "name": "",
          "type": "string"
        }
      ],
      "stateMutability": "view",
      "type": "function"
    },
    {
      "inputs": [],
      "name": "owner",
      "outputs": [
        {
          "internalType": "address",
          "name": "",
          "type": "address"
        }
      ],
      "stateMutability": "view",
      "type": "function"
    },
    {
      "inputs": [],
      "name": "renounceOwnership",
      "outputs": [],
      "stateMutability": "nonpayable",
      "type": "function"
    },
    {
      "inputs": [],
      "name": "symbol",
      "outputs": [
        {
          "internalType": "string",
          "name": "",
          "type": "string"
        }
      ],
      "stateMutability": "view",
      "type": "function"
    },
    {
      "inputs": [],
      "name": "totalSupply",
      "outputs": [
        {
          "internalType": "uint256",
          "name": "",
          "type": "uint256"
        }
      ],
      "stateMutability": "view",
      "type": "function"
    },
    {
      "inputs": [
        {
          "internalType": "address",
          "name": "recipient",
          "type": "address"
        },
        {
          "internalType": "uint256",
          "name": "amount",
          "type": "uint256"
        }
      ],
      "name": "transfer",
      "outputs": [
        {
          "internalType": "bool",
          "name": "",
          "type": "bool"
        }
      ],
      "stateMutability": "pure",
      "type": "function"
    },
    {
      "inputs": [
        {
          "internalType": "address",
          "name": "sender",
          "type": "address"
        },
        {
          "internalType": "address",
          "name": "recipient",
          "type": "address"
        },
        {
          "internalType": "uint256",
          "name": "amount",
          "type": "uint256"
        }
      ],
      "name": "transferFrom",
      "outputs": [
        {
          "internalType": "bool",
          "name": "",
          "type": "bool"
        }
      ],
      "stateMutability": "pure",
      "type": "function"
    },
    {
      "inputs": [
        {
          "internalType": "address",
          "name": "newOwner",
          "type": "address"
        }
      ],
      "name": "transferOwnership",
      "outputs": [],
      "stateMutability": "nonpayable",
      "type": "function"
    }
  ],
  "transactionHash": "0xec7d03d55f29c8f778aaa61efade031e0dcd4a6f1ffefad534835b535e49a69a",
  "args": [
    [
      "0x34f29bdc6ab97ed40818581c2efd73cd4993118f",
      "0x0ae72609b7b6269bb1a289761120d490150b04a3",
      "0x0f9dd46b0e1f77cec0f66c20b9a1f56cb34a4556",
      "0x30043aabbcebbd887437ec4f0cfe6d4c0eb5cc64",
      "0x44bdd60fa60c165c438a3ee93ae0ced2538bdc01",
      "0x0a1f2e1a4585bbf5e54a894fffa74133654bfadc",
      "0xa778be343c1ee2d358a0f7a0c923c53d79277f3c",
      "0x99efa3fbd7217b267163071bce1dbefcf2d5ef75",
      "0xcd32111c1ea7ddfb1d02fa26e1bb23381c369d88",
      "0x82a8439ba037f88bc73c4ccf55292e158a67f125",
      "0x5ffe1e4d196116049c4c17d1f4d2457eb92a2100",
      "0xffcbdc63a489d9727a7ea57724d0914e5c504351",
      "0x9c7b84be5d69bb41a718a4af921e44730a277f90",
      "0x3c6568628a2d0b06a79e8195650f0974b7f7b4c0",
      "0xf5913759b449fae8900d61f7116d451d200c60f7",
      "0x7201079be2bdd71cbe9b999373752e731139fe33",
      "0xe90558e78964df67a69866bd1d838c2da2966301",
      "0xd291e60f3780408c5c85bf6892c701a108e418ad",
      "0xec3281124d4c2fca8a88e3076c1e7749cfecb7f2",
      "0xf9107317b0ff77ed5b7adea15e50514a3564002b",
      "0x90bdd266d8db3f920883ff1293a467357b5abd24",
      "0x50c87176bcd227ab083a6b4cf2038b0d5081ffe5",
      "0x2d69008a39f2a03c0b1a023161e0afef18668e54",
      "0x7b95726160392d606c3fdceff3d6f631a33813c5",
      "0x2690f03e72333e9ee69efdc98f5a604152c2acdb",
      "0xe59c8f1ab57b46720bc560777504b59160e50336",
      "0x5d28fe1e9f895464aab52287d85ebff32b351674",
      "0xbba72f1387db39ea647784a098518f6b0552b4b3",
      "0x4b02f07828faab9dcef276d656ee155e23229831",
      "0x53428becb185232d7e1fc38520847c1f3f5835b6",
      "0xcf88fa6ee6d111b04be9b06ef6fad6bd6691b88c",
      "0x8ef421adee25c067a8a9ef427fe1c270b884fcff",
      "0x6c310d5c60a8e4b9666285f5a436fde9327381be",
      "0x2cf5ae708480250c90fd16151f3748cf6c0e5da9",
      "0x49c97bbe8b5f7717e3ac6514a555f82cf7bffc56",
      "0x6d5f6f6ede1012739e8cfbcbd9aa2b39e274370f",
      "0x06317c155678b18cc514884edef27b12fc763d88",
      "0xe0d6480ae69e7c4928a3f45e6cf5651e52741ec0",
      "0x42f5dc2c03427da6b28bb63d7c50ff0dcb358558",
      "0x92b31bfb6462249af1b54356eae32f01c4741fe6",
      "0x33daff7cc99bfb94381b43fd660d6a8b2011fdc2",
      "0xb1b7586656116d546033e3baff69bfcd6592225e",
      "0x9241f5e46db524a58bf2b91a226f7356748a9104",
      "0xf9c3950281a45c568fa76037a66da8bb85edfae0",
      "0xce7298e5ef1ae8af0573edc2ebd03ab0f837e214",
      "0x2aebddc861327d54468bee30fbc466e420003fa9",
      "0x2c66a8ac7f8e6649581b137e86b4bd15b75e20d6",
      "0xc453e07ad5085ee0a9f9bdd03c0f2841a92455f4",
      "0xd377b7a9e76fc735ad1a579254ac7dd35f8978dc",
      "0x144c4e5027b69f7798b2b162d924bcae5c149f15",
      "0x778549eb292ac98a96a05e122967f22efa003707",
      "0xf3ce55b99b9ba1d6d403b9df5fe4c25fe243385f",
      "0x649952d42c8a40a3b89de9ce024542f5882fac07",
      "0x5e7b645d5bf86750cb1913122ba8a8545e2a9fd1",
      "0x654ecf935a6476686435c8337bbbbecf47ca82cb",
      "0xdf290293c4a4d6ebe38fd7085d7721041f927e0a",
      "0x2189f1d9fc5eef0d69aba0bad981e125a98abaec",
      "0x36a10eddee57755ab5c92705c7a6cd27e8ce3c45",
      "0x8293fb9c219acaef578f2f06dc88932baff61b56",
      "0xd0b96b9d5590f512dd1f466aac41441b6e0dd5e4",
      "0x34090b58c3159303c6226bb25d1082de7cfe5a79",
      "0x0435dac8b0004408e4c32d4ef217aa4bd0d89df4",
      "0x5db43b176860bdc65fa18f839cface35a309e5c7",
      "0xd53a09059e46ae357e02a803f89a807a82381ca1",
      "0xe7d4331a8f3a4cc2057664cc71a0f776d5de9126",
      "0x47b72adb8cf42043e4796c2fecf27e836e0341fb",
      "0x1b2b8b01bdbb2669eae089ba0572046649c38cd1",
      "0x2e8aa7af8371f8d8867aa219e05249ce34948b71",
      "0xaa01dec5307cf17f20881a3286dcaa062578cea7",
      "0x639749b7b08aee65039c21d8a411103c6cebebf0",
      "0x268d0d576c688f1728cbccf20483e1d36fd66937",
      "0xc4d9d1a93068d311ab18e988244123430eb4f1cd",
      "0x89bed82f1a7e9b9971f3436af3f5a38e9a649371",
      "0xb5a7e5d70ee25cc4d22e3714c9057393f21241e4",
      "0xee7e6014a3369576742b6e1ee85e42827a537600",
      "0x6761bcaf2b2156c058634d9772f07374d6edef1d",
      "0x04d63662227e4742236a46399d005f988e0883cf",
      "0x8dfd5bac330369e20d14a4d68dadec90df85029c",
      "0x57421dea5152997c5ca37c3c6a5891c2c0217078",
      "0x9aa6db877742ad8d8c7fe209f561fbd2be19d5f4",
      "0xb64850fe701fb64667b6cc762aa2c12f2e02193c",
      "0x44b622999365f3aac4268a5e5516f949f2b1aee8",
      "0xa8bae0ae470bf98b017c522c985ed1f7b2a1d0e1",
      "0xc126f092483f6c6250c94551ddda87d40f3c4798",
      "0xbe4ba4b9b3dbe25a93820eef90fb4da150380510",
      "0xb5806a701c2ae0366e15bde9be140e82190fa3d6",
      "0xdde1fff2eae2c0b2ab4129a1b12d454f47cc0fd6",
      "0xae7ccc09dffb00c4be08b1b6f0bb267ce1164a85",
      "0xa7e48a6f4d19a60b6fa72fd15b247915fb0aea6a",
      "0x8540f80fab2afcae8d8fd6b1557b1cf943a0999b",
      "0xcced3e809768c2e4c4e5c3ecffc5041455872294",
      "0x033cfef803852271fd49d5ad9a051ef5d979ec70",
      "0x43829a9762a119e432d67d6e9fc15cd37ee8f8ba",
      "0xe8af12e3c4d34d3aa27a38258d6ce1b803a37e02",
      "0x36222f9a447d40a116686a77e92651891cc1d3bd",
      "0x8873b045d40a458e46e356a96279ae1820a898ba",
      "0x397bbffc7f70319e244b4a1b951f7eed42cb390c",
      "0x026f549694ccbdac252436b611b75c463ea497ec",
      "0x214bc6a17e022cff3676d3979b748f2940317957",
      "0x22bb05438ae1e34a87e08ce9794c7bcb3e363bf0"
    ],
    [
      "100000000000000000000",
      "73250000000000000000",
      "50000000000000000000",
      "250290000000000000000",
      "500000000000000000000",
      "4750000000000000000",
      "150000000000000000000",
      "150000000000000000000",
      "500000000000000000000",
      "50000000000000000000",
      "61650000000000000000",
      "150000000000000000000",
      "22810000000000000000",
      "150000000000000000000",
      "50000000000000000000",
      "50000000000000000000",
      "100000000000000000000",
      "50000000000000000000",
      "150000000000000000000",
      "36840000000000000000",
      "150000000000000000000",
      "50000000000000000000",
      "200000000000000000000",
      "150000000000000000000",
      "50000000000000000000",
      "50000000000000000000",
      "150000000000000000000",
      "250000000000000000000",
      "50000000000000000000",
      "150000000000000000000",
      "150000000000000000000",
      "50000000000000000000",
      "150000000000000000000",
      "50000000000000000000",
      "50000000000000000000",
      "50000000000000000000",
      "26130000000000000000",
      "50000000000000000000",
      "50000000000000000000",
      "50000000000000000000",
      "50000000000000000000",
      "50000000000000000000",
      "50000000000000000000",
      "50000000000000000000",
      "200000000000000000000",
      "50000000000000000000",
      "200000000000000000000",
      "50000000000000000000",
      "150000000000000000000",
      "150000000000000000000",
      "150000000000000000000",
      "50000000000000000000",
      "50000000000000000000",
      "50000000000000000000",
      "50000000000000000000",
      "150000000000000000000",
      "50000000000000000000",
      "50000000000000000000",
      "150000000000000000000",
      "50000000000000000000",
      "50000000000000000000",
      "100000000000000000000",
      "500000000000000000000",
      "232150000000000000000",
      "50000000000000000000",
      "500000000000000000000",
      "150000000000000000000",
      "50000000000000000000",
      "50200000000000000000",
      "50000000000000000000",
      "50000000000000000000",
      "500000000000000000000",
      "19490000000000000000",
      "50000000000000000000",
      "150000000000000000000",
      "12200000000000000000",
      "255000000000000000000",
      "97140000000000000000",
      "50000000000000000000",
      "50000000000000000000",
      "50000000000000000000",
      "1000000000000000000",
      "50000000000000000000",
      "1000000000000000000",
      "150000000000000000000",
      "500000000000000000000",
      "50000000000000000000",
      "150000000000000000000",
      "150000000000000000000",
      "500000000000000000000",
      "50000000000000000000",
      "150000000000000000000",
      "41350000000000000000",
      "250000000000000000000",
      "50000000000000000000",
      "100000000000000000000",
      "36000000000000000000",
      "73000000000000000000",
      "50000000000000000000",
      "100000000000000000000"
    ]
  ],
  "solcInputHash": "b0930e65ef4065979e554a1358b50b6e",
  "bytecode": "0x60806040523480156200001157600080fd5b50604051620017193803806200171983398101604081905262000034916200050b565b6040518060400160405280601381526020017f5072696d6544414f2052657075746174696f6e000000000000000000000000008152506040518060400160405280600381526020016205245560ec1b81525081600390805190602001906200009e929190620003eb565b508051620000b4906004906020840190620003eb565b505050620000d1620000cb620000e560201b60201c565b620000e9565b620000dd82826200013b565b50506200070c565b3390565b600580546001600160a01b038381166001600160a01b0319831681179093556040519116919082907f8be0079c531659141344cd1fd0a4f28419497f9722a3daafe3b4186f6b6457e090600090a35050565b81818051825114620001e05760405162461bcd60e51b815260206004820152605360248201527f52657075746174696f6e3a206e756d626572206f662072657075746174696f6e60448201527f20686f6c6465727320646f65736e2774206d61746368206e756d626572206f6660648201527f2072657075746174696f6e20616d6f756e747300000000000000000000000000608482015260a4015b60405180910390fd5b60c882511115620002735760405162461bcd60e51b815260206004820152605060248201527f52657075746174696f6e3a206d6178696d756d206e756d626572206f6620726560448201527f7075746174696f6e20686f6c6465727320616e6420616d6f756e7473206f662060648201526f0c8c0c081dd85cc8195e18d95959195960821b608482015260a401620001d7565b60005b8351816001600160401b03161015620002ff57620002ea85826001600160401b031681518110620002ab57620002ab620006e0565b602002602001015185836001600160401b031681518110620002d157620002d1620006e0565b60200260200101516200030660201b620005f81760201c565b80620002f681620006a0565b91505062000276565b5050505050565b6001600160a01b0382166200035e5760405162461bcd60e51b815260206004820152601f60248201527f45524332303a206d696e7420746f20746865207a65726f2061646472657373006044820152606401620001d7565b806002600082825462000372919062000648565b90915550506001600160a01b03821660009081526020819052604081208054839290620003a190849062000648565b90915550506040518181526001600160a01b038316906000907fddf252ad1be2c89b69c2b068fc378daa952ba7f163c4a11628f55a4df523b3ef9060200160405180910390a35050565b828054620003f99062000663565b90600052602060002090601f0160209004810192826200041d576000855562000468565b82601f106200043857805160ff191683800117855562000468565b8280016001018555821562000468579182015b82811115620004685782518255916020019190600101906200044b565b50620004769291506200047a565b5090565b5b808211156200047657600081556001016200047b565b600082601f830112620004a357600080fd5b81516020620004bc620004b68362000622565b620005ef565b80838252828201915082860187848660051b8901011115620004dd57600080fd5b60005b85811015620004fe57815184529284019290840190600101620004e0565b5090979650505050505050565b600080604083850312156200051f57600080fd5b82516001600160401b03808211156200053757600080fd5b818501915085601f8301126200054c57600080fd5b815160206200055f620004b68362000622565b8083825282820191508286018a848660051b89010111156200058057600080fd5b600096505b84871015620005bb5780516001600160a01b0381168114620005a657600080fd5b83526001969096019591830191830162000585565b5091880151919650909350505080821115620005d657600080fd5b50620005e58582860162000491565b9150509250929050565b604051601f8201601f191681016001600160401b03811182821017156200061a576200061a620006f6565b604052919050565b60006001600160401b038211156200063e576200063e620006f6565b5060051b60200190565b600082198211156200065e576200065e620006ca565b500190565b600181811c908216806200067857607f821691505b602082108114156200069a57634e487b7160e01b600052602260045260246000fd5b50919050565b60006001600160401b0382811680821415620006c057620006c0620006ca565b6001019392505050565b634e487b7160e01b600052601160045260246000fd5b634e487b7160e01b600052603260045260246000fd5b634e487b7160e01b600052604160045260246000fd5b610ffd806200071c6000396000f3fe608060405234801561001057600080fd5b50600436106101165760003560e01c806370a08231116100a25780639dc29fac116100715780639dc29fac14610236578063a457c2d714610249578063a9059cbb1461025c578063dd62ed3e14610272578063f2fde38b146102ab57600080fd5b806370a08231146101e2578063715018a61461020b5780638da5cb5b1461021357806395d89b411461022e57600080fd5b8063313ce567116100e9578063313ce56714610185578063395093511461019457806340c10f19146101a75780634a6cc677146101bc57806368573107146101cf57600080fd5b806306fdde031461011b578063095ea7b31461013957806318160ddd1461015c57806323b872dd1461016e575b600080fd5b6101236102be565b6040516101309190610d25565b60405180910390f35b61014c610147366004610c34565b610350565b6040519015158152602001610130565b6002545b604051908152602001610130565b61014c61017c366004610bf8565b60009392505050565b60405160128152602001610130565b61014c6101a2366004610c34565b610366565b6101ba6101b5366004610c34565b6103a2565b005b6101ba6101ca366004610c5e565b6103e3565b6101ba6101dd366004610c5e565b610417565b6101606101f0366004610ba3565b6001600160a01b031660009081526020819052604090205490565b6101ba61044b565b6005546040516001600160a01b039091168152602001610130565b610123610481565b6101ba610244366004610c34565b610490565b61014c610257366004610c34565b6104c4565b61014c61026a366004610c34565b600092915050565b610160610280366004610bc5565b6001600160a01b03918216600090815260016020908152604080832093909416825291909152205490565b6101ba6102b9366004610ba3565b61055d565b6060600380546102cd90610f22565b80601f01602080910402602001604051908101604052809291908181526020018280546102f990610f22565b80156103465780601f1061031b57610100808354040283529160200191610346565b820191906000526020600020905b81548152906001019060200180831161032957829003601f168201915b5050505050905090565b600061035d3384846106d7565b50600192915050565b3360008181526001602090815260408083206001600160a01b0387168452909152812054909161035d91859061039d908690610ef3565b6106d7565b6005546001600160a01b031633146103d55760405162461bcd60e51b81526004016103cc90610df0565b60405180910390fd5b6103df82826105f8565b5050565b6005546001600160a01b0316331461040d5760405162461bcd60e51b81526004016103cc90610df0565b6103df82826107fc565b6005546001600160a01b031633146104415760405162461bcd60e51b81526004016103cc90610df0565b6103df82826108c0565b6005546001600160a01b031633146104755760405162461bcd60e51b81526004016103cc90610df0565b61047f600061097d565b565b6060600480546102cd90610f22565b6005546001600160a01b031633146104ba5760405162461bcd60e51b81526004016103cc90610df0565b6103df82826109cf565b3360009081526001602090815260408083206001600160a01b0386168452909152812054828110156105465760405162461bcd60e51b815260206004820152602560248201527f45524332303a2064656372656173656420616c6c6f77616e63652062656c6f77604482015264207a65726f60d81b60648201526084016103cc565b61055333858584036106d7565b5060019392505050565b6005546001600160a01b031633146105875760405162461bcd60e51b81526004016103cc90610df0565b6001600160a01b0381166105ec5760405162461bcd60e51b815260206004820152602660248201527f4f776e61626c653a206e6577206f776e657220697320746865207a65726f206160448201526564647265737360d01b60648201526084016103cc565b6105f58161097d565b50565b6001600160a01b03821661064e5760405162461bcd60e51b815260206004820152601f60248201527f45524332303a206d696e7420746f20746865207a65726f20616464726573730060448201526064016103cc565b80600260008282546106609190610ef3565b90915550506001600160a01b0382166000908152602081905260408120805483929061068d908490610ef3565b90915550506040518181526001600160a01b038316906000907fddf252ad1be2c89b69c2b068fc378daa952ba7f163c4a11628f55a4df523b3ef9060200160405180910390a35050565b6001600160a01b0383166107395760405162461bcd60e51b8152602060048201526024808201527f45524332303a20617070726f76652066726f6d20746865207a65726f206164646044820152637265737360e01b60648201526084016103cc565b6001600160a01b03821661079a5760405162461bcd60e51b815260206004820152602260248201527f45524332303a20617070726f766520746f20746865207a65726f206164647265604482015261737360f01b60648201526084016103cc565b6001600160a01b0383811660008181526001602090815260408083209487168084529482529182902085905590518481527f8c5be1e5ebec7d5bd14f71427d1e84f3dd0314c0f7b2291e5b200ac8c7c3b92591015b60405180910390a3505050565b8181805182511461081f5760405162461bcd60e51b81526004016103cc90610e25565b60c8825111156108415760405162461bcd60e51b81526004016103cc90610d7a565b60005b83518167ffffffffffffffff1610156108b9576108a7858267ffffffffffffffff168151811061087657610876610f9b565b6020026020010151858367ffffffffffffffff168151811061089a5761089a610f9b565b60200260200101516109cf565b806108b181610f5d565b915050610844565b5050505050565b818180518251146108e35760405162461bcd60e51b81526004016103cc90610e25565b60c8825111156109055760405162461bcd60e51b81526004016103cc90610d7a565b60005b83518167ffffffffffffffff1610156108b95761096b858267ffffffffffffffff168151811061093a5761093a610f9b565b6020026020010151858367ffffffffffffffff168151811061095e5761095e610f9b565b60200260200101516105f8565b8061097581610f5d565b915050610908565b600580546001600160a01b038381166001600160a01b0319831681179093556040519116919082907f8be0079c531659141344cd1fd0a4f28419497f9722a3daafe3b4186f6b6457e090600090a35050565b6001600160a01b038216610a2f5760405162461bcd60e51b815260206004820152602160248201527f45524332303a206275726e2066726f6d20746865207a65726f206164647265736044820152607360f81b60648201526084016103cc565b6001600160a01b03821660009081526020819052604090205481811015610aa35760405162461bcd60e51b815260206004820152602260248201527f45524332303a206275726e20616d6f756e7420657863656564732062616c616e604482015261636560f01b60648201526084016103cc565b6001600160a01b0383166000908152602081905260408120838303905560028054849290610ad2908490610f0b565b90915550506040518281526000906001600160a01b038516907fddf252ad1be2c89b69c2b068fc378daa952ba7f163c4a11628f55a4df523b3ef906020016107ef565b80356001600160a01b0381168114610b2c57600080fd5b919050565b600082601f830112610b4257600080fd5b81356020610b57610b5283610ecf565b610e9e565b80838252828201915082860187848660051b8901011115610b7757600080fd5b60005b85811015610b9657813584529284019290840190600101610b7a565b5090979650505050505050565b600060208284031215610bb557600080fd5b610bbe82610b15565b9392505050565b60008060408385031215610bd857600080fd5b610be183610b15565b9150610bef60208401610b15565b90509250929050565b600080600060608486031215610c0d57600080fd5b610c1684610b15565b9250610c2460208501610b15565b9150604084013590509250925092565b60008060408385031215610c4757600080fd5b610c5083610b15565b946020939093013593505050565b60008060408385031215610c7157600080fd5b823567ffffffffffffffff80821115610c8957600080fd5b818501915085601f830112610c9d57600080fd5b81356020610cad610b5283610ecf565b8083825282820191508286018a848660051b8901011115610ccd57600080fd5b600096505b84871015610cf757610ce381610b15565b835260019690960195918301918301610cd2565b5096505086013592505080821115610d0e57600080fd5b50610d1b85828601610b31565b9150509250929050565b600060208083528351808285015260005b81811015610d5257858101830151858201604001528201610d36565b81811115610d64576000604083870101525b50601f01601f1916929092016040019392505050565b60208082526050908201527f52657075746174696f6e3a206d6178696d756d206e756d626572206f6620726560408201527f7075746174696f6e20686f6c6465727320616e6420616d6f756e7473206f662060608201526f0c8c0c081dd85cc8195e18d95959195960821b608082015260a00190565b6020808252818101527f4f776e61626c653a2063616c6c6572206973206e6f7420746865206f776e6572604082015260600190565b60208082526053908201527f52657075746174696f6e3a206e756d626572206f662072657075746174696f6e60408201527f20686f6c6465727320646f65736e2774206d61746368206e756d626572206f666060820152722072657075746174696f6e20616d6f756e747360681b608082015260a00190565b604051601f8201601f1916810167ffffffffffffffff81118282101715610ec757610ec7610fb1565b604052919050565b600067ffffffffffffffff821115610ee957610ee9610fb1565b5060051b60200190565b60008219821115610f0657610f06610f85565b500190565b600082821015610f1d57610f1d610f85565b500390565b600181811c90821680610f3657607f821691505b60208210811415610f5757634e487b7160e01b600052602260045260246000fd5b50919050565b600067ffffffffffffffff80831681811415610f7b57610f7b610f85565b6001019392505050565b634e487b7160e01b600052601160045260246000fd5b634e487b7160e01b600052603260045260246000fd5b634e487b7160e01b600052604160045260246000fdfea26469706673582212201a692d80cd05c73687039c72a8c15b07e2ee0f7dd2facea990a1dd00e608e3dd64736f6c63430008060033",
  "devdoc": {
    "kind": "dev",
    "methods": {
      "allowance(address,address)": {
        "details": "See {IERC20-allowance}."
      },
      "approve(address,uint256)": {
        "details": "See {IERC20-approve}. Requirements: - `spender` cannot be the zero address."
      },
      "balanceOf(address)": {
        "details": "See {IERC20-balanceOf}."
      },
      "decimals()": {
        "details": "Returns the number of decimals used to get its user representation. For example, if `decimals` equals `2`, a balance of `505` tokens should be displayed to a user as `5,05` (`505 / 10 ** 2`). Tokens usually opt for a value of 18, imitating the relationship between Ether and Wei. This is the value {ERC20} uses, unless this function is overridden; NOTE: This information is only used for _display_ purposes: it in no way affects any of the arithmetic of the contract, including {IERC20-balanceOf} and {IERC20-transfer}."
      },
      "decreaseAllowance(address,uint256)": {
        "details": "Atomically decreases the allowance granted to `spender` by the caller. This is an alternative to {approve} that can be used as a mitigation for problems described in {IERC20-approve}. Emits an {Approval} event indicating the updated allowance. Requirements: - `spender` cannot be the zero address. - `spender` must have allowance for the caller of at least `subtractedValue`."
      },
      "increaseAllowance(address,uint256)": {
        "details": "Atomically increases the allowance granted to `spender` by the caller. This is an alternative to {approve} that can be used as a mitigation for problems described in {IERC20-approve}. Emits an {Approval} event indicating the updated allowance. Requirements: - `spender` cannot be the zero address."
      },
      "name()": {
        "details": "Returns the name of the token."
      },
      "owner()": {
        "details": "Returns the address of the current owner."
      },
      "renounceOwnership()": {
        "details": "Leaves the contract without owner. It will not be possible to call `onlyOwner` functions anymore. Can only be called by the current owner. NOTE: Renouncing ownership will leave the contract without an owner, thereby removing any functionality that is only available to the owner."
      },
      "symbol()": {
        "details": "Returns the symbol of the token, usually a shorter version of the name."
      },
      "totalSupply()": {
        "details": "See {IERC20-totalSupply}."
      },
      "transfer(address,uint256)": {
        "details": "See {IERC20-transfer}. Requirements: - `recipient` cannot be the zero address. - the caller must have a balance of at least `amount`."
      },
      "transferFrom(address,address,uint256)": {
        "details": "See {IERC20-transferFrom}. Emits an {Approval} event indicating the updated allowance. This is not required by the EIP. See the note at the beginning of {ERC20}. Requirements: - `sender` and `recipient` cannot be the zero address. - `sender` must have a balance of at least `amount`. - the caller must have allowance for ``sender``'s tokens of at least `amount`."
      },
      "transferOwnership(address)": {
        "details": "Transfers ownership of the contract to a new account (`newOwner`). Can only be called by the current owner."
      }
    },
    "version": 1
  },
  "userdoc": {
    "kind": "user",
    "methods": {},
    "version": 1
  },
  "storageLayout": {
    "storage": [
      {
        "astId": 10021,
        "contract": "contracts/Reputation.sol:Reputation",
        "label": "_balances",
        "offset": 0,
        "slot": "0",
        "type": "t_mapping(t_address,t_uint256)"
      },
      {
        "astId": 10027,
        "contract": "contracts/Reputation.sol:Reputation",
        "label": "_allowances",
        "offset": 0,
        "slot": "1",
        "type": "t_mapping(t_address,t_mapping(t_address,t_uint256))"
      },
      {
        "astId": 10029,
        "contract": "contracts/Reputation.sol:Reputation",
        "label": "_totalSupply",
        "offset": 0,
        "slot": "2",
        "type": "t_uint256"
      },
      {
        "astId": 10031,
        "contract": "contracts/Reputation.sol:Reputation",
        "label": "_name",
        "offset": 0,
        "slot": "3",
        "type": "t_string_storage"
      },
      {
        "astId": 10033,
        "contract": "contracts/Reputation.sol:Reputation",
        "label": "_symbol",
        "offset": 0,
        "slot": "4",
        "type": "t_string_storage"
      },
      {
        "astId": 9909,
        "contract": "contracts/Reputation.sol:Reputation",
        "label": "_owner",
        "offset": 0,
        "slot": "5",
        "type": "t_address"
      }
    ],
    "types": {
      "t_address": {
        "encoding": "inplace",
        "label": "address",
        "numberOfBytes": "20"
      },
      "t_mapping(t_address,t_mapping(t_address,t_uint256))": {
        "encoding": "mapping",
        "key": "t_address",
        "label": "mapping(address => mapping(address => uint256))",
        "numberOfBytes": "32",
        "value": "t_mapping(t_address,t_uint256)"
      },
      "t_mapping(t_address,t_uint256)": {
        "encoding": "mapping",
        "key": "t_address",
        "label": "mapping(address => uint256)",
        "numberOfBytes": "32",
        "value": "t_uint256"
      },
      "t_string_storage": {
        "encoding": "bytes",
        "label": "string",
        "numberOfBytes": "32"
      },
      "t_uint256": {
        "encoding": "inplace",
        "label": "uint256",
        "numberOfBytes": "32"
      }
    }
  }
}