{
  "_format": "hh-sol-artifact-1",
  "contractName": "ModuleManager",
  "sourceName": "contracts/gnosis/base/ModuleManager.sol",
  "abi": [
    {
      "anonymous": false,
      "inputs": [
        {
          "indexed": false,
          "internalType": "address",
          "name": "module",
          "type": "address"
        }
      ],
      "name": "DisabledModule",
      "type": "event"
    },
    {
      "anonymous": false,
      "inputs": [
        {
          "indexed": false,
          "internalType": "address",
          "name": "module",
          "type": "address"
        }
      ],
      "name": "EnabledModule",
      "type": "event"
    },
    {
      "anonymous": false,
      "inputs": [
        {
          "indexed": true,
          "internalType": "address",
          "name": "module",
          "type": "address"
        }
      ],
      "name": "ExecutionFromModuleFailure",
      "type": "event"
    },
    {
      "anonymous": false,
      "inputs": [
        {
          "indexed": true,
          "internalType": "address",
          "name": "module",
          "type": "address"
        }
      ],
      "name": "ExecutionFromModuleSuccess",
      "type": "event"
    },
    {
      "inputs": [
        {
          "internalType": "address",
          "name": "prevModule",
          "type": "address"
        },
        {
          "internalType": "address",
          "name": "module",
          "type": "address"
        }
      ],
      "name": "disableModule",
      "outputs": [],
      "stateMutability": "nonpayable",
      "type": "function"
    },
    {
      "inputs": [
        {
          "internalType": "address",
          "name": "module",
          "type": "address"
        }
      ],
      "name": "enableModule",
      "outputs": [],
      "stateMutability": "nonpayable",
      "type": "function"
    },
    {
      "inputs": [
        {
          "internalType": "address",
          "name": "to",
          "type": "address"
        },
        {
          "internalType": "uint256",
          "name": "value",
          "type": "uint256"
        },
        {
          "internalType": "bytes",
          "name": "data",
          "type": "bytes"
        },
        {
          "internalType": "enum Enum.Operation",
          "name": "operation",
          "type": "uint8"
        }
      ],
      "name": "execTransactionFromModule",
      "outputs": [
        {
          "internalType": "bool",
          "name": "success",
          "type": "bool"
        }
      ],
      "stateMutability": "nonpayable",
      "type": "function"
    },
    {
      "inputs": [
        {
          "internalType": "address",
          "name": "to",
          "type": "address"
        },
        {
          "internalType": "uint256",
          "name": "value",
          "type": "uint256"
        },
        {
          "internalType": "bytes",
          "name": "data",
          "type": "bytes"
        },
        {
          "internalType": "enum Enum.Operation",
          "name": "operation",
          "type": "uint8"
        }
      ],
      "name": "execTransactionFromModuleReturnData",
      "outputs": [
        {
          "internalType": "bool",
          "name": "success",
          "type": "bool"
        },
        {
          "internalType": "bytes",
          "name": "returnData",
          "type": "bytes"
        }
      ],
      "stateMutability": "nonpayable",
      "type": "function"
    },
    {
      "inputs": [
        {
          "internalType": "address",
          "name": "start",
          "type": "address"
        },
        {
          "internalType": "uint256",
          "name": "pageSize",
          "type": "uint256"
        }
      ],
      "name": "getModulesPaginated",
      "outputs": [
        {
          "internalType": "address[]",
          "name": "array",
          "type": "address[]"
        },
        {
          "internalType": "address",
          "name": "next",
          "type": "address"
        }
      ],
      "stateMutability": "view",
      "type": "function"
    },
    {
      "inputs": [
        {
          "internalType": "address",
          "name": "module",
          "type": "address"
        }
      ],
      "name": "isModuleEnabled",
      "outputs": [
        {
          "internalType": "bool",
          "name": "",
          "type": "bool"
        }
      ],
      "stateMutability": "view",
      "type": "function"
    }
  ],
  "bytecode": "0x608060405234801561001057600080fd5b50611592806100206000396000f3fe608060405234801561001057600080fd5b50600436106100625760003560e01c80632d9ad53d14610067578063468721a7146100975780635229073f146100c7578063610b5925146100f8578063cc2f845214610114578063e009cfde14610145575b600080fd5b610081600480360381019061007c9190610e45565b610161565b60405161008e9190611137565b60405180910390f35b6100b160048036038101906100ac9190610ee6565b610232565b6040516100be9190611137565b60405180910390f35b6100e160048036038101906100dc9190610ee6565b6103e4565b6040516100ef929190611152565b60405180910390f35b610112600480360381019061010d9190610e45565b61041a565b005b61012e60048036038101906101299190610eaa565b61072c565b60405161013c929190611107565b60405180910390f35b61015f600480360381019061015a9190610e6e565b610977565b005b60008173ffffffffffffffffffffffffffffffffffffffff16600173ffffffffffffffffffffffffffffffffffffffff161415801561022b5750600073ffffffffffffffffffffffffffffffffffffffff166000808473ffffffffffffffffffffffffffffffffffffffff1673ffffffffffffffffffffffffffffffffffffffff16815260200190815260200160002060009054906101000a900473ffffffffffffffffffffffffffffffffffffffff1673ffffffffffffffffffffffffffffffffffffffff1614155b9050919050565b6000600173ffffffffffffffffffffffffffffffffffffffff163373ffffffffffffffffffffffffffffffffffffffff16141580156102fc5750600073ffffffffffffffffffffffffffffffffffffffff166000803373ffffffffffffffffffffffffffffffffffffffff1673ffffffffffffffffffffffffffffffffffffffff16815260200190815260200160002060009054906101000a900473ffffffffffffffffffffffffffffffffffffffff1673ffffffffffffffffffffffffffffffffffffffff1614155b61033b576040517f08c379a0000000000000000000000000000000000000000000000000000000008152600401610332906111a2565b60405180910390fd5b610348858585855a610c88565b90508015610398573373ffffffffffffffffffffffffffffffffffffffff167f6895c13664aa4f67288b25d7a21d7aaa34916e355fb9b6fae0a139a9085becb860405160405180910390a26103dc565b3373ffffffffffffffffffffffffffffffffffffffff167facd2c8702804128fdb0db2bb49f6d127dd0181c13fd45dbfe16de0930e2bd37560405160405180910390a25b949350505050565b600060606103f486868686610232565b915060405160203d0181016040523d81523d6000602083013e8091505094509492505050565b610422610d2e565b600073ffffffffffffffffffffffffffffffffffffffff168173ffffffffffffffffffffffffffffffffffffffff161415801561048c5750600173ffffffffffffffffffffffffffffffffffffffff168173ffffffffffffffffffffffffffffffffffffffff1614155b6104cb576040517f08c379a00000000000000000000000000000000000000000000000000000000081526004016104c290611202565b60405180910390fd5b600073ffffffffffffffffffffffffffffffffffffffff166000808373ffffffffffffffffffffffffffffffffffffffff1673ffffffffffffffffffffffffffffffffffffffff16815260200190815260200160002060009054906101000a900473ffffffffffffffffffffffffffffffffffffffff1673ffffffffffffffffffffffffffffffffffffffff1614610598576040517f08c379a000000000000000000000000000000000000000000000000000000000815260040161058f906111e2565b60405180910390fd5b600080600173ffffffffffffffffffffffffffffffffffffffff1673ffffffffffffffffffffffffffffffffffffffff16815260200190815260200160002060009054906101000a900473ffffffffffffffffffffffffffffffffffffffff166000808373ffffffffffffffffffffffffffffffffffffffff1673ffffffffffffffffffffffffffffffffffffffff16815260200190815260200160002060006101000a81548173ffffffffffffffffffffffffffffffffffffffff021916908373ffffffffffffffffffffffffffffffffffffffff16021790555080600080600173ffffffffffffffffffffffffffffffffffffffff1673ffffffffffffffffffffffffffffffffffffffff16815260200190815260200160002060006101000a81548173ffffffffffffffffffffffffffffffffffffffff021916908373ffffffffffffffffffffffffffffffffffffffff1602179055507fecdf3a3effea5783a3c4c2140e677577666428d44ed9d474a0b3a4c9943f84408160405161072191906110ec565b60405180910390a150565b606060008267ffffffffffffffff811115610770577f4e487b7100000000000000000000000000000000000000000000000000000000600052604160045260246000fd5b60405190808252806020026020018201604052801561079e5781602001602082028036833780820191505090505b5091506000808060008773ffffffffffffffffffffffffffffffffffffffff1673ffffffffffffffffffffffffffffffffffffffff16815260200190815260200160002060009054906101000a900473ffffffffffffffffffffffffffffffffffffffff1690505b600073ffffffffffffffffffffffffffffffffffffffff168173ffffffffffffffffffffffffffffffffffffffff16141580156108705750600173ffffffffffffffffffffffffffffffffffffffff168173ffffffffffffffffffffffffffffffffffffffff1614155b801561087b57508482105b1561096857808483815181106108ba577f4e487b7100000000000000000000000000000000000000000000000000000000600052603260045260246000fd5b602002602001019073ffffffffffffffffffffffffffffffffffffffff16908173ffffffffffffffffffffffffffffffffffffffff16815250506000808273ffffffffffffffffffffffffffffffffffffffff1673ffffffffffffffffffffffffffffffffffffffff16815260200190815260200160002060009054906101000a900473ffffffffffffffffffffffffffffffffffffffff169050818061096090611399565b925050610806565b80925081845250509250929050565b61097f610d2e565b600073ffffffffffffffffffffffffffffffffffffffff168173ffffffffffffffffffffffffffffffffffffffff16141580156109e95750600173ffffffffffffffffffffffffffffffffffffffff168173ffffffffffffffffffffffffffffffffffffffff1614155b610a28576040517f08c379a0000000000000000000000000000000000000000000000000000000008152600401610a1f90611202565b60405180910390fd5b8073ffffffffffffffffffffffffffffffffffffffff166000808473ffffffffffffffffffffffffffffffffffffffff1673ffffffffffffffffffffffffffffffffffffffff16815260200190815260200160002060009054906101000a900473ffffffffffffffffffffffffffffffffffffffff1673ffffffffffffffffffffffffffffffffffffffff1614610af4576040517f08c379a0000000000000000000000000000000000000000000000000000000008152600401610aeb90611182565b60405180910390fd5b6000808273ffffffffffffffffffffffffffffffffffffffff1673ffffffffffffffffffffffffffffffffffffffff16815260200190815260200160002060009054906101000a900473ffffffffffffffffffffffffffffffffffffffff166000808473ffffffffffffffffffffffffffffffffffffffff1673ffffffffffffffffffffffffffffffffffffffff16815260200190815260200160002060006101000a81548173ffffffffffffffffffffffffffffffffffffffff021916908373ffffffffffffffffffffffffffffffffffffffff16021790555060008060008373ffffffffffffffffffffffffffffffffffffffff1673ffffffffffffffffffffffffffffffffffffffff16815260200190815260200160002060006101000a81548173ffffffffffffffffffffffffffffffffffffffff021916908373ffffffffffffffffffffffffffffffffffffffff1602179055507faab4fa2b463f581b2b32cb3b7e3b704b9ce37cc209b5fb4d77e593ace405427681604051610c7c91906110ec565b60405180910390a15050565b6000600180811115610cc3577f4e487b7100000000000000000000000000000000000000000000000000000000600052602160045260246000fd5b836001811115610cfc577f4e487b7100000000000000000000000000000000000000000000000000000000600052602160045260246000fd5b1415610d15576000808551602087018986f49050610d25565b600080855160208701888a87f190505b95945050505050565b3073ffffffffffffffffffffffffffffffffffffffff163373ffffffffffffffffffffffffffffffffffffffff1614610d9c576040517f08c379a0000000000000000000000000000000000000000000000000000000008152600401610d93906111c2565b60405180910390fd5b565b6000610db1610dac84611247565b611222565b905082815260208101848484011115610dc957600080fd5b610dd4848285611326565b509392505050565b600081359050610deb8161151e565b92915050565b600082601f830112610e0257600080fd5b8135610e12848260208601610d9e565b91505092915050565b600081359050610e2a81611535565b92915050565b600081359050610e3f81611545565b92915050565b600060208284031215610e5757600080fd5b6000610e6584828501610ddc565b91505092915050565b60008060408385031215610e8157600080fd5b6000610e8f85828601610ddc565b9250506020610ea085828601610ddc565b9150509250929050565b60008060408385031215610ebd57600080fd5b6000610ecb85828601610ddc565b9250506020610edc85828601610e30565b9150509250929050565b60008060008060808587031215610efc57600080fd5b6000610f0a87828801610ddc565b9450506020610f1b87828801610e30565b935050604085013567ffffffffffffffff811115610f3857600080fd5b610f4487828801610df1565b9250506060610f5587828801610e1b565b91505092959194509250565b6000610f6d8383610f79565b60208301905092915050565b610f82816112de565b82525050565b610f91816112de565b82525050565b6000610fa282611288565b610fac81856112ab565b9350610fb783611278565b8060005b83811015610fe8578151610fcf8882610f61565b9750610fda8361129e565b925050600181019050610fbb565b5085935050505092915050565b610ffe816112f0565b82525050565b600061100f82611293565b61101981856112bc565b9350611029818560208601611335565b61103281611440565b840191505092915050565b600061104a6005836112cd565b915061105582611451565b602082019050919050565b600061106d6005836112cd565b91506110788261147a565b602082019050919050565b60006110906005836112cd565b915061109b826114a3565b602082019050919050565b60006110b36005836112cd565b91506110be826114cc565b602082019050919050565b60006110d66005836112cd565b91506110e1826114f5565b602082019050919050565b60006020820190506111016000830184610f88565b92915050565b600060408201905081810360008301526111218185610f97565b90506111306020830184610f88565b9392505050565b600060208201905061114c6000830184610ff5565b92915050565b60006040820190506111676000830185610ff5565b81810360208301526111798184611004565b90509392505050565b6000602082019050818103600083015261119b8161103d565b9050919050565b600060208201905081810360008301526111bb81611060565b9050919050565b600060208201905081810360008301526111db81611083565b9050919050565b600060208201905081810360008301526111fb816110a6565b9050919050565b6000602082019050818103600083015261121b816110c9565b9050919050565b600061122c61123d565b90506112388282611368565b919050565b6000604051905090565b600067ffffffffffffffff82111561126257611261611411565b5b61126b82611440565b9050602081019050919050565b6000819050602082019050919050565b600081519050919050565b600081519050919050565b6000602082019050919050565b600082825260208201905092915050565b600082825260208201905092915050565b600082825260208201905092915050565b60006112e9826112fc565b9050919050565b60008115159050919050565b600073ffffffffffffffffffffffffffffffffffffffff82169050919050565b6000819050919050565b82818337600083830152505050565b60005b83811015611353578082015181840152602081019050611338565b83811115611362576000848401525b50505050565b61137182611440565b810181811067ffffffffffffffff821117156113905761138f611411565b5b80604052505050565b60006113a48261131c565b91507fffffffffffffffffffffffffffffffffffffffffffffffffffffffffffffffff8214156113d7576113d66113e2565b5b600182019050919050565b7f4e487b7100000000000000000000000000000000000000000000000000000000600052601160045260246000fd5b7f4e487b7100000000000000000000000000000000000000000000000000000000600052604160045260246000fd5b6000601f19601f8301169050919050565b7f4753313033000000000000000000000000000000000000000000000000000000600082015250565b7f4753313034000000000000000000000000000000000000000000000000000000600082015250565b7f4753303331000000000000000000000000000000000000000000000000000000600082015250565b7f4753313032000000000000000000000000000000000000000000000000000000600082015250565b7f4753313031000000000000000000000000000000000000000000000000000000600082015250565b611527816112de565b811461153257600080fd5b50565b6002811061154257600080fd5b50565b61154e8161131c565b811461155957600080fd5b5056fea2646970667358221220b1397803674a3ecce970bfdf577bcea5b4d2caaaf504d26397368804f709037764736f6c63430008040033",
  "linkReferences": {},
  "deployedLinkReferences": {}
}