{
  "address": "0x8770c26ea1614D541985cE8CEA7d792BfEe7c249",
  "abi": [
    {
      "inputs": [
        {
          "internalType": "string",
          "name": "_newBaseUri",
          "type": "string"
        }
      ],
      "stateMutability": "nonpayable",
      "type": "constructor"
    },
    {
      "anonymous": false,
      "inputs": [
        {
          "indexed": true,
          "internalType": "address",
          "name": "account",
          "type": "address"
        },
        {
          "indexed": true,
          "internalType": "address",
          "name": "operator",
          "type": "address"
        },
        {
          "indexed": false,
          "internalType": "bool",
          "name": "approved",
          "type": "bool"
        }
      ],
      "name": "ApprovalForAll",
      "type": "event"
    },
    {
      "anonymous": false,
      "inputs": [
        {
          "indexed": true,
          "internalType": "address",
          "name": "previousOwner",
          "type": "address"
        },
        {
          "indexed": true,
          "internalType": "address",
          "name": "newOwner",
          "type": "address"
        }
      ],
      "name": "OwnershipTransferred",
      "type": "event"
    },
    {
      "anonymous": false,
      "inputs": [
        {
          "indexed": true,
          "internalType": "uint256",
          "name": "tokenId",
          "type": "uint256"
        },
        {
          "indexed": false,
          "internalType": "string",
          "name": "uriId",
          "type": "string"
        },
        {
          "indexed": false,
          "internalType": "bool",
          "name": "transferable",
          "type": "bool"
        }
      ],
      "name": "TierChange",
      "type": "event"
    },
    {
      "anonymous": false,
      "inputs": [
        {
          "indexed": true,
          "internalType": "address",
          "name": "operator",
          "type": "address"
        },
        {
          "indexed": true,
          "internalType": "address",
          "name": "from",
          "type": "address"
        },
        {
          "indexed": true,
          "internalType": "address",
          "name": "to",
          "type": "address"
        },
        {
          "indexed": false,
          "internalType": "uint256[]",
          "name": "ids",
          "type": "uint256[]"
        },
        {
          "indexed": false,
          "internalType": "uint256[]",
          "name": "values",
          "type": "uint256[]"
        }
      ],
      "name": "TransferBatch",
      "type": "event"
    },
    {
      "anonymous": false,
      "inputs": [
        {
          "indexed": true,
          "internalType": "address",
          "name": "operator",
          "type": "address"
        },
        {
          "indexed": true,
          "internalType": "address",
          "name": "from",
          "type": "address"
        },
        {
          "indexed": true,
          "internalType": "address",
          "name": "to",
          "type": "address"
        },
        {
          "indexed": false,
          "internalType": "uint256",
          "name": "id",
          "type": "uint256"
        },
        {
          "indexed": false,
          "internalType": "uint256",
          "name": "value",
          "type": "uint256"
        }
      ],
      "name": "TransferSingle",
      "type": "event"
    },
    {
      "anonymous": false,
      "inputs": [
        {
          "indexed": false,
          "internalType": "string",
          "name": "value",
          "type": "string"
        },
        {
          "indexed": true,
          "internalType": "uint256",
          "name": "id",
          "type": "uint256"
        }
      ],
      "name": "URI",
      "type": "event"
    },
    {
      "inputs": [
        {
          "internalType": "address",
          "name": "account",
          "type": "address"
        },
        {
          "internalType": "uint256",
          "name": "id",
          "type": "uint256"
        }
      ],
      "name": "balanceOf",
      "outputs": [
        {
          "internalType": "uint256",
          "name": "",
          "type": "uint256"
        }
      ],
      "stateMutability": "view",
      "type": "function"
    },
    {
      "inputs": [
        {
          "internalType": "address[]",
          "name": "accounts",
          "type": "address[]"
        },
        {
          "internalType": "uint256[]",
          "name": "ids",
          "type": "uint256[]"
        }
      ],
      "name": "balanceOfBatch",
      "outputs": [
        {
          "internalType": "uint256[]",
          "name": "",
          "type": "uint256[]"
        }
      ],
      "stateMutability": "view",
      "type": "function"
    },
    {
      "inputs": [
        {
          "internalType": "address",
          "name": "account",
          "type": "address"
        },
        {
          "internalType": "uint256",
          "name": "id",
          "type": "uint256"
        },
        {
          "internalType": "uint256",
          "name": "amount",
          "type": "uint256"
        }
      ],
      "name": "burn",
      "outputs": [],
      "stateMutability": "nonpayable",
      "type": "function"
    },
    {
      "inputs": [
        {
          "internalType": "address[]",
          "name": "accounts",
          "type": "address[]"
        },
        {
          "internalType": "uint256[]",
          "name": "tokenIds",
          "type": "uint256[]"
        },
        {
          "internalType": "uint256[]",
          "name": "amounts",
          "type": "uint256[]"
        }
      ],
      "name": "burnFromMultiple",
      "outputs": [],
      "stateMutability": "nonpayable",
      "type": "function"
    },
    {
      "inputs": [
        {
          "internalType": "string",
          "name": "_newBaseUri",
          "type": "string"
        }
      ],
      "name": "changeBaseUri",
      "outputs": [],
      "stateMutability": "nonpayable",
      "type": "function"
    },
    {
      "inputs": [
        {
          "internalType": "uint256",
          "name": "tokenId",
          "type": "uint256"
        },
        {
          "internalType": "string",
          "name": "uriId",
          "type": "string"
        },
        {
          "internalType": "bool",
          "name": "transferable",
          "type": "bool"
        }
      ],
      "name": "createTokenTier",
      "outputs": [],
      "stateMutability": "nonpayable",
      "type": "function"
    },
    {
      "inputs": [
        {
          "internalType": "address",
          "name": "account",
          "type": "address"
        },
        {
          "internalType": "address",
          "name": "operator",
          "type": "address"
        }
      ],
      "name": "isApprovedForAll",
      "outputs": [
        {
          "internalType": "bool",
          "name": "",
          "type": "bool"
        }
      ],
      "stateMutability": "view",
      "type": "function"
    },
    {
      "inputs": [
        {
          "internalType": "address",
          "name": "account",
          "type": "address"
        },
        {
          "internalType": "uint256",
          "name": "id",
          "type": "uint256"
        },
        {
          "internalType": "uint256",
          "name": "amount",
          "type": "uint256"
        }
      ],
      "name": "mint",
      "outputs": [],
      "stateMutability": "nonpayable",
      "type": "function"
    },
    {
      "inputs": [
        {
          "internalType": "address[]",
          "name": "accounts",
          "type": "address[]"
        },
        {
          "internalType": "uint256[]",
          "name": "tokenIds",
          "type": "uint256[]"
        },
        {
          "internalType": "uint256[]",
          "name": "amounts",
          "type": "uint256[]"
        }
      ],
      "name": "mintToMultiple",
      "outputs": [],
      "stateMutability": "nonpayable",
      "type": "function"
    },
    {
      "inputs": [],
      "name": "owner",
      "outputs": [
        {
          "internalType": "address",
          "name": "",
          "type": "address"
        }
      ],
      "stateMutability": "view",
      "type": "function"
    },
    {
      "inputs": [],
      "name": "renounceOwnership",
      "outputs": [],
      "stateMutability": "nonpayable",
      "type": "function"
    },
    {
      "inputs": [
        {
          "internalType": "address",
          "name": "from",
          "type": "address"
        },
        {
          "internalType": "address",
          "name": "to",
          "type": "address"
        },
        {
          "internalType": "uint256[]",
          "name": "ids",
          "type": "uint256[]"
        },
        {
          "internalType": "uint256[]",
          "name": "amounts",
          "type": "uint256[]"
        },
        {
          "internalType": "bytes",
          "name": "data",
          "type": "bytes"
        }
      ],
      "name": "safeBatchTransferFrom",
      "outputs": [],
      "stateMutability": "nonpayable",
      "type": "function"
    },
    {
      "inputs": [
        {
          "internalType": "address",
          "name": "from",
          "type": "address"
        },
        {
          "internalType": "address",
          "name": "to",
          "type": "address"
        },
        {
          "internalType": "uint256",
          "name": "id",
          "type": "uint256"
        },
        {
          "internalType": "uint256",
          "name": "amount",
          "type": "uint256"
        },
        {
          "internalType": "bytes",
          "name": "data",
          "type": "bytes"
        }
      ],
      "name": "safeTransferFrom",
      "outputs": [],
      "stateMutability": "nonpayable",
      "type": "function"
    },
    {
      "inputs": [
        {
          "internalType": "address",
          "name": "operator",
          "type": "address"
        },
        {
          "internalType": "bool",
          "name": "approved",
          "type": "bool"
        }
      ],
      "name": "setApprovalForAll",
      "outputs": [],
      "stateMutability": "nonpayable",
      "type": "function"
    },
    {
      "inputs": [
        {
          "internalType": "bytes4",
          "name": "interfaceId",
          "type": "bytes4"
        }
      ],
      "name": "supportsInterface",
      "outputs": [
        {
          "internalType": "bool",
          "name": "",
          "type": "bool"
        }
      ],
      "stateMutability": "view",
      "type": "function"
    },
    {
      "inputs": [
        {
          "internalType": "uint256",
          "name": "",
          "type": "uint256"
        }
      ],
      "name": "tokenTiers",
      "outputs": [
        {
          "internalType": "string",
          "name": "uriId",
          "type": "string"
        },
        {
          "internalType": "bool",
          "name": "transferable",
          "type": "bool"
        }
      ],
      "stateMutability": "view",
      "type": "function"
    },
    {
      "inputs": [
        {
          "internalType": "address",
          "name": "from",
          "type": "address"
        },
        {
          "internalType": "address",
          "name": "to",
          "type": "address"
        },
        {
          "internalType": "uint256",
          "name": "id",
          "type": "uint256"
        },
        {
          "internalType": "uint256",
          "name": "amount",
          "type": "uint256"
        }
      ],
      "name": "transferFromWithoutData",
      "outputs": [],
      "stateMutability": "nonpayable",
      "type": "function"
    },
    {
      "inputs": [
        {
          "internalType": "address",
          "name": "newOwner",
          "type": "address"
        }
      ],
      "name": "transferOwnership",
      "outputs": [],
      "stateMutability": "nonpayable",
      "type": "function"
    },
    {
      "inputs": [
        {
          "internalType": "uint256[]",
          "name": "tokenIds",
          "type": "uint256[]"
        },
        {
          "internalType": "string[]",
          "name": "uriIds",
          "type": "string[]"
        }
      ],
      "name": "updateMultipleUriIdentifiers",
      "outputs": [],
      "stateMutability": "nonpayable",
      "type": "function"
    },
    {
      "inputs": [
        {
          "internalType": "uint256",
          "name": "tokenId",
          "type": "uint256"
        },
        {
          "internalType": "bool",
          "name": "transferable",
          "type": "bool"
        }
      ],
      "name": "updateTransferableStatus",
      "outputs": [],
      "stateMutability": "nonpayable",
      "type": "function"
    },
    {
      "inputs": [
        {
          "internalType": "uint256",
          "name": "tokenId",
          "type": "uint256"
        },
        {
          "internalType": "string",
          "name": "uriId",
          "type": "string"
        }
      ],
      "name": "updateUriIdentifier",
      "outputs": [],
      "stateMutability": "nonpayable",
      "type": "function"
    },
    {
      "inputs": [
        {
          "internalType": "uint256",
          "name": "tokenId",
          "type": "uint256"
        }
      ],
      "name": "uri",
      "outputs": [
        {
          "internalType": "string",
          "name": "",
          "type": "string"
        }
      ],
      "stateMutability": "view",
      "type": "function"
    }
  ],
  "transactionHash": "0x7fa0acfb4428a0b6b5dc9bb5dca010462a7055b44ae89951ea46a5d0e863f0e3",
  "args": [
    "https://gateway.pinata.cloud/ipfs/"
  ],
  "solcInputHash": "83d3e7fd93dc28cb9d5f60ad48f0dd38",
  "bytecode": "0x60806040523480156200001157600080fd5b5060405162002e3238038062002e32833981016040819052620000349162000178565b80620000403362000053565b6200004b81620000a3565b505062000291565b600080546001600160a01b038381166001600160a01b0319831681178455604051919092169283917f8be0079c531659141344cd1fd0a4f28419497f9722a3daafe3b4186f6b6457e09190a35050565b8051620000b8906003906020840190620000bc565b5050565b828054620000ca9062000254565b90600052602060002090601f016020900481019282620000ee576000855562000139565b82601f106200010957805160ff191683800117855562000139565b8280016001018555821562000139579182015b82811115620001395782518255916020019190600101906200011c565b50620001479291506200014b565b5090565b5b808211156200014757600081556001016200014c565b634e487b7160e01b600052604160045260246000fd5b600060208083850312156200018c57600080fd5b82516001600160401b0380821115620001a457600080fd5b818501915085601f830112620001b957600080fd5b815181811115620001ce57620001ce62000162565b604051601f8201601f19908116603f01168101908382118183101715620001f957620001f962000162565b8160405282815288868487010111156200021257600080fd5b600093505b8284101562000236578484018601518185018701529285019262000217565b82841115620002485760008684830101525b98975050505050505050565b600181811c908216806200026957607f821691505b602082108114156200028b57634e487b7160e01b600052602260045260246000fd5b50919050565b612b9180620002a16000396000f3fe608060405234801561001057600080fd5b50600436106101415760003560e01c8063715018a6116100b8578063a22cb4651161007c578063a22cb465146102c0578063d2047b54146102d3578063e985e9c5146102e6578063f242432a14610322578063f2fde38b14610335578063f5298aca1461034857600080fd5b8063715018a614610256578063818f2e421461025e57806384385b6b1461027f5780638da5cb5b1461029257806397c7cc87146102ad57600080fd5b80632eb2c2d61161010a5780632eb2c2d6146101d7578063351521cd146101ea578063492d306b146101fd5780634e1273f4146102105780635969caf1146102305780636222c3891461024357600080fd5b8062fdd58e1461014657806301ffc9a71461016c578063036789d11461018f5780630e89341c146101a4578063156e29f6146101c4575b600080fd5b610159610154366004611e04565b61035b565b6040519081526020015b60405180910390f35b61017f61017a366004611e44565b6103f4565b6040519015158152602001610163565b6101a261019d366004611eac565b610446565b005b6101b76101b2366004611f17565b610501565b6040516101639190611f88565b6101a26101d2366004611f9b565b6105c2565b6101a26101e5366004612117565b610600565b6101a26101f83660046121c0565b610690565b6101a261020b36600461229a565b6107a9565b61022361021e3660046122db565b610870565b60405161016391906123e0565b6101a261023e366004612403565b610999565b6101a261025136600461242f565b610ae1565b6101a2610c9b565b61027161026c366004611f17565b610cd1565b60405161016392919061248c565b6101a261028d3660046124b0565b610d78565b6000546040516001600160a01b039091168152602001610163565b6101a26102bb3660046124f2565b610e61565b6101a26102ce36600461253d565b610e9b565b6101a26102e13660046121c0565b610f72565b61017f6102f4366004612567565b6001600160a01b03918216600090815260026020908152604080832093909416825291909152205460ff1690565b6101a2610330366004612591565b61108f565b6101a26103433660046125f5565b61116d565b6101a2610356366004611f9b565b611208565b60006001600160a01b0383166103cc5760405162461bcd60e51b815260206004820152602b60248201527f455243313135353a2062616c616e636520717565727920666f7220746865207a60448201526a65726f206164647265737360a81b60648201526084015b60405180910390fd5b5060009081526001602090815260408083206001600160a01b03949094168352929052205490565b60006001600160e01b03198216636cdb3d1360e11b148061042557506001600160e01b031982166303a24d0760e21b145b8061044057506301ffc9a760e01b6001600160e01b03198316145b92915050565b6000546001600160a01b031633146104705760405162461bcd60e51b81526004016103c390612610565b82811461048f5760405162461bcd60e51b81526004016103c390612645565b60005b60ff81168411156104fa576104e885858360ff168181106104b5576104b5612673565b9050602002013584848460ff168181106104d1576104d1612673565b90506020028101906104e39190612689565b61123d565b806104f2816126e5565b915050610492565b5050505050565b6060600061050e8361133c565b600084815260046020526040902080549192506105bb9161052e90612705565b80601f016020809104026020016040519081016040528092919081815260200182805461055a90612705565b80156105a75780601f1061057c576101008083540402835291602001916105a7565b820191906000526020600020905b81548152906001019060200180831161058a57829003601f168201915b5050505050826113d090919063ffffffff16565b9392505050565b6000546001600160a01b031633146105ec5760405162461bcd60e51b81526004016103c390612610565b60606105fa848484846113fc565b50505050565b6001600160a01b03851633148061061c575061061c85336102f4565b6106835760405162461bcd60e51b815260206004820152603260248201527f455243313135353a207472616e736665722063616c6c6572206973206e6f74206044820152711bdddb995c881b9bdc88185c1c1c9bdd995960721b60648201526084016103c3565b6104fa8585858585611444565b6000546001600160a01b031633146106ba5760405162461bcd60e51b81526004016103c390612610565b858585858585808060200260200160405190810160405280939291908181526020018383602002808284376000920191909152505050848314905080156107015750805182145b61071d5760405162461bcd60e51b81526004016103c390612645565b60005b8a81101561079b576107898c8c8381811061073d5761073d612673565b905060200201602081019061075291906125f5565b8b8b8481811061076457610764612673565b905060200201358a8a8581811061077d5761077d612673565b90506020020135611624565b8061079381612740565b915050610720565b505050505050505050505050565b6000546001600160a01b031633146107d35760405162461bcd60e51b81526004016103c390612610565b818161081482828080601f01602080910402602001604051908101604052809392919081815260200183838082843760009201919091525061166b92505050565b156108315760405162461bcd60e51b81526004016103c39061275b565b6105fa84848080601f01602080910402602001604051908101604052809392919081815260200183838082843760009201919091525061167092505050565b606081518351146108d55760405162461bcd60e51b815260206004820152602960248201527f455243313135353a206163636f756e747320616e6420696473206c656e677468604482015268040dad2e6dac2e8c6d60bb1b60648201526084016103c3565b600083516001600160401b038111156108f0576108f0611fce565b604051908082528060200260200182016040528015610919578160200160208202803683370190505b50905060005b84518110156109915761096485828151811061093d5761093d612673565b602002602001015185838151811061095757610957612673565b602002602001015161035b565b82828151811061097657610976612673565b602090810291909101015261098a81612740565b905061091f565b509392505050565b6000546001600160a01b031633146109c35760405162461bcd60e51b81526004016103c390612610565b600082815260046020526040902080548391610a65916109e290612705565b80601f0160208091040260200160405190810160405280929190818152602001828054610a0e90612705565b8015610a5b5780601f10610a3057610100808354040283529160200191610a5b565b820191906000526020600020905b815481529060010190602001808311610a3e57829003601f168201915b5050505050511590565b15610a825760405162461bcd60e51b81526004016103c39061278b565b6000838152600460205260409081902060018101805460ff1916851515179055905184917f684099fd398949dc782e92c48c5b6b47f1e1f6cadc408d22d5159752d6c4bced91610ad4919086906127b8565b60405180910390a2505050565b6000546001600160a01b03163314610b0b5760405162461bcd60e51b81526004016103c390612610565b8282610b4c82828080601f01602080910402602001604051908101604052809392919081815260200183838082843760009201919091525061166b92505050565b15610b695760405162461bcd60e51b81526004016103c39061275b565b60008681526004602052604090208054610b8791906109e290612705565b610bd35760405162461bcd60e51b815260206004820152601f60248201527f5469657220616c72656164792065786973747320666f7220746f6b656e49640060448201526064016103c3565b6040805160606020601f8801819004028201810183529181018681529091829190889088908190850183828082843760009201829052509385525050508515156020928301528881526004825260409020825180519192610c3992849290910190611cdb565b50602091909101516001909101805460ff191691151591909117905560405186907f684099fd398949dc782e92c48c5b6b47f1e1f6cadc408d22d5159752d6c4bced90610c8b90889088908890612872565b60405180910390a2505050505050565b6000546001600160a01b03163314610cc55760405162461bcd60e51b81526004016103c390612610565b610ccf6000611687565b565b600460205260009081526040902080548190610cec90612705565b80601f0160208091040260200160405190810160405280929190818152602001828054610d1890612705565b8015610d655780601f10610d3a57610100808354040283529160200191610d65565b820191906000526020600020905b815481529060010190602001808311610d4857829003601f168201915b5050506001909301549192505060ff1682565b6000828152600460205260409020600101548290859060ff16610ddd5760405162461bcd60e51b815260206004820152601f60248201527f5472616e736665722064697361626c656420666f72207468697320746965720060448201526064016103c3565b6000546001600160a01b0316331480610dfe57506001600160a01b03811633145b80610e0e5750610e0e81336102f4565b610e495760405162461bcd60e51b815260206004820152600c60248201526b155b985d5d1a1bdc9a5e995960a21b60448201526064016103c3565b6060610e5887878787856116d7565b50505050505050565b6000546001600160a01b03163314610e8b5760405162461bcd60e51b81526004016103c390612610565b610e9683838361123d565b505050565b336001600160a01b0383161415610f065760405162461bcd60e51b815260206004820152602960248201527f455243313135353a2073657474696e6720617070726f76616c20737461747573604482015268103337b91039b2b63360b91b60648201526084016103c3565b3360008181526002602090815260408083206001600160a01b03871680855290835292819020805460ff191686151590811790915590519081529192917f17307eab39ab6107e8899845ad3d59bd9653f200f220920489ca2b5937696c31910160405180910390a35050565b6000546001600160a01b03163314610f9c5760405162461bcd60e51b81526004016103c390612610565b85858585858580806020026020016040519081016040528093929190818152602001838360200280828437600092019190915250505084831490508015610fe35750805182145b610fff5760405162461bcd60e51b81526004016103c390612645565b606060005b8b8110156110805761106e8d8d8381811061102157611021612673565b905060200201602081019061103691906125f5565b8c8c8481811061104857611048612673565b905060200201358b8b8581811061106157611061612673565b90506020020135856113fc565b8061107881612740565b915050611004565b50505050505050505050505050565b6000838152600460205260409020600101548390869060ff166110f45760405162461bcd60e51b815260206004820152601f60248201527f5472616e736665722064697361626c656420666f72207468697320746965720060448201526064016103c3565b6000546001600160a01b031633148061111557506001600160a01b03811633145b80611125575061112581336102f4565b6111605760405162461bcd60e51b815260206004820152600c60248201526b155b985d5d1a1bdc9a5e995960a21b60448201526064016103c3565b610e5887878787876116d7565b6000546001600160a01b031633146111975760405162461bcd60e51b81526004016103c390612610565b6001600160a01b0381166111fc5760405162461bcd60e51b815260206004820152602660248201527f4f776e61626c653a206e6577206f776e657220697320746865207a65726f206160448201526564647265737360d01b60648201526084016103c3565b61120581611687565b50565b6000546001600160a01b031633146112325760405162461bcd60e51b81526004016103c390612610565b610e96838383611624565b60008381526004602052604090208054849161125c916109e290612705565b156112795760405162461bcd60e51b81526004016103c39061278b565b82826112ba82828080601f01602080910402602001604051908101604052809392919081815260200183838082843760009201919091525061166b92505050565b156112d75760405162461bcd60e51b81526004016103c39061275b565b60008681526004602052604090206112f0908686611d5f565b506000868152600460205260409081902060010154905187917f684099fd398949dc782e92c48c5b6b47f1e1f6cadc408d22d5159752d6c4bced91610c8b918991899160ff1690612872565b60606003805461134b90612705565b80601f016020809104026020016040519081016040528092919081815260200182805461137790612705565b80156113c45780601f10611399576101008083540402835291602001916113c4565b820191906000526020600020905b8154815290600101906020018083116113a757829003601f168201915b50505050509050919050565b606082826040516020016113e59291906128aa565b604051602081830303815290604052905092915050565b60008381526004602052604090208054849161141b916109e290612705565b156114385760405162461bcd60e51b81526004016103c39061278b565b6104fa858585856117f8565b81518351146114a65760405162461bcd60e51b815260206004820152602860248201527f455243313135353a2069647320616e6420616d6f756e7473206c656e677468206044820152670dad2e6dac2e8c6d60c31b60648201526084016103c3565b6001600160a01b0384166114cc5760405162461bcd60e51b81526004016103c3906128d9565b3360005b84518110156115b65760008582815181106114ed576114ed612673565b60200260200101519050600085838151811061150b5761150b612673565b60209081029190910181015160008481526001835260408082206001600160a01b038e16835290935291909120549091508181101561155c5760405162461bcd60e51b81526004016103c39061291e565b60008381526001602090815260408083206001600160a01b038e8116855292528083208585039055908b1682528120805484929061159b908490612968565b92505081905550505050806115af90612740565b90506114d0565b50846001600160a01b0316866001600160a01b0316826001600160a01b03167f4a39dc06d4c0dbc64b70af90fd698a233a518aa5d07e595d983b8c0526c8f7fb8787604051611606929190612980565b60405180910390a461161c8187878787876118fb565b505050505050565b600082815260046020526040902080548391611643916109e290612705565b156116605760405162461bcd60e51b81526004016103c39061278b565b6105fa848484611a57565b511590565b8051611683906003906020840190611cdb565b5050565b600080546001600160a01b038381166001600160a01b0319831681178455604051919092169283917f8be0079c531659141344cd1fd0a4f28419497f9722a3daafe3b4186f6b6457e09190a35050565b6001600160a01b0384166116fd5760405162461bcd60e51b81526004016103c3906128d9565b3361171681878761170d88611bd5565b6104fa88611bd5565b60008481526001602090815260408083206001600160a01b038a168452909152902054838110156117595760405162461bcd60e51b81526004016103c39061291e565b60008581526001602090815260408083206001600160a01b038b8116855292528083208785039055908816825281208054869290611798908490612968565b909155505060408051868152602081018690526001600160a01b03808916928a821692918616917fc3d58168c5ae7397731d063d5bbf3d657854427343f4c083240f7aacaa2d0f62910160405180910390a4610e58828888888888611c20565b6001600160a01b0384166118585760405162461bcd60e51b815260206004820152602160248201527f455243313135353a206d696e7420746f20746865207a65726f206164647265736044820152607360f81b60648201526084016103c3565b336118698160008761170d88611bd5565b60008481526001602090815260408083206001600160a01b03891684529091528120805485929061189b908490612968565b909155505060408051858152602081018590526001600160a01b0380881692600092918516917fc3d58168c5ae7397731d063d5bbf3d657854427343f4c083240f7aacaa2d0f62910160405180910390a46104fa81600087878787611c20565b6001600160a01b0384163b1561161c5760405163bc197c8160e01b81526001600160a01b0385169063bc197c819061193f90899089908890889088906004016129ae565b6020604051808303816000875af192505050801561197a575060408051601f3d908101601f1916820190925261197791810190612a0c565b60015b611a2757611986612a29565b806308c379a014156119c0575061199b612a45565b806119a657506119c2565b8060405162461bcd60e51b81526004016103c39190611f88565b505b60405162461bcd60e51b815260206004820152603460248201527f455243313135353a207472616e7366657220746f206e6f6e20455243313135356044820152732932b1b2b4bb32b91034b6b83632b6b2b73a32b960611b60648201526084016103c3565b6001600160e01b0319811663bc197c8160e01b14610e585760405162461bcd60e51b81526004016103c390612ace565b6001600160a01b038316611ab95760405162461bcd60e51b815260206004820152602360248201527f455243313135353a206275726e2066726f6d20746865207a65726f206164647260448201526265737360e81b60648201526084016103c3565b33611ae981856000611aca87611bd5565b611ad387611bd5565b5050604080516020810190915260009052505050565b60008381526001602090815260408083206001600160a01b038816845290915290205482811015611b685760405162461bcd60e51b8152602060048201526024808201527f455243313135353a206275726e20616d6f756e7420657863656564732062616c604482015263616e636560e01b60648201526084016103c3565b60008481526001602090815260408083206001600160a01b03898116808652918452828520888703905582518981529384018890529092908616917fc3d58168c5ae7397731d063d5bbf3d657854427343f4c083240f7aacaa2d0f62910160405180910390a45050505050565b60408051600180825281830190925260609160009190602080830190803683370190505090508281600081518110611c0f57611c0f612673565b602090810291909101015292915050565b6001600160a01b0384163b1561161c5760405163f23a6e6160e01b81526001600160a01b0385169063f23a6e6190611c649089908990889088908890600401612b16565b6020604051808303816000875af1925050508015611c9f575060408051601f3d908101601f19168201909252611c9c91810190612a0c565b60015b611cab57611986612a29565b6001600160e01b0319811663f23a6e6160e01b14610e585760405162461bcd60e51b81526004016103c390612ace565b828054611ce790612705565b90600052602060002090601f016020900481019282611d095760008555611d4f565b82601f10611d2257805160ff1916838001178555611d4f565b82800160010185558215611d4f579182015b82811115611d4f578251825591602001919060010190611d34565b50611d5b929150611dd3565b5090565b828054611d6b90612705565b90600052602060002090601f016020900481019282611d8d5760008555611d4f565b82601f10611da65782800160ff19823516178555611d4f565b82800160010185558215611d4f579182015b82811115611d4f578235825591602001919060010190611db8565b5b80821115611d5b5760008155600101611dd4565b80356001600160a01b0381168114611dff57600080fd5b919050565b60008060408385031215611e1757600080fd5b611e2083611de8565b946020939093013593505050565b6001600160e01b03198116811461120557600080fd5b600060208284031215611e5657600080fd5b81356105bb81611e2e565b60008083601f840112611e7357600080fd5b5081356001600160401b03811115611e8a57600080fd5b6020830191508360208260051b8501011115611ea557600080fd5b9250929050565b60008060008060408587031215611ec257600080fd5b84356001600160401b0380821115611ed957600080fd5b611ee588838901611e61565b90965094506020870135915080821115611efe57600080fd5b50611f0b87828801611e61565b95989497509550505050565b600060208284031215611f2957600080fd5b5035919050565b60005b83811015611f4b578181015183820152602001611f33565b838111156105fa5750506000910152565b60008151808452611f74816020860160208601611f30565b601f01601f19169290920160200192915050565b6020815260006105bb6020830184611f5c565b600080600060608486031215611fb057600080fd5b611fb984611de8565b95602085013595506040909401359392505050565b634e487b7160e01b600052604160045260246000fd5b601f8201601f191681016001600160401b038111828210171561200957612009611fce565b6040525050565b60006001600160401b0382111561202957612029611fce565b5060051b60200190565b600082601f83011261204457600080fd5b8135602061205182612010565b60405161205e8282611fe4565b83815260059390931b850182019282810191508684111561207e57600080fd5b8286015b848110156120995780358352918301918301612082565b509695505050505050565b600082601f8301126120b557600080fd5b81356001600160401b038111156120ce576120ce611fce565b6040516120e5601f8301601f191660200182611fe4565b8181528460208386010111156120fa57600080fd5b816020850160208301376000918101602001919091529392505050565b600080600080600060a0868803121561212f57600080fd5b61213886611de8565b945061214660208701611de8565b935060408601356001600160401b038082111561216257600080fd5b61216e89838a01612033565b9450606088013591508082111561218457600080fd5b61219089838a01612033565b935060808801359150808211156121a657600080fd5b506121b3888289016120a4565b9150509295509295909350565b600080600080600080606087890312156121d957600080fd5b86356001600160401b03808211156121f057600080fd5b6121fc8a838b01611e61565b9098509650602089013591508082111561221557600080fd5b6122218a838b01611e61565b9096509450604089013591508082111561223a57600080fd5b5061224789828a01611e61565b979a9699509497509295939492505050565b60008083601f84011261226b57600080fd5b5081356001600160401b0381111561228257600080fd5b602083019150836020828501011115611ea557600080fd5b600080602083850312156122ad57600080fd5b82356001600160401b038111156122c357600080fd5b6122cf85828601612259565b90969095509350505050565b600080604083850312156122ee57600080fd5b82356001600160401b038082111561230557600080fd5b818501915085601f83011261231957600080fd5b8135602061232682612010565b6040516123338282611fe4565b83815260059390931b850182019282810191508984111561235357600080fd5b948201945b838610156123785761236986611de8565b82529482019490820190612358565b9650508601359250508082111561238e57600080fd5b5061239b85828601612033565b9150509250929050565b600081518084526020808501945080840160005b838110156123d5578151875295820195908201906001016123b9565b509495945050505050565b6020815260006105bb60208301846123a5565b80358015158114611dff57600080fd5b6000806040838503121561241657600080fd5b82359150612426602084016123f3565b90509250929050565b6000806000806060858703121561244557600080fd5b8435935060208501356001600160401b0381111561246257600080fd5b61246e87828801612259565b90945092506124819050604086016123f3565b905092959194509250565b60408152600061249f6040830185611f5c565b905082151560208301529392505050565b600080600080608085870312156124c657600080fd5b6124cf85611de8565b93506124dd60208601611de8565b93969395505050506040820135916060013590565b60008060006040848603121561250757600080fd5b8335925060208401356001600160401b0381111561252457600080fd5b61253086828701612259565b9497909650939450505050565b6000806040838503121561255057600080fd5b61255983611de8565b9150612426602084016123f3565b6000806040838503121561257a57600080fd5b61258383611de8565b915061242660208401611de8565b600080600080600060a086880312156125a957600080fd5b6125b286611de8565b94506125c060208701611de8565b9350604086013592506060860135915060808601356001600160401b038111156125e957600080fd5b6121b3888289016120a4565b60006020828403121561260757600080fd5b6105bb82611de8565b6020808252818101527f4f776e61626c653a2063616c6c6572206973206e6f7420746865206f776e6572604082015260600190565b602080825260149082015273092dce0eae840c2e4e4c2f240dad2e6dac2e8c6d60631b604082015260600190565b634e487b7160e01b600052603260045260246000fd5b6000808335601e198436030181126126a057600080fd5b8301803591506001600160401b038211156126ba57600080fd5b602001915036819003821315611ea557600080fd5b634e487b7160e01b600052601160045260246000fd5b600060ff821660ff8114156126fc576126fc6126cf565b60010192915050565b600181811c9082168061271957607f821691505b6020821081141561273a57634e487b7160e01b600052602260045260246000fd5b50919050565b6000600019821415612754576127546126cf565b5060010190565b602080825260169082015275537472696e672063616e6e6f7420626520656d70747960501b604082015260600190565b602080825260139082015272151a595c88191bd95cc81b9bdd08195e1a5cdd606a1b604082015260600190565b60408152600080845481600182811c9150808316806127d857607f831692505b60208084108214156127f857634e487b7160e01b86526022600452602486fd5b6040880184905260608801828015612817576001811461282857612853565b60ff19871682528282019750612853565b60008c81526020902060005b8781101561284d57815484820152908601908401612834565b83019850505b50508596506128658189018a15159052565b5050505050509392505050565b6040815282604082015282846060830137600060608483018101919091529115156020820152601f909201601f191690910101919050565b600083516128bc818460208801611f30565b8351908301906128d0818360208801611f30565b01949350505050565b60208082526025908201527f455243313135353a207472616e7366657220746f20746865207a65726f206164604082015264647265737360d81b606082015260800190565b6020808252602a908201527f455243313135353a20696e73756666696369656e742062616c616e636520666f60408201526939103a3930b739b332b960b11b606082015260800190565b6000821982111561297b5761297b6126cf565b500190565b60408152600061299360408301856123a5565b82810360208401526129a581856123a5565b95945050505050565b6001600160a01b0386811682528516602082015260a0604082018190526000906129da908301866123a5565b82810360608401526129ec81866123a5565b90508281036080840152612a008185611f5c565b98975050505050505050565b600060208284031215612a1e57600080fd5b81516105bb81611e2e565b600060033d1115612a425760046000803e5060005160e01c5b90565b600060443d1015612a535790565b6040516003193d81016004833e81513d6001600160401b038160248401118184111715612a8257505050505090565b8285019150815181811115612a9a5750505050505090565b843d8701016020828501011115612ab45750505050505090565b612ac360208286010187611fe4565b509095945050505050565b60208082526028908201527f455243313135353a204552433131353552656365697665722072656a656374656040820152676420746f6b656e7360c01b606082015260800190565b6001600160a01b03868116825285166020820152604081018490526060810183905260a060808201819052600090612b5090830184611f5c565b97965050505050505056fea2646970667358221220bac06ed6285dbb1e7653a55e9d931e03bca1872607d4f9d91720ab47a8d27f0464736f6c634300080a0033",
  "devdoc": {
    "kind": "dev",
    "methods": {
      "balanceOf(address,uint256)": {
        "details": "See {IERC1155-balanceOf}. Requirements: - `account` cannot be the zero address."
      },
      "balanceOfBatch(address[],uint256[])": {
        "details": "See {IERC1155-balanceOfBatch}. Requirements: - `accounts` and `ids` must have the same length."
      },
      "burn(address,uint256,uint256)": {
        "details": "burns specified amount token(s) of specific id from specified account",
        "params": {
          "account": "address of token holder",
          "amount": "units of token to be burnt from beneficiary",
          "id": "id of token, aka. tier"
        }
      },
      "burnFromMultiple(address[],uint256[],uint256[])": {
        "details": "burns from multiple addresses arbitrary units of tokens of ONE token id per address                      example: burn 3 units of tokenId 1 from alice and 4 units of tokenId 2 froms bob",
        "params": {
          "accounts": "list of token holder addresses",
          "amounts": "list of burn amounts",
          "tokenIds": "list of token ids (aka tiers)"
        }
      },
      "changeBaseUri(string)": {
        "details": "sets a base uri, that is the first part of the url where the metadata for a tokenId is stored",
        "params": {
          "_newBaseUri": "baseUrl (e.g. www.filestoring.com/)"
        }
      },
      "createTokenTier(uint256,string,bool)": {
        "details": "creates a new token tier",
        "params": {
          "tokenId": "identifier for the new token tier",
          "transferable": "determines if tokens from specific tier should be transferable or not",
          "uriId": "identifier that is appended to the baseUri together forming the uri where the metadata lives"
        }
      },
      "isApprovedForAll(address,address)": {
        "details": "See {IERC1155-isApprovedForAll}."
      },
      "mint(address,uint256,uint256)": {
        "details": "mints specified amount token(s) of specific id to specified account",
        "params": {
          "account": "beneficiary address",
          "amount": "units of token to be minted to beneficiary",
          "id": "id of token, aka. tier"
        }
      },
      "mintToMultiple(address[],uint256[],uint256[])": {
        "details": "mints to multiple addresses arbitrary units of tokens of ONE token id per address",
        "params": {
          "accounts": "list of beneficiary addresses",
          "amounts": "list of mint amounts",
          "tokenIds": "list of token ids (aka tiers)"
        }
      },
      "owner()": {
        "details": "Returns the address of the current owner."
      },
      "renounceOwnership()": {
        "details": "Leaves the contract without owner. It will not be possible to call `onlyOwner` functions anymore. Can only be called by the current owner. NOTE: Renouncing ownership will leave the contract without an owner, thereby removing any functionality that is only available to the owner."
      },
      "safeBatchTransferFrom(address,address,uint256[],uint256[],bytes)": {
        "details": "See {IERC1155-safeBatchTransferFrom}."
      },
      "safeTransferFrom(address,address,uint256,uint256,bytes)": {
        "details": "transfers tokens from one address to another allowing custom data parameter",
        "params": {
          "amount": "amount of token to be transferred",
          "from": "address from which token will be transferred",
          "id": "id of token to be transferred",
          "to": "recipient of address"
        }
      },
      "setApprovalForAll(address,bool)": {
        "details": "See {IERC1155-setApprovalForAll}."
      },
      "supportsInterface(bytes4)": {
        "details": "See {IERC165-supportsInterface}."
      },
      "transferFromWithoutData(address,address,uint256,uint256)": {
        "details": "transfers tokens from one address to another and uses 0x0 as default data parameter",
        "params": {
          "amount": "amount of token to be transferred",
          "from": "address from which token will be transferred",
          "id": "id of token to be transferred",
          "to": "recipient of address"
        }
      },
      "transferOwnership(address)": {
        "details": "Transfers ownership of the contract to a new account (`newOwner`). Can only be called by the current owner."
      },
      "updateMultipleUriIdentifiers(uint256[],string[])": {
        "details": "update uri identifiers for multiple token ids (tiers)",
        "params": {
          "tokenIds": "tokenIds for which the uri should be updated (must be in same order as uriIds)",
          "uriIds": "identifiers that are appended to the baseUri together forming the uri where the metadata lives (must be in same order ass tokenIds)"
        }
      },
      "updateTransferableStatus(uint256,bool)": {
        "details": "updates transferability for a given token id (tier)",
        "params": {
          "tokenId": "tokenId for which transferability should be updated",
          "transferable": "determines whether tokens from tier should be transferable or not"
        }
      },
      "updateUriIdentifier(uint256,string)": {
        "details": "updates the identifier that is appended to the baseUri for a specific tokenId (tier)",
        "params": {
          "tokenId": "tokenId for which the uri should be updated",
          "uriId": "identifier that is appended to the baseUri together forming the uri where the metadata lives"
        }
      },
      "uri(uint256)": {
        "details": "returns the uri for a given token",
        "params": {
          "tokenId": "tokenId for which the uri should be retrieved"
        }
      }
    },
    "version": 1
  },
  "userdoc": {
    "kind": "user",
    "methods": {
      "mintToMultiple(address[],uint256[],uint256[])": {
        "notice": "example: mint 3 units of tokenId 1 to alice and 4 units of tokenId 2 to bob"
      },
      "safeTransferFrom(address,address,uint256,uint256,bytes)": {
        "notice": "this is the standard transfer interface for ERC1155 tokens which contracts expect"
      },
      "transferFromWithoutData(address,address,uint256,uint256)": {
        "notice": "this is mainly used for manual contract interactions via etherscan"
      },
      "uri(uint256)": {
        "notice": "consists of a concatenation of baseUri and uriId"
      }
    },
    "version": 1
  },
  "storageLayout": {
    "storage": [
      {
        "astId": 7,
        "contract": "contracts/governance/Badger.sol:Badger",
        "label": "_owner",
        "offset": 0,
        "slot": "0",
        "type": "t_address"
      },
      {
        "astId": 129,
        "contract": "contracts/governance/Badger.sol:Badger",
        "label": "_balances",
        "offset": 0,
        "slot": "1",
        "type": "t_mapping(t_uint256,t_mapping(t_address,t_uint256))"
      },
      {
        "astId": 135,
        "contract": "contracts/governance/Badger.sol:Badger",
        "label": "_operatorApprovals",
        "offset": 0,
        "slot": "2",
        "type": "t_mapping(t_address,t_mapping(t_address,t_bool))"
      },
      {
        "astId": 137,
        "contract": "contracts/governance/Badger.sol:Badger",
        "label": "_uri",
        "offset": 0,
        "slot": "3",
        "type": "t_string_storage"
      },
      {
        "astId": 1736,
        "contract": "contracts/governance/Badger.sol:Badger",
        "label": "tokenTiers",
        "offset": 0,
        "slot": "4",
        "type": "t_mapping(t_uint256,t_struct(TokenTier)1741_storage)"
      }
    ],
    "types": {
      "t_address": {
        "encoding": "inplace",
        "label": "address",
        "numberOfBytes": "20"
      },
      "t_bool": {
        "encoding": "inplace",
        "label": "bool",
        "numberOfBytes": "1"
      },
      "t_mapping(t_address,t_bool)": {
        "encoding": "mapping",
        "key": "t_address",
        "label": "mapping(address => bool)",
        "numberOfBytes": "32",
        "value": "t_bool"
      },
      "t_mapping(t_address,t_mapping(t_address,t_bool))": {
        "encoding": "mapping",
        "key": "t_address",
        "label": "mapping(address => mapping(address => bool))",
        "numberOfBytes": "32",
        "value": "t_mapping(t_address,t_bool)"
      },
      "t_mapping(t_address,t_uint256)": {
        "encoding": "mapping",
        "key": "t_address",
        "label": "mapping(address => uint256)",
        "numberOfBytes": "32",
        "value": "t_uint256"
      },
      "t_mapping(t_uint256,t_mapping(t_address,t_uint256))": {
        "encoding": "mapping",
        "key": "t_uint256",
        "label": "mapping(uint256 => mapping(address => uint256))",
        "numberOfBytes": "32",
        "value": "t_mapping(t_address,t_uint256)"
      },
      "t_mapping(t_uint256,t_struct(TokenTier)1741_storage)": {
        "encoding": "mapping",
        "key": "t_uint256",
        "label": "mapping(uint256 => struct Badger.TokenTier)",
        "numberOfBytes": "32",
        "value": "t_struct(TokenTier)1741_storage"
      },
      "t_string_storage": {
        "encoding": "bytes",
        "label": "string",
        "numberOfBytes": "32"
      },
      "t_struct(TokenTier)1741_storage": {
        "encoding": "inplace",
        "label": "struct Badger.TokenTier",
        "members": [
          {
            "astId": 1738,
            "contract": "contracts/governance/Badger.sol:Badger",
            "label": "uriId",
            "offset": 0,
            "slot": "0",
            "type": "t_string_storage"
          },
          {
            "astId": 1740,
            "contract": "contracts/governance/Badger.sol:Badger",
            "label": "transferable",
            "offset": 0,
            "slot": "1",
            "type": "t_bool"
          }
        ],
        "numberOfBytes": "64"
      },
      "t_uint256": {
        "encoding": "inplace",
        "label": "uint256",
        "numberOfBytes": "32"
      }
    }
  }
}