{
  "address": "0xc3aC93E563d1Ba3Cd61791d79fd9bF7a488F7962",
  "abi": [
    {
      "inputs": [
        {
          "internalType": "string",
          "name": "_tokenName",
          "type": "string"
        },
        {
          "internalType": "string",
          "name": "_tokenSymbol",
          "type": "string"
        }
      ],
      "stateMutability": "nonpayable",
      "type": "constructor"
    },
    {
      "anonymous": false,
      "inputs": [
        {
          "indexed": true,
          "internalType": "address",
          "name": "owner",
          "type": "address"
        },
        {
          "indexed": true,
          "internalType": "address",
          "name": "spender",
          "type": "address"
        },
        {
          "indexed": false,
          "internalType": "uint256",
          "name": "value",
          "type": "uint256"
        }
      ],
      "name": "Approval",
      "type": "event"
    },
    {
      "anonymous": false,
      "inputs": [
        {
          "indexed": true,
          "internalType": "address",
          "name": "previousOwner",
          "type": "address"
        },
        {
          "indexed": true,
          "internalType": "address",
          "name": "newOwner",
          "type": "address"
        }
      ],
      "name": "OwnershipTransferred",
      "type": "event"
    },
    {
      "anonymous": false,
      "inputs": [
        {
          "indexed": true,
          "internalType": "address",
          "name": "from",
          "type": "address"
        },
        {
          "indexed": true,
          "internalType": "address",
          "name": "to",
          "type": "address"
        },
        {
          "indexed": false,
          "internalType": "uint256",
          "name": "value",
          "type": "uint256"
        }
      ],
      "name": "Transfer",
      "type": "event"
    },
    {
      "inputs": [
        {
          "internalType": "address",
          "name": "owner",
          "type": "address"
        },
        {
          "internalType": "address",
          "name": "spender",
          "type": "address"
        }
      ],
      "name": "allowance",
      "outputs": [
        {
          "internalType": "uint256",
          "name": "",
          "type": "uint256"
        }
      ],
      "stateMutability": "view",
      "type": "function"
    },
    {
      "inputs": [
        {
          "internalType": "address",
          "name": "spender",
          "type": "address"
        },
        {
          "internalType": "uint256",
          "name": "amount",
          "type": "uint256"
        }
      ],
      "name": "approve",
      "outputs": [
        {
          "internalType": "bool",
          "name": "",
          "type": "bool"
        }
      ],
      "stateMutability": "nonpayable",
      "type": "function"
    },
    {
      "inputs": [
        {
          "internalType": "address",
          "name": "account",
          "type": "address"
        }
      ],
      "name": "balanceOf",
      "outputs": [
        {
          "internalType": "uint256",
          "name": "",
          "type": "uint256"
        }
      ],
      "stateMutability": "view",
      "type": "function"
    },
    {
      "inputs": [
        {
          "internalType": "address[]",
          "name": "_repRecipients",
          "type": "address[]"
        },
        {
          "internalType": "uint256[]",
          "name": "_repAmounts",
          "type": "uint256[]"
        }
      ],
      "name": "batchBurn",
      "outputs": [],
      "stateMutability": "nonpayable",
      "type": "function"
    },
    {
      "inputs": [
        {
          "internalType": "address[]",
          "name": "_repRecipients",
          "type": "address[]"
        },
        {
          "internalType": "uint256[]",
          "name": "_repAmounts",
          "type": "uint256[]"
        }
      ],
      "name": "batchMint",
      "outputs": [],
      "stateMutability": "nonpayable",
      "type": "function"
    },
    {
      "inputs": [
        {
          "internalType": "address",
          "name": "_repRecipient",
          "type": "address"
        },
        {
          "internalType": "uint256",
          "name": "_repAmount",
          "type": "uint256"
        }
      ],
      "name": "burn",
      "outputs": [],
      "stateMutability": "nonpayable",
      "type": "function"
    },
    {
      "inputs": [],
      "name": "decimals",
      "outputs": [
        {
          "internalType": "uint8",
          "name": "",
          "type": "uint8"
        }
      ],
      "stateMutability": "view",
      "type": "function"
    },
    {
      "inputs": [
        {
          "internalType": "address",
          "name": "spender",
          "type": "address"
        },
        {
          "internalType": "uint256",
          "name": "subtractedValue",
          "type": "uint256"
        }
      ],
      "name": "decreaseAllowance",
      "outputs": [
        {
          "internalType": "bool",
          "name": "",
          "type": "bool"
        }
      ],
      "stateMutability": "nonpayable",
      "type": "function"
    },
    {
      "inputs": [
        {
          "internalType": "address",
          "name": "spender",
          "type": "address"
        },
        {
          "internalType": "uint256",
          "name": "addedValue",
          "type": "uint256"
        }
      ],
      "name": "increaseAllowance",
      "outputs": [
        {
          "internalType": "bool",
          "name": "",
          "type": "bool"
        }
      ],
      "stateMutability": "nonpayable",
      "type": "function"
    },
    {
      "inputs": [
        {
          "internalType": "address",
          "name": "_repRecipient",
          "type": "address"
        },
        {
          "internalType": "uint256",
          "name": "_repAmount",
          "type": "uint256"
        }
      ],
      "name": "mint",
      "outputs": [],
      "stateMutability": "nonpayable",
      "type": "function"
    },
    {
      "inputs": [],
      "name": "name",
      "outputs": [
        {
          "internalType": "string",
          "name": "",
          "type": "string"
        }
      ],
      "stateMutability": "view",
      "type": "function"
    },
    {
      "inputs": [],
      "name": "owner",
      "outputs": [
        {
          "internalType": "address",
          "name": "",
          "type": "address"
        }
      ],
      "stateMutability": "view",
      "type": "function"
    },
    {
      "inputs": [],
      "name": "renounceOwnership",
      "outputs": [],
      "stateMutability": "nonpayable",
      "type": "function"
    },
    {
      "inputs": [],
      "name": "symbol",
      "outputs": [
        {
          "internalType": "string",
          "name": "",
          "type": "string"
        }
      ],
      "stateMutability": "view",
      "type": "function"
    },
    {
      "inputs": [],
      "name": "totalSupply",
      "outputs": [
        {
          "internalType": "uint256",
          "name": "",
          "type": "uint256"
        }
      ],
      "stateMutability": "view",
      "type": "function"
    },
    {
      "inputs": [
        {
          "internalType": "address",
          "name": "recipient",
          "type": "address"
        },
        {
          "internalType": "uint256",
          "name": "amount",
          "type": "uint256"
        }
      ],
      "name": "transfer",
      "outputs": [
        {
          "internalType": "bool",
          "name": "",
          "type": "bool"
        }
      ],
      "stateMutability": "pure",
      "type": "function"
    },
    {
      "inputs": [
        {
          "internalType": "address",
          "name": "sender",
          "type": "address"
        },
        {
          "internalType": "address",
          "name": "recipient",
          "type": "address"
        },
        {
          "internalType": "uint256",
          "name": "amount",
          "type": "uint256"
        }
      ],
      "name": "transferFrom",
      "outputs": [
        {
          "internalType": "bool",
          "name": "",
          "type": "bool"
        }
      ],
      "stateMutability": "pure",
      "type": "function"
    },
    {
      "inputs": [
        {
          "internalType": "address",
          "name": "newOwner",
          "type": "address"
        }
      ],
      "name": "transferOwnership",
      "outputs": [],
      "stateMutability": "nonpayable",
      "type": "function"
    }
  ],
  "transactionHash": "0x8795010aee0f61a53845cff74a702dc22066d5ef2493b1858a2f691008aed956",
  "args": [
    "PrimeDAO Rating Reputation",
    "PRR"
  ],
  "solcInputHash": "cf71ff29f00575f4d46e6296df67f399",
  "bytecode": "0x60806040523480156200001157600080fd5b50604051620013053803806200130583398101604081905262000034916200023b565b8151829082906200004d906003906020850190620000de565b50805162000063906004906020840190620000de565b505050620000806200007a6200008860201b60201c565b6200008c565b5050620002f8565b3390565b600580546001600160a01b038381166001600160a01b0319831681179093556040519116919082907f8be0079c531659141344cd1fd0a4f28419497f9722a3daafe3b4186f6b6457e090600090a35050565b828054620000ec90620002a5565b90600052602060002090601f0160209004810192826200011057600085556200015b565b82601f106200012b57805160ff19168380011785556200015b565b828001600101855582156200015b579182015b828111156200015b5782518255916020019190600101906200013e565b50620001699291506200016d565b5090565b5b808211156200016957600081556001016200016e565b600082601f8301126200019657600080fd5b81516001600160401b0380821115620001b357620001b3620002e2565b604051601f8301601f19908116603f01168101908282118183101715620001de57620001de620002e2565b81604052838152602092508683858801011115620001fb57600080fd5b600091505b838210156200021f578582018301518183018401529082019062000200565b83821115620002315760008385830101525b9695505050505050565b600080604083850312156200024f57600080fd5b82516001600160401b03808211156200026757600080fd5b620002758683870162000184565b935060208501519150808211156200028c57600080fd5b506200029b8582860162000184565b9150509250929050565b600181811c90821680620002ba57607f821691505b60208210811415620002dc57634e487b7160e01b600052602260045260246000fd5b50919050565b634e487b7160e01b600052604160045260246000fd5b610ffd80620003086000396000f3fe608060405234801561001057600080fd5b50600436106101165760003560e01c806370a08231116100a25780639dc29fac116100715780639dc29fac14610236578063a457c2d714610249578063a9059cbb1461025c578063dd62ed3e14610272578063f2fde38b146102ab57600080fd5b806370a08231146101e2578063715018a61461020b5780638da5cb5b1461021357806395d89b411461022e57600080fd5b8063313ce567116100e9578063313ce56714610185578063395093511461019457806340c10f19146101a75780634a6cc677146101bc57806368573107146101cf57600080fd5b806306fdde031461011b578063095ea7b31461013957806318160ddd1461015c57806323b872dd1461016e575b600080fd5b6101236102be565b6040516101309190610d25565b60405180910390f35b61014c610147366004610c34565b610350565b6040519015158152602001610130565b6002545b604051908152602001610130565b61014c61017c366004610bf8565b60009392505050565b60405160128152602001610130565b61014c6101a2366004610c34565b610366565b6101ba6101b5366004610c34565b6103a2565b005b6101ba6101ca366004610c5e565b6103e3565b6101ba6101dd366004610c5e565b610417565b6101606101f0366004610ba3565b6001600160a01b031660009081526020819052604090205490565b6101ba61044b565b6005546040516001600160a01b039091168152602001610130565b610123610481565b6101ba610244366004610c34565b610490565b61014c610257366004610c34565b6104c4565b61014c61026a366004610c34565b600092915050565b610160610280366004610bc5565b6001600160a01b03918216600090815260016020908152604080832093909416825291909152205490565b6101ba6102b9366004610ba3565b61055d565b6060600380546102cd90610f22565b80601f01602080910402602001604051908101604052809291908181526020018280546102f990610f22565b80156103465780601f1061031b57610100808354040283529160200191610346565b820191906000526020600020905b81548152906001019060200180831161032957829003601f168201915b5050505050905090565b600061035d3384846105f8565b50600192915050565b3360008181526001602090815260408083206001600160a01b0387168452909152812054909161035d91859061039d908690610ef3565b6105f8565b6005546001600160a01b031633146103d55760405162461bcd60e51b81526004016103cc90610df0565b60405180910390fd5b6103df828261071d565b5050565b6005546001600160a01b0316331461040d5760405162461bcd60e51b81526004016103cc90610df0565b6103df82826107fc565b6005546001600160a01b031633146104415760405162461bcd60e51b81526004016103cc90610df0565b6103df82826108c0565b6005546001600160a01b031633146104755760405162461bcd60e51b81526004016103cc90610df0565b61047f600061097d565b565b6060600480546102cd90610f22565b6005546001600160a01b031633146104ba5760405162461bcd60e51b81526004016103cc90610df0565b6103df82826109cf565b3360009081526001602090815260408083206001600160a01b0386168452909152812054828110156105465760405162461bcd60e51b815260206004820152602560248201527f45524332303a2064656372656173656420616c6c6f77616e63652062656c6f77604482015264207a65726f60d81b60648201526084016103cc565b61055333858584036105f8565b5060019392505050565b6005546001600160a01b031633146105875760405162461bcd60e51b81526004016103cc90610df0565b6001600160a01b0381166105ec5760405162461bcd60e51b815260206004820152602660248201527f4f776e61626c653a206e6577206f776e657220697320746865207a65726f206160448201526564647265737360d01b60648201526084016103cc565b6105f58161097d565b50565b6001600160a01b03831661065a5760405162461bcd60e51b8152602060048201526024808201527f45524332303a20617070726f76652066726f6d20746865207a65726f206164646044820152637265737360e01b60648201526084016103cc565b6001600160a01b0382166106bb5760405162461bcd60e51b815260206004820152602260248201527f45524332303a20617070726f766520746f20746865207a65726f206164647265604482015261737360f01b60648201526084016103cc565b6001600160a01b0383811660008181526001602090815260408083209487168084529482529182902085905590518481527f8c5be1e5ebec7d5bd14f71427d1e84f3dd0314c0f7b2291e5b200ac8c7c3b92591015b60405180910390a3505050565b6001600160a01b0382166107735760405162461bcd60e51b815260206004820152601f60248201527f45524332303a206d696e7420746f20746865207a65726f20616464726573730060448201526064016103cc565b80600260008282546107859190610ef3565b90915550506001600160a01b038216600090815260208190526040812080548392906107b2908490610ef3565b90915550506040518181526001600160a01b038316906000907fddf252ad1be2c89b69c2b068fc378daa952ba7f163c4a11628f55a4df523b3ef9060200160405180910390a35050565b8181805182511461081f5760405162461bcd60e51b81526004016103cc90610e25565b60c8825111156108415760405162461bcd60e51b81526004016103cc90610d7a565b60005b83518167ffffffffffffffff1610156108b9576108a7858267ffffffffffffffff168151811061087657610876610f9b565b6020026020010151858367ffffffffffffffff168151811061089a5761089a610f9b565b60200260200101516109cf565b806108b181610f5d565b915050610844565b5050505050565b818180518251146108e35760405162461bcd60e51b81526004016103cc90610e25565b60c8825111156109055760405162461bcd60e51b81526004016103cc90610d7a565b60005b83518167ffffffffffffffff1610156108b95761096b858267ffffffffffffffff168151811061093a5761093a610f9b565b6020026020010151858367ffffffffffffffff168151811061095e5761095e610f9b565b602002602001015161071d565b8061097581610f5d565b915050610908565b600580546001600160a01b038381166001600160a01b0319831681179093556040519116919082907f8be0079c531659141344cd1fd0a4f28419497f9722a3daafe3b4186f6b6457e090600090a35050565b6001600160a01b038216610a2f5760405162461bcd60e51b815260206004820152602160248201527f45524332303a206275726e2066726f6d20746865207a65726f206164647265736044820152607360f81b60648201526084016103cc565b6001600160a01b03821660009081526020819052604090205481811015610aa35760405162461bcd60e51b815260206004820152602260248201527f45524332303a206275726e20616d6f756e7420657863656564732062616c616e604482015261636560f01b60648201526084016103cc565b6001600160a01b0383166000908152602081905260408120838303905560028054849290610ad2908490610f0b565b90915550506040518281526000906001600160a01b038516907fddf252ad1be2c89b69c2b068fc378daa952ba7f163c4a11628f55a4df523b3ef90602001610710565b80356001600160a01b0381168114610b2c57600080fd5b919050565b600082601f830112610b4257600080fd5b81356020610b57610b5283610ecf565b610e9e565b80838252828201915082860187848660051b8901011115610b7757600080fd5b60005b85811015610b9657813584529284019290840190600101610b7a565b5090979650505050505050565b600060208284031215610bb557600080fd5b610bbe82610b15565b9392505050565b60008060408385031215610bd857600080fd5b610be183610b15565b9150610bef60208401610b15565b90509250929050565b600080600060608486031215610c0d57600080fd5b610c1684610b15565b9250610c2460208501610b15565b9150604084013590509250925092565b60008060408385031215610c4757600080fd5b610c5083610b15565b946020939093013593505050565b60008060408385031215610c7157600080fd5b823567ffffffffffffffff80821115610c8957600080fd5b818501915085601f830112610c9d57600080fd5b81356020610cad610b5283610ecf565b8083825282820191508286018a848660051b8901011115610ccd57600080fd5b600096505b84871015610cf757610ce381610b15565b835260019690960195918301918301610cd2565b5096505086013592505080821115610d0e57600080fd5b50610d1b85828601610b31565b9150509250929050565b600060208083528351808285015260005b81811015610d5257858101830151858201604001528201610d36565b81811115610d64576000604083870101525b50601f01601f1916929092016040019392505050565b60208082526050908201527f52657075746174696f6e3a206d6178696d756d206e756d626572206f6620726560408201527f7075746174696f6e20686f6c6465727320616e6420616d6f756e7473206f662060608201526f0c8c0c081dd85cc8195e18d95959195960821b608082015260a00190565b6020808252818101527f4f776e61626c653a2063616c6c6572206973206e6f7420746865206f776e6572604082015260600190565b60208082526053908201527f52657075746174696f6e3a206e756d626572206f662072657075746174696f6e60408201527f20686f6c6465727320646f65736e2774206d61746368206e756d626572206f666060820152722072657075746174696f6e20616d6f756e747360681b608082015260a00190565b604051601f8201601f1916810167ffffffffffffffff81118282101715610ec757610ec7610fb1565b604052919050565b600067ffffffffffffffff821115610ee957610ee9610fb1565b5060051b60200190565b60008219821115610f0657610f06610f85565b500190565b600082821015610f1d57610f1d610f85565b500390565b600181811c90821680610f3657607f821691505b60208210811415610f5757634e487b7160e01b600052602260045260246000fd5b50919050565b600067ffffffffffffffff80831681811415610f7b57610f7b610f85565b6001019392505050565b634e487b7160e01b600052601160045260246000fd5b634e487b7160e01b600052603260045260246000fd5b634e487b7160e01b600052604160045260246000fdfea2646970667358221220168f53687d3226a9652a5c45971464cc96b6a8da45944e65a8cc6cd6563b885b64736f6c63430008060033",
  "devdoc": {
    "details": "Reputation is a non-transferable ERC20 token used for PrimeDAO Governance.",
    "kind": "dev",
    "methods": {
      "allowance(address,address)": {
        "details": "See {IERC20-allowance}."
      },
      "approve(address,uint256)": {
        "details": "See {IERC20-approve}. Requirements: - `spender` cannot be the zero address."
      },
      "balanceOf(address)": {
        "details": "See {IERC20-balanceOf}."
      },
      "batchBurn(address[],uint256[])": {
        "details": "Burns reputation of multiple adresses.",
        "params": {
          "_repAmounts": "an array of amounts of reputation to be burned.",
          "_repRecipients": "an array of adresses that's rep is being burned."
        }
      },
      "batchMint(address[],uint256[])": {
        "details": "Mints reputation for multiple adresses.",
        "params": {
          "_repAmounts": "an array of amounts of reputation to be minted.",
          "_repRecipients": "an array of adresses that rep is being minted to."
        }
      },
      "burn(address,uint256)": {
        "details": "Burns reputation of a given address.",
        "params": {
          "_repAmount": "amount of reputation to be burned.",
          "_repRecipient": "adress that's rep is being burned."
        }
      },
      "constructor": {
        "details": "Reputation constructor function."
      },
      "decimals()": {
        "details": "Returns the number of decimals used to get its user representation. For example, if `decimals` equals `2`, a balance of `505` tokens should be displayed to a user as `5,05` (`505 / 10 ** 2`). Tokens usually opt for a value of 18, imitating the relationship between Ether and Wei. This is the value {ERC20} uses, unless this function is overridden; NOTE: This information is only used for _display_ purposes: it in no way affects any of the arithmetic of the contract, including {IERC20-balanceOf} and {IERC20-transfer}."
      },
      "decreaseAllowance(address,uint256)": {
        "details": "Atomically decreases the allowance granted to `spender` by the caller. This is an alternative to {approve} that can be used as a mitigation for problems described in {IERC20-approve}. Emits an {Approval} event indicating the updated allowance. Requirements: - `spender` cannot be the zero address. - `spender` must have allowance for the caller of at least `subtractedValue`."
      },
      "increaseAllowance(address,uint256)": {
        "details": "Atomically increases the allowance granted to `spender` by the caller. This is an alternative to {approve} that can be used as a mitigation for problems described in {IERC20-approve}. Emits an {Approval} event indicating the updated allowance. Requirements: - `spender` cannot be the zero address."
      },
      "mint(address,uint256)": {
        "details": "Mints reputation to a given address.",
        "params": {
          "_repAmount": "amount of reputation to be minted.",
          "_repRecipient": "adress that rep is being minted to."
        }
      },
      "name()": {
        "details": "Returns the name of the token."
      },
      "owner()": {
        "details": "Returns the address of the current owner."
      },
      "renounceOwnership()": {
        "details": "Leaves the contract without owner. It will not be possible to call `onlyOwner` functions anymore. Can only be called by the current owner. NOTE: Renouncing ownership will leave the contract without an owner, thereby removing any functionality that is only available to the owner."
      },
      "symbol()": {
        "details": "Returns the symbol of the token, usually a shorter version of the name."
      },
      "totalSupply()": {
        "details": "See {IERC20-totalSupply}."
      },
      "transfer(address,uint256)": {
        "details": "Overrides standard ERC20 transfer function, to make tokens non-trasferable.",
        "params": {
          "amount": "unused parameter.",
          "recipient": "unused parameter."
        }
      },
      "transferFrom(address,address,uint256)": {
        "details": "Overrides standard ERC20 transferFrom function, to make tokens non-trasferable.",
        "params": {
          "amount": "unused parameter.",
          "recipient": "unused parameter.",
          "sender": "unused parameter."
        }
      },
      "transferOwnership(address)": {
        "details": "Transfers ownership of the contract to a new account (`newOwner`). Can only be called by the current owner."
      }
    },
    "title": "PrimeDAO Reputation contract",
    "version": 1
  },
  "userdoc": {
    "kind": "user",
    "methods": {},
    "version": 1
  },
  "storageLayout": {
    "storage": [
      {
        "astId": 10512,
        "contract": "contracts/Reputation.sol:Reputation",
        "label": "_balances",
        "offset": 0,
        "slot": "0",
        "type": "t_mapping(t_address,t_uint256)"
      },
      {
        "astId": 10518,
        "contract": "contracts/Reputation.sol:Reputation",
        "label": "_allowances",
        "offset": 0,
        "slot": "1",
        "type": "t_mapping(t_address,t_mapping(t_address,t_uint256))"
      },
      {
        "astId": 10520,
        "contract": "contracts/Reputation.sol:Reputation",
        "label": "_totalSupply",
        "offset": 0,
        "slot": "2",
        "type": "t_uint256"
      },
      {
        "astId": 10522,
        "contract": "contracts/Reputation.sol:Reputation",
        "label": "_name",
        "offset": 0,
        "slot": "3",
        "type": "t_string_storage"
      },
      {
        "astId": 10524,
        "contract": "contracts/Reputation.sol:Reputation",
        "label": "_symbol",
        "offset": 0,
        "slot": "4",
        "type": "t_string_storage"
      },
      {
        "astId": 10400,
        "contract": "contracts/Reputation.sol:Reputation",
        "label": "_owner",
        "offset": 0,
        "slot": "5",
        "type": "t_address"
      }
    ],
    "types": {
      "t_address": {
        "encoding": "inplace",
        "label": "address",
        "numberOfBytes": "20"
      },
      "t_mapping(t_address,t_mapping(t_address,t_uint256))": {
        "encoding": "mapping",
        "key": "t_address",
        "label": "mapping(address => mapping(address => uint256))",
        "numberOfBytes": "32",
        "value": "t_mapping(t_address,t_uint256)"
      },
      "t_mapping(t_address,t_uint256)": {
        "encoding": "mapping",
        "key": "t_address",
        "label": "mapping(address => uint256)",
        "numberOfBytes": "32",
        "value": "t_uint256"
      },
      "t_string_storage": {
        "encoding": "bytes",
        "label": "string",
        "numberOfBytes": "32"
      },
      "t_uint256": {
        "encoding": "inplace",
        "label": "uint256",
        "numberOfBytes": "32"
      }
    }
  }
}