{
  "address": "0xB448335Ff3105145dc6Cf805e544F1e4a41B35ca",
  "abi": [
    {
      "inputs": [
        {
          "internalType": "address",
          "name": "_lbpFactory",
          "type": "address"
        }
      ],
      "stateMutability": "nonpayable",
      "type": "constructor"
    },
    {
      "anonymous": false,
      "inputs": [
        {
          "indexed": true,
          "internalType": "address",
          "name": "oldLBPFactory",
          "type": "address"
        },
        {
          "indexed": true,
          "internalType": "address",
          "name": "newLBPFactory",
          "type": "address"
        }
      ],
      "name": "LBPFactoryChanged",
      "type": "event"
    },
    {
      "anonymous": false,
      "inputs": [
        {
          "indexed": true,
          "internalType": "address",
          "name": "lbpManager",
          "type": "address"
        },
        {
          "indexed": true,
          "internalType": "address",
          "name": "admin",
          "type": "address"
        },
        {
          "indexed": false,
          "internalType": "bytes",
          "name": "metadata",
          "type": "bytes"
        }
      ],
      "name": "LBPManagerDeployed",
      "type": "event"
    },
    {
      "anonymous": false,
      "inputs": [
        {
          "indexed": true,
          "internalType": "address",
          "name": "oldMasterCopy",
          "type": "address"
        },
        {
          "indexed": true,
          "internalType": "address",
          "name": "newMasterCopy",
          "type": "address"
        }
      ],
      "name": "MastercopyChanged",
      "type": "event"
    },
    {
      "anonymous": false,
      "inputs": [
        {
          "indexed": true,
          "internalType": "address",
          "name": "previousOwner",
          "type": "address"
        },
        {
          "indexed": true,
          "internalType": "address",
          "name": "newOwner",
          "type": "address"
        }
      ],
      "name": "OwnershipTransferred",
      "type": "event"
    },
    {
      "inputs": [
        {
          "internalType": "address",
          "name": "_admin",
          "type": "address"
        },
        {
          "internalType": "address",
          "name": "_beneficiary",
          "type": "address"
        },
        {
          "internalType": "string",
          "name": "_name",
          "type": "string"
        },
        {
          "internalType": "string",
          "name": "_symbol",
          "type": "string"
        },
        {
          "internalType": "contract IERC20[]",
          "name": "_tokenList",
          "type": "address[]"
        },
        {
          "internalType": "uint256[]",
          "name": "_amounts",
          "type": "uint256[]"
        },
        {
          "internalType": "uint256[]",
          "name": "_startWeights",
          "type": "uint256[]"
        },
        {
          "internalType": "uint256[]",
          "name": "_startTimeEndtime",
          "type": "uint256[]"
        },
        {
          "internalType": "uint256[]",
          "name": "_endWeights",
          "type": "uint256[]"
        },
        {
          "internalType": "uint256[]",
          "name": "_fees",
          "type": "uint256[]"
        },
        {
          "internalType": "bytes",
          "name": "_metadata",
          "type": "bytes"
        }
      ],
      "name": "deployLBPManager",
      "outputs": [],
      "stateMutability": "nonpayable",
      "type": "function"
    },
    {
      "inputs": [],
      "name": "lbpFactory",
      "outputs": [
        {
          "internalType": "address",
          "name": "",
          "type": "address"
        }
      ],
      "stateMutability": "view",
      "type": "function"
    },
    {
      "inputs": [],
      "name": "masterCopy",
      "outputs": [
        {
          "internalType": "address",
          "name": "",
          "type": "address"
        }
      ],
      "stateMutability": "view",
      "type": "function"
    },
    {
      "inputs": [],
      "name": "owner",
      "outputs": [
        {
          "internalType": "address",
          "name": "",
          "type": "address"
        }
      ],
      "stateMutability": "view",
      "type": "function"
    },
    {
      "inputs": [],
      "name": "renounceOwnership",
      "outputs": [],
      "stateMutability": "nonpayable",
      "type": "function"
    },
    {
      "inputs": [
        {
          "internalType": "address",
          "name": "_lbpFactory",
          "type": "address"
        }
      ],
      "name": "setLBPFactory",
      "outputs": [],
      "stateMutability": "nonpayable",
      "type": "function"
    },
    {
      "inputs": [
        {
          "internalType": "address",
          "name": "_masterCopy",
          "type": "address"
        }
      ],
      "name": "setMasterCopy",
      "outputs": [],
      "stateMutability": "nonpayable",
      "type": "function"
    },
    {
      "inputs": [
        {
          "internalType": "address",
          "name": "newOwner",
          "type": "address"
        }
      ],
      "name": "transferOwnership",
      "outputs": [],
      "stateMutability": "nonpayable",
      "type": "function"
    }
  ],
  "transactionHash": "0xdcb95c9589810e45102e8aa7f1bef88b63984399639e0acb5fa1c5efb42df54d",
  "args": [
    "0x142B9666a0a3A30477b052962ddA81547E7029ab"
  ],
  "solcInputHash": "93e257eeaf50825eb965de2e0b15f618",
  "bytecode": "0x608060405234801561001057600080fd5b50604051610e01380380610e0183398101604081905261002f916100ef565b600080546001600160a01b031916339081178255604051909182917f8be0079c531659141344cd1fd0a4f28419497f9722a3daafe3b4186f6b6457e0908290a3506001600160a01b0381166100ca5760405162461bcd60e51b815260206004820152601f60248201527f4c42504d466163746f72793a204c4250466163746f7279206973207a65726f00604482015260640160405180910390fd5b600280546001600160a01b0319166001600160a01b039290921691909117905561011f565b60006020828403121561010157600080fd5b81516001600160a01b038116811461011857600080fd5b9392505050565b610cd38061012e6000396000f3fe608060405234801561001057600080fd5b50600436106100885760003560e01c8063c18b51511161005b578063c18b5151146100e6578063cf497e6c146100f9578063f2fde38b1461010c578063fd3bd38a1461011f57600080fd5b8063715018a61461008d5780637679a4c1146100975780638da5cb5b146100aa578063a619486e146100d3575b600080fd5b610095610132565b005b6100956100a53660046106fb565b6101af565b6000546001600160a01b03165b6040516001600160a01b03909116815260200160405180910390f35b6001546100b7906001600160a01b031681565b6002546100b7906001600160a01b031681565b6100956101073660046106fb565b6102b6565b61009561011a3660046106fb565b6103bd565b61009561012d3660046108c9565b6104a7565b6000546001600160a01b031633146101655760405162461bcd60e51b815260040161015c90610a5f565b60405180910390fd5b600080546040516001600160a01b03909116907f8be0079c531659141344cd1fd0a4f28419497f9722a3daafe3b4186f6b6457e0908390a3600080546001600160a01b0319169055565b6000546001600160a01b031633146101d95760405162461bcd60e51b815260040161015c90610a5f565b806001600160a01b0381166102305760405162461bcd60e51b815260206004820152601c60248201527f4c42504d466163746f72793a2061646472657373206973207a65726f00000000604482015260640161015c565b6001600160a01b0381163014156102595760405162461bcd60e51b815260040161015c90610a94565b6002546040516001600160a01b038085169216907f877e5d562f57d3294803fbbd1e6715a2342eedb560cc540e97a9b77f03d12cbf90600090a350600280546001600160a01b0319166001600160a01b0392909216919091179055565b6000546001600160a01b031633146102e05760405162461bcd60e51b815260040161015c90610a5f565b806001600160a01b0381166103375760405162461bcd60e51b815260206004820152601c60248201527f4c42504d466163746f72793a2061646472657373206973207a65726f00000000604482015260640161015c565b6001600160a01b0381163014156103605760405162461bcd60e51b815260040161015c90610a94565b6001546040516001600160a01b038085169216907fb8c954c26b96c632ba5e28e879f889c124225199d6787047500b1eef41ff464190600090a350600180546001600160a01b0319166001600160a01b0392909216919091179055565b6000546001600160a01b031633146103e75760405162461bcd60e51b815260040161015c90610a5f565b6001600160a01b03811661044c5760405162461bcd60e51b815260206004820152602660248201527f4f776e61626c653a206e6577206f776e657220697320746865207a65726f206160448201526564647265737360d01b606482015260840161015c565b600080546040516001600160a01b03808516939216917f8be0079c531659141344cd1fd0a4f28419497f9722a3daafe3b4186f6b6457e091a3600080546001600160a01b0319166001600160a01b0392909216919091179055565b6000546001600160a01b031633146104d15760405162461bcd60e51b815260040161015c90610a5f565b6001546001600160a01b031661053c5760405162461bcd60e51b815260206004820152602a60248201527f4c42504d466163746f72793a204c42504d616e61676572206d6173746572636f6044820152691c1e481b9bdd081cd95d60b21b606482015260840161015c565b600154600090610554906001600160a01b0316610681565b600254604051638638fe3160e01b81529192506001600160a01b0380841692638638fe319261059b9216908f908f908f908f908f908f908f908f908f908f90600401610ba3565b600060405180830381600087803b1580156105b557600080fd5b505af11580156105c9573d6000803e3d6000fd5b505060405163b5106add60e01b81526001600160a01b038f811660048301528416925063b5106add9150602401600060405180830381600087803b15801561061057600080fd5b505af1158015610624573d6000803e3d6000fd5b505050508b6001600160a01b0316816001600160a01b03167f8b8a9c158a44eff86c91705dbc9c0479504c8de441156f3c2c21a6ed00e1627a8460405161066b9190610c8a565b60405180910390a3505050505050505050505050565b6000808260601b9050604051733d602d80600a3d3981f3363d3d373d3d3d363d7360601b81528160148201526e5af43d82803e903d91602b57fd5bf360881b60288201526037816000f0949350505050565b6001600160a01b03811681146106e857600080fd5b50565b80356106f6816106d3565b919050565b60006020828403121561070d57600080fd5b8135610718816106d3565b9392505050565b634e487b7160e01b600052604160045260246000fd5b604051601f8201601f1916810167ffffffffffffffff8111828210171561075e5761075e61071f565b604052919050565b600082601f83011261077757600080fd5b813567ffffffffffffffff8111156107915761079161071f565b6107a4601f8201601f1916602001610735565b8181528460208386010111156107b957600080fd5b816020850160208301376000918101602001919091529392505050565b600067ffffffffffffffff8211156107f0576107f061071f565b5060051b60200190565b600082601f83011261080b57600080fd5b8135602061082061081b836107d6565b610735565b82815260059290921b8401810191818101908684111561083f57600080fd5b8286015b84811015610863578035610856816106d3565b8352918301918301610843565b509695505050505050565b600082601f83011261087f57600080fd5b8135602061088f61081b836107d6565b82815260059290921b840181019181810190868411156108ae57600080fd5b8286015b8481101561086357803583529183019183016108b2565b60008060008060008060008060008060006101608c8e0312156108eb57600080fd5b6108f48c6106eb565b9a5061090260208d016106eb565b995067ffffffffffffffff8060408e0135111561091e57600080fd5b61092e8e60408f01358f01610766565b99508060608e0135111561094157600080fd5b6109518e60608f01358f01610766565b98508060808e0135111561096457600080fd5b6109748e60808f01358f016107fa565b97508060a08e0135111561098757600080fd5b6109978e60a08f01358f0161086e565b96508060c08e013511156109aa57600080fd5b6109ba8e60c08f01358f0161086e565b95508060e08e013511156109cd57600080fd5b6109dd8e60e08f01358f0161086e565b9450806101008e013511156109f157600080fd5b610a028e6101008f01358f0161086e565b9350806101208e01351115610a1657600080fd5b610a278e6101208f01358f0161086e565b9250806101408e01351115610a3b57600080fd5b50610a4d8d6101408e01358e01610766565b90509295989b509295989b9093969950565b6020808252818101527f4f776e61626c653a2063616c6c6572206973206e6f7420746865206f776e6572604082015260600190565b6020808252602e908201527f4c42504d466163746f72793a20616464726573732073616d65206173204c425060408201526d4d616e61676572466163746f727960901b606082015260800190565b6000815180845260005b81811015610b0857602081850181015186830182015201610aec565b81811115610b1a576000602083870101525b50601f01601f19169290920160200192915050565b600081518084526020808501945080840160005b83811015610b685781516001600160a01b031687529582019590820190600101610b43565b509495945050505050565b600081518084526020808501945080840160005b83811015610b6857815187529582019590820190600101610b87565b6001600160a01b038c16815260006101606001600160a01b038d166020840152806040840152610bd58184018d610ae2565b90508281036060840152610be9818c610ae2565b90508281036080840152610bfd818b610b2f565b905082810360a0840152610c11818a610b73565b905082810360c0840152610c258189610b73565b905082810360e0840152610c398188610b73565b9050828103610100840152610c4e8187610b73565b9050828103610120840152610c638186610b73565b9050828103610140840152610c788185610ae2565b9e9d5050505050505050505050505050565b6020815260006107186020830184610ae256fea2646970667358221220161b3146ef4b80bce2f9389b20f2d6b6d05ff1ad04472e890d30ea88385dc53264736f6c63430008090033",
  "devdoc": {
    "details": "Governance to create new LBPManager contracts.",
    "kind": "dev",
    "methods": {
      "constructor": {
        "details": "Constructor.",
        "params": {
          "_lbpFactory": "The address of Balancers LBP factory."
        }
      },
      "deployLBPManager(address,address,string,string,address[],uint256[],uint256[],uint256[],uint256[],uint256[],bytes)": {
        "details": "Deploy and initialize LBPManager.",
        "params": {
          "_admin": "The address of the admin of the LBPManager.",
          "_amounts": "Sorted array to match the _tokenList, containing two parameters: - The amounts of project token to be added as liquidity to the LBP. - The amounts of funding token to be added as liquidity to the LBP.",
          "_beneficiary": "The address that receives the _fees.",
          "_endWeights": "Sorted array to match the _tokenList, containing two parametes: - The end weight for the project token in the LBP. - The end weight for the funding token in the LBP.",
          "_fees": "Array containing two parameters: - Percentage of fee paid for every swap in the LBP. - Percentage of fee paid to the _beneficiary for providing the service of the LBP Manager.",
          "_metadata": "IPFS Hash of the LBP creation wizard information.",
          "_name": "Name of the LBP.",
          "_startTimeEndtime": "Array containing two parameters: - Start time for the LBP. - End time for the LBP.",
          "_startWeights": "Sorted array to match the _tokenList, containing two parametes: - The start weight for the project token in the LBP. - The start weight for the funding token in the LBP.",
          "_symbol": "Symbol of the LBP.",
          "_tokenList": "Numerically sorted array (ascending) containing two addresses: - The address of the project token being distributed. - The address of the funding token being exchanged for the project token."
        }
      },
      "owner()": {
        "details": "Returns the address of the current owner."
      },
      "renounceOwnership()": {
        "details": "Leaves the contract without owner. It will not be possible to call `onlyOwner` functions anymore. Can only be called by the current owner. NOTE: Renouncing ownership will leave the contract without an owner, thereby removing any functionality that is only available to the owner."
      },
      "setLBPFactory(address)": {
        "details": "Set Balancers LBP Factory contract as basis for deploying LBPs.",
        "params": {
          "_lbpFactory": "The address of Balancers LBP factory."
        }
      },
      "setMasterCopy(address)": {
        "details": "Set LBPManager contract which works as a base for clones.",
        "params": {
          "_masterCopy": "The address of the new LBPManager basis."
        }
      },
      "transferOwnership(address)": {
        "details": "Transfers ownership of the contract to a new account (`newOwner`). Can only be called by the current owner."
      }
    },
    "title": "LBPManager Factory",
    "version": 1
  },
  "userdoc": {
    "kind": "user",
    "methods": {},
    "version": 1
  },
  "storageLayout": {
    "storage": [
      {
        "astId": 2650,
        "contract": "contracts/lbp/LBPManagerFactory.sol:LBPManagerFactory",
        "label": "_owner",
        "offset": 0,
        "slot": "0",
        "type": "t_address"
      },
      {
        "astId": 820,
        "contract": "contracts/lbp/LBPManagerFactory.sol:LBPManagerFactory",
        "label": "masterCopy",
        "offset": 0,
        "slot": "1",
        "type": "t_address"
      },
      {
        "astId": 822,
        "contract": "contracts/lbp/LBPManagerFactory.sol:LBPManagerFactory",
        "label": "lbpFactory",
        "offset": 0,
        "slot": "2",
        "type": "t_address"
      }
    ],
    "types": {
      "t_address": {
        "encoding": "inplace",
        "label": "address",
        "numberOfBytes": "20"
      }
    }
  }
}