{
  "_format": "hh-sol-artifact-1",
  "contractName": "Signer",
  "sourceName": "contracts/utils/Signer.sol",
  "abi": [
    {
      "inputs": [
        {
          "internalType": "address",
          "name": "_safe",
          "type": "address"
        },
        {
          "internalType": "address",
          "name": "_seedFactory",
          "type": "address"
        }
      ],
      "stateMutability": "nonpayable",
      "type": "constructor"
    },
    {
      "anonymous": false,
      "inputs": [
        {
          "indexed": false,
          "internalType": "bytes",
          "name": "signature",
          "type": "bytes"
        },
        {
          "indexed": true,
          "internalType": "bytes32",
          "name": "hash",
          "type": "bytes32"
        }
      ],
      "name": "SignatureCreated",
      "type": "event"
    },
    {
      "inputs": [
        {
          "internalType": "bytes32",
          "name": "",
          "type": "bytes32"
        }
      ],
      "name": "approvedSignatures",
      "outputs": [
        {
          "internalType": "bytes32",
          "name": "",
          "type": "bytes32"
        }
      ],
      "stateMutability": "view",
      "type": "function"
    },
    {
      "inputs": [
        {
          "internalType": "bytes32",
          "name": "c__0x797fdf55",
          "type": "bytes32"
        }
      ],
      "name": "c_0x797fdf55",
      "outputs": [],
      "stateMutability": "pure",
      "type": "function"
    },
    {
      "inputs": [
        {
          "internalType": "address",
          "name": "_to",
          "type": "address"
        },
        {
          "internalType": "uint256",
          "name": "_value",
          "type": "uint256"
        },
        {
          "internalType": "bytes",
          "name": "_data",
          "type": "bytes"
        },
        {
          "internalType": "enum Enum.Operation",
          "name": "_operation",
          "type": "uint8"
        },
        {
          "internalType": "uint256",
          "name": "_safeTxGas",
          "type": "uint256"
        },
        {
          "internalType": "uint256",
          "name": "_baseGas",
          "type": "uint256"
        },
        {
          "internalType": "uint256",
          "name": "_gasPrice",
          "type": "uint256"
        },
        {
          "internalType": "address",
          "name": "_gasToken",
          "type": "address"
        },
        {
          "internalType": "address",
          "name": "_refundReceiver",
          "type": "address"
        },
        {
          "internalType": "uint256",
          "name": "_nonce",
          "type": "uint256"
        }
      ],
      "name": "generateSignature",
      "outputs": [
        {
          "internalType": "bytes",
          "name": "signature",
          "type": "bytes"
        },
        {
          "internalType": "bytes32",
          "name": "hash",
          "type": "bytes32"
        }
      ],
      "stateMutability": "nonpayable",
      "type": "function"
    },
    {
      "inputs": [
        {
          "internalType": "bytes",
          "name": "_data",
          "type": "bytes"
        },
        {
          "internalType": "bytes",
          "name": "_signature",
          "type": "bytes"
        }
      ],
      "name": "isValidSignature",
      "outputs": [
        {
          "internalType": "bytes4",
          "name": "",
          "type": "bytes4"
        }
      ],
      "stateMutability": "view",
      "type": "function"
    },
    {
      "inputs": [],
      "name": "safe",
      "outputs": [
        {
          "internalType": "address",
          "name": "",
          "type": "address"
        }
      ],
      "stateMutability": "view",
      "type": "function"
    },
    {
      "inputs": [],
      "name": "seedFactory",
      "outputs": [
        {
          "internalType": "address",
          "name": "",
          "type": "address"
        }
      ],
      "stateMutability": "view",
      "type": "function"
    }
  ],
  "bytecode": "0x60c06040523480156200001157600080fd5b506040516200226e3803806200226e833981810160405281019062000037919062000348565b6200006b7f7d7494f1355b2dcf29c5dd80896fe38ab265f404937edf9aa15c24366e5d4f8160001b6200032e60201b60201c565b6200009f7f61d5e381ec996600f5fecf8f18fdc009084314fb54af4466a4b0393713be4e5160001b6200032e60201b60201c565b620000d37f60d48d74ebc32c1d2c8f4b674d7ffaa53b1a1e8e8d8a48ec6e0e92695491e78960001b6200032e60201b60201c565b620001077f9a73cd2871b2b3173e0a95eced5be9835aaaaee85549b2ec56da9b9e0f42d2be60001b6200032e60201b60201c565b600073ffffffffffffffffffffffffffffffffffffffff168273ffffffffffffffffffffffffffffffffffffffff1614158015620001725750600073ffffffffffffffffffffffffffffffffffffffff168173ffffffffffffffffffffffffffffffffffffffff1614155b620001b4576040517f08c379a0000000000000000000000000000000000000000000000000000000008152600401620001ab90620003b6565b60405180910390fd5b620001e87f250709827e963c6f857882921390077e92445818d1afee3db96a4f526a0c8d0160001b6200032e60201b60201c565b6200021c7f2fa35175537509a5e73d2c6e749a2e4d312a7b250f4d9fec82faa32691b3f30d60001b6200032e60201b60201c565b620002507fd85bd99926ce802be941df758414c7172ea972edb1773023c95f531417bea20560001b6200032e60201b60201c565b8173ffffffffffffffffffffffffffffffffffffffff1660808173ffffffffffffffffffffffffffffffffffffffff1660601b81525050620002bb7f8df81d2e7046b429a8df4e9883001d9ac514716c5682abb1ed1eae77c5be8a9660001b6200032e60201b60201c565b620002ef7f19461ec1a618e1b3c7189e53597996a4b4a8c7a61bcd7977c03245f7e8bf4ce960001b6200032e60201b60201c565b8073ffffffffffffffffffffffffffffffffffffffff1660a08173ffffffffffffffffffffffffffffffffffffffff1660601b8152505050506200048b565b50565b600081519050620003428162000471565b92915050565b600080604083850312156200036257620003616200041d565b5b6000620003728582860162000331565b9250506020620003858582860162000331565b9150509250929050565b60006200039e603383620003d8565b9150620003ab8262000422565b604082019050919050565b60006020820190508181036000830152620003d1816200038f565b9050919050565b600082825260208201905092915050565b6000620003f682620003fd565b9050919050565b600073ffffffffffffffffffffffffffffffffffffffff82169050919050565b600080fd5b7f5369676e65723a205361666520616e642053656564466163746f72792061646460008201527f726573732063616e6e6f74206265207a65726f00000000000000000000000000602082015250565b6200047c81620003e9565b81146200048857600080fd5b50565b60805160601c60a05160601c611da9620004c56000396000818161015201526106c60152600081816101760152610ab60152611da96000f3fe608060405234801561001057600080fd5b50600436106100625760003560e01c80630422a98614610067578063186f0354146100855780631ec9dfe8146100a357806320c13b0b146100bf57806374fe857a146100ef578063e14ff99814610120575b600080fd5b61006f610150565b60405161007c91906116d4565b60405180910390f35b61008d610174565b60405161009a91906116d4565b60405180910390f35b6100bd60048036038101906100b89190611369565b610198565b005b6100d960048036038101906100d491906113c3565b61019b565b6040516100e691906117d8565b60405180910390f35b61010960048036038101906101049190611269565b610610565b604051610117929190611815565b60405180910390f35b61013a60048036038101906101359190611369565b610f0f565b6040516101479190611794565b60405180910390f35b7f000000000000000000000000000000000000000000000000000000000000000081565b7f000000000000000000000000000000000000000000000000000000000000000081565b50565b60006101c97f8d574aca3de0cd1ef018794d1297b59f17a6cdcc58d13ede5f97393544386b0b60001b610198565b6101f57fec0ce6ea688a1388366ba0c7bff05f13e9471e4ff745064268beb5db3402f3be60001b610198565b6102217f645dc33a13bed117a5e6bb3cb1265ab0f672f91fc44acee7847366da7667d39160001b610198565b602083511415610423576102577f7b666837ef7e6151ebf776a277bf30693fca6ff258cb92e698a3144959c6b3b260001b610198565b6102837fbca6f1cc4efe85bd11a06b46f6a832a18e63f47753cb49a6f63b4dc690fd5a9960001b610198565b6102af7fff74e0b7a43678c01709870c7d024e45730790a5ca7bbc4108cdaaf0a06360b960001b610198565b60006102dd7f3450bf66706334bb5f6a46deb82ca13197a8eaa3cd95250cdde49c9906424b6060001b610198565b602084015190506103107f567503f00b3b20752d93393cb53d90b59c99606683798486fc86583261a21e0760001b610198565b61033c7fe6177281fa8ee47c48db96fdf1e3077609edf62ba792288c7983cabe0aca157160001b610198565b82805190602001206000808381526020019081526020016000205414156103f1576103897fe31b762c37e8dc3b39ffadaad03c5cf3869f7d3a5ee8ee8269c3d11916699ab860001b610198565b6103b57f4e7802aa7a68bcc444d2c6149bd956b0ce393fed585e2484d2cc523cca5da87060001b610198565b6103e17f597f3f23760387745c612ec8f684c9ddd1ebfb18099b8b7293de26c19be728bc60001b610198565b6320c13b0b60e01b91505061060a565b61041d7f41527b453fba65d6e5fefe7a6562507b845d108ccfe0edc1554ef55a5343031660001b610198565b5061058f565b61044f7fc1cc82f4772281295ac8fadce4aa8f5b5e3270db1350cd27358a282a41ff711e60001b610198565b61047b7f5afd8ce5ffdfb25a39a19f5ba3f558a7b155d81f071e41d6a5ba7a95a958cf9160001b610198565b6104a77fa321e13535f54130df8ffb169f77d97bc92ce60ebaa64a5d027e8e48ff7c483160001b610198565b818051906020012060008085805190602001208152602001908152602001600020541415610562576104fb7f0d45c6d571cd9012657a6124726f1f37e17df5eef2a125ec759a493e88b2c0f060001b610198565b6105277f1b95f27616757e8ae4649af355fd170ae09db9e575992bbe17acaa9bb652c97c60001b610198565b6105537fb4d5f747128484b70753984790e13f7299ed941fc29035ce11715c2b2b94874860001b610198565b6320c13b0b60e01b905061060a565b61058e7f427bbdfabcf834202dad26079f2a61bc82f5d037df94adeda49eb6460d158ca760001b610198565b5b6105bb7f1d50bc62bbd671fc4ee92e9cae6590c1c2761274a1ea0597282b5a57b48cac9860001b610198565b6105e67e05fdb8efe8d9fab6585b2acc96393fd80532cab21da42c1ba44796f57d2c1960001b610198565b7f307800000000000000000000000000000000000000000000000000000000000090505b92915050565b606060006106407ffec8643e487c0ff3d45421c247c7d66e49cb1fe816eebb0c4051c1464d4a947560001b610198565b61066c7f2e637bab6efdecf02c30156549a48664d071b1d37a7554f431ec70ec2e4545aa60001b610198565b6106987fed3c3f6308eca44c202f4e1e0e50ed4259cca5a30acd7694e870510d0c95318b60001b610198565b6106c47f71c98ecf80d58d07e0cd73a83878eff19beaf8209358d07bd6f2301f0fa6c11460001b610198565b7f000000000000000000000000000000000000000000000000000000000000000073ffffffffffffffffffffffffffffffffffffffff168d73ffffffffffffffffffffffffffffffffffffffff1614610752576040517f08c379a000000000000000000000000000000000000000000000000000000000815260040161074990611845565b60405180910390fd5b61077e7faac0880a6a14c91cdc3ae72a82bd6b508529c1a65849106533ef95ec604695df60001b610198565b6107aa7f8250761cff588b923e0e57d9d4b070d113f09db6d7e8f39f36c169b4f605b1a560001b610198565b6107d67f95aeb0490da866607d063b1594a105e5882bd28141b349757cac553c18b708be60001b610198565b6108027f56b575ddf4257e8334d47afe65eaf1906edffa29fc6b1a0ee177352075d8c1ad60001b610198565b63da235e6e60e01b7bffffffffffffffffffffffffffffffffffffffffffffffffffffffff19166108768c8c8080601f016020809104026020016040519081016040528093929190818152602001838380828437600081840152601f19601f82011690508083019250505050505050610f27565b7bffffffffffffffffffffffffffffffffffffffffffffffffffffffff1916146108d5576040517f08c379a00000000000000000000000000000000000000000000000000000000081526004016108cc906118a5565b60405180910390fd5b6109017f3fbcd9e6e060cf9ee1d92d1acd9e07262175cf25a94ffcb00c6e98ca2e700ce260001b610198565b61092d7fd9d6c55fdf2ae580f3307bc492415a7b3b8ae86fa4cdf44f51aeb8efdf47f04260001b610198565b6109597f5eaf77bb05f96b76fd9bd984fb58e3b5f56f402d39082a16394e66a925a981b460001b610198565b6109857f401dacc28c053c9f86a718592316da31d40bdfe524f0605f722bfc3c661b703160001b610198565b60008c1480156109c15750600073ffffffffffffffffffffffffffffffffffffffff168473ffffffffffffffffffffffffffffffffffffffff16145b80156109f15750600060018111156109dc576109db611b1b565b5b8960018111156109ef576109ee611b1b565b5b145b610a30576040517f08c379a0000000000000000000000000000000000000000000000000000000008152600401610a2790611885565b60405180910390fd5b610a5c7f948d58fd86b28deeac5094bdcb9b24b4b0ecebf4ee3b3fb81d3d7ac08b07728760001b610198565b610a887f5f9a06af9ab17241bc38cb31f55f1e11778132e677be203e40a5bebb3b663a5a60001b610198565b610ab47fc9363e1cef8e816fae80e1ea69637c2b848111b981bcf7eb35397409e371fabf60001b610198565b7f000000000000000000000000000000000000000000000000000000000000000073ffffffffffffffffffffffffffffffffffffffff1663d8d11f788e60008e8e8e8e8e8e8e8e8e6040518c63ffffffff1660e01b8152600401610b229b9a999897969594939291906116ef565b60206040518083038186803b158015610b3a57600080fd5b505afa158015610b4e573d6000803e3d6000fd5b505050506040513d601f19601f82011682018060405250810190610b729190611396565b9050610ba07f3ab999a414439279951fa1b8277e293f56e03a672fc99494b5d8a50eb37c2ee560001b610198565b610bcc7fc4e8a38284dd6e74d4a2dd398beb3543a827b6eb7bac1823c44ab87b1ca9fafb60001b610198565b60008060a01b3060601b604051602001610be7929190611614565b6040516020818303038152906040529050610c247f536c9673b8b22283d58ca6e109172cd7ec5096358b45450d925d3be21a4639c760001b610198565b610c507fe9b70e8f599c5b3ce12da98e1061c2aaf844c9e98c7205305f179a260c21819860001b610198565b6000610c5b83610f8d565b9050610c897f2a4adf0eb2bb0949a3116762c4409f7f41b3d1a1c8c37888b9a9ff53d3580de160001b610198565b610cb57fdd16b741c680b4e89fe155765e3041f0d31ce0f28928dc0fa3516ca8efd994b560001b610198565b610ce17f614f3256abf07ade4fb2a10f21e62df8c1219e578ad1a5661dca7bc66cf3e33d60001b610198565b8080519060200120600080858152602001908152602001600020541415610d3d576040517f08c379a0000000000000000000000000000000000000000000000000000000008152600401610d3490611865565b60405180910390fd5b610d697fd190ed53020b384ed3e95f0d5c23ee63ded605bfbfca13fd615efaf89ea190b760001b610198565b610d957f9b21fe0fc971c302402afccc874aacbe8b5b2bbf85489f666ecdf35a7157bba860001b610198565b610dc17f0e099e517a28340d1f2025040e5723face5309bcbe114d4b4da47b167329373a60001b610198565b81604160001b600060f81b835160001b84604051602001610de695949392919061167d565b6040516020818303038152906040529350610e237fefcbbc510992a5d3530ac4dc9bddc64cf0ac1003fac9e9f56b2e0e8edb0e78c460001b610198565b610e4f7ff3e172af90a1a28e8d648c158574fa161057a8f6d9dc27f6ea5de28226cd511460001b610198565b808051906020012060008085815260200190815260200160002081905550610e997f5bf72d86157b905386c8e8faff1dd4b1312642b39af5dc8669b873cfd3d8bada60001b610198565b610ec57f0ccd8bf161d03ed635ec52c6d09807a30cfccca1165655f3d81ab7e81081c48c60001b610198565b827f4418bf19096bdd1b926a95d3cba8654e780b1b8b9a68526fb2faa0de58040d8585604051610ef591906117f3565b60405180910390a250509b509b9950505050505050505050565b60006020528060005260406000206000915090505481565b6000610f557f20def3eb0924c37b3416a8a6fe34a132ce88a0c46eb39a82acb545697395246760001b610198565b610f817f72ae409818047a57a3bbaad416fce7b6023084a1021745dc066c02f94aa12e7c60001b610198565b60208201519050919050565b6060610fbb7f0a8ca74a8c6863e40d42cd9e931b6e04ef02c96961078c9653ce7f5d9003a29c60001b610198565b610fe77fbf18367933a5683495ef8029eab4dc8cf1096ee691c34b2463997c62afed406b60001b610198565b6110137f3b9266b983f86ce22bd6620f15b6bb81f4b1cd7ddf58b486b17a64930a3185a660001b610198565b60007fa1a7ad659422d5fc08fdc481fd7d8af8daf7993bc4e833452b0268ceaab66e5d60001b8360405160200161104b9291906117af565b60405160208183030381529060405280519060200120905061108f7fea6475e85b946aad3c7f93633e24aebafdea6059510e15ebd8a0fa604fa4ee0860001b610198565b6110bb7fe482e86e7c71af0be30515969174c9d8665dc371a292ff01fc9fa736b715710460001b610198565b601960f81b602360f81b7f7a9f5b2bf4dbb53eb85e012c6094a3d71d76e5bfe821f44ab63ed59311264e3560001b836040516020016110fb9291906117af565b6040516020818303038152906040528051906020012060405160200161112393929190611640565b604051602081830303815290604052915050919050565b600061114d611148846118ea565b6118c5565b90508281526020810184848401111561116957611168611b88565b5b611174848285611a80565b509392505050565b60008135905061118b81611d1e565b92915050565b6000813590506111a081611d35565b92915050565b6000815190506111b581611d35565b92915050565b60008083601f8401126111d1576111d0611b7e565b5b8235905067ffffffffffffffff8111156111ee576111ed611b79565b5b60208301915083600182028301111561120a57611209611b83565b5b9250929050565b600082601f83011261122657611225611b7e565b5b813561123684826020860161113a565b91505092915050565b60008135905061124e81611d4c565b92915050565b60008135905061126381611d5c565b92915050565b60008060008060008060008060008060006101408c8e03121561128f5761128e611b92565b5b600061129d8e828f0161117c565b9b505060206112ae8e828f01611254565b9a505060408c013567ffffffffffffffff8111156112cf576112ce611b8d565b5b6112db8e828f016111bb565b995099505060606112ee8e828f0161123f565b97505060806112ff8e828f01611254565b96505060a06113108e828f01611254565b95505060c06113218e828f01611254565b94505060e06113328e828f0161117c565b9350506101006113448e828f0161117c565b9250506101206113568e828f01611254565b9150509295989b509295989b9093969950565b60006020828403121561137f5761137e611b92565b5b600061138d84828501611191565b91505092915050565b6000602082840312156113ac576113ab611b92565b5b60006113ba848285016111a6565b91505092915050565b600080604083850312156113da576113d9611b92565b5b600083013567ffffffffffffffff8111156113f8576113f7611b8d565b5b61140485828601611211565b925050602083013567ffffffffffffffff81111561142557611424611b8d565b5b61143185828601611211565b9150509250929050565b61144481611953565b82525050565b61145b61145682611991565b611afd565b82525050565b61147261146d82611965565b611af3565b82525050565b611489611484826119bd565b611b07565b82525050565b611498816119e9565b82525050565b6114af6114aa826119e9565b611b11565b82525050565b6114be816119f3565b82525050565b60006114d08385611926565b93506114dd838584611a80565b6114e683611b97565b840190509392505050565b60006114fc8261191b565b6115068185611926565b9350611516818560208601611a8f565b61151f81611b97565b840191505092915050565b60006115358261191b565b61153f8185611937565b935061154f818560208601611a8f565b80840191505092915050565b61156481611a5c565b82525050565b61157381611a6e565b82525050565b6000611586604283611942565b915061159182611ba8565b606082019050919050565b60006115a9602283611942565b91506115b482611c1d565b604082019050919050565b60006115cc602283611942565b91506115d782611c6c565b604082019050919050565b60006115ef602983611942565b91506115fa82611cbb565b604082019050919050565b61160e81611a52565b82525050565b6000611620828561144a565b600c820191506116308284611478565b6014820191508190509392505050565b600061164c8286611461565b60018201915061165c8285611461565b60018201915061166c828461149e565b602082019150819050949350505050565b6000611689828861152a565b9150611695828761149e565b6020820191506116a58286611461565b6001820191506116b5828561149e565b6020820191506116c5828461152a565b91508190509695505050505050565b60006020820190506116e9600083018461143b565b92915050565b600061014082019050611705600083018e61143b565b611712602083018d61156a565b8181036040830152611725818b8d6114c4565b9050611734606083018a61155b565b6117416080830189611605565b61174e60a0830188611605565b61175b60c0830187611605565b61176860e083018661143b565b61177661010083018561143b565b611784610120830184611605565b9c9b505050505050505050505050565b60006020820190506117a9600083018461148f565b92915050565b60006040820190506117c4600083018561148f565b6117d1602083018461148f565b9392505050565b60006020820190506117ed60008301846114b5565b92915050565b6000602082019050818103600083015261180d81846114f1565b905092915050565b6000604082019050818103600083015261182f81856114f1565b905061183e602083018461148f565b9392505050565b6000602082019050818103600083015261185e81611579565b9050919050565b6000602082019050818103600083015261187e8161159c565b9050919050565b6000602082019050818103600083015261189e816115bf565b9050919050565b600060208201905081810360008301526118be816115e2565b9050919050565b60006118cf6118e0565b90506118db8282611ac2565b919050565b6000604051905090565b600067ffffffffffffffff82111561190557611904611b4a565b5b61190e82611b97565b9050602081019050919050565b600081519050919050565b600082825260208201905092915050565b600081905092915050565b600082825260208201905092915050565b600061195e82611a32565b9050919050565b60007fff0000000000000000000000000000000000000000000000000000000000000082169050919050565b60007fffffffffffffffffffffffff000000000000000000000000000000000000000082169050919050565b60007fffffffffffffffffffffffffffffffffffffffff00000000000000000000000082169050919050565b6000819050919050565b60007fffffffff0000000000000000000000000000000000000000000000000000000082169050919050565b6000819050611a2d82611d0a565b919050565b600073ffffffffffffffffffffffffffffffffffffffff82169050919050565b6000819050919050565b6000611a6782611a1f565b9050919050565b6000611a7982611a52565b9050919050565b82818337600083830152505050565b60005b83811015611aad578082015181840152602081019050611a92565b83811115611abc576000848401525b50505050565b611acb82611b97565b810181811067ffffffffffffffff82111715611aea57611ae9611b4a565b5b80604052505050565b6000819050919050565b6000819050919050565b6000819050919050565b6000819050919050565b7f4e487b7100000000000000000000000000000000000000000000000000000000600052602160045260246000fd5b7f4e487b7100000000000000000000000000000000000000000000000000000000600052604160045260246000fd5b600080fd5b600080fd5b600080fd5b600080fd5b600080fd5b600080fd5b6000601f19601f8301169050919050565b7f5369676e65723a2063616e6e6f74207369676e207472616e73616374696f6e2060008201527f7472616e73616374696f6e20746f20696e76616c69642073656564466163746f60208201527f7279000000000000000000000000000000000000000000000000000000000000604082015250565b7f5369676e65723a207472616e73616374696f6e20616c7265616479207369676e60008201527f6564000000000000000000000000000000000000000000000000000000000000602082015250565b7f5369676e65723a20696e76616c696420617267756d656e74732070726f76696460008201527f6564000000000000000000000000000000000000000000000000000000000000602082015250565b7f5369676e65723a2063616e206f6e6c79207369676e2063616c6c7320746f206460008201527f65706c6f79536565640000000000000000000000000000000000000000000000602082015250565b60028110611d1b57611d1a611b1b565b5b50565b611d2781611953565b8114611d3257600080fd5b50565b611d3e816119e9565b8114611d4957600080fd5b50565b60028110611d5957600080fd5b50565b611d6581611a52565b8114611d7057600080fd5b5056fea2646970667358221220c00f893edc431b28c4782f3849782fd63254f3076d3243f27f881569e3a8ea2464736f6c63430008060033",
  "linkReferences": {},
  "deployedLinkReferences": {}
}