{
  "_format": "hh-sol-artifact-1",
  "contractName": "Signer",
  "sourceName": "contracts/utils/Signer.sol",
  "abi": [
    {
      "inputs": [
        {
          "internalType": "address",
          "name": "_safe",
          "type": "address"
        },
        {
          "internalType": "address",
          "name": "_seedFactory",
          "type": "address"
        }
      ],
      "stateMutability": "nonpayable",
      "type": "constructor"
    },
    {
      "anonymous": false,
      "inputs": [
        {
          "indexed": false,
          "internalType": "bytes",
          "name": "signature",
          "type": "bytes"
        },
        {
          "indexed": true,
          "internalType": "bytes32",
          "name": "hash",
          "type": "bytes32"
        }
      ],
      "name": "SignatureCreated",
      "type": "event"
    },
    {
      "inputs": [
        {
          "internalType": "bytes32",
          "name": "",
          "type": "bytes32"
        }
      ],
      "name": "approvedSignatures",
      "outputs": [
        {
          "internalType": "bytes32",
          "name": "",
          "type": "bytes32"
        }
      ],
      "stateMutability": "view",
      "type": "function"
    },
    {
      "inputs": [
        {
          "internalType": "bytes32",
          "name": "c__0x797fdf55",
          "type": "bytes32"
        }
      ],
      "name": "c_0x797fdf55",
      "outputs": [],
      "stateMutability": "pure",
      "type": "function"
    },
    {
      "inputs": [
        {
          "internalType": "address",
          "name": "_to",
          "type": "address"
        },
        {
          "internalType": "uint256",
          "name": "_value",
          "type": "uint256"
        },
        {
          "internalType": "bytes",
          "name": "_data",
          "type": "bytes"
        },
        {
          "internalType": "enum Enum.Operation",
          "name": "_operation",
          "type": "uint8"
        },
        {
          "internalType": "uint256",
          "name": "_safeTxGas",
          "type": "uint256"
        },
        {
          "internalType": "uint256",
          "name": "_baseGas",
          "type": "uint256"
        },
        {
          "internalType": "uint256",
          "name": "_gasPrice",
          "type": "uint256"
        },
        {
          "internalType": "address",
          "name": "_gasToken",
          "type": "address"
        },
        {
          "internalType": "address",
          "name": "_refundReceiver",
          "type": "address"
        },
        {
          "internalType": "uint256",
          "name": "_nonce",
          "type": "uint256"
        }
      ],
      "name": "generateSignature",
      "outputs": [
        {
          "internalType": "bytes",
          "name": "signature",
          "type": "bytes"
        },
        {
          "internalType": "bytes32",
          "name": "hash",
          "type": "bytes32"
        }
      ],
      "stateMutability": "nonpayable",
      "type": "function"
    },
    {
      "inputs": [
        {
          "internalType": "bytes",
          "name": "_data",
          "type": "bytes"
        },
        {
          "internalType": "bytes",
          "name": "_signature",
          "type": "bytes"
        }
      ],
      "name": "isValidSignature",
      "outputs": [
        {
          "internalType": "bytes4",
          "name": "",
          "type": "bytes4"
        }
      ],
      "stateMutability": "view",
      "type": "function"
    },
    {
      "inputs": [],
      "name": "safe",
      "outputs": [
        {
          "internalType": "address",
          "name": "",
          "type": "address"
        }
      ],
      "stateMutability": "view",
      "type": "function"
    },
    {
      "inputs": [],
      "name": "seedFactory",
      "outputs": [
        {
          "internalType": "address",
          "name": "",
          "type": "address"
        }
      ],
      "stateMutability": "view",
      "type": "function"
    }
  ],
  "bytecode": "0x60c06040523480156200001157600080fd5b506040516200226f3803806200226f833981810160405281019062000037919062000348565b6200006b7ffb39840ea53d191312f7e6581334fc453cd0871926a76e217e55a1516430996760001b6200032e60201b60201c565b6200009f7fcf4e678f741136acac4b68442c6a2f0fa5e750945daa0809b4828f10e214fb0760001b6200032e60201b60201c565b620000d37f6679067d8817548af375efa59b94cfed9310f3eee5dd02da22ebe3684f1435f860001b6200032e60201b60201c565b620001077ff707c78161af2b5b1d19bbc569df807b1df3c93a96324eef37ee32641bff02d960001b6200032e60201b60201c565b600073ffffffffffffffffffffffffffffffffffffffff168273ffffffffffffffffffffffffffffffffffffffff1614158015620001725750600073ffffffffffffffffffffffffffffffffffffffff168173ffffffffffffffffffffffffffffffffffffffff1614155b620001b4576040517f08c379a0000000000000000000000000000000000000000000000000000000008152600401620001ab90620003b6565b60405180910390fd5b620001e87fb957174207a6af05b471ead6ecb76afb77199b544b878df4679c3b9d69db5bb760001b6200032e60201b60201c565b6200021c7fd2402dd25caf7a2e62497aa6e6d2e66804e23c601898b63cf6dd639d58578ceb60001b6200032e60201b60201c565b620002507f101da318ea73d53d71bd23c4b2eee82c78691853c818d31c12a55b94677c28f760001b6200032e60201b60201c565b8173ffffffffffffffffffffffffffffffffffffffff1660808173ffffffffffffffffffffffffffffffffffffffff1660601b81525050620002bb7f73bf8b04a207b82cc57224ec578fe104d7f476ac1c879ae4b6b861ca26014c6f60001b6200032e60201b60201c565b620002ef7f587b4fe71cfa53749387c63ad07dbca2ff9f8f8040dfd5022cae806853d8866360001b6200032e60201b60201c565b8073ffffffffffffffffffffffffffffffffffffffff1660a08173ffffffffffffffffffffffffffffffffffffffff1660601b8152505050506200048b565b50565b600081519050620003428162000471565b92915050565b600080604083850312156200036257620003616200041d565b5b6000620003728582860162000331565b9250506020620003858582860162000331565b9150509250929050565b60006200039e603383620003d8565b9150620003ab8262000422565b604082019050919050565b60006020820190508181036000830152620003d1816200038f565b9050919050565b600082825260208201905092915050565b6000620003f682620003fd565b9050919050565b600073ffffffffffffffffffffffffffffffffffffffff82169050919050565b600080fd5b7f5369676e65723a205361666520616e642053656564466163746f72792061646460008201527f726573732063616e6e6f74206265207a65726f00000000000000000000000000602082015250565b6200047c81620003e9565b81146200048857600080fd5b50565b60805160601c60a05160601c611daa620004c56000396000818161015201526106c70152600081816101760152610ab70152611daa6000f3fe608060405234801561001057600080fd5b50600436106100625760003560e01c80630422a98614610067578063186f0354146100855780631ec9dfe8146100a357806320c13b0b146100bf57806374fe857a146100ef578063e14ff99814610120575b600080fd5b61006f610150565b60405161007c91906116d5565b60405180910390f35b61008d610174565b60405161009a91906116d5565b60405180910390f35b6100bd60048036038101906100b8919061136a565b610198565b005b6100d960048036038101906100d491906113c4565b61019b565b6040516100e691906117d9565b60405180910390f35b6101096004803603810190610104919061126a565b610611565b604051610117929190611816565b60405180910390f35b61013a6004803603810190610135919061136a565b610f10565b6040516101479190611795565b60405180910390f35b7f000000000000000000000000000000000000000000000000000000000000000081565b7f000000000000000000000000000000000000000000000000000000000000000081565b50565b60006101c97f8df81d2e7046b429a8df4e9883001d9ac514716c5682abb1ed1eae77c5be8a9660001b610198565b6101f57f19461ec1a618e1b3c7189e53597996a4b4a8c7a61bcd7977c03245f7e8bf4ce960001b610198565b6102217ffec8643e487c0ff3d45421c247c7d66e49cb1fe816eebb0c4051c1464d4a947560001b610198565b602083511415610423576102577f2e637bab6efdecf02c30156549a48664d071b1d37a7554f431ec70ec2e4545aa60001b610198565b6102837fed3c3f6308eca44c202f4e1e0e50ed4259cca5a30acd7694e870510d0c95318b60001b610198565b6102af7f71c98ecf80d58d07e0cd73a83878eff19beaf8209358d07bd6f2301f0fa6c11460001b610198565b60006102dd7faac0880a6a14c91cdc3ae72a82bd6b508529c1a65849106533ef95ec604695df60001b610198565b602084015190506103107f8250761cff588b923e0e57d9d4b070d113f09db6d7e8f39f36c169b4f605b1a560001b610198565b61033c7f95aeb0490da866607d063b1594a105e5882bd28141b349757cac553c18b708be60001b610198565b82805190602001206000808381526020019081526020016000205414156103f1576103897f56b575ddf4257e8334d47afe65eaf1906edffa29fc6b1a0ee177352075d8c1ad60001b610198565b6103b57f3fbcd9e6e060cf9ee1d92d1acd9e07262175cf25a94ffcb00c6e98ca2e700ce260001b610198565b6103e17fd9d6c55fdf2ae580f3307bc492415a7b3b8ae86fa4cdf44f51aeb8efdf47f04260001b610198565b6320c13b0b60e01b91505061060b565b61041d7f5eaf77bb05f96b76fd9bd984fb58e3b5f56f402d39082a16394e66a925a981b460001b610198565b5061058f565b61044f7f401dacc28c053c9f86a718592316da31d40bdfe524f0605f722bfc3c661b703160001b610198565b61047b7f948d58fd86b28deeac5094bdcb9b24b4b0ecebf4ee3b3fb81d3d7ac08b07728760001b610198565b6104a77f5f9a06af9ab17241bc38cb31f55f1e11778132e677be203e40a5bebb3b663a5a60001b610198565b818051906020012060008085805190602001208152602001908152602001600020541415610562576104fb7fc9363e1cef8e816fae80e1ea69637c2b848111b981bcf7eb35397409e371fabf60001b610198565b6105277f3ab999a414439279951fa1b8277e293f56e03a672fc99494b5d8a50eb37c2ee560001b610198565b6105537fc4e8a38284dd6e74d4a2dd398beb3543a827b6eb7bac1823c44ab87b1ca9fafb60001b610198565b6320c13b0b60e01b905061060b565b61058e7f536c9673b8b22283d58ca6e109172cd7ec5096358b45450d925d3be21a4639c760001b610198565b5b6105bb7fe9b70e8f599c5b3ce12da98e1061c2aaf844c9e98c7205305f179a260c21819860001b610198565b6105e77f2a4adf0eb2bb0949a3116762c4409f7f41b3d1a1c8c37888b9a9ff53d3580de160001b610198565b7f307800000000000000000000000000000000000000000000000000000000000090505b92915050565b606060006106417ff001ad3de1e0ec60f53d63cf135bf215e7294d55baac6fe40ee5bea112f7e9dd60001b610198565b61066d7fdd83904cd92b2828ce1890c0563503875e7d067bea6d5b6da5a76911e912567660001b610198565b6106997f48e4c52b9aa22990b5b29d93e9732947517380b70bf98729cf8519b594718c2060001b610198565b6106c57f07ed439d1445d8a26f58d423f1be435fa463813ce2bf343b8b0291c15546d47860001b610198565b7f000000000000000000000000000000000000000000000000000000000000000073ffffffffffffffffffffffffffffffffffffffff168d73ffffffffffffffffffffffffffffffffffffffff1614610753576040517f08c379a000000000000000000000000000000000000000000000000000000000815260040161074a90611846565b60405180910390fd5b61077f7f6c02cd8ee35638d0a062356289d1699ec8c02806386851661dc269f852f458fb60001b610198565b6107ab7fc264114a5fba6a976d6041032b1455d9c37839a03d7a529c13894740019e104d60001b610198565b6107d77f1742e9b476a60a32dd79829cd01e7f607f2f84837ea687a5c3c05060b21dc4c960001b610198565b6108037f2eab5d118deabbd06d756213a9f86d6e3c9af1e09e68dbde0911aeeef8ba0f4e60001b610198565b63da235e6e60e01b7bffffffffffffffffffffffffffffffffffffffffffffffffffffffff19166108778c8c8080601f016020809104026020016040519081016040528093929190818152602001838380828437600081840152601f19601f82011690508083019250505050505050610f28565b7bffffffffffffffffffffffffffffffffffffffffffffffffffffffff1916146108d6576040517f08c379a00000000000000000000000000000000000000000000000000000000081526004016108cd906118a6565b60405180910390fd5b6109027f587cf0f420842646ee625f3cd6ceb271a46e70d4e94568216ac034fb0e0a38d560001b610198565b61092e7f158013d5f3d5fb98a241cf45253d16d2b0163ffecbed21cc571fc789e663d28060001b610198565b61095a7fac5bc7f86d184fcc0c3cc6205327bb4314fbcb794281ae3a2b1b45d37492465b60001b610198565b6109867f0241372849650ec12904ebed466303335256ff2abd1f0c721698a31784fb3c6a60001b610198565b60008c1480156109c25750600073ffffffffffffffffffffffffffffffffffffffff168473ffffffffffffffffffffffffffffffffffffffff16145b80156109f25750600060018111156109dd576109dc611b1c565b5b8960018111156109f0576109ef611b1c565b5b145b610a31576040517f08c379a0000000000000000000000000000000000000000000000000000000008152600401610a2890611886565b60405180910390fd5b610a5d7f535bdf91d21d5f4f932fdab21e1c5f1fe7464c9861ff911a5cd9c9732c5e91cf60001b610198565b610a897f1fbde1fb6fb8e4c8ff3ebbd03f1ad04118d143153574e478f107d1a007ee75c060001b610198565b610ab57fc3840d4cb6713fde7dc882015aa064695d308a88e4c98f7436c463f49245e25960001b610198565b7f000000000000000000000000000000000000000000000000000000000000000073ffffffffffffffffffffffffffffffffffffffff1663d8d11f788e60008e8e8e8e8e8e8e8e8e6040518c63ffffffff1660e01b8152600401610b239b9a999897969594939291906116f0565b60206040518083038186803b158015610b3b57600080fd5b505afa158015610b4f573d6000803e3d6000fd5b505050506040513d601f19601f82011682018060405250810190610b739190611397565b9050610ba17f742fd5350f3a7ec6e37a79989257c41df682093c2f8f12e72286321354d21e2b60001b610198565b610bcd7f0c9c71bfd69a4f2088d16c2c91085b17b237b87ecdd6c65154629e9ce6af650660001b610198565b60008060a01b3060601b604051602001610be8929190611615565b6040516020818303038152906040529050610c257fba85312b87334f1198190fadd2fcf8d8df767dfafddd8865f2eab4500b7d040d60001b610198565b610c517f5324cbeb9f909c0f7c2a6e98d2b5ad822cfc7f193ee3e2fb3e3215d76c39828560001b610198565b6000610c5c83610f8e565b9050610c8a7fa0ca0d63d9b8f110df58c1131f540bc64233df307a2aa3dc1e5a3edf5159c86860001b610198565b610cb67f16b235839b9eacab8750a0d02f4ab96a2c7cbd3689b5b17d046492a1d692b67860001b610198565b610ce27f3f8a48574bf10ea6df26ccd4629b360e317a14e5b53c2fe1fa9ee58a6da0188660001b610198565b8080519060200120600080858152602001908152602001600020541415610d3e576040517f08c379a0000000000000000000000000000000000000000000000000000000008152600401610d3590611866565b60405180910390fd5b610d6a7f7d7494f1355b2dcf29c5dd80896fe38ab265f404937edf9aa15c24366e5d4f8160001b610198565b610d967f61d5e381ec996600f5fecf8f18fdc009084314fb54af4466a4b0393713be4e5160001b610198565b610dc27f60d48d74ebc32c1d2c8f4b674d7ffaa53b1a1e8e8d8a48ec6e0e92695491e78960001b610198565b81604160001b600060f81b835160001b84604051602001610de795949392919061167e565b6040516020818303038152906040529350610e247f9a73cd2871b2b3173e0a95eced5be9835aaaaee85549b2ec56da9b9e0f42d2be60001b610198565b610e507f250709827e963c6f857882921390077e92445818d1afee3db96a4f526a0c8d0160001b610198565b808051906020012060008085815260200190815260200160002081905550610e9a7f2fa35175537509a5e73d2c6e749a2e4d312a7b250f4d9fec82faa32691b3f30d60001b610198565b610ec67fd85bd99926ce802be941df758414c7172ea972edb1773023c95f531417bea20560001b610198565b827f4418bf19096bdd1b926a95d3cba8654e780b1b8b9a68526fb2faa0de58040d8585604051610ef691906117f4565b60405180910390a250509b509b9950505050505050505050565b60006020528060005260406000206000915090505481565b6000610f567fdd16b741c680b4e89fe155765e3041f0d31ce0f28928dc0fa3516ca8efd994b560001b610198565b610f827f614f3256abf07ade4fb2a10f21e62df8c1219e578ad1a5661dca7bc66cf3e33d60001b610198565b60208201519050919050565b6060610fbc7fd190ed53020b384ed3e95f0d5c23ee63ded605bfbfca13fd615efaf89ea190b760001b610198565b610fe87f9b21fe0fc971c302402afccc874aacbe8b5b2bbf85489f666ecdf35a7157bba860001b610198565b6110147f0e099e517a28340d1f2025040e5723face5309bcbe114d4b4da47b167329373a60001b610198565b60007fa1a7ad659422d5fc08fdc481fd7d8af8daf7993bc4e833452b0268ceaab66e5d60001b8360405160200161104c9291906117b0565b6040516020818303038152906040528051906020012090506110907fefcbbc510992a5d3530ac4dc9bddc64cf0ac1003fac9e9f56b2e0e8edb0e78c460001b610198565b6110bc7ff3e172af90a1a28e8d648c158574fa161057a8f6d9dc27f6ea5de28226cd511460001b610198565b601960f81b602360f81b7f7a9f5b2bf4dbb53eb85e012c6094a3d71d76e5bfe821f44ab63ed59311264e3560001b836040516020016110fc9291906117b0565b6040516020818303038152906040528051906020012060405160200161112493929190611641565b604051602081830303815290604052915050919050565b600061114e611149846118eb565b6118c6565b90508281526020810184848401111561116a57611169611b89565b5b611175848285611a81565b509392505050565b60008135905061118c81611d1f565b92915050565b6000813590506111a181611d36565b92915050565b6000815190506111b681611d36565b92915050565b60008083601f8401126111d2576111d1611b7f565b5b8235905067ffffffffffffffff8111156111ef576111ee611b7a565b5b60208301915083600182028301111561120b5761120a611b84565b5b9250929050565b600082601f83011261122757611226611b7f565b5b813561123784826020860161113b565b91505092915050565b60008135905061124f81611d4d565b92915050565b60008135905061126481611d5d565b92915050565b60008060008060008060008060008060006101408c8e0312156112905761128f611b93565b5b600061129e8e828f0161117d565b9b505060206112af8e828f01611255565b9a505060408c013567ffffffffffffffff8111156112d0576112cf611b8e565b5b6112dc8e828f016111bc565b995099505060606112ef8e828f01611240565b97505060806113008e828f01611255565b96505060a06113118e828f01611255565b95505060c06113228e828f01611255565b94505060e06113338e828f0161117d565b9350506101006113458e828f0161117d565b9250506101206113578e828f01611255565b9150509295989b509295989b9093969950565b6000602082840312156113805761137f611b93565b5b600061138e84828501611192565b91505092915050565b6000602082840312156113ad576113ac611b93565b5b60006113bb848285016111a7565b91505092915050565b600080604083850312156113db576113da611b93565b5b600083013567ffffffffffffffff8111156113f9576113f8611b8e565b5b61140585828601611212565b925050602083013567ffffffffffffffff81111561142657611425611b8e565b5b61143285828601611212565b9150509250929050565b61144581611954565b82525050565b61145c61145782611992565b611afe565b82525050565b61147361146e82611966565b611af4565b82525050565b61148a611485826119be565b611b08565b82525050565b611499816119ea565b82525050565b6114b06114ab826119ea565b611b12565b82525050565b6114bf816119f4565b82525050565b60006114d18385611927565b93506114de838584611a81565b6114e783611b98565b840190509392505050565b60006114fd8261191c565b6115078185611927565b9350611517818560208601611a90565b61152081611b98565b840191505092915050565b60006115368261191c565b6115408185611938565b9350611550818560208601611a90565b80840191505092915050565b61156581611a5d565b82525050565b61157481611a6f565b82525050565b6000611587604283611943565b915061159282611ba9565b606082019050919050565b60006115aa602283611943565b91506115b582611c1e565b604082019050919050565b60006115cd602283611943565b91506115d882611c6d565b604082019050919050565b60006115f0602983611943565b91506115fb82611cbc565b604082019050919050565b61160f81611a53565b82525050565b6000611621828561144b565b600c820191506116318284611479565b6014820191508190509392505050565b600061164d8286611462565b60018201915061165d8285611462565b60018201915061166d828461149f565b602082019150819050949350505050565b600061168a828861152b565b9150611696828761149f565b6020820191506116a68286611462565b6001820191506116b6828561149f565b6020820191506116c6828461152b565b91508190509695505050505050565b60006020820190506116ea600083018461143c565b92915050565b600061014082019050611706600083018e61143c565b611713602083018d61156b565b8181036040830152611726818b8d6114c5565b9050611735606083018a61155c565b6117426080830189611606565b61174f60a0830188611606565b61175c60c0830187611606565b61176960e083018661143c565b61177761010083018561143c565b611785610120830184611606565b9c9b505050505050505050505050565b60006020820190506117aa6000830184611490565b92915050565b60006040820190506117c56000830185611490565b6117d26020830184611490565b9392505050565b60006020820190506117ee60008301846114b6565b92915050565b6000602082019050818103600083015261180e81846114f2565b905092915050565b6000604082019050818103600083015261183081856114f2565b905061183f6020830184611490565b9392505050565b6000602082019050818103600083015261185f8161157a565b9050919050565b6000602082019050818103600083015261187f8161159d565b9050919050565b6000602082019050818103600083015261189f816115c0565b9050919050565b600060208201905081810360008301526118bf816115e3565b9050919050565b60006118d06118e1565b90506118dc8282611ac3565b919050565b6000604051905090565b600067ffffffffffffffff82111561190657611905611b4b565b5b61190f82611b98565b9050602081019050919050565b600081519050919050565b600082825260208201905092915050565b600081905092915050565b600082825260208201905092915050565b600061195f82611a33565b9050919050565b60007fff0000000000000000000000000000000000000000000000000000000000000082169050919050565b60007fffffffffffffffffffffffff000000000000000000000000000000000000000082169050919050565b60007fffffffffffffffffffffffffffffffffffffffff00000000000000000000000082169050919050565b6000819050919050565b60007fffffffff0000000000000000000000000000000000000000000000000000000082169050919050565b6000819050611a2e82611d0b565b919050565b600073ffffffffffffffffffffffffffffffffffffffff82169050919050565b6000819050919050565b6000611a6882611a20565b9050919050565b6000611a7a82611a53565b9050919050565b82818337600083830152505050565b60005b83811015611aae578082015181840152602081019050611a93565b83811115611abd576000848401525b50505050565b611acc82611b98565b810181811067ffffffffffffffff82111715611aeb57611aea611b4b565b5b80604052505050565b6000819050919050565b6000819050919050565b6000819050919050565b6000819050919050565b7f4e487b7100000000000000000000000000000000000000000000000000000000600052602160045260246000fd5b7f4e487b7100000000000000000000000000000000000000000000000000000000600052604160045260246000fd5b600080fd5b600080fd5b600080fd5b600080fd5b600080fd5b600080fd5b6000601f19601f8301169050919050565b7f5369676e65723a2063616e6e6f74207369676e207472616e73616374696f6e2060008201527f7472616e73616374696f6e20746f20696e76616c69642073656564466163746f60208201527f7279000000000000000000000000000000000000000000000000000000000000604082015250565b7f5369676e65723a207472616e73616374696f6e20616c7265616479207369676e60008201527f6564000000000000000000000000000000000000000000000000000000000000602082015250565b7f5369676e65723a20696e76616c696420617267756d656e74732070726f76696460008201527f6564000000000000000000000000000000000000000000000000000000000000602082015250565b7f5369676e65723a2063616e206f6e6c79207369676e2063616c6c7320746f206460008201527f65706c6f79536565640000000000000000000000000000000000000000000000602082015250565b60028110611d1c57611d1b611b1c565b5b50565b611d2881611954565b8114611d3357600080fd5b50565b611d3f816119ea565b8114611d4a57600080fd5b50565b60028110611d5a57600080fd5b50565b611d6681611a53565b8114611d7157600080fd5b5056fea2646970667358221220e1550df9862b02b94475d3ba61d871c7af5ead0e1b2533130dfc05619085831664736f6c63430008060033",
  "linkReferences": {},
  "deployedLinkReferences": {}
}