{
  "_format": "hh-sol-artifact-1",
  "contractName": "LiquidityBootstrappingPoolFactory",
  "sourceName": "contracts/smart/LiquidityBootstrappingPoolFactory.sol",
  "abi": [
    {
      "inputs": [
        {
          "internalType": "contract IVault",
          "name": "vault",
          "type": "address"
        }
      ],
      "stateMutability": "nonpayable",
      "type": "constructor"
    },
    {
      "anonymous": false,
      "inputs": [
        {
          "indexed": true,
          "internalType": "address",
          "name": "pool",
          "type": "address"
        }
      ],
      "name": "PoolCreated",
      "type": "event"
    },
    {
      "inputs": [
        {
          "internalType": "string",
          "name": "name",
          "type": "string"
        },
        {
          "internalType": "string",
          "name": "symbol",
          "type": "string"
        },
        {
          "internalType": "contract IERC20[]",
          "name": "tokens",
          "type": "address[]"
        },
        {
          "internalType": "uint256[]",
          "name": "weights",
          "type": "uint256[]"
        },
        {
          "internalType": "uint256",
          "name": "swapFeePercentage",
          "type": "uint256"
        },
        {
          "internalType": "address",
          "name": "owner",
          "type": "address"
        },
        {
          "internalType": "bool",
          "name": "swapEnabledOnStart",
          "type": "bool"
        }
      ],
      "name": "create",
      "outputs": [
        {
          "internalType": "address",
          "name": "",
          "type": "address"
        }
      ],
      "stateMutability": "nonpayable",
      "type": "function"
    },
    {
      "inputs": [],
      "name": "getCreationCode",
      "outputs": [
        {
          "internalType": "bytes",
          "name": "",
          "type": "bytes"
        }
      ],
      "stateMutability": "view",
      "type": "function"
    },
    {
      "inputs": [],
      "name": "getCreationCodeContracts",
      "outputs": [
        {
          "internalType": "address",
          "name": "contractA",
          "type": "address"
        },
        {
          "internalType": "address",
          "name": "contractB",
          "type": "address"
        }
      ],
      "stateMutability": "view",
      "type": "function"
    },
    {
      "inputs": [],
      "name": "getPauseConfiguration",
      "outputs": [
        {
          "internalType": "uint256",
          "name": "pauseWindowDuration",
          "type": "uint256"
        },
        {
          "internalType": "uint256",
          "name": "bufferPeriodDuration",
          "type": "uint256"
        }
      ],
      "stateMutability": "view",
      "type": "function"
    },
    {
      "inputs": [],
      "name": "getVault",
      "outputs": [
        {
          "internalType": "contract IVault",
          "name": "",
          "type": "address"
        }
      ],
      "stateMutability": "view",
      "type": "function"
    },
    {
      "inputs": [
        {
          "internalType": "address",
          "name": "pool",
          "type": "address"
        }
      ],
      "name": "isPoolFromFactory",
      "outputs": [
        {
          "internalType": "bool",
          "name": "",
          "type": "bool"
        }
      ],
      "stateMutability": "view",
      "type": "function"
    }
  ],
  "bytecode": "0x6101406040523480156200001257600080fd5b50604051620070d1380380620070d18339810160408190526200003591620001c3565b80604051806020016200004890620001b5565b601f1982820381018352601f909101166040528051819060006002820460a081905280830360e0819052818552909150836200009081620000f9602090811b6200028617901c565b60601b6001600160601b0319166080528285018051838252620000bf82620000f9602090811b6200028617901c565b6001600160601b0319606091821b811660c0529690935290529590951b90911661010052505050426276a700016101205250620001f39050565b80517f602038038060206000396000f3fefefefefefefefefefefefefefefefefefefe808352600091602081018484f09084529150620001476001600160a01b03831615156101ac6200014d565b50919050565b816200015e576200015e8162000162565b5050565b62461bcd60e51b6000908152602060045260076024526642414c23000030600a808404818106603090810160081b95839006959095019082900491820690940160101b939093010160c81b604452606490fd5b6163bb8062000d1683390190565b600060208284031215620001d5578081fd5b81516001600160a01b0381168114620001ec578182fd5b9392505050565b60805160601c60a05160c05160601c60e0516101005160601c61012051610ac162000255600039806101d352806101fc5250806102645250806102ed52508061014a528061036952508061030e52508061012952806103455250610ac16000f3fe608060405234801561001057600080fd5b50600436106100715760003560e01c80632da47c40116100505780632da47c40146100ca5780636634b753146100e05780638d928af81461010057610071565b8062c194db14610076578063174481fa1461009457806323679719146100aa575b600080fd5b61007e610108565b60405161008b919061090e565b60405180910390f35b61009c610127565b60405161008b9291906108dc565b6100bd6100b8366004610723565b61016d565b60405161008b91906108bb565b6100d26101cd565b60405161008b9291906109f8565b6100f36100ee366004610707565b610237565b60405161008b9190610903565b6100bd610262565b6060610122604051806020016040528060008152506102e5565b905090565b7f00000000000000000000000000000000000000000000000000000000000000007f00000000000000000000000000000000000000000000000000000000000000009091565b600080600061017a6101cd565b915091506101bf610189610262565b8b8b8b8b8b88888d8d6040516020016101ab9a99989796959493929190610921565b6040516020818303038152906040526103be565b9a9950505050505050505050565b600080427f000000000000000000000000000000000000000000000000000000000000000081101561022957807f000000000000000000000000000000000000000000000000000000000000000003925062278d009150610232565b60009250600091505b509091565b73ffffffffffffffffffffffffffffffffffffffff1660009081526020819052604090205460ff1690565b7f000000000000000000000000000000000000000000000000000000000000000090565b80517f602038038060206000396000f3fefefefefefefefefefefefefefefefefefefe808352600091602081018484f090845291506102df73ffffffffffffffffffffffffffffffffffffffff831615156101ac610449565b50919050565b8051604080517f00000000000000000000000000000000000000000000000000000000000000007f0000000000000000000000000000000000000000000000000000000000000000818101858101848101602090810190965280855293957f00000000000000000000000000000000000000000000000000000000000000009592947f000000000000000000000000000000000000000000000000000000000000000094938801866000828a3c846000888301883c50602089810190898501016103b081838661045b565b505050505050505050919050565b6000806103ca836104d5565b73ffffffffffffffffffffffffffffffffffffffff811660008181526020819052604080822080547fffffffffffffffffffffffffffffffffffffffffffffffffffffffffffffff001660011790555192935090917f83a48fbcfc991335314e74d0496aab6a1987e992ddc85dddbcc4d6dd6ef2e9fc9190a292915050565b81610457576104578161051d565b5050565b5b602081106104995781518352602092830192909101907fffffffffffffffffffffffffffffffffffffffffffffffffffffffffffffffe00161045c565b905182516020929092036101000a7fffffffffffffffffffffffffffffffffffffffffffffffffffffffffffffffff0180199091169116179052565b600060606104e2836102e5565b905060008151602083016000f0905073ffffffffffffffffffffffffffffffffffffffff8116610516573d6000803e3d6000fd5b9392505050565b7f08c379a0000000000000000000000000000000000000000000000000000000006000908152602060045260076024526642414c23000030600a808404818106603090810160081b95839006959095019082900491820690940160101b939093010160c81b604452606490fd5b803561059581610a66565b92915050565b600082601f8301126105ab578081fd5b81356105be6105b982610a2d565b610a06565b8181529150602080830190848101818402860182018710156105df57600080fd5b60005b848110156106075781356105f581610a66565b845292820192908201906001016105e2565b505050505092915050565b600082601f830112610622578081fd5b81356106306105b982610a2d565b81815291506020808301908481018184028601820187101561065157600080fd5b60005b8481101561060757813584529282019290820190600101610654565b8035801515811461059557600080fd5b600082601f830112610690578081fd5b813567ffffffffffffffff8111156106a6578182fd5b6106d760207fffffffffffffffffffffffffffffffffffffffffffffffffffffffffffffffe0601f84011601610a06565b91508082528360208285010111156106ee57600080fd5b8060208401602084013760009082016020015292915050565b600060208284031215610718578081fd5b813561051681610a66565b600080600080600080600060e0888a03121561073d578283fd5b873567ffffffffffffffff80821115610754578485fd5b6107608b838c01610680565b985060208a0135915080821115610775578485fd5b6107818b838c01610680565b975060408a0135915080821115610796578485fd5b6107a28b838c0161059b565b965060608a01359150808211156107b7578485fd5b506107c48a828b01610612565b945050608088013592506107db8960a08a0161058a565b91506107ea8960c08a01610670565b905092959891949750929550565b73ffffffffffffffffffffffffffffffffffffffff169052565b6000815180845260208085019450808401835b8381101561084157815187529582019590820190600101610825565b509495945050505050565b15159052565b60008151808452815b818110156108775760208185018101518683018201520161085b565b818111156108885782602083870101525b50601f017fffffffffffffffffffffffffffffffffffffffffffffffffffffffffffffffe0169290920160200192915050565b73ffffffffffffffffffffffffffffffffffffffff91909116815260200190565b73ffffffffffffffffffffffffffffffffffffffff92831681529116602082015260400190565b901515815260200190565b6000602082526105166020830184610852565b600061014073ffffffffffffffffffffffffffffffffffffffff8d168352602081818501526109528285018e610852565b91508382036040850152610966828d610852565b84810360608601528b51808252828d01935090820190845b818110156109a2576109908551610a4d565b8352938301939183019160010161097e565b505084810360808601526109b6818c610812565b93505050508660a08301528560c08301528460e08301526109db6101008301856107f8565b6109e961012083018461084c565b9b9a5050505050505050505050565b918252602082015260400190565b60405181810167ffffffffffffffff81118282101715610a2557600080fd5b604052919050565b600067ffffffffffffffff821115610a43578081fd5b5060209081020190565b73ffffffffffffffffffffffffffffffffffffffff1690565b73ffffffffffffffffffffffffffffffffffffffff81168114610a8857600080fd5b5056fea2646970667358221220f2aab8f2f5d0e91085284ce9ef216a8957e54d90cb325291025fec1e2bed845464736f6c634300070100336103e06040527f6e71edae12b1b97f4d1f60370fef10105fa2faae0126114a169c64845d6126c9610120523480156200003757600080fd5b50604051620063bb380380620063bb8339810160408190526200005a9162000e71565b898989898a516001600160401b03811180156200007657600080fd5b50604051908082528060200260200182016040528015620000a1578160200160208202803683370190505b5089898989888651600214620000b9576001620000bc565b60025b8989898989898989828289898180604051806040016040528060018152602001603160f81b815250848489336001600160a01b031660001b806080818152505050806001600160a01b031660a0816001600160a01b031660601b815250505081600390805190602001906200013392919062000c29565b5080516200014990600490602084019062000c29565b50506005805460ff1916601217905550815160209283012060c052805191012060e05250507f8b73c3c69bb8fe3d512ecc4cf759cc79239f7b179b0ffacaa9a75d522b39400f6101005250620001a86276a700831115610194620006b9565b620001bc62278d00821115610195620006b9565b4290910161014081905201610160528551620001de906002111560c8620006b9565b620001f660088751111560c9620006b960201b60201c565b6200020c86620006ce60201b62000fef1760201c565b6200021784620006da565b6040516309b2760f60e01b81526000906001600160a01b038c16906309b2760f9062000248908d9060040162001086565b602060405180830381600087803b1580156200026357600080fd5b505af115801562000278573d6000803e3d6000fd5b505050506040513d601f19601f820116820180604052508101906200029e919062000e58565b604051633354e3e960e11b81529091506001600160a01b038c16906366a9c7d290620002d39084908b908b9060040162000fea565b600060405180830381600087803b158015620002ee57600080fd5b505af115801562000303573d6000803e3d6000fd5b505088516001600160601b031960608f901b16610180526101a08490526101c081905291505080620003375760006200034e565b876000815181106200034557fe5b60200260200101515b60601b6001600160601b0319166101e052600181116200037057600062000387565b876001815181106200037e57fe5b60200260200101515b60601b6001600160601b0319166102005260028111620003a9576000620003c0565b87600281518110620003b757fe5b60200260200101515b60601b6001600160601b0319166102205260038111620003e2576000620003f9565b87600381518110620003f057fe5b60200260200101515b60601b6001600160601b03191661024052600481116200041b57600062000432565b876004815181106200042957fe5b60200260200101515b60601b6001600160601b0319166102605260058111620004545760006200046b565b876005815181106200046257fe5b60200260200101515b60601b6001600160601b03191661028052600681116200048d576000620004a4565b876006815181106200049b57fe5b60200260200101515b60601b6001600160601b0319166102a05260078111620004c6576000620004dd565b87600781518110620004d457fe5b60200260200101515b60601b6001600160601b0319166102c05280620004fc57600062000522565b62000522886000815181106200050e57fe5b60200260200101516200074960201b60201c565b6102e052600181116200053757600062000549565b62000549886001815181106200050e57fe5b61030052600281116200055e57600062000570565b62000570886002815181106200050e57fe5b61032052600381116200058557600062000597565b62000597886003815181106200050e57fe5b6103405260048111620005ac576000620005be565b620005be886004815181106200050e57fe5b6103605260058111620005d3576000620005e5565b620005e5886005815181106200050e57fe5b6103805260068111620005fa5760006200060c565b6200060c886006815181106200050e57fe5b6103a052600781116200062157600062000633565b62000633886007815181106200050e57fe5b6103c081815250505050505050505050505050505050505050505050506001600a8190555060008751905062000675600482111560c9620006b960201b60201c565b6200068d818851620007f560201b62000ff91760201c565b426200069c81808a8062000804565b620006a78362000997565b5050505050505050505050506200114d565b81620006ca57620006ca81620009d7565b5050565b80620006ca8162000a2a565b620006ef64e8d4a5100082101560cb620006b9565b6200070767016345785d8a000082111560ca620006b9565b60088190556040517fa9ba3ffe0b6c366b81232caab38605a0699ad5398d6cce76f91ee809e322dafc906200073e9083906200109b565b60405180910390a150565b600080826001600160a01b031663313ce5676040518163ffffffff1660e01b815260040160206040518083038186803b1580156200078657600080fd5b505afa1580156200079b573d6000803e3d6000fd5b505050506040513d601f19601f82011682018060405250810190620007c1919062000f80565b60ff1690506000620007e060128362000ab760201b620010061760201c565b600a0a670de0b6b3a764000002949350505050565b620006ca8282146067620006b9565b600c546000805b8351811015620008f25760008482815181106200082457fe5b602002602001015190506200084c662386f26fc1000082101561012e620006b960201b60201c565b620008916200087a8784815181106200086157fe5b602002602001015162000ad460201b6200101c1760201c565b85906020808602906200104062000b17821b17901c565b9350620008ca620008ad8262000b2960201b620010521760201c565b836010026080018662000b5660201b6200106c179092919060201c565b9350620008e6818462000b6660201b6200107c1790919060201c565b9250506001016200080b565b506200090b670de0b6b3a76400008214610134620006b9565b620009288660c08462000b1760201b62001040179092919060201c565b9150620009478560e08462000b1760201b62001040179092919060201c565b915081600c819055507f0f3631f9dab08169d1db21c6dc5f32536fb2b0a6b9bb5330d71c52132f968be086868686604051620009879493929190620010a4565b60405180910390a1505050505050565b600b805460ff19168215151790556040517f5a9e84f78f7957cb4ed7478eb0fcad35ee4ecbe2e0f298420b28a3955392573f906200073e90839062000fdf565b62461bcd60e51b6000908152602060045260076024526642414c23000030600a808404818106603090810160081b95839006959095019082900491820690940160101b939093010160c81b604452606490fd5b60028151101562000a3b5762000ab4565b60008160008151811062000a4b57fe5b602002602001015190506000600190505b825181101562000ab157600083828151811062000a7557fe5b6020026020010151905062000aa6816001600160a01b0316846001600160a01b0316106065620006b960201b60201c565b915060010162000a5c565b50505b50565b600062000ac9838311156001620006b9565b508082035b92915050565b600062000ace670de0b6b3a764000062000b0363ffffffff80168562000b8160201b6200108e1790919060201c565b62000bd660201b620010fa1790919060201c565b63ffffffff811b1992909216911b1790565b600062000ace670de0b6b3a764000062000b0361ffff80168562000b8160201b6200108e1790919060201c565b61ffff811b1992909216911b1790565b600082820162000b7a8482101583620006b9565b9392505050565b600082820262000ba984158062000ba157508385838162000b9e57fe5b04145b6003620006b9565b8062000bba57600091505062000ace565b670de0b6b3a764000060001982015b0460010191505062000ace565b600062000be78215156004620006b9565b8262000bf65750600062000ace565b670de0b6b3a76400008381029062000c1c9085838162000c1257fe5b04146005620006b9565b82600182038162000bc957fe5b828054600181600116156101000203166002900490600052602060002090601f016020900481019282601f1062000c6c57805160ff191683800117855562000c9c565b8280016001018555821562000c9c579182015b8281111562000c9c57825182559160200191906001019062000c7f565b5062000caa92915062000cae565b5090565b5b8082111562000caa576000815560010162000caf565b805162000ace8162001137565b600082601f83011262000ce3578081fd5b815162000cfa62000cf4826200110b565b620010e4565b81815291506020808301908481018184028601820187101562000d1c57600080fd5b60005b8481101562000d4857815162000d358162001137565b8452928201929082019060010162000d1f565b505050505092915050565b600082601f83011262000d64578081fd5b815162000d7562000cf4826200110b565b81815291506020808301908481018184028601820187101562000d9757600080fd5b60005b8481101562000d485781518452928201929082019060010162000d9a565b8051801515811462000ace57600080fd5b600082601f83011262000dda578081fd5b81516001600160401b0381111562000df0578182fd5b602062000e06601f8301601f19168201620010e4565b9250818352848183860101111562000e1d57600080fd5b60005b8281101562000e3d57848101820151848201830152810162000e20565b8281111562000e4f5760008284860101525b50505092915050565b60006020828403121562000e6a578081fd5b5051919050565b6000806000806000806000806000806101408b8d03121562000e91578586fd5b62000e9d8c8c62000cc5565b60208c0151909a506001600160401b038082111562000eba578788fd5b62000ec88e838f0162000dc9565b9a5060408d015191508082111562000ede578788fd5b62000eec8e838f0162000dc9565b995060608d015191508082111562000f02578788fd5b62000f108e838f0162000cd2565b985060808d015191508082111562000f26578788fd5b5062000f358d828e0162000d53565b96505060a08b0151945060c08b0151935060e08b0151925062000f5d8c6101008d0162000cc5565b915062000f6f8c6101208d0162000db8565b90509295989b9194979a5092959850565b60006020828403121562000f92578081fd5b815160ff8116811462000b7a578182fd5b6000815180845260208085019450808401835b8381101562000fd45781518752958201959082019060010162000fb6565b509495945050505050565b901515815260200190565b60006060820185835260206060818501528186518084526080860191508288019350845b8181101562001036576200102385516200112b565b835293830193918301916001016200100e565b505084810360408601528551808252908201925081860190845b8181101562001078576200106583516200112b565b8552938301939183019160010162001050565b509298975050505050505050565b60208101600383106200109557fe5b91905290565b90815260200190565b600085825284602083015260806040830152620010c5608083018562000fa3565b8281036060840152620010d9818562000fa3565b979650505050505050565b6040518181016001600160401b03811182821017156200110357600080fd5b604052919050565b60006001600160401b0382111562001121578081fd5b5060209081020190565b6001600160a01b031690565b6001600160a01b038116811462000ab457600080fd5b60805160a05160601c60c05160e051610100516101205161014051610160516101805160601c6101a0516101c0516101e05160601c6102005160601c6102205160601c6102405160601c6102605160601c6102805160601c6102a05160601c6102c05160601c6102e05161030051610320516103405161036051610380516103a0516103c0516150f8620012c360003980611dde528061224a525080611d9b52806121e9525080611d585280612188525080611d155280612127525080611cd252806120c6525080611c8f5280612065525080611c4c5280612004525080611bfb5280611fa352508061220f5250806121ae52508061214d5250806120ec52508061208b528061316252508061202a5280613120525080611fc952806130de525080611f68528061309c52508061150d5250806106e9525080610a7b5250806112d25250806112ae525080610d585250806113e6525080611428525080611407525080610a575250806109e152506150f86000f3fe608060405234801561001057600080fd5b50600436106102775760003560e01c806374f3b009116101605780639d2c110c116100d8578063d505accf1161008c578063dd62ed3e11610071578063dd62ed3e146104d8578063e01af92c146104eb578063f89f27ed146104fe57610277565b8063d505accf146104b2578063d5c096c4146104c557610277565b8063a9059cbb116100bd578063a9059cbb1461048f578063aaabadc5146104a2578063c0ff1a15146104aa57610277565b80639d2c110c14610469578063a457c2d71461047c57610277565b806387ec68171161012f5780638d928af8116101145780638d928af81461045157806395d89b41146104595780639b02cdde1461046157610277565b806387ec681714610429578063893d20e81461043c57610277565b806374f3b009146103cb5780637beed220146103ec5780637ecebe0014610403578063851c1bb31461041657610277565b806338fff2d0116101f357806350dd6ed9116101c25780636028bfd4116101a75780636028bfd41461038f578063679aefce146103b057806370a08231146103b857610277565b806350dd6ed91461037457806355c676281461038757610277565b806338fff2d01461033e57806339509351146103465780633e5692051461035957806347bc4d921461036c57610277565b80631c0de0511161024a578063313ce5671161022f578063313ce5671461030e5780633644e5151461032357806338e9922e1461032b57610277565b80631c0de051146102e457806323b872dd146102fb57610277565b806306fdde031461027c578063095ea7b31461029a57806316c38b3c146102ba57806318160ddd146102cf575b600080fd5b610284610513565b6040516102919190614fc1565b60405180910390f35b6102ad6102a8366004614858565b6105c8565b6040516102919190614ec8565b6102cd6102c836600461494f565b6105df565b005b6102d76105f3565b6040516102919190614eeb565b6102ec6105f9565b60405161029193929190614ed3565b6102ad6103093660046147a3565b610622565b6103166106b6565b604051610291919061503d565b6102d76106bf565b6102cd610339366004614cdb565b6106ce565b6102d76106e7565b6102ad610354366004614858565b61070b565b6102cd610367366004614cf3565b610746565b6102ad6107b2565b6102cd610382366004614a86565b6107bb565b6102d76107d9565b6103a261039d366004614987565b6107df565b604051610291929190614fd4565b6102d7610816565b6102d76103c636600461474f565b610841565b6103de6103d9366004614987565b610860565b604051610291929190614ea3565b6103f4610903565b60405161029193929190614fed565b6102d761041136600461474f565b6109c2565b6102d7610424366004614a2a565b6109dd565b6103a2610437366004614987565b610a2f565b610444610a55565b6040516102919190614e7c565b610444610a79565b610284610a9d565b6102d7610b1c565b6102d7610477366004614bdf565b610b22565b6102ad61048a366004614858565b610c09565b6102ad61049d366004614858565b610c47565b610444610c54565b6102d7610c5e565b6102cd6104c03660046147e3565b610d23565b6103de6104d3366004614987565b610e6c565b6102d76104e636600461476b565b610f91565b6102cd6104f936600461494f565b610fbc565b610506610fe5565b6040516102919190614e90565b60038054604080516020601f60027fffffffffffffffffffffffffffffffffffffffffffffffffffffffffffffffff6101006001881615020190951694909404938401819004810282018101909252828152606093909290918301828280156105bd5780601f10610592576101008083540402835291602001916105bd565b820191906000526020600020905b8154815290600101906020018083116105a057829003601f168201915b505050505090505b90565b60006105d5338484611145565b5060015b92915050565b6105e76111ad565b6105f0816111f3565b50565b60025490565b600080600061060661128f565b1592506106116112ac565b915061061b6112d0565b9050909192565b60008061062f8533610f91565b9050610653336001600160a01b038716148061064b5750838210155b61019e6112f4565b61065e858585611302565b336001600160a01b0386161480159061069757507fffffffffffffffffffffffffffffffffffffffffffffffffffffffffffffffff8114155b156106a9576106a98533858403611145565b60019150505b9392505050565b60055460ff1690565b60006106c96113e2565b905090565b6106d66111ad565b6106de61147f565b6105f081611494565b7f000000000000000000000000000000000000000000000000000000000000000090565b3360008181526001602090815260408083206001600160a01b038716845290915281205490916105d5918590610741908661107c565b611145565b61074e6111ad565b61075661147f565b61075e6114f2565b61077061076961150b565b8251610ff9565b4283811161077e5783610780565b805b9350610791838511156101466112f4565b6107a4848461079e61152f565b85611643565b506107ad61175d565b505050565b600b5460ff1690565b6107c36111ad565b6107cb61147f565b6107d58282611764565b5050565b60085490565b600060606107f586516107f061150b565b610ff9565b61080a8989898989898961187c61194c6119ad565b97509795505050505050565b60006106c96108236105f3565b61083b61082e610c5e565b61083661150b565b611b3d565b90611b57565b6001600160a01b0381166000908152602081905260409020545b919050565b6060808861088a61086f610a79565b6001600160a01b0316336001600160a01b03161460cd6112f4565b61089f6108956106e7565b82146101f46112f4565b60606108a9611b9f565b90506108b58882611e1c565b60006060806108ca8e8e8e8e8e8e8a8f61187c565b9250925092506108da8d84611e7d565b6108e4828561194c565b6108ee818561194c565b909550935050505b5097509795505050505050565b600c5460009081906060906109198160c0611e87565b93506109268160e0611e87565b9250600061093261150b565b90508067ffffffffffffffff8111801561094b57600080fd5b50604051908082528060200260200182016040528015610975578160200160208202803683370190505b50925060005b818110156109ba5761099b6109968460806010850201611e91565b611e99565b8482815181106109a757fe5b602090810291909101015260010161097b565b505050909192565b6001600160a01b031660009081526006602052604090205490565b60007f000000000000000000000000000000000000000000000000000000000000000082604051602001610a12929190614e06565b604051602081830303815290604052805190602001209050919050565b60006060610a4086516107f061150b565b61080a89898989898989611eb3611f036119ad565b7f000000000000000000000000000000000000000000000000000000000000000090565b7f000000000000000000000000000000000000000000000000000000000000000090565b60048054604080516020601f60027fffffffffffffffffffffffffffffffffffffffffffffffffffffffffffffffff6101006001881615020190951694909404938401819004810282018101909252828152606093909290918301828280156105bd5780601f10610592576101008083540402835291602001916105bd565b60095490565b600080610b328560200151611f64565b90506000610b438660400151611f64565b9050600086516001811115610b5457fe5b1415610bba57610b678660600151612279565b6060870152610b76858361229d565b9450610b82848261229d565b9350610b9286606001518361229d565b60608701526000610ba48787876122a9565b9050610bb081836122d1565b93505050506106af565b610bc4858361229d565b9450610bd0848261229d565b9350610be086606001518261229d565b60608701526000610bf28787876122dd565b9050610bfe81846122fd565b9050610bb081612309565b600080610c163385610f91565b9050808310610c3057610c2b33856000611145565b610c3d565b610c3d3385858403611145565b5060019392505050565b60006105d5338484611302565b60006106c9612332565b60006060610c6a610a79565b6001600160a01b031663f94d4668610c806106e7565b6040518263ffffffff1660e01b8152600401610c9c9190614eeb565b60006040518083038186803b158015610cb457600080fd5b505afa158015610cc8573d6000803e3d6000fd5b505050506040513d6000823e601f3d908101601f19168201604052610cf09190810190614883565b50915050610d0581610d00611b9f565b611e1c565b6060610d0f6123ac565b509050610d1c818361240a565b9250505090565b610d318442111560d16112f4565b6001600160a01b0387166000908152600660209081526040808320549051909291610d88917f0000000000000000000000000000000000000000000000000000000000000000918c918c918c9188918d9101614f13565b6040516020818303038152906040528051906020012090506000610dab8261247c565b9050600060018288888860405160008152602001604052604051610dd29493929190614fa3565b6020604051602081039080840390855afa158015610df4573d6000803e3d6000fd5b5050604051601f1901519150610e3690506001600160a01b03821615801590610e2e57508b6001600160a01b0316826001600160a01b0316145b6101f86112f4565b6001600160a01b038b166000908152600660205260409020600185019055610e5f8b8b8b611145565b5050505050505050505050565b60608088610e7b61086f610a79565b610e866108956106e7565b6060610e90611b9f565b9050610e9a6105f3565b610f415760006060610eaf8d8d8d868b612498565b91509150610ec4620f424083101560cc6112f4565b610ed26000620f42406124de565b610ee18b620f424084036124de565b610eeb8184611f03565b80610ef461150b565b67ffffffffffffffff81118015610f0a57600080fd5b50604051908082528060200260200182016040528015610f34578160200160208202803683370190505b50955095505050506108f6565b610f4b8882611e1c565b6000606080610f608e8e8e8e8e8e8a8f611eb3565b925092509250610f708c846124de565b610f7a8285611f03565b610f84818561194c565b90955093506108f6915050565b6001600160a01b03918216600090815260016020908152604080832093909416825291909152205490565b610fc46111ad565b610fcc61147f565b610fd46114f2565b610fdd816124e8565b6105f061175d565b60606106c961152f565b806107d581612544565b6107d581831460676112f4565b60006110168383111560016112f4565b50900390565b60006105d9670de0b6b3a764000061103a8463ffffffff61108e8116565b906110fa565b63ffffffff811b1992909216911b1790565b60006105d9670de0b6b3a764000061103a8461ffff61108e565b61ffff811b1992909216911b1790565b60008282016106af84821015836112f4565b60008282026110b28415806110ab5750838583816110a857fe5b04145b60036112f4565b806110c15760009150506105d9565b670de0b6b3a76400007fffffffffffffffffffffffffffffffffffffffffffffffffffffffffffffffff82015b046001019150506105d9565b600061110982151560046112f4565b82611116575060006105d9565b670de0b6b3a7640000838102906111399085838161113057fe5b041460056112f4565b8260018203816110ee57fe5b6001600160a01b0380841660008181526001602090815260408083209487168084529490915290819020849055517f8c5be1e5ebec7d5bd14f71427d1e84f3dd0314c0f7b2291e5b200ac8c7c3b925906111a0908590614eeb565b60405180910390a3505050565b60006111dc6000357fffffffff00000000000000000000000000000000000000000000000000000000166109dd565b90506105f06111eb82336125bd565b6101916112f4565b80156112135761120e6112046112ac565b42106101936112f4565b611228565b61122861121e6112d0565b42106101a96112f4565b600780547fffffffffffffffffffffffffffffffffffffffffffffffffffffffffffffff00168215151790556040517f9e3a5e37224532dea67b89face185703738a228a6e8a23dee546960180d3be6490611284908390614ec8565b60405180910390a150565b60006112996112d0565b4211806106c957505060075460ff161590565b7f000000000000000000000000000000000000000000000000000000000000000090565b7f000000000000000000000000000000000000000000000000000000000000000090565b816107d5576107d5816126ad565b6113196001600160a01b03841615156101986112f4565b6113306001600160a01b03831615156101996112f4565b61133b8383836107ad565b6001600160a01b03831660009081526020819052604090205461136190826101a061271a565b6001600160a01b038085166000908152602081905260408082209390935590841681522054611390908261107c565b6001600160a01b0380841660008181526020819052604090819020939093559151908516907fddf252ad1be2c89b69c2b068fc378daa952ba7f163c4a11628f55a4df523b3ef906111a0908590614eeb565b60007f00000000000000000000000000000000000000000000000000000000000000007f00000000000000000000000000000000000000000000000000000000000000007f000000000000000000000000000000000000000000000000000000000000000061144f612730565b30604051602001611464959493929190614f47565b60405160208183030381529060405280519060200120905090565b61149261148a61128f565b6101926112f4565b565b6114a764e8d4a5100082101560cb6112f4565b6114bd67016345785d8a000082111560ca6112f4565b60088190556040517fa9ba3ffe0b6c366b81232caab38605a0699ad5398d6cce76f91ee809e322dafc90611284908390614eeb565b6115046002600a5414156101906112f4565b6002600a55565b7f000000000000000000000000000000000000000000000000000000000000000090565b6060600061153b61150b565b905060608167ffffffffffffffff8111801561155657600080fd5b50604051908082528060200260200182016040528015611580578160200160208202803683370190505b50600c54909150611592600082612734565b8260008151811061159f57fe5b6020026020010181815250506115b6600182612734565b826001815181106115c357fe5b60200260200101818152505082600214156115e2575091506105c59050565b6115ed600282612734565b826002815181106115fa57fe5b6020026020010181815250508260031415611619575091506105c59050565b611624600382612734565b8260038151811061163157fe5b60209081029190910101525091505090565b600c546000805b83518110156116de57600084828151811061166157fe5b60200260200101519050611681662386f26fc1000082101561012e6112f4565b6116ab6116a087848151811061169357fe5b602002602001015161101c565b859060208502611040565b93506116c76116b982611052565b85906080601086020161106c565b93506116d3838261107c565b92505060010161164a565b506116f5670de0b6b3a764000082146101346112f4565b611701828760c0611040565b915061170f828660e0611040565b915081600c819055507f0f3631f9dab08169d1db21c6dc5f32536fb2b0a6b9bb5330d71c52132f968be08686868660405161174d949392919061500c565b60405180910390a1505050505050565b6001600a55565b600061176e6106e7565b9050600061177a610a79565b6001600160a01b031663b05f8e4883866040518363ffffffff1660e01b81526004016117a7929190614f8c565b60806040518083038186803b1580156117bf57600080fd5b505afa1580156117d3573d6000803e3d6000fd5b505050506040513d601f19601f820116820180604052508101906117f79190614d41565b6040517f18e736d40000000000000000000000000000000000000000000000000000000081529094506001600160a01b03851693506318e736d49250611844915085908790600401614f73565b600060405180830381600087803b15801561185e57600080fd5b505af1158015611872573d6000803e3d6000fd5b5050505050505050565b60006060806060600061188d6123ac565b9150915061189961128f565b156118d15760006118aa838c61240a565b90506118bc8b8484600954858e612787565b93506118cb8b85611006612836565b5061191d565b6118d961150b565b67ffffffffffffffff811180156118ef57600080fd5b50604051908082528060200260200182016040528015611919578160200160208202803683370190505b5092505b6119298a8389896128a1565b90955093506119398a8584612910565b6009555050985098509895505050505050565b60005b61195761150b565b8110156107ad5761198e83828151811061196d57fe5b602002602001015183838151811061198157fe5b6020026020010151611b57565b83828151811061199a57fe5b602090810291909101015260010161194f565b333014611a9c576000306001600160a01b03166000366040516119d1929190614e36565b6000604051808303816000865af19150503d8060008114611a0e576040519150601f19603f3d011682016040523d82523d6000602084013e611a13565b606091505b505090508060008114611a2257fe5b60046000803e6000517fffffffff00000000000000000000000000000000000000000000000000000000167f43adbafb000000000000000000000000000000000000000000000000000000008114611a7e573d6000803e3d6000fd5b506020600460003e604060205260243d03602460403e601c3d016000f35b6060611aa6611b9f565b9050611ab28782611e1c565b60006060611aca8c8c8c8c8c8c898d8d63ffffffff16565b5091509150611add81848663ffffffff16565b8051601f1982018390526343adbafb7fffffffffffffffffffffffffffffffffffffffffffffffffffffffffffffffc08301526020027fffffffffffffffffffffffffffffffffffffffffffffffffffffffffffffffdc82016044820181fd5b60008282026106af8415806110ab5750838583816110a857fe5b6000611b6682151560046112f4565b82611b73575060006105d9565b670de0b6b3a764000083810290611b8d9085838161113057fe5b828181611b9657fe5b049150506105d9565b60606000611bab61150b565b905060608167ffffffffffffffff81118015611bc657600080fd5b50604051908082528060200260200182016040528015611bf0578160200160208202803683370190505b5090508115611c38577f000000000000000000000000000000000000000000000000000000000000000081600081518110611c2757fe5b602002602001018181525050611c41565b91506105c59050565b6001821115611c38577f000000000000000000000000000000000000000000000000000000000000000081600181518110611c7857fe5b6020026020010181815250506002821115611c38577f000000000000000000000000000000000000000000000000000000000000000081600281518110611cbb57fe5b6020026020010181815250506003821115611c38577f000000000000000000000000000000000000000000000000000000000000000081600381518110611cfe57fe5b6020026020010181815250506004821115611c38577f000000000000000000000000000000000000000000000000000000000000000081600481518110611d4157fe5b6020026020010181815250506005821115611c38577f000000000000000000000000000000000000000000000000000000000000000081600581518110611d8457fe5b6020026020010181815250506006821115611c38577f000000000000000000000000000000000000000000000000000000000000000081600681518110611dc757fe5b6020026020010181815250506007821115611c38577f000000000000000000000000000000000000000000000000000000000000000081600781518110611e0a57fe5b60200260200101818152505091505090565b60005b611e2761150b565b8110156107ad57611e5e838281518110611e3d57fe5b6020026020010151838381518110611e5157fe5b6020026020010151612929565b838281518110611e6a57fe5b6020908102919091010152600101611e1f565b6107d58282612955565b1c63ffffffff1690565b1c61ffff1690565b60006105d961ffff61103a84670de0b6b3a764000061108e565b6000606080611edf611ec3610a55565b6001600160a01b03168b6001600160a01b0316146101486112f4565b611eef8b8b8b8b8b8b8b8b612a11565b925092509250985098509895505050505050565b60005b611f0e61150b565b8110156107ad57611f45838281518110611f2457fe5b6020026020010151838381518110611f3857fe5b60200260200101516110fa565b838281518110611f5157fe5b6020908102919091010152600101611f06565b60007f00000000000000000000000000000000000000000000000000000000000000006001600160a01b0316826001600160a01b03161415611fc757507f000000000000000000000000000000000000000000000000000000000000000061085b565b7f00000000000000000000000000000000000000000000000000000000000000006001600160a01b0316826001600160a01b0316141561202857507f000000000000000000000000000000000000000000000000000000000000000061085b565b7f00000000000000000000000000000000000000000000000000000000000000006001600160a01b0316826001600160a01b0316141561208957507f000000000000000000000000000000000000000000000000000000000000000061085b565b7f00000000000000000000000000000000000000000000000000000000000000006001600160a01b0316826001600160a01b031614156120ea57507f000000000000000000000000000000000000000000000000000000000000000061085b565b7f00000000000000000000000000000000000000000000000000000000000000006001600160a01b0316826001600160a01b0316141561214b57507f000000000000000000000000000000000000000000000000000000000000000061085b565b7f00000000000000000000000000000000000000000000000000000000000000006001600160a01b0316826001600160a01b031614156121ac57507f000000000000000000000000000000000000000000000000000000000000000061085b565b7f00000000000000000000000000000000000000000000000000000000000000006001600160a01b0316826001600160a01b0316141561220d57507f000000000000000000000000000000000000000000000000000000000000000061085b565b7f00000000000000000000000000000000000000000000000000000000000000006001600160a01b0316826001600160a01b0316141561226e57507f000000000000000000000000000000000000000000000000000000000000000061085b565b61085b6101356126ad565b6000806122916008548461108e90919063ffffffff16565b90506106af8382611006565b60006106af8383612929565b600b546000906122be9060ff166101476112f4565b6122c9848484612a97565b949350505050565b60006106af8383611b57565b600b546000906122f29060ff166101476112f4565b6122c9848484612aca565b60006106af83836110fa565b60006105d961232b600854670de0b6b3a764000061100690919063ffffffff16565b83906110fa565b600061233c610a79565b6001600160a01b031663aaabadc56040518163ffffffff1660e01b815260040160206040518083038186803b15801561237457600080fd5b505afa158015612388573d6000803e3d6000fd5b505050506040513d601f19601f820116820180604052508101906106c99190614a6a565b606060006123b861152f565b91506000805b835181101561240457818482815181106123d457fe5b602002602001015111156123fc578092508381815181106123f157fe5b602002602001015191505b6001016123be565b50509091565b670de0b6b3a764000060005b835181101561246c5761246261245b85838151811061243157fe5b602002602001015185848151811061244557fe5b6020026020010151612afd90919063ffffffff16565b8390612929565b9150600101612416565b506105d9600082116101376112f4565b60006124866113e2565b82604051602001610a12929190614e46565b600060606124c36124a7610a55565b6001600160a01b0316876001600160a01b0316146101486112f4565b6124d08787878787612b4c565b915091509550959350505050565b6107d58282612be0565b600b80547fffffffffffffffffffffffffffffffffffffffffffffffffffffffffffffff00168215151790556040517f5a9e84f78f7957cb4ed7478eb0fcad35ee4ecbe2e0f298420b28a3955392573f90611284908390614ec8565b600281511015612553576105f0565b60008160008151811061256257fe5b602002602001015190506000600190505b82518110156107ad57600083828151811061258a57fe5b602002602001015190506125b3816001600160a01b0316846001600160a01b03161060656112f4565b9150600101612573565b600073ba1ba1ba1ba1ba1ba1ba1ba1ba1ba1ba1ba1ba1b6125dc610a55565b6001600160a01b0316141580156125f757506125f783612c6e565b1561261f57612604610a55565b6001600160a01b0316336001600160a01b03161490506105d9565b612627612332565b6001600160a01b0316639be2a8848484306040518463ffffffff1660e01b815260040161265693929190614ef4565b60206040518083038186803b15801561266e57600080fd5b505afa158015612682573d6000803e3d6000fd5b505050506040513d601f19601f820116820180604052508101906126a6919061496b565b90506105d9565b7f08c379a0000000000000000000000000000000000000000000000000000000006000908152602060045260076024526642414c23000030600a808404818106603090810160081b95839006959095019082900491820690940160101b939093010160c81b604452606490fd5b600061272984841115836112f4565b5050900390565b4690565b60008061274c6127478460208702611e87565b612cdc565b905060006127636109968560806010890201611e91565b9050600061277085612cfa565b905061277d838383612d8f565b9695505050505050565b60608061279261150b565b67ffffffffffffffff811180156127a857600080fd5b506040519080825280602002602001820160405280156127d2578160200160208202803683370190505b509050826127e157905061277d565b6128148887815181106127f057fe5b602002602001015188888151811061280457fe5b6020026020010151878787612e09565b81878151811061282057fe5b6020908102919091010152979650505050505050565b60005b61284161150b565b81101561289b5761287c84828151811061285757fe5b602002602001015184838151811061286b57fe5b60200260200101518463ffffffff16565b84828151811061288857fe5b6020908102919091010152600101612839565b50505050565b6000606060006128b084612e8f565b905060008160028111156128c057fe5b14156128db576128d1878786612ea5565b9250925050612907565b60018160028111156128e957fe5b14156128f9576128d18785612f83565b6128d187878787612fb5565b505b94509492505050565b600061291f8484611006612836565b6122c9828561240a565b60008282026129438415806110ab5750838583816110a857fe5b670de0b6b3a764000090049392505050565b61296c6001600160a01b038316151561019b6112f4565b612978826000836107ad565b6001600160a01b03821660009081526020819052604090205461299e90826101a161271a565b6001600160a01b0383166000908152602081905260409020556002546129c4908261301f565b6002556040516000906001600160a01b038416907fddf252ad1be2c89b69c2b068fc378daa952ba7f163c4a11628f55a4df523b3ef90612a05908590614eeb565b60405180910390a35050565b6000606080612a1e61147f565b60606000612a2a6123ac565b915091506000612a3a838c61240a565b90506060612a4e8c8585600954868f612787565b9050612a5d8c82611006612836565b60006060612a6d8e878d8d61302d565b91509150612a7c8e8288613088565b60095590975095509350505050985098509895505050505050565b6000612aa161147f565b6122c983612ab28660200151613097565b84612ac08860400151613097565b88606001516131ba565b6000612ad461147f565b6122c983612ae58660200151613097565b84612af38860400151613097565b8860600151613227565b600080612b0a848461329d565b90506000612b24612b1d8361271061108e565b600161107c565b905080821015612b39576000925050506105d9565b612b438282611006565b925050506105d9565b60006060612b5861147f565b6000612b6384612e8f565b9050612b7e6000826002811115612b7657fe5b1460ce6112f4565b6060612b89856133d0565b9050612b9661076961150b565b612ba08187611e1c565b6060612baa6123ac565b5090506000612bb9828461240a565b90506000612bc98261083661150b565b600992909255509a91995090975050505050505050565b612bec600083836107ad565b600254612bf9908261107c565b6002556001600160a01b038216600090815260208190526040902054612c1f908261107c565b6001600160a01b0383166000818152602081905260408082209390935591519091907fddf252ad1be2c89b69c2b068fc378daa952ba7f163c4a11628f55a4df523b3ef90612a05908590614eeb565b6000612c997fe01af92c000000000000000000000000000000000000000000000000000000006109dd565b821480612ccd5750612cca7f3e569205000000000000000000000000000000000000000000000000000000006109dd565b82145b806105d957506105d9826133e6565b60006105d963ffffffff61103a84670de0b6b3a764000061108e8416565b60004281612d098460c0611e87565b90506000612d188560e0611e87565b905080831115612d3557670de0b6b3a7640000935050505061085b565b81831015612d49576000935050505061085b565b6000612d558284611006565b90506000612d638585611006565b90508115612d7a57612d758183611b57565b612d84565b670de0b6b3a76400005b979650505050505050565b600081612d9d5750826106af565b670de0b6b3a76400008210612db35750816106af565b83831015612de5576000612dd1612dca8686611006565b8490612929565b9050612ddd8582611006565b9150506106af565b6000612df4612dca8587611006565b9050612e00858261107c565b95945050505050565b6000838311612e1a57506000612e00565b6000612e2685856110fa565b90506000612e3c670de0b6b3a764000088611b57565b9050612e50826709b6e64a8ec6000061344a565b91506000612e5e8383613461565b90506000612e75612e6e8361348d565b8b90612929565b9050612e818187612929565b9a9950505050505050505050565b6000818060200190518101906105d99190614ad4565b60006060612eb161147f565b600080612ebd856134b3565b91509150612ed5612ecc61150b565b821060646112f4565b6060612edf61150b565b67ffffffffffffffff81118015612ef557600080fd5b50604051908082528060200260200182016040528015612f1f578160200160208202803683370190505b509050612f5e888381518110612f3157fe5b6020026020010151888481518110612f4557fe5b602002602001015185612f566105f3565b6008546134d5565b818381518110612f6a57fe5b6020908102919091010152919791965090945050505050565b600060606000612f928461358e565b90506060612fa88683612fa36105f3565b6135a4565b9196919550909350505050565b60006060612fc161147f565b60606000612fce85613656565b91509150612fdf82516107f061150b565b612fe98287611e1c565b6000613001898985612ff96105f3565b60085461366e565b90506130118282111560cf6112f4565b989197509095505050505050565b60006106af8383600161271a565b60006060600061303c84612e8f565b9050600181600281111561304c57fe5b141561305e576128d18787878761389c565b600281600281111561306c57fe5b141561307d576128d18787866138f4565b6129056101366126ad565b600061291f848461107c612836565b6000807f00000000000000000000000000000000000000000000000000000000000000006001600160a01b0316836001600160a01b031614156130dc575060006131ad565b7f00000000000000000000000000000000000000000000000000000000000000006001600160a01b0316836001600160a01b0316141561311e575060016131ad565b7f00000000000000000000000000000000000000000000000000000000000000006001600160a01b0316836001600160a01b03161415613160575060026131ad565b7f00000000000000000000000000000000000000000000000000000000000000006001600160a01b0316836001600160a01b031614156131a2575060036131ad565b6131ad6101356126ad565b600c546122c98282612734565b60006131dc6131d187670429d069189e0000612929565b8311156101306112f4565b60006131e8878461107c565b905060006131f688836110fa565b905060006132048887611b57565b905060006132128383613461565b9050612e816132208261348d565b8990612929565b600061324961323e85670429d069189e0000612929565b8311156101316112f4565b600061325f6132588685611006565b86906110fa565b9050600061326d85886110fa565b9050600061327b8383613461565b9050600061329182670de0b6b3a7640000611006565b9050612e818a8261108e565b6000816132b35750670de0b6b3a76400006105d9565b826132c0575060006105d9565b6132ed7f8000000000000000000000000000000000000000000000000000000000000000841060066112f4565b82613313770bce5086492111aea88f4bb1ca6bcf584181ea8059f76532841060076112f4565b826000670c7d713b49da0000831380156133345750670f43fc2c04ee000083125b1561336b5760006133448461399c565b9050670de0b6b3a764000080820784020583670de0b6b3a764000083050201915050613379565b8161337584613ad3565b0290505b670de0b6b3a764000090056133c77ffffffffffffffffffffffffffffffffffffffffffffffffdc702bd3a30fc000082128015906133c0575068070c1cc73b00c800008213155b60086112f4565b61277d81613e73565b6060818060200190518101906106af9190614b9a565b60006134117f38e9922e000000000000000000000000000000000000000000000000000000006109dd565b8214806105d957506134427f50dd6ed9000000000000000000000000000000000000000000000000000000006109dd565b909114919050565b60008183101561345a57816106af565b5090919050565b60008061346e848461329d565b90506000613481612b1d8361271061108e565b9050612e00828261107c565b6000670de0b6b3a764000082106134a55760006105d9565b50670de0b6b3a76400000390565b600080828060200190518101906134ca9190614b64565b909590945092505050565b6000806134e68461103a8188611006565b90506134ff6709b6e64a8ec600008210156101326112f4565b600061351d613516670de0b6b3a764000089611b57565b8390613461565b9050600061353461352d8361348d565b8a90612929565b905060006135418961348d565b9050600061354f838361108e565b9050600061355d8483611006565b905061357e613577612dca670de0b6b3a76400008b611006565b829061107c565b9c9b505050505050505050505050565b6000818060200190518101906106af9190614b37565b606060006135b28484611b57565b90506060855167ffffffffffffffff811180156135ce57600080fd5b506040519080825280602002602001820160405280156135f8578160200160208202803683370190505b50905060005b865181101561364c5761362d8388838151811061361757fe5b602002602001015161292990919063ffffffff16565b82828151811061363957fe5b60209081029190910101526001016135fe565b5095945050505050565b60606000828060200190518101906134ca9190614af0565b60006060845167ffffffffffffffff8111801561368a57600080fd5b506040519080825280602002602001820160405280156136b4578160200160208202803683370190505b5090506000805b8851811015613779576137148982815181106136d357fe5b602002602001015161103a8984815181106136ea57fe5b60200260200101518c85815181106136fe57fe5b602002602001015161100690919063ffffffff16565b83828151811061372057fe5b60200260200101818152505061376f61376889838151811061373e57fe5b602002602001015185848151811061375257fe5b602002602001015161108e90919063ffffffff16565b839061107c565b91506001016136bb565b50670de0b6b3a764000060005b895181101561387b57600084828151811061379d57fe5b60200260200101518411156137fd5760006137c66137ba8661348d565b8d858151811061361757fe5b905060006137da828c86815181106136fe57fe5b90506137f461376861232b670de0b6b3a76400008c611006565b92505050613814565b88828151811061380957fe5b602002602001015190505b600061383d8c848151811061382557fe5b602002602001015161083b848f87815181106136fe57fe5b905061386f6138688c858151811061385157fe5b602002602001015183612afd90919063ffffffff16565b8590612929565b93505050600101613786565b5061388f6138888261348d565b879061108e565b9998505050505050505050565b600060608060006138ac85613656565b915091506138c26138bb61150b565b8351610ff9565b6138cc8287611e1c565b60006138e48989856138dc6105f3565b600854614343565b90506130118282101560d06112f4565b60006060600080613904856134b3565b91509150613913612ecc61150b565b606061391d61150b565b67ffffffffffffffff8111801561393357600080fd5b5060405190808252806020026020018201604052801561395d578160200160208202803683370190505b509050612f5e88838151811061396f57fe5b602002602001015188848151811061398357fe5b6020026020010151856139946105f3565b600854614555565b670de0b6b3a7640000026000806ec097ce7bc90715b34b9f1000000000808401907fffffffffffffffffffffffffffffffffff3f68318436f8ea4cb460f000000000850102816139e857fe5b05905060006ec097ce7bc90715b34b9f100000000082800205905081806ec097ce7bc90715b34b9f100000000081840205915060038205016ec097ce7bc90715b34b9f100000000082840205915060058205016ec097ce7bc90715b34b9f100000000082840205915060078205016ec097ce7bc90715b34b9f100000000082840205915060098205016ec097ce7bc90715b34b9f1000000000828402059150600b8205016ec097ce7bc90715b34b9f1000000000828402059150600d8205016ec097ce7bc90715b34b9f1000000000828402059150600f826002919005919091010295945050505050565b6000670de0b6b3a7640000821215613b1057613b06826ec097ce7bc90715b34b9f100000000081613b0057fe5b05613ad3565b600003905061085b565b60007e1600ef3172e58d2e933ec884fde10064c63b5372d805e203c00000000000008312613b6157770195e54c5dd42177f53a27172fa9ec630262827000000000830592506806f05b59d3b2000000015b73011798004d755d3c8bc8e03204cf44619e0000008312613b99576b1425982cf597cd205cef7380830592506803782dace9d9000000015b606492830292026e01855144814a7ff805980ff00840008312613be1576e01855144814a7ff805980ff008400068056bc75e2d63100000840205925068ad78ebc5ac62000000015b6b02df0ab5a80a22c61ab5a7008312613c1c576b02df0ab5a80a22c61ab5a70068056bc75e2d6310000084020592506856bc75e2d631000000015b693f1fce3da636ea5cf8508312613c5357693f1fce3da636ea5cf85068056bc75e2d631000008402059250682b5e3af16b18800000015b690127fa27722cc06cc5e28312613c8a57690127fa27722cc06cc5e268056bc75e2d6310000084020592506815af1d78b58c400000015b68280e60114edb805d038312613cbf5768280e60114edb805d0368056bc75e2d631000008402059250680ad78ebc5ac6200000015b680ebc5fb417461211108312613cea57680ebc5fb4174612111068056bc75e2d631000009384020592015b6808f00f760a4b2db55d8312613d1f576808f00f760a4b2db55d68056bc75e2d6310000084020592506802b5e3af16b1880000015b6806f5f17757889379378312613d54576806f5f177578893793768056bc75e2d63100000840205925068015af1d78b58c40000015b6806248f33704b2866038312613d88576806248f33704b28660368056bc75e2d63100000840205925067ad78ebc5ac620000015b6805c548670b9510e7ac8312613dbc576805c548670b9510e7ac68056bc75e2d6310000084020592506756bc75e2d6310000015b600068056bc75e2d63100000840168056bc75e2d631000008086030281613ddf57fe5b059050600068056bc75e2d63100000828002059050818068056bc75e2d63100000818402059150600382050168056bc75e2d63100000828402059150600582050168056bc75e2d63100000828402059150600782050168056bc75e2d63100000828402059150600982050168056bc75e2d63100000828402059150600b820501600202606485820105979650505050505050565b6000613eb87ffffffffffffffffffffffffffffffffffffffffffffffffdc702bd3a30fc00008312158015613eb1575068070c1cc73b00c800008313155b60096112f4565b6000821215613eec57613ecd82600003613e73565b6ec097ce7bc90715b34b9f100000000081613ee457fe5b05905061085b565b60006806f05b59d3b20000008312613f4257507ffffffffffffffffffffffffffffffffffffffffffffffff90fa4a62c4e00000090910190770195e54c5dd42177f53a27172fa9ec630262827000000000613f8e565b6803782dace9d90000008312613f8a57507ffffffffffffffffffffffffffffffffffffffffffffffffc87d2531627000000909101906b1425982cf597cd205cef7380613f8e565b5060015b6064929092029168056bc75e2d6310000068ad78ebc5ac620000008412613ff4577fffffffffffffffffffffffffffffffffffffffffffffff5287143a539e0000009093019268056bc75e2d631000006e01855144814a7ff805980ff008400082020590505b6856bc75e2d6310000008412614046577fffffffffffffffffffffffffffffffffffffffffffffffa9438a1d29cf0000009093019268056bc75e2d631000006b02df0ab5a80a22c61ab5a70082020590505b682b5e3af16b188000008412614096577fffffffffffffffffffffffffffffffffffffffffffffffd4a1c50e94e78000009093019268056bc75e2d63100000693f1fce3da636ea5cf85082020590505b6815af1d78b58c40000084126140e6577fffffffffffffffffffffffffffffffffffffffffffffffea50e2874a73c000009093019268056bc75e2d63100000690127fa27722cc06cc5e282020590505b680ad78ebc5ac62000008412614135577ffffffffffffffffffffffffffffffffffffffffffffffff5287143a539e000009093019268056bc75e2d6310000068280e60114edb805d0382020590505b68056bc75e2d631000008412614184577ffffffffffffffffffffffffffffffffffffffffffffffffa9438a1d29cf000009093019268056bc75e2d63100000680ebc5fb4174612111082020590505b6802b5e3af16b188000084126141d3577ffffffffffffffffffffffffffffffffffffffffffffffffd4a1c50e94e7800009093019268056bc75e2d631000006808f00f760a4b2db55d82020590505b68015af1d78b58c400008412614222577ffffffffffffffffffffffffffffffffffffffffffffffffea50e2874a73c00009093019268056bc75e2d631000006806f5f177578893793782020590505b68056bc75e2d631000008481019085906002908280020505918201919050600368056bc75e2d631000008783020505918201919050600468056bc75e2d631000008783020505918201919050600568056bc75e2d631000008783020505918201919050600668056bc75e2d631000008783020505918201919050600768056bc75e2d631000008783020505918201919050600868056bc75e2d631000008783020505918201919050600968056bc75e2d631000008783020505918201919050600a68056bc75e2d631000008783020505918201919050600b68056bc75e2d631000008783020505918201919050600c68056bc75e2d631000008783020505918201919050606468056bc75e2d63100000848402058502059695505050505050565b60006060845167ffffffffffffffff8111801561435f57600080fd5b50604051908082528060200260200182016040528015614389578160200160208202803683370190505b5090506000805b8851811015614431576143e98982815181106143a857fe5b602002602001015161083b8984815181106143bf57fe5b60200260200101518c85815181106143d357fe5b602002602001015161107c90919063ffffffff16565b8382815181106143f557fe5b60200260200101818152505061442761376889838151811061441357fe5b602002602001015185848151811061361757fe5b9150600101614390565b50670de0b6b3a764000060005b89518110156145125760008385838151811061445657fe5b602002602001015111156144b257600061447b6137ba86670de0b6b3a7640000611006565b9050600061448f828c86815181106136fe57fe5b90506144a961376861245b670de0b6b3a76400008c611006565b925050506144c9565b8882815181106144be57fe5b602002602001015190505b60006144f28c84815181106144da57fe5b602002602001015161083b848f87815181106143d357fe5b90506145066138688c858151811061385157fe5b9350505060010161443e565b50670de0b6b3a76400008111156145495761453f61453882670de0b6b3a7640000611006565b8790612929565b9350505050612e00565b60009350505050612e00565b6000806145668461103a818861107c565b905061457f6729a2241af62c00008211156101336112f4565b6000614596613516670de0b6b3a7640000896110fa565b905060006145b66145af83670de0b6b3a7640000611006565b8a9061108e565b905060006145c38961348d565b905060006145d1838361108e565b905060006145df8483611006565b905061357e6135776145f9670de0b6b3a76400008b611006565b84906110fa565b80356105d981615092565b600082601f83011261461b578081fd5b813561462e61462982615072565b61504b565b81815291506020808301908481018184028601820187101561464f57600080fd5b60005b8481101561466e57813584529282019290820190600101614652565b505050505092915050565b600082601f830112614689578081fd5b815161469761462982615072565b8181529150602080830190848101818402860182018710156146b857600080fd5b60005b8481101561466e578151845292820192908201906001016146bb565b600082601f8301126146e7578081fd5b813567ffffffffffffffff8111156146fd578182fd5b6147106020601f19601f8401160161504b565b915080825283602082850101111561472757600080fd5b8060208401602084013760009082016020015292915050565b8035600281106105d957600080fd5b600060208284031215614760578081fd5b81356106af81615092565b6000806040838503121561477d578081fd5b823561478881615092565b9150602083013561479881615092565b809150509250929050565b6000806000606084860312156147b7578081fd5b83356147c281615092565b925060208401356147d281615092565b929592945050506040919091013590565b600080600080600080600060e0888a0312156147fd578283fd5b873561480881615092565b9650602088013561481881615092565b95506040880135945060608801359350608088013560ff8116811461483b578384fd5b9699959850939692959460a0840135945060c09093013592915050565b6000806040838503121561486a578182fd5b823561487581615092565b946020939093013593505050565b600080600060608486031215614897578081fd5b835167ffffffffffffffff808211156148ae578283fd5b818601915086601f8301126148c1578283fd5b81516148cf61462982615072565b80828252602080830192508086018b8283870289010111156148ef578788fd5b8796505b8487101561491a57805161490681615092565b8452600196909601959281019281016148f3565b508901519097509350505080821115614931578283fd5b5061493e86828701614679565b925050604084015190509250925092565b600060208284031215614960578081fd5b81356106af816150a7565b60006020828403121561497c578081fd5b81516106af816150a7565b600080600080600080600060e0888a0312156149a1578081fd5b8735965060208801356149b381615092565b955060408801356149c381615092565b9450606088013567ffffffffffffffff808211156149df578283fd5b6149eb8b838c0161460b565b955060808a0135945060a08a0135935060c08a0135915080821115614a0e578283fd5b50614a1b8a828b016146d7565b91505092959891949750929550565b600060208284031215614a3b578081fd5b81357fffffffff00000000000000000000000000000000000000000000000000000000811681146106af578182fd5b600060208284031215614a7b578081fd5b81516106af81615092565b60008060408385031215614a98578182fd5b8235614aa381615092565b9150602083013567ffffffffffffffff811115614abe578182fd5b614aca858286016146d7565b9150509250929050565b600060208284031215614ae5578081fd5b81516106af816150b5565b600080600060608486031215614b04578081fd5b8351614b0f816150b5565b602085015190935067ffffffffffffffff811115614b2b578182fd5b61493e86828701614679565b60008060408385031215614b49578182fd5b8251614b54816150b5565b6020939093015192949293505050565b600080600060608486031215614b78578081fd5b8351614b83816150b5565b602085015160409095015190969495509392505050565b60008060408385031215614bac578182fd5b8251614bb7816150b5565b602084015190925067ffffffffffffffff811115614bd3578182fd5b614aca85828601614679565b600080600060608486031215614bf3578081fd5b833567ffffffffffffffff80821115614c0a578283fd5b8186019150610120808389031215614c20578384fd5b614c298161504b565b9050614c358884614740565b8152614c448860208501614600565b6020820152614c568860408501614600565b6040820152606083013560608201526080830135608082015260a083013560a0820152614c868860c08501614600565b60c0820152614c988860e08501614600565b60e08201526101008084013583811115614cb0578586fd5b614cbc8a8287016146d7565b9183019190915250976020870135975060409096013595945050505050565b600060208284031215614cec578081fd5b5035919050565b600080600060608486031215614d07578081fd5b8335925060208401359150604084013567ffffffffffffffff811115614d2b578182fd5b614d378682870161460b565b9150509250925092565b60008060008060808587031215614d56578182fd5b8451935060208501519250604085015191506060850151614d7681615092565b939692955090935050565b6000815180845260208085019450808401835b83811015614db057815187529582019590820190600101614d94565b509495945050505050565b60008151808452815b81811015614de057602081850181015186830182015201614dc4565b81811115614df15782602083870101525b50601f01601f19169290920160200192915050565b9182527fffffffff0000000000000000000000000000000000000000000000000000000016602082015260240190565b6000828483379101908152919050565b7f190100000000000000000000000000000000000000000000000000000000000081526002810192909252602282015260420190565b6001600160a01b0391909116815260200190565b6000602082526106af6020830184614d81565b600060408252614eb66040830185614d81565b8281036020840152612e008185614d81565b901515815260200190565b92151583526020830191909152604082015260600190565b90815260200190565b9283526001600160a01b03918216602084015216604082015260600190565b9586526001600160a01b0394851660208701529290931660408501526060840152608083019190915260a082015260c00190565b9485526020850193909352604084019190915260608301526001600160a01b0316608082015260a00190565b6000838252604060208301526122c96040830184614dbb565b9182526001600160a01b0316602082015260400190565b93845260ff9290921660208401526040830152606082015260800190565b6000602082526106af6020830184614dbb565b6000838252604060208301526122c96040830184614d81565b600084825283602083015260606040830152612e006060830184614d81565b60008582528460208301526080604083015261502b6080830185614d81565b8281036060840152612d848185614d81565b60ff91909116815260200190565b60405181810167ffffffffffffffff8111828210171561506a57600080fd5b604052919050565b600067ffffffffffffffff821115615088578081fd5b5060209081020190565b6001600160a01b03811681146105f057600080fd5b80151581146105f057600080fd5b600381106105f057600080fdfea26469706673582212203e0d4379a80c745881d971eec16beaa1ba6b14bccc7a01c6463abbdf1295908264736f6c63430007010033",
  "linkReferences": {},
  "deployedLinkReferences": {}
}