{
  "_format": "hh-sol-artifact-1",
  "contractName": "ERC20Mock",
  "sourceName": "contracts/test/ERC20Mock.sol",
  "abi": [
    {
      "inputs": [
        {
          "internalType": "string",
          "name": "_name",
          "type": "string"
        },
        {
          "internalType": "string",
          "name": "_symbol",
          "type": "string"
        }
      ],
      "stateMutability": "nonpayable",
      "type": "constructor"
    },
    {
      "anonymous": false,
      "inputs": [
        {
          "indexed": true,
          "internalType": "address",
          "name": "owner",
          "type": "address"
        },
        {
          "indexed": true,
          "internalType": "address",
          "name": "spender",
          "type": "address"
        },
        {
          "indexed": false,
          "internalType": "uint256",
          "name": "value",
          "type": "uint256"
        }
      ],
      "name": "Approval",
      "type": "event"
    },
    {
      "anonymous": false,
      "inputs": [
        {
          "indexed": true,
          "internalType": "address",
          "name": "from",
          "type": "address"
        },
        {
          "indexed": true,
          "internalType": "address",
          "name": "to",
          "type": "address"
        },
        {
          "indexed": false,
          "internalType": "uint256",
          "name": "value",
          "type": "uint256"
        }
      ],
      "name": "Transfer",
      "type": "event"
    },
    {
      "inputs": [
        {
          "internalType": "address",
          "name": "owner",
          "type": "address"
        },
        {
          "internalType": "address",
          "name": "spender",
          "type": "address"
        }
      ],
      "name": "allowance",
      "outputs": [
        {
          "internalType": "uint256",
          "name": "",
          "type": "uint256"
        }
      ],
      "stateMutability": "view",
      "type": "function"
    },
    {
      "inputs": [
        {
          "internalType": "address",
          "name": "spender",
          "type": "address"
        },
        {
          "internalType": "uint256",
          "name": "amount",
          "type": "uint256"
        }
      ],
      "name": "approve",
      "outputs": [
        {
          "internalType": "bool",
          "name": "",
          "type": "bool"
        }
      ],
      "stateMutability": "nonpayable",
      "type": "function"
    },
    {
      "inputs": [
        {
          "internalType": "address",
          "name": "account",
          "type": "address"
        }
      ],
      "name": "balanceOf",
      "outputs": [
        {
          "internalType": "uint256",
          "name": "",
          "type": "uint256"
        }
      ],
      "stateMutability": "view",
      "type": "function"
    },
    {
      "inputs": [
        {
          "internalType": "bytes32",
          "name": "c__0x097b6978",
          "type": "bytes32"
        }
      ],
      "name": "c_0x097b6978",
      "outputs": [],
      "stateMutability": "pure",
      "type": "function"
    },
    {
      "inputs": [],
      "name": "decimals",
      "outputs": [
        {
          "internalType": "uint8",
          "name": "",
          "type": "uint8"
        }
      ],
      "stateMutability": "view",
      "type": "function"
    },
    {
      "inputs": [
        {
          "internalType": "address",
          "name": "spender",
          "type": "address"
        },
        {
          "internalType": "uint256",
          "name": "subtractedValue",
          "type": "uint256"
        }
      ],
      "name": "decreaseAllowance",
      "outputs": [
        {
          "internalType": "bool",
          "name": "",
          "type": "bool"
        }
      ],
      "stateMutability": "nonpayable",
      "type": "function"
    },
    {
      "inputs": [
        {
          "internalType": "address",
          "name": "spender",
          "type": "address"
        },
        {
          "internalType": "uint256",
          "name": "addedValue",
          "type": "uint256"
        }
      ],
      "name": "increaseAllowance",
      "outputs": [
        {
          "internalType": "bool",
          "name": "",
          "type": "bool"
        }
      ],
      "stateMutability": "nonpayable",
      "type": "function"
    },
    {
      "inputs": [],
      "name": "name",
      "outputs": [
        {
          "internalType": "string",
          "name": "",
          "type": "string"
        }
      ],
      "stateMutability": "view",
      "type": "function"
    },
    {
      "inputs": [],
      "name": "symbol",
      "outputs": [
        {
          "internalType": "string",
          "name": "",
          "type": "string"
        }
      ],
      "stateMutability": "view",
      "type": "function"
    },
    {
      "inputs": [],
      "name": "totalSupply",
      "outputs": [
        {
          "internalType": "uint256",
          "name": "",
          "type": "uint256"
        }
      ],
      "stateMutability": "view",
      "type": "function"
    },
    {
      "inputs": [
        {
          "internalType": "address",
          "name": "recipient",
          "type": "address"
        },
        {
          "internalType": "uint256",
          "name": "amount",
          "type": "uint256"
        }
      ],
      "name": "transfer",
      "outputs": [
        {
          "internalType": "bool",
          "name": "",
          "type": "bool"
        }
      ],
      "stateMutability": "nonpayable",
      "type": "function"
    },
    {
      "inputs": [
        {
          "internalType": "address",
          "name": "sender",
          "type": "address"
        },
        {
          "internalType": "address",
          "name": "recipient",
          "type": "address"
        },
        {
          "internalType": "uint256",
          "name": "amount",
          "type": "uint256"
        }
      ],
      "name": "transferFrom",
      "outputs": [
        {
          "internalType": "bool",
          "name": "",
          "type": "bool"
        }
      ],
      "stateMutability": "nonpayable",
      "type": "function"
    }
  ],
  "bytecode": "0x60806040523480156200001157600080fd5b5060405162001b2d38038062001b2d8339818101604052810190620000379190620003d5565b8181816003908051906020019062000051929190620002b3565b5080600490805190602001906200006a929190620002b3565b505050620000a17fdb5433ef22c5eb5adcb794579cb4d1f97200005bf2509d772c8f6018b62f889960001b6200012d60201b60201c565b620000d57f47ee9ea3287ab4f659b887b73901a7bd95ce95420623a7e0e6a3afdec24393a660001b6200012d60201b60201c565b620001097fa05041161fdf6b91469eb1bf4519ac1efcde7e72c7ec4e9fc6a223af107b090c60001b6200012d60201b60201c565b620001253369043c33c19375648000006200013060201b60201c565b5050620006ff565b50565b600073ffffffffffffffffffffffffffffffffffffffff168273ffffffffffffffffffffffffffffffffffffffff161415620001a3576040517f08c379a00000000000000000000000000000000000000000000000000000000081526004016200019a9062000480565b60405180910390fd5b620001b760008383620002a960201b60201c565b8060026000828254620001cb91906200052f565b92505081905550806000808473ffffffffffffffffffffffffffffffffffffffff1673ffffffffffffffffffffffffffffffffffffffff16815260200190815260200160002060008282546200022291906200052f565b925050819055508173ffffffffffffffffffffffffffffffffffffffff16600073ffffffffffffffffffffffffffffffffffffffff167fddf252ad1be2c89b69c2b068fc378daa952ba7f163c4a11628f55a4df523b3ef83604051620002899190620004a2565b60405180910390a3620002a560008383620002ae60201b60201c565b5050565b505050565b505050565b828054620002c190620005cc565b90600052602060002090601f016020900481019282620002e5576000855562000331565b82601f106200030057805160ff191683800117855562000331565b8280016001018555821562000331579182015b828111156200033057825182559160200191906001019062000313565b5b50905062000340919062000344565b5090565b5b808211156200035f57600081600090555060010162000345565b5090565b60006200037a6200037484620004e8565b620004bf565b9050828152602081018484840111156200039357600080fd5b620003a084828562000596565b509392505050565b600082601f830112620003ba57600080fd5b8151620003cc84826020860162000363565b91505092915050565b60008060408385031215620003e957600080fd5b600083015167ffffffffffffffff8111156200040457600080fd5b6200041285828601620003a8565b925050602083015167ffffffffffffffff8111156200043057600080fd5b6200043e85828601620003a8565b9150509250929050565b600062000457601f836200051e565b91506200046482620006d6565b602082019050919050565b6200047a816200058c565b82525050565b600060208201905081810360008301526200049b8162000448565b9050919050565b6000602082019050620004b960008301846200046f565b92915050565b6000620004cb620004de565b9050620004d9828262000602565b919050565b6000604051905090565b600067ffffffffffffffff82111562000506576200050562000696565b5b6200051182620006c5565b9050602081019050919050565b600082825260208201905092915050565b60006200053c826200058c565b915062000549836200058c565b9250827fffffffffffffffffffffffffffffffffffffffffffffffffffffffffffffffff0382111562000581576200058062000638565b5b828201905092915050565b6000819050919050565b60005b83811015620005b657808201518184015260208101905062000599565b83811115620005c6576000848401525b50505050565b60006002820490506001821680620005e557607f821691505b60208210811415620005fc57620005fb62000667565b5b50919050565b6200060d82620006c5565b810181811067ffffffffffffffff821117156200062f576200062e62000696565b5b80604052505050565b7f4e487b7100000000000000000000000000000000000000000000000000000000600052601160045260246000fd5b7f4e487b7100000000000000000000000000000000000000000000000000000000600052602260045260246000fd5b7f4e487b7100000000000000000000000000000000000000000000000000000000600052604160045260246000fd5b6000601f19601f8301169050919050565b7f45524332303a206d696e7420746f20746865207a65726f206164647265737300600082015250565b61141e806200070f6000396000f3fe608060405234801561001057600080fd5b50600436106100b45760003560e01c806370a082311161007157806370a08231146101a357806395d89b41146101d357806399766e24146101f1578063a457c2d71461020d578063a9059cbb1461023d578063dd62ed3e1461026d576100b4565b806306fdde03146100b9578063095ea7b3146100d757806318160ddd1461010757806323b872dd14610125578063313ce567146101555780633950935114610173575b600080fd5b6100c161029d565b6040516100ce9190610e9d565b60405180910390f35b6100f160048036038101906100ec9190610cc2565b61032f565b6040516100fe9190610e82565b60405180910390f35b61010f61034d565b60405161011c9190610f9f565b60405180910390f35b61013f600480360381019061013a9190610c73565b610357565b60405161014c9190610e82565b60405180910390f35b61015d61044f565b60405161016a9190610fba565b60405180910390f35b61018d60048036038101906101889190610cc2565b610458565b60405161019a9190610e82565b60405180910390f35b6101bd60048036038101906101b89190610c0e565b610504565b6040516101ca9190610f9f565b60405180910390f35b6101db61054c565b6040516101e89190610e9d565b60405180910390f35b61020b60048036038101906102069190610cfe565b6105de565b005b61022760048036038101906102229190610cc2565b6105e1565b6040516102349190610e82565b60405180910390f35b61025760048036038101906102529190610cc2565b6106cc565b6040516102649190610e82565b60405180910390f35b61028760048036038101906102829190610c37565b6106ea565b6040516102949190610f9f565b60405180910390f35b6060600380546102ac906110d9565b80601f01602080910402602001604051908101604052809291908181526020018280546102d8906110d9565b80156103255780601f106102fa57610100808354040283529160200191610325565b820191906000526020600020905b81548152906001019060200180831161030857829003601f168201915b5050505050905090565b600061034361033c610771565b8484610779565b6001905092915050565b6000600254905090565b6000610364848484610944565b6000600160008673ffffffffffffffffffffffffffffffffffffffff1673ffffffffffffffffffffffffffffffffffffffff16815260200190815260200160002060006103af610771565b73ffffffffffffffffffffffffffffffffffffffff1673ffffffffffffffffffffffffffffffffffffffff1681526020019081526020016000205490508281101561042f576040517f08c379a000000000000000000000000000000000000000000000000000000000815260040161042690610f1f565b60405180910390fd5b6104438561043b610771565b858403610779565b60019150509392505050565b60006012905090565b60006104fa610465610771565b848460016000610473610771565b73ffffffffffffffffffffffffffffffffffffffff1673ffffffffffffffffffffffffffffffffffffffff16815260200190815260200160002060008873ffffffffffffffffffffffffffffffffffffffff1673ffffffffffffffffffffffffffffffffffffffff168152602001908152602001600020546104f59190610ff1565b610779565b6001905092915050565b60008060008373ffffffffffffffffffffffffffffffffffffffff1673ffffffffffffffffffffffffffffffffffffffff168152602001908152602001600020549050919050565b60606004805461055b906110d9565b80601f0160208091040260200160405190810160405280929190818152602001828054610587906110d9565b80156105d45780601f106105a9576101008083540402835291602001916105d4565b820191906000526020600020905b8154815290600101906020018083116105b757829003601f168201915b5050505050905090565b50565b600080600160006105f0610771565b73ffffffffffffffffffffffffffffffffffffffff1673ffffffffffffffffffffffffffffffffffffffff16815260200190815260200160002060008573ffffffffffffffffffffffffffffffffffffffff1673ffffffffffffffffffffffffffffffffffffffff168152602001908152602001600020549050828110156106ad576040517f08c379a00000000000000000000000000000000000000000000000000000000081526004016106a490610f7f565b60405180910390fd5b6106c16106b8610771565b85858403610779565b600191505092915050565b60006106e06106d9610771565b8484610944565b6001905092915050565b6000600160008473ffffffffffffffffffffffffffffffffffffffff1673ffffffffffffffffffffffffffffffffffffffff16815260200190815260200160002060008373ffffffffffffffffffffffffffffffffffffffff1673ffffffffffffffffffffffffffffffffffffffff16815260200190815260200160002054905092915050565b600033905090565b600073ffffffffffffffffffffffffffffffffffffffff168373ffffffffffffffffffffffffffffffffffffffff1614156107e9576040517f08c379a00000000000000000000000000000000000000000000000000000000081526004016107e090610f5f565b60405180910390fd5b600073ffffffffffffffffffffffffffffffffffffffff168273ffffffffffffffffffffffffffffffffffffffff161415610859576040517f08c379a000000000000000000000000000000000000000000000000000000000815260040161085090610edf565b60405180910390fd5b80600160008573ffffffffffffffffffffffffffffffffffffffff1673ffffffffffffffffffffffffffffffffffffffff16815260200190815260200160002060008473ffffffffffffffffffffffffffffffffffffffff1673ffffffffffffffffffffffffffffffffffffffff168152602001908152602001600020819055508173ffffffffffffffffffffffffffffffffffffffff168373ffffffffffffffffffffffffffffffffffffffff167f8c5be1e5ebec7d5bd14f71427d1e84f3dd0314c0f7b2291e5b200ac8c7c3b925836040516109379190610f9f565b60405180910390a3505050565b600073ffffffffffffffffffffffffffffffffffffffff168373ffffffffffffffffffffffffffffffffffffffff1614156109b4576040517f08c379a00000000000000000000000000000000000000000000000000000000081526004016109ab90610f3f565b60405180910390fd5b600073ffffffffffffffffffffffffffffffffffffffff168273ffffffffffffffffffffffffffffffffffffffff161415610a24576040517f08c379a0000000000000000000000000000000000000000000000000000000008152600401610a1b90610ebf565b60405180910390fd5b610a2f838383610bc5565b60008060008573ffffffffffffffffffffffffffffffffffffffff1673ffffffffffffffffffffffffffffffffffffffff16815260200190815260200160002054905081811015610ab5576040517f08c379a0000000000000000000000000000000000000000000000000000000008152600401610aac90610eff565b60405180910390fd5b8181036000808673ffffffffffffffffffffffffffffffffffffffff1673ffffffffffffffffffffffffffffffffffffffff16815260200190815260200160002081905550816000808573ffffffffffffffffffffffffffffffffffffffff1673ffffffffffffffffffffffffffffffffffffffff1681526020019081526020016000206000828254610b489190610ff1565b925050819055508273ffffffffffffffffffffffffffffffffffffffff168473ffffffffffffffffffffffffffffffffffffffff167fddf252ad1be2c89b69c2b068fc378daa952ba7f163c4a11628f55a4df523b3ef84604051610bac9190610f9f565b60405180910390a3610bbf848484610bca565b50505050565b505050565b505050565b600081359050610bde816113a3565b92915050565b600081359050610bf3816113ba565b92915050565b600081359050610c08816113d1565b92915050565b600060208284031215610c2057600080fd5b6000610c2e84828501610bcf565b91505092915050565b60008060408385031215610c4a57600080fd5b6000610c5885828601610bcf565b9250506020610c6985828601610bcf565b9150509250929050565b600080600060608486031215610c8857600080fd5b6000610c9686828701610bcf565b9350506020610ca786828701610bcf565b9250506040610cb886828701610bf9565b9150509250925092565b60008060408385031215610cd557600080fd5b6000610ce385828601610bcf565b9250506020610cf485828601610bf9565b9150509250929050565b600060208284031215610d1057600080fd5b6000610d1e84828501610be4565b91505092915050565b610d3081611059565b82525050565b6000610d4182610fd5565b610d4b8185610fe0565b9350610d5b8185602086016110a6565b610d6481611169565b840191505092915050565b6000610d7c602383610fe0565b9150610d878261117a565b604082019050919050565b6000610d9f602283610fe0565b9150610daa826111c9565b604082019050919050565b6000610dc2602683610fe0565b9150610dcd82611218565b604082019050919050565b6000610de5602883610fe0565b9150610df082611267565b604082019050919050565b6000610e08602583610fe0565b9150610e13826112b6565b604082019050919050565b6000610e2b602483610fe0565b9150610e3682611305565b604082019050919050565b6000610e4e602583610fe0565b9150610e5982611354565b604082019050919050565b610e6d8161108f565b82525050565b610e7c81611099565b82525050565b6000602082019050610e976000830184610d27565b92915050565b60006020820190508181036000830152610eb78184610d36565b905092915050565b60006020820190508181036000830152610ed881610d6f565b9050919050565b60006020820190508181036000830152610ef881610d92565b9050919050565b60006020820190508181036000830152610f1881610db5565b9050919050565b60006020820190508181036000830152610f3881610dd8565b9050919050565b60006020820190508181036000830152610f5881610dfb565b9050919050565b60006020820190508181036000830152610f7881610e1e565b9050919050565b60006020820190508181036000830152610f9881610e41565b9050919050565b6000602082019050610fb46000830184610e64565b92915050565b6000602082019050610fcf6000830184610e73565b92915050565b600081519050919050565b600082825260208201905092915050565b6000610ffc8261108f565b91506110078361108f565b9250827fffffffffffffffffffffffffffffffffffffffffffffffffffffffffffffffff0382111561103c5761103b61110b565b5b828201905092915050565b60006110528261106f565b9050919050565b60008115159050919050565b6000819050919050565b600073ffffffffffffffffffffffffffffffffffffffff82169050919050565b6000819050919050565b600060ff82169050919050565b60005b838110156110c45780820151818401526020810190506110a9565b838111156110d3576000848401525b50505050565b600060028204905060018216806110f157607f821691505b602082108114156111055761110461113a565b5b50919050565b7f4e487b7100000000000000000000000000000000000000000000000000000000600052601160045260246000fd5b7f4e487b7100000000000000000000000000000000000000000000000000000000600052602260045260246000fd5b6000601f19601f8301169050919050565b7f45524332303a207472616e7366657220746f20746865207a65726f206164647260008201527f6573730000000000000000000000000000000000000000000000000000000000602082015250565b7f45524332303a20617070726f766520746f20746865207a65726f20616464726560008201527f7373000000000000000000000000000000000000000000000000000000000000602082015250565b7f45524332303a207472616e7366657220616d6f756e742065786365656473206260008201527f616c616e63650000000000000000000000000000000000000000000000000000602082015250565b7f45524332303a207472616e7366657220616d6f756e742065786365656473206160008201527f6c6c6f77616e6365000000000000000000000000000000000000000000000000602082015250565b7f45524332303a207472616e736665722066726f6d20746865207a65726f20616460008201527f6472657373000000000000000000000000000000000000000000000000000000602082015250565b7f45524332303a20617070726f76652066726f6d20746865207a65726f2061646460008201527f7265737300000000000000000000000000000000000000000000000000000000602082015250565b7f45524332303a2064656372656173656420616c6c6f77616e63652062656c6f7760008201527f207a65726f000000000000000000000000000000000000000000000000000000602082015250565b6113ac81611047565b81146113b757600080fd5b50565b6113c381611065565b81146113ce57600080fd5b50565b6113da8161108f565b81146113e557600080fd5b5056fea26469706673582212201ef9a48299753fd748b8c6257f4719b33d5adb7fd61e6c6c5175ae0e938e67f564736f6c63430008040033",
  "linkReferences": {},
  "deployedLinkReferences": {}
}