{
  "address": "0x5FbDB2315678afecb367f032d93F642f64180aa3",
  "abi": [
    {
      "inputs": [
        {
          "internalType": "address[]",
          "name": "repHolders",
          "type": "address[]"
        },
        {
          "internalType": "uint256[]",
          "name": "repAmouts",
          "type": "uint256[]"
        }
      ],
      "stateMutability": "nonpayable",
      "type": "constructor"
    },
    {
      "anonymous": false,
      "inputs": [
        {
          "indexed": true,
          "internalType": "address",
          "name": "owner",
          "type": "address"
        },
        {
          "indexed": true,
          "internalType": "address",
          "name": "spender",
          "type": "address"
        },
        {
          "indexed": false,
          "internalType": "uint256",
          "name": "value",
          "type": "uint256"
        }
      ],
      "name": "Approval",
      "type": "event"
    },
    {
      "anonymous": false,
      "inputs": [
        {
          "indexed": false,
          "internalType": "uint256",
          "name": "id",
          "type": "uint256"
        }
      ],
      "name": "Snapshot",
      "type": "event"
    },
    {
      "anonymous": false,
      "inputs": [
        {
          "indexed": true,
          "internalType": "address",
          "name": "from",
          "type": "address"
        },
        {
          "indexed": true,
          "internalType": "address",
          "name": "to",
          "type": "address"
        },
        {
          "indexed": false,
          "internalType": "uint256",
          "name": "value",
          "type": "uint256"
        }
      ],
      "name": "Transfer",
      "type": "event"
    },
    {
      "inputs": [
        {
          "internalType": "address",
          "name": "owner",
          "type": "address"
        },
        {
          "internalType": "address",
          "name": "spender",
          "type": "address"
        }
      ],
      "name": "allowance",
      "outputs": [
        {
          "internalType": "uint256",
          "name": "",
          "type": "uint256"
        }
      ],
      "stateMutability": "view",
      "type": "function"
    },
    {
      "inputs": [
        {
          "internalType": "address",
          "name": "spender",
          "type": "address"
        },
        {
          "internalType": "uint256",
          "name": "amount",
          "type": "uint256"
        }
      ],
      "name": "approve",
      "outputs": [
        {
          "internalType": "bool",
          "name": "",
          "type": "bool"
        }
      ],
      "stateMutability": "nonpayable",
      "type": "function"
    },
    {
      "inputs": [
        {
          "internalType": "address",
          "name": "account",
          "type": "address"
        }
      ],
      "name": "balanceOf",
      "outputs": [
        {
          "internalType": "uint256",
          "name": "",
          "type": "uint256"
        }
      ],
      "stateMutability": "view",
      "type": "function"
    },
    {
      "inputs": [
        {
          "internalType": "address",
          "name": "account",
          "type": "address"
        },
        {
          "internalType": "uint256",
          "name": "snapshotId",
          "type": "uint256"
        }
      ],
      "name": "balanceOfAt",
      "outputs": [
        {
          "internalType": "uint256",
          "name": "",
          "type": "uint256"
        }
      ],
      "stateMutability": "view",
      "type": "function"
    },
    {
      "inputs": [],
      "name": "decimals",
      "outputs": [
        {
          "internalType": "uint8",
          "name": "",
          "type": "uint8"
        }
      ],
      "stateMutability": "view",
      "type": "function"
    },
    {
      "inputs": [
        {
          "internalType": "address",
          "name": "spender",
          "type": "address"
        },
        {
          "internalType": "uint256",
          "name": "subtractedValue",
          "type": "uint256"
        }
      ],
      "name": "decreaseAllowance",
      "outputs": [
        {
          "internalType": "bool",
          "name": "",
          "type": "bool"
        }
      ],
      "stateMutability": "nonpayable",
      "type": "function"
    },
    {
      "inputs": [
        {
          "internalType": "address",
          "name": "spender",
          "type": "address"
        },
        {
          "internalType": "uint256",
          "name": "addedValue",
          "type": "uint256"
        }
      ],
      "name": "increaseAllowance",
      "outputs": [
        {
          "internalType": "bool",
          "name": "",
          "type": "bool"
        }
      ],
      "stateMutability": "nonpayable",
      "type": "function"
    },
    {
      "inputs": [],
      "name": "name",
      "outputs": [
        {
          "internalType": "string",
          "name": "",
          "type": "string"
        }
      ],
      "stateMutability": "view",
      "type": "function"
    },
    {
      "inputs": [],
      "name": "symbol",
      "outputs": [
        {
          "internalType": "string",
          "name": "",
          "type": "string"
        }
      ],
      "stateMutability": "view",
      "type": "function"
    },
    {
      "inputs": [],
      "name": "totalSupply",
      "outputs": [
        {
          "internalType": "uint256",
          "name": "",
          "type": "uint256"
        }
      ],
      "stateMutability": "view",
      "type": "function"
    },
    {
      "inputs": [
        {
          "internalType": "uint256",
          "name": "snapshotId",
          "type": "uint256"
        }
      ],
      "name": "totalSupplyAt",
      "outputs": [
        {
          "internalType": "uint256",
          "name": "",
          "type": "uint256"
        }
      ],
      "stateMutability": "view",
      "type": "function"
    },
    {
      "inputs": [
        {
          "internalType": "address",
          "name": "recipient",
          "type": "address"
        },
        {
          "internalType": "uint256",
          "name": "amount",
          "type": "uint256"
        }
      ],
      "name": "transfer",
      "outputs": [
        {
          "internalType": "bool",
          "name": "",
          "type": "bool"
        }
      ],
      "stateMutability": "nonpayable",
      "type": "function"
    },
    {
      "inputs": [
        {
          "internalType": "address",
          "name": "sender",
          "type": "address"
        },
        {
          "internalType": "address",
          "name": "recipient",
          "type": "address"
        },
        {
          "internalType": "uint256",
          "name": "amount",
          "type": "uint256"
        }
      ],
      "name": "transferFrom",
      "outputs": [
        {
          "internalType": "bool",
          "name": "",
          "type": "bool"
        }
      ],
      "stateMutability": "nonpayable",
      "type": "function"
    }
  ],
  "transactionHash": "0x738741d1bf0aa0d7fc406af7cada1fca6848c4c74a6be2a103ca15cbf5e89dd6",
  "args": [
    [
      "0x70997970C51812dc3A010C7d01b50e0d17dc79C8",
      "0x3C44CdDdB6a900fa2b585dd299e03d12FA4293BC",
      "0x90F79bf6EB2c4f870365E785982E1f101E93b906"
    ],
    [
      "10000000000000000000",
      "10500000000000000000",
      "20000000000000000000"
    ]
  ],
  "solcInputHash": "456792635172a207bb0328bb7f2139af",
  "bytecode": "0x60806040523480156200001157600080fd5b506040516200136e3803806200136e833981016040819052620000349162000572565b6040518060400160405280601381526020017f5072696d6544414f2052657075746174696f6e000000000000000000000000008152506040518060400160405280600381526020016205245560ec1b81525081600390805190602001906200009e92919062000452565b508051620000b490600490602084019062000452565b50505081518151146200015a5760405162461bcd60e51b815260206004820152605360248201527f52657075746174696f6e3a206e756d626572206f662072657075746174696f6e60448201527f20686f6c6465727320646f65736e2774206d61746368206e756d626572206f6660648201527f2072657075746174696f6e20616d6f756e747300000000000000000000000000608482015260a4015b60405180910390fd5b60005b8151816001600160401b03161015620001e657620001d183826001600160401b03168151811062000192576200019262000761565b602002602001015183836001600160401b031681518110620001b857620001b862000761565b6020026020010151620001ef60201b6200042f1760201c565b80620001dd8162000721565b9150506200015d565b5050506200078d565b6001600160a01b038216620002475760405162461bcd60e51b815260206004820152601f60248201527f45524332303a206d696e7420746f20746865207a65726f206164647265737300604482015260640162000151565b6200025560008383620002e2565b8060026000828254620002699190620006af565b90915550506001600160a01b0382166000908152602081905260408120805483929062000298908490620006af565b90915550506040518181526001600160a01b038316906000907fddf252ad1be2c89b69c2b068fc378daa952ba7f163c4a11628f55a4df523b3ef9060200160405180910390a35050565b620002fa8383836200031e60201b6200051a1760201c565b6001600160a01b038316620003235762000314826200034e565b6200031e62000386565b505050565b6001600160a01b0382166200033d5762000314836200034e565b62000348836200034e565b6200031e825b6001600160a01b0381166000908152600560209081526040808320918390529091205462000383919062000398565b62000398565b50565b6200039660066200037d60025490565b565b6000620003a4620003e7565b905080620003b28462000405565b10156200031e578254600180820185556000858152602080822090930193909355938401805494850181558252902090910155565b60006200040060086200044e60201b6200051f1760201c565b905090565b80546000906200041757506000919050565b815482906200042990600190620006ca565b815481106200043c576200043c62000761565b90600052602060002001549050919050565b5490565b8280546200046090620006e4565b90600052602060002090601f016020900481019282620004845760008555620004cf565b82601f106200049f57805160ff1916838001178555620004cf565b82800160010185558215620004cf579182015b82811115620004cf578251825591602001919060010190620004b2565b50620004dd929150620004e1565b5090565b5b80821115620004dd5760008155600101620004e2565b600082601f8301126200050a57600080fd5b81516020620005236200051d8362000689565b62000656565b80838252828201915082860187848660051b89010111156200054457600080fd5b60005b85811015620005655781518452928401929084019060010162000547565b5090979650505050505050565b600080604083850312156200058657600080fd5b82516001600160401b03808211156200059e57600080fd5b818501915085601f830112620005b357600080fd5b81516020620005c66200051d8362000689565b8083825282820191508286018a848660051b8901011115620005e757600080fd5b600096505b84871015620006225780516001600160a01b03811681146200060d57600080fd5b835260019690960195918301918301620005ec565b50918801519196509093505050808211156200063d57600080fd5b506200064c85828601620004f8565b9150509250929050565b604051601f8201601f191681016001600160401b038111828210171562000681576200068162000777565b604052919050565b60006001600160401b03821115620006a557620006a562000777565b5060051b60200190565b60008219821115620006c557620006c56200074b565b500190565b600082821015620006df57620006df6200074b565b500390565b600181811c90821680620006f957607f821691505b602082108114156200071b57634e487b7160e01b600052602260045260246000fd5b50919050565b60006001600160401b03828116808214156200074157620007416200074b565b6001019392505050565b634e487b7160e01b600052601160045260246000fd5b634e487b7160e01b600052603260045260246000fd5b634e487b7160e01b600052604160045260246000fd5b610bd1806200079d6000396000f3fe608060405234801561001057600080fd5b50600436106100cf5760003560e01c80634ee2cd7e1161008c578063981b24d011610066578063981b24d0146101a4578063a457c2d7146101b7578063a9059cbb146101ca578063dd62ed3e146101e057600080fd5b80634ee2cd7e1461016057806370a082311461017357806395d89b411461019c57600080fd5b806306fdde03146100d4578063095ea7b3146100f257806318160ddd1461011557806323b872dd14610127578063313ce5671461013e578063395093511461014d575b600080fd5b6100dc610219565b6040516100e99190610a72565b60405180910390f35b610105610100366004610a2f565b6102ab565b60405190151581526020016100e9565b6002545b6040519081526020016100e9565b6101056101353660046109f3565b60009392505050565b604051601281526020016100e9565b61010561015b366004610a2f565b6102c2565b61011961016e366004610a2f565b6102fe565b6101196101813660046109a5565b6001600160a01b031660009081526020819052604090205490565b6100dc610357565b6101196101b2366004610a59565b610366565b6101056101c5366004610a2f565b610391565b6101056101d8366004610a2f565b600092915050565b6101196101ee3660046109c0565b6001600160a01b03918216600090815260016020908152604080832093909416825291909152205490565b60606003805461022890610b0a565b80601f016020809104026020016040519081016040528092919081815260200182805461025490610b0a565b80156102a15780601f10610276576101008083540402835291602001916102a1565b820191906000526020600020905b81548152906001019060200180831161028457829003601f168201915b5050505050905090565b60006102b8338484610523565b5060015b92915050565b3360008181526001602090815260408083206001600160a01b038716845290915281205490916102b89185906102f9908690610ac7565b610523565b6001600160a01b038216600090815260056020526040812081908190610325908590610647565b915091508161034c576001600160a01b03851660009081526020819052604090205461034e565b805b95945050505050565b60606004805461022890610b0a565b6000806000610376846006610647565b915091508161038757600254610389565b805b949350505050565b3360009081526001602090815260408083206001600160a01b0386168452909152812054828110156104185760405162461bcd60e51b815260206004820152602560248201527f45524332303a2064656372656173656420616c6c6f77616e63652062656c6f77604482015264207a65726f60d81b60648201526084015b60405180910390fd5b6104253385858403610523565b5060019392505050565b6001600160a01b0382166104855760405162461bcd60e51b815260206004820152601f60248201527f45524332303a206d696e7420746f20746865207a65726f206164647265737300604482015260640161040f565b6104916000838361073e565b80600260008282546104a39190610ac7565b90915550506001600160a01b038216600090815260208190526040812080548392906104d0908490610ac7565b90915550506040518181526001600160a01b038316906000907fddf252ad1be2c89b69c2b068fc378daa952ba7f163c4a11628f55a4df523b3ef9060200160405180910390a35050565b505050565b5490565b6001600160a01b0383166105855760405162461bcd60e51b8152602060048201526024808201527f45524332303a20617070726f76652066726f6d20746865207a65726f206164646044820152637265737360e01b606482015260840161040f565b6001600160a01b0382166105e65760405162461bcd60e51b815260206004820152602260248201527f45524332303a20617070726f766520746f20746865207a65726f206164647265604482015261737360f01b606482015260840161040f565b6001600160a01b0383811660008181526001602090815260408083209487168084529482529182902085905590518481527f8c5be1e5ebec7d5bd14f71427d1e84f3dd0314c0f7b2291e5b200ac8c7c3b925910160405180910390a3505050565b600080600084116106935760405162461bcd60e51b815260206004820152601660248201527504552433230536e617073686f743a20696420697320360541b604482015260640161040f565b61069b610786565b8411156106ea5760405162461bcd60e51b815260206004820152601d60248201527f4552433230536e617073686f743a206e6f6e6578697374656e74206964000000604482015260640161040f565b60006106f68486610796565b845490915081141561070f576000809250925050610737565b600184600101828154811061072657610726610b85565b906000526020600020015492509250505b9250929050565b6001600160a01b03831661075d5761075582610859565b61051a61088e565b6001600160a01b0382166107745761075583610859565b61077d83610859565b61051a82610859565b600061079160085490565b905090565b81546000906107a7575060006102bc565b82546000905b808210156108035760006107c1838361089e565b9050848682815481106107d6576107d6610b85565b906000526020600020015411156107ef578091506107fd565b6107fa816001610ac7565b92505b506107ad565b6000821180156108385750838561081b600185610af3565b8154811061082b5761082b610b85565b9060005260206000200154145b1561085157610848600183610af3565b925050506102bc565b5090506102bc565b6001600160a01b0381166000908152600560209081526040808320918390529091205461088b91906108fc565b6108fc565b50565b61089c600661088660025490565b565b600060026108ac8184610b45565b6108b7600286610b45565b6108c19190610ac7565b6108cb9190610adf565b6108d6600284610adf565b6108e1600286610adf565b6108eb9190610ac7565b6108f59190610ac7565b9392505050565b6000610906610786565b90508061091284610946565b101561051a578254600180820185556000858152602080822090930193909355938401805494850181558252902090910155565b805460009061095757506000919050565b8154829061096790600190610af3565b8154811061097757610977610b85565b90600052602060002001549050919050565b919050565b80356001600160a01b038116811461098957600080fd5b6000602082840312156109b757600080fd5b6108f58261098e565b600080604083850312156109d357600080fd5b6109dc8361098e565b91506109ea6020840161098e565b90509250929050565b600080600060608486031215610a0857600080fd5b610a118461098e565b9250610a1f6020850161098e565b9150604084013590509250925092565b60008060408385031215610a4257600080fd5b610a4b8361098e565b946020939093013593505050565b600060208284031215610a6b57600080fd5b5035919050565b600060208083528351808285015260005b81811015610a9f57858101830151858201604001528201610a83565b81811115610ab1576000604083870101525b50601f01601f1916929092016040019392505050565b60008219821115610ada57610ada610b59565b500190565b600082610aee57610aee610b6f565b500490565b600082821015610b0557610b05610b59565b500390565b600181811c90821680610b1e57607f821691505b60208210811415610b3f57634e487b7160e01b600052602260045260246000fd5b50919050565b600082610b5457610b54610b6f565b500690565b634e487b7160e01b600052601160045260246000fd5b634e487b7160e01b600052601260045260246000fd5b634e487b7160e01b600052603260045260246000fdfea2646970667358221220d3f4de7b206438fdffbc301f8c89b7732c4e992601347d22e0ae55fa9c64191c64736f6c63430008060033",
  "devdoc": {
    "kind": "dev",
    "methods": {
      "allowance(address,address)": {
        "details": "See {IERC20-allowance}."
      },
      "approve(address,uint256)": {
        "details": "See {IERC20-approve}. Requirements: - `spender` cannot be the zero address."
      },
      "balanceOf(address)": {
        "details": "See {IERC20-balanceOf}."
      },
      "balanceOfAt(address,uint256)": {
        "details": "Retrieves the balance of `account` at the time `snapshotId` was created."
      },
      "decimals()": {
        "details": "Returns the number of decimals used to get its user representation. For example, if `decimals` equals `2`, a balance of `505` tokens should be displayed to a user as `5,05` (`505 / 10 ** 2`). Tokens usually opt for a value of 18, imitating the relationship between Ether and Wei. This is the value {ERC20} uses, unless this function is overridden; NOTE: This information is only used for _display_ purposes: it in no way affects any of the arithmetic of the contract, including {IERC20-balanceOf} and {IERC20-transfer}."
      },
      "decreaseAllowance(address,uint256)": {
        "details": "Atomically decreases the allowance granted to `spender` by the caller. This is an alternative to {approve} that can be used as a mitigation for problems described in {IERC20-approve}. Emits an {Approval} event indicating the updated allowance. Requirements: - `spender` cannot be the zero address. - `spender` must have allowance for the caller of at least `subtractedValue`."
      },
      "increaseAllowance(address,uint256)": {
        "details": "Atomically increases the allowance granted to `spender` by the caller. This is an alternative to {approve} that can be used as a mitigation for problems described in {IERC20-approve}. Emits an {Approval} event indicating the updated allowance. Requirements: - `spender` cannot be the zero address."
      },
      "name()": {
        "details": "Returns the name of the token."
      },
      "symbol()": {
        "details": "Returns the symbol of the token, usually a shorter version of the name."
      },
      "totalSupply()": {
        "details": "See {IERC20-totalSupply}."
      },
      "totalSupplyAt(uint256)": {
        "details": "Retrieves the total supply at the time `snapshotId` was created."
      },
      "transfer(address,uint256)": {
        "details": "See {IERC20-transfer}. Requirements: - `recipient` cannot be the zero address. - the caller must have a balance of at least `amount`."
      },
      "transferFrom(address,address,uint256)": {
        "details": "See {IERC20-transferFrom}. Emits an {Approval} event indicating the updated allowance. This is not required by the EIP. See the note at the beginning of {ERC20}. Requirements: - `sender` and `recipient` cannot be the zero address. - `sender` must have a balance of at least `amount`. - the caller must have allowance for ``sender``'s tokens of at least `amount`."
      }
    },
    "version": 1
  },
  "userdoc": {
    "kind": "user",
    "methods": {},
    "version": 1
  },
  "storageLayout": {
    "storage": [
      {
        "astId": 9875,
        "contract": "contracts/Reputation.sol:Reputation",
        "label": "_balances",
        "offset": 0,
        "slot": "0",
        "type": "t_mapping(t_address,t_uint256)"
      },
      {
        "astId": 9881,
        "contract": "contracts/Reputation.sol:Reputation",
        "label": "_allowances",
        "offset": 0,
        "slot": "1",
        "type": "t_mapping(t_address,t_mapping(t_address,t_uint256))"
      },
      {
        "astId": 9883,
        "contract": "contracts/Reputation.sol:Reputation",
        "label": "_totalSupply",
        "offset": 0,
        "slot": "2",
        "type": "t_uint256"
      },
      {
        "astId": 9885,
        "contract": "contracts/Reputation.sol:Reputation",
        "label": "_name",
        "offset": 0,
        "slot": "3",
        "type": "t_string_storage"
      },
      {
        "astId": 9887,
        "contract": "contracts/Reputation.sol:Reputation",
        "label": "_symbol",
        "offset": 0,
        "slot": "4",
        "type": "t_string_storage"
      },
      {
        "astId": 10576,
        "contract": "contracts/Reputation.sol:Reputation",
        "label": "_accountBalanceSnapshots",
        "offset": 0,
        "slot": "5",
        "type": "t_mapping(t_address,t_struct(Snapshots)10571_storage)"
      },
      {
        "astId": 10579,
        "contract": "contracts/Reputation.sol:Reputation",
        "label": "_totalSupplySnapshots",
        "offset": 0,
        "slot": "6",
        "type": "t_struct(Snapshots)10571_storage"
      },
      {
        "astId": 10582,
        "contract": "contracts/Reputation.sol:Reputation",
        "label": "_currentSnapshotId",
        "offset": 0,
        "slot": "8",
        "type": "t_struct(Counter)11013_storage"
      }
    ],
    "types": {
      "t_address": {
        "encoding": "inplace",
        "label": "address",
        "numberOfBytes": "20"
      },
      "t_array(t_uint256)dyn_storage": {
        "base": "t_uint256",
        "encoding": "dynamic_array",
        "label": "uint256[]",
        "numberOfBytes": "32"
      },
      "t_mapping(t_address,t_mapping(t_address,t_uint256))": {
        "encoding": "mapping",
        "key": "t_address",
        "label": "mapping(address => mapping(address => uint256))",
        "numberOfBytes": "32",
        "value": "t_mapping(t_address,t_uint256)"
      },
      "t_mapping(t_address,t_struct(Snapshots)10571_storage)": {
        "encoding": "mapping",
        "key": "t_address",
        "label": "mapping(address => struct ERC20Snapshot.Snapshots)",
        "numberOfBytes": "32",
        "value": "t_struct(Snapshots)10571_storage"
      },
      "t_mapping(t_address,t_uint256)": {
        "encoding": "mapping",
        "key": "t_address",
        "label": "mapping(address => uint256)",
        "numberOfBytes": "32",
        "value": "t_uint256"
      },
      "t_string_storage": {
        "encoding": "bytes",
        "label": "string",
        "numberOfBytes": "32"
      },
      "t_struct(Counter)11013_storage": {
        "encoding": "inplace",
        "label": "struct Counters.Counter",
        "members": [
          {
            "astId": 11012,
            "contract": "contracts/Reputation.sol:Reputation",
            "label": "_value",
            "offset": 0,
            "slot": "0",
            "type": "t_uint256"
          }
        ],
        "numberOfBytes": "32"
      },
      "t_struct(Snapshots)10571_storage": {
        "encoding": "inplace",
        "label": "struct ERC20Snapshot.Snapshots",
        "members": [
          {
            "astId": 10567,
            "contract": "contracts/Reputation.sol:Reputation",
            "label": "ids",
            "offset": 0,
            "slot": "0",
            "type": "t_array(t_uint256)dyn_storage"
          },
          {
            "astId": 10570,
            "contract": "contracts/Reputation.sol:Reputation",
            "label": "values",
            "offset": 0,
            "slot": "1",
            "type": "t_array(t_uint256)dyn_storage"
          }
        ],
        "numberOfBytes": "64"
      },
      "t_uint256": {
        "encoding": "inplace",
        "label": "uint256",
        "numberOfBytes": "32"
      }
    }
  }
}