{
  "_format": "hh-sol-artifact-1",
  "contractName": "Seed",
  "sourceName": "contracts/seed/Seed.sol",
  "abi": [
    {
      "anonymous": false,
      "inputs": [
        {
          "indexed": true,
          "internalType": "address",
          "name": "recipient",
          "type": "address"
        },
        {
          "indexed": false,
          "internalType": "uint256",
          "name": "amountReclaimed",
          "type": "uint256"
        }
      ],
      "name": "FundingReclaimed",
      "type": "event"
    },
    {
      "anonymous": false,
      "inputs": [
        {
          "indexed": true,
          "internalType": "bytes",
          "name": "metadata",
          "type": "bytes"
        }
      ],
      "name": "MetadataUpdated",
      "type": "event"
    },
    {
      "anonymous": false,
      "inputs": [
        {
          "indexed": true,
          "internalType": "address",
          "name": "recipient",
          "type": "address"
        },
        {
          "indexed": false,
          "internalType": "uint256",
          "name": "amountPurchased",
          "type": "uint256"
        }
      ],
      "name": "SeedsPurchased",
      "type": "event"
    },
    {
      "anonymous": false,
      "inputs": [
        {
          "indexed": true,
          "internalType": "address",
          "name": "recipient",
          "type": "address"
        },
        {
          "indexed": false,
          "internalType": "uint256",
          "name": "amount",
          "type": "uint256"
        },
        {
          "indexed": true,
          "internalType": "address",
          "name": "beneficiary",
          "type": "address"
        },
        {
          "indexed": false,
          "internalType": "uint256",
          "name": "feeAmount",
          "type": "uint256"
        }
      ],
      "name": "TokensClaimed",
      "type": "event"
    },
    {
      "inputs": [],
      "name": "admin",
      "outputs": [
        {
          "internalType": "address",
          "name": "",
          "type": "address"
        }
      ],
      "stateMutability": "view",
      "type": "function"
    },
    {
      "inputs": [],
      "name": "beneficiary",
      "outputs": [
        {
          "internalType": "address",
          "name": "",
          "type": "address"
        }
      ],
      "stateMutability": "view",
      "type": "function"
    },
    {
      "inputs": [
        {
          "internalType": "uint256",
          "name": "_fundingAmount",
          "type": "uint256"
        }
      ],
      "name": "buy",
      "outputs": [
        {
          "internalType": "uint256",
          "name": "",
          "type": "uint256"
        },
        {
          "internalType": "uint256",
          "name": "",
          "type": "uint256"
        }
      ],
      "stateMutability": "nonpayable",
      "type": "function"
    },
    {
      "inputs": [
        {
          "internalType": "address",
          "name": "_funder",
          "type": "address"
        }
      ],
      "name": "calculateClaim",
      "outputs": [
        {
          "internalType": "uint256",
          "name": "",
          "type": "uint256"
        }
      ],
      "stateMutability": "view",
      "type": "function"
    },
    {
      "inputs": [
        {
          "internalType": "address",
          "name": "_funder",
          "type": "address"
        },
        {
          "internalType": "uint256",
          "name": "_claimAmount",
          "type": "uint256"
        }
      ],
      "name": "claim",
      "outputs": [
        {
          "internalType": "uint256",
          "name": "",
          "type": "uint256"
        }
      ],
      "stateMutability": "nonpayable",
      "type": "function"
    },
    {
      "inputs": [],
      "name": "close",
      "outputs": [],
      "stateMutability": "nonpayable",
      "type": "function"
    },
    {
      "inputs": [],
      "name": "closed",
      "outputs": [
        {
          "internalType": "bool",
          "name": "",
          "type": "bool"
        }
      ],
      "stateMutability": "view",
      "type": "function"
    },
    {
      "inputs": [],
      "name": "endTime",
      "outputs": [
        {
          "internalType": "uint256",
          "name": "",
          "type": "uint256"
        }
      ],
      "stateMutability": "view",
      "type": "function"
    },
    {
      "inputs": [],
      "name": "fee",
      "outputs": [
        {
          "internalType": "uint256",
          "name": "",
          "type": "uint256"
        }
      ],
      "stateMutability": "view",
      "type": "function"
    },
    {
      "inputs": [],
      "name": "feeAmountRequired",
      "outputs": [
        {
          "internalType": "uint256",
          "name": "",
          "type": "uint256"
        }
      ],
      "stateMutability": "view",
      "type": "function"
    },
    {
      "inputs": [],
      "name": "feeClaimed",
      "outputs": [
        {
          "internalType": "uint256",
          "name": "",
          "type": "uint256"
        }
      ],
      "stateMutability": "view",
      "type": "function"
    },
    {
      "inputs": [
        {
          "internalType": "address",
          "name": "_funder",
          "type": "address"
        }
      ],
      "name": "feeClaimedForFunder",
      "outputs": [
        {
          "internalType": "uint256",
          "name": "",
          "type": "uint256"
        }
      ],
      "stateMutability": "view",
      "type": "function"
    },
    {
      "inputs": [
        {
          "internalType": "address",
          "name": "_funder",
          "type": "address"
        }
      ],
      "name": "feeForFunder",
      "outputs": [
        {
          "internalType": "uint256",
          "name": "",
          "type": "uint256"
        }
      ],
      "stateMutability": "view",
      "type": "function"
    },
    {
      "inputs": [],
      "name": "feeRemainder",
      "outputs": [
        {
          "internalType": "uint256",
          "name": "",
          "type": "uint256"
        }
      ],
      "stateMutability": "view",
      "type": "function"
    },
    {
      "inputs": [
        {
          "internalType": "address",
          "name": "",
          "type": "address"
        }
      ],
      "name": "funders",
      "outputs": [
        {
          "internalType": "uint256",
          "name": "totalClaimed",
          "type": "uint256"
        },
        {
          "internalType": "uint256",
          "name": "fundingAmount",
          "type": "uint256"
        }
      ],
      "stateMutability": "view",
      "type": "function"
    },
    {
      "inputs": [],
      "name": "fundingCollected",
      "outputs": [
        {
          "internalType": "uint256",
          "name": "",
          "type": "uint256"
        }
      ],
      "stateMutability": "view",
      "type": "function"
    },
    {
      "inputs": [],
      "name": "fundingToken",
      "outputs": [
        {
          "internalType": "contract IERC20",
          "name": "",
          "type": "address"
        }
      ],
      "stateMutability": "view",
      "type": "function"
    },
    {
      "inputs": [],
      "name": "fundingWithdrawn",
      "outputs": [
        {
          "internalType": "uint256",
          "name": "",
          "type": "uint256"
        }
      ],
      "stateMutability": "view",
      "type": "function"
    },
    {
      "inputs": [],
      "name": "hardCap",
      "outputs": [
        {
          "internalType": "uint256",
          "name": "",
          "type": "uint256"
        }
      ],
      "stateMutability": "view",
      "type": "function"
    },
    {
      "inputs": [
        {
          "internalType": "address",
          "name": "_beneficiary",
          "type": "address"
        },
        {
          "internalType": "address",
          "name": "_admin",
          "type": "address"
        },
        {
          "internalType": "address[]",
          "name": "_tokens",
          "type": "address[]"
        },
        {
          "internalType": "uint256[]",
          "name": "_softHardThresholds",
          "type": "uint256[]"
        },
        {
          "internalType": "uint256",
          "name": "_price",
          "type": "uint256"
        },
        {
          "internalType": "uint256",
          "name": "_startTime",
          "type": "uint256"
        },
        {
          "internalType": "uint256",
          "name": "_endTime",
          "type": "uint256"
        },
        {
          "internalType": "uint32",
          "name": "_vestingDuration",
          "type": "uint32"
        },
        {
          "internalType": "uint32",
          "name": "_vestingCliff",
          "type": "uint32"
        },
        {
          "internalType": "bool",
          "name": "_permissionedSeed",
          "type": "bool"
        },
        {
          "internalType": "uint256",
          "name": "_fee",
          "type": "uint256"
        }
      ],
      "name": "initialize",
      "outputs": [],
      "stateMutability": "nonpayable",
      "type": "function"
    },
    {
      "inputs": [],
      "name": "initialized",
      "outputs": [
        {
          "internalType": "bool",
          "name": "",
          "type": "bool"
        }
      ],
      "stateMutability": "view",
      "type": "function"
    },
    {
      "inputs": [],
      "name": "isFunded",
      "outputs": [
        {
          "internalType": "bool",
          "name": "",
          "type": "bool"
        }
      ],
      "stateMutability": "view",
      "type": "function"
    },
    {
      "inputs": [],
      "name": "maximumReached",
      "outputs": [
        {
          "internalType": "bool",
          "name": "",
          "type": "bool"
        }
      ],
      "stateMutability": "view",
      "type": "function"
    },
    {
      "inputs": [],
      "name": "metadata",
      "outputs": [
        {
          "internalType": "bytes",
          "name": "",
          "type": "bytes"
        }
      ],
      "stateMutability": "view",
      "type": "function"
    },
    {
      "inputs": [],
      "name": "minimumReached",
      "outputs": [
        {
          "internalType": "bool",
          "name": "",
          "type": "bool"
        }
      ],
      "stateMutability": "view",
      "type": "function"
    },
    {
      "inputs": [],
      "name": "pause",
      "outputs": [],
      "stateMutability": "nonpayable",
      "type": "function"
    },
    {
      "inputs": [],
      "name": "paused",
      "outputs": [
        {
          "internalType": "bool",
          "name": "",
          "type": "bool"
        }
      ],
      "stateMutability": "view",
      "type": "function"
    },
    {
      "inputs": [],
      "name": "permissionedSeed",
      "outputs": [
        {
          "internalType": "bool",
          "name": "",
          "type": "bool"
        }
      ],
      "stateMutability": "view",
      "type": "function"
    },
    {
      "inputs": [],
      "name": "price",
      "outputs": [
        {
          "internalType": "uint256",
          "name": "",
          "type": "uint256"
        }
      ],
      "stateMutability": "view",
      "type": "function"
    },
    {
      "inputs": [],
      "name": "retrieveFundingTokens",
      "outputs": [
        {
          "internalType": "uint256",
          "name": "",
          "type": "uint256"
        }
      ],
      "stateMutability": "nonpayable",
      "type": "function"
    },
    {
      "inputs": [
        {
          "internalType": "address",
          "name": "_refundReceiver",
          "type": "address"
        }
      ],
      "name": "retrieveSeedTokens",
      "outputs": [],
      "stateMutability": "nonpayable",
      "type": "function"
    },
    {
      "inputs": [
        {
          "internalType": "address",
          "name": "_funder",
          "type": "address"
        }
      ],
      "name": "seedAmountForFunder",
      "outputs": [
        {
          "internalType": "uint256",
          "name": "",
          "type": "uint256"
        }
      ],
      "stateMutability": "view",
      "type": "function"
    },
    {
      "inputs": [],
      "name": "seedAmountRequired",
      "outputs": [
        {
          "internalType": "uint256",
          "name": "",
          "type": "uint256"
        }
      ],
      "stateMutability": "view",
      "type": "function"
    },
    {
      "inputs": [],
      "name": "seedClaimed",
      "outputs": [
        {
          "internalType": "uint256",
          "name": "",
          "type": "uint256"
        }
      ],
      "stateMutability": "view",
      "type": "function"
    },
    {
      "inputs": [],
      "name": "seedRemainder",
      "outputs": [
        {
          "internalType": "uint256",
          "name": "",
          "type": "uint256"
        }
      ],
      "stateMutability": "view",
      "type": "function"
    },
    {
      "inputs": [],
      "name": "seedToken",
      "outputs": [
        {
          "internalType": "contract IERC20",
          "name": "",
          "type": "address"
        }
      ],
      "stateMutability": "view",
      "type": "function"
    },
    {
      "inputs": [],
      "name": "softCap",
      "outputs": [
        {
          "internalType": "uint256",
          "name": "",
          "type": "uint256"
        }
      ],
      "stateMutability": "view",
      "type": "function"
    },
    {
      "inputs": [],
      "name": "startTime",
      "outputs": [
        {
          "internalType": "uint256",
          "name": "",
          "type": "uint256"
        }
      ],
      "stateMutability": "view",
      "type": "function"
    },
    {
      "inputs": [],
      "name": "totalFunderCount",
      "outputs": [
        {
          "internalType": "uint256",
          "name": "",
          "type": "uint256"
        }
      ],
      "stateMutability": "view",
      "type": "function"
    },
    {
      "inputs": [],
      "name": "unpause",
      "outputs": [],
      "stateMutability": "nonpayable",
      "type": "function"
    },
    {
      "inputs": [
        {
          "internalType": "address",
          "name": "buyer",
          "type": "address"
        }
      ],
      "name": "unwhitelist",
      "outputs": [],
      "stateMutability": "nonpayable",
      "type": "function"
    },
    {
      "inputs": [
        {
          "internalType": "bytes",
          "name": "_metadata",
          "type": "bytes"
        }
      ],
      "name": "updateMetadata",
      "outputs": [],
      "stateMutability": "nonpayable",
      "type": "function"
    },
    {
      "inputs": [],
      "name": "vestingCliff",
      "outputs": [
        {
          "internalType": "uint32",
          "name": "",
          "type": "uint32"
        }
      ],
      "stateMutability": "view",
      "type": "function"
    },
    {
      "inputs": [],
      "name": "vestingDuration",
      "outputs": [
        {
          "internalType": "uint32",
          "name": "",
          "type": "uint32"
        }
      ],
      "stateMutability": "view",
      "type": "function"
    },
    {
      "inputs": [],
      "name": "vestingStartTime",
      "outputs": [
        {
          "internalType": "uint256",
          "name": "",
          "type": "uint256"
        }
      ],
      "stateMutability": "view",
      "type": "function"
    },
    {
      "inputs": [
        {
          "internalType": "address",
          "name": "_buyer",
          "type": "address"
        }
      ],
      "name": "whitelist",
      "outputs": [],
      "stateMutability": "nonpayable",
      "type": "function"
    },
    {
      "inputs": [
        {
          "internalType": "address[]",
          "name": "_buyers",
          "type": "address[]"
        }
      ],
      "name": "whitelistBatch",
      "outputs": [],
      "stateMutability": "nonpayable",
      "type": "function"
    },
    {
      "inputs": [
        {
          "internalType": "address",
          "name": "",
          "type": "address"
        }
      ],
      "name": "whitelisted",
      "outputs": [
        {
          "internalType": "bool",
          "name": "",
          "type": "bool"
        }
      ],
      "stateMutability": "view",
      "type": "function"
    },
    {
      "inputs": [],
      "name": "withdraw",
      "outputs": [],
      "stateMutability": "nonpayable",
      "type": "function"
    }
  ],
  "bytecode": "0x608060405234801561001057600080fd5b50614c7f806100206000396000f3fe608060405234801561001057600080fd5b50600436106102bb5760003560e01c806378e9792511610182578063bc0f5f84116100e9578063e6e36ebb116100a2578063f3640e741161007c578063f3640e741461083e578063f851a4401461085c578063fb86a4041461087a578063fc582d4114610898576102bb565b8063e6e36ebb146107d4578063ea345540146107f2578063eaa5352314610822576102bb565b8063bc0f5f84146106e9578063d936547e14610707578063d96a094a14610737578063dc4b9e3814610768578063ddca3f4314610798578063e565eb4c146107b6576102bb565b80639a5904271161013b5780639a590427146106275780639b19251a14610643578063a035b1fe1461065f578063a8660a781461067d578063aad3ec961461069b578063b774682f146106cb576102bb565b806378e97925146105875780637c654303146105a557806383d59e00146105c35780638456cb59146105e15780638a2448aa146105eb578063906a26e014610609576102bb565b80633dba9e4111610226578063597e1fb5116101df578063597e1fb5146104c15780635c975abb146104df5780635d85ac0d146104fd5780635e9777e81461052d57806371f4b8e81461054b57806378065f2714610569576102bb565b80633dba9e41146104255780633f4ba83a14610443578063430e99a41461044d57806343d726d61461047d57806344f9abb81461048757806347d02f1b146104a3576102bb565b80631cfe562e116102785780631cfe562e14610385578063311f8483146103a35780633197cbb6146103c157806338af3eed146103df578063392f37e9146103fd5780633ccfd60b1461041b576102bb565b8063031b3677146102c057806303aabe31146102f15780630826d2c71461030d578063117a36d11461032b5780631514617e14610349578063158ef93e14610367575b600080fd5b6102da60048036038101906102d591906132ad565b6108b4565b6040516102e8929190613ef3565b60405180910390f35b61030b600480360381019061030691906132ad565b6108d8565b005b610315610d60565b6040516103229190613ed8565b60405180910390f35b610333610d66565b6040516103409190613ac0565b60405180910390f35b610351610d79565b60405161035e9190613f1c565b60405180910390f35b61036f610d8f565b60405161037c9190613ac0565b60405180910390f35b61038d610da2565b60405161039a9190613ed8565b60405180910390f35b6103ab610da8565b6040516103b89190613afd565b60405180910390f35b6103c9610dcc565b6040516103d69190613ed8565b60405180910390f35b6103e7610dd2565b6040516103f49190613a45565b60405180910390f35b610405610df6565b6040516104129190613adb565b60405180910390f35b610423610e84565b005b61042d611058565b60405161043a9190613ac0565b60405180910390f35b61044b61106b565b005b610467600480360381019061046291906132ad565b6111c5565b6040516104749190613ed8565b60405180910390f35b610485611231565b005b6104a1600480360381019061049c91906132da565b611349565b005b6104ab6117cf565b6040516104b89190613ed8565b60405180910390f35b6104c96117d5565b6040516104d69190613ac0565b60405180910390f35b6104e76117e8565b6040516104f49190613ac0565b60405180910390f35b610517600480360381019061051291906132ad565b6117fb565b6040516105249190613ed8565b60405180910390f35b61053561182d565b6040516105429190613ed8565b60405180910390f35b610553611833565b6040516105609190613ed8565b60405180910390f35b61057161185d565b60405161057e9190613afd565b60405180910390f35b61058f611883565b60405161059c9190613ed8565b60405180910390f35b6105ad611889565b6040516105ba9190613ac0565b60405180910390f35b6105cb61189c565b6040516105d89190613ed8565b60405180910390f35b6105e96118a2565b005b6105f36119ef565b6040516106009190613ed8565b60405180910390f35b610611611cd6565b60405161061e9190613ed8565b60405180910390f35b610641600480360381019061063c91906132ad565b611cdc565b005b61065d600480360381019061065891906132ad565b611e6d565b005b610667611ffe565b6040516106749190613ed8565b60405180910390f35b610685612004565b6040516106929190613ed8565b60405180910390f35b6106b560048036038101906106b09190613406565b61200a565b6040516106c29190613ed8565b60405180910390f35b6106d3612433565b6040516106e09190613ed8565b60405180910390f35b6106f1612439565b6040516106fe9190613ed8565b60405180910390f35b610721600480360381019061071c91906132ad565b61243f565b60405161072e9190613ac0565b60405180910390f35b610751600480360381019061074c9190613505565b61245f565b60405161075f929190613ef3565b60405180910390f35b610782600480360381019061077d91906132ad565b612b12565b60405161078f9190613ed8565b60405180910390f35b6107a0612b7e565b6040516107ad9190613ed8565b60405180910390f35b6107be612b84565b6040516107cb9190613ac0565b60405180910390f35b6107dc612b97565b6040516107e99190613ed8565b60405180910390f35b61080c600480360381019061080791906132ad565b612b9d565b6040516108199190613ed8565b60405180910390f35b61083c60048036038101906108379190613446565b612cc8565b005b610846612e93565b6040516108539190613f1c565b60405180910390f35b610864612ea9565b6040516108719190613a45565b60405180910390f35b610882612ecf565b60405161088f9190613ed8565b60405180910390f35b6108b260048036038101906108ad91906134bc565b612ed5565b005b60166020528060005260406000206000915090508060000154908060010154905082565b600160009054906101000a900473ffffffffffffffffffffffffffffffffffffffff1673ffffffffffffffffffffffffffffffffffffffff163373ffffffffffffffffffffffffffffffffffffffff1614610968576040517f08c379a000000000000000000000000000000000000000000000000000000000815260040161095f90613d38565b60405180910390fd5b600d60009054906101000a900460ff168061098f5750600d60059054906101000a900460ff165b8061099c57506008544210155b6109db576040517f08c379a00000000000000000000000000000000000000000000000000000000081526004016109d290613c78565b60405180910390fd5b600d60049054906101000a900460ff16610b885760098054906101000a900473ffffffffffffffffffffffffffffffffffffffff1673ffffffffffffffffffffffffffffffffffffffff1663a9059cbb8260098054906101000a900473ffffffffffffffffffffffffffffffffffffffff1673ffffffffffffffffffffffffffffffffffffffff166370a08231306040518263ffffffff1660e01b8152600401610a859190613a45565b60206040518083038186803b158015610a9d57600080fd5b505afa158015610ab1573d6000803e3d6000fd5b505050506040513d601f19601f82011682018060405250810190610ad59190613532565b6040518363ffffffff1660e01b8152600401610af2929190613a97565b602060405180830381600087803b158015610b0c57600080fd5b505af1158015610b20573d6000803e3d6000fd5b505050506040513d601f19601f82011682018060405250810190610b44919061348f565b610b83576040517f08c379a0000000000000000000000000000000000000000000000000000000008152600401610b7a90613b18565b60405180910390fd5b610d5d565b6000601254601054610b9a919061401d565b600554600454610baa919061401d565b610bb491906140fe565b905060008160098054906101000a900473ffffffffffffffffffffffffffffffffffffffff1673ffffffffffffffffffffffffffffffffffffffff166370a08231306040518263ffffffff1660e01b8152600401610c129190613a45565b60206040518083038186803b158015610c2a57600080fd5b505afa158015610c3e573d6000803e3d6000fd5b505050506040513d601f19601f82011682018060405250810190610c629190613532565b610c6c91906140fe565b905060098054906101000a900473ffffffffffffffffffffffffffffffffffffffff1673ffffffffffffffffffffffffffffffffffffffff1663a9059cbb84836040518363ffffffff1660e01b8152600401610cc9929190613a97565b602060405180830381600087803b158015610ce357600080fd5b505af1158015610cf7573d6000803e3d6000fd5b505050506040513d601f19601f82011682018060405250810190610d1b919061348f565b610d5a576040517f08c379a0000000000000000000000000000000000000000000000000000000008152600401610d5190613b18565b60405180910390fd5b50505b50565b60105481565b600d60059054906101000a900460ff1681565b600960019054906101000a900463ffffffff1681565b600d60039054906101000a900460ff1681565b60135481565b60098054906101000a900473ffffffffffffffffffffffffffffffffffffffff1681565b60085481565b60008054906101000a900473ffffffffffffffffffffffffffffffffffffffff1681565b600c8054610e039061421a565b80601f0160208091040260200160405190810160405280929190818152602001828054610e2f9061421a565b8015610e7c5780601f10610e5157610100808354040283529160200191610e7c565b820191906000526020600020905b815481529060010190602001808311610e5f57829003601f168201915b505050505081565b600160009054906101000a900473ffffffffffffffffffffffffffffffffffffffff1673ffffffffffffffffffffffffffffffffffffffff163373ffffffffffffffffffffffffffffffffffffffff1614610f14576040517f08c379a0000000000000000000000000000000000000000000000000000000008152600401610f0b90613d38565b60405180910390fd5b600d60059054906101000a900460ff1680610f495750600d60049054906101000a900460ff168015610f4857506008544210155b5b610f88576040517f08c379a0000000000000000000000000000000000000000000000000000000008152600401610f7f90613d98565b60405180910390fd5b6000601454601354610f9a91906140fe565b9050601354601481905550600a60009054906101000a900473ffffffffffffffffffffffffffffffffffffffff1673ffffffffffffffffffffffffffffffffffffffff1663a9059cbb33836040518363ffffffff1660e01b8152600401611002929190613a97565b602060405180830381600087803b15801561101c57600080fd5b505af1158015611030573d6000803e3d6000fd5b505050506040513d601f19601f82011682018060405250810190611054919061348f565b5050565b600960009054906101000a900460ff1681565b600160009054906101000a900473ffffffffffffffffffffffffffffffffffffffff1673ffffffffffffffffffffffffffffffffffffffff163373ffffffffffffffffffffffffffffffffffffffff16146110fb576040517f08c379a00000000000000000000000000000000000000000000000000000000081526004016110f290613d38565b60405180910390fd5b60011515600d60009054906101000a900460ff1615151415611152576040517f08c379a000000000000000000000000000000000000000000000000000000000815260040161114990613d58565b60405180910390fd5b60011515600d60019054906101000a900460ff161515146111a8576040517f08c379a000000000000000000000000000000000000000000000000000000000815260040161119f90613d18565b60405180910390fd5b6000600d60016101000a81548160ff021916908315150217905550565b6000670de0b6b3a7640000600b54601660008573ffffffffffffffffffffffffffffffffffffffff1673ffffffffffffffffffffffffffffffffffffffff1681526020019081526020016000206000015461122091906140a4565b61122a9190614073565b9050919050565b600160009054906101000a900473ffffffffffffffffffffffffffffffffffffffff1673ffffffffffffffffffffffffffffffffffffffff163373ffffffffffffffffffffffffffffffffffffffff16146112c1576040517f08c379a00000000000000000000000000000000000000000000000000000000081526004016112b890613d38565b60405180910390fd5b600d60009054906101000a900460ff1615611311576040517f08c379a000000000000000000000000000000000000000000000000000000000815260040161130890613d58565b60405180910390fd5b6001600d60006101000a81548160ff0219169083151502179055506000600d60016101000a81548160ff021916908315150217905550565b600d60039054906101000a900460ff1615611399576040517f08c379a000000000000000000000000000000000000000000000000000000000815260040161139090613db8565b60405180910390fd5b6001600d60036101000a81548160ff021916908315150217905550886001815181106113c8576113c7614353565b5b602002602001015173ffffffffffffffffffffffffffffffffffffffff16896000815181106113fa576113f9614353565b5b602002602001015173ffffffffffffffffffffffffffffffffffffffff161415611459576040517f08c379a000000000000000000000000000000000000000000000000000000000815260040161145090613c18565b60405180910390fd5b8760008151811061146d5761146c614353565b5b60200260200101518860018151811061148957611488614353565b5b602002602001015110156114d2576040517f08c379a00000000000000000000000000000000000000000000000000000000081526004016114c990613b78565b60405180910390fd5b8263ffffffff168463ffffffff161015611521576040517f08c379a000000000000000000000000000000000000000000000000000000000815260040161151890613cd8565b60405180910390fd5b858511611563576040517f08c379a000000000000000000000000000000000000000000000000000000000815260040161155a90613c38565b60405180910390fd5b8a6000806101000a81548173ffffffffffffffffffffffffffffffffffffffff021916908373ffffffffffffffffffffffffffffffffffffffff16021790555089600160006101000a81548173ffffffffffffffffffffffffffffffffffffffff021916908373ffffffffffffffffffffffffffffffffffffffff160217905550876000815181106115f8576115f7614353565b5b60200260200101516002819055508760018151811061161a57611619614353565b5b6020026020010151600381905550866006819055508560078190555084600881905550600854600e8190555083600960016101000a81548163ffffffff021916908363ffffffff16021790555082600960056101000a81548163ffffffff021916908363ffffffff16021790555081600960006101000a81548160ff021916908315150217905550886000815181106116b6576116b5614353565b5b60200260200101516009806101000a81548173ffffffffffffffffffffffffffffffffffffffff021916908373ffffffffffffffffffffffffffffffffffffffff1602179055508860018151811061171157611710614353565b5b6020026020010151600a60006101000a81548173ffffffffffffffffffffffffffffffffffffffff021916908373ffffffffffffffffffffffffffffffffffffffff16021790555080600b8190555086670de0b6b3a764000060035461177791906140a4565b6117819190614073565b600481905550670de0b6b3a7640000600b546004546117a091906140a4565b6117aa9190614073565b6005819055506004546010819055506005546012819055505050505050505050505050565b60115481565b600d60009054906101000a900460ff1681565b600d60019054906101000a900460ff1681565b6000670de0b6b3a7640000600b5461181284612b12565b61181c91906140a4565b6118269190614073565b9050919050565b600f5481565b6000670de0b6b3a7640000600b5460115461184e91906140a4565b6118589190614073565b905090565b600a60009054906101000a900473ffffffffffffffffffffffffffffffffffffffff1681565b60075481565b600d60029054906101000a900460ff1681565b60145481565b600160009054906101000a900473ffffffffffffffffffffffffffffffffffffffff1673ffffffffffffffffffffffffffffffffffffffff163373ffffffffffffffffffffffffffffffffffffffff1614611932576040517f08c379a000000000000000000000000000000000000000000000000000000000815260040161192990613d38565b60405180910390fd5b600d60009054906101000a900460ff1615611982576040517f08c379a000000000000000000000000000000000000000000000000000000000815260040161197990613d58565b60405180910390fd5b600d60019054906101000a900460ff16156119d2576040517f08c379a00000000000000000000000000000000000000000000000000000000081526004016119c990613dd8565b60405180910390fd5b6001600d60016101000a81548160ff021916908315150217905550565b6000426007541115611a36576040517f08c379a0000000000000000000000000000000000000000000000000000000008152600401611a2d90613e18565b60405180910390fd5b600d60049054906101000a900460ff1615611a86576040517f08c379a0000000000000000000000000000000000000000000000000000000008152600401611a7d90613bd8565b60405180910390fd5b6000601660003373ffffffffffffffffffffffffffffffffffffffff1673ffffffffffffffffffffffffffffffffffffffff168152602001908152602001600020905060008160010154905060008111611b15576040517f08c379a0000000000000000000000000000000000000000000000000000000008152600401611b0c90613eb8565b60405180910390fd5b611b1e33612b12565b60106000828254611b2f919061401d565b92505081905550611b3f336117fb565b60126000828254611b50919061401d565b92505081905550600f6000815480929190611b6a906141f0565b9190505550600082600101819055508060136000828254611b8b91906140fe565b92505081905550600a60009054906101000a900473ffffffffffffffffffffffffffffffffffffffff1673ffffffffffffffffffffffffffffffffffffffff1663a9059cbb33836040518363ffffffff1660e01b8152600401611bef929190613a97565b602060405180830381600087803b158015611c0957600080fd5b505af1158015611c1d573d6000803e3d6000fd5b505050506040513d601f19601f82011682018060405250810190611c41919061348f565b611c80576040517f08c379a0000000000000000000000000000000000000000000000000000000008152600401611c7790613c98565b60405180910390fd5b3373ffffffffffffffffffffffffffffffffffffffff167f1a689b1a62e3bb77f9c98d8759c04f341a67deb5cc63cf53be8324b69106495082604051611cc69190613ed8565b60405180910390a2809250505090565b60025481565b600160009054906101000a900473ffffffffffffffffffffffffffffffffffffffff1673ffffffffffffffffffffffffffffffffffffffff163373ffffffffffffffffffffffffffffffffffffffff1614611d6c576040517f08c379a0000000000000000000000000000000000000000000000000000000008152600401611d6390613d38565b60405180910390fd5b600d60009054906101000a900460ff1615611dbc576040517f08c379a0000000000000000000000000000000000000000000000000000000008152600401611db390613d58565b60405180910390fd5b60011515600960009054906101000a900460ff16151514611e12576040517f08c379a0000000000000000000000000000000000000000000000000000000008152600401611e0990613e58565b60405180910390fd5b6000601560008373ffffffffffffffffffffffffffffffffffffffff1673ffffffffffffffffffffffffffffffffffffffff16815260200190815260200160002060006101000a81548160ff02191690831515021790555050565b600160009054906101000a900473ffffffffffffffffffffffffffffffffffffffff1673ffffffffffffffffffffffffffffffffffffffff163373ffffffffffffffffffffffffffffffffffffffff1614611efd576040517f08c379a0000000000000000000000000000000000000000000000000000000008152600401611ef490613d38565b60405180910390fd5b600d60009054906101000a900460ff1615611f4d576040517f08c379a0000000000000000000000000000000000000000000000000000000008152600401611f4490613d58565b60405180910390fd5b60011515600960009054906101000a900460ff16151514611fa3576040517f08c379a0000000000000000000000000000000000000000000000000000000008152600401611f9a90613e58565b60405180910390fd5b6001601560008373ffffffffffffffffffffffffffffffffffffffff1673ffffffffffffffffffffffffffffffffffffffff16815260200190815260200160002060006101000a81548160ff02191690831515021790555050565b60065481565b600e5481565b6000600d60049054906101000a900460ff1661205b576040517f08c379a000000000000000000000000000000000000000000000000000000000815260040161205290613e78565b60405180910390fd5b4260085410806120775750600d60059054906101000a900460ff165b6120b6576040517f08c379a00000000000000000000000000000000000000000000000000000000081526004016120ad90613bf8565b60405180910390fd5b60006120c184612b9d565b905060008111612106576040517f08c379a00000000000000000000000000000000000000000000000000000000081526004016120fd90613e98565b60405180910390fd5b82811015612149576040517f08c379a000000000000000000000000000000000000000000000000000000000815260040161214090613b58565b60405180910390fd5b6000670de0b6b3a7640000600b548561216291906140a4565b61216c9190614073565b905083601660008773ffffffffffffffffffffffffffffffffffffffff1673ffffffffffffffffffffffffffffffffffffffff16815260200190815260200160002060000160008282546121c0919061401d565b9250508190555083601160008282546121d9919061401d565b9250508190555060098054906101000a900473ffffffffffffffffffffffffffffffffffffffff1673ffffffffffffffffffffffffffffffffffffffff1663a9059cbb60008054906101000a900473ffffffffffffffffffffffffffffffffffffffff16836040518363ffffffff1660e01b815260040161225b929190613a97565b602060405180830381600087803b15801561227557600080fd5b505af1158015612289573d6000803e3d6000fd5b505050506040513d601f19601f820116820180604052508101906122ad919061348f565b8015612362575060098054906101000a900473ffffffffffffffffffffffffffffffffffffffff1673ffffffffffffffffffffffffffffffffffffffff1663a9059cbb86866040518363ffffffff1660e01b815260040161230f929190613a97565b602060405180830381600087803b15801561232957600080fd5b505af115801561233d573d6000803e3d6000fd5b505050506040513d601f19601f82011682018060405250810190612361919061348f565b5b6123a1576040517f08c379a000000000000000000000000000000000000000000000000000000000815260040161239890613cf8565b60405180910390fd5b60008054906101000a900473ffffffffffffffffffffffffffffffffffffffff1673ffffffffffffffffffffffffffffffffffffffff168573ffffffffffffffffffffffffffffffffffffffff167f9bd10be98695714f5cb43cefb59ba6417808b354710acafafe05e81b264922318684604051612420929190613ef3565b60405180910390a3809250505092915050565b60125481565b60045481565b60156020528060005260406000206000915054906101000a900460ff1681565b600080600d60009054906101000a900460ff16156124b2576040517f08c379a00000000000000000000000000000000000000000000000000000000081526004016124a990613d58565b60405180910390fd5b600d60019054906101000a900460ff1615612502576040517f08c379a00000000000000000000000000000000000000000000000000000000081526004016124f990613dd8565b60405180910390fd5b600d60059054906101000a900460ff1615612552576040517f08c379a000000000000000000000000000000000000000000000000000000000815260040161254990613b38565b60405180910390fd5b600960009054906101000a900460ff1615806125b75750601560003373ffffffffffffffffffffffffffffffffffffffff1673ffffffffffffffffffffffffffffffffffffffff16815260200190815260200160002060009054906101000a900460ff165b6125f6576040517f08c379a00000000000000000000000000000000000000000000000000000000081526004016125ed90613cb8565b60405180910390fd5b426008541015801561260a57504260075411155b612649576040517f08c379a000000000000000000000000000000000000000000000000000000000815260040161264090613d78565b60405180910390fd5b600d60029054906101000a900460ff166127735760055460045461266d919061401d565b60098054906101000a900473ffffffffffffffffffffffffffffffffffffffff1673ffffffffffffffffffffffffffffffffffffffff166370a08231306040518263ffffffff1660e01b81526004016126c69190613a45565b60206040518083038186803b1580156126de57600080fd5b505afa1580156126f2573d6000803e3d6000fd5b505050506040513d601f19601f820116820180604052508101906127169190613532565b1015612757576040517f08c379a000000000000000000000000000000000000000000000000000000000815260040161274e90613e38565b60405180910390fd5b6001600d60026101000a81548160ff0219169083151502179055505b6000600654670de0b6b3a76400008561278c91906140a4565b6127969190614073565b90506000670de0b6b3a7640000600b54836127b191906140a4565b6127bb9190614073565b9050600960019054906101000a900463ffffffff1663ffffffff16821015612818576040517f08c379a000000000000000000000000000000000000000000000000000000000815260040161280f90613c58565b60405180910390fd5b60035485601354612829919061401d565b111561286a576040517f08c379a000000000000000000000000000000000000000000000000000000000815260040161286190613b98565b60405180910390fd5b846013600082825461287c919061401d565b92505081905550816010600082825461289591906140fe565b9250508190555080601260008282546128ae91906140fe565b92505081905550600254601354106128dc576001600d60046101000a81548160ff0219169083151502179055505b6003546013541061290a576001600d60056101000a81548160ff02191690831515021790555042600e819055505b6000601660003373ffffffffffffffffffffffffffffffffffffffff1673ffffffffffffffffffffffffffffffffffffffff16815260200190815260200160002060010154141561296e57600f60008154809291906129689061427d565b91905055505b84601660003373ffffffffffffffffffffffffffffffffffffffff1673ffffffffffffffffffffffffffffffffffffffff16815260200190815260200160002060010160008282546129c0919061401d565b92505081905550600a60009054906101000a900473ffffffffffffffffffffffffffffffffffffffff1673ffffffffffffffffffffffffffffffffffffffff166323b872dd3330886040518463ffffffff1660e01b8152600401612a2693929190613a60565b602060405180830381600087803b158015612a4057600080fd5b505af1158015612a54573d6000803e3d6000fd5b505050506040513d601f19601f82011682018060405250810190612a78919061348f565b612ab7576040517f08c379a0000000000000000000000000000000000000000000000000000000008152600401612aae90613df8565b60405180910390fd5b3373ffffffffffffffffffffffffffffffffffffffff167fcf5ef2b227e797b567f0df4c49cc8b6207cfb60054eb899e5608de08e5dcb1ef83604051612afd9190613ed8565b60405180910390a28181935093505050915091565b6000600654670de0b6b3a7640000601660008573ffffffffffffffffffffffffffffffffffffffff1673ffffffffffffffffffffffffffffffffffffffff16815260200190815260200160002060010154612b6d91906140a4565b612b779190614073565b9050919050565b600b5481565b600d60049054906101000a900460ff1681565b60055481565b600080601660008473ffffffffffffffffffffffffffffffffffffffff1673ffffffffffffffffffffffffffffffffffffffff1681526020019081526020016000209050600e54421015612bf5576000915050612cc3565b6000600e5442612c0591906140fe565b9050600960059054906101000a900463ffffffff1663ffffffff16811015612c3257600092505050612cc3565b600960019054906101000a900463ffffffff1663ffffffff168110612c72578160000154612c5f85612b12565b612c6991906140fe565b92505050612cc3565b6000600960019054906101000a900463ffffffff1663ffffffff16612c9686612b12565b83612ca191906140a4565b612cab9190614073565b9050826000015481612cbd91906140fe565b93505050505b919050565b600160009054906101000a900473ffffffffffffffffffffffffffffffffffffffff1673ffffffffffffffffffffffffffffffffffffffff163373ffffffffffffffffffffffffffffffffffffffff1614612d58576040517f08c379a0000000000000000000000000000000000000000000000000000000008152600401612d4f90613d38565b60405180910390fd5b600d60009054906101000a900460ff1615612da8576040517f08c379a0000000000000000000000000000000000000000000000000000000008152600401612d9f90613d58565b60405180910390fd5b60011515600960009054906101000a900460ff16151514612dfe576040517f08c379a0000000000000000000000000000000000000000000000000000000008152600401612df590613e58565b60405180910390fd5b60005b8151811015612e8f57600160156000848481518110612e2357612e22614353565b5b602002602001015173ffffffffffffffffffffffffffffffffffffffff1673ffffffffffffffffffffffffffffffffffffffff16815260200190815260200160002060006101000a81548160ff0219169083151502179055508080612e879061427d565b915050612e01565b5050565b600960059054906101000a900463ffffffff1681565b600160009054906101000a900473ffffffffffffffffffffffffffffffffffffffff1681565b60035481565b60011515600d60039054906101000a900460ff161515141580612f455750600160009054906101000a900473ffffffffffffffffffffffffffffffffffffffff1673ffffffffffffffffffffffffffffffffffffffff163373ffffffffffffffffffffffffffffffffffffffff16145b612f84576040517f08c379a0000000000000000000000000000000000000000000000000000000008152600401612f7b90613bb8565b60405180910390fd5b80600c9080519060200190612f9a929190612fe0565b5080604051612fa99190613a2e565b60405180910390207f09f579b21815d3f81581d32e97736ccba1cc89d1918e48da28e6e206acd9686460405160405180910390a250565b828054612fec9061421a565b90600052602060002090601f01602090048101928261300e5760008555613055565b82601f1061302757805160ff1916838001178555613055565b82800160010185558215613055579182015b82811115613054578251825591602001919060010190613039565b5b5090506130629190613066565b5090565b5b8082111561307f576000816000905550600101613067565b5090565b600061309661309184613f5c565b613f37565b905080838252602082019050828560208602820111156130b9576130b86143b6565b5b60005b858110156130e957816130cf88826131a5565b8452602084019350602083019250506001810190506130bc565b5050509392505050565b600061310661310184613f88565b613f37565b90508083825260208201905082856020860282011115613129576131286143b6565b5b60005b85811015613159578161313f888261326e565b84526020840193506020830192505060018101905061312c565b5050509392505050565b600061317661317184613fb4565b613f37565b905082815260208101848484011115613192576131916143bb565b5b61319d8482856141ae565b509392505050565b6000813590506131b481614bed565b92915050565b600082601f8301126131cf576131ce6143b1565b5b81356131df848260208601613083565b91505092915050565b600082601f8301126131fd576131fc6143b1565b5b813561320d8482602086016130f3565b91505092915050565b60008135905061322581614c04565b92915050565b60008151905061323a81614c04565b92915050565b600082601f830112613255576132546143b1565b5b8135613265848260208601613163565b91505092915050565b60008135905061327d81614c1b565b92915050565b60008151905061329281614c1b565b92915050565b6000813590506132a781614c32565b92915050565b6000602082840312156132c3576132c26143c5565b5b60006132d1848285016131a5565b91505092915050565b60008060008060008060008060008060006101608c8e031215613300576132ff6143c5565b5b600061330e8e828f016131a5565b9b5050602061331f8e828f016131a5565b9a505060408c013567ffffffffffffffff8111156133405761333f6143c0565b5b61334c8e828f016131ba565b99505060608c013567ffffffffffffffff81111561336d5761336c6143c0565b5b6133798e828f016131e8565b985050608061338a8e828f0161326e565b97505060a061339b8e828f0161326e565b96505060c06133ac8e828f0161326e565b95505060e06133bd8e828f01613298565b9450506101006133cf8e828f01613298565b9350506101206133e18e828f01613216565b9250506101406133f38e828f0161326e565b9150509295989b509295989b9093969950565b6000806040838503121561341d5761341c6143c5565b5b600061342b858286016131a5565b925050602061343c8582860161326e565b9150509250929050565b60006020828403121561345c5761345b6143c5565b5b600082013567ffffffffffffffff81111561347a576134796143c0565b5b613486848285016131ba565b91505092915050565b6000602082840312156134a5576134a46143c5565b5b60006134b38482850161322b565b91505092915050565b6000602082840312156134d2576134d16143c5565b5b600082013567ffffffffffffffff8111156134f0576134ef6143c0565b5b6134fc84828501613240565b91505092915050565b60006020828403121561351b5761351a6143c5565b5b60006135298482850161326e565b91505092915050565b600060208284031215613548576135476143c5565b5b600061355684828501613283565b91505092915050565b61356881614132565b82525050565b61357781614144565b82525050565b600061358882613fe5565b6135928185613ff0565b93506135a28185602086016141bd565b6135ab816143ca565b840191505092915050565b60006135c182613fe5565b6135cb8185614001565b93506135db8185602086016141bd565b80840191505092915050565b6135f08161418a565b82525050565b600061360360348361400c565b915061360e826143db565b604082019050919050565b6000613626601d8361400c565b91506136318261442a565b602082019050919050565b6000613649602e8361400c565b915061365482614453565b604082019050919050565b600061366c60308361400c565b9150613677826144a2565b604082019050919050565b600061368f602a8361400c565b915061369a826144f1565b604082019050919050565b60006136b260428361400c565b91506136bd82614540565b606082019050919050565b60006136d560208361400c565b91506136e0826145b5565b602082019050919050565b60006136f8602b8361400c565b9150613703826145de565b604082019050919050565b600061371b602d8361400c565b91506137268261462d565b604082019050919050565b600061373e603b8361400c565b91506137498261467c565b604082019050919050565b6000613761601f8361400c565b915061376c826146cb565b602082019050919050565b600061378460628361400c565b915061378f826146f4565b608082019050919050565b60006137a760308361400c565b91506137b28261478f565b604082019050919050565b60006137ca601a8361400c565b91506137d5826147de565b602082019050919050565b60006137ed603d8361400c565b91506137f882614807565b604082019050919050565b600061381060208361400c565b915061381b82614856565b602082019050919050565b600061383360168361400c565b915061383e8261487f565b602082019050919050565b6000613856601c8361400c565b9150613861826148a8565b602082019050919050565b6000613879601a8361400c565b9150613884826148d1565b602082019050919050565b600061389c602d8361400c565b91506138a7826148fa565b604082019050919050565b60006138bf60518361400c565b91506138ca82614949565b606082019050919050565b60006138e260228361400c565b91506138ed826149be565b604082019050919050565b6000613905601a8361400c565b915061391082614a0d565b602082019050919050565b600061392860278361400c565b915061393382614a36565b604082019050919050565b600061394b60228361400c565b915061395682614a85565b604082019050919050565b600061396e60238361400c565b915061397982614ad4565b604082019050919050565b6000613991601d8361400c565b915061399c82614b23565b602082019050919050565b60006139b460248361400c565b91506139bf82614b4c565b604082019050919050565b60006139d7601b8361400c565b91506139e282614b9b565b602082019050919050565b60006139fa60198361400c565b9150613a0582614bc4565b602082019050919050565b613a1981614170565b82525050565b613a288161417a565b82525050565b6000613a3a82846135b6565b915081905092915050565b6000602082019050613a5a600083018461355f565b92915050565b6000606082019050613a75600083018661355f565b613a82602083018561355f565b613a8f6040830184613a10565b949350505050565b6000604082019050613aac600083018561355f565b613ab96020830184613a10565b9392505050565b6000602082019050613ad5600083018461356e565b92915050565b60006020820190508181036000830152613af5818461357d565b905092915050565b6000602082019050613b1260008301846135e7565b92915050565b60006020820190508181036000830152613b31816135f6565b9050919050565b60006020820190508181036000830152613b5181613619565b9050919050565b60006020820190508181036000830152613b718161363c565b9050919050565b60006020820190508181036000830152613b918161365f565b9050919050565b60006020820190508181036000830152613bb181613682565b9050919050565b60006020820190508181036000830152613bd1816136a5565b9050919050565b60006020820190508181036000830152613bf1816136c8565b9050919050565b60006020820190508181036000830152613c11816136eb565b9050919050565b60006020820190508181036000830152613c318161370e565b9050919050565b60006020820190508181036000830152613c5181613731565b9050919050565b60006020820190508181036000830152613c7181613754565b9050919050565b60006020820190508181036000830152613c9181613777565b9050919050565b60006020820190508181036000830152613cb18161379a565b9050919050565b60006020820190508181036000830152613cd1816137bd565b9050919050565b60006020820190508181036000830152613cf1816137e0565b9050919050565b60006020820190508181036000830152613d1181613803565b9050919050565b60006020820190508181036000830152613d3181613826565b9050919050565b60006020820190508181036000830152613d5181613849565b9050919050565b60006020820190508181036000830152613d718161386c565b9050919050565b60006020820190508181036000830152613d918161388f565b9050919050565b60006020820190508181036000830152613db1816138b2565b9050919050565b60006020820190508181036000830152613dd1816138d5565b9050919050565b60006020820190508181036000830152613df1816138f8565b9050919050565b60006020820190508181036000830152613e118161391b565b9050919050565b60006020820190508181036000830152613e318161393e565b9050919050565b60006020820190508181036000830152613e5181613961565b9050919050565b60006020820190508181036000830152613e7181613984565b9050919050565b60006020820190508181036000830152613e91816139a7565b9050919050565b60006020820190508181036000830152613eb1816139ca565b9050919050565b60006020820190508181036000830152613ed1816139ed565b9050919050565b6000602082019050613eed6000830184613a10565b92915050565b6000604082019050613f086000830185613a10565b613f156020830184613a10565b9392505050565b6000602082019050613f316000830184613a1f565b92915050565b6000613f41613f52565b9050613f4d828261424c565b919050565b6000604051905090565b600067ffffffffffffffff821115613f7757613f76614382565b5b602082029050602081019050919050565b600067ffffffffffffffff821115613fa357613fa2614382565b5b602082029050602081019050919050565b600067ffffffffffffffff821115613fcf57613fce614382565b5b613fd8826143ca565b9050602081019050919050565b600081519050919050565b600082825260208201905092915050565b600081905092915050565b600082825260208201905092915050565b600061402882614170565b915061403383614170565b9250827fffffffffffffffffffffffffffffffffffffffffffffffffffffffffffffffff03821115614068576140676142c6565b5b828201905092915050565b600061407e82614170565b915061408983614170565b925082614099576140986142f5565b5b828204905092915050565b60006140af82614170565b91506140ba83614170565b9250817fffffffffffffffffffffffffffffffffffffffffffffffffffffffffffffffff04831182151516156140f3576140f26142c6565b5b828202905092915050565b600061410982614170565b915061411483614170565b925082821015614127576141266142c6565b5b828203905092915050565b600061413d82614150565b9050919050565b60008115159050919050565b600073ffffffffffffffffffffffffffffffffffffffff82169050919050565b6000819050919050565b600063ffffffff82169050919050565b60006141958261419c565b9050919050565b60006141a782614150565b9050919050565b82818337600083830152505050565b60005b838110156141db5780820151818401526020810190506141c0565b838111156141ea576000848401525b50505050565b60006141fb82614170565b9150600082141561420f5761420e6142c6565b5b600182039050919050565b6000600282049050600182168061423257607f821691505b6020821081141561424657614245614324565b5b50919050565b614255826143ca565b810181811067ffffffffffffffff8211171561427457614273614382565b5b80604052505050565b600061428882614170565b91507fffffffffffffffffffffffffffffffffffffffffffffffffffffffffffffffff8214156142bb576142ba6142c6565b5b600182019050919050565b7f4e487b7100000000000000000000000000000000000000000000000000000000600052601160045260246000fd5b7f4e487b7100000000000000000000000000000000000000000000000000000000600052601260045260246000fd5b7f4e487b7100000000000000000000000000000000000000000000000000000000600052602260045260246000fd5b7f4e487b7100000000000000000000000000000000000000000000000000000000600052603260045260246000fd5b7f4e487b7100000000000000000000000000000000000000000000000000000000600052604160045260246000fd5b600080fd5b600080fd5b600080fd5b600080fd5b600080fd5b6000601f19601f8301169050919050565b7f536565643a2073686f756c64207472616e73666572207365656420746f6b656e60008201527f7320746f20726566756e64207265636569766572000000000000000000000000602082015250565b7f536565643a206d6178696d756d2066756e64696e672072656163686564000000600082015250565b7f536565643a20726571756573742069732067726561746572207468616e20636c60008201527f61696d61626c6520616d6f756e74000000000000000000000000000000000000602082015250565b7f53656564466163746f72793a20686172644361702063616e6e6f74206265206c60008201527f657373207468616e20736f667443617000000000000000000000000000000000602082015250565b7f536565643a20616d6f756e74206578636565647320636f6e747261637420736160008201527f6c65206861726443617000000000000000000000000000000000000000000000602082015250565b7f536565643a20636f6e74726163742073686f756c64206e6f7420626520696e6960008201527f7469616c697a6564206f722063616c6c65722073686f756c642062652061646d60208201527f696e000000000000000000000000000000000000000000000000000000000000604082015250565b7f536565643a206d696e696d756d2066756e64696e6720616d6f756e74206d6574600082015250565b7f536565643a2074686520646973747269627574696f6e20686173206e6f74207960008201527f65742066696e6973686564000000000000000000000000000000000000000000602082015250565b7f53656564466163746f72793a2073656564546f6b656e2063616e6e6f7420626560008201527f2066756e64696e67546f6b656e00000000000000000000000000000000000000602082015250565b7f53656564466163746f72793a20656e6454696d652063616e6e6f74206265206c60008201527f657373207468616e20657175616c20746f20737461727454696d650000000000602082015250565b7f536565643a20616d6f756e745665737465645065725365636f6e64203e203000600082015250565b7f536565643a20546865206162696c69747920746f20627579207365656420746f60008201527f6b656e73206d757374206861766520656e646564206265666f72652072656d6160208201527f696e696e67207365656420746f6b656e732063616e206265207769746864726160408201527f776e000000000000000000000000000000000000000000000000000000000000606082015250565b7f536565643a2063616e6e6f742072657475726e2066756e64696e6720746f6b6560008201527f6e7320746f206d73672e73656e64657200000000000000000000000000000000602082015250565b7f536565643a2073656e64657220686173206e6f20726967687473000000000000600082015250565b7f53656564466163746f72793a2076657374696e674475726174696f6e2063616e60008201527f6e6f74206265206c657373207468616e2076657374696e67436c696666000000602082015250565b7f536565643a207365656420746f6b656e207472616e73666572206661696c6564600082015250565b7f536565643a2073686f756c642062652070617573656400000000000000000000600082015250565b7f536565643a2063616c6c65722073686f756c642062652061646d696e00000000600082015250565b7f536565643a2073686f756c64206e6f7420626520636c6f736564000000000000600082015250565b7f536565643a206f6e6c7920616c6c6f77656420647572696e672064697374726960008201527f627574696f6e20706572696f6400000000000000000000000000000000000000602082015250565b7f536565643a2063616e6e6f74207769746864726177207768696c652066756e6460008201527f696e6720746f6b656e732063616e207374696c6c20626520776974686472617760208201527f6e20627920636f6e7472696275746f7273000000000000000000000000000000604082015250565b7f536565643a20636f6e747261637420616c726561647920696e697469616c697a60008201527f6564000000000000000000000000000000000000000000000000000000000000602082015250565b7f536565643a2073686f756c64206e6f7420626520706175736564000000000000600082015250565b7f536565643a2066756e64696e6720746f6b656e207472616e7366657246726f6d60008201527f206661696c656400000000000000000000000000000000000000000000000000602082015250565b7f536565643a20646973747269627574696f6e20686176656e277420737461727460008201527f6564000000000000000000000000000000000000000000000000000000000000602082015250565b7f536565643a2073756666696369656e74207365656473206e6f742070726f766960008201527f6465640000000000000000000000000000000000000000000000000000000000602082015250565b7f536565643a2073656564206973206e6f742077686974656c6973746564000000600082015250565b7f536565643a206d696e696d756d2066756e64696e6720616d6f756e74206e6f7460008201527f206d657400000000000000000000000000000000000000000000000000000000602082015250565b7f536565643a20616d6f756e7420636c61696d61626c6520697320300000000000600082015250565b7f536565643a207a65726f2066756e64696e6720616d6f756e7400000000000000600082015250565b614bf681614132565b8114614c0157600080fd5b50565b614c0d81614144565b8114614c1857600080fd5b50565b614c2481614170565b8114614c2f57600080fd5b50565b614c3b8161417a565b8114614c4657600080fd5b5056fea26469706673582212209eded04a0c15a0259f3376d17abc8a9bc40f0500db7ee7f4e832a84ce729825b64736f6c63430008060033",
  "linkReferences": {},
  "deployedLinkReferences": {}
}