{
  "_format": "hh-sol-artifact-1",
  "contractName": "Seed",
  "sourceName": "contracts/seed/Seed.sol",
  "abi": [
    {
      "anonymous": false,
      "inputs": [
        {
          "indexed": true,
          "internalType": "address",
          "name": "recipient",
          "type": "address"
        },
        {
          "indexed": false,
          "internalType": "uint256",
          "name": "amountReclaimed",
          "type": "uint256"
        }
      ],
      "name": "FundingReclaimed",
      "type": "event"
    },
    {
      "anonymous": false,
      "inputs": [
        {
          "indexed": true,
          "internalType": "bytes",
          "name": "metadata",
          "type": "bytes"
        }
      ],
      "name": "MetadataUpdated",
      "type": "event"
    },
    {
      "anonymous": false,
      "inputs": [
        {
          "indexed": true,
          "internalType": "address",
          "name": "recipient",
          "type": "address"
        },
        {
          "indexed": false,
          "internalType": "uint256",
          "name": "amountPurchased",
          "type": "uint256"
        }
      ],
      "name": "SeedsPurchased",
      "type": "event"
    },
    {
      "anonymous": false,
      "inputs": [
        {
          "indexed": true,
          "internalType": "address",
          "name": "recipient",
          "type": "address"
        },
        {
          "indexed": false,
          "internalType": "uint256",
          "name": "amount",
          "type": "uint256"
        },
        {
          "indexed": true,
          "internalType": "address",
          "name": "beneficiary",
          "type": "address"
        },
        {
          "indexed": false,
          "internalType": "uint256",
          "name": "feeAmount",
          "type": "uint256"
        }
      ],
      "name": "TokensClaimed",
      "type": "event"
    },
    {
      "inputs": [],
      "name": "admin",
      "outputs": [
        {
          "internalType": "address",
          "name": "",
          "type": "address"
        }
      ],
      "stateMutability": "view",
      "type": "function"
    },
    {
      "inputs": [],
      "name": "beneficiary",
      "outputs": [
        {
          "internalType": "address",
          "name": "",
          "type": "address"
        }
      ],
      "stateMutability": "view",
      "type": "function"
    },
    {
      "inputs": [
        {
          "internalType": "uint256",
          "name": "_fundingAmount",
          "type": "uint256"
        }
      ],
      "name": "buy",
      "outputs": [
        {
          "internalType": "uint256",
          "name": "",
          "type": "uint256"
        },
        {
          "internalType": "uint256",
          "name": "",
          "type": "uint256"
        }
      ],
      "stateMutability": "nonpayable",
      "type": "function"
    },
    {
      "inputs": [
        {
          "internalType": "bytes32",
          "name": "c__0xeb5bb505",
          "type": "bytes32"
        }
      ],
      "name": "c_0xeb5bb505",
      "outputs": [],
      "stateMutability": "pure",
      "type": "function"
    },
    {
      "inputs": [
        {
          "internalType": "address",
          "name": "_funder",
          "type": "address"
        }
      ],
      "name": "calculateClaim",
      "outputs": [
        {
          "internalType": "uint256",
          "name": "",
          "type": "uint256"
        }
      ],
      "stateMutability": "view",
      "type": "function"
    },
    {
      "inputs": [
        {
          "internalType": "address",
          "name": "_funder",
          "type": "address"
        },
        {
          "internalType": "uint256",
          "name": "_claimAmount",
          "type": "uint256"
        }
      ],
      "name": "claim",
      "outputs": [
        {
          "internalType": "uint256",
          "name": "",
          "type": "uint256"
        }
      ],
      "stateMutability": "nonpayable",
      "type": "function"
    },
    {
      "inputs": [],
      "name": "close",
      "outputs": [],
      "stateMutability": "nonpayable",
      "type": "function"
    },
    {
      "inputs": [],
      "name": "closed",
      "outputs": [
        {
          "internalType": "bool",
          "name": "",
          "type": "bool"
        }
      ],
      "stateMutability": "view",
      "type": "function"
    },
    {
      "inputs": [],
      "name": "endTime",
      "outputs": [
        {
          "internalType": "uint256",
          "name": "",
          "type": "uint256"
        }
      ],
      "stateMutability": "view",
      "type": "function"
    },
    {
      "inputs": [],
      "name": "fee",
      "outputs": [
        {
          "internalType": "uint256",
          "name": "",
          "type": "uint256"
        }
      ],
      "stateMutability": "view",
      "type": "function"
    },
    {
      "inputs": [],
      "name": "feeAmountRequired",
      "outputs": [
        {
          "internalType": "uint256",
          "name": "",
          "type": "uint256"
        }
      ],
      "stateMutability": "view",
      "type": "function"
    },
    {
      "inputs": [],
      "name": "feeClaimed",
      "outputs": [
        {
          "internalType": "uint256",
          "name": "",
          "type": "uint256"
        }
      ],
      "stateMutability": "view",
      "type": "function"
    },
    {
      "inputs": [
        {
          "internalType": "address",
          "name": "_funder",
          "type": "address"
        }
      ],
      "name": "feeClaimedForFunder",
      "outputs": [
        {
          "internalType": "uint256",
          "name": "",
          "type": "uint256"
        }
      ],
      "stateMutability": "view",
      "type": "function"
    },
    {
      "inputs": [
        {
          "internalType": "address",
          "name": "_funder",
          "type": "address"
        }
      ],
      "name": "feeForFunder",
      "outputs": [
        {
          "internalType": "uint256",
          "name": "",
          "type": "uint256"
        }
      ],
      "stateMutability": "view",
      "type": "function"
    },
    {
      "inputs": [],
      "name": "feeRemainder",
      "outputs": [
        {
          "internalType": "uint256",
          "name": "",
          "type": "uint256"
        }
      ],
      "stateMutability": "view",
      "type": "function"
    },
    {
      "inputs": [
        {
          "internalType": "address",
          "name": "",
          "type": "address"
        }
      ],
      "name": "funders",
      "outputs": [
        {
          "internalType": "uint256",
          "name": "totalClaimed",
          "type": "uint256"
        },
        {
          "internalType": "uint256",
          "name": "fundingAmount",
          "type": "uint256"
        }
      ],
      "stateMutability": "view",
      "type": "function"
    },
    {
      "inputs": [],
      "name": "fundingCollected",
      "outputs": [
        {
          "internalType": "uint256",
          "name": "",
          "type": "uint256"
        }
      ],
      "stateMutability": "view",
      "type": "function"
    },
    {
      "inputs": [],
      "name": "fundingToken",
      "outputs": [
        {
          "internalType": "contract IERC20",
          "name": "",
          "type": "address"
        }
      ],
      "stateMutability": "view",
      "type": "function"
    },
    {
      "inputs": [],
      "name": "fundingWithdrawn",
      "outputs": [
        {
          "internalType": "uint256",
          "name": "",
          "type": "uint256"
        }
      ],
      "stateMutability": "view",
      "type": "function"
    },
    {
      "inputs": [],
      "name": "hardCap",
      "outputs": [
        {
          "internalType": "uint256",
          "name": "",
          "type": "uint256"
        }
      ],
      "stateMutability": "view",
      "type": "function"
    },
    {
      "inputs": [
        {
          "internalType": "address",
          "name": "_beneficiary",
          "type": "address"
        },
        {
          "internalType": "address",
          "name": "_admin",
          "type": "address"
        },
        {
          "internalType": "address[]",
          "name": "_tokens",
          "type": "address[]"
        },
        {
          "internalType": "uint256[]",
          "name": "_softHardThresholds",
          "type": "uint256[]"
        },
        {
          "internalType": "uint256",
          "name": "_price",
          "type": "uint256"
        },
        {
          "internalType": "uint256",
          "name": "_startTime",
          "type": "uint256"
        },
        {
          "internalType": "uint256",
          "name": "_endTime",
          "type": "uint256"
        },
        {
          "internalType": "uint32",
          "name": "_vestingDuration",
          "type": "uint32"
        },
        {
          "internalType": "uint32",
          "name": "_vestingCliff",
          "type": "uint32"
        },
        {
          "internalType": "bool",
          "name": "_permissionedSeed",
          "type": "bool"
        },
        {
          "internalType": "uint256",
          "name": "_fee",
          "type": "uint256"
        }
      ],
      "name": "initialize",
      "outputs": [],
      "stateMutability": "nonpayable",
      "type": "function"
    },
    {
      "inputs": [],
      "name": "initialized",
      "outputs": [
        {
          "internalType": "bool",
          "name": "",
          "type": "bool"
        }
      ],
      "stateMutability": "view",
      "type": "function"
    },
    {
      "inputs": [],
      "name": "isFunded",
      "outputs": [
        {
          "internalType": "bool",
          "name": "",
          "type": "bool"
        }
      ],
      "stateMutability": "view",
      "type": "function"
    },
    {
      "inputs": [],
      "name": "maximumReached",
      "outputs": [
        {
          "internalType": "bool",
          "name": "",
          "type": "bool"
        }
      ],
      "stateMutability": "view",
      "type": "function"
    },
    {
      "inputs": [],
      "name": "metadata",
      "outputs": [
        {
          "internalType": "bytes",
          "name": "",
          "type": "bytes"
        }
      ],
      "stateMutability": "view",
      "type": "function"
    },
    {
      "inputs": [],
      "name": "minimumReached",
      "outputs": [
        {
          "internalType": "bool",
          "name": "",
          "type": "bool"
        }
      ],
      "stateMutability": "view",
      "type": "function"
    },
    {
      "inputs": [],
      "name": "pause",
      "outputs": [],
      "stateMutability": "nonpayable",
      "type": "function"
    },
    {
      "inputs": [],
      "name": "paused",
      "outputs": [
        {
          "internalType": "bool",
          "name": "",
          "type": "bool"
        }
      ],
      "stateMutability": "view",
      "type": "function"
    },
    {
      "inputs": [],
      "name": "permissionedSeed",
      "outputs": [
        {
          "internalType": "bool",
          "name": "",
          "type": "bool"
        }
      ],
      "stateMutability": "view",
      "type": "function"
    },
    {
      "inputs": [],
      "name": "price",
      "outputs": [
        {
          "internalType": "uint256",
          "name": "",
          "type": "uint256"
        }
      ],
      "stateMutability": "view",
      "type": "function"
    },
    {
      "inputs": [],
      "name": "retrieveFundingTokens",
      "outputs": [
        {
          "internalType": "uint256",
          "name": "",
          "type": "uint256"
        }
      ],
      "stateMutability": "nonpayable",
      "type": "function"
    },
    {
      "inputs": [
        {
          "internalType": "address",
          "name": "_refundReceiver",
          "type": "address"
        }
      ],
      "name": "retrieveSeedTokens",
      "outputs": [],
      "stateMutability": "nonpayable",
      "type": "function"
    },
    {
      "inputs": [
        {
          "internalType": "address",
          "name": "_funder",
          "type": "address"
        }
      ],
      "name": "seedAmountForFunder",
      "outputs": [
        {
          "internalType": "uint256",
          "name": "",
          "type": "uint256"
        }
      ],
      "stateMutability": "view",
      "type": "function"
    },
    {
      "inputs": [],
      "name": "seedAmountRequired",
      "outputs": [
        {
          "internalType": "uint256",
          "name": "",
          "type": "uint256"
        }
      ],
      "stateMutability": "view",
      "type": "function"
    },
    {
      "inputs": [],
      "name": "seedClaimed",
      "outputs": [
        {
          "internalType": "uint256",
          "name": "",
          "type": "uint256"
        }
      ],
      "stateMutability": "view",
      "type": "function"
    },
    {
      "inputs": [],
      "name": "seedRemainder",
      "outputs": [
        {
          "internalType": "uint256",
          "name": "",
          "type": "uint256"
        }
      ],
      "stateMutability": "view",
      "type": "function"
    },
    {
      "inputs": [],
      "name": "seedToken",
      "outputs": [
        {
          "internalType": "contract IERC20",
          "name": "",
          "type": "address"
        }
      ],
      "stateMutability": "view",
      "type": "function"
    },
    {
      "inputs": [],
      "name": "softCap",
      "outputs": [
        {
          "internalType": "uint256",
          "name": "",
          "type": "uint256"
        }
      ],
      "stateMutability": "view",
      "type": "function"
    },
    {
      "inputs": [],
      "name": "startTime",
      "outputs": [
        {
          "internalType": "uint256",
          "name": "",
          "type": "uint256"
        }
      ],
      "stateMutability": "view",
      "type": "function"
    },
    {
      "inputs": [],
      "name": "totalFunderCount",
      "outputs": [
        {
          "internalType": "uint256",
          "name": "",
          "type": "uint256"
        }
      ],
      "stateMutability": "view",
      "type": "function"
    },
    {
      "inputs": [],
      "name": "unpause",
      "outputs": [],
      "stateMutability": "nonpayable",
      "type": "function"
    },
    {
      "inputs": [
        {
          "internalType": "address",
          "name": "buyer",
          "type": "address"
        }
      ],
      "name": "unwhitelist",
      "outputs": [],
      "stateMutability": "nonpayable",
      "type": "function"
    },
    {
      "inputs": [
        {
          "internalType": "bytes",
          "name": "_metadata",
          "type": "bytes"
        }
      ],
      "name": "updateMetadata",
      "outputs": [],
      "stateMutability": "nonpayable",
      "type": "function"
    },
    {
      "inputs": [],
      "name": "vestingCliff",
      "outputs": [
        {
          "internalType": "uint32",
          "name": "",
          "type": "uint32"
        }
      ],
      "stateMutability": "view",
      "type": "function"
    },
    {
      "inputs": [],
      "name": "vestingDuration",
      "outputs": [
        {
          "internalType": "uint32",
          "name": "",
          "type": "uint32"
        }
      ],
      "stateMutability": "view",
      "type": "function"
    },
    {
      "inputs": [],
      "name": "vestingStartTime",
      "outputs": [
        {
          "internalType": "uint256",
          "name": "",
          "type": "uint256"
        }
      ],
      "stateMutability": "view",
      "type": "function"
    },
    {
      "inputs": [
        {
          "internalType": "address",
          "name": "_buyer",
          "type": "address"
        }
      ],
      "name": "whitelist",
      "outputs": [],
      "stateMutability": "nonpayable",
      "type": "function"
    },
    {
      "inputs": [
        {
          "internalType": "address[]",
          "name": "_buyers",
          "type": "address[]"
        }
      ],
      "name": "whitelistBatch",
      "outputs": [],
      "stateMutability": "nonpayable",
      "type": "function"
    },
    {
      "inputs": [
        {
          "internalType": "address",
          "name": "",
          "type": "address"
        }
      ],
      "name": "whitelisted",
      "outputs": [
        {
          "internalType": "bool",
          "name": "",
          "type": "bool"
        }
      ],
      "stateMutability": "view",
      "type": "function"
    },
    {
      "inputs": [],
      "name": "withdraw",
      "outputs": [],
      "stateMutability": "nonpayable",
      "type": "function"
    }
  ],
  "bytecode": "0x60806040523480156200001157600080fd5b5061976880620000226000396000f3fe608060405234801561001057600080fd5b50600436106102d65760003560e01c806378e9792511610182578063bc0f5f84116100e9578063e6e36ebb116100a2578063f3640e741161007c578063f3640e7414610875578063f851a44014610893578063fb86a404146108b1578063fc582d41146108cf576102d6565b8063e6e36ebb1461080b578063ea34554014610829578063eaa5352314610859576102d6565b8063bc0f5f8414610720578063d936547e1461073e578063d96a094a1461076e578063dc4b9e381461079f578063ddca3f43146107cf578063e565eb4c146107ed576102d6565b80639a5904271161013b5780639a5904271461065e5780639b19251a1461067a578063a035b1fe14610696578063a8660a78146106b4578063aad3ec96146106d2578063b774682f14610702576102d6565b806378e97925146105be5780637c654303146105dc57806383d59e00146105fa5780638456cb59146106185780638a2448aa14610622578063906a26e014610640576102d6565b80633dba9e4111610241578063597e1fb5116101fa5780635e9777e8116101d45780635e9777e81461054857806371f4b8e81461056657806372b151261461058457806378065f27146105a0576102d6565b8063597e1fb5146104dc5780635c975abb146104fa5780635d85ac0d14610518576102d6565b80633dba9e41146104405780633f4ba83a1461045e578063430e99a41461046857806343d726d61461049857806344f9abb8146104a257806347d02f1b146104be576102d6565b80631cfe562e116102935780631cfe562e146103a0578063311f8483146103be5780633197cbb6146103dc57806338af3eed146103fa578063392f37e9146104185780633ccfd60b14610436576102d6565b8063031b3677146102db57806303aabe311461030c5780630826d2c714610328578063117a36d1146103465780631514617e14610364578063158ef93e14610382575b600080fd5b6102f560048036038101906102f09190617d94565b6108eb565b604051610303929190618a07565b60405180910390f35b61032660048036038101906103219190617d94565b61090f565b005b610330611224565b60405161033d91906189ec565b60405180910390f35b61034e61122a565b60405161035b91906185d4565b60405180910390f35b61036c61123d565b6040516103799190618a30565b60405180910390f35b61038a611253565b60405161039791906185d4565b60405180910390f35b6103a8611266565b6040516103b591906189ec565b60405180910390f35b6103c661126c565b6040516103d39190618611565b60405180910390f35b6103e4611290565b6040516103f191906189ec565b60405180910390f35b610402611296565b60405161040f9190618559565b60405180910390f35b6104206112ba565b60405161042d91906185ef565b60405180910390f35b61043e611348565b005b61044861193b565b60405161045591906185d4565b60405180910390f35b61046661194e565b005b610482600480360381019061047d9190617d94565b611d94565b60405161048f91906189ec565b60405180910390f35b6104a0611e84565b005b6104bc60048036038101906104b79190617dc1565b612488565b005b6104c6613388565b6040516104d391906189ec565b60405180910390f35b6104e461338e565b6040516104f191906185d4565b60405180910390f35b6105026133a1565b60405161050f91906185d4565b60405180910390f35b610532600480360381019061052d9190617d94565b6133b4565b60405161053f91906189ec565b60405180910390f35b61055061346a565b60405161055d91906189ec565b60405180910390f35b61056e613470565b60405161057b91906189ec565b60405180910390f35b61059e60048036038101906105999190617fa3565b61351e565b005b6105a8613521565b6040516105b59190618611565b60405180910390f35b6105c6613547565b6040516105d391906189ec565b60405180910390f35b6105e461354d565b6040516105f191906185d4565b60405180910390f35b610602613560565b60405161060f91906189ec565b60405180910390f35b610620613566565b005b61062a6139f7565b60405161063791906189ec565b60405180910390f35b610648614350565b60405161065591906189ec565b60405180910390f35b61067860048036038101906106739190617d94565b614356565b005b610694600480360381019061068f9190617d94565b6147d3565b005b61069e614c50565b6040516106ab91906189ec565b60405180910390f35b6106bc614c56565b6040516106c991906189ec565b60405180910390f35b6106ec60048036038101906106e79190617eed565b614c5c565b6040516106f991906189ec565b60405180910390f35b61070a6156e1565b60405161071791906189ec565b60405180910390f35b6107286156e7565b60405161073591906189ec565b60405180910390f35b61075860048036038101906107539190617d94565b6156ed565b60405161076591906185d4565b60405180910390f35b61078860048036038101906107839190618019565b61570d565b604051610796929190618a07565b60405180910390f35b6107b960048036038101906107b49190617d94565b616bec565b6040516107c691906189ec565b60405180910390f35b6107d7616cdc565b6040516107e491906189ec565b60405180910390f35b6107f5616ce2565b60405161080291906185d4565b60405180910390f35b610813616cf5565b60405161082091906189ec565b60405180910390f35b610843600480360381019061083e9190617d94565b616cfb565b60405161085091906189ec565b60405180910390f35b610873600480360381019061086e9190617f2d565b6172ca565b005b61087d6177d9565b60405161088a9190618a30565b60405180910390f35b61089b6177ef565b6040516108a89190618559565b60405180910390f35b6108b9617815565b6040516108c691906189ec565b60405180910390f35b6108e960048036038101906108e49190617fd0565b61781b565b005b60166020528060005260406000206000915090508060000154908060010154905082565b61093b7fd9031e27a77fd955dc9f6c9b5af7f674c9f2cf41813cb749d35fee5119725d7f60001b61351e565b6109677fe4f6391a5076f6d617286aee2fee4d55194543fe9d2e619c00c0fa6c9006ef3b60001b61351e565b6109937f42f8ed4455837f0de99ccc31297cad16cd2404e41c3014c330eacfb2b7c651f660001b61351e565b6109bf7f43d0ab43fb808a6097b1fe6f150be63388bed595c6321e04bce97ee2cc3a8c1260001b61351e565b600160009054906101000a900473ffffffffffffffffffffffffffffffffffffffff1673ffffffffffffffffffffffffffffffffffffffff163373ffffffffffffffffffffffffffffffffffffffff1614610a4f576040517f08c379a0000000000000000000000000000000000000000000000000000000008152600401610a469061882c565b60405180910390fd5b610a7b7fb0fe1f52deb5f394c792fb14d4811afec26d23af8eb67ae85a0f2656ce79673060001b61351e565b610aa77f98c22615f03bffdcde50240d976aca1f29e7b79b073aee4743a44c237541586560001b61351e565b610ad37f361530e17d3f6dc261f8c626dad79ace1b5241c0a4387d0a5af21bf52000ec6560001b61351e565b610aff7f785e47f53121ebcc6cb50e3d8e22622b26a68b7f0166c82b17168e3b865587d160001b61351e565b610b2b7f7481d99bb4e15d0c760990d3df4b6babf8d251eeed132f5bb084bb393857fffe60001b61351e565b610b577f7af67dc31adb3a636aeeb8ebe1ed53145a394b180ef25b0ddf15eb9ba9b9fcff60001b61351e565b600d60009054906101000a900460ff1680610b73575060085442115b610bb2576040517f08c379a0000000000000000000000000000000000000000000000000000000008152600401610ba99061872c565b60405180910390fd5b610bde7fbf6dbda1015837d93177d2227027f135e9464f5d0c012f18e160ad55be6feeef60001b61351e565b610c0a7f65f5fe01ad3dc2fa8354183ab987591578fc37cb853d4f03a784c5654facb2a460001b61351e565b610c367fd73fdfd3a5da1e3222a227ca73118df64b4151f6390359346ab39e2451fc243060001b61351e565b600d60009054906101000a900460ff1615610ec057610c777fb2f278f3a47c8a231a1847d0ef9ac4bc9ae7a1b991355f83d20e1142c01c1db860001b61351e565b610ca37f64b2dc3f0938dc796826800c1b0cd5c5feb6090ce26a358a6eb11314d20b6cd960001b61351e565b610ccf7f6d0bd96702c0de8ca7afb2a18bfbf973fc3b2655535e04b35a162940115ed04160001b61351e565b610cfb7f28512c6858f37bfaf9b0d00577678f95aeee5c5001b8714875e85c0ea9c2300460001b61351e565b60098054906101000a900473ffffffffffffffffffffffffffffffffffffffff1673ffffffffffffffffffffffffffffffffffffffff1663a9059cbb8260098054906101000a900473ffffffffffffffffffffffffffffffffffffffff1673ffffffffffffffffffffffffffffffffffffffff166370a08231306040518263ffffffff1660e01b8152600401610d919190618559565b60206040518083038186803b158015610da957600080fd5b505afa158015610dbd573d6000803e3d6000fd5b505050506040513d601f19601f82011682018060405250810190610de19190618046565b6040518363ffffffff1660e01b8152600401610dfe9291906185ab565b602060405180830381600087803b158015610e1857600080fd5b505af1158015610e2c573d6000803e3d6000fd5b505050506040513d601f19601f82011682018060405250810190610e509190617f76565b610e8f576040517f08c379a0000000000000000000000000000000000000000000000000000000008152600401610e869061862c565b60405180910390fd5b610ebb7f8b523186e68b511f52d4a8a89e2712d6d32e58df644e3b1ea28a20a9e5df9a5d60001b61351e565b611221565b610eec7fe57d6ac2946e7f033599e37c78bed6b40929119039274a377288cb28f0e7660b60001b61351e565b610f187f0f8ebb4dd42e5b0d79074f93a468303c70c9a5acfbb00cd41d7f8697a8602ff060001b61351e565b610f447f8026ac16c4ec66df0d1a461f12a01a1151a01f1c637529f449f094898ce2e12760001b61351e565b6000601254601054610f569190618b31565b600554600454610f669190618b31565b610f709190618c12565b9050610f9e7f2fa066b6a581d7ebba8dec7e064e0df669587730c0ed87a82e29d4a42329a0f860001b61351e565b610fca7fd68622a1d429fd173c8d7e4c0c583e8b0e3fb051a4cac504630514ba3148cead60001b61351e565b60008160098054906101000a900473ffffffffffffffffffffffffffffffffffffffff1673ffffffffffffffffffffffffffffffffffffffff166370a08231306040518263ffffffff1660e01b81526004016110269190618559565b60206040518083038186803b15801561103e57600080fd5b505afa158015611052573d6000803e3d6000fd5b505050506040513d601f19601f820116820180604052508101906110769190618046565b6110809190618c12565b90506110ae7fe309015e869618291127113786d57e67c5057f8eef0a73e79a4e9efb4560047160001b61351e565b6110da7f2f8ecd360a2d6533f1b58b3c0e0bc7a553d8bd2a14f1ff5707e345aee4d7ba1460001b61351e565b6111067fc177754f6ec1f998d4dce65977c9a39b003a36dd7b2dc3e15227cf45a98ccf5160001b61351e565b60098054906101000a900473ffffffffffffffffffffffffffffffffffffffff1673ffffffffffffffffffffffffffffffffffffffff1663a9059cbb84836040518363ffffffff1660e01b81526004016111619291906185ab565b602060405180830381600087803b15801561117b57600080fd5b505af115801561118f573d6000803e3d6000fd5b505050506040513d601f19601f820116820180604052508101906111b39190617f76565b6111f2576040517f08c379a00000000000000000000000000000000000000000000000000000000081526004016111e99061862c565b60405180910390fd5b61121e7f02318298c26640e12214a8aeb9649d92d9c40ec535929c202d328d21b76e6a4260001b61351e565b50505b50565b60105481565b600d60059054906101000a900460ff1681565b600960019054906101000a900463ffffffff1681565b600d60039054906101000a900460ff1681565b60135481565b60098054906101000a900473ffffffffffffffffffffffffffffffffffffffff1681565b60085481565b60008054906101000a900473ffffffffffffffffffffffffffffffffffffffff1681565b600c80546112c790618d38565b80601f01602080910402602001604051908101604052809291908181526020018280546112f390618d38565b80156113405780601f1061131557610100808354040283529160200191611340565b820191906000526020600020905b81548152906001019060200180831161132357829003601f168201915b505050505081565b6113747fd9031e27a77fd955dc9f6c9b5af7f674c9f2cf41813cb749d35fee5119725d7f60001b61351e565b6113a07fe4f6391a5076f6d617286aee2fee4d55194543fe9d2e619c00c0fa6c9006ef3b60001b61351e565b6113cc7f42f8ed4455837f0de99ccc31297cad16cd2404e41c3014c330eacfb2b7c651f660001b61351e565b6113f87f43d0ab43fb808a6097b1fe6f150be63388bed595c6321e04bce97ee2cc3a8c1260001b61351e565b600160009054906101000a900473ffffffffffffffffffffffffffffffffffffffff1673ffffffffffffffffffffffffffffffffffffffff163373ffffffffffffffffffffffffffffffffffffffff1614611488576040517f08c379a000000000000000000000000000000000000000000000000000000000815260040161147f9061882c565b60405180910390fd5b6114b47fb0fe1f52deb5f394c792fb14d4811afec26d23af8eb67ae85a0f2656ce79673060001b61351e565b6114e07f98c22615f03bffdcde50240d976aca1f29e7b79b073aee4743a44c237541586560001b61351e565b61150c7f2261fda31ba5fe4e44a308f6323744bb1ebf84e61e3c27cf3de9061ba744b2c960001b61351e565b6115387feda4f0c2520ba6f37db5f65581d7b8199dfaa44e667bcecd3f1a943855fc329660001b61351e565b6115647ffdbfa09ef104002ebfd19d2375c11a1e417a35edf61360ced8c9416d4dfea04a60001b61351e565b6115907f5e28c6182e46366af933d4c4c224a36d9dc0acc9003d4854a7f457834015bffc60001b61351e565b600d60019054906101000a900460ff16156115e0576040517f08c379a00000000000000000000000000000000000000000000000000000000081526004016115d7906188ac565b60405180910390fd5b61160c7f709e8263cb50ecf88678ba4506f01172f4f4e2051048d4bcbef66aaa15dae40860001b61351e565b6116387f819ec9b5f89cd6fbcd515cd9c47244c8f1f4dc992d43742dc01e3f9bd34208b960001b61351e565b6116647fe6cf8844274f8b6b0f7ab563193f9ca3d748c753b457078d8f7aabfe8e1634c560001b61351e565b6116907f84ec22b29b68a7eee8d271e2f4e03ce5b114d3da4c022dd2e0a455fc4660fca160001b61351e565b600d60049054906101000a900460ff166116df576040517f08c379a00000000000000000000000000000000000000000000000000000000081526004016116d69061898c565b60405180910390fd5b61170b7fadeab8ece7a9e74d47e4c609d336c564291a5d2c3a71d26da6b2f09b067e456260001b61351e565b6117377fd32f21b726e1989b38680e7a905e9639599a09a5b69343d911017fbd64836d9660001b61351e565b6117637f22ee405cd2c77de261e8bfd5e2decba8f6ea86da33cdeaaa5657058533ef573760001b61351e565b61178f7f7614003881b67b7d98d85f2ea0a8c2cf999442d48523eb7ab97a6df09e0001f660001b61351e565b6117bb7f32283d9f5a820c7af8e25177b9772aac0af601be729a817a92f3d43ae93542dd60001b61351e565b60006014546013546117cd9190618c12565b90506117fb7f1ad81547f6169dcd29580a6c85dda07c5b7f2d0b095a0894dedb37cd85a5c89660001b61351e565b6118277f27046ee01a0460d53287528939f23f7e10219629331e91ce0a42e3de7e265f3c60001b61351e565b60135460148190555061185c7f6bc959b7a96a89301d53e9c7ad40924c5434645898cc646151cb44c520b84f2560001b61351e565b6118887f8ea0dcce4e4024c20f4b8253a79358a886afb1f797543950feb4448ada2f931760001b61351e565b600a60009054906101000a900473ffffffffffffffffffffffffffffffffffffffff1673ffffffffffffffffffffffffffffffffffffffff1663a9059cbb33836040518363ffffffff1660e01b81526004016118e59291906185ab565b602060405180830381600087803b1580156118ff57600080fd5b505af1158015611913573d6000803e3d6000fd5b505050506040513d601f19601f820116820180604052508101906119379190617f76565b5050565b600960009054906101000a900460ff1681565b61197a7fd9031e27a77fd955dc9f6c9b5af7f674c9f2cf41813cb749d35fee5119725d7f60001b61351e565b6119a67fe4f6391a5076f6d617286aee2fee4d55194543fe9d2e619c00c0fa6c9006ef3b60001b61351e565b6119d27f42f8ed4455837f0de99ccc31297cad16cd2404e41c3014c330eacfb2b7c651f660001b61351e565b6119fe7f43d0ab43fb808a6097b1fe6f150be63388bed595c6321e04bce97ee2cc3a8c1260001b61351e565b600160009054906101000a900473ffffffffffffffffffffffffffffffffffffffff1673ffffffffffffffffffffffffffffffffffffffff163373ffffffffffffffffffffffffffffffffffffffff1614611a8e576040517f08c379a0000000000000000000000000000000000000000000000000000000008152600401611a859061882c565b60405180910390fd5b611aba7fb0fe1f52deb5f394c792fb14d4811afec26d23af8eb67ae85a0f2656ce79673060001b61351e565b611ae67f98c22615f03bffdcde50240d976aca1f29e7b79b073aee4743a44c237541586560001b61351e565b611b127fd47c11045224aa2bb6c5dd42bc9ca22b465d3e21441769e4555854e60154cb4d60001b61351e565b611b3e7f47d9349e750054b1e04b2d3e7c6b085c938776a751e0c3105eeca2d0becaa1d760001b61351e565b611b6a7f995dc9ab751ee7ed9f7c46216d3e72eab8495440ad5163db16db8e9891c4bc6060001b61351e565b611b967f8977be5789ee20d7a40f18013aa8a5e42b9684ba6b3d6aee0454e5997579fa3a60001b61351e565b60011515600d60009054906101000a900460ff1615151415611bed576040517f08c379a0000000000000000000000000000000000000000000000000000000008152600401611be49061884c565b60405180910390fd5b611c197fa509ff751656ee37cdd05eb6f236bf05680b0b5ce8472f7b2ab209518bf18d4d60001b61351e565b611c457fc956bab1b2e2cb81be35991496d6415c62b32099c2731698771ebec0be308b5c60001b61351e565b611c717fd87197cdd9c56840d44507a90978555eabb0424d0473faff35fc117550fea60b60001b61351e565b611c9d7f88d83fc26ca3b90a79e0085361cb2c88f84e3515ed1ae4f344f0e2311c59990c60001b61351e565b60011515600d60019054906101000a900460ff16151514611cf3576040517f08c379a0000000000000000000000000000000000000000000000000000000008152600401611cea9061880c565b60405180910390fd5b611d1f7f5aec6636ff0a3c8ba9ee42b1e7773796ad78ccc4483b389391bde6ccfa69081860001b61351e565b611d4b7f03ea1d93575150d4b4131b7bef4521e3f04f02d569388e6f90bbd7356f2890f560001b61351e565b611d777fb02eb36d6050b172d8cec04c49f2ba383e0a1f7ad93cf6aaf54013e8dc6df4ec60001b61351e565b6000600d60016101000a81548160ff021916908315150217905550565b6000611dc27f5f891c7397dd2e7aec968cfdab8e989271d554bc14190fc09f12bb448d6555ee60001b61351e565b611dee7fa64972bf1bd1e70348d7af3d70daf69170a288ec3d22b40515f5725a7189540460001b61351e565b611e1a7f8510d7e2614e2c5de332e6c0a3a30a93cabef7309bde29c2c6d06fb26c7ccebd60001b61351e565b670de0b6b3a7640000600b54601660008573ffffffffffffffffffffffffffffffffffffffff1673ffffffffffffffffffffffffffffffffffffffff16815260200190815260200160002060000154611e739190618bb8565b611e7d9190618b87565b9050919050565b611eb07fd9031e27a77fd955dc9f6c9b5af7f674c9f2cf41813cb749d35fee5119725d7f60001b61351e565b611edc7fe4f6391a5076f6d617286aee2fee4d55194543fe9d2e619c00c0fa6c9006ef3b60001b61351e565b611f087f42f8ed4455837f0de99ccc31297cad16cd2404e41c3014c330eacfb2b7c651f660001b61351e565b611f347f43d0ab43fb808a6097b1fe6f150be63388bed595c6321e04bce97ee2cc3a8c1260001b61351e565b600160009054906101000a900473ffffffffffffffffffffffffffffffffffffffff1673ffffffffffffffffffffffffffffffffffffffff163373ffffffffffffffffffffffffffffffffffffffff1614611fc4576040517f08c379a0000000000000000000000000000000000000000000000000000000008152600401611fbb9061882c565b60405180910390fd5b611ff07fb0fe1f52deb5f394c792fb14d4811afec26d23af8eb67ae85a0f2656ce79673060001b61351e565b61201c7f98c22615f03bffdcde50240d976aca1f29e7b79b073aee4743a44c237541586560001b61351e565b6120487ffbe833dbc07901eddbcf9abc59ae9615b8ba1ed66d9de5ccd3bc69288cc882e660001b61351e565b6120747ff75c0a84f234aac5976b464f9b42d8069f02d61b88daf6804eb03a32b4cf887d60001b61351e565b6120a07f939d9ec01fcd8035c65e6593ca373cf5038952c13ad1040b2fe7dfde52465f1160001b61351e565b6120cc7fc8a42e1b15e30c1133e35e4170b6f0609e39d01c02c449bd50c913472bd5b1ab60001b61351e565b600d60009054906101000a900460ff161561211c576040517f08c379a00000000000000000000000000000000000000000000000000000000081526004016121139061884c565b60405180910390fd5b6121487fe786ca491dd46670fc2fc944fdde4415efd9d4499a27cd7a4e69e1a39139edf360001b61351e565b6121747f7cfb4f65f8e3ad6ab09f1b889f0ba27d9ed990f061c8a47e2c3284fa6693aa2760001b61351e565b6121a07f6ebdd4afc831d8ed3d5addf5eefd9825689f829a5f91546d101d989bbc0aa55960001b61351e565b6121cc7f9f8ffbc181d63891a3d7988da6a075b7d0bcf8f6d0c0ea6e1863df6834958b2b60001b61351e565b600d60019054906101000a900460ff161561221c576040517f08c379a0000000000000000000000000000000000000000000000000000000008152600401612213906188ac565b60405180910390fd5b6122487f4a611f1330acf9c94a7709b6057751822555c3be77fbe229a2ec793bf79b9bd860001b61351e565b6122747ff64fe3da64a10c4e85d7176fb657b6d8d7a519ab095aa13fc74db08b7307405260001b61351e565b6122a07f2d584f447db2f833b9bd0c49fc885ad279939e950a509597a47b9fac504b7f1360001b61351e565b6122cc7f8d2a6bc3066a24dcb8180b7378ec9e913156afac2d6b247c9d1cc7b89a653da760001b61351e565b6122f87f1b886a4c7c09047aa39ddc12086f5a0722725491a494c0808c1938accd76a3c960001b61351e565b6123247fa434685c4f18ab9adf2f3509b3a2c3557c4471032003393efebf5b61791dd92260001b61351e565b600d60049054906101000a900460ff1615612374576040517f08c379a000000000000000000000000000000000000000000000000000000000815260040161236b906188ec565b60405180910390fd5b6123a07f984fb97633314949c8889773dc6ba409e4e2a07a38aeb365e2bd628d627e4a1b60001b61351e565b6123cc7fd5f37e876f34d862cef2242578a7f43044fd17f47d5294a617d49dc63d8cdaa260001b61351e565b6123f87faa67ffb5d6049771e57c78f850a71d20208daf4c70026d08b5646c393e97dfcf60001b61351e565b6001600d60006101000a81548160ff02191690831515021790555061243f7ffe6e011714472fe9e19b38fa264f6fd2abd98323a2b79c56bdedb8b17bd11be160001b61351e565b61246b7f2e797d6b3488b32bf7f09475ad526668f442ffd80aa8def6f88e6ec06d0324e060001b61351e565b6000600d60016101000a81548160ff021916908315150217905550565b6124b47f895d9b7d2339e42bd8c2c2cf34bf61dee12f5bc3a94a33f72c4ee2ef88b3c08960001b61351e565b6124e07ff49158ca7355c4e38bd54d737569c2a079541c4e8a323cd12bdb477ce1f3654f60001b61351e565b61250c7fd6b66d60e5511f09b2bd1851d26f91c94202caa72cd50a3bf3b84e1e7820e5bf60001b61351e565b6125387ffc91837a84c5380f0b3036e878b01787365fe95a2b93249b8dee1f3125d9c0ee60001b61351e565b600d60039054906101000a900460ff1615612588576040517f08c379a000000000000000000000000000000000000000000000000000000000815260040161257f9061888c565b60405180910390fd5b6125b47f97244c4f1c9c19c72c53eaab35f18f4a1ba92e97d2cf8f8335ab7c6d8ba292d460001b61351e565b6125e07f429990eb55a9dc690eee4b496803e1d8e281693ae5c0e9f9d9c50891cff4614f60001b61351e565b61260c7fa75903bd2a43d17666f6d035e132c9f7b23615e29c271cd3ce87780ce03365fb60001b61351e565b6001600d60036101000a81548160ff0219169083151502179055506126537f3efc56dd87322cabdcf21743875e2538c0c871adb0c3837290afee95fd0a2c4960001b61351e565b61267f7f5106e873a2949f20ff249d653bbbe3d418fe075eaf6a3c845fe24f8ef4b3f7b160001b61351e565b6126ab7f59fad9501ba44f17fb8933c667a072efd56c86de3c666a13fbf8a82ea21e9e0660001b61351e565b6126d77f148e8571bfba8a072d53f996a71baac61b786d1cc432c7a6bf7f57a62fd92b9560001b61351e565b6127037f890df977f69efed6757334d16d7144c5e9186c7e2ffcd73e91c2ee1fd6d5014460001b61351e565b8860018151811061271757612716618e71565b5b602002602001015173ffffffffffffffffffffffffffffffffffffffff168960008151811061274957612748618e71565b5b602002602001015173ffffffffffffffffffffffffffffffffffffffff1614156127a8576040517f08c379a000000000000000000000000000000000000000000000000000000000815260040161279f9061870c565b60405180910390fd5b6127d47ff7a5ee9a6a3d90a9ef2cb8c044777e045ee20743166678a85824755b69cbd54260001b61351e565b6128007f10a4bba71b653b1ac2f233eb928ed91087d0da43d2abecaaf6f90bbadee2716d60001b61351e565b61282c7f4c7bbc54c5edc33b6b5e4f745bf6f538dfbbf0aec9c62a6519b3c8e322a9458260001b61351e565b6128587f1c64e0d1cbdd7a50b33c7be0fb88210126d3af395712de75e7e080b3250238ac60001b61351e565b8760008151811061286c5761286b618e71565b5b60200260200101518860018151811061288857612887618e71565b5b602002602001015110156128d1576040517f08c379a00000000000000000000000000000000000000000000000000000000081526004016128c89061868c565b60405180910390fd5b6128fd7fa0b93e4213834b1b6243711ec2beb92b9e0582c22d2196e946298beb44d3152b60001b61351e565b6129297fc06af6ef8287e50eb74f902218b06407b713b374b7c07756a768549c242ab7e060001b61351e565b6129557fab3f66784199878f10851020bdcaf6a77422a4c8e76b3a65c60ea8f8d8aa3dbb60001b61351e565b6129817f3980e6b26c3ee917143e6cdf8ac1a4ec8d977103c5edad89ccfc50d19d65812b60001b61351e565b8263ffffffff168463ffffffff1610156129d0576040517f08c379a00000000000000000000000000000000000000000000000000000000081526004016129c7906187cc565b60405180910390fd5b6129fc7f424bbea99e7b67f222eda53054f2e4e565d4760147f52b332408453a5a58db8760001b61351e565b612a287f4fedc46016256cd63d1fbd9e2a383d7829168ed76b992ae4e63f5c2659d0093560001b61351e565b612a547f5f08fc44af172d3681fe5f5207f588637f0b8798c6e80da9e1b2c1e735c7d77760001b61351e565b612a807fcfca57b740c38434dd13eaca8dd3d205ea01e9b2f235d2d2b8848d5d4708c53960001b61351e565b858511612ac2576040517f08c379a0000000000000000000000000000000000000000000000000000000008152600401612ab99061874c565b60405180910390fd5b612aee7fd3aef5f7ddfb546a8013fac5817a9e4dedf0713be7710531028b7ef427ad485c60001b61351e565b612b1a7f797d44c14e4bac8efe9f964ec672986958748ef0992e262fc00ab3e2f4980d6860001b61351e565b612b467f23fe338173113b1f127eba48492155c8d4d6f497a9a3e01e3c7329f6b23f6f5f60001b61351e565b8a6000806101000a81548173ffffffffffffffffffffffffffffffffffffffff021916908373ffffffffffffffffffffffffffffffffffffffff160217905550612bb27fd5e637a17e1d30ca1d7da3c596392d483d140ef79cf8f0b28a0c6a8fb1ed0e8560001b61351e565b612bde7f1b2842ab77a3db1dda9640291ef98d2a13752521f725838752976f8d6864b48060001b61351e565b89600160006101000a81548173ffffffffffffffffffffffffffffffffffffffff021916908373ffffffffffffffffffffffffffffffffffffffff160217905550612c4b7f4ddd56646d62ee87da2f3a431d9189e2fd5a30b5fbe934603afac76ae5a77cae60001b61351e565b612c777f3326b549d63830f14c8b10f4fe20ee484249fc380297dd1ae75fa65cc8a08f3f60001b61351e565b87600081518110612c8b57612c8a618e71565b5b6020026020010151600281905550612cc57f2918be53fb32c3a7467b3971539d0af9031308d0dfc66268b2fcf35c9d67210f60001b61351e565b612cf17f7e55ac2fafd0385c8e87c41359e01eb6b547e5d25b1c4a3d6fa0f4adf40ae15360001b61351e565b87600181518110612d0557612d04618e71565b5b6020026020010151600381905550612d3f7f375e5b1b88f52b66ec683c16e1edc1fc220d87713f93f8cc750f5c73bdf647c060001b61351e565b612d6b7faf1e0ae40e9699fdb843c418833ff2fd643548406707a6e3e6753e363536024c60001b61351e565b86600681905550612d9e7ff399a8cf44d5ddb10a1fd9d8435d00fbb6d640508eaa6a032ace336058ae715760001b61351e565b612dca7f48eb810bf6c6518b7f2ba098caa5f0706a5429cb8fa0983de7ccf1082778e5be60001b61351e565b85600781905550612dfd7f232b1c11068bd2b682c6369cd9b2b0ddd8223724c690b672336e08b45834071660001b61351e565b612e297fb0740c8bd92083b053828643aebd70204cb5b07ad3d8910a505c67cbe8be9dba60001b61351e565b84600881905550612e5c7fe8883520fb037a7ef5f2bfff9713013bc74b60dc4ab4229a9a7b61405dc6449e60001b61351e565b612e887f29b1f74ac6fd9aabbc826bb28c76a3c166a57b254ba191846bb418687780b67e60001b61351e565b600854600e81905550612ebd7f9a22f9906cbcfef3969ae9946a61d0981f2f6be4b4c9c9b36c15a0593bb8640060001b61351e565b612ee97f1a11b8ff2847f6f8d0fdf726e354387457fc7afe47ad8b0f8e7d8b660f222cd060001b61351e565b83600960016101000a81548163ffffffff021916908363ffffffff160217905550612f367f68f2c7c1e43781b4654f03d2b271d5133b3ec341d13beb91409bc70723c99adf60001b61351e565b612f627f7e7b93042dbc7c231789d4b04163b38c6d9d6371738155ce7dc0fc74df335ea860001b61351e565b82600960056101000a81548163ffffffff021916908363ffffffff160217905550612faf7f0a2fc58e90c24086f5d9fe9e37281327ba916176046b80250d58312b251a67e460001b61351e565b612fdb7f24c283fc93ff861237c189b3ed5cdf850eca0d4f4f73c45cec15f715bdbb07fb60001b61351e565b81600960006101000a81548160ff0219169083151502179055506130217f59e41c9f4d6c0932048b728874bc44ab786b24f7e2c3a1b1c651369644b1258b60001b61351e565b61304d7f07edc44dd1b9e7caef6c61ed3118c994a5fcf004892d68b04c31d376551299cf60001b61351e565b8860008151811061306157613060618e71565b5b60200260200101516009806101000a81548173ffffffffffffffffffffffffffffffffffffffff021916908373ffffffffffffffffffffffffffffffffffffffff1602179055506130d47fe86aa76475d6030e11c28c32686687551957615ec6e53b85278ee1f90b5497ba60001b61351e565b6131007f2b1ce9b203beedd4e58eadd35e3444f5c11f268a0842f14242927d73dc29566060001b61351e565b8860018151811061311457613113618e71565b5b6020026020010151600a60006101000a81548173ffffffffffffffffffffffffffffffffffffffff021916908373ffffffffffffffffffffffffffffffffffffffff1602179055506131887f9c83f1ed54ada649154f4e6486ce1adae92c90f1e1e5b36dbf37a89ec6b94c2c60001b61351e565b6131b47f9ff8e5a74640975b170a7dda896c42a682ff2912dd397936d65ec0c86691642c60001b61351e565b80600b819055506131e77f8ea6de3c1dd15ff35644853998035a04debf15a41f618b91473bcc20401130a060001b61351e565b6132137fdefb86077b48d1da0e6c6087baf842c82153872a7c9ee7a5950b273225f4584560001b61351e565b86670de0b6b3a764000060035461322a9190618bb8565b6132349190618b87565b6004819055506132667fcc85ac318b4443d5e6544492c24b1c8f863c0f394b68ac15044c492c4c85872460001b61351e565b6132927fb813cbd54addc803802b67be7ae3f26c6f5a7a929470132d738457527367f70e60001b61351e565b670de0b6b3a7640000816004546132a99190618bb8565b6132b39190618b87565b6005819055506132e57ffc25a2a21d1ff0ffa2b9bc94493b63d59750411bd347c8537905fd9079e31a6360001b61351e565b6133117faf92bafeb4e44ee598c7ef523dbb2786d86fa7ba460a7ead2e5b4d2aa838858c60001b61351e565b6004546010819055506133467feab6f50a02327d5c2aae5931461046891c6d88f9cb8ce8b40366f9fa5eb5edb860001b61351e565b6133727f4fd1a0e13fcae832999a681311b721dec1ed2f56a0857c7085ae5850ef14315060001b61351e565b6005546012819055505050505050505050505050565b60115481565b600d60009054906101000a900460ff1681565b600d60019054906101000a900460ff1681565b60006133e27fe1aacd1c7f55c22a167df1efcd9857249ead71d9af756e0aa6fccfc9e297fcac60001b61351e565b61340e7f622029f10c7f878f66d417840040168feb5f615663e456f16d146952793a34c660001b61351e565b61343a7ff212496fe98b5a37ab330226a192e44203d43bdc05c9a17140f04dada58363e460001b61351e565b670de0b6b3a7640000600b5461344f84616bec565b6134599190618bb8565b6134639190618b87565b9050919050565b600f5481565b600061349e7fe3d51c8393d13ad6e7e4a231b680426c6cd29a0cffa81b844f273a672f08121b60001b61351e565b6134ca7f138d75ef478506005d9bd909d21044e3290e25650883281f8feb06e85a3413e560001b61351e565b6134f67f4a7dea037f35ac3dfe6f99b5bd160e781903af80f990e6fcb61d67d4d02c7b5160001b61351e565b670de0b6b3a7640000600b5460115461350f9190618bb8565b6135199190618b87565b905090565b50565b600a60009054906101000a900473ffffffffffffffffffffffffffffffffffffffff1681565b60075481565b600d60029054906101000a900460ff1681565b60145481565b6135927fd9031e27a77fd955dc9f6c9b5af7f674c9f2cf41813cb749d35fee5119725d7f60001b61351e565b6135be7fe4f6391a5076f6d617286aee2fee4d55194543fe9d2e619c00c0fa6c9006ef3b60001b61351e565b6135ea7f42f8ed4455837f0de99ccc31297cad16cd2404e41c3014c330eacfb2b7c651f660001b61351e565b6136167f43d0ab43fb808a6097b1fe6f150be63388bed595c6321e04bce97ee2cc3a8c1260001b61351e565b600160009054906101000a900473ffffffffffffffffffffffffffffffffffffffff1673ffffffffffffffffffffffffffffffffffffffff163373ffffffffffffffffffffffffffffffffffffffff16146136a6576040517f08c379a000000000000000000000000000000000000000000000000000000000815260040161369d9061882c565b60405180910390fd5b6136d27fb0fe1f52deb5f394c792fb14d4811afec26d23af8eb67ae85a0f2656ce79673060001b61351e565b6136fe7f98c22615f03bffdcde50240d976aca1f29e7b79b073aee4743a44c237541586560001b61351e565b61372a7ffbe833dbc07901eddbcf9abc59ae9615b8ba1ed66d9de5ccd3bc69288cc882e660001b61351e565b6137567ff75c0a84f234aac5976b464f9b42d8069f02d61b88daf6804eb03a32b4cf887d60001b61351e565b6137827f939d9ec01fcd8035c65e6593ca373cf5038952c13ad1040b2fe7dfde52465f1160001b61351e565b6137ae7fc8a42e1b15e30c1133e35e4170b6f0609e39d01c02c449bd50c913472bd5b1ab60001b61351e565b600d60009054906101000a900460ff16156137fe576040517f08c379a00000000000000000000000000000000000000000000000000000000081526004016137f59061884c565b60405180910390fd5b61382a7fe786ca491dd46670fc2fc944fdde4415efd9d4499a27cd7a4e69e1a39139edf360001b61351e565b6138567f7cfb4f65f8e3ad6ab09f1b889f0ba27d9ed990f061c8a47e2c3284fa6693aa2760001b61351e565b6138827f6ebdd4afc831d8ed3d5addf5eefd9825689f829a5f91546d101d989bbc0aa55960001b61351e565b6138ae7f9f8ffbc181d63891a3d7988da6a075b7d0bcf8f6d0c0ea6e1863df6834958b2b60001b61351e565b600d60019054906101000a900460ff16156138fe576040517f08c379a00000000000000000000000000000000000000000000000000000000081526004016138f5906188ac565b60405180910390fd5b61392a7f4a611f1330acf9c94a7709b6057751822555c3be77fbe229a2ec793bf79b9bd860001b61351e565b6139567ff64fe3da64a10c4e85d7176fb657b6d8d7a519ab095aa13fc74db08b7307405260001b61351e565b6139827f37c1fea9cd24a349eac6c9a375ea53c8494a219285ea4e4153c0767168e5348d60001b61351e565b6139ae7f2b539d800e9fa7bb63b87b98e01b8551e97391c8ae4acb3b0eb1e3226ce5a79b60001b61351e565b6139da7fb230f6f251a60a31026c56a989fd29d211cabd8d2b079744a3e6820eda41a44a60001b61351e565b6001600d60016101000a81548160ff021916908315150217905550565b6000613a257f841b6eab91c0b5dfe949cd725730a51a874244d3e45a767bf0a3095cfaab481a60001b61351e565b613a517f2a8275781a4cb981be43b3760439f0c492ae913b4234992df396f8fef3dfb48d60001b61351e565b613a7d7f5b39a8f1a65eda3c5656169ba467961e27f3ca1306850de16ba85cdc695352c560001b61351e565b613aa97faabfbf0d4b45a6153eb36ec5af7d70ac6304d7151d9bdb1270ab5b1c79cd9a7f60001b61351e565b426007541115613aee576040517f08c379a0000000000000000000000000000000000000000000000000000000008152600401613ae59061890c565b60405180910390fd5b613b1a7f34486bb82fb8f3dcb464ca38939f369559f81084407608a60733572e35e2bd8760001b61351e565b613b467f53ca100b175a98c48e3a5baf25e4310ef143aaced3461e83010721dd1e30adae60001b61351e565b613b727f0696025bafb3a0cb3bc10995267c4ef10e2650aecb384d5895f4d16d434c0d9860001b61351e565b613b9e7f5464d721ced5d29525d9995a7ccc44ae6fed8620a72a8695fca58bb05cfac89560001b61351e565b600d60049054906101000a900460ff1615613bee576040517f08c379a0000000000000000000000000000000000000000000000000000000008152600401613be59061894c565b60405180910390fd5b613c1a7f6d8c2566fbb39fd74397269ef28013ffdbf255f703f8db639caece8b43e660eb60001b61351e565b613c467f34cc6bbd6d9e33f09e9be9af2b801ccefe7913fafd5f3da9d74356f33bd7b82a60001b61351e565b613c727ff41885fe98956ff6589350803f348f1e8bd5895092921de926b93de95e644a5960001b61351e565b613c9e7f33637ba06c085469080a30c04d1a76ba453617b1bd44491bc60add439113e1da60001b61351e565b613cca7feeaff378c2c6ab6f32668c8314ce6b6a46eaf68d237e69414b39ced836d70b7f60001b61351e565b613cf67f46d3e65632d06108ed441aa3841ab1c2d7e4ace4b46bcccf5338db10911c0f1060001b61351e565b6000601660003373ffffffffffffffffffffffffffffffffffffffff1673ffffffffffffffffffffffffffffffffffffffff1681526020019081526020016000206001015411613d7b576040517f08c379a0000000000000000000000000000000000000000000000000000000008152600401613d72906189cc565b60405180910390fd5b613da77faf52d925c0d90bff0228b3cf9f009414b3f038d7be11cba851477b96fc5f05a260001b61351e565b613dd37f84c98409bac4b477241da65beb16b3dfd2aeec63da618bdc4a4e2c47a641deab60001b61351e565b613dff7ffc6ed1489181d29cce6d3e9e263799081ec5ccd56026a885880b1e4f04e590f360001b61351e565b6000601660003373ffffffffffffffffffffffffffffffffffffffff1673ffffffffffffffffffffffffffffffffffffffff1681526020019081526020016000209050613e6e7f38ec1d0abfb8f9553737de0be24558f2657dfaef6feb61090b013d60bdd22e5460001b61351e565b613e9a7fff834d23d96cd1850945fc1307141c4b7e5913f82c1a8dbc9e1934a329d06ed960001b61351e565b600081600101549050613ecf7f84c67410db66dbc4d67f7f97fc151f702be2c8bc40376e23033faf236656be1e60001b61351e565b613efb7fd2db1bb989e8e72be498bcf568c65db94cfd0b1fbb14223448396d791fe7159d60001b61351e565b613f0433616bec565b60106000828254613f159190618b31565b92505081905550613f487f46b235aece315b883cee8ad29bc83c58b8498c552f7efa89afa9cec964418d9e60001b61351e565b613f747f43f212271eb0eef79a28f1e6370e8be9a93391994d0cd5bae90eb5c9339e526360001b61351e565b613f7d336133b4565b60126000828254613f8e9190618b31565b92505081905550613fc17fa57c1bccabf2f0f689d0735ac03841624348373d4a102dafc8ae1c5cfa21cb6260001b61351e565b600f6000815480929190613fd490618d0e565b91905055506140057f5f7fc09fb9ccac7bdff0327bd85f062e0cf9c5e1ce922e9ed26255524bd5e74760001b61351e565b6140317fdd5dcf030570e1ee6e465583cafddf943be92b23cb7ce8bd0dc3db787925e07860001b61351e565b600082600101819055506140677fb044fb3069d30280e2a8d6aabfd7ee546f6737f8693c39fb394c49e392cb123e60001b61351e565b6140937fcce76a6c7a8ac4049d2f4524bbcbdf17b34754c5a83d306073785dd68b98341960001b61351e565b80601360008282546140a59190618c12565b925050819055506140d87f356215866b3983c1d4702488788889b5af8df4f3e7740b8e2e94ec7e17f028b460001b61351e565b6141047f0d39794b29f2a4052c84e5b110999b438fbc4d2a2422e69d22fce5b5ef8aeae560001b61351e565b6141307f91c583610384b48afca3c0c3d5c33fd6acc3999c1bf7f3a4e2defc11ff6c324060001b61351e565b600a60009054906101000a900473ffffffffffffffffffffffffffffffffffffffff1673ffffffffffffffffffffffffffffffffffffffff1663a9059cbb33836040518363ffffffff1660e01b815260040161418d9291906185ab565b602060405180830381600087803b1580156141a757600080fd5b505af11580156141bb573d6000803e3d6000fd5b505050506040513d601f19601f820116820180604052508101906141df9190617f76565b61421e576040517f08c379a00000000000000000000000000000000000000000000000000000000081526004016142159061878c565b60405180910390fd5b61424a7fd2c347f84c6ecf1f02fcb48a0c2bbe18eb56c5c5e2bb15bfd52eeb6d8a8c763860001b61351e565b6142767ff8a1e6e22fe3439c60c3c4ecf0d219e23e309d974fe3ed689b5203300d2721e160001b61351e565b6142a27f435e9c1ae4aa43f4010c351ab48009dd251f89b8e3502f2790c064e9ced1169e60001b61351e565b3373ffffffffffffffffffffffffffffffffffffffff167f1a689b1a62e3bb77f9c98d8759c04f341a67deb5cc63cf53be8324b691064950826040516142e891906189ec565b60405180910390a261431c7f58bff8d3e18a0cfdc3e3381885f34de3af202183acc585d162b5f8ef4a94a19460001b61351e565b6143487fb2d2a57c1ec1234b77753644b317ff7774a68afdfd777dfdb8d727235c1d50f660001b61351e565b809250505090565b60025481565b6143827fd9031e27a77fd955dc9f6c9b5af7f674c9f2cf41813cb749d35fee5119725d7f60001b61351e565b6143ae7fe4f6391a5076f6d617286aee2fee4d55194543fe9d2e619c00c0fa6c9006ef3b60001b61351e565b6143da7f42f8ed4455837f0de99ccc31297cad16cd2404e41c3014c330eacfb2b7c651f660001b61351e565b6144067f43d0ab43fb808a6097b1fe6f150be63388bed595c6321e04bce97ee2cc3a8c1260001b61351e565b600160009054906101000a900473ffffffffffffffffffffffffffffffffffffffff1673ffffffffffffffffffffffffffffffffffffffff163373ffffffffffffffffffffffffffffffffffffffff1614614496576040517f08c379a000000000000000000000000000000000000000000000000000000000815260040161448d9061882c565b60405180910390fd5b6144c27fb0fe1f52deb5f394c792fb14d4811afec26d23af8eb67ae85a0f2656ce79673060001b61351e565b6144ee7f98c22615f03bffdcde50240d976aca1f29e7b79b073aee4743a44c237541586560001b61351e565b61451a7fea8ccf4139a82ab6ad23ccdcd73542d297e250479c4dfd613c7bed5d71244ed160001b61351e565b6145467fad6f4e831ee5057573f7ef46a1b197b19c3a38df09d45d35c7f5f3e48bd786ba60001b61351e565b6145727fc5a5aa3eb74a8352fc1a583e95ea4cf89513839d634bd239664c9a00d9066d1b60001b61351e565b61459e7f4d6ce9804b7aba336af085605e32bbfe089f6ae8f6533d8195fb89f4b446a01460001b61351e565b600d60009054906101000a900460ff16156145ee576040517f08c379a00000000000000000000000000000000000000000000000000000000081526004016145e59061884c565b60405180910390fd5b61461a7f54e3011ee155767a18fc2fcdf278ed3b157e9c23c0cb1c5b2880fce7df49249460001b61351e565b6146467fd431e4340da144bd73db4a58d6a526979d652629ef61c1662f1e07702e4ef1b160001b61351e565b6146727fe37efed25de5b0f3442df05d497b23dd512db256ef5cd432083ae384f91a245260001b61351e565b61469e7f0358785f8deb58f2c6e541ffa50cc280bef578820a3e8b4b3d7c2574d31268af60001b61351e565b60011515600960009054906101000a900460ff161515146146f4576040517f08c379a00000000000000000000000000000000000000000000000000000000081526004016146eb9061896c565b60405180910390fd5b6147207f85484661c7b436edc477517871b987a656755fac7edbaa9709644f4c41beeee060001b61351e565b61474c7f1e0293f4bb1bdc164beeb30e93f172a9ae49540df058fd88b73a2eddbded12e460001b61351e565b6147787f3402a6702c087240b8a19e4647ef8fd76c74d9f70cb4d8e7f37a79365a9e934260001b61351e565b6000601560008373ffffffffffffffffffffffffffffffffffffffff1673ffffffffffffffffffffffffffffffffffffffff16815260200190815260200160002060006101000a81548160ff02191690831515021790555050565b6147ff7fd9031e27a77fd955dc9f6c9b5af7f674c9f2cf41813cb749d35fee5119725d7f60001b61351e565b61482b7fe4f6391a5076f6d617286aee2fee4d55194543fe9d2e619c00c0fa6c9006ef3b60001b61351e565b6148577f42f8ed4455837f0de99ccc31297cad16cd2404e41c3014c330eacfb2b7c651f660001b61351e565b6148837f43d0ab43fb808a6097b1fe6f150be63388bed595c6321e04bce97ee2cc3a8c1260001b61351e565b600160009054906101000a900473ffffffffffffffffffffffffffffffffffffffff1673ffffffffffffffffffffffffffffffffffffffff163373ffffffffffffffffffffffffffffffffffffffff1614614913576040517f08c379a000000000000000000000000000000000000000000000000000000000815260040161490a9061882c565b60405180910390fd5b61493f7fb0fe1f52deb5f394c792fb14d4811afec26d23af8eb67ae85a0f2656ce79673060001b61351e565b61496b7f98c22615f03bffdcde50240d976aca1f29e7b79b073aee4743a44c237541586560001b61351e565b6149977f6cff199729a898efe30cf5fdf5c1f32e1850a903613d3e57083951ae465c85ba60001b61351e565b6149c37f411dbb1405951655a9adfb89d95af5e6c138c109a5ddb952ce350d1998ab4c0760001b61351e565b6149ef7f6a47d677c4b956ffc6252123d9854e8dfd08f7db981adce40b7c0533f05b0c1c60001b61351e565b614a1b7f67f7db27ff5c5892c14c995abd29043c895cff1b753568df2541bc6f48ec75d660001b61351e565b600d60009054906101000a900460ff1615614a6b576040517f08c379a0000000000000000000000000000000000000000000000000000000008152600401614a629061884c565b60405180910390fd5b614a977fd735511f828223767e8c05dc85f59333d139236bf9d1476db3538348f373877360001b61351e565b614ac37f35ea9b034b5da66bd26e6e1133aafbf6940471eea9158f6f3adc371b647d57c960001b61351e565b614aef7f97f2353dc2936f4dbd56587b20110cb4c269d23e0fb24e384e7036e36ca8d6a160001b61351e565b614b1b7fe8cd810d25840e58d274d933f2f6cc2d6e4a82af171be5ab374de6ff705da4b660001b61351e565b60011515600960009054906101000a900460ff16151514614b71576040517f08c379a0000000000000000000000000000000000000000000000000000000008152600401614b689061896c565b60405180910390fd5b614b9d7fbab7a0768fa4438c3d8b1ac4fd7493808745bc61cbe0570dfa97414e9baba60660001b61351e565b614bc97f8d6157cc4a283444d277976b979bcf8587d8a71c9379358d16d581a60cb260a460001b61351e565b614bf57ff506ff01fe00df8fb1f4029b68f0756ca8422c6d4b1dacd903d21e4a51f4274460001b61351e565b6001601560008373ffffffffffffffffffffffffffffffffffffffff1673ffffffffffffffffffffffffffffffffffffffff16815260200190815260200160002060006101000a81548160ff02191690831515021790555050565b60065481565b600e5481565b6000614c8a7f19642df5058f05068d8fc64f8d72491341d3080c91385a94cca4ff13081ed16d60001b61351e565b614cb67f013de7cb441a0f08185b8a57c2003b5aad23d529ccc9caec561e7f6faa68394160001b61351e565b614ce27f1c20a0070d2c80b71341f1e18d75d422e9df8aa08f6bf21346285ea162526f3d60001b61351e565b614d0e7f18686f00eda3982cfd7e2b4168729628846f2a10b2b601887b98d3c3d348d1e460001b61351e565b600d60049054906101000a900460ff16614d5d576040517f08c379a0000000000000000000000000000000000000000000000000000000008152600401614d549061898c565b60405180910390fd5b614d897f91c43d21bb1e7bdfa9857465243682bf2cf919c886b6b16fa1b36f571d29d29560001b61351e565b614db57f63786270f9804b0ed00ffb0119a0362d4d86ee7eb70722b8ec279af153e7ad2460001b61351e565b614de17fb99ec12a7a1bbe693ee38ef5a23f5e95989079023f3f31ff2150fbd978982e5f60001b61351e565b614e0d7f196f7f69643d697801c421d6b56d55e5717048c995b5d5b7b09364d65aebb5f160001b61351e565b426008541080614e295750600d60059054906101000a900460ff165b614e68576040517f08c379a0000000000000000000000000000000000000000000000000000000008152600401614e5f906186ec565b60405180910390fd5b614e947f46cddb3e98fca80d3788fdd85316d77ba0f58b09de63393adaa5fa6ab8eac66e60001b61351e565b614ec07fefe8550df58eaae13a53ad5e19ffaa4507d59f94bc0264ab75648b7c04a0d70460001b61351e565b614eec7fe808165bc18137254715836dce11a7062e15f35e01dafa96274d456c9722b29a60001b61351e565b614f187f92ac6d03d7b044388d484160d6645cfdb661b1d9b5bd01e2ec027f0ac0dbc0bd60001b61351e565b614f447f67eaf19267b5935977d7e2907df54ce4cc923b960ea1eba2da2098c1bbeedc4860001b61351e565b6000614f727ff0a7dd268872da961a7ae6fc821430c4c622fccb94fe7a7bb49b0e7afe6fa19960001b61351e565b614f9e7f65642b6654d6cbef54d4c25ca6c2b90af454c54468ef05961aeb700b4e9438ba60001b61351e565b614fa784616cfb565b9050614fd57fc93d11dd708ad503ceb9a446da10c46008f78f88712c921c8015f4db1d32887260001b61351e565b6150017f9aefacda8f684572c1441ec87bb50e89fe4ddcc5e903920f4fd6df6bdc8c8f1960001b61351e565b61502d7f173da7b23c6678df8a9bae39ee28c190dbda1c7d5d2d880633cbbc980a4f8dca60001b61351e565b60008111615070576040517f08c379a0000000000000000000000000000000000000000000000000000000008152600401615067906189ac565b60405180910390fd5b61509c7fbb4d692ef640c125e96fae9496a59b8fb980de6556ddedbafcbca1e6faefcfe060001b61351e565b6150c87f2da30c0c6b9385fa94f7d874076732239b28da18d527d957ae1b7927440fa3f160001b61351e565b6150f47ff7ae1333d7f551e915dd01a7728d9bb087fd01159c0ca8a01f065b8235529e5960001b61351e565b6151207ff431f686faae0d96b13f3c73ad1249b4bffc1f4963a7312fb8b7d37623bbbe3160001b61351e565b82811015615163576040517f08c379a000000000000000000000000000000000000000000000000000000000815260040161515a9061866c565b60405180910390fd5b61518f7f77d8c8c7ffcd4980679e0929ba8fee1c504c38ded30ad51453848119c9f959ef60001b61351e565b6151bb7fe5b9f5b26005d42fa19a7705e9fcd26ccfc1fc1d646f0c5cbea2fc5a91916c6260001b61351e565b6151e77fc75ee9b74821762b834b390b17733aec9923fd7a21bea367e56c326645bd840660001b61351e565b6000670de0b6b3a7640000600b54856152009190618bb8565b61520a9190618b87565b90506152387faedc76247e2186f69af14d62df00bd8ff46ec21414067d28bcbf7a00d83f714760001b61351e565b6152647fcc2e1ca050795b113c6fd3374debfe9014d3e67820012662b4d586ad8037362460001b61351e565b83601660008773ffffffffffffffffffffffffffffffffffffffff1673ffffffffffffffffffffffffffffffffffffffff16815260200190815260200160002060000160008282546152b69190618b31565b925050819055506152e97f1186882ecca6a8f0c21d82c2220be034a21cc530c9e38a8d2f1f55d8b61d065660001b61351e565b6153157f45f26c6df33f41335c9dedd83fc69d5c44ce043e60b73da009451aea82a37de060001b61351e565b83601160008282546153279190618b31565b9250508190555061535a7f038ecec16e3349056a46782993d30491865f7d305f084a71dae15807fb215b5c60001b61351e565b6153867f9231679aaf4beedfa8eb215a25c1ca7f8cd3c40ccb2e17e73995dfb93841518060001b61351e565b6153b27fb7a67d6c9a4535c382d45f7a2db5c57c6e08eceb5fc0ef556ffec855ecb1359860001b61351e565b60098054906101000a900473ffffffffffffffffffffffffffffffffffffffff1673ffffffffffffffffffffffffffffffffffffffff1663a9059cbb60008054906101000a900473ffffffffffffffffffffffffffffffffffffffff16836040518363ffffffff1660e01b815260040161542d9291906185ab565b602060405180830381600087803b15801561544757600080fd5b505af115801561545b573d6000803e3d6000fd5b505050506040513d601f19601f8201168201806040525081019061547f9190617f76565b8015615534575060098054906101000a900473ffffffffffffffffffffffffffffffffffffffff1673ffffffffffffffffffffffffffffffffffffffff1663a9059cbb86866040518363ffffffff1660e01b81526004016154e19291906185ab565b602060405180830381600087803b1580156154fb57600080fd5b505af115801561550f573d6000803e3d6000fd5b505050506040513d601f19601f820116820180604052508101906155339190617f76565b5b615573576040517f08c379a000000000000000000000000000000000000000000000000000000000815260040161556a906187ec565b60405180910390fd5b61559f7f93b8b3f9b209f40e35a5f8387c12de8fe07f1db938d846d15439c40a10510eff60001b61351e565b6155cb7f0289826f9efb07073ef8e70d88e89076dd33ffa7eca44c0c15898bacc2535fc760001b61351e565b6155f77f8c0d287e850177dac400451ccefcd24fef739c2e09f4328e7ceece870c6e56ee60001b61351e565b60008054906101000a900473ffffffffffffffffffffffffffffffffffffffff1673ffffffffffffffffffffffffffffffffffffffff168573ffffffffffffffffffffffffffffffffffffffff167f9bd10be98695714f5cb43cefb59ba6417808b354710acafafe05e81b264922318684604051615676929190618a07565b60405180910390a36156aa7fdc7f22bada89f03aa55a2c73845665e03d1912e330ea30cd702a40b02998312860001b61351e565b6156d67f830bf458de61906a1e19c7b4a1ae9f5ed4343f4f170fcb537fe9d0e88d61167a60001b61351e565b809250505092915050565b60125481565b60045481565b60156020528060005260406000206000915054906101000a900460ff1681565b60008061573c7ffbe833dbc07901eddbcf9abc59ae9615b8ba1ed66d9de5ccd3bc69288cc882e660001b61351e565b6157687ff75c0a84f234aac5976b464f9b42d8069f02d61b88daf6804eb03a32b4cf887d60001b61351e565b6157947f939d9ec01fcd8035c65e6593ca373cf5038952c13ad1040b2fe7dfde52465f1160001b61351e565b6157c07fc8a42e1b15e30c1133e35e4170b6f0609e39d01c02c449bd50c913472bd5b1ab60001b61351e565b600d60009054906101000a900460ff1615615810576040517f08c379a00000000000000000000000000000000000000000000000000000000081526004016158079061884c565b60405180910390fd5b61583c7fe786ca491dd46670fc2fc944fdde4415efd9d4499a27cd7a4e69e1a39139edf360001b61351e565b6158687f7cfb4f65f8e3ad6ab09f1b889f0ba27d9ed990f061c8a47e2c3284fa6693aa2760001b61351e565b6158947f6ebdd4afc831d8ed3d5addf5eefd9825689f829a5f91546d101d989bbc0aa55960001b61351e565b6158c07f9f8ffbc181d63891a3d7988da6a075b7d0bcf8f6d0c0ea6e1863df6834958b2b60001b61351e565b600d60019054906101000a900460ff1615615910576040517f08c379a0000000000000000000000000000000000000000000000000000000008152600401615907906188ac565b60405180910390fd5b61593c7f4a611f1330acf9c94a7709b6057751822555c3be77fbe229a2ec793bf79b9bd860001b61351e565b6159687ff64fe3da64a10c4e85d7176fb657b6d8d7a519ab095aa13fc74db08b7307405260001b61351e565b6159947fb26688f59dc389b04f231a918d76b9be600045b564e479e4d2481b202c2904e460001b61351e565b6159c07f69c6b35322844c3453439055fd22b8d35971ded75cb4c5bd10d5fe30e433294d60001b61351e565b6159ec7f241bd6a94d315339e39660847a0cbb47a979d044dedb14ca702f9bb6315c246360001b61351e565b615a187fdfff8040232bd90a11d488ba3b50ed2758a48792fb0df228b1d733abce50196260001b61351e565b600d60059054906101000a900460ff1615615a68576040517f08c379a0000000000000000000000000000000000000000000000000000000008152600401615a5f9061864c565b60405180910390fd5b615a947f1da0b4ec5a091ea28df37ccd98bb28fd9c9b23c18b93e81ab07c13faa08a396160001b61351e565b615ac07f2c5b55c26bb337cb1ffa884a7c1eb5c01232e804a1fcf1878f2e7d5a6c540e8060001b61351e565b615aec7f9c716687a47446ac97a91cebb798673498ed1a696c0e2f4676748d720a5669e960001b61351e565b615b187f6f40f6b9fe80e47686be359251f288d046e461124c19b39d8ad87a947637216560001b61351e565b600960009054906101000a900460ff161580615b7d5750601560003373ffffffffffffffffffffffffffffffffffffffff1673ffffffffffffffffffffffffffffffffffffffff16815260200190815260200160002060009054906101000a900460ff165b615bbc576040517f08c379a0000000000000000000000000000000000000000000000000000000008152600401615bb3906187ac565b60405180910390fd5b615be87ff1f0f2270a0f6d724f7fcad18e6c6d9acf3780a839a6e42678f55d1b2e55c7b560001b61351e565b615c147f499d4f4ecc14d94a119f4ce66e986531adf4f0eb092d56f6039eab175245112a60001b61351e565b615c407f7017c74ada50538b5ee436147d30be03d74277856d5c40c9e979e51db5c417bd60001b61351e565b615c6c7f7c50eb9c63b293912f09d53298c5bd6fdcc1edc649c61f486ad25c5f45fd9fe760001b61351e565b4260085410158015615c8057504260075411155b615cbf576040517f08c379a0000000000000000000000000000000000000000000000000000000008152600401615cb69061886c565b60405180910390fd5b615ceb7faa53ec8f79b20d26180a6389e674cab5ba0aa29d953d0c65f8aac6e96ff8a1ab60001b61351e565b615d177ffcfaaf390594c5941e7037c1ef7c754cf086260b9e33cee9bcffe6d50fe24c8160001b61351e565b615d437f330275678adcdc61d5cc1a07f0a4b4a39fea341e749515f02c62a8dcf22a623960001b61351e565b615d6f7f319dc25d0d96b18529cdd22b177f911206785314afa775bb6d3bb4cc7f91760960001b61351e565b615d9b7f181c6fb5b70b4cf3eb903a627f277af10861d67bdbab9779cee2422b5fda04dc60001b61351e565b600d60029054906101000a900460ff16615ffd57615ddb7fbc4823e0e1ea7d727dc5e3a7e59417bb520ef8618180e4df1b8f6dfe74bb97ef60001b61351e565b615e077f8768330ac40c899f34536dbb00d9758da5080bcab5b21d41e2ac0488c11459c260001b61351e565b615e337ffeb89e85112ae3c4967eab3cb700a938b6437f95216901b961b139f409f25a8060001b61351e565b615e5f7f7d78c03ec4eea19cd5257af95b2eedf7c9a8a4b0f5592cd6cbdba9316f7fca2760001b61351e565b600554600454615e6f9190618b31565b60098054906101000a900473ffffffffffffffffffffffffffffffffffffffff1673ffffffffffffffffffffffffffffffffffffffff166370a08231306040518263ffffffff1660e01b8152600401615ec89190618559565b60206040518083038186803b158015615ee057600080fd5b505afa158015615ef4573d6000803e3d6000fd5b505050506040513d601f19601f82011682018060405250810190615f189190618046565b1015615f59576040517f08c379a0000000000000000000000000000000000000000000000000000000008152600401615f509061892c565b60405180910390fd5b615f857f817660e8b90761b9db99185a2b1573b56917f7fdd778d17940f7b9aa938eb5e660001b61351e565b615fb17f6cf2689e11702b826e72af87a778904fa75e64224240d39668e6936390e1dafa60001b61351e565b615fdd7f12cfaa8362f08ac390eee5ef1edee0f74c6efb63423f654e6ceee622d37e540f60001b61351e565b6001600d60026101000a81548160ff02191690831515021790555061602a565b6160297fe04cd402d14ed12511e8f0a280ca2d73aba8960307453e7dc7207370222960f460001b61351e565b5b6160567f6f834027d2bd7bfca1f1cd3f8254ee9bc8d4c074841f955df49e087bfde32df960001b61351e565b6160827ff2271759b0c962192fa5d16894041b21a16d642a4327d51b0ab2eec812505a6a60001b61351e565b6000600654670de0b6b3a76400008561609b9190618bb8565b6160a59190618b87565b90506160d37fb4cd773a1de4a167129f37f116795c0653e86e0c0207d73ef04350c218795e4760001b61351e565b6160ff7f6fa6aa5b449235fe67426fceab8ba80a882d643b523b26382e7aa544897d070660001b61351e565b6000670de0b6b3a7640000600b54836161189190618bb8565b6161229190618b87565b90506161507f369c2aa2687c5c85d017abb35f8baf623e3caeacc733a52da950763a8a0f59a760001b61351e565b61617c7f0c8652b2e2f30291d9814ded9fd839f2cbb3247938507cef3ab3cf8d70f095fa60001b61351e565b6161a87f8f26349725f955dfdf7274bcbacab8128fca18e474bd66eb378703a82947648d60001b61351e565b600960019054906101000a900463ffffffff1663ffffffff16821015616203576040517f08c379a00000000000000000000000000000000000000000000000000000000081526004016161fa9061876c565b60405180910390fd5b61622f7f2a60c53eec4ea32af887edc605b8d19d785b67ea3016a5873b7e9e3823d0a8ab60001b61351e565b61625b7ff7a5f6dc4ad554871ed19ba2274580a4d5d24a827bc6db89bdfa3b860179417660001b61351e565b6162877fdf2889bce35effbed2266be69c183a69418db508cb35f5ad14e4d46e6885bed460001b61351e565b6162b37fd382698cbfc736cc4f826d5ae46140c13fc25dcc368747929ce7a35d3dcf02a460001b61351e565b600354856013546162c49190618b31565b1115616305576040517f08c379a00000000000000000000000000000000000000000000000000000000081526004016162fc906186ac565b60405180910390fd5b6163317f905b8e7224d6ebfa0de44bb766032155d6c696dabb625085ed642280f62a577560001b61351e565b61635d7fa0a4293f5cd180e25278d5d0f2a15cf989412b261954bed04efb0b5f0f30524c60001b61351e565b6163897ffd60a8a60f0cbff0f0174411b33dc6b4d453165da2a390b80490ed94be41e71960001b61351e565b846013600082825461639b9190618b31565b925050819055506163ce7fa0c0c07a60e430280a44fbaf9c41e0076e06200267bb35eeaf5698082504386760001b61351e565b6163fa7f4b1393eca3ca4fafc075e48a98dba827ae37e80ef19295dd57024ae865fbf8a260001b61351e565b816010600082825461640c9190618c12565b9250508190555061643f7f482ec7ab3d729560eab01de1edd9d067c76a98d38196a150d87f02548479c8b760001b61351e565b61646b7f3e12add341dc7d612a3736f487b50061b7ed030c13613e303b5d30740d9ee36e60001b61351e565b806012600082825461647d9190618c12565b925050819055506164b07fe435f42538509ba0f554043bdb41d94ca1d44ce5cdf44c0de25a3bf38a2793a260001b61351e565b6164dc7f90af659d2b54be7f7f9d476b0973d809ac55a77d0dd35a55ad70e7c3ae5e6f0560001b61351e565b6002546013541061658b576165137f369eb5f84db82caa4edf09bff17771ec6b882f203aba4c435adc64c26fa4054e60001b61351e565b61653f7fd34774ad0840f572de47479b4ff547d19d57b1e146de875a9a623206945b6d7060001b61351e565b61656b7f2c3c5c67456b7d6e0f250a0134a99dfa9dba733d0109be012f2b3ccf4c9fbb2f60001b61351e565b6001600d60046101000a81548160ff0219169083151502179055506165b8565b6165b77fbad79b41fc2f38369d2d583079b683d9043873aa99fe4983a31b0c1cc801eed960001b61351e565b5b6165e47f368a7da2e1917857fd5449f2f777dbf57d84c2035e274d8e2ea424a7c1ecf04c60001b61351e565b6166107fdde8e96319c6afb40a4198cc819db97a8038a3d35d4f5c69979885c8b7933e3760001b61351e565b6003546013541061671e576166477f7ce0d71d3cfc514faffb55ab61af7287098629c4c2cb9897fd5b703abd01408d60001b61351e565b6166737f17a64f270c69be73e208bd170eea545a3371369fe73d25ddd5e132c1e657d76060001b61351e565b61669f7fccb2c6957ff5bdcbb7aa8bd99de38ee7697f1111cc68be423891bd0bcba4418860001b61351e565b6001600d60056101000a81548160ff0219169083151502179055506166e67f130d73590ef9101ac4d383e1898a335cc0300c948858d184ea9bbef9912af32d60001b61351e565b6167127f17b7da08a46ca87b01135b8eb6bf6987ff93264df85f840b5be3137f15c8f9ee60001b61351e565b42600e8190555061674b565b61674a7f3240c2e43b9942f8ae83bd36a50bc8336df734685e5cdac1a208a55de7969dc360001b61351e565b5b6167777f5d5e68988792fba8bd28b2d27c4e6f74e3390c4a6f08f4d864288cf2dad1400d60001b61351e565b6167a37fd768b8a150307cf3d115116bb1eeb50af50ff0b6fbc1d2808fe52e0c65306b1a60001b61351e565b6000601660003373ffffffffffffffffffffffffffffffffffffffff1673ffffffffffffffffffffffffffffffffffffffff1681526020019081526020016000206001015414156168635761681a7f34322b388ff221d09a9997b832d7e541ed006cead8c52cea43009a177541129860001b61351e565b6168467fe42ecdac172472e3c0ba29de6f58ce4e9e8487207f220ffdcf7602ce667ece4b60001b61351e565b600f600081548092919061685990618d9b565b9190505550616890565b61688f7ff3bdc8b884c138aad1d08ad3fd543325949988c21b1333225b927b07f8d10d1360001b61351e565b5b6168bc7f27f86837938a46c4656a211d7cacb341d7605d4a0f5e6d71e8bb99b038dacf6060001b61351e565b6168e87fb736061b73b826b998d1637dee43e00d77c5936c967b21462dbe36934ac9897c60001b61351e565b84601660003373ffffffffffffffffffffffffffffffffffffffff1673ffffffffffffffffffffffffffffffffffffffff168152602001908152602001600020600101600082825461693a9190618b31565b9250508190555061696d7fb00adcbfc64ef9d1f10f32295d96d64c6e231d7f024e7b098e4b88bbdb5e728060001b61351e565b6169997fde61f9970f0607b3ad56b85b1ff650a578b8331974d0c1697a127716e45f479360001b61351e565b6169c57f0456dec71c980aafbb374c05c362de214f4aad56d857dc8470f503581dd240fd60001b61351e565b600a60009054906101000a900473ffffffffffffffffffffffffffffffffffffffff1673ffffffffffffffffffffffffffffffffffffffff166323b872dd3330886040518463ffffffff1660e01b8152600401616a2493929190618574565b602060405180830381600087803b158015616a3e57600080fd5b505af1158015616a52573d6000803e3d6000fd5b505050506040513d601f19601f82011682018060405250810190616a769190617f76565b616ab5576040517f08c379a0000000000000000000000000000000000000000000000000000000008152600401616aac906188cc565b60405180910390fd5b616ae17f3f1931eaddb7cb5b935b6b861c014c2d37c41751527887c357965a57d59017f060001b61351e565b616b0d7fc73fa6a317865ab5e13e26e689ca0d05f2f0688fc1a0a28c2159bdb0c335267560001b61351e565b616b397fddb85a4ec72fa054f5a32748d53793239da91b46ccc733410530eaa4591becbc60001b61351e565b3373ffffffffffffffffffffffffffffffffffffffff167fcf5ef2b227e797b567f0df4c49cc8b6207cfb60054eb899e5608de08e5dcb1ef83604051616b7f91906189ec565b60405180910390a2616bb37f4a073bfaf7c8a1338dc6ea5533fd11b2a5c8a954e149bde15901cc5ccb73c2cc60001b61351e565b616bdf7f13e7c1690efbaf07962aedac4f14b7771a264775a59ff1bb25e7b0705d2425e060001b61351e565b8181935093505050915091565b6000616c1a7f68e06d0c1b8ef2e9d13b2e2538dce7972ba7f52f9e5fc3225f51d85d52e6726460001b61351e565b616c467f885927885867fa120da4d3e13af6d060a733c20baa6176caa77d250d9244fda960001b61351e565b616c727f0c575198cc42bf3fd662b43d327dd1f9fc15688f4c660a970234bc5d73b3708b60001b61351e565b600654670de0b6b3a7640000601660008573ffffffffffffffffffffffffffffffffffffffff1673ffffffffffffffffffffffffffffffffffffffff16815260200190815260200160002060010154616ccb9190618bb8565b616cd59190618b87565b9050919050565b600b5481565b600d60049054906101000a900460ff1681565b60055481565b6000616d297f28363c2be143fa1385a7d6ff07b5fd2be43b068aa213c7e91f5ebf21e941cd1460001b61351e565b616d557fec9f9fae3b046200721e41097823d663e3f5cf3fa8910d75b433d289b1ae638460001b61351e565b616d817f244639c621c3057d4ad497c057206016c235e778132e4862bd0984b7dcb9ab9a60001b61351e565b6000601660008473ffffffffffffffffffffffffffffffffffffffff1673ffffffffffffffffffffffffffffffffffffffff1681526020019081526020016000209050616df07f34902f739ee0092b26da5f269f665b7b2a0c98e63894ac5cdd5def0309467dc660001b61351e565b616e1c7f19bd7e25d06582c95d9d54b0bd71c3aae02e41e06a387551e344a96d0280122960001b61351e565b600e54421015616eb457616e527fa184f839ca2a5be39abbf514c97755ed16f7b918a157fa55d7009f6b829575f460001b61351e565b616e7e7f7e95a5a57f2002c38edfba619c80baa3a4921bd02910e144c69c99e6f488339a60001b61351e565b616eaa7f25cdcf796a3af3652f48cf722cbc2309a5e64c858e9dcfc4babb63032b27a24360001b61351e565b60009150506172c5565b616ee07fe9052be9ee604c7440d21b4f51abe7e2b5222dffdcf69fff2f95466ae3959a8260001b61351e565b616f0c7fe707b55036e845d7f9401d0dfd281117a4f0fb4b048b1520a73754cd0e6249f960001b61351e565b616f387f261e8a950696637ba4a36d8af27424a22bc75477b1cd088ecbbd0a102a1314ff60001b61351e565b6000600e5442616f489190618c12565b9050616f767f92b3238aa50f1bc7add60c61a97c227e05323ceca92c7e619f0e363d2de8a58360001b61351e565b616fa17ea69b975902ad6735fd506d70ea2e92cc7216e5d305d576dd5a02e69951bdc760001b61351e565b600960059054906101000a900463ffffffff1663ffffffff1681101561705057616fed7ff870fb375c7bee03ba499faeffec735fe53a5b48b02830d6ce040114be59994e60001b61351e565b6170197fa8c8912c5d55b48eaaa803630f54d5566d046ea8de12c7da5316fb1fd9936d7c60001b61351e565b6170457f4fc4ff886143bd4a40710f6dfb7954ced0ca4ca85d86a8a5bd5fdbf3e0484ec360001b61351e565b6000925050506172c5565b61707c7f5420b391e48d951219640b4a994fa130515a7bd4fb48e70d8b97b02d4c25760860001b61351e565b6170a87fd711087a4a041006206c469988a342bf671df408b4c26c74236e25d50f90256c60001b61351e565b6170d47f5df9092d77f6ee202c90afdbe8c8d241d1b0386695caffda7552fa33f57cc01760001b61351e565b600960019054906101000a900463ffffffff1663ffffffff1681106171985761711f7f68a7afd316b7193ec850e1d25af3e699a8bff2ac426c1d49809259c486686e7b60001b61351e565b61714b7f990ba2ffd683bc2a3deccab35e419bed3a80efd782949ce3eaa56906096a601a60001b61351e565b6171777ffd9915760788b8060352826a20624f099ac47a156afb4b656a1016332d359deb60001b61351e565b816000015461718585616bec565b61718f9190618c12565b925050506172c5565b6171c47ff2160ae253d425374120f51a915832e86203e97aa9e9a368e53d28a7ab317c9360001b61351e565b6171f07faad41c3feb35188094dd5c65ae34b4a2d0a5ecd72e924f43eefe0d936d6b456760001b61351e565b61721c7f20c81b14dc972dd3950a56e0d32f9538c47fe523a7983eea9d39962dc63e050a60001b61351e565b6000600960019054906101000a900463ffffffff1663ffffffff1661724086616bec565b8361724b9190618bb8565b6172559190618b87565b90506172837f9f95fd73a21913a57640c97f35016efa39acbd8eef72783e496d9d7ce1279a9860001b61351e565b6172af7fece8f633f597d89963669c7d7885f96aca81ddf4df5b3b154de380d2120a51be60001b61351e565b8260000154816172bf9190618c12565b93505050505b919050565b6172f67fd9031e27a77fd955dc9f6c9b5af7f674c9f2cf41813cb749d35fee5119725d7f60001b61351e565b6173227fe4f6391a5076f6d617286aee2fee4d55194543fe9d2e619c00c0fa6c9006ef3b60001b61351e565b61734e7f42f8ed4455837f0de99ccc31297cad16cd2404e41c3014c330eacfb2b7c651f660001b61351e565b61737a7f43d0ab43fb808a6097b1fe6f150be63388bed595c6321e04bce97ee2cc3a8c1260001b61351e565b600160009054906101000a900473ffffffffffffffffffffffffffffffffffffffff1673ffffffffffffffffffffffffffffffffffffffff163373ffffffffffffffffffffffffffffffffffffffff161461740a576040517f08c379a00000000000000000000000000000000000000000000000000000000081526004016174019061882c565b60405180910390fd5b6174367fb0fe1f52deb5f394c792fb14d4811afec26d23af8eb67ae85a0f2656ce79673060001b61351e565b6174627f98c22615f03bffdcde50240d976aca1f29e7b79b073aee4743a44c237541586560001b61351e565b61748e7f4bd7910e219bc4309d95b75d07cbfd837e3ab585826227e72f174d3de488f8b560001b61351e565b6174ba7fbee69997b42ae3df787fa9cf02352c255b7693140087f236d761f6da62841f4960001b61351e565b6174e67fbefcac02b6300263b4474bc10fe7d0bca980e646eefd42bfac4e4580748d8fef60001b61351e565b6175127f01d46f6e200a8b91e2eae75057db997a4a44e4bfdb2889f7bc18e179e7be1ae660001b61351e565b600d60009054906101000a900460ff1615617562576040517f08c379a00000000000000000000000000000000000000000000000000000000081526004016175599061884c565b60405180910390fd5b61758e7f379f1f3efbe656be9eb50cb980f3d9ea67e19a4d2c2a2a1a944726737374e39760001b61351e565b6175ba7f6c1297853cd8e36f67aca9fa42b4db1e322f504a257968dea37acd491718dbee60001b61351e565b6175e67faaee081a3b0ea3eb0a6f146869b7dea3f73dcd8a5dbccf9dda4ae6c6e90a579360001b61351e565b6176127f1171de2097e868b9d9dbbfe1a9eef623323daeaa0211f26bf78bb96548fd853660001b61351e565b60011515600960009054906101000a900460ff16151514617668576040517f08c379a000000000000000000000000000000000000000000000000000000000815260040161765f9061896c565b60405180910390fd5b6176947f84fcdcdfa1ddde5c827de5ebb36389aea80da2810d607b8e761419cf72ea2e0a60001b61351e565b6176c07f2c083754448f6602f900ada26904e7f8c53a08107932ceed36112890379be16560001b61351e565b6176ec7f64d1f2d87df3e83268a5220435f734b4a7a52117642d679ad07d31a285ab179760001b61351e565b60005b81518110156177d5576177247f494add8c138f01755fc32bfd4b2ce39f5a371e913781d187785a775055c92aa960001b61351e565b6177507f4d62a3e60abfdf37947435fd0f03373bd728c283cef15e4c7b245b9831f1a02e60001b61351e565b60016015600084848151811061776957617768618e71565b5b602002602001015173ffffffffffffffffffffffffffffffffffffffff1673ffffffffffffffffffffffffffffffffffffffff16815260200190815260200160002060006101000a81548160ff02191690831515021790555080806177cd90618d9b565b9150506176ef565b5050565b600960059054906101000a900463ffffffff1681565b600160009054906101000a900473ffffffffffffffffffffffffffffffffffffffff1681565b60035481565b6178477f5a1e93ffd3abf16bf5e25536a5bb26d8cdd32917db7714ba81dcee3941e470ae60001b61351e565b6178737f3d061513d293947ab12f99b955c4bdc053f1721e4f3d9c376ede18f71514fa1c60001b61351e565b61789f7fdfefb60ccc0c52af68878c1f60b4a08976c1e5463b5f792f6f704b29ca302a3060001b61351e565b6178cb7f4f093d2aeaa4338fb95d7d424c1784c0ab442b2e06c98fa697936e9529f1173c60001b61351e565b60011515600d60039054906101000a900460ff16151514158061793b5750600160009054906101000a900473ffffffffffffffffffffffffffffffffffffffff1673ffffffffffffffffffffffffffffffffffffffff163373ffffffffffffffffffffffffffffffffffffffff16145b61797a576040517f08c379a0000000000000000000000000000000000000000000000000000000008152600401617971906186cc565b60405180910390fd5b6179a67f79e2456d7673a689f7145e61b8dbd20823434b1e43fc6ef18740cdb4c908679a60001b61351e565b6179d27ff0a025fbc7fc8bd2641cb41504f7ea2fded6b2ee6cdb28960ce550b94651ba9460001b61351e565b6179fe7f6781867fbd56a7201247a8fc20ab094152f3d32bd15fb8f44b8020d9befc3ec760001b61351e565b80600c9080519060200190617a14929190617ab2565b50617a417fff15844167e030f2ec730f13116f72fdb6a56443e33804f30acaadd5b6d8f70460001b61351e565b617a6d7ffd3f6012ecf3a440e0e6dc1b61a1f2c71ab5e2273d7029733ad8f1f623ab0c3c60001b61351e565b80604051617a7b9190618542565b60405180910390207f09f579b21815d3f81581d32e97736ccba1cc89d1918e48da28e6e206acd9686460405160405180910390a250565b828054617abe90618d38565b90600052602060002090601f016020900481019282617ae05760008555617b27565b82601f10617af957805160ff1916838001178555617b27565b82800160010185558215617b27579182015b82811115617b26578251825591602001919060010190617b0b565b5b509050617b349190617b38565b5090565b5b80821115617b51576000816000905550600101617b39565b5090565b6000617b68617b6384618a70565b618a4b565b90508083825260208201905082856020860282011115617b8b57617b8a618ed4565b5b60005b85811015617bbb5781617ba18882617c77565b845260208401935060208301925050600181019050617b8e565b5050509392505050565b6000617bd8617bd384618a9c565b618a4b565b90508083825260208201905082856020860282011115617bfb57617bfa618ed4565b5b60005b85811015617c2b5781617c118882617d55565b845260208401935060208301925050600181019050617bfe565b5050509392505050565b6000617c48617c4384618ac8565b618a4b565b905082815260208101848484011115617c6457617c63618ed9565b5b617c6f848285618ccc565b509392505050565b600081359050617c86816196bf565b92915050565b600082601f830112617ca157617ca0618ecf565b5b8135617cb1848260208601617b55565b91505092915050565b600082601f830112617ccf57617cce618ecf565b5b8135617cdf848260208601617bc5565b91505092915050565b600081359050617cf7816196d6565b92915050565b600081519050617d0c816196d6565b92915050565b600081359050617d21816196ed565b92915050565b600082601f830112617d3c57617d3b618ecf565b5b8135617d4c848260208601617c35565b91505092915050565b600081359050617d6481619704565b92915050565b600081519050617d7981619704565b92915050565b600081359050617d8e8161971b565b92915050565b600060208284031215617daa57617da9618ee3565b5b6000617db884828501617c77565b91505092915050565b60008060008060008060008060008060006101608c8e031215617de757617de6618ee3565b5b6000617df58e828f01617c77565b9b50506020617e068e828f01617c77565b9a505060408c013567ffffffffffffffff811115617e2757617e26618ede565b5b617e338e828f01617c8c565b99505060608c013567ffffffffffffffff811115617e5457617e53618ede565b5b617e608e828f01617cba565b9850506080617e718e828f01617d55565b97505060a0617e828e828f01617d55565b96505060c0617e938e828f01617d55565b95505060e0617ea48e828f01617d7f565b945050610100617eb68e828f01617d7f565b935050610120617ec88e828f01617ce8565b925050610140617eda8e828f01617d55565b9150509295989b509295989b9093969950565b60008060408385031215617f0457617f03618ee3565b5b6000617f1285828601617c77565b9250506020617f2385828601617d55565b9150509250929050565b600060208284031215617f4357617f42618ee3565b5b600082013567ffffffffffffffff811115617f6157617f60618ede565b5b617f6d84828501617c8c565b91505092915050565b600060208284031215617f8c57617f8b618ee3565b5b6000617f9a84828501617cfd565b91505092915050565b600060208284031215617fb957617fb8618ee3565b5b6000617fc784828501617d12565b91505092915050565b600060208284031215617fe657617fe5618ee3565b5b600082013567ffffffffffffffff81111561800457618003618ede565b5b61801084828501617d27565b91505092915050565b60006020828403121561802f5761802e618ee3565b5b600061803d84828501617d55565b91505092915050565b60006020828403121561805c5761805b618ee3565b5b600061806a84828501617d6a565b91505092915050565b61807c81618c46565b82525050565b61808b81618c58565b82525050565b600061809c82618af9565b6180a68185618b04565b93506180b6818560208601618cdb565b6180bf81618ee8565b840191505092915050565b60006180d582618af9565b6180df8185618b15565b93506180ef818560208601618cdb565b80840191505092915050565b61810481618ca8565b82525050565b6000618117603483618b20565b915061812282618ef9565b604082019050919050565b600061813a601d83618b20565b915061814582618f48565b602082019050919050565b600061815d602e83618b20565b915061816882618f71565b604082019050919050565b6000618180603083618b20565b915061818b82618fc0565b604082019050919050565b60006181a3602a83618b20565b91506181ae8261900f565b604082019050919050565b60006181c6604283618b20565b91506181d18261905e565b606082019050919050565b60006181e9602b83618b20565b91506181f4826190d3565b604082019050919050565b600061820c602d83618b20565b915061821782619122565b604082019050919050565b600061822f605e83618b20565b915061823a82619171565b606082019050919050565b6000618252603b83618b20565b915061825d826191e6565b604082019050919050565b6000618275601f83618b20565b915061828082619235565b602082019050919050565b6000618298603083618b20565b91506182a38261925e565b604082019050919050565b60006182bb601a83618b20565b91506182c6826192ad565b602082019050919050565b60006182de603d83618b20565b91506182e9826192d6565b604082019050919050565b6000618301602083618b20565b915061830c82619325565b602082019050919050565b6000618324601683618b20565b915061832f8261934e565b602082019050919050565b6000618347601c83618b20565b915061835282619377565b602082019050919050565b600061836a601a83618b20565b9150618375826193a0565b602082019050919050565b600061838d602d83618b20565b9150618398826193c9565b604082019050919050565b60006183b0602283618b20565b91506183bb82619418565b604082019050919050565b60006183d3601a83618b20565b91506183de82619467565b602082019050919050565b60006183f6602783618b20565b915061840182619490565b604082019050919050565b6000618419603283618b20565b9150618424826194df565b604082019050919050565b600061843c602283618b20565b91506184478261952e565b604082019050919050565b600061845f602383618b20565b915061846a8261957d565b604082019050919050565b6000618482601983618b20565b915061848d826195cc565b602082019050919050565b60006184a5601d83618b20565b91506184b0826195f5565b602082019050919050565b60006184c8602483618b20565b91506184d38261961e565b604082019050919050565b60006184eb601b83618b20565b91506184f68261966d565b602082019050919050565b600061850e601983618b20565b915061851982619696565b602082019050919050565b61852d81618c8e565b82525050565b61853c81618c98565b82525050565b600061854e82846180ca565b915081905092915050565b600060208201905061856e6000830184618073565b92915050565b60006060820190506185896000830186618073565b6185966020830185618073565b6185a36040830184618524565b949350505050565b60006040820190506185c06000830185618073565b6185cd6020830184618524565b9392505050565b60006020820190506185e96000830184618082565b92915050565b600060208201905081810360008301526186098184618091565b905092915050565b600060208201905061862660008301846180fb565b92915050565b600060208201905081810360008301526186458161810a565b9050919050565b600060208201905081810360008301526186658161812d565b9050919050565b6000602082019050818103600083015261868581618150565b9050919050565b600060208201905081810360008301526186a581618173565b9050919050565b600060208201905081810360008301526186c581618196565b9050919050565b600060208201905081810360008301526186e5816181b9565b9050919050565b60006020820190508181036000830152618705816181dc565b9050919050565b60006020820190508181036000830152618725816181ff565b9050919050565b6000602082019050818103600083015261874581618222565b9050919050565b6000602082019050818103600083015261876581618245565b9050919050565b6000602082019050818103600083015261878581618268565b9050919050565b600060208201905081810360008301526187a58161828b565b9050919050565b600060208201905081810360008301526187c5816182ae565b9050919050565b600060208201905081810360008301526187e5816182d1565b9050919050565b60006020820190508181036000830152618805816182f4565b9050919050565b6000602082019050818103600083015261882581618317565b9050919050565b600060208201905081810360008301526188458161833a565b9050919050565b600060208201905081810360008301526188658161835d565b9050919050565b6000602082019050818103600083015261888581618380565b9050919050565b600060208201905081810360008301526188a5816183a3565b9050919050565b600060208201905081810360008301526188c5816183c6565b9050919050565b600060208201905081810360008301526188e5816183e9565b9050919050565b600060208201905081810360008301526189058161840c565b9050919050565b600060208201905081810360008301526189258161842f565b9050919050565b6000602082019050818103600083015261894581618452565b9050919050565b6000602082019050818103600083015261896581618475565b9050919050565b6000602082019050818103600083015261898581618498565b9050919050565b600060208201905081810360008301526189a5816184bb565b9050919050565b600060208201905081810360008301526189c5816184de565b9050919050565b600060208201905081810360008301526189e581618501565b9050919050565b6000602082019050618a016000830184618524565b92915050565b6000604082019050618a1c6000830185618524565b618a296020830184618524565b9392505050565b6000602082019050618a456000830184618533565b92915050565b6000618a55618a66565b9050618a618282618d6a565b919050565b6000604051905090565b600067ffffffffffffffff821115618a8b57618a8a618ea0565b5b602082029050602081019050919050565b600067ffffffffffffffff821115618ab757618ab6618ea0565b5b602082029050602081019050919050565b600067ffffffffffffffff821115618ae357618ae2618ea0565b5b618aec82618ee8565b9050602081019050919050565b600081519050919050565b600082825260208201905092915050565b600081905092915050565b600082825260208201905092915050565b6000618b3c82618c8e565b9150618b4783618c8e565b9250827fffffffffffffffffffffffffffffffffffffffffffffffffffffffffffffffff03821115618b7c57618b7b618de4565b5b828201905092915050565b6000618b9282618c8e565b9150618b9d83618c8e565b925082618bad57618bac618e13565b5b828204905092915050565b6000618bc382618c8e565b9150618bce83618c8e565b9250817fffffffffffffffffffffffffffffffffffffffffffffffffffffffffffffffff0483118215151615618c0757618c06618de4565b5b828202905092915050565b6000618c1d82618c8e565b9150618c2883618c8e565b925082821015618c3b57618c3a618de4565b5b828203905092915050565b6000618c5182618c6e565b9050919050565b60008115159050919050565b6000819050919050565b600073ffffffffffffffffffffffffffffffffffffffff82169050919050565b6000819050919050565b600063ffffffff82169050919050565b6000618cb382618cba565b9050919050565b6000618cc582618c6e565b9050919050565b82818337600083830152505050565b60005b83811015618cf9578082015181840152602081019050618cde565b83811115618d08576000848401525b50505050565b6000618d1982618c8e565b91506000821415618d2d57618d2c618de4565b5b600182039050919050565b60006002820490506001821680618d5057607f821691505b60208210811415618d6457618d63618e42565b5b50919050565b618d7382618ee8565b810181811067ffffffffffffffff82111715618d9257618d91618ea0565b5b80604052505050565b6000618da682618c8e565b91507fffffffffffffffffffffffffffffffffffffffffffffffffffffffffffffffff821415618dd957618dd8618de4565b5b600182019050919050565b7f4e487b7100000000000000000000000000000000000000000000000000000000600052601160045260246000fd5b7f4e487b7100000000000000000000000000000000000000000000000000000000600052601260045260246000fd5b7f4e487b7100000000000000000000000000000000000000000000000000000000600052602260045260246000fd5b7f4e487b7100000000000000000000000000000000000000000000000000000000600052603260045260246000fd5b7f4e487b7100000000000000000000000000000000000000000000000000000000600052604160045260246000fd5b600080fd5b600080fd5b600080fd5b600080fd5b600080fd5b6000601f19601f8301169050919050565b7f536565643a2073686f756c64207472616e73666572207365656420746f6b656e60008201527f7320746f20726566756e64207265636569766572000000000000000000000000602082015250565b7f536565643a206d6178696d756d2066756e64696e672072656163686564000000600082015250565b7f536565643a20726571756573742069732067726561746572207468616e20636c60008201527f61696d61626c6520616d6f756e74000000000000000000000000000000000000602082015250565b7f53656564466163746f72793a20686172644361702063616e6e6f74206265206c60008201527f657373207468616e20736f667443617000000000000000000000000000000000602082015250565b7f536565643a20616d6f756e74206578636565647320636f6e747261637420736160008201527f6c65206861726443617000000000000000000000000000000000000000000000602082015250565b7f536565643a20636f6e74726163742073686f756c64206e6f7420626520696e6960008201527f7469616c697a6564206f722063616c6c65722073686f756c642062652061646d60208201527f696e000000000000000000000000000000000000000000000000000000000000604082015250565b7f536565643a2074686520646973747269627574696f6e20686173206e6f74207960008201527f65742066696e6973686564000000000000000000000000000000000000000000602082015250565b7f53656564466163746f72793a2073656564546f6b656e2063616e6e6f7420626560008201527f2066756e64696e67546f6b656e00000000000000000000000000000000000000602082015250565b7f536565643a20726566756e64207365656420746f6b656e73206f6e6c7920776860008201527f656e207365656420646973747269627574696f6e20697320636c6f736564206f60208201527f7220616674657220646973747269627574696f6e20656e642074696d652e0000604082015250565b7f53656564466163746f72793a20656e6454696d652063616e6e6f74206265206c60008201527f657373207468616e20657175616c20746f20737461727454696d650000000000602082015250565b7f536565643a20616d6f756e745665737465645065725365636f6e64203e203000600082015250565b7f536565643a2063616e6e6f742072657475726e2066756e64696e6720746f6b6560008201527f6e7320746f206d73672e73656e64657200000000000000000000000000000000602082015250565b7f536565643a2073656e64657220686173206e6f20726967687473000000000000600082015250565b7f53656564466163746f72793a2076657374696e674475726174696f6e2063616e60008201527f6e6f74206265206c657373207468616e2076657374696e67436c696666000000602082015250565b7f536565643a207365656420746f6b656e207472616e73666572206661696c6564600082015250565b7f536565643a2073686f756c642062652070617573656400000000000000000000600082015250565b7f536565643a2063616c6c65722073686f756c642062652061646d696e00000000600082015250565b7f536565643a2073686f756c64206e6f7420626520636c6f736564000000000000600082015250565b7f536565643a206f6e6c7920616c6c6f77656420647572696e672064697374726960008201527f627574696f6e20706572696f6400000000000000000000000000000000000000602082015250565b7f536565643a20636f6e747261637420616c726561647920696e697469616c697a60008201527f6564000000000000000000000000000000000000000000000000000000000000602082015250565b7f536565643a2073686f756c64206e6f7420626520706175736564000000000000600082015250565b7f536565643a2066756e64696e6720746f6b656e207472616e7366657246726f6d60008201527f206661696c656400000000000000000000000000000000000000000000000000602082015250565b7f536565643a2063616e6e6f7420636c6f7365206166746572206d696e696d756d60008201527f2074617267657420697320726561636865640000000000000000000000000000602082015250565b7f536565643a20646973747269627574696f6e20686176656e277420737461727460008201527f6564000000000000000000000000000000000000000000000000000000000000602082015250565b7f536565643a2073756666696369656e74207365656473206e6f742070726f766960008201527f6465640000000000000000000000000000000000000000000000000000000000602082015250565b7f536565643a206d696e696d756d20616c7265616479206d657400000000000000600082015250565b7f536565643a2073656564206973206e6f742077686974656c6973746564000000600082015250565b7f536565643a206d696e696d756d2066756e64696e6720616d6f756e74206e6f7460008201527f206d657400000000000000000000000000000000000000000000000000000000602082015250565b7f536565643a20616d6f756e7420636c61696d61626c6520697320300000000000600082015250565b7f536565643a207a65726f2066756e64696e6720616d6f756e7400000000000000600082015250565b6196c881618c46565b81146196d357600080fd5b50565b6196df81618c58565b81146196ea57600080fd5b50565b6196f681618c64565b811461970157600080fd5b50565b61970d81618c8e565b811461971857600080fd5b50565b61972481618c98565b811461972f57600080fd5b5056fea26469706673582212205562c4474fa3a42fc7b3dc5fba0021f9b616867b00033d099fe452fbad025d3a64736f6c63430008060033",
  "linkReferences": {},
  "deployedLinkReferences": {}
}