{
  "_format": "hh-sol-artifact-1",
  "contractName": "Seed",
  "sourceName": "contracts/seed/Seed.sol",
  "abi": [
    {
      "anonymous": false,
      "inputs": [
        {
          "indexed": true,
          "internalType": "address",
          "name": "recipient",
          "type": "address"
        },
        {
          "indexed": false,
          "internalType": "uint256",
          "name": "amountReclaimed",
          "type": "uint256"
        }
      ],
      "name": "FundingReclaimed",
      "type": "event"
    },
    {
      "anonymous": false,
      "inputs": [
        {
          "indexed": true,
          "internalType": "bytes",
          "name": "metadata",
          "type": "bytes"
        }
      ],
      "name": "MetadataUpdated",
      "type": "event"
    },
    {
      "anonymous": false,
      "inputs": [
        {
          "indexed": true,
          "internalType": "address",
          "name": "recipient",
          "type": "address"
        },
        {
          "indexed": false,
          "internalType": "uint256",
          "name": "amountPurchased",
          "type": "uint256"
        }
      ],
      "name": "SeedsPurchased",
      "type": "event"
    },
    {
      "anonymous": false,
      "inputs": [
        {
          "indexed": true,
          "internalType": "address",
          "name": "recipient",
          "type": "address"
        },
        {
          "indexed": false,
          "internalType": "uint256",
          "name": "amount",
          "type": "uint256"
        },
        {
          "indexed": true,
          "internalType": "address",
          "name": "beneficiary",
          "type": "address"
        },
        {
          "indexed": false,
          "internalType": "uint256",
          "name": "feeAmount",
          "type": "uint256"
        }
      ],
      "name": "TokensClaimed",
      "type": "event"
    },
    {
      "inputs": [],
      "name": "admin",
      "outputs": [
        {
          "internalType": "address",
          "name": "",
          "type": "address"
        }
      ],
      "stateMutability": "view",
      "type": "function"
    },
    {
      "inputs": [],
      "name": "beneficiary",
      "outputs": [
        {
          "internalType": "address",
          "name": "",
          "type": "address"
        }
      ],
      "stateMutability": "view",
      "type": "function"
    },
    {
      "inputs": [
        {
          "internalType": "uint256",
          "name": "_fundingAmount",
          "type": "uint256"
        }
      ],
      "name": "buy",
      "outputs": [
        {
          "internalType": "uint256",
          "name": "",
          "type": "uint256"
        },
        {
          "internalType": "uint256",
          "name": "",
          "type": "uint256"
        }
      ],
      "stateMutability": "nonpayable",
      "type": "function"
    },
    {
      "inputs": [
        {
          "internalType": "bytes32",
          "name": "c__0xeb5bb505",
          "type": "bytes32"
        }
      ],
      "name": "c_0xeb5bb505",
      "outputs": [],
      "stateMutability": "pure",
      "type": "function"
    },
    {
      "inputs": [
        {
          "internalType": "address",
          "name": "_funder",
          "type": "address"
        }
      ],
      "name": "calculateClaim",
      "outputs": [
        {
          "internalType": "uint256",
          "name": "",
          "type": "uint256"
        }
      ],
      "stateMutability": "view",
      "type": "function"
    },
    {
      "inputs": [
        {
          "internalType": "address",
          "name": "_buyer",
          "type": "address"
        }
      ],
      "name": "checkWhitelisted",
      "outputs": [
        {
          "internalType": "bool",
          "name": "",
          "type": "bool"
        }
      ],
      "stateMutability": "view",
      "type": "function"
    },
    {
      "inputs": [
        {
          "internalType": "address",
          "name": "_funder",
          "type": "address"
        },
        {
          "internalType": "uint256",
          "name": "_claimAmount",
          "type": "uint256"
        }
      ],
      "name": "claim",
      "outputs": [
        {
          "internalType": "uint256",
          "name": "",
          "type": "uint256"
        }
      ],
      "stateMutability": "nonpayable",
      "type": "function"
    },
    {
      "inputs": [],
      "name": "close",
      "outputs": [],
      "stateMutability": "nonpayable",
      "type": "function"
    },
    {
      "inputs": [],
      "name": "closed",
      "outputs": [
        {
          "internalType": "bool",
          "name": "",
          "type": "bool"
        }
      ],
      "stateMutability": "view",
      "type": "function"
    },
    {
      "inputs": [],
      "name": "endTime",
      "outputs": [
        {
          "internalType": "uint256",
          "name": "",
          "type": "uint256"
        }
      ],
      "stateMutability": "view",
      "type": "function"
    },
    {
      "inputs": [],
      "name": "fee",
      "outputs": [
        {
          "internalType": "uint8",
          "name": "",
          "type": "uint8"
        }
      ],
      "stateMutability": "view",
      "type": "function"
    },
    {
      "inputs": [],
      "name": "feeAmountRequired",
      "outputs": [
        {
          "internalType": "uint256",
          "name": "",
          "type": "uint256"
        }
      ],
      "stateMutability": "view",
      "type": "function"
    },
    {
      "inputs": [],
      "name": "feeClaimed",
      "outputs": [
        {
          "internalType": "uint256",
          "name": "",
          "type": "uint256"
        }
      ],
      "stateMutability": "view",
      "type": "function"
    },
    {
      "inputs": [],
      "name": "feeRemainder",
      "outputs": [
        {
          "internalType": "uint256",
          "name": "",
          "type": "uint256"
        }
      ],
      "stateMutability": "view",
      "type": "function"
    },
    {
      "inputs": [
        {
          "internalType": "address",
          "name": "",
          "type": "address"
        }
      ],
      "name": "funders",
      "outputs": [
        {
          "internalType": "uint256",
          "name": "seedAmount",
          "type": "uint256"
        },
        {
          "internalType": "uint256",
          "name": "totalClaimed",
          "type": "uint256"
        },
        {
          "internalType": "uint256",
          "name": "fundingAmount",
          "type": "uint256"
        },
        {
          "internalType": "uint256",
          "name": "fee",
          "type": "uint256"
        },
        {
          "internalType": "uint256",
          "name": "feeClaimed",
          "type": "uint256"
        }
      ],
      "stateMutability": "view",
      "type": "function"
    },
    {
      "inputs": [],
      "name": "fundingCollected",
      "outputs": [
        {
          "internalType": "uint256",
          "name": "",
          "type": "uint256"
        }
      ],
      "stateMutability": "view",
      "type": "function"
    },
    {
      "inputs": [],
      "name": "fundingToken",
      "outputs": [
        {
          "internalType": "contract IERC20",
          "name": "",
          "type": "address"
        }
      ],
      "stateMutability": "view",
      "type": "function"
    },
    {
      "inputs": [],
      "name": "fundingWithdrawn",
      "outputs": [
        {
          "internalType": "uint256",
          "name": "",
          "type": "uint256"
        }
      ],
      "stateMutability": "view",
      "type": "function"
    },
    {
      "inputs": [],
      "name": "hardCap",
      "outputs": [
        {
          "internalType": "uint256",
          "name": "",
          "type": "uint256"
        }
      ],
      "stateMutability": "view",
      "type": "function"
    },
    {
      "inputs": [
        {
          "internalType": "address",
          "name": "_beneficiary",
          "type": "address"
        },
        {
          "internalType": "address",
          "name": "_admin",
          "type": "address"
        },
        {
          "internalType": "address[]",
          "name": "_tokens",
          "type": "address[]"
        },
        {
          "internalType": "uint256[]",
          "name": "_softHardThresholds",
          "type": "uint256[]"
        },
        {
          "internalType": "uint256",
          "name": "_price",
          "type": "uint256"
        },
        {
          "internalType": "uint256",
          "name": "_startTime",
          "type": "uint256"
        },
        {
          "internalType": "uint256",
          "name": "_endTime",
          "type": "uint256"
        },
        {
          "internalType": "uint32",
          "name": "_vestingDuration",
          "type": "uint32"
        },
        {
          "internalType": "uint32",
          "name": "_vestingCliff",
          "type": "uint32"
        },
        {
          "internalType": "bool",
          "name": "_permissionedSeed",
          "type": "bool"
        },
        {
          "internalType": "uint8",
          "name": "_fee",
          "type": "uint8"
        }
      ],
      "name": "initialize",
      "outputs": [],
      "stateMutability": "nonpayable",
      "type": "function"
    },
    {
      "inputs": [],
      "name": "initialized",
      "outputs": [
        {
          "internalType": "bool",
          "name": "",
          "type": "bool"
        }
      ],
      "stateMutability": "view",
      "type": "function"
    },
    {
      "inputs": [],
      "name": "isFunded",
      "outputs": [
        {
          "internalType": "bool",
          "name": "",
          "type": "bool"
        }
      ],
      "stateMutability": "view",
      "type": "function"
    },
    {
      "inputs": [],
      "name": "maximumReached",
      "outputs": [
        {
          "internalType": "bool",
          "name": "",
          "type": "bool"
        }
      ],
      "stateMutability": "view",
      "type": "function"
    },
    {
      "inputs": [],
      "name": "metadata",
      "outputs": [
        {
          "internalType": "bytes",
          "name": "",
          "type": "bytes"
        }
      ],
      "stateMutability": "view",
      "type": "function"
    },
    {
      "inputs": [],
      "name": "minimumReached",
      "outputs": [
        {
          "internalType": "bool",
          "name": "",
          "type": "bool"
        }
      ],
      "stateMutability": "view",
      "type": "function"
    },
    {
      "inputs": [],
      "name": "pause",
      "outputs": [],
      "stateMutability": "nonpayable",
      "type": "function"
    },
    {
      "inputs": [],
      "name": "paused",
      "outputs": [
        {
          "internalType": "bool",
          "name": "",
          "type": "bool"
        }
      ],
      "stateMutability": "view",
      "type": "function"
    },
    {
      "inputs": [],
      "name": "permissionedSeed",
      "outputs": [
        {
          "internalType": "bool",
          "name": "",
          "type": "bool"
        }
      ],
      "stateMutability": "view",
      "type": "function"
    },
    {
      "inputs": [],
      "name": "price",
      "outputs": [
        {
          "internalType": "uint256",
          "name": "",
          "type": "uint256"
        }
      ],
      "stateMutability": "view",
      "type": "function"
    },
    {
      "inputs": [],
      "name": "retrieveFundingTokens",
      "outputs": [
        {
          "internalType": "uint256",
          "name": "",
          "type": "uint256"
        }
      ],
      "stateMutability": "nonpayable",
      "type": "function"
    },
    {
      "inputs": [],
      "name": "seedAmountRequired",
      "outputs": [
        {
          "internalType": "uint256",
          "name": "",
          "type": "uint256"
        }
      ],
      "stateMutability": "view",
      "type": "function"
    },
    {
      "inputs": [],
      "name": "seedClaimed",
      "outputs": [
        {
          "internalType": "uint256",
          "name": "",
          "type": "uint256"
        }
      ],
      "stateMutability": "view",
      "type": "function"
    },
    {
      "inputs": [],
      "name": "seedRemainder",
      "outputs": [
        {
          "internalType": "uint256",
          "name": "",
          "type": "uint256"
        }
      ],
      "stateMutability": "view",
      "type": "function"
    },
    {
      "inputs": [],
      "name": "seedToken",
      "outputs": [
        {
          "internalType": "contract IERC20",
          "name": "",
          "type": "address"
        }
      ],
      "stateMutability": "view",
      "type": "function"
    },
    {
      "inputs": [],
      "name": "softCap",
      "outputs": [
        {
          "internalType": "uint256",
          "name": "",
          "type": "uint256"
        }
      ],
      "stateMutability": "view",
      "type": "function"
    },
    {
      "inputs": [],
      "name": "startTime",
      "outputs": [
        {
          "internalType": "uint256",
          "name": "",
          "type": "uint256"
        }
      ],
      "stateMutability": "view",
      "type": "function"
    },
    {
      "inputs": [],
      "name": "totalFunderCount",
      "outputs": [
        {
          "internalType": "uint256",
          "name": "",
          "type": "uint256"
        }
      ],
      "stateMutability": "view",
      "type": "function"
    },
    {
      "inputs": [],
      "name": "unpause",
      "outputs": [],
      "stateMutability": "nonpayable",
      "type": "function"
    },
    {
      "inputs": [
        {
          "internalType": "address",
          "name": "buyer",
          "type": "address"
        }
      ],
      "name": "unwhitelist",
      "outputs": [],
      "stateMutability": "nonpayable",
      "type": "function"
    },
    {
      "inputs": [
        {
          "internalType": "bytes",
          "name": "_metadata",
          "type": "bytes"
        }
      ],
      "name": "updateMetadata",
      "outputs": [],
      "stateMutability": "nonpayable",
      "type": "function"
    },
    {
      "inputs": [],
      "name": "vestingCliff",
      "outputs": [
        {
          "internalType": "uint32",
          "name": "",
          "type": "uint32"
        }
      ],
      "stateMutability": "view",
      "type": "function"
    },
    {
      "inputs": [],
      "name": "vestingDuration",
      "outputs": [
        {
          "internalType": "uint32",
          "name": "",
          "type": "uint32"
        }
      ],
      "stateMutability": "view",
      "type": "function"
    },
    {
      "inputs": [],
      "name": "vestingStartTime",
      "outputs": [
        {
          "internalType": "uint256",
          "name": "",
          "type": "uint256"
        }
      ],
      "stateMutability": "view",
      "type": "function"
    },
    {
      "inputs": [
        {
          "internalType": "address",
          "name": "_buyer",
          "type": "address"
        }
      ],
      "name": "whitelist",
      "outputs": [],
      "stateMutability": "nonpayable",
      "type": "function"
    },
    {
      "inputs": [
        {
          "internalType": "address[]",
          "name": "_buyers",
          "type": "address[]"
        }
      ],
      "name": "whitelistBatch",
      "outputs": [],
      "stateMutability": "nonpayable",
      "type": "function"
    },
    {
      "inputs": [
        {
          "internalType": "address",
          "name": "",
          "type": "address"
        }
      ],
      "name": "whitelisted",
      "outputs": [
        {
          "internalType": "bool",
          "name": "",
          "type": "bool"
        }
      ],
      "stateMutability": "view",
      "type": "function"
    },
    {
      "inputs": [],
      "name": "withdraw",
      "outputs": [],
      "stateMutability": "nonpayable",
      "type": "function"
    }
  ],
  "bytecode": "0x60806040523480156200001157600080fd5b506196e880620000226000396000f3fe608060405234801561001057600080fd5b50600436106102955760003560e01c80637c65430311610167578063d8039364116100ce578063ea34554011610087578063ea3455401461076f578063eaa535231461079f578063f3640e74146107bb578063f851a440146107d9578063fb86a404146107f7578063fc582d411461081557610295565b8063d803936414610698578063d936547e146106b4578063d96a094a146106e4578063ddca3f4314610715578063e565eb4c14610733578063e6e36ebb1461075157610295565b80639b19251a116101205780639b19251a146105d4578063a035b1fe146105f0578063a8660a781461060e578063aad3ec961461062c578063b774682f1461065c578063bc0f5f841461067a57610295565b80637c6543031461053657806383d59e00146105545780638456cb59146105725780638a2448aa1461057c578063906a26e01461059a5780639a590427146105b857610295565b80633ccfd60b1161020b5780635c975abb116101c45780635c975abb146104845780635e9777e8146104a257806371f4b8e8146104c057806372b15126146104de57806378065f27146104fa57806378e979251461051857610295565b80633ccfd60b1461040c5780633dba9e41146104165780633f4ba83a1461043457806343d726d61461043e57806347d02f1b14610448578063597e1fb51461046657610295565b80631cfe562e1161025d5780631cfe562e1461034657806320d8dad014610364578063311f8483146103945780633197cbb6146103b257806338af3eed146103d0578063392f37e9146103ee57610295565b8063031b36771461029a5780630826d2c7146102ce578063117a36d1146102ec5780631514617e1461030a578063158ef93e14610328575b600080fd5b6102b460048036038101906102af9190617dd1565b610831565b6040516102c5959493929190618a05565b60405180910390f35b6102d6610867565b6040516102e391906189c1565b60405180910390f35b6102f461086d565b60405161030191906185c9565b60405180910390f35b610312610880565b60405161031f9190618a58565b60405180910390f35b610330610896565b60405161033d91906185c9565b60405180910390f35b61034e6108a9565b60405161035b91906189c1565b60405180910390f35b61037e60048036038101906103799190617dd1565b6108af565b60405161038b91906185c9565b60405180910390f35b61039c610989565b6040516103a99190618606565b60405180910390f35b6103ba6109ad565b6040516103c791906189c1565b60405180910390f35b6103d86109b3565b6040516103e5919061854e565b60405180910390f35b6103f66109d7565b60405161040391906185e4565b60405180910390f35b610414610a65565b005b61041e611058565b60405161042b91906185c9565b60405180910390f35b61043c61106b565b005b6104466114b1565b005b610450611eeb565b60405161045d91906189c1565b60405180910390f35b61046e611ef1565b60405161047b91906185c9565b60405180910390f35b61048c611f04565b60405161049991906185c9565b60405180910390f35b6104aa611f17565b6040516104b791906189c1565b60405180910390f35b6104c8611f1d565b6040516104d591906189c1565b60405180910390f35b6104f860048036038101906104f39190617fc0565b611f23565b005b610502611f26565b60405161050f9190618606565b60405180910390f35b610520611f4c565b60405161052d91906189c1565b60405180910390f35b61053e611f52565b60405161054b91906185c9565b60405180910390f35b61055c611f65565b60405161056991906189c1565b60405180910390f35b61057a611f6b565b005b6105846123fc565b60405161059191906189c1565b60405180910390f35b6105a2612ecd565b6040516105af91906189c1565b60405180910390f35b6105d260048036038101906105cd9190617dd1565b612ed3565b005b6105ee60048036038101906105e99190617dd1565b613350565b005b6105f86137cd565b60405161060591906189c1565b60405180910390f35b6106166137d3565b60405161062391906189c1565b60405180910390f35b61064660048036038101906106419190617f1a565b6137d9565b60405161065391906189c1565b60405180910390f35b610664614490565b60405161067191906189c1565b60405180910390f35b610682614496565b60405161068f91906189c1565b60405180910390f35b6106b260048036038101906106ad9190617dfa565b61449c565b005b6106ce60048036038101906106c99190617dd1565b6154dc565b6040516106db91906185c9565b60405180910390f35b6106fe60048036038101906106f9919061802a565b6154fc565b60405161070c9291906189dc565b60405180910390f35b61071d61697a565b60405161072a9190618a73565b60405180910390f35b61073b61698d565b60405161074891906185c9565b60405180910390f35b6107596169a0565b60405161076691906189c1565b60405180910390f35b61078960048036038101906107849190617dd1565b6169a6565b60405161079691906189c1565b60405180910390f35b6107b960048036038101906107b49190617f56565b616f6d565b005b6107c36174a2565b6040516107d09190618a58565b60405180910390f35b6107e16174b8565b6040516107ee919061854e565b60405180910390f35b6107ff6174de565b60405161080c91906189c1565b60405180910390f35b61082f600480360381019061082a9190617fe9565b6174e4565b005b60166020528060005260406000206000915090508060000154908060010154908060020154908060030154908060040154905085565b600f5481565b600c60059054906101000a900460ff1681565b600960019054906101000a900463ffffffff1681565b600c60039054906101000a900460ff1681565b60135481565b60006108dd7f20c81b14dc972dd3950a56e0d32f9538c47fe523a7983eea9d39962dc63e050a60001b611f23565b6109097f9f95fd73a21913a57640c97f35016efa39acbd8eef72783e496d9d7ce1279a9860001b611f23565b6109357fece8f633f597d89963669c7d7885f96aca81ddf4df5b3b154de380d2120a51be60001b611f23565b601560008373ffffffffffffffffffffffffffffffffffffffff1673ffffffffffffffffffffffffffffffffffffffff16815260200190815260200160002060009054906101000a900460ff169050919050565b60098054906101000a900473ffffffffffffffffffffffffffffffffffffffff1681565b60085481565b60008054906101000a900473ffffffffffffffffffffffffffffffffffffffff1681565b600b80546109e490618d5e565b80601f0160208091040260200160405190810160405280929190818152602001828054610a1090618d5e565b8015610a5d5780601f10610a3257610100808354040283529160200191610a5d565b820191906000526020600020905b815481529060010190602001808311610a4057829003601f168201915b505050505081565b610a917f895d9b7d2339e42bd8c2c2cf34bf61dee12f5bc3a94a33f72c4ee2ef88b3c08960001b611f23565b610abd7ff49158ca7355c4e38bd54d737569c2a079541c4e8a323cd12bdb477ce1f3654f60001b611f23565b610ae97fd6b66d60e5511f09b2bd1851d26f91c94202caa72cd50a3bf3b84e1e7820e5bf60001b611f23565b610b157ffc91837a84c5380f0b3036e878b01787365fe95a2b93249b8dee1f3125d9c0ee60001b611f23565b600160009054906101000a900473ffffffffffffffffffffffffffffffffffffffff1673ffffffffffffffffffffffffffffffffffffffff163373ffffffffffffffffffffffffffffffffffffffff1614610ba5576040517f08c379a0000000000000000000000000000000000000000000000000000000008152600401610b9c90618801565b60405180910390fd5b610bd17f97244c4f1c9c19c72c53eaab35f18f4a1ba92e97d2cf8f8335ab7c6d8ba292d460001b611f23565b610bfd7f429990eb55a9dc690eee4b496803e1d8e281693ae5c0e9f9d9c50891cff4614f60001b611f23565b610c297f0696025bafb3a0cb3bc10995267c4ef10e2650aecb384d5895f4d16d434c0d9860001b611f23565b610c557f5464d721ced5d29525d9995a7ccc44ae6fed8620a72a8695fca58bb05cfac89560001b611f23565b610c817f6d8c2566fbb39fd74397269ef28013ffdbf255f703f8db639caece8b43e660eb60001b611f23565b610cad7f34cc6bbd6d9e33f09e9be9af2b801ccefe7913fafd5f3da9d74356f33bd7b82a60001b611f23565b600c60019054906101000a900460ff1615610cfd576040517f08c379a0000000000000000000000000000000000000000000000000000000008152600401610cf4906188a1565b60405180910390fd5b610d297f2261fda31ba5fe4e44a308f6323744bb1ebf84e61e3c27cf3de9061ba744b2c960001b611f23565b610d557feda4f0c2520ba6f37db5f65581d7b8199dfaa44e667bcecd3f1a943855fc329660001b611f23565b610d817ffdbfa09ef104002ebfd19d2375c11a1e417a35edf61360ced8c9416d4dfea04a60001b611f23565b610dad7f5e28c6182e46366af933d4c4c224a36d9dc0acc9003d4854a7f457834015bffc60001b611f23565b600c60049054906101000a900460ff16610dfc576040517f08c379a0000000000000000000000000000000000000000000000000000000008152600401610df390618961565b60405180910390fd5b610e287f709e8263cb50ecf88678ba4506f01172f4f4e2051048d4bcbef66aaa15dae40860001b611f23565b610e547f819ec9b5f89cd6fbcd515cd9c47244c8f1f4dc992d43742dc01e3f9bd34208b960001b611f23565b610e807f85484661c7b436edc477517871b987a656755fac7edbaa9709644f4c41beeee060001b611f23565b610eac7f1e0293f4bb1bdc164beeb30e93f172a9ae49540df058fd88b73a2eddbded12e460001b611f23565b610ed87f3402a6702c087240b8a19e4647ef8fd76c74d9f70cb4d8e7f37a79365a9e934260001b611f23565b6000601454601354610eea9190618c55565b9050610f187f22ee405cd2c77de261e8bfd5e2decba8f6ea86da33cdeaaa5657058533ef573760001b611f23565b610f447f7614003881b67b7d98d85f2ea0a8c2cf999442d48523eb7ab97a6df09e0001f660001b611f23565b601354601481905550610f797f32283d9f5a820c7af8e25177b9772aac0af601be729a817a92f3d43ae93542dd60001b611f23565b610fa57f1ad81547f6169dcd29580a6c85dda07c5b7f2d0b095a0894dedb37cd85a5c89660001b611f23565b600a60009054906101000a900473ffffffffffffffffffffffffffffffffffffffff1673ffffffffffffffffffffffffffffffffffffffff1663a9059cbb33836040518363ffffffff1660e01b81526004016110029291906185a0565b602060405180830381600087803b15801561101c57600080fd5b505af1158015611030573d6000803e3d6000fd5b505050506040513d601f19601f820116820180604052508101906110549190617f97565b5050565b600960009054906101000a900460ff1681565b6110977f895d9b7d2339e42bd8c2c2cf34bf61dee12f5bc3a94a33f72c4ee2ef88b3c08960001b611f23565b6110c37ff49158ca7355c4e38bd54d737569c2a079541c4e8a323cd12bdb477ce1f3654f60001b611f23565b6110ef7fd6b66d60e5511f09b2bd1851d26f91c94202caa72cd50a3bf3b84e1e7820e5bf60001b611f23565b61111b7ffc91837a84c5380f0b3036e878b01787365fe95a2b93249b8dee1f3125d9c0ee60001b611f23565b600160009054906101000a900473ffffffffffffffffffffffffffffffffffffffff1673ffffffffffffffffffffffffffffffffffffffff163373ffffffffffffffffffffffffffffffffffffffff16146111ab576040517f08c379a00000000000000000000000000000000000000000000000000000000081526004016111a290618801565b60405180910390fd5b6111d77f97244c4f1c9c19c72c53eaab35f18f4a1ba92e97d2cf8f8335ab7c6d8ba292d460001b611f23565b6112037f429990eb55a9dc690eee4b496803e1d8e281693ae5c0e9f9d9c50891cff4614f60001b611f23565b61122f7fd87197cdd9c56840d44507a90978555eabb0424d0473faff35fc117550fea60b60001b611f23565b61125b7f88d83fc26ca3b90a79e0085361cb2c88f84e3515ed1ae4f344f0e2311c59990c60001b611f23565b6112877f5aec6636ff0a3c8ba9ee42b1e7773796ad78ccc4483b389391bde6ccfa69081860001b611f23565b6112b37f03ea1d93575150d4b4131b7bef4521e3f04f02d569388e6f90bbd7356f2890f560001b611f23565b60011515600c60009054906101000a900460ff161515141561130a576040517f08c379a000000000000000000000000000000000000000000000000000000000815260040161130190618821565b60405180910390fd5b6113367fb02eb36d6050b172d8cec04c49f2ba383e0a1f7ad93cf6aaf54013e8dc6df4ec60001b611f23565b6113627f2d584f447db2f833b9bd0c49fc885ad279939e950a509597a47b9fac504b7f1360001b611f23565b61138e7f8d2a6bc3066a24dcb8180b7378ec9e913156afac2d6b247c9d1cc7b89a653da760001b611f23565b6113ba7f1b886a4c7c09047aa39ddc12086f5a0722725491a494c0808c1938accd76a3c960001b611f23565b60011515600c60019054906101000a900460ff16151514611410576040517f08c379a0000000000000000000000000000000000000000000000000000000008152600401611407906187c1565b60405180910390fd5b61143c7fa434685c4f18ab9adf2f3509b3a2c3557c4471032003393efebf5b61791dd92260001b611f23565b6114687f984fb97633314949c8889773dc6ba409e4e2a07a38aeb365e2bd628d627e4a1b60001b611f23565b6114947fd5f37e876f34d862cef2242578a7f43044fd17f47d5294a617d49dc63d8cdaa260001b611f23565b6000600c60016101000a81548160ff021916908315150217905550565b6114dd7f895d9b7d2339e42bd8c2c2cf34bf61dee12f5bc3a94a33f72c4ee2ef88b3c08960001b611f23565b6115097ff49158ca7355c4e38bd54d737569c2a079541c4e8a323cd12bdb477ce1f3654f60001b611f23565b6115357fd6b66d60e5511f09b2bd1851d26f91c94202caa72cd50a3bf3b84e1e7820e5bf60001b611f23565b6115617ffc91837a84c5380f0b3036e878b01787365fe95a2b93249b8dee1f3125d9c0ee60001b611f23565b600160009054906101000a900473ffffffffffffffffffffffffffffffffffffffff1673ffffffffffffffffffffffffffffffffffffffff163373ffffffffffffffffffffffffffffffffffffffff16146115f1576040517f08c379a00000000000000000000000000000000000000000000000000000000081526004016115e890618801565b60405180910390fd5b61161d7f97244c4f1c9c19c72c53eaab35f18f4a1ba92e97d2cf8f8335ab7c6d8ba292d460001b611f23565b6116497f429990eb55a9dc690eee4b496803e1d8e281693ae5c0e9f9d9c50891cff4614f60001b611f23565b6116757fa75903bd2a43d17666f6d035e132c9f7b23615e29c271cd3ce87780ce03365fb60001b611f23565b6116a17f3efc56dd87322cabdcf21743875e2538c0c871adb0c3837290afee95fd0a2c4960001b611f23565b6116cd7fd9031e27a77fd955dc9f6c9b5af7f674c9f2cf41813cb749d35fee5119725d7f60001b611f23565b6116f97fe4f6391a5076f6d617286aee2fee4d55194543fe9d2e619c00c0fa6c9006ef3b60001b611f23565b600c60009054906101000a900460ff1615611749576040517f08c379a000000000000000000000000000000000000000000000000000000000815260040161174090618821565b60405180910390fd5b6117757f42f8ed4455837f0de99ccc31297cad16cd2404e41c3014c330eacfb2b7c651f660001b611f23565b6117a17f43d0ab43fb808a6097b1fe6f150be63388bed595c6321e04bce97ee2cc3a8c1260001b611f23565b6117cd7fb0fe1f52deb5f394c792fb14d4811afec26d23af8eb67ae85a0f2656ce79673060001b611f23565b6117f97f98c22615f03bffdcde50240d976aca1f29e7b79b073aee4743a44c237541586560001b611f23565b600c60019054906101000a900460ff1615611849576040517f08c379a0000000000000000000000000000000000000000000000000000000008152600401611840906188a1565b60405180910390fd5b6118757ffbe833dbc07901eddbcf9abc59ae9615b8ba1ed66d9de5ccd3bc69288cc882e660001b611f23565b6118a17ff75c0a84f234aac5976b464f9b42d8069f02d61b88daf6804eb03a32b4cf887d60001b611f23565b6118cd7faa67ffb5d6049771e57c78f850a71d20208daf4c70026d08b5646c393e97dfcf60001b611f23565b6118f97ffe6e011714472fe9e19b38fa264f6fd2abd98323a2b79c56bdedb8b17bd11be160001b611f23565b6119257f2e797d6b3488b32bf7f09475ad526668f442ffd80aa8def6f88e6ec06d0324e060001b611f23565b600c60049054906101000a900460ff1615611c09576119667f361530e17d3f6dc261f8c626dad79ace1b5241c0a4387d0a5af21bf52000ec6560001b611f23565b6119927f785e47f53121ebcc6cb50e3d8e22622b26a68b7f0166c82b17168e3b865587d160001b611f23565b6119be7f7481d99bb4e15d0c760990d3df4b6babf8d251eeed132f5bb084bb393857fffe60001b611f23565b6000601154600f546119d09190618b74565b90506119fe7f7af67dc31adb3a636aeeb8ebe1ed53145a394b180ef25b0ddf15eb9ba9b9fcff60001b611f23565b611a2a7fbf6dbda1015837d93177d2227027f135e9464f5d0c012f18e160ad55be6feeef60001b611f23565b611a567f65f5fe01ad3dc2fa8354183ab987591578fc37cb853d4f03a784c5654facb2a460001b611f23565b60098054906101000a900473ffffffffffffffffffffffffffffffffffffffff1673ffffffffffffffffffffffffffffffffffffffff1663a9059cbb600160009054906101000a900473ffffffffffffffffffffffffffffffffffffffff16836040518363ffffffff1660e01b8152600401611ad39291906185a0565b602060405180830381600087803b158015611aed57600080fd5b505af1158015611b01573d6000803e3d6000fd5b505050506040513d601f19601f82011682018060405250810190611b259190617f97565b611b64576040517f08c379a0000000000000000000000000000000000000000000000000000000008152600401611b5b90618861565b60405180910390fd5b611b907fd73fdfd3a5da1e3222a227ca73118df64b4151f6390359346ab39e2451fc243060001b611f23565b611bbc7fb2f278f3a47c8a231a1847d0ef9ac4bc9ae7a1b991355f83d20e1142c01c1db860001b611f23565b611be87f64b2dc3f0938dc796826800c1b0cd5c5feb6090ce26a358a6eb11314d20b6cd960001b611f23565b6000600c60016101000a81548160ff02191690831515021790555050611ee9565b611c357f6d0bd96702c0de8ca7afb2a18bfbf973fc3b2655535e04b35a162940115ed04160001b611f23565b611c617f28512c6858f37bfaf9b0d00577678f95aeee5c5001b8714875e85c0ea9c2300460001b611f23565b611c8d7f8b523186e68b511f52d4a8a89e2712d6d32e58df644e3b1ea28a20a9e5df9a5d60001b611f23565b611cb97fe57d6ac2946e7f033599e37c78bed6b40929119039274a377288cb28f0e7660b60001b611f23565b60098054906101000a900473ffffffffffffffffffffffffffffffffffffffff1673ffffffffffffffffffffffffffffffffffffffff1663a9059cbb600160009054906101000a900473ffffffffffffffffffffffffffffffffffffffff16600554600454611d289190618b74565b6040518363ffffffff1660e01b8152600401611d459291906185a0565b602060405180830381600087803b158015611d5f57600080fd5b505af1158015611d73573d6000803e3d6000fd5b505050506040513d601f19601f82011682018060405250810190611d979190617f97565b611dd6576040517f08c379a0000000000000000000000000000000000000000000000000000000008152600401611dcd90618861565b60405180910390fd5b611e027f0f8ebb4dd42e5b0d79074f93a468303c70c9a5acfbb00cd41d7f8697a8602ff060001b611f23565b611e2e7f8026ac16c4ec66df0d1a461f12a01a1151a01f1c637529f449f094898ce2e12760001b611f23565b611e5a7f2fa066b6a581d7ebba8dec7e064e0df669587730c0ed87a82e29d4a42329a0f860001b611f23565b6001600c60006101000a81548160ff021916908315150217905550611ea17fd68622a1d429fd173c8d7e4c0c583e8b0e3fb051a4cac504630514ba3148cead60001b611f23565b611ecd7fe309015e869618291127113786d57e67c5057f8eef0a73e79a4e9efb4560047160001b611f23565b6000600c60016101000a81548160ff0219169083151502179055505b565b60105481565b600c60009054906101000a900460ff1681565b600c60019054906101000a900460ff1681565b600e5481565b60125481565b50565b600a60009054906101000a900473ffffffffffffffffffffffffffffffffffffffff1681565b60075481565b600c60029054906101000a900460ff1681565b60145481565b611f977f895d9b7d2339e42bd8c2c2cf34bf61dee12f5bc3a94a33f72c4ee2ef88b3c08960001b611f23565b611fc37ff49158ca7355c4e38bd54d737569c2a079541c4e8a323cd12bdb477ce1f3654f60001b611f23565b611fef7fd6b66d60e5511f09b2bd1851d26f91c94202caa72cd50a3bf3b84e1e7820e5bf60001b611f23565b61201b7ffc91837a84c5380f0b3036e878b01787365fe95a2b93249b8dee1f3125d9c0ee60001b611f23565b600160009054906101000a900473ffffffffffffffffffffffffffffffffffffffff1673ffffffffffffffffffffffffffffffffffffffff163373ffffffffffffffffffffffffffffffffffffffff16146120ab576040517f08c379a00000000000000000000000000000000000000000000000000000000081526004016120a290618801565b60405180910390fd5b6120d77f97244c4f1c9c19c72c53eaab35f18f4a1ba92e97d2cf8f8335ab7c6d8ba292d460001b611f23565b6121037f429990eb55a9dc690eee4b496803e1d8e281693ae5c0e9f9d9c50891cff4614f60001b611f23565b61212f7fa75903bd2a43d17666f6d035e132c9f7b23615e29c271cd3ce87780ce03365fb60001b611f23565b61215b7f3efc56dd87322cabdcf21743875e2538c0c871adb0c3837290afee95fd0a2c4960001b611f23565b6121877fd9031e27a77fd955dc9f6c9b5af7f674c9f2cf41813cb749d35fee5119725d7f60001b611f23565b6121b37fe4f6391a5076f6d617286aee2fee4d55194543fe9d2e619c00c0fa6c9006ef3b60001b611f23565b600c60009054906101000a900460ff1615612203576040517f08c379a00000000000000000000000000000000000000000000000000000000081526004016121fa90618821565b60405180910390fd5b61222f7f42f8ed4455837f0de99ccc31297cad16cd2404e41c3014c330eacfb2b7c651f660001b611f23565b61225b7f43d0ab43fb808a6097b1fe6f150be63388bed595c6321e04bce97ee2cc3a8c1260001b611f23565b6122877fb0fe1f52deb5f394c792fb14d4811afec26d23af8eb67ae85a0f2656ce79673060001b611f23565b6122b37f98c22615f03bffdcde50240d976aca1f29e7b79b073aee4743a44c237541586560001b611f23565b600c60019054906101000a900460ff1615612303576040517f08c379a00000000000000000000000000000000000000000000000000000000081526004016122fa906188a1565b60405180910390fd5b61232f7ffbe833dbc07901eddbcf9abc59ae9615b8ba1ed66d9de5ccd3bc69288cc882e660001b611f23565b61235b7ff75c0a84f234aac5976b464f9b42d8069f02d61b88daf6804eb03a32b4cf887d60001b611f23565b6123877f8977be5789ee20d7a40f18013aa8a5e42b9684ba6b3d6aee0454e5997579fa3a60001b611f23565b6123b37fa509ff751656ee37cdd05eb6f236bf05680b0b5ce8472f7b2ab209518bf18d4d60001b611f23565b6123df7fc956bab1b2e2cb81be35991496d6415c62b32099c2731698771ebec0be308b5c60001b611f23565b6001600c60016101000a81548160ff021916908315150217905550565b600061242a7f1c20a0070d2c80b71341f1e18d75d422e9df8aa08f6bf21346285ea162526f3d60001b611f23565b6124567f18686f00eda3982cfd7e2b4168729628846f2a10b2b601887b98d3c3d348d1e460001b611f23565b6124827f91c43d21bb1e7bdfa9857465243682bf2cf919c886b6b16fa1b36f571d29d29560001b611f23565b6124ae7f63786270f9804b0ed00ffb0119a0362d4d86ee7eb70722b8ec279af153e7ad2460001b611f23565b600c60019054906101000a900460ff16156124fe576040517f08c379a00000000000000000000000000000000000000000000000000000000081526004016124f5906188a1565b60405180910390fd5b61252a7fb99ec12a7a1bbe693ee38ef5a23f5e95989079023f3f31ff2150fbd978982e5f60001b611f23565b6125567f196f7f69643d697801c421d6b56d55e5717048c995b5d5b7b09364d65aebb5f160001b611f23565b6125827f46cddb3e98fca80d3788fdd85316d77ba0f58b09de63393adaa5fa6ab8eac66e60001b611f23565b6125ae7fefe8550df58eaae13a53ad5e19ffaa4507d59f94bc0264ab75648b7c04a0d70460001b611f23565b4260075411156125f3576040517f08c379a00000000000000000000000000000000000000000000000000000000081526004016125ea906188e1565b60405180910390fd5b61261f7f841b6eab91c0b5dfe949cd725730a51a874244d3e45a767bf0a3095cfaab481a60001b611f23565b61264b7f2a8275781a4cb981be43b3760439f0c492ae913b4234992df396f8fef3dfb48d60001b611f23565b6126777f5b39a8f1a65eda3c5656169ba467961e27f3ca1306850de16ba85cdc695352c560001b611f23565b6126a37faabfbf0d4b45a6153eb36ec5af7d70ac6304d7151d9bdb1270ab5b1c79cd9a7f60001b611f23565b600c60049054906101000a900460ff16156126f3576040517f08c379a00000000000000000000000000000000000000000000000000000000081526004016126ea90618921565b60405180910390fd5b61271f7f34486bb82fb8f3dcb464ca38939f369559f81084407608a60733572e35e2bd8760001b611f23565b61274b7f53ca100b175a98c48e3a5baf25e4310ef143aaced3461e83010721dd1e30adae60001b611f23565b6127777f46d3e65632d06108ed441aa3841ab1c2d7e4ace4b46bcccf5338db10911c0f1060001b611f23565b6127a37faf52d925c0d90bff0228b3cf9f009414b3f038d7be11cba851477b96fc5f05a260001b611f23565b6127cf7f84c98409bac4b477241da65beb16b3dfd2aeec63da618bdc4a4e2c47a641deab60001b611f23565b6127fb7ffc6ed1489181d29cce6d3e9e263799081ec5ccd56026a885880b1e4f04e590f360001b611f23565b6000601660003373ffffffffffffffffffffffffffffffffffffffff1673ffffffffffffffffffffffffffffffffffffffff1681526020019081526020016000206002015411612880576040517f08c379a0000000000000000000000000000000000000000000000000000000008152600401612877906189a1565b60405180910390fd5b6128ac7f38ec1d0abfb8f9553737de0be24558f2657dfaef6feb61090b013d60bdd22e5460001b611f23565b6128d87fff834d23d96cd1850945fc1307141c4b7e5913f82c1a8dbc9e1934a329d06ed960001b611f23565b6129047f84c67410db66dbc4d67f7f97fc151f702be2c8bc40376e23033faf236656be1e60001b611f23565b6000601660003373ffffffffffffffffffffffffffffffffffffffff1673ffffffffffffffffffffffffffffffffffffffff16815260200190815260200160002090506129737fd2db1bb989e8e72be498bcf568c65db94cfd0b1fbb14223448396d791fe7159d60001b611f23565b61299f7f46b235aece315b883cee8ad29bc83c58b8498c552f7efa89afa9cec964418d9e60001b611f23565b6000816002015490506129d47f43f212271eb0eef79a28f1e6370e8be9a93391994d0cd5bae90eb5c9339e526360001b611f23565b612a007fa57c1bccabf2f0f689d0735ac03841624348373d4a102dafc8ae1c5cfa21cb6260001b611f23565b8160000154600f6000828254612a169190618b74565b92505081905550612a497f5f7fc09fb9ccac7bdff0327bd85f062e0cf9c5e1ce922e9ed26255524bd5e74760001b611f23565b612a757fdd5dcf030570e1ee6e465583cafddf943be92b23cb7ce8bd0dc3db787925e07860001b611f23565b816003015460116000828254612a8b9190618b74565b92505081905550612abe7fb044fb3069d30280e2a8d6aabfd7ee546f6737f8693c39fb394c49e392cb123e60001b611f23565b612aea7fcce76a6c7a8ac4049d2f4524bbcbdf17b34754c5a83d306073785dd68b98341960001b611f23565b60008260000181905550612b207f356215866b3983c1d4702488788889b5af8df4f3e7740b8e2e94ec7e17f028b460001b611f23565b612b4c7f0d39794b29f2a4052c84e5b110999b438fbc4d2a2422e69d22fce5b5ef8aeae560001b611f23565b60008260030181905550612b827f91c583610384b48afca3c0c3d5c33fd6acc3999c1bf7f3a4e2defc11ff6c324060001b611f23565b612bae7fd2c347f84c6ecf1f02fcb48a0c2bbe18eb56c5c5e2bb15bfd52eeb6d8a8c763860001b611f23565b60008260020181905550612be47ff8a1e6e22fe3439c60c3c4ecf0d219e23e309d974fe3ed689b5203300d2721e160001b611f23565b612c107f435e9c1ae4aa43f4010c351ab48009dd251f89b8e3502f2790c064e9ced1169e60001b611f23565b8060136000828254612c229190618c55565b92505081905550612c557f58bff8d3e18a0cfdc3e3381885f34de3af202183acc585d162b5f8ef4a94a19460001b611f23565b612c817fb2d2a57c1ec1234b77753644b317ff7774a68afdfd777dfdb8d727235c1d50f660001b611f23565b612cad7f37c1fea9cd24a349eac6c9a375ea53c8494a219285ea4e4153c0767168e5348d60001b611f23565b600a60009054906101000a900473ffffffffffffffffffffffffffffffffffffffff1673ffffffffffffffffffffffffffffffffffffffff1663a9059cbb33836040518363ffffffff1660e01b8152600401612d0a9291906185a0565b602060405180830381600087803b158015612d2457600080fd5b505af1158015612d38573d6000803e3d6000fd5b505050506040513d601f19601f82011682018060405250810190612d5c9190617f97565b612d9b576040517f08c379a0000000000000000000000000000000000000000000000000000000008152600401612d9290618741565b60405180910390fd5b612dc77f2b539d800e9fa7bb63b87b98e01b8551e97391c8ae4acb3b0eb1e3226ce5a79b60001b611f23565b612df37fb230f6f251a60a31026c56a989fd29d211cabd8d2b079744a3e6820eda41a44a60001b611f23565b612e1f7fd47c11045224aa2bb6c5dd42bc9ca22b465d3e21441769e4555854e60154cb4d60001b611f23565b3373ffffffffffffffffffffffffffffffffffffffff167f1a689b1a62e3bb77f9c98d8759c04f341a67deb5cc63cf53be8324b69106495082604051612e6591906189c1565b60405180910390a2612e997f47d9349e750054b1e04b2d3e7c6b085c938776a751e0c3105eeca2d0becaa1d760001b611f23565b612ec57f995dc9ab751ee7ed9f7c46216d3e72eab8495440ad5163db16db8e9891c4bc6060001b611f23565b809250505090565b60025481565b612eff7f895d9b7d2339e42bd8c2c2cf34bf61dee12f5bc3a94a33f72c4ee2ef88b3c08960001b611f23565b612f2b7ff49158ca7355c4e38bd54d737569c2a079541c4e8a323cd12bdb477ce1f3654f60001b611f23565b612f577fd6b66d60e5511f09b2bd1851d26f91c94202caa72cd50a3bf3b84e1e7820e5bf60001b611f23565b612f837ffc91837a84c5380f0b3036e878b01787365fe95a2b93249b8dee1f3125d9c0ee60001b611f23565b600160009054906101000a900473ffffffffffffffffffffffffffffffffffffffff1673ffffffffffffffffffffffffffffffffffffffff163373ffffffffffffffffffffffffffffffffffffffff1614613013576040517f08c379a000000000000000000000000000000000000000000000000000000000815260040161300a90618801565b60405180910390fd5b61303f7f97244c4f1c9c19c72c53eaab35f18f4a1ba92e97d2cf8f8335ab7c6d8ba292d460001b611f23565b61306b7f429990eb55a9dc690eee4b496803e1d8e281693ae5c0e9f9d9c50891cff4614f60001b611f23565b6130977f64d1f2d87df3e83268a5220435f734b4a7a52117642d679ad07d31a285ab179760001b611f23565b6130c37f494add8c138f01755fc32bfd4b2ce39f5a371e913781d187785a775055c92aa960001b611f23565b6130ef7f4d62a3e60abfdf37947435fd0f03373bd728c283cef15e4c7b245b9831f1a02e60001b611f23565b61311b7fea8ccf4139a82ab6ad23ccdcd73542d297e250479c4dfd613c7bed5d71244ed160001b611f23565b600c60009054906101000a900460ff161561316b576040517f08c379a000000000000000000000000000000000000000000000000000000000815260040161316290618821565b60405180910390fd5b6131977fad6f4e831ee5057573f7ef46a1b197b19c3a38df09d45d35c7f5f3e48bd786ba60001b611f23565b6131c37fc5a5aa3eb74a8352fc1a583e95ea4cf89513839d634bd239664c9a00d9066d1b60001b611f23565b6131ef7f4d6ce9804b7aba336af085605e32bbfe089f6ae8f6533d8195fb89f4b446a01460001b611f23565b61321b7f54e3011ee155767a18fc2fcdf278ed3b157e9c23c0cb1c5b2880fce7df49249460001b611f23565b60011515600960009054906101000a900460ff16151514613271576040517f08c379a000000000000000000000000000000000000000000000000000000000815260040161326890618941565b60405180910390fd5b61329d7fd431e4340da144bd73db4a58d6a526979d652629ef61c1662f1e07702e4ef1b160001b611f23565b6132c97fe37efed25de5b0f3442df05d497b23dd512db256ef5cd432083ae384f91a245260001b611f23565b6132f57f0358785f8deb58f2c6e541ffa50cc280bef578820a3e8b4b3d7c2574d31268af60001b611f23565b6000601560008373ffffffffffffffffffffffffffffffffffffffff1673ffffffffffffffffffffffffffffffffffffffff16815260200190815260200160002060006101000a81548160ff02191690831515021790555050565b61337c7f895d9b7d2339e42bd8c2c2cf34bf61dee12f5bc3a94a33f72c4ee2ef88b3c08960001b611f23565b6133a87ff49158ca7355c4e38bd54d737569c2a079541c4e8a323cd12bdb477ce1f3654f60001b611f23565b6133d47fd6b66d60e5511f09b2bd1851d26f91c94202caa72cd50a3bf3b84e1e7820e5bf60001b611f23565b6134007ffc91837a84c5380f0b3036e878b01787365fe95a2b93249b8dee1f3125d9c0ee60001b611f23565b600160009054906101000a900473ffffffffffffffffffffffffffffffffffffffff1673ffffffffffffffffffffffffffffffffffffffff163373ffffffffffffffffffffffffffffffffffffffff1614613490576040517f08c379a000000000000000000000000000000000000000000000000000000000815260040161348790618801565b60405180910390fd5b6134bc7f97244c4f1c9c19c72c53eaab35f18f4a1ba92e97d2cf8f8335ab7c6d8ba292d460001b611f23565b6134e87f429990eb55a9dc690eee4b496803e1d8e281693ae5c0e9f9d9c50891cff4614f60001b611f23565b6135147f2f8ecd360a2d6533f1b58b3c0e0bc7a553d8bd2a14f1ff5707e345aee4d7ba1460001b611f23565b6135407fc177754f6ec1f998d4dce65977c9a39b003a36dd7b2dc3e15227cf45a98ccf5160001b611f23565b61356c7f02318298c26640e12214a8aeb9649d92d9c40ec535929c202d328d21b76e6a4260001b611f23565b6135987f6cff199729a898efe30cf5fdf5c1f32e1850a903613d3e57083951ae465c85ba60001b611f23565b600c60009054906101000a900460ff16156135e8576040517f08c379a00000000000000000000000000000000000000000000000000000000081526004016135df90618821565b60405180910390fd5b6136147f411dbb1405951655a9adfb89d95af5e6c138c109a5ddb952ce350d1998ab4c0760001b611f23565b6136407f6a47d677c4b956ffc6252123d9854e8dfd08f7db981adce40b7c0533f05b0c1c60001b611f23565b61366c7f67f7db27ff5c5892c14c995abd29043c895cff1b753568df2541bc6f48ec75d660001b611f23565b6136987fd735511f828223767e8c05dc85f59333d139236bf9d1476db3538348f373877360001b611f23565b60011515600960009054906101000a900460ff161515146136ee576040517f08c379a00000000000000000000000000000000000000000000000000000000081526004016136e590618941565b60405180910390fd5b61371a7f35ea9b034b5da66bd26e6e1133aafbf6940471eea9158f6f3adc371b647d57c960001b611f23565b6137467f97f2353dc2936f4dbd56587b20110cb4c269d23e0fb24e384e7036e36ca8d6a160001b611f23565b6137727fe8cd810d25840e58d274d933f2f6cc2d6e4a82af171be5ab374de6ff705da4b660001b611f23565b6001601560008373ffffffffffffffffffffffffffffffffffffffff1673ffffffffffffffffffffffffffffffffffffffff16815260200190815260200160002060006101000a81548160ff02191690831515021790555050565b60065481565b600d5481565b60006138077f9c716687a47446ac97a91cebb798673498ed1a696c0e2f4676748d720a5669e960001b611f23565b6138337f6f40f6b9fe80e47686be359251f288d046e461124c19b39d8ad87a947637216560001b611f23565b61385f7ff1f0f2270a0f6d724f7fcad18e6c6d9acf3780a839a6e42678f55d1b2e55c7b560001b611f23565b61388b7f499d4f4ecc14d94a119f4ce66e986531adf4f0eb092d56f6039eab175245112a60001b611f23565b600c60049054906101000a900460ff166138da576040517f08c379a00000000000000000000000000000000000000000000000000000000081526004016138d190618961565b60405180910390fd5b6139067f7017c74ada50538b5ee436147d30be03d74277856d5c40c9e979e51db5c417bd60001b611f23565b6139327f7c50eb9c63b293912f09d53298c5bd6fdcc1edc649c61f486ad25c5f45fd9fe760001b611f23565b61395e7faa53ec8f79b20d26180a6389e674cab5ba0aa29d953d0c65f8aac6e96ff8a1ab60001b611f23565b61398a7ffcfaaf390594c5941e7037c1ef7c754cf086260b9e33cee9bcffe6d50fe24c8160001b611f23565b4260085410806139a65750600c60059054906101000a900460ff165b6139e5576040517f08c379a00000000000000000000000000000000000000000000000000000000081526004016139dc906186c1565b60405180910390fd5b613a117f19642df5058f05068d8fc64f8d72491341d3080c91385a94cca4ff13081ed16d60001b611f23565b613a3d7f013de7cb441a0f08185b8a57c2003b5aad23d529ccc9caec561e7f6faa68394160001b611f23565b613a697fde61f9970f0607b3ad56b85b1ff650a578b8331974d0c1697a127716e45f479360001b611f23565b613a957f0456dec71c980aafbb374c05c362de214f4aad56d857dc8470f503581dd240fd60001b611f23565b613ac17f3f1931eaddb7cb5b935b6b861c014c2d37c41751527887c357965a57d59017f060001b611f23565b6000613aef7fc73fa6a317865ab5e13e26e689ca0d05f2f0688fc1a0a28c2159bdb0c335267560001b611f23565b613b1b7fddb85a4ec72fa054f5a32748d53793239da91b46ccc733410530eaa4591becbc60001b611f23565b613b24846169a6565b9050613b527f4a073bfaf7c8a1338dc6ea5533fd11b2a5c8a954e149bde15901cc5ccb73c2cc60001b611f23565b613b7e7f13e7c1690efbaf07962aedac4f14b7771a264775a59ff1bb25e7b0705d2425e060001b611f23565b613baa7fe808165bc18137254715836dce11a7062e15f35e01dafa96274d456c9722b29a60001b611f23565b60008111613bed576040517f08c379a0000000000000000000000000000000000000000000000000000000008152600401613be490618981565b60405180910390fd5b613c197f92ac6d03d7b044388d484160d6645cfdb661b1d9b5bd01e2ec027f0ac0dbc0bd60001b611f23565b613c457f67eaf19267b5935977d7e2907df54ce4cc923b960ea1eba2da2098c1bbeedc4860001b611f23565b613c717ff0a7dd268872da961a7ae6fc821430c4c622fccb94fe7a7bb49b0e7afe6fa19960001b611f23565b613c9d7f65642b6654d6cbef54d4c25ca6c2b90af454c54468ef05961aeb700b4e9438ba60001b611f23565b82811015613ce0576040517f08c379a0000000000000000000000000000000000000000000000000000000008152600401613cd790618641565b60405180910390fd5b613d0c7fc93d11dd708ad503ceb9a446da10c46008f78f88712c921c8015f4db1d32887260001b611f23565b613d387f9aefacda8f684572c1441ec87bb50e89fe4ddcc5e903920f4fd6df6bdc8c8f1960001b611f23565b613d647f173da7b23c6678df8a9bae39ee28c190dbda1c7d5d2d880633cbbc980a4f8dca60001b611f23565b60006064600a60149054906101000a900460ff1660ff1685613d869190618bfb565b613d909190618bca565b9050613dbe7fbb4d692ef640c125e96fae9496a59b8fb980de6556ddedbafcbca1e6faefcfe060001b611f23565b613dea7f2da30c0c6b9385fa94f7d874076732239b28da18d527d957ae1b7927440fa3f160001b611f23565b6000601660008773ffffffffffffffffffffffffffffffffffffffff1673ffffffffffffffffffffffffffffffffffffffff1681526020019081526020016000209050613e597ff7ae1333d7f551e915dd01a7728d9bb087fd01159c0ca8a01f065b8235529e5960001b611f23565b613e857ff431f686faae0d96b13f3c73ad1249b4bffc1f4963a7312fb8b7d37623bbbe3160001b611f23565b84816001016000828254613e999190618b74565b92505081905550613ecc7f77d8c8c7ffcd4980679e0929ba8fee1c504c38ded30ad51453848119c9f959ef60001b611f23565b613ef87fe5b9f5b26005d42fa19a7705e9fcd26ccfc1fc1d646f0c5cbea2fc5a91916c6260001b611f23565b81816004016000828254613f0c9190618b74565b92505081905550613f3f7fc75ee9b74821762b834b390b17733aec9923fd7a21bea367e56c326645bd840660001b611f23565b613f6b7faedc76247e2186f69af14d62df00bd8ff46ec21414067d28bcbf7a00d83f714760001b611f23565b8460106000828254613f7d9190618b74565b92505081905550613fb07fcc2e1ca050795b113c6fd3374debfe9014d3e67820012662b4d586ad8037362460001b611f23565b613fdc7f1186882ecca6a8f0c21d82c2220be034a21cc530c9e38a8d2f1f55d8b61d065660001b611f23565b8160126000828254613fee9190618b74565b925050819055506140217f45f26c6df33f41335c9dedd83fc69d5c44ce043e60b73da009451aea82a37de060001b611f23565b61404d7f038ecec16e3349056a46782993d30491865f7d305f084a71dae15807fb215b5c60001b611f23565b6140797f9231679aaf4beedfa8eb215a25c1ca7f8cd3c40ccb2e17e73995dfb93841518060001b611f23565b60098054906101000a900473ffffffffffffffffffffffffffffffffffffffff1673ffffffffffffffffffffffffffffffffffffffff1663a9059cbb60008054906101000a900473ffffffffffffffffffffffffffffffffffffffff16846040518363ffffffff1660e01b81526004016140f49291906185a0565b602060405180830381600087803b15801561410e57600080fd5b505af1158015614122573d6000803e3d6000fd5b505050506040513d601f19601f820116820180604052508101906141469190617f97565b614185576040517f08c379a000000000000000000000000000000000000000000000000000000000815260040161417c906187a1565b60405180910390fd5b6141b17fb7a67d6c9a4535c382d45f7a2db5c57c6e08eceb5fc0ef556ffec855ecb1359860001b611f23565b6141dd7f93b8b3f9b209f40e35a5f8387c12de8fe07f1db938d846d15439c40a10510eff60001b611f23565b6142097f0289826f9efb07073ef8e70d88e89076dd33ffa7eca44c0c15898bacc2535fc760001b611f23565b6142357f8c0d287e850177dac400451ccefcd24fef739c2e09f4328e7ceece870c6e56ee60001b611f23565b60098054906101000a900473ffffffffffffffffffffffffffffffffffffffff1673ffffffffffffffffffffffffffffffffffffffff1663a9059cbb87876040518363ffffffff1660e01b81526004016142909291906185a0565b602060405180830381600087803b1580156142aa57600080fd5b505af11580156142be573d6000803e3d6000fd5b505050506040513d601f19601f820116820180604052508101906142e29190617f97565b614321576040517f08c379a0000000000000000000000000000000000000000000000000000000008152600401614318906187a1565b60405180910390fd5b61434d7fdc7f22bada89f03aa55a2c73845665e03d1912e330ea30cd702a40b02998312860001b611f23565b6143797f830bf458de61906a1e19c7b4a1ae9f5ed4343f4f170fcb537fe9d0e88d61167a60001b611f23565b6143a57ff41885fe98956ff6589350803f348f1e8bd5895092921de926b93de95e644a5960001b611f23565b60008054906101000a900473ffffffffffffffffffffffffffffffffffffffff1673ffffffffffffffffffffffffffffffffffffffff168673ffffffffffffffffffffffffffffffffffffffff167f9bd10be98695714f5cb43cefb59ba6417808b354710acafafe05e81b2649223187856040516144249291906189dc565b60405180910390a36144587f33637ba06c085469080a30c04d1a76ba453617b1bd44491bc60add439113e1da60001b611f23565b6144847feeaff378c2c6ab6f32668c8314ce6b6a46eaf68d237e69414b39ced836d70b7f60001b611f23565b81935050505092915050565b60115481565b60045481565b6144c87fee6729f744191aa806bdca8b5778654c353a3104a6f6f62ee9aac8ee3f7a00bf60001b611f23565b6144f47f2dc16d504b456d729adfb4be3d8cb646506e1da742f6c0bee5f401bc3ab8d1ee60001b611f23565b6145207fc77726ebda4566811e86dc57d41eff2c3da3ad07b8f75dd092958a45d146e18560001b611f23565b61454c7fc2d5f5413ef17bc3415a2b3369a2c75c0fc8c8734d127b4190f1cd580f04c62a60001b611f23565b600c60039054906101000a900460ff161561459c576040517f08c379a000000000000000000000000000000000000000000000000000000000815260040161459390618881565b60405180910390fd5b6145c87fa5e179fd67bf659a392b6a9a7195624f85dec68ed5f2ca6b5803cf7016a6758860001b611f23565b6145f47fe7cae085dbc0b10515ff2137f930cefede9a07f00d185acfaafd79c5c42dacf160001b611f23565b6146207f87b2b49d1be2f80efc6ce08e839282d183658fabe2cc17cbeb0d0dbc4f03d22c60001b611f23565b6001600c60036101000a81548160ff0219169083151502179055506146677faa1266188f39d87b4d9b8f6eb64f72afbd1707c16842e04c0a4e65e0839adb9360001b611f23565b6146937fe6cf8844274f8b6b0f7ab563193f9ca3d748c753b457078d8f7aabfe8e1634c560001b611f23565b6146bf7f84ec22b29b68a7eee8d271e2f4e03ce5b114d3da4c022dd2e0a455fc4660fca160001b611f23565b6146eb7fadeab8ece7a9e74d47e4c609d336c564291a5d2c3a71d26da6b2f09b067e456260001b611f23565b6147177fd32f21b726e1989b38680e7a905e9639599a09a5b69343d911017fbd64836d9660001b611f23565b88600181518110614751577f4e487b7100000000000000000000000000000000000000000000000000000000600052603260045260246000fd5b602002602001015173ffffffffffffffffffffffffffffffffffffffff16896000815181106147a9577f4e487b7100000000000000000000000000000000000000000000000000000000600052603260045260246000fd5b602002602001015173ffffffffffffffffffffffffffffffffffffffff161415614808576040517f08c379a00000000000000000000000000000000000000000000000000000000081526004016147ff906186e1565b60405180910390fd5b6148347f5106e873a2949f20ff249d653bbbe3d418fe075eaf6a3c845fe24f8ef4b3f7b160001b611f23565b6148607f59fad9501ba44f17fb8933c667a072efd56c86de3c666a13fbf8a82ea21e9e0660001b611f23565b61488c7f148e8571bfba8a072d53f996a71baac61b786d1cc432c7a6bf7f57a62fd92b9560001b611f23565b6148b87f890df977f69efed6757334d16d7144c5e9186c7e2ffcd73e91c2ee1fd6d5014460001b611f23565b876000815181106148f2577f4e487b7100000000000000000000000000000000000000000000000000000000600052603260045260246000fd5b602002602001015188600181518110614934577f4e487b7100000000000000000000000000000000000000000000000000000000600052603260045260246000fd5b6020026020010151101561497d576040517f08c379a000000000000000000000000000000000000000000000000000000000815260040161497490618661565b60405180910390fd5b6149a97ff7a5ee9a6a3d90a9ef2cb8c044777e045ee20743166678a85824755b69cbd54260001b611f23565b6149d57f10a4bba71b653b1ac2f233eb928ed91087d0da43d2abecaaf6f90bbadee2716d60001b611f23565b614a017f4c7bbc54c5edc33b6b5e4f745bf6f538dfbbf0aec9c62a6519b3c8e322a9458260001b611f23565b614a2d7f1c64e0d1cbdd7a50b33c7be0fb88210126d3af395712de75e7e080b3250238ac60001b611f23565b8263ffffffff168463ffffffff161015614a7c576040517f08c379a0000000000000000000000000000000000000000000000000000000008152600401614a7390618781565b60405180910390fd5b614aa87fa0b93e4213834b1b6243711ec2beb92b9e0582c22d2196e946298beb44d3152b60001b611f23565b614ad47fc06af6ef8287e50eb74f902218b06407b713b374b7c07756a768549c242ab7e060001b611f23565b614b007fab3f66784199878f10851020bdcaf6a77422a4c8e76b3a65c60ea8f8d8aa3dbb60001b611f23565b614b2c7f3980e6b26c3ee917143e6cdf8ac1a4ec8d977103c5edad89ccfc50d19d65812b60001b611f23565b858511614b6e576040517f08c379a0000000000000000000000000000000000000000000000000000000008152600401614b6590618701565b60405180910390fd5b614b9a7f424bbea99e7b67f222eda53054f2e4e565d4760147f52b332408453a5a58db8760001b611f23565b614bc67f4fedc46016256cd63d1fbd9e2a383d7829168ed76b992ae4e63f5c2659d0093560001b611f23565b614bf27f5f08fc44af172d3681fe5f5207f588637f0b8798c6e80da9e1b2c1e735c7d77760001b611f23565b8a6000806101000a81548173ffffffffffffffffffffffffffffffffffffffff021916908373ffffffffffffffffffffffffffffffffffffffff160217905550614c5e7fcfca57b740c38434dd13eaca8dd3d205ea01e9b2f235d2d2b8848d5d4708c53960001b611f23565b614c8a7fd3aef5f7ddfb546a8013fac5817a9e4dedf0713be7710531028b7ef427ad485c60001b611f23565b89600160006101000a81548173ffffffffffffffffffffffffffffffffffffffff021916908373ffffffffffffffffffffffffffffffffffffffff160217905550614cf77f797d44c14e4bac8efe9f964ec672986958748ef0992e262fc00ab3e2f4980d6860001b611f23565b614d237f23fe338173113b1f127eba48492155c8d4d6f497a9a3e01e3c7329f6b23f6f5f60001b611f23565b87600081518110614d5d577f4e487b7100000000000000000000000000000000000000000000000000000000600052603260045260246000fd5b6020026020010151600281905550614d977fd5e637a17e1d30ca1d7da3c596392d483d140ef79cf8f0b28a0c6a8fb1ed0e8560001b611f23565b614dc37f1b2842ab77a3db1dda9640291ef98d2a13752521f725838752976f8d6864b48060001b611f23565b87600181518110614dfd577f4e487b7100000000000000000000000000000000000000000000000000000000600052603260045260246000fd5b6020026020010151600381905550614e377f4ddd56646d62ee87da2f3a431d9189e2fd5a30b5fbe934603afac76ae5a77cae60001b611f23565b614e637f3326b549d63830f14c8b10f4fe20ee484249fc380297dd1ae75fa65cc8a08f3f60001b611f23565b86600681905550614e967f2918be53fb32c3a7467b3971539d0af9031308d0dfc66268b2fcf35c9d67210f60001b611f23565b614ec27f7e55ac2fafd0385c8e87c41359e01eb6b547e5d25b1c4a3d6fa0f4adf40ae15360001b611f23565b85600781905550614ef57f375e5b1b88f52b66ec683c16e1edc1fc220d87713f93f8cc750f5c73bdf647c060001b611f23565b614f217faf1e0ae40e9699fdb843c418833ff2fd643548406707a6e3e6753e363536024c60001b611f23565b84600881905550614f547ff399a8cf44d5ddb10a1fd9d8435d00fbb6d640508eaa6a032ace336058ae715760001b611f23565b614f807f48eb810bf6c6518b7f2ba098caa5f0706a5429cb8fa0983de7ccf1082778e5be60001b611f23565b600854600d81905550614fb57f232b1c11068bd2b682c6369cd9b2b0ddd8223724c690b672336e08b45834071660001b611f23565b614fe17fb0740c8bd92083b053828643aebd70204cb5b07ad3d8910a505c67cbe8be9dba60001b611f23565b83600960016101000a81548163ffffffff021916908363ffffffff16021790555061502e7fe8883520fb037a7ef5f2bfff9713013bc74b60dc4ab4229a9a7b61405dc6449e60001b611f23565b61505a7f29b1f74ac6fd9aabbc826bb28c76a3c166a57b254ba191846bb418687780b67e60001b611f23565b82600960056101000a81548163ffffffff021916908363ffffffff1602179055506150a77f9a22f9906cbcfef3969ae9946a61d0981f2f6be4b4c9c9b36c15a0593bb8640060001b611f23565b6150d37f1a11b8ff2847f6f8d0fdf726e354387457fc7afe47ad8b0f8e7d8b660f222cd060001b611f23565b81600960006101000a81548160ff0219169083151502179055506151197f68f2c7c1e43781b4654f03d2b271d5133b3ec341d13beb91409bc70723c99adf60001b611f23565b6151457f7e7b93042dbc7c231789d4b04163b38c6d9d6371738155ce7dc0fc74df335ea860001b611f23565b8860008151811061517f577f4e487b7100000000000000000000000000000000000000000000000000000000600052603260045260246000fd5b60200260200101516009806101000a81548173ffffffffffffffffffffffffffffffffffffffff021916908373ffffffffffffffffffffffffffffffffffffffff1602179055506151f27f0a2fc58e90c24086f5d9fe9e37281327ba916176046b80250d58312b251a67e460001b611f23565b61521e7f24c283fc93ff861237c189b3ed5cdf850eca0d4f4f73c45cec15f715bdbb07fb60001b611f23565b88600181518110615258577f4e487b7100000000000000000000000000000000000000000000000000000000600052603260045260246000fd5b6020026020010151600a60006101000a81548173ffffffffffffffffffffffffffffffffffffffff021916908373ffffffffffffffffffffffffffffffffffffffff1602179055506152cc7f59e41c9f4d6c0932048b728874bc44ab786b24f7e2c3a1b1c651369644b1258b60001b611f23565b6152f87f07edc44dd1b9e7caef6c61ed3118c994a5fcf004892d68b04c31d376551299cf60001b611f23565b80600a60146101000a81548160ff021916908360ff16021790555061533f7fe86aa76475d6030e11c28c32686687551957615ec6e53b85278ee1f90b5497ba60001b611f23565b61536b7f2b1ce9b203beedd4e58eadd35e3444f5c11f268a0842f14242927d73dc29566060001b611f23565b86670de0b6b3a76400006003546153829190618bfb565b61538c9190618bca565b6004819055506153be7f9c83f1ed54ada649154f4e6486ce1adae92c90f1e1e5b36dbf37a89ec6b94c2c60001b611f23565b6153ea7f9ff8e5a74640975b170a7dda896c42a682ff2912dd397936d65ec0c86691642c60001b611f23565b60648160ff166004546153fd9190618bfb565b6154079190618bca565b6005819055506154397f8ea6de3c1dd15ff35644853998035a04debf15a41f618b91473bcc20401130a060001b611f23565b6154657fdefb86077b48d1da0e6c6087baf842c82153872a7c9ee7a5950b273225f4584560001b611f23565b600454600f8190555061549a7fcc85ac318b4443d5e6544492c24b1c8f863c0f394b68ac15044c492c4c85872460001b611f23565b6154c67fb813cbd54addc803802b67be7ae3f26c6f5a7a929470132d738457527367f70e60001b611f23565b6005546011819055505050505050505050505050565b60156020528060005260406000206000915054906101000a900460ff1681565b60008061552b7fa75903bd2a43d17666f6d035e132c9f7b23615e29c271cd3ce87780ce03365fb60001b611f23565b6155577f3efc56dd87322cabdcf21743875e2538c0c871adb0c3837290afee95fd0a2c4960001b611f23565b6155837fd9031e27a77fd955dc9f6c9b5af7f674c9f2cf41813cb749d35fee5119725d7f60001b611f23565b6155af7fe4f6391a5076f6d617286aee2fee4d55194543fe9d2e619c00c0fa6c9006ef3b60001b611f23565b600c60009054906101000a900460ff16156155ff576040517f08c379a00000000000000000000000000000000000000000000000000000000081526004016155f690618821565b60405180910390fd5b61562b7f42f8ed4455837f0de99ccc31297cad16cd2404e41c3014c330eacfb2b7c651f660001b611f23565b6156577f43d0ab43fb808a6097b1fe6f150be63388bed595c6321e04bce97ee2cc3a8c1260001b611f23565b6156837fb0fe1f52deb5f394c792fb14d4811afec26d23af8eb67ae85a0f2656ce79673060001b611f23565b6156af7f98c22615f03bffdcde50240d976aca1f29e7b79b073aee4743a44c237541586560001b611f23565b600c60019054906101000a900460ff16156156ff576040517f08c379a00000000000000000000000000000000000000000000000000000000081526004016156f6906188a1565b60405180910390fd5b61572b7ffbe833dbc07901eddbcf9abc59ae9615b8ba1ed66d9de5ccd3bc69288cc882e660001b611f23565b6157577ff75c0a84f234aac5976b464f9b42d8069f02d61b88daf6804eb03a32b4cf887d60001b611f23565b6157837f939d9ec01fcd8035c65e6593ca373cf5038952c13ad1040b2fe7dfde52465f1160001b611f23565b6157af7fc8a42e1b15e30c1133e35e4170b6f0609e39d01c02c449bd50c913472bd5b1ab60001b611f23565b6157db7fe786ca491dd46670fc2fc944fdde4415efd9d4499a27cd7a4e69e1a39139edf360001b611f23565b6158077f7cfb4f65f8e3ad6ab09f1b889f0ba27d9ed990f061c8a47e2c3284fa6693aa2760001b611f23565b600c60059054906101000a900460ff1615615857576040517f08c379a000000000000000000000000000000000000000000000000000000000815260040161584e90618621565b60405180910390fd5b6158837f6ebdd4afc831d8ed3d5addf5eefd9825689f829a5f91546d101d989bbc0aa55960001b611f23565b6158af7f9f8ffbc181d63891a3d7988da6a075b7d0bcf8f6d0c0ea6e1863df6834958b2b60001b611f23565b6158db7f4a611f1330acf9c94a7709b6057751822555c3be77fbe229a2ec793bf79b9bd860001b611f23565b6159077ff64fe3da64a10c4e85d7176fb657b6d8d7a519ab095aa13fc74db08b7307405260001b611f23565b600960009054906101000a900460ff16158061596c5750601560003373ffffffffffffffffffffffffffffffffffffffff1673ffffffffffffffffffffffffffffffffffffffff16815260200190815260200160002060009054906101000a900460ff165b6159ab576040517f08c379a00000000000000000000000000000000000000000000000000000000081526004016159a290618761565b60405180910390fd5b6159d77fb26688f59dc389b04f231a918d76b9be600045b564e479e4d2481b202c2904e460001b611f23565b615a037f69c6b35322844c3453439055fd22b8d35971ded75cb4c5bd10d5fe30e433294d60001b611f23565b615a2f7f241bd6a94d315339e39660847a0cbb47a979d044dedb14ca702f9bb6315c246360001b611f23565b615a5b7fdfff8040232bd90a11d488ba3b50ed2758a48792fb0df228b1d733abce50196260001b611f23565b4260085410158015615a6f57504260075411155b615aae576040517f08c379a0000000000000000000000000000000000000000000000000000000008152600401615aa590618841565b60405180910390fd5b615ada7f1da0b4ec5a091ea28df37ccd98bb28fd9c9b23c18b93e81ab07c13faa08a396160001b611f23565b615b067f2c5b55c26bb337cb1ffa884a7c1eb5c01232e804a1fcf1878f2e7d5a6c540e8060001b611f23565b615b327ffc25a2a21d1ff0ffa2b9bc94493b63d59750411bd347c8537905fd9079e31a6360001b611f23565b615b5e7faf92bafeb4e44ee598c7ef523dbb2786d86fa7ba460a7ead2e5b4d2aa838858c60001b611f23565b615b8a7feab6f50a02327d5c2aae5931461046891c6d88f9cb8ce8b40366f9fa5eb5edb860001b611f23565b600c60029054906101000a900460ff16615dec57615bca7f4fd1a0e13fcae832999a681311b721dec1ed2f56a0857c7085ae5850ef14315060001b611f23565b615bf67f330275678adcdc61d5cc1a07f0a4b4a39fea341e749515f02c62a8dcf22a623960001b611f23565b615c227f319dc25d0d96b18529cdd22b177f911206785314afa775bb6d3bb4cc7f91760960001b611f23565b615c4e7f181c6fb5b70b4cf3eb903a627f277af10861d67bdbab9779cee2422b5fda04dc60001b611f23565b600554600454615c5e9190618b74565b60098054906101000a900473ffffffffffffffffffffffffffffffffffffffff1673ffffffffffffffffffffffffffffffffffffffff166370a08231306040518263ffffffff1660e01b8152600401615cb7919061854e565b60206040518083038186803b158015615ccf57600080fd5b505afa158015615ce3573d6000803e3d6000fd5b505050506040513d601f19601f82011682018060405250810190615d079190618053565b1015615d48576040517f08c379a0000000000000000000000000000000000000000000000000000000008152600401615d3f90618901565b60405180910390fd5b615d747fbc4823e0e1ea7d727dc5e3a7e59417bb520ef8618180e4df1b8f6dfe74bb97ef60001b611f23565b615da07f8768330ac40c899f34536dbb00d9758da5080bcab5b21d41e2ac0488c11459c260001b611f23565b615dcc7ffeb89e85112ae3c4967eab3cb700a938b6437f95216901b961b139f409f25a8060001b611f23565b6001600c60026101000a81548160ff021916908315150217905550615e19565b615e187f7d78c03ec4eea19cd5257af95b2eedf7c9a8a4b0f5592cd6cbdba9316f7fca2760001b611f23565b5b615e457f817660e8b90761b9db99185a2b1573b56917f7fdd778d17940f7b9aa938eb5e660001b611f23565b615e717f6cf2689e11702b826e72af87a778904fa75e64224240d39668e6936390e1dafa60001b611f23565b6000600654670de0b6b3a764000085615e8a9190618bfb565b615e949190618bca565b9050615ec27f12cfaa8362f08ac390eee5ef1edee0f74c6efb63423f654e6ceee622d37e540f60001b611f23565b615eee7fe04cd402d14ed12511e8f0a280ca2d73aba8960307453e7dc7207370222960f460001b611f23565b60006013549050615f217f6f834027d2bd7bfca1f1cd3f8254ee9bc8d4c074841f955df49e087bfde32df960001b611f23565b615f4d7ff2271759b0c962192fa5d16894041b21a16d642a4327d51b0ab2eec812505a6a60001b611f23565b60006064600a60149054906101000a900460ff1660ff1684615f6f9190618bfb565b615f799190618bca565b9050615fa77fb4cd773a1de4a167129f37f116795c0653e86e0c0207d73ef04350c218795e4760001b611f23565b615fd37f6fa6aa5b449235fe67426fceab8ba80a882d643b523b26382e7aa544897d070660001b611f23565b615fff7f369c2aa2687c5c85d017abb35f8baf623e3caeacc733a52da950763a8a0f59a760001b611f23565b600354868361600e9190618b74565b111561604f576040517f08c379a000000000000000000000000000000000000000000000000000000000815260040161604690618681565b60405180910390fd5b61607b7f0c8652b2e2f30291d9814ded9fd839f2cbb3247938507cef3ab3cf8d70f095fa60001b611f23565b6160a77f8f26349725f955dfdf7274bcbacab8128fca18e474bd66eb378703a82947648d60001b611f23565b6160d37f2a60c53eec4ea32af887edc605b8d19d785b67ea3016a5873b7e9e3823d0a8ab60001b611f23565b6160ff7ff7a5f6dc4ad554871ed19ba2274580a4d5d24a827bc6db89bdfa3b860179417660001b611f23565b82600f541015616144576040517f08c379a000000000000000000000000000000000000000000000000000000000815260040161613b906187e1565b60405180910390fd5b6161707fdf2889bce35effbed2266be69c183a69418db508cb35f5ad14e4d46e6885bed460001b611f23565b61619c7fd382698cbfc736cc4f826d5ae46140c13fc25dcc368747929ce7a35d3dcf02a460001b611f23565b6161c87f905b8e7224d6ebfa0de44bb766032155d6c696dabb625085ed642280f62a577560001b611f23565b85826161d49190618b74565b6013819055506162067fa0a4293f5cd180e25278d5d0f2a15cf989412b261954bed04efb0b5f0f30524c60001b611f23565b6162327ffd60a8a60f0cbff0f0174411b33dc6b4d453165da2a390b80490ed94be41e71960001b611f23565b82600f60008282546162449190618c55565b925050819055506162777fa0c0c07a60e430280a44fbaf9c41e0076e06200267bb35eeaf5698082504386760001b611f23565b6162a37f4b1393eca3ca4fafc075e48a98dba827ae37e80ef19295dd57024ae865fbf8a260001b611f23565b80601160008282546162b59190618c55565b925050819055506162e87f482ec7ab3d729560eab01de1edd9d067c76a98d38196a150d87f02548479c8b760001b611f23565b6163147f3e12add341dc7d612a3736f487b50061b7ed030c13613e303b5d30740d9ee36e60001b611f23565b600254601354106163c35761634b7fe435f42538509ba0f554043bdb41d94ca1d44ce5cdf44c0de25a3bf38a2793a260001b611f23565b6163777f90af659d2b54be7f7f9d476b0973d809ac55a77d0dd35a55ad70e7c3ae5e6f0560001b611f23565b6163a37f369eb5f84db82caa4edf09bff17771ec6b882f203aba4c435adc64c26fa4054e60001b611f23565b6001600c60046101000a81548160ff0219169083151502179055506163f0565b6163ef7fd34774ad0840f572de47479b4ff547d19d57b1e146de875a9a623206945b6d7060001b611f23565b5b61641c7f2c3c5c67456b7d6e0f250a0134a99dfa9dba733d0109be012f2b3ccf4c9fbb2f60001b611f23565b6164487fbad79b41fc2f38369d2d583079b683d9043873aa99fe4983a31b0c1cc801eed960001b611f23565b600354601354106165565761647f7f368a7da2e1917857fd5449f2f777dbf57d84c2035e274d8e2ea424a7c1ecf04c60001b611f23565b6164ab7fdde8e96319c6afb40a4198cc819db97a8038a3d35d4f5c69979885c8b7933e3760001b611f23565b6164d77f7ce0d71d3cfc514faffb55ab61af7287098629c4c2cb9897fd5b703abd01408d60001b611f23565b6001600c60056101000a81548160ff02191690831515021790555061651e7f17a64f270c69be73e208bd170eea545a3371369fe73d25ddd5e132c1e657d76060001b611f23565b61654a7fccb2c6957ff5bdcbb7aa8bd99de38ee7697f1111cc68be423891bd0bcba4418860001b611f23565b42600d81905550616583565b6165827f130d73590ef9101ac4d383e1898a335cc0300c948858d184ea9bbef9912af32d60001b611f23565b5b6165af7f17b7da08a46ca87b01135b8eb6bf6987ff93264df85f840b5be3137f15c8f9ee60001b611f23565b6165db7f3240c2e43b9942f8ae83bd36a50bc8336df734685e5cdac1a208a55de7969dc360001b611f23565b6166ce3384601660003373ffffffffffffffffffffffffffffffffffffffff1673ffffffffffffffffffffffffffffffffffffffff1681526020019081526020016000206000015461662d9190618b74565b88601660003373ffffffffffffffffffffffffffffffffffffffff1673ffffffffffffffffffffffffffffffffffffffff1681526020019081526020016000206002015461667b9190618b74565b84601660003373ffffffffffffffffffffffffffffffffffffffff1673ffffffffffffffffffffffffffffffffffffffff168152602001908152602001600020600301546166c99190618b74565b61777b565b6166fa7f5d5e68988792fba8bd28b2d27c4e6f74e3390c4a6f08f4d864288cf2dad1400d60001b611f23565b6167267fd768b8a150307cf3d115116bb1eeb50af50ff0b6fbc1d2808fe52e0c65306b1a60001b611f23565b6167527f34322b388ff221d09a9997b832d7e541ed006cead8c52cea43009a177541129860001b611f23565b600a60009054906101000a900473ffffffffffffffffffffffffffffffffffffffff1673ffffffffffffffffffffffffffffffffffffffff166323b872dd3330896040518463ffffffff1660e01b81526004016167b193929190618569565b602060405180830381600087803b1580156167cb57600080fd5b505af11580156167df573d6000803e3d6000fd5b505050506040513d601f19601f820116820180604052508101906168039190617f97565b616842576040517f08c379a0000000000000000000000000000000000000000000000000000000008152600401616839906188c1565b60405180910390fd5b61686e7fe42ecdac172472e3c0ba29de6f58ce4e9e8487207f220ffdcf7602ce667ece4b60001b611f23565b61689a7ff3bdc8b884c138aad1d08ad3fd543325949988c21b1333225b927b07f8d10d1360001b611f23565b6168c67f27f86837938a46c4656a211d7cacb341d7605d4a0f5e6d71e8bb99b038dacf6060001b611f23565b3373ffffffffffffffffffffffffffffffffffffffff167fcf5ef2b227e797b567f0df4c49cc8b6207cfb60054eb899e5608de08e5dcb1ef8460405161690c91906189c1565b60405180910390a26169407fb736061b73b826b998d1637dee43e00d77c5936c967b21462dbe36934ac9897c60001b611f23565b61696c7fb00adcbfc64ef9d1f10f32295d96d64c6e231d7f024e7b098e4b88bbdb5e728060001b611f23565b828194509450505050915091565b600a60149054906101000a900460ff1681565b600c60049054906101000a900460ff1681565b60055481565b60006169d47f6781867fbd56a7201247a8fc20ab094152f3d32bd15fb8f44b8020d9befc3ec760001b611f23565b616a007fff15844167e030f2ec730f13116f72fdb6a56443e33804f30acaadd5b6d8f70460001b611f23565b616a2c7ffd3f6012ecf3a440e0e6dc1b61a1f2c71ab5e2273d7029733ad8f1f623ab0c3c60001b611f23565b6000601660008473ffffffffffffffffffffffffffffffffffffffff1673ffffffffffffffffffffffffffffffffffffffff1681526020019081526020016000209050616a9b7f28363c2be143fa1385a7d6ff07b5fd2be43b068aa213c7e91f5ebf21e941cd1460001b611f23565b616ac77fec9f9fae3b046200721e41097823d663e3f5cf3fa8910d75b433d289b1ae638460001b611f23565b600d54421015616b5f57616afd7f244639c621c3057d4ad497c057206016c235e778132e4862bd0984b7dcb9ab9a60001b611f23565b616b297f34902f739ee0092b26da5f269f665b7b2a0c98e63894ac5cdd5def0309467dc660001b611f23565b616b557f19bd7e25d06582c95d9d54b0bd71c3aae02e41e06a387551e344a96d0280122960001b611f23565b6000915050616f68565b616b8b7fa184f839ca2a5be39abbf514c97755ed16f7b918a157fa55d7009f6b829575f460001b611f23565b616bb77f7e95a5a57f2002c38edfba619c80baa3a4921bd02910e144c69c99e6f488339a60001b611f23565b616be37f25cdcf796a3af3652f48cf722cbc2309a5e64c858e9dcfc4babb63032b27a24360001b611f23565b6000600d5442616bf39190618c55565b9050616c217fe9052be9ee604c7440d21b4f51abe7e2b5222dffdcf69fff2f95466ae3959a8260001b611f23565b616c4d7fe707b55036e845d7f9401d0dfd281117a4f0fb4b048b1520a73754cd0e6249f960001b611f23565b600960059054906101000a900463ffffffff1663ffffffff16811015616cfb57616c997f261e8a950696637ba4a36d8af27424a22bc75477b1cd088ecbbd0a102a1314ff60001b611f23565b616cc57f92b3238aa50f1bc7add60c61a97c227e05323ceca92c7e619f0e363d2de8a58360001b611f23565b616cf07ea69b975902ad6735fd506d70ea2e92cc7216e5d305d576dd5a02e69951bdc760001b611f23565b600092505050616f68565b616d277ff870fb375c7bee03ba499faeffec735fe53a5b48b02830d6ce040114be59994e60001b611f23565b616d537fa8c8912c5d55b48eaaa803630f54d5566d046ea8de12c7da5316fb1fd9936d7c60001b611f23565b616d7f7f4fc4ff886143bd4a40710f6dfb7954ced0ca4ca85d86a8a5bd5fdbf3e0484ec360001b611f23565b600960019054906101000a900463ffffffff1663ffffffff168110616e3f57616dca7f5420b391e48d951219640b4a994fa130515a7bd4fb48e70d8b97b02d4c25760860001b611f23565b616df67fd711087a4a041006206c469988a342bf671df408b4c26c74236e25d50f90256c60001b611f23565b616e227f5df9092d77f6ee202c90afdbe8c8d241d1b0386695caffda7552fa33f57cc01760001b611f23565b81600101548260000154616e369190618c55565b92505050616f68565b616e6b7f68a7afd316b7193ec850e1d25af3e699a8bff2ac426c1d49809259c486686e7b60001b611f23565b616e977f990ba2ffd683bc2a3deccab35e419bed3a80efd782949ce3eaa56906096a601a60001b611f23565b616ec37ffd9915760788b8060352826a20624f099ac47a156afb4b656a1016332d359deb60001b611f23565b6000600960019054906101000a900463ffffffff1663ffffffff16836000015483616eee9190618bfb565b616ef89190618bca565b9050616f267ff2160ae253d425374120f51a915832e86203e97aa9e9a368e53d28a7ab317c9360001b611f23565b616f527faad41c3feb35188094dd5c65ae34b4a2d0a5ecd72e924f43eefe0d936d6b456760001b611f23565b826001015481616f629190618c55565b93505050505b919050565b616f997f895d9b7d2339e42bd8c2c2cf34bf61dee12f5bc3a94a33f72c4ee2ef88b3c08960001b611f23565b616fc57ff49158ca7355c4e38bd54d737569c2a079541c4e8a323cd12bdb477ce1f3654f60001b611f23565b616ff17fd6b66d60e5511f09b2bd1851d26f91c94202caa72cd50a3bf3b84e1e7820e5bf60001b611f23565b61701d7ffc91837a84c5380f0b3036e878b01787365fe95a2b93249b8dee1f3125d9c0ee60001b611f23565b600160009054906101000a900473ffffffffffffffffffffffffffffffffffffffff1673ffffffffffffffffffffffffffffffffffffffff163373ffffffffffffffffffffffffffffffffffffffff16146170ad576040517f08c379a00000000000000000000000000000000000000000000000000000000081526004016170a490618801565b60405180910390fd5b6170d97f97244c4f1c9c19c72c53eaab35f18f4a1ba92e97d2cf8f8335ab7c6d8ba292d460001b611f23565b6171057f429990eb55a9dc690eee4b496803e1d8e281693ae5c0e9f9d9c50891cff4614f60001b611f23565b6171317fbab7a0768fa4438c3d8b1ac4fd7493808745bc61cbe0570dfa97414e9baba60660001b611f23565b61715d7f8d6157cc4a283444d277976b979bcf8587d8a71c9379358d16d581a60cb260a460001b611f23565b6171897ff506ff01fe00df8fb1f4029b68f0756ca8422c6d4b1dacd903d21e4a51f4274460001b611f23565b6171b57f4bd7910e219bc4309d95b75d07cbfd837e3ab585826227e72f174d3de488f8b560001b611f23565b600c60009054906101000a900460ff1615617205576040517f08c379a00000000000000000000000000000000000000000000000000000000081526004016171fc90618821565b60405180910390fd5b6172317fbee69997b42ae3df787fa9cf02352c255b7693140087f236d761f6da62841f4960001b611f23565b61725d7fbefcac02b6300263b4474bc10fe7d0bca980e646eefd42bfac4e4580748d8fef60001b611f23565b6172897f01d46f6e200a8b91e2eae75057db997a4a44e4bfdb2889f7bc18e179e7be1ae660001b611f23565b6172b57f379f1f3efbe656be9eb50cb980f3d9ea67e19a4d2c2a2a1a944726737374e39760001b611f23565b60011515600960009054906101000a900460ff1615151461730b576040517f08c379a000000000000000000000000000000000000000000000000000000000815260040161730290618941565b60405180910390fd5b6173377f6c1297853cd8e36f67aca9fa42b4db1e322f504a257968dea37acd491718dbee60001b611f23565b6173637faaee081a3b0ea3eb0a6f146869b7dea3f73dcd8a5dbccf9dda4ae6c6e90a579360001b611f23565b61738f7f1171de2097e868b9d9dbbfe1a9eef623323daeaa0211f26bf78bb96548fd853660001b611f23565b60005b815181101561749e576173c77f84fcdcdfa1ddde5c827de5ebb36389aea80da2810d607b8e761419cf72ea2e0a60001b611f23565b6173f37f2c083754448f6602f900ada26904e7f8c53a08107932ceed36112890379be16560001b611f23565b600160156000848481518110617432577f4e487b7100000000000000000000000000000000000000000000000000000000600052603260045260246000fd5b602002602001015173ffffffffffffffffffffffffffffffffffffffff1673ffffffffffffffffffffffffffffffffffffffff16815260200190815260200160002060006101000a81548160ff021916908315150217905550808061749690618dc1565b915050617392565b5050565b600960059054906101000a900463ffffffff1681565b600160009054906101000a900473ffffffffffffffffffffffffffffffffffffffff1681565b60035481565b6175107f27046ee01a0460d53287528939f23f7e10219629331e91ce0a42e3de7e265f3c60001b611f23565b61753c7f6bc959b7a96a89301d53e9c7ad40924c5434645898cc646151cb44c520b84f2560001b611f23565b6175687f8ea0dcce4e4024c20f4b8253a79358a886afb1f797543950feb4448ada2f931760001b611f23565b6175947f5a1e93ffd3abf16bf5e25536a5bb26d8cdd32917db7714ba81dcee3941e470ae60001b611f23565b60011515600c60039054906101000a900460ff1615151415806176045750600160009054906101000a900473ffffffffffffffffffffffffffffffffffffffff1673ffffffffffffffffffffffffffffffffffffffff163373ffffffffffffffffffffffffffffffffffffffff16145b617643576040517f08c379a000000000000000000000000000000000000000000000000000000000815260040161763a906186a1565b60405180910390fd5b61766f7f3d061513d293947ab12f99b955c4bdc053f1721e4f3d9c376ede18f71514fa1c60001b611f23565b61769b7fdfefb60ccc0c52af68878c1f60b4a08976c1e5463b5f792f6f704b29ca302a3060001b611f23565b6176c77f4f093d2aeaa4338fb95d7d424c1784c0ab442b2e06c98fa697936e9529f1173c60001b611f23565b80600b90805190602001906176dd929190617af2565b5061770a7f79e2456d7673a689f7145e61b8dbd20823434b1e43fc6ef18740cdb4c908679a60001b611f23565b6177367ff0a025fbc7fc8bd2641cb41504f7ea2fded6b2ee6cdb28960ce550b94651ba9460001b611f23565b806040516177449190618537565b60405180910390207f09f579b21815d3f81581d32e97736ccba1cc89d1918e48da28e6e206acd9686460405160405180910390a250565b6177a77fe3d51c8393d13ad6e7e4a231b680426c6cd29a0cffa81b844f273a672f08121b60001b611f23565b6177d37f138d75ef478506005d9bd909d21044e3290e25650883281f8feb06e85a3413e560001b611f23565b6177ff7f4a7dea037f35ac3dfe6f99b5bd160e781903af80f990e6fcb61d67d4d02c7b5160001b611f23565b61782b7f5f891c7397dd2e7aec968cfdab8e989271d554bc14190fc09f12bb448d6555ee60001b611f23565b600960019054906101000a900463ffffffff1663ffffffff16831015617886576040517f08c379a000000000000000000000000000000000000000000000000000000000815260040161787d90618721565b60405180910390fd5b6178b27fa64972bf1bd1e70348d7af3d70daf69170a288ec3d22b40515f5725a7189540460001b611f23565b6178de7f8510d7e2614e2c5de332e6c0a3a30a93cabef7309bde29c2c6d06fb26c7ccebd60001b611f23565b61790a7fe1aacd1c7f55c22a167df1efcd9857249ead71d9af756e0aa6fccfc9e297fcac60001b611f23565b6000601660008673ffffffffffffffffffffffffffffffffffffffff1673ffffffffffffffffffffffffffffffffffffffff1681526020019081526020016000206000015414156179ca576179817f622029f10c7f878f66d417840040168feb5f615663e456f16d146952793a34c660001b611f23565b6179ad7ff212496fe98b5a37ab330226a192e44203d43bdc05c9a17140f04dada58363e460001b611f23565b600e60008154809291906179c090618dc1565b91905055506179f7565b6179f67f68e06d0c1b8ef2e9d13b2e2538dce7972ba7f52f9e5fc3225f51d85d52e6726460001b611f23565b5b617a237f885927885867fa120da4d3e13af6d060a733c20baa6176caa77d250d9244fda960001b611f23565b617a4f7f0c575198cc42bf3fd662b43d327dd1f9fc15688f4c660a970234bc5d73b3708b60001b611f23565b6040518060a00160405280848152602001600081526020018381526020018281526020016000815250601660008673ffffffffffffffffffffffffffffffffffffffff1673ffffffffffffffffffffffffffffffffffffffff168152602001908152602001600020600082015181600001556020820151816001015560408201518160020155606082015181600301556080820151816004015590505050505050565b828054617afe90618d5e565b90600052602060002090601f016020900481019282617b205760008555617b67565b82601f10617b3957805160ff1916838001178555617b67565b82800160010185558215617b67579182015b82811115617b66578251825591602001919060010190617b4b565b5b509050617b749190617b78565b5090565b5b80821115617b91576000816000905550600101617b79565b5090565b6000617ba8617ba384618ab3565b618a8e565b90508083825260208201905082856020860282011115617bc757600080fd5b60005b85811015617bf75781617bdd8882617cab565b845260208401935060208301925050600181019050617bca565b5050509392505050565b6000617c14617c0f84618adf565b618a8e565b90508083825260208201905082856020860282011115617c3357600080fd5b60005b85811015617c635781617c498882617d7d565b845260208401935060208301925050600181019050617c36565b5050509392505050565b6000617c80617c7b84618b0b565b618a8e565b905082815260208101848484011115617c9857600080fd5b617ca3848285618d1c565b509392505050565b600081359050617cba81619628565b92915050565b600082601f830112617cd157600080fd5b8135617ce1848260208601617b95565b91505092915050565b600082601f830112617cfb57600080fd5b8135617d0b848260208601617c01565b91505092915050565b600081359050617d238161963f565b92915050565b600081519050617d388161963f565b92915050565b600081359050617d4d81619656565b92915050565b600082601f830112617d6457600080fd5b8135617d74848260208601617c6d565b91505092915050565b600081359050617d8c8161966d565b92915050565b600081519050617da18161966d565b92915050565b600081359050617db681619684565b92915050565b600081359050617dcb8161969b565b92915050565b600060208284031215617de357600080fd5b6000617df184828501617cab565b91505092915050565b60008060008060008060008060008060006101608c8e031215617e1c57600080fd5b6000617e2a8e828f01617cab565b9b50506020617e3b8e828f01617cab565b9a505060408c013567ffffffffffffffff811115617e5857600080fd5b617e648e828f01617cc0565b99505060608c013567ffffffffffffffff811115617e8157600080fd5b617e8d8e828f01617cea565b9850506080617e9e8e828f01617d7d565b97505060a0617eaf8e828f01617d7d565b96505060c0617ec08e828f01617d7d565b95505060e0617ed18e828f01617da7565b945050610100617ee38e828f01617da7565b935050610120617ef58e828f01617d14565b925050610140617f078e828f01617dbc565b9150509295989b509295989b9093969950565b60008060408385031215617f2d57600080fd5b6000617f3b85828601617cab565b9250506020617f4c85828601617d7d565b9150509250929050565b600060208284031215617f6857600080fd5b600082013567ffffffffffffffff811115617f8257600080fd5b617f8e84828501617cc0565b91505092915050565b600060208284031215617fa957600080fd5b6000617fb784828501617d29565b91505092915050565b600060208284031215617fd257600080fd5b6000617fe084828501617d3e565b91505092915050565b600060208284031215617ffb57600080fd5b600082013567ffffffffffffffff81111561801557600080fd5b61802184828501617d53565b91505092915050565b60006020828403121561803c57600080fd5b600061804a84828501617d7d565b91505092915050565b60006020828403121561806557600080fd5b600061807384828501617d92565b91505092915050565b61808581618c89565b82525050565b61809481618c9b565b82525050565b60006180a582618b3c565b6180af8185618b47565b93506180bf818560208601618d2b565b6180c881618ec6565b840191505092915050565b60006180de82618b3c565b6180e88185618b58565b93506180f8818560208601618d2b565b80840191505092915050565b61810d81618cf8565b82525050565b6000618120601d83618b63565b915061812b82618ed7565b602082019050919050565b6000618143602e83618b63565b915061814e82618f00565b604082019050919050565b6000618166603083618b63565b915061817182618f4f565b604082019050919050565b6000618189602a83618b63565b915061819482618f9e565b604082019050919050565b60006181ac604283618b63565b91506181b782618fed565b606082019050919050565b60006181cf602b83618b63565b91506181da82619062565b604082019050919050565b60006181f2602d83618b63565b91506181fd826190b1565b604082019050919050565b6000618215603b83618b63565b915061822082619100565b604082019050919050565b6000618238601f83618b63565b91506182438261914f565b602082019050919050565b600061825b603083618b63565b915061826682619178565b604082019050919050565b600061827e601a83618b63565b9150618289826191c7565b602082019050919050565b60006182a1603d83618b63565b91506182ac826191f0565b604082019050919050565b60006182c4602083618b63565b91506182cf8261923f565b602082019050919050565b60006182e7601683618b63565b91506182f282619268565b602082019050919050565b600061830a602983618b63565b915061831582619291565b604082019050919050565b600061832d601c83618b63565b9150618338826192e0565b602082019050919050565b6000618350601a83618b63565b915061835b82619309565b602082019050919050565b6000618373602d83618b63565b915061837e82619332565b604082019050919050565b6000618396602a83618b63565b91506183a182619381565b604082019050919050565b60006183b9602283618b63565b91506183c4826193d0565b604082019050919050565b60006183dc601a83618b63565b91506183e78261941f565b602082019050919050565b60006183ff602783618b63565b915061840a82619448565b604082019050919050565b6000618422602283618b63565b915061842d82619497565b604082019050919050565b6000618445602383618b63565b9150618450826194e6565b604082019050919050565b6000618468601983618b63565b915061847382619535565b602082019050919050565b600061848b601d83618b63565b91506184968261955e565b602082019050919050565b60006184ae602483618b63565b91506184b982619587565b604082019050919050565b60006184d1601b83618b63565b91506184dc826195d6565b602082019050919050565b60006184f4601983618b63565b91506184ff826195ff565b602082019050919050565b61851381618cd1565b82525050565b61852281618cdb565b82525050565b61853181618ceb565b82525050565b600061854382846180d3565b915081905092915050565b6000602082019050618563600083018461807c565b92915050565b600060608201905061857e600083018661807c565b61858b602083018561807c565b618598604083018461850a565b949350505050565b60006040820190506185b5600083018561807c565b6185c2602083018461850a565b9392505050565b60006020820190506185de600083018461808b565b92915050565b600060208201905081810360008301526185fe818461809a565b905092915050565b600060208201905061861b6000830184618104565b92915050565b6000602082019050818103600083015261863a81618113565b9050919050565b6000602082019050818103600083015261865a81618136565b9050919050565b6000602082019050818103600083015261867a81618159565b9050919050565b6000602082019050818103600083015261869a8161817c565b9050919050565b600060208201905081810360008301526186ba8161819f565b9050919050565b600060208201905081810360008301526186da816181c2565b9050919050565b600060208201905081810360008301526186fa816181e5565b9050919050565b6000602082019050818103600083015261871a81618208565b9050919050565b6000602082019050818103600083015261873a8161822b565b9050919050565b6000602082019050818103600083015261875a8161824e565b9050919050565b6000602082019050818103600083015261877a81618271565b9050919050565b6000602082019050818103600083015261879a81618294565b9050919050565b600060208201905081810360008301526187ba816182b7565b9050919050565b600060208201905081810360008301526187da816182da565b9050919050565b600060208201905081810360008301526187fa816182fd565b9050919050565b6000602082019050818103600083015261881a81618320565b9050919050565b6000602082019050818103600083015261883a81618343565b9050919050565b6000602082019050818103600083015261885a81618366565b9050919050565b6000602082019050818103600083015261887a81618389565b9050919050565b6000602082019050818103600083015261889a816183ac565b9050919050565b600060208201905081810360008301526188ba816183cf565b9050919050565b600060208201905081810360008301526188da816183f2565b9050919050565b600060208201905081810360008301526188fa81618415565b9050919050565b6000602082019050818103600083015261891a81618438565b9050919050565b6000602082019050818103600083015261893a8161845b565b9050919050565b6000602082019050818103600083015261895a8161847e565b9050919050565b6000602082019050818103600083015261897a816184a1565b9050919050565b6000602082019050818103600083015261899a816184c4565b9050919050565b600060208201905081810360008301526189ba816184e7565b9050919050565b60006020820190506189d6600083018461850a565b92915050565b60006040820190506189f1600083018561850a565b6189fe602083018461850a565b9392505050565b600060a082019050618a1a600083018861850a565b618a27602083018761850a565b618a34604083018661850a565b618a41606083018561850a565b618a4e608083018461850a565b9695505050505050565b6000602082019050618a6d6000830184618519565b92915050565b6000602082019050618a886000830184618528565b92915050565b6000618a98618aa9565b9050618aa48282618d90565b919050565b6000604051905090565b600067ffffffffffffffff821115618ace57618acd618e97565b5b602082029050602081019050919050565b600067ffffffffffffffff821115618afa57618af9618e97565b5b602082029050602081019050919050565b600067ffffffffffffffff821115618b2657618b25618e97565b5b618b2f82618ec6565b9050602081019050919050565b600081519050919050565b600082825260208201905092915050565b600081905092915050565b600082825260208201905092915050565b6000618b7f82618cd1565b9150618b8a83618cd1565b9250827fffffffffffffffffffffffffffffffffffffffffffffffffffffffffffffffff03821115618bbf57618bbe618e0a565b5b828201905092915050565b6000618bd582618cd1565b9150618be083618cd1565b925082618bf057618bef618e39565b5b828204905092915050565b6000618c0682618cd1565b9150618c1183618cd1565b9250817fffffffffffffffffffffffffffffffffffffffffffffffffffffffffffffffff0483118215151615618c4a57618c49618e0a565b5b828202905092915050565b6000618c6082618cd1565b9150618c6b83618cd1565b925082821015618c7e57618c7d618e0a565b5b828203905092915050565b6000618c9482618cb1565b9050919050565b60008115159050919050565b6000819050919050565b600073ffffffffffffffffffffffffffffffffffffffff82169050919050565b6000819050919050565b600063ffffffff82169050919050565b600060ff82169050919050565b6000618d0382618d0a565b9050919050565b6000618d1582618cb1565b9050919050565b82818337600083830152505050565b60005b83811015618d49578082015181840152602081019050618d2e565b83811115618d58576000848401525b50505050565b60006002820490506001821680618d7657607f821691505b60208210811415618d8a57618d89618e68565b5b50919050565b618d9982618ec6565b810181811067ffffffffffffffff82111715618db857618db7618e97565b5b80604052505050565b6000618dcc82618cd1565b91507fffffffffffffffffffffffffffffffffffffffffffffffffffffffffffffffff821415618dff57618dfe618e0a565b5b600182019050919050565b7f4e487b7100000000000000000000000000000000000000000000000000000000600052601160045260246000fd5b7f4e487b7100000000000000000000000000000000000000000000000000000000600052601260045260246000fd5b7f4e487b7100000000000000000000000000000000000000000000000000000000600052602260045260246000fd5b7f4e487b7100000000000000000000000000000000000000000000000000000000600052604160045260246000fd5b6000601f19601f8301169050919050565b7f536565643a206d6178696d756d2066756e64696e672072656163686564000000600082015250565b7f536565643a20726571756573742069732067726561746572207468616e20636c60008201527f61696d61626c6520616d6f756e74000000000000000000000000000000000000602082015250565b7f53656564466163746f72793a20686172644361702063616e6e6f74206265206c60008201527f657373207468616e20736f667443617000000000000000000000000000000000602082015250565b7f536565643a20616d6f756e74206578636565647320636f6e747261637420736160008201527f6c65206861726443617000000000000000000000000000000000000000000000602082015250565b7f536565643a20636f6e74726163742073686f756c64206e6f7420626520696e6960008201527f7469616c697a6564206f722063616c6c65722073686f756c642062652061646d60208201527f696e000000000000000000000000000000000000000000000000000000000000604082015250565b7f536565643a2074686520646973747269627574696f6e20686173206e6f74207960008201527f65742066696e6973686564000000000000000000000000000000000000000000602082015250565b7f53656564466163746f72793a2073656564546f6b656e2063616e6e6f7420626560008201527f2066756e64696e67546f6b656e00000000000000000000000000000000000000602082015250565b7f53656564466163746f72793a20656e6454696d652063616e6e6f74206265206c60008201527f657373207468616e20657175616c20746f20737461727454696d650000000000602082015250565b7f536565643a20616d6f756e745665737465645065725365636f6e64203e203000600082015250565b7f536565643a2063616e6e6f742072657475726e2066756e64696e6720746f6b6560008201527f6e7320746f206d73672e73656e64657200000000000000000000000000000000602082015250565b7f536565643a2073656e64657220686173206e6f20726967687473000000000000600082015250565b7f53656564466163746f72793a2076657374696e674475726174696f6e2063616e60008201527f6e6f74206265206c657373207468616e2076657374696e67436c696666000000602082015250565b7f536565643a207365656420746f6b656e207472616e73666572206661696c6564600082015250565b7f536565643a2073686f756c642062652070617573656400000000000000000000600082015250565b7f536565643a207365656420646973747269627574696f6e20776f756c6420626560008201527f2065786365656465640000000000000000000000000000000000000000000000602082015250565b7f536565643a2063616c6c65722073686f756c642062652061646d696e00000000600082015250565b7f536565643a2073686f756c64206e6f7420626520636c6f736564000000000000600082015250565b7f536565643a206f6e6c7920616c6c6f77656420647572696e672064697374726960008201527f627574696f6e20706572696f6400000000000000000000000000000000000000602082015250565b7f536565643a2073686f756c64207472616e73666572207365656420746f6b656e60008201527f7320746f2061646d696e00000000000000000000000000000000000000000000602082015250565b7f536565643a20636f6e747261637420616c726561647920696e697469616c697a60008201527f6564000000000000000000000000000000000000000000000000000000000000602082015250565b7f536565643a2073686f756c64206e6f7420626520706175736564000000000000600082015250565b7f536565643a2066756e64696e6720746f6b656e207472616e7366657246726f6d60008201527f206661696c656400000000000000000000000000000000000000000000000000602082015250565b7f536565643a20646973747269627574696f6e20686176656e277420737461727460008201527f6564000000000000000000000000000000000000000000000000000000000000602082015250565b7f536565643a2073756666696369656e74207365656473206e6f742070726f766960008201527f6465640000000000000000000000000000000000000000000000000000000000602082015250565b7f536565643a206d696e696d756d20616c7265616479206d657400000000000000600082015250565b7f536565643a2073656564206973206e6f742077686974656c6973746564000000600082015250565b7f536565643a206d696e696d756d2066756e64696e6720616d6f756e74206e6f7460008201527f206d657400000000000000000000000000000000000000000000000000000000602082015250565b7f536565643a20616d6f756e7420636c61696d61626c6520697320300000000000600082015250565b7f536565643a207a65726f2066756e64696e6720616d6f756e7400000000000000600082015250565b61963181618c89565b811461963c57600080fd5b50565b61964881618c9b565b811461965357600080fd5b50565b61965f81618ca7565b811461966a57600080fd5b50565b61967681618cd1565b811461968157600080fd5b50565b61968d81618cdb565b811461969857600080fd5b50565b6196a481618ceb565b81146196af57600080fd5b5056fea264697066735822122076ce0ff90e758ff08f51b955942ab05e695c73c5bb55e73f9d765816c1540d9b64736f6c63430008040033",
  "linkReferences": {},
  "deployedLinkReferences": {}
}