{
  "_format": "hh-sol-artifact-1",
  "contractName": "Seed",
  "sourceName": "contracts/seed/Seed.sol",
  "abi": [
    {
      "anonymous": false,
      "inputs": [
        {
          "indexed": true,
          "internalType": "address",
          "name": "recipient",
          "type": "address"
        },
        {
          "indexed": false,
          "internalType": "uint256",
          "name": "amountReclaimed",
          "type": "uint256"
        }
      ],
      "name": "FundingReclaimed",
      "type": "event"
    },
    {
      "anonymous": false,
      "inputs": [
        {
          "indexed": true,
          "internalType": "bytes32",
          "name": "metadata",
          "type": "bytes32"
        }
      ],
      "name": "MetadataUpdated",
      "type": "event"
    },
    {
      "anonymous": false,
      "inputs": [
        {
          "indexed": true,
          "internalType": "address",
          "name": "recipient",
          "type": "address"
        },
        {
          "indexed": false,
          "internalType": "uint256",
          "name": "amountPurchased",
          "type": "uint256"
        }
      ],
      "name": "SeedsPurchased",
      "type": "event"
    },
    {
      "anonymous": false,
      "inputs": [
        {
          "indexed": true,
          "internalType": "address",
          "name": "recipient",
          "type": "address"
        },
        {
          "indexed": false,
          "internalType": "uint256",
          "name": "amount",
          "type": "uint256"
        },
        {
          "indexed": true,
          "internalType": "address",
          "name": "beneficiary",
          "type": "address"
        },
        {
          "indexed": false,
          "internalType": "uint256",
          "name": "feeAmount",
          "type": "uint256"
        }
      ],
      "name": "TokensClaimed",
      "type": "event"
    },
    {
      "inputs": [],
      "name": "admin",
      "outputs": [
        {
          "internalType": "address",
          "name": "",
          "type": "address"
        }
      ],
      "stateMutability": "view",
      "type": "function"
    },
    {
      "inputs": [],
      "name": "beneficiary",
      "outputs": [
        {
          "internalType": "address",
          "name": "",
          "type": "address"
        }
      ],
      "stateMutability": "view",
      "type": "function"
    },
    {
      "inputs": [
        {
          "internalType": "uint256",
          "name": "_fundingAmount",
          "type": "uint256"
        }
      ],
      "name": "buy",
      "outputs": [
        {
          "internalType": "uint256",
          "name": "",
          "type": "uint256"
        },
        {
          "internalType": "uint256",
          "name": "",
          "type": "uint256"
        }
      ],
      "stateMutability": "nonpayable",
      "type": "function"
    },
    {
      "inputs": [
        {
          "internalType": "address",
          "name": "_funder",
          "type": "address"
        }
      ],
      "name": "calculateClaim",
      "outputs": [
        {
          "internalType": "uint256",
          "name": "",
          "type": "uint256"
        }
      ],
      "stateMutability": "view",
      "type": "function"
    },
    {
      "inputs": [
        {
          "internalType": "address",
          "name": "_buyer",
          "type": "address"
        }
      ],
      "name": "checkWhitelisted",
      "outputs": [
        {
          "internalType": "bool",
          "name": "",
          "type": "bool"
        }
      ],
      "stateMutability": "view",
      "type": "function"
    },
    {
      "inputs": [
        {
          "internalType": "address",
          "name": "_funder",
          "type": "address"
        },
        {
          "internalType": "uint256",
          "name": "_claimAmount",
          "type": "uint256"
        }
      ],
      "name": "claim",
      "outputs": [
        {
          "internalType": "uint256",
          "name": "",
          "type": "uint256"
        },
        {
          "internalType": "uint256",
          "name": "",
          "type": "uint256"
        }
      ],
      "stateMutability": "nonpayable",
      "type": "function"
    },
    {
      "inputs": [],
      "name": "close",
      "outputs": [],
      "stateMutability": "nonpayable",
      "type": "function"
    },
    {
      "inputs": [],
      "name": "closed",
      "outputs": [
        {
          "internalType": "bool",
          "name": "",
          "type": "bool"
        }
      ],
      "stateMutability": "view",
      "type": "function"
    },
    {
      "inputs": [],
      "name": "endTime",
      "outputs": [
        {
          "internalType": "uint256",
          "name": "",
          "type": "uint256"
        }
      ],
      "stateMutability": "view",
      "type": "function"
    },
    {
      "inputs": [],
      "name": "fee",
      "outputs": [
        {
          "internalType": "uint8",
          "name": "",
          "type": "uint8"
        }
      ],
      "stateMutability": "view",
      "type": "function"
    },
    {
      "inputs": [],
      "name": "feeAmountRequired",
      "outputs": [
        {
          "internalType": "uint256",
          "name": "",
          "type": "uint256"
        }
      ],
      "stateMutability": "view",
      "type": "function"
    },
    {
      "inputs": [],
      "name": "feeClaimed",
      "outputs": [
        {
          "internalType": "uint256",
          "name": "",
          "type": "uint256"
        }
      ],
      "stateMutability": "view",
      "type": "function"
    },
    {
      "inputs": [],
      "name": "feeRemainder",
      "outputs": [
        {
          "internalType": "uint256",
          "name": "",
          "type": "uint256"
        }
      ],
      "stateMutability": "view",
      "type": "function"
    },
    {
      "inputs": [
        {
          "internalType": "address",
          "name": "",
          "type": "address"
        }
      ],
      "name": "funders",
      "outputs": [
        {
          "internalType": "uint256",
          "name": "seedAmount",
          "type": "uint256"
        },
        {
          "internalType": "uint256",
          "name": "totalClaimed",
          "type": "uint256"
        },
        {
          "internalType": "uint256",
          "name": "fundingAmount",
          "type": "uint256"
        },
        {
          "internalType": "uint256",
          "name": "fee",
          "type": "uint256"
        },
        {
          "internalType": "uint256",
          "name": "feeClaimed",
          "type": "uint256"
        }
      ],
      "stateMutability": "view",
      "type": "function"
    },
    {
      "inputs": [],
      "name": "fundingCollected",
      "outputs": [
        {
          "internalType": "uint256",
          "name": "",
          "type": "uint256"
        }
      ],
      "stateMutability": "view",
      "type": "function"
    },
    {
      "inputs": [],
      "name": "fundingToken",
      "outputs": [
        {
          "internalType": "contract IERC20",
          "name": "",
          "type": "address"
        }
      ],
      "stateMutability": "view",
      "type": "function"
    },
    {
      "inputs": [],
      "name": "fundingWithdrawn",
      "outputs": [
        {
          "internalType": "uint256",
          "name": "",
          "type": "uint256"
        }
      ],
      "stateMutability": "view",
      "type": "function"
    },
    {
      "inputs": [],
      "name": "hardCap",
      "outputs": [
        {
          "internalType": "uint256",
          "name": "",
          "type": "uint256"
        }
      ],
      "stateMutability": "view",
      "type": "function"
    },
    {
      "inputs": [
        {
          "internalType": "address",
          "name": "_beneficiary",
          "type": "address"
        },
        {
          "internalType": "address",
          "name": "_admin",
          "type": "address"
        },
        {
          "internalType": "address[]",
          "name": "_tokens",
          "type": "address[]"
        },
        {
          "internalType": "uint256[]",
          "name": "_softHardThresholds",
          "type": "uint256[]"
        },
        {
          "internalType": "uint256[]",
          "name": "_endStartTime",
          "type": "uint256[]"
        },
        {
          "internalType": "uint256",
          "name": "_price",
          "type": "uint256"
        },
        {
          "internalType": "uint32",
          "name": "_vestingDuration",
          "type": "uint32"
        },
        {
          "internalType": "uint32",
          "name": "_vestingCliff",
          "type": "uint32"
        },
        {
          "internalType": "bool",
          "name": "_permissionedSeed",
          "type": "bool"
        },
        {
          "internalType": "uint8",
          "name": "_fee",
          "type": "uint8"
        }
      ],
      "name": "initialize",
      "outputs": [],
      "stateMutability": "nonpayable",
      "type": "function"
    },
    {
      "inputs": [],
      "name": "initialized",
      "outputs": [
        {
          "internalType": "bool",
          "name": "",
          "type": "bool"
        }
      ],
      "stateMutability": "view",
      "type": "function"
    },
    {
      "inputs": [],
      "name": "isFunded",
      "outputs": [
        {
          "internalType": "bool",
          "name": "",
          "type": "bool"
        }
      ],
      "stateMutability": "view",
      "type": "function"
    },
    {
      "inputs": [],
      "name": "maximumReached",
      "outputs": [
        {
          "internalType": "bool",
          "name": "",
          "type": "bool"
        }
      ],
      "stateMutability": "view",
      "type": "function"
    },
    {
      "inputs": [],
      "name": "metadata",
      "outputs": [
        {
          "internalType": "bytes32",
          "name": "",
          "type": "bytes32"
        }
      ],
      "stateMutability": "view",
      "type": "function"
    },
    {
      "inputs": [],
      "name": "minimumReached",
      "outputs": [
        {
          "internalType": "bool",
          "name": "",
          "type": "bool"
        }
      ],
      "stateMutability": "view",
      "type": "function"
    },
    {
      "inputs": [],
      "name": "pause",
      "outputs": [],
      "stateMutability": "nonpayable",
      "type": "function"
    },
    {
      "inputs": [],
      "name": "paused",
      "outputs": [
        {
          "internalType": "bool",
          "name": "",
          "type": "bool"
        }
      ],
      "stateMutability": "view",
      "type": "function"
    },
    {
      "inputs": [],
      "name": "permissionedSeed",
      "outputs": [
        {
          "internalType": "bool",
          "name": "",
          "type": "bool"
        }
      ],
      "stateMutability": "view",
      "type": "function"
    },
    {
      "inputs": [],
      "name": "price",
      "outputs": [
        {
          "internalType": "uint256",
          "name": "",
          "type": "uint256"
        }
      ],
      "stateMutability": "view",
      "type": "function"
    },
    {
      "inputs": [],
      "name": "retrieveFundingTokens",
      "outputs": [
        {
          "internalType": "uint256",
          "name": "",
          "type": "uint256"
        }
      ],
      "stateMutability": "nonpayable",
      "type": "function"
    },
    {
      "inputs": [],
      "name": "seedAmountRequired",
      "outputs": [
        {
          "internalType": "uint256",
          "name": "",
          "type": "uint256"
        }
      ],
      "stateMutability": "view",
      "type": "function"
    },
    {
      "inputs": [],
      "name": "seedClaimed",
      "outputs": [
        {
          "internalType": "uint256",
          "name": "",
          "type": "uint256"
        }
      ],
      "stateMutability": "view",
      "type": "function"
    },
    {
      "inputs": [],
      "name": "seedRemainder",
      "outputs": [
        {
          "internalType": "uint256",
          "name": "",
          "type": "uint256"
        }
      ],
      "stateMutability": "view",
      "type": "function"
    },
    {
      "inputs": [],
      "name": "seedToken",
      "outputs": [
        {
          "internalType": "contract IERC20",
          "name": "",
          "type": "address"
        }
      ],
      "stateMutability": "view",
      "type": "function"
    },
    {
      "inputs": [],
      "name": "softCap",
      "outputs": [
        {
          "internalType": "uint256",
          "name": "",
          "type": "uint256"
        }
      ],
      "stateMutability": "view",
      "type": "function"
    },
    {
      "inputs": [],
      "name": "startTime",
      "outputs": [
        {
          "internalType": "uint256",
          "name": "",
          "type": "uint256"
        }
      ],
      "stateMutability": "view",
      "type": "function"
    },
    {
      "inputs": [],
      "name": "totalFunderCount",
      "outputs": [
        {
          "internalType": "uint256",
          "name": "",
          "type": "uint256"
        }
      ],
      "stateMutability": "view",
      "type": "function"
    },
    {
      "inputs": [],
      "name": "unpause",
      "outputs": [],
      "stateMutability": "nonpayable",
      "type": "function"
    },
    {
      "inputs": [
        {
          "internalType": "address",
          "name": "buyer",
          "type": "address"
        }
      ],
      "name": "unwhitelist",
      "outputs": [],
      "stateMutability": "nonpayable",
      "type": "function"
    },
    {
      "inputs": [
        {
          "internalType": "bytes32",
          "name": "_metadata",
          "type": "bytes32"
        }
      ],
      "name": "updateMetadata",
      "outputs": [],
      "stateMutability": "nonpayable",
      "type": "function"
    },
    {
      "inputs": [],
      "name": "vestingCliff",
      "outputs": [
        {
          "internalType": "uint32",
          "name": "",
          "type": "uint32"
        }
      ],
      "stateMutability": "view",
      "type": "function"
    },
    {
      "inputs": [],
      "name": "vestingDuration",
      "outputs": [
        {
          "internalType": "uint32",
          "name": "",
          "type": "uint32"
        }
      ],
      "stateMutability": "view",
      "type": "function"
    },
    {
      "inputs": [
        {
          "internalType": "address",
          "name": "_buyer",
          "type": "address"
        }
      ],
      "name": "whitelist",
      "outputs": [],
      "stateMutability": "nonpayable",
      "type": "function"
    },
    {
      "inputs": [
        {
          "internalType": "address[]",
          "name": "_buyers",
          "type": "address[]"
        }
      ],
      "name": "whitelistBatch",
      "outputs": [],
      "stateMutability": "nonpayable",
      "type": "function"
    },
    {
      "inputs": [
        {
          "internalType": "address",
          "name": "",
          "type": "address"
        }
      ],
      "name": "whitelisted",
      "outputs": [
        {
          "internalType": "bool",
          "name": "",
          "type": "bool"
        }
      ],
      "stateMutability": "view",
      "type": "function"
    },
    {
      "inputs": [],
      "name": "withdraw",
      "outputs": [],
      "stateMutability": "nonpayable",
      "type": "function"
    }
  ],
  "bytecode": "0x608060405234801561001057600080fd5b50614912806100206000396000f3fe608060405234801561001057600080fd5b506004361061027f5760003560e01c806378e979251161015c578063bc0f5f84116100ce578063ea34554011610087578063ea34554014610720578063eaa5352314610750578063ed4587ce1461076c578063f3640e7414610788578063f851a440146107a6578063fb86a404146107c45761027f565b8063bc0f5f8414610647578063d936547e14610665578063d96a094a14610695578063ddca3f43146106c6578063e565eb4c146106e4578063e6e36ebb146107025761027f565b8063906a26e011610120578063906a26e0146105845780639a590427146105a25780639b19251a146105be578063a035b1fe146105da578063aad3ec96146105f8578063b774682f146106295761027f565b806378e97925146105025780637c6543031461052057806383d59e001461053e5780638456cb591461055c5780638a2448aa146105665761027f565b80633ccfd60b116101f55780634f2d7778116101b95780634f2d777814610450578063597e1fb51461046c5780635c975abb1461048a5780635e9777e8146104a857806371f4b8e8146104c657806378065f27146104e45761027f565b80633ccfd60b146103f65780633dba9e41146104005780633f4ba83a1461041e57806343d726d61461042857806347d02f1b146104325761027f565b80631cfe562e116102475780631cfe562e1461033057806320d8dad01461034e578063311f84831461037e5780633197cbb61461039c57806338af3eed146103ba578063392f37e9146103d85761027f565b8063031b3677146102845780630826d2c7146102b8578063117a36d1146102d65780631514617e146102f4578063158ef93e14610312575b600080fd5b61029e600480360381019061029991906133f5565b6107e2565b6040516102af959493929190613e66565b60405180910390f35b6102c0610818565b6040516102cd9190613e22565b60405180910390f35b6102de61081e565b6040516102eb9190613ab1565b60405180910390f35b6102fc610831565b6040516103099190613eb9565b60405180910390f35b61031a610847565b6040516103279190613ab1565b60405180910390f35b61033861085a565b6040516103459190613e22565b60405180910390f35b610368600480360381019061036391906133f5565b610860565b6040516103759190613ab1565b60405180910390f35b6103866108b6565b6040516103939190613ae7565b60405180910390f35b6103a46108da565b6040516103b19190613e22565b60405180910390f35b6103c26108e0565b6040516103cf9190613a36565b60405180910390f35b6103e0610904565b6040516103ed9190613acc565b60405180910390f35b6103fe61090a565b005b610408610b6e565b6040516104159190613ab1565b60405180910390f35b610426610b81565b005b610430610cdb565b005b61043a6110c7565b6040516104479190613e22565b60405180910390f35b61046a600480360381019061046591906135e7565b6110cd565b005b6104746111b3565b6040516104819190613ab1565b60405180910390f35b6104926111c6565b60405161049f9190613ab1565b60405180910390f35b6104b06111d9565b6040516104bd9190613e22565b60405180910390f35b6104ce6111df565b6040516104db9190613e22565b60405180910390f35b6104ec6111e5565b6040516104f99190613ae7565b60405180910390f35b61050a61120b565b6040516105179190613e22565b60405180910390f35b610528611211565b6040516105359190613ab1565b60405180910390f35b610546611224565b6040516105539190613e22565b60405180910390f35b61056461122a565b005b61056e611385565b60405161057b9190613e22565b60405180910390f35b61058c6117a5565b6040516105999190613e22565b60405180910390f35b6105bc60048036038101906105b791906133f5565b6117ab565b005b6105d860048036038101906105d391906133f5565b61199a565b005b6105e2611b89565b6040516105ef9190613e22565b60405180910390f35b610612600480360381019061060d9190613541565b611b8f565b604051610620929190613e3d565b60405180910390f35b6106316120ea565b60405161063e9190613e22565b60405180910390f35b61064f6120f0565b60405161065c9190613e22565b60405180910390f35b61067f600480360381019061067a91906133f5565b6120f6565b60405161068c9190613ab1565b60405180910390f35b6106af60048036038101906106aa9190613610565b612116565b6040516106bd929190613e3d565b60405180910390f35b6106ce612896565b6040516106db9190613ed4565b60405180910390f35b6106ec6128a9565b6040516106f99190613ab1565b60405180910390f35b61070a6128bc565b6040516107179190613e22565b60405180910390f35b61073a600480360381019061073591906133f5565b6128c2565b6040516107479190613e22565b60405180910390f35b61076a6004803603810190610765919061357d565b612a1b565b005b6107866004803603810190610781919061341e565b612c6a565b005b6107906130b0565b60405161079d9190613eb9565b60405180910390f35b6107ae6130c6565b6040516107bb9190613a36565b60405180910390f35b6107cc6130ec565b6040516107d99190613e22565b60405180910390f35b60156020528060005260406000206000915090508060000154908060010154908060020154908060030154908060040154905085565b600e5481565b600c60059054906101000a900460ff1681565b600960019054906101000a900463ffffffff1681565b600c60039054906101000a900460ff1681565b60125481565b6000601460008373ffffffffffffffffffffffffffffffffffffffff1673ffffffffffffffffffffffffffffffffffffffff16815260200190815260200160002060009054906101000a900460ff169050919050565b60098054906101000a900473ffffffffffffffffffffffffffffffffffffffff1681565b60085481565b60008054906101000a900473ffffffffffffffffffffffffffffffffffffffff1681565b600b5481565b600160009054906101000a900473ffffffffffffffffffffffffffffffffffffffff1673ffffffffffffffffffffffffffffffffffffffff163373ffffffffffffffffffffffffffffffffffffffff161461099a576040517f08c379a000000000000000000000000000000000000000000000000000000000815260040161099190613c42565b60405180910390fd5b60011515600c60019054906101000a900460ff16151514156109f1576040517f08c379a00000000000000000000000000000000000000000000000000000000081526004016109e890613d02565b60405180910390fd5b60011515600c60009054906101000a900460ff1615151415610a48576040517f08c379a0000000000000000000000000000000000000000000000000000000008152600401610a3f90613c62565b60405180910390fd5b60011515600c60049054906101000a900460ff16151514610a9e576040517f08c379a0000000000000000000000000000000000000000000000000000000008152600401610a9590613da2565b60405180910390fd5b6000601354601254610ab0919061405e565b9050601254601381905550600a60009054906101000a900473ffffffffffffffffffffffffffffffffffffffff1673ffffffffffffffffffffffffffffffffffffffff1663a9059cbb33836040518363ffffffff1660e01b8152600401610b18929190613a88565b602060405180830381600087803b158015610b3257600080fd5b505af1158015610b46573d6000803e3d6000fd5b505050506040513d601f19601f82011682018060405250810190610b6a91906135be565b5050565b600960009054906101000a900460ff1681565b600160009054906101000a900473ffffffffffffffffffffffffffffffffffffffff1673ffffffffffffffffffffffffffffffffffffffff163373ffffffffffffffffffffffffffffffffffffffff1614610c11576040517f08c379a0000000000000000000000000000000000000000000000000000000008152600401610c0890613c42565b60405180910390fd5b60011515600c60009054906101000a900460ff1615151415610c68576040517f08c379a0000000000000000000000000000000000000000000000000000000008152600401610c5f90613c62565b60405180910390fd5b60011515600c60019054906101000a900460ff16151514610cbe576040517f08c379a0000000000000000000000000000000000000000000000000000000008152600401610cb590613c02565b60405180910390fd5b6000600c60016101000a81548160ff021916908315150217905550565b600160009054906101000a900473ffffffffffffffffffffffffffffffffffffffff1673ffffffffffffffffffffffffffffffffffffffff163373ffffffffffffffffffffffffffffffffffffffff1614610d6b576040517f08c379a0000000000000000000000000000000000000000000000000000000008152600401610d6290613c42565b60405180910390fd5b60011515600c60009054906101000a900460ff1615151415610dc2576040517f08c379a0000000000000000000000000000000000000000000000000000000008152600401610db990613c62565b60405180910390fd5b60011515600c60019054906101000a900460ff1615151415610e19576040517f08c379a0000000000000000000000000000000000000000000000000000000008152600401610e1090613d02565b60405180910390fd5b600c60049054906101000a900460ff1615610f71576000601054600e54610e409190613f7d565b905060098054906101000a900473ffffffffffffffffffffffffffffffffffffffff1673ffffffffffffffffffffffffffffffffffffffff1663a9059cbb600160009054906101000a900473ffffffffffffffffffffffffffffffffffffffff16836040518363ffffffff1660e01b8152600401610ebf929190613a88565b602060405180830381600087803b158015610ed957600080fd5b505af1158015610eed573d6000803e3d6000fd5b505050506040513d601f19601f82011682018060405250810190610f1191906135be565b610f50576040517f08c379a0000000000000000000000000000000000000000000000000000000008152600401610f4790613ca2565b60405180910390fd5b6000600c60016101000a81548160ff021916908315150217905550506110c5565b60098054906101000a900473ffffffffffffffffffffffffffffffffffffffff1673ffffffffffffffffffffffffffffffffffffffff1663a9059cbb600160009054906101000a900473ffffffffffffffffffffffffffffffffffffffff16600554600454610fe09190613f7d565b6040518363ffffffff1660e01b8152600401610ffd929190613a88565b602060405180830381600087803b15801561101757600080fd5b505af115801561102b573d6000803e3d6000fd5b505050506040513d601f19601f8201168201806040525081019061104f91906135be565b61108e576040517f08c379a000000000000000000000000000000000000000000000000000000000815260040161108590613ca2565b60405180910390fd5b6001600c60006101000a81548160ff0219169083151502179055506000600c60016101000a81548160ff0219169083151502179055505b565b600f5481565b60011515600c60039054906101000a900460ff16151514158061113d5750600160009054906101000a900473ffffffffffffffffffffffffffffffffffffffff1673ffffffffffffffffffffffffffffffffffffffff163373ffffffffffffffffffffffffffffffffffffffff16145b61117c576040517f08c379a000000000000000000000000000000000000000000000000000000000815260040161117390613b62565b60405180910390fd5b80600b81905550807f6e27af24ead46b4b469e383b46b4b75487fcf1ffce54d216add332f9de2120c560405160405180910390a250565b600c60009054906101000a900460ff1681565b600c60019054906101000a900460ff1681565b600d5481565b60115481565b600a60009054906101000a900473ffffffffffffffffffffffffffffffffffffffff1681565b60075481565b600c60029054906101000a900460ff1681565b60135481565b600160009054906101000a900473ffffffffffffffffffffffffffffffffffffffff1673ffffffffffffffffffffffffffffffffffffffff163373ffffffffffffffffffffffffffffffffffffffff16146112ba576040517f08c379a00000000000000000000000000000000000000000000000000000000081526004016112b190613c42565b60405180910390fd5b60011515600c60009054906101000a900460ff1615151415611311576040517f08c379a000000000000000000000000000000000000000000000000000000000815260040161130890613c62565b60405180910390fd5b60011515600c60019054906101000a900460ff1615151415611368576040517f08c379a000000000000000000000000000000000000000000000000000000000815260040161135f90613d02565b60405180910390fd5b6001600c60016101000a81548160ff021916908315150217905550565b600060011515600c60019054906101000a900460ff16151514156113de576040517f08c379a00000000000000000000000000000000000000000000000000000000081526004016113d590613d02565b60405180910390fd5b426007541115611423576040517f08c379a000000000000000000000000000000000000000000000000000000000815260040161141a90613d22565b60405180910390fd5b60001515600c60049054906101000a900460ff16151514611479576040517f08c379a000000000000000000000000000000000000000000000000000000000815260040161147090613d62565b60405180910390fd5b6000601560003373ffffffffffffffffffffffffffffffffffffffff1673ffffffffffffffffffffffffffffffffffffffff16815260200190815260200160002060020154116114fe576040517f08c379a00000000000000000000000000000000000000000000000000000000081526004016114f590613de2565b60405180910390fd5b6000601560003373ffffffffffffffffffffffffffffffffffffffff1673ffffffffffffffffffffffffffffffffffffffff1681526020019081526020016000206040518060a00160405290816000820154815260200160018201548152602001600282015481526020016003820154815260200160048201548152505090506000816040015190508160000151600e546115999190613f7d565b600e8190555081606001516010546115b19190613f7d565b60108190555060008260000181815250506000826060018181525050600082604001818152505081601560003373ffffffffffffffffffffffffffffffffffffffff1673ffffffffffffffffffffffffffffffffffffffff16815260200190815260200160002060008201518160000155602082015181600101556040820151816002015560608201518160030155608082015181600401559050508060125461165b919061405e565b601281905550600a60009054906101000a900473ffffffffffffffffffffffffffffffffffffffff1673ffffffffffffffffffffffffffffffffffffffff1663a9059cbb33836040518363ffffffff1660e01b81526004016116be929190613a88565b602060405180830381600087803b1580156116d857600080fd5b505af11580156116ec573d6000803e3d6000fd5b505050506040513d601f19601f8201168201806040525081019061171091906135be565b61174f576040517f08c379a000000000000000000000000000000000000000000000000000000000815260040161174690613bc2565b60405180910390fd5b3373ffffffffffffffffffffffffffffffffffffffff167f1a689b1a62e3bb77f9c98d8759c04f341a67deb5cc63cf53be8324b691064950826040516117959190613e22565b60405180910390a2809250505090565b60025481565b600160009054906101000a900473ffffffffffffffffffffffffffffffffffffffff1673ffffffffffffffffffffffffffffffffffffffff163373ffffffffffffffffffffffffffffffffffffffff161461183b576040517f08c379a000000000000000000000000000000000000000000000000000000000815260040161183290613c42565b60405180910390fd5b60011515600c60009054906101000a900460ff1615151415611892576040517f08c379a000000000000000000000000000000000000000000000000000000000815260040161188990613c62565b60405180910390fd5b60011515600c60019054906101000a900460ff16151514156118e9576040517f08c379a00000000000000000000000000000000000000000000000000000000081526004016118e090613d02565b60405180910390fd5b60011515600960009054906101000a900460ff1615151461193f576040517f08c379a000000000000000000000000000000000000000000000000000000000815260040161193690613d82565b60405180910390fd5b6000601460008373ffffffffffffffffffffffffffffffffffffffff1673ffffffffffffffffffffffffffffffffffffffff16815260200190815260200160002060006101000a81548160ff02191690831515021790555050565b600160009054906101000a900473ffffffffffffffffffffffffffffffffffffffff1673ffffffffffffffffffffffffffffffffffffffff163373ffffffffffffffffffffffffffffffffffffffff1614611a2a576040517f08c379a0000000000000000000000000000000000000000000000000000000008152600401611a2190613c42565b60405180910390fd5b60011515600c60009054906101000a900460ff1615151415611a81576040517f08c379a0000000000000000000000000000000000000000000000000000000008152600401611a7890613c62565b60405180910390fd5b60011515600c60019054906101000a900460ff1615151415611ad8576040517f08c379a0000000000000000000000000000000000000000000000000000000008152600401611acf90613d02565b60405180910390fd5b60011515600960009054906101000a900460ff16151514611b2e576040517f08c379a0000000000000000000000000000000000000000000000000000000008152600401611b2590613d82565b60405180910390fd5b6001601460008373ffffffffffffffffffffffffffffffffffffffff1673ffffffffffffffffffffffffffffffffffffffff16815260200190815260200160002060006101000a81548160ff02191690831515021790555050565b60065481565b60008060011515600c60049054906101000a900460ff16151514611be8576040517f08c379a0000000000000000000000000000000000000000000000000000000008152600401611bdf90613da2565b60405180910390fd5b42600854111580611c0c575060011515600c60059054906101000a900460ff161515145b611c4b576040517f08c379a0000000000000000000000000000000000000000000000000000000008152600401611c4290613b82565b60405180910390fd5b6000611c56856128c2565b905060008111611c9b576040517f08c379a0000000000000000000000000000000000000000000000000000000008152600401611c9290613dc2565b60405180910390fd5b83811015611cde576040517f08c379a0000000000000000000000000000000000000000000000000000000008152600401611cd590613b22565b60405180910390fd5b60006064600a60149054906101000a900460ff1660ff1686611d009190614004565b611d0a9190613fd3565b90506000601560008873ffffffffffffffffffffffffffffffffffffffff1673ffffffffffffffffffffffffffffffffffffffff1681526020019081526020016000206040518060a0016040529081600082015481526020016001820154815260200160028201548152602001600382015481526020016004820154815250509050858160200151611d9c9190613f7d565b816020018181525050818160800151611db59190613f7d565b81608001818152505080601560008973ffffffffffffffffffffffffffffffffffffffff1673ffffffffffffffffffffffffffffffffffffffff168152602001908152602001600020600082015181600001556020820151816001015560408201518160020155606082015181600301556080820151816004015590505085600f54611e419190613f7d565b600f8190555081601154611e559190613f7d565b60118190555060098054906101000a900473ffffffffffffffffffffffffffffffffffffffff1673ffffffffffffffffffffffffffffffffffffffff1663a9059cbb60008054906101000a900473ffffffffffffffffffffffffffffffffffffffff16846040518363ffffffff1660e01b8152600401611ed6929190613a88565b602060405180830381600087803b158015611ef057600080fd5b505af1158015611f04573d6000803e3d6000fd5b505050506040513d601f19601f82011682018060405250810190611f2891906135be565b611f67576040517f08c379a0000000000000000000000000000000000000000000000000000000008152600401611f5e90613e02565b60405180910390fd5b60098054906101000a900473ffffffffffffffffffffffffffffffffffffffff1673ffffffffffffffffffffffffffffffffffffffff1663a9059cbb88886040518363ffffffff1660e01b8152600401611fc2929190613a88565b602060405180830381600087803b158015611fdc57600080fd5b505af1158015611ff0573d6000803e3d6000fd5b505050506040513d601f19601f8201168201806040525081019061201491906135be565b612053576040517f08c379a000000000000000000000000000000000000000000000000000000000815260040161204a90613cc2565b60405180910390fd5b60008054906101000a900473ffffffffffffffffffffffffffffffffffffffff1673ffffffffffffffffffffffffffffffffffffffff168773ffffffffffffffffffffffffffffffffffffffff167f9bd10be98695714f5cb43cefb59ba6417808b354710acafafe05e81b2649223188856040516120d2929190613e3d565b60405180910390a38582945094505050509250929050565b60105481565b60045481565b60146020528060005260406000206000915054906101000a900460ff1681565b60008060011515600c60009054906101000a900460ff1615151415612170576040517f08c379a000000000000000000000000000000000000000000000000000000000815260040161216790613c62565b60405180910390fd5b60011515600c60019054906101000a900460ff16151514156121c7576040517f08c379a00000000000000000000000000000000000000000000000000000000081526004016121be90613d02565b60405180910390fd5b60001515600c60059054906101000a900460ff1615151461221d576040517f08c379a000000000000000000000000000000000000000000000000000000000815260040161221490613b02565b60405180910390fd5b60011515600960009054906101000a900460ff161515141580612290575060011515601460003373ffffffffffffffffffffffffffffffffffffffff1673ffffffffffffffffffffffffffffffffffffffff16815260200190815260200160002060009054906101000a900460ff161515145b6122cf576040517f08c379a00000000000000000000000000000000000000000000000000000000081526004016122c690613be2565b60405180910390fd5b42600854101580156122e357504260075411155b612322576040517f08c379a000000000000000000000000000000000000000000000000000000000815260040161231990613c82565b60405180910390fd5b600c60029054906101000a900460ff1661244c576005546004546123469190613f7d565b60098054906101000a900473ffffffffffffffffffffffffffffffffffffffff1673ffffffffffffffffffffffffffffffffffffffff166370a08231306040518263ffffffff1660e01b815260040161239f9190613a36565b60206040518083038186803b1580156123b757600080fd5b505afa1580156123cb573d6000803e3d6000fd5b505050506040513d601f19601f820116820180604052508101906123ef9190613639565b1015612430576040517f08c379a000000000000000000000000000000000000000000000000000000000815260040161242790613d42565b60405180910390fd5b6001600c60026101000a81548160ff0219169083151502179055505b6000600654670de0b6b3a7640000856124659190614004565b61246f9190613fd3565b90506000601254905060006064600a60149054906101000a900460ff1660ff168461249a9190614004565b6124a49190613fd3565b905060035486836124b59190613f7d565b11156124f6576040517f08c379a00000000000000000000000000000000000000000000000000000000081526004016124ed90613b42565b60405180910390fd5b82600e541015801561250a57508060105410155b612549576040517f08c379a000000000000000000000000000000000000000000000000000000000815260040161254090613c22565b60405180910390fd5b85826125559190613f7d565b60128190555082600e54612569919061405e565b600e819055508060105461257d919061405e565b601081905550600a60009054906101000a900473ffffffffffffffffffffffffffffffffffffffff1673ffffffffffffffffffffffffffffffffffffffff166323b872dd3330896040518463ffffffff1660e01b81526004016125e293929190613a51565b602060405180830381600087803b1580156125fc57600080fd5b505af1158015612610573d6000803e3d6000fd5b505050506040513d601f19601f8201168201806040525081019061263491906135be565b612673576040517f08c379a000000000000000000000000000000000000000000000000000000000815260040161266a90613cc2565b60405180910390fd5b6002546012541061269a576001600c60046101000a81548160ff0219169083151502179055505b600354601254106126c1576001600c60056101000a81548160ff0219169083151502179055505b61283a3384601560003373ffffffffffffffffffffffffffffffffffffffff1673ffffffffffffffffffffffffffffffffffffffff168152602001908152602001600020600001546127139190613f7d565b88601560003373ffffffffffffffffffffffffffffffffffffffff1673ffffffffffffffffffffffffffffffffffffffff168152602001908152602001600020600201546127619190613f7d565b601560003373ffffffffffffffffffffffffffffffffffffffff1673ffffffffffffffffffffffffffffffffffffffff1681526020019081526020016000206001015485601560003373ffffffffffffffffffffffffffffffffffffffff1673ffffffffffffffffffffffffffffffffffffffff168152602001908152602001600020600301546127f29190613f7d565b601560003373ffffffffffffffffffffffffffffffffffffffff1673ffffffffffffffffffffffffffffffffffffffff168152602001908152602001600020600401546130f2565b3373ffffffffffffffffffffffffffffffffffffffff167fcf5ef2b227e797b567f0df4c49cc8b6207cfb60054eb899e5608de08e5dcb1ef846040516128809190613e22565b60405180910390a2828194509450505050915091565b600a60149054906101000a900460ff1681565b600c60049054906101000a900460ff1681565b60055481565b600080601560008473ffffffffffffffffffffffffffffffffffffffff1673ffffffffffffffffffffffffffffffffffffffff1681526020019081526020016000206040518060a00160405290816000820154815260200160018201548152602001600282015481526020016003820154815260200160048201548152505090506000600754612950613219565b61295a919061405e565b9050600960059054906101000a900463ffffffff1663ffffffff1681101561298757600092505050612a16565b600960019054906101000a900463ffffffff1663ffffffff1681106129c357816020015182600001516129ba919061405e565b92505050612a16565b6000600960019054906101000a900463ffffffff1663ffffffff1683600001516129ed9190613fd3565b9050600081836129fd9190614004565b9050836020015181612a0f9190613fd3565b9450505050505b919050565b600160009054906101000a900473ffffffffffffffffffffffffffffffffffffffff1673ffffffffffffffffffffffffffffffffffffffff163373ffffffffffffffffffffffffffffffffffffffff1614612aab576040517f08c379a0000000000000000000000000000000000000000000000000000000008152600401612aa290613c42565b60405180910390fd5b60011515600c60009054906101000a900460ff1615151415612b02576040517f08c379a0000000000000000000000000000000000000000000000000000000008152600401612af990613c62565b60405180910390fd5b60011515600c60019054906101000a900460ff1615151415612b59576040517f08c379a0000000000000000000000000000000000000000000000000000000008152600401612b5090613d02565b60405180910390fd5b60011515600960009054906101000a900460ff16151514612baf576040517f08c379a0000000000000000000000000000000000000000000000000000000008152600401612ba690613d82565b60405180910390fd5b60005b8151811015612c6657600160146000848481518110612bfa577f4e487b7100000000000000000000000000000000000000000000000000000000600052603260045260246000fd5b602002602001015173ffffffffffffffffffffffffffffffffffffffff1673ffffffffffffffffffffffffffffffffffffffff16815260200190815260200160002060006101000a81548160ff0219169083151502179055508080612c5e90614156565b915050612bb2565b5050565b600c60039054906101000a900460ff1615612cba576040517f08c379a0000000000000000000000000000000000000000000000000000000008152600401612cb190613ce2565b60405180910390fd5b6001600c60036101000a81548160ff021916908315150217905550896000806101000a81548173ffffffffffffffffffffffffffffffffffffffff021916908373ffffffffffffffffffffffffffffffffffffffff16021790555088600160006101000a81548173ffffffffffffffffffffffffffffffffffffffff021916908373ffffffffffffffffffffffffffffffffffffffff16021790555086600081518110612d90577f4e487b7100000000000000000000000000000000000000000000000000000000600052603260045260246000fd5b602002602001015160028190555086600181518110612dd8577f4e487b7100000000000000000000000000000000000000000000000000000000600052603260045260246000fd5b60200260200101516003819055508460068190555085600181518110612e27577f4e487b7100000000000000000000000000000000000000000000000000000000600052603260045260246000fd5b602002602001015160078190555085600081518110612e6f577f4e487b7100000000000000000000000000000000000000000000000000000000600052603260045260246000fd5b602002602001015160088190555083600960016101000a81548163ffffffff021916908363ffffffff16021790555082600960056101000a81548163ffffffff021916908363ffffffff16021790555081600960006101000a81548160ff02191690831515021790555087600081518110612f13577f4e487b7100000000000000000000000000000000000000000000000000000000600052603260045260246000fd5b60200260200101516009806101000a81548173ffffffffffffffffffffffffffffffffffffffff021916908373ffffffffffffffffffffffffffffffffffffffff16021790555087600181518110612f94577f4e487b7100000000000000000000000000000000000000000000000000000000600052603260045260246000fd5b6020026020010151600a60006101000a81548173ffffffffffffffffffffffffffffffffffffffff021916908373ffffffffffffffffffffffffffffffffffffffff16021790555080600a60146101000a81548160ff021916908360ff1602179055506000600c60006101000a81548160ff0219169083151502179055506000600c60046101000a81548160ff0219169083151502179055506000600c60056101000a81548160ff021916908315150217905550670de0b6b3a76400008560035461305f9190613fd3565b6130699190614004565b60048190555060648160ff166004546130829190614004565b61308c9190613fd3565b600581905550600454600e8190555060055460108190555050505050505050505050565b600960059054906101000a900463ffffffff1681565b600160009054906101000a900473ffffffffffffffffffffffffffffffffffffffff1681565b60035481565b6000600960019054906101000a900463ffffffff1663ffffffff16866131189190613fd3565b90506000811161315d576040517f08c379a000000000000000000000000000000000000000000000000000000000815260040161315490613ba2565b60405180910390fd5b6040518060a0016040528087815260200185815260200186815260200184815260200183815250601560008973ffffffffffffffffffffffffffffffffffffffff1673ffffffffffffffffffffffffffffffffffffffff1681526020019081526020016000206000820151816000015560208201518160010155604082015181600201556060820151816003015560808201518160040155905050600d600081548092919061320b90614156565b919050555050505050505050565b600042905090565b600061323461322f84613f14565b613eef565b9050808382526020820190508285602086028201111561325357600080fd5b60005b85811015613283578161326988826132f9565b845260208401935060208301925050600181019050613256565b5050509392505050565b60006132a061329b84613f40565b613eef565b905080838252602082019050828560208602820111156132bf57600080fd5b60005b858110156132ef57816132d588826133a1565b8452602084019350602083019250506001810190506132c2565b5050509392505050565b60008135905061330881614852565b92915050565b600082601f83011261331f57600080fd5b813561332f848260208601613221565b91505092915050565b600082601f83011261334957600080fd5b813561335984826020860161328d565b91505092915050565b60008135905061337181614869565b92915050565b60008151905061338681614869565b92915050565b60008135905061339b81614880565b92915050565b6000813590506133b081614897565b92915050565b6000815190506133c581614897565b92915050565b6000813590506133da816148ae565b92915050565b6000813590506133ef816148c5565b92915050565b60006020828403121561340757600080fd5b6000613415848285016132f9565b91505092915050565b6000806000806000806000806000806101408b8d03121561343e57600080fd5b600061344c8d828e016132f9565b9a5050602061345d8d828e016132f9565b99505060408b013567ffffffffffffffff81111561347a57600080fd5b6134868d828e0161330e565b98505060608b013567ffffffffffffffff8111156134a357600080fd5b6134af8d828e01613338565b97505060808b013567ffffffffffffffff8111156134cc57600080fd5b6134d88d828e01613338565b96505060a06134e98d828e016133a1565b95505060c06134fa8d828e016133cb565b94505060e061350b8d828e016133cb565b93505061010061351d8d828e01613362565b92505061012061352f8d828e016133e0565b9150509295989b9194979a5092959850565b6000806040838503121561355457600080fd5b6000613562858286016132f9565b9250506020613573858286016133a1565b9150509250929050565b60006020828403121561358f57600080fd5b600082013567ffffffffffffffff8111156135a957600080fd5b6135b58482850161330e565b91505092915050565b6000602082840312156135d057600080fd5b60006135de84828501613377565b91505092915050565b6000602082840312156135f957600080fd5b60006136078482850161338c565b91505092915050565b60006020828403121561362257600080fd5b6000613630848285016133a1565b91505092915050565b60006020828403121561364b57600080fd5b6000613659848285016133b6565b91505092915050565b61366b81614092565b82525050565b61367a816140a4565b82525050565b613689816140b0565b82525050565b61369881614101565b82525050565b60006136ab601d83613f6c565b91506136b68261423d565b602082019050919050565b60006136ce602e83613f6c565b91506136d982614266565b604082019050919050565b60006136f1602a83613f6c565b91506136fc826142b5565b604082019050919050565b6000613714604283613f6c565b915061371f82614304565b606082019050919050565b6000613737602b83613f6c565b915061374282614379565b604082019050919050565b600061375a601f83613f6c565b9150613765826143c8565b602082019050919050565b600061377d603083613f6c565b9150613788826143f1565b604082019050919050565b60006137a0601a83613f6c565b91506137ab82614440565b602082019050919050565b60006137c3601683613f6c565b91506137ce82614469565b602082019050919050565b60006137e6602983613f6c565b91506137f182614492565b604082019050919050565b6000613809601c83613f6c565b9150613814826144e1565b602082019050919050565b600061382c601a83613f6c565b91506138378261450a565b602082019050919050565b600061384f602d83613f6c565b915061385a82614533565b604082019050919050565b6000613872602a83613f6c565b915061387d82614582565b604082019050919050565b6000613895600f83613f6c565b91506138a0826145d1565b602082019050919050565b60006138b8602283613f6c565b91506138c3826145fa565b604082019050919050565b60006138db601a83613f6c565b91506138e682614649565b602082019050919050565b60006138fe602283613f6c565b915061390982614672565b604082019050919050565b6000613921602383613f6c565b915061392c826146c1565b604082019050919050565b6000613944601983613f6c565b915061394f82614710565b602082019050919050565b6000613967601f83613f6c565b915061397282614739565b602082019050919050565b600061398a602483613f6c565b915061399582614762565b604082019050919050565b60006139ad601b83613f6c565b91506139b8826147b1565b602082019050919050565b60006139d0601983613f6c565b91506139db826147da565b602082019050919050565b60006139f3602483613f6c565b91506139fe82614803565b604082019050919050565b613a12816140da565b82525050565b613a21816140e4565b82525050565b613a30816140f4565b82525050565b6000602082019050613a4b6000830184613662565b92915050565b6000606082019050613a666000830186613662565b613a736020830185613662565b613a806040830184613a09565b949350505050565b6000604082019050613a9d6000830185613662565b613aaa6020830184613a09565b9392505050565b6000602082019050613ac66000830184613671565b92915050565b6000602082019050613ae16000830184613680565b92915050565b6000602082019050613afc600083018461368f565b92915050565b60006020820190508181036000830152613b1b8161369e565b9050919050565b60006020820190508181036000830152613b3b816136c1565b9050919050565b60006020820190508181036000830152613b5b816136e4565b9050919050565b60006020820190508181036000830152613b7b81613707565b9050919050565b60006020820190508181036000830152613b9b8161372a565b9050919050565b60006020820190508181036000830152613bbb8161374d565b9050919050565b60006020820190508181036000830152613bdb81613770565b9050919050565b60006020820190508181036000830152613bfb81613793565b9050919050565b60006020820190508181036000830152613c1b816137b6565b9050919050565b60006020820190508181036000830152613c3b816137d9565b9050919050565b60006020820190508181036000830152613c5b816137fc565b9050919050565b60006020820190508181036000830152613c7b8161381f565b9050919050565b60006020820190508181036000830152613c9b81613842565b9050919050565b60006020820190508181036000830152613cbb81613865565b9050919050565b60006020820190508181036000830152613cdb81613888565b9050919050565b60006020820190508181036000830152613cfb816138ab565b9050919050565b60006020820190508181036000830152613d1b816138ce565b9050919050565b60006020820190508181036000830152613d3b816138f1565b9050919050565b60006020820190508181036000830152613d5b81613914565b9050919050565b60006020820190508181036000830152613d7b81613937565b9050919050565b60006020820190508181036000830152613d9b8161395a565b9050919050565b60006020820190508181036000830152613dbb8161397d565b9050919050565b60006020820190508181036000830152613ddb816139a0565b9050919050565b60006020820190508181036000830152613dfb816139c3565b9050919050565b60006020820190508181036000830152613e1b816139e6565b9050919050565b6000602082019050613e376000830184613a09565b92915050565b6000604082019050613e526000830185613a09565b613e5f6020830184613a09565b9392505050565b600060a082019050613e7b6000830188613a09565b613e886020830187613a09565b613e956040830186613a09565b613ea26060830185613a09565b613eaf6080830184613a09565b9695505050505050565b6000602082019050613ece6000830184613a18565b92915050565b6000602082019050613ee96000830184613a27565b92915050565b6000613ef9613f0a565b9050613f058282614125565b919050565b6000604051905090565b600067ffffffffffffffff821115613f2f57613f2e6141fd565b5b602082029050602081019050919050565b600067ffffffffffffffff821115613f5b57613f5a6141fd565b5b602082029050602081019050919050565b600082825260208201905092915050565b6000613f88826140da565b9150613f93836140da565b9250827fffffffffffffffffffffffffffffffffffffffffffffffffffffffffffffffff03821115613fc857613fc761419f565b5b828201905092915050565b6000613fde826140da565b9150613fe9836140da565b925082613ff957613ff86141ce565b5b828204905092915050565b600061400f826140da565b915061401a836140da565b9250817fffffffffffffffffffffffffffffffffffffffffffffffffffffffffffffffff04831182151516156140535761405261419f565b5b828202905092915050565b6000614069826140da565b9150614074836140da565b9250828210156140875761408661419f565b5b828203905092915050565b600061409d826140ba565b9050919050565b60008115159050919050565b6000819050919050565b600073ffffffffffffffffffffffffffffffffffffffff82169050919050565b6000819050919050565b600063ffffffff82169050919050565b600060ff82169050919050565b600061410c82614113565b9050919050565b600061411e826140ba565b9050919050565b61412e8261422c565b810181811067ffffffffffffffff8211171561414d5761414c6141fd565b5b80604052505050565b6000614161826140da565b91507fffffffffffffffffffffffffffffffffffffffffffffffffffffffffffffffff8214156141945761419361419f565b5b600182019050919050565b7f4e487b7100000000000000000000000000000000000000000000000000000000600052601160045260246000fd5b7f4e487b7100000000000000000000000000000000000000000000000000000000600052601260045260246000fd5b7f4e487b7100000000000000000000000000000000000000000000000000000000600052604160045260246000fd5b6000601f19601f8301169050919050565b7f536565643a206d6178696d756d2066756e64696e672072656163686564000000600082015250565b7f536565643a20726571756573742069732067726561746572207468616e20636c60008201527f61696d61626c6520616d6f756e74000000000000000000000000000000000000602082015250565b7f536565643a20616d6f756e74206578636565647320636f6e747261637420736160008201527f6c65206861726443617000000000000000000000000000000000000000000000602082015250565b7f536565643a20636f6e74726163742073686f756c64206e6f7420626520696e6960008201527f7469616c697a6564206f722063616c6c65722073686f756c642062652061646d60208201527f696e000000000000000000000000000000000000000000000000000000000000604082015250565b7f536565643a2074686520646973747269627574696f6e20686173206e6f74207960008201527f65742066696e6973686564000000000000000000000000000000000000000000602082015250565b7f536565643a20616d6f756e745665737465645065725365636f6e64203e203000600082015250565b7f536565643a2063616e6e6f742072657475726e2066756e64696e6720746f6b6560008201527f6e7320746f206d73672e73656e64657200000000000000000000000000000000602082015250565b7f536565643a2073656e64657220686173206e6f20726967687473000000000000600082015250565b7f536565643a2073686f756c642062652070617573656400000000000000000000600082015250565b7f536565643a207365656420646973747269627574696f6e20776f756c6420626560008201527f2065786365656465640000000000000000000000000000000000000000000000602082015250565b7f536565643a2063616c6c65722073686f756c642062652061646d696e00000000600082015250565b7f536565643a2073686f756c64206e6f7420626520636c6f736564000000000000600082015250565b7f536565643a206f6e6c7920616c6c6f77656420647572696e672064697374726960008201527f627574696f6e20706572696f6400000000000000000000000000000000000000602082015250565b7f536565643a2073686f756c64207472616e73666572207365656420746f6b656e60008201527f7320746f2061646d696e00000000000000000000000000000000000000000000602082015250565b7f536565643a206e6f20746f6b656e730000000000000000000000000000000000600082015250565b7f536565643a20636f6e747261637420616c726561647920696e697469616c697a60008201527f6564000000000000000000000000000000000000000000000000000000000000602082015250565b7f536565643a2073686f756c64206e6f7420626520706175736564000000000000600082015250565b7f536565643a20646973747269627574696f6e20686176656e277420737461727460008201527f6564000000000000000000000000000000000000000000000000000000000000602082015250565b7f536565643a2073756666696369656e74207365656473206e6f742070726f766960008201527f6465640000000000000000000000000000000000000000000000000000000000602082015250565b7f536565643a206d696e696d756d20616c7265616479206d657400000000000000600082015250565b7f536565643a206d6f64756c65206973206e6f742077686974656c697374656400600082015250565b7f536565643a206d696e696d756d2066756e64696e6720616d6f756e74206e6f7460008201527f206d657400000000000000000000000000000000000000000000000000000000602082015250565b7f536565643a20616d6f756e7420636c61696d61626c6520697320300000000000600082015250565b7f536565643a207a65726f2066756e64696e6720616d6f756e7400000000000000600082015250565b7f536565643a2063616e6e6f74207472616e7366657220746f2062656e6566696360008201527f6961727900000000000000000000000000000000000000000000000000000000602082015250565b61485b81614092565b811461486657600080fd5b50565b614872816140a4565b811461487d57600080fd5b50565b614889816140b0565b811461489457600080fd5b50565b6148a0816140da565b81146148ab57600080fd5b50565b6148b7816140e4565b81146148c257600080fd5b50565b6148ce816140f4565b81146148d957600080fd5b5056fea2646970667358221220807d2bc6d633d419b2b5539108deab6d2c31e559b50aba7c2093beadfb8353d464736f6c63430008040033",
  "linkReferences": {},
  "deployedLinkReferences": {}
}