{
  "_format": "hh-sol-artifact-1",
  "contractName": "Seed",
  "sourceName": "contracts/seed/Seed.sol",
  "abi": [
    {
      "anonymous": false,
      "inputs": [
        {
          "indexed": true,
          "internalType": "address",
          "name": "recipient",
          "type": "address"
        },
        {
          "indexed": false,
          "internalType": "uint256",
          "name": "amountReclaimed",
          "type": "uint256"
        }
      ],
      "name": "FundingReclaimed",
      "type": "event"
    },
    {
      "anonymous": false,
      "inputs": [
        {
          "indexed": true,
          "internalType": "bytes",
          "name": "metadata",
          "type": "bytes"
        }
      ],
      "name": "MetadataUpdated",
      "type": "event"
    },
    {
      "anonymous": false,
      "inputs": [
        {
          "indexed": true,
          "internalType": "address",
          "name": "recipient",
          "type": "address"
        },
        {
          "indexed": false,
          "internalType": "uint256",
          "name": "amountPurchased",
          "type": "uint256"
        }
      ],
      "name": "SeedsPurchased",
      "type": "event"
    },
    {
      "anonymous": false,
      "inputs": [
        {
          "indexed": true,
          "internalType": "address",
          "name": "recipient",
          "type": "address"
        },
        {
          "indexed": false,
          "internalType": "uint256",
          "name": "amount",
          "type": "uint256"
        },
        {
          "indexed": true,
          "internalType": "address",
          "name": "beneficiary",
          "type": "address"
        },
        {
          "indexed": false,
          "internalType": "uint256",
          "name": "feeAmount",
          "type": "uint256"
        }
      ],
      "name": "TokensClaimed",
      "type": "event"
    },
    {
      "inputs": [],
      "name": "admin",
      "outputs": [
        {
          "internalType": "address",
          "name": "",
          "type": "address"
        }
      ],
      "stateMutability": "view",
      "type": "function"
    },
    {
      "inputs": [],
      "name": "beneficiary",
      "outputs": [
        {
          "internalType": "address",
          "name": "",
          "type": "address"
        }
      ],
      "stateMutability": "view",
      "type": "function"
    },
    {
      "inputs": [
        {
          "internalType": "uint256",
          "name": "_fundingAmount",
          "type": "uint256"
        }
      ],
      "name": "buy",
      "outputs": [
        {
          "internalType": "uint256",
          "name": "",
          "type": "uint256"
        },
        {
          "internalType": "uint256",
          "name": "",
          "type": "uint256"
        }
      ],
      "stateMutability": "nonpayable",
      "type": "function"
    },
    {
      "inputs": [
        {
          "internalType": "address",
          "name": "_funder",
          "type": "address"
        }
      ],
      "name": "calculateClaim",
      "outputs": [
        {
          "internalType": "uint256",
          "name": "",
          "type": "uint256"
        }
      ],
      "stateMutability": "view",
      "type": "function"
    },
    {
      "inputs": [
        {
          "internalType": "address",
          "name": "_buyer",
          "type": "address"
        }
      ],
      "name": "checkWhitelisted",
      "outputs": [
        {
          "internalType": "bool",
          "name": "",
          "type": "bool"
        }
      ],
      "stateMutability": "view",
      "type": "function"
    },
    {
      "inputs": [
        {
          "internalType": "address",
          "name": "_funder",
          "type": "address"
        },
        {
          "internalType": "uint256",
          "name": "_claimAmount",
          "type": "uint256"
        }
      ],
      "name": "claim",
      "outputs": [
        {
          "internalType": "uint256",
          "name": "",
          "type": "uint256"
        }
      ],
      "stateMutability": "nonpayable",
      "type": "function"
    },
    {
      "inputs": [],
      "name": "close",
      "outputs": [],
      "stateMutability": "nonpayable",
      "type": "function"
    },
    {
      "inputs": [],
      "name": "closed",
      "outputs": [
        {
          "internalType": "bool",
          "name": "",
          "type": "bool"
        }
      ],
      "stateMutability": "view",
      "type": "function"
    },
    {
      "inputs": [],
      "name": "endTime",
      "outputs": [
        {
          "internalType": "uint256",
          "name": "",
          "type": "uint256"
        }
      ],
      "stateMutability": "view",
      "type": "function"
    },
    {
      "inputs": [],
      "name": "fee",
      "outputs": [
        {
          "internalType": "uint256",
          "name": "",
          "type": "uint256"
        }
      ],
      "stateMutability": "view",
      "type": "function"
    },
    {
      "inputs": [],
      "name": "feeAmountRequired",
      "outputs": [
        {
          "internalType": "uint256",
          "name": "",
          "type": "uint256"
        }
      ],
      "stateMutability": "view",
      "type": "function"
    },
    {
      "inputs": [],
      "name": "feeClaimed",
      "outputs": [
        {
          "internalType": "uint256",
          "name": "",
          "type": "uint256"
        }
      ],
      "stateMutability": "view",
      "type": "function"
    },
    {
      "inputs": [
        {
          "internalType": "address",
          "name": "_funder",
          "type": "address"
        }
      ],
      "name": "feeClaimedForFunder",
      "outputs": [
        {
          "internalType": "uint256",
          "name": "",
          "type": "uint256"
        }
      ],
      "stateMutability": "view",
      "type": "function"
    },
    {
      "inputs": [
        {
          "internalType": "address",
          "name": "_funder",
          "type": "address"
        }
      ],
      "name": "feeForFunder",
      "outputs": [
        {
          "internalType": "uint256",
          "name": "",
          "type": "uint256"
        }
      ],
      "stateMutability": "view",
      "type": "function"
    },
    {
      "inputs": [],
      "name": "feeRemainder",
      "outputs": [
        {
          "internalType": "uint256",
          "name": "",
          "type": "uint256"
        }
      ],
      "stateMutability": "view",
      "type": "function"
    },
    {
      "inputs": [
        {
          "internalType": "address",
          "name": "",
          "type": "address"
        }
      ],
      "name": "funders",
      "outputs": [
        {
          "internalType": "uint256",
          "name": "totalClaimed",
          "type": "uint256"
        },
        {
          "internalType": "uint256",
          "name": "fundingAmount",
          "type": "uint256"
        }
      ],
      "stateMutability": "view",
      "type": "function"
    },
    {
      "inputs": [],
      "name": "fundingCollected",
      "outputs": [
        {
          "internalType": "uint256",
          "name": "",
          "type": "uint256"
        }
      ],
      "stateMutability": "view",
      "type": "function"
    },
    {
      "inputs": [],
      "name": "fundingToken",
      "outputs": [
        {
          "internalType": "contract IERC20",
          "name": "",
          "type": "address"
        }
      ],
      "stateMutability": "view",
      "type": "function"
    },
    {
      "inputs": [],
      "name": "fundingWithdrawn",
      "outputs": [
        {
          "internalType": "uint256",
          "name": "",
          "type": "uint256"
        }
      ],
      "stateMutability": "view",
      "type": "function"
    },
    {
      "inputs": [],
      "name": "hardCap",
      "outputs": [
        {
          "internalType": "uint256",
          "name": "",
          "type": "uint256"
        }
      ],
      "stateMutability": "view",
      "type": "function"
    },
    {
      "inputs": [
        {
          "internalType": "address",
          "name": "_beneficiary",
          "type": "address"
        },
        {
          "internalType": "address",
          "name": "_admin",
          "type": "address"
        },
        {
          "internalType": "address[]",
          "name": "_tokens",
          "type": "address[]"
        },
        {
          "internalType": "uint256[]",
          "name": "_softHardThresholds",
          "type": "uint256[]"
        },
        {
          "internalType": "uint256",
          "name": "_price",
          "type": "uint256"
        },
        {
          "internalType": "uint256",
          "name": "_startTime",
          "type": "uint256"
        },
        {
          "internalType": "uint256",
          "name": "_endTime",
          "type": "uint256"
        },
        {
          "internalType": "uint32",
          "name": "_vestingDuration",
          "type": "uint32"
        },
        {
          "internalType": "uint32",
          "name": "_vestingCliff",
          "type": "uint32"
        },
        {
          "internalType": "bool",
          "name": "_permissionedSeed",
          "type": "bool"
        },
        {
          "internalType": "uint256",
          "name": "_fee",
          "type": "uint256"
        }
      ],
      "name": "initialize",
      "outputs": [],
      "stateMutability": "nonpayable",
      "type": "function"
    },
    {
      "inputs": [],
      "name": "initialized",
      "outputs": [
        {
          "internalType": "bool",
          "name": "",
          "type": "bool"
        }
      ],
      "stateMutability": "view",
      "type": "function"
    },
    {
      "inputs": [],
      "name": "isFunded",
      "outputs": [
        {
          "internalType": "bool",
          "name": "",
          "type": "bool"
        }
      ],
      "stateMutability": "view",
      "type": "function"
    },
    {
      "inputs": [],
      "name": "maximumReached",
      "outputs": [
        {
          "internalType": "bool",
          "name": "",
          "type": "bool"
        }
      ],
      "stateMutability": "view",
      "type": "function"
    },
    {
      "inputs": [],
      "name": "metadata",
      "outputs": [
        {
          "internalType": "bytes",
          "name": "",
          "type": "bytes"
        }
      ],
      "stateMutability": "view",
      "type": "function"
    },
    {
      "inputs": [],
      "name": "minimumReached",
      "outputs": [
        {
          "internalType": "bool",
          "name": "",
          "type": "bool"
        }
      ],
      "stateMutability": "view",
      "type": "function"
    },
    {
      "inputs": [],
      "name": "pause",
      "outputs": [],
      "stateMutability": "nonpayable",
      "type": "function"
    },
    {
      "inputs": [],
      "name": "paused",
      "outputs": [
        {
          "internalType": "bool",
          "name": "",
          "type": "bool"
        }
      ],
      "stateMutability": "view",
      "type": "function"
    },
    {
      "inputs": [],
      "name": "permissionedSeed",
      "outputs": [
        {
          "internalType": "bool",
          "name": "",
          "type": "bool"
        }
      ],
      "stateMutability": "view",
      "type": "function"
    },
    {
      "inputs": [],
      "name": "price",
      "outputs": [
        {
          "internalType": "uint256",
          "name": "",
          "type": "uint256"
        }
      ],
      "stateMutability": "view",
      "type": "function"
    },
    {
      "inputs": [
        {
          "internalType": "address",
          "name": "_refundReceiver",
          "type": "address"
        }
      ],
      "name": "refundSeedTokens",
      "outputs": [],
      "stateMutability": "nonpayable",
      "type": "function"
    },
    {
      "inputs": [],
      "name": "retrieveFundingTokens",
      "outputs": [
        {
          "internalType": "uint256",
          "name": "",
          "type": "uint256"
        }
      ],
      "stateMutability": "nonpayable",
      "type": "function"
    },
    {
      "inputs": [
        {
          "internalType": "address",
          "name": "_funder",
          "type": "address"
        }
      ],
      "name": "seedAmountForFunder",
      "outputs": [
        {
          "internalType": "uint256",
          "name": "",
          "type": "uint256"
        }
      ],
      "stateMutability": "view",
      "type": "function"
    },
    {
      "inputs": [],
      "name": "seedAmountRequired",
      "outputs": [
        {
          "internalType": "uint256",
          "name": "",
          "type": "uint256"
        }
      ],
      "stateMutability": "view",
      "type": "function"
    },
    {
      "inputs": [],
      "name": "seedClaimed",
      "outputs": [
        {
          "internalType": "uint256",
          "name": "",
          "type": "uint256"
        }
      ],
      "stateMutability": "view",
      "type": "function"
    },
    {
      "inputs": [],
      "name": "seedRemainder",
      "outputs": [
        {
          "internalType": "uint256",
          "name": "",
          "type": "uint256"
        }
      ],
      "stateMutability": "view",
      "type": "function"
    },
    {
      "inputs": [],
      "name": "seedToken",
      "outputs": [
        {
          "internalType": "contract IERC20",
          "name": "",
          "type": "address"
        }
      ],
      "stateMutability": "view",
      "type": "function"
    },
    {
      "inputs": [],
      "name": "softCap",
      "outputs": [
        {
          "internalType": "uint256",
          "name": "",
          "type": "uint256"
        }
      ],
      "stateMutability": "view",
      "type": "function"
    },
    {
      "inputs": [],
      "name": "startTime",
      "outputs": [
        {
          "internalType": "uint256",
          "name": "",
          "type": "uint256"
        }
      ],
      "stateMutability": "view",
      "type": "function"
    },
    {
      "inputs": [],
      "name": "totalFunderCount",
      "outputs": [
        {
          "internalType": "uint256",
          "name": "",
          "type": "uint256"
        }
      ],
      "stateMutability": "view",
      "type": "function"
    },
    {
      "inputs": [],
      "name": "unpause",
      "outputs": [],
      "stateMutability": "nonpayable",
      "type": "function"
    },
    {
      "inputs": [
        {
          "internalType": "address",
          "name": "buyer",
          "type": "address"
        }
      ],
      "name": "unwhitelist",
      "outputs": [],
      "stateMutability": "nonpayable",
      "type": "function"
    },
    {
      "inputs": [
        {
          "internalType": "bytes",
          "name": "_metadata",
          "type": "bytes"
        }
      ],
      "name": "updateMetadata",
      "outputs": [],
      "stateMutability": "nonpayable",
      "type": "function"
    },
    {
      "inputs": [],
      "name": "vestingCliff",
      "outputs": [
        {
          "internalType": "uint32",
          "name": "",
          "type": "uint32"
        }
      ],
      "stateMutability": "view",
      "type": "function"
    },
    {
      "inputs": [],
      "name": "vestingDuration",
      "outputs": [
        {
          "internalType": "uint32",
          "name": "",
          "type": "uint32"
        }
      ],
      "stateMutability": "view",
      "type": "function"
    },
    {
      "inputs": [],
      "name": "vestingStartTime",
      "outputs": [
        {
          "internalType": "uint256",
          "name": "",
          "type": "uint256"
        }
      ],
      "stateMutability": "view",
      "type": "function"
    },
    {
      "inputs": [
        {
          "internalType": "address",
          "name": "_buyer",
          "type": "address"
        }
      ],
      "name": "whitelist",
      "outputs": [],
      "stateMutability": "nonpayable",
      "type": "function"
    },
    {
      "inputs": [
        {
          "internalType": "address[]",
          "name": "_buyers",
          "type": "address[]"
        }
      ],
      "name": "whitelistBatch",
      "outputs": [],
      "stateMutability": "nonpayable",
      "type": "function"
    },
    {
      "inputs": [
        {
          "internalType": "address",
          "name": "",
          "type": "address"
        }
      ],
      "name": "whitelisted",
      "outputs": [
        {
          "internalType": "bool",
          "name": "",
          "type": "bool"
        }
      ],
      "stateMutability": "view",
      "type": "function"
    },
    {
      "inputs": [],
      "name": "withdraw",
      "outputs": [],
      "stateMutability": "nonpayable",
      "type": "function"
    }
  ],
  "bytecode": "0x608060405234801561001057600080fd5b50614f41806100206000396000f3fe608060405234801561001057600080fd5b50600436106102d65760003560e01c80637c65430311610182578063bc0f5f84116100e9578063e6e36ebb116100a2578063f3640e741161007c578063f3640e7414610889578063f851a440146108a7578063fb86a404146108c5578063fc582d41146108e3576102d6565b8063e6e36ebb1461081f578063ea3455401461083d578063eaa535231461086d576102d6565b8063bc0f5f8414610734578063d936547e14610752578063d96a094a14610782578063dc4b9e38146107b3578063ddca3f43146107e3578063e565eb4c14610801576102d6565b80639b19251a1161013b5780639b19251a14610672578063a035b1fe1461068e578063a8660a78146106ac578063aad3ec96146106ca578063af20bab8146106fa578063b774682f14610716576102d6565b80637c654303146105d457806383d59e00146105f25780638456cb59146106105780638a2448aa1461061a578063906a26e0146106385780639a59042714610656576102d6565b80633dba9e4111610241578063597e1fb5116101fa5780635e9777e8116101d45780635e9777e81461055c57806371f4b8e81461057a57806378065f271461059857806378e97925146105b6576102d6565b8063597e1fb5146104f05780635c975abb1461050e5780635d85ac0d1461052c576102d6565b80633dba9e41146104545780633f4ba83a14610472578063430e99a41461047c57806343d726d6146104ac57806344f9abb8146104b657806347d02f1b146104d2576102d6565b806320d8dad01161029357806320d8dad0146103a2578063311f8483146103d25780633197cbb6146103f057806338af3eed1461040e578063392f37e91461042c5780633ccfd60b1461044a576102d6565b8063031b3677146102db5780630826d2c71461030c578063117a36d11461032a5780631514617e14610348578063158ef93e146103665780631cfe562e14610384575b600080fd5b6102f560048036038101906102f09190613553565b6108ff565b6040516103039291906141dc565b60405180910390f35b610314610923565b60405161032191906141c1565b60405180910390f35b610332610929565b60405161033f9190613d89565b60405180910390f35b61035061093c565b60405161035d9190614205565b60405180910390f35b61036e610952565b60405161037b9190613d89565b60405180910390f35b61038c610965565b60405161039991906141c1565b60405180910390f35b6103bc60048036038101906103b79190613553565b61096b565b6040516103c99190613d89565b60405180910390f35b6103da6109c1565b6040516103e79190613dc6565b60405180910390f35b6103f86109e5565b60405161040591906141c1565b60405180910390f35b6104166109eb565b6040516104239190613d0e565b60405180910390f35b610434610a0f565b6040516104419190613da4565b60405180910390f35b610452610a9d565b005b61045c610c4c565b6040516104699190613d89565b60405180910390f35b61047a610c5f565b005b61049660048036038101906104919190613553565b610db9565b6040516104a391906141c1565b60405180910390f35b6104b4610e31565b005b6104d060048036038101906104cb9190613580565b610fe9565b005b6104da611479565b6040516104e791906141c1565b60405180910390f35b6104f861147f565b6040516105059190613d89565b60405180910390f35b610516611492565b6040516105239190613d89565b60405180910390f35b61054660048036038101906105419190613553565b6114a5565b60405161055391906141c1565b60405180910390f35b6105646114e3565b60405161057191906141c1565b60405180910390f35b6105826114e9565b60405161058f91906141c1565b60405180910390f35b6105a061151f565b6040516105ad9190613dc6565b60405180910390f35b6105be611545565b6040516105cb91906141c1565b60405180910390f35b6105dc61154b565b6040516105e99190613d89565b60405180910390f35b6105fa61155e565b60405161060791906141c1565b60405180910390f35b610618611564565b005b6106226116b1565b60405161062f91906141c1565b60405180910390f35b610640611a12565b60405161064d91906141c1565b60405180910390f35b610670600480360381019061066b9190613553565b611a18565b005b61068c60048036038101906106879190613553565b611ba9565b005b610696611d3a565b6040516106a391906141c1565b60405180910390f35b6106b4611d40565b6040516106c191906141c1565b60405180910390f35b6106e460048036038101906106df91906136ac565b611d46565b6040516106f191906141c1565b60405180910390f35b610714600480360381019061070f9190613553565b6121b2565b005b61071e61261a565b60405161072b91906141c1565b60405180910390f35b61073c612620565b60405161074991906141c1565b60405180910390f35b61076c60048036038101906107679190613553565b612626565b6040516107799190613d89565b60405180910390f35b61079c600480360381019061079791906137ab565b612646565b6040516107aa9291906141dc565b60405180910390f35b6107cd60048036038101906107c89190613553565b612ce4565b6040516107da91906141c1565b60405180910390f35b6107eb612d50565b6040516107f891906141c1565b60405180910390f35b610809612d56565b6040516108169190613d89565b60405180910390f35b610827612d69565b60405161083491906141c1565b60405180910390f35b61085760048036038101906108529190613553565b612d6f565b60405161086491906141c1565b60405180910390f35b610887600480360381019061088291906136ec565b612e9a565b005b610891613065565b60405161089e9190614205565b60405180910390f35b6108af61307b565b6040516108bc9190613d0e565b60405180910390f35b6108cd6130a1565b6040516108da91906141c1565b60405180910390f35b6108fd60048036038101906108f89190613762565b6130a7565b005b60166020528060005260406000206000915090508060000154908060010154905082565b60105481565b600d60059054906101000a900460ff1681565b600960019054906101000a900463ffffffff1681565b600d60039054906101000a900460ff1681565b60135481565b6000601560008373ffffffffffffffffffffffffffffffffffffffff1673ffffffffffffffffffffffffffffffffffffffff16815260200190815260200160002060009054906101000a900460ff169050919050565b60098054906101000a900473ffffffffffffffffffffffffffffffffffffffff1681565b60085481565b60008054906101000a900473ffffffffffffffffffffffffffffffffffffffff1681565b600c8054610a1c906144d9565b80601f0160208091040260200160405190810160405280929190818152602001828054610a48906144d9565b8015610a955780601f10610a6a57610100808354040283529160200191610a95565b820191906000526020600020905b815481529060010190602001808311610a7857829003601f168201915b505050505081565b600160009054906101000a900473ffffffffffffffffffffffffffffffffffffffff1673ffffffffffffffffffffffffffffffffffffffff163373ffffffffffffffffffffffffffffffffffffffff1614610b2d576040517f08c379a0000000000000000000000000000000000000000000000000000000008152600401610b2490614001565b60405180910390fd5b600d60049054906101000a900460ff16610b7c576040517f08c379a0000000000000000000000000000000000000000000000000000000008152600401610b7390614161565b60405180910390fd5b6000601454601354610b8e91906143e7565b9050601354601481905550600a60009054906101000a900473ffffffffffffffffffffffffffffffffffffffff1673ffffffffffffffffffffffffffffffffffffffff1663a9059cbb33836040518363ffffffff1660e01b8152600401610bf6929190613d60565b602060405180830381600087803b158015610c1057600080fd5b505af1158015610c24573d6000803e3d6000fd5b505050506040513d601f19601f82011682018060405250810190610c489190613735565b5050565b600960009054906101000a900460ff1681565b600160009054906101000a900473ffffffffffffffffffffffffffffffffffffffff1673ffffffffffffffffffffffffffffffffffffffff163373ffffffffffffffffffffffffffffffffffffffff1614610cef576040517f08c379a0000000000000000000000000000000000000000000000000000000008152600401610ce690614001565b60405180910390fd5b60011515600d60009054906101000a900460ff1615151415610d46576040517f08c379a0000000000000000000000000000000000000000000000000000000008152600401610d3d90614021565b60405180910390fd5b60011515600d60019054906101000a900460ff16151514610d9c576040517f08c379a0000000000000000000000000000000000000000000000000000000008152600401610d9390613fc1565b60405180910390fd5b6000600d60016101000a81548160ff021916908315150217905550565b6000670de0b6b3a76400006064610dd0919061438d565b600b54601660008573ffffffffffffffffffffffffffffffffffffffff1673ffffffffffffffffffffffffffffffffffffffff16815260200190815260200160002060000154610e20919061438d565b610e2a919061435c565b9050919050565b600160009054906101000a900473ffffffffffffffffffffffffffffffffffffffff1673ffffffffffffffffffffffffffffffffffffffff163373ffffffffffffffffffffffffffffffffffffffff1614610ec1576040517f08c379a0000000000000000000000000000000000000000000000000000000008152600401610eb890614001565b60405180910390fd5b600d60009054906101000a900460ff1615610f11576040517f08c379a0000000000000000000000000000000000000000000000000000000008152600401610f0890614021565b60405180910390fd5b600d60019054906101000a900460ff1615610f61576040517f08c379a0000000000000000000000000000000000000000000000000000000008152600401610f5890614081565b60405180910390fd5b600d60049054906101000a900460ff1615610fb1576040517f08c379a0000000000000000000000000000000000000000000000000000000008152600401610fa8906140c1565b60405180910390fd5b6001600d60006101000a81548160ff0219169083151502179055506000600d60016101000a81548160ff021916908315150217905550565b600d60039054906101000a900460ff1615611039576040517f08c379a000000000000000000000000000000000000000000000000000000000815260040161103090614061565b60405180910390fd5b6001600d60036101000a81548160ff0219169083151502179055508860018151811061106857611067614612565b5b602002602001015173ffffffffffffffffffffffffffffffffffffffff168960008151811061109a57611099614612565b5b602002602001015173ffffffffffffffffffffffffffffffffffffffff1614156110f9576040517f08c379a00000000000000000000000000000000000000000000000000000000081526004016110f090613ec1565b60405180910390fd5b8760008151811061110d5761110c614612565b5b60200260200101518860018151811061112957611128614612565b5b60200260200101511015611172576040517f08c379a000000000000000000000000000000000000000000000000000000000815260040161116990613e41565b60405180910390fd5b8263ffffffff168463ffffffff1610156111c1576040517f08c379a00000000000000000000000000000000000000000000000000000000081526004016111b890613f81565b60405180910390fd5b858511611203576040517f08c379a00000000000000000000000000000000000000000000000000000000081526004016111fa90613f01565b60405180910390fd5b8a6000806101000a81548173ffffffffffffffffffffffffffffffffffffffff021916908373ffffffffffffffffffffffffffffffffffffffff16021790555089600160006101000a81548173ffffffffffffffffffffffffffffffffffffffff021916908373ffffffffffffffffffffffffffffffffffffffff1602179055508760008151811061129857611297614612565b5b6020026020010151600281905550876001815181106112ba576112b9614612565b5b6020026020010151600381905550866006819055508560078190555084600881905550600854600e8190555083600960016101000a81548163ffffffff021916908363ffffffff16021790555082600960056101000a81548163ffffffff021916908363ffffffff16021790555081600960006101000a81548160ff0219169083151502179055508860008151811061135657611355614612565b5b60200260200101516009806101000a81548173ffffffffffffffffffffffffffffffffffffffff021916908373ffffffffffffffffffffffffffffffffffffffff160217905550886001815181106113b1576113b0614612565b5b6020026020010151600a60006101000a81548173ffffffffffffffffffffffffffffffffffffffff021916908373ffffffffffffffffffffffffffffffffffffffff16021790555080600b8190555086670de0b6b3a7640000600354611417919061438d565b611421919061435c565b600481905550670de0b6b3a7640000606461143c919061438d565b8160045461144a919061438d565b611454919061435c565b6005819055506004546010819055506005546012819055505050505050505050505050565b60115481565b600d60009054906101000a900460ff1681565b600d60019054906101000a900460ff1681565b6000670de0b6b3a764000060646114bc919061438d565b600b546114c884612ce4565b6114d2919061438d565b6114dc919061435c565b9050919050565b600f5481565b6000670de0b6b3a76400006064611500919061438d565b600b54601154611510919061438d565b61151a919061435c565b905090565b600a60009054906101000a900473ffffffffffffffffffffffffffffffffffffffff1681565b60075481565b600d60029054906101000a900460ff1681565b60145481565b600160009054906101000a900473ffffffffffffffffffffffffffffffffffffffff1673ffffffffffffffffffffffffffffffffffffffff163373ffffffffffffffffffffffffffffffffffffffff16146115f4576040517f08c379a00000000000000000000000000000000000000000000000000000000081526004016115eb90614001565b60405180910390fd5b600d60009054906101000a900460ff1615611644576040517f08c379a000000000000000000000000000000000000000000000000000000000815260040161163b90614021565b60405180910390fd5b600d60019054906101000a900460ff1615611694576040517f08c379a000000000000000000000000000000000000000000000000000000000815260040161168b90614081565b60405180910390fd5b6001600d60016101000a81548160ff021916908315150217905550565b6000600d60019054906101000a900460ff1615611703576040517f08c379a00000000000000000000000000000000000000000000000000000000081526004016116fa90614081565b60405180910390fd5b426007541115611748576040517f08c379a000000000000000000000000000000000000000000000000000000000815260040161173f906140e1565b60405180910390fd5b600d60049054906101000a900460ff1615611798576040517f08c379a000000000000000000000000000000000000000000000000000000000815260040161178f90614121565b60405180910390fd5b6000601660003373ffffffffffffffffffffffffffffffffffffffff1673ffffffffffffffffffffffffffffffffffffffff168152602001908152602001600020600101541161181d576040517f08c379a0000000000000000000000000000000000000000000000000000000008152600401611814906141a1565b60405180910390fd5b6000601660003373ffffffffffffffffffffffffffffffffffffffff1673ffffffffffffffffffffffffffffffffffffffff168152602001908152602001600020905060008160010154905061187233612ce4565b601060008282546118839190614306565b92505081905550611893336114a5565b601260008282546118a49190614306565b925050819055506000826001018190555080601360008282546118c791906143e7565b92505081905550600a60009054906101000a900473ffffffffffffffffffffffffffffffffffffffff1673ffffffffffffffffffffffffffffffffffffffff1663a9059cbb33836040518363ffffffff1660e01b815260040161192b929190613d60565b602060405180830381600087803b15801561194557600080fd5b505af1158015611959573d6000803e3d6000fd5b505050506040513d601f19601f8201168201806040525081019061197d9190613735565b6119bc576040517f08c379a00000000000000000000000000000000000000000000000000000000081526004016119b390613f41565b60405180910390fd5b3373ffffffffffffffffffffffffffffffffffffffff167f1a689b1a62e3bb77f9c98d8759c04f341a67deb5cc63cf53be8324b69106495082604051611a0291906141c1565b60405180910390a2809250505090565b60025481565b600160009054906101000a900473ffffffffffffffffffffffffffffffffffffffff1673ffffffffffffffffffffffffffffffffffffffff163373ffffffffffffffffffffffffffffffffffffffff1614611aa8576040517f08c379a0000000000000000000000000000000000000000000000000000000008152600401611a9f90614001565b60405180910390fd5b600d60009054906101000a900460ff1615611af8576040517f08c379a0000000000000000000000000000000000000000000000000000000008152600401611aef90614021565b60405180910390fd5b60011515600960009054906101000a900460ff16151514611b4e576040517f08c379a0000000000000000000000000000000000000000000000000000000008152600401611b4590614141565b60405180910390fd5b6000601560008373ffffffffffffffffffffffffffffffffffffffff1673ffffffffffffffffffffffffffffffffffffffff16815260200190815260200160002060006101000a81548160ff02191690831515021790555050565b600160009054906101000a900473ffffffffffffffffffffffffffffffffffffffff1673ffffffffffffffffffffffffffffffffffffffff163373ffffffffffffffffffffffffffffffffffffffff1614611c39576040517f08c379a0000000000000000000000000000000000000000000000000000000008152600401611c3090614001565b60405180910390fd5b600d60009054906101000a900460ff1615611c89576040517f08c379a0000000000000000000000000000000000000000000000000000000008152600401611c8090614021565b60405180910390fd5b60011515600960009054906101000a900460ff16151514611cdf576040517f08c379a0000000000000000000000000000000000000000000000000000000008152600401611cd690614141565b60405180910390fd5b6001601560008373ffffffffffffffffffffffffffffffffffffffff1673ffffffffffffffffffffffffffffffffffffffff16815260200190815260200160002060006101000a81548160ff02191690831515021790555050565b60065481565b600e5481565b6000600d60049054906101000a900460ff16611d97576040517f08c379a0000000000000000000000000000000000000000000000000000000008152600401611d8e90614161565b60405180910390fd5b426008541080611db35750600d60059054906101000a900460ff165b611df2576040517f08c379a0000000000000000000000000000000000000000000000000000000008152600401611de990613ea1565b60405180910390fd5b6000611dfd84612d6f565b905060008111611e42576040517f08c379a0000000000000000000000000000000000000000000000000000000008152600401611e3990614181565b60405180910390fd5b82811015611e85576040517f08c379a0000000000000000000000000000000000000000000000000000000008152600401611e7c90613e21565b60405180910390fd5b6000670de0b6b3a76400006064611e9c919061438d565b600b5485611eaa919061438d565b611eb4919061435c565b905083601660008773ffffffffffffffffffffffffffffffffffffffff1673ffffffffffffffffffffffffffffffffffffffff1681526020019081526020016000206000016000828254611f089190614306565b925050819055508360116000828254611f219190614306565b9250508190555060098054906101000a900473ffffffffffffffffffffffffffffffffffffffff1673ffffffffffffffffffffffffffffffffffffffff1663a9059cbb60008054906101000a900473ffffffffffffffffffffffffffffffffffffffff16836040518363ffffffff1660e01b8152600401611fa3929190613d60565b602060405180830381600087803b158015611fbd57600080fd5b505af1158015611fd1573d6000803e3d6000fd5b505050506040513d601f19601f82011682018060405250810190611ff59190613735565b612034576040517f08c379a000000000000000000000000000000000000000000000000000000000815260040161202b90613fa1565b60405180910390fd5b60098054906101000a900473ffffffffffffffffffffffffffffffffffffffff1673ffffffffffffffffffffffffffffffffffffffff1663a9059cbb86866040518363ffffffff1660e01b815260040161208f929190613d60565b602060405180830381600087803b1580156120a957600080fd5b505af11580156120bd573d6000803e3d6000fd5b505050506040513d601f19601f820116820180604052508101906120e19190613735565b612120576040517f08c379a000000000000000000000000000000000000000000000000000000000815260040161211790613fa1565b60405180910390fd5b60008054906101000a900473ffffffffffffffffffffffffffffffffffffffff1673ffffffffffffffffffffffffffffffffffffffff168573ffffffffffffffffffffffffffffffffffffffff167f9bd10be98695714f5cb43cefb59ba6417808b354710acafafe05e81b26492231868460405161219f9291906141dc565b60405180910390a3809250505092915050565b600160009054906101000a900473ffffffffffffffffffffffffffffffffffffffff1673ffffffffffffffffffffffffffffffffffffffff163373ffffffffffffffffffffffffffffffffffffffff1614612242576040517f08c379a000000000000000000000000000000000000000000000000000000000815260040161223990614001565b60405180910390fd5b600060085442119050600d60009054906101000a900460ff16806122635750805b6122a2576040517f08c379a000000000000000000000000000000000000000000000000000000000815260040161229990613ee1565b60405180910390fd5b80156124815760006012546010546122ba9190614306565b6005546004546122ca9190614306565b6122d491906143e7565b905060008160098054906101000a900473ffffffffffffffffffffffffffffffffffffffff1673ffffffffffffffffffffffffffffffffffffffff166370a08231306040518263ffffffff1660e01b81526004016123329190613d0e565b60206040518083038186803b15801561234a57600080fd5b505afa15801561235e573d6000803e3d6000fd5b505050506040513d601f19601f8201168201806040525081019061238291906137d8565b61238c91906143e7565b905060098054906101000a900473ffffffffffffffffffffffffffffffffffffffff1673ffffffffffffffffffffffffffffffffffffffff1663a9059cbb85836040518363ffffffff1660e01b81526004016123e9929190613d60565b602060405180830381600087803b15801561240357600080fd5b505af1158015612417573d6000803e3d6000fd5b505050506040513d601f19601f8201168201806040525081019061243b9190613735565b61247a576040517f08c379a000000000000000000000000000000000000000000000000000000000815260040161247190613de1565b60405180910390fd5b5050612616565b60098054906101000a900473ffffffffffffffffffffffffffffffffffffffff1673ffffffffffffffffffffffffffffffffffffffff1663a9059cbb8360098054906101000a900473ffffffffffffffffffffffffffffffffffffffff1673ffffffffffffffffffffffffffffffffffffffff166370a08231306040518263ffffffff1660e01b81526004016125179190613d0e565b60206040518083038186803b15801561252f57600080fd5b505afa158015612543573d6000803e3d6000fd5b505050506040513d601f19601f8201168201806040525081019061256791906137d8565b6040518363ffffffff1660e01b8152600401612584929190613d60565b602060405180830381600087803b15801561259e57600080fd5b505af11580156125b2573d6000803e3d6000fd5b505050506040513d601f19601f820116820180604052508101906125d69190613735565b612615576040517f08c379a000000000000000000000000000000000000000000000000000000000815260040161260c90613de1565b60405180910390fd5b5b5050565b60125481565b60045481565b60156020528060005260406000206000915054906101000a900460ff1681565b600080600d60009054906101000a900460ff1615612699576040517f08c379a000000000000000000000000000000000000000000000000000000000815260040161269090614021565b60405180910390fd5b600d60019054906101000a900460ff16156126e9576040517f08c379a00000000000000000000000000000000000000000000000000000000081526004016126e090614081565b60405180910390fd5b600d60059054906101000a900460ff1615612739576040517f08c379a000000000000000000000000000000000000000000000000000000000815260040161273090613e01565b60405180910390fd5b600960009054906101000a900460ff16158061279e5750601560003373ffffffffffffffffffffffffffffffffffffffff1673ffffffffffffffffffffffffffffffffffffffff16815260200190815260200160002060009054906101000a900460ff165b6127dd576040517f08c379a00000000000000000000000000000000000000000000000000000000081526004016127d490613f61565b60405180910390fd5b42600854101580156127f157504260075411155b612830576040517f08c379a000000000000000000000000000000000000000000000000000000000815260040161282790614041565b60405180910390fd5b600d60029054906101000a900460ff1661295a576005546004546128549190614306565b60098054906101000a900473ffffffffffffffffffffffffffffffffffffffff1673ffffffffffffffffffffffffffffffffffffffff166370a08231306040518263ffffffff1660e01b81526004016128ad9190613d0e565b60206040518083038186803b1580156128c557600080fd5b505afa1580156128d9573d6000803e3d6000fd5b505050506040513d601f19601f820116820180604052508101906128fd91906137d8565b101561293e576040517f08c379a000000000000000000000000000000000000000000000000000000000815260040161293590614101565b60405180910390fd5b6001600d60026101000a81548160ff0219169083151502179055505b6000600654670de0b6b3a764000085612973919061438d565b61297d919061435c565b90506000670de0b6b3a76400006064612996919061438d565b600b54836129a4919061438d565b6129ae919061435c565b9050600960019054906101000a900463ffffffff1663ffffffff16821015612a0b576040517f08c379a0000000000000000000000000000000000000000000000000000000008152600401612a0290613f21565b60405180910390fd5b60035485601354612a1c9190614306565b1115612a5d576040517f08c379a0000000000000000000000000000000000000000000000000000000008152600401612a5490613e61565b60405180910390fd5b816010541015612aa2576040517f08c379a0000000000000000000000000000000000000000000000000000000008152600401612a9990613fe1565b60405180910390fd5b8460136000828254612ab49190614306565b925050819055508160106000828254612acd91906143e7565b925050819055508060126000828254612ae691906143e7565b9250508190555060025460135410612b14576001600d60046101000a81548160ff0219169083151502179055505b60035460135410612b42576001600d60056101000a81548160ff02191690831515021790555042600e819055505b612b993386601660003373ffffffffffffffffffffffffffffffffffffffff1673ffffffffffffffffffffffffffffffffffffffff16815260200190815260200160002060010154612b949190614306565b6131b2565b600a60009054906101000a900473ffffffffffffffffffffffffffffffffffffffff1673ffffffffffffffffffffffffffffffffffffffff166323b872dd3330886040518463ffffffff1660e01b8152600401612bf893929190613d29565b602060405180830381600087803b158015612c1257600080fd5b505af1158015612c26573d6000803e3d6000fd5b505050506040513d601f19601f82011682018060405250810190612c4a9190613735565b612c89576040517f08c379a0000000000000000000000000000000000000000000000000000000008152600401612c80906140a1565b60405180910390fd5b3373ffffffffffffffffffffffffffffffffffffffff167fcf5ef2b227e797b567f0df4c49cc8b6207cfb60054eb899e5608de08e5dcb1ef83604051612ccf91906141c1565b60405180910390a28181935093505050915091565b6000600654670de0b6b3a7640000601660008573ffffffffffffffffffffffffffffffffffffffff1673ffffffffffffffffffffffffffffffffffffffff16815260200190815260200160002060010154612d3f919061438d565b612d49919061435c565b9050919050565b600b5481565b600d60049054906101000a900460ff1681565b60055481565b600080601660008473ffffffffffffffffffffffffffffffffffffffff1673ffffffffffffffffffffffffffffffffffffffff1681526020019081526020016000209050600e54421015612dc7576000915050612e95565b6000600e5442612dd791906143e7565b9050600960059054906101000a900463ffffffff1663ffffffff16811015612e0457600092505050612e95565b600960019054906101000a900463ffffffff1663ffffffff168110612e44578160000154612e3185612ce4565b612e3b91906143e7565b92505050612e95565b6000600960019054906101000a900463ffffffff1663ffffffff16612e6886612ce4565b83612e73919061438d565b612e7d919061435c565b9050826000015481612e8f91906143e7565b93505050505b919050565b600160009054906101000a900473ffffffffffffffffffffffffffffffffffffffff1673ffffffffffffffffffffffffffffffffffffffff163373ffffffffffffffffffffffffffffffffffffffff1614612f2a576040517f08c379a0000000000000000000000000000000000000000000000000000000008152600401612f2190614001565b60405180910390fd5b600d60009054906101000a900460ff1615612f7a576040517f08c379a0000000000000000000000000000000000000000000000000000000008152600401612f7190614021565b60405180910390fd5b60011515600960009054906101000a900460ff16151514612fd0576040517f08c379a0000000000000000000000000000000000000000000000000000000008152600401612fc790614141565b60405180910390fd5b60005b815181101561306157600160156000848481518110612ff557612ff4614612565b5b602002602001015173ffffffffffffffffffffffffffffffffffffffff1673ffffffffffffffffffffffffffffffffffffffff16815260200190815260200160002060006101000a81548160ff02191690831515021790555080806130599061453c565b915050612fd3565b5050565b600960059054906101000a900463ffffffff1681565b600160009054906101000a900473ffffffffffffffffffffffffffffffffffffffff1681565b60035481565b60011515600d60039054906101000a900460ff1615151415806131175750600160009054906101000a900473ffffffffffffffffffffffffffffffffffffffff1673ffffffffffffffffffffffffffffffffffffffff163373ffffffffffffffffffffffffffffffffffffffff16145b613156576040517f08c379a000000000000000000000000000000000000000000000000000000000815260040161314d90613e81565b60405180910390fd5b80600c908051906020019061316c929190613286565b508060405161317b9190613cf7565b60405180910390207f09f579b21815d3f81581d32e97736ccba1cc89d1918e48da28e6e206acd9686460405160405180910390a250565b6000601660008473ffffffffffffffffffffffffffffffffffffffff1673ffffffffffffffffffffffffffffffffffffffff16815260200190815260200160002060010154141561321657600f60008154809291906132109061453c565b91905055505b60405180604001604052806000815260200182815250601660008473ffffffffffffffffffffffffffffffffffffffff1673ffffffffffffffffffffffffffffffffffffffff16815260200190815260200160002060008201518160000155602082015181600101559050505050565b828054613292906144d9565b90600052602060002090601f0160209004810192826132b457600085556132fb565b82601f106132cd57805160ff19168380011785556132fb565b828001600101855582156132fb579182015b828111156132fa5782518255916020019190600101906132df565b5b509050613308919061330c565b5090565b5b8082111561332557600081600090555060010161330d565b5090565b600061333c61333784614245565b614220565b9050808382526020820190508285602086028201111561335f5761335e614675565b5b60005b8581101561338f5781613375888261344b565b845260208401935060208301925050600181019050613362565b5050509392505050565b60006133ac6133a784614271565b614220565b905080838252602082019050828560208602820111156133cf576133ce614675565b5b60005b858110156133ff57816133e58882613514565b8452602084019350602083019250506001810190506133d2565b5050509392505050565b600061341c6134178461429d565b614220565b9050828152602081018484840111156134385761343761467a565b5b613443848285614497565b509392505050565b60008135905061345a81614eaf565b92915050565b600082601f83011261347557613474614670565b5b8135613485848260208601613329565b91505092915050565b600082601f8301126134a3576134a2614670565b5b81356134b3848260208601613399565b91505092915050565b6000813590506134cb81614ec6565b92915050565b6000815190506134e081614ec6565b92915050565b600082601f8301126134fb576134fa614670565b5b813561350b848260208601613409565b91505092915050565b60008135905061352381614edd565b92915050565b60008151905061353881614edd565b92915050565b60008135905061354d81614ef4565b92915050565b60006020828403121561356957613568614684565b5b60006135778482850161344b565b91505092915050565b60008060008060008060008060008060006101608c8e0312156135a6576135a5614684565b5b60006135b48e828f0161344b565b9b505060206135c58e828f0161344b565b9a505060408c013567ffffffffffffffff8111156135e6576135e561467f565b5b6135f28e828f01613460565b99505060608c013567ffffffffffffffff8111156136135761361261467f565b5b61361f8e828f0161348e565b98505060806136308e828f01613514565b97505060a06136418e828f01613514565b96505060c06136528e828f01613514565b95505060e06136638e828f0161353e565b9450506101006136758e828f0161353e565b9350506101206136878e828f016134bc565b9250506101406136998e828f01613514565b9150509295989b509295989b9093969950565b600080604083850312156136c3576136c2614684565b5b60006136d18582860161344b565b92505060206136e285828601613514565b9150509250929050565b60006020828403121561370257613701614684565b5b600082013567ffffffffffffffff8111156137205761371f61467f565b5b61372c84828501613460565b91505092915050565b60006020828403121561374b5761374a614684565b5b6000613759848285016134d1565b91505092915050565b60006020828403121561377857613777614684565b5b600082013567ffffffffffffffff8111156137965761379561467f565b5b6137a2848285016134e6565b91505092915050565b6000602082840312156137c1576137c0614684565b5b60006137cf84828501613514565b91505092915050565b6000602082840312156137ee576137ed614684565b5b60006137fc84828501613529565b91505092915050565b61380e8161441b565b82525050565b61381d8161442d565b82525050565b600061382e826142ce565b61383881856142d9565b93506138488185602086016144a6565b61385181614689565b840191505092915050565b6000613867826142ce565b61387181856142ea565b93506138818185602086016144a6565b80840191505092915050565b61389681614473565b82525050565b60006138a96034836142f5565b91506138b48261469a565b604082019050919050565b60006138cc601d836142f5565b91506138d7826146e9565b602082019050919050565b60006138ef602e836142f5565b91506138fa82614712565b604082019050919050565b60006139126030836142f5565b915061391d82614761565b604082019050919050565b6000613935602a836142f5565b9150613940826147b0565b604082019050919050565b60006139586042836142f5565b9150613963826147ff565b606082019050919050565b600061397b602b836142f5565b915061398682614874565b604082019050919050565b600061399e602d836142f5565b91506139a9826148c3565b604082019050919050565b60006139c1605e836142f5565b91506139cc82614912565b606082019050919050565b60006139e4603b836142f5565b91506139ef82614987565b604082019050919050565b6000613a07601f836142f5565b9150613a12826149d6565b602082019050919050565b6000613a2a6030836142f5565b9150613a35826149ff565b604082019050919050565b6000613a4d601a836142f5565b9150613a5882614a4e565b602082019050919050565b6000613a70603d836142f5565b9150613a7b82614a77565b604082019050919050565b6000613a936020836142f5565b9150613a9e82614ac6565b602082019050919050565b6000613ab66016836142f5565b9150613ac182614aef565b602082019050919050565b6000613ad96029836142f5565b9150613ae482614b18565b604082019050919050565b6000613afc601c836142f5565b9150613b0782614b67565b602082019050919050565b6000613b1f601a836142f5565b9150613b2a82614b90565b602082019050919050565b6000613b42602d836142f5565b9150613b4d82614bb9565b604082019050919050565b6000613b656022836142f5565b9150613b7082614c08565b604082019050919050565b6000613b88601a836142f5565b9150613b9382614c57565b602082019050919050565b6000613bab6027836142f5565b9150613bb682614c80565b604082019050919050565b6000613bce6032836142f5565b9150613bd982614ccf565b604082019050919050565b6000613bf16022836142f5565b9150613bfc82614d1e565b604082019050919050565b6000613c146023836142f5565b9150613c1f82614d6d565b604082019050919050565b6000613c376019836142f5565b9150613c4282614dbc565b602082019050919050565b6000613c5a601d836142f5565b9150613c6582614de5565b602082019050919050565b6000613c7d6024836142f5565b9150613c8882614e0e565b604082019050919050565b6000613ca0601b836142f5565b9150613cab82614e5d565b602082019050919050565b6000613cc36019836142f5565b9150613cce82614e86565b602082019050919050565b613ce281614459565b82525050565b613cf181614463565b82525050565b6000613d03828461385c565b915081905092915050565b6000602082019050613d236000830184613805565b92915050565b6000606082019050613d3e6000830186613805565b613d4b6020830185613805565b613d586040830184613cd9565b949350505050565b6000604082019050613d756000830185613805565b613d826020830184613cd9565b9392505050565b6000602082019050613d9e6000830184613814565b92915050565b60006020820190508181036000830152613dbe8184613823565b905092915050565b6000602082019050613ddb600083018461388d565b92915050565b60006020820190508181036000830152613dfa8161389c565b9050919050565b60006020820190508181036000830152613e1a816138bf565b9050919050565b60006020820190508181036000830152613e3a816138e2565b9050919050565b60006020820190508181036000830152613e5a81613905565b9050919050565b60006020820190508181036000830152613e7a81613928565b9050919050565b60006020820190508181036000830152613e9a8161394b565b9050919050565b60006020820190508181036000830152613eba8161396e565b9050919050565b60006020820190508181036000830152613eda81613991565b9050919050565b60006020820190508181036000830152613efa816139b4565b9050919050565b60006020820190508181036000830152613f1a816139d7565b9050919050565b60006020820190508181036000830152613f3a816139fa565b9050919050565b60006020820190508181036000830152613f5a81613a1d565b9050919050565b60006020820190508181036000830152613f7a81613a40565b9050919050565b60006020820190508181036000830152613f9a81613a63565b9050919050565b60006020820190508181036000830152613fba81613a86565b9050919050565b60006020820190508181036000830152613fda81613aa9565b9050919050565b60006020820190508181036000830152613ffa81613acc565b9050919050565b6000602082019050818103600083015261401a81613aef565b9050919050565b6000602082019050818103600083015261403a81613b12565b9050919050565b6000602082019050818103600083015261405a81613b35565b9050919050565b6000602082019050818103600083015261407a81613b58565b9050919050565b6000602082019050818103600083015261409a81613b7b565b9050919050565b600060208201905081810360008301526140ba81613b9e565b9050919050565b600060208201905081810360008301526140da81613bc1565b9050919050565b600060208201905081810360008301526140fa81613be4565b9050919050565b6000602082019050818103600083015261411a81613c07565b9050919050565b6000602082019050818103600083015261413a81613c2a565b9050919050565b6000602082019050818103600083015261415a81613c4d565b9050919050565b6000602082019050818103600083015261417a81613c70565b9050919050565b6000602082019050818103600083015261419a81613c93565b9050919050565b600060208201905081810360008301526141ba81613cb6565b9050919050565b60006020820190506141d66000830184613cd9565b92915050565b60006040820190506141f16000830185613cd9565b6141fe6020830184613cd9565b9392505050565b600060208201905061421a6000830184613ce8565b92915050565b600061422a61423b565b9050614236828261450b565b919050565b6000604051905090565b600067ffffffffffffffff8211156142605761425f614641565b5b602082029050602081019050919050565b600067ffffffffffffffff82111561428c5761428b614641565b5b602082029050602081019050919050565b600067ffffffffffffffff8211156142b8576142b7614641565b5b6142c182614689565b9050602081019050919050565b600081519050919050565b600082825260208201905092915050565b600081905092915050565b600082825260208201905092915050565b600061431182614459565b915061431c83614459565b9250827fffffffffffffffffffffffffffffffffffffffffffffffffffffffffffffffff0382111561435157614350614585565b5b828201905092915050565b600061436782614459565b915061437283614459565b925082614382576143816145b4565b5b828204905092915050565b600061439882614459565b91506143a383614459565b9250817fffffffffffffffffffffffffffffffffffffffffffffffffffffffffffffffff04831182151516156143dc576143db614585565b5b828202905092915050565b60006143f282614459565b91506143fd83614459565b9250828210156144105761440f614585565b5b828203905092915050565b600061442682614439565b9050919050565b60008115159050919050565b600073ffffffffffffffffffffffffffffffffffffffff82169050919050565b6000819050919050565b600063ffffffff82169050919050565b600061447e82614485565b9050919050565b600061449082614439565b9050919050565b82818337600083830152505050565b60005b838110156144c45780820151818401526020810190506144a9565b838111156144d3576000848401525b50505050565b600060028204905060018216806144f157607f821691505b60208210811415614505576145046145e3565b5b50919050565b61451482614689565b810181811067ffffffffffffffff8211171561453357614532614641565b5b80604052505050565b600061454782614459565b91507fffffffffffffffffffffffffffffffffffffffffffffffffffffffffffffffff82141561457a57614579614585565b5b600182019050919050565b7f4e487b7100000000000000000000000000000000000000000000000000000000600052601160045260246000fd5b7f4e487b7100000000000000000000000000000000000000000000000000000000600052601260045260246000fd5b7f4e487b7100000000000000000000000000000000000000000000000000000000600052602260045260246000fd5b7f4e487b7100000000000000000000000000000000000000000000000000000000600052603260045260246000fd5b7f4e487b7100000000000000000000000000000000000000000000000000000000600052604160045260246000fd5b600080fd5b600080fd5b600080fd5b600080fd5b600080fd5b6000601f19601f8301169050919050565b7f536565643a2073686f756c64207472616e73666572207365656420746f6b656e60008201527f7320746f20726566756e64207265636569766572000000000000000000000000602082015250565b7f536565643a206d6178696d756d2066756e64696e672072656163686564000000600082015250565b7f536565643a20726571756573742069732067726561746572207468616e20636c60008201527f61696d61626c6520616d6f756e74000000000000000000000000000000000000602082015250565b7f53656564466163746f72793a20686172644361702063616e6e6f74206265206c60008201527f657373207468616e20736f667443617000000000000000000000000000000000602082015250565b7f536565643a20616d6f756e74206578636565647320636f6e747261637420736160008201527f6c65206861726443617000000000000000000000000000000000000000000000602082015250565b7f536565643a20636f6e74726163742073686f756c64206e6f7420626520696e6960008201527f7469616c697a6564206f722063616c6c65722073686f756c642062652061646d60208201527f696e000000000000000000000000000000000000000000000000000000000000604082015250565b7f536565643a2074686520646973747269627574696f6e20686173206e6f74207960008201527f65742066696e6973686564000000000000000000000000000000000000000000602082015250565b7f53656564466163746f72793a2073656564546f6b656e2063616e6e6f7420626560008201527f2066756e64696e67546f6b656e00000000000000000000000000000000000000602082015250565b7f536565643a20726566756e64207365656420746f6b656e73206f6e6c7920776860008201527f656e207365656420646973747269627574696f6e20697320636c6f736564206f60208201527f7220616674657220646973747269627574696f6e20656e642074696d652e0000604082015250565b7f53656564466163746f72793a20656e6454696d652063616e6e6f74206265206c60008201527f657373207468616e20657175616c20746f20737461727454696d650000000000602082015250565b7f536565643a20616d6f756e745665737465645065725365636f6e64203e203000600082015250565b7f536565643a2063616e6e6f742072657475726e2066756e64696e6720746f6b6560008201527f6e7320746f206d73672e73656e64657200000000000000000000000000000000602082015250565b7f536565643a2073656e64657220686173206e6f20726967687473000000000000600082015250565b7f53656564466163746f72793a2076657374696e674475726174696f6e2063616e60008201527f6e6f74206265206c657373207468616e2076657374696e67436c696666000000602082015250565b7f536565643a207365656420746f6b656e207472616e73666572206661696c6564600082015250565b7f536565643a2073686f756c642062652070617573656400000000000000000000600082015250565b7f536565643a207365656420646973747269627574696f6e20776f756c6420626560008201527f2065786365656465640000000000000000000000000000000000000000000000602082015250565b7f536565643a2063616c6c65722073686f756c642062652061646d696e00000000600082015250565b7f536565643a2073686f756c64206e6f7420626520636c6f736564000000000000600082015250565b7f536565643a206f6e6c7920616c6c6f77656420647572696e672064697374726960008201527f627574696f6e20706572696f6400000000000000000000000000000000000000602082015250565b7f536565643a20636f6e747261637420616c726561647920696e697469616c697a60008201527f6564000000000000000000000000000000000000000000000000000000000000602082015250565b7f536565643a2073686f756c64206e6f7420626520706175736564000000000000600082015250565b7f536565643a2066756e64696e6720746f6b656e207472616e7366657246726f6d60008201527f206661696c656400000000000000000000000000000000000000000000000000602082015250565b7f536565643a2063616e6e6f7420636c6f7365206166746572206d696e696d756d60008201527f2074617267657420697320726561636865640000000000000000000000000000602082015250565b7f536565643a20646973747269627574696f6e20686176656e277420737461727460008201527f6564000000000000000000000000000000000000000000000000000000000000602082015250565b7f536565643a2073756666696369656e74207365656473206e6f742070726f766960008201527f6465640000000000000000000000000000000000000000000000000000000000602082015250565b7f536565643a206d696e696d756d20616c7265616479206d657400000000000000600082015250565b7f536565643a2073656564206973206e6f742077686974656c6973746564000000600082015250565b7f536565643a206d696e696d756d2066756e64696e6720616d6f756e74206e6f7460008201527f206d657400000000000000000000000000000000000000000000000000000000602082015250565b7f536565643a20616d6f756e7420636c61696d61626c6520697320300000000000600082015250565b7f536565643a207a65726f2066756e64696e6720616d6f756e7400000000000000600082015250565b614eb88161441b565b8114614ec357600080fd5b50565b614ecf8161442d565b8114614eda57600080fd5b50565b614ee681614459565b8114614ef157600080fd5b50565b614efd81614463565b8114614f0857600080fd5b5056fea264697066735822122056015abbc58af4153613e3720784e204f45cff30d74d0eee9dfb1a6dc1d524c464736f6c63430008060033",
  "linkReferences": {},
  "deployedLinkReferences": {}
}