{
  "_format": "hh-sol-artifact-1",
  "contractName": "Seed",
  "sourceName": "contracts/seed/Seed.sol",
  "abi": [
    {
      "anonymous": false,
      "inputs": [
        {
          "indexed": true,
          "internalType": "address",
          "name": "recipient",
          "type": "address"
        },
        {
          "indexed": false,
          "internalType": "uint256",
          "name": "amountReclaimed",
          "type": "uint256"
        }
      ],
      "name": "FundingReclaimed",
      "type": "event"
    },
    {
      "anonymous": false,
      "inputs": [
        {
          "indexed": true,
          "internalType": "bytes",
          "name": "metadata",
          "type": "bytes"
        }
      ],
      "name": "MetadataUpdated",
      "type": "event"
    },
    {
      "anonymous": false,
      "inputs": [
        {
          "indexed": true,
          "internalType": "address",
          "name": "recipient",
          "type": "address"
        },
        {
          "indexed": false,
          "internalType": "uint256",
          "name": "amountPurchased",
          "type": "uint256"
        }
      ],
      "name": "SeedsPurchased",
      "type": "event"
    },
    {
      "anonymous": false,
      "inputs": [
        {
          "indexed": true,
          "internalType": "address",
          "name": "recipient",
          "type": "address"
        },
        {
          "indexed": false,
          "internalType": "uint256",
          "name": "amount",
          "type": "uint256"
        },
        {
          "indexed": true,
          "internalType": "address",
          "name": "beneficiary",
          "type": "address"
        },
        {
          "indexed": false,
          "internalType": "uint256",
          "name": "feeAmount",
          "type": "uint256"
        }
      ],
      "name": "TokensClaimed",
      "type": "event"
    },
    {
      "inputs": [],
      "name": "admin",
      "outputs": [
        {
          "internalType": "address",
          "name": "",
          "type": "address"
        }
      ],
      "stateMutability": "view",
      "type": "function"
    },
    {
      "inputs": [],
      "name": "beneficiary",
      "outputs": [
        {
          "internalType": "address",
          "name": "",
          "type": "address"
        }
      ],
      "stateMutability": "view",
      "type": "function"
    },
    {
      "inputs": [
        {
          "internalType": "uint256",
          "name": "_fundingAmount",
          "type": "uint256"
        }
      ],
      "name": "buy",
      "outputs": [
        {
          "internalType": "uint256",
          "name": "",
          "type": "uint256"
        },
        {
          "internalType": "uint256",
          "name": "",
          "type": "uint256"
        }
      ],
      "stateMutability": "nonpayable",
      "type": "function"
    },
    {
      "inputs": [
        {
          "internalType": "bytes32",
          "name": "c__0xeb5bb505",
          "type": "bytes32"
        }
      ],
      "name": "c_0xeb5bb505",
      "outputs": [],
      "stateMutability": "pure",
      "type": "function"
    },
    {
      "inputs": [
        {
          "internalType": "address",
          "name": "_funder",
          "type": "address"
        }
      ],
      "name": "calculateClaim",
      "outputs": [
        {
          "internalType": "uint256",
          "name": "",
          "type": "uint256"
        }
      ],
      "stateMutability": "view",
      "type": "function"
    },
    {
      "inputs": [
        {
          "internalType": "address",
          "name": "_funder",
          "type": "address"
        },
        {
          "internalType": "uint256",
          "name": "_claimAmount",
          "type": "uint256"
        }
      ],
      "name": "claim",
      "outputs": [
        {
          "internalType": "uint256",
          "name": "",
          "type": "uint256"
        }
      ],
      "stateMutability": "nonpayable",
      "type": "function"
    },
    {
      "inputs": [],
      "name": "close",
      "outputs": [],
      "stateMutability": "nonpayable",
      "type": "function"
    },
    {
      "inputs": [],
      "name": "closed",
      "outputs": [
        {
          "internalType": "bool",
          "name": "",
          "type": "bool"
        }
      ],
      "stateMutability": "view",
      "type": "function"
    },
    {
      "inputs": [],
      "name": "endTime",
      "outputs": [
        {
          "internalType": "uint256",
          "name": "",
          "type": "uint256"
        }
      ],
      "stateMutability": "view",
      "type": "function"
    },
    {
      "inputs": [],
      "name": "fee",
      "outputs": [
        {
          "internalType": "uint256",
          "name": "",
          "type": "uint256"
        }
      ],
      "stateMutability": "view",
      "type": "function"
    },
    {
      "inputs": [],
      "name": "feeAmountRequired",
      "outputs": [
        {
          "internalType": "uint256",
          "name": "",
          "type": "uint256"
        }
      ],
      "stateMutability": "view",
      "type": "function"
    },
    {
      "inputs": [],
      "name": "feeClaimed",
      "outputs": [
        {
          "internalType": "uint256",
          "name": "",
          "type": "uint256"
        }
      ],
      "stateMutability": "view",
      "type": "function"
    },
    {
      "inputs": [
        {
          "internalType": "address",
          "name": "_funder",
          "type": "address"
        }
      ],
      "name": "feeClaimedForFunder",
      "outputs": [
        {
          "internalType": "uint256",
          "name": "",
          "type": "uint256"
        }
      ],
      "stateMutability": "view",
      "type": "function"
    },
    {
      "inputs": [
        {
          "internalType": "address",
          "name": "_funder",
          "type": "address"
        }
      ],
      "name": "feeForFunder",
      "outputs": [
        {
          "internalType": "uint256",
          "name": "",
          "type": "uint256"
        }
      ],
      "stateMutability": "view",
      "type": "function"
    },
    {
      "inputs": [],
      "name": "feeRemainder",
      "outputs": [
        {
          "internalType": "uint256",
          "name": "",
          "type": "uint256"
        }
      ],
      "stateMutability": "view",
      "type": "function"
    },
    {
      "inputs": [
        {
          "internalType": "address",
          "name": "",
          "type": "address"
        }
      ],
      "name": "funders",
      "outputs": [
        {
          "internalType": "uint256",
          "name": "totalClaimed",
          "type": "uint256"
        },
        {
          "internalType": "uint256",
          "name": "fundingAmount",
          "type": "uint256"
        }
      ],
      "stateMutability": "view",
      "type": "function"
    },
    {
      "inputs": [],
      "name": "fundingCollected",
      "outputs": [
        {
          "internalType": "uint256",
          "name": "",
          "type": "uint256"
        }
      ],
      "stateMutability": "view",
      "type": "function"
    },
    {
      "inputs": [],
      "name": "fundingToken",
      "outputs": [
        {
          "internalType": "contract IERC20",
          "name": "",
          "type": "address"
        }
      ],
      "stateMutability": "view",
      "type": "function"
    },
    {
      "inputs": [],
      "name": "fundingWithdrawn",
      "outputs": [
        {
          "internalType": "uint256",
          "name": "",
          "type": "uint256"
        }
      ],
      "stateMutability": "view",
      "type": "function"
    },
    {
      "inputs": [],
      "name": "hardCap",
      "outputs": [
        {
          "internalType": "uint256",
          "name": "",
          "type": "uint256"
        }
      ],
      "stateMutability": "view",
      "type": "function"
    },
    {
      "inputs": [
        {
          "internalType": "address",
          "name": "_beneficiary",
          "type": "address"
        },
        {
          "internalType": "address",
          "name": "_admin",
          "type": "address"
        },
        {
          "internalType": "address[]",
          "name": "_tokens",
          "type": "address[]"
        },
        {
          "internalType": "uint256[]",
          "name": "_softHardThresholds",
          "type": "uint256[]"
        },
        {
          "internalType": "uint256",
          "name": "_price",
          "type": "uint256"
        },
        {
          "internalType": "uint256",
          "name": "_startTime",
          "type": "uint256"
        },
        {
          "internalType": "uint256",
          "name": "_endTime",
          "type": "uint256"
        },
        {
          "internalType": "uint32",
          "name": "_vestingDuration",
          "type": "uint32"
        },
        {
          "internalType": "uint32",
          "name": "_vestingCliff",
          "type": "uint32"
        },
        {
          "internalType": "bool",
          "name": "_permissionedSeed",
          "type": "bool"
        },
        {
          "internalType": "uint256",
          "name": "_fee",
          "type": "uint256"
        }
      ],
      "name": "initialize",
      "outputs": [],
      "stateMutability": "nonpayable",
      "type": "function"
    },
    {
      "inputs": [],
      "name": "initialized",
      "outputs": [
        {
          "internalType": "bool",
          "name": "",
          "type": "bool"
        }
      ],
      "stateMutability": "view",
      "type": "function"
    },
    {
      "inputs": [],
      "name": "isFunded",
      "outputs": [
        {
          "internalType": "bool",
          "name": "",
          "type": "bool"
        }
      ],
      "stateMutability": "view",
      "type": "function"
    },
    {
      "inputs": [],
      "name": "maximumReached",
      "outputs": [
        {
          "internalType": "bool",
          "name": "",
          "type": "bool"
        }
      ],
      "stateMutability": "view",
      "type": "function"
    },
    {
      "inputs": [],
      "name": "metadata",
      "outputs": [
        {
          "internalType": "bytes",
          "name": "",
          "type": "bytes"
        }
      ],
      "stateMutability": "view",
      "type": "function"
    },
    {
      "inputs": [],
      "name": "minimumReached",
      "outputs": [
        {
          "internalType": "bool",
          "name": "",
          "type": "bool"
        }
      ],
      "stateMutability": "view",
      "type": "function"
    },
    {
      "inputs": [],
      "name": "pause",
      "outputs": [],
      "stateMutability": "nonpayable",
      "type": "function"
    },
    {
      "inputs": [],
      "name": "paused",
      "outputs": [
        {
          "internalType": "bool",
          "name": "",
          "type": "bool"
        }
      ],
      "stateMutability": "view",
      "type": "function"
    },
    {
      "inputs": [],
      "name": "permissionedSeed",
      "outputs": [
        {
          "internalType": "bool",
          "name": "",
          "type": "bool"
        }
      ],
      "stateMutability": "view",
      "type": "function"
    },
    {
      "inputs": [],
      "name": "price",
      "outputs": [
        {
          "internalType": "uint256",
          "name": "",
          "type": "uint256"
        }
      ],
      "stateMutability": "view",
      "type": "function"
    },
    {
      "inputs": [],
      "name": "retrieveFundingTokens",
      "outputs": [
        {
          "internalType": "uint256",
          "name": "",
          "type": "uint256"
        }
      ],
      "stateMutability": "nonpayable",
      "type": "function"
    },
    {
      "inputs": [
        {
          "internalType": "address",
          "name": "_refundReceiver",
          "type": "address"
        }
      ],
      "name": "retrieveSeedTokens",
      "outputs": [],
      "stateMutability": "nonpayable",
      "type": "function"
    },
    {
      "inputs": [
        {
          "internalType": "address",
          "name": "_funder",
          "type": "address"
        }
      ],
      "name": "seedAmountForFunder",
      "outputs": [
        {
          "internalType": "uint256",
          "name": "",
          "type": "uint256"
        }
      ],
      "stateMutability": "view",
      "type": "function"
    },
    {
      "inputs": [],
      "name": "seedAmountRequired",
      "outputs": [
        {
          "internalType": "uint256",
          "name": "",
          "type": "uint256"
        }
      ],
      "stateMutability": "view",
      "type": "function"
    },
    {
      "inputs": [],
      "name": "seedClaimed",
      "outputs": [
        {
          "internalType": "uint256",
          "name": "",
          "type": "uint256"
        }
      ],
      "stateMutability": "view",
      "type": "function"
    },
    {
      "inputs": [],
      "name": "seedRemainder",
      "outputs": [
        {
          "internalType": "uint256",
          "name": "",
          "type": "uint256"
        }
      ],
      "stateMutability": "view",
      "type": "function"
    },
    {
      "inputs": [],
      "name": "seedToken",
      "outputs": [
        {
          "internalType": "contract IERC20",
          "name": "",
          "type": "address"
        }
      ],
      "stateMutability": "view",
      "type": "function"
    },
    {
      "inputs": [],
      "name": "softCap",
      "outputs": [
        {
          "internalType": "uint256",
          "name": "",
          "type": "uint256"
        }
      ],
      "stateMutability": "view",
      "type": "function"
    },
    {
      "inputs": [],
      "name": "startTime",
      "outputs": [
        {
          "internalType": "uint256",
          "name": "",
          "type": "uint256"
        }
      ],
      "stateMutability": "view",
      "type": "function"
    },
    {
      "inputs": [],
      "name": "totalFunderCount",
      "outputs": [
        {
          "internalType": "uint256",
          "name": "",
          "type": "uint256"
        }
      ],
      "stateMutability": "view",
      "type": "function"
    },
    {
      "inputs": [],
      "name": "unpause",
      "outputs": [],
      "stateMutability": "nonpayable",
      "type": "function"
    },
    {
      "inputs": [
        {
          "internalType": "address",
          "name": "buyer",
          "type": "address"
        }
      ],
      "name": "unwhitelist",
      "outputs": [],
      "stateMutability": "nonpayable",
      "type": "function"
    },
    {
      "inputs": [
        {
          "internalType": "bytes",
          "name": "_metadata",
          "type": "bytes"
        }
      ],
      "name": "updateMetadata",
      "outputs": [],
      "stateMutability": "nonpayable",
      "type": "function"
    },
    {
      "inputs": [],
      "name": "vestingCliff",
      "outputs": [
        {
          "internalType": "uint32",
          "name": "",
          "type": "uint32"
        }
      ],
      "stateMutability": "view",
      "type": "function"
    },
    {
      "inputs": [],
      "name": "vestingDuration",
      "outputs": [
        {
          "internalType": "uint32",
          "name": "",
          "type": "uint32"
        }
      ],
      "stateMutability": "view",
      "type": "function"
    },
    {
      "inputs": [],
      "name": "vestingStartTime",
      "outputs": [
        {
          "internalType": "uint256",
          "name": "",
          "type": "uint256"
        }
      ],
      "stateMutability": "view",
      "type": "function"
    },
    {
      "inputs": [
        {
          "internalType": "address",
          "name": "_buyer",
          "type": "address"
        }
      ],
      "name": "whitelist",
      "outputs": [],
      "stateMutability": "nonpayable",
      "type": "function"
    },
    {
      "inputs": [
        {
          "internalType": "address[]",
          "name": "_buyers",
          "type": "address[]"
        }
      ],
      "name": "whitelistBatch",
      "outputs": [],
      "stateMutability": "nonpayable",
      "type": "function"
    },
    {
      "inputs": [
        {
          "internalType": "address",
          "name": "",
          "type": "address"
        }
      ],
      "name": "whitelisted",
      "outputs": [
        {
          "internalType": "bool",
          "name": "",
          "type": "bool"
        }
      ],
      "stateMutability": "view",
      "type": "function"
    },
    {
      "inputs": [],
      "name": "withdraw",
      "outputs": [],
      "stateMutability": "nonpayable",
      "type": "function"
    }
  ],
  "bytecode": "0x60806040523480156200001157600080fd5b5061937080620000226000396000f3fe608060405234801561001057600080fd5b50600436106102d65760003560e01c806378e9792511610182578063bc0f5f84116100e9578063e6e36ebb116100a2578063f3640e741161007c578063f3640e7414610875578063f851a44014610893578063fb86a404146108b1578063fc582d41146108cf576102d6565b8063e6e36ebb1461080b578063ea34554014610829578063eaa5352314610859576102d6565b8063bc0f5f8414610720578063d936547e1461073e578063d96a094a1461076e578063dc4b9e381461079f578063ddca3f43146107cf578063e565eb4c146107ed576102d6565b80639a5904271161013b5780639a5904271461065e5780639b19251a1461067a578063a035b1fe14610696578063a8660a78146106b4578063aad3ec96146106d2578063b774682f14610702576102d6565b806378e97925146105be5780637c654303146105dc57806383d59e00146105fa5780638456cb59146106185780638a2448aa14610622578063906a26e014610640576102d6565b80633dba9e4111610241578063597e1fb5116101fa5780635e9777e8116101d45780635e9777e81461054857806371f4b8e81461056657806372b151261461058457806378065f27146105a0576102d6565b8063597e1fb5146104dc5780635c975abb146104fa5780635d85ac0d14610518576102d6565b80633dba9e41146104405780633f4ba83a1461045e578063430e99a41461046857806343d726d61461049857806344f9abb8146104a257806347d02f1b146104be576102d6565b80631cfe562e116102935780631cfe562e146103a0578063311f8483146103be5780633197cbb6146103dc57806338af3eed146103fa578063392f37e9146104185780633ccfd60b14610436576102d6565b8063031b3677146102db57806303aabe311461030c5780630826d2c714610328578063117a36d1146103465780631514617e14610364578063158ef93e14610382575b600080fd5b6102f560048036038101906102f0919061799c565b6108eb565b60405161030392919061860f565b60405180910390f35b6103266004803603810190610321919061799c565b61090f565b005b610330611217565b60405161033d91906185f4565b60405180910390f35b61034e61121d565b60405161035b91906181dc565b60405180910390f35b61036c611230565b6040516103799190618638565b60405180910390f35b61038a611246565b60405161039791906181dc565b60405180910390f35b6103a8611259565b6040516103b591906185f4565b60405180910390f35b6103c661125f565b6040516103d39190618219565b60405180910390f35b6103e4611283565b6040516103f191906185f4565b60405180910390f35b610402611289565b60405161040f9190618161565b60405180910390f35b6104206112ad565b60405161042d91906181f7565b60405180910390f35b61043e61133b565b005b6104486117d6565b60405161045591906181dc565b60405180910390f35b6104666117e9565b005b610482600480360381019061047d919061799c565b611c2f565b60405161048f91906185f4565b60405180910390f35b6104a0611d1f565b005b6104bc60048036038101906104b791906179c9565b6121ee565b005b6104c6613098565b6040516104d391906185f4565b60405180910390f35b6104e461309e565b6040516104f191906181dc565b60405180910390f35b6105026130b1565b60405161050f91906181dc565b60405180910390f35b610532600480360381019061052d919061799c565b6130c4565b60405161053f91906185f4565b60405180910390f35b61055061317a565b60405161055d91906185f4565b60405180910390f35b61056e613180565b60405161057b91906185f4565b60405180910390f35b61059e60048036038101906105999190617bab565b61322e565b005b6105a8613231565b6040516105b59190618219565b60405180910390f35b6105c6613257565b6040516105d391906185f4565b60405180910390f35b6105e461325d565b6040516105f191906181dc565b60405180910390f35b610602613270565b60405161060f91906185f4565b60405180910390f35b610620613276565b005b61062a613707565b60405161063791906185f4565b60405180910390f35b610648614008565b60405161065591906185f4565b60405180910390f35b6106786004803603810190610673919061799c565b61400e565b005b610694600480360381019061068f919061799c565b61448b565b005b61069e614908565b6040516106ab91906185f4565b60405180910390f35b6106bc61490e565b6040516106c991906185f4565b60405180910390f35b6106ec60048036038101906106e79190617af5565b614914565b6040516106f991906185f4565b60405180910390f35b61070a615341565b60405161071791906185f4565b60405180910390f35b610728615347565b60405161073591906185f4565b60405180910390f35b6107586004803603810190610753919061799c565b61534d565b60405161076591906181dc565b60405180910390f35b61078860048036038101906107839190617c21565b61536d565b60405161079692919061860f565b60405180910390f35b6107b960048036038101906107b4919061799c565b6167f4565b6040516107c691906185f4565b60405180910390f35b6107d76168e4565b6040516107e491906185f4565b60405180910390f35b6107f56168ea565b60405161080291906181dc565b60405180910390f35b6108136168fd565b60405161082091906185f4565b60405180910390f35b610843600480360381019061083e919061799c565b616903565b60405161085091906185f4565b60405180910390f35b610873600480360381019061086e9190617b35565b616ed2565b005b61087d6173e1565b60405161088a9190618638565b60405180910390f35b61089b6173f7565b6040516108a89190618161565b60405180910390f35b6108b961741d565b6040516108c691906185f4565b60405180910390f35b6108e960048036038101906108e49190617bd8565b617423565b005b60166020528060005260406000206000915090508060000154908060010154905082565b61093b7f42f8ed4455837f0de99ccc31297cad16cd2404e41c3014c330eacfb2b7c651f660001b61322e565b6109677f43d0ab43fb808a6097b1fe6f150be63388bed595c6321e04bce97ee2cc3a8c1260001b61322e565b6109937fb0fe1f52deb5f394c792fb14d4811afec26d23af8eb67ae85a0f2656ce79673060001b61322e565b6109bf7f98c22615f03bffdcde50240d976aca1f29e7b79b073aee4743a44c237541586560001b61322e565b600160009054906101000a900473ffffffffffffffffffffffffffffffffffffffff1673ffffffffffffffffffffffffffffffffffffffff163373ffffffffffffffffffffffffffffffffffffffff1614610a4f576040517f08c379a0000000000000000000000000000000000000000000000000000000008152600401610a4690618434565b60405180910390fd5b610a7b7ffbe833dbc07901eddbcf9abc59ae9615b8ba1ed66d9de5ccd3bc69288cc882e660001b61322e565b610aa77ff75c0a84f234aac5976b464f9b42d8069f02d61b88daf6804eb03a32b4cf887d60001b61322e565b610ad37fd5f37e876f34d862cef2242578a7f43044fd17f47d5294a617d49dc63d8cdaa260001b61322e565b610aff7faa67ffb5d6049771e57c78f850a71d20208daf4c70026d08b5646c393e97dfcf60001b61322e565b610b2b7ffe6e011714472fe9e19b38fa264f6fd2abd98323a2b79c56bdedb8b17bd11be160001b61322e565b610b577f2e797d6b3488b32bf7f09475ad526668f442ffd80aa8def6f88e6ec06d0324e060001b61322e565b600d60009054906101000a900460ff16610ba6576040517f08c379a0000000000000000000000000000000000000000000000000000000008152600401610b9d90618494565b60405180910390fd5b610bd27f361530e17d3f6dc261f8c626dad79ace1b5241c0a4387d0a5af21bf52000ec6560001b61322e565b610bfe7f785e47f53121ebcc6cb50e3d8e22622b26a68b7f0166c82b17168e3b865587d160001b61322e565b610c2a7f7481d99bb4e15d0c760990d3df4b6babf8d251eeed132f5bb084bb393857fffe60001b61322e565b600d60049054906101000a900460ff16610eb357610c6a7f7af67dc31adb3a636aeeb8ebe1ed53145a394b180ef25b0ddf15eb9ba9b9fcff60001b61322e565b610c967fbf6dbda1015837d93177d2227027f135e9464f5d0c012f18e160ad55be6feeef60001b61322e565b610cc27f65f5fe01ad3dc2fa8354183ab987591578fc37cb853d4f03a784c5654facb2a460001b61322e565b610cee7fd73fdfd3a5da1e3222a227ca73118df64b4151f6390359346ab39e2451fc243060001b61322e565b60098054906101000a900473ffffffffffffffffffffffffffffffffffffffff1673ffffffffffffffffffffffffffffffffffffffff1663a9059cbb8260098054906101000a900473ffffffffffffffffffffffffffffffffffffffff1673ffffffffffffffffffffffffffffffffffffffff166370a08231306040518263ffffffff1660e01b8152600401610d849190618161565b60206040518083038186803b158015610d9c57600080fd5b505afa158015610db0573d6000803e3d6000fd5b505050506040513d601f19601f82011682018060405250810190610dd49190617c4e565b6040518363ffffffff1660e01b8152600401610df19291906181b3565b602060405180830381600087803b158015610e0b57600080fd5b505af1158015610e1f573d6000803e3d6000fd5b505050506040513d601f19601f82011682018060405250810190610e439190617b7e565b610e82576040517f08c379a0000000000000000000000000000000000000000000000000000000008152600401610e7990618234565b60405180910390fd5b610eae7fb2f278f3a47c8a231a1847d0ef9ac4bc9ae7a1b991355f83d20e1142c01c1db860001b61322e565b611214565b610edf7f64b2dc3f0938dc796826800c1b0cd5c5feb6090ce26a358a6eb11314d20b6cd960001b61322e565b610f0b7f6d0bd96702c0de8ca7afb2a18bfbf973fc3b2655535e04b35a162940115ed04160001b61322e565b610f377f28512c6858f37bfaf9b0d00577678f95aeee5c5001b8714875e85c0ea9c2300460001b61322e565b6000601254601054610f499190618739565b600554600454610f599190618739565b610f63919061881a565b9050610f917f8b523186e68b511f52d4a8a89e2712d6d32e58df644e3b1ea28a20a9e5df9a5d60001b61322e565b610fbd7fe57d6ac2946e7f033599e37c78bed6b40929119039274a377288cb28f0e7660b60001b61322e565b60008160098054906101000a900473ffffffffffffffffffffffffffffffffffffffff1673ffffffffffffffffffffffffffffffffffffffff166370a08231306040518263ffffffff1660e01b81526004016110199190618161565b60206040518083038186803b15801561103157600080fd5b505afa158015611045573d6000803e3d6000fd5b505050506040513d601f19601f820116820180604052508101906110699190617c4e565b611073919061881a565b90506110a17f0f8ebb4dd42e5b0d79074f93a468303c70c9a5acfbb00cd41d7f8697a8602ff060001b61322e565b6110cd7f8026ac16c4ec66df0d1a461f12a01a1151a01f1c637529f449f094898ce2e12760001b61322e565b6110f97f2fa066b6a581d7ebba8dec7e064e0df669587730c0ed87a82e29d4a42329a0f860001b61322e565b60098054906101000a900473ffffffffffffffffffffffffffffffffffffffff1673ffffffffffffffffffffffffffffffffffffffff1663a9059cbb84836040518363ffffffff1660e01b81526004016111549291906181b3565b602060405180830381600087803b15801561116e57600080fd5b505af1158015611182573d6000803e3d6000fd5b505050506040513d601f19601f820116820180604052508101906111a69190617b7e565b6111e5576040517f08c379a00000000000000000000000000000000000000000000000000000000081526004016111dc90618234565b60405180910390fd5b6112117fd68622a1d429fd173c8d7e4c0c583e8b0e3fb051a4cac504630514ba3148cead60001b61322e565b50505b50565b60105481565b600d60059054906101000a900460ff1681565b600960019054906101000a900463ffffffff1681565b600d60039054906101000a900460ff1681565b60135481565b60098054906101000a900473ffffffffffffffffffffffffffffffffffffffff1681565b60085481565b60008054906101000a900473ffffffffffffffffffffffffffffffffffffffff1681565b600c80546112ba90618940565b80601f01602080910402602001604051908101604052809291908181526020018280546112e690618940565b80156113335780601f1061130857610100808354040283529160200191611333565b820191906000526020600020905b81548152906001019060200180831161131657829003601f168201915b505050505081565b6113677f42f8ed4455837f0de99ccc31297cad16cd2404e41c3014c330eacfb2b7c651f660001b61322e565b6113937f43d0ab43fb808a6097b1fe6f150be63388bed595c6321e04bce97ee2cc3a8c1260001b61322e565b6113bf7fb0fe1f52deb5f394c792fb14d4811afec26d23af8eb67ae85a0f2656ce79673060001b61322e565b6113eb7f98c22615f03bffdcde50240d976aca1f29e7b79b073aee4743a44c237541586560001b61322e565b600160009054906101000a900473ffffffffffffffffffffffffffffffffffffffff1673ffffffffffffffffffffffffffffffffffffffff163373ffffffffffffffffffffffffffffffffffffffff161461147b576040517f08c379a000000000000000000000000000000000000000000000000000000000815260040161147290618434565b60405180910390fd5b6114a77ffbe833dbc07901eddbcf9abc59ae9615b8ba1ed66d9de5ccd3bc69288cc882e660001b61322e565b6114d37ff75c0a84f234aac5976b464f9b42d8069f02d61b88daf6804eb03a32b4cf887d60001b61322e565b6114ff7f0358785f8deb58f2c6e541ffa50cc280bef578820a3e8b4b3d7c2574d31268af60001b61322e565b61152b7f85484661c7b436edc477517871b987a656755fac7edbaa9709644f4c41beeee060001b61322e565b6115577f1e0293f4bb1bdc164beeb30e93f172a9ae49540df058fd88b73a2eddbded12e460001b61322e565b6115837f3402a6702c087240b8a19e4647ef8fd76c74d9f70cb4d8e7f37a79365a9e934260001b61322e565b600d60049054906101000a900460ff166115d2576040517f08c379a00000000000000000000000000000000000000000000000000000000081526004016115c990618594565b60405180910390fd5b6115fe7f22ee405cd2c77de261e8bfd5e2decba8f6ea86da33cdeaaa5657058533ef573760001b61322e565b61162a7f7614003881b67b7d98d85f2ea0a8c2cf999442d48523eb7ab97a6df09e0001f660001b61322e565b6116567f32283d9f5a820c7af8e25177b9772aac0af601be729a817a92f3d43ae93542dd60001b61322e565b6000601454601354611668919061881a565b90506116967f1ad81547f6169dcd29580a6c85dda07c5b7f2d0b095a0894dedb37cd85a5c89660001b61322e565b6116c27f27046ee01a0460d53287528939f23f7e10219629331e91ce0a42e3de7e265f3c60001b61322e565b6013546014819055506116f77f6bc959b7a96a89301d53e9c7ad40924c5434645898cc646151cb44c520b84f2560001b61322e565b6117237f8ea0dcce4e4024c20f4b8253a79358a886afb1f797543950feb4448ada2f931760001b61322e565b600a60009054906101000a900473ffffffffffffffffffffffffffffffffffffffff1673ffffffffffffffffffffffffffffffffffffffff1663a9059cbb33836040518363ffffffff1660e01b81526004016117809291906181b3565b602060405180830381600087803b15801561179a57600080fd5b505af11580156117ae573d6000803e3d6000fd5b505050506040513d601f19601f820116820180604052508101906117d29190617b7e565b5050565b600960009054906101000a900460ff1681565b6118157f42f8ed4455837f0de99ccc31297cad16cd2404e41c3014c330eacfb2b7c651f660001b61322e565b6118417f43d0ab43fb808a6097b1fe6f150be63388bed595c6321e04bce97ee2cc3a8c1260001b61322e565b61186d7fb0fe1f52deb5f394c792fb14d4811afec26d23af8eb67ae85a0f2656ce79673060001b61322e565b6118997f98c22615f03bffdcde50240d976aca1f29e7b79b073aee4743a44c237541586560001b61322e565b600160009054906101000a900473ffffffffffffffffffffffffffffffffffffffff1673ffffffffffffffffffffffffffffffffffffffff163373ffffffffffffffffffffffffffffffffffffffff1614611929576040517f08c379a000000000000000000000000000000000000000000000000000000000815260040161192090618434565b60405180910390fd5b6119557ffbe833dbc07901eddbcf9abc59ae9615b8ba1ed66d9de5ccd3bc69288cc882e660001b61322e565b6119817ff75c0a84f234aac5976b464f9b42d8069f02d61b88daf6804eb03a32b4cf887d60001b61322e565b6119ad7fd2c347f84c6ecf1f02fcb48a0c2bbe18eb56c5c5e2bb15bfd52eeb6d8a8c763860001b61322e565b6119d97ff8a1e6e22fe3439c60c3c4ecf0d219e23e309d974fe3ed689b5203300d2721e160001b61322e565b611a057f435e9c1ae4aa43f4010c351ab48009dd251f89b8e3502f2790c064e9ced1169e60001b61322e565b611a317f58bff8d3e18a0cfdc3e3381885f34de3af202183acc585d162b5f8ef4a94a19460001b61322e565b60011515600d60009054906101000a900460ff1615151415611a88576040517f08c379a0000000000000000000000000000000000000000000000000000000008152600401611a7f90618454565b60405180910390fd5b611ab47fb2d2a57c1ec1234b77753644b317ff7774a68afdfd777dfdb8d727235c1d50f660001b61322e565b611ae07f37c1fea9cd24a349eac6c9a375ea53c8494a219285ea4e4153c0767168e5348d60001b61322e565b611b0c7f2b539d800e9fa7bb63b87b98e01b8551e97391c8ae4acb3b0eb1e3226ce5a79b60001b61322e565b611b387fb230f6f251a60a31026c56a989fd29d211cabd8d2b079744a3e6820eda41a44a60001b61322e565b60011515600d60019054906101000a900460ff16151514611b8e576040517f08c379a0000000000000000000000000000000000000000000000000000000008152600401611b8590618414565b60405180910390fd5b611bba7fd47c11045224aa2bb6c5dd42bc9ca22b465d3e21441769e4555854e60154cb4d60001b61322e565b611be67f47d9349e750054b1e04b2d3e7c6b085c938776a751e0c3105eeca2d0becaa1d760001b61322e565b611c127f995dc9ab751ee7ed9f7c46216d3e72eab8495440ad5163db16db8e9891c4bc6060001b61322e565b6000600d60016101000a81548160ff021916908315150217905550565b6000611c5d7f5f891c7397dd2e7aec968cfdab8e989271d554bc14190fc09f12bb448d6555ee60001b61322e565b611c897fa64972bf1bd1e70348d7af3d70daf69170a288ec3d22b40515f5725a7189540460001b61322e565b611cb57f8510d7e2614e2c5de332e6c0a3a30a93cabef7309bde29c2c6d06fb26c7ccebd60001b61322e565b670de0b6b3a7640000600b54601660008573ffffffffffffffffffffffffffffffffffffffff1673ffffffffffffffffffffffffffffffffffffffff16815260200190815260200160002060000154611d0e91906187c0565b611d18919061878f565b9050919050565b611d4b7f42f8ed4455837f0de99ccc31297cad16cd2404e41c3014c330eacfb2b7c651f660001b61322e565b611d777f43d0ab43fb808a6097b1fe6f150be63388bed595c6321e04bce97ee2cc3a8c1260001b61322e565b611da37fb0fe1f52deb5f394c792fb14d4811afec26d23af8eb67ae85a0f2656ce79673060001b61322e565b611dcf7f98c22615f03bffdcde50240d976aca1f29e7b79b073aee4743a44c237541586560001b61322e565b600160009054906101000a900473ffffffffffffffffffffffffffffffffffffffff1673ffffffffffffffffffffffffffffffffffffffff163373ffffffffffffffffffffffffffffffffffffffff1614611e5f576040517f08c379a0000000000000000000000000000000000000000000000000000000008152600401611e5690618434565b60405180910390fd5b611e8b7ffbe833dbc07901eddbcf9abc59ae9615b8ba1ed66d9de5ccd3bc69288cc882e660001b61322e565b611eb77ff75c0a84f234aac5976b464f9b42d8069f02d61b88daf6804eb03a32b4cf887d60001b61322e565b611ee37f8977be5789ee20d7a40f18013aa8a5e42b9684ba6b3d6aee0454e5997579fa3a60001b61322e565b611f0f7fa509ff751656ee37cdd05eb6f236bf05680b0b5ce8472f7b2ab209518bf18d4d60001b61322e565b611f3b7fc956bab1b2e2cb81be35991496d6415c62b32099c2731698771ebec0be308b5c60001b61322e565b611f677fd87197cdd9c56840d44507a90978555eabb0424d0473faff35fc117550fea60b60001b61322e565b600d60009054906101000a900460ff1615611fb7576040517f08c379a0000000000000000000000000000000000000000000000000000000008152600401611fae90618454565b60405180910390fd5b611fe37f88d83fc26ca3b90a79e0085361cb2c88f84e3515ed1ae4f344f0e2311c59990c60001b61322e565b61200f7f5aec6636ff0a3c8ba9ee42b1e7773796ad78ccc4483b389391bde6ccfa69081860001b61322e565b61203b7f03ea1d93575150d4b4131b7bef4521e3f04f02d569388e6f90bbd7356f2890f560001b61322e565b6120677fb02eb36d6050b172d8cec04c49f2ba383e0a1f7ad93cf6aaf54013e8dc6df4ec60001b61322e565b600d60049054906101000a900460ff16158061208f5750600d60059054906101000a900460ff165b8061209b575060085442115b6120da576040517f08c379a00000000000000000000000000000000000000000000000000000000081526004016120d190618554565b60405180910390fd5b6121067f2d584f447db2f833b9bd0c49fc885ad279939e950a509597a47b9fac504b7f1360001b61322e565b6121327f8d2a6bc3066a24dcb8180b7378ec9e913156afac2d6b247c9d1cc7b89a653da760001b61322e565b61215e7f1b886a4c7c09047aa39ddc12086f5a0722725491a494c0808c1938accd76a3c960001b61322e565b6001600d60006101000a81548160ff0219169083151502179055506121a57fa434685c4f18ab9adf2f3509b3a2c3557c4471032003393efebf5b61791dd92260001b61322e565b6121d17f984fb97633314949c8889773dc6ba409e4e2a07a38aeb365e2bd628d627e4a1b60001b61322e565b6000600d60016101000a81548160ff021916908315150217905550565b61221a7f241bd6a94d315339e39660847a0cbb47a979d044dedb14ca702f9bb6315c246360001b61322e565b6122467fdfff8040232bd90a11d488ba3b50ed2758a48792fb0df228b1d733abce50196260001b61322e565b6122727f1da0b4ec5a091ea28df37ccd98bb28fd9c9b23c18b93e81ab07c13faa08a396160001b61322e565b61229e7f2c5b55c26bb337cb1ffa884a7c1eb5c01232e804a1fcf1878f2e7d5a6c540e8060001b61322e565b600d60039054906101000a900460ff16156122ee576040517f08c379a00000000000000000000000000000000000000000000000000000000081526004016122e5906184b4565b60405180910390fd5b61231a7f9c716687a47446ac97a91cebb798673498ed1a696c0e2f4676748d720a5669e960001b61322e565b6123467f6f40f6b9fe80e47686be359251f288d046e461124c19b39d8ad87a947637216560001b61322e565b6123727ff1f0f2270a0f6d724f7fcad18e6c6d9acf3780a839a6e42678f55d1b2e55c7b560001b61322e565b6001600d60036101000a81548160ff0219169083151502179055506123b97f499d4f4ecc14d94a119f4ce66e986531adf4f0eb092d56f6039eab175245112a60001b61322e565b6123e57f7017c74ada50538b5ee436147d30be03d74277856d5c40c9e979e51db5c417bd60001b61322e565b6124117f7c50eb9c63b293912f09d53298c5bd6fdcc1edc649c61f486ad25c5f45fd9fe760001b61322e565b8860018151811061242557612424618a79565b5b602002602001015173ffffffffffffffffffffffffffffffffffffffff168960008151811061245757612456618a79565b5b602002602001015173ffffffffffffffffffffffffffffffffffffffff1614156124b6576040517f08c379a00000000000000000000000000000000000000000000000000000000081526004016124ad90618334565b60405180910390fd5b6124e27faa53ec8f79b20d26180a6389e674cab5ba0aa29d953d0c65f8aac6e96ff8a1ab60001b61322e565b61250e7ffcfaaf390594c5941e7037c1ef7c754cf086260b9e33cee9bcffe6d50fe24c8160001b61322e565b61253a7f19642df5058f05068d8fc64f8d72491341d3080c91385a94cca4ff13081ed16d60001b61322e565b6125667f013de7cb441a0f08185b8a57c2003b5aad23d529ccc9caec561e7f6faa68394160001b61322e565b8760008151811061257a57612579618a79565b5b60200260200101518860018151811061259657612595618a79565b5b602002602001015110156125df576040517f08c379a00000000000000000000000000000000000000000000000000000000081526004016125d690618294565b60405180910390fd5b61260b7f1c20a0070d2c80b71341f1e18d75d422e9df8aa08f6bf21346285ea162526f3d60001b61322e565b6126377f18686f00eda3982cfd7e2b4168729628846f2a10b2b601887b98d3c3d348d1e460001b61322e565b6126637f91c43d21bb1e7bdfa9857465243682bf2cf919c886b6b16fa1b36f571d29d29560001b61322e565b61268f7f63786270f9804b0ed00ffb0119a0362d4d86ee7eb70722b8ec279af153e7ad2460001b61322e565b8263ffffffff168463ffffffff1610156126de576040517f08c379a00000000000000000000000000000000000000000000000000000000081526004016126d5906183d4565b60405180910390fd5b61270a7fb99ec12a7a1bbe693ee38ef5a23f5e95989079023f3f31ff2150fbd978982e5f60001b61322e565b6127367f196f7f69643d697801c421d6b56d55e5717048c995b5d5b7b09364d65aebb5f160001b61322e565b6127627f46cddb3e98fca80d3788fdd85316d77ba0f58b09de63393adaa5fa6ab8eac66e60001b61322e565b61278e7fefe8550df58eaae13a53ad5e19ffaa4507d59f94bc0264ab75648b7c04a0d70460001b61322e565b8585116127d0576040517f08c379a00000000000000000000000000000000000000000000000000000000081526004016127c790618354565b60405180910390fd5b6127fc7f841b6eab91c0b5dfe949cd725730a51a874244d3e45a767bf0a3095cfaab481a60001b61322e565b6128287f2a8275781a4cb981be43b3760439f0c492ae913b4234992df396f8fef3dfb48d60001b61322e565b6128547f5b39a8f1a65eda3c5656169ba467961e27f3ca1306850de16ba85cdc695352c560001b61322e565b8a6000806101000a81548173ffffffffffffffffffffffffffffffffffffffff021916908373ffffffffffffffffffffffffffffffffffffffff1602179055506128c07faabfbf0d4b45a6153eb36ec5af7d70ac6304d7151d9bdb1270ab5b1c79cd9a7f60001b61322e565b6128ec7f34486bb82fb8f3dcb464ca38939f369559f81084407608a60733572e35e2bd8760001b61322e565b89600160006101000a81548173ffffffffffffffffffffffffffffffffffffffff021916908373ffffffffffffffffffffffffffffffffffffffff1602179055506129597f53ca100b175a98c48e3a5baf25e4310ef143aaced3461e83010721dd1e30adae60001b61322e565b6129857f0696025bafb3a0cb3bc10995267c4ef10e2650aecb384d5895f4d16d434c0d9860001b61322e565b8760008151811061299957612998618a79565b5b60200260200101516002819055506129d37f5464d721ced5d29525d9995a7ccc44ae6fed8620a72a8695fca58bb05cfac89560001b61322e565b6129ff7f6d8c2566fbb39fd74397269ef28013ffdbf255f703f8db639caece8b43e660eb60001b61322e565b87600181518110612a1357612a12618a79565b5b6020026020010151600381905550612a4d7f34cc6bbd6d9e33f09e9be9af2b801ccefe7913fafd5f3da9d74356f33bd7b82a60001b61322e565b612a797f2261fda31ba5fe4e44a308f6323744bb1ebf84e61e3c27cf3de9061ba744b2c960001b61322e565b86600681905550612aac7feda4f0c2520ba6f37db5f65581d7b8199dfaa44e667bcecd3f1a943855fc329660001b61322e565b612ad87ffdbfa09ef104002ebfd19d2375c11a1e417a35edf61360ced8c9416d4dfea04a60001b61322e565b85600781905550612b0b7f5e28c6182e46366af933d4c4c224a36d9dc0acc9003d4854a7f457834015bffc60001b61322e565b612b377f709e8263cb50ecf88678ba4506f01172f4f4e2051048d4bcbef66aaa15dae40860001b61322e565b84600881905550612b6a7f819ec9b5f89cd6fbcd515cd9c47244c8f1f4dc992d43742dc01e3f9bd34208b960001b61322e565b612b967fe6cf8844274f8b6b0f7ab563193f9ca3d748c753b457078d8f7aabfe8e1634c560001b61322e565b600854600e81905550612bcb7f84ec22b29b68a7eee8d271e2f4e03ce5b114d3da4c022dd2e0a455fc4660fca160001b61322e565b612bf77fadeab8ece7a9e74d47e4c609d336c564291a5d2c3a71d26da6b2f09b067e456260001b61322e565b83600960016101000a81548163ffffffff021916908363ffffffff160217905550612c447fd32f21b726e1989b38680e7a905e9639599a09a5b69343d911017fbd64836d9660001b61322e565b612c707f5106e873a2949f20ff249d653bbbe3d418fe075eaf6a3c845fe24f8ef4b3f7b160001b61322e565b82600960056101000a81548163ffffffff021916908363ffffffff160217905550612cbd7f59fad9501ba44f17fb8933c667a072efd56c86de3c666a13fbf8a82ea21e9e0660001b61322e565b612ce97f148e8571bfba8a072d53f996a71baac61b786d1cc432c7a6bf7f57a62fd92b9560001b61322e565b81600960006101000a81548160ff021916908315150217905550612d2f7f890df977f69efed6757334d16d7144c5e9186c7e2ffcd73e91c2ee1fd6d5014460001b61322e565b612d5b7ff7a5ee9a6a3d90a9ef2cb8c044777e045ee20743166678a85824755b69cbd54260001b61322e565b88600081518110612d6f57612d6e618a79565b5b60200260200101516009806101000a81548173ffffffffffffffffffffffffffffffffffffffff021916908373ffffffffffffffffffffffffffffffffffffffff160217905550612de27f10a4bba71b653b1ac2f233eb928ed91087d0da43d2abecaaf6f90bbadee2716d60001b61322e565b612e0e7f4c7bbc54c5edc33b6b5e4f745bf6f538dfbbf0aec9c62a6519b3c8e322a9458260001b61322e565b88600181518110612e2257612e21618a79565b5b6020026020010151600a60006101000a81548173ffffffffffffffffffffffffffffffffffffffff021916908373ffffffffffffffffffffffffffffffffffffffff160217905550612e967f1c64e0d1cbdd7a50b33c7be0fb88210126d3af395712de75e7e080b3250238ac60001b61322e565b612ec27fa0b93e4213834b1b6243711ec2beb92b9e0582c22d2196e946298beb44d3152b60001b61322e565b80600b81905550612ef57fc06af6ef8287e50eb74f902218b06407b713b374b7c07756a768549c242ab7e060001b61322e565b612f217fab3f66784199878f10851020bdcaf6a77422a4c8e76b3a65c60ea8f8d8aa3dbb60001b61322e565b86670de0b6b3a7640000600354612f3891906187c0565b612f42919061878f565b600481905550612f747f3980e6b26c3ee917143e6cdf8ac1a4ec8d977103c5edad89ccfc50d19d65812b60001b61322e565b612fa07f424bbea99e7b67f222eda53054f2e4e565d4760147f52b332408453a5a58db8760001b61322e565b670de0b6b3a7640000600b54600454612fb991906187c0565b612fc3919061878f565b600581905550612ff57f4fedc46016256cd63d1fbd9e2a383d7829168ed76b992ae4e63f5c2659d0093560001b61322e565b6130217f5f08fc44af172d3681fe5f5207f588637f0b8798c6e80da9e1b2c1e735c7d77760001b61322e565b6004546010819055506130567fcfca57b740c38434dd13eaca8dd3d205ea01e9b2f235d2d2b8848d5d4708c53960001b61322e565b6130827fd3aef5f7ddfb546a8013fac5817a9e4dedf0713be7710531028b7ef427ad485c60001b61322e565b6005546012819055505050505050505050505050565b60115481565b600d60009054906101000a900460ff1681565b600d60019054906101000a900460ff1681565b60006130f27fe1aacd1c7f55c22a167df1efcd9857249ead71d9af756e0aa6fccfc9e297fcac60001b61322e565b61311e7f622029f10c7f878f66d417840040168feb5f615663e456f16d146952793a34c660001b61322e565b61314a7ff212496fe98b5a37ab330226a192e44203d43bdc05c9a17140f04dada58363e460001b61322e565b670de0b6b3a7640000600b5461315f846167f4565b61316991906187c0565b613173919061878f565b9050919050565b600f5481565b60006131ae7fe3d51c8393d13ad6e7e4a231b680426c6cd29a0cffa81b844f273a672f08121b60001b61322e565b6131da7f138d75ef478506005d9bd909d21044e3290e25650883281f8feb06e85a3413e560001b61322e565b6132067f4a7dea037f35ac3dfe6f99b5bd160e781903af80f990e6fcb61d67d4d02c7b5160001b61322e565b670de0b6b3a7640000600b5460115461321f91906187c0565b613229919061878f565b905090565b50565b600a60009054906101000a900473ffffffffffffffffffffffffffffffffffffffff1681565b60075481565b600d60029054906101000a900460ff1681565b60145481565b6132a27f42f8ed4455837f0de99ccc31297cad16cd2404e41c3014c330eacfb2b7c651f660001b61322e565b6132ce7f43d0ab43fb808a6097b1fe6f150be63388bed595c6321e04bce97ee2cc3a8c1260001b61322e565b6132fa7fb0fe1f52deb5f394c792fb14d4811afec26d23af8eb67ae85a0f2656ce79673060001b61322e565b6133267f98c22615f03bffdcde50240d976aca1f29e7b79b073aee4743a44c237541586560001b61322e565b600160009054906101000a900473ffffffffffffffffffffffffffffffffffffffff1673ffffffffffffffffffffffffffffffffffffffff163373ffffffffffffffffffffffffffffffffffffffff16146133b6576040517f08c379a00000000000000000000000000000000000000000000000000000000081526004016133ad90618434565b60405180910390fd5b6133e27ffbe833dbc07901eddbcf9abc59ae9615b8ba1ed66d9de5ccd3bc69288cc882e660001b61322e565b61340e7ff75c0a84f234aac5976b464f9b42d8069f02d61b88daf6804eb03a32b4cf887d60001b61322e565b61343a7f939d9ec01fcd8035c65e6593ca373cf5038952c13ad1040b2fe7dfde52465f1160001b61322e565b6134667fc8a42e1b15e30c1133e35e4170b6f0609e39d01c02c449bd50c913472bd5b1ab60001b61322e565b6134927fe786ca491dd46670fc2fc944fdde4415efd9d4499a27cd7a4e69e1a39139edf360001b61322e565b6134be7f7cfb4f65f8e3ad6ab09f1b889f0ba27d9ed990f061c8a47e2c3284fa6693aa2760001b61322e565b600d60009054906101000a900460ff161561350e576040517f08c379a000000000000000000000000000000000000000000000000000000000815260040161350590618454565b60405180910390fd5b61353a7f6ebdd4afc831d8ed3d5addf5eefd9825689f829a5f91546d101d989bbc0aa55960001b61322e565b6135667f9f8ffbc181d63891a3d7988da6a075b7d0bcf8f6d0c0ea6e1863df6834958b2b60001b61322e565b6135927f4a611f1330acf9c94a7709b6057751822555c3be77fbe229a2ec793bf79b9bd860001b61322e565b6135be7ff64fe3da64a10c4e85d7176fb657b6d8d7a519ab095aa13fc74db08b7307405260001b61322e565b600d60019054906101000a900460ff161561360e576040517f08c379a0000000000000000000000000000000000000000000000000000000008152600401613605906184d4565b60405180910390fd5b61363a7fb26688f59dc389b04f231a918d76b9be600045b564e479e4d2481b202c2904e460001b61322e565b6136667f69c6b35322844c3453439055fd22b8d35971ded75cb4c5bd10d5fe30e433294d60001b61322e565b6136927f356215866b3983c1d4702488788889b5af8df4f3e7740b8e2e94ec7e17f028b460001b61322e565b6136be7f0d39794b29f2a4052c84e5b110999b438fbc4d2a2422e69d22fce5b5ef8aeae560001b61322e565b6136ea7f91c583610384b48afca3c0c3d5c33fd6acc3999c1bf7f3a4e2defc11ff6c324060001b61322e565b6001600d60016101000a81548160ff021916908315150217905550565b60006137357ff431f686faae0d96b13f3c73ad1249b4bffc1f4963a7312fb8b7d37623bbbe3160001b61322e565b6137617f77d8c8c7ffcd4980679e0929ba8fee1c504c38ded30ad51453848119c9f959ef60001b61322e565b61378d7fe5b9f5b26005d42fa19a7705e9fcd26ccfc1fc1d646f0c5cbea2fc5a91916c6260001b61322e565b6137b97fc75ee9b74821762b834b390b17733aec9923fd7a21bea367e56c326645bd840660001b61322e565b4260075411156137fe576040517f08c379a00000000000000000000000000000000000000000000000000000000081526004016137f590618514565b60405180910390fd5b61382a7faedc76247e2186f69af14d62df00bd8ff46ec21414067d28bcbf7a00d83f714760001b61322e565b6138567fcc2e1ca050795b113c6fd3374debfe9014d3e67820012662b4d586ad8037362460001b61322e565b6138827f1186882ecca6a8f0c21d82c2220be034a21cc530c9e38a8d2f1f55d8b61d065660001b61322e565b6138ae7f45f26c6df33f41335c9dedd83fc69d5c44ce043e60b73da009451aea82a37de060001b61322e565b600d60049054906101000a900460ff16156138fe576040517f08c379a00000000000000000000000000000000000000000000000000000000081526004016138f5906182f4565b60405180910390fd5b61392a7f038ecec16e3349056a46782993d30491865f7d305f084a71dae15807fb215b5c60001b61322e565b6139567f9231679aaf4beedfa8eb215a25c1ca7f8cd3c40ccb2e17e73995dfb93841518060001b61322e565b6139827fb7a67d6c9a4535c382d45f7a2db5c57c6e08eceb5fc0ef556ffec855ecb1359860001b61322e565b6139ae7f93b8b3f9b209f40e35a5f8387c12de8fe07f1db938d846d15439c40a10510eff60001b61322e565b6000601660003373ffffffffffffffffffffffffffffffffffffffff1673ffffffffffffffffffffffffffffffffffffffff1681526020019081526020016000206001015411613a33576040517f08c379a0000000000000000000000000000000000000000000000000000000008152600401613a2a906185d4565b60405180910390fd5b613a5f7f0289826f9efb07073ef8e70d88e89076dd33ffa7eca44c0c15898bacc2535fc760001b61322e565b613a8b7f8c0d287e850177dac400451ccefcd24fef739c2e09f4328e7ceece870c6e56ee60001b61322e565b613ab77fdc7f22bada89f03aa55a2c73845665e03d1912e330ea30cd702a40b02998312860001b61322e565b6000601660003373ffffffffffffffffffffffffffffffffffffffff1673ffffffffffffffffffffffffffffffffffffffff1681526020019081526020016000209050613b267f830bf458de61906a1e19c7b4a1ae9f5ed4343f4f170fcb537fe9d0e88d61167a60001b61322e565b613b527ff41885fe98956ff6589350803f348f1e8bd5895092921de926b93de95e644a5960001b61322e565b600081600101549050613b877f33637ba06c085469080a30c04d1a76ba453617b1bd44491bc60add439113e1da60001b61322e565b613bb37feeaff378c2c6ab6f32668c8314ce6b6a46eaf68d237e69414b39ced836d70b7f60001b61322e565b613bbc336167f4565b60106000828254613bcd9190618739565b92505081905550613c007f46d3e65632d06108ed441aa3841ab1c2d7e4ace4b46bcccf5338db10911c0f1060001b61322e565b613c2c7faf52d925c0d90bff0228b3cf9f009414b3f038d7be11cba851477b96fc5f05a260001b61322e565b613c35336130c4565b60126000828254613c469190618739565b92505081905550613c797f84c98409bac4b477241da65beb16b3dfd2aeec63da618bdc4a4e2c47a641deab60001b61322e565b600f6000815480929190613c8c90618916565b9190505550613cbd7ffc6ed1489181d29cce6d3e9e263799081ec5ccd56026a885880b1e4f04e590f360001b61322e565b613ce97f38ec1d0abfb8f9553737de0be24558f2657dfaef6feb61090b013d60bdd22e5460001b61322e565b60008260010181905550613d1f7fff834d23d96cd1850945fc1307141c4b7e5913f82c1a8dbc9e1934a329d06ed960001b61322e565b613d4b7f84c67410db66dbc4d67f7f97fc151f702be2c8bc40376e23033faf236656be1e60001b61322e565b8060136000828254613d5d919061881a565b92505081905550613d907fd2db1bb989e8e72be498bcf568c65db94cfd0b1fbb14223448396d791fe7159d60001b61322e565b613dbc7f46b235aece315b883cee8ad29bc83c58b8498c552f7efa89afa9cec964418d9e60001b61322e565b613de87f43f212271eb0eef79a28f1e6370e8be9a93391994d0cd5bae90eb5c9339e526360001b61322e565b600a60009054906101000a900473ffffffffffffffffffffffffffffffffffffffff1673ffffffffffffffffffffffffffffffffffffffff1663a9059cbb33836040518363ffffffff1660e01b8152600401613e459291906181b3565b602060405180830381600087803b158015613e5f57600080fd5b505af1158015613e73573d6000803e3d6000fd5b505050506040513d601f19601f82011682018060405250810190613e979190617b7e565b613ed6576040517f08c379a0000000000000000000000000000000000000000000000000000000008152600401613ecd90618394565b60405180910390fd5b613f027fa57c1bccabf2f0f689d0735ac03841624348373d4a102dafc8ae1c5cfa21cb6260001b61322e565b613f2e7f5f7fc09fb9ccac7bdff0327bd85f062e0cf9c5e1ce922e9ed26255524bd5e74760001b61322e565b613f5a7fdd5dcf030570e1ee6e465583cafddf943be92b23cb7ce8bd0dc3db787925e07860001b61322e565b3373ffffffffffffffffffffffffffffffffffffffff167f1a689b1a62e3bb77f9c98d8759c04f341a67deb5cc63cf53be8324b69106495082604051613fa091906185f4565b60405180910390a2613fd47fb044fb3069d30280e2a8d6aabfd7ee546f6737f8693c39fb394c49e392cb123e60001b61322e565b6140007fcce76a6c7a8ac4049d2f4524bbcbdf17b34754c5a83d306073785dd68b98341960001b61322e565b809250505090565b60025481565b61403a7f42f8ed4455837f0de99ccc31297cad16cd2404e41c3014c330eacfb2b7c651f660001b61322e565b6140667f43d0ab43fb808a6097b1fe6f150be63388bed595c6321e04bce97ee2cc3a8c1260001b61322e565b6140927fb0fe1f52deb5f394c792fb14d4811afec26d23af8eb67ae85a0f2656ce79673060001b61322e565b6140be7f98c22615f03bffdcde50240d976aca1f29e7b79b073aee4743a44c237541586560001b61322e565b600160009054906101000a900473ffffffffffffffffffffffffffffffffffffffff1673ffffffffffffffffffffffffffffffffffffffff163373ffffffffffffffffffffffffffffffffffffffff161461414e576040517f08c379a000000000000000000000000000000000000000000000000000000000815260040161414590618434565b60405180910390fd5b61417a7ffbe833dbc07901eddbcf9abc59ae9615b8ba1ed66d9de5ccd3bc69288cc882e660001b61322e565b6141a67ff75c0a84f234aac5976b464f9b42d8069f02d61b88daf6804eb03a32b4cf887d60001b61322e565b6141d27f2c083754448f6602f900ada26904e7f8c53a08107932ceed36112890379be16560001b61322e565b6141fe7f64d1f2d87df3e83268a5220435f734b4a7a52117642d679ad07d31a285ab179760001b61322e565b61422a7f494add8c138f01755fc32bfd4b2ce39f5a371e913781d187785a775055c92aa960001b61322e565b6142567f4d62a3e60abfdf37947435fd0f03373bd728c283cef15e4c7b245b9831f1a02e60001b61322e565b600d60009054906101000a900460ff16156142a6576040517f08c379a000000000000000000000000000000000000000000000000000000000815260040161429d90618454565b60405180910390fd5b6142d27fea8ccf4139a82ab6ad23ccdcd73542d297e250479c4dfd613c7bed5d71244ed160001b61322e565b6142fe7fad6f4e831ee5057573f7ef46a1b197b19c3a38df09d45d35c7f5f3e48bd786ba60001b61322e565b61432a7fc5a5aa3eb74a8352fc1a583e95ea4cf89513839d634bd239664c9a00d9066d1b60001b61322e565b6143567f4d6ce9804b7aba336af085605e32bbfe089f6ae8f6533d8195fb89f4b446a01460001b61322e565b60011515600960009054906101000a900460ff161515146143ac576040517f08c379a00000000000000000000000000000000000000000000000000000000081526004016143a390618574565b60405180910390fd5b6143d87f54e3011ee155767a18fc2fcdf278ed3b157e9c23c0cb1c5b2880fce7df49249460001b61322e565b6144047fd431e4340da144bd73db4a58d6a526979d652629ef61c1662f1e07702e4ef1b160001b61322e565b6144307fe37efed25de5b0f3442df05d497b23dd512db256ef5cd432083ae384f91a245260001b61322e565b6000601560008373ffffffffffffffffffffffffffffffffffffffff1673ffffffffffffffffffffffffffffffffffffffff16815260200190815260200160002060006101000a81548160ff02191690831515021790555050565b6144b77f42f8ed4455837f0de99ccc31297cad16cd2404e41c3014c330eacfb2b7c651f660001b61322e565b6144e37f43d0ab43fb808a6097b1fe6f150be63388bed595c6321e04bce97ee2cc3a8c1260001b61322e565b61450f7fb0fe1f52deb5f394c792fb14d4811afec26d23af8eb67ae85a0f2656ce79673060001b61322e565b61453b7f98c22615f03bffdcde50240d976aca1f29e7b79b073aee4743a44c237541586560001b61322e565b600160009054906101000a900473ffffffffffffffffffffffffffffffffffffffff1673ffffffffffffffffffffffffffffffffffffffff163373ffffffffffffffffffffffffffffffffffffffff16146145cb576040517f08c379a00000000000000000000000000000000000000000000000000000000081526004016145c290618434565b60405180910390fd5b6145f77ffbe833dbc07901eddbcf9abc59ae9615b8ba1ed66d9de5ccd3bc69288cc882e660001b61322e565b6146237ff75c0a84f234aac5976b464f9b42d8069f02d61b88daf6804eb03a32b4cf887d60001b61322e565b61464f7fe309015e869618291127113786d57e67c5057f8eef0a73e79a4e9efb4560047160001b61322e565b61467b7f2f8ecd360a2d6533f1b58b3c0e0bc7a553d8bd2a14f1ff5707e345aee4d7ba1460001b61322e565b6146a77fc177754f6ec1f998d4dce65977c9a39b003a36dd7b2dc3e15227cf45a98ccf5160001b61322e565b6146d37f02318298c26640e12214a8aeb9649d92d9c40ec535929c202d328d21b76e6a4260001b61322e565b600d60009054906101000a900460ff1615614723576040517f08c379a000000000000000000000000000000000000000000000000000000000815260040161471a90618454565b60405180910390fd5b61474f7f6cff199729a898efe30cf5fdf5c1f32e1850a903613d3e57083951ae465c85ba60001b61322e565b61477b7f411dbb1405951655a9adfb89d95af5e6c138c109a5ddb952ce350d1998ab4c0760001b61322e565b6147a77f6a47d677c4b956ffc6252123d9854e8dfd08f7db981adce40b7c0533f05b0c1c60001b61322e565b6147d37f67f7db27ff5c5892c14c995abd29043c895cff1b753568df2541bc6f48ec75d660001b61322e565b60011515600960009054906101000a900460ff16151514614829576040517f08c379a000000000000000000000000000000000000000000000000000000000815260040161482090618574565b60405180910390fd5b6148557fd735511f828223767e8c05dc85f59333d139236bf9d1476db3538348f373877360001b61322e565b6148817f35ea9b034b5da66bd26e6e1133aafbf6940471eea9158f6f3adc371b647d57c960001b61322e565b6148ad7f97f2353dc2936f4dbd56587b20110cb4c269d23e0fb24e384e7036e36ca8d6a160001b61322e565b6001601560008373ffffffffffffffffffffffffffffffffffffffff1673ffffffffffffffffffffffffffffffffffffffff16815260200190815260200160002060006101000a81548160ff02191690831515021790555050565b60065481565b600e5481565b60006149427fbad79b41fc2f38369d2d583079b683d9043873aa99fe4983a31b0c1cc801eed960001b61322e565b61496e7f368a7da2e1917857fd5449f2f777dbf57d84c2035e274d8e2ea424a7c1ecf04c60001b61322e565b61499a7fdde8e96319c6afb40a4198cc819db97a8038a3d35d4f5c69979885c8b7933e3760001b61322e565b6149c67f7ce0d71d3cfc514faffb55ab61af7287098629c4c2cb9897fd5b703abd01408d60001b61322e565b600d60049054906101000a900460ff16614a15576040517f08c379a0000000000000000000000000000000000000000000000000000000008152600401614a0c90618594565b60405180910390fd5b614a417f17a64f270c69be73e208bd170eea545a3371369fe73d25ddd5e132c1e657d76060001b61322e565b614a6d7fccb2c6957ff5bdcbb7aa8bd99de38ee7697f1111cc68be423891bd0bcba4418860001b61322e565b614a997f130d73590ef9101ac4d383e1898a335cc0300c948858d184ea9bbef9912af32d60001b61322e565b614ac57f17b7da08a46ca87b01135b8eb6bf6987ff93264df85f840b5be3137f15c8f9ee60001b61322e565b426008541080614ae15750600d60059054906101000a900460ff165b614b20576040517f08c379a0000000000000000000000000000000000000000000000000000000008152600401614b1790618314565b60405180910390fd5b614b4c7f3240c2e43b9942f8ae83bd36a50bc8336df734685e5cdac1a208a55de7969dc360001b61322e565b614b787f5d5e68988792fba8bd28b2d27c4e6f74e3390c4a6f08f4d864288cf2dad1400d60001b61322e565b614ba47fd768b8a150307cf3d115116bb1eeb50af50ff0b6fbc1d2808fe52e0c65306b1a60001b61322e565b6000614bd27f34322b388ff221d09a9997b832d7e541ed006cead8c52cea43009a177541129860001b61322e565b614bfe7fe42ecdac172472e3c0ba29de6f58ce4e9e8487207f220ffdcf7602ce667ece4b60001b61322e565b614c0784616903565b9050614c357ff3bdc8b884c138aad1d08ad3fd543325949988c21b1333225b927b07f8d10d1360001b61322e565b614c617f27f86837938a46c4656a211d7cacb341d7605d4a0f5e6d71e8bb99b038dacf6060001b61322e565b614c8d7fb736061b73b826b998d1637dee43e00d77c5936c967b21462dbe36934ac9897c60001b61322e565b60008111614cd0576040517f08c379a0000000000000000000000000000000000000000000000000000000008152600401614cc7906185b4565b60405180910390fd5b614cfc7fb00adcbfc64ef9d1f10f32295d96d64c6e231d7f024e7b098e4b88bbdb5e728060001b61322e565b614d287fde61f9970f0607b3ad56b85b1ff650a578b8331974d0c1697a127716e45f479360001b61322e565b614d547f0456dec71c980aafbb374c05c362de214f4aad56d857dc8470f503581dd240fd60001b61322e565b614d807f3f1931eaddb7cb5b935b6b861c014c2d37c41751527887c357965a57d59017f060001b61322e565b82811015614dc3576040517f08c379a0000000000000000000000000000000000000000000000000000000008152600401614dba90618274565b60405180910390fd5b614def7fc73fa6a317865ab5e13e26e689ca0d05f2f0688fc1a0a28c2159bdb0c335267560001b61322e565b614e1b7fddb85a4ec72fa054f5a32748d53793239da91b46ccc733410530eaa4591becbc60001b61322e565b614e477f4a073bfaf7c8a1338dc6ea5533fd11b2a5c8a954e149bde15901cc5ccb73c2cc60001b61322e565b6000670de0b6b3a7640000600b5485614e6091906187c0565b614e6a919061878f565b9050614e987f13e7c1690efbaf07962aedac4f14b7771a264775a59ff1bb25e7b0705d2425e060001b61322e565b614ec47fe808165bc18137254715836dce11a7062e15f35e01dafa96274d456c9722b29a60001b61322e565b83601660008773ffffffffffffffffffffffffffffffffffffffff1673ffffffffffffffffffffffffffffffffffffffff1681526020019081526020016000206000016000828254614f169190618739565b92505081905550614f497f92ac6d03d7b044388d484160d6645cfdb661b1d9b5bd01e2ec027f0ac0dbc0bd60001b61322e565b614f757f67eaf19267b5935977d7e2907df54ce4cc923b960ea1eba2da2098c1bbeedc4860001b61322e565b8360116000828254614f879190618739565b92505081905550614fba7ff0a7dd268872da961a7ae6fc821430c4c622fccb94fe7a7bb49b0e7afe6fa19960001b61322e565b614fe67f65642b6654d6cbef54d4c25ca6c2b90af454c54468ef05961aeb700b4e9438ba60001b61322e565b6150127fc93d11dd708ad503ceb9a446da10c46008f78f88712c921c8015f4db1d32887260001b61322e565b60098054906101000a900473ffffffffffffffffffffffffffffffffffffffff1673ffffffffffffffffffffffffffffffffffffffff1663a9059cbb60008054906101000a900473ffffffffffffffffffffffffffffffffffffffff16836040518363ffffffff1660e01b815260040161508d9291906181b3565b602060405180830381600087803b1580156150a757600080fd5b505af11580156150bb573d6000803e3d6000fd5b505050506040513d601f19601f820116820180604052508101906150df9190617b7e565b8015615194575060098054906101000a900473ffffffffffffffffffffffffffffffffffffffff1673ffffffffffffffffffffffffffffffffffffffff1663a9059cbb86866040518363ffffffff1660e01b81526004016151419291906181b3565b602060405180830381600087803b15801561515b57600080fd5b505af115801561516f573d6000803e3d6000fd5b505050506040513d601f19601f820116820180604052508101906151939190617b7e565b5b6151d3576040517f08c379a00000000000000000000000000000000000000000000000000000000081526004016151ca906183f4565b60405180910390fd5b6151ff7f9aefacda8f684572c1441ec87bb50e89fe4ddcc5e903920f4fd6df6bdc8c8f1960001b61322e565b61522b7f173da7b23c6678df8a9bae39ee28c190dbda1c7d5d2d880633cbbc980a4f8dca60001b61322e565b6152577fbb4d692ef640c125e96fae9496a59b8fb980de6556ddedbafcbca1e6faefcfe060001b61322e565b60008054906101000a900473ffffffffffffffffffffffffffffffffffffffff1673ffffffffffffffffffffffffffffffffffffffff168573ffffffffffffffffffffffffffffffffffffffff167f9bd10be98695714f5cb43cefb59ba6417808b354710acafafe05e81b2649223186846040516152d692919061860f565b60405180910390a361530a7f2da30c0c6b9385fa94f7d874076732239b28da18d527d957ae1b7927440fa3f160001b61322e565b6153367ff7ae1333d7f551e915dd01a7728d9bb087fd01159c0ca8a01f065b8235529e5960001b61322e565b809250505092915050565b60125481565b60045481565b60156020528060005260406000206000915054906101000a900460ff1681565b60008061539c7f939d9ec01fcd8035c65e6593ca373cf5038952c13ad1040b2fe7dfde52465f1160001b61322e565b6153c87fc8a42e1b15e30c1133e35e4170b6f0609e39d01c02c449bd50c913472bd5b1ab60001b61322e565b6153f47fe786ca491dd46670fc2fc944fdde4415efd9d4499a27cd7a4e69e1a39139edf360001b61322e565b6154207f7cfb4f65f8e3ad6ab09f1b889f0ba27d9ed990f061c8a47e2c3284fa6693aa2760001b61322e565b600d60009054906101000a900460ff1615615470576040517f08c379a000000000000000000000000000000000000000000000000000000000815260040161546790618454565b60405180910390fd5b61549c7f6ebdd4afc831d8ed3d5addf5eefd9825689f829a5f91546d101d989bbc0aa55960001b61322e565b6154c87f9f8ffbc181d63891a3d7988da6a075b7d0bcf8f6d0c0ea6e1863df6834958b2b60001b61322e565b6154f47f4a611f1330acf9c94a7709b6057751822555c3be77fbe229a2ec793bf79b9bd860001b61322e565b6155207ff64fe3da64a10c4e85d7176fb657b6d8d7a519ab095aa13fc74db08b7307405260001b61322e565b600d60019054906101000a900460ff1615615570576040517f08c379a0000000000000000000000000000000000000000000000000000000008152600401615567906184d4565b60405180910390fd5b61559c7fb26688f59dc389b04f231a918d76b9be600045b564e479e4d2481b202c2904e460001b61322e565b6155c87f69c6b35322844c3453439055fd22b8d35971ded75cb4c5bd10d5fe30e433294d60001b61322e565b6155f47f797d44c14e4bac8efe9f964ec672986958748ef0992e262fc00ab3e2f4980d6860001b61322e565b6156207f23fe338173113b1f127eba48492155c8d4d6f497a9a3e01e3c7329f6b23f6f5f60001b61322e565b61564c7fd5e637a17e1d30ca1d7da3c596392d483d140ef79cf8f0b28a0c6a8fb1ed0e8560001b61322e565b6156787f1b2842ab77a3db1dda9640291ef98d2a13752521f725838752976f8d6864b48060001b61322e565b600d60059054906101000a900460ff16156156c8576040517f08c379a00000000000000000000000000000000000000000000000000000000081526004016156bf90618254565b60405180910390fd5b6156f47f4ddd56646d62ee87da2f3a431d9189e2fd5a30b5fbe934603afac76ae5a77cae60001b61322e565b6157207f3326b549d63830f14c8b10f4fe20ee484249fc380297dd1ae75fa65cc8a08f3f60001b61322e565b61574c7f2918be53fb32c3a7467b3971539d0af9031308d0dfc66268b2fcf35c9d67210f60001b61322e565b6157787f7e55ac2fafd0385c8e87c41359e01eb6b547e5d25b1c4a3d6fa0f4adf40ae15360001b61322e565b600960009054906101000a900460ff1615806157dd5750601560003373ffffffffffffffffffffffffffffffffffffffff1673ffffffffffffffffffffffffffffffffffffffff16815260200190815260200160002060009054906101000a900460ff165b61581c576040517f08c379a0000000000000000000000000000000000000000000000000000000008152600401615813906183b4565b60405180910390fd5b6158487f375e5b1b88f52b66ec683c16e1edc1fc220d87713f93f8cc750f5c73bdf647c060001b61322e565b6158747faf1e0ae40e9699fdb843c418833ff2fd643548406707a6e3e6753e363536024c60001b61322e565b6158a07ff399a8cf44d5ddb10a1fd9d8435d00fbb6d640508eaa6a032ace336058ae715760001b61322e565b6158cc7f48eb810bf6c6518b7f2ba098caa5f0706a5429cb8fa0983de7ccf1082778e5be60001b61322e565b42600854101580156158e057504260075411155b61591f576040517f08c379a000000000000000000000000000000000000000000000000000000000815260040161591690618474565b60405180910390fd5b61594b7f232b1c11068bd2b682c6369cd9b2b0ddd8223724c690b672336e08b45834071660001b61322e565b6159777fb0740c8bd92083b053828643aebd70204cb5b07ad3d8910a505c67cbe8be9dba60001b61322e565b6159a37fe8883520fb037a7ef5f2bfff9713013bc74b60dc4ab4229a9a7b61405dc6449e60001b61322e565b600d60029054906101000a900460ff16615c05576159e37f29b1f74ac6fd9aabbc826bb28c76a3c166a57b254ba191846bb418687780b67e60001b61322e565b615a0f7f9a22f9906cbcfef3969ae9946a61d0981f2f6be4b4c9c9b36c15a0593bb8640060001b61322e565b615a3b7f1a11b8ff2847f6f8d0fdf726e354387457fc7afe47ad8b0f8e7d8b660f222cd060001b61322e565b615a677f68f2c7c1e43781b4654f03d2b271d5133b3ec341d13beb91409bc70723c99adf60001b61322e565b600554600454615a779190618739565b60098054906101000a900473ffffffffffffffffffffffffffffffffffffffff1673ffffffffffffffffffffffffffffffffffffffff166370a08231306040518263ffffffff1660e01b8152600401615ad09190618161565b60206040518083038186803b158015615ae857600080fd5b505afa158015615afc573d6000803e3d6000fd5b505050506040513d601f19601f82011682018060405250810190615b209190617c4e565b1015615b61576040517f08c379a0000000000000000000000000000000000000000000000000000000008152600401615b5890618534565b60405180910390fd5b615b8d7f7e7b93042dbc7c231789d4b04163b38c6d9d6371738155ce7dc0fc74df335ea860001b61322e565b615bb97f0a2fc58e90c24086f5d9fe9e37281327ba916176046b80250d58312b251a67e460001b61322e565b615be57f24c283fc93ff861237c189b3ed5cdf850eca0d4f4f73c45cec15f715bdbb07fb60001b61322e565b6001600d60026101000a81548160ff021916908315150217905550615c32565b615c317f59e41c9f4d6c0932048b728874bc44ab786b24f7e2c3a1b1c651369644b1258b60001b61322e565b5b615c5e7f07edc44dd1b9e7caef6c61ed3118c994a5fcf004892d68b04c31d376551299cf60001b61322e565b615c8a7fe86aa76475d6030e11c28c32686687551957615ec6e53b85278ee1f90b5497ba60001b61322e565b6000600654670de0b6b3a764000085615ca391906187c0565b615cad919061878f565b9050615cdb7f2b1ce9b203beedd4e58eadd35e3444f5c11f268a0842f14242927d73dc29566060001b61322e565b615d077f9c83f1ed54ada649154f4e6486ce1adae92c90f1e1e5b36dbf37a89ec6b94c2c60001b61322e565b6000670de0b6b3a7640000600b5483615d2091906187c0565b615d2a919061878f565b9050615d587f9ff8e5a74640975b170a7dda896c42a682ff2912dd397936d65ec0c86691642c60001b61322e565b615d847f8ea6de3c1dd15ff35644853998035a04debf15a41f618b91473bcc20401130a060001b61322e565b615db07fdefb86077b48d1da0e6c6087baf842c82153872a7c9ee7a5950b273225f4584560001b61322e565b600960019054906101000a900463ffffffff1663ffffffff16821015615e0b576040517f08c379a0000000000000000000000000000000000000000000000000000000008152600401615e0290618374565b60405180910390fd5b615e377fcc85ac318b4443d5e6544492c24b1c8f863c0f394b68ac15044c492c4c85872460001b61322e565b615e637fb813cbd54addc803802b67be7ae3f26c6f5a7a929470132d738457527367f70e60001b61322e565b615e8f7ffc25a2a21d1ff0ffa2b9bc94493b63d59750411bd347c8537905fd9079e31a6360001b61322e565b615ebb7faf92bafeb4e44ee598c7ef523dbb2786d86fa7ba460a7ead2e5b4d2aa838858c60001b61322e565b60035485601354615ecc9190618739565b1115615f0d576040517f08c379a0000000000000000000000000000000000000000000000000000000008152600401615f04906182b4565b60405180910390fd5b615f397feab6f50a02327d5c2aae5931461046891c6d88f9cb8ce8b40366f9fa5eb5edb860001b61322e565b615f657f4fd1a0e13fcae832999a681311b721dec1ed2f56a0857c7085ae5850ef14315060001b61322e565b615f917f330275678adcdc61d5cc1a07f0a4b4a39fea341e749515f02c62a8dcf22a623960001b61322e565b8460136000828254615fa39190618739565b92505081905550615fd67f319dc25d0d96b18529cdd22b177f911206785314afa775bb6d3bb4cc7f91760960001b61322e565b6160027f181c6fb5b70b4cf3eb903a627f277af10861d67bdbab9779cee2422b5fda04dc60001b61322e565b8160106000828254616014919061881a565b925050819055506160477fbc4823e0e1ea7d727dc5e3a7e59417bb520ef8618180e4df1b8f6dfe74bb97ef60001b61322e565b6160737f8768330ac40c899f34536dbb00d9758da5080bcab5b21d41e2ac0488c11459c260001b61322e565b8060126000828254616085919061881a565b925050819055506160b87ffeb89e85112ae3c4967eab3cb700a938b6437f95216901b961b139f409f25a8060001b61322e565b6160e47f7d78c03ec4eea19cd5257af95b2eedf7c9a8a4b0f5592cd6cbdba9316f7fca2760001b61322e565b600254601354106161935761611b7f817660e8b90761b9db99185a2b1573b56917f7fdd778d17940f7b9aa938eb5e660001b61322e565b6161477f6cf2689e11702b826e72af87a778904fa75e64224240d39668e6936390e1dafa60001b61322e565b6161737f12cfaa8362f08ac390eee5ef1edee0f74c6efb63423f654e6ceee622d37e540f60001b61322e565b6001600d60046101000a81548160ff0219169083151502179055506161c0565b6161bf7fe04cd402d14ed12511e8f0a280ca2d73aba8960307453e7dc7207370222960f460001b61322e565b5b6161ec7f6f834027d2bd7bfca1f1cd3f8254ee9bc8d4c074841f955df49e087bfde32df960001b61322e565b6162187ff2271759b0c962192fa5d16894041b21a16d642a4327d51b0ab2eec812505a6a60001b61322e565b600354601354106163265761624f7fb4cd773a1de4a167129f37f116795c0653e86e0c0207d73ef04350c218795e4760001b61322e565b61627b7f6fa6aa5b449235fe67426fceab8ba80a882d643b523b26382e7aa544897d070660001b61322e565b6162a77f369c2aa2687c5c85d017abb35f8baf623e3caeacc733a52da950763a8a0f59a760001b61322e565b6001600d60056101000a81548160ff0219169083151502179055506162ee7f0c8652b2e2f30291d9814ded9fd839f2cbb3247938507cef3ab3cf8d70f095fa60001b61322e565b61631a7f8f26349725f955dfdf7274bcbacab8128fca18e474bd66eb378703a82947648d60001b61322e565b42600e81905550616353565b6163527f2a60c53eec4ea32af887edc605b8d19d785b67ea3016a5873b7e9e3823d0a8ab60001b61322e565b5b61637f7ff7a5f6dc4ad554871ed19ba2274580a4d5d24a827bc6db89bdfa3b860179417660001b61322e565b6163ab7fdf2889bce35effbed2266be69c183a69418db508cb35f5ad14e4d46e6885bed460001b61322e565b6000601660003373ffffffffffffffffffffffffffffffffffffffff1673ffffffffffffffffffffffffffffffffffffffff16815260200190815260200160002060010154141561646b576164227fd382698cbfc736cc4f826d5ae46140c13fc25dcc368747929ce7a35d3dcf02a460001b61322e565b61644e7f905b8e7224d6ebfa0de44bb766032155d6c696dabb625085ed642280f62a577560001b61322e565b600f6000815480929190616461906189a3565b9190505550616498565b6164977fa0a4293f5cd180e25278d5d0f2a15cf989412b261954bed04efb0b5f0f30524c60001b61322e565b5b6164c47ffd60a8a60f0cbff0f0174411b33dc6b4d453165da2a390b80490ed94be41e71960001b61322e565b6164f07fa0c0c07a60e430280a44fbaf9c41e0076e06200267bb35eeaf5698082504386760001b61322e565b84601660003373ffffffffffffffffffffffffffffffffffffffff1673ffffffffffffffffffffffffffffffffffffffff16815260200190815260200160002060010160008282546165429190618739565b925050819055506165757f4b1393eca3ca4fafc075e48a98dba827ae37e80ef19295dd57024ae865fbf8a260001b61322e565b6165a17f482ec7ab3d729560eab01de1edd9d067c76a98d38196a150d87f02548479c8b760001b61322e565b6165cd7f3e12add341dc7d612a3736f487b50061b7ed030c13613e303b5d30740d9ee36e60001b61322e565b600a60009054906101000a900473ffffffffffffffffffffffffffffffffffffffff1673ffffffffffffffffffffffffffffffffffffffff166323b872dd3330886040518463ffffffff1660e01b815260040161662c9392919061817c565b602060405180830381600087803b15801561664657600080fd5b505af115801561665a573d6000803e3d6000fd5b505050506040513d601f19601f8201168201806040525081019061667e9190617b7e565b6166bd576040517f08c379a00000000000000000000000000000000000000000000000000000000081526004016166b4906184f4565b60405180910390fd5b6166e97fe435f42538509ba0f554043bdb41d94ca1d44ce5cdf44c0de25a3bf38a2793a260001b61322e565b6167157f90af659d2b54be7f7f9d476b0973d809ac55a77d0dd35a55ad70e7c3ae5e6f0560001b61322e565b6167417f369eb5f84db82caa4edf09bff17771ec6b882f203aba4c435adc64c26fa4054e60001b61322e565b3373ffffffffffffffffffffffffffffffffffffffff167fcf5ef2b227e797b567f0df4c49cc8b6207cfb60054eb899e5608de08e5dcb1ef8360405161678791906185f4565b60405180910390a26167bb7fd34774ad0840f572de47479b4ff547d19d57b1e146de875a9a623206945b6d7060001b61322e565b6167e77f2c3c5c67456b7d6e0f250a0134a99dfa9dba733d0109be012f2b3ccf4c9fbb2f60001b61322e565b8181935093505050915091565b60006168227f68e06d0c1b8ef2e9d13b2e2538dce7972ba7f52f9e5fc3225f51d85d52e6726460001b61322e565b61684e7f885927885867fa120da4d3e13af6d060a733c20baa6176caa77d250d9244fda960001b61322e565b61687a7f0c575198cc42bf3fd662b43d327dd1f9fc15688f4c660a970234bc5d73b3708b60001b61322e565b600654670de0b6b3a7640000601660008573ffffffffffffffffffffffffffffffffffffffff1673ffffffffffffffffffffffffffffffffffffffff168152602001908152602001600020600101546168d391906187c0565b6168dd919061878f565b9050919050565b600b5481565b600d60049054906101000a900460ff1681565b60055481565b60006169317f28363c2be143fa1385a7d6ff07b5fd2be43b068aa213c7e91f5ebf21e941cd1460001b61322e565b61695d7fec9f9fae3b046200721e41097823d663e3f5cf3fa8910d75b433d289b1ae638460001b61322e565b6169897f244639c621c3057d4ad497c057206016c235e778132e4862bd0984b7dcb9ab9a60001b61322e565b6000601660008473ffffffffffffffffffffffffffffffffffffffff1673ffffffffffffffffffffffffffffffffffffffff16815260200190815260200160002090506169f87f34902f739ee0092b26da5f269f665b7b2a0c98e63894ac5cdd5def0309467dc660001b61322e565b616a247f19bd7e25d06582c95d9d54b0bd71c3aae02e41e06a387551e344a96d0280122960001b61322e565b600e54421015616abc57616a5a7fa184f839ca2a5be39abbf514c97755ed16f7b918a157fa55d7009f6b829575f460001b61322e565b616a867f7e95a5a57f2002c38edfba619c80baa3a4921bd02910e144c69c99e6f488339a60001b61322e565b616ab27f25cdcf796a3af3652f48cf722cbc2309a5e64c858e9dcfc4babb63032b27a24360001b61322e565b6000915050616ecd565b616ae87fe9052be9ee604c7440d21b4f51abe7e2b5222dffdcf69fff2f95466ae3959a8260001b61322e565b616b147fe707b55036e845d7f9401d0dfd281117a4f0fb4b048b1520a73754cd0e6249f960001b61322e565b616b407f261e8a950696637ba4a36d8af27424a22bc75477b1cd088ecbbd0a102a1314ff60001b61322e565b6000600e5442616b50919061881a565b9050616b7e7f92b3238aa50f1bc7add60c61a97c227e05323ceca92c7e619f0e363d2de8a58360001b61322e565b616ba97ea69b975902ad6735fd506d70ea2e92cc7216e5d305d576dd5a02e69951bdc760001b61322e565b600960059054906101000a900463ffffffff1663ffffffff16811015616c5857616bf57ff870fb375c7bee03ba499faeffec735fe53a5b48b02830d6ce040114be59994e60001b61322e565b616c217fa8c8912c5d55b48eaaa803630f54d5566d046ea8de12c7da5316fb1fd9936d7c60001b61322e565b616c4d7f4fc4ff886143bd4a40710f6dfb7954ced0ca4ca85d86a8a5bd5fdbf3e0484ec360001b61322e565b600092505050616ecd565b616c847f5420b391e48d951219640b4a994fa130515a7bd4fb48e70d8b97b02d4c25760860001b61322e565b616cb07fd711087a4a041006206c469988a342bf671df408b4c26c74236e25d50f90256c60001b61322e565b616cdc7f5df9092d77f6ee202c90afdbe8c8d241d1b0386695caffda7552fa33f57cc01760001b61322e565b600960019054906101000a900463ffffffff1663ffffffff168110616da057616d277f68a7afd316b7193ec850e1d25af3e699a8bff2ac426c1d49809259c486686e7b60001b61322e565b616d537f990ba2ffd683bc2a3deccab35e419bed3a80efd782949ce3eaa56906096a601a60001b61322e565b616d7f7ffd9915760788b8060352826a20624f099ac47a156afb4b656a1016332d359deb60001b61322e565b8160000154616d8d856167f4565b616d97919061881a565b92505050616ecd565b616dcc7ff2160ae253d425374120f51a915832e86203e97aa9e9a368e53d28a7ab317c9360001b61322e565b616df87faad41c3feb35188094dd5c65ae34b4a2d0a5ecd72e924f43eefe0d936d6b456760001b61322e565b616e247f20c81b14dc972dd3950a56e0d32f9538c47fe523a7983eea9d39962dc63e050a60001b61322e565b6000600960019054906101000a900463ffffffff1663ffffffff16616e48866167f4565b83616e5391906187c0565b616e5d919061878f565b9050616e8b7f9f95fd73a21913a57640c97f35016efa39acbd8eef72783e496d9d7ce1279a9860001b61322e565b616eb77fece8f633f597d89963669c7d7885f96aca81ddf4df5b3b154de380d2120a51be60001b61322e565b826000015481616ec7919061881a565b93505050505b919050565b616efe7f42f8ed4455837f0de99ccc31297cad16cd2404e41c3014c330eacfb2b7c651f660001b61322e565b616f2a7f43d0ab43fb808a6097b1fe6f150be63388bed595c6321e04bce97ee2cc3a8c1260001b61322e565b616f567fb0fe1f52deb5f394c792fb14d4811afec26d23af8eb67ae85a0f2656ce79673060001b61322e565b616f827f98c22615f03bffdcde50240d976aca1f29e7b79b073aee4743a44c237541586560001b61322e565b600160009054906101000a900473ffffffffffffffffffffffffffffffffffffffff1673ffffffffffffffffffffffffffffffffffffffff163373ffffffffffffffffffffffffffffffffffffffff1614617012576040517f08c379a000000000000000000000000000000000000000000000000000000000815260040161700990618434565b60405180910390fd5b61703e7ffbe833dbc07901eddbcf9abc59ae9615b8ba1ed66d9de5ccd3bc69288cc882e660001b61322e565b61706a7ff75c0a84f234aac5976b464f9b42d8069f02d61b88daf6804eb03a32b4cf887d60001b61322e565b6170967fe8cd810d25840e58d274d933f2f6cc2d6e4a82af171be5ab374de6ff705da4b660001b61322e565b6170c27fbab7a0768fa4438c3d8b1ac4fd7493808745bc61cbe0570dfa97414e9baba60660001b61322e565b6170ee7f8d6157cc4a283444d277976b979bcf8587d8a71c9379358d16d581a60cb260a460001b61322e565b61711a7ff506ff01fe00df8fb1f4029b68f0756ca8422c6d4b1dacd903d21e4a51f4274460001b61322e565b600d60009054906101000a900460ff161561716a576040517f08c379a000000000000000000000000000000000000000000000000000000000815260040161716190618454565b60405180910390fd5b6171967f4bd7910e219bc4309d95b75d07cbfd837e3ab585826227e72f174d3de488f8b560001b61322e565b6171c27fbee69997b42ae3df787fa9cf02352c255b7693140087f236d761f6da62841f4960001b61322e565b6171ee7fbefcac02b6300263b4474bc10fe7d0bca980e646eefd42bfac4e4580748d8fef60001b61322e565b61721a7f01d46f6e200a8b91e2eae75057db997a4a44e4bfdb2889f7bc18e179e7be1ae660001b61322e565b60011515600960009054906101000a900460ff16151514617270576040517f08c379a000000000000000000000000000000000000000000000000000000000815260040161726790618574565b60405180910390fd5b61729c7f379f1f3efbe656be9eb50cb980f3d9ea67e19a4d2c2a2a1a944726737374e39760001b61322e565b6172c87f6c1297853cd8e36f67aca9fa42b4db1e322f504a257968dea37acd491718dbee60001b61322e565b6172f47faaee081a3b0ea3eb0a6f146869b7dea3f73dcd8a5dbccf9dda4ae6c6e90a579360001b61322e565b60005b81518110156173dd5761732c7f1171de2097e868b9d9dbbfe1a9eef623323daeaa0211f26bf78bb96548fd853660001b61322e565b6173587f84fcdcdfa1ddde5c827de5ebb36389aea80da2810d607b8e761419cf72ea2e0a60001b61322e565b60016015600084848151811061737157617370618a79565b5b602002602001015173ffffffffffffffffffffffffffffffffffffffff1673ffffffffffffffffffffffffffffffffffffffff16815260200190815260200160002060006101000a81548160ff02191690831515021790555080806173d5906189a3565b9150506172f7565b5050565b600960059054906101000a900463ffffffff1681565b600160009054906101000a900473ffffffffffffffffffffffffffffffffffffffff1681565b60035481565b61744f7f5a1e93ffd3abf16bf5e25536a5bb26d8cdd32917db7714ba81dcee3941e470ae60001b61322e565b61747b7f3d061513d293947ab12f99b955c4bdc053f1721e4f3d9c376ede18f71514fa1c60001b61322e565b6174a77fdfefb60ccc0c52af68878c1f60b4a08976c1e5463b5f792f6f704b29ca302a3060001b61322e565b6174d37f4f093d2aeaa4338fb95d7d424c1784c0ab442b2e06c98fa697936e9529f1173c60001b61322e565b60011515600d60039054906101000a900460ff1615151415806175435750600160009054906101000a900473ffffffffffffffffffffffffffffffffffffffff1673ffffffffffffffffffffffffffffffffffffffff163373ffffffffffffffffffffffffffffffffffffffff16145b617582576040517f08c379a0000000000000000000000000000000000000000000000000000000008152600401617579906182d4565b60405180910390fd5b6175ae7f79e2456d7673a689f7145e61b8dbd20823434b1e43fc6ef18740cdb4c908679a60001b61322e565b6175da7ff0a025fbc7fc8bd2641cb41504f7ea2fded6b2ee6cdb28960ce550b94651ba9460001b61322e565b6176067f6781867fbd56a7201247a8fc20ab094152f3d32bd15fb8f44b8020d9befc3ec760001b61322e565b80600c908051906020019061761c9291906176ba565b506176497fff15844167e030f2ec730f13116f72fdb6a56443e33804f30acaadd5b6d8f70460001b61322e565b6176757ffd3f6012ecf3a440e0e6dc1b61a1f2c71ab5e2273d7029733ad8f1f623ab0c3c60001b61322e565b80604051617683919061814a565b60405180910390207f09f579b21815d3f81581d32e97736ccba1cc89d1918e48da28e6e206acd9686460405160405180910390a250565b8280546176c690618940565b90600052602060002090601f0160209004810192826176e8576000855561772f565b82601f1061770157805160ff191683800117855561772f565b8280016001018555821561772f579182015b8281111561772e578251825591602001919060010190617713565b5b50905061773c9190617740565b5090565b5b80821115617759576000816000905550600101617741565b5090565b600061777061776b84618678565b618653565b9050808382526020820190508285602086028201111561779357617792618adc565b5b60005b858110156177c357816177a9888261787f565b845260208401935060208301925050600181019050617796565b5050509392505050565b60006177e06177db846186a4565b618653565b9050808382526020820190508285602086028201111561780357617802618adc565b5b60005b858110156178335781617819888261795d565b845260208401935060208301925050600181019050617806565b5050509392505050565b600061785061784b846186d0565b618653565b90508281526020810184848401111561786c5761786b618ae1565b5b6178778482856188d4565b509392505050565b60008135905061788e816192c7565b92915050565b600082601f8301126178a9576178a8618ad7565b5b81356178b984826020860161775d565b91505092915050565b600082601f8301126178d7576178d6618ad7565b5b81356178e78482602086016177cd565b91505092915050565b6000813590506178ff816192de565b92915050565b600081519050617914816192de565b92915050565b600081359050617929816192f5565b92915050565b600082601f83011261794457617943618ad7565b5b813561795484826020860161783d565b91505092915050565b60008135905061796c8161930c565b92915050565b6000815190506179818161930c565b92915050565b60008135905061799681619323565b92915050565b6000602082840312156179b2576179b1618aeb565b5b60006179c08482850161787f565b91505092915050565b60008060008060008060008060008060006101608c8e0312156179ef576179ee618aeb565b5b60006179fd8e828f0161787f565b9b50506020617a0e8e828f0161787f565b9a505060408c013567ffffffffffffffff811115617a2f57617a2e618ae6565b5b617a3b8e828f01617894565b99505060608c013567ffffffffffffffff811115617a5c57617a5b618ae6565b5b617a688e828f016178c2565b9850506080617a798e828f0161795d565b97505060a0617a8a8e828f0161795d565b96505060c0617a9b8e828f0161795d565b95505060e0617aac8e828f01617987565b945050610100617abe8e828f01617987565b935050610120617ad08e828f016178f0565b925050610140617ae28e828f0161795d565b9150509295989b509295989b9093969950565b60008060408385031215617b0c57617b0b618aeb565b5b6000617b1a8582860161787f565b9250506020617b2b8582860161795d565b9150509250929050565b600060208284031215617b4b57617b4a618aeb565b5b600082013567ffffffffffffffff811115617b6957617b68618ae6565b5b617b7584828501617894565b91505092915050565b600060208284031215617b9457617b93618aeb565b5b6000617ba284828501617905565b91505092915050565b600060208284031215617bc157617bc0618aeb565b5b6000617bcf8482850161791a565b91505092915050565b600060208284031215617bee57617bed618aeb565b5b600082013567ffffffffffffffff811115617c0c57617c0b618ae6565b5b617c188482850161792f565b91505092915050565b600060208284031215617c3757617c36618aeb565b5b6000617c458482850161795d565b91505092915050565b600060208284031215617c6457617c63618aeb565b5b6000617c7284828501617972565b91505092915050565b617c848161884e565b82525050565b617c9381618860565b82525050565b6000617ca482618701565b617cae818561870c565b9350617cbe8185602086016188e3565b617cc781618af0565b840191505092915050565b6000617cdd82618701565b617ce7818561871d565b9350617cf78185602086016188e3565b80840191505092915050565b617d0c816188b0565b82525050565b6000617d1f603483618728565b9150617d2a82618b01565b604082019050919050565b6000617d42601d83618728565b9150617d4d82618b50565b602082019050919050565b6000617d65602e83618728565b9150617d7082618b79565b604082019050919050565b6000617d88603083618728565b9150617d9382618bc8565b604082019050919050565b6000617dab602a83618728565b9150617db682618c17565b604082019050919050565b6000617dce604283618728565b9150617dd982618c66565b606082019050919050565b6000617df1602083618728565b9150617dfc82618cdb565b602082019050919050565b6000617e14602b83618728565b9150617e1f82618d04565b604082019050919050565b6000617e37602d83618728565b9150617e4282618d53565b604082019050919050565b6000617e5a603b83618728565b9150617e6582618da2565b604082019050919050565b6000617e7d601f83618728565b9150617e8882618df1565b602082019050919050565b6000617ea0603083618728565b9150617eab82618e1a565b604082019050919050565b6000617ec3601a83618728565b9150617ece82618e69565b602082019050919050565b6000617ee6603d83618728565b9150617ef182618e92565b604082019050919050565b6000617f09602083618728565b9150617f1482618ee1565b602082019050919050565b6000617f2c601683618728565b9150617f3782618f0a565b602082019050919050565b6000617f4f601c83618728565b9150617f5a82618f33565b602082019050919050565b6000617f72601a83618728565b9150617f7d82618f5c565b602082019050919050565b6000617f95602d83618728565b9150617fa082618f85565b604082019050919050565b6000617fb8602a83618728565b9150617fc382618fd4565b604082019050919050565b6000617fdb602283618728565b9150617fe682619023565b604082019050919050565b6000617ffe601a83618728565b915061800982619072565b602082019050919050565b6000618021602783618728565b915061802c8261909b565b604082019050919050565b6000618044602283618728565b915061804f826190ea565b604082019050919050565b6000618067602383618728565b915061807282619139565b604082019050919050565b600061808a605183618728565b915061809582619188565b606082019050919050565b60006180ad601d83618728565b91506180b8826191fd565b602082019050919050565b60006180d0602483618728565b91506180db82619226565b604082019050919050565b60006180f3601b83618728565b91506180fe82619275565b602082019050919050565b6000618116601983618728565b91506181218261929e565b602082019050919050565b61813581618896565b82525050565b618144816188a0565b82525050565b60006181568284617cd2565b915081905092915050565b60006020820190506181766000830184617c7b565b92915050565b60006060820190506181916000830186617c7b565b61819e6020830185617c7b565b6181ab604083018461812c565b949350505050565b60006040820190506181c86000830185617c7b565b6181d5602083018461812c565b9392505050565b60006020820190506181f16000830184617c8a565b92915050565b600060208201905081810360008301526182118184617c99565b905092915050565b600060208201905061822e6000830184617d03565b92915050565b6000602082019050818103600083015261824d81617d12565b9050919050565b6000602082019050818103600083015261826d81617d35565b9050919050565b6000602082019050818103600083015261828d81617d58565b9050919050565b600060208201905081810360008301526182ad81617d7b565b9050919050565b600060208201905081810360008301526182cd81617d9e565b9050919050565b600060208201905081810360008301526182ed81617dc1565b9050919050565b6000602082019050818103600083015261830d81617de4565b9050919050565b6000602082019050818103600083015261832d81617e07565b9050919050565b6000602082019050818103600083015261834d81617e2a565b9050919050565b6000602082019050818103600083015261836d81617e4d565b9050919050565b6000602082019050818103600083015261838d81617e70565b9050919050565b600060208201905081810360008301526183ad81617e93565b9050919050565b600060208201905081810360008301526183cd81617eb6565b9050919050565b600060208201905081810360008301526183ed81617ed9565b9050919050565b6000602082019050818103600083015261840d81617efc565b9050919050565b6000602082019050818103600083015261842d81617f1f565b9050919050565b6000602082019050818103600083015261844d81617f42565b9050919050565b6000602082019050818103600083015261846d81617f65565b9050919050565b6000602082019050818103600083015261848d81617f88565b9050919050565b600060208201905081810360008301526184ad81617fab565b9050919050565b600060208201905081810360008301526184cd81617fce565b9050919050565b600060208201905081810360008301526184ed81617ff1565b9050919050565b6000602082019050818103600083015261850d81618014565b9050919050565b6000602082019050818103600083015261852d81618037565b9050919050565b6000602082019050818103600083015261854d8161805a565b9050919050565b6000602082019050818103600083015261856d8161807d565b9050919050565b6000602082019050818103600083015261858d816180a0565b9050919050565b600060208201905081810360008301526185ad816180c3565b9050919050565b600060208201905081810360008301526185cd816180e6565b9050919050565b600060208201905081810360008301526185ed81618109565b9050919050565b6000602082019050618609600083018461812c565b92915050565b6000604082019050618624600083018561812c565b618631602083018461812c565b9392505050565b600060208201905061864d600083018461813b565b92915050565b600061865d61866e565b90506186698282618972565b919050565b6000604051905090565b600067ffffffffffffffff82111561869357618692618aa8565b5b602082029050602081019050919050565b600067ffffffffffffffff8211156186bf576186be618aa8565b5b602082029050602081019050919050565b600067ffffffffffffffff8211156186eb576186ea618aa8565b5b6186f482618af0565b9050602081019050919050565b600081519050919050565b600082825260208201905092915050565b600081905092915050565b600082825260208201905092915050565b600061874482618896565b915061874f83618896565b9250827fffffffffffffffffffffffffffffffffffffffffffffffffffffffffffffffff03821115618784576187836189ec565b5b828201905092915050565b600061879a82618896565b91506187a583618896565b9250826187b5576187b4618a1b565b5b828204905092915050565b60006187cb82618896565b91506187d683618896565b9250817fffffffffffffffffffffffffffffffffffffffffffffffffffffffffffffffff048311821515161561880f5761880e6189ec565b5b828202905092915050565b600061882582618896565b915061883083618896565b925082821015618843576188426189ec565b5b828203905092915050565b600061885982618876565b9050919050565b60008115159050919050565b6000819050919050565b600073ffffffffffffffffffffffffffffffffffffffff82169050919050565b6000819050919050565b600063ffffffff82169050919050565b60006188bb826188c2565b9050919050565b60006188cd82618876565b9050919050565b82818337600083830152505050565b60005b838110156189015780820151818401526020810190506188e6565b83811115618910576000848401525b50505050565b600061892182618896565b91506000821415618935576189346189ec565b5b600182039050919050565b6000600282049050600182168061895857607f821691505b6020821081141561896c5761896b618a4a565b5b50919050565b61897b82618af0565b810181811067ffffffffffffffff8211171561899a57618999618aa8565b5b80604052505050565b60006189ae82618896565b91507fffffffffffffffffffffffffffffffffffffffffffffffffffffffffffffffff8214156189e1576189e06189ec565b5b600182019050919050565b7f4e487b7100000000000000000000000000000000000000000000000000000000600052601160045260246000fd5b7f4e487b7100000000000000000000000000000000000000000000000000000000600052601260045260246000fd5b7f4e487b7100000000000000000000000000000000000000000000000000000000600052602260045260246000fd5b7f4e487b7100000000000000000000000000000000000000000000000000000000600052603260045260246000fd5b7f4e487b7100000000000000000000000000000000000000000000000000000000600052604160045260246000fd5b600080fd5b600080fd5b600080fd5b600080fd5b600080fd5b6000601f19601f8301169050919050565b7f536565643a2073686f756c64207472616e73666572207365656420746f6b656e60008201527f7320746f20726566756e64207265636569766572000000000000000000000000602082015250565b7f536565643a206d6178696d756d2066756e64696e672072656163686564000000600082015250565b7f536565643a20726571756573742069732067726561746572207468616e20636c60008201527f61696d61626c6520616d6f756e74000000000000000000000000000000000000602082015250565b7f53656564466163746f72793a20686172644361702063616e6e6f74206265206c60008201527f657373207468616e20736f667443617000000000000000000000000000000000602082015250565b7f536565643a20616d6f756e74206578636565647320636f6e747261637420736160008201527f6c65206861726443617000000000000000000000000000000000000000000000602082015250565b7f536565643a20636f6e74726163742073686f756c64206e6f7420626520696e6960008201527f7469616c697a6564206f722063616c6c65722073686f756c642062652061646d60208201527f696e000000000000000000000000000000000000000000000000000000000000604082015250565b7f536565643a206d696e696d756d2066756e64696e6720616d6f756e74206d6574600082015250565b7f536565643a2074686520646973747269627574696f6e20686173206e6f74207960008201527f65742066696e6973686564000000000000000000000000000000000000000000602082015250565b7f53656564466163746f72793a2073656564546f6b656e2063616e6e6f7420626560008201527f2066756e64696e67546f6b656e00000000000000000000000000000000000000602082015250565b7f53656564466163746f72793a20656e6454696d652063616e6e6f74206265206c60008201527f657373207468616e20657175616c20746f20737461727454696d650000000000602082015250565b7f536565643a20616d6f756e745665737465645065725365636f6e64203e203000600082015250565b7f536565643a2063616e6e6f742072657475726e2066756e64696e6720746f6b6560008201527f6e7320746f206d73672e73656e64657200000000000000000000000000000000602082015250565b7f536565643a2073656e64657220686173206e6f20726967687473000000000000600082015250565b7f53656564466163746f72793a2076657374696e674475726174696f6e2063616e60008201527f6e6f74206265206c657373207468616e2076657374696e67436c696666000000602082015250565b7f536565643a207365656420746f6b656e207472616e73666572206661696c6564600082015250565b7f536565643a2073686f756c642062652070617573656400000000000000000000600082015250565b7f536565643a2063616c6c65722073686f756c642062652061646d696e00000000600082015250565b7f536565643a2073686f756c64206e6f7420626520636c6f736564000000000000600082015250565b7f536565643a206f6e6c7920616c6c6f77656420647572696e672064697374726960008201527f627574696f6e20706572696f6400000000000000000000000000000000000000602082015250565b7f536565643a206e6565647320746f20626520636c6f736564206265666f72652060008201527f72657472696576696e6700000000000000000000000000000000000000000000602082015250565b7f536565643a20636f6e747261637420616c726561647920696e697469616c697a60008201527f6564000000000000000000000000000000000000000000000000000000000000602082015250565b7f536565643a2073686f756c64206e6f7420626520706175736564000000000000600082015250565b7f536565643a2066756e64696e6720746f6b656e207472616e7366657246726f6d60008201527f206661696c656400000000000000000000000000000000000000000000000000602082015250565b7f536565643a20646973747269627574696f6e20686176656e277420737461727460008201527f6564000000000000000000000000000000000000000000000000000000000000602082015250565b7f536565643a2073756666696369656e74207365656473206e6f742070726f766960008201527f6465640000000000000000000000000000000000000000000000000000000000602082015250565b7f536565643a2063616e206f6e6c7920626520636c6f736564206265666f72652060008201527f6d696e696d756d207461726765742072656163686564206f722061667465722060208201527f646973747269627574696f6e20656e6473000000000000000000000000000000604082015250565b7f536565643a2073656564206973206e6f742077686974656c6973746564000000600082015250565b7f536565643a206d696e696d756d2066756e64696e6720616d6f756e74206e6f7460008201527f206d657400000000000000000000000000000000000000000000000000000000602082015250565b7f536565643a20616d6f756e7420636c61696d61626c6520697320300000000000600082015250565b7f536565643a207a65726f2066756e64696e6720616d6f756e7400000000000000600082015250565b6192d08161884e565b81146192db57600080fd5b50565b6192e781618860565b81146192f257600080fd5b50565b6192fe8161886c565b811461930957600080fd5b50565b61931581618896565b811461932057600080fd5b50565b61932c816188a0565b811461933757600080fd5b5056fea2646970667358221220ec4892c2f38f1e173f38f073fa67045d2a044c17f06eb3393788fa2224f6c81664736f6c63430008060033",
  "linkReferences": {},
  "deployedLinkReferences": {}
}