{
  "_format": "hh-sol-artifact-1",
  "contractName": "Seed",
  "sourceName": "contracts/seed/Seed.sol",
  "abi": [
    {
      "anonymous": false,
      "inputs": [
        {
          "indexed": true,
          "internalType": "address",
          "name": "recipient",
          "type": "address"
        },
        {
          "indexed": false,
          "internalType": "uint256",
          "name": "amountReclaimed",
          "type": "uint256"
        }
      ],
      "name": "FundingReclaimed",
      "type": "event"
    },
    {
      "anonymous": false,
      "inputs": [
        {
          "indexed": true,
          "internalType": "bytes",
          "name": "metadata",
          "type": "bytes"
        }
      ],
      "name": "MetadataUpdated",
      "type": "event"
    },
    {
      "anonymous": false,
      "inputs": [
        {
          "indexed": true,
          "internalType": "address",
          "name": "recipient",
          "type": "address"
        },
        {
          "indexed": false,
          "internalType": "uint256",
          "name": "amountPurchased",
          "type": "uint256"
        }
      ],
      "name": "SeedsPurchased",
      "type": "event"
    },
    {
      "anonymous": false,
      "inputs": [
        {
          "indexed": true,
          "internalType": "address",
          "name": "recipient",
          "type": "address"
        },
        {
          "indexed": false,
          "internalType": "uint256",
          "name": "amount",
          "type": "uint256"
        },
        {
          "indexed": true,
          "internalType": "address",
          "name": "beneficiary",
          "type": "address"
        },
        {
          "indexed": false,
          "internalType": "uint256",
          "name": "feeAmount",
          "type": "uint256"
        }
      ],
      "name": "TokensClaimed",
      "type": "event"
    },
    {
      "inputs": [],
      "name": "admin",
      "outputs": [
        {
          "internalType": "address",
          "name": "",
          "type": "address"
        }
      ],
      "stateMutability": "view",
      "type": "function"
    },
    {
      "inputs": [],
      "name": "beneficiary",
      "outputs": [
        {
          "internalType": "address",
          "name": "",
          "type": "address"
        }
      ],
      "stateMutability": "view",
      "type": "function"
    },
    {
      "inputs": [
        {
          "internalType": "uint256",
          "name": "_fundingAmount",
          "type": "uint256"
        }
      ],
      "name": "buy",
      "outputs": [
        {
          "internalType": "uint256",
          "name": "",
          "type": "uint256"
        },
        {
          "internalType": "uint256",
          "name": "",
          "type": "uint256"
        }
      ],
      "stateMutability": "nonpayable",
      "type": "function"
    },
    {
      "inputs": [
        {
          "internalType": "address",
          "name": "_funder",
          "type": "address"
        }
      ],
      "name": "calculateClaim",
      "outputs": [
        {
          "internalType": "uint256",
          "name": "",
          "type": "uint256"
        }
      ],
      "stateMutability": "view",
      "type": "function"
    },
    {
      "inputs": [
        {
          "internalType": "address",
          "name": "_buyer",
          "type": "address"
        }
      ],
      "name": "checkWhitelisted",
      "outputs": [
        {
          "internalType": "bool",
          "name": "",
          "type": "bool"
        }
      ],
      "stateMutability": "view",
      "type": "function"
    },
    {
      "inputs": [
        {
          "internalType": "address",
          "name": "_funder",
          "type": "address"
        },
        {
          "internalType": "uint256",
          "name": "_claimAmount",
          "type": "uint256"
        }
      ],
      "name": "claim",
      "outputs": [
        {
          "internalType": "uint256",
          "name": "",
          "type": "uint256"
        }
      ],
      "stateMutability": "nonpayable",
      "type": "function"
    },
    {
      "inputs": [],
      "name": "close",
      "outputs": [],
      "stateMutability": "nonpayable",
      "type": "function"
    },
    {
      "inputs": [],
      "name": "closed",
      "outputs": [
        {
          "internalType": "bool",
          "name": "",
          "type": "bool"
        }
      ],
      "stateMutability": "view",
      "type": "function"
    },
    {
      "inputs": [],
      "name": "endTime",
      "outputs": [
        {
          "internalType": "uint256",
          "name": "",
          "type": "uint256"
        }
      ],
      "stateMutability": "view",
      "type": "function"
    },
    {
      "inputs": [],
      "name": "fee",
      "outputs": [
        {
          "internalType": "uint8",
          "name": "",
          "type": "uint8"
        }
      ],
      "stateMutability": "view",
      "type": "function"
    },
    {
      "inputs": [],
      "name": "feeAmountRequired",
      "outputs": [
        {
          "internalType": "uint256",
          "name": "",
          "type": "uint256"
        }
      ],
      "stateMutability": "view",
      "type": "function"
    },
    {
      "inputs": [],
      "name": "feeClaimed",
      "outputs": [
        {
          "internalType": "uint256",
          "name": "",
          "type": "uint256"
        }
      ],
      "stateMutability": "view",
      "type": "function"
    },
    {
      "inputs": [],
      "name": "feeRemainder",
      "outputs": [
        {
          "internalType": "uint256",
          "name": "",
          "type": "uint256"
        }
      ],
      "stateMutability": "view",
      "type": "function"
    },
    {
      "inputs": [
        {
          "internalType": "address",
          "name": "",
          "type": "address"
        }
      ],
      "name": "funders",
      "outputs": [
        {
          "internalType": "uint256",
          "name": "seedAmount",
          "type": "uint256"
        },
        {
          "internalType": "uint256",
          "name": "totalClaimed",
          "type": "uint256"
        },
        {
          "internalType": "uint256",
          "name": "fundingAmount",
          "type": "uint256"
        },
        {
          "internalType": "uint256",
          "name": "fee",
          "type": "uint256"
        },
        {
          "internalType": "uint256",
          "name": "feeClaimed",
          "type": "uint256"
        }
      ],
      "stateMutability": "view",
      "type": "function"
    },
    {
      "inputs": [],
      "name": "fundingCollected",
      "outputs": [
        {
          "internalType": "uint256",
          "name": "",
          "type": "uint256"
        }
      ],
      "stateMutability": "view",
      "type": "function"
    },
    {
      "inputs": [],
      "name": "fundingToken",
      "outputs": [
        {
          "internalType": "contract IERC20",
          "name": "",
          "type": "address"
        }
      ],
      "stateMutability": "view",
      "type": "function"
    },
    {
      "inputs": [],
      "name": "fundingWithdrawn",
      "outputs": [
        {
          "internalType": "uint256",
          "name": "",
          "type": "uint256"
        }
      ],
      "stateMutability": "view",
      "type": "function"
    },
    {
      "inputs": [],
      "name": "hardCap",
      "outputs": [
        {
          "internalType": "uint256",
          "name": "",
          "type": "uint256"
        }
      ],
      "stateMutability": "view",
      "type": "function"
    },
    {
      "inputs": [
        {
          "internalType": "address",
          "name": "_beneficiary",
          "type": "address"
        },
        {
          "internalType": "address",
          "name": "_admin",
          "type": "address"
        },
        {
          "internalType": "address[]",
          "name": "_tokens",
          "type": "address[]"
        },
        {
          "internalType": "uint256[]",
          "name": "_softHardThresholds",
          "type": "uint256[]"
        },
        {
          "internalType": "uint256",
          "name": "_price",
          "type": "uint256"
        },
        {
          "internalType": "uint256",
          "name": "_startTime",
          "type": "uint256"
        },
        {
          "internalType": "uint256",
          "name": "_endTime",
          "type": "uint256"
        },
        {
          "internalType": "uint32",
          "name": "_vestingDuration",
          "type": "uint32"
        },
        {
          "internalType": "uint32",
          "name": "_vestingCliff",
          "type": "uint32"
        },
        {
          "internalType": "bool",
          "name": "_permissionedSeed",
          "type": "bool"
        },
        {
          "internalType": "uint8",
          "name": "_fee",
          "type": "uint8"
        }
      ],
      "name": "initialize",
      "outputs": [],
      "stateMutability": "nonpayable",
      "type": "function"
    },
    {
      "inputs": [],
      "name": "initialized",
      "outputs": [
        {
          "internalType": "bool",
          "name": "",
          "type": "bool"
        }
      ],
      "stateMutability": "view",
      "type": "function"
    },
    {
      "inputs": [],
      "name": "isFunded",
      "outputs": [
        {
          "internalType": "bool",
          "name": "",
          "type": "bool"
        }
      ],
      "stateMutability": "view",
      "type": "function"
    },
    {
      "inputs": [],
      "name": "maximumReached",
      "outputs": [
        {
          "internalType": "bool",
          "name": "",
          "type": "bool"
        }
      ],
      "stateMutability": "view",
      "type": "function"
    },
    {
      "inputs": [],
      "name": "metadata",
      "outputs": [
        {
          "internalType": "bytes",
          "name": "",
          "type": "bytes"
        }
      ],
      "stateMutability": "view",
      "type": "function"
    },
    {
      "inputs": [],
      "name": "minimumReached",
      "outputs": [
        {
          "internalType": "bool",
          "name": "",
          "type": "bool"
        }
      ],
      "stateMutability": "view",
      "type": "function"
    },
    {
      "inputs": [],
      "name": "pause",
      "outputs": [],
      "stateMutability": "nonpayable",
      "type": "function"
    },
    {
      "inputs": [],
      "name": "paused",
      "outputs": [
        {
          "internalType": "bool",
          "name": "",
          "type": "bool"
        }
      ],
      "stateMutability": "view",
      "type": "function"
    },
    {
      "inputs": [],
      "name": "permissionedSeed",
      "outputs": [
        {
          "internalType": "bool",
          "name": "",
          "type": "bool"
        }
      ],
      "stateMutability": "view",
      "type": "function"
    },
    {
      "inputs": [],
      "name": "price",
      "outputs": [
        {
          "internalType": "uint256",
          "name": "",
          "type": "uint256"
        }
      ],
      "stateMutability": "view",
      "type": "function"
    },
    {
      "inputs": [],
      "name": "retrieveFundingTokens",
      "outputs": [
        {
          "internalType": "uint256",
          "name": "",
          "type": "uint256"
        }
      ],
      "stateMutability": "nonpayable",
      "type": "function"
    },
    {
      "inputs": [],
      "name": "seedAmountRequired",
      "outputs": [
        {
          "internalType": "uint256",
          "name": "",
          "type": "uint256"
        }
      ],
      "stateMutability": "view",
      "type": "function"
    },
    {
      "inputs": [],
      "name": "seedClaimed",
      "outputs": [
        {
          "internalType": "uint256",
          "name": "",
          "type": "uint256"
        }
      ],
      "stateMutability": "view",
      "type": "function"
    },
    {
      "inputs": [],
      "name": "seedRemainder",
      "outputs": [
        {
          "internalType": "uint256",
          "name": "",
          "type": "uint256"
        }
      ],
      "stateMutability": "view",
      "type": "function"
    },
    {
      "inputs": [],
      "name": "seedToken",
      "outputs": [
        {
          "internalType": "contract IERC20",
          "name": "",
          "type": "address"
        }
      ],
      "stateMutability": "view",
      "type": "function"
    },
    {
      "inputs": [],
      "name": "softCap",
      "outputs": [
        {
          "internalType": "uint256",
          "name": "",
          "type": "uint256"
        }
      ],
      "stateMutability": "view",
      "type": "function"
    },
    {
      "inputs": [],
      "name": "startTime",
      "outputs": [
        {
          "internalType": "uint256",
          "name": "",
          "type": "uint256"
        }
      ],
      "stateMutability": "view",
      "type": "function"
    },
    {
      "inputs": [],
      "name": "totalFunderCount",
      "outputs": [
        {
          "internalType": "uint256",
          "name": "",
          "type": "uint256"
        }
      ],
      "stateMutability": "view",
      "type": "function"
    },
    {
      "inputs": [],
      "name": "unpause",
      "outputs": [],
      "stateMutability": "nonpayable",
      "type": "function"
    },
    {
      "inputs": [
        {
          "internalType": "address",
          "name": "buyer",
          "type": "address"
        }
      ],
      "name": "unwhitelist",
      "outputs": [],
      "stateMutability": "nonpayable",
      "type": "function"
    },
    {
      "inputs": [
        {
          "internalType": "bytes",
          "name": "_metadata",
          "type": "bytes"
        }
      ],
      "name": "updateMetadata",
      "outputs": [],
      "stateMutability": "nonpayable",
      "type": "function"
    },
    {
      "inputs": [],
      "name": "vestingCliff",
      "outputs": [
        {
          "internalType": "uint32",
          "name": "",
          "type": "uint32"
        }
      ],
      "stateMutability": "view",
      "type": "function"
    },
    {
      "inputs": [],
      "name": "vestingDuration",
      "outputs": [
        {
          "internalType": "uint32",
          "name": "",
          "type": "uint32"
        }
      ],
      "stateMutability": "view",
      "type": "function"
    },
    {
      "inputs": [],
      "name": "vestingStartTime",
      "outputs": [
        {
          "internalType": "uint256",
          "name": "",
          "type": "uint256"
        }
      ],
      "stateMutability": "view",
      "type": "function"
    },
    {
      "inputs": [
        {
          "internalType": "address",
          "name": "_buyer",
          "type": "address"
        }
      ],
      "name": "whitelist",
      "outputs": [],
      "stateMutability": "nonpayable",
      "type": "function"
    },
    {
      "inputs": [
        {
          "internalType": "address[]",
          "name": "_buyers",
          "type": "address[]"
        }
      ],
      "name": "whitelistBatch",
      "outputs": [],
      "stateMutability": "nonpayable",
      "type": "function"
    },
    {
      "inputs": [
        {
          "internalType": "address",
          "name": "",
          "type": "address"
        }
      ],
      "name": "whitelisted",
      "outputs": [
        {
          "internalType": "bool",
          "name": "",
          "type": "bool"
        }
      ],
      "stateMutability": "view",
      "type": "function"
    },
    {
      "inputs": [],
      "name": "withdraw",
      "outputs": [],
      "stateMutability": "nonpayable",
      "type": "function"
    }
  ],
  "bytecode": "0x608060405234801561001057600080fd5b50612a98806100206000396000f3fe608060405234801561001057600080fd5b506004361061028a5760003560e01c806383d59e001161015c578063d8039364116100ce578063ea34554011610087578063ea345540146105bb578063eaa53523146105ce578063f3640e74146105e1578063f851a440146105f8578063fb86a4041461060b578063fc582d411461061457600080fd5b8063d803936414610519578063d936547e1461052c578063d96a094a1461054f578063ddca3f4314610577578063e565eb4c1461059d578063e6e36ebb146105b257600080fd5b80639b19251a116101205780639b19251a146104cf578063a035b1fe146104e2578063a8660a78146104eb578063aad3ec96146104f4578063b774682f14610507578063bc0f5f841461051057600080fd5b806383d59e001461049a5780638456cb59146104a35780638a2448aa146104ab578063906a26e0146104b35780639a590427146104bc57600080fd5b80633ccfd60b116102005780635c975abb116101b95780635c975abb146104475780635e9777e81461045957806371f4b8e81461046257806378065f271461046b57806378e979251461047e5780637c6543031461048757600080fd5b80633ccfd60b1461040a5780633dba9e41146104145780633f4ba83a1461042157806343d726d61461042957806347d02f1b14610431578063597e1fb51461043a57600080fd5b80631cfe562e116102525780631cfe562e1461037257806320d8dad01461037b578063311f8483146103a75780633197cbb6146103d957806338af3eed146103e2578063392f37e9146103f557600080fd5b8063031b36771461028f5780630826d2c7146102f9578063117a36d1146103105780631514617e14610334578063158ef93e1461035e575b600080fd5b6102cc61029d3660046124e5565b601660205260009081526040902080546001820154600283015460038401546004909401549293919290919085565b604080519586526020860194909452928401919091526060830152608082015260a0015b60405180910390f35b610302600f5481565b6040519081526020016102f0565b600c5461032490600160281b900460ff1681565b60405190151581526020016102f0565b60095461034990610100900463ffffffff1681565b60405163ffffffff90911681526020016102f0565b600c54610324906301000000900460ff1681565b61030260135481565b6103246103893660046124e5565b6001600160a01b031660009081526015602052604090205460ff1690565b6009546103c190600160481b90046001600160a01b031681565b6040516001600160a01b0390911681526020016102f0565b61030260085481565b6000546103c1906001600160a01b031681565b6103fd610627565b6040516102f0919061273f565b6104126106b5565b005b6009546103249060ff1681565b6104126107db565b610412610890565b61030260105481565b600c546103249060ff1681565b600c5461032490610100900460ff1681565b610302600e5481565b61030260125481565b600a546103c1906001600160a01b031681565b61030260075481565b600c546103249062010000900460ff1681565b61030260145481565b610412610ac0565b610302610b46565b61030260025481565b6104126104ca3660046124e5565b610e8b565b6104126104dd3660046124e5565b610f48565b61030260065481565b610302600d5481565b6103026105023660046125ee565b611008565b61030260115481565b61030260045481565b610412610527366004612506565b611495565b61032461053a3660046124e5565b60156020526000908152604090205460ff1681565b61056261055d3660046126f3565b61196c565b604080519283526020830191909152016102f0565b600a5461058b90600160a01b900460ff1681565b60405160ff90911681526020016102f0565b600c5461032490640100000000900460ff1681565b61030260055481565b6103026105c93660046124e5565b611f3b565b6104126105dc366004612617565b61204a565b60095461034990600160281b900463ffffffff1681565b6001546103c1906001600160a01b031681565b61030260035481565b610412610622366004612666565b61215c565b600b8054610634906129cf565b80601f0160208091040260200160405190810160405280929190818152602001828054610660906129cf565b80156106ad5780601f10610682576101008083540402835291602001916106ad565b820191906000526020600020905b81548152906001019060200180831161069057829003601f168201915b505050505081565b6001546001600160a01b031633146106e85760405162461bcd60e51b81526004016106df90612772565b60405180910390fd5b600c54610100900460ff16156107105760405162461bcd60e51b81526004016106df9061282a565b600c54640100000000900460ff1661073a5760405162461bcd60e51b81526004016106df90612898565b600060145460135461074c9190612988565b601354601455600a5460405163a9059cbb60e01b8152336004820152602481018390529192506001600160a01b03169063a9059cbb90604401602060405180830381600087803b15801561079f57600080fd5b505af11580156107b3573d6000803e3d6000fd5b505050506040513d601f19601f820116820180604052508101906107d7919061264a565b5050565b6001546001600160a01b031633146108055760405162461bcd60e51b81526004016106df90612772565b600c5460ff1615156001141561082d5760405162461bcd60e51b81526004016106df906127a9565b600c5460ff6101009091041615156001146108835760405162461bcd60e51b815260206004820152601660248201527514d959590e881cda1bdd5b19081899481c185d5cd95960521b60448201526064016106df565b600c805461ff0019169055565b6001546001600160a01b031633146108ba5760405162461bcd60e51b81526004016106df90612772565b600c5460ff16156108dd5760405162461bcd60e51b81526004016106df906127a9565b600c54610100900460ff16156109055760405162461bcd60e51b81526004016106df9061282a565b600c54640100000000900460ff16156109e6576000601154600f5461092a9190612931565b60095460015460405163a9059cbb60e01b81526001600160a01b03918216600482015260248101849052929350600160481b909104169063a9059cbb90604401602060405180830381600087803b15801561098457600080fd5b505af1158015610998573d6000803e3d6000fd5b505050506040513d601f19601f820116820180604052508101906109bc919061264a565b6109d85760405162461bcd60e51b81526004016106df906127e0565b50600c805461ff0019169055565b6009546001546005546004546001600160a01b03600160481b90940484169363a9059cbb931691610a1691612931565b6040516001600160e01b031960e085901b1681526001600160a01b0390921660048301526024820152604401602060405180830381600087803b158015610a5c57600080fd5b505af1158015610a70573d6000803e3d6000fd5b505050506040513d601f19601f82011682018060405250810190610a94919061264a565b610ab05760405162461bcd60e51b81526004016106df906127e0565b600c805461ffff19166001179055565b6001546001600160a01b03163314610aea5760405162461bcd60e51b81526004016106df90612772565b600c5460ff1615610b0d5760405162461bcd60e51b81526004016106df906127a9565b600c54610100900460ff1615610b355760405162461bcd60e51b81526004016106df9061282a565b600c805461ff001916610100179055565b600c54600090610100900460ff1615610b715760405162461bcd60e51b81526004016106df9061282a565b426007541115610bce5760405162461bcd60e51b815260206004820152602260248201527f536565643a20646973747269627574696f6e20686176656e2774207374617274604482015261195960f21b60648201526084016106df565b600c54640100000000900460ff1615610c295760405162461bcd60e51b815260206004820152601960248201527f536565643a206d696e696d756d20616c7265616479206d65740000000000000060448201526064016106df565b33600090815260166020526040902060020154610c885760405162461bcd60e51b815260206004820152601960248201527f536565643a207a65726f2066756e64696e6720616d6f756e740000000000000060448201526064016106df565b336000908152601660209081526040808320815160a08101835281548082526001830154948201949094526002820154928101839052600382015460608201526004909101546080820152600f805491949293929091610ce9908490612931565b9091555050606082015160118054600090610d05908490612931565b90915550506000808352606083018181526040808501838152338452601660209081529184208651815591860151600183015551600282015590516003820155608084015160049091015560138054839290610d62908490612988565b9091555050600a5460405163a9059cbb60e01b8152336004820152602481018390526001600160a01b039091169063a9059cbb90604401602060405180830381600087803b158015610db357600080fd5b505af1158015610dc7573d6000803e3d6000fd5b505050506040513d601f19601f82011682018060405250810190610deb919061264a565b610e505760405162461bcd60e51b815260206004820152603060248201527f536565643a2063616e6e6f742072657475726e2066756e64696e6720746f6b6560448201526f3739903a379036b9b39739b2b73232b960811b60648201526084016106df565b60405181815233907f1a689b1a62e3bb77f9c98d8759c04f341a67deb5cc63cf53be8324b6910649509060200160405180910390a291505090565b6001546001600160a01b03163314610eb55760405162461bcd60e51b81526004016106df90612772565b600c5460ff1615610ed85760405162461bcd60e51b81526004016106df906127a9565b600c54610100900460ff1615610f005760405162461bcd60e51b81526004016106df9061282a565b60095460ff161515600114610f275760405162461bcd60e51b81526004016106df90612861565b6001600160a01b03166000908152601560205260409020805460ff19169055565b6001546001600160a01b03163314610f725760405162461bcd60e51b81526004016106df90612772565b600c5460ff1615610f955760405162461bcd60e51b81526004016106df906127a9565b600c54610100900460ff1615610fbd5760405162461bcd60e51b81526004016106df9061282a565b60095460ff161515600114610fe45760405162461bcd60e51b81526004016106df90612861565b6001600160a01b03166000908152601560205260409020805460ff19166001179055565b600c54600090640100000000900460ff166110355760405162461bcd60e51b81526004016106df90612898565b4260085411158061104f5750600c54600160281b900460ff165b6110af5760405162461bcd60e51b815260206004820152602b60248201527f536565643a2074686520646973747269627574696f6e20686173206e6f74207960448201526a195d08199a5b9a5cda195960aa1b60648201526084016106df565b60006110ba84611f3b565b90506000811161110c5760405162461bcd60e51b815260206004820152601b60248201527f536565643a20616d6f756e7420636c61696d61626c652069732030000000000060448201526064016106df565b828110156111735760405162461bcd60e51b815260206004820152602e60248201527f536565643a20726571756573742069732067726561746572207468616e20636c60448201526d185a5b58589b1948185b5bdd5b9d60921b60648201526084016106df565b600a5460009060649061119090600160a01b900460ff1686612969565b61119a9190612949565b6001600160a01b038616600090815260166020908152604091829020825160a0810184528154815260018201549281018381526002830154948201949094526003820154606082015260049091015460808201529293508691906111ff908390612931565b905250608081018051839190611216908390612931565b9052506001600160a01b038616600090815260166020908152604080832084518155918401516001830155830151600282015560608301516003820155608083015160049091015560108054879290611270908490612931565b9250508190555081601260008282546112899190612931565b909155505060095460005460405163a9059cbb60e01b81526001600160a01b03918216600482015260248101859052600160481b909204169063a9059cbb90604401602060405180830381600087803b1580156112e557600080fd5b505af11580156112f9573d6000803e3d6000fd5b505050506040513d601f19601f8201168201806040525081019061131d919061264a565b6113755760405162461bcd60e51b8152602060048201526024808201527f536565643a2063616e6e6f74207472616e7366657220746f2062656e656669636044820152636961727960e01b60648201526084016106df565b60095460405163a9059cbb60e01b81526001600160a01b03888116600483015260248201889052600160481b9092049091169063a9059cbb90604401602060405180830381600087803b1580156113cb57600080fd5b505af11580156113df573d6000803e3d6000fd5b505050506040513d601f19601f82011682018060405250810190611403919061264a565b6114415760405162461bcd60e51b815260206004820152600f60248201526e536565643a206e6f20746f6b656e7360881b60448201526064016106df565b60005460408051878152602081018590526001600160a01b03928316928916917f9bd10be98695714f5cb43cefb59ba6417808b354710acafafe05e81b26492231910160405180910390a350949350505050565b600c546301000000900460ff16156114fa5760405162461bcd60e51b815260206004820152602260248201527f536565643a20636f6e747261637420616c726561647920696e697469616c697a604482015261195960f21b60648201526084016106df565b600c805463ff0000001916630100000017905588518990600190811061153057634e487b7160e01b600052603260045260246000fd5b60200260200101516001600160a01b03168960008151811061156257634e487b7160e01b600052603260045260246000fd5b60200260200101516001600160a01b031614156115d75760405162461bcd60e51b815260206004820152602d60248201527f53656564466163746f72793a2073656564546f6b656e2063616e6e6f7420626560448201526c10333ab73234b733aa37b5b2b760991b60648201526084016106df565b876000815181106115f857634e487b7160e01b600052603260045260246000fd5b60200260200101518860018151811061162157634e487b7160e01b600052603260045260246000fd5b602002602001015110156116905760405162461bcd60e51b815260206004820152603060248201527f53656564466163746f72793a20686172644361702063616e6e6f74206265206c60448201526f0657373207468616e20736f66744361760841b60648201526084016106df565b8263ffffffff168463ffffffff1610156117125760405162461bcd60e51b815260206004820152603d60248201527f53656564466163746f72793a2076657374696e674475726174696f6e2063616e60448201527f6e6f74206265206c657373207468616e2076657374696e67436c69666600000060648201526084016106df565b8585116117875760405162461bcd60e51b815260206004820152603b60248201527f53656564466163746f72793a20656e6454696d652063616e6e6f74206265206c60448201527f657373207468616e20657175616c20746f20737461727454696d65000000000060648201526084016106df565b600080546001600160a01b03808e166001600160a01b031992831617835560018054918e169190921617905588518991906117d257634e487b7160e01b600052603260045260246000fd5b60200260200101516002819055508760018151811061180157634e487b7160e01b600052603260045260246000fd5b6020908102919091010151600355600687905560078690556008859055600d8590556009805468ffffffffffffffff00191661010063ffffffff8781169190910268ffffffff0000000000191691909117600160281b918616919091021760ff19168315151790558851899060009061188a57634e487b7160e01b600052603260045260246000fd5b60200260200101516009806101000a8154816001600160a01b0302191690836001600160a01b03160217905550886001815181106118d857634e487b7160e01b600052603260045260246000fd5b6020908102919091010151600a80546001600160a01b039092166001600160a81b031990921691909117600160a01b60ff841602179055600354879061192790670de0b6b3a764000090612969565b6119319190612949565b60048190556064906119479060ff841690612969565b6119519190612949565b6005819055600454600f556011555050505050505050505050565b600c54600090819060ff16156119945760405162461bcd60e51b81526004016106df906127a9565b600c54610100900460ff16156119bc5760405162461bcd60e51b81526004016106df9061282a565b600c54600160281b900460ff1615611a165760405162461bcd60e51b815260206004820152601d60248201527f536565643a206d6178696d756d2066756e64696e67207265616368656400000060448201526064016106df565b60095460ff161580611a3757503360009081526015602052604090205460ff165b611a835760405162461bcd60e51b815260206004820152601a60248201527f536565643a2073656e64657220686173206e6f2072696768747300000000000060448201526064016106df565b4260085410158015611a9757504260075411155b611af95760405162461bcd60e51b815260206004820152602d60248201527f536565643a206f6e6c7920616c6c6f77656420647572696e672064697374726960448201526c189d5d1a5bdb881c195c9a5bd9609a1b60648201526084016106df565b600c5462010000900460ff16611c0657600554600454611b199190612931565b6009546040516370a0823160e01b8152306004820152600160481b9091046001600160a01b0316906370a082319060240160206040518083038186803b158015611b6257600080fd5b505afa158015611b76573d6000803e3d6000fd5b505050506040513d601f19601f82011682018060405250810190611b9a919061270b565b1015611bf45760405162461bcd60e51b815260206004820152602360248201527f536565643a2073756666696369656e74207365656473206e6f742070726f766960448201526219195960ea1b60648201526084016106df565b600c805462ff00001916620100001790555b600654600090611c1e670de0b6b3a764000086612969565b611c289190612949565b601354600a5491925090600090606490611c4c90600160a01b900460ff1685612969565b611c569190612949565b600354909150611c668784612931565b1115611cc75760405162461bcd60e51b815260206004820152602a60248201527f536565643a20616d6f756e74206578636565647320636f6e747261637420736160448201526906c6520686172644361760b41b60648201526084016106df565b82600f541015611d2b5760405162461bcd60e51b815260206004820152602960248201527f536565643a207365656420646973747269627574696f6e20776f756c6420626560448201526808195e18d95959195960ba1b60648201526084016106df565b611d358683612931565b60138190555082600f6000828254611d4d9190612988565b925050819055508060116000828254611d669190612988565b9091555050600a546040516323b872dd60e01b8152336004820152306024820152604481018890526001600160a01b03909116906323b872dd90606401602060405180830381600087803b158015611dbd57600080fd5b505af1158015611dd1573d6000803e3d6000fd5b505050506040513d601f19601f82011682018060405250810190611df5919061264a565b611e335760405162461bcd60e51b815260206004820152600f60248201526e536565643a206e6f20746f6b656e7360881b60448201526064016106df565b60025460135410611e5457600c805464ff0000000019166401000000001790555b60035460135410611e7f57600c805465ff00000000001916600160281b179055611e7b4290565b600d555b33600081815260166020526040902054611efa9190611e9f908690612931565b33600090815260166020526040902060020154611ebd908a90612931565b3360009081526016602052604090206001810154600390910154611ee2908790612931565b33600090815260166020526040902060040154612256565b60405183815233907fcf5ef2b227e797b567f0df4c49cc8b6207cfb60054eb899e5608de08e5dcb1ef9060200160405180910390a291935090915050915091565b6001600160a01b0381166000908152601660209081526040808320815160a0810183528154815260018201549381019390935260028101549183019190915260038101546060830152600401546080820152600d54421015611fa05750600092915050565b6000600d54611fac4290565b611fb69190612988565b600954909150600160281b900463ffffffff16811015611fda575060009392505050565b600954610100900463ffffffff1681106120075760208201518251611fff9190612988565b949350505050565b6009548251600091610100900463ffffffff16906120259084612969565b61202f9190612949565b90508260200151816120419190612988565b95945050505050565b6001546001600160a01b031633146120745760405162461bcd60e51b81526004016106df90612772565b600c5460ff16156120975760405162461bcd60e51b81526004016106df906127a9565b600c54610100900460ff16156120bf5760405162461bcd60e51b81526004016106df9061282a565b60095460ff1615156001146120e65760405162461bcd60e51b81526004016106df90612861565b60005b81518110156107d75760016015600084848151811061211857634e487b7160e01b600052603260045260246000fd5b6020908102919091018101516001600160a01b03168252810191909152604001600020805460ff19169115159190911790558061215481612a0a565b9150506120e9565b600c546301000000900460ff161515600114158061218457506001546001600160a01b031633145b6122015760405162461bcd60e51b815260206004820152604260248201527f536565643a20636f6e74726163742073686f756c64206e6f7420626520696e6960448201527f7469616c697a6564206f722063616c6c65722073686f756c642062652061646d60648201526134b760f11b608482015260a4016106df565b805161221490600b90602084019061232d565b50806040516122239190612723565b604051908190038120907f09f579b21815d3f81581d32e97736ccba1cc89d1918e48da28e6e206acd9686490600090a250565b600954610100900463ffffffff168510156122b35760405162461bcd60e51b815260206004820152601f60248201527f536565643a20616d6f756e745665737465645065725365636f6e64203e20300060448201526064016106df565b6040805160a081018252868152602080820186815282840188815260608401878152608085018781526001600160a01b038d166000908152601690955295842094518555915160018501555160028401555160038301559151600490910155600e80549161232083612a0a565b9190505550505050505050565b828054612339906129cf565b90600052602060002090601f01602090048101928261235b57600085556123a1565b82601f1061237457805160ff19168380011785556123a1565b828001600101855582156123a1579182015b828111156123a1578251825591602001919060010190612386565b506123ad9291506123b1565b5090565b5b808211156123ad57600081556001016123b2565b80356001600160a01b03811681146123dd57600080fd5b919050565b600082601f8301126123f2578081fd5b813560206124076124028361290d565b6128dc565b80838252828201915082860187848660051b8901011115612426578586fd5b855b8581101561244b57612439826123c6565b84529284019290840190600101612428565b5090979650505050505050565b600082601f830112612468578081fd5b813560206124786124028361290d565b80838252828201915082860187848660051b8901011115612497578586fd5b855b8581101561244b57813584529284019290840190600101612499565b80356123dd81612a51565b803563ffffffff811681146123dd57600080fd5b803560ff811681146123dd57600080fd5b6000602082840312156124f6578081fd5b6124ff826123c6565b9392505050565b60008060008060008060008060008060006101608c8e031215612527578687fd5b6125308c6123c6565b9a5061253e60208d016123c6565b995067ffffffffffffffff8060408e01351115612559578788fd5b6125698e60408f01358f016123e2565b99508060608e0135111561257b578788fd5b5061258c8d60608e01358e01612458565b975060808c0135965060a08c0135955060c08c013594506125af60e08d016124c0565b93506125be6101008d016124c0565b92506125cd6101208d016124b5565b91506125dc6101408d016124d4565b90509295989b509295989b9093969950565b60008060408385031215612600578182fd5b612609836123c6565b946020939093013593505050565b600060208284031215612628578081fd5b813567ffffffffffffffff81111561263e578182fd5b611fff848285016123e2565b60006020828403121561265b578081fd5b81516124ff81612a51565b60006020808385031215612678578182fd5b823567ffffffffffffffff8082111561268f578384fd5b818501915085601f8301126126a2578384fd5b8135818111156126b4576126b4612a3b565b6126c6601f8201601f191685016128dc565b915080825286848285010111156126db578485fd5b80848401858401378101909201929092529392505050565b600060208284031215612704578081fd5b5035919050565b60006020828403121561271c578081fd5b5051919050565b6000825161273581846020870161299f565b9190910192915050565b602081526000825180602084015261275e81604085016020870161299f565b601f01601f19169190910160400192915050565b6020808252601c908201527f536565643a2063616c6c65722073686f756c642062652061646d696e00000000604082015260600190565b6020808252601a908201527f536565643a2073686f756c64206e6f7420626520636c6f736564000000000000604082015260600190565b6020808252602a908201527f536565643a2073686f756c64207472616e73666572207365656420746f6b656e60408201526939903a379030b236b4b760b11b606082015260800190565b6020808252601a908201527f536565643a2073686f756c64206e6f7420626520706175736564000000000000604082015260600190565b6020808252601f908201527f536565643a206d6f64756c65206973206e6f742077686974656c697374656400604082015260600190565b60208082526024908201527f536565643a206d696e696d756d2066756e64696e6720616d6f756e74206e6f74604082015263081b595d60e21b606082015260800190565b604051601f8201601f1916810167ffffffffffffffff8111828210171561290557612905612a3b565b604052919050565b600067ffffffffffffffff82111561292757612927612a3b565b5060051b60200190565b6000821982111561294457612944612a25565b500190565b60008261296457634e487b7160e01b81526012600452602481fd5b500490565b600081600019048311821515161561298357612983612a25565b500290565b60008282101561299a5761299a612a25565b500390565b60005b838110156129ba5781810151838201526020016129a2565b838111156129c9576000848401525b50505050565b600181811c908216806129e357607f821691505b60208210811415612a0457634e487b7160e01b600052602260045260246000fd5b50919050565b6000600019821415612a1e57612a1e612a25565b5060010190565b634e487b7160e01b600052601160045260246000fd5b634e487b7160e01b600052604160045260246000fd5b8015158114612a5f57600080fd5b5056fea2646970667358221220955226c6fefcc2133611a02fadb2c421d800939da87204076dce0fda181a2f4564736f6c63430008040033",
  "linkReferences": {},
  "deployedLinkReferences": {}
}