{
  "_format": "hh-sol-artifact-1",
  "contractName": "CloneFactory",
  "sourceName": "contracts/utils/CloneFactory.sol",
  "abi": [
    {
      "inputs": [
        {
          "internalType": "bytes32",
          "name": "c__0xc9f04f20",
          "type": "bytes32"
        }
      ],
      "name": "c_0xc9f04f20",
      "outputs": [],
      "stateMutability": "pure",
      "type": "function"
    }
  ],
  "bytecode": "0x608060405234801561001057600080fd5b5060dc8061001f6000396000f3fe6080604052348015600f57600080fd5b506004361060285760003560e01c8063342cb01a14602d575b600080fd5b60436004803603810190603f9190605b565b6045565b005b50565b6000813590506055816092565b92915050565b600060208284031215606e57606d608d565b5b6000607a848285016048565b91505092915050565b6000819050919050565b600080fd5b6099816083565b811460a357600080fd5b5056fea26469706673582212205e3708c9f46300759aec62b0c62ce4d378613d215388835145a05bdd31a6501c64736f6c63430008060033",
  "linkReferences": {},
  "deployedLinkReferences": {}
}