{
  "_format": "hh-sol-artifact-1",
  "contractName": "CloneFactory",
  "sourceName": "contracts/utils/CloneFactory.sol",
  "abi": [
    {
      "inputs": [
        {
          "internalType": "bytes32",
          "name": "c__0xc9f04f20",
          "type": "bytes32"
        }
      ],
      "name": "c_0xc9f04f20",
      "outputs": [],
      "stateMutability": "pure",
      "type": "function"
    }
  ],
  "bytecode": "0x608060405234801561001057600080fd5b5060d58061001f6000396000f3fe6080604052348015600f57600080fd5b506004361060285760003560e01c8063342cb01a14602d575b600080fd5b60436004803603810190603f9190605b565b6045565b005b50565b600081359050605581608b565b92915050565b600060208284031215606c57600080fd5b60006078848285016048565b91505092915050565b6000819050919050565b6092816081565b8114609c57600080fd5b5056fea2646970667358221220fb6f2496b2faf549077bce787365ac85767bc4afb7e08dd1596ea7b81d95598464736f6c63430008040033",
  "linkReferences": {},
  "deployedLinkReferences": {}
}