{
  "_format": "hh-sol-artifact-1",
  "contractName": "Reputation",
  "sourceName": "contracts/Reputation.sol",
  "abi": [
    {
      "inputs": [
        {
          "internalType": "address[]",
          "name": "_repRecipients",
          "type": "address[]"
        },
        {
          "internalType": "uint256[]",
          "name": "_repAmounts",
          "type": "uint256[]"
        }
      ],
      "stateMutability": "nonpayable",
      "type": "constructor"
    },
    {
      "anonymous": false,
      "inputs": [
        {
          "indexed": true,
          "internalType": "address",
          "name": "owner",
          "type": "address"
        },
        {
          "indexed": true,
          "internalType": "address",
          "name": "spender",
          "type": "address"
        },
        {
          "indexed": false,
          "internalType": "uint256",
          "name": "value",
          "type": "uint256"
        }
      ],
      "name": "Approval",
      "type": "event"
    },
    {
      "anonymous": false,
      "inputs": [
        {
          "indexed": true,
          "internalType": "address",
          "name": "previousOwner",
          "type": "address"
        },
        {
          "indexed": true,
          "internalType": "address",
          "name": "newOwner",
          "type": "address"
        }
      ],
      "name": "OwnershipTransferred",
      "type": "event"
    },
    {
      "anonymous": false,
      "inputs": [
        {
          "indexed": true,
          "internalType": "address",
          "name": "from",
          "type": "address"
        },
        {
          "indexed": true,
          "internalType": "address",
          "name": "to",
          "type": "address"
        },
        {
          "indexed": false,
          "internalType": "uint256",
          "name": "value",
          "type": "uint256"
        }
      ],
      "name": "Transfer",
      "type": "event"
    },
    {
      "inputs": [
        {
          "internalType": "address",
          "name": "owner",
          "type": "address"
        },
        {
          "internalType": "address",
          "name": "spender",
          "type": "address"
        }
      ],
      "name": "allowance",
      "outputs": [
        {
          "internalType": "uint256",
          "name": "",
          "type": "uint256"
        }
      ],
      "stateMutability": "view",
      "type": "function"
    },
    {
      "inputs": [
        {
          "internalType": "address",
          "name": "spender",
          "type": "address"
        },
        {
          "internalType": "uint256",
          "name": "amount",
          "type": "uint256"
        }
      ],
      "name": "approve",
      "outputs": [
        {
          "internalType": "bool",
          "name": "",
          "type": "bool"
        }
      ],
      "stateMutability": "nonpayable",
      "type": "function"
    },
    {
      "inputs": [
        {
          "internalType": "address",
          "name": "account",
          "type": "address"
        }
      ],
      "name": "balanceOf",
      "outputs": [
        {
          "internalType": "uint256",
          "name": "",
          "type": "uint256"
        }
      ],
      "stateMutability": "view",
      "type": "function"
    },
    {
      "inputs": [
        {
          "internalType": "address[]",
          "name": "_repRecipients",
          "type": "address[]"
        },
        {
          "internalType": "uint256[]",
          "name": "_repAmounts",
          "type": "uint256[]"
        }
      ],
      "name": "batchBurn",
      "outputs": [],
      "stateMutability": "nonpayable",
      "type": "function"
    },
    {
      "inputs": [
        {
          "internalType": "address[]",
          "name": "_repRecipients",
          "type": "address[]"
        },
        {
          "internalType": "uint256[]",
          "name": "_repAmounts",
          "type": "uint256[]"
        }
      ],
      "name": "batchMint",
      "outputs": [],
      "stateMutability": "nonpayable",
      "type": "function"
    },
    {
      "inputs": [],
      "name": "decimals",
      "outputs": [
        {
          "internalType": "uint8",
          "name": "",
          "type": "uint8"
        }
      ],
      "stateMutability": "view",
      "type": "function"
    },
    {
      "inputs": [
        {
          "internalType": "address",
          "name": "spender",
          "type": "address"
        },
        {
          "internalType": "uint256",
          "name": "subtractedValue",
          "type": "uint256"
        }
      ],
      "name": "decreaseAllowance",
      "outputs": [
        {
          "internalType": "bool",
          "name": "",
          "type": "bool"
        }
      ],
      "stateMutability": "nonpayable",
      "type": "function"
    },
    {
      "inputs": [
        {
          "internalType": "address",
          "name": "spender",
          "type": "address"
        },
        {
          "internalType": "uint256",
          "name": "addedValue",
          "type": "uint256"
        }
      ],
      "name": "increaseAllowance",
      "outputs": [
        {
          "internalType": "bool",
          "name": "",
          "type": "bool"
        }
      ],
      "stateMutability": "nonpayable",
      "type": "function"
    },
    {
      "inputs": [],
      "name": "name",
      "outputs": [
        {
          "internalType": "string",
          "name": "",
          "type": "string"
        }
      ],
      "stateMutability": "view",
      "type": "function"
    },
    {
      "inputs": [],
      "name": "owner",
      "outputs": [
        {
          "internalType": "address",
          "name": "",
          "type": "address"
        }
      ],
      "stateMutability": "view",
      "type": "function"
    },
    {
      "inputs": [],
      "name": "renounceOwnership",
      "outputs": [],
      "stateMutability": "nonpayable",
      "type": "function"
    },
    {
      "inputs": [],
      "name": "symbol",
      "outputs": [
        {
          "internalType": "string",
          "name": "",
          "type": "string"
        }
      ],
      "stateMutability": "view",
      "type": "function"
    },
    {
      "inputs": [],
      "name": "totalSupply",
      "outputs": [
        {
          "internalType": "uint256",
          "name": "",
          "type": "uint256"
        }
      ],
      "stateMutability": "view",
      "type": "function"
    },
    {
      "inputs": [
        {
          "internalType": "address",
          "name": "recipient",
          "type": "address"
        },
        {
          "internalType": "uint256",
          "name": "amount",
          "type": "uint256"
        }
      ],
      "name": "transfer",
      "outputs": [
        {
          "internalType": "bool",
          "name": "",
          "type": "bool"
        }
      ],
      "stateMutability": "pure",
      "type": "function"
    },
    {
      "inputs": [
        {
          "internalType": "address",
          "name": "sender",
          "type": "address"
        },
        {
          "internalType": "address",
          "name": "recipient",
          "type": "address"
        },
        {
          "internalType": "uint256",
          "name": "amount",
          "type": "uint256"
        }
      ],
      "name": "transferFrom",
      "outputs": [
        {
          "internalType": "bool",
          "name": "",
          "type": "bool"
        }
      ],
      "stateMutability": "pure",
      "type": "function"
    },
    {
      "inputs": [
        {
          "internalType": "address",
          "name": "newOwner",
          "type": "address"
        }
      ],
      "name": "transferOwnership",
      "outputs": [],
      "stateMutability": "nonpayable",
      "type": "function"
    }
  ],
  "bytecode": "0x60806040523480156200001157600080fd5b506040516200152f3803806200152f833981016040819052620000349162000478565b6040518060400160405280601381526020017f5072696d6544414f2052657075746174696f6e000000000000000000000000008152506040518060400160405280600381526020016205245560ec1b81525081600390805190602001906200009e92919062000358565b508051620000b490600490602084019062000358565b505050620000d1620000cb620000e560201b60201c565b620000e9565b620000dd82826200013b565b505062000679565b3390565b600580546001600160a01b038381166001600160a01b0319831681179093556040519116919082907f8be0079c531659141344cd1fd0a4f28419497f9722a3daafe3b4186f6b6457e090600090a35050565b81818051825114620001e05760405162461bcd60e51b815260206004820152605360248201527f52657075746174696f6e3a206e756d626572206f662072657075746174696f6e60448201527f20686f6c6465727320646f65736e2774206d61746368206e756d626572206f6660648201527f2072657075746174696f6e20616d6f756e747300000000000000000000000000608482015260a4015b60405180910390fd5b60005b8351816001600160401b031610156200026c576200025785826001600160401b0316815181106200021857620002186200064d565b602002602001015185836001600160401b0316815181106200023e576200023e6200064d565b60200260200101516200027360201b620005541760201c565b8062000263816200060d565b915050620001e3565b5050505050565b6001600160a01b038216620002cb5760405162461bcd60e51b815260206004820152601f60248201527f45524332303a206d696e7420746f20746865207a65726f2061646472657373006044820152606401620001d7565b8060026000828254620002df9190620005b5565b90915550506001600160a01b038216600090815260208190526040812080548392906200030e908490620005b5565b90915550506040518181526001600160a01b038316906000907fddf252ad1be2c89b69c2b068fc378daa952ba7f163c4a11628f55a4df523b3ef9060200160405180910390a35050565b8280546200036690620005d0565b90600052602060002090601f0160209004810192826200038a5760008555620003d5565b82601f10620003a557805160ff1916838001178555620003d5565b82800160010185558215620003d5579182015b82811115620003d5578251825591602001919060010190620003b8565b50620003e3929150620003e7565b5090565b5b80821115620003e35760008155600101620003e8565b600082601f8301126200041057600080fd5b815160206200042962000423836200058f565b6200055c565b80838252828201915082860187848660051b89010111156200044a57600080fd5b60005b858110156200046b578151845292840192908401906001016200044d565b5090979650505050505050565b600080604083850312156200048c57600080fd5b82516001600160401b0380821115620004a457600080fd5b818501915085601f830112620004b957600080fd5b81516020620004cc62000423836200058f565b8083825282820191508286018a848660051b8901011115620004ed57600080fd5b600096505b84871015620005285780516001600160a01b03811681146200051357600080fd5b835260019690960195918301918301620004f2565b50918801519196509093505050808211156200054357600080fd5b506200055285828601620003fe565b9150509250929050565b604051601f8201601f191681016001600160401b038111828210171562000587576200058762000663565b604052919050565b60006001600160401b03821115620005ab57620005ab62000663565b5060051b60200190565b60008219821115620005cb57620005cb62000637565b500190565b600181811c90821680620005e557607f821691505b602082108114156200060757634e487b7160e01b600052602260045260246000fd5b50919050565b60006001600160401b03828116808214156200062d576200062d62000637565b6001019392505050565b634e487b7160e01b600052601160045260246000fd5b634e487b7160e01b600052603260045260246000fd5b634e487b7160e01b600052604160045260246000fd5b610ea680620006896000396000f3fe608060405234801561001057600080fd5b50600436106101005760003560e01c806370a0823111610097578063a457c2d711610066578063a457c2d71461020d578063a9059cbb14610220578063dd62ed3e14610236578063f2fde38b1461026f57600080fd5b806370a08231146101b9578063715018a6146101e25780638da5cb5b146101ea57806395d89b411461020557600080fd5b8063313ce567116100d3578063313ce5671461016f578063395093511461017e5780634a6cc6771461019157806368573107146101a657600080fd5b806306fdde0314610105578063095ea7b31461012357806318160ddd1461014657806323b872dd14610158575b600080fd5b61010d610282565b60405161011a9190610c44565b60405180910390f35b610136610131366004610b53565b610314565b604051901515815260200161011a565b6002545b60405190815260200161011a565b610136610166366004610b17565b60009392505050565b6040516012815260200161011a565b61013661018c366004610b53565b61032a565b6101a461019f366004610b7d565b610366565b005b6101a46101b4366004610b7d565b6103a7565b61014a6101c7366004610ac2565b6001600160a01b031660009081526020819052604090205490565b6101a46103db565b6005546040516001600160a01b03909116815260200161011a565b61010d610411565b61013661021b366004610b53565b610420565b61013661022e366004610b53565b600092915050565b61014a610244366004610ae4565b6001600160a01b03918216600090815260016020908152604080832093909416825291909152205490565b6101a461027d366004610ac2565b6104b9565b60606003805461029190610dcb565b80601f01602080910402602001604051908101604052809291908181526020018280546102bd90610dcb565b801561030a5780601f106102df5761010080835404028352916020019161030a565b820191906000526020600020905b8154815290600101906020018083116102ed57829003601f168201915b5050505050905090565b6000610321338484610633565b50600192915050565b3360008181526001602090815260408083206001600160a01b03871684529091528120549091610321918590610361908690610d9c565b610633565b6005546001600160a01b031633146103995760405162461bcd60e51b815260040161039090610c99565b60405180910390fd5b6103a38282610757565b5050565b6005546001600160a01b031633146103d15760405162461bcd60e51b815260040161039090610c99565b6103a382826107f9565b6005546001600160a01b031633146104055760405162461bcd60e51b815260040161039090610c99565b61040f6000610894565b565b60606004805461029190610dcb565b3360009081526001602090815260408083206001600160a01b0386168452909152812054828110156104a25760405162461bcd60e51b815260206004820152602560248201527f45524332303a2064656372656173656420616c6c6f77616e63652062656c6f77604482015264207a65726f60d81b6064820152608401610390565b6104af3385858403610633565b5060019392505050565b6005546001600160a01b031633146104e35760405162461bcd60e51b815260040161039090610c99565b6001600160a01b0381166105485760405162461bcd60e51b815260206004820152602660248201527f4f776e61626c653a206e6577206f776e657220697320746865207a65726f206160448201526564647265737360d01b6064820152608401610390565b61055181610894565b50565b6001600160a01b0382166105aa5760405162461bcd60e51b815260206004820152601f60248201527f45524332303a206d696e7420746f20746865207a65726f2061646472657373006044820152606401610390565b80600260008282546105bc9190610d9c565b90915550506001600160a01b038216600090815260208190526040812080548392906105e9908490610d9c565b90915550506040518181526001600160a01b038316906000907fddf252ad1be2c89b69c2b068fc378daa952ba7f163c4a11628f55a4df523b3ef9060200160405180910390a35050565b6001600160a01b0383166106955760405162461bcd60e51b8152602060048201526024808201527f45524332303a20617070726f76652066726f6d20746865207a65726f206164646044820152637265737360e01b6064820152608401610390565b6001600160a01b0382166106f65760405162461bcd60e51b815260206004820152602260248201527f45524332303a20617070726f766520746f20746865207a65726f206164647265604482015261737360f01b6064820152608401610390565b6001600160a01b0383811660008181526001602090815260408083209487168084529482529182902085905590518481527f8c5be1e5ebec7d5bd14f71427d1e84f3dd0314c0f7b2291e5b200ac8c7c3b925910160405180910390a3505050565b8181805182511461077a5760405162461bcd60e51b815260040161039090610cce565b60005b83518167ffffffffffffffff1610156107f2576107e0858267ffffffffffffffff16815181106107af576107af610e44565b6020026020010151858367ffffffffffffffff16815181106107d3576107d3610e44565b60200260200101516108e6565b806107ea81610e06565b91505061077d565b5050505050565b8181805182511461081c5760405162461bcd60e51b815260040161039090610cce565b60005b83518167ffffffffffffffff1610156107f257610882858267ffffffffffffffff168151811061085157610851610e44565b6020026020010151858367ffffffffffffffff168151811061087557610875610e44565b6020026020010151610554565b8061088c81610e06565b91505061081f565b600580546001600160a01b038381166001600160a01b0319831681179093556040519116919082907f8be0079c531659141344cd1fd0a4f28419497f9722a3daafe3b4186f6b6457e090600090a35050565b6001600160a01b0382166109465760405162461bcd60e51b815260206004820152602160248201527f45524332303a206275726e2066726f6d20746865207a65726f206164647265736044820152607360f81b6064820152608401610390565b6001600160a01b038216600090815260208190526040902054818110156109ba5760405162461bcd60e51b815260206004820152602260248201527f45524332303a206275726e20616d6f756e7420657863656564732062616c616e604482015261636560f01b6064820152608401610390565b6001600160a01b03831660009081526020819052604081208383039055600280548492906109e9908490610db4565b90915550506040518281526000906001600160a01b038516907fddf252ad1be2c89b69c2b068fc378daa952ba7f163c4a11628f55a4df523b3ef9060200160405180910390a3505050565b80356001600160a01b0381168114610a4b57600080fd5b919050565b600082601f830112610a6157600080fd5b81356020610a76610a7183610d78565b610d47565b80838252828201915082860187848660051b8901011115610a9657600080fd5b60005b85811015610ab557813584529284019290840190600101610a99565b5090979650505050505050565b600060208284031215610ad457600080fd5b610add82610a34565b9392505050565b60008060408385031215610af757600080fd5b610b0083610a34565b9150610b0e60208401610a34565b90509250929050565b600080600060608486031215610b2c57600080fd5b610b3584610a34565b9250610b4360208501610a34565b9150604084013590509250925092565b60008060408385031215610b6657600080fd5b610b6f83610a34565b946020939093013593505050565b60008060408385031215610b9057600080fd5b823567ffffffffffffffff80821115610ba857600080fd5b818501915085601f830112610bbc57600080fd5b81356020610bcc610a7183610d78565b8083825282820191508286018a848660051b8901011115610bec57600080fd5b600096505b84871015610c1657610c0281610a34565b835260019690960195918301918301610bf1565b5096505086013592505080821115610c2d57600080fd5b50610c3a85828601610a50565b9150509250929050565b600060208083528351808285015260005b81811015610c7157858101830151858201604001528201610c55565b81811115610c83576000604083870101525b50601f01601f1916929092016040019392505050565b6020808252818101527f4f776e61626c653a2063616c6c6572206973206e6f7420746865206f776e6572604082015260600190565b60208082526053908201527f52657075746174696f6e3a206e756d626572206f662072657075746174696f6e60408201527f20686f6c6465727320646f65736e2774206d61746368206e756d626572206f666060820152722072657075746174696f6e20616d6f756e747360681b608082015260a00190565b604051601f8201601f1916810167ffffffffffffffff81118282101715610d7057610d70610e5a565b604052919050565b600067ffffffffffffffff821115610d9257610d92610e5a565b5060051b60200190565b60008219821115610daf57610daf610e2e565b500190565b600082821015610dc657610dc6610e2e565b500390565b600181811c90821680610ddf57607f821691505b60208210811415610e0057634e487b7160e01b600052602260045260246000fd5b50919050565b600067ffffffffffffffff80831681811415610e2457610e24610e2e565b6001019392505050565b634e487b7160e01b600052601160045260246000fd5b634e487b7160e01b600052603260045260246000fd5b634e487b7160e01b600052604160045260246000fdfea26469706673582212203a18dd5500ee4622445c43faec558f08382592d13a25515d1d46816f1810bce464736f6c63430008060033",
  "linkReferences": {},
  "deployedLinkReferences": {}
}