{
  "_format": "hh-sol-artifact-1",
  "contractName": "Reputation",
  "sourceName": "contracts/Reputation.sol",
  "abi": [
    {
      "inputs": [
        {
          "internalType": "address[]",
          "name": "_repRecipients",
          "type": "address[]"
        },
        {
          "internalType": "uint256[]",
          "name": "_repAmounts",
          "type": "uint256[]"
        }
      ],
      "stateMutability": "nonpayable",
      "type": "constructor"
    },
    {
      "anonymous": false,
      "inputs": [
        {
          "indexed": true,
          "internalType": "address",
          "name": "owner",
          "type": "address"
        },
        {
          "indexed": true,
          "internalType": "address",
          "name": "spender",
          "type": "address"
        },
        {
          "indexed": false,
          "internalType": "uint256",
          "name": "value",
          "type": "uint256"
        }
      ],
      "name": "Approval",
      "type": "event"
    },
    {
      "anonymous": false,
      "inputs": [
        {
          "indexed": true,
          "internalType": "address",
          "name": "previousOwner",
          "type": "address"
        },
        {
          "indexed": true,
          "internalType": "address",
          "name": "newOwner",
          "type": "address"
        }
      ],
      "name": "OwnershipTransferred",
      "type": "event"
    },
    {
      "anonymous": false,
      "inputs": [
        {
          "indexed": true,
          "internalType": "address",
          "name": "from",
          "type": "address"
        },
        {
          "indexed": true,
          "internalType": "address",
          "name": "to",
          "type": "address"
        },
        {
          "indexed": false,
          "internalType": "uint256",
          "name": "value",
          "type": "uint256"
        }
      ],
      "name": "Transfer",
      "type": "event"
    },
    {
      "inputs": [
        {
          "internalType": "address",
          "name": "owner",
          "type": "address"
        },
        {
          "internalType": "address",
          "name": "spender",
          "type": "address"
        }
      ],
      "name": "allowance",
      "outputs": [
        {
          "internalType": "uint256",
          "name": "",
          "type": "uint256"
        }
      ],
      "stateMutability": "view",
      "type": "function"
    },
    {
      "inputs": [
        {
          "internalType": "address",
          "name": "spender",
          "type": "address"
        },
        {
          "internalType": "uint256",
          "name": "amount",
          "type": "uint256"
        }
      ],
      "name": "approve",
      "outputs": [
        {
          "internalType": "bool",
          "name": "",
          "type": "bool"
        }
      ],
      "stateMutability": "nonpayable",
      "type": "function"
    },
    {
      "inputs": [
        {
          "internalType": "address",
          "name": "account",
          "type": "address"
        }
      ],
      "name": "balanceOf",
      "outputs": [
        {
          "internalType": "uint256",
          "name": "",
          "type": "uint256"
        }
      ],
      "stateMutability": "view",
      "type": "function"
    },
    {
      "inputs": [
        {
          "internalType": "address[]",
          "name": "_repRecipients",
          "type": "address[]"
        },
        {
          "internalType": "uint256[]",
          "name": "_repAmounts",
          "type": "uint256[]"
        }
      ],
      "name": "batchBurn",
      "outputs": [],
      "stateMutability": "nonpayable",
      "type": "function"
    },
    {
      "inputs": [
        {
          "internalType": "address[]",
          "name": "_repRecipients",
          "type": "address[]"
        },
        {
          "internalType": "uint256[]",
          "name": "_repAmounts",
          "type": "uint256[]"
        }
      ],
      "name": "batchMint",
      "outputs": [],
      "stateMutability": "nonpayable",
      "type": "function"
    },
    {
      "inputs": [],
      "name": "decimals",
      "outputs": [
        {
          "internalType": "uint8",
          "name": "",
          "type": "uint8"
        }
      ],
      "stateMutability": "view",
      "type": "function"
    },
    {
      "inputs": [
        {
          "internalType": "address",
          "name": "spender",
          "type": "address"
        },
        {
          "internalType": "uint256",
          "name": "subtractedValue",
          "type": "uint256"
        }
      ],
      "name": "decreaseAllowance",
      "outputs": [
        {
          "internalType": "bool",
          "name": "",
          "type": "bool"
        }
      ],
      "stateMutability": "nonpayable",
      "type": "function"
    },
    {
      "inputs": [
        {
          "internalType": "address",
          "name": "spender",
          "type": "address"
        },
        {
          "internalType": "uint256",
          "name": "addedValue",
          "type": "uint256"
        }
      ],
      "name": "increaseAllowance",
      "outputs": [
        {
          "internalType": "bool",
          "name": "",
          "type": "bool"
        }
      ],
      "stateMutability": "nonpayable",
      "type": "function"
    },
    {
      "inputs": [],
      "name": "name",
      "outputs": [
        {
          "internalType": "string",
          "name": "",
          "type": "string"
        }
      ],
      "stateMutability": "view",
      "type": "function"
    },
    {
      "inputs": [],
      "name": "owner",
      "outputs": [
        {
          "internalType": "address",
          "name": "",
          "type": "address"
        }
      ],
      "stateMutability": "view",
      "type": "function"
    },
    {
      "inputs": [],
      "name": "renounceOwnership",
      "outputs": [],
      "stateMutability": "nonpayable",
      "type": "function"
    },
    {
      "inputs": [],
      "name": "symbol",
      "outputs": [
        {
          "internalType": "string",
          "name": "",
          "type": "string"
        }
      ],
      "stateMutability": "view",
      "type": "function"
    },
    {
      "inputs": [],
      "name": "totalSupply",
      "outputs": [
        {
          "internalType": "uint256",
          "name": "",
          "type": "uint256"
        }
      ],
      "stateMutability": "view",
      "type": "function"
    },
    {
      "inputs": [
        {
          "internalType": "address",
          "name": "recipient",
          "type": "address"
        },
        {
          "internalType": "uint256",
          "name": "amount",
          "type": "uint256"
        }
      ],
      "name": "transfer",
      "outputs": [
        {
          "internalType": "bool",
          "name": "",
          "type": "bool"
        }
      ],
      "stateMutability": "pure",
      "type": "function"
    },
    {
      "inputs": [
        {
          "internalType": "address",
          "name": "sender",
          "type": "address"
        },
        {
          "internalType": "address",
          "name": "recipient",
          "type": "address"
        },
        {
          "internalType": "uint256",
          "name": "amount",
          "type": "uint256"
        }
      ],
      "name": "transferFrom",
      "outputs": [
        {
          "internalType": "bool",
          "name": "",
          "type": "bool"
        }
      ],
      "stateMutability": "pure",
      "type": "function"
    },
    {
      "inputs": [
        {
          "internalType": "address",
          "name": "newOwner",
          "type": "address"
        }
      ],
      "name": "transferOwnership",
      "outputs": [],
      "stateMutability": "nonpayable",
      "type": "function"
    }
  ],
  "bytecode": "0x60806040523480156200001157600080fd5b506040516200167c3803806200167c83398101604081905262000034916200050b565b6040518060400160405280601381526020017f5072696d6544414f2052657075746174696f6e000000000000000000000000008152506040518060400160405280600381526020016205245560ec1b81525081600390805190602001906200009e929190620003eb565b508051620000b4906004906020840190620003eb565b505050620000d1620000cb620000e560201b60201c565b620000e9565b620000dd82826200013b565b50506200070c565b3390565b600580546001600160a01b038381166001600160a01b0319831681179093556040519116919082907f8be0079c531659141344cd1fd0a4f28419497f9722a3daafe3b4186f6b6457e090600090a35050565b81818051825114620001e05760405162461bcd60e51b815260206004820152605360248201527f52657075746174696f6e3a206e756d626572206f662072657075746174696f6e60448201527f20686f6c6465727320646f65736e2774206d61746368206e756d626572206f6660648201527f2072657075746174696f6e20616d6f756e747300000000000000000000000000608482015260a4015b60405180910390fd5b60c882511115620002735760405162461bcd60e51b815260206004820152605060248201527f52657075746174696f6e3a206d6178696d756d206e756d626572206f6620726560448201527f7075746174696f6e20686f6c6465727320616e6420616d6f756e7473206f662060648201526f0c8c0c081dd85cc8195e18d95959195960821b608482015260a401620001d7565b60005b8351816001600160401b03161015620002ff57620002ea85826001600160401b031681518110620002ab57620002ab620006e0565b602002602001015185836001600160401b031681518110620002d157620002d1620006e0565b60200260200101516200030660201b620005541760201c565b80620002f681620006a0565b91505062000276565b5050505050565b6001600160a01b0382166200035e5760405162461bcd60e51b815260206004820152601f60248201527f45524332303a206d696e7420746f20746865207a65726f2061646472657373006044820152606401620001d7565b806002600082825462000372919062000648565b90915550506001600160a01b03821660009081526020819052604081208054839290620003a190849062000648565b90915550506040518181526001600160a01b038316906000907fddf252ad1be2c89b69c2b068fc378daa952ba7f163c4a11628f55a4df523b3ef9060200160405180910390a35050565b828054620003f99062000663565b90600052602060002090601f0160209004810192826200041d576000855562000468565b82601f106200043857805160ff191683800117855562000468565b8280016001018555821562000468579182015b82811115620004685782518255916020019190600101906200044b565b50620004769291506200047a565b5090565b5b808211156200047657600081556001016200047b565b600082601f830112620004a357600080fd5b81516020620004bc620004b68362000622565b620005ef565b80838252828201915082860187848660051b8901011115620004dd57600080fd5b60005b85811015620004fe57815184529284019290840190600101620004e0565b5090979650505050505050565b600080604083850312156200051f57600080fd5b82516001600160401b03808211156200053757600080fd5b818501915085601f8301126200054c57600080fd5b815160206200055f620004b68362000622565b8083825282820191508286018a848660051b89010111156200058057600080fd5b600096505b84871015620005bb5780516001600160a01b0381168114620005a657600080fd5b83526001969096019591830191830162000585565b5091880151919650909350505080821115620005d657600080fd5b50620005e58582860162000491565b9150509250929050565b604051601f8201601f191681016001600160401b03811182821017156200061a576200061a620006f6565b604052919050565b60006001600160401b038211156200063e576200063e620006f6565b5060051b60200190565b600082198211156200065e576200065e620006ca565b500190565b600181811c908216806200067857607f821691505b602082108114156200069a57634e487b7160e01b600052602260045260246000fd5b50919050565b60006001600160401b0382811680821415620006c057620006c0620006ca565b6001019392505050565b634e487b7160e01b600052601160045260246000fd5b634e487b7160e01b600052603260045260246000fd5b634e487b7160e01b600052604160045260246000fd5b610f60806200071c6000396000f3fe608060405234801561001057600080fd5b50600436106101005760003560e01c806370a0823111610097578063a457c2d711610066578063a457c2d71461020d578063a9059cbb14610220578063dd62ed3e14610236578063f2fde38b1461026f57600080fd5b806370a08231146101b9578063715018a6146101e25780638da5cb5b146101ea57806395d89b411461020557600080fd5b8063313ce567116100d3578063313ce5671461016f578063395093511461017e5780634a6cc6771461019157806368573107146101a657600080fd5b806306fdde0314610105578063095ea7b31461012357806318160ddd1461014657806323b872dd14610158575b600080fd5b61010d610282565b60405161011a9190610c88565b60405180910390f35b610136610131366004610b97565b610314565b604051901515815260200161011a565b6002545b60405190815260200161011a565b610136610166366004610b5b565b60009392505050565b6040516012815260200161011a565b61013661018c366004610b97565b61032a565b6101a461019f366004610bc1565b610366565b005b6101a46101b4366004610bc1565b6103a7565b61014a6101c7366004610b06565b6001600160a01b031660009081526020819052604090205490565b6101a46103db565b6005546040516001600160a01b03909116815260200161011a565b61010d610411565b61013661021b366004610b97565b610420565b61013661022e366004610b97565b600092915050565b61014a610244366004610b28565b6001600160a01b03918216600090815260016020908152604080832093909416825291909152205490565b6101a461027d366004610b06565b6104b9565b60606003805461029190610e85565b80601f01602080910402602001604051908101604052809291908181526020018280546102bd90610e85565b801561030a5780601f106102df5761010080835404028352916020019161030a565b820191906000526020600020905b8154815290600101906020018083116102ed57829003601f168201915b5050505050905090565b6000610321338484610633565b50600192915050565b3360008181526001602090815260408083206001600160a01b03871684529091528120549091610321918590610361908690610e56565b610633565b6005546001600160a01b031633146103995760405162461bcd60e51b815260040161039090610d53565b60405180910390fd5b6103a38282610757565b5050565b6005546001600160a01b031633146103d15760405162461bcd60e51b815260040161039090610d53565b6103a3828261081b565b6005546001600160a01b031633146104055760405162461bcd60e51b815260040161039090610d53565b61040f60006108d8565b565b60606004805461029190610e85565b3360009081526001602090815260408083206001600160a01b0386168452909152812054828110156104a25760405162461bcd60e51b815260206004820152602560248201527f45524332303a2064656372656173656420616c6c6f77616e63652062656c6f77604482015264207a65726f60d81b6064820152608401610390565b6104af3385858403610633565b5060019392505050565b6005546001600160a01b031633146104e35760405162461bcd60e51b815260040161039090610d53565b6001600160a01b0381166105485760405162461bcd60e51b815260206004820152602660248201527f4f776e61626c653a206e6577206f776e657220697320746865207a65726f206160448201526564647265737360d01b6064820152608401610390565b610551816108d8565b50565b6001600160a01b0382166105aa5760405162461bcd60e51b815260206004820152601f60248201527f45524332303a206d696e7420746f20746865207a65726f2061646472657373006044820152606401610390565b80600260008282546105bc9190610e56565b90915550506001600160a01b038216600090815260208190526040812080548392906105e9908490610e56565b90915550506040518181526001600160a01b038316906000907fddf252ad1be2c89b69c2b068fc378daa952ba7f163c4a11628f55a4df523b3ef9060200160405180910390a35050565b6001600160a01b0383166106955760405162461bcd60e51b8152602060048201526024808201527f45524332303a20617070726f76652066726f6d20746865207a65726f206164646044820152637265737360e01b6064820152608401610390565b6001600160a01b0382166106f65760405162461bcd60e51b815260206004820152602260248201527f45524332303a20617070726f766520746f20746865207a65726f206164647265604482015261737360f01b6064820152608401610390565b6001600160a01b0383811660008181526001602090815260408083209487168084529482529182902085905590518481527f8c5be1e5ebec7d5bd14f71427d1e84f3dd0314c0f7b2291e5b200ac8c7c3b925910160405180910390a3505050565b8181805182511461077a5760405162461bcd60e51b815260040161039090610d88565b60c88251111561079c5760405162461bcd60e51b815260040161039090610cdd565b60005b83518167ffffffffffffffff16101561081457610802858267ffffffffffffffff16815181106107d1576107d1610efe565b6020026020010151858367ffffffffffffffff16815181106107f5576107f5610efe565b602002602001015161092a565b8061080c81610ec0565b91505061079f565b5050505050565b8181805182511461083e5760405162461bcd60e51b815260040161039090610d88565b60c8825111156108605760405162461bcd60e51b815260040161039090610cdd565b60005b83518167ffffffffffffffff161015610814576108c6858267ffffffffffffffff168151811061089557610895610efe565b6020026020010151858367ffffffffffffffff16815181106108b9576108b9610efe565b6020026020010151610554565b806108d081610ec0565b915050610863565b600580546001600160a01b038381166001600160a01b0319831681179093556040519116919082907f8be0079c531659141344cd1fd0a4f28419497f9722a3daafe3b4186f6b6457e090600090a35050565b6001600160a01b03821661098a5760405162461bcd60e51b815260206004820152602160248201527f45524332303a206275726e2066726f6d20746865207a65726f206164647265736044820152607360f81b6064820152608401610390565b6001600160a01b038216600090815260208190526040902054818110156109fe5760405162461bcd60e51b815260206004820152602260248201527f45524332303a206275726e20616d6f756e7420657863656564732062616c616e604482015261636560f01b6064820152608401610390565b6001600160a01b0383166000908152602081905260408120838303905560028054849290610a2d908490610e6e565b90915550506040518281526000906001600160a01b038516907fddf252ad1be2c89b69c2b068fc378daa952ba7f163c4a11628f55a4df523b3ef9060200160405180910390a3505050565b80356001600160a01b0381168114610a8f57600080fd5b919050565b600082601f830112610aa557600080fd5b81356020610aba610ab583610e32565b610e01565b80838252828201915082860187848660051b8901011115610ada57600080fd5b60005b85811015610af957813584529284019290840190600101610add565b5090979650505050505050565b600060208284031215610b1857600080fd5b610b2182610a78565b9392505050565b60008060408385031215610b3b57600080fd5b610b4483610a78565b9150610b5260208401610a78565b90509250929050565b600080600060608486031215610b7057600080fd5b610b7984610a78565b9250610b8760208501610a78565b9150604084013590509250925092565b60008060408385031215610baa57600080fd5b610bb383610a78565b946020939093013593505050565b60008060408385031215610bd457600080fd5b823567ffffffffffffffff80821115610bec57600080fd5b818501915085601f830112610c0057600080fd5b81356020610c10610ab583610e32565b8083825282820191508286018a848660051b8901011115610c3057600080fd5b600096505b84871015610c5a57610c4681610a78565b835260019690960195918301918301610c35565b5096505086013592505080821115610c7157600080fd5b50610c7e85828601610a94565b9150509250929050565b600060208083528351808285015260005b81811015610cb557858101830151858201604001528201610c99565b81811115610cc7576000604083870101525b50601f01601f1916929092016040019392505050565b60208082526050908201527f52657075746174696f6e3a206d6178696d756d206e756d626572206f6620726560408201527f7075746174696f6e20686f6c6465727320616e6420616d6f756e7473206f662060608201526f0c8c0c081dd85cc8195e18d95959195960821b608082015260a00190565b6020808252818101527f4f776e61626c653a2063616c6c6572206973206e6f7420746865206f776e6572604082015260600190565b60208082526053908201527f52657075746174696f6e3a206e756d626572206f662072657075746174696f6e60408201527f20686f6c6465727320646f65736e2774206d61746368206e756d626572206f666060820152722072657075746174696f6e20616d6f756e747360681b608082015260a00190565b604051601f8201601f1916810167ffffffffffffffff81118282101715610e2a57610e2a610f14565b604052919050565b600067ffffffffffffffff821115610e4c57610e4c610f14565b5060051b60200190565b60008219821115610e6957610e69610ee8565b500190565b600082821015610e8057610e80610ee8565b500390565b600181811c90821680610e9957607f821691505b60208210811415610eba57634e487b7160e01b600052602260045260246000fd5b50919050565b600067ffffffffffffffff80831681811415610ede57610ede610ee8565b6001019392505050565b634e487b7160e01b600052601160045260246000fd5b634e487b7160e01b600052603260045260246000fd5b634e487b7160e01b600052604160045260246000fdfea2646970667358221220b0cf51cf531f69af2cee14b7655626fbbec4c0659d999a59bf0de460d1852fb864736f6c63430008060033",
  "linkReferences": {},
  "deployedLinkReferences": {}
}