{
  "_format": "hh-sol-artifact-1",
  "contractName": "Reputation",
  "sourceName": "contracts/Reputation.sol",
  "abi": [
    {
      "inputs": [
        {
          "internalType": "address[]",
          "name": "_repRecipients",
          "type": "address[]"
        },
        {
          "internalType": "uint256[]",
          "name": "_repAmounts",
          "type": "uint256[]"
        }
      ],
      "stateMutability": "nonpayable",
      "type": "constructor"
    },
    {
      "anonymous": false,
      "inputs": [
        {
          "indexed": true,
          "internalType": "address",
          "name": "owner",
          "type": "address"
        },
        {
          "indexed": true,
          "internalType": "address",
          "name": "spender",
          "type": "address"
        },
        {
          "indexed": false,
          "internalType": "uint256",
          "name": "value",
          "type": "uint256"
        }
      ],
      "name": "Approval",
      "type": "event"
    },
    {
      "anonymous": false,
      "inputs": [
        {
          "indexed": true,
          "internalType": "address",
          "name": "previousOwner",
          "type": "address"
        },
        {
          "indexed": true,
          "internalType": "address",
          "name": "newOwner",
          "type": "address"
        }
      ],
      "name": "OwnershipTransferred",
      "type": "event"
    },
    {
      "anonymous": false,
      "inputs": [
        {
          "indexed": true,
          "internalType": "address",
          "name": "from",
          "type": "address"
        },
        {
          "indexed": true,
          "internalType": "address",
          "name": "to",
          "type": "address"
        },
        {
          "indexed": false,
          "internalType": "uint256",
          "name": "value",
          "type": "uint256"
        }
      ],
      "name": "Transfer",
      "type": "event"
    },
    {
      "inputs": [
        {
          "internalType": "address",
          "name": "owner",
          "type": "address"
        },
        {
          "internalType": "address",
          "name": "spender",
          "type": "address"
        }
      ],
      "name": "allowance",
      "outputs": [
        {
          "internalType": "uint256",
          "name": "",
          "type": "uint256"
        }
      ],
      "stateMutability": "view",
      "type": "function"
    },
    {
      "inputs": [
        {
          "internalType": "address",
          "name": "spender",
          "type": "address"
        },
        {
          "internalType": "uint256",
          "name": "amount",
          "type": "uint256"
        }
      ],
      "name": "approve",
      "outputs": [
        {
          "internalType": "bool",
          "name": "",
          "type": "bool"
        }
      ],
      "stateMutability": "nonpayable",
      "type": "function"
    },
    {
      "inputs": [
        {
          "internalType": "address",
          "name": "account",
          "type": "address"
        }
      ],
      "name": "balanceOf",
      "outputs": [
        {
          "internalType": "uint256",
          "name": "",
          "type": "uint256"
        }
      ],
      "stateMutability": "view",
      "type": "function"
    },
    {
      "inputs": [
        {
          "internalType": "address[]",
          "name": "_repRecipients",
          "type": "address[]"
        },
        {
          "internalType": "uint256[]",
          "name": "_repAmounts",
          "type": "uint256[]"
        }
      ],
      "name": "batchBurn",
      "outputs": [],
      "stateMutability": "nonpayable",
      "type": "function"
    },
    {
      "inputs": [
        {
          "internalType": "address[]",
          "name": "_repRecipients",
          "type": "address[]"
        },
        {
          "internalType": "uint256[]",
          "name": "_repAmounts",
          "type": "uint256[]"
        }
      ],
      "name": "batchMint",
      "outputs": [],
      "stateMutability": "nonpayable",
      "type": "function"
    },
    {
      "inputs": [
        {
          "internalType": "bytes32",
          "name": "c__0x68fc85c1",
          "type": "bytes32"
        }
      ],
      "name": "c_0x68fc85c1",
      "outputs": [],
      "stateMutability": "pure",
      "type": "function"
    },
    {
      "inputs": [],
      "name": "decimals",
      "outputs": [
        {
          "internalType": "uint8",
          "name": "",
          "type": "uint8"
        }
      ],
      "stateMutability": "view",
      "type": "function"
    },
    {
      "inputs": [
        {
          "internalType": "address",
          "name": "spender",
          "type": "address"
        },
        {
          "internalType": "uint256",
          "name": "subtractedValue",
          "type": "uint256"
        }
      ],
      "name": "decreaseAllowance",
      "outputs": [
        {
          "internalType": "bool",
          "name": "",
          "type": "bool"
        }
      ],
      "stateMutability": "nonpayable",
      "type": "function"
    },
    {
      "inputs": [
        {
          "internalType": "address",
          "name": "spender",
          "type": "address"
        },
        {
          "internalType": "uint256",
          "name": "addedValue",
          "type": "uint256"
        }
      ],
      "name": "increaseAllowance",
      "outputs": [
        {
          "internalType": "bool",
          "name": "",
          "type": "bool"
        }
      ],
      "stateMutability": "nonpayable",
      "type": "function"
    },
    {
      "inputs": [],
      "name": "name",
      "outputs": [
        {
          "internalType": "string",
          "name": "",
          "type": "string"
        }
      ],
      "stateMutability": "view",
      "type": "function"
    },
    {
      "inputs": [],
      "name": "owner",
      "outputs": [
        {
          "internalType": "address",
          "name": "",
          "type": "address"
        }
      ],
      "stateMutability": "view",
      "type": "function"
    },
    {
      "inputs": [],
      "name": "renounceOwnership",
      "outputs": [],
      "stateMutability": "nonpayable",
      "type": "function"
    },
    {
      "inputs": [],
      "name": "symbol",
      "outputs": [
        {
          "internalType": "string",
          "name": "",
          "type": "string"
        }
      ],
      "stateMutability": "view",
      "type": "function"
    },
    {
      "inputs": [],
      "name": "totalSupply",
      "outputs": [
        {
          "internalType": "uint256",
          "name": "",
          "type": "uint256"
        }
      ],
      "stateMutability": "view",
      "type": "function"
    },
    {
      "inputs": [
        {
          "internalType": "address",
          "name": "recipient",
          "type": "address"
        },
        {
          "internalType": "uint256",
          "name": "amount",
          "type": "uint256"
        }
      ],
      "name": "transfer",
      "outputs": [
        {
          "internalType": "bool",
          "name": "",
          "type": "bool"
        }
      ],
      "stateMutability": "pure",
      "type": "function"
    },
    {
      "inputs": [
        {
          "internalType": "address",
          "name": "sender",
          "type": "address"
        },
        {
          "internalType": "address",
          "name": "recipient",
          "type": "address"
        },
        {
          "internalType": "uint256",
          "name": "amount",
          "type": "uint256"
        }
      ],
      "name": "transferFrom",
      "outputs": [
        {
          "internalType": "bool",
          "name": "",
          "type": "bool"
        }
      ],
      "stateMutability": "pure",
      "type": "function"
    },
    {
      "inputs": [
        {
          "internalType": "address",
          "name": "newOwner",
          "type": "address"
        }
      ],
      "name": "transferOwnership",
      "outputs": [],
      "stateMutability": "nonpayable",
      "type": "function"
    }
  ],
  "bytecode": "0x60806040523480156200001157600080fd5b506040516200326938038062003269833981810160405281019062000037919062000959565b6040518060400160405280601381526020017f5072696d6544414f2052657075746174696f6e000000000000000000000000008152506040518060400160405280600381526020017f52455000000000000000000000000000000000000000000000000000000000008152508160039080519060200190620000bb9291906200071f565b508060049080519060200190620000d49291906200071f565b505050620000f7620000eb620001ad60201b60201c565b620001b560201b60201c565b6200012b7f7373ffe8ecb311b980eaea3566e8dec39d0f79dc7ba2d1f878aa821450ffdffa60001b6200027b60201b60201c565b6200015f7fb063c07dc5ddf58f7807a216a9c80fe00bbaf91a6423b06c473f03187c5c465060001b6200027b60201b60201c565b620001937f16071eef66eeb7bebc7e7eabee231d6643df722fa770993ab42195bc58f63d5b60001b6200027b60201b60201c565b620001a582826200027e60201b60201c565b505062000e3a565b600033905090565b6000600560009054906101000a900473ffffffffffffffffffffffffffffffffffffffff16905081600560006101000a81548173ffffffffffffffffffffffffffffffffffffffff021916908373ffffffffffffffffffffffffffffffffffffffff1602179055508173ffffffffffffffffffffffffffffffffffffffff168173ffffffffffffffffffffffffffffffffffffffff167f8be0079c531659141344cd1fd0a4f28419497f9722a3daafe3b4186f6b6457e060405160405180910390a35050565b50565b8181620002b47fc75548748ec66061006e13a6715f195b751c60137085cfbaecf85bc7a846db9760001b6200027b60201b60201c565b620002e87f88150d28acfeed8c08ca9113b59d8567afc1e8684d4faf39b788d2c56d8b026060001b6200027b60201b60201c565b6200031c7f9704e1275a911127c3c1a3729c3cd062d2cfb2929f92ca595774e1f8169a64da60001b6200027b60201b60201c565b620003507fa83d50c616731a6db4cec4509d31c0878e94881ad608cb7b7af7c02d36e83dc360001b6200027b60201b60201c565b805182511462000397576040517f08c379a00000000000000000000000000000000000000000000000000000000081526004016200038e9062000a3d565b60405180910390fd5b620003cb7f49f91556d48077fbecc98abbbcbc43114a862b729f18dff15243b8363885ac7860001b6200027b60201b60201c565b620003ff7f50e9086535e9450b80202bcb0ae36b50ed00dc7dda68234d3efe5e9aa0946b8460001b6200027b60201b60201c565b620004337f997fcc116db3d3ba4fa8b48be9052adb3ca221a4ffdf8a5a83419a19590ccddc60001b6200027b60201b60201c565b620004677f5c04c29699141bcb92ea0ddc0fb94a9ea5adcf72e7cb610c0b4a0877d56c63c460001b6200027b60201b60201c565b6200049b7f4b28c1719c7577814ca5fbcad71ff8ba1dc09e0da2d4cff8d73ac2a9c150632860001b6200027b60201b60201c565b60005b83518167ffffffffffffffff1610156200059557620004e67fe68bdfba65a6cc869a0649e207e56191caa166ab192ab11beb8324c18ab6881760001b6200027b60201b60201c565b6200051a7fce5b8b23c3218025221b6c1f98aaee273cbcb9a50f745893b6fb17a79907777060001b6200027b60201b60201c565b6200057f858267ffffffffffffffff16815181106200053e576200053d62000ce5565b5b6020026020010151858367ffffffffffffffff168151811062000566576200056562000ce5565b5b60200260200101516200059c60201b62000c151760201c565b80806200058c9062000c51565b9150506200049e565b5050505050565b600073ffffffffffffffffffffffffffffffffffffffff168273ffffffffffffffffffffffffffffffffffffffff1614156200060f576040517f08c379a0000000000000000000000000000000000000000000000000000000008152600401620006069062000a5f565b60405180910390fd5b62000623600083836200071560201b60201c565b806002600082825462000637919062000b36565b92505081905550806000808473ffffffffffffffffffffffffffffffffffffffff1673ffffffffffffffffffffffffffffffffffffffff16815260200190815260200160002060008282546200068e919062000b36565b925050819055508173ffffffffffffffffffffffffffffffffffffffff16600073ffffffffffffffffffffffffffffffffffffffff167fddf252ad1be2c89b69c2b068fc378daa952ba7f163c4a11628f55a4df523b3ef83604051620006f5919062000a81565b60405180910390a362000711600083836200071a60201b60201c565b5050565b505050565b505050565b8280546200072d9062000be5565b90600052602060002090601f0160209004810192826200075157600085556200079d565b82601f106200076c57805160ff19168380011785556200079d565b828001600101855582156200079d579182015b828111156200079c5782518255916020019190600101906200077f565b5b509050620007ac9190620007b0565b5090565b5b80821115620007cb576000816000905550600101620007b1565b5090565b6000620007e6620007e08462000ac7565b62000a9e565b905080838252602082019050828560208602820111156200080c576200080b62000d48565b5b60005b85811015620008405781620008258882620008c5565b8452602084019350602083019250506001810190506200080f565b5050509392505050565b6000620008616200085b8462000af6565b62000a9e565b9050808382526020820190508285602086028201111562000887576200088662000d48565b5b60005b85811015620008bb5781620008a0888262000942565b8452602084019350602083019250506001810190506200088a565b5050509392505050565b600081519050620008d68162000e06565b92915050565b600082601f830112620008f457620008f362000d43565b5b815162000906848260208601620007cf565b91505092915050565b600082601f83011262000927576200092662000d43565b5b8151620009398482602086016200084a565b91505092915050565b600081519050620009538162000e20565b92915050565b6000806040838503121562000973576200097262000d52565b5b600083015167ffffffffffffffff81111562000994576200099362000d4d565b5b620009a285828601620008dc565b925050602083015167ffffffffffffffff811115620009c657620009c562000d4d565b5b620009d4858286016200090f565b9150509250929050565b6000620009ed60538362000b25565b9150620009fa8262000d68565b606082019050919050565b600062000a14601f8362000b25565b915062000a218262000ddd565b602082019050919050565b62000a378162000bc7565b82525050565b6000602082019050818103600083015262000a5881620009de565b9050919050565b6000602082019050818103600083015262000a7a8162000a05565b9050919050565b600060208201905062000a98600083018462000a2c565b92915050565b600062000aaa62000abd565b905062000ab8828262000c1b565b919050565b6000604051905090565b600067ffffffffffffffff82111562000ae55762000ae462000d14565b5b602082029050602081019050919050565b600067ffffffffffffffff82111562000b145762000b1362000d14565b5b602082029050602081019050919050565b600082825260208201905092915050565b600062000b438262000bc7565b915062000b508362000bc7565b9250827fffffffffffffffffffffffffffffffffffffffffffffffffffffffffffffffff0382111562000b885762000b8762000c87565b5b828201905092915050565b600062000ba08262000ba7565b9050919050565b600073ffffffffffffffffffffffffffffffffffffffff82169050919050565b6000819050919050565b600067ffffffffffffffff82169050919050565b6000600282049050600182168062000bfe57607f821691505b6020821081141562000c155762000c1462000cb6565b5b50919050565b62000c268262000d57565b810181811067ffffffffffffffff8211171562000c485762000c4762000d14565b5b80604052505050565b600062000c5e8262000bd1565b915067ffffffffffffffff82141562000c7c5762000c7b62000c87565b5b600182019050919050565b7f4e487b7100000000000000000000000000000000000000000000000000000000600052601160045260246000fd5b7f4e487b7100000000000000000000000000000000000000000000000000000000600052602260045260246000fd5b7f4e487b7100000000000000000000000000000000000000000000000000000000600052603260045260246000fd5b7f4e487b7100000000000000000000000000000000000000000000000000000000600052604160045260246000fd5b600080fd5b600080fd5b600080fd5b600080fd5b6000601f19601f8301169050919050565b7f52657075746174696f6e3a206e756d626572206f662072657075746174696f6e60008201527f20686f6c6465727320646f65736e2774206d61746368206e756d626572206f6660208201527f2072657075746174696f6e20616d6f756e747300000000000000000000000000604082015250565b7f45524332303a206d696e7420746f20746865207a65726f206164647265737300600082015250565b62000e118162000b93565b811462000e1d57600080fd5b50565b62000e2b8162000bc7565b811462000e3757600080fd5b50565b61241f8062000e4a6000396000f3fe608060405234801561001057600080fd5b506004361061010b5760003560e01c806368573107116100a257806395d89b411161007157806395d89b41146102a6578063a457c2d7146102c4578063a9059cbb146102f4578063dd62ed3e14610324578063f2fde38b146103545761010b565b8063685731071461023257806370a082311461024e578063715018a61461027e5780638da5cb5b146102885761010b565b8063313ce567116100de578063313ce567146101ac57806339509351146101ca5780634a6cc677146101fa5780634b9f33c7146102165761010b565b806306fdde0314610110578063095ea7b31461012e57806318160ddd1461015e57806323b872dd1461017c575b600080fd5b610118610370565b6040516101259190611c4d565b60405180910390f35b61014860048036038101906101439190611982565b610402565b6040516101559190611c32565b60405180910390f35b610166610420565b6040516101739190611d8f565b60405180910390f35b6101966004803603810190610191919061192f565b61042a565b6040516101a39190611c32565b60405180910390f35b6101b46104bb565b6040516101c19190611daa565b60405180910390f35b6101e460048036038101906101df9190611982565b6104c4565b6040516101f19190611c32565b60405180910390f35b610214600480360381019061020f91906119c2565b610570565b005b610230600480360381019061022b9190611a3a565b61067e565b005b61024c600480360381019061024791906119c2565b610681565b005b610268600480360381019061026391906118c2565b61078f565b6040516102759190611d8f565b60405180910390f35b6102866107d7565b005b61029061085f565b60405161029d9190611c17565b60405180910390f35b6102ae610889565b6040516102bb9190611c4d565b60405180910390f35b6102de60048036038101906102d99190611982565b61091b565b6040516102eb9190611c32565b60405180910390f35b61030e60048036038101906103099190611982565b610a06565b60405161031b9190611c32565b60405180910390f35b61033e600480360381019061033991906118ef565b610a96565b60405161034b9190611d8f565b60405180910390f35b61036e600480360381019061036991906118c2565b610b1d565b005b60606003805461037f90611f8e565b80601f01602080910402602001604051908101604052809291908181526020018280546103ab90611f8e565b80156103f85780601f106103cd576101008083540402835291602001916103f8565b820191906000526020600020905b8154815290600101906020018083116103db57829003601f168201915b5050505050905090565b600061041661040f610d75565b8484610d7d565b6001905092915050565b6000600254905090565b60006104587f6a329d4de1869b8b58f434ca70e14ac4c53869ca635bb779bea61164986c964d60001b61067e565b6104847f0b4548015d8426edf6cf855bce0278fdd56d29d44fc5de6cc68262b696b99e0c60001b61067e565b6104b07f299c0fbc382c6ca4bfcd6740461a20b3bb8888b8189da3e58145fb14322c84ea60001b61067e565b600090509392505050565b60006012905090565b60006105666104d1610d75565b8484600160006104df610d75565b73ffffffffffffffffffffffffffffffffffffffff1673ffffffffffffffffffffffffffffffffffffffff16815260200190815260200160002060008873ffffffffffffffffffffffffffffffffffffffff1673ffffffffffffffffffffffffffffffffffffffff168152602001908152602001600020546105619190611e5e565b610d7d565b6001905092915050565b610578610d75565b73ffffffffffffffffffffffffffffffffffffffff1661059661085f565b73ffffffffffffffffffffffffffffffffffffffff16146105ec576040517f08c379a00000000000000000000000000000000000000000000000000000000081526004016105e390611ccf565b60405180910390fd5b6106187fb28c65b14e412d7a6024ded52a0d42ebf63962156ca0e7dbd4821614d542b7fa60001b61067e565b6106447fd08b75190d06e1f85d6511ab70c150cbccddf6c0f4eb5382b568feafde066fc960001b61067e565b6106707f6e052ce27b3a502805462b22d57aa163311ce2d9b6e03be8a0ebb3e966cb36cc60001b61067e565b61067a8282610f48565b5050565b50565b610689610d75565b73ffffffffffffffffffffffffffffffffffffffff166106a761085f565b73ffffffffffffffffffffffffffffffffffffffff16146106fd576040517f08c379a00000000000000000000000000000000000000000000000000000000081526004016106f490611ccf565b60405180910390fd5b6107297fcb1f3dab5f36d8ee6cb60f52f9074c2df9b813833094727a991fc7e0b558a6d660001b61067e565b6107557f8036d9fe5214f0afa7d165fbcffd5b3af00e80a42e8d7d9d3f02af46a230ebe960001b61067e565b6107817fe2fc6993f585f32f3b5671391deb5d7d3b12a45d959be4d3c4a653b9469a355560001b61067e565b61078b82826111f4565b5050565b60008060008373ffffffffffffffffffffffffffffffffffffffff1673ffffffffffffffffffffffffffffffffffffffff168152602001908152602001600020549050919050565b6107df610d75565b73ffffffffffffffffffffffffffffffffffffffff166107fd61085f565b73ffffffffffffffffffffffffffffffffffffffff1614610853576040517f08c379a000000000000000000000000000000000000000000000000000000000815260040161084a90611ccf565b60405180910390fd5b61085d60006114a0565b565b6000600560009054906101000a900473ffffffffffffffffffffffffffffffffffffffff16905090565b60606004805461089890611f8e565b80601f01602080910402602001604051908101604052809291908181526020018280546108c490611f8e565b80156109115780601f106108e657610100808354040283529160200191610911565b820191906000526020600020905b8154815290600101906020018083116108f457829003601f168201915b5050505050905090565b6000806001600061092a610d75565b73ffffffffffffffffffffffffffffffffffffffff1673ffffffffffffffffffffffffffffffffffffffff16815260200190815260200160002060008573ffffffffffffffffffffffffffffffffffffffff1673ffffffffffffffffffffffffffffffffffffffff168152602001908152602001600020549050828110156109e7576040517f08c379a00000000000000000000000000000000000000000000000000000000081526004016109de90611d4f565b60405180910390fd5b6109fb6109f2610d75565b85858403610d7d565b600191505092915050565b6000610a347f104a92922cf7a8772de1bf5b00d6ec93b69c0a553cb0528a4dff60868d4ce2a260001b61067e565b610a607f6c8d31445e2a3b4dd840ec5cce6719a308359bc0701198dc6b9b3b689debd0a460001b61067e565b610a8c7f56249d39e281daf9a659968ec580d33236f56168f57cc2817d751f0bd32c713e60001b61067e565b6000905092915050565b6000600160008473ffffffffffffffffffffffffffffffffffffffff1673ffffffffffffffffffffffffffffffffffffffff16815260200190815260200160002060008373ffffffffffffffffffffffffffffffffffffffff1673ffffffffffffffffffffffffffffffffffffffff16815260200190815260200160002054905092915050565b610b25610d75565b73ffffffffffffffffffffffffffffffffffffffff16610b4361085f565b73ffffffffffffffffffffffffffffffffffffffff1614610b99576040517f08c379a0000000000000000000000000000000000000000000000000000000008152600401610b9090611ccf565b60405180910390fd5b600073ffffffffffffffffffffffffffffffffffffffff168173ffffffffffffffffffffffffffffffffffffffff161415610c09576040517f08c379a0000000000000000000000000000000000000000000000000000000008152600401610c0090611c8f565b60405180910390fd5b610c12816114a0565b50565b600073ffffffffffffffffffffffffffffffffffffffff168273ffffffffffffffffffffffffffffffffffffffff161415610c85576040517f08c379a0000000000000000000000000000000000000000000000000000000008152600401610c7c90611d6f565b60405180910390fd5b610c9160008383611566565b8060026000828254610ca39190611e5e565b92505081905550806000808473ffffffffffffffffffffffffffffffffffffffff1673ffffffffffffffffffffffffffffffffffffffff1681526020019081526020016000206000828254610cf89190611e5e565b925050819055508173ffffffffffffffffffffffffffffffffffffffff16600073ffffffffffffffffffffffffffffffffffffffff167fddf252ad1be2c89b69c2b068fc378daa952ba7f163c4a11628f55a4df523b3ef83604051610d5d9190611d8f565b60405180910390a3610d716000838361156b565b5050565b600033905090565b600073ffffffffffffffffffffffffffffffffffffffff168373ffffffffffffffffffffffffffffffffffffffff161415610ded576040517f08c379a0000000000000000000000000000000000000000000000000000000008152600401610de490611d2f565b60405180910390fd5b600073ffffffffffffffffffffffffffffffffffffffff168273ffffffffffffffffffffffffffffffffffffffff161415610e5d576040517f08c379a0000000000000000000000000000000000000000000000000000000008152600401610e5490611caf565b60405180910390fd5b80600160008573ffffffffffffffffffffffffffffffffffffffff1673ffffffffffffffffffffffffffffffffffffffff16815260200190815260200160002060008473ffffffffffffffffffffffffffffffffffffffff1673ffffffffffffffffffffffffffffffffffffffff168152602001908152602001600020819055508173ffffffffffffffffffffffffffffffffffffffff168373ffffffffffffffffffffffffffffffffffffffff167f8c5be1e5ebec7d5bd14f71427d1e84f3dd0314c0f7b2291e5b200ac8c7c3b92583604051610f3b9190611d8f565b60405180910390a3505050565b8181610f767fc75548748ec66061006e13a6715f195b751c60137085cfbaecf85bc7a846db9760001b61067e565b610fa27f88150d28acfeed8c08ca9113b59d8567afc1e8684d4faf39b788d2c56d8b026060001b61067e565b610fce7f9704e1275a911127c3c1a3729c3cd062d2cfb2929f92ca595774e1f8169a64da60001b61067e565b610ffa7fa83d50c616731a6db4cec4509d31c0878e94881ad608cb7b7af7c02d36e83dc360001b61067e565b805182511461103e576040517f08c379a000000000000000000000000000000000000000000000000000000000815260040161103590611d0f565b60405180910390fd5b61106a7f49f91556d48077fbecc98abbbcbc43114a862b729f18dff15243b8363885ac7860001b61067e565b6110967f50e9086535e9450b80202bcb0ae36b50ed00dc7dda68234d3efe5e9aa0946b8460001b61067e565b6110c27f0bf2e8aca7b5d908148273b5e9c1ca84396d2496c366855194ce083b9a712fb260001b61067e565b6110ee7f2f4050e32dfa11955f4a19ed95f7cb3336634a55325db3adc7807c5fe5b6fdc360001b61067e565b61111a7fcaea8f0fa91e67a2f6a92dbaf1d9050dff7d6c30c27481c09257eebce958320d60001b61067e565b60005b83518167ffffffffffffffff1610156111ed5761115c7fc53f13d18a15ff671a9a9befe42db4ef81ec4cbee33a0fb8bb84f9d5ca0be11a60001b61067e565b6111887f62e2a7baca788e8d751bafe84bad4b8d4e1e7b3bb77f33250755bb4267d2caf160001b61067e565b6111da858267ffffffffffffffff16815181106111a8576111a7612080565b5b6020026020010151858367ffffffffffffffff16815181106111cd576111cc612080565b5b6020026020010151611570565b80806111e590611ff1565b91505061111d565b5050505050565b81816112227fc75548748ec66061006e13a6715f195b751c60137085cfbaecf85bc7a846db9760001b61067e565b61124e7f88150d28acfeed8c08ca9113b59d8567afc1e8684d4faf39b788d2c56d8b026060001b61067e565b61127a7f9704e1275a911127c3c1a3729c3cd062d2cfb2929f92ca595774e1f8169a64da60001b61067e565b6112a67fa83d50c616731a6db4cec4509d31c0878e94881ad608cb7b7af7c02d36e83dc360001b61067e565b80518251146112ea576040517f08c379a00000000000000000000000000000000000000000000000000000000081526004016112e190611d0f565b60405180910390fd5b6113167f49f91556d48077fbecc98abbbcbc43114a862b729f18dff15243b8363885ac7860001b61067e565b6113427f50e9086535e9450b80202bcb0ae36b50ed00dc7dda68234d3efe5e9aa0946b8460001b61067e565b61136e7f997fcc116db3d3ba4fa8b48be9052adb3ca221a4ffdf8a5a83419a19590ccddc60001b61067e565b61139a7f5c04c29699141bcb92ea0ddc0fb94a9ea5adcf72e7cb610c0b4a0877d56c63c460001b61067e565b6113c67f4b28c1719c7577814ca5fbcad71ff8ba1dc09e0da2d4cff8d73ac2a9c150632860001b61067e565b60005b83518167ffffffffffffffff161015611499576114087fe68bdfba65a6cc869a0649e207e56191caa166ab192ab11beb8324c18ab6881760001b61067e565b6114347fce5b8b23c3218025221b6c1f98aaee273cbcb9a50f745893b6fb17a79907777060001b61067e565b611486858267ffffffffffffffff168151811061145457611453612080565b5b6020026020010151858367ffffffffffffffff168151811061147957611478612080565b5b6020026020010151610c15565b808061149190611ff1565b9150506113c9565b5050505050565b6000600560009054906101000a900473ffffffffffffffffffffffffffffffffffffffff16905081600560006101000a81548173ffffffffffffffffffffffffffffffffffffffff021916908373ffffffffffffffffffffffffffffffffffffffff1602179055508173ffffffffffffffffffffffffffffffffffffffff168173ffffffffffffffffffffffffffffffffffffffff167f8be0079c531659141344cd1fd0a4f28419497f9722a3daafe3b4186f6b6457e060405160405180910390a35050565b505050565b505050565b600073ffffffffffffffffffffffffffffffffffffffff168273ffffffffffffffffffffffffffffffffffffffff1614156115e0576040517f08c379a00000000000000000000000000000000000000000000000000000000081526004016115d790611cef565b60405180910390fd5b6115ec82600083611566565b60008060008473ffffffffffffffffffffffffffffffffffffffff1673ffffffffffffffffffffffffffffffffffffffff16815260200190815260200160002054905081811015611672576040517f08c379a000000000000000000000000000000000000000000000000000000000815260040161166990611c6f565b60405180910390fd5b8181036000808573ffffffffffffffffffffffffffffffffffffffff1673ffffffffffffffffffffffffffffffffffffffff1681526020019081526020016000208190555081600260008282546116c99190611eb4565b92505081905550600073ffffffffffffffffffffffffffffffffffffffff168373ffffffffffffffffffffffffffffffffffffffff167fddf252ad1be2c89b69c2b068fc378daa952ba7f163c4a11628f55a4df523b3ef8460405161172e9190611d8f565b60405180910390a36117428360008461156b565b505050565b600061175a61175584611dea565b611dc5565b9050808382526020820190508285602086028201111561177d5761177c6120e3565b5b60005b858110156117ad57816117938882611827565b845260208401935060208301925050600181019050611780565b5050509392505050565b60006117ca6117c584611e16565b611dc5565b905080838252602082019050828560208602820111156117ed576117ec6120e3565b5b60005b8581101561181d578161180388826118ad565b8452602084019350602083019250506001810190506117f0565b5050509392505050565b600081359050611836816123a4565b92915050565b600082601f830112611851576118506120de565b5b8135611861848260208601611747565b91505092915050565b600082601f83011261187f5761187e6120de565b5b813561188f8482602086016117b7565b91505092915050565b6000813590506118a7816123bb565b92915050565b6000813590506118bc816123d2565b92915050565b6000602082840312156118d8576118d76120ed565b5b60006118e684828501611827565b91505092915050565b60008060408385031215611906576119056120ed565b5b600061191485828601611827565b925050602061192585828601611827565b9150509250929050565b600080600060608486031215611948576119476120ed565b5b600061195686828701611827565b935050602061196786828701611827565b9250506040611978868287016118ad565b9150509250925092565b60008060408385031215611999576119986120ed565b5b60006119a785828601611827565b92505060206119b8858286016118ad565b9150509250929050565b600080604083850312156119d9576119d86120ed565b5b600083013567ffffffffffffffff8111156119f7576119f66120e8565b5b611a038582860161183c565b925050602083013567ffffffffffffffff811115611a2457611a236120e8565b5b611a308582860161186a565b9150509250929050565b600060208284031215611a5057611a4f6120ed565b5b6000611a5e84828501611898565b91505092915050565b611a7081611ee8565b82525050565b611a7f81611efa565b82525050565b6000611a9082611e42565b611a9a8185611e4d565b9350611aaa818560208601611f5b565b611ab3816120f2565b840191505092915050565b6000611acb602283611e4d565b9150611ad682612103565b604082019050919050565b6000611aee602683611e4d565b9150611af982612152565b604082019050919050565b6000611b11602283611e4d565b9150611b1c826121a1565b604082019050919050565b6000611b34602083611e4d565b9150611b3f826121f0565b602082019050919050565b6000611b57602183611e4d565b9150611b6282612219565b604082019050919050565b6000611b7a605383611e4d565b9150611b8582612268565b606082019050919050565b6000611b9d602483611e4d565b9150611ba8826122dd565b604082019050919050565b6000611bc0602583611e4d565b9150611bcb8261232c565b604082019050919050565b6000611be3601f83611e4d565b9150611bee8261237b565b602082019050919050565b611c0281611f30565b82525050565b611c1181611f4e565b82525050565b6000602082019050611c2c6000830184611a67565b92915050565b6000602082019050611c476000830184611a76565b92915050565b60006020820190508181036000830152611c678184611a85565b905092915050565b60006020820190508181036000830152611c8881611abe565b9050919050565b60006020820190508181036000830152611ca881611ae1565b9050919050565b60006020820190508181036000830152611cc881611b04565b9050919050565b60006020820190508181036000830152611ce881611b27565b9050919050565b60006020820190508181036000830152611d0881611b4a565b9050919050565b60006020820190508181036000830152611d2881611b6d565b9050919050565b60006020820190508181036000830152611d4881611b90565b9050919050565b60006020820190508181036000830152611d6881611bb3565b9050919050565b60006020820190508181036000830152611d8881611bd6565b9050919050565b6000602082019050611da46000830184611bf9565b92915050565b6000602082019050611dbf6000830184611c08565b92915050565b6000611dcf611de0565b9050611ddb8282611fc0565b919050565b6000604051905090565b600067ffffffffffffffff821115611e0557611e046120af565b5b602082029050602081019050919050565b600067ffffffffffffffff821115611e3157611e306120af565b5b602082029050602081019050919050565b600081519050919050565b600082825260208201905092915050565b6000611e6982611f30565b9150611e7483611f30565b9250827fffffffffffffffffffffffffffffffffffffffffffffffffffffffffffffffff03821115611ea957611ea8612022565b5b828201905092915050565b6000611ebf82611f30565b9150611eca83611f30565b925082821015611edd57611edc612022565b5b828203905092915050565b6000611ef382611f10565b9050919050565b60008115159050919050565b6000819050919050565b600073ffffffffffffffffffffffffffffffffffffffff82169050919050565b6000819050919050565b600067ffffffffffffffff82169050919050565b600060ff82169050919050565b60005b83811015611f79578082015181840152602081019050611f5e565b83811115611f88576000848401525b50505050565b60006002820490506001821680611fa657607f821691505b60208210811415611fba57611fb9612051565b5b50919050565b611fc9826120f2565b810181811067ffffffffffffffff82111715611fe857611fe76120af565b5b80604052505050565b6000611ffc82611f3a565b915067ffffffffffffffff82141561201757612016612022565b5b600182019050919050565b7f4e487b7100000000000000000000000000000000000000000000000000000000600052601160045260246000fd5b7f4e487b7100000000000000000000000000000000000000000000000000000000600052602260045260246000fd5b7f4e487b7100000000000000000000000000000000000000000000000000000000600052603260045260246000fd5b7f4e487b7100000000000000000000000000000000000000000000000000000000600052604160045260246000fd5b600080fd5b600080fd5b600080fd5b600080fd5b6000601f19601f8301169050919050565b7f45524332303a206275726e20616d6f756e7420657863656564732062616c616e60008201527f6365000000000000000000000000000000000000000000000000000000000000602082015250565b7f4f776e61626c653a206e6577206f776e657220697320746865207a65726f206160008201527f6464726573730000000000000000000000000000000000000000000000000000602082015250565b7f45524332303a20617070726f766520746f20746865207a65726f20616464726560008201527f7373000000000000000000000000000000000000000000000000000000000000602082015250565b7f4f776e61626c653a2063616c6c6572206973206e6f7420746865206f776e6572600082015250565b7f45524332303a206275726e2066726f6d20746865207a65726f2061646472657360008201527f7300000000000000000000000000000000000000000000000000000000000000602082015250565b7f52657075746174696f6e3a206e756d626572206f662072657075746174696f6e60008201527f20686f6c6465727320646f65736e2774206d61746368206e756d626572206f6660208201527f2072657075746174696f6e20616d6f756e747300000000000000000000000000604082015250565b7f45524332303a20617070726f76652066726f6d20746865207a65726f2061646460008201527f7265737300000000000000000000000000000000000000000000000000000000602082015250565b7f45524332303a2064656372656173656420616c6c6f77616e63652062656c6f7760008201527f207a65726f000000000000000000000000000000000000000000000000000000602082015250565b7f45524332303a206d696e7420746f20746865207a65726f206164647265737300600082015250565b6123ad81611ee8565b81146123b857600080fd5b50565b6123c481611f06565b81146123cf57600080fd5b50565b6123db81611f30565b81146123e657600080fd5b5056fea2646970667358221220bcd57dac92e788cc71ed7cc02b1ee8386867694e60ddda95a718a46de3f5dc1f64736f6c63430008060033",
  "linkReferences": {},
  "deployedLinkReferences": {}
}