{
  "_format": "hh-sol-artifact-1",
  "contractName": "Reputation",
  "sourceName": "contracts/Reputation.sol",
  "abi": [
    {
      "inputs": [
        {
          "internalType": "address[]",
          "name": "repHolders",
          "type": "address[]"
        },
        {
          "internalType": "uint256[]",
          "name": "repAmouts",
          "type": "uint256[]"
        }
      ],
      "stateMutability": "nonpayable",
      "type": "constructor"
    },
    {
      "anonymous": false,
      "inputs": [
        {
          "indexed": true,
          "internalType": "address",
          "name": "owner",
          "type": "address"
        },
        {
          "indexed": true,
          "internalType": "address",
          "name": "spender",
          "type": "address"
        },
        {
          "indexed": false,
          "internalType": "uint256",
          "name": "value",
          "type": "uint256"
        }
      ],
      "name": "Approval",
      "type": "event"
    },
    {
      "anonymous": false,
      "inputs": [
        {
          "indexed": true,
          "internalType": "address",
          "name": "previousOwner",
          "type": "address"
        },
        {
          "indexed": true,
          "internalType": "address",
          "name": "newOwner",
          "type": "address"
        }
      ],
      "name": "OwnershipTransferred",
      "type": "event"
    },
    {
      "anonymous": false,
      "inputs": [
        {
          "indexed": true,
          "internalType": "address",
          "name": "from",
          "type": "address"
        },
        {
          "indexed": true,
          "internalType": "address",
          "name": "to",
          "type": "address"
        },
        {
          "indexed": false,
          "internalType": "uint256",
          "name": "value",
          "type": "uint256"
        }
      ],
      "name": "Transfer",
      "type": "event"
    },
    {
      "inputs": [
        {
          "internalType": "address",
          "name": "owner",
          "type": "address"
        },
        {
          "internalType": "address",
          "name": "spender",
          "type": "address"
        }
      ],
      "name": "allowance",
      "outputs": [
        {
          "internalType": "uint256",
          "name": "",
          "type": "uint256"
        }
      ],
      "stateMutability": "view",
      "type": "function"
    },
    {
      "inputs": [
        {
          "internalType": "address",
          "name": "spender",
          "type": "address"
        },
        {
          "internalType": "uint256",
          "name": "amount",
          "type": "uint256"
        }
      ],
      "name": "approve",
      "outputs": [
        {
          "internalType": "bool",
          "name": "",
          "type": "bool"
        }
      ],
      "stateMutability": "nonpayable",
      "type": "function"
    },
    {
      "inputs": [
        {
          "internalType": "address",
          "name": "account",
          "type": "address"
        }
      ],
      "name": "balanceOf",
      "outputs": [
        {
          "internalType": "uint256",
          "name": "",
          "type": "uint256"
        }
      ],
      "stateMutability": "view",
      "type": "function"
    },
    {
      "inputs": [
        {
          "internalType": "address[]",
          "name": "_repRecipients",
          "type": "address[]"
        },
        {
          "internalType": "uint256[]",
          "name": "_repAmounts",
          "type": "uint256[]"
        }
      ],
      "name": "batchMint",
      "outputs": [],
      "stateMutability": "nonpayable",
      "type": "function"
    },
    {
      "inputs": [],
      "name": "decimals",
      "outputs": [
        {
          "internalType": "uint8",
          "name": "",
          "type": "uint8"
        }
      ],
      "stateMutability": "view",
      "type": "function"
    },
    {
      "inputs": [
        {
          "internalType": "address",
          "name": "spender",
          "type": "address"
        },
        {
          "internalType": "uint256",
          "name": "subtractedValue",
          "type": "uint256"
        }
      ],
      "name": "decreaseAllowance",
      "outputs": [
        {
          "internalType": "bool",
          "name": "",
          "type": "bool"
        }
      ],
      "stateMutability": "nonpayable",
      "type": "function"
    },
    {
      "inputs": [
        {
          "internalType": "address",
          "name": "spender",
          "type": "address"
        },
        {
          "internalType": "uint256",
          "name": "addedValue",
          "type": "uint256"
        }
      ],
      "name": "increaseAllowance",
      "outputs": [
        {
          "internalType": "bool",
          "name": "",
          "type": "bool"
        }
      ],
      "stateMutability": "nonpayable",
      "type": "function"
    },
    {
      "inputs": [],
      "name": "name",
      "outputs": [
        {
          "internalType": "string",
          "name": "",
          "type": "string"
        }
      ],
      "stateMutability": "view",
      "type": "function"
    },
    {
      "inputs": [],
      "name": "owner",
      "outputs": [
        {
          "internalType": "address",
          "name": "",
          "type": "address"
        }
      ],
      "stateMutability": "view",
      "type": "function"
    },
    {
      "inputs": [],
      "name": "renounceOwnership",
      "outputs": [],
      "stateMutability": "nonpayable",
      "type": "function"
    },
    {
      "inputs": [],
      "name": "symbol",
      "outputs": [
        {
          "internalType": "string",
          "name": "",
          "type": "string"
        }
      ],
      "stateMutability": "view",
      "type": "function"
    },
    {
      "inputs": [],
      "name": "totalSupply",
      "outputs": [
        {
          "internalType": "uint256",
          "name": "",
          "type": "uint256"
        }
      ],
      "stateMutability": "view",
      "type": "function"
    },
    {
      "inputs": [
        {
          "internalType": "address",
          "name": "recipient",
          "type": "address"
        },
        {
          "internalType": "uint256",
          "name": "amount",
          "type": "uint256"
        }
      ],
      "name": "transfer",
      "outputs": [
        {
          "internalType": "bool",
          "name": "",
          "type": "bool"
        }
      ],
      "stateMutability": "pure",
      "type": "function"
    },
    {
      "inputs": [
        {
          "internalType": "address",
          "name": "sender",
          "type": "address"
        },
        {
          "internalType": "address",
          "name": "recipient",
          "type": "address"
        },
        {
          "internalType": "uint256",
          "name": "amount",
          "type": "uint256"
        }
      ],
      "name": "transferFrom",
      "outputs": [
        {
          "internalType": "bool",
          "name": "",
          "type": "bool"
        }
      ],
      "stateMutability": "pure",
      "type": "function"
    },
    {
      "inputs": [
        {
          "internalType": "address",
          "name": "newOwner",
          "type": "address"
        }
      ],
      "name": "transferOwnership",
      "outputs": [],
      "stateMutability": "nonpayable",
      "type": "function"
    }
  ],
  "bytecode": "0x60806040523480156200001157600080fd5b506040516200115e3803806200115e833981016040819052620000349162000464565b6040518060400160405280601381526020017f5072696d6544414f2052657075746174696f6e000000000000000000000000008152506040518060400160405280600381526020016205245560ec1b81525081600390805190602001906200009e92919062000344565b508051620000b490600490602084019062000344565b505050620000d1620000cb6200020960201b60201c565b6200020d565b8151815114620001745760405162461bcd60e51b815260206004820152605360248201527f52657075746174696f6e3a206e756d626572206f662072657075746174696f6e60448201527f20686f6c6465727320646f65736e2774206d61746368206e756d626572206f6660648201527f2072657075746174696f6e20616d6f756e747300000000000000000000000000608482015260a4015b60405180910390fd5b60005b8151816001600160401b031610156200020057620001eb83826001600160401b031681518110620001ac57620001ac62000639565b602002602001015183836001600160401b031681518110620001d257620001d262000639565b60200260200101516200025f60201b620004f81760201c565b80620001f781620005f9565b91505062000177565b50505062000665565b3390565b600580546001600160a01b038381166001600160a01b0319831681179093556040519116919082907f8be0079c531659141344cd1fd0a4f28419497f9722a3daafe3b4186f6b6457e090600090a35050565b6001600160a01b038216620002b75760405162461bcd60e51b815260206004820152601f60248201527f45524332303a206d696e7420746f20746865207a65726f20616464726573730060448201526064016200016b565b8060026000828254620002cb9190620005a1565b90915550506001600160a01b03821660009081526020819052604081208054839290620002fa908490620005a1565b90915550506040518181526001600160a01b038316906000907fddf252ad1be2c89b69c2b068fc378daa952ba7f163c4a11628f55a4df523b3ef9060200160405180910390a35050565b8280546200035290620005bc565b90600052602060002090601f016020900481019282620003765760008555620003c1565b82601f106200039157805160ff1916838001178555620003c1565b82800160010185558215620003c1579182015b82811115620003c1578251825591602001919060010190620003a4565b50620003cf929150620003d3565b5090565b5b80821115620003cf5760008155600101620003d4565b600082601f830112620003fc57600080fd5b81516020620004156200040f836200057b565b62000548565b80838252828201915082860187848660051b89010111156200043657600080fd5b60005b85811015620004575781518452928401929084019060010162000439565b5090979650505050505050565b600080604083850312156200047857600080fd5b82516001600160401b03808211156200049057600080fd5b818501915085601f830112620004a557600080fd5b81516020620004b86200040f836200057b565b8083825282820191508286018a848660051b8901011115620004d957600080fd5b600096505b84871015620005145780516001600160a01b0381168114620004ff57600080fd5b835260019690960195918301918301620004de565b50918801519196509093505050808211156200052f57600080fd5b506200053e85828601620003ea565b9150509250929050565b604051601f8201601f191681016001600160401b03811182821017156200057357620005736200064f565b604052919050565b60006001600160401b038211156200059757620005976200064f565b5060051b60200190565b60008219821115620005b757620005b762000623565b500190565b600181811c90821680620005d157607f821691505b60208210811415620005f357634e487b7160e01b600052602260045260246000fd5b50919050565b60006001600160401b038281168082141562000619576200061962000623565b6001019392505050565b634e487b7160e01b600052601160045260246000fd5b634e487b7160e01b600052603260045260246000fd5b634e487b7160e01b600052604160045260246000fd5b610ae980620006756000396000f3fe608060405234801561001057600080fd5b50600436106100f55760003560e01c806370a0823111610097578063a457c2d711610066578063a457c2d7146101ef578063a9059cbb14610202578063dd62ed3e14610218578063f2fde38b1461025157600080fd5b806370a082311461019b578063715018a6146101c45780638da5cb5b146101cc57806395d89b41146101e757600080fd5b806323b872dd116100d357806323b872dd1461014d578063313ce567146101645780633950935114610173578063685731071461018657600080fd5b806306fdde03146100fa578063095ea7b31461011857806318160ddd1461013b575b600080fd5b610102610264565b60405161010f919061095d565b60405180910390f35b61012b61012636600461086c565b6102f6565b604051901515815260200161010f565b6002545b60405190815260200161010f565b61012b61015b366004610830565b60009392505050565b6040516012815260200161010f565b61012b61018136600461086c565b61030c565b610199610194366004610896565b610348565b005b61013f6101a93660046107db565b6001600160a01b031660009081526020819052604090205490565b61019961037f565b6005546040516001600160a01b03909116815260200161010f565b6101026103b5565b61012b6101fd36600461086c565b6103c4565b61012b61021036600461086c565b600092915050565b61013f6102263660046107fd565b6001600160a01b03918216600090815260016020908152604080832093909416825291909152205490565b61019961025f3660046107db565b61045d565b60606003805461027390610a62565b80601f016020809104026020016040519081016040528092919081815260200182805461029f90610a62565b80156102ec5780601f106102c1576101008083540402835291602001916102ec565b820191906000526020600020905b8154815290600101906020018083116102cf57829003601f168201915b5050505050905090565b60006103033384846105d7565b50600192915050565b3360008181526001602090815260408083206001600160a01b03871684529091528120549091610303918590610343908690610a3c565b6105d7565b6005546001600160a01b0316331461037b5760405162461bcd60e51b8152600401610372906109b2565b60405180910390fd5b5050565b6005546001600160a01b031633146103a95760405162461bcd60e51b8152600401610372906109b2565b6103b360006106fb565b565b60606004805461027390610a62565b3360009081526001602090815260408083206001600160a01b0386168452909152812054828110156104465760405162461bcd60e51b815260206004820152602560248201527f45524332303a2064656372656173656420616c6c6f77616e63652062656c6f77604482015264207a65726f60d81b6064820152608401610372565b61045333858584036105d7565b5060019392505050565b6005546001600160a01b031633146104875760405162461bcd60e51b8152600401610372906109b2565b6001600160a01b0381166104ec5760405162461bcd60e51b815260206004820152602660248201527f4f776e61626c653a206e6577206f776e657220697320746865207a65726f206160448201526564647265737360d01b6064820152608401610372565b6104f5816106fb565b50565b6001600160a01b03821661054e5760405162461bcd60e51b815260206004820152601f60248201527f45524332303a206d696e7420746f20746865207a65726f2061646472657373006044820152606401610372565b80600260008282546105609190610a3c565b90915550506001600160a01b0382166000908152602081905260408120805483929061058d908490610a3c565b90915550506040518181526001600160a01b038316906000907fddf252ad1be2c89b69c2b068fc378daa952ba7f163c4a11628f55a4df523b3ef9060200160405180910390a35050565b6001600160a01b0383166106395760405162461bcd60e51b8152602060048201526024808201527f45524332303a20617070726f76652066726f6d20746865207a65726f206164646044820152637265737360e01b6064820152608401610372565b6001600160a01b03821661069a5760405162461bcd60e51b815260206004820152602260248201527f45524332303a20617070726f766520746f20746865207a65726f206164647265604482015261737360f01b6064820152608401610372565b6001600160a01b0383811660008181526001602090815260408083209487168084529482529182902085905590518481527f8c5be1e5ebec7d5bd14f71427d1e84f3dd0314c0f7b2291e5b200ac8c7c3b925910160405180910390a3505050565b600580546001600160a01b038381166001600160a01b0319831681179093556040519116919082907f8be0079c531659141344cd1fd0a4f28419497f9722a3daafe3b4186f6b6457e090600090a35050565b80356001600160a01b038116811461076457600080fd5b919050565b600082601f83011261077a57600080fd5b8135602061078f61078a83610a18565b6109e7565b80838252828201915082860187848660051b89010111156107af57600080fd5b60005b858110156107ce578135845292840192908401906001016107b2565b5090979650505050505050565b6000602082840312156107ed57600080fd5b6107f68261074d565b9392505050565b6000806040838503121561081057600080fd5b6108198361074d565b91506108276020840161074d565b90509250929050565b60008060006060848603121561084557600080fd5b61084e8461074d565b925061085c6020850161074d565b9150604084013590509250925092565b6000806040838503121561087f57600080fd5b6108888361074d565b946020939093013593505050565b600080604083850312156108a957600080fd5b823567ffffffffffffffff808211156108c157600080fd5b818501915085601f8301126108d557600080fd5b813560206108e561078a83610a18565b8083825282820191508286018a848660051b890101111561090557600080fd5b600096505b8487101561092f5761091b8161074d565b83526001969096019591830191830161090a565b509650508601359250508082111561094657600080fd5b5061095385828601610769565b9150509250929050565b600060208083528351808285015260005b8181101561098a5785810183015185820160400152820161096e565b8181111561099c576000604083870101525b50601f01601f1916929092016040019392505050565b6020808252818101527f4f776e61626c653a2063616c6c6572206973206e6f7420746865206f776e6572604082015260600190565b604051601f8201601f1916810167ffffffffffffffff81118282101715610a1057610a10610a9d565b604052919050565b600067ffffffffffffffff821115610a3257610a32610a9d565b5060051b60200190565b60008219821115610a5d57634e487b7160e01b600052601160045260246000fd5b500190565b600181811c90821680610a7657607f821691505b60208210811415610a9757634e487b7160e01b600052602260045260246000fd5b50919050565b634e487b7160e01b600052604160045260246000fdfea2646970667358221220980ef08b0f59f2f236f4d56dd81dd1e1afffa9ce19815898433971dc286cd71464736f6c63430008060033",
  "linkReferences": {},
  "deployedLinkReferences": {}
}