{
  "address": "0xFD63798FdbC9e94eb0b7F997528702fc8972ABB1",
  "abi": [
    {
      "anonymous": false,
      "inputs": [
        {
          "indexed": true,
          "internalType": "address",
          "name": "beneficiary",
          "type": "address"
        },
        {
          "indexed": false,
          "internalType": "address",
          "name": "tokenAddress",
          "type": "address"
        },
        {
          "indexed": false,
          "internalType": "uint256",
          "name": "amount",
          "type": "uint256"
        }
      ],
      "name": "FeeTransferred",
      "type": "event"
    },
    {
      "anonymous": false,
      "inputs": [
        {
          "indexed": true,
          "internalType": "address",
          "name": "oldAdmin",
          "type": "address"
        },
        {
          "indexed": true,
          "internalType": "address",
          "name": "newAdmin",
          "type": "address"
        }
      ],
      "name": "LBPManagerAdminChanged",
      "type": "event"
    },
    {
      "anonymous": false,
      "inputs": [
        {
          "indexed": true,
          "internalType": "bytes",
          "name": "metadata",
          "type": "bytes"
        }
      ],
      "name": "MetadataUpdated",
      "type": "event"
    },
    {
      "anonymous": false,
      "inputs": [
        {
          "indexed": true,
          "internalType": "address",
          "name": "LbpAddress",
          "type": "address"
        },
        {
          "indexed": false,
          "internalType": "uint256",
          "name": "amount",
          "type": "uint256"
        }
      ],
      "name": "PoolTokensWithdrawn",
      "type": "event"
    },
    {
      "inputs": [],
      "name": "LBPFactory",
      "outputs": [
        {
          "internalType": "address",
          "name": "",
          "type": "address"
        }
      ],
      "stateMutability": "view",
      "type": "function"
    },
    {
      "inputs": [],
      "name": "admin",
      "outputs": [
        {
          "internalType": "address",
          "name": "",
          "type": "address"
        }
      ],
      "stateMutability": "view",
      "type": "function"
    },
    {
      "inputs": [
        {
          "internalType": "uint256",
          "name": "",
          "type": "uint256"
        }
      ],
      "name": "amounts",
      "outputs": [
        {
          "internalType": "uint256",
          "name": "",
          "type": "uint256"
        }
      ],
      "stateMutability": "view",
      "type": "function"
    },
    {
      "inputs": [],
      "name": "beneficiary",
      "outputs": [
        {
          "internalType": "address",
          "name": "",
          "type": "address"
        }
      ],
      "stateMutability": "view",
      "type": "function"
    },
    {
      "inputs": [
        {
          "internalType": "uint256",
          "name": "",
          "type": "uint256"
        }
      ],
      "name": "endWeights",
      "outputs": [
        {
          "internalType": "uint256",
          "name": "",
          "type": "uint256"
        }
      ],
      "stateMutability": "view",
      "type": "function"
    },
    {
      "inputs": [],
      "name": "feePercentage",
      "outputs": [
        {
          "internalType": "uint256",
          "name": "",
          "type": "uint256"
        }
      ],
      "stateMutability": "view",
      "type": "function"
    },
    {
      "inputs": [
        {
          "internalType": "address",
          "name": "_sender",
          "type": "address"
        }
      ],
      "name": "initializeLBP",
      "outputs": [],
      "stateMutability": "nonpayable",
      "type": "function"
    },
    {
      "inputs": [
        {
          "internalType": "address",
          "name": "_LBPFactory",
          "type": "address"
        },
        {
          "internalType": "address",
          "name": "_beneficiary",
          "type": "address"
        },
        {
          "internalType": "string",
          "name": "_name",
          "type": "string"
        },
        {
          "internalType": "string",
          "name": "_symbol",
          "type": "string"
        },
        {
          "internalType": "contract IERC20[]",
          "name": "_tokenList",
          "type": "address[]"
        },
        {
          "internalType": "uint256[]",
          "name": "_amounts",
          "type": "uint256[]"
        },
        {
          "internalType": "uint256[]",
          "name": "_startWeights",
          "type": "uint256[]"
        },
        {
          "internalType": "uint256[]",
          "name": "_startTimeEndTime",
          "type": "uint256[]"
        },
        {
          "internalType": "uint256[]",
          "name": "_endWeights",
          "type": "uint256[]"
        },
        {
          "internalType": "uint256[]",
          "name": "_fees",
          "type": "uint256[]"
        },
        {
          "internalType": "bytes",
          "name": "_metadata",
          "type": "bytes"
        }
      ],
      "name": "initializeLBPManager",
      "outputs": [],
      "stateMutability": "nonpayable",
      "type": "function"
    },
    {
      "inputs": [],
      "name": "initialized",
      "outputs": [
        {
          "internalType": "bool",
          "name": "",
          "type": "bool"
        }
      ],
      "stateMutability": "view",
      "type": "function"
    },
    {
      "inputs": [],
      "name": "lbp",
      "outputs": [
        {
          "internalType": "contract ILBP",
          "name": "",
          "type": "address"
        }
      ],
      "stateMutability": "view",
      "type": "function"
    },
    {
      "inputs": [],
      "name": "metadata",
      "outputs": [
        {
          "internalType": "bytes",
          "name": "",
          "type": "bytes"
        }
      ],
      "stateMutability": "view",
      "type": "function"
    },
    {
      "inputs": [],
      "name": "name",
      "outputs": [
        {
          "internalType": "string",
          "name": "",
          "type": "string"
        }
      ],
      "stateMutability": "view",
      "type": "function"
    },
    {
      "inputs": [],
      "name": "poolFunded",
      "outputs": [
        {
          "internalType": "bool",
          "name": "",
          "type": "bool"
        }
      ],
      "stateMutability": "view",
      "type": "function"
    },
    {
      "inputs": [],
      "name": "projectTokenIndex",
      "outputs": [
        {
          "internalType": "uint8",
          "name": "",
          "type": "uint8"
        }
      ],
      "stateMutability": "view",
      "type": "function"
    },
    {
      "inputs": [],
      "name": "projectTokensRequired",
      "outputs": [
        {
          "internalType": "uint256",
          "name": "projectTokenAmounts",
          "type": "uint256"
        }
      ],
      "stateMutability": "view",
      "type": "function"
    },
    {
      "inputs": [
        {
          "internalType": "address payable",
          "name": "_receiver",
          "type": "address"
        }
      ],
      "name": "removeLiquidity",
      "outputs": [],
      "stateMutability": "nonpayable",
      "type": "function"
    },
    {
      "inputs": [
        {
          "internalType": "bool",
          "name": "_swapEnabled",
          "type": "bool"
        }
      ],
      "name": "setSwapEnabled",
      "outputs": [],
      "stateMutability": "nonpayable",
      "type": "function"
    },
    {
      "inputs": [
        {
          "internalType": "uint256",
          "name": "",
          "type": "uint256"
        }
      ],
      "name": "startTimeEndTime",
      "outputs": [
        {
          "internalType": "uint256",
          "name": "",
          "type": "uint256"
        }
      ],
      "stateMutability": "view",
      "type": "function"
    },
    {
      "inputs": [
        {
          "internalType": "uint256",
          "name": "",
          "type": "uint256"
        }
      ],
      "name": "startWeights",
      "outputs": [
        {
          "internalType": "uint256",
          "name": "",
          "type": "uint256"
        }
      ],
      "stateMutability": "view",
      "type": "function"
    },
    {
      "inputs": [],
      "name": "swapFeePercentage",
      "outputs": [
        {
          "internalType": "uint256",
          "name": "",
          "type": "uint256"
        }
      ],
      "stateMutability": "view",
      "type": "function"
    },
    {
      "inputs": [],
      "name": "symbol",
      "outputs": [
        {
          "internalType": "string",
          "name": "",
          "type": "string"
        }
      ],
      "stateMutability": "view",
      "type": "function"
    },
    {
      "inputs": [
        {
          "internalType": "uint256",
          "name": "",
          "type": "uint256"
        }
      ],
      "name": "tokenList",
      "outputs": [
        {
          "internalType": "contract IERC20",
          "name": "",
          "type": "address"
        }
      ],
      "stateMutability": "view",
      "type": "function"
    },
    {
      "inputs": [
        {
          "internalType": "address",
          "name": "_newAdmin",
          "type": "address"
        }
      ],
      "name": "transferAdminRights",
      "outputs": [],
      "stateMutability": "nonpayable",
      "type": "function"
    },
    {
      "inputs": [
        {
          "internalType": "bytes",
          "name": "_metadata",
          "type": "bytes"
        }
      ],
      "name": "updateMetadata",
      "outputs": [],
      "stateMutability": "nonpayable",
      "type": "function"
    },
    {
      "inputs": [
        {
          "internalType": "address",
          "name": "_receiver",
          "type": "address"
        }
      ],
      "name": "withdrawPoolTokens",
      "outputs": [],
      "stateMutability": "nonpayable",
      "type": "function"
    }
  ],
  "transactionHash": "0x225b6da11d0790ba531af50e4ff8095da747713e1eeff6986c6a1929699e0733",
  "args": [],
  "solcInputHash": "75934f98340be26bc8cb6df5ff010cd2",
  "bytecode": "0x608060405234801561001057600080fd5b50612865806100206000396000f3fe608060405234801561001057600080fd5b50600436106101735760003560e01c80639ead7222116100de578063c9d8616f11610097578063d798f86e11610071578063d798f86e14610328578063e01af92c1461033b578063f851a4401461034e578063fc582d411461036157600080fd5b8063c9d8616f146102e3578063cb209b6c146102f6578063cd2055e51461031557600080fd5b80639ead722214610284578063a001ecdd14610297578063a4ac0d49146102a0578063a88971fa146102a9578063b5106add146102bd578063bb7bfb0c146102d057600080fd5b8063392f37e911610130578063392f37e9146102265780633facbb851461022e57806345f0a44f146102435780638638fe31146102565780638bfd52891461026957806395d89b411461027c57600080fd5b806306fdde0314610178578063092f7de714610196578063158ef93e146101c157806331d8f1be146101e55780633281f3ec146101fd57806338af3eed14610213575b600080fd5b610180610374565b60405161018d9190611fb1565b60405180910390f35b600b546101a9906001600160a01b031681565b6040516001600160a01b03909116815260200161018d565b600d546101d590600160b01b900460ff1681565b604051901515815260200161018d565b600d546101a99061010090046001600160a01b031681565b610205610402565b60405190815260200161018d565b6003546101a9906001600160a01b031681565b610180610441565b61024161023c366004611ff3565b61044e565b005b610205610251366004612010565b6107cb565b6102416102643660046121d3565b6107ec565b610241610277366004611ff3565b610f14565b6101806116fe565b6101a9610292366004612010565b61170b565b61020560045481565b61020560055481565b600d546101d590600160a81b900460ff1681565b6102416102cb366004611ff3565b611735565b6102056102de366004612010565b611811565b6102056102f1366004612010565b611821565b600d546103039060ff1681565b60405160ff909116815260200161018d565b610205610323366004612010565b611831565b610241610336366004611ff3565b611841565b610241610349366004612377565b611cd5565b6002546101a9906001600160a01b031681565b61024161036f366004612394565b611d61565b60018054610381906123d1565b80601f01602080910402602001604051908101604052809291908181526020018280546103ad906123d1565b80156103fa5780601f106103cf576101008083540402835291602001916103fa565b820191906000526020600020905b8154815290600101906020018083116103dd57829003601f168201915b505050505081565b600061040c611de0565b600d5460078054909160ff169081106104275761042761240c565b906000526020600020015461043c9190612438565b905090565b600c8054610381906123d1565b6002546001600160a01b031633146104815760405162461bcd60e51b815260040161047890612450565b60405180910390fd5b6001600160a01b0381166104d75760405162461bcd60e51b815260206004820152601c60248201527f4c42504d616e616765723a207265636569766572206973207a65726f000000006044820152606401610478565b6000600a6001815481106104ed576104ed61240c565b906000526020600020015490508042101561054a5760405162461bcd60e51b815260206004820152601f60248201527f4c42504d616e616765723a20656e6474696d65206e6f742072656163686564006044820152606401610478565b600b546040516370a0823160e01b81523060048201526000916001600160a01b0316906370a082319060240160206040518083038186803b15801561058e57600080fd5b505afa1580156105a2573d6000803e3d6000fd5b505050506040513d601f19601f820116820180604052508101906105c69190612487565b116106135760405162461bcd60e51b815260206004820181905260248201527f4c42504d616e616765723a206e6f2042505420746f6b656e2062616c616e63656044820152606401610478565b600b546040516370a0823160e01b81523060048201526001600160a01b03909116907fd0b72dd3c0f971f9cf266fee8e4c7660231316a67c88a587fa8dfa398c9e13749082906370a082319060240160206040518083038186803b15801561067a57600080fd5b505afa15801561068e573d6000803e3d6000fd5b505050506040513d601f19601f820116820180604052508101906106b29190612487565b60405190815260200160405180910390a2600b546040516370a0823160e01b81523060048201526001600160a01b039091169063a9059cbb90849083906370a082319060240160206040518083038186803b15801561071057600080fd5b505afa158015610724573d6000803e3d6000fd5b505050506040513d601f19601f820116820180604052508101906107489190612487565b6040516001600160e01b031960e085901b1681526001600160a01b0390921660048301526024820152604401602060405180830381600087803b15801561078e57600080fd5b505af11580156107a2573d6000803e3d6000fd5b505050506040513d601f19601f820116820180604052508101906107c691906124a0565b505050565b600781815481106107db57600080fd5b600091825260209091200154905081565b600d54600160b01b900460ff16156108465760405162461bcd60e51b815260206004820152601f60248201527f4c42504d616e616765723a20616c726561647920696e697469616c697a6564006044820152606401610478565b6001600160a01b038a1661089c5760405162461bcd60e51b815260206004820181905260248201527f4c42504d616e616765723a205f62656e6566696369617279206973207a65726f6044820152606401610478565b64e8d4a51000826000815181106108b5576108b561240c565b602002602001015110156109175760405162461bcd60e51b8152602060048201526024808201527f4c42504d616e616765723a207377617046656550657263656e7461676520746f604482015263206c6f7760e01b6064820152608401610478565b67016345785d8a0000826000815181106109335761093361240c565b602002602001015111156109975760405162461bcd60e51b815260206004820152602560248201527f4c42504d616e616765723a207377617046656550657263656e7461676520746f604482015264040d0d2ced60db1b6064820152608401610478565b865160021480156109a9575085516002145b80156109b6575084516002145b80156109c3575083516002145b80156109d0575082516002145b80156109dd575081516002145b610a345760405162461bcd60e51b815260206004820152602260248201527f4c42504d616e616765723a2061727261797320776974682077726f6e672073696044820152617a6560f01b6064820152608401610478565b86600181518110610a4757610a4761240c565b60200260200101516001600160a01b031687600081518110610a6b57610a6b61240c565b60200260200101516001600160a01b03161415610ad95760405162461bcd60e51b815260206004820152602660248201527f4c42504d616e616765723a20626f746820746f6b656e732063616e6e6f742062604482015265652073616d6560d01b6064820152608401610478565b83600181518110610aec57610aec61240c565b602002602001015184600081518110610b0757610b0761240c565b602002602001015110610b715760405162461bcd60e51b815260206004820152602c60248201527f4c42504d616e616765723a2073746172742074696d652067726561746572207460448201526b68616e20656e642074696d6560a01b6064820152608401610478565b600d805460ff60b01b1916600160b01b179055600280546001600160a01b0319163317905581518290600090610ba957610ba961240c565b602002602001015160058190555081600181518110610bca57610bca61240c565b602090810291909101810151600455600380546001600160a01b0319166001600160a01b038d161790558151610c0691600c9190840190611e2d565b508351610c1a90600a906020870190611eb1565b508851610c2e9060019060208c0190611e2d565b508751610c429060009060208b0190611e2d565b50600d8054610100600160a81b0319166101006001600160a01b038e1602179055865187906001908110610c7857610c7861240c565b60200260200101516001600160a01b031687600081518110610c9c57610c9c61240c565b60200260200101516001600160a01b03161115610eac57600d805460ff19166001908117909155875160069189918110610cd857610cd861240c565b6020908102919091018101518254600181018455600093845291832090910180546001600160a01b0319166001600160a01b0390921691909117905587516006918991610d2757610d2761240c565b60209081029190910181015182546001808201855560009485529290932090920180546001600160a01b0319166001600160a01b0390931692909217909155865160079188918110610d7b57610d7b61240c565b602090810291909101810151825460018101845560009384529183209091015586516007918891610dae57610dae61240c565b60209081029190910181015182546001818101855560009485529290932090920191909155855160089187918110610de857610de861240c565b602090810291909101810151825460018101845560009384529183209091015585516008918791610e1b57610e1b61240c565b60209081029190910181015182546001818101855560009485529290932090920191909155835160099185918110610e5557610e5561240c565b602090810291909101810151825460018101845560009384529183209091015583516009918591610e8857610e8861240c565b60209081029190910181015182546001810184556000938452919092200155610f07565b600d805460ff191690558651610ec99060069060208a0190611eeb565b508551610edd906007906020890190611eb1565b508451610ef1906008906020880190611eb1565b508251610f05906009906020860190611eb1565b505b5050505050505050505050565b6002546001600160a01b03163314610f3e5760405162461bcd60e51b815260040161047890612450565b600d54600160b01b900460ff161515600114610fae5760405162461bcd60e51b815260206004820152602960248201527f4c42504d616e616765723a204c42504d616e6167657220696e206e6f7420696e6044820152681a5d1a585b1a5e995960ba1b6064820152608401610478565b600d54600160a81b900460ff16156110085760405162461bcd60e51b815260206004820152601f60248201527f4c42504d616e616765723a20706f6f6c20616c72656164792066756e646564006044820152606401610478565b600d8054600160a81b60ff60a81b199091161790819055600554604051632367971960e01b81526101009092046001600160a01b031691632367971991611061916001916000916006916008913090869060040161259d565b602060405180830381600087803b15801561107b57600080fd5b505af115801561108f573d6000803e3d6000fd5b505050506040513d601f19601f820116820180604052508101906110b3919061264e565b600b80546001600160a01b0319166001600160a01b03929092169182179055600a8054633e56920591906000906110ec576110ec61240c565b9060005260206000200154600a60018154811061110b5761110b61240c565b906000526020600020015460096040518463ffffffff1660e01b81526004016111369392919061266b565b600060405180830381600087803b15801561115057600080fd5b505af1158015611164573d6000803e3d6000fd5b505050506000600b60009054906101000a90046001600160a01b03166001600160a01b0316638d928af86040518163ffffffff1660e01b815260040160206040518083038186803b1580156111b857600080fd5b505afa1580156111cc573d6000803e3d6000fd5b505050506040513d601f19601f820116820180604052508101906111f0919061264e565b9050600454600014611338576000611206611de0565b600d54600680549293509160ff9091169081106112255761122561240c565b6000918252602090912001546003546040516323b872dd60e01b81526001600160a01b0386811660048301529182166024820152604481018490529116906323b872dd90606401602060405180830381600087803b15801561128657600080fd5b505af115801561129a573d6000803e3d6000fd5b505050506040513d601f19601f820116820180604052508101906112be91906124a0565b50600354600d54600680546001600160a01b03909316927f1d6298f49fc15449b78df91fcca6812136edc2972366cb70aa0d9145a308cd319260ff169081106113095761130961240c565b60009182526020918290200154604080516001600160a01b0390921682529181018590520160405180910390a2505b60005b60065460ff821610156115205760068160ff168154811061135e5761135e61240c565b9060005260206000200160009054906101000a90046001600160a01b03166001600160a01b03166323b872dd843060078560ff16815481106113a2576113a261240c565b6000918252602090912001546040516001600160e01b031960e086901b1681526001600160a01b0393841660048201529290911660248301526044820152606401602060405180830381600087803b1580156113fd57600080fd5b505af1158015611411573d6000803e3d6000fd5b505050506040513d601f19601f8201168201806040525081019061143591906124a0565b5060068160ff168154811061144c5761144c61240c565b600091825260209091200154600780546001600160a01b039092169163095ea7b391859160ff86169081106114835761148361240c565b6000918252602090912001546040516001600160e01b031960e085901b1681526001600160a01b0390921660048301526024820152604401602060405180830381600087803b1580156114d557600080fd5b505af11580156114e9573d6000803e3d6000fd5b505050506040513d601f19601f8201168201806040525081019061150d91906124a0565b508061151881612693565b91505061133b565b50604080516006805460a0602082028401810190945260808301818152600094849391929084018282801561157e57602002820191906000526020600020905b81546001600160a01b03168152600190910190602001808311611560575b5050505050815260200160078054806020026020016040519081016040528092919081815260200182805480156115d457602002820191906000526020600020905b8154815260200190600101908083116115c0575b50505050508152602001600060076040516020016115f39291906126b3565b6040516020818303038152906040528152602001600015158152509050816001600160a01b031663b95cac28600b60009054906101000a90046001600160a01b03166001600160a01b03166338fff2d06040518163ffffffff1660e01b815260040160206040518083038186803b15801561166d57600080fd5b505afa158015611681573d6000803e3d6000fd5b505050506040513d601f19601f820116820180604052508101906116a59190612487565b3030856040518563ffffffff1660e01b81526004016116c79493929190612796565b600060405180830381600087803b1580156116e157600080fd5b505af11580156116f5573d6000803e3d6000fd5b50505050505050565b60008054610381906123d1565b6006818154811061171b57600080fd5b6000918252602090912001546001600160a01b0316905081565b6002546001600160a01b0316331461175f5760405162461bcd60e51b815260040161047890612450565b6001600160a01b0381166117b55760405162461bcd60e51b815260206004820152601d60248201527f4c42504d616e616765723a206e65772061646d696e206973207a65726f0000006044820152606401610478565b6002546040516001600160a01b038084169216907f39324b4c6f0dfe086be64dee1dd0fff15f9055828415513052c73d8e178c75f590600090a3600280546001600160a01b0319166001600160a01b0392909216919091179055565b600881815481106107db57600080fd5b600981815481106107db57600080fd5b600a81815481106107db57600080fd5b6002546001600160a01b0316331461186b5760405162461bcd60e51b815260040161047890612450565b6001600160a01b0381166118c15760405162461bcd60e51b815260206004820152601c60248201527f4c42504d616e616765723a207265636569766572206973207a65726f000000006044820152606401610478565b600b546040516370a0823160e01b81523060048201526000916001600160a01b0316906370a082319060240160206040518083038186803b15801561190557600080fd5b505afa158015611919573d6000803e3d6000fd5b505050506040513d601f19601f8201168201806040525081019061193d9190612487565b1161198a5760405162461bcd60e51b815260206004820181905260248201527f4c42504d616e616765723a206e6f2042505420746f6b656e2062616c616e63656044820152606401610478565b6000600a6001815481106119a0576119a061240c565b90600052602060002001549050804210156119fd5760405162461bcd60e51b815260206004820152601f60248201527f4c42504d616e616765723a20656e6474696d65206e6f742072656163686564006044820152606401610478565b600b54604080516311b2515f60e31b815290516000926001600160a01b031691638d928af8916004808301926020929190829003018186803b158015611a4257600080fd5b505afa158015611a56573d6000803e3d6000fd5b505050506040513d601f19601f82011682018060405250810190611a7a919061264e565b9050600060405180608001604052806006805480602002602001604051908101604052809291908181526020018280548015611adf57602002820191906000526020600020905b81546001600160a01b03168152600190910190602001808311611ac1575b5050505050815260200160068054905067ffffffffffffffff811115611b0757611b07612029565b604051908082528060200260200182016040528015611b30578160200160208202803683370190505b508152600b546040516370a0823160e01b81523060048201526020909201916001916001600160a01b0316906370a082319060240160206040518083038186803b158015611b7d57600080fd5b505afa158015611b91573d6000803e3d6000fd5b505050506040513d601f19601f82011682018060405250810190611bb59190612487565b6040805160ff90931660208401528201526060016040516020818303038152906040528152602001600015158152509050816001600160a01b0316638bdb3913600b60009054906101000a90046001600160a01b03166001600160a01b03166338fff2d06040518163ffffffff1660e01b815260040160206040518083038186803b158015611c4357600080fd5b505afa158015611c57573d6000803e3d6000fd5b505050506040513d601f19601f82011682018060405250810190611c7b9190612487565b3087856040518563ffffffff1660e01b8152600401611c9d9493929190612796565b600060405180830381600087803b158015611cb757600080fd5b505af1158015611ccb573d6000803e3d6000fd5b5050505050505050565b6002546001600160a01b03163314611cff5760405162461bcd60e51b815260040161047890612450565b600b54604051633806be4b60e21b815282151560048201526001600160a01b039091169063e01af92c90602401600060405180830381600087803b158015611d4657600080fd5b505af1158015611d5a573d6000803e3d6000fd5b5050505050565b6002546001600160a01b03163314611d8b5760405162461bcd60e51b815260040161047890612450565b8051611d9e90600c906020840190611e2d565b5080604051611dad91906127d2565b604051908190038120907f09f579b21815d3f81581d32e97736ccba1cc89d1918e48da28e6e206acd9686490600090a250565b600454600d5460078054600093670de0b6b3a76400009390929160ff909116908110611e0e57611e0e61240c565b9060005260206000200154611e2391906127ee565b61043c919061280d565b828054611e39906123d1565b90600052602060002090601f016020900481019282611e5b5760008555611ea1565b82601f10611e7457805160ff1916838001178555611ea1565b82800160010185558215611ea1579182015b82811115611ea1578251825591602001919060010190611e86565b50611ead929150611f40565b5090565b828054828255906000526020600020908101928215611ea15791602002820182811115611ea1578251825591602001919060010190611e86565b828054828255906000526020600020908101928215611ea1579160200282015b82811115611ea157825182546001600160a01b0319166001600160a01b03909116178255602090920191600190910190611f0b565b5b80821115611ead5760008155600101611f41565b60005b83811015611f70578181015183820152602001611f58565b83811115611f7f576000848401525b50505050565b60008151808452611f9d816020860160208601611f55565b601f01601f19169290920160200192915050565b602081526000611fc46020830184611f85565b9392505050565b6001600160a01b0381168114611fe057600080fd5b50565b8035611fee81611fcb565b919050565b60006020828403121561200557600080fd5b8135611fc481611fcb565b60006020828403121561202257600080fd5b5035919050565b634e487b7160e01b600052604160045260246000fd5b604051601f8201601f1916810167ffffffffffffffff8111828210171561206857612068612029565b604052919050565b600082601f83011261208157600080fd5b813567ffffffffffffffff81111561209b5761209b612029565b6120ae601f8201601f191660200161203f565b8181528460208386010111156120c357600080fd5b816020850160208301376000918101602001919091529392505050565b600067ffffffffffffffff8211156120fa576120fa612029565b5060051b60200190565b600082601f83011261211557600080fd5b8135602061212a612125836120e0565b61203f565b82815260059290921b8401810191818101908684111561214957600080fd5b8286015b8481101561216d57803561216081611fcb565b835291830191830161214d565b509695505050505050565b600082601f83011261218957600080fd5b81356020612199612125836120e0565b82815260059290921b840181019181810190868411156121b857600080fd5b8286015b8481101561216d57803583529183019183016121bc565b60008060008060008060008060008060006101608c8e0312156121f557600080fd5b6121fe8c611fe3565b9a5061220c60208d01611fe3565b995067ffffffffffffffff8060408e0135111561222857600080fd5b6122388e60408f01358f01612070565b99508060608e0135111561224b57600080fd5b61225b8e60608f01358f01612070565b98508060808e0135111561226e57600080fd5b61227e8e60808f01358f01612104565b97508060a08e0135111561229157600080fd5b6122a18e60a08f01358f01612178565b96508060c08e013511156122b457600080fd5b6122c48e60c08f01358f01612178565b95508060e08e013511156122d757600080fd5b6122e78e60e08f01358f01612178565b9450806101008e013511156122fb57600080fd5b61230c8e6101008f01358f01612178565b9350806101208e0135111561232057600080fd5b6123318e6101208f01358f01612178565b9250806101408e0135111561234557600080fd5b506123578d6101408e01358e01612070565b90509295989b509295989b9093969950565b8015158114611fe057600080fd5b60006020828403121561238957600080fd5b8135611fc481612369565b6000602082840312156123a657600080fd5b813567ffffffffffffffff8111156123bd57600080fd5b6123c984828501612070565b949350505050565b600181811c908216806123e557607f821691505b6020821081141561240657634e487b7160e01b600052602260045260246000fd5b50919050565b634e487b7160e01b600052603260045260246000fd5b634e487b7160e01b600052601160045260246000fd5b6000821982111561244b5761244b612422565b500190565b6020808252601f908201527f4c42504d616e616765723a2063616c6c6572206973206e6f742061646d696e00604082015260600190565b60006020828403121561249957600080fd5b5051919050565b6000602082840312156124b257600080fd5b8151611fc481612369565b8054600090600181811c90808316806124d757607f831692505b60208084108214156124f957634e487b7160e01b600052602260045260246000fd5b83885260208801828015612514576001811461252557612550565b60ff19871682528282019750612550565b60008981526020902060005b8781101561254a57815484820152908601908401612531565b83019850505b5050505050505092915050565b6000815480845260208085019450836000528060002060005b8381101561259257815487529582019560019182019101612576565b509495945050505050565b60e0815260006125b060e083018a6124bd565b82810360208401526125c2818a6124bd565b8381036040850152885480825260008a815260208082209450909201915b818110156126075783546001600160a01b03168352600193840193602090930192016125e0565b5050838103606085015261261b818961255d565b9250505084608083015261263a60a08301856001600160a01b03169052565b82151560c083015298975050505050505050565b60006020828403121561266057600080fd5b8151611fc481611fcb565b83815282602082015260606040820152600061268a606083018461255d565b95945050505050565b600060ff821660ff8114156126aa576126aa612422565b60010192915050565b60ff831681526040602082015260006123c9604083018461255d565b600081518084526020808501945080840160005b83811015612592578151875295820195908201906001016126e3565b8051608080845281519084018190526000916020919082019060a0860190845b818110156127445783516001600160a01b03168352928401929184019160010161271f565b50508285015191508581038387015261275d81836126cf565b92505050604083015184820360408601526127788282611f85565b915050606083015161278e606086018215159052565b509392505050565b8481526001600160a01b038481166020830152831660408201526080606082018190526000906127c8908301846126ff565b9695505050505050565b600082516127e4818460208701611f55565b9190910192915050565b600081600019048311821515161561280857612808612422565b500290565b60008261282a57634e487b7160e01b600052601260045260246000fd5b50049056fea2646970667358221220baf531b4f94f949ad1e5a800e929f7d5af20a7768e9578a8454c8ceb07b930af64736f6c63430008090033",
  "devdoc": {
    "details": "Smart contract for managing interactions with a Balancer LBP.",
    "kind": "dev",
    "methods": {
      "initializeLBP(address)": {
        "details": "Subtracts the fee, deploys the LBP and adds liquidity to it.",
        "params": {
          "_sender": "Address of the liquidity provider."
        }
      },
      "initializeLBPManager(address,address,string,string,address[],uint256[],uint256[],uint256[],uint256[],uint256[],bytes)": {
        "details": "Initialize LBPManager.",
        "params": {
          "_LBPFactory": "LBP factory address.",
          "_amounts": "Array containing two parameters in order of: 1. The amounts of project token to be added as liquidity to the LBP. 2. The amounts of funding token to be added as liquidity to the LBP.",
          "_beneficiary": "The address that receives the feePercentage.",
          "_endWeights": "Array containing two parametes in order of: 1. The end weight for the project token in the LBP. 2. The end weight for the funding token in the LBP.",
          "_fees": "Array containing two parameters in order of: 1. Percentage of fee paid for every swap in the LBP. 2. Percentage of fee paid to the _beneficiary for providing the service of the LBP Manager.",
          "_metadata": "IPFS Hash of the LBP creation wizard information.",
          "_name": "Name of the LBP.",
          "_startTimeEndTime": "Array containing two parameters in order of: 1. Start time for the LBP. 2. End time for the LBP.",
          "_startWeights": "Array containing two parametes in order of: 1. The start weight for the project token in the LBP. 2. The start weight for the funding token in the LBP.",
          "_symbol": "Symbol of the LBP.",
          "_tokenList": "Array containing two addresses in order of: 1. The address of the project token being distributed. 2. The address of the funding token being exchanged for the project token."
        }
      },
      "projectTokensRequired()": {
        "details": "Get required amount of project tokens to cover for fees and the actual LBP."
      },
      "removeLiquidity(address)": {
        "details": "Exit pool or remove liquidity from pool.",
        "params": {
          "_receiver": "Address of the liquidity receiver, after exiting the LBP."
        }
      },
      "setSwapEnabled(bool)": {
        "details": "Can pause/unpause trading.",
        "params": {
          "_swapEnabled": "Enables/disables swapping."
        }
      },
      "transferAdminRights(address)": {
        "details": "Transfer admin rights.",
        "params": {
          "_newAdmin": "Address of the new admin."
        }
      },
      "updateMetadata(bytes)": {
        "details": "Updates metadata.",
        "params": {
          "_metadata": "LBP wizard contract metadata, that is an IPFS Hash."
        }
      },
      "withdrawPoolTokens(address)": {
        "details": "Withdraw pool tokens if available.",
        "params": {
          "_receiver": "Address of the BPT tokens receiver."
        }
      }
    },
    "title": "LBPManager contract.",
    "version": 1
  },
  "userdoc": {
    "kind": "user",
    "methods": {},
    "version": 1
  },
  "storageLayout": {
    "storage": [
      {
        "astId": 11,
        "contract": "contracts/lbp/LBPManager.sol:LBPManager",
        "label": "symbol",
        "offset": 0,
        "slot": "0",
        "type": "t_string_storage"
      },
      {
        "astId": 13,
        "contract": "contracts/lbp/LBPManager.sol:LBPManager",
        "label": "name",
        "offset": 0,
        "slot": "1",
        "type": "t_string_storage"
      },
      {
        "astId": 15,
        "contract": "contracts/lbp/LBPManager.sol:LBPManager",
        "label": "admin",
        "offset": 0,
        "slot": "2",
        "type": "t_address"
      },
      {
        "astId": 17,
        "contract": "contracts/lbp/LBPManager.sol:LBPManager",
        "label": "beneficiary",
        "offset": 0,
        "slot": "3",
        "type": "t_address"
      },
      {
        "astId": 19,
        "contract": "contracts/lbp/LBPManager.sol:LBPManager",
        "label": "feePercentage",
        "offset": 0,
        "slot": "4",
        "type": "t_uint256"
      },
      {
        "astId": 21,
        "contract": "contracts/lbp/LBPManager.sol:LBPManager",
        "label": "swapFeePercentage",
        "offset": 0,
        "slot": "5",
        "type": "t_uint256"
      },
      {
        "astId": 25,
        "contract": "contracts/lbp/LBPManager.sol:LBPManager",
        "label": "tokenList",
        "offset": 0,
        "slot": "6",
        "type": "t_array(t_contract(IERC20)11215)dyn_storage"
      },
      {
        "astId": 28,
        "contract": "contracts/lbp/LBPManager.sol:LBPManager",
        "label": "amounts",
        "offset": 0,
        "slot": "7",
        "type": "t_array(t_uint256)dyn_storage"
      },
      {
        "astId": 31,
        "contract": "contracts/lbp/LBPManager.sol:LBPManager",
        "label": "startWeights",
        "offset": 0,
        "slot": "8",
        "type": "t_array(t_uint256)dyn_storage"
      },
      {
        "astId": 34,
        "contract": "contracts/lbp/LBPManager.sol:LBPManager",
        "label": "endWeights",
        "offset": 0,
        "slot": "9",
        "type": "t_array(t_uint256)dyn_storage"
      },
      {
        "astId": 37,
        "contract": "contracts/lbp/LBPManager.sol:LBPManager",
        "label": "startTimeEndTime",
        "offset": 0,
        "slot": "10",
        "type": "t_array(t_uint256)dyn_storage"
      },
      {
        "astId": 40,
        "contract": "contracts/lbp/LBPManager.sol:LBPManager",
        "label": "lbp",
        "offset": 0,
        "slot": "11",
        "type": "t_contract(ILBP)2345"
      },
      {
        "astId": 42,
        "contract": "contracts/lbp/LBPManager.sol:LBPManager",
        "label": "metadata",
        "offset": 0,
        "slot": "12",
        "type": "t_bytes_storage"
      },
      {
        "astId": 44,
        "contract": "contracts/lbp/LBPManager.sol:LBPManager",
        "label": "projectTokenIndex",
        "offset": 0,
        "slot": "13",
        "type": "t_uint8"
      },
      {
        "astId": 46,
        "contract": "contracts/lbp/LBPManager.sol:LBPManager",
        "label": "LBPFactory",
        "offset": 1,
        "slot": "13",
        "type": "t_address"
      },
      {
        "astId": 48,
        "contract": "contracts/lbp/LBPManager.sol:LBPManager",
        "label": "poolFunded",
        "offset": 21,
        "slot": "13",
        "type": "t_bool"
      },
      {
        "astId": 50,
        "contract": "contracts/lbp/LBPManager.sol:LBPManager",
        "label": "initialized",
        "offset": 22,
        "slot": "13",
        "type": "t_bool"
      }
    ],
    "types": {
      "t_address": {
        "encoding": "inplace",
        "label": "address",
        "numberOfBytes": "20"
      },
      "t_array(t_contract(IERC20)11215)dyn_storage": {
        "base": "t_contract(IERC20)11215",
        "encoding": "dynamic_array",
        "label": "contract IERC20[]",
        "numberOfBytes": "32"
      },
      "t_array(t_uint256)dyn_storage": {
        "base": "t_uint256",
        "encoding": "dynamic_array",
        "label": "uint256[]",
        "numberOfBytes": "32"
      },
      "t_bool": {
        "encoding": "inplace",
        "label": "bool",
        "numberOfBytes": "1"
      },
      "t_bytes_storage": {
        "encoding": "bytes",
        "label": "bytes",
        "numberOfBytes": "32"
      },
      "t_contract(IERC20)11215": {
        "encoding": "inplace",
        "label": "contract IERC20",
        "numberOfBytes": "20"
      },
      "t_contract(ILBP)2345": {
        "encoding": "inplace",
        "label": "contract ILBP",
        "numberOfBytes": "20"
      },
      "t_string_storage": {
        "encoding": "bytes",
        "label": "string",
        "numberOfBytes": "32"
      },
      "t_uint256": {
        "encoding": "inplace",
        "label": "uint256",
        "numberOfBytes": "32"
      },
      "t_uint8": {
        "encoding": "inplace",
        "label": "uint8",
        "numberOfBytes": "1"
      }
    }
  }
}