{
  "address": "0x9EDf9C5aE83c4487cf22EDF7d084dDA78c3fd362",
  "abi": [
    {
      "inputs": [
        {
          "internalType": "address",
          "name": "_LBPFactory",
          "type": "address"
        }
      ],
      "stateMutability": "nonpayable",
      "type": "constructor"
    },
    {
      "anonymous": false,
      "inputs": [
        {
          "indexed": true,
          "internalType": "address",
          "name": "oldLBPFactory",
          "type": "address"
        },
        {
          "indexed": true,
          "internalType": "address",
          "name": "newLBPFactory",
          "type": "address"
        }
      ],
      "name": "LBPFactoryChanged",
      "type": "event"
    },
    {
      "anonymous": false,
      "inputs": [
        {
          "indexed": true,
          "internalType": "address",
          "name": "lbpManager",
          "type": "address"
        },
        {
          "indexed": true,
          "internalType": "address",
          "name": "admin",
          "type": "address"
        },
        {
          "indexed": false,
          "internalType": "bytes",
          "name": "metadata",
          "type": "bytes"
        }
      ],
      "name": "LBPManagerDeployed",
      "type": "event"
    },
    {
      "anonymous": false,
      "inputs": [
        {
          "indexed": true,
          "internalType": "address",
          "name": "oldMasterCopy",
          "type": "address"
        },
        {
          "indexed": true,
          "internalType": "address",
          "name": "newMasterCopy",
          "type": "address"
        }
      ],
      "name": "MastercopyChanged",
      "type": "event"
    },
    {
      "anonymous": false,
      "inputs": [
        {
          "indexed": true,
          "internalType": "address",
          "name": "previousOwner",
          "type": "address"
        },
        {
          "indexed": true,
          "internalType": "address",
          "name": "newOwner",
          "type": "address"
        }
      ],
      "name": "OwnershipTransferred",
      "type": "event"
    },
    {
      "inputs": [],
      "name": "LBPFactory",
      "outputs": [
        {
          "internalType": "address",
          "name": "",
          "type": "address"
        }
      ],
      "stateMutability": "view",
      "type": "function"
    },
    {
      "inputs": [
        {
          "internalType": "address",
          "name": "_admin",
          "type": "address"
        },
        {
          "internalType": "address",
          "name": "_beneficiary",
          "type": "address"
        },
        {
          "internalType": "string",
          "name": "_name",
          "type": "string"
        },
        {
          "internalType": "string",
          "name": "_symbol",
          "type": "string"
        },
        {
          "internalType": "contract IERC20[]",
          "name": "_tokenList",
          "type": "address[]"
        },
        {
          "internalType": "uint256[]",
          "name": "_amounts",
          "type": "uint256[]"
        },
        {
          "internalType": "uint256[]",
          "name": "_startWeights",
          "type": "uint256[]"
        },
        {
          "internalType": "uint256[]",
          "name": "_startTimeEndtime",
          "type": "uint256[]"
        },
        {
          "internalType": "uint256[]",
          "name": "_endWeights",
          "type": "uint256[]"
        },
        {
          "internalType": "uint256[]",
          "name": "_fees",
          "type": "uint256[]"
        },
        {
          "internalType": "bytes",
          "name": "_metadata",
          "type": "bytes"
        }
      ],
      "name": "deployLBPManager",
      "outputs": [],
      "stateMutability": "nonpayable",
      "type": "function"
    },
    {
      "inputs": [],
      "name": "masterCopy",
      "outputs": [
        {
          "internalType": "address",
          "name": "",
          "type": "address"
        }
      ],
      "stateMutability": "view",
      "type": "function"
    },
    {
      "inputs": [],
      "name": "owner",
      "outputs": [
        {
          "internalType": "address",
          "name": "",
          "type": "address"
        }
      ],
      "stateMutability": "view",
      "type": "function"
    },
    {
      "inputs": [],
      "name": "renounceOwnership",
      "outputs": [],
      "stateMutability": "nonpayable",
      "type": "function"
    },
    {
      "inputs": [
        {
          "internalType": "address",
          "name": "_LBPFactory",
          "type": "address"
        }
      ],
      "name": "setLBPFactory",
      "outputs": [],
      "stateMutability": "nonpayable",
      "type": "function"
    },
    {
      "inputs": [
        {
          "internalType": "address",
          "name": "_masterCopy",
          "type": "address"
        }
      ],
      "name": "setMasterCopy",
      "outputs": [],
      "stateMutability": "nonpayable",
      "type": "function"
    },
    {
      "inputs": [
        {
          "internalType": "address",
          "name": "newOwner",
          "type": "address"
        }
      ],
      "name": "transferOwnership",
      "outputs": [],
      "stateMutability": "nonpayable",
      "type": "function"
    }
  ],
  "transactionHash": "0x86af6b6bb7c30163bc75023c9669cd83838b0d0977cc1913fbfa9baa15ac8902",
  "args": [
    "0x0F3e0c4218b7b0108a3643cFe9D3ec0d4F57c54e"
  ],
  "solcInputHash": "75934f98340be26bc8cb6df5ff010cd2",
  "bytecode": "0x608060405234801561001057600080fd5b50604051610ddd380380610ddd83398101604081905261002f91610107565b610038336100b7565b6001600160a01b0381166100925760405162461bcd60e51b815260206004820152601f60248201527f4c42504d466163746f72793a204c4250466163746f7279206973207a65726f00604482015260640160405180910390fd5b600280546001600160a01b0319166001600160a01b0392909216919091179055610137565b600080546001600160a01b038381166001600160a01b0319831681178455604051919092169283917f8be0079c531659141344cd1fd0a4f28419497f9722a3daafe3b4186f6b6457e09190a35050565b60006020828403121561011957600080fd5b81516001600160a01b038116811461013057600080fd5b9392505050565b610c97806101466000396000f3fe608060405234801561001057600080fd5b50600436106100885760003560e01c8063a619486e1161005b578063a619486e146100ea578063cf497e6c146100fd578063f2fde38b14610110578063fd3bd38a1461012357600080fd5b806331d8f1be1461008d578063715018a6146100bc5780637679a4c1146100c65780638da5cb5b146100d9575b600080fd5b6002546100a0906001600160a01b031681565b6040516001600160a01b03909116815260200160405180910390f35b6100c4610136565b005b6100c46100d43660046106bf565b610175565b6000546001600160a01b03166100a0565b6001546100a0906001600160a01b031681565b6100c461010b3660046106bf565b61027c565b6100c461011e3660046106bf565b610383565b6100c461013136600461088d565b61041e565b6000546001600160a01b031633146101695760405162461bcd60e51b815260040161016090610a23565b60405180910390fd5b61017360006105f8565b565b6000546001600160a01b0316331461019f5760405162461bcd60e51b815260040161016090610a23565b806001600160a01b0381166101f65760405162461bcd60e51b815260206004820152601c60248201527f4c42504d466163746f72793a2061646472657373206973207a65726f000000006044820152606401610160565b6001600160a01b03811630141561021f5760405162461bcd60e51b815260040161016090610a58565b6002546040516001600160a01b038085169216907f877e5d562f57d3294803fbbd1e6715a2342eedb560cc540e97a9b77f03d12cbf90600090a350600280546001600160a01b0319166001600160a01b0392909216919091179055565b6000546001600160a01b031633146102a65760405162461bcd60e51b815260040161016090610a23565b806001600160a01b0381166102fd5760405162461bcd60e51b815260206004820152601c60248201527f4c42504d466163746f72793a2061646472657373206973207a65726f000000006044820152606401610160565b6001600160a01b0381163014156103265760405162461bcd60e51b815260040161016090610a58565b6001546040516001600160a01b038085169216907fb8c954c26b96c632ba5e28e879f889c124225199d6787047500b1eef41ff464190600090a350600180546001600160a01b0319166001600160a01b0392909216919091179055565b6000546001600160a01b031633146103ad5760405162461bcd60e51b815260040161016090610a23565b6001600160a01b0381166104125760405162461bcd60e51b815260206004820152602660248201527f4f776e61626c653a206e6577206f776e657220697320746865207a65726f206160448201526564647265737360d01b6064820152608401610160565b61041b816105f8565b50565b6000546001600160a01b031633146104485760405162461bcd60e51b815260040161016090610a23565b6001546001600160a01b03166104b35760405162461bcd60e51b815260206004820152602a60248201527f4c42504d466163746f72793a204c42504d616e61676572206d6173746572636f6044820152691c1e481b9bdd081cd95d60b21b6064820152608401610160565b6001546000906104cb906001600160a01b0316610648565b600254604051638638fe3160e01b81529192506001600160a01b0380841692638638fe31926105129216908f908f908f908f908f908f908f908f908f908f90600401610b67565b600060405180830381600087803b15801561052c57600080fd5b505af1158015610540573d6000803e3d6000fd5b505060405163b5106add60e01b81526001600160a01b038f811660048301528416925063b5106add9150602401600060405180830381600087803b15801561058757600080fd5b505af115801561059b573d6000803e3d6000fd5b505050508b6001600160a01b0316816001600160a01b03167f8b8a9c158a44eff86c91705dbc9c0479504c8de441156f3c2c21a6ed00e1627a846040516105e29190610c4e565b60405180910390a3505050505050505050505050565b600080546001600160a01b038381166001600160a01b0319831681178455604051919092169283917f8be0079c531659141344cd1fd0a4f28419497f9722a3daafe3b4186f6b6457e09190a35050565b6000808260601b9050604051733d602d80600a3d3981f3363d3d373d3d3d363d7360601b81528160148201526e5af43d82803e903d91602b57fd5bf360881b60288201526037816000f0949350505050565b6001600160a01b038116811461041b57600080fd5b80356106ba8161069a565b919050565b6000602082840312156106d157600080fd5b81356106dc8161069a565b9392505050565b634e487b7160e01b600052604160045260246000fd5b604051601f8201601f1916810167ffffffffffffffff81118282101715610722576107226106e3565b604052919050565b600082601f83011261073b57600080fd5b813567ffffffffffffffff811115610755576107556106e3565b610768601f8201601f19166020016106f9565b81815284602083860101111561077d57600080fd5b816020850160208301376000918101602001919091529392505050565b600067ffffffffffffffff8211156107b4576107b46106e3565b5060051b60200190565b600082601f8301126107cf57600080fd5b813560206107e46107df8361079a565b6106f9565b82815260059290921b8401810191818101908684111561080357600080fd5b8286015b8481101561082757803561081a8161069a565b8352918301918301610807565b509695505050505050565b600082601f83011261084357600080fd5b813560206108536107df8361079a565b82815260059290921b8401810191818101908684111561087257600080fd5b8286015b848110156108275780358352918301918301610876565b60008060008060008060008060008060006101608c8e0312156108af57600080fd5b6108b88c6106af565b9a506108c660208d016106af565b995067ffffffffffffffff8060408e013511156108e257600080fd5b6108f28e60408f01358f0161072a565b99508060608e0135111561090557600080fd5b6109158e60608f01358f0161072a565b98508060808e0135111561092857600080fd5b6109388e60808f01358f016107be565b97508060a08e0135111561094b57600080fd5b61095b8e60a08f01358f01610832565b96508060c08e0135111561096e57600080fd5b61097e8e60c08f01358f01610832565b95508060e08e0135111561099157600080fd5b6109a18e60e08f01358f01610832565b9450806101008e013511156109b557600080fd5b6109c68e6101008f01358f01610832565b9350806101208e013511156109da57600080fd5b6109eb8e6101208f01358f01610832565b9250806101408e013511156109ff57600080fd5b50610a118d6101408e01358e0161072a565b90509295989b509295989b9093969950565b6020808252818101527f4f776e61626c653a2063616c6c6572206973206e6f7420746865206f776e6572604082015260600190565b6020808252602e908201527f4c42504d466163746f72793a20616464726573732073616d65206173204c425060408201526d4d616e61676572466163746f727960901b606082015260800190565b6000815180845260005b81811015610acc57602081850181015186830182015201610ab0565b81811115610ade576000602083870101525b50601f01601f19169290920160200192915050565b600081518084526020808501945080840160005b83811015610b2c5781516001600160a01b031687529582019590820190600101610b07565b509495945050505050565b600081518084526020808501945080840160005b83811015610b2c57815187529582019590820190600101610b4b565b6001600160a01b038c16815260006101606001600160a01b038d166020840152806040840152610b998184018d610aa6565b90508281036060840152610bad818c610aa6565b90508281036080840152610bc1818b610af3565b905082810360a0840152610bd5818a610b37565b905082810360c0840152610be98189610b37565b905082810360e0840152610bfd8188610b37565b9050828103610100840152610c128187610b37565b9050828103610120840152610c278186610b37565b9050828103610140840152610c3c8185610aa6565b9e9d5050505050505050505050505050565b6020815260006106dc6020830184610aa656fea264697066735822122061d610c657c070889162f8c7642585f3e741de053fe9377f3ef68ef27aefd06a64736f6c63430008090033",
  "devdoc": {
    "details": "Governance to create new LBPManager contracts.",
    "kind": "dev",
    "methods": {
      "constructor": {
        "details": "Constructor.",
        "params": {
          "_LBPFactory": "The address of Balancers LBP factory."
        }
      },
      "deployLBPManager(address,address,string,string,address[],uint256[],uint256[],uint256[],uint256[],uint256[],bytes)": {
        "details": "Deploy and initialize LBPManager.",
        "params": {
          "_admin": "The address of the admin of the LBPManager.",
          "_amounts": "Sorted array to match the _tokenList, containing two parameters: - The amounts of project token to be added as liquidity to the LBP. - The amounts of funding token to be added as liquidity to the LBP.",
          "_beneficiary": "The address that receives the _fees.",
          "_endWeights": "Sorted array to match the _tokenList, containing two parametes: - The end weight for the project token in the LBP. - The end weight for the funding token in the LBP.",
          "_fees": "Array containing two parameters: - Percentage of fee paid for every swap in the LBP. - Percentage of fee paid to the _beneficiary for providing the service of the LBP Manager.",
          "_metadata": "IPFS Hash of the LBP creation wizard information.",
          "_name": "Name of the LBP.",
          "_startTimeEndtime": "Array containing two parameters: - Start time for the LBP. - End time for the LBP.",
          "_startWeights": "Sorted array to match the _tokenList, containing two parametes: - The start weight for the project token in the LBP. - The start weight for the funding token in the LBP.",
          "_symbol": "Symbol of the LBP.",
          "_tokenList": "Numerically sorted array (ascending) containing two addresses: - The address of the project token being distributed. - The address of the funding token being exchanged for the project token."
        }
      },
      "owner()": {
        "details": "Returns the address of the current owner."
      },
      "renounceOwnership()": {
        "details": "Leaves the contract without owner. It will not be possible to call `onlyOwner` functions anymore. Can only be called by the current owner. NOTE: Renouncing ownership will leave the contract without an owner, thereby removing any functionality that is only available to the owner."
      },
      "setLBPFactory(address)": {
        "details": "Set Balancers LBP Factory contract as basis for deploying LBPs.",
        "params": {
          "_LBPFactory": "The address of Balancers LBP factory."
        }
      },
      "setMasterCopy(address)": {
        "details": "Set LBPManager contract which works as a base for clones.",
        "params": {
          "_masterCopy": "The address of the new LBPManager basis."
        }
      },
      "transferOwnership(address)": {
        "details": "Transfers ownership of the contract to a new account (`newOwner`). Can only be called by the current owner."
      }
    },
    "title": "LBPManager Factory",
    "version": 1
  },
  "userdoc": {
    "kind": "user",
    "methods": {},
    "version": 1
  },
  "storageLayout": {
    "storage": [
      {
        "astId": 11334,
        "contract": "contracts/lbp/LBPManagerFactory.sol:LBPManagerFactory",
        "label": "_owner",
        "offset": 0,
        "slot": "0",
        "type": "t_address"
      },
      {
        "astId": 804,
        "contract": "contracts/lbp/LBPManagerFactory.sol:LBPManagerFactory",
        "label": "masterCopy",
        "offset": 0,
        "slot": "1",
        "type": "t_address"
      },
      {
        "astId": 806,
        "contract": "contracts/lbp/LBPManagerFactory.sol:LBPManagerFactory",
        "label": "LBPFactory",
        "offset": 0,
        "slot": "2",
        "type": "t_address"
      }
    ],
    "types": {
      "t_address": {
        "encoding": "inplace",
        "label": "address",
        "numberOfBytes": "20"
      }
    }
  }
}