{
  "_format": "hh-sol-artifact-1",
  "contractName": "SigatureHandler",
  "sourceName": "contracts/utils/SigatureHandler.sol",
  "abi": [
    {
      "inputs": [
        {
          "internalType": "contract GnosisSafe",
          "name": "addr",
          "type": "address"
        }
      ],
      "stateMutability": "nonpayable",
      "type": "constructor"
    },
    {
      "anonymous": false,
      "inputs": [
        {
          "indexed": true,
          "internalType": "bytes32",
          "name": "msgHash",
          "type": "bytes32"
        }
      ],
      "name": "SignMsg",
      "type": "event"
    },
    {
      "inputs": [
        {
          "internalType": "bytes",
          "name": "message",
          "type": "bytes"
        }
      ],
      "name": "getMessageHash",
      "outputs": [
        {
          "internalType": "bytes32",
          "name": "",
          "type": "bytes32"
        }
      ],
      "stateMutability": "view",
      "type": "function"
    },
    {
      "inputs": [
        {
          "internalType": "bytes32",
          "name": "msgHash",
          "type": "bytes32"
        }
      ],
      "name": "getSignatures",
      "outputs": [
        {
          "internalType": "bytes[]",
          "name": "",
          "type": "bytes[]"
        }
      ],
      "stateMutability": "view",
      "type": "function"
    },
    {
      "inputs": [
        {
          "internalType": "bytes",
          "name": "_hash",
          "type": "bytes"
        },
        {
          "internalType": "bytes",
          "name": "_signature",
          "type": "bytes"
        }
      ],
      "name": "isValidSignature",
      "outputs": [
        {
          "internalType": "bytes4",
          "name": "",
          "type": "bytes4"
        }
      ],
      "stateMutability": "view",
      "type": "function"
    },
    {
      "inputs": [],
      "name": "mothership",
      "outputs": [
        {
          "internalType": "contract GnosisSafe",
          "name": "",
          "type": "address"
        }
      ],
      "stateMutability": "view",
      "type": "function"
    },
    {
      "inputs": [
        {
          "internalType": "bytes32",
          "name": "",
          "type": "bytes32"
        },
        {
          "internalType": "uint256",
          "name": "",
          "type": "uint256"
        }
      ],
      "name": "personallySignedMessages",
      "outputs": [
        {
          "internalType": "bytes",
          "name": "",
          "type": "bytes"
        }
      ],
      "stateMutability": "view",
      "type": "function"
    },
    {
      "inputs": [
        {
          "internalType": "bytes",
          "name": "_data",
          "type": "bytes"
        }
      ],
      "name": "signMessage",
      "outputs": [],
      "stateMutability": "nonpayable",
      "type": "function"
    }
  ],
  "bytecode": "0x60806040523480156200001157600080fd5b506040516200121538038062001215833981810160405281019062000037919062000095565b806000806101000a81548173ffffffffffffffffffffffffffffffffffffffff021916908373ffffffffffffffffffffffffffffffffffffffff1602179055505062000123565b6000815190506200008f8162000109565b92915050565b600060208284031215620000a857600080fd5b6000620000b8848285016200007e565b91505092915050565b6000620000ce82620000e9565b9050919050565b6000620000e282620000c1565b9050919050565b600073ffffffffffffffffffffffffffffffffffffffff82169050919050565b6200011481620000d5565b81146200012057600080fd5b50565b6110e280620001336000396000f3fe608060405234801561001057600080fd5b50600436106100625760003560e01c80630a1028c41461006757806320c13b0b1461009757806323c0d78f146100c75780634187b7d6146100f757806385a5affe146101155780639bc5106814610131575b600080fd5b610081600480360381019061007c9190610950565b610161565b60405161008e9190610cd7565b60405180910390f35b6100b160048036038101906100ac9190610991565b610293565b6040516100be9190610d1b565b60405180910390f35b6100e160048036038101906100dc91906108cf565b6102a5565b6040516100ee9190610d36565b60405180910390f35b6100ff61035e565b60405161010c9190610d58565b60405180910390f35b61012f600480360381019061012a919061090b565b610382565b005b61014b6004803603810190610146919061087d565b61058e565b6040516101589190610cb5565b60405180910390f35b6000807f60b3cbf8b4a223d68d641b3b6ddf9a298e7f33710cf3d3a9d1146b5a6150fbca60001b83805190602001206040516020016101a1929190610cf2565b604051602081830303815290604052805190602001209050601960f81b600160f81b60008054906101000a900473ffffffffffffffffffffffffffffffffffffffff1673ffffffffffffffffffffffffffffffffffffffff1663f698da256040518163ffffffff1660e01b815260040160206040518083038186803b15801561022957600080fd5b505afa15801561023d573d6000803e3d6000fd5b505050506040513d601f19601f8201168201806040525081019061026191906108a6565b836040516020016102759493929190610bde565b60405160208183030381529060405280519060200120915050919050565b60006320c13b0b60e01b905092915050565b600160205281600052604060002081815481106102c157600080fd5b906000526020600020016000915091505080546102dd90610f84565b80601f016020809104026020016040519081016040528092919081815260200182805461030990610f84565b80156103565780601f1061032b57610100808354040283529160200191610356565b820191906000526020600020905b81548152906001019060200180831161033957829003601f168201915b505050505081565b60008054906101000a900473ffffffffffffffffffffffffffffffffffffffff1681565b60006103d183838080601f016020809104026020016040519081016040528093929190818152602001838380828437600081840152601f19601f82011690508083019250505050505050610161565b905060008054906101000a900473ffffffffffffffffffffffffffffffffffffffff1673ffffffffffffffffffffffffffffffffffffffff168160405160240161041b9190610cd7565b6040516020818303038152906040527fd4d9bdcd000000000000000000000000000000000000000000000000000000007bffffffffffffffffffffffffffffffffffffffffffffffffffffffff19166020820180517bffffffffffffffffffffffffffffffffffffffffffffffffffffffff83818316178352505050506040516104a59190610c47565b600060405180830381855af49150503d80600081146104e0576040519150601f19603f3d011682016040523d82523d6000602084013e6104e5565b606091505b505050600160008281526020019081526020016000206105238260405160200161050f9190610c2c565b60405160208183030381529060405261067a565b90806001815401808255809150506001900390600052602060002001600090919091909150908051906020019061055b9291906106e9565b50807fe7f4675038f4f6034dfcbbb24c4dc08e4ebf10eb9d257d3d02c0f38d122ac6e460405160405180910390a2505050565b606060016000838152602001908152602001600020805480602002602001604051908101604052809291908181526020016000905b8282101561066f5783829060005260206000200180546105e290610f84565b80601f016020809104026020016040519081016040528092919081815260200182805461060e90610f84565b801561065b5780601f106106305761010080835404028352916020019161065b565b820191906000526020600020905b81548152906001019060200180831161063e57829003601f168201915b5050505050815260200190600101906105c3565b505050509050919050565b60606000600160f81b9050600080813360601b60405160200161069e929190610bb2565b604051602081830303815290604052905080604160001b84875160001b886040516020016106d0959493929190610c5e565b6040516020818303038152906040529350505050919050565b8280546106f590610f84565b90600052602060002090601f016020900481019282610717576000855561075e565b82601f1061073057805160ff191683800117855561075e565b8280016001018555821561075e579182015b8281111561075d578251825591602001919060010190610742565b5b50905061076b919061076f565b5090565b5b80821115610788576000816000905550600101610770565b5090565b600061079f61079a84610d98565b610d73565b9050828152602081018484840111156107b757600080fd5b6107c2848285610f42565b509392505050565b6000813590506107d98161107e565b92915050565b6000815190506107ee8161107e565b92915050565b60008083601f84011261080657600080fd5b8235905067ffffffffffffffff81111561081f57600080fd5b60208301915083600182028301111561083757600080fd5b9250929050565b600082601f83011261084f57600080fd5b813561085f84826020860161078c565b91505092915050565b60008135905061087781611095565b92915050565b60006020828403121561088f57600080fd5b600061089d848285016107ca565b91505092915050565b6000602082840312156108b857600080fd5b60006108c6848285016107df565b91505092915050565b600080604083850312156108e257600080fd5b60006108f0858286016107ca565b925050602061090185828601610868565b9150509250929050565b6000806020838503121561091e57600080fd5b600083013567ffffffffffffffff81111561093857600080fd5b610944858286016107f4565b92509250509250929050565b60006020828403121561096257600080fd5b600082013567ffffffffffffffff81111561097c57600080fd5b6109888482850161083e565b91505092915050565b600080604083850312156109a457600080fd5b600083013567ffffffffffffffff8111156109be57600080fd5b6109ca8582860161083e565b925050602083013567ffffffffffffffff8111156109e757600080fd5b6109f38582860161083e565b9150509250929050565b6000610a098383610b00565b905092915050565b6000610a1c82610dd9565b610a268185610dfc565b935083602082028501610a3885610dc9565b8060005b85811015610a745784840389528151610a5585826109fd565b9450610a6083610def565b925060208a01995050600181019050610a3c565b50829750879550505050505092915050565b610a97610a9282610e66565b610ff1565b82525050565b610aae610aa982610e3a565b610fe7565b82525050565b610ac5610ac082610e92565b610ffb565b82525050565b610ad481610ebe565b82525050565b610aeb610ae682610ebe565b611005565b82525050565b610afa81610ec8565b82525050565b6000610b0b82610de4565b610b158185610e0d565b9350610b25818560208601610f51565b610b2e8161106d565b840191505092915050565b6000610b4482610de4565b610b4e8185610e1e565b9350610b5e818560208601610f51565b610b678161106d565b840191505092915050565b6000610b7d82610de4565b610b878185610e2f565b9350610b97818560208601610f51565b80840191505092915050565b610bac81610f1e565b82525050565b6000610bbe8285610a86565b600c82019150610bce8284610ab4565b6014820191508190509392505050565b6000610bea8287610a9d565b600182019150610bfa8286610a9d565b600182019150610c0a8285610ada565b602082019150610c1a8284610ada565b60208201915081905095945050505050565b6000610c388284610ada565b60208201915081905092915050565b6000610c538284610b72565b915081905092915050565b6000610c6a8288610b72565b9150610c768287610ada565b602082019150610c868286610a9d565b600182019150610c968285610ada565b602082019150610ca68284610b72565b91508190509695505050505050565b60006020820190508181036000830152610ccf8184610a11565b905092915050565b6000602082019050610cec6000830184610acb565b92915050565b6000604082019050610d076000830185610acb565b610d146020830184610acb565b9392505050565b6000602082019050610d306000830184610af1565b92915050565b60006020820190508181036000830152610d508184610b39565b905092915050565b6000602082019050610d6d6000830184610ba3565b92915050565b6000610d7d610d8e565b9050610d898282610fb6565b919050565b6000604051905090565b600067ffffffffffffffff821115610db357610db261103e565b5b610dbc8261106d565b9050602081019050919050565b6000819050602082019050919050565b600081519050919050565b600081519050919050565b6000602082019050919050565b600082825260208201905092915050565b600082825260208201905092915050565b600082825260208201905092915050565b600081905092915050565b60007fff0000000000000000000000000000000000000000000000000000000000000082169050919050565b60007fffffffffffffffffffffffff000000000000000000000000000000000000000082169050919050565b60007fffffffffffffffffffffffffffffffffffffffff00000000000000000000000082169050919050565b6000819050919050565b60007fffffffff0000000000000000000000000000000000000000000000000000000082169050919050565b600073ffffffffffffffffffffffffffffffffffffffff82169050919050565b6000819050919050565b6000610f2982610f30565b9050919050565b6000610f3b82610ef4565b9050919050565b82818337600083830152505050565b60005b83811015610f6f578082015181840152602081019050610f54565b83811115610f7e576000848401525b50505050565b60006002820490506001821680610f9c57607f821691505b60208210811415610fb057610faf61100f565b5b50919050565b610fbf8261106d565b810181811067ffffffffffffffff82111715610fde57610fdd61103e565b5b80604052505050565b6000819050919050565b6000819050919050565b6000819050919050565b6000819050919050565b7f4e487b7100000000000000000000000000000000000000000000000000000000600052602260045260246000fd5b7f4e487b7100000000000000000000000000000000000000000000000000000000600052604160045260246000fd5b6000601f19601f8301169050919050565b61108781610ebe565b811461109257600080fd5b50565b61109e81610f14565b81146110a957600080fd5b5056fea2646970667358221220ad7c30a4ab6c0c1845477ead5933732b368e96c1589d7cfc2ab3deb27baf7f1164736f6c63430008040033",
  "linkReferences": {},
  "deployedLinkReferences": {}
}